{
  "_format": "hh-sol-artifact-1",
  "name": "BaseTemplate",
  "initializer": "function initialize(string name_, string symbol_, uint8 decimals_, uint256 amount_)",
  "sourceName": "contracts/templates/BaseTemplate.sol",
  "abi": [
    {
      "anonymous": false,
      "inputs": [
        {
          "indexed": false,
          "internalType": "address",
          "name": "previousAdmin",
          "type": "address"
        },
        {
          "indexed": false,
          "internalType": "address",
          "name": "newAdmin",
          "type": "address"
        }
      ],
      "name": "AdminChanged",
      "type": "event"
    },
    {
      "anonymous": false,
      "inputs": [
        {
          "indexed": true,
          "internalType": "address",
          "name": "owner",
          "type": "address"
        },
        {
          "indexed": true,
          "internalType": "address",
          "name": "spender",
          "type": "address"
        },
        {
          "indexed": false,
          "internalType": "uint256",
          "name": "value",
          "type": "uint256"
        }
      ],
      "name": "Approval",
      "type": "event"
    },
    {
      "anonymous": false,
      "inputs": [
        {
          "indexed": true,
          "internalType": "address",
          "name": "beacon",
          "type": "address"
        }
      ],
      "name": "BeaconUpgraded",
      "type": "event"
    },
    {
      "anonymous": false,
      "inputs": [
        {
          "indexed": true,
          "internalType": "bytes32",
          "name": "role",
          "type": "bytes32"
        },
        {
          "indexed": true,
          "internalType": "bytes32",
          "name": "previousAdminRole",
          "type": "bytes32"
        },
        {
          "indexed": true,
          "internalType": "bytes32",
          "name": "newAdminRole",
          "type": "bytes32"
        }
      ],
      "name": "RoleAdminChanged",
      "type": "event"
    },
    {
      "anonymous": false,
      "inputs": [
        {
          "indexed": true,
          "internalType": "bytes32",
          "name": "role",
          "type": "bytes32"
        },
        {
          "indexed": true,
          "internalType": "address",
          "name": "account",
          "type": "address"
        },
        {
          "indexed": true,
          "internalType": "address",
          "name": "sender",
          "type": "address"
        }
      ],
      "name": "RoleGranted",
      "type": "event"
    },
    {
      "anonymous": false,
      "inputs": [
        {
          "indexed": true,
          "internalType": "bytes32",
          "name": "role",
          "type": "bytes32"
        },
        {
          "indexed": true,
          "internalType": "address",
          "name": "account",
          "type": "address"
        },
        {
          "indexed": true,
          "internalType": "address",
          "name": "sender",
          "type": "address"
        }
      ],
      "name": "RoleRevoked",
      "type": "event"
    },
    {
      "anonymous": false,
      "inputs": [
        {
          "indexed": true,
          "internalType": "address",
          "name": "from",
          "type": "address"
        },
        {
          "indexed": true,
          "internalType": "address",
          "name": "to",
          "type": "address"
        },
        {
          "indexed": false,
          "internalType": "uint256",
          "name": "value",
          "type": "uint256"
        }
      ],
      "name": "Transfer",
      "type": "event"
    },
    {
      "anonymous": false,
      "inputs": [
        {
          "indexed": true,
          "internalType": "address",
          "name": "implementation",
          "type": "address"
        }
      ],
      "name": "Upgraded",
      "type": "event"
    },
    {
      "inputs": [],
      "name": "DEFAULT_ADMIN_ROLE",
      "outputs": [
        {
          "internalType": "bytes32",
          "name": "",
          "type": "bytes32"
        }
      ],
      "stateMutability": "view",
      "type": "function"
    },
    {
      "inputs": [],
      "name": "GOVERNANCE_ROLE",
      "outputs": [
        {
          "internalType": "bytes32",
          "name": "",
          "type": "bytes32"
        }
      ],
      "stateMutability": "view",
      "type": "function"
    },
    {
      "inputs": [],
      "name": "UPGRADE_MANAGER_ROLE",
      "outputs": [
        {
          "internalType": "bytes32",
          "name": "",
          "type": "bytes32"
        }
      ],
      "stateMutability": "view",
      "type": "function"
    },
    {
      "inputs": [
        {
          "internalType": "address",
          "name": "owner",
          "type": "address"
        },
        {
          "internalType": "address",
          "name": "spender",
          "type": "address"
        }
      ],
      "name": "allowance",
      "outputs": [
        {
          "internalType": "uint256",
          "name": "",
          "type": "uint256"
        }
      ],
      "stateMutability": "view",
      "type": "function"
    },
    {
      "inputs": [
        {
          "internalType": "address",
          "name": "spender",
          "type": "address"
        },
        {
          "internalType": "uint256",
          "name": "amount",
          "type": "uint256"
        }
      ],
      "name": "approve",
      "outputs": [
        {
          "internalType": "bool",
          "name": "",
          "type": "bool"
        }
      ],
      "stateMutability": "nonpayable",
      "type": "function"
    },
    {
      "inputs": [
        {
          "internalType": "address",
          "name": "account",
          "type": "address"
        }
      ],
      "name": "balanceOf",
      "outputs": [
        {
          "internalType": "uint256",
          "name": "",
          "type": "uint256"
        }
      ],
      "stateMutability": "view",
      "type": "function"
    },
    {
      "inputs": [],
      "name": "decimals",
      "outputs": [
        {
          "internalType": "uint8",
          "name": "",
          "type": "uint8"
        }
      ],
      "stateMutability": "view",
      "type": "function"
    },
    {
      "inputs": [
        {
          "internalType": "address",
          "name": "spender",
          "type": "address"
        },
        {
          "internalType": "uint256",
          "name": "subtractedValue",
          "type": "uint256"
        }
      ],
      "name": "decreaseAllowance",
      "outputs": [
        {
          "internalType": "bool",
          "name": "",
          "type": "bool"
        }
      ],
      "stateMutability": "nonpayable",
      "type": "function"
    },
    {
      "inputs": [],
      "name": "getImplementation",
      "outputs": [
        {
          "internalType": "address",
          "name": "",
          "type": "address"
        }
      ],
      "stateMutability": "view",
      "type": "function"
    },
    {
      "inputs": [
        {
          "internalType": "bytes32",
          "name": "role",
          "type": "bytes32"
        }
      ],
      "name": "getRoleAdmin",
      "outputs": [
        {
          "internalType": "bytes32",
          "name": "",
          "type": "bytes32"
        }
      ],
      "stateMutability": "view",
      "type": "function"
    },
    {
      "inputs": [
        {
          "internalType": "bytes32",
          "name": "role",
          "type": "bytes32"
        },
        {
          "internalType": "address",
          "name": "account",
          "type": "address"
        }
      ],
      "name": "grantRole",
      "outputs": [],
      "stateMutability": "nonpayable",
      "type": "function"
    },
    {
      "inputs": [
        {
          "internalType": "bytes32",
          "name": "role",
          "type": "bytes32"
        },
        {
          "internalType": "address",
          "name": "account",
          "type": "address"
        }
      ],
      "name": "hasRole",
      "outputs": [
        {
          "internalType": "bool",
          "name": "",
          "type": "bool"
        }
      ],
      "stateMutability": "view",
      "type": "function"
    },
    {
      "inputs": [
        {
          "internalType": "address",
          "name": "spender",
          "type": "address"
        },
        {
          "internalType": "uint256",
          "name": "addedValue",
          "type": "uint256"
        }
      ],
      "name": "increaseAllowance",
      "outputs": [
        {
          "internalType": "bool",
          "name": "",
          "type": "bool"
        }
      ],
      "stateMutability": "nonpayable",
      "type": "function"
    },
    {
      "inputs": [
        {
          "internalType": "string",
          "name": "name_",
          "type": "string"
        },
        {
          "internalType": "string",
          "name": "symbol_",
          "type": "string"
        },
        {
          "internalType": "uint8",
          "name": "decimals_",
          "type": "uint8"
        },
        {
          "internalType": "uint256",
          "name": "amount_",
          "type": "uint256"
        }
      ],
      "name": "initialize",
      "outputs": [],
      "stateMutability": "nonpayable",
      "type": "function"
    },
    {
      "inputs": [],
      "name": "name",
      "outputs": [
        {
          "internalType": "string",
          "name": "",
          "type": "string"
        }
      ],
      "stateMutability": "view",
      "type": "function"
    },
    {
      "inputs": [
        {
          "internalType": "address",
          "name": "implementationAddress",
          "type": "address"
        }
      ],
      "name": "proposeNewImplementation",
      "outputs": [],
      "stateMutability": "nonpayable",
      "type": "function"
    },
    {
      "inputs": [
        {
          "internalType": "bytes32",
          "name": "role",
          "type": "bytes32"
        },
        {
          "internalType": "address",
          "name": "account",
          "type": "address"
        }
      ],
      "name": "renounceRole",
      "outputs": [],
      "stateMutability": "nonpayable",
      "type": "function"
    },
    {
      "inputs": [
        {
          "internalType": "bytes32",
          "name": "role",
          "type": "bytes32"
        },
        {
          "internalType": "address",
          "name": "account",
          "type": "address"
        }
      ],
      "name": "revokeRole",
      "outputs": [],
      "stateMutability": "nonpayable",
      "type": "function"
    },
    {
      "inputs": [
        {
          "internalType": "bytes4",
          "name": "interfaceId",
          "type": "bytes4"
        }
      ],
      "name": "supportsInterface",
      "outputs": [
        {
          "internalType": "bool",
          "name": "",
          "type": "bool"
        }
      ],
      "stateMutability": "view",
      "type": "function"
    },
    {
      "inputs": [],
      "name": "symbol",
      "outputs": [
        {
          "internalType": "string",
          "name": "",
          "type": "string"
        }
      ],
      "stateMutability": "view",
      "type": "function"
    },
    {
      "inputs": [],
      "name": "totalSupply",
      "outputs": [
        {
          "internalType": "uint256",
          "name": "",
          "type": "uint256"
        }
      ],
      "stateMutability": "view",
      "type": "function"
    },
    {
      "inputs": [
        {
          "internalType": "address",
          "name": "recipient",
          "type": "address"
        },
        {
          "internalType": "uint256",
          "name": "amount",
          "type": "uint256"
        }
      ],
      "name": "transfer",
      "outputs": [
        {
          "internalType": "bool",
          "name": "",
          "type": "bool"
        }
      ],
      "stateMutability": "nonpayable",
      "type": "function"
    },
    {
      "inputs": [
        {
          "internalType": "address",
          "name": "sender",
          "type": "address"
        },
        {
          "internalType": "address",
          "name": "recipient",
          "type": "address"
        },
        {
          "internalType": "uint256",
          "name": "amount",
          "type": "uint256"
        }
      ],
      "name": "transferFrom",
      "outputs": [
        {
          "internalType": "bool",
          "name": "",
          "type": "bool"
        }
      ],
      "stateMutability": "nonpayable",
      "type": "function"
    },
    {
      "inputs": [
        {
          "internalType": "address",
          "name": "newImplementation",
          "type": "address"
        }
      ],
      "name": "upgradeTo",
      "outputs": [],
      "stateMutability": "nonpayable",
      "type": "function"
    },
    {
      "inputs": [
        {
          "internalType": "address",
          "name": "newImplementation",
          "type": "address"
        },
        {
          "internalType": "bytes",
          "name": "data",
          "type": "bytes"
        }
      ],
      "name": "upgradeToAndCall",
      "outputs": [],
      "stateMutability": "payable",
      "type": "function"
    }
  ],
  "bytecode": "0x60a06040523060601b60805234801561001757600080fd5b5060805160601c611ef661004b6000396000818161085a0152818161089a0152818161099c01526109dc0152611ef66000f3fe6080604052600436106101665760003560e01c806343ffa64e116100d1578063a217fddf1161008a578063aaf10f4211610064578063aaf10f421461042b578063d547741f14610458578063dd62ed3e14610478578063f36c8f5c146104be57600080fd5b8063a217fddf146103d6578063a457c2d7146103eb578063a9059cbb1461040b57600080fd5b806343ffa64e1461031657806347757fb6146103385780634f1ef2861461035857806370a082311461036b57806391d14854146103a157806395d89b41146103c157600080fd5b8063253279ad11610123578063253279ad146102515780632f2ff15d14610273578063313ce5671461029357806336568abe146102b65780633659cfe6146102d657806339509351146102f657600080fd5b806301ffc9a71461016b57806306fdde03146101a0578063095ea7b3146101c257806318160ddd146101e257806323b872dd14610201578063248a9ca314610221575b600080fd5b34801561017757600080fd5b5061018b610186366004611aff565b6104e0565b60405190151581526020015b60405180910390f35b3480156101ac57600080fd5b506101b5610517565b6040516101979190611c4c565b3480156101ce57600080fd5b5061018b6101dd366004611a99565b6105a9565b3480156101ee57600080fd5b506067545b604051908152602001610197565b34801561020d57600080fd5b5061018b61021c36600461199b565b6105bf565b34801561022d57600080fd5b506101f361023c366004611ac3565b600090815260fb602052604090206001015490565b34801561025d57600080fd5b5061027161026c366004611b29565b610670565b005b34801561027f57600080fd5b5061027161028e366004611adc565b6107a6565b34801561029f57600080fd5b506101605460405160ff9091168152602001610197565b3480156102c257600080fd5b506102716102d1366004611adc565b6107d1565b3480156102e257600080fd5b506102716102f136600461194d565b61084f565b34801561030257600080fd5b5061018b610311366004611a99565b610918565b34801561032257600080fd5b506101f3600080516020611e5a83398151915281565b34801561034457600080fd5b5061027161035336600461194d565b610954565b6102716103663660046119d7565b610991565b34801561037757600080fd5b506101f361038636600461194d565b6001600160a01b031660009081526065602052604090205490565b3480156103ad57600080fd5b5061018b6103bc366004611adc565b610a47565b3480156103cd57600080fd5b506101b5610a72565b3480156103e257600080fd5b506101f3600081565b3480156103f757600080fd5b5061018b610406366004611a99565b610a81565b34801561041757600080fd5b5061018b610426366004611a99565b610b1a565b34801561043757600080fd5b50610440610b27565b6040516001600160a01b039091168152602001610197565b34801561046457600080fd5b50610271610473366004611adc565b610b36565b34801561048457600080fd5b506101f3610493366004611968565b6001600160a01b03918216600090815260666020908152604080832093909416825291909152205490565b3480156104ca57600080fd5b506101f3600080516020611e7a83398151915281565b60006001600160e01b03198216637965db0b60e01b148061051157506301ffc9a760e01b6001600160e01b03198316145b92915050565b60606068805461052690611ddc565b80601f016020809104026020016040519081016040528092919081815260200182805461055290611ddc565b801561059f5780601f106105745761010080835404028352916020019161059f565b820191906000526020600020905b81548152906001019060200180831161058257829003601f168201915b5050505050905090565b60006105b6338484610b5c565b50600192915050565b60006105cc848484610c80565b6001600160a01b0384166000908152606660209081526040808320338452909152902054828110156106565760405162461bcd60e51b815260206004820152602860248201527f45524332303a207472616e7366657220616d6f756e74206578636565647320616044820152676c6c6f77616e636560c01b60648201526084015b60405180910390fd5b6106638533858403610b5c565b60019150505b9392505050565b600054610100900460ff1661068b5760005460ff161561068f565b303b155b6106f25760405162461bcd60e51b815260206004820152602e60248201527f496e697469616c697a61626c653a20636f6e747261637420697320616c72656160448201526d191e481a5b9a5d1a585b1a5e995960921b606482015260840161064d565b600054610100900460ff16158015610714576000805461ffff19166101011790555b61078b87878080601f01602080910402602001604051908101604052809392919081815260200183838082843760009201919091525050604080516020601f8b018190048102820181019092528981529250899150889081908401838280828437600092019190915250889250879150610e509050565b801561079d576000805461ff00191690555b50505050505050565b600082815260fb60205260409020600101546107c28133610e93565b6107cc8383610ef7565b505050565b6001600160a01b03811633146108415760405162461bcd60e51b815260206004820152602f60248201527f416363657373436f6e74726f6c3a2063616e206f6e6c792072656e6f756e636560448201526e103937b632b9903337b91039b2b63360891b606482015260840161064d565b61084b8282610f7d565b5050565b306001600160a01b037f00000000000000000000000000000000000000000000000000000000000000001614156108985760405162461bcd60e51b815260040161064d90611c7f565b7f00000000000000000000000000000000000000000000000000000000000000006001600160a01b03166108ca610fe4565b6001600160a01b0316146108f05760405162461bcd60e51b815260040161064d90611ccb565b6108f981611012565b6040805160008082526020820190925261091591839190611094565b50565b3360008181526066602090815260408083206001600160a01b038716845290915281205490916105b691859061094f908690611d62565b610b5c565b600080516020611e7a83398151915261096d8133610e93565b5061012d80546001600160a01b0319166001600160a01b0392909216919091179055565b306001600160a01b037f00000000000000000000000000000000000000000000000000000000000000001614156109da5760405162461bcd60e51b815260040161064d90611c7f565b7f00000000000000000000000000000000000000000000000000000000000000006001600160a01b0316610a0c610fe4565b6001600160a01b031614610a325760405162461bcd60e51b815260040161064d90611ccb565b610a3b82611012565b61084b82826001611094565b600091825260fb602090815260408084206001600160a01b0393909316845291905290205460ff1690565b60606069805461052690611ddc565b3360009081526066602090815260408083206001600160a01b038616845290915281205482811015610b035760405162461bcd60e51b815260206004820152602560248201527f45524332303a2064656372656173656420616c6c6f77616e63652062656c6f77604482015264207a65726f60d81b606482015260840161064d565b610b103385858403610b5c565b5060019392505050565b60006105b6338484610c80565b6000610b31610fe4565b905090565b600082815260fb6020526040902060010154610b528133610e93565b6107cc8383610f7d565b6001600160a01b038316610bbe5760405162461bcd60e51b8152602060048201526024808201527f45524332303a20617070726f76652066726f6d20746865207a65726f206164646044820152637265737360e01b606482015260840161064d565b6001600160a01b038216610c1f5760405162461bcd60e51b815260206004820152602260248201527f45524332303a20617070726f766520746f20746865207a65726f206164647265604482015261737360f01b606482015260840161064d565b6001600160a01b0383811660008181526066602090815260408083209487168084529482529182902085905590518481527f8c5be1e5ebec7d5bd14f71427d1e84f3dd0314c0f7b2291e5b200ac8c7c3b925910160405180910390a3505050565b6001600160a01b038316610ce45760405162461bcd60e51b815260206004820152602560248201527f45524332303a207472616e736665722066726f6d20746865207a65726f206164604482015264647265737360d81b606482015260840161064d565b6001600160a01b038216610d465760405162461bcd60e51b815260206004820152602360248201527f45524332303a207472616e7366657220746f20746865207a65726f206164647260448201526265737360e81b606482015260840161064d565b6001600160a01b03831660009081526065602052604090205481811015610dbe5760405162461bcd60e51b815260206004820152602660248201527f45524332303a207472616e7366657220616d6f756e7420657863656564732062604482015265616c616e636560d01b606482015260840161064d565b6001600160a01b03808516600090815260656020526040808220858503905591851681529081208054849290610df5908490611d62565b92505081905550826001600160a01b0316846001600160a01b03167fddf252ad1be2c89b69c2b068fc378daa952ba7f163c4a11628f55a4df523b3ef84604051610e4191815260200190565b60405180910390a35b50505050565b600054610100900460ff16610e775760405162461bcd60e51b815260040161064d90611d17565b610e7f6111df565b610e898484611238565b610e4a8282611286565b610e9d8282610a47565b61084b57610eb5816001600160a01b031660146112c7565b610ec08360206112c7565b604051602001610ed1929190611bd7565b60408051601f198184030181529082905262461bcd60e51b825261064d91600401611c4c565b610f018282610a47565b61084b57600082815260fb602090815260408083206001600160a01b03851684529091529020805460ff19166001179055610f393390565b6001600160a01b0316816001600160a01b0316837f2f8788117e7eff1d82e926ec794901d17c78024a50270940304540a733656f0d60405160405180910390a45050565b610f878282610a47565b1561084b57600082815260fb602090815260408083206001600160a01b0385168085529252808320805460ff1916905551339285917ff6391f5c32d9c69d2a47ea670b442974b53935d1edc7fd64eb21e047a839171b9190a45050565b7f360894a13ba1a3210667c828492db98dca3e2076cc3735a920a3ca505d382bbc546001600160a01b031690565b61102a600080516020611e7a83398151915233610a47565b806110485750611048600080516020611e5a83398151915233610a47565b6109155760405162461bcd60e51b815260206004820152601d60248201527f4552524f523a2041646472657373206e6f7420617574686f72697a6564000000604482015260640161064d565b600061109e610fe4565b90506110a984611463565b6000835111806110b65750815b156110c7576110c58484611508565b505b7f4910fdfa16fed3260ed0e7147f7cc6da11a60208b5b9406d12a635614ffd9143805460ff166111d857805460ff191660011781556040516001600160a01b038316602482015261114690869060440160408051601f198184030181529190526020810180516001600160e01b0316631b2ce7f360e11b179052611508565b50805460ff19168155611157610fe4565b6001600160a01b0316826001600160a01b0316146111cf5760405162461bcd60e51b815260206004820152602f60248201527f45524331393637557067726164653a207570677261646520627265616b73206660448201526e75727468657220757067726164657360881b606482015260840161064d565b6111d8856115f3565b5050505050565b600054610100900460ff166112065760405162461bcd60e51b815260040161064d90611d17565b61120e611633565b611216611633565b61121e611633565b611226611633565b61122e611633565b61123661165a565b565b600054610100900460ff1661125f5760405162461bcd60e51b815260040161064d90611d17565b815161127290606890602085019061184f565b5080516107cc90606990602084019061184f565b600054610100900460ff166112ad5760405162461bcd60e51b815260040161064d90611d17565b610160805460ff191660ff841617905561084b33826116e2565b606060006112d6836002611d7a565b6112e1906002611d62565b67ffffffffffffffff8111156112f9576112f9611e43565b6040519080825280601f01601f191660200182016040528015611323576020820181803683370190505b509050600360fc1b8160008151811061133e5761133e611e2d565b60200101906001600160f81b031916908160001a905350600f60fb1b8160018151811061136d5761136d611e2d565b60200101906001600160f81b031916908160001a9053506000611391846002611d7a565b61139c906001611d62565b90505b6001811115611414576f181899199a1a9b1b9c1cb0b131b232b360811b85600f16601081106113d0576113d0611e2d565b1a60f81b8282815181106113e6576113e6611e2d565b60200101906001600160f81b031916908160001a90535060049490941c9361140d81611dc5565b905061139f565b5083156106695760405162461bcd60e51b815260206004820181905260248201527f537472696e67733a20686578206c656e67746820696e73756666696369656e74604482015260640161064d565b803b6114c75760405162461bcd60e51b815260206004820152602d60248201527f455243313936373a206e657720696d706c656d656e746174696f6e206973206e60448201526c1bdd08184818dbdb9d1c9858dd609a1b606482015260840161064d565b7f360894a13ba1a3210667c828492db98dca3e2076cc3735a920a3ca505d382bbc80546001600160a01b0319166001600160a01b0392909216919091179055565b6060823b6115675760405162461bcd60e51b815260206004820152602660248201527f416464726573733a2064656c65676174652063616c6c20746f206e6f6e2d636f6044820152651b9d1c9858dd60d21b606482015260840161064d565b600080846001600160a01b0316846040516115829190611bbb565b600060405180830381855af49150503d80600081146115bd576040519150601f19603f3d011682016040523d82523d6000602084013e6115c2565b606091505b50915091506115ea8282604051806060016040528060278152602001611e9a602791396117c1565b95945050505050565b6115fc81611463565b6040516001600160a01b038216907fbc7cd75a20ee27fd9adebab32041f755214dbc6bffa90cc0225b39da2e5c2d3b90600090a250565b600054610100900460ff166112365760405162461bcd60e51b815260040161064d90611d17565b600054610100900460ff166116815760405162461bcd60e51b815260040161064d90611d17565b61168c6000336117fa565b6116a4600080516020611e7a833981519152336117fa565b6116bc600080516020611e5a833981519152336117fa565b611236600080516020611e5a833981519152600080516020611e7a833981519152611804565b6001600160a01b0382166117385760405162461bcd60e51b815260206004820152601f60248201527f45524332303a206d696e7420746f20746865207a65726f206164647265737300604482015260640161064d565b806067600082825461174a9190611d62565b90915550506001600160a01b03821660009081526065602052604081208054839290611777908490611d62565b90915550506040518181526001600160a01b038316906000907fddf252ad1be2c89b69c2b068fc378daa952ba7f163c4a11628f55a4df523b3ef9060200160405180910390a35050565b606083156117d0575081610669565b8251156117e05782518084602001fd5b8160405162461bcd60e51b815260040161064d9190611c4c565b61084b8282610ef7565b600082815260fb6020526040808220600101805490849055905190918391839186917fbd79b86ffe0ab8e8776151514217cd7cacd52c909f66475c3af44e129f0b00ff9190a4505050565b82805461185b90611ddc565b90600052602060002090601f01602090048101928261187d57600085556118c3565b82601f1061189657805160ff19168380011785556118c3565b828001600101855582156118c3579182015b828111156118c35782518255916020019190600101906118a8565b506118cf9291506118d3565b5090565b5b808211156118cf57600081556001016118d4565b80356001600160a01b03811681146118ff57600080fd5b919050565b60008083601f84011261191657600080fd5b50813567ffffffffffffffff81111561192e57600080fd5b60208301915083602082850101111561194657600080fd5b9250929050565b60006020828403121561195f57600080fd5b610669826118e8565b6000806040838503121561197b57600080fd5b611984836118e8565b9150611992602084016118e8565b90509250929050565b6000806000606084860312156119b057600080fd5b6119b9846118e8565b92506119c7602085016118e8565b9150604084013590509250925092565b600080604083850312156119ea57600080fd5b6119f3836118e8565b9150602083013567ffffffffffffffff80821115611a1057600080fd5b818501915085601f830112611a2457600080fd5b813581811115611a3657611a36611e43565b604051601f8201601f19908116603f01168101908382118183101715611a5e57611a5e611e43565b81604052828152886020848701011115611a7757600080fd5b8260208601602083013760006020848301015280955050505050509250929050565b60008060408385031215611aac57600080fd5b611ab5836118e8565b946020939093013593505050565b600060208284031215611ad557600080fd5b5035919050565b60008060408385031215611aef57600080fd5b82359150611992602084016118e8565b600060208284031215611b1157600080fd5b81356001600160e01b03198116811461066957600080fd5b60008060008060008060808789031215611b4257600080fd5b863567ffffffffffffffff80821115611b5a57600080fd5b611b668a838b01611904565b90985096506020890135915080821115611b7f57600080fd5b50611b8c89828a01611904565b909550935050604087013560ff81168114611ba657600080fd5b80925050606087013590509295509295509295565b60008251611bcd818460208701611d99565b9190910192915050565b7f416363657373436f6e74726f6c3a206163636f756e7420000000000000000000815260008351611c0f816017850160208801611d99565b7001034b99036b4b9b9b4b733903937b6329607d1b6017918401918201528351611c40816028840160208801611d99565b01602801949350505050565b6020815260008251806020840152611c6b816040850160208701611d99565b601f01601f19169190910160400192915050565b6020808252602c908201527f46756e6374696f6e206d7573742062652063616c6c6564207468726f7567682060408201526b19195b1959d85d1958d85b1b60a21b606082015260800190565b6020808252602c908201527f46756e6374696f6e206d7573742062652063616c6c6564207468726f7567682060408201526b6163746976652070726f787960a01b606082015260800190565b6020808252602b908201527f496e697469616c697a61626c653a20636f6e7472616374206973206e6f74206960408201526a6e697469616c697a696e6760a81b606082015260800190565b60008219821115611d7557611d75611e17565b500190565b6000816000190483118215151615611d9457611d94611e17565b500290565b60005b83811015611db4578181015183820152602001611d9c565b83811115610e4a5750506000910152565b600081611dd457611dd4611e17565b506000190190565b600181811c90821680611df057607f821691505b60208210811415611e1157634e487b7160e01b600052602260045260246000fd5b50919050565b634e487b7160e01b600052601160045260246000fd5b634e487b7160e01b600052603260045260246000fd5b634e487b7160e01b600052604160045260246000fdfea76ace73a908083d89af9ff88e5b4f7cadb3591a80631063f68b695fda726db571840dc4906352362b0cdaf79870196c8e42acafade72d5d5a6d59291253ceb1416464726573733a206c6f772d6c6576656c2064656c65676174652063616c6c206661696c6564a26469706673582212205241d7350b72bc32977d3eb84f93b16dbbc3ed915c7e4c6f1ad26e8ed5b0aff964736f6c63430008060033",
  "linkReferences": {},
  "deployedLinkReferences": {}
}