{
  "_format": "hh-sol-artifact-1",
  "name": "BlacklistMintSnapshotTxFeeTemplate",
  "initializer": "function initialize(string name_, string symbol_, uint8 decimals_, uint256 amount_, uint256 txFee, address txFeeBeneficiary)",
  "sourceName": "contracts/templates/BlacklistMintSnapshotTxFeeTemplate.sol",
  "abi": [
    {
      "anonymous": false,
      "inputs": [
        {
          "indexed": false,
          "internalType": "address",
          "name": "previousAdmin",
          "type": "address"
        },
        {
          "indexed": false,
          "internalType": "address",
          "name": "newAdmin",
          "type": "address"
        }
      ],
      "name": "AdminChanged",
      "type": "event"
    },
    {
      "anonymous": false,
      "inputs": [
        {
          "indexed": true,
          "internalType": "address",
          "name": "owner",
          "type": "address"
        },
        {
          "indexed": true,
          "internalType": "address",
          "name": "spender",
          "type": "address"
        },
        {
          "indexed": false,
          "internalType": "uint256",
          "name": "value",
          "type": "uint256"
        }
      ],
      "name": "Approval",
      "type": "event"
    },
    {
      "anonymous": false,
      "inputs": [
        {
          "indexed": true,
          "internalType": "address",
          "name": "beacon",
          "type": "address"
        }
      ],
      "name": "BeaconUpgraded",
      "type": "event"
    },
    {
      "anonymous": false,
      "inputs": [
        {
          "indexed": true,
          "internalType": "bytes32",
          "name": "role",
          "type": "bytes32"
        },
        {
          "indexed": true,
          "internalType": "bytes32",
          "name": "previousAdminRole",
          "type": "bytes32"
        },
        {
          "indexed": true,
          "internalType": "bytes32",
          "name": "newAdminRole",
          "type": "bytes32"
        }
      ],
      "name": "RoleAdminChanged",
      "type": "event"
    },
    {
      "anonymous": false,
      "inputs": [
        {
          "indexed": true,
          "internalType": "bytes32",
          "name": "role",
          "type": "bytes32"
        },
        {
          "indexed": true,
          "internalType": "address",
          "name": "account",
          "type": "address"
        },
        {
          "indexed": true,
          "internalType": "address",
          "name": "sender",
          "type": "address"
        }
      ],
      "name": "RoleGranted",
      "type": "event"
    },
    {
      "anonymous": false,
      "inputs": [
        {
          "indexed": true,
          "internalType": "bytes32",
          "name": "role",
          "type": "bytes32"
        },
        {
          "indexed": true,
          "internalType": "address",
          "name": "account",
          "type": "address"
        },
        {
          "indexed": true,
          "internalType": "address",
          "name": "sender",
          "type": "address"
        }
      ],
      "name": "RoleRevoked",
      "type": "event"
    },
    {
      "anonymous": false,
      "inputs": [
        {
          "indexed": false,
          "internalType": "uint256",
          "name": "id",
          "type": "uint256"
        }
      ],
      "name": "Snapshot",
      "type": "event"
    },
    {
      "anonymous": false,
      "inputs": [
        {
          "indexed": true,
          "internalType": "address",
          "name": "from",
          "type": "address"
        },
        {
          "indexed": true,
          "internalType": "address",
          "name": "to",
          "type": "address"
        },
        {
          "indexed": false,
          "internalType": "uint256",
          "name": "value",
          "type": "uint256"
        }
      ],
      "name": "Transfer",
      "type": "event"
    },
    {
      "anonymous": false,
      "inputs": [
        {
          "indexed": true,
          "internalType": "address",
          "name": "implementation",
          "type": "address"
        }
      ],
      "name": "Upgraded",
      "type": "event"
    },
    {
      "inputs": [],
      "name": "BLACKLISTED_ROLE",
      "outputs": [
        {
          "internalType": "bytes32",
          "name": "",
          "type": "bytes32"
        }
      ],
      "stateMutability": "view",
      "type": "function"
    },
    {
      "inputs": [],
      "name": "BLACKLIST_MANAGER_ROLE",
      "outputs": [
        {
          "internalType": "bytes32",
          "name": "",
          "type": "bytes32"
        }
      ],
      "stateMutability": "view",
      "type": "function"
    },
    {
      "inputs": [],
      "name": "DEFAULT_ADMIN_ROLE",
      "outputs": [
        {
          "internalType": "bytes32",
          "name": "",
          "type": "bytes32"
        }
      ],
      "stateMutability": "view",
      "type": "function"
    },
    {
      "inputs": [],
      "name": "GOVERNANCE_ROLE",
      "outputs": [
        {
          "internalType": "bytes32",
          "name": "",
          "type": "bytes32"
        }
      ],
      "stateMutability": "view",
      "type": "function"
    },
    {
      "inputs": [],
      "name": "MINTER_ROLE",
      "outputs": [
        {
          "internalType": "bytes32",
          "name": "",
          "type": "bytes32"
        }
      ],
      "stateMutability": "view",
      "type": "function"
    },
    {
      "inputs": [],
      "name": "UPGRADE_MANAGER_ROLE",
      "outputs": [
        {
          "internalType": "bytes32",
          "name": "",
          "type": "bytes32"
        }
      ],
      "stateMutability": "view",
      "type": "function"
    },
    {
      "inputs": [
        {
          "internalType": "address[]",
          "name": "addresses",
          "type": "address[]"
        }
      ],
      "name": "addAddressesToBlacklist",
      "outputs": [],
      "stateMutability": "nonpayable",
      "type": "function"
    },
    {
      "inputs": [
        {
          "internalType": "address",
          "name": "owner",
          "type": "address"
        },
        {
          "internalType": "address",
          "name": "spender",
          "type": "address"
        }
      ],
      "name": "allowance",
      "outputs": [
        {
          "internalType": "uint256",
          "name": "",
          "type": "uint256"
        }
      ],
      "stateMutability": "view",
      "type": "function"
    },
    {
      "inputs": [
        {
          "internalType": "address",
          "name": "spender",
          "type": "address"
        },
        {
          "internalType": "uint256",
          "name": "amount",
          "type": "uint256"
        }
      ],
      "name": "approve",
      "outputs": [
        {
          "internalType": "bool",
          "name": "",
          "type": "bool"
        }
      ],
      "stateMutability": "nonpayable",
      "type": "function"
    },
    {
      "inputs": [
        {
          "internalType": "address",
          "name": "account",
          "type": "address"
        }
      ],
      "name": "balanceOf",
      "outputs": [
        {
          "internalType": "uint256",
          "name": "",
          "type": "uint256"
        }
      ],
      "stateMutability": "view",
      "type": "function"
    },
    {
      "inputs": [
        {
          "internalType": "address",
          "name": "account",
          "type": "address"
        },
        {
          "internalType": "uint256",
          "name": "snapshotId",
          "type": "uint256"
        }
      ],
      "name": "balanceOfAt",
      "outputs": [
        {
          "internalType": "uint256",
          "name": "",
          "type": "uint256"
        }
      ],
      "stateMutability": "view",
      "type": "function"
    },
    {
      "inputs": [
        {
          "internalType": "address[]",
          "name": "accounts",
          "type": "address[]"
        },
        {
          "internalType": "uint256[]",
          "name": "amounts",
          "type": "uint256[]"
        }
      ],
      "name": "bulkMint",
      "outputs": [],
      "stateMutability": "nonpayable",
      "type": "function"
    },
    {
      "inputs": [
        {
          "internalType": "uint256",
          "name": "newTxFee",
          "type": "uint256"
        },
        {
          "internalType": "address",
          "name": "newTxBeneficiary",
          "type": "address"
        }
      ],
      "name": "changeTxFeeProperties",
      "outputs": [],
      "stateMutability": "nonpayable",
      "type": "function"
    },
    {
      "inputs": [],
      "name": "decimals",
      "outputs": [
        {
          "internalType": "uint8",
          "name": "",
          "type": "uint8"
        }
      ],
      "stateMutability": "view",
      "type": "function"
    },
    {
      "inputs": [
        {
          "internalType": "address",
          "name": "spender",
          "type": "address"
        },
        {
          "internalType": "uint256",
          "name": "subtractedValue",
          "type": "uint256"
        }
      ],
      "name": "decreaseAllowance",
      "outputs": [
        {
          "internalType": "bool",
          "name": "",
          "type": "bool"
        }
      ],
      "stateMutability": "nonpayable",
      "type": "function"
    },
    {
      "inputs": [],
      "name": "getCurrentSnapshotId",
      "outputs": [
        {
          "internalType": "uint256",
          "name": "",
          "type": "uint256"
        }
      ],
      "stateMutability": "view",
      "type": "function"
    },
    {
      "inputs": [],
      "name": "getImplementation",
      "outputs": [
        {
          "internalType": "address",
          "name": "",
          "type": "address"
        }
      ],
      "stateMutability": "view",
      "type": "function"
    },
    {
      "inputs": [
        {
          "internalType": "bytes32",
          "name": "role",
          "type": "bytes32"
        }
      ],
      "name": "getRoleAdmin",
      "outputs": [
        {
          "internalType": "bytes32",
          "name": "",
          "type": "bytes32"
        }
      ],
      "stateMutability": "view",
      "type": "function"
    },
    {
      "inputs": [
        {
          "internalType": "bytes32",
          "name": "role",
          "type": "bytes32"
        },
        {
          "internalType": "address",
          "name": "account",
          "type": "address"
        }
      ],
      "name": "grantRole",
      "outputs": [],
      "stateMutability": "nonpayable",
      "type": "function"
    },
    {
      "inputs": [
        {
          "internalType": "bytes32",
          "name": "role",
          "type": "bytes32"
        },
        {
          "internalType": "address",
          "name": "account",
          "type": "address"
        }
      ],
      "name": "hasRole",
      "outputs": [
        {
          "internalType": "bool",
          "name": "",
          "type": "bool"
        }
      ],
      "stateMutability": "view",
      "type": "function"
    },
    {
      "inputs": [
        {
          "internalType": "address",
          "name": "spender",
          "type": "address"
        },
        {
          "internalType": "uint256",
          "name": "addedValue",
          "type": "uint256"
        }
      ],
      "name": "increaseAllowance",
      "outputs": [
        {
          "internalType": "bool",
          "name": "",
          "type": "bool"
        }
      ],
      "stateMutability": "nonpayable",
      "type": "function"
    },
    {
      "inputs": [
        {
          "internalType": "string",
          "name": "name_",
          "type": "string"
        },
        {
          "internalType": "string",
          "name": "symbol_",
          "type": "string"
        },
        {
          "internalType": "uint8",
          "name": "decimals_",
          "type": "uint8"
        },
        {
          "internalType": "uint256",
          "name": "amount_",
          "type": "uint256"
        },
        {
          "internalType": "uint256",
          "name": "txFee",
          "type": "uint256"
        },
        {
          "internalType": "address",
          "name": "txFeeBeneficiary",
          "type": "address"
        }
      ],
      "name": "initialize",
      "outputs": [],
      "stateMutability": "nonpayable",
      "type": "function"
    },
    {
      "inputs": [
        {
          "internalType": "address",
          "name": "account",
          "type": "address"
        },
        {
          "internalType": "uint256",
          "name": "amount",
          "type": "uint256"
        }
      ],
      "name": "mint",
      "outputs": [],
      "stateMutability": "nonpayable",
      "type": "function"
    },
    {
      "inputs": [],
      "name": "name",
      "outputs": [
        {
          "internalType": "string",
          "name": "",
          "type": "string"
        }
      ],
      "stateMutability": "view",
      "type": "function"
    },
    {
      "inputs": [
        {
          "internalType": "address",
          "name": "implementationAddress",
          "type": "address"
        }
      ],
      "name": "proposeNewImplementation",
      "outputs": [],
      "stateMutability": "nonpayable",
      "type": "function"
    },
    {
      "inputs": [
        {
          "internalType": "address[]",
          "name": "addresses",
          "type": "address[]"
        }
      ],
      "name": "removeAddressesFromBlacklist",
      "outputs": [],
      "stateMutability": "nonpayable",
      "type": "function"
    },
    {
      "inputs": [
        {
          "internalType": "bytes32",
          "name": "role",
          "type": "bytes32"
        },
        {
          "internalType": "address",
          "name": "account",
          "type": "address"
        }
      ],
      "name": "renounceRole",
      "outputs": [],
      "stateMutability": "nonpayable",
      "type": "function"
    },
    {
      "inputs": [
        {
          "internalType": "bytes32",
          "name": "role",
          "type": "bytes32"
        },
        {
          "internalType": "address",
          "name": "account",
          "type": "address"
        }
      ],
      "name": "revokeRole",
      "outputs": [],
      "stateMutability": "nonpayable",
      "type": "function"
    },
    {
      "inputs": [],
      "name": "snapshot",
      "outputs": [],
      "stateMutability": "nonpayable",
      "type": "function"
    },
    {
      "inputs": [
        {
          "internalType": "bytes4",
          "name": "interfaceId",
          "type": "bytes4"
        }
      ],
      "name": "supportsInterface",
      "outputs": [
        {
          "internalType": "bool",
          "name": "",
          "type": "bool"
        }
      ],
      "stateMutability": "view",
      "type": "function"
    },
    {
      "inputs": [],
      "name": "symbol",
      "outputs": [
        {
          "internalType": "string",
          "name": "",
          "type": "string"
        }
      ],
      "stateMutability": "view",
      "type": "function"
    },
    {
      "inputs": [],
      "name": "totalSupply",
      "outputs": [
        {
          "internalType": "uint256",
          "name": "",
          "type": "uint256"
        }
      ],
      "stateMutability": "view",
      "type": "function"
    },
    {
      "inputs": [
        {
          "internalType": "uint256",
          "name": "snapshotId",
          "type": "uint256"
        }
      ],
      "name": "totalSupplyAt",
      "outputs": [
        {
          "internalType": "uint256",
          "name": "",
          "type": "uint256"
        }
      ],
      "stateMutability": "view",
      "type": "function"
    },
    {
      "inputs": [
        {
          "internalType": "address",
          "name": "recipient",
          "type": "address"
        },
        {
          "internalType": "uint256",
          "name": "amount",
          "type": "uint256"
        }
      ],
      "name": "transfer",
      "outputs": [
        {
          "internalType": "bool",
          "name": "",
          "type": "bool"
        }
      ],
      "stateMutability": "nonpayable",
      "type": "function"
    },
    {
      "inputs": [
        {
          "internalType": "address",
          "name": "sender",
          "type": "address"
        },
        {
          "internalType": "address",
          "name": "recipient",
          "type": "address"
        },
        {
          "internalType": "uint256",
          "name": "amount",
          "type": "uint256"
        }
      ],
      "name": "transferFrom",
      "outputs": [
        {
          "internalType": "bool",
          "name": "",
          "type": "bool"
        }
      ],
      "stateMutability": "nonpayable",
      "type": "function"
    },
    {
      "inputs": [
        {
          "internalType": "address",
          "name": "newImplementation",
          "type": "address"
        }
      ],
      "name": "upgradeTo",
      "outputs": [],
      "stateMutability": "nonpayable",
      "type": "function"
    },
    {
      "inputs": [
        {
          "internalType": "address",
          "name": "newImplementation",
          "type": "address"
        },
        {
          "internalType": "bytes",
          "name": "data",
          "type": "bytes"
        }
      ],
      "name": "upgradeToAndCall",
      "outputs": [],
      "stateMutability": "payable",
      "type": "function"
    }
  ],
  "bytecode": "0x60a06040523060601b60805234801561001757600080fd5b5060805160601c612e5a61004b60003960008181610a3701528181610a7701528181610c580152610c980152612e5a6000f3fe60806040526004361061021a5760003560e01c80634f1ef28611610123578063981b24d0116100ab578063ca73419e1161006f578063ca73419e1461063a578063d53913931461065a578063d547741f1461068e578063dd62ed3e146106ae578063f36c8f5c146106f457600080fd5b8063981b24d014610598578063a217fddf146105b8578063a457c2d7146105cd578063a9059cbb146105ed578063aaf10f421461060d57600080fd5b80636ae459bd116100f25780636ae459bd146104f857806370a082311461051857806391d148541461054e57806395d89b411461056e5780639711715a1461058357600080fd5b80634f1ef2861461048e5780635120561a146104a15780635439ad86146104c157806362b199c5146104d657600080fd5b806332258794116101a657806340c10f191161017557806340c10f19146103ea578063410b24241461040a57806343ffa64e1461042c57806347757fb61461044e5780634ee2cd7e1461046e57600080fd5b8063322587941461036a57806336568abe1461038a5780633659cfe6146103aa57806339509351146103ca57600080fd5b806323b872dd116101ed57806323b872dd146102b5578063248a9ca3146102d55780632cd77a5a146103055780632f2ff15d14610327578063313ce5671461034757600080fd5b806301ffc9a71461021f57806306fdde0314610254578063095ea7b31461027657806318160ddd14610296575b600080fd5b34801561022b57600080fd5b5061023f61023a366004612988565b610716565b60405190151581526020015b60405180910390f35b34801561026057600080fd5b5061026961074d565b60405161024b9190612ae2565b34801561028257600080fd5b5061023f610291366004612874565b6107df565b3480156102a257600080fd5b506067545b60405190815260200161024b565b3480156102c157600080fd5b5061023f6102d03660046127d6565b6107f5565b3480156102e157600080fd5b506102a76102f036600461294c565b600090815260fb602052604090206001015490565b34801561031157600080fd5b506103256103203660046129b2565b6108a6565b005b34801561033357600080fd5b50610325610342366004612965565b61098b565b34801561035357600080fd5b506101605460405160ff909116815260200161024b565b34801561037657600080fd5b5061032561038536600461289e565b6109a3565b34801561039657600080fd5b506103256103a5366004612965565b610a18565b3480156103b657600080fd5b506103256103c5366004612788565b610a2c565b3480156103d657600080fd5b5061023f6103e5366004612874565b610af5565b3480156103f657600080fd5b50610325610405366004612874565b610b31565b34801561041657600080fd5b506102a7600080516020612d9e83398151915281565b34801561043857600080fd5b506102a7600080516020612d5e83398151915281565b34801561045a57600080fd5b50610325610469366004612788565b610b6b565b34801561047a57600080fd5b506102a7610489366004612874565b610ba8565b61032561049c366004612812565b610c4d565b3480156104ad57600080fd5b506103256104bc366004612965565b610d03565b3480156104cd57600080fd5b506102a7610d78565b3480156104e257600080fd5b506102a7600080516020612d3e83398151915281565b34801561050457600080fd5b506103256105133660046128e0565b610d95565b34801561052457600080fd5b506102a7610533366004612788565b6001600160a01b031660009081526065602052604090205490565b34801561055a57600080fd5b5061023f610569366004612965565b610e74565b34801561057a57600080fd5b50610269610e9f565b34801561058f57600080fd5b50610325610eae565b3480156105a457600080fd5b506102a76105b336600461294c565b610eb6565b3480156105c457600080fd5b506102a7600081565b3480156105d957600080fd5b5061023f6105e8366004612874565b610f21565b3480156105f957600080fd5b5061023f610608366004612874565b610fba565b34801561061957600080fd5b50610622610fc7565b6040516001600160a01b03909116815260200161024b565b34801561064657600080fd5b5061032561065536600461289e565b610fd1565b34801561066657600080fd5b506102a77ff9424f4303d7f03683a025eb8885734ad99b47df7749d9b0a02cbc985809700b81565b34801561069a57600080fd5b506103256106a9366004612965565b611040565b3480156106ba57600080fd5b506102a76106c93660046127a3565b6001600160a01b03918216600090815260666020908152604080832093909416825291909152205490565b34801561070057600080fd5b506102a7600080516020612d7e83398151915281565b60006001600160e01b03198216637965db0b60e01b148061074757506301ffc9a760e01b6001600160e01b03198316145b92915050565b60606068805461075c90612cab565b80601f016020809104026020016040519081016040528092919081815260200182805461078890612cab565b80156107d55780601f106107aa576101008083540402835291602001916107d5565b820191906000526020600020905b8154815290600101906020018083116107b857829003601f168201915b5050505050905090565b60006107ec338484611066565b50600192915050565b600061080284848461118a565b6001600160a01b03841660009081526066602090815260408083203384529091529020548281101561088c5760405162461bcd60e51b815260206004820152602860248201527f45524332303a207472616e7366657220616d6f756e74206578636565647320616044820152676c6c6f77616e636560c01b60648201526084015b60405180910390fd5b6108998533858403611066565b60019150505b9392505050565b600054610100900460ff166108c15760005460ff16156108c5565b303b155b6109285760405162461bcd60e51b815260206004820152602e60248201527f496e697469616c697a61626c653a20636f6e747261637420697320616c72656160448201526d191e481a5b9a5d1a585b1a5e995960921b6064820152608401610883565b600054610100900460ff1615801561094a576000805461ffff19166101011790555b61095687878787611363565b61095e6113a6565b6109666113f5565b610970838361141c565b8015610982576000805461ff00191690555b50505050505050565b61099582826114ab565b61099f828261153a565b5050565b600080516020612d9e8339815191526109bc8133611560565b60005b82811015610a1257610a00600080516020612d3e8339815191528585848181106109eb576109eb612d11565b90506020020160208101906106a99190612788565b80610a0a81612ce0565b9150506109bf565b50505050565b610a2282826115c4565b61099f828261162c565b306001600160a01b037f0000000000000000000000000000000000000000000000000000000000000000161415610a755760405162461bcd60e51b815260040161088390612b15565b7f00000000000000000000000000000000000000000000000000000000000000006001600160a01b0316610aa76116a6565b6001600160a01b031614610acd5760405162461bcd60e51b815260040161088390612b61565b610ad6816116d4565b60408051600080825260208201909252610af291839190611756565b50565b3360008181526066602090815260408083206001600160a01b038716845290915281205490916107ec918590610b2c908690612bf8565b611066565b7ff9424f4303d7f03683a025eb8885734ad99b47df7749d9b0a02cbc985809700b610b5c8133611560565b610b6683836118a1565b505050565b600080516020612d7e833981519152610b848133611560565b5061012d80546001600160a01b0319166001600160a01b0392909216919091179055565b604080516001600160a01b0384166020808301919091527ffbf1c7065455eb4486649b8540f24ef2dd4ebedf2aa423f0039d17c2c75dea15828401528251808303840181526060909201909252805191012060009081610c09826001612bf8565b9050600080610c1986858561198c565b9150915081610c40576001600160a01b038716600090815260656020526040902054610c42565b805b979650505050505050565b306001600160a01b037f0000000000000000000000000000000000000000000000000000000000000000161415610c965760405162461bcd60e51b815260040161088390612b15565b7f00000000000000000000000000000000000000000000000000000000000000006001600160a01b0316610cc86116a6565b6001600160a01b031614610cee5760405162461bcd60e51b815260040161088390612b61565b610cf7826116d4565b61099f82826001611756565b6000610d0f8133611560565b6001600160a01b038216610d2257600080fd5b82600080516020612dbe83398151915255817fe38b16c806f019542b2d4bf356bb4ba2ea4b7eb450b8fbff2584f6084c4978f180546001600160a01b0319166001600160a01b0392909216919091179055505050565b6000610d90600080516020612e058339815191525490565b905090565b7ff9424f4303d7f03683a025eb8885734ad99b47df7749d9b0a02cbc985809700b610dc08133611560565b838214610e075760405162461bcd60e51b8152602060048201526015602482015274082e4e4c2f240d8cadccee8d040dad2e6dac2e8c6d605b1b6044820152606401610883565b60005b84811015610e6c57610e5a868683818110610e2757610e27612d11565b9050602002016020810190610e3c9190612788565b858584818110610e4e57610e4e612d11565b905060200201356118a1565b80610e6481612ce0565b915050610e0a565b505050505050565b600091825260fb602090815260408084206001600160a01b0393909316845291905290205460ff1690565b60606069805461075c90612cab565b610af2611a77565b6000806000610f06847f286a9db37a0f8ddcbcee127c9f4f56031230f49cb46786f87e166d552e11f67e7ffcaa8bb100d3c5b627eac0369cc1d2778dbeffa2993d08f039fb27795729e9a561198c565b9150915081610f1757606754610f19565b805b949350505050565b3360009081526066602090815260408083206001600160a01b038616845290915281205482811015610fa35760405162461bcd60e51b815260206004820152602560248201527f45524332303a2064656372656173656420616c6c6f77616e63652062656c6f77604482015264207a65726f60d81b6064820152608401610883565b610fb03385858403611066565b5060019392505050565b60006107ec33848461118a565b6000610d906116a6565b600080516020612d9e833981519152610fea8133611560565b60005b82811015610a125761102e600080516020612d3e83398151915285858481811061101957611019612d11565b90506020020160208101906103429190612788565b8061103881612ce0565b915050610fed565b600082815260fb602052604090206001015461105c8133611560565b610b668383611ae7565b6001600160a01b0383166110c85760405162461bcd60e51b8152602060048201526024808201527f45524332303a20617070726f76652066726f6d20746865207a65726f206164646044820152637265737360e01b6064820152608401610883565b6001600160a01b0382166111295760405162461bcd60e51b815260206004820152602260248201527f45524332303a20617070726f766520746f20746865207a65726f206164647265604482015261737360f01b6064820152608401610883565b6001600160a01b0383811660008181526066602090815260408083209487168084529482529182902085905590518481527f8c5be1e5ebec7d5bd14f71427d1e84f3dd0314c0f7b2291e5b200ac8c7c3b925910160405180910390a3505050565b6001600160a01b0383166111ee5760405162461bcd60e51b815260206004820152602560248201527f45524332303a207472616e736665722066726f6d20746865207a65726f206164604482015264647265737360d81b6064820152608401610883565b6001600160a01b0382166112505760405162461bcd60e51b815260206004820152602360248201527f45524332303a207472616e7366657220746f20746865207a65726f206164647260448201526265737360e81b6064820152608401610883565b61125b838383611b4e565b6001600160a01b038316600090815260656020526040902054818110156112d35760405162461bcd60e51b815260206004820152602660248201527f45524332303a207472616e7366657220616d6f756e7420657863656564732062604482015265616c616e636560d01b6064820152608401610883565b6001600160a01b0380851660009081526065602052604080822085850390559185168152908120805484929061130a908490612bf8565b92505081905550826001600160a01b0316846001600160a01b03167fddf252ad1be2c89b69c2b068fc378daa952ba7f163c4a11628f55a4df523b3ef8460405161135691815260200190565b60405180910390a3610a12565b600054610100900460ff1661138a5760405162461bcd60e51b815260040161088390612bad565b611392611b64565b61139c8484611bbb565b610a128282611c09565b600054610100900460ff166113cd5760405162461bcd60e51b815260040161088390612bad565b6113f3600080516020612d3e833981519152600080516020612d9e833981519152611c4a565b565b600054610100900460ff166113f35760405162461bcd60e51b815260040161088390612bad565b600054610100900460ff166114435760405162461bcd60e51b815260040161088390612bad565b6001600160a01b03811661145657600080fd5b81600080516020612dbe83398151915255807fe38b16c806f019542b2d4bf356bb4ba2ea4b7eb450b8fbff2584f6084c4978f180546001600160a01b0319166001600160a01b03929092169190911790555050565b600080516020612d9e8339815191528214806114c5575081155b1561099f576114e2600080516020612d3e83398151915282610e74565b1561099f5760405162461bcd60e51b815260206004820152602260248201527f63616e206e6f742061737369676e20726f6c6520746f20626c61636b6c697374604482015261195960f21b6064820152608401610883565b600082815260fb60205260409020600101546115568133611560565b610b668383611c95565b61156a8282610e74565b61099f57611582816001600160a01b03166014611d1b565b61158d836020611d1b565b60405160200161159e929190612a6d565b60408051601f198184030181529082905262461bcd60e51b825261088391600401612ae2565b600080516020612d3e83398151915282141561099f5760405162461bcd60e51b815260206004820152602160248201527f43616e206e6f742072656e6f756e636520626c61636b6c697374656420726f6c6044820152606560f81b6064820152608401610883565b6001600160a01b038116331461169c5760405162461bcd60e51b815260206004820152602f60248201527f416363657373436f6e74726f6c3a2063616e206f6e6c792072656e6f756e636560448201526e103937b632b9903337b91039b2b63360891b6064820152608401610883565b61099f8282611ae7565b7f360894a13ba1a3210667c828492db98dca3e2076cc3735a920a3ca505d382bbc546001600160a01b031690565b6116ec600080516020612d7e83398151915233610e74565b8061170a575061170a600080516020612d5e83398151915233610e74565b610af25760405162461bcd60e51b815260206004820152601d60248201527f4552524f523a2041646472657373206e6f7420617574686f72697a65640000006044820152606401610883565b60006117606116a6565b905061176b84611eb7565b6000835111806117785750815b15611789576117878484611f5c565b505b7f4910fdfa16fed3260ed0e7147f7cc6da11a60208b5b9406d12a635614ffd9143805460ff1661189a57805460ff191660011781556040516001600160a01b038316602482015261180890869060440160408051601f198184030181529190526020810180516001600160e01b0316631b2ce7f360e11b179052611f5c565b50805460ff191681556118196116a6565b6001600160a01b0316826001600160a01b0316146118915760405162461bcd60e51b815260206004820152602f60248201527f45524331393637557067726164653a207570677261646520627265616b73206660448201526e75727468657220757067726164657360881b6064820152608401610883565b61189a85612047565b5050505050565b6001600160a01b0382166118f75760405162461bcd60e51b815260206004820152601f60248201527f45524332303a206d696e7420746f20746865207a65726f2061646472657373006044820152606401610883565b61190360008383611b4e565b80606760008282546119159190612bf8565b90915550506001600160a01b03821660009081526065602052604081208054839290611942908490612bf8565b90915550506040518181526001600160a01b038316906000907fddf252ad1be2c89b69c2b068fc378daa952ba7f163c4a11628f55a4df523b3ef9060200160405180910390a35050565b600080600085116119d85760405162461bcd60e51b815260206004820152601660248201527504552433230536e617073686f743a20696420697320360541b6044820152606401610883565b600080516020612e0583398151915254851115611a375760405162461bcd60e51b815260206004820152601d60248201527f4552433230536e617073686f743a206e6f6e6578697374656e742069640000006044820152606401610883565b6000611a438587612087565b90508454811415611a5b576000809250925050611a6f565b6001611a678583612126565b549093509150505b935093915050565b60006001600080516020612e058339815191528054600090611a9a908490612bf8565b9091555050600080516020612e05833981519152546040518181527f8030e83b04d87bef53480e26263266d6ca66863aa8506aca6f2559d18aa1cb679060200160405180910390a1919050565b611af18282610e74565b1561099f57600082815260fb602090815260408083206001600160a01b0385168085529252808320805460ff1916905551339285917ff6391f5c32d9c69d2a47ea670b442974b53935d1edc7fd64eb21e047a839171b9190a45050565b611b598383836121a5565b610b668383836121c6565b600054610100900460ff16611b8b5760405162461bcd60e51b815260040161088390612bad565b611b936113f5565b611b9b6113f5565b611ba36113f5565b611bab6113f5565b611bb36113f5565b6113f361220e565b600054610100900460ff16611be25760405162461bcd60e51b815260040161088390612bad565b8151611bf59060689060208501906125f1565b508051610b669060699060208401906125f1565b600054610100900460ff16611c305760405162461bcd60e51b815260040161088390612bad565b610160805460ff191660ff841617905561099f33826118a1565b600082815260fb6020526040808220600101805490849055905190918391839186917fbd79b86ffe0ab8e8776151514217cd7cacd52c909f66475c3af44e129f0b00ff9190a4505050565b611c9f8282610e74565b61099f57600082815260fb602090815260408083206001600160a01b03851684529091529020805460ff19166001179055611cd73390565b6001600160a01b0316816001600160a01b0316837f2f8788117e7eff1d82e926ec794901d17c78024a50270940304540a733656f0d60405160405180910390a45050565b60606000611d2a836002612c32565b611d35906002612bf8565b67ffffffffffffffff811115611d4d57611d4d612d27565b6040519080825280601f01601f191660200182016040528015611d77576020820181803683370190505b509050600360fc1b81600081518110611d9257611d92612d11565b60200101906001600160f81b031916908160001a905350600f60fb1b81600181518110611dc157611dc1612d11565b60200101906001600160f81b031916908160001a9053506000611de5846002612c32565b611df0906001612bf8565b90505b6001811115611e68576f181899199a1a9b1b9c1cb0b131b232b360811b85600f1660108110611e2457611e24612d11565b1a60f81b828281518110611e3a57611e3a612d11565b60200101906001600160f81b031916908160001a90535060049490941c93611e6181612c94565b9050611df3565b50831561089f5760405162461bcd60e51b815260206004820181905260248201527f537472696e67733a20686578206c656e67746820696e73756666696369656e746044820152606401610883565b803b611f1b5760405162461bcd60e51b815260206004820152602d60248201527f455243313936373a206e657720696d706c656d656e746174696f6e206973206e60448201526c1bdd08184818dbdb9d1c9858dd609a1b6064820152608401610883565b7f360894a13ba1a3210667c828492db98dca3e2076cc3735a920a3ca505d382bbc80546001600160a01b0319166001600160a01b0392909216919091179055565b6060823b611fbb5760405162461bcd60e51b815260206004820152602660248201527f416464726573733a2064656c65676174652063616c6c20746f206e6f6e2d636f6044820152651b9d1c9858dd60d21b6064820152608401610883565b600080846001600160a01b031684604051611fd69190612a51565b600060405180830381855af49150503d8060008114612011576040519150601f19603f3d011682016040523d82523d6000602084013e612016565b606091505b509150915061203e8282604051806060016040528060278152602001612dde60279139612296565b95945050505050565b61205081611eb7565b6040516001600160a01b038216907fbc7cd75a20ee27fd9adebab32041f755214dbc6bffa90cc0225b39da2e5c2d3b90600090a250565b815460009081908061209e57600092505050610747565b808210156120e25760006120b283836122cf565b9050846120bf8783612126565b5411156120ce578091506120dc565b6120d9816001612bf8565b92505b5061209e565b600082118015612105575083612102866120fd600186612c51565b612126565b54145b1561211e57612115600183612c51565b92505050610747565b509050610747565b60008254821061216e5760405162461bcd60e51b815260206004820152601360248201527211549493d48e8813dd5d081bd988189bdd5b99606a1b6044820152606401610883565b818360405160200161218291815260200190565b6040516020818303038152906040528051906020012060001c61089f9190612bf8565b6121b0838383611b59565b6121bb8383836122ea565b610b66838383612342565b6001600160a01b0383166121e5576121dd82612423565b610b666124ad565b6001600160a01b0382166121fc576121dd83612423565b61220583612423565b610b6682612423565b600054610100900460ff166122355760405162461bcd60e51b815260040161088390612bad565b6122406000336124fb565b612258600080516020612d7e833981519152336124fb565b612270600080516020612d5e833981519152336124fb565b6113f3600080516020612d5e833981519152600080516020612d7e833981519152611c4a565b606083156122a557508161089f565b8251156122b55782518084602001fd5b8160405162461bcd60e51b81526004016108839190612ae2565b60006122de6002848418612c10565b61089f90848416612bf8565b6122f5338484612505565b15610b665760405162461bcd60e51b815260206004820152601a60248201527f4552524f523a204164647265737320426c61636b6c69737465640000000000006044820152606401610883565b600080516020612dbe833981519152547fe38b16c806f019542b2d4bf356bb4ba2ea4b7eb450b8fbff2584f6084c4978f1546001600160a01b031681158061239b5750836001600160a01b0316816001600160a01b0316145b806123b75750846001600160a01b0316816001600160a01b0316145b806123c957506001600160a01b038516155b806123db57506001600160a01b038416155b156123e7575050505050565b6000670de0b6b3a7640000600080516020612dbe8339815191525461240c9086612c32565b6124169190612c10565b9050610e6c86838361118a565b604080516001600160a01b0383166020808301919091527ffbf1c7065455eb4486649b8540f24ef2dd4ebedf2aa423f0039d17c2c75dea1582840152825180830384018152606090920190925280519101206000612482826001612bf8565b9050610b6682826124a8866001600160a01b031660009081526065602052604090205490565b61255b565b6113f37f286a9db37a0f8ddcbcee127c9f4f56031230f49cb46786f87e166d552e11f67e7ffcaa8bb100d3c5b627eac0369cc1d2778dbeffa2993d08f039fb27795729e9a56124a860675490565b61099f8282611c95565b600061251f600080516020612d3e83398151915284610e74565b8061253d575061253d600080516020612d3e83398151915285610e74565b80610f195750610f19600080516020612d3e83398151915283610e74565b6000612573600080516020612e058339815191525490565b90508061257f85612599565b1015610a125761258f84826125c9565b610a1283836125c9565b8054600090806125ac5750600092915050565b6125bb836120fd600184612c51565b549392505050565b50919050565b815460018360006125da8385612bf8565b909155508290506125eb8483612126565b55505050565b8280546125fd90612cab565b90600052602060002090601f01602090048101928261261f5760008555612665565b82601f1061263857805160ff1916838001178555612665565b82800160010185558215612665579182015b8281111561266557825182559160200191906001019061264a565b50612671929150612675565b5090565b5b808211156126715760008155600101612676565b600067ffffffffffffffff808411156126a5576126a5612d27565b604051601f8501601f19908116603f011681019082821181831017156126cd576126cd612d27565b816040528093508581528686860111156126e657600080fd5b858560208301376000602087830101525050509392505050565b80356001600160a01b038116811461271757600080fd5b919050565b60008083601f84011261272e57600080fd5b50813567ffffffffffffffff81111561274657600080fd5b6020830191508360208260051b850101111561276157600080fd5b9250929050565b600082601f83011261277957600080fd5b61089f8383356020850161268a565b60006020828403121561279a57600080fd5b61089f82612700565b600080604083850312156127b657600080fd5b6127bf83612700565b91506127cd60208401612700565b90509250929050565b6000806000606084860312156127eb57600080fd5b6127f484612700565b925061280260208501612700565b9150604084013590509250925092565b6000806040838503121561282557600080fd5b61282e83612700565b9150602083013567ffffffffffffffff81111561284a57600080fd5b8301601f8101851361285b57600080fd5b61286a8582356020840161268a565b9150509250929050565b6000806040838503121561288757600080fd5b61289083612700565b946020939093013593505050565b600080602083850312156128b157600080fd5b823567ffffffffffffffff8111156128c857600080fd5b6128d48582860161271c565b90969095509350505050565b600080600080604085870312156128f657600080fd5b843567ffffffffffffffff8082111561290e57600080fd5b61291a8883890161271c565b9096509450602087013591508082111561293357600080fd5b506129408782880161271c565b95989497509550505050565b60006020828403121561295e57600080fd5b5035919050565b6000806040838503121561297857600080fd5b823591506127cd60208401612700565b60006020828403121561299a57600080fd5b81356001600160e01b03198116811461089f57600080fd5b60008060008060008060c087890312156129cb57600080fd5b863567ffffffffffffffff808211156129e357600080fd5b6129ef8a838b01612768565b97506020890135915080821115612a0557600080fd5b50612a1289828a01612768565b955050604087013560ff81168114612a2957600080fd5b93506060870135925060808701359150612a4560a08801612700565b90509295509295509295565b60008251612a63818460208701612c68565b9190910192915050565b7f416363657373436f6e74726f6c3a206163636f756e7420000000000000000000815260008351612aa5816017850160208801612c68565b7001034b99036b4b9b9b4b733903937b6329607d1b6017918401918201528351612ad6816028840160208801612c68565b01602801949350505050565b6020815260008251806020840152612b01816040850160208701612c68565b601f01601f19169190910160400192915050565b6020808252602c908201527f46756e6374696f6e206d7573742062652063616c6c6564207468726f7567682060408201526b19195b1959d85d1958d85b1b60a21b606082015260800190565b6020808252602c908201527f46756e6374696f6e206d7573742062652063616c6c6564207468726f7567682060408201526b6163746976652070726f787960a01b606082015260800190565b6020808252602b908201527f496e697469616c697a61626c653a20636f6e7472616374206973206e6f74206960408201526a6e697469616c697a696e6760a81b606082015260800190565b60008219821115612c0b57612c0b612cfb565b500190565b600082612c2d57634e487b7160e01b600052601260045260246000fd5b500490565b6000816000190483118215151615612c4c57612c4c612cfb565b500290565b600082821015612c6357612c63612cfb565b500390565b60005b83811015612c83578181015183820152602001612c6b565b83811115610a125750506000910152565b600081612ca357612ca3612cfb565b506000190190565b600181811c90821680612cbf57607f821691505b602082108114156125c357634e487b7160e01b600052602260045260246000fd5b6000600019821415612cf457612cf4612cfb565b5060010190565b634e487b7160e01b600052601160045260246000fd5b634e487b7160e01b600052603260045260246000fd5b634e487b7160e01b600052604160045260246000fdfe548c7f0307ab2a7ea894e5c7e8c5353cc750bb9385ee2e945f189a9a83daa8eda76ace73a908083d89af9ff88e5b4f7cadb3591a80631063f68b695fda726db571840dc4906352362b0cdaf79870196c8e42acafade72d5d5a6d59291253ceb1f988e4fb62b8e14f4820fed03192306ddf4d7dbfa215595ba1c6ba4b76b369ee253122b26cc2118faf5fcfc7761bd75fcfb5508f1f48d1a40db694aba32af5d0416464726573733a206c6f772d6c6576656c2064656c65676174652063616c6c206661696c65640d0a0ed3351c10a57d74a44b40c06e0946288e4e3816ac07bb89db2a755562e7a264697066735822122004dc6774a4abc4f20d2d5443e33e67953a3d7b0b09f4d71542d558baa46563f264736f6c63430008060033",
  "linkReferences": {},
  "deployedLinkReferences": {}
}