{
  "_format": "hh-sol-artifact-1",
  "name": "BlacklistMintTxFeeTemplate",
  "initializer": "function initialize(string name_, string symbol_, uint8 decimals_, uint256 amount_, uint256 txFee, address txFeeBeneficiary)",
  "sourceName": "contracts/templates/BlacklistMintTxFeeTemplate.sol",
  "abi": [
    {
      "anonymous": false,
      "inputs": [
        {
          "indexed": false,
          "internalType": "address",
          "name": "previousAdmin",
          "type": "address"
        },
        {
          "indexed": false,
          "internalType": "address",
          "name": "newAdmin",
          "type": "address"
        }
      ],
      "name": "AdminChanged",
      "type": "event"
    },
    {
      "anonymous": false,
      "inputs": [
        {
          "indexed": true,
          "internalType": "address",
          "name": "owner",
          "type": "address"
        },
        {
          "indexed": true,
          "internalType": "address",
          "name": "spender",
          "type": "address"
        },
        {
          "indexed": false,
          "internalType": "uint256",
          "name": "value",
          "type": "uint256"
        }
      ],
      "name": "Approval",
      "type": "event"
    },
    {
      "anonymous": false,
      "inputs": [
        {
          "indexed": true,
          "internalType": "address",
          "name": "beacon",
          "type": "address"
        }
      ],
      "name": "BeaconUpgraded",
      "type": "event"
    },
    {
      "anonymous": false,
      "inputs": [
        {
          "indexed": true,
          "internalType": "bytes32",
          "name": "role",
          "type": "bytes32"
        },
        {
          "indexed": true,
          "internalType": "bytes32",
          "name": "previousAdminRole",
          "type": "bytes32"
        },
        {
          "indexed": true,
          "internalType": "bytes32",
          "name": "newAdminRole",
          "type": "bytes32"
        }
      ],
      "name": "RoleAdminChanged",
      "type": "event"
    },
    {
      "anonymous": false,
      "inputs": [
        {
          "indexed": true,
          "internalType": "bytes32",
          "name": "role",
          "type": "bytes32"
        },
        {
          "indexed": true,
          "internalType": "address",
          "name": "account",
          "type": "address"
        },
        {
          "indexed": true,
          "internalType": "address",
          "name": "sender",
          "type": "address"
        }
      ],
      "name": "RoleGranted",
      "type": "event"
    },
    {
      "anonymous": false,
      "inputs": [
        {
          "indexed": true,
          "internalType": "bytes32",
          "name": "role",
          "type": "bytes32"
        },
        {
          "indexed": true,
          "internalType": "address",
          "name": "account",
          "type": "address"
        },
        {
          "indexed": true,
          "internalType": "address",
          "name": "sender",
          "type": "address"
        }
      ],
      "name": "RoleRevoked",
      "type": "event"
    },
    {
      "anonymous": false,
      "inputs": [
        {
          "indexed": true,
          "internalType": "address",
          "name": "from",
          "type": "address"
        },
        {
          "indexed": true,
          "internalType": "address",
          "name": "to",
          "type": "address"
        },
        {
          "indexed": false,
          "internalType": "uint256",
          "name": "value",
          "type": "uint256"
        }
      ],
      "name": "Transfer",
      "type": "event"
    },
    {
      "anonymous": false,
      "inputs": [
        {
          "indexed": true,
          "internalType": "address",
          "name": "implementation",
          "type": "address"
        }
      ],
      "name": "Upgraded",
      "type": "event"
    },
    {
      "inputs": [],
      "name": "BLACKLISTED_ROLE",
      "outputs": [
        {
          "internalType": "bytes32",
          "name": "",
          "type": "bytes32"
        }
      ],
      "stateMutability": "view",
      "type": "function"
    },
    {
      "inputs": [],
      "name": "BLACKLIST_MANAGER_ROLE",
      "outputs": [
        {
          "internalType": "bytes32",
          "name": "",
          "type": "bytes32"
        }
      ],
      "stateMutability": "view",
      "type": "function"
    },
    {
      "inputs": [],
      "name": "DEFAULT_ADMIN_ROLE",
      "outputs": [
        {
          "internalType": "bytes32",
          "name": "",
          "type": "bytes32"
        }
      ],
      "stateMutability": "view",
      "type": "function"
    },
    {
      "inputs": [],
      "name": "GOVERNANCE_ROLE",
      "outputs": [
        {
          "internalType": "bytes32",
          "name": "",
          "type": "bytes32"
        }
      ],
      "stateMutability": "view",
      "type": "function"
    },
    {
      "inputs": [],
      "name": "MINTER_ROLE",
      "outputs": [
        {
          "internalType": "bytes32",
          "name": "",
          "type": "bytes32"
        }
      ],
      "stateMutability": "view",
      "type": "function"
    },
    {
      "inputs": [],
      "name": "UPGRADE_MANAGER_ROLE",
      "outputs": [
        {
          "internalType": "bytes32",
          "name": "",
          "type": "bytes32"
        }
      ],
      "stateMutability": "view",
      "type": "function"
    },
    {
      "inputs": [
        {
          "internalType": "address[]",
          "name": "addresses",
          "type": "address[]"
        }
      ],
      "name": "addAddressesToBlacklist",
      "outputs": [],
      "stateMutability": "nonpayable",
      "type": "function"
    },
    {
      "inputs": [
        {
          "internalType": "address",
          "name": "owner",
          "type": "address"
        },
        {
          "internalType": "address",
          "name": "spender",
          "type": "address"
        }
      ],
      "name": "allowance",
      "outputs": [
        {
          "internalType": "uint256",
          "name": "",
          "type": "uint256"
        }
      ],
      "stateMutability": "view",
      "type": "function"
    },
    {
      "inputs": [
        {
          "internalType": "address",
          "name": "spender",
          "type": "address"
        },
        {
          "internalType": "uint256",
          "name": "amount",
          "type": "uint256"
        }
      ],
      "name": "approve",
      "outputs": [
        {
          "internalType": "bool",
          "name": "",
          "type": "bool"
        }
      ],
      "stateMutability": "nonpayable",
      "type": "function"
    },
    {
      "inputs": [
        {
          "internalType": "address",
          "name": "account",
          "type": "address"
        }
      ],
      "name": "balanceOf",
      "outputs": [
        {
          "internalType": "uint256",
          "name": "",
          "type": "uint256"
        }
      ],
      "stateMutability": "view",
      "type": "function"
    },
    {
      "inputs": [
        {
          "internalType": "address[]",
          "name": "accounts",
          "type": "address[]"
        },
        {
          "internalType": "uint256[]",
          "name": "amounts",
          "type": "uint256[]"
        }
      ],
      "name": "bulkMint",
      "outputs": [],
      "stateMutability": "nonpayable",
      "type": "function"
    },
    {
      "inputs": [
        {
          "internalType": "uint256",
          "name": "newTxFee",
          "type": "uint256"
        },
        {
          "internalType": "address",
          "name": "newTxBeneficiary",
          "type": "address"
        }
      ],
      "name": "changeTxFeeProperties",
      "outputs": [],
      "stateMutability": "nonpayable",
      "type": "function"
    },
    {
      "inputs": [],
      "name": "decimals",
      "outputs": [
        {
          "internalType": "uint8",
          "name": "",
          "type": "uint8"
        }
      ],
      "stateMutability": "view",
      "type": "function"
    },
    {
      "inputs": [
        {
          "internalType": "address",
          "name": "spender",
          "type": "address"
        },
        {
          "internalType": "uint256",
          "name": "subtractedValue",
          "type": "uint256"
        }
      ],
      "name": "decreaseAllowance",
      "outputs": [
        {
          "internalType": "bool",
          "name": "",
          "type": "bool"
        }
      ],
      "stateMutability": "nonpayable",
      "type": "function"
    },
    {
      "inputs": [],
      "name": "getImplementation",
      "outputs": [
        {
          "internalType": "address",
          "name": "",
          "type": "address"
        }
      ],
      "stateMutability": "view",
      "type": "function"
    },
    {
      "inputs": [
        {
          "internalType": "bytes32",
          "name": "role",
          "type": "bytes32"
        }
      ],
      "name": "getRoleAdmin",
      "outputs": [
        {
          "internalType": "bytes32",
          "name": "",
          "type": "bytes32"
        }
      ],
      "stateMutability": "view",
      "type": "function"
    },
    {
      "inputs": [
        {
          "internalType": "bytes32",
          "name": "role",
          "type": "bytes32"
        },
        {
          "internalType": "address",
          "name": "account",
          "type": "address"
        }
      ],
      "name": "grantRole",
      "outputs": [],
      "stateMutability": "nonpayable",
      "type": "function"
    },
    {
      "inputs": [
        {
          "internalType": "bytes32",
          "name": "role",
          "type": "bytes32"
        },
        {
          "internalType": "address",
          "name": "account",
          "type": "address"
        }
      ],
      "name": "hasRole",
      "outputs": [
        {
          "internalType": "bool",
          "name": "",
          "type": "bool"
        }
      ],
      "stateMutability": "view",
      "type": "function"
    },
    {
      "inputs": [
        {
          "internalType": "address",
          "name": "spender",
          "type": "address"
        },
        {
          "internalType": "uint256",
          "name": "addedValue",
          "type": "uint256"
        }
      ],
      "name": "increaseAllowance",
      "outputs": [
        {
          "internalType": "bool",
          "name": "",
          "type": "bool"
        }
      ],
      "stateMutability": "nonpayable",
      "type": "function"
    },
    {
      "inputs": [
        {
          "internalType": "string",
          "name": "name_",
          "type": "string"
        },
        {
          "internalType": "string",
          "name": "symbol_",
          "type": "string"
        },
        {
          "internalType": "uint8",
          "name": "decimals_",
          "type": "uint8"
        },
        {
          "internalType": "uint256",
          "name": "amount_",
          "type": "uint256"
        },
        {
          "internalType": "uint256",
          "name": "txFee",
          "type": "uint256"
        },
        {
          "internalType": "address",
          "name": "txFeeBeneficiary",
          "type": "address"
        }
      ],
      "name": "initialize",
      "outputs": [],
      "stateMutability": "nonpayable",
      "type": "function"
    },
    {
      "inputs": [
        {
          "internalType": "address",
          "name": "account",
          "type": "address"
        },
        {
          "internalType": "uint256",
          "name": "amount",
          "type": "uint256"
        }
      ],
      "name": "mint",
      "outputs": [],
      "stateMutability": "nonpayable",
      "type": "function"
    },
    {
      "inputs": [],
      "name": "name",
      "outputs": [
        {
          "internalType": "string",
          "name": "",
          "type": "string"
        }
      ],
      "stateMutability": "view",
      "type": "function"
    },
    {
      "inputs": [
        {
          "internalType": "address",
          "name": "implementationAddress",
          "type": "address"
        }
      ],
      "name": "proposeNewImplementation",
      "outputs": [],
      "stateMutability": "nonpayable",
      "type": "function"
    },
    {
      "inputs": [
        {
          "internalType": "address[]",
          "name": "addresses",
          "type": "address[]"
        }
      ],
      "name": "removeAddressesFromBlacklist",
      "outputs": [],
      "stateMutability": "nonpayable",
      "type": "function"
    },
    {
      "inputs": [
        {
          "internalType": "bytes32",
          "name": "role",
          "type": "bytes32"
        },
        {
          "internalType": "address",
          "name": "account",
          "type": "address"
        }
      ],
      "name": "renounceRole",
      "outputs": [],
      "stateMutability": "nonpayable",
      "type": "function"
    },
    {
      "inputs": [
        {
          "internalType": "bytes32",
          "name": "role",
          "type": "bytes32"
        },
        {
          "internalType": "address",
          "name": "account",
          "type": "address"
        }
      ],
      "name": "revokeRole",
      "outputs": [],
      "stateMutability": "nonpayable",
      "type": "function"
    },
    {
      "inputs": [
        {
          "internalType": "bytes4",
          "name": "interfaceId",
          "type": "bytes4"
        }
      ],
      "name": "supportsInterface",
      "outputs": [
        {
          "internalType": "bool",
          "name": "",
          "type": "bool"
        }
      ],
      "stateMutability": "view",
      "type": "function"
    },
    {
      "inputs": [],
      "name": "symbol",
      "outputs": [
        {
          "internalType": "string",
          "name": "",
          "type": "string"
        }
      ],
      "stateMutability": "view",
      "type": "function"
    },
    {
      "inputs": [],
      "name": "totalSupply",
      "outputs": [
        {
          "internalType": "uint256",
          "name": "",
          "type": "uint256"
        }
      ],
      "stateMutability": "view",
      "type": "function"
    },
    {
      "inputs": [
        {
          "internalType": "address",
          "name": "recipient",
          "type": "address"
        },
        {
          "internalType": "uint256",
          "name": "amount",
          "type": "uint256"
        }
      ],
      "name": "transfer",
      "outputs": [
        {
          "internalType": "bool",
          "name": "",
          "type": "bool"
        }
      ],
      "stateMutability": "nonpayable",
      "type": "function"
    },
    {
      "inputs": [
        {
          "internalType": "address",
          "name": "sender",
          "type": "address"
        },
        {
          "internalType": "address",
          "name": "recipient",
          "type": "address"
        },
        {
          "internalType": "uint256",
          "name": "amount",
          "type": "uint256"
        }
      ],
      "name": "transferFrom",
      "outputs": [
        {
          "internalType": "bool",
          "name": "",
          "type": "bool"
        }
      ],
      "stateMutability": "nonpayable",
      "type": "function"
    },
    {
      "inputs": [
        {
          "internalType": "address",
          "name": "newImplementation",
          "type": "address"
        }
      ],
      "name": "upgradeTo",
      "outputs": [],
      "stateMutability": "nonpayable",
      "type": "function"
    },
    {
      "inputs": [
        {
          "internalType": "address",
          "name": "newImplementation",
          "type": "address"
        },
        {
          "internalType": "bytes",
          "name": "data",
          "type": "bytes"
        }
      ],
      "name": "upgradeToAndCall",
      "outputs": [],
      "stateMutability": "payable",
      "type": "function"
    }
  ],
  "bytecode": "0x60a06040523060601b60805234801561001757600080fd5b5060805160601c61289061004b60003960008181610a0e01528181610a4e01528181610b8a0152610bca01526128906000f3fe6080604052600436106101ee5760003560e01c806347757fb61161010d578063a217fddf116100a0578063ca73419e1161006f578063ca73419e146105a4578063d5391393146105c4578063d547741f146105f8578063dd62ed3e14610618578063f36c8f5c1461065e57600080fd5b8063a217fddf14610522578063a457c2d714610537578063a9059cbb14610557578063aaf10f421461057757600080fd5b80636ae459bd116100dc5780636ae459bd1461049757806370a08231146104b757806391d14854146104ed57806395d89b411461050d57600080fd5b806347757fb6146104225780634f1ef286146104425780635120561a1461045557806362b199c51461047557600080fd5b8063313ce567116101855780633950935111610154578063395093511461039e57806340c10f19146103be578063410b2424146103de57806343ffa64e1461040057600080fd5b8063313ce5671461031b578063322587941461033e57806336568abe1461035e5780633659cfe61461037e57600080fd5b806323b872dd116101c157806323b872dd14610289578063248a9ca3146102a95780632cd77a5a146102d95780632f2ff15d146102fb57600080fd5b806301ffc9a7146101f357806306fdde0314610228578063095ea7b31461024a57806318160ddd1461026a575b600080fd5b3480156101ff57600080fd5b5061021361020e3660046123e3565b610680565b60405190151581526020015b60405180910390f35b34801561023457600080fd5b5061023d6106b7565b60405161021f9190612549565b34801561025657600080fd5b506102136102653660046122cf565b610749565b34801561027657600080fd5b506067545b60405190815260200161021f565b34801561029557600080fd5b506102136102a43660046121d1565b61075f565b3480156102b557600080fd5b5061027b6102c43660046123a7565b600090815260fb602052604090206001015490565b3480156102e557600080fd5b506102f96102f436600461240d565b610810565b005b34801561030757600080fd5b506102f96103163660046123c0565b610962565b34801561032757600080fd5b506101605460405160ff909116815260200161021f565b34801561034a57600080fd5b506102f96103593660046122f9565b61097a565b34801561036a57600080fd5b506102f96103793660046123c0565b6109ef565b34801561038a57600080fd5b506102f9610399366004612183565b610a03565b3480156103aa57600080fd5b506102136103b93660046122cf565b610acc565b3480156103ca57600080fd5b506102f96103d93660046122cf565b610b08565b3480156103ea57600080fd5b5061027b6000805160206127f483398151915281565b34801561040c57600080fd5b5061027b6000805160206127b483398151915281565b34801561042e57600080fd5b506102f961043d366004612183565b610b42565b6102f961045036600461220d565b610b7f565b34801561046157600080fd5b506102f96104703660046123c0565b610c35565b34801561048157600080fd5b5061027b60008051602061279483398151915281565b3480156104a357600080fd5b506102f96104b236600461233b565b610caa565b3480156104c357600080fd5b5061027b6104d2366004612183565b6001600160a01b031660009081526065602052604090205490565b3480156104f957600080fd5b506102136105083660046123c0565b610d89565b34801561051957600080fd5b5061023d610db4565b34801561052e57600080fd5b5061027b600081565b34801561054357600080fd5b506102136105523660046122cf565b610dc3565b34801561056357600080fd5b506102136105723660046122cf565b610e5c565b34801561058357600080fd5b5061058c610e69565b6040516001600160a01b03909116815260200161021f565b3480156105b057600080fd5b506102f96105bf3660046122f9565b610e78565b3480156105d057600080fd5b5061027b7ff9424f4303d7f03683a025eb8885734ad99b47df7749d9b0a02cbc985809700b81565b34801561060457600080fd5b506102f96106133660046123c0565b610ee7565b34801561062457600080fd5b5061027b61063336600461219e565b6001600160a01b03918216600090815260666020908152604080832093909416825291909152205490565b34801561066a57600080fd5b5061027b6000805160206127d483398151915281565b60006001600160e01b03198216637965db0b60e01b14806106b157506301ffc9a760e01b6001600160e01b03198316145b92915050565b6060606880546106c6906126fb565b80601f01602080910402602001604051908101604052809291908181526020018280546106f2906126fb565b801561073f5780601f106107145761010080835404028352916020019161073f565b820191906000526020600020905b81548152906001019060200180831161072257829003601f168201915b5050505050905090565b6000610756338484610f0d565b50600192915050565b600061076c848484611031565b6001600160a01b0384166000908152606660209081526040808320338452909152902054828110156107f65760405162461bcd60e51b815260206004820152602860248201527f45524332303a207472616e7366657220616d6f756e74206578636565647320616044820152676c6c6f77616e636560c01b60648201526084015b60405180910390fd5b6108038533858403610f0d565b60019150505b9392505050565b600054610100900460ff1661082b5760005460ff161561082f565b303b155b6108925760405162461bcd60e51b815260206004820152602e60248201527f496e697469616c697a61626c653a20636f6e747261637420697320616c72656160448201526d191e481a5b9a5d1a585b1a5e995960921b60648201526084016107ed565b600054610100900460ff161580156108b4576000805461ffff19166101011790555b61092b89898080601f01602080910402602001604051908101604052809392919081815260200183838082843760009201919091525050604080516020601f8d018190048102820181019092528b815292508b91508a90819084018382808284376000920191909152508a925089915061120a9050565b61093361124d565b61093b611276565b61094583836112c3565b8015610957576000805461ff00191690555b505050505050505050565b61096c8282611352565b61097682826113e1565b5050565b6000805160206127f48339815191526109938133611407565b60005b828110156109e9576109d76000805160206127948339815191528585848181106109c2576109c2612767565b90506020020160208101906106139190612183565b806109e181612736565b915050610996565b50505050565b6109f9828261146b565b61097682826114d3565b306001600160a01b037f0000000000000000000000000000000000000000000000000000000000000000161415610a4c5760405162461bcd60e51b81526004016107ed9061257c565b7f00000000000000000000000000000000000000000000000000000000000000006001600160a01b0316610a7e61154d565b6001600160a01b031614610aa45760405162461bcd60e51b81526004016107ed906125c8565b610aad8161157b565b60408051600080825260208201909252610ac9918391906115fd565b50565b3360008181526066602090815260408083206001600160a01b03871684529091528120549091610756918590610b0390869061265f565b610f0d565b7ff9424f4303d7f03683a025eb8885734ad99b47df7749d9b0a02cbc985809700b610b338133611407565b610b3d8383611748565b505050565b6000805160206127d4833981519152610b5b8133611407565b5061012d80546001600160a01b0319166001600160a01b0392909216919091179055565b306001600160a01b037f0000000000000000000000000000000000000000000000000000000000000000161415610bc85760405162461bcd60e51b81526004016107ed9061257c565b7f00000000000000000000000000000000000000000000000000000000000000006001600160a01b0316610bfa61154d565b6001600160a01b031614610c205760405162461bcd60e51b81526004016107ed906125c8565b610c298261157b565b610976828260016115fd565b6000610c418133611407565b6001600160a01b038216610c5457600080fd5b8260008051602061281483398151915255817fe38b16c806f019542b2d4bf356bb4ba2ea4b7eb450b8fbff2584f6084c4978f180546001600160a01b0319166001600160a01b0392909216919091179055505050565b7ff9424f4303d7f03683a025eb8885734ad99b47df7749d9b0a02cbc985809700b610cd58133611407565b838214610d1c5760405162461bcd60e51b8152602060048201526015602482015274082e4e4c2f240d8cadccee8d040dad2e6dac2e8c6d605b1b60448201526064016107ed565b60005b84811015610d8157610d6f868683818110610d3c57610d3c612767565b9050602002016020810190610d519190612183565b858584818110610d6357610d63612767565b90506020020135611748565b80610d7981612736565b915050610d1f565b505050505050565b600091825260fb602090815260408084206001600160a01b0393909316845291905290205460ff1690565b6060606980546106c6906126fb565b3360009081526066602090815260408083206001600160a01b038616845290915281205482811015610e455760405162461bcd60e51b815260206004820152602560248201527f45524332303a2064656372656173656420616c6c6f77616e63652062656c6f77604482015264207a65726f60d81b60648201526084016107ed565b610e523385858403610f0d565b5060019392505050565b6000610756338484611031565b6000610e7361154d565b905090565b6000805160206127f4833981519152610e918133611407565b60005b828110156109e957610ed5600080516020612794833981519152858584818110610ec057610ec0612767565b90506020020160208101906103169190612183565b80610edf81612736565b915050610e94565b600082815260fb6020526040902060010154610f038133611407565b610b3d8383611833565b6001600160a01b038316610f6f5760405162461bcd60e51b8152602060048201526024808201527f45524332303a20617070726f76652066726f6d20746865207a65726f206164646044820152637265737360e01b60648201526084016107ed565b6001600160a01b038216610fd05760405162461bcd60e51b815260206004820152602260248201527f45524332303a20617070726f766520746f20746865207a65726f206164647265604482015261737360f01b60648201526084016107ed565b6001600160a01b0383811660008181526066602090815260408083209487168084529482529182902085905590518481527f8c5be1e5ebec7d5bd14f71427d1e84f3dd0314c0f7b2291e5b200ac8c7c3b925910160405180910390a3505050565b6001600160a01b0383166110955760405162461bcd60e51b815260206004820152602560248201527f45524332303a207472616e736665722066726f6d20746865207a65726f206164604482015264647265737360d81b60648201526084016107ed565b6001600160a01b0382166110f75760405162461bcd60e51b815260206004820152602360248201527f45524332303a207472616e7366657220746f20746865207a65726f206164647260448201526265737360e81b60648201526084016107ed565b61110283838361189a565b6001600160a01b0383166000908152606560205260409020548181101561117a5760405162461bcd60e51b815260206004820152602660248201527f45524332303a207472616e7366657220616d6f756e7420657863656564732062604482015265616c616e636560d01b60648201526084016107ed565b6001600160a01b038085166000908152606560205260408082208585039055918516815290812080548492906111b190849061265f565b92505081905550826001600160a01b0316846001600160a01b03167fddf252ad1be2c89b69c2b068fc378daa952ba7f163c4a11628f55a4df523b3ef846040516111fd91815260200190565b60405180910390a36109e9565b600054610100900460ff166112315760405162461bcd60e51b81526004016107ed90612614565b6112396118a5565b61124384846118fc565b6109e9828261194a565b600054610100900460ff166112745760405162461bcd60e51b81526004016107ed90612614565b565b600054610100900460ff1661129d5760405162461bcd60e51b81526004016107ed90612614565b6112746000805160206127948339815191526000805160206127f483398151915261198b565b600054610100900460ff166112ea5760405162461bcd60e51b81526004016107ed90612614565b6001600160a01b0381166112fd57600080fd5b8160008051602061281483398151915255807fe38b16c806f019542b2d4bf356bb4ba2ea4b7eb450b8fbff2584f6084c4978f180546001600160a01b0319166001600160a01b03929092169190911790555050565b6000805160206127f483398151915282148061136c575081155b156109765761138960008051602061279483398151915282610d89565b156109765760405162461bcd60e51b815260206004820152602260248201527f63616e206e6f742061737369676e20726f6c6520746f20626c61636b6c697374604482015261195960f21b60648201526084016107ed565b600082815260fb60205260409020600101546113fd8133611407565b610b3d83836119d6565b6114118282610d89565b61097657611429816001600160a01b03166014611a5c565b611434836020611a5c565b6040516020016114459291906124d4565b60408051601f198184030181529082905262461bcd60e51b82526107ed91600401612549565b6000805160206127948339815191528214156109765760405162461bcd60e51b815260206004820152602160248201527f43616e206e6f742072656e6f756e636520626c61636b6c697374656420726f6c6044820152606560f81b60648201526084016107ed565b6001600160a01b03811633146115435760405162461bcd60e51b815260206004820152602f60248201527f416363657373436f6e74726f6c3a2063616e206f6e6c792072656e6f756e636560448201526e103937b632b9903337b91039b2b63360891b60648201526084016107ed565b6109768282611833565b7f360894a13ba1a3210667c828492db98dca3e2076cc3735a920a3ca505d382bbc546001600160a01b031690565b6115936000805160206127d483398151915233610d89565b806115b157506115b16000805160206127b483398151915233610d89565b610ac95760405162461bcd60e51b815260206004820152601d60248201527f4552524f523a2041646472657373206e6f7420617574686f72697a656400000060448201526064016107ed565b600061160761154d565b905061161284611bf8565b60008351118061161f5750815b156116305761162e8484611c9d565b505b7f4910fdfa16fed3260ed0e7147f7cc6da11a60208b5b9406d12a635614ffd9143805460ff1661174157805460ff191660011781556040516001600160a01b03831660248201526116af90869060440160408051601f198184030181529190526020810180516001600160e01b0316631b2ce7f360e11b179052611c9d565b50805460ff191681556116c061154d565b6001600160a01b0316826001600160a01b0316146117385760405162461bcd60e51b815260206004820152602f60248201527f45524331393637557067726164653a207570677261646520627265616b73206660448201526e75727468657220757067726164657360881b60648201526084016107ed565b61174185611d88565b5050505050565b6001600160a01b03821661179e5760405162461bcd60e51b815260206004820152601f60248201527f45524332303a206d696e7420746f20746865207a65726f20616464726573730060448201526064016107ed565b6117aa6000838361189a565b80606760008282546117bc919061265f565b90915550506001600160a01b038216600090815260656020526040812080548392906117e990849061265f565b90915550506040518181526001600160a01b038316906000907fddf252ad1be2c89b69c2b068fc378daa952ba7f163c4a11628f55a4df523b3ef9060200160405180910390a35050565b61183d8282610d89565b1561097657600082815260fb602090815260408083206001600160a01b0385168085529252808320805460ff1916905551339285917ff6391f5c32d9c69d2a47ea670b442974b53935d1edc7fd64eb21e047a839171b9190a45050565b610b3d838383611dc8565b600054610100900460ff166118cc5760405162461bcd60e51b81526004016107ed90612614565b6118d461124d565b6118dc61124d565b6118e461124d565b6118ec61124d565b6118f461124d565b611274611dde565b600054610100900460ff166119235760405162461bcd60e51b81526004016107ed90612614565b8151611936906068906020850190612040565b508051610b3d906069906020840190612040565b600054610100900460ff166119715760405162461bcd60e51b81526004016107ed90612614565b610160805460ff191660ff84161790556109763382611748565b600082815260fb6020526040808220600101805490849055905190918391839186917fbd79b86ffe0ab8e8776151514217cd7cacd52c909f66475c3af44e129f0b00ff9190a4505050565b6119e08282610d89565b61097657600082815260fb602090815260408083206001600160a01b03851684529091529020805460ff19166001179055611a183390565b6001600160a01b0316816001600160a01b0316837f2f8788117e7eff1d82e926ec794901d17c78024a50270940304540a733656f0d60405160405180910390a45050565b60606000611a6b836002612699565b611a7690600261265f565b67ffffffffffffffff811115611a8e57611a8e61277d565b6040519080825280601f01601f191660200182016040528015611ab8576020820181803683370190505b509050600360fc1b81600081518110611ad357611ad3612767565b60200101906001600160f81b031916908160001a905350600f60fb1b81600181518110611b0257611b02612767565b60200101906001600160f81b031916908160001a9053506000611b26846002612699565b611b3190600161265f565b90505b6001811115611ba9576f181899199a1a9b1b9c1cb0b131b232b360811b85600f1660108110611b6557611b65612767565b1a60f81b828281518110611b7b57611b7b612767565b60200101906001600160f81b031916908160001a90535060049490941c93611ba2816126e4565b9050611b34565b5083156108095760405162461bcd60e51b815260206004820181905260248201527f537472696e67733a20686578206c656e67746820696e73756666696369656e7460448201526064016107ed565b803b611c5c5760405162461bcd60e51b815260206004820152602d60248201527f455243313936373a206e657720696d706c656d656e746174696f6e206973206e60448201526c1bdd08184818dbdb9d1c9858dd609a1b60648201526084016107ed565b7f360894a13ba1a3210667c828492db98dca3e2076cc3735a920a3ca505d382bbc80546001600160a01b0319166001600160a01b0392909216919091179055565b6060823b611cfc5760405162461bcd60e51b815260206004820152602660248201527f416464726573733a2064656c65676174652063616c6c20746f206e6f6e2d636f6044820152651b9d1c9858dd60d21b60648201526084016107ed565b600080846001600160a01b031684604051611d1791906124b8565b600060405180830381855af49150503d8060008114611d52576040519150601f19603f3d011682016040523d82523d6000602084013e611d57565b606091505b5091509150611d7f828260405180606001604052806027815260200161283460279139611e66565b95945050505050565b611d9181611bf8565b6040516001600160a01b038216907fbc7cd75a20ee27fd9adebab32041f755214dbc6bffa90cc0225b39da2e5c2d3b90600090a250565b611dd3838383611e9f565b610b3d838383611ef7565b600054610100900460ff16611e055760405162461bcd60e51b81526004016107ed90612614565b611e10600033611fd8565b611e286000805160206127d483398151915233611fd8565b611e406000805160206127b483398151915233611fd8565b6112746000805160206127b48339815191526000805160206127d483398151915261198b565b60608315611e75575081610809565b825115611e855782518084602001fd5b8160405162461bcd60e51b81526004016107ed9190612549565b611eaa338484611fe2565b15610b3d5760405162461bcd60e51b815260206004820152601a60248201527f4552524f523a204164647265737320426c61636b6c697374656400000000000060448201526064016107ed565b600080516020612814833981519152547fe38b16c806f019542b2d4bf356bb4ba2ea4b7eb450b8fbff2584f6084c4978f1546001600160a01b0316811580611f505750836001600160a01b0316816001600160a01b0316145b80611f6c5750846001600160a01b0316816001600160a01b0316145b80611f7e57506001600160a01b038516155b80611f9057506001600160a01b038416155b15611f9c575050505050565b6000670de0b6b3a764000060008051602061281483398151915254611fc19086612699565b611fcb9190612677565b9050610d81868383611031565b61097682826119d6565b6000611ffc60008051602061279483398151915284610d89565b8061201a575061201a60008051602061279483398151915285610d89565b80612038575061203860008051602061279483398151915283610d89565b949350505050565b82805461204c906126fb565b90600052602060002090601f01602090048101928261206e57600085556120b4565b82601f1061208757805160ff19168380011785556120b4565b828001600101855582156120b4579182015b828111156120b4578251825591602001919060010190612099565b506120c09291506120c4565b5090565b5b808211156120c057600081556001016120c5565b80356001600160a01b03811681146120f057600080fd5b919050565b60008083601f84011261210757600080fd5b50813567ffffffffffffffff81111561211f57600080fd5b6020830191508360208260051b850101111561213a57600080fd5b9250929050565b60008083601f84011261215357600080fd5b50813567ffffffffffffffff81111561216b57600080fd5b60208301915083602082850101111561213a57600080fd5b60006020828403121561219557600080fd5b610809826120d9565b600080604083850312156121b157600080fd5b6121ba836120d9565b91506121c8602084016120d9565b90509250929050565b6000806000606084860312156121e657600080fd5b6121ef846120d9565b92506121fd602085016120d9565b9150604084013590509250925092565b6000806040838503121561222057600080fd5b612229836120d9565b9150602083013567ffffffffffffffff8082111561224657600080fd5b818501915085601f83011261225a57600080fd5b81358181111561226c5761226c61277d565b604051601f8201601f19908116603f011681019083821181831017156122945761229461277d565b816040528281528860208487010111156122ad57600080fd5b8260208601602083013760006020848301015280955050505050509250929050565b600080604083850312156122e257600080fd5b6122eb836120d9565b946020939093013593505050565b6000806020838503121561230c57600080fd5b823567ffffffffffffffff81111561232357600080fd5b61232f858286016120f5565b90969095509350505050565b6000806000806040858703121561235157600080fd5b843567ffffffffffffffff8082111561236957600080fd5b612375888389016120f5565b9096509450602087013591508082111561238e57600080fd5b5061239b878288016120f5565b95989497509550505050565b6000602082840312156123b957600080fd5b5035919050565b600080604083850312156123d357600080fd5b823591506121c8602084016120d9565b6000602082840312156123f557600080fd5b81356001600160e01b03198116811461080957600080fd5b60008060008060008060008060c0898b03121561242957600080fd5b883567ffffffffffffffff8082111561244157600080fd5b61244d8c838d01612141565b909a50985060208b013591508082111561246657600080fd5b506124738b828c01612141565b909750955050604089013560ff8116811461248d57600080fd5b935060608901359250608089013591506124a960a08a016120d9565b90509295985092959890939650565b600082516124ca8184602087016126b8565b9190910192915050565b7f416363657373436f6e74726f6c3a206163636f756e742000000000000000000081526000835161250c8160178501602088016126b8565b7001034b99036b4b9b9b4b733903937b6329607d1b601791840191820152835161253d8160288401602088016126b8565b01602801949350505050565b60208152600082518060208401526125688160408501602087016126b8565b601f01601f19169190910160400192915050565b6020808252602c908201527f46756e6374696f6e206d7573742062652063616c6c6564207468726f7567682060408201526b19195b1959d85d1958d85b1b60a21b606082015260800190565b6020808252602c908201527f46756e6374696f6e206d7573742062652063616c6c6564207468726f7567682060408201526b6163746976652070726f787960a01b606082015260800190565b6020808252602b908201527f496e697469616c697a61626c653a20636f6e7472616374206973206e6f74206960408201526a6e697469616c697a696e6760a81b606082015260800190565b6000821982111561267257612672612751565b500190565b60008261269457634e487b7160e01b600052601260045260246000fd5b500490565b60008160001904831182151516156126b3576126b3612751565b500290565b60005b838110156126d35781810151838201526020016126bb565b838111156109e95750506000910152565b6000816126f3576126f3612751565b506000190190565b600181811c9082168061270f57607f821691505b6020821081141561273057634e487b7160e01b600052602260045260246000fd5b50919050565b600060001982141561274a5761274a612751565b5060010190565b634e487b7160e01b600052601160045260246000fd5b634e487b7160e01b600052603260045260246000fd5b634e487b7160e01b600052604160045260246000fdfe548c7f0307ab2a7ea894e5c7e8c5353cc750bb9385ee2e945f189a9a83daa8eda76ace73a908083d89af9ff88e5b4f7cadb3591a80631063f68b695fda726db571840dc4906352362b0cdaf79870196c8e42acafade72d5d5a6d59291253ceb1f988e4fb62b8e14f4820fed03192306ddf4d7dbfa215595ba1c6ba4b76b369ee253122b26cc2118faf5fcfc7761bd75fcfb5508f1f48d1a40db694aba32af5d0416464726573733a206c6f772d6c6576656c2064656c65676174652063616c6c206661696c6564a26469706673582212200d66127c95c9fc837722b89f0e673d5254e727d2f397b7395dd3f053ef347dde64736f6c63430008060033",
  "linkReferences": {},
  "deployedLinkReferences": {}
}