{
  "_format": "hh-sol-artifact-1",
  "name": "BlacklistSnapshotTxFeeTemplate",
  "initializer": "function initialize(string name_, string symbol_, uint8 decimals_, uint256 amount_, uint256 txFee, address txFeeBeneficiary)",
  "sourceName": "contracts/templates/BlacklistSnapshotTxFeeTemplate.sol",
  "abi": [
    {
      "anonymous": false,
      "inputs": [
        {
          "indexed": false,
          "internalType": "address",
          "name": "previousAdmin",
          "type": "address"
        },
        {
          "indexed": false,
          "internalType": "address",
          "name": "newAdmin",
          "type": "address"
        }
      ],
      "name": "AdminChanged",
      "type": "event"
    },
    {
      "anonymous": false,
      "inputs": [
        {
          "indexed": true,
          "internalType": "address",
          "name": "owner",
          "type": "address"
        },
        {
          "indexed": true,
          "internalType": "address",
          "name": "spender",
          "type": "address"
        },
        {
          "indexed": false,
          "internalType": "uint256",
          "name": "value",
          "type": "uint256"
        }
      ],
      "name": "Approval",
      "type": "event"
    },
    {
      "anonymous": false,
      "inputs": [
        {
          "indexed": true,
          "internalType": "address",
          "name": "beacon",
          "type": "address"
        }
      ],
      "name": "BeaconUpgraded",
      "type": "event"
    },
    {
      "anonymous": false,
      "inputs": [
        {
          "indexed": true,
          "internalType": "bytes32",
          "name": "role",
          "type": "bytes32"
        },
        {
          "indexed": true,
          "internalType": "bytes32",
          "name": "previousAdminRole",
          "type": "bytes32"
        },
        {
          "indexed": true,
          "internalType": "bytes32",
          "name": "newAdminRole",
          "type": "bytes32"
        }
      ],
      "name": "RoleAdminChanged",
      "type": "event"
    },
    {
      "anonymous": false,
      "inputs": [
        {
          "indexed": true,
          "internalType": "bytes32",
          "name": "role",
          "type": "bytes32"
        },
        {
          "indexed": true,
          "internalType": "address",
          "name": "account",
          "type": "address"
        },
        {
          "indexed": true,
          "internalType": "address",
          "name": "sender",
          "type": "address"
        }
      ],
      "name": "RoleGranted",
      "type": "event"
    },
    {
      "anonymous": false,
      "inputs": [
        {
          "indexed": true,
          "internalType": "bytes32",
          "name": "role",
          "type": "bytes32"
        },
        {
          "indexed": true,
          "internalType": "address",
          "name": "account",
          "type": "address"
        },
        {
          "indexed": true,
          "internalType": "address",
          "name": "sender",
          "type": "address"
        }
      ],
      "name": "RoleRevoked",
      "type": "event"
    },
    {
      "anonymous": false,
      "inputs": [
        {
          "indexed": false,
          "internalType": "uint256",
          "name": "id",
          "type": "uint256"
        }
      ],
      "name": "Snapshot",
      "type": "event"
    },
    {
      "anonymous": false,
      "inputs": [
        {
          "indexed": true,
          "internalType": "address",
          "name": "from",
          "type": "address"
        },
        {
          "indexed": true,
          "internalType": "address",
          "name": "to",
          "type": "address"
        },
        {
          "indexed": false,
          "internalType": "uint256",
          "name": "value",
          "type": "uint256"
        }
      ],
      "name": "Transfer",
      "type": "event"
    },
    {
      "anonymous": false,
      "inputs": [
        {
          "indexed": true,
          "internalType": "address",
          "name": "implementation",
          "type": "address"
        }
      ],
      "name": "Upgraded",
      "type": "event"
    },
    {
      "inputs": [],
      "name": "BLACKLISTED_ROLE",
      "outputs": [
        {
          "internalType": "bytes32",
          "name": "",
          "type": "bytes32"
        }
      ],
      "stateMutability": "view",
      "type": "function"
    },
    {
      "inputs": [],
      "name": "BLACKLIST_MANAGER_ROLE",
      "outputs": [
        {
          "internalType": "bytes32",
          "name": "",
          "type": "bytes32"
        }
      ],
      "stateMutability": "view",
      "type": "function"
    },
    {
      "inputs": [],
      "name": "DEFAULT_ADMIN_ROLE",
      "outputs": [
        {
          "internalType": "bytes32",
          "name": "",
          "type": "bytes32"
        }
      ],
      "stateMutability": "view",
      "type": "function"
    },
    {
      "inputs": [],
      "name": "GOVERNANCE_ROLE",
      "outputs": [
        {
          "internalType": "bytes32",
          "name": "",
          "type": "bytes32"
        }
      ],
      "stateMutability": "view",
      "type": "function"
    },
    {
      "inputs": [],
      "name": "UPGRADE_MANAGER_ROLE",
      "outputs": [
        {
          "internalType": "bytes32",
          "name": "",
          "type": "bytes32"
        }
      ],
      "stateMutability": "view",
      "type": "function"
    },
    {
      "inputs": [
        {
          "internalType": "address[]",
          "name": "addresses",
          "type": "address[]"
        }
      ],
      "name": "addAddressesToBlacklist",
      "outputs": [],
      "stateMutability": "nonpayable",
      "type": "function"
    },
    {
      "inputs": [
        {
          "internalType": "address",
          "name": "owner",
          "type": "address"
        },
        {
          "internalType": "address",
          "name": "spender",
          "type": "address"
        }
      ],
      "name": "allowance",
      "outputs": [
        {
          "internalType": "uint256",
          "name": "",
          "type": "uint256"
        }
      ],
      "stateMutability": "view",
      "type": "function"
    },
    {
      "inputs": [
        {
          "internalType": "address",
          "name": "spender",
          "type": "address"
        },
        {
          "internalType": "uint256",
          "name": "amount",
          "type": "uint256"
        }
      ],
      "name": "approve",
      "outputs": [
        {
          "internalType": "bool",
          "name": "",
          "type": "bool"
        }
      ],
      "stateMutability": "nonpayable",
      "type": "function"
    },
    {
      "inputs": [
        {
          "internalType": "address",
          "name": "account",
          "type": "address"
        }
      ],
      "name": "balanceOf",
      "outputs": [
        {
          "internalType": "uint256",
          "name": "",
          "type": "uint256"
        }
      ],
      "stateMutability": "view",
      "type": "function"
    },
    {
      "inputs": [
        {
          "internalType": "address",
          "name": "account",
          "type": "address"
        },
        {
          "internalType": "uint256",
          "name": "snapshotId",
          "type": "uint256"
        }
      ],
      "name": "balanceOfAt",
      "outputs": [
        {
          "internalType": "uint256",
          "name": "",
          "type": "uint256"
        }
      ],
      "stateMutability": "view",
      "type": "function"
    },
    {
      "inputs": [
        {
          "internalType": "uint256",
          "name": "newTxFee",
          "type": "uint256"
        },
        {
          "internalType": "address",
          "name": "newTxBeneficiary",
          "type": "address"
        }
      ],
      "name": "changeTxFeeProperties",
      "outputs": [],
      "stateMutability": "nonpayable",
      "type": "function"
    },
    {
      "inputs": [],
      "name": "decimals",
      "outputs": [
        {
          "internalType": "uint8",
          "name": "",
          "type": "uint8"
        }
      ],
      "stateMutability": "view",
      "type": "function"
    },
    {
      "inputs": [
        {
          "internalType": "address",
          "name": "spender",
          "type": "address"
        },
        {
          "internalType": "uint256",
          "name": "subtractedValue",
          "type": "uint256"
        }
      ],
      "name": "decreaseAllowance",
      "outputs": [
        {
          "internalType": "bool",
          "name": "",
          "type": "bool"
        }
      ],
      "stateMutability": "nonpayable",
      "type": "function"
    },
    {
      "inputs": [],
      "name": "getCurrentSnapshotId",
      "outputs": [
        {
          "internalType": "uint256",
          "name": "",
          "type": "uint256"
        }
      ],
      "stateMutability": "view",
      "type": "function"
    },
    {
      "inputs": [],
      "name": "getImplementation",
      "outputs": [
        {
          "internalType": "address",
          "name": "",
          "type": "address"
        }
      ],
      "stateMutability": "view",
      "type": "function"
    },
    {
      "inputs": [
        {
          "internalType": "bytes32",
          "name": "role",
          "type": "bytes32"
        }
      ],
      "name": "getRoleAdmin",
      "outputs": [
        {
          "internalType": "bytes32",
          "name": "",
          "type": "bytes32"
        }
      ],
      "stateMutability": "view",
      "type": "function"
    },
    {
      "inputs": [
        {
          "internalType": "bytes32",
          "name": "role",
          "type": "bytes32"
        },
        {
          "internalType": "address",
          "name": "account",
          "type": "address"
        }
      ],
      "name": "grantRole",
      "outputs": [],
      "stateMutability": "nonpayable",
      "type": "function"
    },
    {
      "inputs": [
        {
          "internalType": "bytes32",
          "name": "role",
          "type": "bytes32"
        },
        {
          "internalType": "address",
          "name": "account",
          "type": "address"
        }
      ],
      "name": "hasRole",
      "outputs": [
        {
          "internalType": "bool",
          "name": "",
          "type": "bool"
        }
      ],
      "stateMutability": "view",
      "type": "function"
    },
    {
      "inputs": [
        {
          "internalType": "address",
          "name": "spender",
          "type": "address"
        },
        {
          "internalType": "uint256",
          "name": "addedValue",
          "type": "uint256"
        }
      ],
      "name": "increaseAllowance",
      "outputs": [
        {
          "internalType": "bool",
          "name": "",
          "type": "bool"
        }
      ],
      "stateMutability": "nonpayable",
      "type": "function"
    },
    {
      "inputs": [
        {
          "internalType": "string",
          "name": "name_",
          "type": "string"
        },
        {
          "internalType": "string",
          "name": "symbol_",
          "type": "string"
        },
        {
          "internalType": "uint8",
          "name": "decimals_",
          "type": "uint8"
        },
        {
          "internalType": "uint256",
          "name": "amount_",
          "type": "uint256"
        },
        {
          "internalType": "uint256",
          "name": "txFee",
          "type": "uint256"
        },
        {
          "internalType": "address",
          "name": "txFeeBeneficiary",
          "type": "address"
        }
      ],
      "name": "initialize",
      "outputs": [],
      "stateMutability": "nonpayable",
      "type": "function"
    },
    {
      "inputs": [],
      "name": "name",
      "outputs": [
        {
          "internalType": "string",
          "name": "",
          "type": "string"
        }
      ],
      "stateMutability": "view",
      "type": "function"
    },
    {
      "inputs": [
        {
          "internalType": "address",
          "name": "implementationAddress",
          "type": "address"
        }
      ],
      "name": "proposeNewImplementation",
      "outputs": [],
      "stateMutability": "nonpayable",
      "type": "function"
    },
    {
      "inputs": [
        {
          "internalType": "address[]",
          "name": "addresses",
          "type": "address[]"
        }
      ],
      "name": "removeAddressesFromBlacklist",
      "outputs": [],
      "stateMutability": "nonpayable",
      "type": "function"
    },
    {
      "inputs": [
        {
          "internalType": "bytes32",
          "name": "role",
          "type": "bytes32"
        },
        {
          "internalType": "address",
          "name": "account",
          "type": "address"
        }
      ],
      "name": "renounceRole",
      "outputs": [],
      "stateMutability": "nonpayable",
      "type": "function"
    },
    {
      "inputs": [
        {
          "internalType": "bytes32",
          "name": "role",
          "type": "bytes32"
        },
        {
          "internalType": "address",
          "name": "account",
          "type": "address"
        }
      ],
      "name": "revokeRole",
      "outputs": [],
      "stateMutability": "nonpayable",
      "type": "function"
    },
    {
      "inputs": [],
      "name": "snapshot",
      "outputs": [],
      "stateMutability": "nonpayable",
      "type": "function"
    },
    {
      "inputs": [
        {
          "internalType": "bytes4",
          "name": "interfaceId",
          "type": "bytes4"
        }
      ],
      "name": "supportsInterface",
      "outputs": [
        {
          "internalType": "bool",
          "name": "",
          "type": "bool"
        }
      ],
      "stateMutability": "view",
      "type": "function"
    },
    {
      "inputs": [],
      "name": "symbol",
      "outputs": [
        {
          "internalType": "string",
          "name": "",
          "type": "string"
        }
      ],
      "stateMutability": "view",
      "type": "function"
    },
    {
      "inputs": [],
      "name": "totalSupply",
      "outputs": [
        {
          "internalType": "uint256",
          "name": "",
          "type": "uint256"
        }
      ],
      "stateMutability": "view",
      "type": "function"
    },
    {
      "inputs": [
        {
          "internalType": "uint256",
          "name": "snapshotId",
          "type": "uint256"
        }
      ],
      "name": "totalSupplyAt",
      "outputs": [
        {
          "internalType": "uint256",
          "name": "",
          "type": "uint256"
        }
      ],
      "stateMutability": "view",
      "type": "function"
    },
    {
      "inputs": [
        {
          "internalType": "address",
          "name": "recipient",
          "type": "address"
        },
        {
          "internalType": "uint256",
          "name": "amount",
          "type": "uint256"
        }
      ],
      "name": "transfer",
      "outputs": [
        {
          "internalType": "bool",
          "name": "",
          "type": "bool"
        }
      ],
      "stateMutability": "nonpayable",
      "type": "function"
    },
    {
      "inputs": [
        {
          "internalType": "address",
          "name": "sender",
          "type": "address"
        },
        {
          "internalType": "address",
          "name": "recipient",
          "type": "address"
        },
        {
          "internalType": "uint256",
          "name": "amount",
          "type": "uint256"
        }
      ],
      "name": "transferFrom",
      "outputs": [
        {
          "internalType": "bool",
          "name": "",
          "type": "bool"
        }
      ],
      "stateMutability": "nonpayable",
      "type": "function"
    },
    {
      "inputs": [
        {
          "internalType": "address",
          "name": "newImplementation",
          "type": "address"
        }
      ],
      "name": "upgradeTo",
      "outputs": [],
      "stateMutability": "nonpayable",
      "type": "function"
    },
    {
      "inputs": [
        {
          "internalType": "address",
          "name": "newImplementation",
          "type": "address"
        },
        {
          "internalType": "bytes",
          "name": "data",
          "type": "bytes"
        }
      ],
      "name": "upgradeToAndCall",
      "outputs": [],
      "stateMutability": "payable",
      "type": "function"
    }
  ],
  "bytecode": "0x60a06040523060601b60805234801561001757600080fd5b5060805160601c612c2c61004b6000396000818161099a015281816109da01528181610b810152610bc10152612c2c6000f3fe6080604052600436106101f95760003560e01c80634f1ef2861161010d578063981b24d0116100a0578063aaf10f421161006f578063aaf10f42146105ac578063ca73419e146105d9578063d547741f146105f9578063dd62ed3e14610619578063f36c8f5c1461065f57600080fd5b8063981b24d014610537578063a217fddf14610557578063a457c2d71461056c578063a9059cbb1461058c57600080fd5b806370a08231116100dc57806370a08231146104b757806391d14854146104ed57806395d89b411461050d5780639711715a1461052257600080fd5b80634f1ef2861461044d5780635120561a146104605780635439ad861461048057806362b199c51461049557600080fd5b8063313ce56711610190578063395093511161015f57806339509351146103a9578063410b2424146103c957806343ffa64e146103eb57806347757fb61461040d5780634ee2cd7e1461042d57600080fd5b8063313ce56714610326578063322587941461034957806336568abe146103695780633659cfe61461038957600080fd5b806323b872dd116101cc57806323b872dd14610294578063248a9ca3146102b45780632cd77a5a146102e45780632f2ff15d1461030657600080fd5b806301ffc9a7146101fe57806306fdde0314610233578063095ea7b31461025557806318160ddd14610275575b600080fd5b34801561020a57600080fd5b5061021e61021936600461275a565b610681565b60405190151581526020015b60405180910390f35b34801561023f57600080fd5b506102486106b8565b60405161022a91906128b4565b34801561026157600080fd5b5061021e61027036600461267f565b61074a565b34801561028157600080fd5b506067545b60405190815260200161022a565b3480156102a057600080fd5b5061021e6102af3660046125e1565b610760565b3480156102c057600080fd5b506102866102cf36600461271e565b600090815260fb602052604090206001015490565b3480156102f057600080fd5b506103046102ff366004612784565b610811565b005b34801561031257600080fd5b50610304610321366004612737565b6108ee565b34801561033257600080fd5b506101605460405160ff909116815260200161022a565b34801561035557600080fd5b506103046103643660046126a9565b610906565b34801561037557600080fd5b50610304610384366004612737565b61097b565b34801561039557600080fd5b506103046103a4366004612593565b61098f565b3480156103b557600080fd5b5061021e6103c436600461267f565b610a58565b3480156103d557600080fd5b50610286600080516020612b7083398151915281565b3480156103f757600080fd5b50610286600080516020612b3083398151915281565b34801561041957600080fd5b50610304610428366004612593565b610a94565b34801561043957600080fd5b5061028661044836600461267f565b610ad1565b61030461045b36600461261d565b610b76565b34801561046c57600080fd5b5061030461047b366004612737565b610c2c565b34801561048c57600080fd5b50610286610ca1565b3480156104a157600080fd5b50610286600080516020612b1083398151915281565b3480156104c357600080fd5b506102866104d2366004612593565b6001600160a01b031660009081526065602052604090205490565b3480156104f957600080fd5b5061021e610508366004612737565b610cbe565b34801561051957600080fd5b50610248610ce9565b34801561052e57600080fd5b50610304610cf8565b34801561054357600080fd5b5061028661055236600461271e565b610d00565b34801561056357600080fd5b50610286600081565b34801561057857600080fd5b5061021e61058736600461267f565b610d6b565b34801561059857600080fd5b5061021e6105a736600461267f565b610e04565b3480156105b857600080fd5b506105c1610e11565b6040516001600160a01b03909116815260200161022a565b3480156105e557600080fd5b506103046105f43660046126a9565b610e1b565b34801561060557600080fd5b50610304610614366004612737565b610e8a565b34801561062557600080fd5b506102866106343660046125ae565b6001600160a01b03918216600090815260666020908152604080832093909416825291909152205490565b34801561066b57600080fd5b50610286600080516020612b5083398151915281565b60006001600160e01b03198216637965db0b60e01b14806106b257506301ffc9a760e01b6001600160e01b03198316145b92915050565b6060606880546106c790612a7d565b80601f01602080910402602001604051908101604052809291908181526020018280546106f390612a7d565b80156107405780601f1061071557610100808354040283529160200191610740565b820191906000526020600020905b81548152906001019060200180831161072357829003601f168201915b5050505050905090565b6000610757338484610eb5565b50600192915050565b600061076d848484610fd9565b6001600160a01b0384166000908152606660209081526040808320338452909152902054828110156107f75760405162461bcd60e51b815260206004820152602860248201527f45524332303a207472616e7366657220616d6f756e74206578636565647320616044820152676c6c6f77616e636560c01b60648201526084015b60405180910390fd5b6108048533858403610eb5565b60019150505b9392505050565b600054610100900460ff1661082c5760005460ff1615610830565b303b155b6108935760405162461bcd60e51b815260206004820152602e60248201527f496e697469616c697a61626c653a20636f6e747261637420697320616c72656160448201526d191e481a5b9a5d1a585b1a5e995960921b60648201526084016107ee565b600054610100900460ff161580156108b5576000805461ffff19166101011790555b6108c1878787876111b2565b6108c96111f5565b6108d38383611244565b80156108e5576000805461ff00191690555b50505050505050565b6108f882826112d3565b6109028282611362565b5050565b600080516020612b7083398151915261091f8133611388565b60005b8281101561097557610963600080516020612b1083398151915285858481811061094e5761094e612ae3565b90506020020160208101906106149190612593565b8061096d81612ab2565b915050610922565b50505050565b61098582826113ec565b6109028282611454565b306001600160a01b037f00000000000000000000000000000000000000000000000000000000000000001614156109d85760405162461bcd60e51b81526004016107ee906128e7565b7f00000000000000000000000000000000000000000000000000000000000000006001600160a01b0316610a0a6114ce565b6001600160a01b031614610a305760405162461bcd60e51b81526004016107ee90612933565b610a39816114fc565b60408051600080825260208201909252610a559183919061157e565b50565b3360008181526066602090815260408083206001600160a01b03871684529091528120549091610757918590610a8f9086906129ca565b610eb5565b600080516020612b50833981519152610aad8133611388565b5061012d80546001600160a01b0319166001600160a01b0392909216919091179055565b604080516001600160a01b0384166020808301919091527ffbf1c7065455eb4486649b8540f24ef2dd4ebedf2aa423f0039d17c2c75dea15828401528251808303840181526060909201909252805191012060009081610b328260016129ca565b9050600080610b428685856116c9565b9150915081610b69576001600160a01b038716600090815260656020526040902054610b6b565b805b979650505050505050565b306001600160a01b037f0000000000000000000000000000000000000000000000000000000000000000161415610bbf5760405162461bcd60e51b81526004016107ee906128e7565b7f00000000000000000000000000000000000000000000000000000000000000006001600160a01b0316610bf16114ce565b6001600160a01b031614610c175760405162461bcd60e51b81526004016107ee90612933565b610c20826114fc565b6109028282600161157e565b6000610c388133611388565b6001600160a01b038216610c4b57600080fd5b82600080516020612b9083398151915255817fe38b16c806f019542b2d4bf356bb4ba2ea4b7eb450b8fbff2584f6084c4978f180546001600160a01b0319166001600160a01b0392909216919091179055505050565b6000610cb9600080516020612bd78339815191525490565b905090565b600091825260fb602090815260408084206001600160a01b0393909316845291905290205460ff1690565b6060606980546106c790612a7d565b610a556117b4565b6000806000610d50847f286a9db37a0f8ddcbcee127c9f4f56031230f49cb46786f87e166d552e11f67e7ffcaa8bb100d3c5b627eac0369cc1d2778dbeffa2993d08f039fb27795729e9a56116c9565b9150915081610d6157606754610d63565b805b949350505050565b3360009081526066602090815260408083206001600160a01b038616845290915281205482811015610ded5760405162461bcd60e51b815260206004820152602560248201527f45524332303a2064656372656173656420616c6c6f77616e63652062656c6f77604482015264207a65726f60d81b60648201526084016107ee565b610dfa3385858403610eb5565b5060019392505050565b6000610757338484610fd9565b6000610cb96114ce565b600080516020612b70833981519152610e348133611388565b60005b8281101561097557610e78600080516020612b10833981519152858584818110610e6357610e63612ae3565b90506020020160208101906103219190612593565b80610e8281612ab2565b915050610e37565b600082815260fb6020526040902060010154610ea68133611388565b610eb08383611824565b505050565b6001600160a01b038316610f175760405162461bcd60e51b8152602060048201526024808201527f45524332303a20617070726f76652066726f6d20746865207a65726f206164646044820152637265737360e01b60648201526084016107ee565b6001600160a01b038216610f785760405162461bcd60e51b815260206004820152602260248201527f45524332303a20617070726f766520746f20746865207a65726f206164647265604482015261737360f01b60648201526084016107ee565b6001600160a01b0383811660008181526066602090815260408083209487168084529482529182902085905590518481527f8c5be1e5ebec7d5bd14f71427d1e84f3dd0314c0f7b2291e5b200ac8c7c3b925910160405180910390a3505050565b6001600160a01b03831661103d5760405162461bcd60e51b815260206004820152602560248201527f45524332303a207472616e736665722066726f6d20746865207a65726f206164604482015264647265737360d81b60648201526084016107ee565b6001600160a01b03821661109f5760405162461bcd60e51b815260206004820152602360248201527f45524332303a207472616e7366657220746f20746865207a65726f206164647260448201526265737360e81b60648201526084016107ee565b6110aa83838361188b565b6001600160a01b038316600090815260656020526040902054818110156111225760405162461bcd60e51b815260206004820152602660248201527f45524332303a207472616e7366657220616d6f756e7420657863656564732062604482015265616c616e636560d01b60648201526084016107ee565b6001600160a01b038085166000908152606560205260408082208585039055918516815290812080548492906111599084906129ca565b92505081905550826001600160a01b0316846001600160a01b03167fddf252ad1be2c89b69c2b068fc378daa952ba7f163c4a11628f55a4df523b3ef846040516111a591815260200190565b60405180910390a3610975565b600054610100900460ff166111d95760405162461bcd60e51b81526004016107ee9061297f565b6111e16118a1565b6111eb84846118f8565b6109758282611946565b600054610100900460ff1661121c5760405162461bcd60e51b81526004016107ee9061297f565b611242600080516020612b10833981519152600080516020612b70833981519152611987565b565b600054610100900460ff1661126b5760405162461bcd60e51b81526004016107ee9061297f565b6001600160a01b03811661127e57600080fd5b81600080516020612b9083398151915255807fe38b16c806f019542b2d4bf356bb4ba2ea4b7eb450b8fbff2584f6084c4978f180546001600160a01b0319166001600160a01b03929092169190911790555050565b600080516020612b708339815191528214806112ed575081155b156109025761130a600080516020612b1083398151915282610cbe565b156109025760405162461bcd60e51b815260206004820152602260248201527f63616e206e6f742061737369676e20726f6c6520746f20626c61636b6c697374604482015261195960f21b60648201526084016107ee565b600082815260fb602052604090206001015461137e8133611388565b610eb083836119d2565b6113928282610cbe565b610902576113aa816001600160a01b03166014611a58565b6113b5836020611a58565b6040516020016113c692919061283f565b60408051601f198184030181529082905262461bcd60e51b82526107ee916004016128b4565b600080516020612b108339815191528214156109025760405162461bcd60e51b815260206004820152602160248201527f43616e206e6f742072656e6f756e636520626c61636b6c697374656420726f6c6044820152606560f81b60648201526084016107ee565b6001600160a01b03811633146114c45760405162461bcd60e51b815260206004820152602f60248201527f416363657373436f6e74726f6c3a2063616e206f6e6c792072656e6f756e636560448201526e103937b632b9903337b91039b2b63360891b60648201526084016107ee565b6109028282611824565b7f360894a13ba1a3210667c828492db98dca3e2076cc3735a920a3ca505d382bbc546001600160a01b031690565b611514600080516020612b5083398151915233610cbe565b806115325750611532600080516020612b3083398151915233610cbe565b610a555760405162461bcd60e51b815260206004820152601d60248201527f4552524f523a2041646472657373206e6f7420617574686f72697a656400000060448201526064016107ee565b60006115886114ce565b905061159384611bf4565b6000835111806115a05750815b156115b1576115af8484611c99565b505b7f4910fdfa16fed3260ed0e7147f7cc6da11a60208b5b9406d12a635614ffd9143805460ff166116c257805460ff191660011781556040516001600160a01b038316602482015261163090869060440160408051601f198184030181529190526020810180516001600160e01b0316631b2ce7f360e11b179052611c99565b50805460ff191681556116416114ce565b6001600160a01b0316826001600160a01b0316146116b95760405162461bcd60e51b815260206004820152602f60248201527f45524331393637557067726164653a207570677261646520627265616b73206660448201526e75727468657220757067726164657360881b60648201526084016107ee565b6116c285611d84565b5050505050565b600080600085116117155760405162461bcd60e51b815260206004820152601660248201527504552433230536e617073686f743a20696420697320360541b60448201526064016107ee565b600080516020612bd7833981519152548511156117745760405162461bcd60e51b815260206004820152601d60248201527f4552433230536e617073686f743a206e6f6e6578697374656e7420696400000060448201526064016107ee565b60006117808587611dc4565b905084548114156117985760008092509250506117ac565b60016117a48583611e63565b549093509150505b935093915050565b60006001600080516020612bd783398151915280546000906117d79084906129ca565b9091555050600080516020612bd7833981519152546040518181527f8030e83b04d87bef53480e26263266d6ca66863aa8506aca6f2559d18aa1cb679060200160405180910390a1919050565b61182e8282610cbe565b1561090257600082815260fb602090815260408083206001600160a01b0385168085529252808320805460ff1916905551339285917ff6391f5c32d9c69d2a47ea670b442974b53935d1edc7fd64eb21e047a839171b9190a45050565b611896838383611ee2565b610eb0838383611f03565b600054610100900460ff166118c85760405162461bcd60e51b81526004016107ee9061297f565b6118d0611f4b565b6118d8611f4b565b6118e0611f4b565b6118e8611f4b565b6118f0611f4b565b611242611f72565b600054610100900460ff1661191f5760405162461bcd60e51b81526004016107ee9061297f565b8151611932906068906020850190612448565b508051610eb0906069906020840190612448565b600054610100900460ff1661196d5760405162461bcd60e51b81526004016107ee9061297f565b610160805460ff191660ff84161790556109023382611ffa565b600082815260fb6020526040808220600101805490849055905190918391839186917fbd79b86ffe0ab8e8776151514217cd7cacd52c909f66475c3af44e129f0b00ff9190a4505050565b6119dc8282610cbe565b61090257600082815260fb602090815260408083206001600160a01b03851684529091529020805460ff19166001179055611a143390565b6001600160a01b0316816001600160a01b0316837f2f8788117e7eff1d82e926ec794901d17c78024a50270940304540a733656f0d60405160405180910390a45050565b60606000611a67836002612a04565b611a729060026129ca565b67ffffffffffffffff811115611a8a57611a8a612af9565b6040519080825280601f01601f191660200182016040528015611ab4576020820181803683370190505b509050600360fc1b81600081518110611acf57611acf612ae3565b60200101906001600160f81b031916908160001a905350600f60fb1b81600181518110611afe57611afe612ae3565b60200101906001600160f81b031916908160001a9053506000611b22846002612a04565b611b2d9060016129ca565b90505b6001811115611ba5576f181899199a1a9b1b9c1cb0b131b232b360811b85600f1660108110611b6157611b61612ae3565b1a60f81b828281518110611b7757611b77612ae3565b60200101906001600160f81b031916908160001a90535060049490941c93611b9e81612a66565b9050611b30565b50831561080a5760405162461bcd60e51b815260206004820181905260248201527f537472696e67733a20686578206c656e67746820696e73756666696369656e7460448201526064016107ee565b803b611c585760405162461bcd60e51b815260206004820152602d60248201527f455243313936373a206e657720696d706c656d656e746174696f6e206973206e60448201526c1bdd08184818dbdb9d1c9858dd609a1b60648201526084016107ee565b7f360894a13ba1a3210667c828492db98dca3e2076cc3735a920a3ca505d382bbc80546001600160a01b0319166001600160a01b0392909216919091179055565b6060823b611cf85760405162461bcd60e51b815260206004820152602660248201527f416464726573733a2064656c65676174652063616c6c20746f206e6f6e2d636f6044820152651b9d1c9858dd60d21b60648201526084016107ee565b600080846001600160a01b031684604051611d139190612823565b600060405180830381855af49150503d8060008114611d4e576040519150601f19603f3d011682016040523d82523d6000602084013e611d53565b606091505b5091509150611d7b8282604051806060016040528060278152602001612bb0602791396120e5565b95945050505050565b611d8d81611bf4565b6040516001600160a01b038216907fbc7cd75a20ee27fd9adebab32041f755214dbc6bffa90cc0225b39da2e5c2d3b90600090a250565b8154600090819080611ddb576000925050506106b2565b80821015611e1f576000611def838361211e565b905084611dfc8783611e63565b541115611e0b57809150611e19565b611e168160016129ca565b92505b50611ddb565b600082118015611e42575083611e3f86611e3a600186612a23565b611e63565b54145b15611e5b57611e52600183612a23565b925050506106b2565b5090506106b2565b600082548210611eab5760405162461bcd60e51b815260206004820152601360248201527211549493d48e8813dd5d081bd988189bdd5b99606a1b60448201526064016107ee565b8183604051602001611ebf91815260200190565b6040516020818303038152906040528051906020012060001c61080a91906129ca565b611eed838383611896565b611ef8838383612139565b610eb0838383612191565b6001600160a01b038316611f2257611f1a8261227a565b610eb0612304565b6001600160a01b038216611f3957611f1a8361227a565b611f428361227a565b610eb08261227a565b600054610100900460ff166112425760405162461bcd60e51b81526004016107ee9061297f565b600054610100900460ff16611f995760405162461bcd60e51b81526004016107ee9061297f565b611fa4600033612352565b611fbc600080516020612b5083398151915233612352565b611fd4600080516020612b3083398151915233612352565b611242600080516020612b30833981519152600080516020612b50833981519152611987565b6001600160a01b0382166120505760405162461bcd60e51b815260206004820152601f60248201527f45524332303a206d696e7420746f20746865207a65726f20616464726573730060448201526064016107ee565b61205c6000838361188b565b806067600082825461206e91906129ca565b90915550506001600160a01b0382166000908152606560205260408120805483929061209b9084906129ca565b90915550506040518181526001600160a01b038316906000907fddf252ad1be2c89b69c2b068fc378daa952ba7f163c4a11628f55a4df523b3ef9060200160405180910390a35050565b606083156120f457508161080a565b8251156121045782518084602001fd5b8160405162461bcd60e51b81526004016107ee91906128b4565b600061212d60028484186129e2565b61080a908484166129ca565b61214433848461235c565b15610eb05760405162461bcd60e51b815260206004820152601a60248201527f4552524f523a204164647265737320426c61636b6c697374656400000000000060448201526064016107ee565b600080516020612b90833981519152547fe38b16c806f019542b2d4bf356bb4ba2ea4b7eb450b8fbff2584f6084c4978f1546001600160a01b03168115806121ea5750836001600160a01b0316816001600160a01b0316145b806122065750846001600160a01b0316816001600160a01b0316145b8061221857506001600160a01b038516155b8061222a57506001600160a01b038416155b15612236575050505050565b6000670de0b6b3a7640000600080516020612b908339815191525461225b9086612a04565b61226591906129e2565b9050612272868383610fd9565b505050505050565b604080516001600160a01b0383166020808301919091527ffbf1c7065455eb4486649b8540f24ef2dd4ebedf2aa423f0039d17c2c75dea15828401528251808303840181526060909201909252805191012060006122d98260016129ca565b9050610eb082826122ff866001600160a01b031660009081526065602052604090205490565b6123b2565b6112427f286a9db37a0f8ddcbcee127c9f4f56031230f49cb46786f87e166d552e11f67e7ffcaa8bb100d3c5b627eac0369cc1d2778dbeffa2993d08f039fb27795729e9a56122ff60675490565b61090282826119d2565b6000612376600080516020612b1083398151915284610cbe565b806123945750612394600080516020612b1083398151915285610cbe565b80610d635750610d63600080516020612b1083398151915283610cbe565b60006123ca600080516020612bd78339815191525490565b9050806123d6856123f0565b1015610975576123e68482612420565b6109758383612420565b8054600090806124035750600092915050565b61241283611e3a600184612a23565b549392505050565b50919050565b8154600183600061243183856129ca565b909155508290506124428483611e63565b55505050565b82805461245490612a7d565b90600052602060002090601f01602090048101928261247657600085556124bc565b82601f1061248f57805160ff19168380011785556124bc565b828001600101855582156124bc579182015b828111156124bc5782518255916020019190600101906124a1565b506124c89291506124cc565b5090565b5b808211156124c857600081556001016124cd565b600067ffffffffffffffff808411156124fc576124fc612af9565b604051601f8501601f19908116603f0116810190828211818310171561252457612524612af9565b8160405280935085815286868601111561253d57600080fd5b858560208301376000602087830101525050509392505050565b80356001600160a01b038116811461256e57600080fd5b919050565b600082601f83011261258457600080fd5b61080a838335602085016124e1565b6000602082840312156125a557600080fd5b61080a82612557565b600080604083850312156125c157600080fd5b6125ca83612557565b91506125d860208401612557565b90509250929050565b6000806000606084860312156125f657600080fd5b6125ff84612557565b925061260d60208501612557565b9150604084013590509250925092565b6000806040838503121561263057600080fd5b61263983612557565b9150602083013567ffffffffffffffff81111561265557600080fd5b8301601f8101851361266657600080fd5b612675858235602084016124e1565b9150509250929050565b6000806040838503121561269257600080fd5b61269b83612557565b946020939093013593505050565b600080602083850312156126bc57600080fd5b823567ffffffffffffffff808211156126d457600080fd5b818501915085601f8301126126e857600080fd5b8135818111156126f757600080fd5b8660208260051b850101111561270c57600080fd5b60209290920196919550909350505050565b60006020828403121561273057600080fd5b5035919050565b6000806040838503121561274a57600080fd5b823591506125d860208401612557565b60006020828403121561276c57600080fd5b81356001600160e01b03198116811461080a57600080fd5b60008060008060008060c0878903121561279d57600080fd5b863567ffffffffffffffff808211156127b557600080fd5b6127c18a838b01612573565b975060208901359150808211156127d757600080fd5b506127e489828a01612573565b955050604087013560ff811681146127fb57600080fd5b9350606087013592506080870135915061281760a08801612557565b90509295509295509295565b60008251612835818460208701612a3a565b9190910192915050565b7f416363657373436f6e74726f6c3a206163636f756e7420000000000000000000815260008351612877816017850160208801612a3a565b7001034b99036b4b9b9b4b733903937b6329607d1b60179184019182015283516128a8816028840160208801612a3a565b01602801949350505050565b60208152600082518060208401526128d3816040850160208701612a3a565b601f01601f19169190910160400192915050565b6020808252602c908201527f46756e6374696f6e206d7573742062652063616c6c6564207468726f7567682060408201526b19195b1959d85d1958d85b1b60a21b606082015260800190565b6020808252602c908201527f46756e6374696f6e206d7573742062652063616c6c6564207468726f7567682060408201526b6163746976652070726f787960a01b606082015260800190565b6020808252602b908201527f496e697469616c697a61626c653a20636f6e7472616374206973206e6f74206960408201526a6e697469616c697a696e6760a81b606082015260800190565b600082198211156129dd576129dd612acd565b500190565b6000826129ff57634e487b7160e01b600052601260045260246000fd5b500490565b6000816000190483118215151615612a1e57612a1e612acd565b500290565b600082821015612a3557612a35612acd565b500390565b60005b83811015612a55578181015183820152602001612a3d565b838111156109755750506000910152565b600081612a7557612a75612acd565b506000190190565b600181811c90821680612a9157607f821691505b6020821081141561241a57634e487b7160e01b600052602260045260246000fd5b6000600019821415612ac657612ac6612acd565b5060010190565b634e487b7160e01b600052601160045260246000fd5b634e487b7160e01b600052603260045260246000fd5b634e487b7160e01b600052604160045260246000fdfe548c7f0307ab2a7ea894e5c7e8c5353cc750bb9385ee2e945f189a9a83daa8eda76ace73a908083d89af9ff88e5b4f7cadb3591a80631063f68b695fda726db571840dc4906352362b0cdaf79870196c8e42acafade72d5d5a6d59291253ceb1f988e4fb62b8e14f4820fed03192306ddf4d7dbfa215595ba1c6ba4b76b369ee253122b26cc2118faf5fcfc7761bd75fcfb5508f1f48d1a40db694aba32af5d0416464726573733a206c6f772d6c6576656c2064656c65676174652063616c6c206661696c65640d0a0ed3351c10a57d74a44b40c06e0946288e4e3816ac07bb89db2a755562e7a26469706673582212206575d98b436fa6325af53d947b4d0d43f1153467929e6c6cd891428acd5d6cf464736f6c63430008060033",
  "linkReferences": {},
  "deployedLinkReferences": {}
}