{
  "_format": "hh-sol-artifact-1",
  "name": "BlacklistTxFeeWhiteListTemplate",
  "initializer": "function initialize(string name_, string symbol_, uint8 decimals_, uint256 amount_, uint256 txFee, address txFeeBeneficiary)",
  "sourceName": "contracts/templates/BlacklistTxFeeWhiteListTemplate.sol",
  "abi": [
    {
      "anonymous": false,
      "inputs": [
        {
          "indexed": false,
          "internalType": "address",
          "name": "previousAdmin",
          "type": "address"
        },
        {
          "indexed": false,
          "internalType": "address",
          "name": "newAdmin",
          "type": "address"
        }
      ],
      "name": "AdminChanged",
      "type": "event"
    },
    {
      "anonymous": false,
      "inputs": [
        {
          "indexed": true,
          "internalType": "address",
          "name": "owner",
          "type": "address"
        },
        {
          "indexed": true,
          "internalType": "address",
          "name": "spender",
          "type": "address"
        },
        {
          "indexed": false,
          "internalType": "uint256",
          "name": "value",
          "type": "uint256"
        }
      ],
      "name": "Approval",
      "type": "event"
    },
    {
      "anonymous": false,
      "inputs": [
        {
          "indexed": true,
          "internalType": "address",
          "name": "beacon",
          "type": "address"
        }
      ],
      "name": "BeaconUpgraded",
      "type": "event"
    },
    {
      "anonymous": false,
      "inputs": [
        {
          "indexed": false,
          "internalType": "address",
          "name": "account",
          "type": "address"
        }
      ],
      "name": "Paused",
      "type": "event"
    },
    {
      "anonymous": false,
      "inputs": [
        {
          "indexed": true,
          "internalType": "bytes32",
          "name": "role",
          "type": "bytes32"
        },
        {
          "indexed": true,
          "internalType": "bytes32",
          "name": "previousAdminRole",
          "type": "bytes32"
        },
        {
          "indexed": true,
          "internalType": "bytes32",
          "name": "newAdminRole",
          "type": "bytes32"
        }
      ],
      "name": "RoleAdminChanged",
      "type": "event"
    },
    {
      "anonymous": false,
      "inputs": [
        {
          "indexed": true,
          "internalType": "bytes32",
          "name": "role",
          "type": "bytes32"
        },
        {
          "indexed": true,
          "internalType": "address",
          "name": "account",
          "type": "address"
        },
        {
          "indexed": true,
          "internalType": "address",
          "name": "sender",
          "type": "address"
        }
      ],
      "name": "RoleGranted",
      "type": "event"
    },
    {
      "anonymous": false,
      "inputs": [
        {
          "indexed": true,
          "internalType": "bytes32",
          "name": "role",
          "type": "bytes32"
        },
        {
          "indexed": true,
          "internalType": "address",
          "name": "account",
          "type": "address"
        },
        {
          "indexed": true,
          "internalType": "address",
          "name": "sender",
          "type": "address"
        }
      ],
      "name": "RoleRevoked",
      "type": "event"
    },
    {
      "anonymous": false,
      "inputs": [
        {
          "indexed": true,
          "internalType": "address",
          "name": "from",
          "type": "address"
        },
        {
          "indexed": true,
          "internalType": "address",
          "name": "to",
          "type": "address"
        },
        {
          "indexed": false,
          "internalType": "uint256",
          "name": "value",
          "type": "uint256"
        }
      ],
      "name": "Transfer",
      "type": "event"
    },
    {
      "anonymous": false,
      "inputs": [
        {
          "indexed": false,
          "internalType": "address",
          "name": "account",
          "type": "address"
        }
      ],
      "name": "Unpaused",
      "type": "event"
    },
    {
      "anonymous": false,
      "inputs": [
        {
          "indexed": true,
          "internalType": "address",
          "name": "implementation",
          "type": "address"
        }
      ],
      "name": "Upgraded",
      "type": "event"
    },
    {
      "inputs": [],
      "name": "BLACKLISTED_ROLE",
      "outputs": [
        {
          "internalType": "bytes32",
          "name": "",
          "type": "bytes32"
        }
      ],
      "stateMutability": "view",
      "type": "function"
    },
    {
      "inputs": [],
      "name": "BLACKLIST_MANAGER_ROLE",
      "outputs": [
        {
          "internalType": "bytes32",
          "name": "",
          "type": "bytes32"
        }
      ],
      "stateMutability": "view",
      "type": "function"
    },
    {
      "inputs": [],
      "name": "DEFAULT_ADMIN_ROLE",
      "outputs": [
        {
          "internalType": "bytes32",
          "name": "",
          "type": "bytes32"
        }
      ],
      "stateMutability": "view",
      "type": "function"
    },
    {
      "inputs": [],
      "name": "GOVERNANCE_ROLE",
      "outputs": [
        {
          "internalType": "bytes32",
          "name": "",
          "type": "bytes32"
        }
      ],
      "stateMutability": "view",
      "type": "function"
    },
    {
      "inputs": [],
      "name": "PAUSE_MANAGER_ROLE",
      "outputs": [
        {
          "internalType": "bytes32",
          "name": "",
          "type": "bytes32"
        }
      ],
      "stateMutability": "view",
      "type": "function"
    },
    {
      "inputs": [],
      "name": "UPGRADE_MANAGER_ROLE",
      "outputs": [
        {
          "internalType": "bytes32",
          "name": "",
          "type": "bytes32"
        }
      ],
      "stateMutability": "view",
      "type": "function"
    },
    {
      "inputs": [],
      "name": "WHITELISTED_FROM_ROLE",
      "outputs": [
        {
          "internalType": "bytes32",
          "name": "",
          "type": "bytes32"
        }
      ],
      "stateMutability": "view",
      "type": "function"
    },
    {
      "inputs": [],
      "name": "WHITELISTED_SENDER_ROLE",
      "outputs": [
        {
          "internalType": "bytes32",
          "name": "",
          "type": "bytes32"
        }
      ],
      "stateMutability": "view",
      "type": "function"
    },
    {
      "inputs": [
        {
          "internalType": "address[]",
          "name": "addresses",
          "type": "address[]"
        }
      ],
      "name": "addAddressesToBlacklist",
      "outputs": [],
      "stateMutability": "nonpayable",
      "type": "function"
    },
    {
      "inputs": [
        {
          "internalType": "address[]",
          "name": "addresses",
          "type": "address[]"
        }
      ],
      "name": "addAddressesToWhitelistFrom",
      "outputs": [],
      "stateMutability": "nonpayable",
      "type": "function"
    },
    {
      "inputs": [
        {
          "internalType": "address[]",
          "name": "addresses",
          "type": "address[]"
        }
      ],
      "name": "addAddressesToWhitelistSender",
      "outputs": [],
      "stateMutability": "nonpayable",
      "type": "function"
    },
    {
      "inputs": [
        {
          "internalType": "address",
          "name": "owner",
          "type": "address"
        },
        {
          "internalType": "address",
          "name": "spender",
          "type": "address"
        }
      ],
      "name": "allowance",
      "outputs": [
        {
          "internalType": "uint256",
          "name": "",
          "type": "uint256"
        }
      ],
      "stateMutability": "view",
      "type": "function"
    },
    {
      "inputs": [
        {
          "internalType": "address",
          "name": "spender",
          "type": "address"
        },
        {
          "internalType": "uint256",
          "name": "amount",
          "type": "uint256"
        }
      ],
      "name": "approve",
      "outputs": [
        {
          "internalType": "bool",
          "name": "",
          "type": "bool"
        }
      ],
      "stateMutability": "nonpayable",
      "type": "function"
    },
    {
      "inputs": [
        {
          "internalType": "address",
          "name": "account",
          "type": "address"
        }
      ],
      "name": "balanceOf",
      "outputs": [
        {
          "internalType": "uint256",
          "name": "",
          "type": "uint256"
        }
      ],
      "stateMutability": "view",
      "type": "function"
    },
    {
      "inputs": [
        {
          "internalType": "uint256",
          "name": "newTxFee",
          "type": "uint256"
        },
        {
          "internalType": "address",
          "name": "newTxBeneficiary",
          "type": "address"
        }
      ],
      "name": "changeTxFeeProperties",
      "outputs": [],
      "stateMutability": "nonpayable",
      "type": "function"
    },
    {
      "inputs": [],
      "name": "decimals",
      "outputs": [
        {
          "internalType": "uint8",
          "name": "",
          "type": "uint8"
        }
      ],
      "stateMutability": "view",
      "type": "function"
    },
    {
      "inputs": [
        {
          "internalType": "address",
          "name": "spender",
          "type": "address"
        },
        {
          "internalType": "uint256",
          "name": "subtractedValue",
          "type": "uint256"
        }
      ],
      "name": "decreaseAllowance",
      "outputs": [
        {
          "internalType": "bool",
          "name": "",
          "type": "bool"
        }
      ],
      "stateMutability": "nonpayable",
      "type": "function"
    },
    {
      "inputs": [],
      "name": "getImplementation",
      "outputs": [
        {
          "internalType": "address",
          "name": "",
          "type": "address"
        }
      ],
      "stateMutability": "view",
      "type": "function"
    },
    {
      "inputs": [
        {
          "internalType": "bytes32",
          "name": "role",
          "type": "bytes32"
        }
      ],
      "name": "getRoleAdmin",
      "outputs": [
        {
          "internalType": "bytes32",
          "name": "",
          "type": "bytes32"
        }
      ],
      "stateMutability": "view",
      "type": "function"
    },
    {
      "inputs": [
        {
          "internalType": "bytes32",
          "name": "role",
          "type": "bytes32"
        },
        {
          "internalType": "address",
          "name": "account",
          "type": "address"
        }
      ],
      "name": "grantRole",
      "outputs": [],
      "stateMutability": "nonpayable",
      "type": "function"
    },
    {
      "inputs": [
        {
          "internalType": "bytes32",
          "name": "role",
          "type": "bytes32"
        },
        {
          "internalType": "address",
          "name": "account",
          "type": "address"
        }
      ],
      "name": "hasRole",
      "outputs": [
        {
          "internalType": "bool",
          "name": "",
          "type": "bool"
        }
      ],
      "stateMutability": "view",
      "type": "function"
    },
    {
      "inputs": [
        {
          "internalType": "address",
          "name": "spender",
          "type": "address"
        },
        {
          "internalType": "uint256",
          "name": "addedValue",
          "type": "uint256"
        }
      ],
      "name": "increaseAllowance",
      "outputs": [
        {
          "internalType": "bool",
          "name": "",
          "type": "bool"
        }
      ],
      "stateMutability": "nonpayable",
      "type": "function"
    },
    {
      "inputs": [
        {
          "internalType": "string",
          "name": "name_",
          "type": "string"
        },
        {
          "internalType": "string",
          "name": "symbol_",
          "type": "string"
        },
        {
          "internalType": "uint8",
          "name": "decimals_",
          "type": "uint8"
        },
        {
          "internalType": "uint256",
          "name": "amount_",
          "type": "uint256"
        },
        {
          "internalType": "uint256",
          "name": "txFee",
          "type": "uint256"
        },
        {
          "internalType": "address",
          "name": "txFeeBeneficiary",
          "type": "address"
        }
      ],
      "name": "initialize",
      "outputs": [],
      "stateMutability": "nonpayable",
      "type": "function"
    },
    {
      "inputs": [],
      "name": "name",
      "outputs": [
        {
          "internalType": "string",
          "name": "",
          "type": "string"
        }
      ],
      "stateMutability": "view",
      "type": "function"
    },
    {
      "inputs": [],
      "name": "pause",
      "outputs": [],
      "stateMutability": "nonpayable",
      "type": "function"
    },
    {
      "inputs": [],
      "name": "paused",
      "outputs": [
        {
          "internalType": "bool",
          "name": "",
          "type": "bool"
        }
      ],
      "stateMutability": "view",
      "type": "function"
    },
    {
      "inputs": [
        {
          "internalType": "address",
          "name": "implementationAddress",
          "type": "address"
        }
      ],
      "name": "proposeNewImplementation",
      "outputs": [],
      "stateMutability": "nonpayable",
      "type": "function"
    },
    {
      "inputs": [
        {
          "internalType": "address[]",
          "name": "addresses",
          "type": "address[]"
        }
      ],
      "name": "removeAddressesFromBlacklist",
      "outputs": [],
      "stateMutability": "nonpayable",
      "type": "function"
    },
    {
      "inputs": [
        {
          "internalType": "address[]",
          "name": "addresses",
          "type": "address[]"
        }
      ],
      "name": "removeAddressesFromWhitelistFrom",
      "outputs": [],
      "stateMutability": "nonpayable",
      "type": "function"
    },
    {
      "inputs": [
        {
          "internalType": "address[]",
          "name": "addresses",
          "type": "address[]"
        }
      ],
      "name": "removeAddressesFromWhitelistSender",
      "outputs": [],
      "stateMutability": "nonpayable",
      "type": "function"
    },
    {
      "inputs": [
        {
          "internalType": "bytes32",
          "name": "role",
          "type": "bytes32"
        },
        {
          "internalType": "address",
          "name": "account",
          "type": "address"
        }
      ],
      "name": "renounceRole",
      "outputs": [],
      "stateMutability": "nonpayable",
      "type": "function"
    },
    {
      "inputs": [
        {
          "internalType": "bytes32",
          "name": "role",
          "type": "bytes32"
        },
        {
          "internalType": "address",
          "name": "account",
          "type": "address"
        }
      ],
      "name": "revokeRole",
      "outputs": [],
      "stateMutability": "nonpayable",
      "type": "function"
    },
    {
      "inputs": [
        {
          "internalType": "bytes4",
          "name": "interfaceId",
          "type": "bytes4"
        }
      ],
      "name": "supportsInterface",
      "outputs": [
        {
          "internalType": "bool",
          "name": "",
          "type": "bool"
        }
      ],
      "stateMutability": "view",
      "type": "function"
    },
    {
      "inputs": [],
      "name": "symbol",
      "outputs": [
        {
          "internalType": "string",
          "name": "",
          "type": "string"
        }
      ],
      "stateMutability": "view",
      "type": "function"
    },
    {
      "inputs": [],
      "name": "totalSupply",
      "outputs": [
        {
          "internalType": "uint256",
          "name": "",
          "type": "uint256"
        }
      ],
      "stateMutability": "view",
      "type": "function"
    },
    {
      "inputs": [
        {
          "internalType": "address",
          "name": "recipient",
          "type": "address"
        },
        {
          "internalType": "uint256",
          "name": "amount",
          "type": "uint256"
        }
      ],
      "name": "transfer",
      "outputs": [
        {
          "internalType": "bool",
          "name": "",
          "type": "bool"
        }
      ],
      "stateMutability": "nonpayable",
      "type": "function"
    },
    {
      "inputs": [
        {
          "internalType": "address",
          "name": "sender",
          "type": "address"
        },
        {
          "internalType": "address",
          "name": "recipient",
          "type": "address"
        },
        {
          "internalType": "uint256",
          "name": "amount",
          "type": "uint256"
        }
      ],
      "name": "transferFrom",
      "outputs": [
        {
          "internalType": "bool",
          "name": "",
          "type": "bool"
        }
      ],
      "stateMutability": "nonpayable",
      "type": "function"
    },
    {
      "inputs": [],
      "name": "unpause",
      "outputs": [],
      "stateMutability": "nonpayable",
      "type": "function"
    },
    {
      "inputs": [
        {
          "internalType": "address",
          "name": "newImplementation",
          "type": "address"
        }
      ],
      "name": "upgradeTo",
      "outputs": [],
      "stateMutability": "nonpayable",
      "type": "function"
    },
    {
      "inputs": [
        {
          "internalType": "address",
          "name": "newImplementation",
          "type": "address"
        },
        {
          "internalType": "bytes",
          "name": "data",
          "type": "bytes"
        }
      ],
      "name": "upgradeToAndCall",
      "outputs": [],
      "stateMutability": "payable",
      "type": "function"
    }
  ],
  "bytecode": "0x60a06040523060601b60805234801561001757600080fd5b5060805160601c612cb861004b60003960008181610b1c01528181610b5c01528181610c7f0152610cbf0152612cb86000f3fe60806040526004361061023b5760003560e01c806362b199c51161012e578063a9059cbb116100ab578063d547741f1161006f578063d547741f146106c4578063d84f91e8146106e4578063dd62ed3e14610706578063f36c8f5c1461074c578063f834c5021461076e57600080fd5b8063a9059cbb14610615578063aa74a34a14610635578063aaf10f4214610657578063c233f3b714610684578063ca73419e146106a457600080fd5b80638456cb59116100f25780638456cb591461059657806391d14854146105ab57806395d89b41146105cb578063a217fddf146105e0578063a457c2d7146105f557600080fd5b806362b199c5146104dc578063685ed81a146104fe5780636e79a1c01461051e57806370a082311461053e578063731ce8fc1461057457600080fd5b806336568abe116101bc57806343ffa64e1161018057806343ffa64e1461044257806347757fb6146104645780634f1ef286146104845780635120561a146104975780635c975abb146104b757600080fd5b806336568abe146103ab5780633659cfe6146103cb57806339509351146103eb5780633f4ba83a1461040b578063410b24241461042057600080fd5b8063248a9ca311610203578063248a9ca3146102f65780632cd77a5a146103265780632f2ff15d14610348578063313ce56714610368578063322587941461038b57600080fd5b806301ffc9a71461024057806306fdde0314610275578063095ea7b31461029757806318160ddd146102b757806323b872dd146102d6575b600080fd5b34801561024c57600080fd5b5061026061025b36600461278b565b61078e565b60405190151581526020015b60405180910390f35b34801561028157600080fd5b5061028a6107c5565b60405161026c91906128f1565b3480156102a357600080fd5b506102606102b23660046126b0565b610857565b3480156102c357600080fd5b506067545b60405190815260200161026c565b3480156102e257600080fd5b506102606102f13660046125b2565b61086d565b34801561030257600080fd5b506102c861031136600461274f565b600090815260fb602052604090206001015490565b34801561033257600080fd5b506103466103413660046127b5565b61091e565b005b34801561035457600080fd5b50610346610363366004612768565b610a70565b34801561037457600080fd5b506101605460405160ff909116815260200161026c565b34801561039757600080fd5b506103466103a63660046126da565b610a88565b3480156103b757600080fd5b506103466103c6366004612768565b610afd565b3480156103d757600080fd5b506103466103e6366004612564565b610b11565b3480156103f757600080fd5b506102606104063660046126b0565b610bda565b34801561041757600080fd5b50610346610c16565b34801561042c57600080fd5b506102c8600080516020612bbc83398151915281565b34801561044e57600080fd5b506102c8600080516020612b7c83398151915281565b34801561047057600080fd5b5061034661047f366004612564565b610c37565b6103466104923660046125ee565b610c74565b3480156104a357600080fd5b506103466104b2366004612768565b610d2a565b3480156104c357600080fd5b50600080516020612c438339815191525460ff16610260565b3480156104e857600080fd5b506102c8600080516020612b5c83398151915281565b34801561050a57600080fd5b506103466105193660046126da565b610d9f565b34801561052a57600080fd5b506103466105393660046126da565b610e0e565b34801561054a57600080fd5b506102c8610559366004612564565b6001600160a01b031660009081526065602052604090205490565b34801561058057600080fd5b506102c8600080516020612c6383398151915281565b3480156105a257600080fd5b50610346610e68565b3480156105b757600080fd5b506102606105c6366004612768565b610e89565b3480156105d757600080fd5b5061028a610eb4565b3480156105ec57600080fd5b506102c8600081565b34801561060157600080fd5b506102606106103660046126b0565b610ec3565b34801561062157600080fd5b506102606106303660046126b0565b610f5c565b34801561064157600080fd5b506102c8600080516020612b3c83398151915281565b34801561066357600080fd5b5061066c610f69565b6040516001600160a01b03909116815260200161026c565b34801561069057600080fd5b5061034661069f3660046126da565b610f78565b3480156106b057600080fd5b506103466106bf3660046126da565b610fd2565b3480156106d057600080fd5b506103466106df366004612768565b61102c565b3480156106f057600080fd5b506102c8600080516020612c2383398151915281565b34801561071257600080fd5b506102c861072136600461257f565b6001600160a01b03918216600090815260666020908152604080832093909416825291909152205490565b34801561075857600080fd5b506102c8600080516020612b9c83398151915281565b34801561077a57600080fd5b506103466107893660046126da565b611057565b60006001600160e01b03198216637965db0b60e01b14806107bf57506301ffc9a760e01b6001600160e01b03198316145b92915050565b6060606880546107d490612aa3565b80601f016020809104026020016040519081016040528092919081815260200182805461080090612aa3565b801561084d5780601f106108225761010080835404028352916020019161084d565b820191906000526020600020905b81548152906001019060200180831161083057829003601f168201915b5050505050905090565b60006108643384846110b1565b50600192915050565b600061087a8484846111d5565b6001600160a01b0384166000908152606660209081526040808320338452909152902054828110156109045760405162461bcd60e51b815260206004820152602860248201527f45524332303a207472616e7366657220616d6f756e74206578636565647320616044820152676c6c6f77616e636560c01b60648201526084015b60405180910390fd5b61091185338584036110b1565b60019150505b9392505050565b600054610100900460ff166109395760005460ff161561093d565b303b155b6109a05760405162461bcd60e51b815260206004820152602e60248201527f496e697469616c697a61626c653a20636f6e747261637420697320616c72656160448201526d191e481a5b9a5d1a585b1a5e995960921b60648201526084016108fb565b600054610100900460ff161580156109c2576000805461ffff19166101011790555b610a3989898080601f01602080910402602001604051908101604052809392919081815260200183838082843760009201919091525050604080516020601f8d018190048102820181019092528b815292508b91508a90819084018382808284376000920191909152508a92508991506113ae9050565b610a416113f1565b610a49611440565b610a5383836114b3565b8015610a65576000805461ff00191690555b505050505050505050565b610a7a8282611542565b610a8482826115d1565b5050565b600080516020612bbc833981519152610aa181336115f7565b60005b82811015610af757610ae5600080516020612b5c833981519152858584818110610ad057610ad0612b0f565b90506020020160208101906106df9190612564565b80610aef81612ade565b915050610aa4565b50505050565b610b07828261165b565b610a8482826116c3565b306001600160a01b037f0000000000000000000000000000000000000000000000000000000000000000161415610b5a5760405162461bcd60e51b81526004016108fb90612924565b7f00000000000000000000000000000000000000000000000000000000000000006001600160a01b0316610b8c61173d565b6001600160a01b031614610bb25760405162461bcd60e51b81526004016108fb90612970565b610bbb8161176b565b60408051600080825260208201909252610bd7918391906117ed565b50565b3360008181526066602090815260408083206001600160a01b03871684529091528120549091610864918590610c11908690612a07565b6110b1565b600080516020612c23833981519152610c2f81336115f7565b610bd7611938565b600080516020612b9c833981519152610c5081336115f7565b5061012d80546001600160a01b0319166001600160a01b0392909216919091179055565b306001600160a01b037f0000000000000000000000000000000000000000000000000000000000000000161415610cbd5760405162461bcd60e51b81526004016108fb90612924565b7f00000000000000000000000000000000000000000000000000000000000000006001600160a01b0316610cef61173d565b6001600160a01b031614610d155760405162461bcd60e51b81526004016108fb90612970565b610d1e8261176b565b610a84828260016117ed565b6000610d3681336115f7565b6001600160a01b038216610d4957600080fd5b82600080516020612bdc83398151915255817fe38b16c806f019542b2d4bf356bb4ba2ea4b7eb450b8fbff2584f6084c4978f180546001600160a01b0319166001600160a01b0392909216919091179055505050565b600080516020612c23833981519152610db881336115f7565b60005b82811015610af757610dfc600080516020612b3c833981519152858584818110610de757610de7612b0f565b90506020020160208101906103639190612564565b80610e0681612ade565b915050610dbb565b600080516020612c23833981519152610e2781336115f7565b60005b82811015610af757610e56600080516020612c63833981519152858584818110610ad057610ad0612b0f565b80610e6081612ade565b915050610e2a565b600080516020612c23833981519152610e8181336115f7565b610bd76119e5565b600091825260fb602090815260408084206001600160a01b0393909316845291905290205460ff1690565b6060606980546107d490612aa3565b3360009081526066602090815260408083206001600160a01b038616845290915281205482811015610f455760405162461bcd60e51b815260206004820152602560248201527f45524332303a2064656372656173656420616c6c6f77616e63652062656c6f77604482015264207a65726f60d81b60648201526084016108fb565b610f5233858584036110b1565b5060019392505050565b60006108643384846111d5565b6000610f7361173d565b905090565b600080516020612c23833981519152610f9181336115f7565b60005b82811015610af757610fc0600080516020612b3c833981519152858584818110610ad057610ad0612b0f565b80610fca81612ade565b915050610f94565b600080516020612bbc833981519152610feb81336115f7565b60005b82811015610af75761101a600080516020612b5c833981519152858584818110610de757610de7612b0f565b8061102481612ade565b915050610fee565b600082815260fb602052604090206001015461104881336115f7565b6110528383611a79565b505050565b600080516020612c2383398151915261107081336115f7565b60005b82811015610af75761109f600080516020612c63833981519152858584818110610de757610de7612b0f565b806110a981612ade565b915050611073565b6001600160a01b0383166111135760405162461bcd60e51b8152602060048201526024808201527f45524332303a20617070726f76652066726f6d20746865207a65726f206164646044820152637265737360e01b60648201526084016108fb565b6001600160a01b0382166111745760405162461bcd60e51b815260206004820152602260248201527f45524332303a20617070726f766520746f20746865207a65726f206164647265604482015261737360f01b60648201526084016108fb565b6001600160a01b0383811660008181526066602090815260408083209487168084529482529182902085905590518481527f8c5be1e5ebec7d5bd14f71427d1e84f3dd0314c0f7b2291e5b200ac8c7c3b925910160405180910390a3505050565b6001600160a01b0383166112395760405162461bcd60e51b815260206004820152602560248201527f45524332303a207472616e736665722066726f6d20746865207a65726f206164604482015264647265737360d81b60648201526084016108fb565b6001600160a01b03821661129b5760405162461bcd60e51b815260206004820152602360248201527f45524332303a207472616e7366657220746f20746865207a65726f206164647260448201526265737360e81b60648201526084016108fb565b6112a6838383611ae0565b6001600160a01b0383166000908152606560205260409020548181101561131e5760405162461bcd60e51b815260206004820152602660248201527f45524332303a207472616e7366657220616d6f756e7420657863656564732062604482015265616c616e636560d01b60648201526084016108fb565b6001600160a01b03808516600090815260656020526040808220858503905591851681529081208054849290611355908490612a07565b92505081905550826001600160a01b0316846001600160a01b03167fddf252ad1be2c89b69c2b068fc378daa952ba7f163c4a11628f55a4df523b3ef846040516113a191815260200190565b60405180910390a3610af7565b600054610100900460ff166113d55760405162461bcd60e51b81526004016108fb906129bc565b6113dd611aeb565b6113e78484611b42565b610af78282611b90565b600054610100900460ff166114185760405162461bcd60e51b81526004016108fb906129bc565b61143e600080516020612b5c833981519152600080516020612bbc833981519152611bd1565b565b600054610100900460ff166114675760405162461bcd60e51b81526004016108fb906129bc565b61148d600080516020612c63833981519152600080516020612c23833981519152611bd1565b61143e600080516020612b3c833981519152600080516020612c23833981519152611bd1565b600054610100900460ff166114da5760405162461bcd60e51b81526004016108fb906129bc565b6001600160a01b0381166114ed57600080fd5b81600080516020612bdc83398151915255807fe38b16c806f019542b2d4bf356bb4ba2ea4b7eb450b8fbff2584f6084c4978f180546001600160a01b0319166001600160a01b03929092169190911790555050565b600080516020612bbc83398151915282148061155c575081155b15610a8457611579600080516020612b5c83398151915282610e89565b15610a845760405162461bcd60e51b815260206004820152602260248201527f63616e206e6f742061737369676e20726f6c6520746f20626c61636b6c697374604482015261195960f21b60648201526084016108fb565b600082815260fb60205260409020600101546115ed81336115f7565b6110528383611c1c565b6116018282610e89565b610a8457611619816001600160a01b03166014611ca2565b611624836020611ca2565b60405160200161163592919061287c565b60408051601f198184030181529082905262461bcd60e51b82526108fb916004016128f1565b600080516020612b5c833981519152821415610a845760405162461bcd60e51b815260206004820152602160248201527f43616e206e6f742072656e6f756e636520626c61636b6c697374656420726f6c6044820152606560f81b60648201526084016108fb565b6001600160a01b03811633146117335760405162461bcd60e51b815260206004820152602f60248201527f416363657373436f6e74726f6c3a2063616e206f6e6c792072656e6f756e636560448201526e103937b632b9903337b91039b2b63360891b60648201526084016108fb565b610a848282611a79565b7f360894a13ba1a3210667c828492db98dca3e2076cc3735a920a3ca505d382bbc546001600160a01b031690565b611783600080516020612b9c83398151915233610e89565b806117a157506117a1600080516020612b7c83398151915233610e89565b610bd75760405162461bcd60e51b815260206004820152601d60248201527f4552524f523a2041646472657373206e6f7420617574686f72697a656400000060448201526064016108fb565b60006117f761173d565b905061180284611e3e565b60008351118061180f5750815b156118205761181e8484611ee3565b505b7f4910fdfa16fed3260ed0e7147f7cc6da11a60208b5b9406d12a635614ffd9143805460ff1661193157805460ff191660011781556040516001600160a01b038316602482015261189f90869060440160408051601f198184030181529190526020810180516001600160e01b0316631b2ce7f360e11b179052611ee3565b50805460ff191681556118b061173d565b6001600160a01b0316826001600160a01b0316146119285760405162461bcd60e51b815260206004820152602f60248201527f45524331393637557067726164653a207570677261646520627265616b73206660448201526e75727468657220757067726164657360881b60648201526084016108fb565b61193185611fce565b5050505050565b600080516020612c438339815191525460ff1661198e5760405162461bcd60e51b815260206004820152601460248201527314185d5cd8589b194e881b9bdd081c185d5cd95960621b60448201526064016108fb565b600080516020612c43833981519152805460ff191690557f5db9ee0a495bf2e6ff9c91a7834c1ba4fdd244a5e8aa4e537bd38aeae4b073aa335b6040516001600160a01b03909116815260200160405180910390a1565b600080516020612c438339815191525460ff1615611a385760405162461bcd60e51b815260206004820152601060248201526f14185d5cd8589b194e881c185d5cd95960821b60448201526064016108fb565b600080516020612c43833981519152805460ff191660011790557f62e78cea01bee320cd4e420270b5ea74000d11b0c9f74754ebdbfc544b05a258336119c8565b611a838282610e89565b15610a8457600082815260fb602090815260408083206001600160a01b0385168085529252808320805460ff1916905551339285917ff6391f5c32d9c69d2a47ea670b442974b53935d1edc7fd64eb21e047a839171b9190a45050565b61105283838361200e565b600054610100900460ff16611b125760405162461bcd60e51b81526004016108fb906129bc565b611b1a61202f565b611b2261202f565b611b2a61202f565b611b3261202f565b611b3a61202f565b61143e612056565b600054610100900460ff16611b695760405162461bcd60e51b81526004016108fb906129bc565b8151611b7c906068906020850190612466565b508051611052906069906020840190612466565b600054610100900460ff16611bb75760405162461bcd60e51b81526004016108fb906129bc565b610160805460ff191660ff8416179055610a8433826120de565b600082815260fb6020526040808220600101805490849055905190918391839186917fbd79b86ffe0ab8e8776151514217cd7cacd52c909f66475c3af44e129f0b00ff9190a4505050565b611c268282610e89565b610a8457600082815260fb602090815260408083206001600160a01b03851684529091529020805460ff19166001179055611c5e3390565b6001600160a01b0316816001600160a01b0316837f2f8788117e7eff1d82e926ec794901d17c78024a50270940304540a733656f0d60405160405180910390a45050565b60606000611cb1836002612a41565b611cbc906002612a07565b67ffffffffffffffff811115611cd457611cd4612b25565b6040519080825280601f01601f191660200182016040528015611cfe576020820181803683370190505b509050600360fc1b81600081518110611d1957611d19612b0f565b60200101906001600160f81b031916908160001a905350600f60fb1b81600181518110611d4857611d48612b0f565b60200101906001600160f81b031916908160001a9053506000611d6c846002612a41565b611d77906001612a07565b90505b6001811115611def576f181899199a1a9b1b9c1cb0b131b232b360811b85600f1660108110611dab57611dab612b0f565b1a60f81b828281518110611dc157611dc1612b0f565b60200101906001600160f81b031916908160001a90535060049490941c93611de881612a8c565b9050611d7a565b5083156109175760405162461bcd60e51b815260206004820181905260248201527f537472696e67733a20686578206c656e67746820696e73756666696369656e7460448201526064016108fb565b803b611ea25760405162461bcd60e51b815260206004820152602d60248201527f455243313936373a206e657720696d706c656d656e746174696f6e206973206e60448201526c1bdd08184818dbdb9d1c9858dd609a1b60648201526084016108fb565b7f360894a13ba1a3210667c828492db98dca3e2076cc3735a920a3ca505d382bbc80546001600160a01b0319166001600160a01b0392909216919091179055565b6060823b611f425760405162461bcd60e51b815260206004820152602660248201527f416464726573733a2064656c65676174652063616c6c20746f206e6f6e2d636f6044820152651b9d1c9858dd60d21b60648201526084016108fb565b600080846001600160a01b031684604051611f5d9190612860565b600060405180830381855af49150503d8060008114611f98576040519150601f19603f3d011682016040523d82523d6000602084013e611f9d565b606091505b5091509150611fc58282604051806060016040528060278152602001612bfc602791396121c9565b95945050505050565b611fd781611e3e565b6040516001600160a01b038216907fbc7cd75a20ee27fd9adebab32041f755214dbc6bffa90cc0225b39da2e5c2d3b90600090a250565b612019838383612202565b61202483838361225a565b6110528383836122dd565b600054610100900460ff1661143e5760405162461bcd60e51b81526004016108fb906129bc565b600054610100900460ff1661207d5760405162461bcd60e51b81526004016108fb906129bc565b6120886000336123c6565b6120a0600080516020612b9c833981519152336123c6565b6120b8600080516020612b7c833981519152336123c6565b61143e600080516020612b7c833981519152600080516020612b9c833981519152611bd1565b6001600160a01b0382166121345760405162461bcd60e51b815260206004820152601f60248201527f45524332303a206d696e7420746f20746865207a65726f20616464726573730060448201526064016108fb565b61214060008383611ae0565b80606760008282546121529190612a07565b90915550506001600160a01b0382166000908152606560205260408120805483929061217f908490612a07565b90915550506040518181526001600160a01b038316906000907fddf252ad1be2c89b69c2b068fc378daa952ba7f163c4a11628f55a4df523b3ef9060200160405180910390a35050565b606083156121d8575081610917565b8251156121e85782518084602001fd5b8160405162461bcd60e51b81526004016108fb91906128f1565b61220d3384846123d0565b156110525760405162461bcd60e51b815260206004820152601a60248201527f4552524f523a204164647265737320426c61636b6c697374656400000000000060448201526064016108fb565b600080516020612c438339815191525460ff16158061227e575061227e833361242e565b6110525760405162461bcd60e51b815260206004820152602a60248201527f45524332305061757361626c653a20746f6b656e207472616e736665722077686044820152691a5b19481c185d5cd95960b21b60648201526084016108fb565b600080516020612bdc833981519152547fe38b16c806f019542b2d4bf356bb4ba2ea4b7eb450b8fbff2584f6084c4978f1546001600160a01b03168115806123365750836001600160a01b0316816001600160a01b0316145b806123525750846001600160a01b0316816001600160a01b0316145b8061236457506001600160a01b038516155b8061237657506001600160a01b038416155b15612382575050505050565b6000670de0b6b3a7640000600080516020612bdc833981519152546123a79086612a41565b6123b19190612a1f565b90506123be8683836111d5565b505050505050565b610a848282611c1c565b60006123ea600080516020612b5c83398151915284610e89565b806124085750612408600080516020612b5c83398151915285610e89565b806124265750612426600080516020612b5c83398151915283610e89565b949350505050565b6000612448600080516020612c6383398151915284610e89565b806109175750610917600080516020612b3c83398151915283610e89565b82805461247290612aa3565b90600052602060002090601f01602090048101928261249457600085556124da565b82601f106124ad57805160ff19168380011785556124da565b828001600101855582156124da579182015b828111156124da5782518255916020019190600101906124bf565b506124e69291506124ea565b5090565b5b808211156124e657600081556001016124eb565b80356001600160a01b038116811461251657600080fd5b919050565b60008083601f84011261252d57600080fd5b50813567ffffffffffffffff81111561254557600080fd5b60208301915083602082850101111561255d57600080fd5b9250929050565b60006020828403121561257657600080fd5b610917826124ff565b6000806040838503121561259257600080fd5b61259b836124ff565b91506125a9602084016124ff565b90509250929050565b6000806000606084860312156125c757600080fd5b6125d0846124ff565b92506125de602085016124ff565b9150604084013590509250925092565b6000806040838503121561260157600080fd5b61260a836124ff565b9150602083013567ffffffffffffffff8082111561262757600080fd5b818501915085601f83011261263b57600080fd5b81358181111561264d5761264d612b25565b604051601f8201601f19908116603f0116810190838211818310171561267557612675612b25565b8160405282815288602084870101111561268e57600080fd5b8260208601602083013760006020848301015280955050505050509250929050565b600080604083850312156126c357600080fd5b6126cc836124ff565b946020939093013593505050565b600080602083850312156126ed57600080fd5b823567ffffffffffffffff8082111561270557600080fd5b818501915085601f83011261271957600080fd5b81358181111561272857600080fd5b8660208260051b850101111561273d57600080fd5b60209290920196919550909350505050565b60006020828403121561276157600080fd5b5035919050565b6000806040838503121561277b57600080fd5b823591506125a9602084016124ff565b60006020828403121561279d57600080fd5b81356001600160e01b03198116811461091757600080fd5b60008060008060008060008060c0898b0312156127d157600080fd5b883567ffffffffffffffff808211156127e957600080fd5b6127f58c838d0161251b565b909a50985060208b013591508082111561280e57600080fd5b5061281b8b828c0161251b565b909750955050604089013560ff8116811461283557600080fd5b9350606089013592506080890135915061285160a08a016124ff565b90509295985092959890939650565b60008251612872818460208701612a60565b9190910192915050565b7f416363657373436f6e74726f6c3a206163636f756e74200000000000000000008152600083516128b4816017850160208801612a60565b7001034b99036b4b9b9b4b733903937b6329607d1b60179184019182015283516128e5816028840160208801612a60565b01602801949350505050565b6020815260008251806020840152612910816040850160208701612a60565b601f01601f19169190910160400192915050565b6020808252602c908201527f46756e6374696f6e206d7573742062652063616c6c6564207468726f7567682060408201526b19195b1959d85d1958d85b1b60a21b606082015260800190565b6020808252602c908201527f46756e6374696f6e206d7573742062652063616c6c6564207468726f7567682060408201526b6163746976652070726f787960a01b606082015260800190565b6020808252602b908201527f496e697469616c697a61626c653a20636f6e7472616374206973206e6f74206960408201526a6e697469616c697a696e6760a81b606082015260800190565b60008219821115612a1a57612a1a612af9565b500190565b600082612a3c57634e487b7160e01b600052601260045260246000fd5b500490565b6000816000190483118215151615612a5b57612a5b612af9565b500290565b60005b83811015612a7b578181015183820152602001612a63565b83811115610af75750506000910152565b600081612a9b57612a9b612af9565b506000190190565b600181811c90821680612ab757607f821691505b60208210811415612ad857634e487b7160e01b600052602260045260246000fd5b50919050565b6000600019821415612af257612af2612af9565b5060010190565b634e487b7160e01b600052601160045260246000fd5b634e487b7160e01b600052603260045260246000fd5b634e487b7160e01b600052604160045260246000fdfee1ac655ab58995133a870d1fd307ddc1d624c8ad919a09e67867a7a1483e439a548c7f0307ab2a7ea894e5c7e8c5353cc750bb9385ee2e945f189a9a83daa8eda76ace73a908083d89af9ff88e5b4f7cadb3591a80631063f68b695fda726db571840dc4906352362b0cdaf79870196c8e42acafade72d5d5a6d59291253ceb1f988e4fb62b8e14f4820fed03192306ddf4d7dbfa215595ba1c6ba4b76b369ee253122b26cc2118faf5fcfc7761bd75fcfb5508f1f48d1a40db694aba32af5d0416464726573733a206c6f772d6c6576656c2064656c65676174652063616c6c206661696c6564356a809dfdea9198dd76fb76bf6d403ecf13ea675eb89e1eda2db2c4a4676a26ad6a6591fa308fe948065665239402780db8ed4a8c4e4e16c4d066bcaa05efc2ce108bcc5e0f50fe603649304cbbbd94de794a404db82d884c0afc9ba9328e61a26469706673582212205eb17306da197e718093b118b13331e1c318e409638fa5b1302c5ab82692f41264736f6c63430008060033",
  "linkReferences": {},
  "deployedLinkReferences": {}
}