{
  "_format": "hh-sol-artifact-1",
  "name": "BlacklistMintSnapshotWhiteListTemplate",
  "initializer": "function initialize(string name_, string symbol_, uint8 decimals_, uint256 amount_)",
  "sourceName": "contracts/templates/BlacklistMintSnapshotWhiteListTemplate.sol",
  "abi": [
    {
      "anonymous": false,
      "inputs": [
        {
          "indexed": false,
          "internalType": "address",
          "name": "previousAdmin",
          "type": "address"
        },
        {
          "indexed": false,
          "internalType": "address",
          "name": "newAdmin",
          "type": "address"
        }
      ],
      "name": "AdminChanged",
      "type": "event"
    },
    {
      "anonymous": false,
      "inputs": [
        {
          "indexed": true,
          "internalType": "address",
          "name": "owner",
          "type": "address"
        },
        {
          "indexed": true,
          "internalType": "address",
          "name": "spender",
          "type": "address"
        },
        {
          "indexed": false,
          "internalType": "uint256",
          "name": "value",
          "type": "uint256"
        }
      ],
      "name": "Approval",
      "type": "event"
    },
    {
      "anonymous": false,
      "inputs": [
        {
          "indexed": true,
          "internalType": "address",
          "name": "beacon",
          "type": "address"
        }
      ],
      "name": "BeaconUpgraded",
      "type": "event"
    },
    {
      "anonymous": false,
      "inputs": [
        {
          "indexed": false,
          "internalType": "address",
          "name": "account",
          "type": "address"
        }
      ],
      "name": "Paused",
      "type": "event"
    },
    {
      "anonymous": false,
      "inputs": [
        {
          "indexed": true,
          "internalType": "bytes32",
          "name": "role",
          "type": "bytes32"
        },
        {
          "indexed": true,
          "internalType": "bytes32",
          "name": "previousAdminRole",
          "type": "bytes32"
        },
        {
          "indexed": true,
          "internalType": "bytes32",
          "name": "newAdminRole",
          "type": "bytes32"
        }
      ],
      "name": "RoleAdminChanged",
      "type": "event"
    },
    {
      "anonymous": false,
      "inputs": [
        {
          "indexed": true,
          "internalType": "bytes32",
          "name": "role",
          "type": "bytes32"
        },
        {
          "indexed": true,
          "internalType": "address",
          "name": "account",
          "type": "address"
        },
        {
          "indexed": true,
          "internalType": "address",
          "name": "sender",
          "type": "address"
        }
      ],
      "name": "RoleGranted",
      "type": "event"
    },
    {
      "anonymous": false,
      "inputs": [
        {
          "indexed": true,
          "internalType": "bytes32",
          "name": "role",
          "type": "bytes32"
        },
        {
          "indexed": true,
          "internalType": "address",
          "name": "account",
          "type": "address"
        },
        {
          "indexed": true,
          "internalType": "address",
          "name": "sender",
          "type": "address"
        }
      ],
      "name": "RoleRevoked",
      "type": "event"
    },
    {
      "anonymous": false,
      "inputs": [
        {
          "indexed": false,
          "internalType": "uint256",
          "name": "id",
          "type": "uint256"
        }
      ],
      "name": "Snapshot",
      "type": "event"
    },
    {
      "anonymous": false,
      "inputs": [
        {
          "indexed": true,
          "internalType": "address",
          "name": "from",
          "type": "address"
        },
        {
          "indexed": true,
          "internalType": "address",
          "name": "to",
          "type": "address"
        },
        {
          "indexed": false,
          "internalType": "uint256",
          "name": "value",
          "type": "uint256"
        }
      ],
      "name": "Transfer",
      "type": "event"
    },
    {
      "anonymous": false,
      "inputs": [
        {
          "indexed": false,
          "internalType": "address",
          "name": "account",
          "type": "address"
        }
      ],
      "name": "Unpaused",
      "type": "event"
    },
    {
      "anonymous": false,
      "inputs": [
        {
          "indexed": true,
          "internalType": "address",
          "name": "implementation",
          "type": "address"
        }
      ],
      "name": "Upgraded",
      "type": "event"
    },
    {
      "inputs": [],
      "name": "BLACKLISTED_ROLE",
      "outputs": [
        {
          "internalType": "bytes32",
          "name": "",
          "type": "bytes32"
        }
      ],
      "stateMutability": "view",
      "type": "function"
    },
    {
      "inputs": [],
      "name": "BLACKLIST_MANAGER_ROLE",
      "outputs": [
        {
          "internalType": "bytes32",
          "name": "",
          "type": "bytes32"
        }
      ],
      "stateMutability": "view",
      "type": "function"
    },
    {
      "inputs": [],
      "name": "DEFAULT_ADMIN_ROLE",
      "outputs": [
        {
          "internalType": "bytes32",
          "name": "",
          "type": "bytes32"
        }
      ],
      "stateMutability": "view",
      "type": "function"
    },
    {
      "inputs": [],
      "name": "GOVERNANCE_ROLE",
      "outputs": [
        {
          "internalType": "bytes32",
          "name": "",
          "type": "bytes32"
        }
      ],
      "stateMutability": "view",
      "type": "function"
    },
    {
      "inputs": [],
      "name": "MINTER_ROLE",
      "outputs": [
        {
          "internalType": "bytes32",
          "name": "",
          "type": "bytes32"
        }
      ],
      "stateMutability": "view",
      "type": "function"
    },
    {
      "inputs": [],
      "name": "PAUSE_MANAGER_ROLE",
      "outputs": [
        {
          "internalType": "bytes32",
          "name": "",
          "type": "bytes32"
        }
      ],
      "stateMutability": "view",
      "type": "function"
    },
    {
      "inputs": [],
      "name": "UPGRADE_MANAGER_ROLE",
      "outputs": [
        {
          "internalType": "bytes32",
          "name": "",
          "type": "bytes32"
        }
      ],
      "stateMutability": "view",
      "type": "function"
    },
    {
      "inputs": [],
      "name": "WHITELISTED_FROM_ROLE",
      "outputs": [
        {
          "internalType": "bytes32",
          "name": "",
          "type": "bytes32"
        }
      ],
      "stateMutability": "view",
      "type": "function"
    },
    {
      "inputs": [],
      "name": "WHITELISTED_SENDER_ROLE",
      "outputs": [
        {
          "internalType": "bytes32",
          "name": "",
          "type": "bytes32"
        }
      ],
      "stateMutability": "view",
      "type": "function"
    },
    {
      "inputs": [
        {
          "internalType": "address[]",
          "name": "addresses",
          "type": "address[]"
        }
      ],
      "name": "addAddressesToBlacklist",
      "outputs": [],
      "stateMutability": "nonpayable",
      "type": "function"
    },
    {
      "inputs": [
        {
          "internalType": "address[]",
          "name": "addresses",
          "type": "address[]"
        }
      ],
      "name": "addAddressesToWhitelistFrom",
      "outputs": [],
      "stateMutability": "nonpayable",
      "type": "function"
    },
    {
      "inputs": [
        {
          "internalType": "address[]",
          "name": "addresses",
          "type": "address[]"
        }
      ],
      "name": "addAddressesToWhitelistSender",
      "outputs": [],
      "stateMutability": "nonpayable",
      "type": "function"
    },
    {
      "inputs": [
        {
          "internalType": "address",
          "name": "owner",
          "type": "address"
        },
        {
          "internalType": "address",
          "name": "spender",
          "type": "address"
        }
      ],
      "name": "allowance",
      "outputs": [
        {
          "internalType": "uint256",
          "name": "",
          "type": "uint256"
        }
      ],
      "stateMutability": "view",
      "type": "function"
    },
    {
      "inputs": [
        {
          "internalType": "address",
          "name": "spender",
          "type": "address"
        },
        {
          "internalType": "uint256",
          "name": "amount",
          "type": "uint256"
        }
      ],
      "name": "approve",
      "outputs": [
        {
          "internalType": "bool",
          "name": "",
          "type": "bool"
        }
      ],
      "stateMutability": "nonpayable",
      "type": "function"
    },
    {
      "inputs": [
        {
          "internalType": "address",
          "name": "account",
          "type": "address"
        }
      ],
      "name": "balanceOf",
      "outputs": [
        {
          "internalType": "uint256",
          "name": "",
          "type": "uint256"
        }
      ],
      "stateMutability": "view",
      "type": "function"
    },
    {
      "inputs": [
        {
          "internalType": "address",
          "name": "account",
          "type": "address"
        },
        {
          "internalType": "uint256",
          "name": "snapshotId",
          "type": "uint256"
        }
      ],
      "name": "balanceOfAt",
      "outputs": [
        {
          "internalType": "uint256",
          "name": "",
          "type": "uint256"
        }
      ],
      "stateMutability": "view",
      "type": "function"
    },
    {
      "inputs": [
        {
          "internalType": "address[]",
          "name": "accounts",
          "type": "address[]"
        },
        {
          "internalType": "uint256[]",
          "name": "amounts",
          "type": "uint256[]"
        }
      ],
      "name": "bulkMint",
      "outputs": [],
      "stateMutability": "nonpayable",
      "type": "function"
    },
    {
      "inputs": [],
      "name": "decimals",
      "outputs": [
        {
          "internalType": "uint8",
          "name": "",
          "type": "uint8"
        }
      ],
      "stateMutability": "view",
      "type": "function"
    },
    {
      "inputs": [
        {
          "internalType": "address",
          "name": "spender",
          "type": "address"
        },
        {
          "internalType": "uint256",
          "name": "subtractedValue",
          "type": "uint256"
        }
      ],
      "name": "decreaseAllowance",
      "outputs": [
        {
          "internalType": "bool",
          "name": "",
          "type": "bool"
        }
      ],
      "stateMutability": "nonpayable",
      "type": "function"
    },
    {
      "inputs": [],
      "name": "getCurrentSnapshotId",
      "outputs": [
        {
          "internalType": "uint256",
          "name": "",
          "type": "uint256"
        }
      ],
      "stateMutability": "view",
      "type": "function"
    },
    {
      "inputs": [],
      "name": "getImplementation",
      "outputs": [
        {
          "internalType": "address",
          "name": "",
          "type": "address"
        }
      ],
      "stateMutability": "view",
      "type": "function"
    },
    {
      "inputs": [
        {
          "internalType": "bytes32",
          "name": "role",
          "type": "bytes32"
        }
      ],
      "name": "getRoleAdmin",
      "outputs": [
        {
          "internalType": "bytes32",
          "name": "",
          "type": "bytes32"
        }
      ],
      "stateMutability": "view",
      "type": "function"
    },
    {
      "inputs": [
        {
          "internalType": "bytes32",
          "name": "role",
          "type": "bytes32"
        },
        {
          "internalType": "address",
          "name": "account",
          "type": "address"
        }
      ],
      "name": "grantRole",
      "outputs": [],
      "stateMutability": "nonpayable",
      "type": "function"
    },
    {
      "inputs": [
        {
          "internalType": "bytes32",
          "name": "role",
          "type": "bytes32"
        },
        {
          "internalType": "address",
          "name": "account",
          "type": "address"
        }
      ],
      "name": "hasRole",
      "outputs": [
        {
          "internalType": "bool",
          "name": "",
          "type": "bool"
        }
      ],
      "stateMutability": "view",
      "type": "function"
    },
    {
      "inputs": [
        {
          "internalType": "address",
          "name": "spender",
          "type": "address"
        },
        {
          "internalType": "uint256",
          "name": "addedValue",
          "type": "uint256"
        }
      ],
      "name": "increaseAllowance",
      "outputs": [
        {
          "internalType": "bool",
          "name": "",
          "type": "bool"
        }
      ],
      "stateMutability": "nonpayable",
      "type": "function"
    },
    {
      "inputs": [
        {
          "internalType": "string",
          "name": "name_",
          "type": "string"
        },
        {
          "internalType": "string",
          "name": "symbol_",
          "type": "string"
        },
        {
          "internalType": "uint8",
          "name": "decimals_",
          "type": "uint8"
        },
        {
          "internalType": "uint256",
          "name": "amount_",
          "type": "uint256"
        }
      ],
      "name": "initialize",
      "outputs": [],
      "stateMutability": "nonpayable",
      "type": "function"
    },
    {
      "inputs": [
        {
          "internalType": "address",
          "name": "account",
          "type": "address"
        },
        {
          "internalType": "uint256",
          "name": "amount",
          "type": "uint256"
        }
      ],
      "name": "mint",
      "outputs": [],
      "stateMutability": "nonpayable",
      "type": "function"
    },
    {
      "inputs": [],
      "name": "name",
      "outputs": [
        {
          "internalType": "string",
          "name": "",
          "type": "string"
        }
      ],
      "stateMutability": "view",
      "type": "function"
    },
    {
      "inputs": [],
      "name": "pause",
      "outputs": [],
      "stateMutability": "nonpayable",
      "type": "function"
    },
    {
      "inputs": [],
      "name": "paused",
      "outputs": [
        {
          "internalType": "bool",
          "name": "",
          "type": "bool"
        }
      ],
      "stateMutability": "view",
      "type": "function"
    },
    {
      "inputs": [
        {
          "internalType": "address",
          "name": "implementationAddress",
          "type": "address"
        }
      ],
      "name": "proposeNewImplementation",
      "outputs": [],
      "stateMutability": "nonpayable",
      "type": "function"
    },
    {
      "inputs": [
        {
          "internalType": "address[]",
          "name": "addresses",
          "type": "address[]"
        }
      ],
      "name": "removeAddressesFromBlacklist",
      "outputs": [],
      "stateMutability": "nonpayable",
      "type": "function"
    },
    {
      "inputs": [
        {
          "internalType": "address[]",
          "name": "addresses",
          "type": "address[]"
        }
      ],
      "name": "removeAddressesFromWhitelistFrom",
      "outputs": [],
      "stateMutability": "nonpayable",
      "type": "function"
    },
    {
      "inputs": [
        {
          "internalType": "address[]",
          "name": "addresses",
          "type": "address[]"
        }
      ],
      "name": "removeAddressesFromWhitelistSender",
      "outputs": [],
      "stateMutability": "nonpayable",
      "type": "function"
    },
    {
      "inputs": [
        {
          "internalType": "bytes32",
          "name": "role",
          "type": "bytes32"
        },
        {
          "internalType": "address",
          "name": "account",
          "type": "address"
        }
      ],
      "name": "renounceRole",
      "outputs": [],
      "stateMutability": "nonpayable",
      "type": "function"
    },
    {
      "inputs": [
        {
          "internalType": "bytes32",
          "name": "role",
          "type": "bytes32"
        },
        {
          "internalType": "address",
          "name": "account",
          "type": "address"
        }
      ],
      "name": "revokeRole",
      "outputs": [],
      "stateMutability": "nonpayable",
      "type": "function"
    },
    {
      "inputs": [],
      "name": "snapshot",
      "outputs": [],
      "stateMutability": "nonpayable",
      "type": "function"
    },
    {
      "inputs": [
        {
          "internalType": "bytes4",
          "name": "interfaceId",
          "type": "bytes4"
        }
      ],
      "name": "supportsInterface",
      "outputs": [
        {
          "internalType": "bool",
          "name": "",
          "type": "bool"
        }
      ],
      "stateMutability": "view",
      "type": "function"
    },
    {
      "inputs": [],
      "name": "symbol",
      "outputs": [
        {
          "internalType": "string",
          "name": "",
          "type": "string"
        }
      ],
      "stateMutability": "view",
      "type": "function"
    },
    {
      "inputs": [],
      "name": "totalSupply",
      "outputs": [
        {
          "internalType": "uint256",
          "name": "",
          "type": "uint256"
        }
      ],
      "stateMutability": "view",
      "type": "function"
    },
    {
      "inputs": [
        {
          "internalType": "uint256",
          "name": "snapshotId",
          "type": "uint256"
        }
      ],
      "name": "totalSupplyAt",
      "outputs": [
        {
          "internalType": "uint256",
          "name": "",
          "type": "uint256"
        }
      ],
      "stateMutability": "view",
      "type": "function"
    },
    {
      "inputs": [
        {
          "internalType": "address",
          "name": "recipient",
          "type": "address"
        },
        {
          "internalType": "uint256",
          "name": "amount",
          "type": "uint256"
        }
      ],
      "name": "transfer",
      "outputs": [
        {
          "internalType": "bool",
          "name": "",
          "type": "bool"
        }
      ],
      "stateMutability": "nonpayable",
      "type": "function"
    },
    {
      "inputs": [
        {
          "internalType": "address",
          "name": "sender",
          "type": "address"
        },
        {
          "internalType": "address",
          "name": "recipient",
          "type": "address"
        },
        {
          "internalType": "uint256",
          "name": "amount",
          "type": "uint256"
        }
      ],
      "name": "transferFrom",
      "outputs": [
        {
          "internalType": "bool",
          "name": "",
          "type": "bool"
        }
      ],
      "stateMutability": "nonpayable",
      "type": "function"
    },
    {
      "inputs": [],
      "name": "unpause",
      "outputs": [],
      "stateMutability": "nonpayable",
      "type": "function"
    },
    {
      "inputs": [
        {
          "internalType": "address",
          "name": "newImplementation",
          "type": "address"
        }
      ],
      "name": "upgradeTo",
      "outputs": [],
      "stateMutability": "nonpayable",
      "type": "function"
    },
    {
      "inputs": [
        {
          "internalType": "address",
          "name": "newImplementation",
          "type": "address"
        },
        {
          "internalType": "bytes",
          "name": "data",
          "type": "bytes"
        }
      ],
      "name": "upgradeToAndCall",
      "outputs": [],
      "stateMutability": "payable",
      "type": "function"
    }
  ],
  "bytecode": "0x60a06040523060601b60805234801561001757600080fd5b5060805160601c6131c561004b60003960008181610ba301528181610be301528181610de50152610e2501526131c56000f3fe60806040526004361061027d5760003560e01c8063685ed81a1161014f578063a457c2d7116100c1578063d53913931161007a578063d539139314610790578063d547741f146107c4578063d84f91e8146107e4578063dd62ed3e14610806578063f36c8f5c1461084c578063f834c5021461086e57600080fd5b8063a457c2d7146106c1578063a9059cbb146106e1578063aa74a34a14610701578063aaf10f4214610723578063c233f3b714610750578063ca73419e1461077057600080fd5b80638456cb59116101135780638456cb591461062d57806391d148541461064257806395d89b41146106625780639711715a14610677578063981b24d01461068c578063a217fddf146106ac57600080fd5b8063685ed81a146105755780636ae459bd146105955780636e79a1c0146105b557806370a08231146105d5578063731ce8fc1461060b57600080fd5b80633659cfe6116101f357806347757fb6116101ac57806347757fb6146104c65780634ee2cd7e146104e65780634f1ef286146105065780635439ad86146105195780635c975abb1461052e57806362b199c51461055357600080fd5b80633659cfe61461040d578063395093511461042d5780633f4ba83a1461044d57806340c10f1914610462578063410b24241461048257806343ffa64e146104a457600080fd5b8063248a9ca311610245578063248a9ca314610338578063253279ad146103685780632f2ff15d1461038a578063313ce567146103aa57806332258794146103cd57806336568abe146103ed57600080fd5b806301ffc9a71461028257806306fdde03146102b7578063095ea7b3146102d957806318160ddd146102f957806323b872dd14610318575b600080fd5b34801561028e57600080fd5b506102a261029d366004612cae565b61088e565b60405190151581526020015b60405180910390f35b3480156102c357600080fd5b506102cc6108c5565b6040516102ae9190612ded565b3480156102e557600080fd5b506102a26102f4366004612b9a565b610957565b34801561030557600080fd5b506067545b6040519081526020016102ae565b34801561032457600080fd5b506102a2610333366004612afc565b61096d565b34801561034457600080fd5b5061030a610353366004612c72565b600090815260fb602052604090206001015490565b34801561037457600080fd5b50610388610383366004612cd8565b610a1e565b005b34801561039657600080fd5b506103886103a5366004612c8b565b610af7565b3480156103b657600080fd5b506101605460405160ff90911681526020016102ae565b3480156103d957600080fd5b506103886103e8366004612bc4565b610b0f565b3480156103f957600080fd5b50610388610408366004612c8b565b610b84565b34801561041957600080fd5b50610388610428366004612aae565b610b98565b34801561043957600080fd5b506102a2610448366004612b9a565b610c61565b34801561045957600080fd5b50610388610c9d565b34801561046e57600080fd5b5061038861047d366004612b9a565b610cbe565b34801561048e57600080fd5b5061030a6000805160206130c983398151915281565b3480156104b057600080fd5b5061030a60008051602061308983398151915281565b3480156104d257600080fd5b506103886104e1366004612aae565b610cf8565b3480156104f257600080fd5b5061030a610501366004612b9a565b610d35565b610388610514366004612b38565b610dda565b34801561052557600080fd5b5061030a610e90565b34801561053a57600080fd5b506000805160206131508339815191525460ff166102a2565b34801561055f57600080fd5b5061030a60008051602061306983398151915281565b34801561058157600080fd5b50610388610590366004612bc4565b610ead565b3480156105a157600080fd5b506103886105b0366004612c06565b610f1c565b3480156105c157600080fd5b506103886105d0366004612bc4565b610ffb565b3480156105e157600080fd5b5061030a6105f0366004612aae565b6001600160a01b031660009081526065602052604090205490565b34801561061757600080fd5b5061030a60008051602061317083398151915281565b34801561063957600080fd5b50610388611055565b34801561064e57600080fd5b506102a261065d366004612c8b565b611076565b34801561066e57600080fd5b506102cc6110a1565b34801561068357600080fd5b506103886110b0565b34801561069857600080fd5b5061030a6106a7366004612c72565b6110b8565b3480156106b857600080fd5b5061030a600081565b3480156106cd57600080fd5b506102a26106dc366004612b9a565b611123565b3480156106ed57600080fd5b506102a26106fc366004612b9a565b6111bc565b34801561070d57600080fd5b5061030a60008051602061304983398151915281565b34801561072f57600080fd5b506107386111c9565b6040516001600160a01b0390911681526020016102ae565b34801561075c57600080fd5b5061038861076b366004612bc4565b6111d3565b34801561077c57600080fd5b5061038861078b366004612bc4565b61122d565b34801561079c57600080fd5b5061030a7ff9424f4303d7f03683a025eb8885734ad99b47df7749d9b0a02cbc985809700b81565b3480156107d057600080fd5b506103886107df366004612c8b565b611287565b3480156107f057600080fd5b5061030a60008051602061311083398151915281565b34801561081257600080fd5b5061030a610821366004612ac9565b6001600160a01b03918216600090815260666020908152604080832093909416825291909152205490565b34801561085857600080fd5b5061030a6000805160206130a983398151915281565b34801561087a57600080fd5b50610388610889366004612bc4565b6112ad565b60006001600160e01b03198216637965db0b60e01b14806108bf57506301ffc9a760e01b6001600160e01b03198316145b92915050565b6060606880546108d490612fb6565b80601f016020809104026020016040519081016040528092919081815260200182805461090090612fb6565b801561094d5780601f106109225761010080835404028352916020019161094d565b820191906000526020600020905b81548152906001019060200180831161093057829003601f168201915b5050505050905090565b6000610964338484611307565b50600192915050565b600061097a84848461142b565b6001600160a01b038416600090815260666020908152604080832033845290915290205482811015610a045760405162461bcd60e51b815260206004820152602860248201527f45524332303a207472616e7366657220616d6f756e74206578636565647320616044820152676c6c6f77616e636560c01b60648201526084015b60405180910390fd5b610a118533858403611307565b60019150505b9392505050565b600054610100900460ff16610a395760005460ff1615610a3d565b303b155b610aa05760405162461bcd60e51b815260206004820152602e60248201527f496e697469616c697a61626c653a20636f6e747261637420697320616c72656160448201526d191e481a5b9a5d1a585b1a5e995960921b60648201526084016109fb565b600054610100900460ff16158015610ac2576000805461ffff19166101011790555b610ace85858585611604565b610ad6611647565b610ade611670565b8015610af0576000805461ff00191690555b5050505050565b610b0182826116bd565b610b0b828261174c565b5050565b6000805160206130c9833981519152610b288133611772565b60005b82811015610b7e57610b6c600080516020613069833981519152858584818110610b5757610b5761301c565b90506020020160208101906107df9190612aae565b80610b7681612feb565b915050610b2b565b50505050565b610b8e82826117d6565b610b0b828261183e565b306001600160a01b037f0000000000000000000000000000000000000000000000000000000000000000161415610be15760405162461bcd60e51b81526004016109fb90612e20565b7f00000000000000000000000000000000000000000000000000000000000000006001600160a01b0316610c136118b8565b6001600160a01b031614610c395760405162461bcd60e51b81526004016109fb90612e6c565b610c42816118e6565b60408051600080825260208201909252610c5e91839190611968565b50565b3360008181526066602090815260408083206001600160a01b03871684529091528120549091610964918590610c98908690612f03565b611307565b600080516020613110833981519152610cb68133611772565b610c5e611aac565b7ff9424f4303d7f03683a025eb8885734ad99b47df7749d9b0a02cbc985809700b610ce98133611772565b610cf38383611b59565b505050565b6000805160206130a9833981519152610d118133611772565b5061012d80546001600160a01b0319166001600160a01b0392909216919091179055565b604080516001600160a01b0384166020808301919091527ffbf1c7065455eb4486649b8540f24ef2dd4ebedf2aa423f0039d17c2c75dea15828401528251808303840181526060909201909252805191012060009081610d96826001612f03565b9050600080610da6868585611c44565b9150915081610dcd576001600160a01b038716600090815260656020526040902054610dcf565b805b979650505050505050565b306001600160a01b037f0000000000000000000000000000000000000000000000000000000000000000161415610e235760405162461bcd60e51b81526004016109fb90612e20565b7f00000000000000000000000000000000000000000000000000000000000000006001600160a01b0316610e556118b8565b6001600160a01b031614610e7b5760405162461bcd60e51b81526004016109fb90612e6c565b610e84826118e6565b610b0b82826001611968565b6000610ea86000805160206131308339815191525490565b905090565b600080516020613110833981519152610ec68133611772565b60005b82811015610b7e57610f0a600080516020613049833981519152858584818110610ef557610ef561301c565b90506020020160208101906103a59190612aae565b80610f1481612feb565b915050610ec9565b7ff9424f4303d7f03683a025eb8885734ad99b47df7749d9b0a02cbc985809700b610f478133611772565b838214610f8e5760405162461bcd60e51b8152602060048201526015602482015274082e4e4c2f240d8cadccee8d040dad2e6dac2e8c6d605b1b60448201526064016109fb565b60005b84811015610ff357610fe1868683818110610fae57610fae61301c565b9050602002016020810190610fc39190612aae565b858584818110610fd557610fd561301c565b90506020020135611b59565b80610feb81612feb565b915050610f91565b505050505050565b6000805160206131108339815191526110148133611772565b60005b82811015610b7e57611043600080516020613170833981519152858584818110610b5757610b5761301c565b8061104d81612feb565b915050611017565b60008051602061311083398151915261106e8133611772565b610c5e611d2f565b600091825260fb602090815260408084206001600160a01b0393909316845291905290205460ff1690565b6060606980546108d490612fb6565b610c5e611dc3565b6000806000611108847f286a9db37a0f8ddcbcee127c9f4f56031230f49cb46786f87e166d552e11f67e7ffcaa8bb100d3c5b627eac0369cc1d2778dbeffa2993d08f039fb27795729e9a5611c44565b91509150816111195760675461111b565b805b949350505050565b3360009081526066602090815260408083206001600160a01b0386168452909152812054828110156111a55760405162461bcd60e51b815260206004820152602560248201527f45524332303a2064656372656173656420616c6c6f77616e63652062656c6f77604482015264207a65726f60d81b60648201526084016109fb565b6111b23385858403611307565b5060019392505050565b600061096433848461142b565b6000610ea86118b8565b6000805160206131108339815191526111ec8133611772565b60005b82811015610b7e5761121b600080516020613049833981519152858584818110610b5757610b5761301c565b8061122581612feb565b9150506111ef565b6000805160206130c98339815191526112468133611772565b60005b82811015610b7e57611275600080516020613069833981519152858584818110610ef557610ef561301c565b8061127f81612feb565b915050611249565b600082815260fb60205260409020600101546112a38133611772565b610cf38383611e33565b6000805160206131108339815191526112c68133611772565b60005b82811015610b7e576112f5600080516020613170833981519152858584818110610ef557610ef561301c565b806112ff81612feb565b9150506112c9565b6001600160a01b0383166113695760405162461bcd60e51b8152602060048201526024808201527f45524332303a20617070726f76652066726f6d20746865207a65726f206164646044820152637265737360e01b60648201526084016109fb565b6001600160a01b0382166113ca5760405162461bcd60e51b815260206004820152602260248201527f45524332303a20617070726f766520746f20746865207a65726f206164647265604482015261737360f01b60648201526084016109fb565b6001600160a01b0383811660008181526066602090815260408083209487168084529482529182902085905590518481527f8c5be1e5ebec7d5bd14f71427d1e84f3dd0314c0f7b2291e5b200ac8c7c3b925910160405180910390a3505050565b6001600160a01b03831661148f5760405162461bcd60e51b815260206004820152602560248201527f45524332303a207472616e736665722066726f6d20746865207a65726f206164604482015264647265737360d81b60648201526084016109fb565b6001600160a01b0382166114f15760405162461bcd60e51b815260206004820152602360248201527f45524332303a207472616e7366657220746f20746865207a65726f206164647260448201526265737360e81b60648201526084016109fb565b6114fc838383611e9a565b6001600160a01b038316600090815260656020526040902054818110156115745760405162461bcd60e51b815260206004820152602660248201527f45524332303a207472616e7366657220616d6f756e7420657863656564732062604482015265616c616e636560d01b60648201526084016109fb565b6001600160a01b038085166000908152606560205260408082208585039055918516815290812080548492906115ab908490612f03565b92505081905550826001600160a01b0316846001600160a01b03167fddf252ad1be2c89b69c2b068fc378daa952ba7f163c4a11628f55a4df523b3ef846040516115f791815260200190565b60405180910390a3610b7e565b600054610100900460ff1661162b5760405162461bcd60e51b81526004016109fb90612eb8565b611633611eb0565b61163d8484611f07565b610b7e8282611f55565b600054610100900460ff1661166e5760405162461bcd60e51b81526004016109fb90612eb8565b565b600054610100900460ff166116975760405162461bcd60e51b81526004016109fb90612eb8565b61166e6000805160206130698339815191526000805160206130c9833981519152611f96565b6000805160206130c98339815191528214806116d7575081155b15610b0b576116f460008051602061306983398151915282611076565b15610b0b5760405162461bcd60e51b815260206004820152602260248201527f63616e206e6f742061737369676e20726f6c6520746f20626c61636b6c697374604482015261195960f21b60648201526084016109fb565b600082815260fb60205260409020600101546117688133611772565b610cf38383611fe1565b61177c8282611076565b610b0b57611794816001600160a01b03166014612067565b61179f836020612067565b6040516020016117b0929190612d78565b60408051601f198184030181529082905262461bcd60e51b82526109fb91600401612ded565b600080516020613069833981519152821415610b0b5760405162461bcd60e51b815260206004820152602160248201527f43616e206e6f742072656e6f756e636520626c61636b6c697374656420726f6c6044820152606560f81b60648201526084016109fb565b6001600160a01b03811633146118ae5760405162461bcd60e51b815260206004820152602f60248201527f416363657373436f6e74726f6c3a2063616e206f6e6c792072656e6f756e636560448201526e103937b632b9903337b91039b2b63360891b60648201526084016109fb565b610b0b8282611e33565b7f360894a13ba1a3210667c828492db98dca3e2076cc3735a920a3ca505d382bbc546001600160a01b031690565b6118fe6000805160206130a983398151915233611076565b8061191c575061191c60008051602061308983398151915233611076565b610c5e5760405162461bcd60e51b815260206004820152601d60248201527f4552524f523a2041646472657373206e6f7420617574686f72697a656400000060448201526064016109fb565b60006119726118b8565b905061197d84612203565b60008351118061198a5750815b1561199b5761199984846122a8565b505b7f4910fdfa16fed3260ed0e7147f7cc6da11a60208b5b9406d12a635614ffd9143805460ff16610af057805460ff191660011781556040516001600160a01b0383166024820152611a1a90869060440160408051601f198184030181529190526020810180516001600160e01b0316631b2ce7f360e11b1790526122a8565b50805460ff19168155611a2b6118b8565b6001600160a01b0316826001600160a01b031614611aa35760405162461bcd60e51b815260206004820152602f60248201527f45524331393637557067726164653a207570677261646520627265616b73206660448201526e75727468657220757067726164657360881b60648201526084016109fb565b610af085612393565b6000805160206131508339815191525460ff16611b025760405162461bcd60e51b815260206004820152601460248201527314185d5cd8589b194e881b9bdd081c185d5cd95960621b60448201526064016109fb565b600080516020613150833981519152805460ff191690557f5db9ee0a495bf2e6ff9c91a7834c1ba4fdd244a5e8aa4e537bd38aeae4b073aa335b6040516001600160a01b03909116815260200160405180910390a1565b6001600160a01b038216611baf5760405162461bcd60e51b815260206004820152601f60248201527f45524332303a206d696e7420746f20746865207a65726f20616464726573730060448201526064016109fb565b611bbb60008383611e9a565b8060676000828254611bcd9190612f03565b90915550506001600160a01b03821660009081526065602052604081208054839290611bfa908490612f03565b90915550506040518181526001600160a01b038316906000907fddf252ad1be2c89b69c2b068fc378daa952ba7f163c4a11628f55a4df523b3ef9060200160405180910390a35050565b60008060008511611c905760405162461bcd60e51b815260206004820152601660248201527504552433230536e617073686f743a20696420697320360541b60448201526064016109fb565b60008051602061313083398151915254851115611cef5760405162461bcd60e51b815260206004820152601d60248201527f4552433230536e617073686f743a206e6f6e6578697374656e7420696400000060448201526064016109fb565b6000611cfb85876123d3565b90508454811415611d13576000809250925050611d27565b6001611d1f8583612472565b549093509150505b935093915050565b6000805160206131508339815191525460ff1615611d825760405162461bcd60e51b815260206004820152601060248201526f14185d5cd8589b194e881c185d5cd95960821b60448201526064016109fb565b600080516020613150833981519152805460ff191660011790557f62e78cea01bee320cd4e420270b5ea74000d11b0c9f74754ebdbfc544b05a25833611b3c565b600060016000805160206131308339815191528054600090611de6908490612f03565b9091555050600080516020613130833981519152546040518181527f8030e83b04d87bef53480e26263266d6ca66863aa8506aca6f2559d18aa1cb679060200160405180910390a1919050565b611e3d8282611076565b15610b0b57600082815260fb602090815260408083206001600160a01b0385168085529252808320805460ff1916905551339285917ff6391f5c32d9c69d2a47ea670b442974b53935d1edc7fd64eb21e047a839171b9190a45050565b611ea58383836124f1565b610cf3838383612512565b600054610100900460ff16611ed75760405162461bcd60e51b81526004016109fb90612eb8565b611edf611647565b611ee7611647565b611eef611647565b611ef7611647565b611eff611647565b61166e61255a565b600054610100900460ff16611f2e5760405162461bcd60e51b81526004016109fb90612eb8565b8151611f41906068906020850190612917565b508051610cf3906069906020840190612917565b600054610100900460ff16611f7c5760405162461bcd60e51b81526004016109fb90612eb8565b610160805460ff191660ff8416179055610b0b3382611b59565b600082815260fb6020526040808220600101805490849055905190918391839186917fbd79b86ffe0ab8e8776151514217cd7cacd52c909f66475c3af44e129f0b00ff9190a4505050565b611feb8282611076565b610b0b57600082815260fb602090815260408083206001600160a01b03851684529091529020805460ff191660011790556120233390565b6001600160a01b0316816001600160a01b0316837f2f8788117e7eff1d82e926ec794901d17c78024a50270940304540a733656f0d60405160405180910390a45050565b60606000612076836002612f3d565b612081906002612f03565b67ffffffffffffffff81111561209957612099613032565b6040519080825280601f01601f1916602001820160405280156120c3576020820181803683370190505b509050600360fc1b816000815181106120de576120de61301c565b60200101906001600160f81b031916908160001a905350600f60fb1b8160018151811061210d5761210d61301c565b60200101906001600160f81b031916908160001a9053506000612131846002612f3d565b61213c906001612f03565b90505b60018111156121b4576f181899199a1a9b1b9c1cb0b131b232b360811b85600f16601081106121705761217061301c565b1a60f81b8282815181106121865761218661301c565b60200101906001600160f81b031916908160001a90535060049490941c936121ad81612f9f565b905061213f565b508315610a175760405162461bcd60e51b815260206004820181905260248201527f537472696e67733a20686578206c656e67746820696e73756666696369656e7460448201526064016109fb565b803b6122675760405162461bcd60e51b815260206004820152602d60248201527f455243313936373a206e657720696d706c656d656e746174696f6e206973206e60448201526c1bdd08184818dbdb9d1c9858dd609a1b60648201526084016109fb565b7f360894a13ba1a3210667c828492db98dca3e2076cc3735a920a3ca505d382bbc80546001600160a01b0319166001600160a01b0392909216919091179055565b6060823b6123075760405162461bcd60e51b815260206004820152602660248201527f416464726573733a2064656c65676174652063616c6c20746f206e6f6e2d636f6044820152651b9d1c9858dd60d21b60648201526084016109fb565b600080846001600160a01b0316846040516123229190612d5c565b600060405180830381855af49150503d806000811461235d576040519150601f19603f3d011682016040523d82523d6000602084013e612362565b606091505b509150915061238a82826040518060600160405280602781526020016130e9602791396125e2565b95945050505050565b61239c81612203565b6040516001600160a01b038216907fbc7cd75a20ee27fd9adebab32041f755214dbc6bffa90cc0225b39da2e5c2d3b90600090a250565b81546000908190806123ea576000925050506108bf565b8082101561242e5760006123fe838361261b565b90508461240b8783612472565b54111561241a57809150612428565b612425816001612f03565b92505b506123ea565b60008211801561245157508361244e86612449600186612f5c565b612472565b54145b1561246a57612461600183612f5c565b925050506108bf565b5090506108bf565b6000825482106124ba5760405162461bcd60e51b815260206004820152601360248201527211549493d48e8813dd5d081bd988189bdd5b99606a1b60448201526064016109fb565b81836040516020016124ce91815260200190565b6040516020818303038152906040528051906020012060001c610a179190612f03565b6124fc838383611ea5565b612507838383612636565b610cf38383836126b9565b6001600160a01b0383166125315761252982612711565b610cf361279b565b6001600160a01b0382166125485761252983612711565b61255183612711565b610cf382612711565b600054610100900460ff166125815760405162461bcd60e51b81526004016109fb90612eb8565b61258c6000336127e9565b6125a46000805160206130a9833981519152336127e9565b6125bc600080516020613089833981519152336127e9565b61166e6000805160206130898339815191526000805160206130a9833981519152611f96565b606083156125f1575081610a17565b8251156126015782518084602001fd5b8160405162461bcd60e51b81526004016109fb9190612ded565b600061262a6002848418612f1b565b610a1790848416612f03565b6000805160206131508339815191525460ff16158061265a575061265a83336127f3565b610cf35760405162461bcd60e51b815260206004820152602a60248201527f45524332305061757361626c653a20746f6b656e207472616e736665722077686044820152691a5b19481c185d5cd95960b21b60648201526084016109fb565b6126c433848461282b565b15610cf35760405162461bcd60e51b815260206004820152601a60248201527f4552524f523a204164647265737320426c61636b6c697374656400000000000060448201526064016109fb565b604080516001600160a01b0383166020808301919091527ffbf1c7065455eb4486649b8540f24ef2dd4ebedf2aa423f0039d17c2c75dea1582840152825180830384018152606090920190925280519101206000612770826001612f03565b9050610cf38282612796866001600160a01b031660009081526065602052604090205490565b612881565b61166e7f286a9db37a0f8ddcbcee127c9f4f56031230f49cb46786f87e166d552e11f67e7ffcaa8bb100d3c5b627eac0369cc1d2778dbeffa2993d08f039fb27795729e9a561279660675490565b610b0b8282611fe1565b600061280d60008051602061317083398151915284611076565b80610a175750610a1760008051602061304983398151915283611076565b600061284560008051602061306983398151915284611076565b80612863575061286360008051602061306983398151915285611076565b8061111b575061111b60008051602061306983398151915283611076565b60006128996000805160206131308339815191525490565b9050806128a5856128bf565b1015610b7e576128b584826128ef565b610b7e83836128ef565b8054600090806128d25750600092915050565b6128e183612449600184612f5c565b549392505050565b50919050565b815460018360006129008385612f03565b909155508290506129118483612472565b55505050565b82805461292390612fb6565b90600052602060002090601f016020900481019282612945576000855561298b565b82601f1061295e57805160ff191683800117855561298b565b8280016001018555821561298b579182015b8281111561298b578251825591602001919060010190612970565b5061299792915061299b565b5090565b5b80821115612997576000815560010161299c565b600067ffffffffffffffff808411156129cb576129cb613032565b604051601f8501601f19908116603f011681019082821181831017156129f3576129f3613032565b81604052809350858152868686011115612a0c57600080fd5b858560208301376000602087830101525050509392505050565b80356001600160a01b0381168114612a3d57600080fd5b919050565b60008083601f840112612a5457600080fd5b50813567ffffffffffffffff811115612a6c57600080fd5b6020830191508360208260051b8501011115612a8757600080fd5b9250929050565b600082601f830112612a9f57600080fd5b610a17838335602085016129b0565b600060208284031215612ac057600080fd5b610a1782612a26565b60008060408385031215612adc57600080fd5b612ae583612a26565b9150612af360208401612a26565b90509250929050565b600080600060608486031215612b1157600080fd5b612b1a84612a26565b9250612b2860208501612a26565b9150604084013590509250925092565b60008060408385031215612b4b57600080fd5b612b5483612a26565b9150602083013567ffffffffffffffff811115612b7057600080fd5b8301601f81018513612b8157600080fd5b612b90858235602084016129b0565b9150509250929050565b60008060408385031215612bad57600080fd5b612bb683612a26565b946020939093013593505050565b60008060208385031215612bd757600080fd5b823567ffffffffffffffff811115612bee57600080fd5b612bfa85828601612a42565b90969095509350505050565b60008060008060408587031215612c1c57600080fd5b843567ffffffffffffffff80821115612c3457600080fd5b612c4088838901612a42565b90965094506020870135915080821115612c5957600080fd5b50612c6687828801612a42565b95989497509550505050565b600060208284031215612c8457600080fd5b5035919050565b60008060408385031215612c9e57600080fd5b82359150612af360208401612a26565b600060208284031215612cc057600080fd5b81356001600160e01b031981168114610a1757600080fd5b60008060008060808587031215612cee57600080fd5b843567ffffffffffffffff80821115612d0657600080fd5b612d1288838901612a8e565b95506020870135915080821115612d2857600080fd5b50612d3587828801612a8e565b935050604085013560ff81168114612d4c57600080fd5b9396929550929360600135925050565b60008251612d6e818460208701612f73565b9190910192915050565b7f416363657373436f6e74726f6c3a206163636f756e7420000000000000000000815260008351612db0816017850160208801612f73565b7001034b99036b4b9b9b4b733903937b6329607d1b6017918401918201528351612de1816028840160208801612f73565b01602801949350505050565b6020815260008251806020840152612e0c816040850160208701612f73565b601f01601f19169190910160400192915050565b6020808252602c908201527f46756e6374696f6e206d7573742062652063616c6c6564207468726f7567682060408201526b19195b1959d85d1958d85b1b60a21b606082015260800190565b6020808252602c908201527f46756e6374696f6e206d7573742062652063616c6c6564207468726f7567682060408201526b6163746976652070726f787960a01b606082015260800190565b6020808252602b908201527f496e697469616c697a61626c653a20636f6e7472616374206973206e6f74206960408201526a6e697469616c697a696e6760a81b606082015260800190565b60008219821115612f1657612f16613006565b500190565b600082612f3857634e487b7160e01b600052601260045260246000fd5b500490565b6000816000190483118215151615612f5757612f57613006565b500290565b600082821015612f6e57612f6e613006565b500390565b60005b83811015612f8e578181015183820152602001612f76565b83811115610b7e5750506000910152565b600081612fae57612fae613006565b506000190190565b600181811c90821680612fca57607f821691505b602082108114156128e957634e487b7160e01b600052602260045260246000fd5b6000600019821415612fff57612fff613006565b5060010190565b634e487b7160e01b600052601160045260246000fd5b634e487b7160e01b600052603260045260246000fd5b634e487b7160e01b600052604160045260246000fdfee1ac655ab58995133a870d1fd307ddc1d624c8ad919a09e67867a7a1483e439a548c7f0307ab2a7ea894e5c7e8c5353cc750bb9385ee2e945f189a9a83daa8eda76ace73a908083d89af9ff88e5b4f7cadb3591a80631063f68b695fda726db571840dc4906352362b0cdaf79870196c8e42acafade72d5d5a6d59291253ceb1f988e4fb62b8e14f4820fed03192306ddf4d7dbfa215595ba1c6ba4b76b369ee416464726573733a206c6f772d6c6576656c2064656c65676174652063616c6c206661696c6564356a809dfdea9198dd76fb76bf6d403ecf13ea675eb89e1eda2db2c4a4676a260d0a0ed3351c10a57d74a44b40c06e0946288e4e3816ac07bb89db2a755562e7ad6a6591fa308fe948065665239402780db8ed4a8c4e4e16c4d066bcaa05efc2ce108bcc5e0f50fe603649304cbbbd94de794a404db82d884c0afc9ba9328e61a264697066735822122075a89cedd7a2dc250da1be2cac148d07d2c0be149c76186ac2cc96aa2f5351e064736f6c63430008060033",
  "linkReferences": {},
  "deployedLinkReferences": {}
}