{
  "_format": "hh-sol-artifact-1",
  "name": "BlacklistBurnMintSnapshotTemplate",
  "initializer": "function initialize(string name_, string symbol_, uint8 decimals_, uint256 amount_)",
  "sourceName": "contracts/templates/BlacklistBurnMintSnapshotTemplate.sol",
  "abi": [
    {
      "anonymous": false,
      "inputs": [
        {
          "indexed": false,
          "internalType": "address",
          "name": "previousAdmin",
          "type": "address"
        },
        {
          "indexed": false,
          "internalType": "address",
          "name": "newAdmin",
          "type": "address"
        }
      ],
      "name": "AdminChanged",
      "type": "event"
    },
    {
      "anonymous": false,
      "inputs": [
        {
          "indexed": true,
          "internalType": "address",
          "name": "owner",
          "type": "address"
        },
        {
          "indexed": true,
          "internalType": "address",
          "name": "spender",
          "type": "address"
        },
        {
          "indexed": false,
          "internalType": "uint256",
          "name": "value",
          "type": "uint256"
        }
      ],
      "name": "Approval",
      "type": "event"
    },
    {
      "anonymous": false,
      "inputs": [
        {
          "indexed": true,
          "internalType": "address",
          "name": "beacon",
          "type": "address"
        }
      ],
      "name": "BeaconUpgraded",
      "type": "event"
    },
    {
      "anonymous": false,
      "inputs": [
        {
          "indexed": true,
          "internalType": "bytes32",
          "name": "role",
          "type": "bytes32"
        },
        {
          "indexed": true,
          "internalType": "bytes32",
          "name": "previousAdminRole",
          "type": "bytes32"
        },
        {
          "indexed": true,
          "internalType": "bytes32",
          "name": "newAdminRole",
          "type": "bytes32"
        }
      ],
      "name": "RoleAdminChanged",
      "type": "event"
    },
    {
      "anonymous": false,
      "inputs": [
        {
          "indexed": true,
          "internalType": "bytes32",
          "name": "role",
          "type": "bytes32"
        },
        {
          "indexed": true,
          "internalType": "address",
          "name": "account",
          "type": "address"
        },
        {
          "indexed": true,
          "internalType": "address",
          "name": "sender",
          "type": "address"
        }
      ],
      "name": "RoleGranted",
      "type": "event"
    },
    {
      "anonymous": false,
      "inputs": [
        {
          "indexed": true,
          "internalType": "bytes32",
          "name": "role",
          "type": "bytes32"
        },
        {
          "indexed": true,
          "internalType": "address",
          "name": "account",
          "type": "address"
        },
        {
          "indexed": true,
          "internalType": "address",
          "name": "sender",
          "type": "address"
        }
      ],
      "name": "RoleRevoked",
      "type": "event"
    },
    {
      "anonymous": false,
      "inputs": [
        {
          "indexed": false,
          "internalType": "uint256",
          "name": "id",
          "type": "uint256"
        }
      ],
      "name": "Snapshot",
      "type": "event"
    },
    {
      "anonymous": false,
      "inputs": [
        {
          "indexed": true,
          "internalType": "address",
          "name": "from",
          "type": "address"
        },
        {
          "indexed": true,
          "internalType": "address",
          "name": "to",
          "type": "address"
        },
        {
          "indexed": false,
          "internalType": "uint256",
          "name": "value",
          "type": "uint256"
        }
      ],
      "name": "Transfer",
      "type": "event"
    },
    {
      "anonymous": false,
      "inputs": [
        {
          "indexed": true,
          "internalType": "address",
          "name": "implementation",
          "type": "address"
        }
      ],
      "name": "Upgraded",
      "type": "event"
    },
    {
      "inputs": [],
      "name": "BLACKLISTED_ROLE",
      "outputs": [
        {
          "internalType": "bytes32",
          "name": "",
          "type": "bytes32"
        }
      ],
      "stateMutability": "view",
      "type": "function"
    },
    {
      "inputs": [],
      "name": "BLACKLIST_MANAGER_ROLE",
      "outputs": [
        {
          "internalType": "bytes32",
          "name": "",
          "type": "bytes32"
        }
      ],
      "stateMutability": "view",
      "type": "function"
    },
    {
      "inputs": [],
      "name": "DEFAULT_ADMIN_ROLE",
      "outputs": [
        {
          "internalType": "bytes32",
          "name": "",
          "type": "bytes32"
        }
      ],
      "stateMutability": "view",
      "type": "function"
    },
    {
      "inputs": [],
      "name": "GOVERNANCE_ROLE",
      "outputs": [
        {
          "internalType": "bytes32",
          "name": "",
          "type": "bytes32"
        }
      ],
      "stateMutability": "view",
      "type": "function"
    },
    {
      "inputs": [],
      "name": "MINTER_ROLE",
      "outputs": [
        {
          "internalType": "bytes32",
          "name": "",
          "type": "bytes32"
        }
      ],
      "stateMutability": "view",
      "type": "function"
    },
    {
      "inputs": [],
      "name": "UPGRADE_MANAGER_ROLE",
      "outputs": [
        {
          "internalType": "bytes32",
          "name": "",
          "type": "bytes32"
        }
      ],
      "stateMutability": "view",
      "type": "function"
    },
    {
      "inputs": [
        {
          "internalType": "address[]",
          "name": "addresses",
          "type": "address[]"
        }
      ],
      "name": "addAddressesToBlacklist",
      "outputs": [],
      "stateMutability": "nonpayable",
      "type": "function"
    },
    {
      "inputs": [
        {
          "internalType": "address",
          "name": "owner",
          "type": "address"
        },
        {
          "internalType": "address",
          "name": "spender",
          "type": "address"
        }
      ],
      "name": "allowance",
      "outputs": [
        {
          "internalType": "uint256",
          "name": "",
          "type": "uint256"
        }
      ],
      "stateMutability": "view",
      "type": "function"
    },
    {
      "inputs": [
        {
          "internalType": "address",
          "name": "spender",
          "type": "address"
        },
        {
          "internalType": "uint256",
          "name": "amount",
          "type": "uint256"
        }
      ],
      "name": "approve",
      "outputs": [
        {
          "internalType": "bool",
          "name": "",
          "type": "bool"
        }
      ],
      "stateMutability": "nonpayable",
      "type": "function"
    },
    {
      "inputs": [
        {
          "internalType": "address",
          "name": "account",
          "type": "address"
        }
      ],
      "name": "balanceOf",
      "outputs": [
        {
          "internalType": "uint256",
          "name": "",
          "type": "uint256"
        }
      ],
      "stateMutability": "view",
      "type": "function"
    },
    {
      "inputs": [
        {
          "internalType": "address",
          "name": "account",
          "type": "address"
        },
        {
          "internalType": "uint256",
          "name": "snapshotId",
          "type": "uint256"
        }
      ],
      "name": "balanceOfAt",
      "outputs": [
        {
          "internalType": "uint256",
          "name": "",
          "type": "uint256"
        }
      ],
      "stateMutability": "view",
      "type": "function"
    },
    {
      "inputs": [
        {
          "internalType": "address[]",
          "name": "accounts",
          "type": "address[]"
        },
        {
          "internalType": "uint256[]",
          "name": "amounts",
          "type": "uint256[]"
        }
      ],
      "name": "bulkMint",
      "outputs": [],
      "stateMutability": "nonpayable",
      "type": "function"
    },
    {
      "inputs": [
        {
          "internalType": "uint256",
          "name": "amount",
          "type": "uint256"
        }
      ],
      "name": "burn",
      "outputs": [],
      "stateMutability": "nonpayable",
      "type": "function"
    },
    {
      "inputs": [
        {
          "internalType": "address",
          "name": "account",
          "type": "address"
        },
        {
          "internalType": "uint256",
          "name": "amount",
          "type": "uint256"
        }
      ],
      "name": "burnFrom",
      "outputs": [],
      "stateMutability": "nonpayable",
      "type": "function"
    },
    {
      "inputs": [],
      "name": "decimals",
      "outputs": [
        {
          "internalType": "uint8",
          "name": "",
          "type": "uint8"
        }
      ],
      "stateMutability": "view",
      "type": "function"
    },
    {
      "inputs": [
        {
          "internalType": "address",
          "name": "spender",
          "type": "address"
        },
        {
          "internalType": "uint256",
          "name": "subtractedValue",
          "type": "uint256"
        }
      ],
      "name": "decreaseAllowance",
      "outputs": [
        {
          "internalType": "bool",
          "name": "",
          "type": "bool"
        }
      ],
      "stateMutability": "nonpayable",
      "type": "function"
    },
    {
      "inputs": [],
      "name": "getCurrentSnapshotId",
      "outputs": [
        {
          "internalType": "uint256",
          "name": "",
          "type": "uint256"
        }
      ],
      "stateMutability": "view",
      "type": "function"
    },
    {
      "inputs": [],
      "name": "getImplementation",
      "outputs": [
        {
          "internalType": "address",
          "name": "",
          "type": "address"
        }
      ],
      "stateMutability": "view",
      "type": "function"
    },
    {
      "inputs": [
        {
          "internalType": "bytes32",
          "name": "role",
          "type": "bytes32"
        }
      ],
      "name": "getRoleAdmin",
      "outputs": [
        {
          "internalType": "bytes32",
          "name": "",
          "type": "bytes32"
        }
      ],
      "stateMutability": "view",
      "type": "function"
    },
    {
      "inputs": [
        {
          "internalType": "bytes32",
          "name": "role",
          "type": "bytes32"
        },
        {
          "internalType": "address",
          "name": "account",
          "type": "address"
        }
      ],
      "name": "grantRole",
      "outputs": [],
      "stateMutability": "nonpayable",
      "type": "function"
    },
    {
      "inputs": [
        {
          "internalType": "bytes32",
          "name": "role",
          "type": "bytes32"
        },
        {
          "internalType": "address",
          "name": "account",
          "type": "address"
        }
      ],
      "name": "hasRole",
      "outputs": [
        {
          "internalType": "bool",
          "name": "",
          "type": "bool"
        }
      ],
      "stateMutability": "view",
      "type": "function"
    },
    {
      "inputs": [
        {
          "internalType": "address",
          "name": "spender",
          "type": "address"
        },
        {
          "internalType": "uint256",
          "name": "addedValue",
          "type": "uint256"
        }
      ],
      "name": "increaseAllowance",
      "outputs": [
        {
          "internalType": "bool",
          "name": "",
          "type": "bool"
        }
      ],
      "stateMutability": "nonpayable",
      "type": "function"
    },
    {
      "inputs": [
        {
          "internalType": "string",
          "name": "name_",
          "type": "string"
        },
        {
          "internalType": "string",
          "name": "symbol_",
          "type": "string"
        },
        {
          "internalType": "uint8",
          "name": "decimals_",
          "type": "uint8"
        },
        {
          "internalType": "uint256",
          "name": "amount_",
          "type": "uint256"
        }
      ],
      "name": "initialize",
      "outputs": [],
      "stateMutability": "nonpayable",
      "type": "function"
    },
    {
      "inputs": [
        {
          "internalType": "address",
          "name": "account",
          "type": "address"
        },
        {
          "internalType": "uint256",
          "name": "amount",
          "type": "uint256"
        }
      ],
      "name": "mint",
      "outputs": [],
      "stateMutability": "nonpayable",
      "type": "function"
    },
    {
      "inputs": [],
      "name": "name",
      "outputs": [
        {
          "internalType": "string",
          "name": "",
          "type": "string"
        }
      ],
      "stateMutability": "view",
      "type": "function"
    },
    {
      "inputs": [
        {
          "internalType": "address",
          "name": "implementationAddress",
          "type": "address"
        }
      ],
      "name": "proposeNewImplementation",
      "outputs": [],
      "stateMutability": "nonpayable",
      "type": "function"
    },
    {
      "inputs": [
        {
          "internalType": "address[]",
          "name": "addresses",
          "type": "address[]"
        }
      ],
      "name": "removeAddressesFromBlacklist",
      "outputs": [],
      "stateMutability": "nonpayable",
      "type": "function"
    },
    {
      "inputs": [
        {
          "internalType": "bytes32",
          "name": "role",
          "type": "bytes32"
        },
        {
          "internalType": "address",
          "name": "account",
          "type": "address"
        }
      ],
      "name": "renounceRole",
      "outputs": [],
      "stateMutability": "nonpayable",
      "type": "function"
    },
    {
      "inputs": [
        {
          "internalType": "bytes32",
          "name": "role",
          "type": "bytes32"
        },
        {
          "internalType": "address",
          "name": "account",
          "type": "address"
        }
      ],
      "name": "revokeRole",
      "outputs": [],
      "stateMutability": "nonpayable",
      "type": "function"
    },
    {
      "inputs": [],
      "name": "snapshot",
      "outputs": [],
      "stateMutability": "nonpayable",
      "type": "function"
    },
    {
      "inputs": [
        {
          "internalType": "bytes4",
          "name": "interfaceId",
          "type": "bytes4"
        }
      ],
      "name": "supportsInterface",
      "outputs": [
        {
          "internalType": "bool",
          "name": "",
          "type": "bool"
        }
      ],
      "stateMutability": "view",
      "type": "function"
    },
    {
      "inputs": [],
      "name": "symbol",
      "outputs": [
        {
          "internalType": "string",
          "name": "",
          "type": "string"
        }
      ],
      "stateMutability": "view",
      "type": "function"
    },
    {
      "inputs": [],
      "name": "totalSupply",
      "outputs": [
        {
          "internalType": "uint256",
          "name": "",
          "type": "uint256"
        }
      ],
      "stateMutability": "view",
      "type": "function"
    },
    {
      "inputs": [
        {
          "internalType": "uint256",
          "name": "snapshotId",
          "type": "uint256"
        }
      ],
      "name": "totalSupplyAt",
      "outputs": [
        {
          "internalType": "uint256",
          "name": "",
          "type": "uint256"
        }
      ],
      "stateMutability": "view",
      "type": "function"
    },
    {
      "inputs": [
        {
          "internalType": "address",
          "name": "recipient",
          "type": "address"
        },
        {
          "internalType": "uint256",
          "name": "amount",
          "type": "uint256"
        }
      ],
      "name": "transfer",
      "outputs": [
        {
          "internalType": "bool",
          "name": "",
          "type": "bool"
        }
      ],
      "stateMutability": "nonpayable",
      "type": "function"
    },
    {
      "inputs": [
        {
          "internalType": "address",
          "name": "sender",
          "type": "address"
        },
        {
          "internalType": "address",
          "name": "recipient",
          "type": "address"
        },
        {
          "internalType": "uint256",
          "name": "amount",
          "type": "uint256"
        }
      ],
      "name": "transferFrom",
      "outputs": [
        {
          "internalType": "bool",
          "name": "",
          "type": "bool"
        }
      ],
      "stateMutability": "nonpayable",
      "type": "function"
    },
    {
      "inputs": [
        {
          "internalType": "address",
          "name": "newImplementation",
          "type": "address"
        }
      ],
      "name": "upgradeTo",
      "outputs": [],
      "stateMutability": "nonpayable",
      "type": "function"
    },
    {
      "inputs": [
        {
          "internalType": "address",
          "name": "newImplementation",
          "type": "address"
        },
        {
          "internalType": "bytes",
          "name": "data",
          "type": "bytes"
        }
      ],
      "name": "upgradeToAndCall",
      "outputs": [],
      "stateMutability": "payable",
      "type": "function"
    }
  ],
  "bytecode": "0x60a06040523060601b60805234801561001757600080fd5b5060805160601c612e2c61004b60003960008181610a5601528181610a9601528181610c810152610cc10152612e2c6000f3fe6080604052600436106102255760003560e01c80634f1ef28611610123578063981b24d0116100ab578063ca73419e1161006f578063ca73419e14610665578063d539139314610685578063d547741f146106b9578063dd62ed3e146106d9578063f36c8f5c1461071f57600080fd5b8063981b24d0146105c3578063a217fddf146105e3578063a457c2d7146105f8578063a9059cbb14610618578063aaf10f421461063857600080fd5b806370a08231116100f257806370a082311461052357806379cc67901461055957806391d148541461057957806395d89b41146105995780639711715a146105ae57600080fd5b80634f1ef286146104b95780635439ad86146104cc57806362b199c5146104e15780636ae459bd1461050357600080fd5b806332258794116101b1578063410b242411610175578063410b24241461041557806342966c681461043757806343ffa64e1461045757806347757fb6146104795780634ee2cd7e1461049957600080fd5b8063322587941461037557806336568abe146103955780633659cfe6146103b557806339509351146103d557806340c10f19146103f557600080fd5b806323b872dd116101f857806323b872dd146102c0578063248a9ca3146102e0578063253279ad146103105780632f2ff15d14610332578063313ce5671461035257600080fd5b806301ffc9a71461022a57806306fdde031461025f578063095ea7b31461028157806318160ddd146102a1575b600080fd5b34801561023657600080fd5b5061024a610245366004612995565b610741565b60405190151581526020015b60405180910390f35b34801561026b57600080fd5b50610274610778565b6040516102569190612ad4565b34801561028d57600080fd5b5061024a61029c366004612881565b61080a565b3480156102ad57600080fd5b506067545b604051908152602001610256565b3480156102cc57600080fd5b5061024a6102db3660046127e3565b610820565b3480156102ec57600080fd5b506102b26102fb366004612959565b600090815260fb602052604090206001015490565b34801561031c57600080fd5b5061033061032b3660046129bf565b6108d1565b005b34801561033e57600080fd5b5061033061034d366004612972565b6109aa565b34801561035e57600080fd5b506101605460405160ff9091168152602001610256565b34801561038157600080fd5b506103306103903660046128ab565b6109c2565b3480156103a157600080fd5b506103306103b0366004612972565b610a37565b3480156103c157600080fd5b506103306103d0366004612795565b610a4b565b3480156103e157600080fd5b5061024a6103f0366004612881565b610b14565b34801561040157600080fd5b50610330610410366004612881565b610b50565b34801561042157600080fd5b506102b2600080516020612d9083398151915281565b34801561044357600080fd5b50610330610452366004612959565b610b8a565b34801561046357600080fd5b506102b2600080516020612d5083398151915281565b34801561048557600080fd5b50610330610494366004612795565b610b94565b3480156104a557600080fd5b506102b26104b4366004612881565b610bd1565b6103306104c736600461281f565b610c76565b3480156104d857600080fd5b506102b2610d2c565b3480156104ed57600080fd5b506102b2600080516020612d3083398151915281565b34801561050f57600080fd5b5061033061051e3660046128ed565b610d49565b34801561052f57600080fd5b506102b261053e366004612795565b6001600160a01b031660009081526065602052604090205490565b34801561056557600080fd5b50610330610574366004612881565b610e28565b34801561058557600080fd5b5061024a610594366004612972565b610ea9565b3480156105a557600080fd5b50610274610ed4565b3480156105ba57600080fd5b50610330610ee3565b3480156105cf57600080fd5b506102b26105de366004612959565b610eeb565b3480156105ef57600080fd5b506102b2600081565b34801561060457600080fd5b5061024a610613366004612881565b610f56565b34801561062457600080fd5b5061024a610633366004612881565b610fef565b34801561064457600080fd5b5061064d610ffc565b6040516001600160a01b039091168152602001610256565b34801561067157600080fd5b506103306106803660046128ab565b611006565b34801561069157600080fd5b506102b27ff9424f4303d7f03683a025eb8885734ad99b47df7749d9b0a02cbc985809700b81565b3480156106c557600080fd5b506103306106d4366004612972565b611075565b3480156106e557600080fd5b506102b26106f43660046127b0565b6001600160a01b03918216600090815260666020908152604080832093909416825291909152205490565b34801561072b57600080fd5b506102b2600080516020612d7083398151915281565b60006001600160e01b03198216637965db0b60e01b148061077257506301ffc9a760e01b6001600160e01b03198316145b92915050565b60606068805461078790612c9d565b80601f01602080910402602001604051908101604052809291908181526020018280546107b390612c9d565b80156108005780601f106107d557610100808354040283529160200191610800565b820191906000526020600020905b8154815290600101906020018083116107e357829003601f168201915b5050505050905090565b600061081733848461109b565b50600192915050565b600061082d8484846111bf565b6001600160a01b0384166000908152606660209081526040808320338452909152902054828110156108b75760405162461bcd60e51b815260206004820152602860248201527f45524332303a207472616e7366657220616d6f756e74206578636565647320616044820152676c6c6f77616e636560c01b60648201526084015b60405180910390fd5b6108c4853385840361109b565b60019150505b9392505050565b600054610100900460ff166108ec5760005460ff16156108f0565b303b155b6109535760405162461bcd60e51b815260206004820152602e60248201527f496e697469616c697a61626c653a20636f6e747261637420697320616c72656160448201526d191e481a5b9a5d1a585b1a5e995960921b60648201526084016108ae565b600054610100900460ff16158015610975576000805461ffff19166101011790555b61098185858585611398565b6109896113db565b61099161142a565b80156109a3576000805461ff00191690555b5050505050565b6109b48282611451565b6109be82826114e0565b5050565b600080516020612d908339815191526109db8133611506565b60005b82811015610a3157610a1f600080516020612d30833981519152858584818110610a0a57610a0a612d03565b90506020020160208101906106d49190612795565b80610a2981612cd2565b9150506109de565b50505050565b610a41828261156a565b6109be82826115d2565b306001600160a01b037f0000000000000000000000000000000000000000000000000000000000000000161415610a945760405162461bcd60e51b81526004016108ae90612b07565b7f00000000000000000000000000000000000000000000000000000000000000006001600160a01b0316610ac661164c565b6001600160a01b031614610aec5760405162461bcd60e51b81526004016108ae90612b53565b610af58161167a565b60408051600080825260208201909252610b11918391906116fc565b50565b3360008181526066602090815260408083206001600160a01b03871684529091528120549091610817918590610b4b908690612bea565b61109b565b7ff9424f4303d7f03683a025eb8885734ad99b47df7749d9b0a02cbc985809700b610b7b8133611506565b610b858383611840565b505050565b610b11338261192b565b600080516020612d70833981519152610bad8133611506565b5061012d80546001600160a01b0319166001600160a01b0392909216919091179055565b604080516001600160a01b0384166020808301919091527ffbf1c7065455eb4486649b8540f24ef2dd4ebedf2aa423f0039d17c2c75dea15828401528251808303840181526060909201909252805191012060009081610c32826001612bea565b9050600080610c42868585611a85565b9150915081610c69576001600160a01b038716600090815260656020526040902054610c6b565b805b979650505050505050565b306001600160a01b037f0000000000000000000000000000000000000000000000000000000000000000161415610cbf5760405162461bcd60e51b81526004016108ae90612b07565b7f00000000000000000000000000000000000000000000000000000000000000006001600160a01b0316610cf161164c565b6001600160a01b031614610d175760405162461bcd60e51b81526004016108ae90612b53565b610d208261167a565b6109be828260016116fc565b6000610d44600080516020612dd78339815191525490565b905090565b7ff9424f4303d7f03683a025eb8885734ad99b47df7749d9b0a02cbc985809700b610d748133611506565b838214610dbb5760405162461bcd60e51b8152602060048201526015602482015274082e4e4c2f240d8cadccee8d040dad2e6dac2e8c6d605b1b60448201526064016108ae565b60005b84811015610e2057610e0e868683818110610ddb57610ddb612d03565b9050602002016020810190610df09190612795565b858584818110610e0257610e02612d03565b90506020020135611840565b80610e1881612cd2565b915050610dbe565b505050505050565b6000610e3483336106f4565b905081811015610e925760405162461bcd60e51b8152602060048201526024808201527f45524332303a206275726e20616d6f756e74206578636565647320616c6c6f77604482015263616e636560e01b60648201526084016108ae565b610e9f833384840361109b565b610b85838361192b565b600091825260fb602090815260408084206001600160a01b0393909316845291905290205460ff1690565b60606069805461078790612c9d565b610b11611b70565b6000806000610f3b847f286a9db37a0f8ddcbcee127c9f4f56031230f49cb46786f87e166d552e11f67e7ffcaa8bb100d3c5b627eac0369cc1d2778dbeffa2993d08f039fb27795729e9a5611a85565b9150915081610f4c57606754610f4e565b805b949350505050565b3360009081526066602090815260408083206001600160a01b038616845290915281205482811015610fd85760405162461bcd60e51b815260206004820152602560248201527f45524332303a2064656372656173656420616c6c6f77616e63652062656c6f77604482015264207a65726f60d81b60648201526084016108ae565b610fe5338585840361109b565b5060019392505050565b60006108173384846111bf565b6000610d4461164c565b600080516020612d9083398151915261101f8133611506565b60005b82811015610a3157611063600080516020612d3083398151915285858481811061104e5761104e612d03565b905060200201602081019061034d9190612795565b8061106d81612cd2565b915050611022565b600082815260fb60205260409020600101546110918133611506565b610b858383611be0565b6001600160a01b0383166110fd5760405162461bcd60e51b8152602060048201526024808201527f45524332303a20617070726f76652066726f6d20746865207a65726f206164646044820152637265737360e01b60648201526084016108ae565b6001600160a01b03821661115e5760405162461bcd60e51b815260206004820152602260248201527f45524332303a20617070726f766520746f20746865207a65726f206164647265604482015261737360f01b60648201526084016108ae565b6001600160a01b0383811660008181526066602090815260408083209487168084529482529182902085905590518481527f8c5be1e5ebec7d5bd14f71427d1e84f3dd0314c0f7b2291e5b200ac8c7c3b925910160405180910390a3505050565b6001600160a01b0383166112235760405162461bcd60e51b815260206004820152602560248201527f45524332303a207472616e736665722066726f6d20746865207a65726f206164604482015264647265737360d81b60648201526084016108ae565b6001600160a01b0382166112855760405162461bcd60e51b815260206004820152602360248201527f45524332303a207472616e7366657220746f20746865207a65726f206164647260448201526265737360e81b60648201526084016108ae565b611290838383611c47565b6001600160a01b038316600090815260656020526040902054818110156113085760405162461bcd60e51b815260206004820152602660248201527f45524332303a207472616e7366657220616d6f756e7420657863656564732062604482015265616c616e636560d01b60648201526084016108ae565b6001600160a01b0380851660009081526065602052604080822085850390559185168152908120805484929061133f908490612bea565b92505081905550826001600160a01b0316846001600160a01b03167fddf252ad1be2c89b69c2b068fc378daa952ba7f163c4a11628f55a4df523b3ef8460405161138b91815260200190565b60405180910390a3610a31565b600054610100900460ff166113bf5760405162461bcd60e51b81526004016108ae90612b9f565b6113c7611c5d565b6113d18484611cb4565b610a318282611d02565b600054610100900460ff166114025760405162461bcd60e51b81526004016108ae90612b9f565b611428600080516020612d30833981519152600080516020612d90833981519152611d43565b565b600054610100900460ff166114285760405162461bcd60e51b81526004016108ae90612b9f565b600080516020612d9083398151915282148061146b575081155b156109be57611488600080516020612d3083398151915282610ea9565b156109be5760405162461bcd60e51b815260206004820152602260248201527f63616e206e6f742061737369676e20726f6c6520746f20626c61636b6c697374604482015261195960f21b60648201526084016108ae565b600082815260fb60205260409020600101546114fc8133611506565b610b858383611d8e565b6115108282610ea9565b6109be57611528816001600160a01b03166014611e14565b611533836020611e14565b604051602001611544929190612a5f565b60408051601f198184030181529082905262461bcd60e51b82526108ae91600401612ad4565b600080516020612d308339815191528214156109be5760405162461bcd60e51b815260206004820152602160248201527f43616e206e6f742072656e6f756e636520626c61636b6c697374656420726f6c6044820152606560f81b60648201526084016108ae565b6001600160a01b03811633146116425760405162461bcd60e51b815260206004820152602f60248201527f416363657373436f6e74726f6c3a2063616e206f6e6c792072656e6f756e636560448201526e103937b632b9903337b91039b2b63360891b60648201526084016108ae565b6109be8282611be0565b7f360894a13ba1a3210667c828492db98dca3e2076cc3735a920a3ca505d382bbc546001600160a01b031690565b611692600080516020612d7083398151915233610ea9565b806116b057506116b0600080516020612d5083398151915233610ea9565b610b115760405162461bcd60e51b815260206004820152601d60248201527f4552524f523a2041646472657373206e6f7420617574686f72697a656400000060448201526064016108ae565b600061170661164c565b905061171184611fb0565b60008351118061171e5750815b1561172f5761172d8484612055565b505b7f4910fdfa16fed3260ed0e7147f7cc6da11a60208b5b9406d12a635614ffd9143805460ff166109a357805460ff191660011781556040516001600160a01b03831660248201526117ae90869060440160408051601f198184030181529190526020810180516001600160e01b0316631b2ce7f360e11b179052612055565b50805460ff191681556117bf61164c565b6001600160a01b0316826001600160a01b0316146118375760405162461bcd60e51b815260206004820152602f60248201527f45524331393637557067726164653a207570677261646520627265616b73206660448201526e75727468657220757067726164657360881b60648201526084016108ae565b6109a385612140565b6001600160a01b0382166118965760405162461bcd60e51b815260206004820152601f60248201527f45524332303a206d696e7420746f20746865207a65726f20616464726573730060448201526064016108ae565b6118a260008383611c47565b80606760008282546118b49190612bea565b90915550506001600160a01b038216600090815260656020526040812080548392906118e1908490612bea565b90915550506040518181526001600160a01b038316906000907fddf252ad1be2c89b69c2b068fc378daa952ba7f163c4a11628f55a4df523b3ef9060200160405180910390a35050565b6001600160a01b03821661198b5760405162461bcd60e51b815260206004820152602160248201527f45524332303a206275726e2066726f6d20746865207a65726f206164647265736044820152607360f81b60648201526084016108ae565b61199782600083611c47565b6001600160a01b03821660009081526065602052604090205481811015611a0b5760405162461bcd60e51b815260206004820152602260248201527f45524332303a206275726e20616d6f756e7420657863656564732062616c616e604482015261636560f01b60648201526084016108ae565b6001600160a01b0383166000908152606560205260408120838303905560678054849290611a3a908490612c43565b90915550506040518281526000906001600160a01b038516907fddf252ad1be2c89b69c2b068fc378daa952ba7f163c4a11628f55a4df523b3ef9060200160405180910390a3505050565b60008060008511611ad15760405162461bcd60e51b815260206004820152601660248201527504552433230536e617073686f743a20696420697320360541b60448201526064016108ae565b600080516020612dd783398151915254851115611b305760405162461bcd60e51b815260206004820152601d60248201527f4552433230536e617073686f743a206e6f6e6578697374656e7420696400000060448201526064016108ae565b6000611b3c8587612180565b90508454811415611b54576000809250925050611b68565b6001611b60858361221f565b549093509150505b935093915050565b60006001600080516020612dd78339815191528054600090611b93908490612bea565b9091555050600080516020612dd7833981519152546040518181527f8030e83b04d87bef53480e26263266d6ca66863aa8506aca6f2559d18aa1cb679060200160405180910390a1919050565b611bea8282610ea9565b156109be57600082815260fb602090815260408083206001600160a01b0385168085529252808320805460ff1916905551339285917ff6391f5c32d9c69d2a47ea670b442974b53935d1edc7fd64eb21e047a839171b9190a45050565b611c5283838361229e565b610b858383836122b4565b600054610100900460ff16611c845760405162461bcd60e51b81526004016108ae90612b9f565b611c8c61142a565b611c9461142a565b611c9c61142a565b611ca461142a565b611cac61142a565b6114286122fc565b600054610100900460ff16611cdb5760405162461bcd60e51b81526004016108ae90612b9f565b8151611cee9060689060208501906125fe565b508051610b859060699060208401906125fe565b600054610100900460ff16611d295760405162461bcd60e51b81526004016108ae90612b9f565b610160805460ff191660ff84161790556109be3382611840565b600082815260fb6020526040808220600101805490849055905190918391839186917fbd79b86ffe0ab8e8776151514217cd7cacd52c909f66475c3af44e129f0b00ff9190a4505050565b611d988282610ea9565b6109be57600082815260fb602090815260408083206001600160a01b03851684529091529020805460ff19166001179055611dd03390565b6001600160a01b0316816001600160a01b0316837f2f8788117e7eff1d82e926ec794901d17c78024a50270940304540a733656f0d60405160405180910390a45050565b60606000611e23836002612c24565b611e2e906002612bea565b67ffffffffffffffff811115611e4657611e46612d19565b6040519080825280601f01601f191660200182016040528015611e70576020820181803683370190505b509050600360fc1b81600081518110611e8b57611e8b612d03565b60200101906001600160f81b031916908160001a905350600f60fb1b81600181518110611eba57611eba612d03565b60200101906001600160f81b031916908160001a9053506000611ede846002612c24565b611ee9906001612bea565b90505b6001811115611f61576f181899199a1a9b1b9c1cb0b131b232b360811b85600f1660108110611f1d57611f1d612d03565b1a60f81b828281518110611f3357611f33612d03565b60200101906001600160f81b031916908160001a90535060049490941c93611f5a81612c86565b9050611eec565b5083156108ca5760405162461bcd60e51b815260206004820181905260248201527f537472696e67733a20686578206c656e67746820696e73756666696369656e7460448201526064016108ae565b803b6120145760405162461bcd60e51b815260206004820152602d60248201527f455243313936373a206e657720696d706c656d656e746174696f6e206973206e60448201526c1bdd08184818dbdb9d1c9858dd609a1b60648201526084016108ae565b7f360894a13ba1a3210667c828492db98dca3e2076cc3735a920a3ca505d382bbc80546001600160a01b0319166001600160a01b0392909216919091179055565b6060823b6120b45760405162461bcd60e51b815260206004820152602660248201527f416464726573733a2064656c65676174652063616c6c20746f206e6f6e2d636f6044820152651b9d1c9858dd60d21b60648201526084016108ae565b600080846001600160a01b0316846040516120cf9190612a43565b600060405180830381855af49150503d806000811461210a576040519150601f19603f3d011682016040523d82523d6000602084013e61210f565b606091505b50915091506121378282604051806060016040528060278152602001612db060279139612384565b95945050505050565b61214981611fb0565b6040516001600160a01b038216907fbc7cd75a20ee27fd9adebab32041f755214dbc6bffa90cc0225b39da2e5c2d3b90600090a250565b815460009081908061219757600092505050610772565b808210156121db5760006121ab83836123bd565b9050846121b8878361221f565b5411156121c7578091506121d5565b6121d2816001612bea565b92505b50612197565b6000821180156121fe5750836121fb866121f6600186612c43565b61221f565b54145b156122175761220e600183612c43565b92505050610772565b509050610772565b6000825482106122675760405162461bcd60e51b815260206004820152601360248201527211549493d48e8813dd5d081bd988189bdd5b99606a1b60448201526064016108ae565b818360405160200161227b91815260200190565b6040516020818303038152906040528051906020012060001c6108ca9190612bea565b6122a9838383611c52565b610b858383836123d8565b6001600160a01b0383166122d3576122cb82612430565b610b856124ba565b6001600160a01b0382166122ea576122cb83612430565b6122f383612430565b610b8582612430565b600054610100900460ff166123235760405162461bcd60e51b81526004016108ae90612b9f565b61232e600033612508565b612346600080516020612d7083398151915233612508565b61235e600080516020612d5083398151915233612508565b611428600080516020612d50833981519152600080516020612d70833981519152611d43565b606083156123935750816108ca565b8251156123a35782518084602001fd5b8160405162461bcd60e51b81526004016108ae9190612ad4565b60006123cc6002848418612c02565b6108ca90848416612bea565b6123e3338484612512565b15610b855760405162461bcd60e51b815260206004820152601a60248201527f4552524f523a204164647265737320426c61636b6c697374656400000000000060448201526064016108ae565b604080516001600160a01b0383166020808301919091527ffbf1c7065455eb4486649b8540f24ef2dd4ebedf2aa423f0039d17c2c75dea158284015282518083038401815260609092019092528051910120600061248f826001612bea565b9050610b8582826124b5866001600160a01b031660009081526065602052604090205490565b612568565b6114287f286a9db37a0f8ddcbcee127c9f4f56031230f49cb46786f87e166d552e11f67e7ffcaa8bb100d3c5b627eac0369cc1d2778dbeffa2993d08f039fb27795729e9a56124b560675490565b6109be8282611d8e565b600061252c600080516020612d3083398151915284610ea9565b8061254a575061254a600080516020612d3083398151915285610ea9565b80610f4e5750610f4e600080516020612d3083398151915283610ea9565b6000612580600080516020612dd78339815191525490565b90508061258c856125a6565b1015610a315761259c84826125d6565b610a3183836125d6565b8054600090806125b95750600092915050565b6125c8836121f6600184612c43565b549392505050565b50919050565b815460018360006125e78385612bea565b909155508290506125f8848361221f565b55505050565b82805461260a90612c9d565b90600052602060002090601f01602090048101928261262c5760008555612672565b82601f1061264557805160ff1916838001178555612672565b82800160010185558215612672579182015b82811115612672578251825591602001919060010190612657565b5061267e929150612682565b5090565b5b8082111561267e5760008155600101612683565b600067ffffffffffffffff808411156126b2576126b2612d19565b604051601f8501601f19908116603f011681019082821181831017156126da576126da612d19565b816040528093508581528686860111156126f357600080fd5b858560208301376000602087830101525050509392505050565b80356001600160a01b038116811461272457600080fd5b919050565b60008083601f84011261273b57600080fd5b50813567ffffffffffffffff81111561275357600080fd5b6020830191508360208260051b850101111561276e57600080fd5b9250929050565b600082601f83011261278657600080fd5b6108ca83833560208501612697565b6000602082840312156127a757600080fd5b6108ca8261270d565b600080604083850312156127c357600080fd5b6127cc8361270d565b91506127da6020840161270d565b90509250929050565b6000806000606084860312156127f857600080fd5b6128018461270d565b925061280f6020850161270d565b9150604084013590509250925092565b6000806040838503121561283257600080fd5b61283b8361270d565b9150602083013567ffffffffffffffff81111561285757600080fd5b8301601f8101851361286857600080fd5b61287785823560208401612697565b9150509250929050565b6000806040838503121561289457600080fd5b61289d8361270d565b946020939093013593505050565b600080602083850312156128be57600080fd5b823567ffffffffffffffff8111156128d557600080fd5b6128e185828601612729565b90969095509350505050565b6000806000806040858703121561290357600080fd5b843567ffffffffffffffff8082111561291b57600080fd5b61292788838901612729565b9096509450602087013591508082111561294057600080fd5b5061294d87828801612729565b95989497509550505050565b60006020828403121561296b57600080fd5b5035919050565b6000806040838503121561298557600080fd5b823591506127da6020840161270d565b6000602082840312156129a757600080fd5b81356001600160e01b0319811681146108ca57600080fd5b600080600080608085870312156129d557600080fd5b843567ffffffffffffffff808211156129ed57600080fd5b6129f988838901612775565b95506020870135915080821115612a0f57600080fd5b50612a1c87828801612775565b935050604085013560ff81168114612a3357600080fd5b9396929550929360600135925050565b60008251612a55818460208701612c5a565b9190910192915050565b7f416363657373436f6e74726f6c3a206163636f756e7420000000000000000000815260008351612a97816017850160208801612c5a565b7001034b99036b4b9b9b4b733903937b6329607d1b6017918401918201528351612ac8816028840160208801612c5a565b01602801949350505050565b6020815260008251806020840152612af3816040850160208701612c5a565b601f01601f19169190910160400192915050565b6020808252602c908201527f46756e6374696f6e206d7573742062652063616c6c6564207468726f7567682060408201526b19195b1959d85d1958d85b1b60a21b606082015260800190565b6020808252602c908201527f46756e6374696f6e206d7573742062652063616c6c6564207468726f7567682060408201526b6163746976652070726f787960a01b606082015260800190565b6020808252602b908201527f496e697469616c697a61626c653a20636f6e7472616374206973206e6f74206960408201526a6e697469616c697a696e6760a81b606082015260800190565b60008219821115612bfd57612bfd612ced565b500190565b600082612c1f57634e487b7160e01b600052601260045260246000fd5b500490565b6000816000190483118215151615612c3e57612c3e612ced565b500290565b600082821015612c5557612c55612ced565b500390565b60005b83811015612c75578181015183820152602001612c5d565b83811115610a315750506000910152565b600081612c9557612c95612ced565b506000190190565b600181811c90821680612cb157607f821691505b602082108114156125d057634e487b7160e01b600052602260045260246000fd5b6000600019821415612ce657612ce6612ced565b5060010190565b634e487b7160e01b600052601160045260246000fd5b634e487b7160e01b600052603260045260246000fd5b634e487b7160e01b600052604160045260246000fdfe548c7f0307ab2a7ea894e5c7e8c5353cc750bb9385ee2e945f189a9a83daa8eda76ace73a908083d89af9ff88e5b4f7cadb3591a80631063f68b695fda726db571840dc4906352362b0cdaf79870196c8e42acafade72d5d5a6d59291253ceb1f988e4fb62b8e14f4820fed03192306ddf4d7dbfa215595ba1c6ba4b76b369ee416464726573733a206c6f772d6c6576656c2064656c65676174652063616c6c206661696c65640d0a0ed3351c10a57d74a44b40c06e0946288e4e3816ac07bb89db2a755562e7a26469706673582212208e7139a30bf853337821f524b62bf7fa259a6d13a2102eb0d167d7a55f3d262264736f6c63430008060033",
  "linkReferences": {},
  "deployedLinkReferences": {}
}