{
  "_format": "hh-sol-artifact-1",
  "name": "BlacklistBurnMintTxFeeTemplate",
  "initializer": "function initialize(string name_, string symbol_, uint8 decimals_, uint256 amount_, uint256 txFee, address txFeeBeneficiary)",
  "sourceName": "contracts/templates/BlacklistBurnMintTxFeeTemplate.sol",
  "abi": [
    {
      "anonymous": false,
      "inputs": [
        {
          "indexed": false,
          "internalType": "address",
          "name": "previousAdmin",
          "type": "address"
        },
        {
          "indexed": false,
          "internalType": "address",
          "name": "newAdmin",
          "type": "address"
        }
      ],
      "name": "AdminChanged",
      "type": "event"
    },
    {
      "anonymous": false,
      "inputs": [
        {
          "indexed": true,
          "internalType": "address",
          "name": "owner",
          "type": "address"
        },
        {
          "indexed": true,
          "internalType": "address",
          "name": "spender",
          "type": "address"
        },
        {
          "indexed": false,
          "internalType": "uint256",
          "name": "value",
          "type": "uint256"
        }
      ],
      "name": "Approval",
      "type": "event"
    },
    {
      "anonymous": false,
      "inputs": [
        {
          "indexed": true,
          "internalType": "address",
          "name": "beacon",
          "type": "address"
        }
      ],
      "name": "BeaconUpgraded",
      "type": "event"
    },
    {
      "anonymous": false,
      "inputs": [
        {
          "indexed": true,
          "internalType": "bytes32",
          "name": "role",
          "type": "bytes32"
        },
        {
          "indexed": true,
          "internalType": "bytes32",
          "name": "previousAdminRole",
          "type": "bytes32"
        },
        {
          "indexed": true,
          "internalType": "bytes32",
          "name": "newAdminRole",
          "type": "bytes32"
        }
      ],
      "name": "RoleAdminChanged",
      "type": "event"
    },
    {
      "anonymous": false,
      "inputs": [
        {
          "indexed": true,
          "internalType": "bytes32",
          "name": "role",
          "type": "bytes32"
        },
        {
          "indexed": true,
          "internalType": "address",
          "name": "account",
          "type": "address"
        },
        {
          "indexed": true,
          "internalType": "address",
          "name": "sender",
          "type": "address"
        }
      ],
      "name": "RoleGranted",
      "type": "event"
    },
    {
      "anonymous": false,
      "inputs": [
        {
          "indexed": true,
          "internalType": "bytes32",
          "name": "role",
          "type": "bytes32"
        },
        {
          "indexed": true,
          "internalType": "address",
          "name": "account",
          "type": "address"
        },
        {
          "indexed": true,
          "internalType": "address",
          "name": "sender",
          "type": "address"
        }
      ],
      "name": "RoleRevoked",
      "type": "event"
    },
    {
      "anonymous": false,
      "inputs": [
        {
          "indexed": true,
          "internalType": "address",
          "name": "from",
          "type": "address"
        },
        {
          "indexed": true,
          "internalType": "address",
          "name": "to",
          "type": "address"
        },
        {
          "indexed": false,
          "internalType": "uint256",
          "name": "value",
          "type": "uint256"
        }
      ],
      "name": "Transfer",
      "type": "event"
    },
    {
      "anonymous": false,
      "inputs": [
        {
          "indexed": true,
          "internalType": "address",
          "name": "implementation",
          "type": "address"
        }
      ],
      "name": "Upgraded",
      "type": "event"
    },
    {
      "inputs": [],
      "name": "BLACKLISTED_ROLE",
      "outputs": [
        {
          "internalType": "bytes32",
          "name": "",
          "type": "bytes32"
        }
      ],
      "stateMutability": "view",
      "type": "function"
    },
    {
      "inputs": [],
      "name": "BLACKLIST_MANAGER_ROLE",
      "outputs": [
        {
          "internalType": "bytes32",
          "name": "",
          "type": "bytes32"
        }
      ],
      "stateMutability": "view",
      "type": "function"
    },
    {
      "inputs": [],
      "name": "DEFAULT_ADMIN_ROLE",
      "outputs": [
        {
          "internalType": "bytes32",
          "name": "",
          "type": "bytes32"
        }
      ],
      "stateMutability": "view",
      "type": "function"
    },
    {
      "inputs": [],
      "name": "GOVERNANCE_ROLE",
      "outputs": [
        {
          "internalType": "bytes32",
          "name": "",
          "type": "bytes32"
        }
      ],
      "stateMutability": "view",
      "type": "function"
    },
    {
      "inputs": [],
      "name": "MINTER_ROLE",
      "outputs": [
        {
          "internalType": "bytes32",
          "name": "",
          "type": "bytes32"
        }
      ],
      "stateMutability": "view",
      "type": "function"
    },
    {
      "inputs": [],
      "name": "UPGRADE_MANAGER_ROLE",
      "outputs": [
        {
          "internalType": "bytes32",
          "name": "",
          "type": "bytes32"
        }
      ],
      "stateMutability": "view",
      "type": "function"
    },
    {
      "inputs": [
        {
          "internalType": "address[]",
          "name": "addresses",
          "type": "address[]"
        }
      ],
      "name": "addAddressesToBlacklist",
      "outputs": [],
      "stateMutability": "nonpayable",
      "type": "function"
    },
    {
      "inputs": [
        {
          "internalType": "address",
          "name": "owner",
          "type": "address"
        },
        {
          "internalType": "address",
          "name": "spender",
          "type": "address"
        }
      ],
      "name": "allowance",
      "outputs": [
        {
          "internalType": "uint256",
          "name": "",
          "type": "uint256"
        }
      ],
      "stateMutability": "view",
      "type": "function"
    },
    {
      "inputs": [
        {
          "internalType": "address",
          "name": "spender",
          "type": "address"
        },
        {
          "internalType": "uint256",
          "name": "amount",
          "type": "uint256"
        }
      ],
      "name": "approve",
      "outputs": [
        {
          "internalType": "bool",
          "name": "",
          "type": "bool"
        }
      ],
      "stateMutability": "nonpayable",
      "type": "function"
    },
    {
      "inputs": [
        {
          "internalType": "address",
          "name": "account",
          "type": "address"
        }
      ],
      "name": "balanceOf",
      "outputs": [
        {
          "internalType": "uint256",
          "name": "",
          "type": "uint256"
        }
      ],
      "stateMutability": "view",
      "type": "function"
    },
    {
      "inputs": [
        {
          "internalType": "address[]",
          "name": "accounts",
          "type": "address[]"
        },
        {
          "internalType": "uint256[]",
          "name": "amounts",
          "type": "uint256[]"
        }
      ],
      "name": "bulkMint",
      "outputs": [],
      "stateMutability": "nonpayable",
      "type": "function"
    },
    {
      "inputs": [
        {
          "internalType": "uint256",
          "name": "amount",
          "type": "uint256"
        }
      ],
      "name": "burn",
      "outputs": [],
      "stateMutability": "nonpayable",
      "type": "function"
    },
    {
      "inputs": [
        {
          "internalType": "address",
          "name": "account",
          "type": "address"
        },
        {
          "internalType": "uint256",
          "name": "amount",
          "type": "uint256"
        }
      ],
      "name": "burnFrom",
      "outputs": [],
      "stateMutability": "nonpayable",
      "type": "function"
    },
    {
      "inputs": [
        {
          "internalType": "uint256",
          "name": "newTxFee",
          "type": "uint256"
        },
        {
          "internalType": "address",
          "name": "newTxBeneficiary",
          "type": "address"
        }
      ],
      "name": "changeTxFeeProperties",
      "outputs": [],
      "stateMutability": "nonpayable",
      "type": "function"
    },
    {
      "inputs": [],
      "name": "decimals",
      "outputs": [
        {
          "internalType": "uint8",
          "name": "",
          "type": "uint8"
        }
      ],
      "stateMutability": "view",
      "type": "function"
    },
    {
      "inputs": [
        {
          "internalType": "address",
          "name": "spender",
          "type": "address"
        },
        {
          "internalType": "uint256",
          "name": "subtractedValue",
          "type": "uint256"
        }
      ],
      "name": "decreaseAllowance",
      "outputs": [
        {
          "internalType": "bool",
          "name": "",
          "type": "bool"
        }
      ],
      "stateMutability": "nonpayable",
      "type": "function"
    },
    {
      "inputs": [],
      "name": "getImplementation",
      "outputs": [
        {
          "internalType": "address",
          "name": "",
          "type": "address"
        }
      ],
      "stateMutability": "view",
      "type": "function"
    },
    {
      "inputs": [
        {
          "internalType": "bytes32",
          "name": "role",
          "type": "bytes32"
        }
      ],
      "name": "getRoleAdmin",
      "outputs": [
        {
          "internalType": "bytes32",
          "name": "",
          "type": "bytes32"
        }
      ],
      "stateMutability": "view",
      "type": "function"
    },
    {
      "inputs": [
        {
          "internalType": "bytes32",
          "name": "role",
          "type": "bytes32"
        },
        {
          "internalType": "address",
          "name": "account",
          "type": "address"
        }
      ],
      "name": "grantRole",
      "outputs": [],
      "stateMutability": "nonpayable",
      "type": "function"
    },
    {
      "inputs": [
        {
          "internalType": "bytes32",
          "name": "role",
          "type": "bytes32"
        },
        {
          "internalType": "address",
          "name": "account",
          "type": "address"
        }
      ],
      "name": "hasRole",
      "outputs": [
        {
          "internalType": "bool",
          "name": "",
          "type": "bool"
        }
      ],
      "stateMutability": "view",
      "type": "function"
    },
    {
      "inputs": [
        {
          "internalType": "address",
          "name": "spender",
          "type": "address"
        },
        {
          "internalType": "uint256",
          "name": "addedValue",
          "type": "uint256"
        }
      ],
      "name": "increaseAllowance",
      "outputs": [
        {
          "internalType": "bool",
          "name": "",
          "type": "bool"
        }
      ],
      "stateMutability": "nonpayable",
      "type": "function"
    },
    {
      "inputs": [
        {
          "internalType": "string",
          "name": "name_",
          "type": "string"
        },
        {
          "internalType": "string",
          "name": "symbol_",
          "type": "string"
        },
        {
          "internalType": "uint8",
          "name": "decimals_",
          "type": "uint8"
        },
        {
          "internalType": "uint256",
          "name": "amount_",
          "type": "uint256"
        },
        {
          "internalType": "uint256",
          "name": "txFee",
          "type": "uint256"
        },
        {
          "internalType": "address",
          "name": "txFeeBeneficiary",
          "type": "address"
        }
      ],
      "name": "initialize",
      "outputs": [],
      "stateMutability": "nonpayable",
      "type": "function"
    },
    {
      "inputs": [
        {
          "internalType": "address",
          "name": "account",
          "type": "address"
        },
        {
          "internalType": "uint256",
          "name": "amount",
          "type": "uint256"
        }
      ],
      "name": "mint",
      "outputs": [],
      "stateMutability": "nonpayable",
      "type": "function"
    },
    {
      "inputs": [],
      "name": "name",
      "outputs": [
        {
          "internalType": "string",
          "name": "",
          "type": "string"
        }
      ],
      "stateMutability": "view",
      "type": "function"
    },
    {
      "inputs": [
        {
          "internalType": "address",
          "name": "implementationAddress",
          "type": "address"
        }
      ],
      "name": "proposeNewImplementation",
      "outputs": [],
      "stateMutability": "nonpayable",
      "type": "function"
    },
    {
      "inputs": [
        {
          "internalType": "address[]",
          "name": "addresses",
          "type": "address[]"
        }
      ],
      "name": "removeAddressesFromBlacklist",
      "outputs": [],
      "stateMutability": "nonpayable",
      "type": "function"
    },
    {
      "inputs": [
        {
          "internalType": "bytes32",
          "name": "role",
          "type": "bytes32"
        },
        {
          "internalType": "address",
          "name": "account",
          "type": "address"
        }
      ],
      "name": "renounceRole",
      "outputs": [],
      "stateMutability": "nonpayable",
      "type": "function"
    },
    {
      "inputs": [
        {
          "internalType": "bytes32",
          "name": "role",
          "type": "bytes32"
        },
        {
          "internalType": "address",
          "name": "account",
          "type": "address"
        }
      ],
      "name": "revokeRole",
      "outputs": [],
      "stateMutability": "nonpayable",
      "type": "function"
    },
    {
      "inputs": [
        {
          "internalType": "bytes4",
          "name": "interfaceId",
          "type": "bytes4"
        }
      ],
      "name": "supportsInterface",
      "outputs": [
        {
          "internalType": "bool",
          "name": "",
          "type": "bool"
        }
      ],
      "stateMutability": "view",
      "type": "function"
    },
    {
      "inputs": [],
      "name": "symbol",
      "outputs": [
        {
          "internalType": "string",
          "name": "",
          "type": "string"
        }
      ],
      "stateMutability": "view",
      "type": "function"
    },
    {
      "inputs": [],
      "name": "totalSupply",
      "outputs": [
        {
          "internalType": "uint256",
          "name": "",
          "type": "uint256"
        }
      ],
      "stateMutability": "view",
      "type": "function"
    },
    {
      "inputs": [
        {
          "internalType": "address",
          "name": "recipient",
          "type": "address"
        },
        {
          "internalType": "uint256",
          "name": "amount",
          "type": "uint256"
        }
      ],
      "name": "transfer",
      "outputs": [
        {
          "internalType": "bool",
          "name": "",
          "type": "bool"
        }
      ],
      "stateMutability": "nonpayable",
      "type": "function"
    },
    {
      "inputs": [
        {
          "internalType": "address",
          "name": "sender",
          "type": "address"
        },
        {
          "internalType": "address",
          "name": "recipient",
          "type": "address"
        },
        {
          "internalType": "uint256",
          "name": "amount",
          "type": "uint256"
        }
      ],
      "name": "transferFrom",
      "outputs": [
        {
          "internalType": "bool",
          "name": "",
          "type": "bool"
        }
      ],
      "stateMutability": "nonpayable",
      "type": "function"
    },
    {
      "inputs": [
        {
          "internalType": "address",
          "name": "newImplementation",
          "type": "address"
        }
      ],
      "name": "upgradeTo",
      "outputs": [],
      "stateMutability": "nonpayable",
      "type": "function"
    },
    {
      "inputs": [
        {
          "internalType": "address",
          "name": "newImplementation",
          "type": "address"
        },
        {
          "internalType": "bytes",
          "name": "data",
          "type": "bytes"
        }
      ],
      "name": "upgradeToAndCall",
      "outputs": [],
      "stateMutability": "payable",
      "type": "function"
    }
  ],
  "bytecode": "0x60a06040523060601b60805234801561001757600080fd5b5060805160601c612aea61004b60003960008181610a6c01528181610aac01528181610bf20152610c320152612aea6000f3fe6080604052600436106102045760003560e01c806347757fb611610118578063a217fddf116100a0578063ca73419e1161006f578063ca73419e146105fa578063d53913931461061a578063d547741f1461064e578063dd62ed3e1461066e578063f36c8f5c146106b457600080fd5b8063a217fddf14610578578063a457c2d71461058d578063a9059cbb146105ad578063aaf10f42146105cd57600080fd5b80636ae459bd116100e75780636ae459bd146104cd57806370a08231146104ed57806379cc67901461052357806391d148541461054357806395d89b411461056357600080fd5b806347757fb6146104585780634f1ef286146104785780635120561a1461048b57806362b199c5146104ab57600080fd5b8063313ce5671161019b578063395093511161016a57806339509351146103b457806340c10f19146103d4578063410b2424146103f457806342966c681461041657806343ffa64e1461043657600080fd5b8063313ce56714610331578063322587941461035457806336568abe146103745780633659cfe61461039457600080fd5b806323b872dd116101d757806323b872dd1461029f578063248a9ca3146102bf5780632cd77a5a146102ef5780632f2ff15d1461031157600080fd5b806301ffc9a71461020957806306fdde031461023e578063095ea7b31461026057806318160ddd14610280575b600080fd5b34801561021557600080fd5b50610229610224366004612626565b6106d6565b60405190151581526020015b60405180910390f35b34801561024a57600080fd5b5061025361070d565b604051610235919061278c565b34801561026c57600080fd5b5061022961027b366004612512565b61079f565b34801561028c57600080fd5b506067545b604051908152602001610235565b3480156102ab57600080fd5b506102296102ba366004612414565b6107b5565b3480156102cb57600080fd5b506102916102da3660046125ea565b600090815260fb602052604090206001015490565b3480156102fb57600080fd5b5061030f61030a366004612650565b610866565b005b34801561031d57600080fd5b5061030f61032c366004612603565b6109c0565b34801561033d57600080fd5b506101605460405160ff9091168152602001610235565b34801561036057600080fd5b5061030f61036f36600461253c565b6109d8565b34801561038057600080fd5b5061030f61038f366004612603565b610a4d565b3480156103a057600080fd5b5061030f6103af3660046123c6565b610a61565b3480156103c057600080fd5b506102296103cf366004612512565b610b2a565b3480156103e057600080fd5b5061030f6103ef366004612512565b610b66565b34801561040057600080fd5b50610291600080516020612a4e83398151915281565b34801561042257600080fd5b5061030f6104313660046125ea565b610ba0565b34801561044257600080fd5b50610291600080516020612a0e83398151915281565b34801561046457600080fd5b5061030f6104733660046123c6565b610baa565b61030f610486366004612450565b610be7565b34801561049757600080fd5b5061030f6104a6366004612603565b610c9d565b3480156104b757600080fd5b506102916000805160206129ee83398151915281565b3480156104d957600080fd5b5061030f6104e836600461257e565b610d12565b3480156104f957600080fd5b506102916105083660046123c6565b6001600160a01b031660009081526065602052604090205490565b34801561052f57600080fd5b5061030f61053e366004612512565b610df1565b34801561054f57600080fd5b5061022961055e366004612603565b610e72565b34801561056f57600080fd5b50610253610e9d565b34801561058457600080fd5b50610291600081565b34801561059957600080fd5b506102296105a8366004612512565b610eac565b3480156105b957600080fd5b506102296105c8366004612512565b610f45565b3480156105d957600080fd5b506105e2610f52565b6040516001600160a01b039091168152602001610235565b34801561060657600080fd5b5061030f61061536600461253c565b610f61565b34801561062657600080fd5b506102917ff9424f4303d7f03683a025eb8885734ad99b47df7749d9b0a02cbc985809700b81565b34801561065a57600080fd5b5061030f610669366004612603565b610fd0565b34801561067a57600080fd5b506102916106893660046123e1565b6001600160a01b03918216600090815260666020908152604080832093909416825291909152205490565b3480156106c057600080fd5b50610291600080516020612a2e83398151915281565b60006001600160e01b03198216637965db0b60e01b148061070757506301ffc9a760e01b6001600160e01b03198316145b92915050565b60606068805461071c90612955565b80601f016020809104026020016040519081016040528092919081815260200182805461074890612955565b80156107955780601f1061076a57610100808354040283529160200191610795565b820191906000526020600020905b81548152906001019060200180831161077857829003601f168201915b5050505050905090565b60006107ac338484610ff6565b50600192915050565b60006107c284848461111a565b6001600160a01b03841660009081526066602090815260408083203384529091529020548281101561084c5760405162461bcd60e51b815260206004820152602860248201527f45524332303a207472616e7366657220616d6f756e74206578636565647320616044820152676c6c6f77616e636560c01b60648201526084015b60405180910390fd5b6108598533858403610ff6565b60019150505b9392505050565b600054610100900460ff166108815760005460ff1615610885565b303b155b6108e85760405162461bcd60e51b815260206004820152602e60248201527f496e697469616c697a61626c653a20636f6e747261637420697320616c72656160448201526d191e481a5b9a5d1a585b1a5e995960921b6064820152608401610843565b600054610100900460ff1615801561090a576000805461ffff19166101011790555b61098189898080601f01602080910402602001604051908101604052809392919081815260200183838082843760009201919091525050604080516020601f8d018190048102820181019092528b815292508b91508a90819084018382808284376000920191909152508a92508991506112f39050565b610989611336565b610991611336565b61099961135f565b6109a383836113ac565b80156109b5576000805461ff00191690555b505050505050505050565b6109ca828261143b565b6109d482826114ca565b5050565b600080516020612a4e8339815191526109f181336114f0565b60005b82811015610a4757610a356000805160206129ee833981519152858584818110610a2057610a206129c1565b905060200201602081019061066991906123c6565b80610a3f81612990565b9150506109f4565b50505050565b610a578282611554565b6109d482826115bc565b306001600160a01b037f0000000000000000000000000000000000000000000000000000000000000000161415610aaa5760405162461bcd60e51b8152600401610843906127bf565b7f00000000000000000000000000000000000000000000000000000000000000006001600160a01b0316610adc611636565b6001600160a01b031614610b025760405162461bcd60e51b81526004016108439061280b565b610b0b81611664565b60408051600080825260208201909252610b27918391906116e6565b50565b3360008181526066602090815260408083206001600160a01b038716845290915281205490916107ac918590610b619086906128a2565b610ff6565b7ff9424f4303d7f03683a025eb8885734ad99b47df7749d9b0a02cbc985809700b610b9181336114f0565b610b9b8383611831565b505050565b610b27338261191c565b600080516020612a2e833981519152610bc381336114f0565b5061012d80546001600160a01b0319166001600160a01b0392909216919091179055565b306001600160a01b037f0000000000000000000000000000000000000000000000000000000000000000161415610c305760405162461bcd60e51b8152600401610843906127bf565b7f00000000000000000000000000000000000000000000000000000000000000006001600160a01b0316610c62611636565b6001600160a01b031614610c885760405162461bcd60e51b81526004016108439061280b565b610c9182611664565b6109d4828260016116e6565b6000610ca981336114f0565b6001600160a01b038216610cbc57600080fd5b82600080516020612a6e83398151915255817fe38b16c806f019542b2d4bf356bb4ba2ea4b7eb450b8fbff2584f6084c4978f180546001600160a01b0319166001600160a01b0392909216919091179055505050565b7ff9424f4303d7f03683a025eb8885734ad99b47df7749d9b0a02cbc985809700b610d3d81336114f0565b838214610d845760405162461bcd60e51b8152602060048201526015602482015274082e4e4c2f240d8cadccee8d040dad2e6dac2e8c6d605b1b6044820152606401610843565b60005b84811015610de957610dd7868683818110610da457610da46129c1565b9050602002016020810190610db991906123c6565b858584818110610dcb57610dcb6129c1565b90506020020135611831565b80610de181612990565b915050610d87565b505050505050565b6000610dfd8333610689565b905081811015610e5b5760405162461bcd60e51b8152602060048201526024808201527f45524332303a206275726e20616d6f756e74206578636565647320616c6c6f77604482015263616e636560e01b6064820152608401610843565b610e688333848403610ff6565b610b9b838361191c565b600091825260fb602090815260408084206001600160a01b0393909316845291905290205460ff1690565b60606069805461071c90612955565b3360009081526066602090815260408083206001600160a01b038616845290915281205482811015610f2e5760405162461bcd60e51b815260206004820152602560248201527f45524332303a2064656372656173656420616c6c6f77616e63652062656c6f77604482015264207a65726f60d81b6064820152608401610843565b610f3b3385858403610ff6565b5060019392505050565b60006107ac33848461111a565b6000610f5c611636565b905090565b600080516020612a4e833981519152610f7a81336114f0565b60005b82811015610a4757610fbe6000805160206129ee833981519152858584818110610fa957610fa96129c1565b905060200201602081019061032c91906123c6565b80610fc881612990565b915050610f7d565b600082815260fb6020526040902060010154610fec81336114f0565b610b9b8383611a76565b6001600160a01b0383166110585760405162461bcd60e51b8152602060048201526024808201527f45524332303a20617070726f76652066726f6d20746865207a65726f206164646044820152637265737360e01b6064820152608401610843565b6001600160a01b0382166110b95760405162461bcd60e51b815260206004820152602260248201527f45524332303a20617070726f766520746f20746865207a65726f206164647265604482015261737360f01b6064820152608401610843565b6001600160a01b0383811660008181526066602090815260408083209487168084529482529182902085905590518481527f8c5be1e5ebec7d5bd14f71427d1e84f3dd0314c0f7b2291e5b200ac8c7c3b925910160405180910390a3505050565b6001600160a01b03831661117e5760405162461bcd60e51b815260206004820152602560248201527f45524332303a207472616e736665722066726f6d20746865207a65726f206164604482015264647265737360d81b6064820152608401610843565b6001600160a01b0382166111e05760405162461bcd60e51b815260206004820152602360248201527f45524332303a207472616e7366657220746f20746865207a65726f206164647260448201526265737360e81b6064820152608401610843565b6111eb838383611add565b6001600160a01b038316600090815260656020526040902054818110156112635760405162461bcd60e51b815260206004820152602660248201527f45524332303a207472616e7366657220616d6f756e7420657863656564732062604482015265616c616e636560d01b6064820152608401610843565b6001600160a01b0380851660009081526065602052604080822085850390559185168152908120805484929061129a9084906128a2565b92505081905550826001600160a01b0316846001600160a01b03167fddf252ad1be2c89b69c2b068fc378daa952ba7f163c4a11628f55a4df523b3ef846040516112e691815260200190565b60405180910390a3610a47565b600054610100900460ff1661131a5760405162461bcd60e51b815260040161084390612857565b611322611ae8565b61132c8484611b3f565b610a478282611b8d565b600054610100900460ff1661135d5760405162461bcd60e51b815260040161084390612857565b565b600054610100900460ff166113865760405162461bcd60e51b815260040161084390612857565b61135d6000805160206129ee833981519152600080516020612a4e833981519152611bce565b600054610100900460ff166113d35760405162461bcd60e51b815260040161084390612857565b6001600160a01b0381166113e657600080fd5b81600080516020612a6e83398151915255807fe38b16c806f019542b2d4bf356bb4ba2ea4b7eb450b8fbff2584f6084c4978f180546001600160a01b0319166001600160a01b03929092169190911790555050565b600080516020612a4e833981519152821480611455575081155b156109d4576114726000805160206129ee83398151915282610e72565b156109d45760405162461bcd60e51b815260206004820152602260248201527f63616e206e6f742061737369676e20726f6c6520746f20626c61636b6c697374604482015261195960f21b6064820152608401610843565b600082815260fb60205260409020600101546114e681336114f0565b610b9b8383611c19565b6114fa8282610e72565b6109d457611512816001600160a01b03166014611c9f565b61151d836020611c9f565b60405160200161152e929190612717565b60408051601f198184030181529082905262461bcd60e51b82526108439160040161278c565b6000805160206129ee8339815191528214156109d45760405162461bcd60e51b815260206004820152602160248201527f43616e206e6f742072656e6f756e636520626c61636b6c697374656420726f6c6044820152606560f81b6064820152608401610843565b6001600160a01b038116331461162c5760405162461bcd60e51b815260206004820152602f60248201527f416363657373436f6e74726f6c3a2063616e206f6e6c792072656e6f756e636560448201526e103937b632b9903337b91039b2b63360891b6064820152608401610843565b6109d48282611a76565b7f360894a13ba1a3210667c828492db98dca3e2076cc3735a920a3ca505d382bbc546001600160a01b031690565b61167c600080516020612a2e83398151915233610e72565b8061169a575061169a600080516020612a0e83398151915233610e72565b610b275760405162461bcd60e51b815260206004820152601d60248201527f4552524f523a2041646472657373206e6f7420617574686f72697a65640000006044820152606401610843565b60006116f0611636565b90506116fb84611e3b565b6000835111806117085750815b15611719576117178484611ee0565b505b7f4910fdfa16fed3260ed0e7147f7cc6da11a60208b5b9406d12a635614ffd9143805460ff1661182a57805460ff191660011781556040516001600160a01b038316602482015261179890869060440160408051601f198184030181529190526020810180516001600160e01b0316631b2ce7f360e11b179052611ee0565b50805460ff191681556117a9611636565b6001600160a01b0316826001600160a01b0316146118215760405162461bcd60e51b815260206004820152602f60248201527f45524331393637557067726164653a207570677261646520627265616b73206660448201526e75727468657220757067726164657360881b6064820152608401610843565b61182a85611fcb565b5050505050565b6001600160a01b0382166118875760405162461bcd60e51b815260206004820152601f60248201527f45524332303a206d696e7420746f20746865207a65726f2061646472657373006044820152606401610843565b61189360008383611add565b80606760008282546118a591906128a2565b90915550506001600160a01b038216600090815260656020526040812080548392906118d29084906128a2565b90915550506040518181526001600160a01b038316906000907fddf252ad1be2c89b69c2b068fc378daa952ba7f163c4a11628f55a4df523b3ef9060200160405180910390a35050565b6001600160a01b03821661197c5760405162461bcd60e51b815260206004820152602160248201527f45524332303a206275726e2066726f6d20746865207a65726f206164647265736044820152607360f81b6064820152608401610843565b61198882600083611add565b6001600160a01b038216600090815260656020526040902054818110156119fc5760405162461bcd60e51b815260206004820152602260248201527f45524332303a206275726e20616d6f756e7420657863656564732062616c616e604482015261636560f01b6064820152608401610843565b6001600160a01b0383166000908152606560205260408120838303905560678054849290611a2b9084906128fb565b90915550506040518281526000906001600160a01b038516907fddf252ad1be2c89b69c2b068fc378daa952ba7f163c4a11628f55a4df523b3ef9060200160405180910390a3505050565b611a808282610e72565b156109d457600082815260fb602090815260408083206001600160a01b0385168085529252808320805460ff1916905551339285917ff6391f5c32d9c69d2a47ea670b442974b53935d1edc7fd64eb21e047a839171b9190a45050565b610b9b83838361200b565b600054610100900460ff16611b0f5760405162461bcd60e51b815260040161084390612857565b611b17611336565b611b1f611336565b611b27611336565b611b2f611336565b611b37611336565b61135d612021565b600054610100900460ff16611b665760405162461bcd60e51b815260040161084390612857565b8151611b79906068906020850190612283565b508051610b9b906069906020840190612283565b600054610100900460ff16611bb45760405162461bcd60e51b815260040161084390612857565b610160805460ff191660ff84161790556109d43382611831565b600082815260fb6020526040808220600101805490849055905190918391839186917fbd79b86ffe0ab8e8776151514217cd7cacd52c909f66475c3af44e129f0b00ff9190a4505050565b611c238282610e72565b6109d457600082815260fb602090815260408083206001600160a01b03851684529091529020805460ff19166001179055611c5b3390565b6001600160a01b0316816001600160a01b0316837f2f8788117e7eff1d82e926ec794901d17c78024a50270940304540a733656f0d60405160405180910390a45050565b60606000611cae8360026128dc565b611cb99060026128a2565b67ffffffffffffffff811115611cd157611cd16129d7565b6040519080825280601f01601f191660200182016040528015611cfb576020820181803683370190505b509050600360fc1b81600081518110611d1657611d166129c1565b60200101906001600160f81b031916908160001a905350600f60fb1b81600181518110611d4557611d456129c1565b60200101906001600160f81b031916908160001a9053506000611d698460026128dc565b611d749060016128a2565b90505b6001811115611dec576f181899199a1a9b1b9c1cb0b131b232b360811b85600f1660108110611da857611da86129c1565b1a60f81b828281518110611dbe57611dbe6129c1565b60200101906001600160f81b031916908160001a90535060049490941c93611de58161293e565b9050611d77565b50831561085f5760405162461bcd60e51b815260206004820181905260248201527f537472696e67733a20686578206c656e67746820696e73756666696369656e746044820152606401610843565b803b611e9f5760405162461bcd60e51b815260206004820152602d60248201527f455243313936373a206e657720696d706c656d656e746174696f6e206973206e60448201526c1bdd08184818dbdb9d1c9858dd609a1b6064820152608401610843565b7f360894a13ba1a3210667c828492db98dca3e2076cc3735a920a3ca505d382bbc80546001600160a01b0319166001600160a01b0392909216919091179055565b6060823b611f3f5760405162461bcd60e51b815260206004820152602660248201527f416464726573733a2064656c65676174652063616c6c20746f206e6f6e2d636f6044820152651b9d1c9858dd60d21b6064820152608401610843565b600080846001600160a01b031684604051611f5a91906126fb565b600060405180830381855af49150503d8060008114611f95576040519150601f19603f3d011682016040523d82523d6000602084013e611f9a565b606091505b5091509150611fc28282604051806060016040528060278152602001612a8e602791396120a9565b95945050505050565b611fd481611e3b565b6040516001600160a01b038216907fbc7cd75a20ee27fd9adebab32041f755214dbc6bffa90cc0225b39da2e5c2d3b90600090a250565b6120168383836120e2565b610b9b83838361213a565b600054610100900460ff166120485760405162461bcd60e51b815260040161084390612857565b61205360003361221b565b61206b600080516020612a2e8339815191523361221b565b612083600080516020612a0e8339815191523361221b565b61135d600080516020612a0e833981519152600080516020612a2e833981519152611bce565b606083156120b857508161085f565b8251156120c85782518084602001fd5b8160405162461bcd60e51b8152600401610843919061278c565b6120ed338484612225565b15610b9b5760405162461bcd60e51b815260206004820152601a60248201527f4552524f523a204164647265737320426c61636b6c69737465640000000000006044820152606401610843565b600080516020612a6e833981519152547fe38b16c806f019542b2d4bf356bb4ba2ea4b7eb450b8fbff2584f6084c4978f1546001600160a01b03168115806121935750836001600160a01b0316816001600160a01b0316145b806121af5750846001600160a01b0316816001600160a01b0316145b806121c157506001600160a01b038516155b806121d357506001600160a01b038416155b156121df575050505050565b6000670de0b6b3a7640000600080516020612a6e8339815191525461220490866128dc565b61220e91906128ba565b9050610de986838361111a565b6109d48282611c19565b600061223f6000805160206129ee83398151915284610e72565b8061225d575061225d6000805160206129ee83398151915285610e72565b8061227b575061227b6000805160206129ee83398151915283610e72565b949350505050565b82805461228f90612955565b90600052602060002090601f0160209004810192826122b157600085556122f7565b82601f106122ca57805160ff19168380011785556122f7565b828001600101855582156122f7579182015b828111156122f75782518255916020019190600101906122dc565b50612303929150612307565b5090565b5b808211156123035760008155600101612308565b80356001600160a01b038116811461233357600080fd5b919050565b60008083601f84011261234a57600080fd5b50813567ffffffffffffffff81111561236257600080fd5b6020830191508360208260051b850101111561237d57600080fd5b9250929050565b60008083601f84011261239657600080fd5b50813567ffffffffffffffff8111156123ae57600080fd5b60208301915083602082850101111561237d57600080fd5b6000602082840312156123d857600080fd5b61085f8261231c565b600080604083850312156123f457600080fd5b6123fd8361231c565b915061240b6020840161231c565b90509250929050565b60008060006060848603121561242957600080fd5b6124328461231c565b92506124406020850161231c565b9150604084013590509250925092565b6000806040838503121561246357600080fd5b61246c8361231c565b9150602083013567ffffffffffffffff8082111561248957600080fd5b818501915085601f83011261249d57600080fd5b8135818111156124af576124af6129d7565b604051601f8201601f19908116603f011681019083821181831017156124d7576124d76129d7565b816040528281528860208487010111156124f057600080fd5b8260208601602083013760006020848301015280955050505050509250929050565b6000806040838503121561252557600080fd5b61252e8361231c565b946020939093013593505050565b6000806020838503121561254f57600080fd5b823567ffffffffffffffff81111561256657600080fd5b61257285828601612338565b90969095509350505050565b6000806000806040858703121561259457600080fd5b843567ffffffffffffffff808211156125ac57600080fd5b6125b888838901612338565b909650945060208701359150808211156125d157600080fd5b506125de87828801612338565b95989497509550505050565b6000602082840312156125fc57600080fd5b5035919050565b6000806040838503121561261657600080fd5b8235915061240b6020840161231c565b60006020828403121561263857600080fd5b81356001600160e01b03198116811461085f57600080fd5b60008060008060008060008060c0898b03121561266c57600080fd5b883567ffffffffffffffff8082111561268457600080fd5b6126908c838d01612384565b909a50985060208b01359150808211156126a957600080fd5b506126b68b828c01612384565b909750955050604089013560ff811681146126d057600080fd5b935060608901359250608089013591506126ec60a08a0161231c565b90509295985092959890939650565b6000825161270d818460208701612912565b9190910192915050565b7f416363657373436f6e74726f6c3a206163636f756e742000000000000000000081526000835161274f816017850160208801612912565b7001034b99036b4b9b9b4b733903937b6329607d1b6017918401918201528351612780816028840160208801612912565b01602801949350505050565b60208152600082518060208401526127ab816040850160208701612912565b601f01601f19169190910160400192915050565b6020808252602c908201527f46756e6374696f6e206d7573742062652063616c6c6564207468726f7567682060408201526b19195b1959d85d1958d85b1b60a21b606082015260800190565b6020808252602c908201527f46756e6374696f6e206d7573742062652063616c6c6564207468726f7567682060408201526b6163746976652070726f787960a01b606082015260800190565b6020808252602b908201527f496e697469616c697a61626c653a20636f6e7472616374206973206e6f74206960408201526a6e697469616c697a696e6760a81b606082015260800190565b600082198211156128b5576128b56129ab565b500190565b6000826128d757634e487b7160e01b600052601260045260246000fd5b500490565b60008160001904831182151516156128f6576128f66129ab565b500290565b60008282101561290d5761290d6129ab565b500390565b60005b8381101561292d578181015183820152602001612915565b83811115610a475750506000910152565b60008161294d5761294d6129ab565b506000190190565b600181811c9082168061296957607f821691505b6020821081141561298a57634e487b7160e01b600052602260045260246000fd5b50919050565b60006000198214156129a4576129a46129ab565b5060010190565b634e487b7160e01b600052601160045260246000fd5b634e487b7160e01b600052603260045260246000fd5b634e487b7160e01b600052604160045260246000fdfe548c7f0307ab2a7ea894e5c7e8c5353cc750bb9385ee2e945f189a9a83daa8eda76ace73a908083d89af9ff88e5b4f7cadb3591a80631063f68b695fda726db571840dc4906352362b0cdaf79870196c8e42acafade72d5d5a6d59291253ceb1f988e4fb62b8e14f4820fed03192306ddf4d7dbfa215595ba1c6ba4b76b369ee253122b26cc2118faf5fcfc7761bd75fcfb5508f1f48d1a40db694aba32af5d0416464726573733a206c6f772d6c6576656c2064656c65676174652063616c6c206661696c6564a26469706673582212206d5e843380422c5a6fd0b9ffe72abdcfa5743f2964fdc2335f5a466d458720ae64736f6c63430008060033",
  "linkReferences": {},
  "deployedLinkReferences": {}
}