{
  "_format": "hh-sol-artifact-1",
  "name": "BlacklistSnapshotTxFeeWhiteListTemplate",
  "initializer": "function initialize(string name_, string symbol_, uint8 decimals_, uint256 amount_, uint256 txFee, address txFeeBeneficiary)",
  "sourceName": "contracts/templates/BlacklistSnapshotTxFeeWhiteListTemplate.sol",
  "abi": [
    {
      "anonymous": false,
      "inputs": [
        {
          "indexed": false,
          "internalType": "address",
          "name": "previousAdmin",
          "type": "address"
        },
        {
          "indexed": false,
          "internalType": "address",
          "name": "newAdmin",
          "type": "address"
        }
      ],
      "name": "AdminChanged",
      "type": "event"
    },
    {
      "anonymous": false,
      "inputs": [
        {
          "indexed": true,
          "internalType": "address",
          "name": "owner",
          "type": "address"
        },
        {
          "indexed": true,
          "internalType": "address",
          "name": "spender",
          "type": "address"
        },
        {
          "indexed": false,
          "internalType": "uint256",
          "name": "value",
          "type": "uint256"
        }
      ],
      "name": "Approval",
      "type": "event"
    },
    {
      "anonymous": false,
      "inputs": [
        {
          "indexed": true,
          "internalType": "address",
          "name": "beacon",
          "type": "address"
        }
      ],
      "name": "BeaconUpgraded",
      "type": "event"
    },
    {
      "anonymous": false,
      "inputs": [
        {
          "indexed": false,
          "internalType": "address",
          "name": "account",
          "type": "address"
        }
      ],
      "name": "Paused",
      "type": "event"
    },
    {
      "anonymous": false,
      "inputs": [
        {
          "indexed": true,
          "internalType": "bytes32",
          "name": "role",
          "type": "bytes32"
        },
        {
          "indexed": true,
          "internalType": "bytes32",
          "name": "previousAdminRole",
          "type": "bytes32"
        },
        {
          "indexed": true,
          "internalType": "bytes32",
          "name": "newAdminRole",
          "type": "bytes32"
        }
      ],
      "name": "RoleAdminChanged",
      "type": "event"
    },
    {
      "anonymous": false,
      "inputs": [
        {
          "indexed": true,
          "internalType": "bytes32",
          "name": "role",
          "type": "bytes32"
        },
        {
          "indexed": true,
          "internalType": "address",
          "name": "account",
          "type": "address"
        },
        {
          "indexed": true,
          "internalType": "address",
          "name": "sender",
          "type": "address"
        }
      ],
      "name": "RoleGranted",
      "type": "event"
    },
    {
      "anonymous": false,
      "inputs": [
        {
          "indexed": true,
          "internalType": "bytes32",
          "name": "role",
          "type": "bytes32"
        },
        {
          "indexed": true,
          "internalType": "address",
          "name": "account",
          "type": "address"
        },
        {
          "indexed": true,
          "internalType": "address",
          "name": "sender",
          "type": "address"
        }
      ],
      "name": "RoleRevoked",
      "type": "event"
    },
    {
      "anonymous": false,
      "inputs": [
        {
          "indexed": false,
          "internalType": "uint256",
          "name": "id",
          "type": "uint256"
        }
      ],
      "name": "Snapshot",
      "type": "event"
    },
    {
      "anonymous": false,
      "inputs": [
        {
          "indexed": true,
          "internalType": "address",
          "name": "from",
          "type": "address"
        },
        {
          "indexed": true,
          "internalType": "address",
          "name": "to",
          "type": "address"
        },
        {
          "indexed": false,
          "internalType": "uint256",
          "name": "value",
          "type": "uint256"
        }
      ],
      "name": "Transfer",
      "type": "event"
    },
    {
      "anonymous": false,
      "inputs": [
        {
          "indexed": false,
          "internalType": "address",
          "name": "account",
          "type": "address"
        }
      ],
      "name": "Unpaused",
      "type": "event"
    },
    {
      "anonymous": false,
      "inputs": [
        {
          "indexed": true,
          "internalType": "address",
          "name": "implementation",
          "type": "address"
        }
      ],
      "name": "Upgraded",
      "type": "event"
    },
    {
      "inputs": [],
      "name": "BLACKLISTED_ROLE",
      "outputs": [
        {
          "internalType": "bytes32",
          "name": "",
          "type": "bytes32"
        }
      ],
      "stateMutability": "view",
      "type": "function"
    },
    {
      "inputs": [],
      "name": "BLACKLIST_MANAGER_ROLE",
      "outputs": [
        {
          "internalType": "bytes32",
          "name": "",
          "type": "bytes32"
        }
      ],
      "stateMutability": "view",
      "type": "function"
    },
    {
      "inputs": [],
      "name": "DEFAULT_ADMIN_ROLE",
      "outputs": [
        {
          "internalType": "bytes32",
          "name": "",
          "type": "bytes32"
        }
      ],
      "stateMutability": "view",
      "type": "function"
    },
    {
      "inputs": [],
      "name": "GOVERNANCE_ROLE",
      "outputs": [
        {
          "internalType": "bytes32",
          "name": "",
          "type": "bytes32"
        }
      ],
      "stateMutability": "view",
      "type": "function"
    },
    {
      "inputs": [],
      "name": "PAUSE_MANAGER_ROLE",
      "outputs": [
        {
          "internalType": "bytes32",
          "name": "",
          "type": "bytes32"
        }
      ],
      "stateMutability": "view",
      "type": "function"
    },
    {
      "inputs": [],
      "name": "UPGRADE_MANAGER_ROLE",
      "outputs": [
        {
          "internalType": "bytes32",
          "name": "",
          "type": "bytes32"
        }
      ],
      "stateMutability": "view",
      "type": "function"
    },
    {
      "inputs": [],
      "name": "WHITELISTED_FROM_ROLE",
      "outputs": [
        {
          "internalType": "bytes32",
          "name": "",
          "type": "bytes32"
        }
      ],
      "stateMutability": "view",
      "type": "function"
    },
    {
      "inputs": [],
      "name": "WHITELISTED_SENDER_ROLE",
      "outputs": [
        {
          "internalType": "bytes32",
          "name": "",
          "type": "bytes32"
        }
      ],
      "stateMutability": "view",
      "type": "function"
    },
    {
      "inputs": [
        {
          "internalType": "address[]",
          "name": "addresses",
          "type": "address[]"
        }
      ],
      "name": "addAddressesToBlacklist",
      "outputs": [],
      "stateMutability": "nonpayable",
      "type": "function"
    },
    {
      "inputs": [
        {
          "internalType": "address[]",
          "name": "addresses",
          "type": "address[]"
        }
      ],
      "name": "addAddressesToWhitelistFrom",
      "outputs": [],
      "stateMutability": "nonpayable",
      "type": "function"
    },
    {
      "inputs": [
        {
          "internalType": "address[]",
          "name": "addresses",
          "type": "address[]"
        }
      ],
      "name": "addAddressesToWhitelistSender",
      "outputs": [],
      "stateMutability": "nonpayable",
      "type": "function"
    },
    {
      "inputs": [
        {
          "internalType": "address",
          "name": "owner",
          "type": "address"
        },
        {
          "internalType": "address",
          "name": "spender",
          "type": "address"
        }
      ],
      "name": "allowance",
      "outputs": [
        {
          "internalType": "uint256",
          "name": "",
          "type": "uint256"
        }
      ],
      "stateMutability": "view",
      "type": "function"
    },
    {
      "inputs": [
        {
          "internalType": "address",
          "name": "spender",
          "type": "address"
        },
        {
          "internalType": "uint256",
          "name": "amount",
          "type": "uint256"
        }
      ],
      "name": "approve",
      "outputs": [
        {
          "internalType": "bool",
          "name": "",
          "type": "bool"
        }
      ],
      "stateMutability": "nonpayable",
      "type": "function"
    },
    {
      "inputs": [
        {
          "internalType": "address",
          "name": "account",
          "type": "address"
        }
      ],
      "name": "balanceOf",
      "outputs": [
        {
          "internalType": "uint256",
          "name": "",
          "type": "uint256"
        }
      ],
      "stateMutability": "view",
      "type": "function"
    },
    {
      "inputs": [
        {
          "internalType": "address",
          "name": "account",
          "type": "address"
        },
        {
          "internalType": "uint256",
          "name": "snapshotId",
          "type": "uint256"
        }
      ],
      "name": "balanceOfAt",
      "outputs": [
        {
          "internalType": "uint256",
          "name": "",
          "type": "uint256"
        }
      ],
      "stateMutability": "view",
      "type": "function"
    },
    {
      "inputs": [
        {
          "internalType": "uint256",
          "name": "newTxFee",
          "type": "uint256"
        },
        {
          "internalType": "address",
          "name": "newTxBeneficiary",
          "type": "address"
        }
      ],
      "name": "changeTxFeeProperties",
      "outputs": [],
      "stateMutability": "nonpayable",
      "type": "function"
    },
    {
      "inputs": [],
      "name": "decimals",
      "outputs": [
        {
          "internalType": "uint8",
          "name": "",
          "type": "uint8"
        }
      ],
      "stateMutability": "view",
      "type": "function"
    },
    {
      "inputs": [
        {
          "internalType": "address",
          "name": "spender",
          "type": "address"
        },
        {
          "internalType": "uint256",
          "name": "subtractedValue",
          "type": "uint256"
        }
      ],
      "name": "decreaseAllowance",
      "outputs": [
        {
          "internalType": "bool",
          "name": "",
          "type": "bool"
        }
      ],
      "stateMutability": "nonpayable",
      "type": "function"
    },
    {
      "inputs": [],
      "name": "getCurrentSnapshotId",
      "outputs": [
        {
          "internalType": "uint256",
          "name": "",
          "type": "uint256"
        }
      ],
      "stateMutability": "view",
      "type": "function"
    },
    {
      "inputs": [],
      "name": "getImplementation",
      "outputs": [
        {
          "internalType": "address",
          "name": "",
          "type": "address"
        }
      ],
      "stateMutability": "view",
      "type": "function"
    },
    {
      "inputs": [
        {
          "internalType": "bytes32",
          "name": "role",
          "type": "bytes32"
        }
      ],
      "name": "getRoleAdmin",
      "outputs": [
        {
          "internalType": "bytes32",
          "name": "",
          "type": "bytes32"
        }
      ],
      "stateMutability": "view",
      "type": "function"
    },
    {
      "inputs": [
        {
          "internalType": "bytes32",
          "name": "role",
          "type": "bytes32"
        },
        {
          "internalType": "address",
          "name": "account",
          "type": "address"
        }
      ],
      "name": "grantRole",
      "outputs": [],
      "stateMutability": "nonpayable",
      "type": "function"
    },
    {
      "inputs": [
        {
          "internalType": "bytes32",
          "name": "role",
          "type": "bytes32"
        },
        {
          "internalType": "address",
          "name": "account",
          "type": "address"
        }
      ],
      "name": "hasRole",
      "outputs": [
        {
          "internalType": "bool",
          "name": "",
          "type": "bool"
        }
      ],
      "stateMutability": "view",
      "type": "function"
    },
    {
      "inputs": [
        {
          "internalType": "address",
          "name": "spender",
          "type": "address"
        },
        {
          "internalType": "uint256",
          "name": "addedValue",
          "type": "uint256"
        }
      ],
      "name": "increaseAllowance",
      "outputs": [
        {
          "internalType": "bool",
          "name": "",
          "type": "bool"
        }
      ],
      "stateMutability": "nonpayable",
      "type": "function"
    },
    {
      "inputs": [
        {
          "internalType": "string",
          "name": "name_",
          "type": "string"
        },
        {
          "internalType": "string",
          "name": "symbol_",
          "type": "string"
        },
        {
          "internalType": "uint8",
          "name": "decimals_",
          "type": "uint8"
        },
        {
          "internalType": "uint256",
          "name": "amount_",
          "type": "uint256"
        },
        {
          "internalType": "uint256",
          "name": "txFee",
          "type": "uint256"
        },
        {
          "internalType": "address",
          "name": "txFeeBeneficiary",
          "type": "address"
        }
      ],
      "name": "initialize",
      "outputs": [],
      "stateMutability": "nonpayable",
      "type": "function"
    },
    {
      "inputs": [],
      "name": "name",
      "outputs": [
        {
          "internalType": "string",
          "name": "",
          "type": "string"
        }
      ],
      "stateMutability": "view",
      "type": "function"
    },
    {
      "inputs": [],
      "name": "pause",
      "outputs": [],
      "stateMutability": "nonpayable",
      "type": "function"
    },
    {
      "inputs": [],
      "name": "paused",
      "outputs": [
        {
          "internalType": "bool",
          "name": "",
          "type": "bool"
        }
      ],
      "stateMutability": "view",
      "type": "function"
    },
    {
      "inputs": [
        {
          "internalType": "address",
          "name": "implementationAddress",
          "type": "address"
        }
      ],
      "name": "proposeNewImplementation",
      "outputs": [],
      "stateMutability": "nonpayable",
      "type": "function"
    },
    {
      "inputs": [
        {
          "internalType": "address[]",
          "name": "addresses",
          "type": "address[]"
        }
      ],
      "name": "removeAddressesFromBlacklist",
      "outputs": [],
      "stateMutability": "nonpayable",
      "type": "function"
    },
    {
      "inputs": [
        {
          "internalType": "address[]",
          "name": "addresses",
          "type": "address[]"
        }
      ],
      "name": "removeAddressesFromWhitelistFrom",
      "outputs": [],
      "stateMutability": "nonpayable",
      "type": "function"
    },
    {
      "inputs": [
        {
          "internalType": "address[]",
          "name": "addresses",
          "type": "address[]"
        }
      ],
      "name": "removeAddressesFromWhitelistSender",
      "outputs": [],
      "stateMutability": "nonpayable",
      "type": "function"
    },
    {
      "inputs": [
        {
          "internalType": "bytes32",
          "name": "role",
          "type": "bytes32"
        },
        {
          "internalType": "address",
          "name": "account",
          "type": "address"
        }
      ],
      "name": "renounceRole",
      "outputs": [],
      "stateMutability": "nonpayable",
      "type": "function"
    },
    {
      "inputs": [
        {
          "internalType": "bytes32",
          "name": "role",
          "type": "bytes32"
        },
        {
          "internalType": "address",
          "name": "account",
          "type": "address"
        }
      ],
      "name": "revokeRole",
      "outputs": [],
      "stateMutability": "nonpayable",
      "type": "function"
    },
    {
      "inputs": [],
      "name": "snapshot",
      "outputs": [],
      "stateMutability": "nonpayable",
      "type": "function"
    },
    {
      "inputs": [
        {
          "internalType": "bytes4",
          "name": "interfaceId",
          "type": "bytes4"
        }
      ],
      "name": "supportsInterface",
      "outputs": [
        {
          "internalType": "bool",
          "name": "",
          "type": "bool"
        }
      ],
      "stateMutability": "view",
      "type": "function"
    },
    {
      "inputs": [],
      "name": "symbol",
      "outputs": [
        {
          "internalType": "string",
          "name": "",
          "type": "string"
        }
      ],
      "stateMutability": "view",
      "type": "function"
    },
    {
      "inputs": [],
      "name": "totalSupply",
      "outputs": [
        {
          "internalType": "uint256",
          "name": "",
          "type": "uint256"
        }
      ],
      "stateMutability": "view",
      "type": "function"
    },
    {
      "inputs": [
        {
          "internalType": "uint256",
          "name": "snapshotId",
          "type": "uint256"
        }
      ],
      "name": "totalSupplyAt",
      "outputs": [
        {
          "internalType": "uint256",
          "name": "",
          "type": "uint256"
        }
      ],
      "stateMutability": "view",
      "type": "function"
    },
    {
      "inputs": [
        {
          "internalType": "address",
          "name": "recipient",
          "type": "address"
        },
        {
          "internalType": "uint256",
          "name": "amount",
          "type": "uint256"
        }
      ],
      "name": "transfer",
      "outputs": [
        {
          "internalType": "bool",
          "name": "",
          "type": "bool"
        }
      ],
      "stateMutability": "nonpayable",
      "type": "function"
    },
    {
      "inputs": [
        {
          "internalType": "address",
          "name": "sender",
          "type": "address"
        },
        {
          "internalType": "address",
          "name": "recipient",
          "type": "address"
        },
        {
          "internalType": "uint256",
          "name": "amount",
          "type": "uint256"
        }
      ],
      "name": "transferFrom",
      "outputs": [
        {
          "internalType": "bool",
          "name": "",
          "type": "bool"
        }
      ],
      "stateMutability": "nonpayable",
      "type": "function"
    },
    {
      "inputs": [],
      "name": "unpause",
      "outputs": [],
      "stateMutability": "nonpayable",
      "type": "function"
    },
    {
      "inputs": [
        {
          "internalType": "address",
          "name": "newImplementation",
          "type": "address"
        }
      ],
      "name": "upgradeTo",
      "outputs": [],
      "stateMutability": "nonpayable",
      "type": "function"
    },
    {
      "inputs": [
        {
          "internalType": "address",
          "name": "newImplementation",
          "type": "address"
        },
        {
          "internalType": "bytes",
          "name": "data",
          "type": "bytes"
        }
      ],
      "name": "upgradeToAndCall",
      "outputs": [],
      "stateMutability": "payable",
      "type": "function"
    }
  ],
  "bytecode": "0x60a06040523060601b60805234801561001757600080fd5b5060805160601c61327b61004b60003960008181610b4501528181610b8501528181610d4d0152610d8d015261327b6000f3fe6080604052600436106102675760003560e01c806362b199c511610144578063a457c2d7116100b6578063ca73419e1161007a578063ca73419e1461073a578063d547741f1461075a578063d84f91e81461077a578063dd62ed3e1461079c578063f36c8f5c146107e2578063f834c5021461080457600080fd5b8063a457c2d71461068b578063a9059cbb146106ab578063aa74a34a146106cb578063aaf10f42146106ed578063c233f3b71461071a57600080fd5b80638456cb59116101085780638456cb59146105f757806391d148541461060c57806395d89b411461062c5780639711715a14610641578063981b24d014610656578063a217fddf1461067657600080fd5b806362b199c51461053d578063685ed81a1461055f5780636e79a1c01461057f57806370a082311461059f578063731ce8fc146105d557600080fd5b80633659cfe6116101dd57806347757fb6116101a157806347757fb6146104905780634ee2cd7e146104b05780634f1ef286146104d05780635120561a146104e35780635439ad86146105035780635c975abb1461051857600080fd5b80633659cfe6146103f757806339509351146104175780633f4ba83a14610437578063410b24241461044c57806343ffa64e1461046e57600080fd5b8063248a9ca31161022f578063248a9ca3146103225780632cd77a5a146103525780632f2ff15d14610374578063313ce5671461039457806332258794146103b757806336568abe146103d757600080fd5b806301ffc9a71461026c57806306fdde03146102a1578063095ea7b3146102c357806318160ddd146102e357806323b872dd14610302575b600080fd5b34801561027857600080fd5b5061028c610287366004612d29565b610824565b60405190151581526020015b60405180910390f35b3480156102ad57600080fd5b506102b661085b565b6040516102989190612e83565b3480156102cf57600080fd5b5061028c6102de366004612c4e565b6108ed565b3480156102ef57600080fd5b506067545b604051908152602001610298565b34801561030e57600080fd5b5061028c61031d366004612bb0565b610903565b34801561032e57600080fd5b506102f461033d366004612ced565b600090815260fb602052604090206001015490565b34801561035e57600080fd5b5061037261036d366004612d53565b6109b4565b005b34801561038057600080fd5b5061037261038f366004612d06565b610a99565b3480156103a057600080fd5b506101605460405160ff9091168152602001610298565b3480156103c357600080fd5b506103726103d2366004612c78565b610ab1565b3480156103e357600080fd5b506103726103f2366004612d06565b610b26565b34801561040357600080fd5b50610372610412366004612b62565b610b3a565b34801561042357600080fd5b5061028c610432366004612c4e565b610c03565b34801561044357600080fd5b50610372610c3f565b34801561045857600080fd5b506102f460008051602061315f83398151915281565b34801561047a57600080fd5b506102f460008051602061311f83398151915281565b34801561049c57600080fd5b506103726104ab366004612b62565b610c60565b3480156104bc57600080fd5b506102f46104cb366004612c4e565b610c9d565b6103726104de366004612bec565b610d42565b3480156104ef57600080fd5b506103726104fe366004612d06565b610df8565b34801561050f57600080fd5b506102f4610e6d565b34801561052457600080fd5b506000805160206132068339815191525460ff1661028c565b34801561054957600080fd5b506102f46000805160206130ff83398151915281565b34801561056b57600080fd5b5061037261057a366004612c78565b610e8a565b34801561058b57600080fd5b5061037261059a366004612c78565b610ef9565b3480156105ab57600080fd5b506102f46105ba366004612b62565b6001600160a01b031660009081526065602052604090205490565b3480156105e157600080fd5b506102f460008051602061322683398151915281565b34801561060357600080fd5b50610372610f53565b34801561061857600080fd5b5061028c610627366004612d06565b610f74565b34801561063857600080fd5b506102b6610f9f565b34801561064d57600080fd5b50610372610fae565b34801561066257600080fd5b506102f4610671366004612ced565b610fb6565b34801561068257600080fd5b506102f4600081565b34801561069757600080fd5b5061028c6106a6366004612c4e565b611021565b3480156106b757600080fd5b5061028c6106c6366004612c4e565b6110ba565b3480156106d757600080fd5b506102f46000805160206130df83398151915281565b3480156106f957600080fd5b506107026110c7565b6040516001600160a01b039091168152602001610298565b34801561072657600080fd5b50610372610735366004612c78565b6110d1565b34801561074657600080fd5b50610372610755366004612c78565b61112b565b34801561076657600080fd5b50610372610775366004612d06565b611185565b34801561078657600080fd5b506102f46000805160206131c683398151915281565b3480156107a857600080fd5b506102f46107b7366004612b7d565b6001600160a01b03918216600090815260666020908152604080832093909416825291909152205490565b3480156107ee57600080fd5b506102f460008051602061313f83398151915281565b34801561081057600080fd5b5061037261081f366004612c78565b6111b0565b60006001600160e01b03198216637965db0b60e01b148061085557506301ffc9a760e01b6001600160e01b03198316145b92915050565b60606068805461086a9061304c565b80601f01602080910402602001604051908101604052809291908181526020018280546108969061304c565b80156108e35780601f106108b8576101008083540402835291602001916108e3565b820191906000526020600020905b8154815290600101906020018083116108c657829003601f168201915b5050505050905090565b60006108fa33848461120a565b50600192915050565b600061091084848461132e565b6001600160a01b03841660009081526066602090815260408083203384529091529020548281101561099a5760405162461bcd60e51b815260206004820152602860248201527f45524332303a207472616e7366657220616d6f756e74206578636565647320616044820152676c6c6f77616e636560c01b60648201526084015b60405180910390fd5b6109a7853385840361120a565b60019150505b9392505050565b600054610100900460ff166109cf5760005460ff16156109d3565b303b155b610a365760405162461bcd60e51b815260206004820152602e60248201527f496e697469616c697a61626c653a20636f6e747261637420697320616c72656160448201526d191e481a5b9a5d1a585b1a5e995960921b6064820152608401610991565b600054610100900460ff16158015610a58576000805461ffff19166101011790555b610a6487878787611507565b610a6c61154a565b610a74611599565b610a7e838361160c565b8015610a90576000805461ff00191690555b50505050505050565b610aa3828261169b565b610aad828261172a565b5050565b60008051602061315f833981519152610aca8133611750565b60005b82811015610b2057610b0e6000805160206130ff833981519152858584818110610af957610af96130b2565b90506020020160208101906107759190612b62565b80610b1881613081565b915050610acd565b50505050565b610b3082826117b4565b610aad828261181c565b306001600160a01b037f0000000000000000000000000000000000000000000000000000000000000000161415610b835760405162461bcd60e51b815260040161099190612eb6565b7f00000000000000000000000000000000000000000000000000000000000000006001600160a01b0316610bb5611896565b6001600160a01b031614610bdb5760405162461bcd60e51b815260040161099190612f02565b610be4816118c4565b60408051600080825260208201909252610c0091839190611946565b50565b3360008181526066602090815260408083206001600160a01b038716845290915281205490916108fa918590610c3a908690612f99565b61120a565b6000805160206131c6833981519152610c588133611750565b610c00611a91565b60008051602061313f833981519152610c798133611750565b5061012d80546001600160a01b0319166001600160a01b0392909216919091179055565b604080516001600160a01b0384166020808301919091527ffbf1c7065455eb4486649b8540f24ef2dd4ebedf2aa423f0039d17c2c75dea15828401528251808303840181526060909201909252805191012060009081610cfe826001612f99565b9050600080610d0e868585611b3e565b9150915081610d35576001600160a01b038716600090815260656020526040902054610d37565b805b979650505050505050565b306001600160a01b037f0000000000000000000000000000000000000000000000000000000000000000161415610d8b5760405162461bcd60e51b815260040161099190612eb6565b7f00000000000000000000000000000000000000000000000000000000000000006001600160a01b0316610dbd611896565b6001600160a01b031614610de35760405162461bcd60e51b815260040161099190612f02565b610dec826118c4565b610aad82826001611946565b6000610e048133611750565b6001600160a01b038216610e1757600080fd5b8260008051602061317f83398151915255817fe38b16c806f019542b2d4bf356bb4ba2ea4b7eb450b8fbff2584f6084c4978f180546001600160a01b0319166001600160a01b0392909216919091179055505050565b6000610e856000805160206131e68339815191525490565b905090565b6000805160206131c6833981519152610ea38133611750565b60005b82811015610b2057610ee76000805160206130df833981519152858584818110610ed257610ed26130b2565b905060200201602081019061038f9190612b62565b80610ef181613081565b915050610ea6565b6000805160206131c6833981519152610f128133611750565b60005b82811015610b2057610f41600080516020613226833981519152858584818110610af957610af96130b2565b80610f4b81613081565b915050610f15565b6000805160206131c6833981519152610f6c8133611750565b610c00611c29565b600091825260fb602090815260408084206001600160a01b0393909316845291905290205460ff1690565b60606069805461086a9061304c565b610c00611cbd565b6000806000611006847f286a9db37a0f8ddcbcee127c9f4f56031230f49cb46786f87e166d552e11f67e7ffcaa8bb100d3c5b627eac0369cc1d2778dbeffa2993d08f039fb27795729e9a5611b3e565b915091508161101757606754611019565b805b949350505050565b3360009081526066602090815260408083206001600160a01b0386168452909152812054828110156110a35760405162461bcd60e51b815260206004820152602560248201527f45524332303a2064656372656173656420616c6c6f77616e63652062656c6f77604482015264207a65726f60d81b6064820152608401610991565b6110b0338585840361120a565b5060019392505050565b60006108fa33848461132e565b6000610e85611896565b6000805160206131c68339815191526110ea8133611750565b60005b82811015610b20576111196000805160206130df833981519152858584818110610af957610af96130b2565b8061112381613081565b9150506110ed565b60008051602061315f8339815191526111448133611750565b60005b82811015610b20576111736000805160206130ff833981519152858584818110610ed257610ed26130b2565b8061117d81613081565b915050611147565b600082815260fb60205260409020600101546111a18133611750565b6111ab8383611d2d565b505050565b6000805160206131c68339815191526111c98133611750565b60005b82811015610b20576111f8600080516020613226833981519152858584818110610ed257610ed26130b2565b8061120281613081565b9150506111cc565b6001600160a01b03831661126c5760405162461bcd60e51b8152602060048201526024808201527f45524332303a20617070726f76652066726f6d20746865207a65726f206164646044820152637265737360e01b6064820152608401610991565b6001600160a01b0382166112cd5760405162461bcd60e51b815260206004820152602260248201527f45524332303a20617070726f766520746f20746865207a65726f206164647265604482015261737360f01b6064820152608401610991565b6001600160a01b0383811660008181526066602090815260408083209487168084529482529182902085905590518481527f8c5be1e5ebec7d5bd14f71427d1e84f3dd0314c0f7b2291e5b200ac8c7c3b925910160405180910390a3505050565b6001600160a01b0383166113925760405162461bcd60e51b815260206004820152602560248201527f45524332303a207472616e736665722066726f6d20746865207a65726f206164604482015264647265737360d81b6064820152608401610991565b6001600160a01b0382166113f45760405162461bcd60e51b815260206004820152602360248201527f45524332303a207472616e7366657220746f20746865207a65726f206164647260448201526265737360e81b6064820152608401610991565b6113ff838383611d94565b6001600160a01b038316600090815260656020526040902054818110156114775760405162461bcd60e51b815260206004820152602660248201527f45524332303a207472616e7366657220616d6f756e7420657863656564732062604482015265616c616e636560d01b6064820152608401610991565b6001600160a01b038085166000908152606560205260408082208585039055918516815290812080548492906114ae908490612f99565b92505081905550826001600160a01b0316846001600160a01b03167fddf252ad1be2c89b69c2b068fc378daa952ba7f163c4a11628f55a4df523b3ef846040516114fa91815260200190565b60405180910390a3610b20565b600054610100900460ff1661152e5760405162461bcd60e51b815260040161099190612f4e565b611536611daa565b6115408484611e01565b610b208282611e4f565b600054610100900460ff166115715760405162461bcd60e51b815260040161099190612f4e565b6115976000805160206130ff83398151915260008051602061315f833981519152611e90565b565b600054610100900460ff166115c05760405162461bcd60e51b815260040161099190612f4e565b6115e66000805160206132268339815191526000805160206131c6833981519152611e90565b6115976000805160206130df8339815191526000805160206131c6833981519152611e90565b600054610100900460ff166116335760405162461bcd60e51b815260040161099190612f4e565b6001600160a01b03811661164657600080fd5b8160008051602061317f83398151915255807fe38b16c806f019542b2d4bf356bb4ba2ea4b7eb450b8fbff2584f6084c4978f180546001600160a01b0319166001600160a01b03929092169190911790555050565b60008051602061315f8339815191528214806116b5575081155b15610aad576116d26000805160206130ff83398151915282610f74565b15610aad5760405162461bcd60e51b815260206004820152602260248201527f63616e206e6f742061737369676e20726f6c6520746f20626c61636b6c697374604482015261195960f21b6064820152608401610991565b600082815260fb60205260409020600101546117468133611750565b6111ab8383611edb565b61175a8282610f74565b610aad57611772816001600160a01b03166014611f61565b61177d836020611f61565b60405160200161178e929190612e0e565b60408051601f198184030181529082905262461bcd60e51b825261099191600401612e83565b6000805160206130ff833981519152821415610aad5760405162461bcd60e51b815260206004820152602160248201527f43616e206e6f742072656e6f756e636520626c61636b6c697374656420726f6c6044820152606560f81b6064820152608401610991565b6001600160a01b038116331461188c5760405162461bcd60e51b815260206004820152602f60248201527f416363657373436f6e74726f6c3a2063616e206f6e6c792072656e6f756e636560448201526e103937b632b9903337b91039b2b63360891b6064820152608401610991565b610aad8282611d2d565b7f360894a13ba1a3210667c828492db98dca3e2076cc3735a920a3ca505d382bbc546001600160a01b031690565b6118dc60008051602061313f83398151915233610f74565b806118fa57506118fa60008051602061311f83398151915233610f74565b610c005760405162461bcd60e51b815260206004820152601d60248201527f4552524f523a2041646472657373206e6f7420617574686f72697a65640000006044820152606401610991565b6000611950611896565b905061195b846120fd565b6000835111806119685750815b156119795761197784846121a2565b505b7f4910fdfa16fed3260ed0e7147f7cc6da11a60208b5b9406d12a635614ffd9143805460ff16611a8a57805460ff191660011781556040516001600160a01b03831660248201526119f890869060440160408051601f198184030181529190526020810180516001600160e01b0316631b2ce7f360e11b1790526121a2565b50805460ff19168155611a09611896565b6001600160a01b0316826001600160a01b031614611a815760405162461bcd60e51b815260206004820152602f60248201527f45524331393637557067726164653a207570677261646520627265616b73206660448201526e75727468657220757067726164657360881b6064820152608401610991565b611a8a8561228d565b5050505050565b6000805160206132068339815191525460ff16611ae75760405162461bcd60e51b815260206004820152601460248201527314185d5cd8589b194e881b9bdd081c185d5cd95960621b6044820152606401610991565b600080516020613206833981519152805460ff191690557f5db9ee0a495bf2e6ff9c91a7834c1ba4fdd244a5e8aa4e537bd38aeae4b073aa335b6040516001600160a01b03909116815260200160405180910390a1565b60008060008511611b8a5760405162461bcd60e51b815260206004820152601660248201527504552433230536e617073686f743a20696420697320360541b6044820152606401610991565b6000805160206131e683398151915254851115611be95760405162461bcd60e51b815260206004820152601d60248201527f4552433230536e617073686f743a206e6f6e6578697374656e742069640000006044820152606401610991565b6000611bf585876122cd565b90508454811415611c0d576000809250925050611c21565b6001611c19858361236c565b549093509150505b935093915050565b6000805160206132068339815191525460ff1615611c7c5760405162461bcd60e51b815260206004820152601060248201526f14185d5cd8589b194e881c185d5cd95960821b6044820152606401610991565b600080516020613206833981519152805460ff191660011790557f62e78cea01bee320cd4e420270b5ea74000d11b0c9f74754ebdbfc544b05a25833611b21565b600060016000805160206131e68339815191528054600090611ce0908490612f99565b90915550506000805160206131e6833981519152546040518181527f8030e83b04d87bef53480e26263266d6ca66863aa8506aca6f2559d18aa1cb679060200160405180910390a1919050565b611d378282610f74565b15610aad57600082815260fb602090815260408083206001600160a01b0385168085529252808320805460ff1916905551339285917ff6391f5c32d9c69d2a47ea670b442974b53935d1edc7fd64eb21e047a839171b9190a45050565b611d9f8383836123eb565b6111ab838383612417565b600054610100900460ff16611dd15760405162461bcd60e51b815260040161099190612f4e565b611dd961245f565b611de161245f565b611de961245f565b611df161245f565b611df961245f565b611597612486565b600054610100900460ff16611e285760405162461bcd60e51b815260040161099190612f4e565b8151611e3b906068906020850190612a17565b5080516111ab906069906020840190612a17565b600054610100900460ff16611e765760405162461bcd60e51b815260040161099190612f4e565b610160805460ff191660ff8416179055610aad338261250e565b600082815260fb6020526040808220600101805490849055905190918391839186917fbd79b86ffe0ab8e8776151514217cd7cacd52c909f66475c3af44e129f0b00ff9190a4505050565b611ee58282610f74565b610aad57600082815260fb602090815260408083206001600160a01b03851684529091529020805460ff19166001179055611f1d3390565b6001600160a01b0316816001600160a01b0316837f2f8788117e7eff1d82e926ec794901d17c78024a50270940304540a733656f0d60405160405180910390a45050565b60606000611f70836002612fd3565b611f7b906002612f99565b67ffffffffffffffff811115611f9357611f936130c8565b6040519080825280601f01601f191660200182016040528015611fbd576020820181803683370190505b509050600360fc1b81600081518110611fd857611fd86130b2565b60200101906001600160f81b031916908160001a905350600f60fb1b81600181518110612007576120076130b2565b60200101906001600160f81b031916908160001a905350600061202b846002612fd3565b612036906001612f99565b90505b60018111156120ae576f181899199a1a9b1b9c1cb0b131b232b360811b85600f166010811061206a5761206a6130b2565b1a60f81b828281518110612080576120806130b2565b60200101906001600160f81b031916908160001a90535060049490941c936120a781613035565b9050612039565b5083156109ad5760405162461bcd60e51b815260206004820181905260248201527f537472696e67733a20686578206c656e67746820696e73756666696369656e746044820152606401610991565b803b6121615760405162461bcd60e51b815260206004820152602d60248201527f455243313936373a206e657720696d706c656d656e746174696f6e206973206e60448201526c1bdd08184818dbdb9d1c9858dd609a1b6064820152608401610991565b7f360894a13ba1a3210667c828492db98dca3e2076cc3735a920a3ca505d382bbc80546001600160a01b0319166001600160a01b0392909216919091179055565b6060823b6122015760405162461bcd60e51b815260206004820152602660248201527f416464726573733a2064656c65676174652063616c6c20746f206e6f6e2d636f6044820152651b9d1c9858dd60d21b6064820152608401610991565b600080846001600160a01b03168460405161221c9190612df2565b600060405180830381855af49150503d8060008114612257576040519150601f19603f3d011682016040523d82523d6000602084013e61225c565b606091505b5091509150612284828260405180606001604052806027815260200161319f602791396125f9565b95945050505050565b612296816120fd565b6040516001600160a01b038216907fbc7cd75a20ee27fd9adebab32041f755214dbc6bffa90cc0225b39da2e5c2d3b90600090a250565b81546000908190806122e457600092505050610855565b808210156123285760006122f88383612632565b905084612305878361236c565b54111561231457809150612322565b61231f816001612f99565b92505b506122e4565b60008211801561234b57508361234886612343600186612ff2565b61236c565b54145b156123645761235b600183612ff2565b92505050610855565b509050610855565b6000825482106123b45760405162461bcd60e51b815260206004820152601360248201527211549493d48e8813dd5d081bd988189bdd5b99606a1b6044820152606401610991565b81836040516020016123c891815260200190565b6040516020818303038152906040528051906020012060001c6109ad9190612f99565b6123f6838383611d9f565b61240183838361264d565b61240c8383836126d0565b6111ab838383612728565b6001600160a01b0383166124365761242e82612811565b6111ab61289b565b6001600160a01b03821661244d5761242e83612811565b61245683612811565b6111ab82612811565b600054610100900460ff166115975760405162461bcd60e51b815260040161099190612f4e565b600054610100900460ff166124ad5760405162461bcd60e51b815260040161099190612f4e565b6124b86000336128e9565b6124d060008051602061313f833981519152336128e9565b6124e860008051602061311f833981519152336128e9565b61159760008051602061311f83398151915260008051602061313f833981519152611e90565b6001600160a01b0382166125645760405162461bcd60e51b815260206004820152601f60248201527f45524332303a206d696e7420746f20746865207a65726f2061646472657373006044820152606401610991565b61257060008383611d94565b80606760008282546125829190612f99565b90915550506001600160a01b038216600090815260656020526040812080548392906125af908490612f99565b90915550506040518181526001600160a01b038316906000907fddf252ad1be2c89b69c2b068fc378daa952ba7f163c4a11628f55a4df523b3ef9060200160405180910390a35050565b606083156126085750816109ad565b8251156126185782518084602001fd5b8160405162461bcd60e51b81526004016109919190612e83565b60006126416002848418612fb1565b6109ad90848416612f99565b6000805160206132068339815191525460ff161580612671575061267183336128f3565b6111ab5760405162461bcd60e51b815260206004820152602a60248201527f45524332305061757361626c653a20746f6b656e207472616e736665722077686044820152691a5b19481c185d5cd95960b21b6064820152608401610991565b6126db33848461292b565b156111ab5760405162461bcd60e51b815260206004820152601a60248201527f4552524f523a204164647265737320426c61636b6c69737465640000000000006044820152606401610991565b60008051602061317f833981519152547fe38b16c806f019542b2d4bf356bb4ba2ea4b7eb450b8fbff2584f6084c4978f1546001600160a01b03168115806127815750836001600160a01b0316816001600160a01b0316145b8061279d5750846001600160a01b0316816001600160a01b0316145b806127af57506001600160a01b038516155b806127c157506001600160a01b038416155b156127cd575050505050565b6000670de0b6b3a764000060008051602061317f833981519152546127f29086612fd3565b6127fc9190612fb1565b905061280986838361132e565b505050505050565b604080516001600160a01b0383166020808301919091527ffbf1c7065455eb4486649b8540f24ef2dd4ebedf2aa423f0039d17c2c75dea1582840152825180830384018152606090920190925280519101206000612870826001612f99565b90506111ab8282612896866001600160a01b031660009081526065602052604090205490565b612981565b6115977f286a9db37a0f8ddcbcee127c9f4f56031230f49cb46786f87e166d552e11f67e7ffcaa8bb100d3c5b627eac0369cc1d2778dbeffa2993d08f039fb27795729e9a561289660675490565b610aad8282611edb565b600061290d60008051602061322683398151915284610f74565b806109ad57506109ad6000805160206130df83398151915283610f74565b60006129456000805160206130ff83398151915284610f74565b8061296357506129636000805160206130ff83398151915285610f74565b8061101957506110196000805160206130ff83398151915283610f74565b60006129996000805160206131e68339815191525490565b9050806129a5856129bf565b1015610b20576129b584826129ef565b610b2083836129ef565b8054600090806129d25750600092915050565b6129e183612343600184612ff2565b549392505050565b50919050565b81546001836000612a008385612f99565b90915550829050612a11848361236c565b55505050565b828054612a239061304c565b90600052602060002090601f016020900481019282612a455760008555612a8b565b82601f10612a5e57805160ff1916838001178555612a8b565b82800160010185558215612a8b579182015b82811115612a8b578251825591602001919060010190612a70565b50612a97929150612a9b565b5090565b5b80821115612a975760008155600101612a9c565b600067ffffffffffffffff80841115612acb57612acb6130c8565b604051601f8501601f19908116603f01168101908282118183101715612af357612af36130c8565b81604052809350858152868686011115612b0c57600080fd5b858560208301376000602087830101525050509392505050565b80356001600160a01b0381168114612b3d57600080fd5b919050565b600082601f830112612b5357600080fd5b6109ad83833560208501612ab0565b600060208284031215612b7457600080fd5b6109ad82612b26565b60008060408385031215612b9057600080fd5b612b9983612b26565b9150612ba760208401612b26565b90509250929050565b600080600060608486031215612bc557600080fd5b612bce84612b26565b9250612bdc60208501612b26565b9150604084013590509250925092565b60008060408385031215612bff57600080fd5b612c0883612b26565b9150602083013567ffffffffffffffff811115612c2457600080fd5b8301601f81018513612c3557600080fd5b612c4485823560208401612ab0565b9150509250929050565b60008060408385031215612c6157600080fd5b612c6a83612b26565b946020939093013593505050565b60008060208385031215612c8b57600080fd5b823567ffffffffffffffff80821115612ca357600080fd5b818501915085601f830112612cb757600080fd5b813581811115612cc657600080fd5b8660208260051b8501011115612cdb57600080fd5b60209290920196919550909350505050565b600060208284031215612cff57600080fd5b5035919050565b60008060408385031215612d1957600080fd5b82359150612ba760208401612b26565b600060208284031215612d3b57600080fd5b81356001600160e01b0319811681146109ad57600080fd5b60008060008060008060c08789031215612d6c57600080fd5b863567ffffffffffffffff80821115612d8457600080fd5b612d908a838b01612b42565b97506020890135915080821115612da657600080fd5b50612db389828a01612b42565b955050604087013560ff81168114612dca57600080fd5b93506060870135925060808701359150612de660a08801612b26565b90509295509295509295565b60008251612e04818460208701613009565b9190910192915050565b7f416363657373436f6e74726f6c3a206163636f756e7420000000000000000000815260008351612e46816017850160208801613009565b7001034b99036b4b9b9b4b733903937b6329607d1b6017918401918201528351612e77816028840160208801613009565b01602801949350505050565b6020815260008251806020840152612ea2816040850160208701613009565b601f01601f19169190910160400192915050565b6020808252602c908201527f46756e6374696f6e206d7573742062652063616c6c6564207468726f7567682060408201526b19195b1959d85d1958d85b1b60a21b606082015260800190565b6020808252602c908201527f46756e6374696f6e206d7573742062652063616c6c6564207468726f7567682060408201526b6163746976652070726f787960a01b606082015260800190565b6020808252602b908201527f496e697469616c697a61626c653a20636f6e7472616374206973206e6f74206960408201526a6e697469616c697a696e6760a81b606082015260800190565b60008219821115612fac57612fac61309c565b500190565b600082612fce57634e487b7160e01b600052601260045260246000fd5b500490565b6000816000190483118215151615612fed57612fed61309c565b500290565b6000828210156130045761300461309c565b500390565b60005b8381101561302457818101518382015260200161300c565b83811115610b205750506000910152565b6000816130445761304461309c565b506000190190565b600181811c9082168061306057607f821691505b602082108114156129e957634e487b7160e01b600052602260045260246000fd5b60006000198214156130955761309561309c565b5060010190565b634e487b7160e01b600052601160045260246000fd5b634e487b7160e01b600052603260045260246000fd5b634e487b7160e01b600052604160045260246000fdfee1ac655ab58995133a870d1fd307ddc1d624c8ad919a09e67867a7a1483e439a548c7f0307ab2a7ea894e5c7e8c5353cc750bb9385ee2e945f189a9a83daa8eda76ace73a908083d89af9ff88e5b4f7cadb3591a80631063f68b695fda726db571840dc4906352362b0cdaf79870196c8e42acafade72d5d5a6d59291253ceb1f988e4fb62b8e14f4820fed03192306ddf4d7dbfa215595ba1c6ba4b76b369ee253122b26cc2118faf5fcfc7761bd75fcfb5508f1f48d1a40db694aba32af5d0416464726573733a206c6f772d6c6576656c2064656c65676174652063616c6c206661696c6564356a809dfdea9198dd76fb76bf6d403ecf13ea675eb89e1eda2db2c4a4676a260d0a0ed3351c10a57d74a44b40c06e0946288e4e3816ac07bb89db2a755562e7ad6a6591fa308fe948065665239402780db8ed4a8c4e4e16c4d066bcaa05efc2ce108bcc5e0f50fe603649304cbbbd94de794a404db82d884c0afc9ba9328e61a2646970667358221220225ea8c5ba361297e5543153eb1bb7089aafa4997b5eec16fbef9bb933a3271064736f6c63430008060033",
  "linkReferences": {},
  "deployedLinkReferences": {}
}