{
  "_format": "hh-sol-artifact-1",
  "name": "BlacklistBurnMintTxFeeWhiteListTemplate",
  "initializer": "function initialize(string name_, string symbol_, uint8 decimals_, uint256 amount_, uint256 txFee, address txFeeBeneficiary)",
  "sourceName": "contracts/templates/BlacklistBurnMintTxFeeWhiteListTemplate.sol",
  "abi": [
    {
      "anonymous": false,
      "inputs": [
        {
          "indexed": false,
          "internalType": "address",
          "name": "previousAdmin",
          "type": "address"
        },
        {
          "indexed": false,
          "internalType": "address",
          "name": "newAdmin",
          "type": "address"
        }
      ],
      "name": "AdminChanged",
      "type": "event"
    },
    {
      "anonymous": false,
      "inputs": [
        {
          "indexed": true,
          "internalType": "address",
          "name": "owner",
          "type": "address"
        },
        {
          "indexed": true,
          "internalType": "address",
          "name": "spender",
          "type": "address"
        },
        {
          "indexed": false,
          "internalType": "uint256",
          "name": "value",
          "type": "uint256"
        }
      ],
      "name": "Approval",
      "type": "event"
    },
    {
      "anonymous": false,
      "inputs": [
        {
          "indexed": true,
          "internalType": "address",
          "name": "beacon",
          "type": "address"
        }
      ],
      "name": "BeaconUpgraded",
      "type": "event"
    },
    {
      "anonymous": false,
      "inputs": [
        {
          "indexed": false,
          "internalType": "address",
          "name": "account",
          "type": "address"
        }
      ],
      "name": "Paused",
      "type": "event"
    },
    {
      "anonymous": false,
      "inputs": [
        {
          "indexed": true,
          "internalType": "bytes32",
          "name": "role",
          "type": "bytes32"
        },
        {
          "indexed": true,
          "internalType": "bytes32",
          "name": "previousAdminRole",
          "type": "bytes32"
        },
        {
          "indexed": true,
          "internalType": "bytes32",
          "name": "newAdminRole",
          "type": "bytes32"
        }
      ],
      "name": "RoleAdminChanged",
      "type": "event"
    },
    {
      "anonymous": false,
      "inputs": [
        {
          "indexed": true,
          "internalType": "bytes32",
          "name": "role",
          "type": "bytes32"
        },
        {
          "indexed": true,
          "internalType": "address",
          "name": "account",
          "type": "address"
        },
        {
          "indexed": true,
          "internalType": "address",
          "name": "sender",
          "type": "address"
        }
      ],
      "name": "RoleGranted",
      "type": "event"
    },
    {
      "anonymous": false,
      "inputs": [
        {
          "indexed": true,
          "internalType": "bytes32",
          "name": "role",
          "type": "bytes32"
        },
        {
          "indexed": true,
          "internalType": "address",
          "name": "account",
          "type": "address"
        },
        {
          "indexed": true,
          "internalType": "address",
          "name": "sender",
          "type": "address"
        }
      ],
      "name": "RoleRevoked",
      "type": "event"
    },
    {
      "anonymous": false,
      "inputs": [
        {
          "indexed": true,
          "internalType": "address",
          "name": "from",
          "type": "address"
        },
        {
          "indexed": true,
          "internalType": "address",
          "name": "to",
          "type": "address"
        },
        {
          "indexed": false,
          "internalType": "uint256",
          "name": "value",
          "type": "uint256"
        }
      ],
      "name": "Transfer",
      "type": "event"
    },
    {
      "anonymous": false,
      "inputs": [
        {
          "indexed": false,
          "internalType": "address",
          "name": "account",
          "type": "address"
        }
      ],
      "name": "Unpaused",
      "type": "event"
    },
    {
      "anonymous": false,
      "inputs": [
        {
          "indexed": true,
          "internalType": "address",
          "name": "implementation",
          "type": "address"
        }
      ],
      "name": "Upgraded",
      "type": "event"
    },
    {
      "inputs": [],
      "name": "BLACKLISTED_ROLE",
      "outputs": [
        {
          "internalType": "bytes32",
          "name": "",
          "type": "bytes32"
        }
      ],
      "stateMutability": "view",
      "type": "function"
    },
    {
      "inputs": [],
      "name": "BLACKLIST_MANAGER_ROLE",
      "outputs": [
        {
          "internalType": "bytes32",
          "name": "",
          "type": "bytes32"
        }
      ],
      "stateMutability": "view",
      "type": "function"
    },
    {
      "inputs": [],
      "name": "DEFAULT_ADMIN_ROLE",
      "outputs": [
        {
          "internalType": "bytes32",
          "name": "",
          "type": "bytes32"
        }
      ],
      "stateMutability": "view",
      "type": "function"
    },
    {
      "inputs": [],
      "name": "GOVERNANCE_ROLE",
      "outputs": [
        {
          "internalType": "bytes32",
          "name": "",
          "type": "bytes32"
        }
      ],
      "stateMutability": "view",
      "type": "function"
    },
    {
      "inputs": [],
      "name": "MINTER_ROLE",
      "outputs": [
        {
          "internalType": "bytes32",
          "name": "",
          "type": "bytes32"
        }
      ],
      "stateMutability": "view",
      "type": "function"
    },
    {
      "inputs": [],
      "name": "PAUSE_MANAGER_ROLE",
      "outputs": [
        {
          "internalType": "bytes32",
          "name": "",
          "type": "bytes32"
        }
      ],
      "stateMutability": "view",
      "type": "function"
    },
    {
      "inputs": [],
      "name": "UPGRADE_MANAGER_ROLE",
      "outputs": [
        {
          "internalType": "bytes32",
          "name": "",
          "type": "bytes32"
        }
      ],
      "stateMutability": "view",
      "type": "function"
    },
    {
      "inputs": [],
      "name": "WHITELISTED_FROM_ROLE",
      "outputs": [
        {
          "internalType": "bytes32",
          "name": "",
          "type": "bytes32"
        }
      ],
      "stateMutability": "view",
      "type": "function"
    },
    {
      "inputs": [],
      "name": "WHITELISTED_SENDER_ROLE",
      "outputs": [
        {
          "internalType": "bytes32",
          "name": "",
          "type": "bytes32"
        }
      ],
      "stateMutability": "view",
      "type": "function"
    },
    {
      "inputs": [
        {
          "internalType": "address[]",
          "name": "addresses",
          "type": "address[]"
        }
      ],
      "name": "addAddressesToBlacklist",
      "outputs": [],
      "stateMutability": "nonpayable",
      "type": "function"
    },
    {
      "inputs": [
        {
          "internalType": "address[]",
          "name": "addresses",
          "type": "address[]"
        }
      ],
      "name": "addAddressesToWhitelistFrom",
      "outputs": [],
      "stateMutability": "nonpayable",
      "type": "function"
    },
    {
      "inputs": [
        {
          "internalType": "address[]",
          "name": "addresses",
          "type": "address[]"
        }
      ],
      "name": "addAddressesToWhitelistSender",
      "outputs": [],
      "stateMutability": "nonpayable",
      "type": "function"
    },
    {
      "inputs": [
        {
          "internalType": "address",
          "name": "owner",
          "type": "address"
        },
        {
          "internalType": "address",
          "name": "spender",
          "type": "address"
        }
      ],
      "name": "allowance",
      "outputs": [
        {
          "internalType": "uint256",
          "name": "",
          "type": "uint256"
        }
      ],
      "stateMutability": "view",
      "type": "function"
    },
    {
      "inputs": [
        {
          "internalType": "address",
          "name": "spender",
          "type": "address"
        },
        {
          "internalType": "uint256",
          "name": "amount",
          "type": "uint256"
        }
      ],
      "name": "approve",
      "outputs": [
        {
          "internalType": "bool",
          "name": "",
          "type": "bool"
        }
      ],
      "stateMutability": "nonpayable",
      "type": "function"
    },
    {
      "inputs": [
        {
          "internalType": "address",
          "name": "account",
          "type": "address"
        }
      ],
      "name": "balanceOf",
      "outputs": [
        {
          "internalType": "uint256",
          "name": "",
          "type": "uint256"
        }
      ],
      "stateMutability": "view",
      "type": "function"
    },
    {
      "inputs": [
        {
          "internalType": "address[]",
          "name": "accounts",
          "type": "address[]"
        },
        {
          "internalType": "uint256[]",
          "name": "amounts",
          "type": "uint256[]"
        }
      ],
      "name": "bulkMint",
      "outputs": [],
      "stateMutability": "nonpayable",
      "type": "function"
    },
    {
      "inputs": [
        {
          "internalType": "uint256",
          "name": "amount",
          "type": "uint256"
        }
      ],
      "name": "burn",
      "outputs": [],
      "stateMutability": "nonpayable",
      "type": "function"
    },
    {
      "inputs": [
        {
          "internalType": "address",
          "name": "account",
          "type": "address"
        },
        {
          "internalType": "uint256",
          "name": "amount",
          "type": "uint256"
        }
      ],
      "name": "burnFrom",
      "outputs": [],
      "stateMutability": "nonpayable",
      "type": "function"
    },
    {
      "inputs": [
        {
          "internalType": "uint256",
          "name": "newTxFee",
          "type": "uint256"
        },
        {
          "internalType": "address",
          "name": "newTxBeneficiary",
          "type": "address"
        }
      ],
      "name": "changeTxFeeProperties",
      "outputs": [],
      "stateMutability": "nonpayable",
      "type": "function"
    },
    {
      "inputs": [],
      "name": "decimals",
      "outputs": [
        {
          "internalType": "uint8",
          "name": "",
          "type": "uint8"
        }
      ],
      "stateMutability": "view",
      "type": "function"
    },
    {
      "inputs": [
        {
          "internalType": "address",
          "name": "spender",
          "type": "address"
        },
        {
          "internalType": "uint256",
          "name": "subtractedValue",
          "type": "uint256"
        }
      ],
      "name": "decreaseAllowance",
      "outputs": [
        {
          "internalType": "bool",
          "name": "",
          "type": "bool"
        }
      ],
      "stateMutability": "nonpayable",
      "type": "function"
    },
    {
      "inputs": [],
      "name": "getImplementation",
      "outputs": [
        {
          "internalType": "address",
          "name": "",
          "type": "address"
        }
      ],
      "stateMutability": "view",
      "type": "function"
    },
    {
      "inputs": [
        {
          "internalType": "bytes32",
          "name": "role",
          "type": "bytes32"
        }
      ],
      "name": "getRoleAdmin",
      "outputs": [
        {
          "internalType": "bytes32",
          "name": "",
          "type": "bytes32"
        }
      ],
      "stateMutability": "view",
      "type": "function"
    },
    {
      "inputs": [
        {
          "internalType": "bytes32",
          "name": "role",
          "type": "bytes32"
        },
        {
          "internalType": "address",
          "name": "account",
          "type": "address"
        }
      ],
      "name": "grantRole",
      "outputs": [],
      "stateMutability": "nonpayable",
      "type": "function"
    },
    {
      "inputs": [
        {
          "internalType": "bytes32",
          "name": "role",
          "type": "bytes32"
        },
        {
          "internalType": "address",
          "name": "account",
          "type": "address"
        }
      ],
      "name": "hasRole",
      "outputs": [
        {
          "internalType": "bool",
          "name": "",
          "type": "bool"
        }
      ],
      "stateMutability": "view",
      "type": "function"
    },
    {
      "inputs": [
        {
          "internalType": "address",
          "name": "spender",
          "type": "address"
        },
        {
          "internalType": "uint256",
          "name": "addedValue",
          "type": "uint256"
        }
      ],
      "name": "increaseAllowance",
      "outputs": [
        {
          "internalType": "bool",
          "name": "",
          "type": "bool"
        }
      ],
      "stateMutability": "nonpayable",
      "type": "function"
    },
    {
      "inputs": [
        {
          "internalType": "string",
          "name": "name_",
          "type": "string"
        },
        {
          "internalType": "string",
          "name": "symbol_",
          "type": "string"
        },
        {
          "internalType": "uint8",
          "name": "decimals_",
          "type": "uint8"
        },
        {
          "internalType": "uint256",
          "name": "amount_",
          "type": "uint256"
        },
        {
          "internalType": "uint256",
          "name": "txFee",
          "type": "uint256"
        },
        {
          "internalType": "address",
          "name": "txFeeBeneficiary",
          "type": "address"
        }
      ],
      "name": "initialize",
      "outputs": [],
      "stateMutability": "nonpayable",
      "type": "function"
    },
    {
      "inputs": [
        {
          "internalType": "address",
          "name": "account",
          "type": "address"
        },
        {
          "internalType": "uint256",
          "name": "amount",
          "type": "uint256"
        }
      ],
      "name": "mint",
      "outputs": [],
      "stateMutability": "nonpayable",
      "type": "function"
    },
    {
      "inputs": [],
      "name": "name",
      "outputs": [
        {
          "internalType": "string",
          "name": "",
          "type": "string"
        }
      ],
      "stateMutability": "view",
      "type": "function"
    },
    {
      "inputs": [],
      "name": "pause",
      "outputs": [],
      "stateMutability": "nonpayable",
      "type": "function"
    },
    {
      "inputs": [],
      "name": "paused",
      "outputs": [
        {
          "internalType": "bool",
          "name": "",
          "type": "bool"
        }
      ],
      "stateMutability": "view",
      "type": "function"
    },
    {
      "inputs": [
        {
          "internalType": "address",
          "name": "implementationAddress",
          "type": "address"
        }
      ],
      "name": "proposeNewImplementation",
      "outputs": [],
      "stateMutability": "nonpayable",
      "type": "function"
    },
    {
      "inputs": [
        {
          "internalType": "address[]",
          "name": "addresses",
          "type": "address[]"
        }
      ],
      "name": "removeAddressesFromBlacklist",
      "outputs": [],
      "stateMutability": "nonpayable",
      "type": "function"
    },
    {
      "inputs": [
        {
          "internalType": "address[]",
          "name": "addresses",
          "type": "address[]"
        }
      ],
      "name": "removeAddressesFromWhitelistFrom",
      "outputs": [],
      "stateMutability": "nonpayable",
      "type": "function"
    },
    {
      "inputs": [
        {
          "internalType": "address[]",
          "name": "addresses",
          "type": "address[]"
        }
      ],
      "name": "removeAddressesFromWhitelistSender",
      "outputs": [],
      "stateMutability": "nonpayable",
      "type": "function"
    },
    {
      "inputs": [
        {
          "internalType": "bytes32",
          "name": "role",
          "type": "bytes32"
        },
        {
          "internalType": "address",
          "name": "account",
          "type": "address"
        }
      ],
      "name": "renounceRole",
      "outputs": [],
      "stateMutability": "nonpayable",
      "type": "function"
    },
    {
      "inputs": [
        {
          "internalType": "bytes32",
          "name": "role",
          "type": "bytes32"
        },
        {
          "internalType": "address",
          "name": "account",
          "type": "address"
        }
      ],
      "name": "revokeRole",
      "outputs": [],
      "stateMutability": "nonpayable",
      "type": "function"
    },
    {
      "inputs": [
        {
          "internalType": "bytes4",
          "name": "interfaceId",
          "type": "bytes4"
        }
      ],
      "name": "supportsInterface",
      "outputs": [
        {
          "internalType": "bool",
          "name": "",
          "type": "bool"
        }
      ],
      "stateMutability": "view",
      "type": "function"
    },
    {
      "inputs": [],
      "name": "symbol",
      "outputs": [
        {
          "internalType": "string",
          "name": "",
          "type": "string"
        }
      ],
      "stateMutability": "view",
      "type": "function"
    },
    {
      "inputs": [],
      "name": "totalSupply",
      "outputs": [
        {
          "internalType": "uint256",
          "name": "",
          "type": "uint256"
        }
      ],
      "stateMutability": "view",
      "type": "function"
    },
    {
      "inputs": [
        {
          "internalType": "address",
          "name": "recipient",
          "type": "address"
        },
        {
          "internalType": "uint256",
          "name": "amount",
          "type": "uint256"
        }
      ],
      "name": "transfer",
      "outputs": [
        {
          "internalType": "bool",
          "name": "",
          "type": "bool"
        }
      ],
      "stateMutability": "nonpayable",
      "type": "function"
    },
    {
      "inputs": [
        {
          "internalType": "address",
          "name": "sender",
          "type": "address"
        },
        {
          "internalType": "address",
          "name": "recipient",
          "type": "address"
        },
        {
          "internalType": "uint256",
          "name": "amount",
          "type": "uint256"
        }
      ],
      "name": "transferFrom",
      "outputs": [
        {
          "internalType": "bool",
          "name": "",
          "type": "bool"
        }
      ],
      "stateMutability": "nonpayable",
      "type": "function"
    },
    {
      "inputs": [],
      "name": "unpause",
      "outputs": [],
      "stateMutability": "nonpayable",
      "type": "function"
    },
    {
      "inputs": [
        {
          "internalType": "address",
          "name": "newImplementation",
          "type": "address"
        }
      ],
      "name": "upgradeTo",
      "outputs": [],
      "stateMutability": "nonpayable",
      "type": "function"
    },
    {
      "inputs": [
        {
          "internalType": "address",
          "name": "newImplementation",
          "type": "address"
        },
        {
          "internalType": "bytes",
          "name": "data",
          "type": "bytes"
        }
      ],
      "name": "upgradeToAndCall",
      "outputs": [],
      "stateMutability": "payable",
      "type": "function"
    }
  ],
  "bytecode": "0x60a06040523060601b60805234801561001757600080fd5b5060805160601c61314461004b60003960008181610c1701528181610c5701528181610dbe0152610dfe01526131446000f3fe6080604052600436106102725760003560e01c806362b199c51161014f578063a457c2d7116100c1578063d53913931161007a578063d53913931461077b578063d547741f146107af578063d84f91e8146107cf578063dd62ed3e146107f1578063f36c8f5c14610837578063f834c5021461085957600080fd5b8063a457c2d7146106ac578063a9059cbb146106cc578063aa74a34a146106ec578063aaf10f421461070e578063c233f3b71461073b578063ca73419e1461075b57600080fd5b8063731ce8fc11610113578063731ce8fc1461060b57806379cc67901461062d5780638456cb591461064d57806391d148541461066257806395d89b4114610682578063a217fddf1461069757600080fd5b806362b199c514610553578063685ed81a146105755780636ae459bd146105955780636e79a1c0146105b557806370a08231146105d557600080fd5b80633659cfe6116101e857806342966c68116101ac57806342966c681461049957806343ffa64e146104b957806347757fb6146104db5780634f1ef286146104fb5780635120561a1461050e5780635c975abb1461052e57600080fd5b80633659cfe61461040257806339509351146104225780633f4ba83a1461044257806340c10f1914610457578063410b24241461047757600080fd5b8063248a9ca31161023a578063248a9ca31461032d5780632cd77a5a1461035d5780632f2ff15d1461037f578063313ce5671461039f57806332258794146103c257806336568abe146103e257600080fd5b806301ffc9a71461027757806306fdde03146102ac578063095ea7b3146102ce57806318160ddd146102ee57806323b872dd1461030d575b600080fd5b34801561028357600080fd5b50610297610292366004612c00565b610879565b60405190151581526020015b60405180910390f35b3480156102b857600080fd5b506102c16108b0565b6040516102a39190612d66565b3480156102da57600080fd5b506102976102e9366004612aec565b610942565b3480156102fa57600080fd5b506067545b6040519081526020016102a3565b34801561031957600080fd5b506102976103283660046129ee565b610958565b34801561033957600080fd5b506102ff610348366004612bc4565b600090815260fb602052604090206001015490565b34801561036957600080fd5b5061037d610378366004612c2a565b610a09565b005b34801561038b57600080fd5b5061037d61039a366004612bdd565b610b6b565b3480156103ab57600080fd5b506101605460405160ff90911681526020016102a3565b3480156103ce57600080fd5b5061037d6103dd366004612b16565b610b83565b3480156103ee57600080fd5b5061037d6103fd366004612bdd565b610bf8565b34801561040e57600080fd5b5061037d61041d3660046129a0565b610c0c565b34801561042e57600080fd5b5061029761043d366004612aec565b610cd5565b34801561044e57600080fd5b5061037d610d11565b34801561046357600080fd5b5061037d610472366004612aec565b610d32565b34801561048357600080fd5b506102ff60008051602061304883398151915281565b3480156104a557600080fd5b5061037d6104b4366004612bc4565b610d6c565b3480156104c557600080fd5b506102ff60008051602061300883398151915281565b3480156104e757600080fd5b5061037d6104f63660046129a0565b610d76565b61037d610509366004612a2a565b610db3565b34801561051a57600080fd5b5061037d610529366004612bdd565b610e69565b34801561053a57600080fd5b506000805160206130cf8339815191525460ff16610297565b34801561055f57600080fd5b506102ff600080516020612fe883398151915281565b34801561058157600080fd5b5061037d610590366004612b16565b610ede565b3480156105a157600080fd5b5061037d6105b0366004612b58565b610f4d565b3480156105c157600080fd5b5061037d6105d0366004612b16565b61102c565b3480156105e157600080fd5b506102ff6105f03660046129a0565b6001600160a01b031660009081526065602052604090205490565b34801561061757600080fd5b506102ff6000805160206130ef83398151915281565b34801561063957600080fd5b5061037d610648366004612aec565b611086565b34801561065957600080fd5b5061037d611107565b34801561066e57600080fd5b5061029761067d366004612bdd565b611128565b34801561068e57600080fd5b506102c1611153565b3480156106a357600080fd5b506102ff600081565b3480156106b857600080fd5b506102976106c7366004612aec565b611162565b3480156106d857600080fd5b506102976106e7366004612aec565b6111fb565b3480156106f857600080fd5b506102ff600080516020612fc883398151915281565b34801561071a57600080fd5b50610723611208565b6040516001600160a01b0390911681526020016102a3565b34801561074757600080fd5b5061037d610756366004612b16565b611217565b34801561076757600080fd5b5061037d610776366004612b16565b611271565b34801561078757600080fd5b506102ff7ff9424f4303d7f03683a025eb8885734ad99b47df7749d9b0a02cbc985809700b81565b3480156107bb57600080fd5b5061037d6107ca366004612bdd565b6112cb565b3480156107db57600080fd5b506102ff6000805160206130af83398151915281565b3480156107fd57600080fd5b506102ff61080c3660046129bb565b6001600160a01b03918216600090815260666020908152604080832093909416825291909152205490565b34801561084357600080fd5b506102ff60008051602061302883398151915281565b34801561086557600080fd5b5061037d610874366004612b16565b6112f1565b60006001600160e01b03198216637965db0b60e01b14806108aa57506301ffc9a760e01b6001600160e01b03198316145b92915050565b6060606880546108bf90612f2f565b80601f01602080910402602001604051908101604052809291908181526020018280546108eb90612f2f565b80156109385780601f1061090d57610100808354040283529160200191610938565b820191906000526020600020905b81548152906001019060200180831161091b57829003601f168201915b5050505050905090565b600061094f33848461134b565b50600192915050565b600061096584848461146f565b6001600160a01b0384166000908152606660209081526040808320338452909152902054828110156109ef5760405162461bcd60e51b815260206004820152602860248201527f45524332303a207472616e7366657220616d6f756e74206578636565647320616044820152676c6c6f77616e636560c01b60648201526084015b60405180910390fd5b6109fc853385840361134b565b60019150505b9392505050565b600054610100900460ff16610a245760005460ff1615610a28565b303b155b610a8b5760405162461bcd60e51b815260206004820152602e60248201527f496e697469616c697a61626c653a20636f6e747261637420697320616c72656160448201526d191e481a5b9a5d1a585b1a5e995960921b60648201526084016109e6565b600054610100900460ff16158015610aad576000805461ffff19166101011790555b610b2489898080601f01602080910402602001604051908101604052809392919081815260200183838082843760009201919091525050604080516020601f8d018190048102820181019092528b815292508b91508a90819084018382808284376000920191909152508a92508991506116489050565b610b2c61168b565b610b3461168b565b610b3c6116b4565b610b44611701565b610b4e8383611774565b8015610b60576000805461ff00191690555b505050505050505050565b610b758282611803565b610b7f8282611892565b5050565b600080516020613048833981519152610b9c81336118b8565b60005b82811015610bf257610be0600080516020612fe8833981519152858584818110610bcb57610bcb612f9b565b90506020020160208101906107ca91906129a0565b80610bea81612f6a565b915050610b9f565b50505050565b610c02828261191c565b610b7f8282611984565b306001600160a01b037f0000000000000000000000000000000000000000000000000000000000000000161415610c555760405162461bcd60e51b81526004016109e690612d99565b7f00000000000000000000000000000000000000000000000000000000000000006001600160a01b0316610c876119fe565b6001600160a01b031614610cad5760405162461bcd60e51b81526004016109e690612de5565b610cb681611a2c565b60408051600080825260208201909252610cd291839190611aae565b50565b3360008181526066602090815260408083206001600160a01b0387168452909152812054909161094f918590610d0c908690612e7c565b61134b565b6000805160206130af833981519152610d2a81336118b8565b610cd2611bf9565b7ff9424f4303d7f03683a025eb8885734ad99b47df7749d9b0a02cbc985809700b610d5d81336118b8565b610d678383611ca6565b505050565b610cd23382611d91565b600080516020613028833981519152610d8f81336118b8565b5061012d80546001600160a01b0319166001600160a01b0392909216919091179055565b306001600160a01b037f0000000000000000000000000000000000000000000000000000000000000000161415610dfc5760405162461bcd60e51b81526004016109e690612d99565b7f00000000000000000000000000000000000000000000000000000000000000006001600160a01b0316610e2e6119fe565b6001600160a01b031614610e545760405162461bcd60e51b81526004016109e690612de5565b610e5d82611a2c565b610b7f82826001611aae565b6000610e7581336118b8565b6001600160a01b038216610e8857600080fd5b8260008051602061306883398151915255817fe38b16c806f019542b2d4bf356bb4ba2ea4b7eb450b8fbff2584f6084c4978f180546001600160a01b0319166001600160a01b0392909216919091179055505050565b6000805160206130af833981519152610ef781336118b8565b60005b82811015610bf257610f3b600080516020612fc8833981519152858584818110610f2657610f26612f9b565b905060200201602081019061039a91906129a0565b80610f4581612f6a565b915050610efa565b7ff9424f4303d7f03683a025eb8885734ad99b47df7749d9b0a02cbc985809700b610f7881336118b8565b838214610fbf5760405162461bcd60e51b8152602060048201526015602482015274082e4e4c2f240d8cadccee8d040dad2e6dac2e8c6d605b1b60448201526064016109e6565b60005b8481101561102457611012868683818110610fdf57610fdf612f9b565b9050602002016020810190610ff491906129a0565b85858481811061100657611006612f9b565b90506020020135611ca6565b8061101c81612f6a565b915050610fc2565b505050505050565b6000805160206130af83398151915261104581336118b8565b60005b82811015610bf2576110746000805160206130ef833981519152858584818110610bcb57610bcb612f9b565b8061107e81612f6a565b915050611048565b6000611092833361080c565b9050818110156110f05760405162461bcd60e51b8152602060048201526024808201527f45524332303a206275726e20616d6f756e74206578636565647320616c6c6f77604482015263616e636560e01b60648201526084016109e6565b6110fd833384840361134b565b610d678383611d91565b6000805160206130af83398151915261112081336118b8565b610cd2611eeb565b600091825260fb602090815260408084206001600160a01b0393909316845291905290205460ff1690565b6060606980546108bf90612f2f565b3360009081526066602090815260408083206001600160a01b0386168452909152812054828110156111e45760405162461bcd60e51b815260206004820152602560248201527f45524332303a2064656372656173656420616c6c6f77616e63652062656c6f77604482015264207a65726f60d81b60648201526084016109e6565b6111f1338585840361134b565b5060019392505050565b600061094f33848461146f565b60006112126119fe565b905090565b6000805160206130af83398151915261123081336118b8565b60005b82811015610bf25761125f600080516020612fc8833981519152858584818110610bcb57610bcb612f9b565b8061126981612f6a565b915050611233565b60008051602061304883398151915261128a81336118b8565b60005b82811015610bf2576112b9600080516020612fe8833981519152858584818110610f2657610f26612f9b565b806112c381612f6a565b91505061128d565b600082815260fb60205260409020600101546112e781336118b8565b610d678383611f7f565b6000805160206130af83398151915261130a81336118b8565b60005b82811015610bf2576113396000805160206130ef833981519152858584818110610f2657610f26612f9b565b8061134381612f6a565b91505061130d565b6001600160a01b0383166113ad5760405162461bcd60e51b8152602060048201526024808201527f45524332303a20617070726f76652066726f6d20746865207a65726f206164646044820152637265737360e01b60648201526084016109e6565b6001600160a01b03821661140e5760405162461bcd60e51b815260206004820152602260248201527f45524332303a20617070726f766520746f20746865207a65726f206164647265604482015261737360f01b60648201526084016109e6565b6001600160a01b0383811660008181526066602090815260408083209487168084529482529182902085905590518481527f8c5be1e5ebec7d5bd14f71427d1e84f3dd0314c0f7b2291e5b200ac8c7c3b925910160405180910390a3505050565b6001600160a01b0383166114d35760405162461bcd60e51b815260206004820152602560248201527f45524332303a207472616e736665722066726f6d20746865207a65726f206164604482015264647265737360d81b60648201526084016109e6565b6001600160a01b0382166115355760405162461bcd60e51b815260206004820152602360248201527f45524332303a207472616e7366657220746f20746865207a65726f206164647260448201526265737360e81b60648201526084016109e6565b611540838383611fe6565b6001600160a01b038316600090815260656020526040902054818110156115b85760405162461bcd60e51b815260206004820152602660248201527f45524332303a207472616e7366657220616d6f756e7420657863656564732062604482015265616c616e636560d01b60648201526084016109e6565b6001600160a01b038085166000908152606560205260408082208585039055918516815290812080548492906115ef908490612e7c565b92505081905550826001600160a01b0316846001600160a01b03167fddf252ad1be2c89b69c2b068fc378daa952ba7f163c4a11628f55a4df523b3ef8460405161163b91815260200190565b60405180910390a3610bf2565b600054610100900460ff1661166f5760405162461bcd60e51b81526004016109e690612e31565b611677611ff1565b6116818484612048565b610bf28282612096565b600054610100900460ff166116b25760405162461bcd60e51b81526004016109e690612e31565b565b600054610100900460ff166116db5760405162461bcd60e51b81526004016109e690612e31565b6116b2600080516020612fe88339815191526000805160206130488339815191526120d7565b600054610100900460ff166117285760405162461bcd60e51b81526004016109e690612e31565b61174e6000805160206130ef8339815191526000805160206130af8339815191526120d7565b6116b2600080516020612fc88339815191526000805160206130af8339815191526120d7565b600054610100900460ff1661179b5760405162461bcd60e51b81526004016109e690612e31565b6001600160a01b0381166117ae57600080fd5b8160008051602061306883398151915255807fe38b16c806f019542b2d4bf356bb4ba2ea4b7eb450b8fbff2584f6084c4978f180546001600160a01b0319166001600160a01b03929092169190911790555050565b60008051602061304883398151915282148061181d575081155b15610b7f5761183a600080516020612fe883398151915282611128565b15610b7f5760405162461bcd60e51b815260206004820152602260248201527f63616e206e6f742061737369676e20726f6c6520746f20626c61636b6c697374604482015261195960f21b60648201526084016109e6565b600082815260fb60205260409020600101546118ae81336118b8565b610d678383612122565b6118c28282611128565b610b7f576118da816001600160a01b031660146121a8565b6118e58360206121a8565b6040516020016118f6929190612cf1565b60408051601f198184030181529082905262461bcd60e51b82526109e691600401612d66565b600080516020612fe8833981519152821415610b7f5760405162461bcd60e51b815260206004820152602160248201527f43616e206e6f742072656e6f756e636520626c61636b6c697374656420726f6c6044820152606560f81b60648201526084016109e6565b6001600160a01b03811633146119f45760405162461bcd60e51b815260206004820152602f60248201527f416363657373436f6e74726f6c3a2063616e206f6e6c792072656e6f756e636560448201526e103937b632b9903337b91039b2b63360891b60648201526084016109e6565b610b7f8282611f7f565b7f360894a13ba1a3210667c828492db98dca3e2076cc3735a920a3ca505d382bbc546001600160a01b031690565b611a4460008051602061302883398151915233611128565b80611a625750611a6260008051602061300883398151915233611128565b610cd25760405162461bcd60e51b815260206004820152601d60248201527f4552524f523a2041646472657373206e6f7420617574686f72697a656400000060448201526064016109e6565b6000611ab86119fe565b9050611ac384612344565b600083511180611ad05750815b15611ae157611adf84846123e9565b505b7f4910fdfa16fed3260ed0e7147f7cc6da11a60208b5b9406d12a635614ffd9143805460ff16611bf257805460ff191660011781556040516001600160a01b0383166024820152611b6090869060440160408051601f198184030181529190526020810180516001600160e01b0316631b2ce7f360e11b1790526123e9565b50805460ff19168155611b716119fe565b6001600160a01b0316826001600160a01b031614611be95760405162461bcd60e51b815260206004820152602f60248201527f45524331393637557067726164653a207570677261646520627265616b73206660448201526e75727468657220757067726164657360881b60648201526084016109e6565b611bf2856124d4565b5050505050565b6000805160206130cf8339815191525460ff16611c4f5760405162461bcd60e51b815260206004820152601460248201527314185d5cd8589b194e881b9bdd081c185d5cd95960621b60448201526064016109e6565b6000805160206130cf833981519152805460ff191690557f5db9ee0a495bf2e6ff9c91a7834c1ba4fdd244a5e8aa4e537bd38aeae4b073aa335b6040516001600160a01b03909116815260200160405180910390a1565b6001600160a01b038216611cfc5760405162461bcd60e51b815260206004820152601f60248201527f45524332303a206d696e7420746f20746865207a65726f20616464726573730060448201526064016109e6565b611d0860008383611fe6565b8060676000828254611d1a9190612e7c565b90915550506001600160a01b03821660009081526065602052604081208054839290611d47908490612e7c565b90915550506040518181526001600160a01b038316906000907fddf252ad1be2c89b69c2b068fc378daa952ba7f163c4a11628f55a4df523b3ef9060200160405180910390a35050565b6001600160a01b038216611df15760405162461bcd60e51b815260206004820152602160248201527f45524332303a206275726e2066726f6d20746865207a65726f206164647265736044820152607360f81b60648201526084016109e6565b611dfd82600083611fe6565b6001600160a01b03821660009081526065602052604090205481811015611e715760405162461bcd60e51b815260206004820152602260248201527f45524332303a206275726e20616d6f756e7420657863656564732062616c616e604482015261636560f01b60648201526084016109e6565b6001600160a01b0383166000908152606560205260408120838303905560678054849290611ea0908490612ed5565b90915550506040518281526000906001600160a01b038516907fddf252ad1be2c89b69c2b068fc378daa952ba7f163c4a11628f55a4df523b3ef9060200160405180910390a3505050565b6000805160206130cf8339815191525460ff1615611f3e5760405162461bcd60e51b815260206004820152601060248201526f14185d5cd8589b194e881c185d5cd95960821b60448201526064016109e6565b6000805160206130cf833981519152805460ff191660011790557f62e78cea01bee320cd4e420270b5ea74000d11b0c9f74754ebdbfc544b05a25833611c89565b611f898282611128565b15610b7f57600082815260fb602090815260408083206001600160a01b0385168085529252808320805460ff1916905551339285917ff6391f5c32d9c69d2a47ea670b442974b53935d1edc7fd64eb21e047a839171b9190a45050565b610d67838383612514565b600054610100900460ff166120185760405162461bcd60e51b81526004016109e690612e31565b61202061168b565b61202861168b565b61203061168b565b61203861168b565b61204061168b565b6116b2612540565b600054610100900460ff1661206f5760405162461bcd60e51b81526004016109e690612e31565b815161208290606890602085019061285d565b508051610d6790606990602084019061285d565b600054610100900460ff166120bd5760405162461bcd60e51b81526004016109e690612e31565b610160805460ff191660ff8416179055610b7f3382611ca6565b600082815260fb6020526040808220600101805490849055905190918391839186917fbd79b86ffe0ab8e8776151514217cd7cacd52c909f66475c3af44e129f0b00ff9190a4505050565b61212c8282611128565b610b7f57600082815260fb602090815260408083206001600160a01b03851684529091529020805460ff191660011790556121643390565b6001600160a01b0316816001600160a01b0316837f2f8788117e7eff1d82e926ec794901d17c78024a50270940304540a733656f0d60405160405180910390a45050565b606060006121b7836002612eb6565b6121c2906002612e7c565b67ffffffffffffffff8111156121da576121da612fb1565b6040519080825280601f01601f191660200182016040528015612204576020820181803683370190505b509050600360fc1b8160008151811061221f5761221f612f9b565b60200101906001600160f81b031916908160001a905350600f60fb1b8160018151811061224e5761224e612f9b565b60200101906001600160f81b031916908160001a9053506000612272846002612eb6565b61227d906001612e7c565b90505b60018111156122f5576f181899199a1a9b1b9c1cb0b131b232b360811b85600f16601081106122b1576122b1612f9b565b1a60f81b8282815181106122c7576122c7612f9b565b60200101906001600160f81b031916908160001a90535060049490941c936122ee81612f18565b9050612280565b508315610a025760405162461bcd60e51b815260206004820181905260248201527f537472696e67733a20686578206c656e67746820696e73756666696369656e7460448201526064016109e6565b803b6123a85760405162461bcd60e51b815260206004820152602d60248201527f455243313936373a206e657720696d706c656d656e746174696f6e206973206e60448201526c1bdd08184818dbdb9d1c9858dd609a1b60648201526084016109e6565b7f360894a13ba1a3210667c828492db98dca3e2076cc3735a920a3ca505d382bbc80546001600160a01b0319166001600160a01b0392909216919091179055565b6060823b6124485760405162461bcd60e51b815260206004820152602660248201527f416464726573733a2064656c65676174652063616c6c20746f206e6f6e2d636f6044820152651b9d1c9858dd60d21b60648201526084016109e6565b600080846001600160a01b0316846040516124639190612cd5565b600060405180830381855af49150503d806000811461249e576040519150601f19603f3d011682016040523d82523d6000602084013e6124a3565b606091505b50915091506124cb8282604051806060016040528060278152602001613088602791396125c8565b95945050505050565b6124dd81612344565b6040516001600160a01b038216907fbc7cd75a20ee27fd9adebab32041f755214dbc6bffa90cc0225b39da2e5c2d3b90600090a250565b61251f838383612601565b61252a838383612659565b6125358383836126dc565b610d67838383612659565b600054610100900460ff166125675760405162461bcd60e51b81526004016109e690612e31565b6125726000336127bd565b61258a600080516020613028833981519152336127bd565b6125a2600080516020613008833981519152336127bd565b6116b26000805160206130088339815191526000805160206130288339815191526120d7565b606083156125d7575081610a02565b8251156125e75782518084602001fd5b8160405162461bcd60e51b81526004016109e69190612d66565b61260c3384846127c7565b15610d675760405162461bcd60e51b815260206004820152601a60248201527f4552524f523a204164647265737320426c61636b6c697374656400000000000060448201526064016109e6565b6000805160206130cf8339815191525460ff16158061267d575061267d8333612825565b610d675760405162461bcd60e51b815260206004820152602a60248201527f45524332305061757361626c653a20746f6b656e207472616e736665722077686044820152691a5b19481c185d5cd95960b21b60648201526084016109e6565b600080516020613068833981519152547fe38b16c806f019542b2d4bf356bb4ba2ea4b7eb450b8fbff2584f6084c4978f1546001600160a01b03168115806127355750836001600160a01b0316816001600160a01b0316145b806127515750846001600160a01b0316816001600160a01b0316145b8061276357506001600160a01b038516155b8061277557506001600160a01b038416155b15612781575050505050565b6000670de0b6b3a7640000600080516020613068833981519152546127a69086612eb6565b6127b09190612e94565b905061102486838361146f565b610b7f8282612122565b60006127e1600080516020612fe883398151915284611128565b806127ff57506127ff600080516020612fe883398151915285611128565b8061281d575061281d600080516020612fe883398151915283611128565b949350505050565b600061283f6000805160206130ef83398151915284611128565b80610a025750610a02600080516020612fc883398151915283611128565b82805461286990612f2f565b90600052602060002090601f01602090048101928261288b57600085556128d1565b82601f106128a457805160ff19168380011785556128d1565b828001600101855582156128d1579182015b828111156128d15782518255916020019190600101906128b6565b506128dd9291506128e1565b5090565b5b808211156128dd57600081556001016128e2565b80356001600160a01b038116811461290d57600080fd5b919050565b60008083601f84011261292457600080fd5b50813567ffffffffffffffff81111561293c57600080fd5b6020830191508360208260051b850101111561295757600080fd5b9250929050565b60008083601f84011261297057600080fd5b50813567ffffffffffffffff81111561298857600080fd5b60208301915083602082850101111561295757600080fd5b6000602082840312156129b257600080fd5b610a02826128f6565b600080604083850312156129ce57600080fd5b6129d7836128f6565b91506129e5602084016128f6565b90509250929050565b600080600060608486031215612a0357600080fd5b612a0c846128f6565b9250612a1a602085016128f6565b9150604084013590509250925092565b60008060408385031215612a3d57600080fd5b612a46836128f6565b9150602083013567ffffffffffffffff80821115612a6357600080fd5b818501915085601f830112612a7757600080fd5b813581811115612a8957612a89612fb1565b604051601f8201601f19908116603f01168101908382118183101715612ab157612ab1612fb1565b81604052828152886020848701011115612aca57600080fd5b8260208601602083013760006020848301015280955050505050509250929050565b60008060408385031215612aff57600080fd5b612b08836128f6565b946020939093013593505050565b60008060208385031215612b2957600080fd5b823567ffffffffffffffff811115612b4057600080fd5b612b4c85828601612912565b90969095509350505050565b60008060008060408587031215612b6e57600080fd5b843567ffffffffffffffff80821115612b8657600080fd5b612b9288838901612912565b90965094506020870135915080821115612bab57600080fd5b50612bb887828801612912565b95989497509550505050565b600060208284031215612bd657600080fd5b5035919050565b60008060408385031215612bf057600080fd5b823591506129e5602084016128f6565b600060208284031215612c1257600080fd5b81356001600160e01b031981168114610a0257600080fd5b60008060008060008060008060c0898b031215612c4657600080fd5b883567ffffffffffffffff80821115612c5e57600080fd5b612c6a8c838d0161295e565b909a50985060208b0135915080821115612c8357600080fd5b50612c908b828c0161295e565b909750955050604089013560ff81168114612caa57600080fd5b93506060890135925060808901359150612cc660a08a016128f6565b90509295985092959890939650565b60008251612ce7818460208701612eec565b9190910192915050565b7f416363657373436f6e74726f6c3a206163636f756e7420000000000000000000815260008351612d29816017850160208801612eec565b7001034b99036b4b9b9b4b733903937b6329607d1b6017918401918201528351612d5a816028840160208801612eec565b01602801949350505050565b6020815260008251806020840152612d85816040850160208701612eec565b601f01601f19169190910160400192915050565b6020808252602c908201527f46756e6374696f6e206d7573742062652063616c6c6564207468726f7567682060408201526b19195b1959d85d1958d85b1b60a21b606082015260800190565b6020808252602c908201527f46756e6374696f6e206d7573742062652063616c6c6564207468726f7567682060408201526b6163746976652070726f787960a01b606082015260800190565b6020808252602b908201527f496e697469616c697a61626c653a20636f6e7472616374206973206e6f74206960408201526a6e697469616c697a696e6760a81b606082015260800190565b60008219821115612e8f57612e8f612f85565b500190565b600082612eb157634e487b7160e01b600052601260045260246000fd5b500490565b6000816000190483118215151615612ed057612ed0612f85565b500290565b600082821015612ee757612ee7612f85565b500390565b60005b83811015612f07578181015183820152602001612eef565b83811115610bf25750506000910152565b600081612f2757612f27612f85565b506000190190565b600181811c90821680612f4357607f821691505b60208210811415612f6457634e487b7160e01b600052602260045260246000fd5b50919050565b6000600019821415612f7e57612f7e612f85565b5060010190565b634e487b7160e01b600052601160045260246000fd5b634e487b7160e01b600052603260045260246000fd5b634e487b7160e01b600052604160045260246000fdfee1ac655ab58995133a870d1fd307ddc1d624c8ad919a09e67867a7a1483e439a548c7f0307ab2a7ea894e5c7e8c5353cc750bb9385ee2e945f189a9a83daa8eda76ace73a908083d89af9ff88e5b4f7cadb3591a80631063f68b695fda726db571840dc4906352362b0cdaf79870196c8e42acafade72d5d5a6d59291253ceb1f988e4fb62b8e14f4820fed03192306ddf4d7dbfa215595ba1c6ba4b76b369ee253122b26cc2118faf5fcfc7761bd75fcfb5508f1f48d1a40db694aba32af5d0416464726573733a206c6f772d6c6576656c2064656c65676174652063616c6c206661696c6564356a809dfdea9198dd76fb76bf6d403ecf13ea675eb89e1eda2db2c4a4676a26ad6a6591fa308fe948065665239402780db8ed4a8c4e4e16c4d066bcaa05efc2ce108bcc5e0f50fe603649304cbbbd94de794a404db82d884c0afc9ba9328e61a264697066735822122098853788478a405912dac4558ad05e8fc08f849460fd2ac14d0cdff1873e5a0164736f6c63430008060033",
  "linkReferences": {},
  "deployedLinkReferences": {}
}