{
  "_format": "hh-sol-artifact-1",
  "name": "BlacklistBurnTemplate",
  "initializer": "function initialize(string name_, string symbol_, uint8 decimals_, uint256 amount_)",
  "sourceName": "contracts/templates/BlacklistBurnTemplate.sol",
  "abi": [
    {
      "anonymous": false,
      "inputs": [
        {
          "indexed": false,
          "internalType": "address",
          "name": "previousAdmin",
          "type": "address"
        },
        {
          "indexed": false,
          "internalType": "address",
          "name": "newAdmin",
          "type": "address"
        }
      ],
      "name": "AdminChanged",
      "type": "event"
    },
    {
      "anonymous": false,
      "inputs": [
        {
          "indexed": true,
          "internalType": "address",
          "name": "owner",
          "type": "address"
        },
        {
          "indexed": true,
          "internalType": "address",
          "name": "spender",
          "type": "address"
        },
        {
          "indexed": false,
          "internalType": "uint256",
          "name": "value",
          "type": "uint256"
        }
      ],
      "name": "Approval",
      "type": "event"
    },
    {
      "anonymous": false,
      "inputs": [
        {
          "indexed": true,
          "internalType": "address",
          "name": "beacon",
          "type": "address"
        }
      ],
      "name": "BeaconUpgraded",
      "type": "event"
    },
    {
      "anonymous": false,
      "inputs": [
        {
          "indexed": true,
          "internalType": "bytes32",
          "name": "role",
          "type": "bytes32"
        },
        {
          "indexed": true,
          "internalType": "bytes32",
          "name": "previousAdminRole",
          "type": "bytes32"
        },
        {
          "indexed": true,
          "internalType": "bytes32",
          "name": "newAdminRole",
          "type": "bytes32"
        }
      ],
      "name": "RoleAdminChanged",
      "type": "event"
    },
    {
      "anonymous": false,
      "inputs": [
        {
          "indexed": true,
          "internalType": "bytes32",
          "name": "role",
          "type": "bytes32"
        },
        {
          "indexed": true,
          "internalType": "address",
          "name": "account",
          "type": "address"
        },
        {
          "indexed": true,
          "internalType": "address",
          "name": "sender",
          "type": "address"
        }
      ],
      "name": "RoleGranted",
      "type": "event"
    },
    {
      "anonymous": false,
      "inputs": [
        {
          "indexed": true,
          "internalType": "bytes32",
          "name": "role",
          "type": "bytes32"
        },
        {
          "indexed": true,
          "internalType": "address",
          "name": "account",
          "type": "address"
        },
        {
          "indexed": true,
          "internalType": "address",
          "name": "sender",
          "type": "address"
        }
      ],
      "name": "RoleRevoked",
      "type": "event"
    },
    {
      "anonymous": false,
      "inputs": [
        {
          "indexed": true,
          "internalType": "address",
          "name": "from",
          "type": "address"
        },
        {
          "indexed": true,
          "internalType": "address",
          "name": "to",
          "type": "address"
        },
        {
          "indexed": false,
          "internalType": "uint256",
          "name": "value",
          "type": "uint256"
        }
      ],
      "name": "Transfer",
      "type": "event"
    },
    {
      "anonymous": false,
      "inputs": [
        {
          "indexed": true,
          "internalType": "address",
          "name": "implementation",
          "type": "address"
        }
      ],
      "name": "Upgraded",
      "type": "event"
    },
    {
      "inputs": [],
      "name": "BLACKLISTED_ROLE",
      "outputs": [
        {
          "internalType": "bytes32",
          "name": "",
          "type": "bytes32"
        }
      ],
      "stateMutability": "view",
      "type": "function"
    },
    {
      "inputs": [],
      "name": "BLACKLIST_MANAGER_ROLE",
      "outputs": [
        {
          "internalType": "bytes32",
          "name": "",
          "type": "bytes32"
        }
      ],
      "stateMutability": "view",
      "type": "function"
    },
    {
      "inputs": [],
      "name": "DEFAULT_ADMIN_ROLE",
      "outputs": [
        {
          "internalType": "bytes32",
          "name": "",
          "type": "bytes32"
        }
      ],
      "stateMutability": "view",
      "type": "function"
    },
    {
      "inputs": [],
      "name": "GOVERNANCE_ROLE",
      "outputs": [
        {
          "internalType": "bytes32",
          "name": "",
          "type": "bytes32"
        }
      ],
      "stateMutability": "view",
      "type": "function"
    },
    {
      "inputs": [],
      "name": "UPGRADE_MANAGER_ROLE",
      "outputs": [
        {
          "internalType": "bytes32",
          "name": "",
          "type": "bytes32"
        }
      ],
      "stateMutability": "view",
      "type": "function"
    },
    {
      "inputs": [
        {
          "internalType": "address[]",
          "name": "addresses",
          "type": "address[]"
        }
      ],
      "name": "addAddressesToBlacklist",
      "outputs": [],
      "stateMutability": "nonpayable",
      "type": "function"
    },
    {
      "inputs": [
        {
          "internalType": "address",
          "name": "owner",
          "type": "address"
        },
        {
          "internalType": "address",
          "name": "spender",
          "type": "address"
        }
      ],
      "name": "allowance",
      "outputs": [
        {
          "internalType": "uint256",
          "name": "",
          "type": "uint256"
        }
      ],
      "stateMutability": "view",
      "type": "function"
    },
    {
      "inputs": [
        {
          "internalType": "address",
          "name": "spender",
          "type": "address"
        },
        {
          "internalType": "uint256",
          "name": "amount",
          "type": "uint256"
        }
      ],
      "name": "approve",
      "outputs": [
        {
          "internalType": "bool",
          "name": "",
          "type": "bool"
        }
      ],
      "stateMutability": "nonpayable",
      "type": "function"
    },
    {
      "inputs": [
        {
          "internalType": "address",
          "name": "account",
          "type": "address"
        }
      ],
      "name": "balanceOf",
      "outputs": [
        {
          "internalType": "uint256",
          "name": "",
          "type": "uint256"
        }
      ],
      "stateMutability": "view",
      "type": "function"
    },
    {
      "inputs": [
        {
          "internalType": "uint256",
          "name": "amount",
          "type": "uint256"
        }
      ],
      "name": "burn",
      "outputs": [],
      "stateMutability": "nonpayable",
      "type": "function"
    },
    {
      "inputs": [
        {
          "internalType": "address",
          "name": "account",
          "type": "address"
        },
        {
          "internalType": "uint256",
          "name": "amount",
          "type": "uint256"
        }
      ],
      "name": "burnFrom",
      "outputs": [],
      "stateMutability": "nonpayable",
      "type": "function"
    },
    {
      "inputs": [],
      "name": "decimals",
      "outputs": [
        {
          "internalType": "uint8",
          "name": "",
          "type": "uint8"
        }
      ],
      "stateMutability": "view",
      "type": "function"
    },
    {
      "inputs": [
        {
          "internalType": "address",
          "name": "spender",
          "type": "address"
        },
        {
          "internalType": "uint256",
          "name": "subtractedValue",
          "type": "uint256"
        }
      ],
      "name": "decreaseAllowance",
      "outputs": [
        {
          "internalType": "bool",
          "name": "",
          "type": "bool"
        }
      ],
      "stateMutability": "nonpayable",
      "type": "function"
    },
    {
      "inputs": [],
      "name": "getImplementation",
      "outputs": [
        {
          "internalType": "address",
          "name": "",
          "type": "address"
        }
      ],
      "stateMutability": "view",
      "type": "function"
    },
    {
      "inputs": [
        {
          "internalType": "bytes32",
          "name": "role",
          "type": "bytes32"
        }
      ],
      "name": "getRoleAdmin",
      "outputs": [
        {
          "internalType": "bytes32",
          "name": "",
          "type": "bytes32"
        }
      ],
      "stateMutability": "view",
      "type": "function"
    },
    {
      "inputs": [
        {
          "internalType": "bytes32",
          "name": "role",
          "type": "bytes32"
        },
        {
          "internalType": "address",
          "name": "account",
          "type": "address"
        }
      ],
      "name": "grantRole",
      "outputs": [],
      "stateMutability": "nonpayable",
      "type": "function"
    },
    {
      "inputs": [
        {
          "internalType": "bytes32",
          "name": "role",
          "type": "bytes32"
        },
        {
          "internalType": "address",
          "name": "account",
          "type": "address"
        }
      ],
      "name": "hasRole",
      "outputs": [
        {
          "internalType": "bool",
          "name": "",
          "type": "bool"
        }
      ],
      "stateMutability": "view",
      "type": "function"
    },
    {
      "inputs": [
        {
          "internalType": "address",
          "name": "spender",
          "type": "address"
        },
        {
          "internalType": "uint256",
          "name": "addedValue",
          "type": "uint256"
        }
      ],
      "name": "increaseAllowance",
      "outputs": [
        {
          "internalType": "bool",
          "name": "",
          "type": "bool"
        }
      ],
      "stateMutability": "nonpayable",
      "type": "function"
    },
    {
      "inputs": [
        {
          "internalType": "string",
          "name": "name_",
          "type": "string"
        },
        {
          "internalType": "string",
          "name": "symbol_",
          "type": "string"
        },
        {
          "internalType": "uint8",
          "name": "decimals_",
          "type": "uint8"
        },
        {
          "internalType": "uint256",
          "name": "amount_",
          "type": "uint256"
        }
      ],
      "name": "initialize",
      "outputs": [],
      "stateMutability": "nonpayable",
      "type": "function"
    },
    {
      "inputs": [],
      "name": "name",
      "outputs": [
        {
          "internalType": "string",
          "name": "",
          "type": "string"
        }
      ],
      "stateMutability": "view",
      "type": "function"
    },
    {
      "inputs": [
        {
          "internalType": "address",
          "name": "implementationAddress",
          "type": "address"
        }
      ],
      "name": "proposeNewImplementation",
      "outputs": [],
      "stateMutability": "nonpayable",
      "type": "function"
    },
    {
      "inputs": [
        {
          "internalType": "address[]",
          "name": "addresses",
          "type": "address[]"
        }
      ],
      "name": "removeAddressesFromBlacklist",
      "outputs": [],
      "stateMutability": "nonpayable",
      "type": "function"
    },
    {
      "inputs": [
        {
          "internalType": "bytes32",
          "name": "role",
          "type": "bytes32"
        },
        {
          "internalType": "address",
          "name": "account",
          "type": "address"
        }
      ],
      "name": "renounceRole",
      "outputs": [],
      "stateMutability": "nonpayable",
      "type": "function"
    },
    {
      "inputs": [
        {
          "internalType": "bytes32",
          "name": "role",
          "type": "bytes32"
        },
        {
          "internalType": "address",
          "name": "account",
          "type": "address"
        }
      ],
      "name": "revokeRole",
      "outputs": [],
      "stateMutability": "nonpayable",
      "type": "function"
    },
    {
      "inputs": [
        {
          "internalType": "bytes4",
          "name": "interfaceId",
          "type": "bytes4"
        }
      ],
      "name": "supportsInterface",
      "outputs": [
        {
          "internalType": "bool",
          "name": "",
          "type": "bool"
        }
      ],
      "stateMutability": "view",
      "type": "function"
    },
    {
      "inputs": [],
      "name": "symbol",
      "outputs": [
        {
          "internalType": "string",
          "name": "",
          "type": "string"
        }
      ],
      "stateMutability": "view",
      "type": "function"
    },
    {
      "inputs": [],
      "name": "totalSupply",
      "outputs": [
        {
          "internalType": "uint256",
          "name": "",
          "type": "uint256"
        }
      ],
      "stateMutability": "view",
      "type": "function"
    },
    {
      "inputs": [
        {
          "internalType": "address",
          "name": "recipient",
          "type": "address"
        },
        {
          "internalType": "uint256",
          "name": "amount",
          "type": "uint256"
        }
      ],
      "name": "transfer",
      "outputs": [
        {
          "internalType": "bool",
          "name": "",
          "type": "bool"
        }
      ],
      "stateMutability": "nonpayable",
      "type": "function"
    },
    {
      "inputs": [
        {
          "internalType": "address",
          "name": "sender",
          "type": "address"
        },
        {
          "internalType": "address",
          "name": "recipient",
          "type": "address"
        },
        {
          "internalType": "uint256",
          "name": "amount",
          "type": "uint256"
        }
      ],
      "name": "transferFrom",
      "outputs": [
        {
          "internalType": "bool",
          "name": "",
          "type": "bool"
        }
      ],
      "stateMutability": "nonpayable",
      "type": "function"
    },
    {
      "inputs": [
        {
          "internalType": "address",
          "name": "newImplementation",
          "type": "address"
        }
      ],
      "name": "upgradeTo",
      "outputs": [],
      "stateMutability": "nonpayable",
      "type": "function"
    },
    {
      "inputs": [
        {
          "internalType": "address",
          "name": "newImplementation",
          "type": "address"
        },
        {
          "internalType": "bytes",
          "name": "data",
          "type": "bytes"
        }
      ],
      "name": "upgradeToAndCall",
      "outputs": [],
      "stateMutability": "payable",
      "type": "function"
    }
  ],
  "bytecode": "0x60a06040523060601b60805234801561001757600080fd5b5060805160601c61262e61004b60003960008181610998015281816109d801528181610ae40152610b24015261262e6000f3fe6080604052600436106101d85760003560e01c806343ffa64e11610102578063a217fddf11610095578063ca73419e11610064578063ca73419e1461056e578063d547741f1461058e578063dd62ed3e146105ae578063f36c8f5c146105f457600080fd5b8063a217fddf146104ec578063a457c2d714610501578063a9059cbb14610521578063aaf10f421461054157600080fd5b806370a08231116100d157806370a082311461046157806379cc67901461049757806391d14854146104b757806395d89b41146104d757600080fd5b806343ffa64e146103ea57806347757fb61461040c5780634f1ef2861461042c57806362b199c51461043f57600080fd5b80632f2ff15d1161017a5780633659cfe6116101495780633659cfe6146103685780633950935114610388578063410b2424146103a857806342966c68146103ca57600080fd5b80632f2ff15d146102e5578063313ce56714610305578063322587941461032857806336568abe1461034857600080fd5b806318160ddd116101b657806318160ddd1461025457806323b872dd14610273578063248a9ca314610293578063253279ad146102c357600080fd5b806301ffc9a7146101dd57806306fdde0314610212578063095ea7b314610234575b600080fd5b3480156101e957600080fd5b506101fd6101f83660046121c5565b610616565b60405190151581526020015b60405180910390f35b34801561021e57600080fd5b5061022761064d565b6040516102099190612312565b34801561024057600080fd5b506101fd61024f3660046120ea565b6106df565b34801561026057600080fd5b506067545b604051908152602001610209565b34801561027f57600080fd5b506101fd61028e366004611fec565b6106f5565b34801561029f57600080fd5b506102656102ae366004612189565b600090815260fb602052604090206001015490565b3480156102cf57600080fd5b506102e36102de3660046121ef565b6107a6565b005b3480156102f157600080fd5b506102e36103003660046121a2565b6108ec565b34801561031157600080fd5b506101605460405160ff9091168152602001610209565b34801561033457600080fd5b506102e3610343366004612114565b610904565b34801561035457600080fd5b506102e36103633660046121a2565b610979565b34801561037457600080fd5b506102e3610383366004611f9e565b61098d565b34801561039457600080fd5b506101fd6103a33660046120ea565b610a56565b3480156103b457600080fd5b506102656000805160206125b283398151915281565b3480156103d657600080fd5b506102e36103e5366004612189565b610a92565b3480156103f657600080fd5b5061026560008051602061257283398151915281565b34801561041857600080fd5b506102e3610427366004611f9e565b610a9c565b6102e361043a366004612028565b610ad9565b34801561044b57600080fd5b5061026560008051602061255283398151915281565b34801561046d57600080fd5b5061026561047c366004611f9e565b6001600160a01b031660009081526065602052604090205490565b3480156104a357600080fd5b506102e36104b23660046120ea565b610b8f565b3480156104c357600080fd5b506101fd6104d23660046121a2565b610c15565b3480156104e357600080fd5b50610227610c40565b3480156104f857600080fd5b50610265600081565b34801561050d57600080fd5b506101fd61051c3660046120ea565b610c4f565b34801561052d57600080fd5b506101fd61053c3660046120ea565b610ce8565b34801561054d57600080fd5b50610556610cf5565b6040516001600160a01b039091168152602001610209565b34801561057a57600080fd5b506102e3610589366004612114565b610d04565b34801561059a57600080fd5b506102e36105a93660046121a2565b610d73565b3480156105ba57600080fd5b506102656105c9366004611fb9565b6001600160a01b03918216600090815260666020908152604080832093909416825291909152205490565b34801561060057600080fd5b5061026560008051602061259283398151915281565b60006001600160e01b03198216637965db0b60e01b148061064757506301ffc9a760e01b6001600160e01b03198316145b92915050565b60606068805461065c906124b9565b80601f0160208091040260200160405190810160405280929190818152602001828054610688906124b9565b80156106d55780601f106106aa576101008083540402835291602001916106d5565b820191906000526020600020905b8154815290600101906020018083116106b857829003601f168201915b5050505050905090565b60006106ec338484610d99565b50600192915050565b6000610702848484610ebd565b6001600160a01b03841660009081526066602090815260408083203384529091529020548281101561078c5760405162461bcd60e51b815260206004820152602860248201527f45524332303a207472616e7366657220616d6f756e74206578636565647320616044820152676c6c6f77616e636560c01b60648201526084015b60405180910390fd5b6107998533858403610d99565b60019150505b9392505050565b600054610100900460ff166107c15760005460ff16156107c5565b303b155b6108285760405162461bcd60e51b815260206004820152602e60248201527f496e697469616c697a61626c653a20636f6e747261637420697320616c72656160448201526d191e481a5b9a5d1a585b1a5e995960921b6064820152608401610783565b600054610100900460ff1615801561084a576000805461ffff19166101011790555b6108c187878080601f01602080910402602001604051908101604052809392919081815260200183838082843760009201919091525050604080516020601f8b0181900481028201810190925289815292508991508890819084018382808284376000920191909152508892508791506110969050565b6108c96110d9565b6108d1611102565b80156108e3576000805461ff00191690555b50505050505050565b6108f6828261114f565b61090082826111de565b5050565b6000805160206125b283398151915261091d8133611204565b60005b828110156109735761096160008051602061255283398151915285858481811061094c5761094c612525565b90506020020160208101906105a99190611f9e565b8061096b816124f4565b915050610920565b50505050565b6109838282611268565b61090082826112d0565b306001600160a01b037f00000000000000000000000000000000000000000000000000000000000000001614156109d65760405162461bcd60e51b815260040161078390612345565b7f00000000000000000000000000000000000000000000000000000000000000006001600160a01b0316610a0861134a565b6001600160a01b031614610a2e5760405162461bcd60e51b815260040161078390612391565b610a3781611378565b60408051600080825260208201909252610a53918391906113fa565b50565b3360008181526066602090815260408083206001600160a01b038716845290915281205490916106ec918590610a8d908690612428565b610d99565b610a533382611545565b600080516020612592833981519152610ab58133611204565b5061012d80546001600160a01b0319166001600160a01b0392909216919091179055565b306001600160a01b037f0000000000000000000000000000000000000000000000000000000000000000161415610b225760405162461bcd60e51b815260040161078390612345565b7f00000000000000000000000000000000000000000000000000000000000000006001600160a01b0316610b5461134a565b6001600160a01b031614610b7a5760405162461bcd60e51b815260040161078390612391565b610b8382611378565b610900828260016113fa565b6000610b9b83336105c9565b905081811015610bf95760405162461bcd60e51b8152602060048201526024808201527f45524332303a206275726e20616d6f756e74206578636565647320616c6c6f77604482015263616e636560e01b6064820152608401610783565b610c068333848403610d99565b610c108383611545565b505050565b600091825260fb602090815260408084206001600160a01b0393909316845291905290205460ff1690565b60606069805461065c906124b9565b3360009081526066602090815260408083206001600160a01b038616845290915281205482811015610cd15760405162461bcd60e51b815260206004820152602560248201527f45524332303a2064656372656173656420616c6c6f77616e63652062656c6f77604482015264207a65726f60d81b6064820152608401610783565b610cde3385858403610d99565b5060019392505050565b60006106ec338484610ebd565b6000610cff61134a565b905090565b6000805160206125b2833981519152610d1d8133611204565b60005b8281101561097357610d61600080516020612552833981519152858584818110610d4c57610d4c612525565b90506020020160208101906103009190611f9e565b80610d6b816124f4565b915050610d20565b600082815260fb6020526040902060010154610d8f8133611204565b610c10838361169f565b6001600160a01b038316610dfb5760405162461bcd60e51b8152602060048201526024808201527f45524332303a20617070726f76652066726f6d20746865207a65726f206164646044820152637265737360e01b6064820152608401610783565b6001600160a01b038216610e5c5760405162461bcd60e51b815260206004820152602260248201527f45524332303a20617070726f766520746f20746865207a65726f206164647265604482015261737360f01b6064820152608401610783565b6001600160a01b0383811660008181526066602090815260408083209487168084529482529182902085905590518481527f8c5be1e5ebec7d5bd14f71427d1e84f3dd0314c0f7b2291e5b200ac8c7c3b925910160405180910390a3505050565b6001600160a01b038316610f215760405162461bcd60e51b815260206004820152602560248201527f45524332303a207472616e736665722066726f6d20746865207a65726f206164604482015264647265737360d81b6064820152608401610783565b6001600160a01b038216610f835760405162461bcd60e51b815260206004820152602360248201527f45524332303a207472616e7366657220746f20746865207a65726f206164647260448201526265737360e81b6064820152608401610783565b610f8e838383611706565b6001600160a01b038316600090815260656020526040902054818110156110065760405162461bcd60e51b815260206004820152602660248201527f45524332303a207472616e7366657220616d6f756e7420657863656564732062604482015265616c616e636560d01b6064820152608401610783565b6001600160a01b0380851660009081526065602052604080822085850390559185168152908120805484929061103d908490612428565b92505081905550826001600160a01b0316846001600160a01b03167fddf252ad1be2c89b69c2b068fc378daa952ba7f163c4a11628f55a4df523b3ef8460405161108991815260200190565b60405180910390a3610973565b600054610100900460ff166110bd5760405162461bcd60e51b8152600401610783906123dd565b6110c5611711565b6110cf8484611768565b61097382826117b6565b600054610100900460ff166111005760405162461bcd60e51b8152600401610783906123dd565b565b600054610100900460ff166111295760405162461bcd60e51b8152600401610783906123dd565b6111006000805160206125528339815191526000805160206125b28339815191526117f7565b6000805160206125b2833981519152821480611169575081155b156109005761118660008051602061255283398151915282610c15565b156109005760405162461bcd60e51b815260206004820152602260248201527f63616e206e6f742061737369676e20726f6c6520746f20626c61636b6c697374604482015261195960f21b6064820152608401610783565b600082815260fb60205260409020600101546111fa8133611204565b610c108383611842565b61120e8282610c15565b61090057611226816001600160a01b031660146118c8565b6112318360206118c8565b60405160200161124292919061229d565b60408051601f198184030181529082905262461bcd60e51b825261078391600401612312565b6000805160206125528339815191528214156109005760405162461bcd60e51b815260206004820152602160248201527f43616e206e6f742072656e6f756e636520626c61636b6c697374656420726f6c6044820152606560f81b6064820152608401610783565b6001600160a01b03811633146113405760405162461bcd60e51b815260206004820152602f60248201527f416363657373436f6e74726f6c3a2063616e206f6e6c792072656e6f756e636560448201526e103937b632b9903337b91039b2b63360891b6064820152608401610783565b610900828261169f565b7f360894a13ba1a3210667c828492db98dca3e2076cc3735a920a3ca505d382bbc546001600160a01b031690565b61139060008051602061259283398151915233610c15565b806113ae57506113ae60008051602061257283398151915233610c15565b610a535760405162461bcd60e51b815260206004820152601d60248201527f4552524f523a2041646472657373206e6f7420617574686f72697a65640000006044820152606401610783565b600061140461134a565b905061140f84611a64565b60008351118061141c5750815b1561142d5761142b8484611b09565b505b7f4910fdfa16fed3260ed0e7147f7cc6da11a60208b5b9406d12a635614ffd9143805460ff1661153e57805460ff191660011781556040516001600160a01b03831660248201526114ac90869060440160408051601f198184030181529190526020810180516001600160e01b0316631b2ce7f360e11b179052611b09565b50805460ff191681556114bd61134a565b6001600160a01b0316826001600160a01b0316146115355760405162461bcd60e51b815260206004820152602f60248201527f45524331393637557067726164653a207570677261646520627265616b73206660448201526e75727468657220757067726164657360881b6064820152608401610783565b61153e85611bf4565b5050505050565b6001600160a01b0382166115a55760405162461bcd60e51b815260206004820152602160248201527f45524332303a206275726e2066726f6d20746865207a65726f206164647265736044820152607360f81b6064820152608401610783565b6115b182600083611706565b6001600160a01b038216600090815260656020526040902054818110156116255760405162461bcd60e51b815260206004820152602260248201527f45524332303a206275726e20616d6f756e7420657863656564732062616c616e604482015261636560f01b6064820152608401610783565b6001600160a01b038316600090815260656020526040812083830390556067805484929061165490849061245f565b90915550506040518281526000906001600160a01b038516907fddf252ad1be2c89b69c2b068fc378daa952ba7f163c4a11628f55a4df523b3ef9060200160405180910390a3505050565b6116a98282610c15565b1561090057600082815260fb602090815260408083206001600160a01b0385168085529252808320805460ff1916905551339285917ff6391f5c32d9c69d2a47ea670b442974b53935d1edc7fd64eb21e047a839171b9190a45050565b610c10838383611c34565b600054610100900460ff166117385760405162461bcd60e51b8152600401610783906123dd565b6117406110d9565b6117486110d9565b6117506110d9565b6117586110d9565b6117606110d9565b611100611c8c565b600054610100900460ff1661178f5760405162461bcd60e51b8152600401610783906123dd565b81516117a2906068906020850190611ea0565b508051610c10906069906020840190611ea0565b600054610100900460ff166117dd5760405162461bcd60e51b8152600401610783906123dd565b610160805460ff191660ff84161790556109003382611d14565b600082815260fb6020526040808220600101805490849055905190918391839186917fbd79b86ffe0ab8e8776151514217cd7cacd52c909f66475c3af44e129f0b00ff9190a4505050565b61184c8282610c15565b61090057600082815260fb602090815260408083206001600160a01b03851684529091529020805460ff191660011790556118843390565b6001600160a01b0316816001600160a01b0316837f2f8788117e7eff1d82e926ec794901d17c78024a50270940304540a733656f0d60405160405180910390a45050565b606060006118d7836002612440565b6118e2906002612428565b67ffffffffffffffff8111156118fa576118fa61253b565b6040519080825280601f01601f191660200182016040528015611924576020820181803683370190505b509050600360fc1b8160008151811061193f5761193f612525565b60200101906001600160f81b031916908160001a905350600f60fb1b8160018151811061196e5761196e612525565b60200101906001600160f81b031916908160001a9053506000611992846002612440565b61199d906001612428565b90505b6001811115611a15576f181899199a1a9b1b9c1cb0b131b232b360811b85600f16601081106119d1576119d1612525565b1a60f81b8282815181106119e7576119e7612525565b60200101906001600160f81b031916908160001a90535060049490941c93611a0e816124a2565b90506119a0565b50831561079f5760405162461bcd60e51b815260206004820181905260248201527f537472696e67733a20686578206c656e67746820696e73756666696369656e746044820152606401610783565b803b611ac85760405162461bcd60e51b815260206004820152602d60248201527f455243313936373a206e657720696d706c656d656e746174696f6e206973206e60448201526c1bdd08184818dbdb9d1c9858dd609a1b6064820152608401610783565b7f360894a13ba1a3210667c828492db98dca3e2076cc3735a920a3ca505d382bbc80546001600160a01b0319166001600160a01b0392909216919091179055565b6060823b611b685760405162461bcd60e51b815260206004820152602660248201527f416464726573733a2064656c65676174652063616c6c20746f206e6f6e2d636f6044820152651b9d1c9858dd60d21b6064820152608401610783565b600080846001600160a01b031684604051611b839190612281565b600060405180830381855af49150503d8060008114611bbe576040519150601f19603f3d011682016040523d82523d6000602084013e611bc3565b606091505b5091509150611beb82826040518060600160405280602781526020016125d260279139611dff565b95945050505050565b611bfd81611a64565b6040516001600160a01b038216907fbc7cd75a20ee27fd9adebab32041f755214dbc6bffa90cc0225b39da2e5c2d3b90600090a250565b611c3f338484611e38565b15610c105760405162461bcd60e51b815260206004820152601a60248201527f4552524f523a204164647265737320426c61636b6c69737465640000000000006044820152606401610783565b600054610100900460ff16611cb35760405162461bcd60e51b8152600401610783906123dd565b611cbe600033611e96565b611cd660008051602061259283398151915233611e96565b611cee60008051602061257283398151915233611e96565b6111006000805160206125728339815191526000805160206125928339815191526117f7565b6001600160a01b038216611d6a5760405162461bcd60e51b815260206004820152601f60248201527f45524332303a206d696e7420746f20746865207a65726f2061646472657373006044820152606401610783565b611d7660008383611706565b8060676000828254611d889190612428565b90915550506001600160a01b03821660009081526065602052604081208054839290611db5908490612428565b90915550506040518181526001600160a01b038316906000907fddf252ad1be2c89b69c2b068fc378daa952ba7f163c4a11628f55a4df523b3ef9060200160405180910390a35050565b60608315611e0e57508161079f565b825115611e1e5782518084602001fd5b8160405162461bcd60e51b81526004016107839190612312565b6000611e5260008051602061255283398151915284610c15565b80611e705750611e7060008051602061255283398151915285610c15565b80611e8e5750611e8e60008051602061255283398151915283610c15565b949350505050565b6109008282611842565b828054611eac906124b9565b90600052602060002090601f016020900481019282611ece5760008555611f14565b82601f10611ee757805160ff1916838001178555611f14565b82800160010185558215611f14579182015b82811115611f14578251825591602001919060010190611ef9565b50611f20929150611f24565b5090565b5b80821115611f205760008155600101611f25565b80356001600160a01b0381168114611f5057600080fd5b919050565b60008083601f840112611f6757600080fd5b50813567ffffffffffffffff811115611f7f57600080fd5b602083019150836020828501011115611f9757600080fd5b9250929050565b600060208284031215611fb057600080fd5b61079f82611f39565b60008060408385031215611fcc57600080fd5b611fd583611f39565b9150611fe360208401611f39565b90509250929050565b60008060006060848603121561200157600080fd5b61200a84611f39565b925061201860208501611f39565b9150604084013590509250925092565b6000806040838503121561203b57600080fd5b61204483611f39565b9150602083013567ffffffffffffffff8082111561206157600080fd5b818501915085601f83011261207557600080fd5b8135818111156120875761208761253b565b604051601f8201601f19908116603f011681019083821181831017156120af576120af61253b565b816040528281528860208487010111156120c857600080fd5b8260208601602083013760006020848301015280955050505050509250929050565b600080604083850312156120fd57600080fd5b61210683611f39565b946020939093013593505050565b6000806020838503121561212757600080fd5b823567ffffffffffffffff8082111561213f57600080fd5b818501915085601f83011261215357600080fd5b81358181111561216257600080fd5b8660208260051b850101111561217757600080fd5b60209290920196919550909350505050565b60006020828403121561219b57600080fd5b5035919050565b600080604083850312156121b557600080fd5b82359150611fe360208401611f39565b6000602082840312156121d757600080fd5b81356001600160e01b03198116811461079f57600080fd5b6000806000806000806080878903121561220857600080fd5b863567ffffffffffffffff8082111561222057600080fd5b61222c8a838b01611f55565b9098509650602089013591508082111561224557600080fd5b5061225289828a01611f55565b909550935050604087013560ff8116811461226c57600080fd5b80925050606087013590509295509295509295565b60008251612293818460208701612476565b9190910192915050565b7f416363657373436f6e74726f6c3a206163636f756e74200000000000000000008152600083516122d5816017850160208801612476565b7001034b99036b4b9b9b4b733903937b6329607d1b6017918401918201528351612306816028840160208801612476565b01602801949350505050565b6020815260008251806020840152612331816040850160208701612476565b601f01601f19169190910160400192915050565b6020808252602c908201527f46756e6374696f6e206d7573742062652063616c6c6564207468726f7567682060408201526b19195b1959d85d1958d85b1b60a21b606082015260800190565b6020808252602c908201527f46756e6374696f6e206d7573742062652063616c6c6564207468726f7567682060408201526b6163746976652070726f787960a01b606082015260800190565b6020808252602b908201527f496e697469616c697a61626c653a20636f6e7472616374206973206e6f74206960408201526a6e697469616c697a696e6760a81b606082015260800190565b6000821982111561243b5761243b61250f565b500190565b600081600019048311821515161561245a5761245a61250f565b500290565b6000828210156124715761247161250f565b500390565b60005b83811015612491578181015183820152602001612479565b838111156109735750506000910152565b6000816124b1576124b161250f565b506000190190565b600181811c908216806124cd57607f821691505b602082108114156124ee57634e487b7160e01b600052602260045260246000fd5b50919050565b60006000198214156125085761250861250f565b5060010190565b634e487b7160e01b600052601160045260246000fd5b634e487b7160e01b600052603260045260246000fd5b634e487b7160e01b600052604160045260246000fdfe548c7f0307ab2a7ea894e5c7e8c5353cc750bb9385ee2e945f189a9a83daa8eda76ace73a908083d89af9ff88e5b4f7cadb3591a80631063f68b695fda726db571840dc4906352362b0cdaf79870196c8e42acafade72d5d5a6d59291253ceb1f988e4fb62b8e14f4820fed03192306ddf4d7dbfa215595ba1c6ba4b76b369ee416464726573733a206c6f772d6c6576656c2064656c65676174652063616c6c206661696c6564a2646970667358221220faa90ce57aefdbea0400c816cf7b1629dcd55bd5b93a774adfad3b70f7f9a76864736f6c63430008060033",
  "linkReferences": {},
  "deployedLinkReferences": {}
}