{
  "_format": "hh-sol-artifact-1",
  "name": "BlacklistMintWhiteListTemplate",
  "initializer": "function initialize(string name_, string symbol_, uint8 decimals_, uint256 amount_)",
  "sourceName": "contracts/templates/BlacklistMintWhiteListTemplate.sol",
  "abi": [
    {
      "anonymous": false,
      "inputs": [
        {
          "indexed": false,
          "internalType": "address",
          "name": "previousAdmin",
          "type": "address"
        },
        {
          "indexed": false,
          "internalType": "address",
          "name": "newAdmin",
          "type": "address"
        }
      ],
      "name": "AdminChanged",
      "type": "event"
    },
    {
      "anonymous": false,
      "inputs": [
        {
          "indexed": true,
          "internalType": "address",
          "name": "owner",
          "type": "address"
        },
        {
          "indexed": true,
          "internalType": "address",
          "name": "spender",
          "type": "address"
        },
        {
          "indexed": false,
          "internalType": "uint256",
          "name": "value",
          "type": "uint256"
        }
      ],
      "name": "Approval",
      "type": "event"
    },
    {
      "anonymous": false,
      "inputs": [
        {
          "indexed": true,
          "internalType": "address",
          "name": "beacon",
          "type": "address"
        }
      ],
      "name": "BeaconUpgraded",
      "type": "event"
    },
    {
      "anonymous": false,
      "inputs": [
        {
          "indexed": false,
          "internalType": "address",
          "name": "account",
          "type": "address"
        }
      ],
      "name": "Paused",
      "type": "event"
    },
    {
      "anonymous": false,
      "inputs": [
        {
          "indexed": true,
          "internalType": "bytes32",
          "name": "role",
          "type": "bytes32"
        },
        {
          "indexed": true,
          "internalType": "bytes32",
          "name": "previousAdminRole",
          "type": "bytes32"
        },
        {
          "indexed": true,
          "internalType": "bytes32",
          "name": "newAdminRole",
          "type": "bytes32"
        }
      ],
      "name": "RoleAdminChanged",
      "type": "event"
    },
    {
      "anonymous": false,
      "inputs": [
        {
          "indexed": true,
          "internalType": "bytes32",
          "name": "role",
          "type": "bytes32"
        },
        {
          "indexed": true,
          "internalType": "address",
          "name": "account",
          "type": "address"
        },
        {
          "indexed": true,
          "internalType": "address",
          "name": "sender",
          "type": "address"
        }
      ],
      "name": "RoleGranted",
      "type": "event"
    },
    {
      "anonymous": false,
      "inputs": [
        {
          "indexed": true,
          "internalType": "bytes32",
          "name": "role",
          "type": "bytes32"
        },
        {
          "indexed": true,
          "internalType": "address",
          "name": "account",
          "type": "address"
        },
        {
          "indexed": true,
          "internalType": "address",
          "name": "sender",
          "type": "address"
        }
      ],
      "name": "RoleRevoked",
      "type": "event"
    },
    {
      "anonymous": false,
      "inputs": [
        {
          "indexed": true,
          "internalType": "address",
          "name": "from",
          "type": "address"
        },
        {
          "indexed": true,
          "internalType": "address",
          "name": "to",
          "type": "address"
        },
        {
          "indexed": false,
          "internalType": "uint256",
          "name": "value",
          "type": "uint256"
        }
      ],
      "name": "Transfer",
      "type": "event"
    },
    {
      "anonymous": false,
      "inputs": [
        {
          "indexed": false,
          "internalType": "address",
          "name": "account",
          "type": "address"
        }
      ],
      "name": "Unpaused",
      "type": "event"
    },
    {
      "anonymous": false,
      "inputs": [
        {
          "indexed": true,
          "internalType": "address",
          "name": "implementation",
          "type": "address"
        }
      ],
      "name": "Upgraded",
      "type": "event"
    },
    {
      "inputs": [],
      "name": "BLACKLISTED_ROLE",
      "outputs": [
        {
          "internalType": "bytes32",
          "name": "",
          "type": "bytes32"
        }
      ],
      "stateMutability": "view",
      "type": "function"
    },
    {
      "inputs": [],
      "name": "BLACKLIST_MANAGER_ROLE",
      "outputs": [
        {
          "internalType": "bytes32",
          "name": "",
          "type": "bytes32"
        }
      ],
      "stateMutability": "view",
      "type": "function"
    },
    {
      "inputs": [],
      "name": "DEFAULT_ADMIN_ROLE",
      "outputs": [
        {
          "internalType": "bytes32",
          "name": "",
          "type": "bytes32"
        }
      ],
      "stateMutability": "view",
      "type": "function"
    },
    {
      "inputs": [],
      "name": "GOVERNANCE_ROLE",
      "outputs": [
        {
          "internalType": "bytes32",
          "name": "",
          "type": "bytes32"
        }
      ],
      "stateMutability": "view",
      "type": "function"
    },
    {
      "inputs": [],
      "name": "MINTER_ROLE",
      "outputs": [
        {
          "internalType": "bytes32",
          "name": "",
          "type": "bytes32"
        }
      ],
      "stateMutability": "view",
      "type": "function"
    },
    {
      "inputs": [],
      "name": "PAUSE_MANAGER_ROLE",
      "outputs": [
        {
          "internalType": "bytes32",
          "name": "",
          "type": "bytes32"
        }
      ],
      "stateMutability": "view",
      "type": "function"
    },
    {
      "inputs": [],
      "name": "UPGRADE_MANAGER_ROLE",
      "outputs": [
        {
          "internalType": "bytes32",
          "name": "",
          "type": "bytes32"
        }
      ],
      "stateMutability": "view",
      "type": "function"
    },
    {
      "inputs": [],
      "name": "WHITELISTED_FROM_ROLE",
      "outputs": [
        {
          "internalType": "bytes32",
          "name": "",
          "type": "bytes32"
        }
      ],
      "stateMutability": "view",
      "type": "function"
    },
    {
      "inputs": [],
      "name": "WHITELISTED_SENDER_ROLE",
      "outputs": [
        {
          "internalType": "bytes32",
          "name": "",
          "type": "bytes32"
        }
      ],
      "stateMutability": "view",
      "type": "function"
    },
    {
      "inputs": [
        {
          "internalType": "address[]",
          "name": "addresses",
          "type": "address[]"
        }
      ],
      "name": "addAddressesToBlacklist",
      "outputs": [],
      "stateMutability": "nonpayable",
      "type": "function"
    },
    {
      "inputs": [
        {
          "internalType": "address[]",
          "name": "addresses",
          "type": "address[]"
        }
      ],
      "name": "addAddressesToWhitelistFrom",
      "outputs": [],
      "stateMutability": "nonpayable",
      "type": "function"
    },
    {
      "inputs": [
        {
          "internalType": "address[]",
          "name": "addresses",
          "type": "address[]"
        }
      ],
      "name": "addAddressesToWhitelistSender",
      "outputs": [],
      "stateMutability": "nonpayable",
      "type": "function"
    },
    {
      "inputs": [
        {
          "internalType": "address",
          "name": "owner",
          "type": "address"
        },
        {
          "internalType": "address",
          "name": "spender",
          "type": "address"
        }
      ],
      "name": "allowance",
      "outputs": [
        {
          "internalType": "uint256",
          "name": "",
          "type": "uint256"
        }
      ],
      "stateMutability": "view",
      "type": "function"
    },
    {
      "inputs": [
        {
          "internalType": "address",
          "name": "spender",
          "type": "address"
        },
        {
          "internalType": "uint256",
          "name": "amount",
          "type": "uint256"
        }
      ],
      "name": "approve",
      "outputs": [
        {
          "internalType": "bool",
          "name": "",
          "type": "bool"
        }
      ],
      "stateMutability": "nonpayable",
      "type": "function"
    },
    {
      "inputs": [
        {
          "internalType": "address",
          "name": "account",
          "type": "address"
        }
      ],
      "name": "balanceOf",
      "outputs": [
        {
          "internalType": "uint256",
          "name": "",
          "type": "uint256"
        }
      ],
      "stateMutability": "view",
      "type": "function"
    },
    {
      "inputs": [
        {
          "internalType": "address[]",
          "name": "accounts",
          "type": "address[]"
        },
        {
          "internalType": "uint256[]",
          "name": "amounts",
          "type": "uint256[]"
        }
      ],
      "name": "bulkMint",
      "outputs": [],
      "stateMutability": "nonpayable",
      "type": "function"
    },
    {
      "inputs": [],
      "name": "decimals",
      "outputs": [
        {
          "internalType": "uint8",
          "name": "",
          "type": "uint8"
        }
      ],
      "stateMutability": "view",
      "type": "function"
    },
    {
      "inputs": [
        {
          "internalType": "address",
          "name": "spender",
          "type": "address"
        },
        {
          "internalType": "uint256",
          "name": "subtractedValue",
          "type": "uint256"
        }
      ],
      "name": "decreaseAllowance",
      "outputs": [
        {
          "internalType": "bool",
          "name": "",
          "type": "bool"
        }
      ],
      "stateMutability": "nonpayable",
      "type": "function"
    },
    {
      "inputs": [],
      "name": "getImplementation",
      "outputs": [
        {
          "internalType": "address",
          "name": "",
          "type": "address"
        }
      ],
      "stateMutability": "view",
      "type": "function"
    },
    {
      "inputs": [
        {
          "internalType": "bytes32",
          "name": "role",
          "type": "bytes32"
        }
      ],
      "name": "getRoleAdmin",
      "outputs": [
        {
          "internalType": "bytes32",
          "name": "",
          "type": "bytes32"
        }
      ],
      "stateMutability": "view",
      "type": "function"
    },
    {
      "inputs": [
        {
          "internalType": "bytes32",
          "name": "role",
          "type": "bytes32"
        },
        {
          "internalType": "address",
          "name": "account",
          "type": "address"
        }
      ],
      "name": "grantRole",
      "outputs": [],
      "stateMutability": "nonpayable",
      "type": "function"
    },
    {
      "inputs": [
        {
          "internalType": "bytes32",
          "name": "role",
          "type": "bytes32"
        },
        {
          "internalType": "address",
          "name": "account",
          "type": "address"
        }
      ],
      "name": "hasRole",
      "outputs": [
        {
          "internalType": "bool",
          "name": "",
          "type": "bool"
        }
      ],
      "stateMutability": "view",
      "type": "function"
    },
    {
      "inputs": [
        {
          "internalType": "address",
          "name": "spender",
          "type": "address"
        },
        {
          "internalType": "uint256",
          "name": "addedValue",
          "type": "uint256"
        }
      ],
      "name": "increaseAllowance",
      "outputs": [
        {
          "internalType": "bool",
          "name": "",
          "type": "bool"
        }
      ],
      "stateMutability": "nonpayable",
      "type": "function"
    },
    {
      "inputs": [
        {
          "internalType": "string",
          "name": "name_",
          "type": "string"
        },
        {
          "internalType": "string",
          "name": "symbol_",
          "type": "string"
        },
        {
          "internalType": "uint8",
          "name": "decimals_",
          "type": "uint8"
        },
        {
          "internalType": "uint256",
          "name": "amount_",
          "type": "uint256"
        }
      ],
      "name": "initialize",
      "outputs": [],
      "stateMutability": "nonpayable",
      "type": "function"
    },
    {
      "inputs": [
        {
          "internalType": "address",
          "name": "account",
          "type": "address"
        },
        {
          "internalType": "uint256",
          "name": "amount",
          "type": "uint256"
        }
      ],
      "name": "mint",
      "outputs": [],
      "stateMutability": "nonpayable",
      "type": "function"
    },
    {
      "inputs": [],
      "name": "name",
      "outputs": [
        {
          "internalType": "string",
          "name": "",
          "type": "string"
        }
      ],
      "stateMutability": "view",
      "type": "function"
    },
    {
      "inputs": [],
      "name": "pause",
      "outputs": [],
      "stateMutability": "nonpayable",
      "type": "function"
    },
    {
      "inputs": [],
      "name": "paused",
      "outputs": [
        {
          "internalType": "bool",
          "name": "",
          "type": "bool"
        }
      ],
      "stateMutability": "view",
      "type": "function"
    },
    {
      "inputs": [
        {
          "internalType": "address",
          "name": "implementationAddress",
          "type": "address"
        }
      ],
      "name": "proposeNewImplementation",
      "outputs": [],
      "stateMutability": "nonpayable",
      "type": "function"
    },
    {
      "inputs": [
        {
          "internalType": "address[]",
          "name": "addresses",
          "type": "address[]"
        }
      ],
      "name": "removeAddressesFromBlacklist",
      "outputs": [],
      "stateMutability": "nonpayable",
      "type": "function"
    },
    {
      "inputs": [
        {
          "internalType": "address[]",
          "name": "addresses",
          "type": "address[]"
        }
      ],
      "name": "removeAddressesFromWhitelistFrom",
      "outputs": [],
      "stateMutability": "nonpayable",
      "type": "function"
    },
    {
      "inputs": [
        {
          "internalType": "address[]",
          "name": "addresses",
          "type": "address[]"
        }
      ],
      "name": "removeAddressesFromWhitelistSender",
      "outputs": [],
      "stateMutability": "nonpayable",
      "type": "function"
    },
    {
      "inputs": [
        {
          "internalType": "bytes32",
          "name": "role",
          "type": "bytes32"
        },
        {
          "internalType": "address",
          "name": "account",
          "type": "address"
        }
      ],
      "name": "renounceRole",
      "outputs": [],
      "stateMutability": "nonpayable",
      "type": "function"
    },
    {
      "inputs": [
        {
          "internalType": "bytes32",
          "name": "role",
          "type": "bytes32"
        },
        {
          "internalType": "address",
          "name": "account",
          "type": "address"
        }
      ],
      "name": "revokeRole",
      "outputs": [],
      "stateMutability": "nonpayable",
      "type": "function"
    },
    {
      "inputs": [
        {
          "internalType": "bytes4",
          "name": "interfaceId",
          "type": "bytes4"
        }
      ],
      "name": "supportsInterface",
      "outputs": [
        {
          "internalType": "bool",
          "name": "",
          "type": "bool"
        }
      ],
      "stateMutability": "view",
      "type": "function"
    },
    {
      "inputs": [],
      "name": "symbol",
      "outputs": [
        {
          "internalType": "string",
          "name": "",
          "type": "string"
        }
      ],
      "stateMutability": "view",
      "type": "function"
    },
    {
      "inputs": [],
      "name": "totalSupply",
      "outputs": [
        {
          "internalType": "uint256",
          "name": "",
          "type": "uint256"
        }
      ],
      "stateMutability": "view",
      "type": "function"
    },
    {
      "inputs": [
        {
          "internalType": "address",
          "name": "recipient",
          "type": "address"
        },
        {
          "internalType": "uint256",
          "name": "amount",
          "type": "uint256"
        }
      ],
      "name": "transfer",
      "outputs": [
        {
          "internalType": "bool",
          "name": "",
          "type": "bool"
        }
      ],
      "stateMutability": "nonpayable",
      "type": "function"
    },
    {
      "inputs": [
        {
          "internalType": "address",
          "name": "sender",
          "type": "address"
        },
        {
          "internalType": "address",
          "name": "recipient",
          "type": "address"
        },
        {
          "internalType": "uint256",
          "name": "amount",
          "type": "uint256"
        }
      ],
      "name": "transferFrom",
      "outputs": [
        {
          "internalType": "bool",
          "name": "",
          "type": "bool"
        }
      ],
      "stateMutability": "nonpayable",
      "type": "function"
    },
    {
      "inputs": [],
      "name": "unpause",
      "outputs": [],
      "stateMutability": "nonpayable",
      "type": "function"
    },
    {
      "inputs": [
        {
          "internalType": "address",
          "name": "newImplementation",
          "type": "address"
        }
      ],
      "name": "upgradeTo",
      "outputs": [],
      "stateMutability": "nonpayable",
      "type": "function"
    },
    {
      "inputs": [
        {
          "internalType": "address",
          "name": "newImplementation",
          "type": "address"
        },
        {
          "internalType": "bytes",
          "name": "data",
          "type": "bytes"
        }
      ],
      "name": "upgradeToAndCall",
      "outputs": [],
      "stateMutability": "payable",
      "type": "function"
    }
  ],
  "bytecode": "0x60a06040523060601b60805234801561001757600080fd5b5060805160601c612c5d61004b60003960008181610b8201528181610bc201528181610d1f0152610d5f0152612c5d6000f3fe6080604052600436106102515760003560e01c8063685ed81a11610139578063a9059cbb116100b6578063d53913931161007a578063d5391393146106fa578063d547741f1461072e578063d84f91e81461074e578063dd62ed3e14610770578063f36c8f5c146107b6578063f834c502146107d857600080fd5b8063a9059cbb1461064b578063aa74a34a1461066b578063aaf10f421461068d578063c233f3b7146106ba578063ca73419e146106da57600080fd5b80638456cb59116100fd5780638456cb59146105cc57806391d14854146105e157806395d89b4114610601578063a217fddf14610616578063a457c2d71461062b57600080fd5b8063685ed81a146105145780636ae459bd146105345780636e79a1c01461055457806370a0823114610574578063731ce8fc146105aa57600080fd5b806336568abe116101d2578063410b242411610196578063410b24241461045657806343ffa64e1461047857806347757fb61461049a5780634f1ef286146104ba5780635c975abb146104cd57806362b199c5146104f257600080fd5b806336568abe146103c15780633659cfe6146103e157806339509351146104015780633f4ba83a1461042157806340c10f191461043657600080fd5b8063248a9ca311610219578063248a9ca31461030c578063253279ad1461033c5780632f2ff15d1461035e578063313ce5671461037e57806332258794146103a157600080fd5b806301ffc9a71461025657806306fdde031461028b578063095ea7b3146102ad57806318160ddd146102cd57806323b872dd146102ec575b600080fd5b34801561026257600080fd5b5061027661027136600461278b565b6107f8565b60405190151581526020015b60405180910390f35b34801561029757600080fd5b506102a061082f565b60405161028291906128d8565b3480156102b957600080fd5b506102766102c8366004612677565b6108c1565b3480156102d957600080fd5b506067545b604051908152602001610282565b3480156102f857600080fd5b50610276610307366004612579565b6108d7565b34801561031857600080fd5b506102de61032736600461274f565b600090815260fb602052604090206001015490565b34801561034857600080fd5b5061035c6103573660046127b5565b610988565b005b34801561036a57600080fd5b5061035c610379366004612768565b610ad6565b34801561038a57600080fd5b506101605460405160ff9091168152602001610282565b3480156103ad57600080fd5b5061035c6103bc3660046126a1565b610aee565b3480156103cd57600080fd5b5061035c6103dc366004612768565b610b63565b3480156103ed57600080fd5b5061035c6103fc36600461252b565b610b77565b34801561040d57600080fd5b5061027661041c366004612677565b610c40565b34801561042d57600080fd5b5061035c610c7c565b34801561044257600080fd5b5061035c610451366004612677565b610c9d565b34801561046257600080fd5b506102de600080516020612b8183398151915281565b34801561048457600080fd5b506102de600080516020612b4183398151915281565b3480156104a657600080fd5b5061035c6104b536600461252b565b610cd7565b61035c6104c83660046125b5565b610d14565b3480156104d957600080fd5b50600080516020612be88339815191525460ff16610276565b3480156104fe57600080fd5b506102de600080516020612b2183398151915281565b34801561052057600080fd5b5061035c61052f3660046126a1565b610dca565b34801561054057600080fd5b5061035c61054f3660046126e3565b610e39565b34801561056057600080fd5b5061035c61056f3660046126a1565b610f18565b34801561058057600080fd5b506102de61058f36600461252b565b6001600160a01b031660009081526065602052604090205490565b3480156105b657600080fd5b506102de600080516020612c0883398151915281565b3480156105d857600080fd5b5061035c610f72565b3480156105ed57600080fd5b506102766105fc366004612768565b610f93565b34801561060d57600080fd5b506102a0610fbe565b34801561062257600080fd5b506102de600081565b34801561063757600080fd5b50610276610646366004612677565b610fcd565b34801561065757600080fd5b50610276610666366004612677565b611066565b34801561067757600080fd5b506102de600080516020612b0183398151915281565b34801561069957600080fd5b506106a2611073565b6040516001600160a01b039091168152602001610282565b3480156106c657600080fd5b5061035c6106d53660046126a1565b611082565b3480156106e657600080fd5b5061035c6106f53660046126a1565b6110dc565b34801561070657600080fd5b506102de7ff9424f4303d7f03683a025eb8885734ad99b47df7749d9b0a02cbc985809700b81565b34801561073a57600080fd5b5061035c610749366004612768565b611136565b34801561075a57600080fd5b506102de600080516020612bc883398151915281565b34801561077c57600080fd5b506102de61078b366004612546565b6001600160a01b03918216600090815260666020908152604080832093909416825291909152205490565b3480156107c257600080fd5b506102de600080516020612b6183398151915281565b3480156107e457600080fd5b5061035c6107f33660046126a1565b61115c565b60006001600160e01b03198216637965db0b60e01b148061082957506301ffc9a760e01b6001600160e01b03198316145b92915050565b60606068805461083e90612a68565b80601f016020809104026020016040519081016040528092919081815260200182805461086a90612a68565b80156108b75780601f1061088c576101008083540402835291602001916108b7565b820191906000526020600020905b81548152906001019060200180831161089a57829003601f168201915b5050505050905090565b60006108ce3384846111b6565b50600192915050565b60006108e48484846112da565b6001600160a01b03841660009081526066602090815260408083203384529091529020548281101561096e5760405162461bcd60e51b815260206004820152602860248201527f45524332303a207472616e7366657220616d6f756e74206578636565647320616044820152676c6c6f77616e636560c01b60648201526084015b60405180910390fd5b61097b85338584036111b6565b60019150505b9392505050565b600054610100900460ff166109a35760005460ff16156109a7565b303b155b610a0a5760405162461bcd60e51b815260206004820152602e60248201527f496e697469616c697a61626c653a20636f6e747261637420697320616c72656160448201526d191e481a5b9a5d1a585b1a5e995960921b6064820152608401610965565b600054610100900460ff16158015610a2c576000805461ffff19166101011790555b610aa387878080601f01602080910402602001604051908101604052809392919081815260200183838082843760009201919091525050604080516020601f8b0181900481028201810190925289815292508991508890819084018382808284376000920191909152508892508791506114b39050565b610aab6114f6565b610ab361151f565b610abb61156c565b8015610acd576000805461ff00191690555b50505050505050565b610ae082826115df565b610aea828261166e565b5050565b600080516020612b81833981519152610b078133611694565b60005b82811015610b5d57610b4b600080516020612b21833981519152858584818110610b3657610b36612ad4565b9050602002016020810190610749919061252b565b80610b5581612aa3565b915050610b0a565b50505050565b610b6d82826116f8565b610aea8282611760565b306001600160a01b037f0000000000000000000000000000000000000000000000000000000000000000161415610bc05760405162461bcd60e51b81526004016109659061290b565b7f00000000000000000000000000000000000000000000000000000000000000006001600160a01b0316610bf26117da565b6001600160a01b031614610c185760405162461bcd60e51b815260040161096590612957565b610c2181611808565b60408051600080825260208201909252610c3d9183919061188a565b50565b3360008181526066602090815260408083206001600160a01b038716845290915281205490916108ce918590610c779086906129ee565b6111b6565b600080516020612bc8833981519152610c958133611694565b610c3d6119d5565b7ff9424f4303d7f03683a025eb8885734ad99b47df7749d9b0a02cbc985809700b610cc88133611694565b610cd28383611a82565b505050565b600080516020612b61833981519152610cf08133611694565b5061012d80546001600160a01b0319166001600160a01b0392909216919091179055565b306001600160a01b037f0000000000000000000000000000000000000000000000000000000000000000161415610d5d5760405162461bcd60e51b81526004016109659061290b565b7f00000000000000000000000000000000000000000000000000000000000000006001600160a01b0316610d8f6117da565b6001600160a01b031614610db55760405162461bcd60e51b815260040161096590612957565b610dbe82611808565b610aea8282600161188a565b600080516020612bc8833981519152610de38133611694565b60005b82811015610b5d57610e27600080516020612b01833981519152858584818110610e1257610e12612ad4565b9050602002016020810190610379919061252b565b80610e3181612aa3565b915050610de6565b7ff9424f4303d7f03683a025eb8885734ad99b47df7749d9b0a02cbc985809700b610e648133611694565b838214610eab5760405162461bcd60e51b8152602060048201526015602482015274082e4e4c2f240d8cadccee8d040dad2e6dac2e8c6d605b1b6044820152606401610965565b60005b84811015610f1057610efe868683818110610ecb57610ecb612ad4565b9050602002016020810190610ee0919061252b565b858584818110610ef257610ef2612ad4565b90506020020135611a82565b80610f0881612aa3565b915050610eae565b505050505050565b600080516020612bc8833981519152610f318133611694565b60005b82811015610b5d57610f60600080516020612c08833981519152858584818110610b3657610b36612ad4565b80610f6a81612aa3565b915050610f34565b600080516020612bc8833981519152610f8b8133611694565b610c3d611b6d565b600091825260fb602090815260408084206001600160a01b0393909316845291905290205460ff1690565b60606069805461083e90612a68565b3360009081526066602090815260408083206001600160a01b03861684529091528120548281101561104f5760405162461bcd60e51b815260206004820152602560248201527f45524332303a2064656372656173656420616c6c6f77616e63652062656c6f77604482015264207a65726f60d81b6064820152608401610965565b61105c33858584036111b6565b5060019392505050565b60006108ce3384846112da565b600061107d6117da565b905090565b600080516020612bc883398151915261109b8133611694565b60005b82811015610b5d576110ca600080516020612b01833981519152858584818110610b3657610b36612ad4565b806110d481612aa3565b91505061109e565b600080516020612b818339815191526110f58133611694565b60005b82811015610b5d57611124600080516020612b21833981519152858584818110610e1257610e12612ad4565b8061112e81612aa3565b9150506110f8565b600082815260fb60205260409020600101546111528133611694565b610cd28383611c01565b600080516020612bc88339815191526111758133611694565b60005b82811015610b5d576111a4600080516020612c08833981519152858584818110610e1257610e12612ad4565b806111ae81612aa3565b915050611178565b6001600160a01b0383166112185760405162461bcd60e51b8152602060048201526024808201527f45524332303a20617070726f76652066726f6d20746865207a65726f206164646044820152637265737360e01b6064820152608401610965565b6001600160a01b0382166112795760405162461bcd60e51b815260206004820152602260248201527f45524332303a20617070726f766520746f20746865207a65726f206164647265604482015261737360f01b6064820152608401610965565b6001600160a01b0383811660008181526066602090815260408083209487168084529482529182902085905590518481527f8c5be1e5ebec7d5bd14f71427d1e84f3dd0314c0f7b2291e5b200ac8c7c3b925910160405180910390a3505050565b6001600160a01b03831661133e5760405162461bcd60e51b815260206004820152602560248201527f45524332303a207472616e736665722066726f6d20746865207a65726f206164604482015264647265737360d81b6064820152608401610965565b6001600160a01b0382166113a05760405162461bcd60e51b815260206004820152602360248201527f45524332303a207472616e7366657220746f20746865207a65726f206164647260448201526265737360e81b6064820152608401610965565b6113ab838383611c68565b6001600160a01b038316600090815260656020526040902054818110156114235760405162461bcd60e51b815260206004820152602660248201527f45524332303a207472616e7366657220616d6f756e7420657863656564732062604482015265616c616e636560d01b6064820152608401610965565b6001600160a01b0380851660009081526065602052604080822085850390559185168152908120805484929061145a9084906129ee565b92505081905550826001600160a01b0316846001600160a01b03167fddf252ad1be2c89b69c2b068fc378daa952ba7f163c4a11628f55a4df523b3ef846040516114a691815260200190565b60405180910390a3610b5d565b600054610100900460ff166114da5760405162461bcd60e51b8152600401610965906129a3565b6114e2611c73565b6114ec8484611cca565b610b5d8282611d18565b600054610100900460ff1661151d5760405162461bcd60e51b8152600401610965906129a3565b565b600054610100900460ff166115465760405162461bcd60e51b8152600401610965906129a3565b61151d600080516020612b21833981519152600080516020612b81833981519152611d59565b600054610100900460ff166115935760405162461bcd60e51b8152600401610965906129a3565b6115b9600080516020612c08833981519152600080516020612bc8833981519152611d59565b61151d600080516020612b01833981519152600080516020612bc8833981519152611d59565b600080516020612b818339815191528214806115f9575081155b15610aea57611616600080516020612b2183398151915282610f93565b15610aea5760405162461bcd60e51b815260206004820152602260248201527f63616e206e6f742061737369676e20726f6c6520746f20626c61636b6c697374604482015261195960f21b6064820152608401610965565b600082815260fb602052604090206001015461168a8133611694565b610cd28383611da4565b61169e8282610f93565b610aea576116b6816001600160a01b03166014611e2a565b6116c1836020611e2a565b6040516020016116d2929190612863565b60408051601f198184030181529082905262461bcd60e51b8252610965916004016128d8565b600080516020612b21833981519152821415610aea5760405162461bcd60e51b815260206004820152602160248201527f43616e206e6f742072656e6f756e636520626c61636b6c697374656420726f6c6044820152606560f81b6064820152608401610965565b6001600160a01b03811633146117d05760405162461bcd60e51b815260206004820152602f60248201527f416363657373436f6e74726f6c3a2063616e206f6e6c792072656e6f756e636560448201526e103937b632b9903337b91039b2b63360891b6064820152608401610965565b610aea8282611c01565b7f360894a13ba1a3210667c828492db98dca3e2076cc3735a920a3ca505d382bbc546001600160a01b031690565b611820600080516020612b6183398151915233610f93565b8061183e575061183e600080516020612b4183398151915233610f93565b610c3d5760405162461bcd60e51b815260206004820152601d60248201527f4552524f523a2041646472657373206e6f7420617574686f72697a65640000006044820152606401610965565b60006118946117da565b905061189f84611fc6565b6000835111806118ac5750815b156118bd576118bb848461206b565b505b7f4910fdfa16fed3260ed0e7147f7cc6da11a60208b5b9406d12a635614ffd9143805460ff166119ce57805460ff191660011781556040516001600160a01b038316602482015261193c90869060440160408051601f198184030181529190526020810180516001600160e01b0316631b2ce7f360e11b17905261206b565b50805460ff1916815561194d6117da565b6001600160a01b0316826001600160a01b0316146119c55760405162461bcd60e51b815260206004820152602f60248201527f45524331393637557067726164653a207570677261646520627265616b73206660448201526e75727468657220757067726164657360881b6064820152608401610965565b6119ce85612156565b5050505050565b600080516020612be88339815191525460ff16611a2b5760405162461bcd60e51b815260206004820152601460248201527314185d5cd8589b194e881b9bdd081c185d5cd95960621b6044820152606401610965565b600080516020612be8833981519152805460ff191690557f5db9ee0a495bf2e6ff9c91a7834c1ba4fdd244a5e8aa4e537bd38aeae4b073aa335b6040516001600160a01b03909116815260200160405180910390a1565b6001600160a01b038216611ad85760405162461bcd60e51b815260206004820152601f60248201527f45524332303a206d696e7420746f20746865207a65726f2061646472657373006044820152606401610965565b611ae460008383611c68565b8060676000828254611af691906129ee565b90915550506001600160a01b03821660009081526065602052604081208054839290611b239084906129ee565b90915550506040518181526001600160a01b038316906000907fddf252ad1be2c89b69c2b068fc378daa952ba7f163c4a11628f55a4df523b3ef9060200160405180910390a35050565b600080516020612be88339815191525460ff1615611bc05760405162461bcd60e51b815260206004820152601060248201526f14185d5cd8589b194e881c185d5cd95960821b6044820152606401610965565b600080516020612be8833981519152805460ff191660011790557f62e78cea01bee320cd4e420270b5ea74000d11b0c9f74754ebdbfc544b05a25833611a65565b611c0b8282610f93565b15610aea57600082815260fb602090815260408083206001600160a01b0385168085529252808320805460ff1916905551339285917ff6391f5c32d9c69d2a47ea670b442974b53935d1edc7fd64eb21e047a839171b9190a45050565b610cd2838383612196565b600054610100900460ff16611c9a5760405162461bcd60e51b8152600401610965906129a3565b611ca26114f6565b611caa6114f6565b611cb26114f6565b611cba6114f6565b611cc26114f6565b61151d6121ac565b600054610100900460ff16611cf15760405162461bcd60e51b8152600401610965906129a3565b8151611d049060689060208501906123e8565b508051610cd29060699060208401906123e8565b600054610100900460ff16611d3f5760405162461bcd60e51b8152600401610965906129a3565b610160805460ff191660ff8416179055610aea3382611a82565b600082815260fb6020526040808220600101805490849055905190918391839186917fbd79b86ffe0ab8e8776151514217cd7cacd52c909f66475c3af44e129f0b00ff9190a4505050565b611dae8282610f93565b610aea57600082815260fb602090815260408083206001600160a01b03851684529091529020805460ff19166001179055611de63390565b6001600160a01b0316816001600160a01b0316837f2f8788117e7eff1d82e926ec794901d17c78024a50270940304540a733656f0d60405160405180910390a45050565b60606000611e39836002612a06565b611e449060026129ee565b67ffffffffffffffff811115611e5c57611e5c612aea565b6040519080825280601f01601f191660200182016040528015611e86576020820181803683370190505b509050600360fc1b81600081518110611ea157611ea1612ad4565b60200101906001600160f81b031916908160001a905350600f60fb1b81600181518110611ed057611ed0612ad4565b60200101906001600160f81b031916908160001a9053506000611ef4846002612a06565b611eff9060016129ee565b90505b6001811115611f77576f181899199a1a9b1b9c1cb0b131b232b360811b85600f1660108110611f3357611f33612ad4565b1a60f81b828281518110611f4957611f49612ad4565b60200101906001600160f81b031916908160001a90535060049490941c93611f7081612a51565b9050611f02565b5083156109815760405162461bcd60e51b815260206004820181905260248201527f537472696e67733a20686578206c656e67746820696e73756666696369656e746044820152606401610965565b803b61202a5760405162461bcd60e51b815260206004820152602d60248201527f455243313936373a206e657720696d706c656d656e746174696f6e206973206e60448201526c1bdd08184818dbdb9d1c9858dd609a1b6064820152608401610965565b7f360894a13ba1a3210667c828492db98dca3e2076cc3735a920a3ca505d382bbc80546001600160a01b0319166001600160a01b0392909216919091179055565b6060823b6120ca5760405162461bcd60e51b815260206004820152602660248201527f416464726573733a2064656c65676174652063616c6c20746f206e6f6e2d636f6044820152651b9d1c9858dd60d21b6064820152608401610965565b600080846001600160a01b0316846040516120e59190612847565b600060405180830381855af49150503d8060008114612120576040519150601f19603f3d011682016040523d82523d6000602084013e612125565b606091505b509150915061214d8282604051806060016040528060278152602001612ba160279139612234565b95945050505050565b61215f81611fc6565b6040516001600160a01b038216907fbc7cd75a20ee27fd9adebab32041f755214dbc6bffa90cc0225b39da2e5c2d3b90600090a250565b6121a183838361226d565b610cd28383836122c5565b600054610100900460ff166121d35760405162461bcd60e51b8152600401610965906129a3565b6121de600033612348565b6121f6600080516020612b6183398151915233612348565b61220e600080516020612b4183398151915233612348565b61151d600080516020612b41833981519152600080516020612b61833981519152611d59565b60608315612243575081610981565b8251156122535782518084602001fd5b8160405162461bcd60e51b815260040161096591906128d8565b612278338484612352565b15610cd25760405162461bcd60e51b815260206004820152601a60248201527f4552524f523a204164647265737320426c61636b6c69737465640000000000006044820152606401610965565b600080516020612be88339815191525460ff1615806122e957506122e983336123b0565b610cd25760405162461bcd60e51b815260206004820152602a60248201527f45524332305061757361626c653a20746f6b656e207472616e736665722077686044820152691a5b19481c185d5cd95960b21b6064820152608401610965565b610aea8282611da4565b600061236c600080516020612b2183398151915284610f93565b8061238a575061238a600080516020612b2183398151915285610f93565b806123a857506123a8600080516020612b2183398151915283610f93565b949350505050565b60006123ca600080516020612c0883398151915284610f93565b806109815750610981600080516020612b0183398151915283610f93565b8280546123f490612a68565b90600052602060002090601f016020900481019282612416576000855561245c565b82601f1061242f57805160ff191683800117855561245c565b8280016001018555821561245c579182015b8281111561245c578251825591602001919060010190612441565b5061246892915061246c565b5090565b5b80821115612468576000815560010161246d565b80356001600160a01b038116811461249857600080fd5b919050565b60008083601f8401126124af57600080fd5b50813567ffffffffffffffff8111156124c757600080fd5b6020830191508360208260051b85010111156124e257600080fd5b9250929050565b60008083601f8401126124fb57600080fd5b50813567ffffffffffffffff81111561251357600080fd5b6020830191508360208285010111156124e257600080fd5b60006020828403121561253d57600080fd5b61098182612481565b6000806040838503121561255957600080fd5b61256283612481565b915061257060208401612481565b90509250929050565b60008060006060848603121561258e57600080fd5b61259784612481565b92506125a560208501612481565b9150604084013590509250925092565b600080604083850312156125c857600080fd5b6125d183612481565b9150602083013567ffffffffffffffff808211156125ee57600080fd5b818501915085601f83011261260257600080fd5b81358181111561261457612614612aea565b604051601f8201601f19908116603f0116810190838211818310171561263c5761263c612aea565b8160405282815288602084870101111561265557600080fd5b8260208601602083013760006020848301015280955050505050509250929050565b6000806040838503121561268a57600080fd5b61269383612481565b946020939093013593505050565b600080602083850312156126b457600080fd5b823567ffffffffffffffff8111156126cb57600080fd5b6126d78582860161249d565b90969095509350505050565b600080600080604085870312156126f957600080fd5b843567ffffffffffffffff8082111561271157600080fd5b61271d8883890161249d565b9096509450602087013591508082111561273657600080fd5b506127438782880161249d565b95989497509550505050565b60006020828403121561276157600080fd5b5035919050565b6000806040838503121561277b57600080fd5b8235915061257060208401612481565b60006020828403121561279d57600080fd5b81356001600160e01b03198116811461098157600080fd5b600080600080600080608087890312156127ce57600080fd5b863567ffffffffffffffff808211156127e657600080fd5b6127f28a838b016124e9565b9098509650602089013591508082111561280b57600080fd5b5061281889828a016124e9565b909550935050604087013560ff8116811461283257600080fd5b80925050606087013590509295509295509295565b60008251612859818460208701612a25565b9190910192915050565b7f416363657373436f6e74726f6c3a206163636f756e742000000000000000000081526000835161289b816017850160208801612a25565b7001034b99036b4b9b9b4b733903937b6329607d1b60179184019182015283516128cc816028840160208801612a25565b01602801949350505050565b60208152600082518060208401526128f7816040850160208701612a25565b601f01601f19169190910160400192915050565b6020808252602c908201527f46756e6374696f6e206d7573742062652063616c6c6564207468726f7567682060408201526b19195b1959d85d1958d85b1b60a21b606082015260800190565b6020808252602c908201527f46756e6374696f6e206d7573742062652063616c6c6564207468726f7567682060408201526b6163746976652070726f787960a01b606082015260800190565b6020808252602b908201527f496e697469616c697a61626c653a20636f6e7472616374206973206e6f74206960408201526a6e697469616c697a696e6760a81b606082015260800190565b60008219821115612a0157612a01612abe565b500190565b6000816000190483118215151615612a2057612a20612abe565b500290565b60005b83811015612a40578181015183820152602001612a28565b83811115610b5d5750506000910152565b600081612a6057612a60612abe565b506000190190565b600181811c90821680612a7c57607f821691505b60208210811415612a9d57634e487b7160e01b600052602260045260246000fd5b50919050565b6000600019821415612ab757612ab7612abe565b5060010190565b634e487b7160e01b600052601160045260246000fd5b634e487b7160e01b600052603260045260246000fd5b634e487b7160e01b600052604160045260246000fdfee1ac655ab58995133a870d1fd307ddc1d624c8ad919a09e67867a7a1483e439a548c7f0307ab2a7ea894e5c7e8c5353cc750bb9385ee2e945f189a9a83daa8eda76ace73a908083d89af9ff88e5b4f7cadb3591a80631063f68b695fda726db571840dc4906352362b0cdaf79870196c8e42acafade72d5d5a6d59291253ceb1f988e4fb62b8e14f4820fed03192306ddf4d7dbfa215595ba1c6ba4b76b369ee416464726573733a206c6f772d6c6576656c2064656c65676174652063616c6c206661696c6564356a809dfdea9198dd76fb76bf6d403ecf13ea675eb89e1eda2db2c4a4676a26ad6a6591fa308fe948065665239402780db8ed4a8c4e4e16c4d066bcaa05efc2ce108bcc5e0f50fe603649304cbbbd94de794a404db82d884c0afc9ba9328e61a2646970667358221220cd0fdcdc10fc8648bf855ca30633e8908727655c7fd1e71cf3d72f38f08d071964736f6c63430008060033",
  "linkReferences": {},
  "deployedLinkReferences": {}
}