{
  "_format": "hh-sol-artifact-1",
  "name": "BlacklistBurnMintWhiteListTemplate",
  "initializer": "function initialize(string name_, string symbol_, uint8 decimals_, uint256 amount_)",
  "sourceName": "contracts/templates/BlacklistBurnMintWhiteListTemplate.sol",
  "abi": [
    {
      "anonymous": false,
      "inputs": [
        {
          "indexed": false,
          "internalType": "address",
          "name": "previousAdmin",
          "type": "address"
        },
        {
          "indexed": false,
          "internalType": "address",
          "name": "newAdmin",
          "type": "address"
        }
      ],
      "name": "AdminChanged",
      "type": "event"
    },
    {
      "anonymous": false,
      "inputs": [
        {
          "indexed": true,
          "internalType": "address",
          "name": "owner",
          "type": "address"
        },
        {
          "indexed": true,
          "internalType": "address",
          "name": "spender",
          "type": "address"
        },
        {
          "indexed": false,
          "internalType": "uint256",
          "name": "value",
          "type": "uint256"
        }
      ],
      "name": "Approval",
      "type": "event"
    },
    {
      "anonymous": false,
      "inputs": [
        {
          "indexed": true,
          "internalType": "address",
          "name": "beacon",
          "type": "address"
        }
      ],
      "name": "BeaconUpgraded",
      "type": "event"
    },
    {
      "anonymous": false,
      "inputs": [
        {
          "indexed": false,
          "internalType": "address",
          "name": "account",
          "type": "address"
        }
      ],
      "name": "Paused",
      "type": "event"
    },
    {
      "anonymous": false,
      "inputs": [
        {
          "indexed": true,
          "internalType": "bytes32",
          "name": "role",
          "type": "bytes32"
        },
        {
          "indexed": true,
          "internalType": "bytes32",
          "name": "previousAdminRole",
          "type": "bytes32"
        },
        {
          "indexed": true,
          "internalType": "bytes32",
          "name": "newAdminRole",
          "type": "bytes32"
        }
      ],
      "name": "RoleAdminChanged",
      "type": "event"
    },
    {
      "anonymous": false,
      "inputs": [
        {
          "indexed": true,
          "internalType": "bytes32",
          "name": "role",
          "type": "bytes32"
        },
        {
          "indexed": true,
          "internalType": "address",
          "name": "account",
          "type": "address"
        },
        {
          "indexed": true,
          "internalType": "address",
          "name": "sender",
          "type": "address"
        }
      ],
      "name": "RoleGranted",
      "type": "event"
    },
    {
      "anonymous": false,
      "inputs": [
        {
          "indexed": true,
          "internalType": "bytes32",
          "name": "role",
          "type": "bytes32"
        },
        {
          "indexed": true,
          "internalType": "address",
          "name": "account",
          "type": "address"
        },
        {
          "indexed": true,
          "internalType": "address",
          "name": "sender",
          "type": "address"
        }
      ],
      "name": "RoleRevoked",
      "type": "event"
    },
    {
      "anonymous": false,
      "inputs": [
        {
          "indexed": true,
          "internalType": "address",
          "name": "from",
          "type": "address"
        },
        {
          "indexed": true,
          "internalType": "address",
          "name": "to",
          "type": "address"
        },
        {
          "indexed": false,
          "internalType": "uint256",
          "name": "value",
          "type": "uint256"
        }
      ],
      "name": "Transfer",
      "type": "event"
    },
    {
      "anonymous": false,
      "inputs": [
        {
          "indexed": false,
          "internalType": "address",
          "name": "account",
          "type": "address"
        }
      ],
      "name": "Unpaused",
      "type": "event"
    },
    {
      "anonymous": false,
      "inputs": [
        {
          "indexed": true,
          "internalType": "address",
          "name": "implementation",
          "type": "address"
        }
      ],
      "name": "Upgraded",
      "type": "event"
    },
    {
      "inputs": [],
      "name": "BLACKLISTED_ROLE",
      "outputs": [
        {
          "internalType": "bytes32",
          "name": "",
          "type": "bytes32"
        }
      ],
      "stateMutability": "view",
      "type": "function"
    },
    {
      "inputs": [],
      "name": "BLACKLIST_MANAGER_ROLE",
      "outputs": [
        {
          "internalType": "bytes32",
          "name": "",
          "type": "bytes32"
        }
      ],
      "stateMutability": "view",
      "type": "function"
    },
    {
      "inputs": [],
      "name": "DEFAULT_ADMIN_ROLE",
      "outputs": [
        {
          "internalType": "bytes32",
          "name": "",
          "type": "bytes32"
        }
      ],
      "stateMutability": "view",
      "type": "function"
    },
    {
      "inputs": [],
      "name": "GOVERNANCE_ROLE",
      "outputs": [
        {
          "internalType": "bytes32",
          "name": "",
          "type": "bytes32"
        }
      ],
      "stateMutability": "view",
      "type": "function"
    },
    {
      "inputs": [],
      "name": "MINTER_ROLE",
      "outputs": [
        {
          "internalType": "bytes32",
          "name": "",
          "type": "bytes32"
        }
      ],
      "stateMutability": "view",
      "type": "function"
    },
    {
      "inputs": [],
      "name": "PAUSE_MANAGER_ROLE",
      "outputs": [
        {
          "internalType": "bytes32",
          "name": "",
          "type": "bytes32"
        }
      ],
      "stateMutability": "view",
      "type": "function"
    },
    {
      "inputs": [],
      "name": "UPGRADE_MANAGER_ROLE",
      "outputs": [
        {
          "internalType": "bytes32",
          "name": "",
          "type": "bytes32"
        }
      ],
      "stateMutability": "view",
      "type": "function"
    },
    {
      "inputs": [],
      "name": "WHITELISTED_FROM_ROLE",
      "outputs": [
        {
          "internalType": "bytes32",
          "name": "",
          "type": "bytes32"
        }
      ],
      "stateMutability": "view",
      "type": "function"
    },
    {
      "inputs": [],
      "name": "WHITELISTED_SENDER_ROLE",
      "outputs": [
        {
          "internalType": "bytes32",
          "name": "",
          "type": "bytes32"
        }
      ],
      "stateMutability": "view",
      "type": "function"
    },
    {
      "inputs": [
        {
          "internalType": "address[]",
          "name": "addresses",
          "type": "address[]"
        }
      ],
      "name": "addAddressesToBlacklist",
      "outputs": [],
      "stateMutability": "nonpayable",
      "type": "function"
    },
    {
      "inputs": [
        {
          "internalType": "address[]",
          "name": "addresses",
          "type": "address[]"
        }
      ],
      "name": "addAddressesToWhitelistFrom",
      "outputs": [],
      "stateMutability": "nonpayable",
      "type": "function"
    },
    {
      "inputs": [
        {
          "internalType": "address[]",
          "name": "addresses",
          "type": "address[]"
        }
      ],
      "name": "addAddressesToWhitelistSender",
      "outputs": [],
      "stateMutability": "nonpayable",
      "type": "function"
    },
    {
      "inputs": [
        {
          "internalType": "address",
          "name": "owner",
          "type": "address"
        },
        {
          "internalType": "address",
          "name": "spender",
          "type": "address"
        }
      ],
      "name": "allowance",
      "outputs": [
        {
          "internalType": "uint256",
          "name": "",
          "type": "uint256"
        }
      ],
      "stateMutability": "view",
      "type": "function"
    },
    {
      "inputs": [
        {
          "internalType": "address",
          "name": "spender",
          "type": "address"
        },
        {
          "internalType": "uint256",
          "name": "amount",
          "type": "uint256"
        }
      ],
      "name": "approve",
      "outputs": [
        {
          "internalType": "bool",
          "name": "",
          "type": "bool"
        }
      ],
      "stateMutability": "nonpayable",
      "type": "function"
    },
    {
      "inputs": [
        {
          "internalType": "address",
          "name": "account",
          "type": "address"
        }
      ],
      "name": "balanceOf",
      "outputs": [
        {
          "internalType": "uint256",
          "name": "",
          "type": "uint256"
        }
      ],
      "stateMutability": "view",
      "type": "function"
    },
    {
      "inputs": [
        {
          "internalType": "address[]",
          "name": "accounts",
          "type": "address[]"
        },
        {
          "internalType": "uint256[]",
          "name": "amounts",
          "type": "uint256[]"
        }
      ],
      "name": "bulkMint",
      "outputs": [],
      "stateMutability": "nonpayable",
      "type": "function"
    },
    {
      "inputs": [
        {
          "internalType": "uint256",
          "name": "amount",
          "type": "uint256"
        }
      ],
      "name": "burn",
      "outputs": [],
      "stateMutability": "nonpayable",
      "type": "function"
    },
    {
      "inputs": [
        {
          "internalType": "address",
          "name": "account",
          "type": "address"
        },
        {
          "internalType": "uint256",
          "name": "amount",
          "type": "uint256"
        }
      ],
      "name": "burnFrom",
      "outputs": [],
      "stateMutability": "nonpayable",
      "type": "function"
    },
    {
      "inputs": [],
      "name": "decimals",
      "outputs": [
        {
          "internalType": "uint8",
          "name": "",
          "type": "uint8"
        }
      ],
      "stateMutability": "view",
      "type": "function"
    },
    {
      "inputs": [
        {
          "internalType": "address",
          "name": "spender",
          "type": "address"
        },
        {
          "internalType": "uint256",
          "name": "subtractedValue",
          "type": "uint256"
        }
      ],
      "name": "decreaseAllowance",
      "outputs": [
        {
          "internalType": "bool",
          "name": "",
          "type": "bool"
        }
      ],
      "stateMutability": "nonpayable",
      "type": "function"
    },
    {
      "inputs": [],
      "name": "getImplementation",
      "outputs": [
        {
          "internalType": "address",
          "name": "",
          "type": "address"
        }
      ],
      "stateMutability": "view",
      "type": "function"
    },
    {
      "inputs": [
        {
          "internalType": "bytes32",
          "name": "role",
          "type": "bytes32"
        }
      ],
      "name": "getRoleAdmin",
      "outputs": [
        {
          "internalType": "bytes32",
          "name": "",
          "type": "bytes32"
        }
      ],
      "stateMutability": "view",
      "type": "function"
    },
    {
      "inputs": [
        {
          "internalType": "bytes32",
          "name": "role",
          "type": "bytes32"
        },
        {
          "internalType": "address",
          "name": "account",
          "type": "address"
        }
      ],
      "name": "grantRole",
      "outputs": [],
      "stateMutability": "nonpayable",
      "type": "function"
    },
    {
      "inputs": [
        {
          "internalType": "bytes32",
          "name": "role",
          "type": "bytes32"
        },
        {
          "internalType": "address",
          "name": "account",
          "type": "address"
        }
      ],
      "name": "hasRole",
      "outputs": [
        {
          "internalType": "bool",
          "name": "",
          "type": "bool"
        }
      ],
      "stateMutability": "view",
      "type": "function"
    },
    {
      "inputs": [
        {
          "internalType": "address",
          "name": "spender",
          "type": "address"
        },
        {
          "internalType": "uint256",
          "name": "addedValue",
          "type": "uint256"
        }
      ],
      "name": "increaseAllowance",
      "outputs": [
        {
          "internalType": "bool",
          "name": "",
          "type": "bool"
        }
      ],
      "stateMutability": "nonpayable",
      "type": "function"
    },
    {
      "inputs": [
        {
          "internalType": "string",
          "name": "name_",
          "type": "string"
        },
        {
          "internalType": "string",
          "name": "symbol_",
          "type": "string"
        },
        {
          "internalType": "uint8",
          "name": "decimals_",
          "type": "uint8"
        },
        {
          "internalType": "uint256",
          "name": "amount_",
          "type": "uint256"
        }
      ],
      "name": "initialize",
      "outputs": [],
      "stateMutability": "nonpayable",
      "type": "function"
    },
    {
      "inputs": [
        {
          "internalType": "address",
          "name": "account",
          "type": "address"
        },
        {
          "internalType": "uint256",
          "name": "amount",
          "type": "uint256"
        }
      ],
      "name": "mint",
      "outputs": [],
      "stateMutability": "nonpayable",
      "type": "function"
    },
    {
      "inputs": [],
      "name": "name",
      "outputs": [
        {
          "internalType": "string",
          "name": "",
          "type": "string"
        }
      ],
      "stateMutability": "view",
      "type": "function"
    },
    {
      "inputs": [],
      "name": "pause",
      "outputs": [],
      "stateMutability": "nonpayable",
      "type": "function"
    },
    {
      "inputs": [],
      "name": "paused",
      "outputs": [
        {
          "internalType": "bool",
          "name": "",
          "type": "bool"
        }
      ],
      "stateMutability": "view",
      "type": "function"
    },
    {
      "inputs": [
        {
          "internalType": "address",
          "name": "implementationAddress",
          "type": "address"
        }
      ],
      "name": "proposeNewImplementation",
      "outputs": [],
      "stateMutability": "nonpayable",
      "type": "function"
    },
    {
      "inputs": [
        {
          "internalType": "address[]",
          "name": "addresses",
          "type": "address[]"
        }
      ],
      "name": "removeAddressesFromBlacklist",
      "outputs": [],
      "stateMutability": "nonpayable",
      "type": "function"
    },
    {
      "inputs": [
        {
          "internalType": "address[]",
          "name": "addresses",
          "type": "address[]"
        }
      ],
      "name": "removeAddressesFromWhitelistFrom",
      "outputs": [],
      "stateMutability": "nonpayable",
      "type": "function"
    },
    {
      "inputs": [
        {
          "internalType": "address[]",
          "name": "addresses",
          "type": "address[]"
        }
      ],
      "name": "removeAddressesFromWhitelistSender",
      "outputs": [],
      "stateMutability": "nonpayable",
      "type": "function"
    },
    {
      "inputs": [
        {
          "internalType": "bytes32",
          "name": "role",
          "type": "bytes32"
        },
        {
          "internalType": "address",
          "name": "account",
          "type": "address"
        }
      ],
      "name": "renounceRole",
      "outputs": [],
      "stateMutability": "nonpayable",
      "type": "function"
    },
    {
      "inputs": [
        {
          "internalType": "bytes32",
          "name": "role",
          "type": "bytes32"
        },
        {
          "internalType": "address",
          "name": "account",
          "type": "address"
        }
      ],
      "name": "revokeRole",
      "outputs": [],
      "stateMutability": "nonpayable",
      "type": "function"
    },
    {
      "inputs": [
        {
          "internalType": "bytes4",
          "name": "interfaceId",
          "type": "bytes4"
        }
      ],
      "name": "supportsInterface",
      "outputs": [
        {
          "internalType": "bool",
          "name": "",
          "type": "bool"
        }
      ],
      "stateMutability": "view",
      "type": "function"
    },
    {
      "inputs": [],
      "name": "symbol",
      "outputs": [
        {
          "internalType": "string",
          "name": "",
          "type": "string"
        }
      ],
      "stateMutability": "view",
      "type": "function"
    },
    {
      "inputs": [],
      "name": "totalSupply",
      "outputs": [
        {
          "internalType": "uint256",
          "name": "",
          "type": "uint256"
        }
      ],
      "stateMutability": "view",
      "type": "function"
    },
    {
      "inputs": [
        {
          "internalType": "address",
          "name": "recipient",
          "type": "address"
        },
        {
          "internalType": "uint256",
          "name": "amount",
          "type": "uint256"
        }
      ],
      "name": "transfer",
      "outputs": [
        {
          "internalType": "bool",
          "name": "",
          "type": "bool"
        }
      ],
      "stateMutability": "nonpayable",
      "type": "function"
    },
    {
      "inputs": [
        {
          "internalType": "address",
          "name": "sender",
          "type": "address"
        },
        {
          "internalType": "address",
          "name": "recipient",
          "type": "address"
        },
        {
          "internalType": "uint256",
          "name": "amount",
          "type": "uint256"
        }
      ],
      "name": "transferFrom",
      "outputs": [
        {
          "internalType": "bool",
          "name": "",
          "type": "bool"
        }
      ],
      "stateMutability": "nonpayable",
      "type": "function"
    },
    {
      "inputs": [],
      "name": "unpause",
      "outputs": [],
      "stateMutability": "nonpayable",
      "type": "function"
    },
    {
      "inputs": [
        {
          "internalType": "address",
          "name": "newImplementation",
          "type": "address"
        }
      ],
      "name": "upgradeTo",
      "outputs": [],
      "stateMutability": "nonpayable",
      "type": "function"
    },
    {
      "inputs": [
        {
          "internalType": "address",
          "name": "newImplementation",
          "type": "address"
        },
        {
          "internalType": "bytes",
          "name": "data",
          "type": "bytes"
        }
      ],
      "name": "upgradeToAndCall",
      "outputs": [],
      "stateMutability": "payable",
      "type": "function"
    }
  ],
  "bytecode": "0x60a06040523060601b60805234801561001757600080fd5b5060805160601c612eb761004b60003960008181610be001528181610c2001528181610d870152610dc70152612eb76000f3fe6080604052600436106102675760003560e01c8063685ed81a11610144578063a9059cbb116100b6578063d53913931161007a578063d539139314610750578063d547741f14610784578063d84f91e8146107a4578063dd62ed3e146107c6578063f36c8f5c1461080c578063f834c5021461082e57600080fd5b8063a9059cbb146106a1578063aa74a34a146106c1578063aaf10f42146106e3578063c233f3b714610710578063ca73419e1461073057600080fd5b806379cc67901161010857806379cc6790146106025780638456cb591461062257806391d148541461063757806395d89b4114610657578063a217fddf1461066c578063a457c2d71461068157600080fd5b8063685ed81a1461054a5780636ae459bd1461056a5780636e79a1c01461058a57806370a08231146105aa578063731ce8fc146105e057600080fd5b80633659cfe6116101dd57806342966c68116101a157806342966c681461048e57806343ffa64e146104ae57806347757fb6146104d05780634f1ef286146104f05780635c975abb1461050357806362b199c51461052857600080fd5b80633659cfe6146103f757806339509351146104175780633f4ba83a1461043757806340c10f191461044c578063410b24241461046c57600080fd5b8063248a9ca31161022f578063248a9ca314610322578063253279ad146103525780632f2ff15d14610374578063313ce5671461039457806332258794146103b757806336568abe146103d757600080fd5b806301ffc9a71461026c57806306fdde03146102a1578063095ea7b3146102c357806318160ddd146102e357806323b872dd14610302575b600080fd5b34801561027857600080fd5b5061028c6102873660046129ce565b61084e565b60405190151581526020015b60405180910390f35b3480156102ad57600080fd5b506102b6610885565b6040516102989190612b1b565b3480156102cf57600080fd5b5061028c6102de3660046128ba565b610917565b3480156102ef57600080fd5b506067545b604051908152602001610298565b34801561030e57600080fd5b5061028c61031d3660046127bc565b61092d565b34801561032e57600080fd5b506102f461033d366004612992565b600090815260fb602052604090206001015490565b34801561035e57600080fd5b5061037261036d3660046129f8565b6109de565b005b34801561038057600080fd5b5061037261038f3660046129ab565b610b34565b3480156103a057600080fd5b506101605460405160ff9091168152602001610298565b3480156103c357600080fd5b506103726103d23660046128e4565b610b4c565b3480156103e357600080fd5b506103726103f23660046129ab565b610bc1565b34801561040357600080fd5b5061037261041236600461276e565b610bd5565b34801561042357600080fd5b5061028c6104323660046128ba565b610c9e565b34801561044357600080fd5b50610372610cda565b34801561045857600080fd5b506103726104673660046128ba565b610cfb565b34801561047857600080fd5b506102f4600080516020612ddb83398151915281565b34801561049a57600080fd5b506103726104a9366004612992565b610d35565b3480156104ba57600080fd5b506102f4600080516020612d9b83398151915281565b3480156104dc57600080fd5b506103726104eb36600461276e565b610d3f565b6103726104fe3660046127f8565b610d7c565b34801561050f57600080fd5b50600080516020612e428339815191525460ff1661028c565b34801561053457600080fd5b506102f4600080516020612d7b83398151915281565b34801561055657600080fd5b506103726105653660046128e4565b610e32565b34801561057657600080fd5b50610372610585366004612926565b610ea1565b34801561059657600080fd5b506103726105a53660046128e4565b610f80565b3480156105b657600080fd5b506102f46105c536600461276e565b6001600160a01b031660009081526065602052604090205490565b3480156105ec57600080fd5b506102f4600080516020612e6283398151915281565b34801561060e57600080fd5b5061037261061d3660046128ba565b610fda565b34801561062e57600080fd5b5061037261105b565b34801561064357600080fd5b5061028c6106523660046129ab565b61107c565b34801561066357600080fd5b506102b66110a7565b34801561067857600080fd5b506102f4600081565b34801561068d57600080fd5b5061028c61069c3660046128ba565b6110b6565b3480156106ad57600080fd5b5061028c6106bc3660046128ba565b61114f565b3480156106cd57600080fd5b506102f4600080516020612d5b83398151915281565b3480156106ef57600080fd5b506106f861115c565b6040516001600160a01b039091168152602001610298565b34801561071c57600080fd5b5061037261072b3660046128e4565b61116b565b34801561073c57600080fd5b5061037261074b3660046128e4565b6111c5565b34801561075c57600080fd5b506102f47ff9424f4303d7f03683a025eb8885734ad99b47df7749d9b0a02cbc985809700b81565b34801561079057600080fd5b5061037261079f3660046129ab565b61121f565b3480156107b057600080fd5b506102f4600080516020612e2283398151915281565b3480156107d257600080fd5b506102f46107e1366004612789565b6001600160a01b03918216600090815260666020908152604080832093909416825291909152205490565b34801561081857600080fd5b506102f4600080516020612dbb83398151915281565b34801561083a57600080fd5b506103726108493660046128e4565b611245565b60006001600160e01b03198216637965db0b60e01b148061087f57506301ffc9a760e01b6001600160e01b03198316145b92915050565b60606068805461089490612cc2565b80601f01602080910402602001604051908101604052809291908181526020018280546108c090612cc2565b801561090d5780601f106108e25761010080835404028352916020019161090d565b820191906000526020600020905b8154815290600101906020018083116108f057829003601f168201915b5050505050905090565b600061092433848461129f565b50600192915050565b600061093a8484846113c3565b6001600160a01b0384166000908152606660209081526040808320338452909152902054828110156109c45760405162461bcd60e51b815260206004820152602860248201527f45524332303a207472616e7366657220616d6f756e74206578636565647320616044820152676c6c6f77616e636560c01b60648201526084015b60405180910390fd5b6109d1853385840361129f565b60019150505b9392505050565b600054610100900460ff166109f95760005460ff16156109fd565b303b155b610a605760405162461bcd60e51b815260206004820152602e60248201527f496e697469616c697a61626c653a20636f6e747261637420697320616c72656160448201526d191e481a5b9a5d1a585b1a5e995960921b60648201526084016109bb565b600054610100900460ff16158015610a82576000805461ffff19166101011790555b610af987878080601f01602080910402602001604051908101604052809392919081815260200183838082843760009201919091525050604080516020601f8b01819004810282018101909252898152925089915088908190840183828082843760009201919091525088925087915061159c9050565b610b016115df565b610b096115df565b610b11611608565b610b19611655565b8015610b2b576000805461ff00191690555b50505050505050565b610b3e82826116c8565b610b488282611757565b5050565b600080516020612ddb833981519152610b65813361177d565b60005b82811015610bbb57610ba9600080516020612d7b833981519152858584818110610b9457610b94612d2e565b905060200201602081019061079f919061276e565b80610bb381612cfd565b915050610b68565b50505050565b610bcb82826117e1565b610b488282611849565b306001600160a01b037f0000000000000000000000000000000000000000000000000000000000000000161415610c1e5760405162461bcd60e51b81526004016109bb90612b4e565b7f00000000000000000000000000000000000000000000000000000000000000006001600160a01b0316610c506118c3565b6001600160a01b031614610c765760405162461bcd60e51b81526004016109bb90612b9a565b610c7f816118f1565b60408051600080825260208201909252610c9b91839190611973565b50565b3360008181526066602090815260408083206001600160a01b03871684529091528120549091610924918590610cd5908690612c31565b61129f565b600080516020612e22833981519152610cf3813361177d565b610c9b611abe565b7ff9424f4303d7f03683a025eb8885734ad99b47df7749d9b0a02cbc985809700b610d26813361177d565b610d308383611b6b565b505050565b610c9b3382611c56565b600080516020612dbb833981519152610d58813361177d565b5061012d80546001600160a01b0319166001600160a01b0392909216919091179055565b306001600160a01b037f0000000000000000000000000000000000000000000000000000000000000000161415610dc55760405162461bcd60e51b81526004016109bb90612b4e565b7f00000000000000000000000000000000000000000000000000000000000000006001600160a01b0316610df76118c3565b6001600160a01b031614610e1d5760405162461bcd60e51b81526004016109bb90612b9a565b610e26826118f1565b610b4882826001611973565b600080516020612e22833981519152610e4b813361177d565b60005b82811015610bbb57610e8f600080516020612d5b833981519152858584818110610e7a57610e7a612d2e565b905060200201602081019061038f919061276e565b80610e9981612cfd565b915050610e4e565b7ff9424f4303d7f03683a025eb8885734ad99b47df7749d9b0a02cbc985809700b610ecc813361177d565b838214610f135760405162461bcd60e51b8152602060048201526015602482015274082e4e4c2f240d8cadccee8d040dad2e6dac2e8c6d605b1b60448201526064016109bb565b60005b84811015610f7857610f66868683818110610f3357610f33612d2e565b9050602002016020810190610f48919061276e565b858584818110610f5a57610f5a612d2e565b90506020020135611b6b565b80610f7081612cfd565b915050610f16565b505050505050565b600080516020612e22833981519152610f99813361177d565b60005b82811015610bbb57610fc8600080516020612e62833981519152858584818110610b9457610b94612d2e565b80610fd281612cfd565b915050610f9c565b6000610fe683336107e1565b9050818110156110445760405162461bcd60e51b8152602060048201526024808201527f45524332303a206275726e20616d6f756e74206578636565647320616c6c6f77604482015263616e636560e01b60648201526084016109bb565b611051833384840361129f565b610d308383611c56565b600080516020612e22833981519152611074813361177d565b610c9b611db0565b600091825260fb602090815260408084206001600160a01b0393909316845291905290205460ff1690565b60606069805461089490612cc2565b3360009081526066602090815260408083206001600160a01b0386168452909152812054828110156111385760405162461bcd60e51b815260206004820152602560248201527f45524332303a2064656372656173656420616c6c6f77616e63652062656c6f77604482015264207a65726f60d81b60648201526084016109bb565b611145338585840361129f565b5060019392505050565b60006109243384846113c3565b60006111666118c3565b905090565b600080516020612e22833981519152611184813361177d565b60005b82811015610bbb576111b3600080516020612d5b833981519152858584818110610b9457610b94612d2e565b806111bd81612cfd565b915050611187565b600080516020612ddb8339815191526111de813361177d565b60005b82811015610bbb5761120d600080516020612d7b833981519152858584818110610e7a57610e7a612d2e565b8061121781612cfd565b9150506111e1565b600082815260fb602052604090206001015461123b813361177d565b610d308383611e44565b600080516020612e2283398151915261125e813361177d565b60005b82811015610bbb5761128d600080516020612e62833981519152858584818110610e7a57610e7a612d2e565b8061129781612cfd565b915050611261565b6001600160a01b0383166113015760405162461bcd60e51b8152602060048201526024808201527f45524332303a20617070726f76652066726f6d20746865207a65726f206164646044820152637265737360e01b60648201526084016109bb565b6001600160a01b0382166113625760405162461bcd60e51b815260206004820152602260248201527f45524332303a20617070726f766520746f20746865207a65726f206164647265604482015261737360f01b60648201526084016109bb565b6001600160a01b0383811660008181526066602090815260408083209487168084529482529182902085905590518481527f8c5be1e5ebec7d5bd14f71427d1e84f3dd0314c0f7b2291e5b200ac8c7c3b925910160405180910390a3505050565b6001600160a01b0383166114275760405162461bcd60e51b815260206004820152602560248201527f45524332303a207472616e736665722066726f6d20746865207a65726f206164604482015264647265737360d81b60648201526084016109bb565b6001600160a01b0382166114895760405162461bcd60e51b815260206004820152602360248201527f45524332303a207472616e7366657220746f20746865207a65726f206164647260448201526265737360e81b60648201526084016109bb565b611494838383611eab565b6001600160a01b0383166000908152606560205260409020548181101561150c5760405162461bcd60e51b815260206004820152602660248201527f45524332303a207472616e7366657220616d6f756e7420657863656564732062604482015265616c616e636560d01b60648201526084016109bb565b6001600160a01b03808516600090815260656020526040808220858503905591851681529081208054849290611543908490612c31565b92505081905550826001600160a01b0316846001600160a01b03167fddf252ad1be2c89b69c2b068fc378daa952ba7f163c4a11628f55a4df523b3ef8460405161158f91815260200190565b60405180910390a3610bbb565b600054610100900460ff166115c35760405162461bcd60e51b81526004016109bb90612be6565b6115cb611eb6565b6115d58484611f0d565b610bbb8282611f5b565b600054610100900460ff166116065760405162461bcd60e51b81526004016109bb90612be6565b565b600054610100900460ff1661162f5760405162461bcd60e51b81526004016109bb90612be6565b611606600080516020612d7b833981519152600080516020612ddb833981519152611f9c565b600054610100900460ff1661167c5760405162461bcd60e51b81526004016109bb90612be6565b6116a2600080516020612e62833981519152600080516020612e22833981519152611f9c565b611606600080516020612d5b833981519152600080516020612e22833981519152611f9c565b600080516020612ddb8339815191528214806116e2575081155b15610b48576116ff600080516020612d7b8339815191528261107c565b15610b485760405162461bcd60e51b815260206004820152602260248201527f63616e206e6f742061737369676e20726f6c6520746f20626c61636b6c697374604482015261195960f21b60648201526084016109bb565b600082815260fb6020526040902060010154611773813361177d565b610d308383611fe7565b611787828261107c565b610b485761179f816001600160a01b0316601461206d565b6117aa83602061206d565b6040516020016117bb929190612aa6565b60408051601f198184030181529082905262461bcd60e51b82526109bb91600401612b1b565b600080516020612d7b833981519152821415610b485760405162461bcd60e51b815260206004820152602160248201527f43616e206e6f742072656e6f756e636520626c61636b6c697374656420726f6c6044820152606560f81b60648201526084016109bb565b6001600160a01b03811633146118b95760405162461bcd60e51b815260206004820152602f60248201527f416363657373436f6e74726f6c3a2063616e206f6e6c792072656e6f756e636560448201526e103937b632b9903337b91039b2b63360891b60648201526084016109bb565b610b488282611e44565b7f360894a13ba1a3210667c828492db98dca3e2076cc3735a920a3ca505d382bbc546001600160a01b031690565b611909600080516020612dbb8339815191523361107c565b806119275750611927600080516020612d9b8339815191523361107c565b610c9b5760405162461bcd60e51b815260206004820152601d60248201527f4552524f523a2041646472657373206e6f7420617574686f72697a656400000060448201526064016109bb565b600061197d6118c3565b905061198884612209565b6000835111806119955750815b156119a6576119a484846122ae565b505b7f4910fdfa16fed3260ed0e7147f7cc6da11a60208b5b9406d12a635614ffd9143805460ff16611ab757805460ff191660011781556040516001600160a01b0383166024820152611a2590869060440160408051601f198184030181529190526020810180516001600160e01b0316631b2ce7f360e11b1790526122ae565b50805460ff19168155611a366118c3565b6001600160a01b0316826001600160a01b031614611aae5760405162461bcd60e51b815260206004820152602f60248201527f45524331393637557067726164653a207570677261646520627265616b73206660448201526e75727468657220757067726164657360881b60648201526084016109bb565b611ab785612399565b5050505050565b600080516020612e428339815191525460ff16611b145760405162461bcd60e51b815260206004820152601460248201527314185d5cd8589b194e881b9bdd081c185d5cd95960621b60448201526064016109bb565b600080516020612e42833981519152805460ff191690557f5db9ee0a495bf2e6ff9c91a7834c1ba4fdd244a5e8aa4e537bd38aeae4b073aa335b6040516001600160a01b03909116815260200160405180910390a1565b6001600160a01b038216611bc15760405162461bcd60e51b815260206004820152601f60248201527f45524332303a206d696e7420746f20746865207a65726f20616464726573730060448201526064016109bb565b611bcd60008383611eab565b8060676000828254611bdf9190612c31565b90915550506001600160a01b03821660009081526065602052604081208054839290611c0c908490612c31565b90915550506040518181526001600160a01b038316906000907fddf252ad1be2c89b69c2b068fc378daa952ba7f163c4a11628f55a4df523b3ef9060200160405180910390a35050565b6001600160a01b038216611cb65760405162461bcd60e51b815260206004820152602160248201527f45524332303a206275726e2066726f6d20746865207a65726f206164647265736044820152607360f81b60648201526084016109bb565b611cc282600083611eab565b6001600160a01b03821660009081526065602052604090205481811015611d365760405162461bcd60e51b815260206004820152602260248201527f45524332303a206275726e20616d6f756e7420657863656564732062616c616e604482015261636560f01b60648201526084016109bb565b6001600160a01b0383166000908152606560205260408120838303905560678054849290611d65908490612c68565b90915550506040518281526000906001600160a01b038516907fddf252ad1be2c89b69c2b068fc378daa952ba7f163c4a11628f55a4df523b3ef9060200160405180910390a3505050565b600080516020612e428339815191525460ff1615611e035760405162461bcd60e51b815260206004820152601060248201526f14185d5cd8589b194e881c185d5cd95960821b60448201526064016109bb565b600080516020612e42833981519152805460ff191660011790557f62e78cea01bee320cd4e420270b5ea74000d11b0c9f74754ebdbfc544b05a25833611b4e565b611e4e828261107c565b15610b4857600082815260fb602090815260408083206001600160a01b0385168085529252808320805460ff1916905551339285917ff6391f5c32d9c69d2a47ea670b442974b53935d1edc7fd64eb21e047a839171b9190a45050565b610d308383836123d9565b600054610100900460ff16611edd5760405162461bcd60e51b81526004016109bb90612be6565b611ee56115df565b611eed6115df565b611ef56115df565b611efd6115df565b611f056115df565b6116066123ef565b600054610100900460ff16611f345760405162461bcd60e51b81526004016109bb90612be6565b8151611f4790606890602085019061262b565b508051610d3090606990602084019061262b565b600054610100900460ff16611f825760405162461bcd60e51b81526004016109bb90612be6565b610160805460ff191660ff8416179055610b483382611b6b565b600082815260fb6020526040808220600101805490849055905190918391839186917fbd79b86ffe0ab8e8776151514217cd7cacd52c909f66475c3af44e129f0b00ff9190a4505050565b611ff1828261107c565b610b4857600082815260fb602090815260408083206001600160a01b03851684529091529020805460ff191660011790556120293390565b6001600160a01b0316816001600160a01b0316837f2f8788117e7eff1d82e926ec794901d17c78024a50270940304540a733656f0d60405160405180910390a45050565b6060600061207c836002612c49565b612087906002612c31565b67ffffffffffffffff81111561209f5761209f612d44565b6040519080825280601f01601f1916602001820160405280156120c9576020820181803683370190505b509050600360fc1b816000815181106120e4576120e4612d2e565b60200101906001600160f81b031916908160001a905350600f60fb1b8160018151811061211357612113612d2e565b60200101906001600160f81b031916908160001a9053506000612137846002612c49565b612142906001612c31565b90505b60018111156121ba576f181899199a1a9b1b9c1cb0b131b232b360811b85600f166010811061217657612176612d2e565b1a60f81b82828151811061218c5761218c612d2e565b60200101906001600160f81b031916908160001a90535060049490941c936121b381612cab565b9050612145565b5083156109d75760405162461bcd60e51b815260206004820181905260248201527f537472696e67733a20686578206c656e67746820696e73756666696369656e7460448201526064016109bb565b803b61226d5760405162461bcd60e51b815260206004820152602d60248201527f455243313936373a206e657720696d706c656d656e746174696f6e206973206e60448201526c1bdd08184818dbdb9d1c9858dd609a1b60648201526084016109bb565b7f360894a13ba1a3210667c828492db98dca3e2076cc3735a920a3ca505d382bbc80546001600160a01b0319166001600160a01b0392909216919091179055565b6060823b61230d5760405162461bcd60e51b815260206004820152602660248201527f416464726573733a2064656c65676174652063616c6c20746f206e6f6e2d636f6044820152651b9d1c9858dd60d21b60648201526084016109bb565b600080846001600160a01b0316846040516123289190612a8a565b600060405180830381855af49150503d8060008114612363576040519150601f19603f3d011682016040523d82523d6000602084013e612368565b606091505b50915091506123908282604051806060016040528060278152602001612dfb60279139612477565b95945050505050565b6123a281612209565b6040516001600160a01b038216907fbc7cd75a20ee27fd9adebab32041f755214dbc6bffa90cc0225b39da2e5c2d3b90600090a250565b6123e48383836124b0565b610d30838383612508565b600054610100900460ff166124165760405162461bcd60e51b81526004016109bb90612be6565b61242160003361258b565b612439600080516020612dbb8339815191523361258b565b612451600080516020612d9b8339815191523361258b565b611606600080516020612d9b833981519152600080516020612dbb833981519152611f9c565b606083156124865750816109d7565b8251156124965782518084602001fd5b8160405162461bcd60e51b81526004016109bb9190612b1b565b6124bb338484612595565b15610d305760405162461bcd60e51b815260206004820152601a60248201527f4552524f523a204164647265737320426c61636b6c697374656400000000000060448201526064016109bb565b600080516020612e428339815191525460ff16158061252c575061252c83336125f3565b610d305760405162461bcd60e51b815260206004820152602a60248201527f45524332305061757361626c653a20746f6b656e207472616e736665722077686044820152691a5b19481c185d5cd95960b21b60648201526084016109bb565b610b488282611fe7565b60006125af600080516020612d7b8339815191528461107c565b806125cd57506125cd600080516020612d7b8339815191528561107c565b806125eb57506125eb600080516020612d7b8339815191528361107c565b949350505050565b600061260d600080516020612e628339815191528461107c565b806109d757506109d7600080516020612d5b8339815191528361107c565b82805461263790612cc2565b90600052602060002090601f016020900481019282612659576000855561269f565b82601f1061267257805160ff191683800117855561269f565b8280016001018555821561269f579182015b8281111561269f578251825591602001919060010190612684565b506126ab9291506126af565b5090565b5b808211156126ab57600081556001016126b0565b80356001600160a01b03811681146126db57600080fd5b919050565b60008083601f8401126126f257600080fd5b50813567ffffffffffffffff81111561270a57600080fd5b6020830191508360208260051b850101111561272557600080fd5b9250929050565b60008083601f84011261273e57600080fd5b50813567ffffffffffffffff81111561275657600080fd5b60208301915083602082850101111561272557600080fd5b60006020828403121561278057600080fd5b6109d7826126c4565b6000806040838503121561279c57600080fd5b6127a5836126c4565b91506127b3602084016126c4565b90509250929050565b6000806000606084860312156127d157600080fd5b6127da846126c4565b92506127e8602085016126c4565b9150604084013590509250925092565b6000806040838503121561280b57600080fd5b612814836126c4565b9150602083013567ffffffffffffffff8082111561283157600080fd5b818501915085601f83011261284557600080fd5b81358181111561285757612857612d44565b604051601f8201601f19908116603f0116810190838211818310171561287f5761287f612d44565b8160405282815288602084870101111561289857600080fd5b8260208601602083013760006020848301015280955050505050509250929050565b600080604083850312156128cd57600080fd5b6128d6836126c4565b946020939093013593505050565b600080602083850312156128f757600080fd5b823567ffffffffffffffff81111561290e57600080fd5b61291a858286016126e0565b90969095509350505050565b6000806000806040858703121561293c57600080fd5b843567ffffffffffffffff8082111561295457600080fd5b612960888389016126e0565b9096509450602087013591508082111561297957600080fd5b50612986878288016126e0565b95989497509550505050565b6000602082840312156129a457600080fd5b5035919050565b600080604083850312156129be57600080fd5b823591506127b3602084016126c4565b6000602082840312156129e057600080fd5b81356001600160e01b0319811681146109d757600080fd5b60008060008060008060808789031215612a1157600080fd5b863567ffffffffffffffff80821115612a2957600080fd5b612a358a838b0161272c565b90985096506020890135915080821115612a4e57600080fd5b50612a5b89828a0161272c565b909550935050604087013560ff81168114612a7557600080fd5b80925050606087013590509295509295509295565b60008251612a9c818460208701612c7f565b9190910192915050565b7f416363657373436f6e74726f6c3a206163636f756e7420000000000000000000815260008351612ade816017850160208801612c7f565b7001034b99036b4b9b9b4b733903937b6329607d1b6017918401918201528351612b0f816028840160208801612c7f565b01602801949350505050565b6020815260008251806020840152612b3a816040850160208701612c7f565b601f01601f19169190910160400192915050565b6020808252602c908201527f46756e6374696f6e206d7573742062652063616c6c6564207468726f7567682060408201526b19195b1959d85d1958d85b1b60a21b606082015260800190565b6020808252602c908201527f46756e6374696f6e206d7573742062652063616c6c6564207468726f7567682060408201526b6163746976652070726f787960a01b606082015260800190565b6020808252602b908201527f496e697469616c697a61626c653a20636f6e7472616374206973206e6f74206960408201526a6e697469616c697a696e6760a81b606082015260800190565b60008219821115612c4457612c44612d18565b500190565b6000816000190483118215151615612c6357612c63612d18565b500290565b600082821015612c7a57612c7a612d18565b500390565b60005b83811015612c9a578181015183820152602001612c82565b83811115610bbb5750506000910152565b600081612cba57612cba612d18565b506000190190565b600181811c90821680612cd657607f821691505b60208210811415612cf757634e487b7160e01b600052602260045260246000fd5b50919050565b6000600019821415612d1157612d11612d18565b5060010190565b634e487b7160e01b600052601160045260246000fd5b634e487b7160e01b600052603260045260246000fd5b634e487b7160e01b600052604160045260246000fdfee1ac655ab58995133a870d1fd307ddc1d624c8ad919a09e67867a7a1483e439a548c7f0307ab2a7ea894e5c7e8c5353cc750bb9385ee2e945f189a9a83daa8eda76ace73a908083d89af9ff88e5b4f7cadb3591a80631063f68b695fda726db571840dc4906352362b0cdaf79870196c8e42acafade72d5d5a6d59291253ceb1f988e4fb62b8e14f4820fed03192306ddf4d7dbfa215595ba1c6ba4b76b369ee416464726573733a206c6f772d6c6576656c2064656c65676174652063616c6c206661696c6564356a809dfdea9198dd76fb76bf6d403ecf13ea675eb89e1eda2db2c4a4676a26ad6a6591fa308fe948065665239402780db8ed4a8c4e4e16c4d066bcaa05efc2ce108bcc5e0f50fe603649304cbbbd94de794a404db82d884c0afc9ba9328e61a2646970667358221220b651c7ef4c63e19393ff3802c6652ce499ab7ecb5e189b2dbe820b5092b7514a64736f6c63430008060033",
  "linkReferences": {},
  "deployedLinkReferences": {}
}