{
  "_format": "hh-sol-artifact-1",
  "name": "BlacklistBurnSnapshotTxFeeTemplate",
  "initializer": "function initialize(string name_, string symbol_, uint8 decimals_, uint256 amount_, uint256 txFee, address txFeeBeneficiary)",
  "sourceName": "contracts/templates/BlacklistBurnSnapshotTxFeeTemplate.sol",
  "abi": [
    {
      "anonymous": false,
      "inputs": [
        {
          "indexed": false,
          "internalType": "address",
          "name": "previousAdmin",
          "type": "address"
        },
        {
          "indexed": false,
          "internalType": "address",
          "name": "newAdmin",
          "type": "address"
        }
      ],
      "name": "AdminChanged",
      "type": "event"
    },
    {
      "anonymous": false,
      "inputs": [
        {
          "indexed": true,
          "internalType": "address",
          "name": "owner",
          "type": "address"
        },
        {
          "indexed": true,
          "internalType": "address",
          "name": "spender",
          "type": "address"
        },
        {
          "indexed": false,
          "internalType": "uint256",
          "name": "value",
          "type": "uint256"
        }
      ],
      "name": "Approval",
      "type": "event"
    },
    {
      "anonymous": false,
      "inputs": [
        {
          "indexed": true,
          "internalType": "address",
          "name": "beacon",
          "type": "address"
        }
      ],
      "name": "BeaconUpgraded",
      "type": "event"
    },
    {
      "anonymous": false,
      "inputs": [
        {
          "indexed": true,
          "internalType": "bytes32",
          "name": "role",
          "type": "bytes32"
        },
        {
          "indexed": true,
          "internalType": "bytes32",
          "name": "previousAdminRole",
          "type": "bytes32"
        },
        {
          "indexed": true,
          "internalType": "bytes32",
          "name": "newAdminRole",
          "type": "bytes32"
        }
      ],
      "name": "RoleAdminChanged",
      "type": "event"
    },
    {
      "anonymous": false,
      "inputs": [
        {
          "indexed": true,
          "internalType": "bytes32",
          "name": "role",
          "type": "bytes32"
        },
        {
          "indexed": true,
          "internalType": "address",
          "name": "account",
          "type": "address"
        },
        {
          "indexed": true,
          "internalType": "address",
          "name": "sender",
          "type": "address"
        }
      ],
      "name": "RoleGranted",
      "type": "event"
    },
    {
      "anonymous": false,
      "inputs": [
        {
          "indexed": true,
          "internalType": "bytes32",
          "name": "role",
          "type": "bytes32"
        },
        {
          "indexed": true,
          "internalType": "address",
          "name": "account",
          "type": "address"
        },
        {
          "indexed": true,
          "internalType": "address",
          "name": "sender",
          "type": "address"
        }
      ],
      "name": "RoleRevoked",
      "type": "event"
    },
    {
      "anonymous": false,
      "inputs": [
        {
          "indexed": false,
          "internalType": "uint256",
          "name": "id",
          "type": "uint256"
        }
      ],
      "name": "Snapshot",
      "type": "event"
    },
    {
      "anonymous": false,
      "inputs": [
        {
          "indexed": true,
          "internalType": "address",
          "name": "from",
          "type": "address"
        },
        {
          "indexed": true,
          "internalType": "address",
          "name": "to",
          "type": "address"
        },
        {
          "indexed": false,
          "internalType": "uint256",
          "name": "value",
          "type": "uint256"
        }
      ],
      "name": "Transfer",
      "type": "event"
    },
    {
      "anonymous": false,
      "inputs": [
        {
          "indexed": true,
          "internalType": "address",
          "name": "implementation",
          "type": "address"
        }
      ],
      "name": "Upgraded",
      "type": "event"
    },
    {
      "inputs": [],
      "name": "BLACKLISTED_ROLE",
      "outputs": [
        {
          "internalType": "bytes32",
          "name": "",
          "type": "bytes32"
        }
      ],
      "stateMutability": "view",
      "type": "function"
    },
    {
      "inputs": [],
      "name": "BLACKLIST_MANAGER_ROLE",
      "outputs": [
        {
          "internalType": "bytes32",
          "name": "",
          "type": "bytes32"
        }
      ],
      "stateMutability": "view",
      "type": "function"
    },
    {
      "inputs": [],
      "name": "DEFAULT_ADMIN_ROLE",
      "outputs": [
        {
          "internalType": "bytes32",
          "name": "",
          "type": "bytes32"
        }
      ],
      "stateMutability": "view",
      "type": "function"
    },
    {
      "inputs": [],
      "name": "GOVERNANCE_ROLE",
      "outputs": [
        {
          "internalType": "bytes32",
          "name": "",
          "type": "bytes32"
        }
      ],
      "stateMutability": "view",
      "type": "function"
    },
    {
      "inputs": [],
      "name": "UPGRADE_MANAGER_ROLE",
      "outputs": [
        {
          "internalType": "bytes32",
          "name": "",
          "type": "bytes32"
        }
      ],
      "stateMutability": "view",
      "type": "function"
    },
    {
      "inputs": [
        {
          "internalType": "address[]",
          "name": "addresses",
          "type": "address[]"
        }
      ],
      "name": "addAddressesToBlacklist",
      "outputs": [],
      "stateMutability": "nonpayable",
      "type": "function"
    },
    {
      "inputs": [
        {
          "internalType": "address",
          "name": "owner",
          "type": "address"
        },
        {
          "internalType": "address",
          "name": "spender",
          "type": "address"
        }
      ],
      "name": "allowance",
      "outputs": [
        {
          "internalType": "uint256",
          "name": "",
          "type": "uint256"
        }
      ],
      "stateMutability": "view",
      "type": "function"
    },
    {
      "inputs": [
        {
          "internalType": "address",
          "name": "spender",
          "type": "address"
        },
        {
          "internalType": "uint256",
          "name": "amount",
          "type": "uint256"
        }
      ],
      "name": "approve",
      "outputs": [
        {
          "internalType": "bool",
          "name": "",
          "type": "bool"
        }
      ],
      "stateMutability": "nonpayable",
      "type": "function"
    },
    {
      "inputs": [
        {
          "internalType": "address",
          "name": "account",
          "type": "address"
        }
      ],
      "name": "balanceOf",
      "outputs": [
        {
          "internalType": "uint256",
          "name": "",
          "type": "uint256"
        }
      ],
      "stateMutability": "view",
      "type": "function"
    },
    {
      "inputs": [
        {
          "internalType": "address",
          "name": "account",
          "type": "address"
        },
        {
          "internalType": "uint256",
          "name": "snapshotId",
          "type": "uint256"
        }
      ],
      "name": "balanceOfAt",
      "outputs": [
        {
          "internalType": "uint256",
          "name": "",
          "type": "uint256"
        }
      ],
      "stateMutability": "view",
      "type": "function"
    },
    {
      "inputs": [
        {
          "internalType": "uint256",
          "name": "amount",
          "type": "uint256"
        }
      ],
      "name": "burn",
      "outputs": [],
      "stateMutability": "nonpayable",
      "type": "function"
    },
    {
      "inputs": [
        {
          "internalType": "address",
          "name": "account",
          "type": "address"
        },
        {
          "internalType": "uint256",
          "name": "amount",
          "type": "uint256"
        }
      ],
      "name": "burnFrom",
      "outputs": [],
      "stateMutability": "nonpayable",
      "type": "function"
    },
    {
      "inputs": [
        {
          "internalType": "uint256",
          "name": "newTxFee",
          "type": "uint256"
        },
        {
          "internalType": "address",
          "name": "newTxBeneficiary",
          "type": "address"
        }
      ],
      "name": "changeTxFeeProperties",
      "outputs": [],
      "stateMutability": "nonpayable",
      "type": "function"
    },
    {
      "inputs": [],
      "name": "decimals",
      "outputs": [
        {
          "internalType": "uint8",
          "name": "",
          "type": "uint8"
        }
      ],
      "stateMutability": "view",
      "type": "function"
    },
    {
      "inputs": [
        {
          "internalType": "address",
          "name": "spender",
          "type": "address"
        },
        {
          "internalType": "uint256",
          "name": "subtractedValue",
          "type": "uint256"
        }
      ],
      "name": "decreaseAllowance",
      "outputs": [
        {
          "internalType": "bool",
          "name": "",
          "type": "bool"
        }
      ],
      "stateMutability": "nonpayable",
      "type": "function"
    },
    {
      "inputs": [],
      "name": "getCurrentSnapshotId",
      "outputs": [
        {
          "internalType": "uint256",
          "name": "",
          "type": "uint256"
        }
      ],
      "stateMutability": "view",
      "type": "function"
    },
    {
      "inputs": [],
      "name": "getImplementation",
      "outputs": [
        {
          "internalType": "address",
          "name": "",
          "type": "address"
        }
      ],
      "stateMutability": "view",
      "type": "function"
    },
    {
      "inputs": [
        {
          "internalType": "bytes32",
          "name": "role",
          "type": "bytes32"
        }
      ],
      "name": "getRoleAdmin",
      "outputs": [
        {
          "internalType": "bytes32",
          "name": "",
          "type": "bytes32"
        }
      ],
      "stateMutability": "view",
      "type": "function"
    },
    {
      "inputs": [
        {
          "internalType": "bytes32",
          "name": "role",
          "type": "bytes32"
        },
        {
          "internalType": "address",
          "name": "account",
          "type": "address"
        }
      ],
      "name": "grantRole",
      "outputs": [],
      "stateMutability": "nonpayable",
      "type": "function"
    },
    {
      "inputs": [
        {
          "internalType": "bytes32",
          "name": "role",
          "type": "bytes32"
        },
        {
          "internalType": "address",
          "name": "account",
          "type": "address"
        }
      ],
      "name": "hasRole",
      "outputs": [
        {
          "internalType": "bool",
          "name": "",
          "type": "bool"
        }
      ],
      "stateMutability": "view",
      "type": "function"
    },
    {
      "inputs": [
        {
          "internalType": "address",
          "name": "spender",
          "type": "address"
        },
        {
          "internalType": "uint256",
          "name": "addedValue",
          "type": "uint256"
        }
      ],
      "name": "increaseAllowance",
      "outputs": [
        {
          "internalType": "bool",
          "name": "",
          "type": "bool"
        }
      ],
      "stateMutability": "nonpayable",
      "type": "function"
    },
    {
      "inputs": [
        {
          "internalType": "string",
          "name": "name_",
          "type": "string"
        },
        {
          "internalType": "string",
          "name": "symbol_",
          "type": "string"
        },
        {
          "internalType": "uint8",
          "name": "decimals_",
          "type": "uint8"
        },
        {
          "internalType": "uint256",
          "name": "amount_",
          "type": "uint256"
        },
        {
          "internalType": "uint256",
          "name": "txFee",
          "type": "uint256"
        },
        {
          "internalType": "address",
          "name": "txFeeBeneficiary",
          "type": "address"
        }
      ],
      "name": "initialize",
      "outputs": [],
      "stateMutability": "nonpayable",
      "type": "function"
    },
    {
      "inputs": [],
      "name": "name",
      "outputs": [
        {
          "internalType": "string",
          "name": "",
          "type": "string"
        }
      ],
      "stateMutability": "view",
      "type": "function"
    },
    {
      "inputs": [
        {
          "internalType": "address",
          "name": "implementationAddress",
          "type": "address"
        }
      ],
      "name": "proposeNewImplementation",
      "outputs": [],
      "stateMutability": "nonpayable",
      "type": "function"
    },
    {
      "inputs": [
        {
          "internalType": "address[]",
          "name": "addresses",
          "type": "address[]"
        }
      ],
      "name": "removeAddressesFromBlacklist",
      "outputs": [],
      "stateMutability": "nonpayable",
      "type": "function"
    },
    {
      "inputs": [
        {
          "internalType": "bytes32",
          "name": "role",
          "type": "bytes32"
        },
        {
          "internalType": "address",
          "name": "account",
          "type": "address"
        }
      ],
      "name": "renounceRole",
      "outputs": [],
      "stateMutability": "nonpayable",
      "type": "function"
    },
    {
      "inputs": [
        {
          "internalType": "bytes32",
          "name": "role",
          "type": "bytes32"
        },
        {
          "internalType": "address",
          "name": "account",
          "type": "address"
        }
      ],
      "name": "revokeRole",
      "outputs": [],
      "stateMutability": "nonpayable",
      "type": "function"
    },
    {
      "inputs": [],
      "name": "snapshot",
      "outputs": [],
      "stateMutability": "nonpayable",
      "type": "function"
    },
    {
      "inputs": [
        {
          "internalType": "bytes4",
          "name": "interfaceId",
          "type": "bytes4"
        }
      ],
      "name": "supportsInterface",
      "outputs": [
        {
          "internalType": "bool",
          "name": "",
          "type": "bool"
        }
      ],
      "stateMutability": "view",
      "type": "function"
    },
    {
      "inputs": [],
      "name": "symbol",
      "outputs": [
        {
          "internalType": "string",
          "name": "",
          "type": "string"
        }
      ],
      "stateMutability": "view",
      "type": "function"
    },
    {
      "inputs": [],
      "name": "totalSupply",
      "outputs": [
        {
          "internalType": "uint256",
          "name": "",
          "type": "uint256"
        }
      ],
      "stateMutability": "view",
      "type": "function"
    },
    {
      "inputs": [
        {
          "internalType": "uint256",
          "name": "snapshotId",
          "type": "uint256"
        }
      ],
      "name": "totalSupplyAt",
      "outputs": [
        {
          "internalType": "uint256",
          "name": "",
          "type": "uint256"
        }
      ],
      "stateMutability": "view",
      "type": "function"
    },
    {
      "inputs": [
        {
          "internalType": "address",
          "name": "recipient",
          "type": "address"
        },
        {
          "internalType": "uint256",
          "name": "amount",
          "type": "uint256"
        }
      ],
      "name": "transfer",
      "outputs": [
        {
          "internalType": "bool",
          "name": "",
          "type": "bool"
        }
      ],
      "stateMutability": "nonpayable",
      "type": "function"
    },
    {
      "inputs": [
        {
          "internalType": "address",
          "name": "sender",
          "type": "address"
        },
        {
          "internalType": "address",
          "name": "recipient",
          "type": "address"
        },
        {
          "internalType": "uint256",
          "name": "amount",
          "type": "uint256"
        }
      ],
      "name": "transferFrom",
      "outputs": [
        {
          "internalType": "bool",
          "name": "",
          "type": "bool"
        }
      ],
      "stateMutability": "nonpayable",
      "type": "function"
    },
    {
      "inputs": [
        {
          "internalType": "address",
          "name": "newImplementation",
          "type": "address"
        }
      ],
      "name": "upgradeTo",
      "outputs": [],
      "stateMutability": "nonpayable",
      "type": "function"
    },
    {
      "inputs": [
        {
          "internalType": "address",
          "name": "newImplementation",
          "type": "address"
        },
        {
          "internalType": "bytes",
          "name": "data",
          "type": "bytes"
        }
      ],
      "name": "upgradeToAndCall",
      "outputs": [],
      "stateMutability": "payable",
      "type": "function"
    }
  ],
  "bytecode": "0x60a06040523060601b60805234801561001757600080fd5b5060805160601c612e6761004b600039600081816109f001528181610a3001528181610be10152610c210152612e676000f3fe60806040526004361061020f5760003560e01c80634f1ef28611610118578063981b24d0116100a0578063aaf10f421161006f578063aaf10f4214610602578063ca73419e1461062f578063d547741f1461064f578063dd62ed3e1461066f578063f36c8f5c146106b557600080fd5b8063981b24d01461058d578063a217fddf146105ad578063a457c2d7146105c2578063a9059cbb146105e257600080fd5b806370a08231116100e757806370a08231146104ed57806379cc67901461052357806391d148541461054357806395d89b41146105635780639711715a1461057857600080fd5b80634f1ef286146104835780635120561a146104965780635439ad86146104b657806362b199c5146104cb57600080fd5b8063322587941161019b578063410b24241161016a578063410b2424146103df57806342966c681461040157806343ffa64e1461042157806347757fb6146104435780634ee2cd7e1461046357600080fd5b8063322587941461035f57806336568abe1461037f5780633659cfe61461039f57806339509351146103bf57600080fd5b806323b872dd116101e257806323b872dd146102aa578063248a9ca3146102ca5780632cd77a5a146102fa5780632f2ff15d1461031c578063313ce5671461033c57600080fd5b806301ffc9a71461021457806306fdde0314610249578063095ea7b31461026b57806318160ddd1461028b575b600080fd5b34801561022057600080fd5b5061023461022f366004612995565b6106d7565b60405190151581526020015b60405180910390f35b34801561025557600080fd5b5061025e61070e565b6040516102409190612aef565b34801561027757600080fd5b506102346102863660046128ba565b6107a0565b34801561029757600080fd5b506067545b604051908152602001610240565b3480156102b657600080fd5b506102346102c536600461281c565b6107b6565b3480156102d657600080fd5b5061029c6102e5366004612959565b600090815260fb602052604090206001015490565b34801561030657600080fd5b5061031a6103153660046129bf565b610867565b005b34801561032857600080fd5b5061031a610337366004612972565b610944565b34801561034857600080fd5b506101605460405160ff9091168152602001610240565b34801561036b57600080fd5b5061031a61037a3660046128e4565b61095c565b34801561038b57600080fd5b5061031a61039a366004612972565b6109d1565b3480156103ab57600080fd5b5061031a6103ba3660046127ce565b6109e5565b3480156103cb57600080fd5b506102346103da3660046128ba565b610aae565b3480156103eb57600080fd5b5061029c600080516020612dab83398151915281565b34801561040d57600080fd5b5061031a61041c366004612959565b610aea565b34801561042d57600080fd5b5061029c600080516020612d6b83398151915281565b34801561044f57600080fd5b5061031a61045e3660046127ce565b610af4565b34801561046f57600080fd5b5061029c61047e3660046128ba565b610b31565b61031a610491366004612858565b610bd6565b3480156104a257600080fd5b5061031a6104b1366004612972565b610c8c565b3480156104c257600080fd5b5061029c610d01565b3480156104d757600080fd5b5061029c600080516020612d4b83398151915281565b3480156104f957600080fd5b5061029c6105083660046127ce565b6001600160a01b031660009081526065602052604090205490565b34801561052f57600080fd5b5061031a61053e3660046128ba565b610d1e565b34801561054f57600080fd5b5061023461055e366004612972565b610da4565b34801561056f57600080fd5b5061025e610dcf565b34801561058457600080fd5b5061031a610dde565b34801561059957600080fd5b5061029c6105a8366004612959565b610de6565b3480156105b957600080fd5b5061029c600081565b3480156105ce57600080fd5b506102346105dd3660046128ba565b610e51565b3480156105ee57600080fd5b506102346105fd3660046128ba565b610eea565b34801561060e57600080fd5b50610617610ef7565b6040516001600160a01b039091168152602001610240565b34801561063b57600080fd5b5061031a61064a3660046128e4565b610f01565b34801561065b57600080fd5b5061031a61066a366004612972565b610f70565b34801561067b57600080fd5b5061029c61068a3660046127e9565b6001600160a01b03918216600090815260666020908152604080832093909416825291909152205490565b3480156106c157600080fd5b5061029c600080516020612d8b83398151915281565b60006001600160e01b03198216637965db0b60e01b148061070857506301ffc9a760e01b6001600160e01b03198316145b92915050565b60606068805461071d90612cb8565b80601f016020809104026020016040519081016040528092919081815260200182805461074990612cb8565b80156107965780601f1061076b57610100808354040283529160200191610796565b820191906000526020600020905b81548152906001019060200180831161077957829003601f168201915b5050505050905090565b60006107ad338484610f96565b50600192915050565b60006107c38484846110ba565b6001600160a01b03841660009081526066602090815260408083203384529091529020548281101561084d5760405162461bcd60e51b815260206004820152602860248201527f45524332303a207472616e7366657220616d6f756e74206578636565647320616044820152676c6c6f77616e636560c01b60648201526084015b60405180910390fd5b61085a8533858403610f96565b60019150505b9392505050565b600054610100900460ff166108825760005460ff1615610886565b303b155b6108e95760405162461bcd60e51b815260206004820152602e60248201527f496e697469616c697a61626c653a20636f6e747261637420697320616c72656160448201526d191e481a5b9a5d1a585b1a5e995960921b6064820152608401610844565b600054610100900460ff1615801561090b576000805461ffff19166101011790555b61091787878787611293565b61091f6112d6565b6109298383611325565b801561093b576000805461ff00191690555b50505050505050565b61094e82826113b4565b6109588282611443565b5050565b600080516020612dab8339815191526109758133611469565b60005b828110156109cb576109b9600080516020612d4b8339815191528585848181106109a4576109a4612d1e565b905060200201602081019061066a91906127ce565b806109c381612ced565b915050610978565b50505050565b6109db82826114cd565b6109588282611535565b306001600160a01b037f0000000000000000000000000000000000000000000000000000000000000000161415610a2e5760405162461bcd60e51b815260040161084490612b22565b7f00000000000000000000000000000000000000000000000000000000000000006001600160a01b0316610a606115af565b6001600160a01b031614610a865760405162461bcd60e51b815260040161084490612b6e565b610a8f816115dd565b60408051600080825260208201909252610aab9183919061165f565b50565b3360008181526066602090815260408083206001600160a01b038716845290915281205490916107ad918590610ae5908690612c05565b610f96565b610aab33826117aa565b600080516020612d8b833981519152610b0d8133611469565b5061012d80546001600160a01b0319166001600160a01b0392909216919091179055565b604080516001600160a01b0384166020808301919091527ffbf1c7065455eb4486649b8540f24ef2dd4ebedf2aa423f0039d17c2c75dea15828401528251808303840181526060909201909252805191012060009081610b92826001612c05565b9050600080610ba2868585611904565b9150915081610bc9576001600160a01b038716600090815260656020526040902054610bcb565b805b979650505050505050565b306001600160a01b037f0000000000000000000000000000000000000000000000000000000000000000161415610c1f5760405162461bcd60e51b815260040161084490612b22565b7f00000000000000000000000000000000000000000000000000000000000000006001600160a01b0316610c516115af565b6001600160a01b031614610c775760405162461bcd60e51b815260040161084490612b6e565b610c80826115dd565b6109588282600161165f565b6000610c988133611469565b6001600160a01b038216610cab57600080fd5b82600080516020612dcb83398151915255817fe38b16c806f019542b2d4bf356bb4ba2ea4b7eb450b8fbff2584f6084c4978f180546001600160a01b0319166001600160a01b0392909216919091179055505050565b6000610d19600080516020612e128339815191525490565b905090565b6000610d2a833361068a565b905081811015610d885760405162461bcd60e51b8152602060048201526024808201527f45524332303a206275726e20616d6f756e74206578636565647320616c6c6f77604482015263616e636560e01b6064820152608401610844565b610d958333848403610f96565b610d9f83836117aa565b505050565b600091825260fb602090815260408084206001600160a01b0393909316845291905290205460ff1690565b60606069805461071d90612cb8565b610aab6119ef565b6000806000610e36847f286a9db37a0f8ddcbcee127c9f4f56031230f49cb46786f87e166d552e11f67e7ffcaa8bb100d3c5b627eac0369cc1d2778dbeffa2993d08f039fb27795729e9a5611904565b9150915081610e4757606754610e49565b805b949350505050565b3360009081526066602090815260408083206001600160a01b038616845290915281205482811015610ed35760405162461bcd60e51b815260206004820152602560248201527f45524332303a2064656372656173656420616c6c6f77616e63652062656c6f77604482015264207a65726f60d81b6064820152608401610844565b610ee03385858403610f96565b5060019392505050565b60006107ad3384846110ba565b6000610d196115af565b600080516020612dab833981519152610f1a8133611469565b60005b828110156109cb57610f5e600080516020612d4b833981519152858584818110610f4957610f49612d1e565b905060200201602081019061033791906127ce565b80610f6881612ced565b915050610f1d565b600082815260fb6020526040902060010154610f8c8133611469565b610d9f8383611a5f565b6001600160a01b038316610ff85760405162461bcd60e51b8152602060048201526024808201527f45524332303a20617070726f76652066726f6d20746865207a65726f206164646044820152637265737360e01b6064820152608401610844565b6001600160a01b0382166110595760405162461bcd60e51b815260206004820152602260248201527f45524332303a20617070726f766520746f20746865207a65726f206164647265604482015261737360f01b6064820152608401610844565b6001600160a01b0383811660008181526066602090815260408083209487168084529482529182902085905590518481527f8c5be1e5ebec7d5bd14f71427d1e84f3dd0314c0f7b2291e5b200ac8c7c3b925910160405180910390a3505050565b6001600160a01b03831661111e5760405162461bcd60e51b815260206004820152602560248201527f45524332303a207472616e736665722066726f6d20746865207a65726f206164604482015264647265737360d81b6064820152608401610844565b6001600160a01b0382166111805760405162461bcd60e51b815260206004820152602360248201527f45524332303a207472616e7366657220746f20746865207a65726f206164647260448201526265737360e81b6064820152608401610844565b61118b838383611ac6565b6001600160a01b038316600090815260656020526040902054818110156112035760405162461bcd60e51b815260206004820152602660248201527f45524332303a207472616e7366657220616d6f756e7420657863656564732062604482015265616c616e636560d01b6064820152608401610844565b6001600160a01b0380851660009081526065602052604080822085850390559185168152908120805484929061123a908490612c05565b92505081905550826001600160a01b0316846001600160a01b03167fddf252ad1be2c89b69c2b068fc378daa952ba7f163c4a11628f55a4df523b3ef8460405161128691815260200190565b60405180910390a36109cb565b600054610100900460ff166112ba5760405162461bcd60e51b815260040161084490612bba565b6112c2611adc565b6112cc8484611b33565b6109cb8282611b81565b600054610100900460ff166112fd5760405162461bcd60e51b815260040161084490612bba565b611323600080516020612d4b833981519152600080516020612dab833981519152611bc2565b565b600054610100900460ff1661134c5760405162461bcd60e51b815260040161084490612bba565b6001600160a01b03811661135f57600080fd5b81600080516020612dcb83398151915255807fe38b16c806f019542b2d4bf356bb4ba2ea4b7eb450b8fbff2584f6084c4978f180546001600160a01b0319166001600160a01b03929092169190911790555050565b600080516020612dab8339815191528214806113ce575081155b15610958576113eb600080516020612d4b83398151915282610da4565b156109585760405162461bcd60e51b815260206004820152602260248201527f63616e206e6f742061737369676e20726f6c6520746f20626c61636b6c697374604482015261195960f21b6064820152608401610844565b600082815260fb602052604090206001015461145f8133611469565b610d9f8383611c0d565b6114738282610da4565b6109585761148b816001600160a01b03166014611c93565b611496836020611c93565b6040516020016114a7929190612a7a565b60408051601f198184030181529082905262461bcd60e51b825261084491600401612aef565b600080516020612d4b8339815191528214156109585760405162461bcd60e51b815260206004820152602160248201527f43616e206e6f742072656e6f756e636520626c61636b6c697374656420726f6c6044820152606560f81b6064820152608401610844565b6001600160a01b03811633146115a55760405162461bcd60e51b815260206004820152602f60248201527f416363657373436f6e74726f6c3a2063616e206f6e6c792072656e6f756e636560448201526e103937b632b9903337b91039b2b63360891b6064820152608401610844565b6109588282611a5f565b7f360894a13ba1a3210667c828492db98dca3e2076cc3735a920a3ca505d382bbc546001600160a01b031690565b6115f5600080516020612d8b83398151915233610da4565b806116135750611613600080516020612d6b83398151915233610da4565b610aab5760405162461bcd60e51b815260206004820152601d60248201527f4552524f523a2041646472657373206e6f7420617574686f72697a65640000006044820152606401610844565b60006116696115af565b905061167484611e2f565b6000835111806116815750815b15611692576116908484611ed4565b505b7f4910fdfa16fed3260ed0e7147f7cc6da11a60208b5b9406d12a635614ffd9143805460ff166117a357805460ff191660011781556040516001600160a01b038316602482015261171190869060440160408051601f198184030181529190526020810180516001600160e01b0316631b2ce7f360e11b179052611ed4565b50805460ff191681556117226115af565b6001600160a01b0316826001600160a01b03161461179a5760405162461bcd60e51b815260206004820152602f60248201527f45524331393637557067726164653a207570677261646520627265616b73206660448201526e75727468657220757067726164657360881b6064820152608401610844565b6117a385611fbf565b5050505050565b6001600160a01b03821661180a5760405162461bcd60e51b815260206004820152602160248201527f45524332303a206275726e2066726f6d20746865207a65726f206164647265736044820152607360f81b6064820152608401610844565b61181682600083611ac6565b6001600160a01b0382166000908152606560205260409020548181101561188a5760405162461bcd60e51b815260206004820152602260248201527f45524332303a206275726e20616d6f756e7420657863656564732062616c616e604482015261636560f01b6064820152608401610844565b6001600160a01b03831660009081526065602052604081208383039055606780548492906118b9908490612c5e565b90915550506040518281526000906001600160a01b038516907fddf252ad1be2c89b69c2b068fc378daa952ba7f163c4a11628f55a4df523b3ef9060200160405180910390a3505050565b600080600085116119505760405162461bcd60e51b815260206004820152601660248201527504552433230536e617073686f743a20696420697320360541b6044820152606401610844565b600080516020612e12833981519152548511156119af5760405162461bcd60e51b815260206004820152601d60248201527f4552433230536e617073686f743a206e6f6e6578697374656e742069640000006044820152606401610844565b60006119bb8587611fff565b905084548114156119d35760008092509250506119e7565b60016119df858361209e565b549093509150505b935093915050565b60006001600080516020612e128339815191528054600090611a12908490612c05565b9091555050600080516020612e12833981519152546040518181527f8030e83b04d87bef53480e26263266d6ca66863aa8506aca6f2559d18aa1cb679060200160405180910390a1919050565b611a698282610da4565b1561095857600082815260fb602090815260408083206001600160a01b0385168085529252808320805460ff1916905551339285917ff6391f5c32d9c69d2a47ea670b442974b53935d1edc7fd64eb21e047a839171b9190a45050565b611ad183838361211d565b610d9f83838361213e565b600054610100900460ff16611b035760405162461bcd60e51b815260040161084490612bba565b611b0b612186565b611b13612186565b611b1b612186565b611b23612186565b611b2b612186565b6113236121ad565b600054610100900460ff16611b5a5760405162461bcd60e51b815260040161084490612bba565b8151611b6d906068906020850190612683565b508051610d9f906069906020840190612683565b600054610100900460ff16611ba85760405162461bcd60e51b815260040161084490612bba565b610160805460ff191660ff84161790556109583382612235565b600082815260fb6020526040808220600101805490849055905190918391839186917fbd79b86ffe0ab8e8776151514217cd7cacd52c909f66475c3af44e129f0b00ff9190a4505050565b611c178282610da4565b61095857600082815260fb602090815260408083206001600160a01b03851684529091529020805460ff19166001179055611c4f3390565b6001600160a01b0316816001600160a01b0316837f2f8788117e7eff1d82e926ec794901d17c78024a50270940304540a733656f0d60405160405180910390a45050565b60606000611ca2836002612c3f565b611cad906002612c05565b67ffffffffffffffff811115611cc557611cc5612d34565b6040519080825280601f01601f191660200182016040528015611cef576020820181803683370190505b509050600360fc1b81600081518110611d0a57611d0a612d1e565b60200101906001600160f81b031916908160001a905350600f60fb1b81600181518110611d3957611d39612d1e565b60200101906001600160f81b031916908160001a9053506000611d5d846002612c3f565b611d68906001612c05565b90505b6001811115611de0576f181899199a1a9b1b9c1cb0b131b232b360811b85600f1660108110611d9c57611d9c612d1e565b1a60f81b828281518110611db257611db2612d1e565b60200101906001600160f81b031916908160001a90535060049490941c93611dd981612ca1565b9050611d6b565b5083156108605760405162461bcd60e51b815260206004820181905260248201527f537472696e67733a20686578206c656e67746820696e73756666696369656e746044820152606401610844565b803b611e935760405162461bcd60e51b815260206004820152602d60248201527f455243313936373a206e657720696d706c656d656e746174696f6e206973206e60448201526c1bdd08184818dbdb9d1c9858dd609a1b6064820152608401610844565b7f360894a13ba1a3210667c828492db98dca3e2076cc3735a920a3ca505d382bbc80546001600160a01b0319166001600160a01b0392909216919091179055565b6060823b611f335760405162461bcd60e51b815260206004820152602660248201527f416464726573733a2064656c65676174652063616c6c20746f206e6f6e2d636f6044820152651b9d1c9858dd60d21b6064820152608401610844565b600080846001600160a01b031684604051611f4e9190612a5e565b600060405180830381855af49150503d8060008114611f89576040519150601f19603f3d011682016040523d82523d6000602084013e611f8e565b606091505b5091509150611fb68282604051806060016040528060278152602001612deb60279139612320565b95945050505050565b611fc881611e2f565b6040516001600160a01b038216907fbc7cd75a20ee27fd9adebab32041f755214dbc6bffa90cc0225b39da2e5c2d3b90600090a250565b815460009081908061201657600092505050610708565b8082101561205a57600061202a8383612359565b905084612037878361209e565b54111561204657809150612054565b612051816001612c05565b92505b50612016565b60008211801561207d57508361207a86612075600186612c5e565b61209e565b54145b156120965761208d600183612c5e565b92505050610708565b509050610708565b6000825482106120e65760405162461bcd60e51b815260206004820152601360248201527211549493d48e8813dd5d081bd988189bdd5b99606a1b6044820152606401610844565b81836040516020016120fa91815260200190565b6040516020818303038152906040528051906020012060001c6108609190612c05565b612128838383611ad1565b612133838383612374565b610d9f8383836123cc565b6001600160a01b03831661215d57612155826124b5565b610d9f61253f565b6001600160a01b03821661217457612155836124b5565b61217d836124b5565b610d9f826124b5565b600054610100900460ff166113235760405162461bcd60e51b815260040161084490612bba565b600054610100900460ff166121d45760405162461bcd60e51b815260040161084490612bba565b6121df60003361258d565b6121f7600080516020612d8b8339815191523361258d565b61220f600080516020612d6b8339815191523361258d565b611323600080516020612d6b833981519152600080516020612d8b833981519152611bc2565b6001600160a01b03821661228b5760405162461bcd60e51b815260206004820152601f60248201527f45524332303a206d696e7420746f20746865207a65726f2061646472657373006044820152606401610844565b61229760008383611ac6565b80606760008282546122a99190612c05565b90915550506001600160a01b038216600090815260656020526040812080548392906122d6908490612c05565b90915550506040518181526001600160a01b038316906000907fddf252ad1be2c89b69c2b068fc378daa952ba7f163c4a11628f55a4df523b3ef9060200160405180910390a35050565b6060831561232f575081610860565b82511561233f5782518084602001fd5b8160405162461bcd60e51b81526004016108449190612aef565b60006123686002848418612c1d565b61086090848416612c05565b61237f338484612597565b15610d9f5760405162461bcd60e51b815260206004820152601a60248201527f4552524f523a204164647265737320426c61636b6c69737465640000000000006044820152606401610844565b600080516020612dcb833981519152547fe38b16c806f019542b2d4bf356bb4ba2ea4b7eb450b8fbff2584f6084c4978f1546001600160a01b03168115806124255750836001600160a01b0316816001600160a01b0316145b806124415750846001600160a01b0316816001600160a01b0316145b8061245357506001600160a01b038516155b8061246557506001600160a01b038416155b15612471575050505050565b6000670de0b6b3a7640000600080516020612dcb833981519152546124969086612c3f565b6124a09190612c1d565b90506124ad8683836110ba565b505050505050565b604080516001600160a01b0383166020808301919091527ffbf1c7065455eb4486649b8540f24ef2dd4ebedf2aa423f0039d17c2c75dea1582840152825180830384018152606090920190925280519101206000612514826001612c05565b9050610d9f828261253a866001600160a01b031660009081526065602052604090205490565b6125ed565b6113237f286a9db37a0f8ddcbcee127c9f4f56031230f49cb46786f87e166d552e11f67e7ffcaa8bb100d3c5b627eac0369cc1d2778dbeffa2993d08f039fb27795729e9a561253a60675490565b6109588282611c0d565b60006125b1600080516020612d4b83398151915284610da4565b806125cf57506125cf600080516020612d4b83398151915285610da4565b80610e495750610e49600080516020612d4b83398151915283610da4565b6000612605600080516020612e128339815191525490565b9050806126118561262b565b10156109cb57612621848261265b565b6109cb838361265b565b80546000908061263e5750600092915050565b61264d83612075600184612c5e565b549392505050565b50919050565b8154600183600061266c8385612c05565b9091555082905061267d848361209e565b55505050565b82805461268f90612cb8565b90600052602060002090601f0160209004810192826126b157600085556126f7565b82601f106126ca57805160ff19168380011785556126f7565b828001600101855582156126f7579182015b828111156126f75782518255916020019190600101906126dc565b50612703929150612707565b5090565b5b808211156127035760008155600101612708565b600067ffffffffffffffff8084111561273757612737612d34565b604051601f8501601f19908116603f0116810190828211818310171561275f5761275f612d34565b8160405280935085815286868601111561277857600080fd5b858560208301376000602087830101525050509392505050565b80356001600160a01b03811681146127a957600080fd5b919050565b600082601f8301126127bf57600080fd5b6108608383356020850161271c565b6000602082840312156127e057600080fd5b61086082612792565b600080604083850312156127fc57600080fd5b61280583612792565b915061281360208401612792565b90509250929050565b60008060006060848603121561283157600080fd5b61283a84612792565b925061284860208501612792565b9150604084013590509250925092565b6000806040838503121561286b57600080fd5b61287483612792565b9150602083013567ffffffffffffffff81111561289057600080fd5b8301601f810185136128a157600080fd5b6128b08582356020840161271c565b9150509250929050565b600080604083850312156128cd57600080fd5b6128d683612792565b946020939093013593505050565b600080602083850312156128f757600080fd5b823567ffffffffffffffff8082111561290f57600080fd5b818501915085601f83011261292357600080fd5b81358181111561293257600080fd5b8660208260051b850101111561294757600080fd5b60209290920196919550909350505050565b60006020828403121561296b57600080fd5b5035919050565b6000806040838503121561298557600080fd5b8235915061281360208401612792565b6000602082840312156129a757600080fd5b81356001600160e01b03198116811461086057600080fd5b60008060008060008060c087890312156129d857600080fd5b863567ffffffffffffffff808211156129f057600080fd5b6129fc8a838b016127ae565b97506020890135915080821115612a1257600080fd5b50612a1f89828a016127ae565b955050604087013560ff81168114612a3657600080fd5b93506060870135925060808701359150612a5260a08801612792565b90509295509295509295565b60008251612a70818460208701612c75565b9190910192915050565b7f416363657373436f6e74726f6c3a206163636f756e7420000000000000000000815260008351612ab2816017850160208801612c75565b7001034b99036b4b9b9b4b733903937b6329607d1b6017918401918201528351612ae3816028840160208801612c75565b01602801949350505050565b6020815260008251806020840152612b0e816040850160208701612c75565b601f01601f19169190910160400192915050565b6020808252602c908201527f46756e6374696f6e206d7573742062652063616c6c6564207468726f7567682060408201526b19195b1959d85d1958d85b1b60a21b606082015260800190565b6020808252602c908201527f46756e6374696f6e206d7573742062652063616c6c6564207468726f7567682060408201526b6163746976652070726f787960a01b606082015260800190565b6020808252602b908201527f496e697469616c697a61626c653a20636f6e7472616374206973206e6f74206960408201526a6e697469616c697a696e6760a81b606082015260800190565b60008219821115612c1857612c18612d08565b500190565b600082612c3a57634e487b7160e01b600052601260045260246000fd5b500490565b6000816000190483118215151615612c5957612c59612d08565b500290565b600082821015612c7057612c70612d08565b500390565b60005b83811015612c90578181015183820152602001612c78565b838111156109cb5750506000910152565b600081612cb057612cb0612d08565b506000190190565b600181811c90821680612ccc57607f821691505b6020821081141561265557634e487b7160e01b600052602260045260246000fd5b6000600019821415612d0157612d01612d08565b5060010190565b634e487b7160e01b600052601160045260246000fd5b634e487b7160e01b600052603260045260246000fd5b634e487b7160e01b600052604160045260246000fdfe548c7f0307ab2a7ea894e5c7e8c5353cc750bb9385ee2e945f189a9a83daa8eda76ace73a908083d89af9ff88e5b4f7cadb3591a80631063f68b695fda726db571840dc4906352362b0cdaf79870196c8e42acafade72d5d5a6d59291253ceb1f988e4fb62b8e14f4820fed03192306ddf4d7dbfa215595ba1c6ba4b76b369ee253122b26cc2118faf5fcfc7761bd75fcfb5508f1f48d1a40db694aba32af5d0416464726573733a206c6f772d6c6576656c2064656c65676174652063616c6c206661696c65640d0a0ed3351c10a57d74a44b40c06e0946288e4e3816ac07bb89db2a755562e7a264697066735822122019eb6e5869346066f632d83fdf1caf010a846b44c21bb0d938c47ca2fa399cd564736f6c63430008060033",
  "linkReferences": {},
  "deployedLinkReferences": {}
}