{
  "_format": "hh-sol-artifact-1",
  "name": "BlacklistTxFeeTemplate",
  "initializer": "function initialize(string name_, string symbol_, uint8 decimals_, uint256 amount_, uint256 txFee, address txFeeBeneficiary)",
  "sourceName": "contracts/templates/BlacklistTxFeeTemplate.sol",
  "abi": [
    {
      "anonymous": false,
      "inputs": [
        {
          "indexed": false,
          "internalType": "address",
          "name": "previousAdmin",
          "type": "address"
        },
        {
          "indexed": false,
          "internalType": "address",
          "name": "newAdmin",
          "type": "address"
        }
      ],
      "name": "AdminChanged",
      "type": "event"
    },
    {
      "anonymous": false,
      "inputs": [
        {
          "indexed": true,
          "internalType": "address",
          "name": "owner",
          "type": "address"
        },
        {
          "indexed": true,
          "internalType": "address",
          "name": "spender",
          "type": "address"
        },
        {
          "indexed": false,
          "internalType": "uint256",
          "name": "value",
          "type": "uint256"
        }
      ],
      "name": "Approval",
      "type": "event"
    },
    {
      "anonymous": false,
      "inputs": [
        {
          "indexed": true,
          "internalType": "address",
          "name": "beacon",
          "type": "address"
        }
      ],
      "name": "BeaconUpgraded",
      "type": "event"
    },
    {
      "anonymous": false,
      "inputs": [
        {
          "indexed": true,
          "internalType": "bytes32",
          "name": "role",
          "type": "bytes32"
        },
        {
          "indexed": true,
          "internalType": "bytes32",
          "name": "previousAdminRole",
          "type": "bytes32"
        },
        {
          "indexed": true,
          "internalType": "bytes32",
          "name": "newAdminRole",
          "type": "bytes32"
        }
      ],
      "name": "RoleAdminChanged",
      "type": "event"
    },
    {
      "anonymous": false,
      "inputs": [
        {
          "indexed": true,
          "internalType": "bytes32",
          "name": "role",
          "type": "bytes32"
        },
        {
          "indexed": true,
          "internalType": "address",
          "name": "account",
          "type": "address"
        },
        {
          "indexed": true,
          "internalType": "address",
          "name": "sender",
          "type": "address"
        }
      ],
      "name": "RoleGranted",
      "type": "event"
    },
    {
      "anonymous": false,
      "inputs": [
        {
          "indexed": true,
          "internalType": "bytes32",
          "name": "role",
          "type": "bytes32"
        },
        {
          "indexed": true,
          "internalType": "address",
          "name": "account",
          "type": "address"
        },
        {
          "indexed": true,
          "internalType": "address",
          "name": "sender",
          "type": "address"
        }
      ],
      "name": "RoleRevoked",
      "type": "event"
    },
    {
      "anonymous": false,
      "inputs": [
        {
          "indexed": true,
          "internalType": "address",
          "name": "from",
          "type": "address"
        },
        {
          "indexed": true,
          "internalType": "address",
          "name": "to",
          "type": "address"
        },
        {
          "indexed": false,
          "internalType": "uint256",
          "name": "value",
          "type": "uint256"
        }
      ],
      "name": "Transfer",
      "type": "event"
    },
    {
      "anonymous": false,
      "inputs": [
        {
          "indexed": true,
          "internalType": "address",
          "name": "implementation",
          "type": "address"
        }
      ],
      "name": "Upgraded",
      "type": "event"
    },
    {
      "inputs": [],
      "name": "BLACKLISTED_ROLE",
      "outputs": [
        {
          "internalType": "bytes32",
          "name": "",
          "type": "bytes32"
        }
      ],
      "stateMutability": "view",
      "type": "function"
    },
    {
      "inputs": [],
      "name": "BLACKLIST_MANAGER_ROLE",
      "outputs": [
        {
          "internalType": "bytes32",
          "name": "",
          "type": "bytes32"
        }
      ],
      "stateMutability": "view",
      "type": "function"
    },
    {
      "inputs": [],
      "name": "DEFAULT_ADMIN_ROLE",
      "outputs": [
        {
          "internalType": "bytes32",
          "name": "",
          "type": "bytes32"
        }
      ],
      "stateMutability": "view",
      "type": "function"
    },
    {
      "inputs": [],
      "name": "GOVERNANCE_ROLE",
      "outputs": [
        {
          "internalType": "bytes32",
          "name": "",
          "type": "bytes32"
        }
      ],
      "stateMutability": "view",
      "type": "function"
    },
    {
      "inputs": [],
      "name": "UPGRADE_MANAGER_ROLE",
      "outputs": [
        {
          "internalType": "bytes32",
          "name": "",
          "type": "bytes32"
        }
      ],
      "stateMutability": "view",
      "type": "function"
    },
    {
      "inputs": [
        {
          "internalType": "address[]",
          "name": "addresses",
          "type": "address[]"
        }
      ],
      "name": "addAddressesToBlacklist",
      "outputs": [],
      "stateMutability": "nonpayable",
      "type": "function"
    },
    {
      "inputs": [
        {
          "internalType": "address",
          "name": "owner",
          "type": "address"
        },
        {
          "internalType": "address",
          "name": "spender",
          "type": "address"
        }
      ],
      "name": "allowance",
      "outputs": [
        {
          "internalType": "uint256",
          "name": "",
          "type": "uint256"
        }
      ],
      "stateMutability": "view",
      "type": "function"
    },
    {
      "inputs": [
        {
          "internalType": "address",
          "name": "spender",
          "type": "address"
        },
        {
          "internalType": "uint256",
          "name": "amount",
          "type": "uint256"
        }
      ],
      "name": "approve",
      "outputs": [
        {
          "internalType": "bool",
          "name": "",
          "type": "bool"
        }
      ],
      "stateMutability": "nonpayable",
      "type": "function"
    },
    {
      "inputs": [
        {
          "internalType": "address",
          "name": "account",
          "type": "address"
        }
      ],
      "name": "balanceOf",
      "outputs": [
        {
          "internalType": "uint256",
          "name": "",
          "type": "uint256"
        }
      ],
      "stateMutability": "view",
      "type": "function"
    },
    {
      "inputs": [
        {
          "internalType": "uint256",
          "name": "newTxFee",
          "type": "uint256"
        },
        {
          "internalType": "address",
          "name": "newTxBeneficiary",
          "type": "address"
        }
      ],
      "name": "changeTxFeeProperties",
      "outputs": [],
      "stateMutability": "nonpayable",
      "type": "function"
    },
    {
      "inputs": [],
      "name": "decimals",
      "outputs": [
        {
          "internalType": "uint8",
          "name": "",
          "type": "uint8"
        }
      ],
      "stateMutability": "view",
      "type": "function"
    },
    {
      "inputs": [
        {
          "internalType": "address",
          "name": "spender",
          "type": "address"
        },
        {
          "internalType": "uint256",
          "name": "subtractedValue",
          "type": "uint256"
        }
      ],
      "name": "decreaseAllowance",
      "outputs": [
        {
          "internalType": "bool",
          "name": "",
          "type": "bool"
        }
      ],
      "stateMutability": "nonpayable",
      "type": "function"
    },
    {
      "inputs": [],
      "name": "getImplementation",
      "outputs": [
        {
          "internalType": "address",
          "name": "",
          "type": "address"
        }
      ],
      "stateMutability": "view",
      "type": "function"
    },
    {
      "inputs": [
        {
          "internalType": "bytes32",
          "name": "role",
          "type": "bytes32"
        }
      ],
      "name": "getRoleAdmin",
      "outputs": [
        {
          "internalType": "bytes32",
          "name": "",
          "type": "bytes32"
        }
      ],
      "stateMutability": "view",
      "type": "function"
    },
    {
      "inputs": [
        {
          "internalType": "bytes32",
          "name": "role",
          "type": "bytes32"
        },
        {
          "internalType": "address",
          "name": "account",
          "type": "address"
        }
      ],
      "name": "grantRole",
      "outputs": [],
      "stateMutability": "nonpayable",
      "type": "function"
    },
    {
      "inputs": [
        {
          "internalType": "bytes32",
          "name": "role",
          "type": "bytes32"
        },
        {
          "internalType": "address",
          "name": "account",
          "type": "address"
        }
      ],
      "name": "hasRole",
      "outputs": [
        {
          "internalType": "bool",
          "name": "",
          "type": "bool"
        }
      ],
      "stateMutability": "view",
      "type": "function"
    },
    {
      "inputs": [
        {
          "internalType": "address",
          "name": "spender",
          "type": "address"
        },
        {
          "internalType": "uint256",
          "name": "addedValue",
          "type": "uint256"
        }
      ],
      "name": "increaseAllowance",
      "outputs": [
        {
          "internalType": "bool",
          "name": "",
          "type": "bool"
        }
      ],
      "stateMutability": "nonpayable",
      "type": "function"
    },
    {
      "inputs": [
        {
          "internalType": "string",
          "name": "name_",
          "type": "string"
        },
        {
          "internalType": "string",
          "name": "symbol_",
          "type": "string"
        },
        {
          "internalType": "uint8",
          "name": "decimals_",
          "type": "uint8"
        },
        {
          "internalType": "uint256",
          "name": "amount_",
          "type": "uint256"
        },
        {
          "internalType": "uint256",
          "name": "txFee",
          "type": "uint256"
        },
        {
          "internalType": "address",
          "name": "txFeeBeneficiary",
          "type": "address"
        }
      ],
      "name": "initialize",
      "outputs": [],
      "stateMutability": "nonpayable",
      "type": "function"
    },
    {
      "inputs": [],
      "name": "name",
      "outputs": [
        {
          "internalType": "string",
          "name": "",
          "type": "string"
        }
      ],
      "stateMutability": "view",
      "type": "function"
    },
    {
      "inputs": [
        {
          "internalType": "address",
          "name": "implementationAddress",
          "type": "address"
        }
      ],
      "name": "proposeNewImplementation",
      "outputs": [],
      "stateMutability": "nonpayable",
      "type": "function"
    },
    {
      "inputs": [
        {
          "internalType": "address[]",
          "name": "addresses",
          "type": "address[]"
        }
      ],
      "name": "removeAddressesFromBlacklist",
      "outputs": [],
      "stateMutability": "nonpayable",
      "type": "function"
    },
    {
      "inputs": [
        {
          "internalType": "bytes32",
          "name": "role",
          "type": "bytes32"
        },
        {
          "internalType": "address",
          "name": "account",
          "type": "address"
        }
      ],
      "name": "renounceRole",
      "outputs": [],
      "stateMutability": "nonpayable",
      "type": "function"
    },
    {
      "inputs": [
        {
          "internalType": "bytes32",
          "name": "role",
          "type": "bytes32"
        },
        {
          "internalType": "address",
          "name": "account",
          "type": "address"
        }
      ],
      "name": "revokeRole",
      "outputs": [],
      "stateMutability": "nonpayable",
      "type": "function"
    },
    {
      "inputs": [
        {
          "internalType": "bytes4",
          "name": "interfaceId",
          "type": "bytes4"
        }
      ],
      "name": "supportsInterface",
      "outputs": [
        {
          "internalType": "bool",
          "name": "",
          "type": "bool"
        }
      ],
      "stateMutability": "view",
      "type": "function"
    },
    {
      "inputs": [],
      "name": "symbol",
      "outputs": [
        {
          "internalType": "string",
          "name": "",
          "type": "string"
        }
      ],
      "stateMutability": "view",
      "type": "function"
    },
    {
      "inputs": [],
      "name": "totalSupply",
      "outputs": [
        {
          "internalType": "uint256",
          "name": "",
          "type": "uint256"
        }
      ],
      "stateMutability": "view",
      "type": "function"
    },
    {
      "inputs": [
        {
          "internalType": "address",
          "name": "recipient",
          "type": "address"
        },
        {
          "internalType": "uint256",
          "name": "amount",
          "type": "uint256"
        }
      ],
      "name": "transfer",
      "outputs": [
        {
          "internalType": "bool",
          "name": "",
          "type": "bool"
        }
      ],
      "stateMutability": "nonpayable",
      "type": "function"
    },
    {
      "inputs": [
        {
          "internalType": "address",
          "name": "sender",
          "type": "address"
        },
        {
          "internalType": "address",
          "name": "recipient",
          "type": "address"
        },
        {
          "internalType": "uint256",
          "name": "amount",
          "type": "uint256"
        }
      ],
      "name": "transferFrom",
      "outputs": [
        {
          "internalType": "bool",
          "name": "",
          "type": "bool"
        }
      ],
      "stateMutability": "nonpayable",
      "type": "function"
    },
    {
      "inputs": [
        {
          "internalType": "address",
          "name": "newImplementation",
          "type": "address"
        }
      ],
      "name": "upgradeTo",
      "outputs": [],
      "stateMutability": "nonpayable",
      "type": "function"
    },
    {
      "inputs": [
        {
          "internalType": "address",
          "name": "newImplementation",
          "type": "address"
        },
        {
          "internalType": "bytes",
          "name": "data",
          "type": "bytes"
        }
      ],
      "name": "upgradeToAndCall",
      "outputs": [],
      "stateMutability": "payable",
      "type": "function"
    }
  ],
  "bytecode": "0x60a06040523060601b60805234801561001757600080fd5b5060805160601c61266961004b60003960008181610971015281816109b101528181610ab30152610af301526126696000f3fe6080604052600436106101cd5760003560e01c806347757fb6116100f7578063a217fddf11610095578063ca73419e11610064578063ca73419e14610543578063d547741f14610563578063dd62ed3e14610583578063f36c8f5c146105c957600080fd5b8063a217fddf146104c1578063a457c2d7146104d6578063a9059cbb146104f6578063aaf10f421461051657600080fd5b806362b199c5116100d157806362b199c51461043457806370a082311461045657806391d148541461048c57806395d89b41146104ac57600080fd5b806347757fb6146103e15780634f1ef286146104015780635120561a1461041457600080fd5b80632f2ff15d1161016f5780633659cfe61161013e5780633659cfe61461035d578063395093511461037d578063410b24241461039d57806343ffa64e146103bf57600080fd5b80632f2ff15d146102da578063313ce567146102fa578063322587941461031d57806336568abe1461033d57600080fd5b806318160ddd116101ab57806318160ddd1461024957806323b872dd14610268578063248a9ca3146102885780632cd77a5a146102b857600080fd5b806301ffc9a7146101d257806306fdde0314610207578063095ea7b314610229575b600080fd5b3480156101de57600080fd5b506101f26101ed3660046121bc565b6105eb565b60405190151581526020015b60405180910390f35b34801561021357600080fd5b5061021c610622565b6040516101fe9190612322565b34801561023557600080fd5b506101f26102443660046120e1565b6106b4565b34801561025557600080fd5b506067545b6040519081526020016101fe565b34801561027457600080fd5b506101f2610283366004611fe3565b6106ca565b34801561029457600080fd5b5061025a6102a3366004612180565b600090815260fb602052604090206001015490565b3480156102c457600080fd5b506102d86102d33660046121e6565b61077b565b005b3480156102e657600080fd5b506102d86102f5366004612199565b6108c5565b34801561030657600080fd5b506101605460405160ff90911681526020016101fe565b34801561032957600080fd5b506102d861033836600461210b565b6108dd565b34801561034957600080fd5b506102d8610358366004612199565b610952565b34801561036957600080fd5b506102d8610378366004611f95565b610966565b34801561038957600080fd5b506101f26103983660046120e1565b610a2f565b3480156103a957600080fd5b5061025a6000805160206125cd83398151915281565b3480156103cb57600080fd5b5061025a60008051602061258d83398151915281565b3480156103ed57600080fd5b506102d86103fc366004611f95565b610a6b565b6102d861040f36600461201f565b610aa8565b34801561042057600080fd5b506102d861042f366004612199565b610b5e565b34801561044057600080fd5b5061025a60008051602061256d83398151915281565b34801561046257600080fd5b5061025a610471366004611f95565b6001600160a01b031660009081526065602052604090205490565b34801561049857600080fd5b506101f26104a7366004612199565b610bd3565b3480156104b857600080fd5b5061021c610bfe565b3480156104cd57600080fd5b5061025a600081565b3480156104e257600080fd5b506101f26104f13660046120e1565b610c0d565b34801561050257600080fd5b506101f26105113660046120e1565b610ca6565b34801561052257600080fd5b5061052b610cb3565b6040516001600160a01b0390911681526020016101fe565b34801561054f57600080fd5b506102d861055e36600461210b565b610cc2565b34801561056f57600080fd5b506102d861057e366004612199565b610d31565b34801561058f57600080fd5b5061025a61059e366004611fb0565b6001600160a01b03918216600090815260666020908152604080832093909416825291909152205490565b3480156105d557600080fd5b5061025a6000805160206125ad83398151915281565b60006001600160e01b03198216637965db0b60e01b148061061c57506301ffc9a760e01b6001600160e01b03198316145b92915050565b606060688054610631906124d4565b80601f016020809104026020016040519081016040528092919081815260200182805461065d906124d4565b80156106aa5780601f1061067f576101008083540402835291602001916106aa565b820191906000526020600020905b81548152906001019060200180831161068d57829003601f168201915b5050505050905090565b60006106c1338484610d5c565b50600192915050565b60006106d7848484610e80565b6001600160a01b0384166000908152606660209081526040808320338452909152902054828110156107615760405162461bcd60e51b815260206004820152602860248201527f45524332303a207472616e7366657220616d6f756e74206578636565647320616044820152676c6c6f77616e636560c01b60648201526084015b60405180910390fd5b61076e8533858403610d5c565b60019150505b9392505050565b600054610100900460ff166107965760005460ff161561079a565b303b155b6107fd5760405162461bcd60e51b815260206004820152602e60248201527f496e697469616c697a61626c653a20636f6e747261637420697320616c72656160448201526d191e481a5b9a5d1a585b1a5e995960921b6064820152608401610758565b600054610100900460ff1615801561081f576000805461ffff19166101011790555b61089689898080601f01602080910402602001604051908101604052809392919081815260200183838082843760009201919091525050604080516020601f8d018190048102820181019092528b815292508b91508a90819084018382808284376000920191909152508a92508991506110599050565b61089e61109c565b6108a883836110eb565b80156108ba576000805461ff00191690555b505050505050505050565b6108cf828261117a565b6108d98282611209565b5050565b6000805160206125cd8339815191526108f6813361122f565b60005b8281101561094c5761093a60008051602061256d83398151915285858481811061092557610925612540565b905060200201602081019061057e9190611f95565b806109448161250f565b9150506108f9565b50505050565b61095c8282611293565b6108d982826112fb565b306001600160a01b037f00000000000000000000000000000000000000000000000000000000000000001614156109af5760405162461bcd60e51b815260040161075890612355565b7f00000000000000000000000000000000000000000000000000000000000000006001600160a01b03166109e1611375565b6001600160a01b031614610a075760405162461bcd60e51b8152600401610758906123a1565b610a10816113a3565b60408051600080825260208201909252610a2c91839190611425565b50565b3360008181526066602090815260408083206001600160a01b038716845290915281205490916106c1918590610a66908690612438565b610d5c565b6000805160206125ad833981519152610a84813361122f565b5061012d80546001600160a01b0319166001600160a01b0392909216919091179055565b306001600160a01b037f0000000000000000000000000000000000000000000000000000000000000000161415610af15760405162461bcd60e51b815260040161075890612355565b7f00000000000000000000000000000000000000000000000000000000000000006001600160a01b0316610b23611375565b6001600160a01b031614610b495760405162461bcd60e51b8152600401610758906123a1565b610b52826113a3565b6108d982826001611425565b6000610b6a813361122f565b6001600160a01b038216610b7d57600080fd5b826000805160206125ed83398151915255817fe38b16c806f019542b2d4bf356bb4ba2ea4b7eb450b8fbff2584f6084c4978f180546001600160a01b0319166001600160a01b0392909216919091179055505050565b600091825260fb602090815260408084206001600160a01b0393909316845291905290205460ff1690565b606060698054610631906124d4565b3360009081526066602090815260408083206001600160a01b038616845290915281205482811015610c8f5760405162461bcd60e51b815260206004820152602560248201527f45524332303a2064656372656173656420616c6c6f77616e63652062656c6f77604482015264207a65726f60d81b6064820152608401610758565b610c9c3385858403610d5c565b5060019392505050565b60006106c1338484610e80565b6000610cbd611375565b905090565b6000805160206125cd833981519152610cdb813361122f565b60005b8281101561094c57610d1f60008051602061256d833981519152858584818110610d0a57610d0a612540565b90506020020160208101906102f59190611f95565b80610d298161250f565b915050610cde565b600082815260fb6020526040902060010154610d4d813361122f565b610d578383611570565b505050565b6001600160a01b038316610dbe5760405162461bcd60e51b8152602060048201526024808201527f45524332303a20617070726f76652066726f6d20746865207a65726f206164646044820152637265737360e01b6064820152608401610758565b6001600160a01b038216610e1f5760405162461bcd60e51b815260206004820152602260248201527f45524332303a20617070726f766520746f20746865207a65726f206164647265604482015261737360f01b6064820152608401610758565b6001600160a01b0383811660008181526066602090815260408083209487168084529482529182902085905590518481527f8c5be1e5ebec7d5bd14f71427d1e84f3dd0314c0f7b2291e5b200ac8c7c3b925910160405180910390a3505050565b6001600160a01b038316610ee45760405162461bcd60e51b815260206004820152602560248201527f45524332303a207472616e736665722066726f6d20746865207a65726f206164604482015264647265737360d81b6064820152608401610758565b6001600160a01b038216610f465760405162461bcd60e51b815260206004820152602360248201527f45524332303a207472616e7366657220746f20746865207a65726f206164647260448201526265737360e81b6064820152608401610758565b610f518383836115d7565b6001600160a01b03831660009081526065602052604090205481811015610fc95760405162461bcd60e51b815260206004820152602660248201527f45524332303a207472616e7366657220616d6f756e7420657863656564732062604482015265616c616e636560d01b6064820152608401610758565b6001600160a01b03808516600090815260656020526040808220858503905591851681529081208054849290611000908490612438565b92505081905550826001600160a01b0316846001600160a01b03167fddf252ad1be2c89b69c2b068fc378daa952ba7f163c4a11628f55a4df523b3ef8460405161104c91815260200190565b60405180910390a361094c565b600054610100900460ff166110805760405162461bcd60e51b8152600401610758906123ed565b6110886115e2565b6110928484611639565b61094c8282611687565b600054610100900460ff166110c35760405162461bcd60e51b8152600401610758906123ed565b6110e960008051602061256d8339815191526000805160206125cd8339815191526116c8565b565b600054610100900460ff166111125760405162461bcd60e51b8152600401610758906123ed565b6001600160a01b03811661112557600080fd5b816000805160206125ed83398151915255807fe38b16c806f019542b2d4bf356bb4ba2ea4b7eb450b8fbff2584f6084c4978f180546001600160a01b0319166001600160a01b03929092169190911790555050565b6000805160206125cd833981519152821480611194575081155b156108d9576111b160008051602061256d83398151915282610bd3565b156108d95760405162461bcd60e51b815260206004820152602260248201527f63616e206e6f742061737369676e20726f6c6520746f20626c61636b6c697374604482015261195960f21b6064820152608401610758565b600082815260fb6020526040902060010154611225813361122f565b610d578383611713565b6112398282610bd3565b6108d957611251816001600160a01b03166014611799565b61125c836020611799565b60405160200161126d9291906122ad565b60408051601f198184030181529082905262461bcd60e51b825261075891600401612322565b60008051602061256d8339815191528214156108d95760405162461bcd60e51b815260206004820152602160248201527f43616e206e6f742072656e6f756e636520626c61636b6c697374656420726f6c6044820152606560f81b6064820152608401610758565b6001600160a01b038116331461136b5760405162461bcd60e51b815260206004820152602f60248201527f416363657373436f6e74726f6c3a2063616e206f6e6c792072656e6f756e636560448201526e103937b632b9903337b91039b2b63360891b6064820152608401610758565b6108d98282611570565b7f360894a13ba1a3210667c828492db98dca3e2076cc3735a920a3ca505d382bbc546001600160a01b031690565b6113bb6000805160206125ad83398151915233610bd3565b806113d957506113d960008051602061258d83398151915233610bd3565b610a2c5760405162461bcd60e51b815260206004820152601d60248201527f4552524f523a2041646472657373206e6f7420617574686f72697a65640000006044820152606401610758565b600061142f611375565b905061143a84611935565b6000835111806114475750815b156114585761145684846119da565b505b7f4910fdfa16fed3260ed0e7147f7cc6da11a60208b5b9406d12a635614ffd9143805460ff1661156957805460ff191660011781556040516001600160a01b03831660248201526114d790869060440160408051601f198184030181529190526020810180516001600160e01b0316631b2ce7f360e11b1790526119da565b50805460ff191681556114e8611375565b6001600160a01b0316826001600160a01b0316146115605760405162461bcd60e51b815260206004820152602f60248201527f45524331393637557067726164653a207570677261646520627265616b73206660448201526e75727468657220757067726164657360881b6064820152608401610758565b61156985611ac5565b5050505050565b61157a8282610bd3565b156108d957600082815260fb602090815260408083206001600160a01b0385168085529252808320805460ff1916905551339285917ff6391f5c32d9c69d2a47ea670b442974b53935d1edc7fd64eb21e047a839171b9190a45050565b610d57838383611b05565b600054610100900460ff166116095760405162461bcd60e51b8152600401610758906123ed565b611611611b1b565b611619611b1b565b611621611b1b565b611629611b1b565b611631611b1b565b6110e9611b42565b600054610100900460ff166116605760405162461bcd60e51b8152600401610758906123ed565b8151611673906068906020850190611e97565b508051610d57906069906020840190611e97565b600054610100900460ff166116ae5760405162461bcd60e51b8152600401610758906123ed565b610160805460ff191660ff84161790556108d93382611bca565b600082815260fb6020526040808220600101805490849055905190918391839186917fbd79b86ffe0ab8e8776151514217cd7cacd52c909f66475c3af44e129f0b00ff9190a4505050565b61171d8282610bd3565b6108d957600082815260fb602090815260408083206001600160a01b03851684529091529020805460ff191660011790556117553390565b6001600160a01b0316816001600160a01b0316837f2f8788117e7eff1d82e926ec794901d17c78024a50270940304540a733656f0d60405160405180910390a45050565b606060006117a8836002612472565b6117b3906002612438565b67ffffffffffffffff8111156117cb576117cb612556565b6040519080825280601f01601f1916602001820160405280156117f5576020820181803683370190505b509050600360fc1b8160008151811061181057611810612540565b60200101906001600160f81b031916908160001a905350600f60fb1b8160018151811061183f5761183f612540565b60200101906001600160f81b031916908160001a9053506000611863846002612472565b61186e906001612438565b90505b60018111156118e6576f181899199a1a9b1b9c1cb0b131b232b360811b85600f16601081106118a2576118a2612540565b1a60f81b8282815181106118b8576118b8612540565b60200101906001600160f81b031916908160001a90535060049490941c936118df816124bd565b9050611871565b5083156107745760405162461bcd60e51b815260206004820181905260248201527f537472696e67733a20686578206c656e67746820696e73756666696369656e746044820152606401610758565b803b6119995760405162461bcd60e51b815260206004820152602d60248201527f455243313936373a206e657720696d706c656d656e746174696f6e206973206e60448201526c1bdd08184818dbdb9d1c9858dd609a1b6064820152608401610758565b7f360894a13ba1a3210667c828492db98dca3e2076cc3735a920a3ca505d382bbc80546001600160a01b0319166001600160a01b0392909216919091179055565b6060823b611a395760405162461bcd60e51b815260206004820152602660248201527f416464726573733a2064656c65676174652063616c6c20746f206e6f6e2d636f6044820152651b9d1c9858dd60d21b6064820152608401610758565b600080846001600160a01b031684604051611a549190612291565b600060405180830381855af49150503d8060008114611a8f576040519150601f19603f3d011682016040523d82523d6000602084013e611a94565b606091505b5091509150611abc828260405180606001604052806027815260200161260d60279139611cb5565b95945050505050565b611ace81611935565b6040516001600160a01b038216907fbc7cd75a20ee27fd9adebab32041f755214dbc6bffa90cc0225b39da2e5c2d3b90600090a250565b611b10838383611cee565b610d57838383611d46565b600054610100900460ff166110e95760405162461bcd60e51b8152600401610758906123ed565b600054610100900460ff16611b695760405162461bcd60e51b8152600401610758906123ed565b611b74600033611e2f565b611b8c6000805160206125ad83398151915233611e2f565b611ba460008051602061258d83398151915233611e2f565b6110e960008051602061258d8339815191526000805160206125ad8339815191526116c8565b6001600160a01b038216611c205760405162461bcd60e51b815260206004820152601f60248201527f45524332303a206d696e7420746f20746865207a65726f2061646472657373006044820152606401610758565b611c2c600083836115d7565b8060676000828254611c3e9190612438565b90915550506001600160a01b03821660009081526065602052604081208054839290611c6b908490612438565b90915550506040518181526001600160a01b038316906000907fddf252ad1be2c89b69c2b068fc378daa952ba7f163c4a11628f55a4df523b3ef9060200160405180910390a35050565b60608315611cc4575081610774565b825115611cd45782518084602001fd5b8160405162461bcd60e51b81526004016107589190612322565b611cf9338484611e39565b15610d575760405162461bcd60e51b815260206004820152601a60248201527f4552524f523a204164647265737320426c61636b6c69737465640000000000006044820152606401610758565b6000805160206125ed833981519152547fe38b16c806f019542b2d4bf356bb4ba2ea4b7eb450b8fbff2584f6084c4978f1546001600160a01b0316811580611d9f5750836001600160a01b0316816001600160a01b0316145b80611dbb5750846001600160a01b0316816001600160a01b0316145b80611dcd57506001600160a01b038516155b80611ddf57506001600160a01b038416155b15611deb575050505050565b6000670de0b6b3a76400006000805160206125ed83398151915254611e109086612472565b611e1a9190612450565b9050611e27868383610e80565b505050505050565b6108d98282611713565b6000611e5360008051602061256d83398151915284610bd3565b80611e715750611e7160008051602061256d83398151915285610bd3565b80611e8f5750611e8f60008051602061256d83398151915283610bd3565b949350505050565b828054611ea3906124d4565b90600052602060002090601f016020900481019282611ec55760008555611f0b565b82601f10611ede57805160ff1916838001178555611f0b565b82800160010185558215611f0b579182015b82811115611f0b578251825591602001919060010190611ef0565b50611f17929150611f1b565b5090565b5b80821115611f175760008155600101611f1c565b80356001600160a01b0381168114611f4757600080fd5b919050565b60008083601f840112611f5e57600080fd5b50813567ffffffffffffffff811115611f7657600080fd5b602083019150836020828501011115611f8e57600080fd5b9250929050565b600060208284031215611fa757600080fd5b61077482611f30565b60008060408385031215611fc357600080fd5b611fcc83611f30565b9150611fda60208401611f30565b90509250929050565b600080600060608486031215611ff857600080fd5b61200184611f30565b925061200f60208501611f30565b9150604084013590509250925092565b6000806040838503121561203257600080fd5b61203b83611f30565b9150602083013567ffffffffffffffff8082111561205857600080fd5b818501915085601f83011261206c57600080fd5b81358181111561207e5761207e612556565b604051601f8201601f19908116603f011681019083821181831017156120a6576120a6612556565b816040528281528860208487010111156120bf57600080fd5b8260208601602083013760006020848301015280955050505050509250929050565b600080604083850312156120f457600080fd5b6120fd83611f30565b946020939093013593505050565b6000806020838503121561211e57600080fd5b823567ffffffffffffffff8082111561213657600080fd5b818501915085601f83011261214a57600080fd5b81358181111561215957600080fd5b8660208260051b850101111561216e57600080fd5b60209290920196919550909350505050565b60006020828403121561219257600080fd5b5035919050565b600080604083850312156121ac57600080fd5b82359150611fda60208401611f30565b6000602082840312156121ce57600080fd5b81356001600160e01b03198116811461077457600080fd5b60008060008060008060008060c0898b03121561220257600080fd5b883567ffffffffffffffff8082111561221a57600080fd5b6122268c838d01611f4c565b909a50985060208b013591508082111561223f57600080fd5b5061224c8b828c01611f4c565b909750955050604089013560ff8116811461226657600080fd5b9350606089013592506080890135915061228260a08a01611f30565b90509295985092959890939650565b600082516122a3818460208701612491565b9190910192915050565b7f416363657373436f6e74726f6c3a206163636f756e74200000000000000000008152600083516122e5816017850160208801612491565b7001034b99036b4b9b9b4b733903937b6329607d1b6017918401918201528351612316816028840160208801612491565b01602801949350505050565b6020815260008251806020840152612341816040850160208701612491565b601f01601f19169190910160400192915050565b6020808252602c908201527f46756e6374696f6e206d7573742062652063616c6c6564207468726f7567682060408201526b19195b1959d85d1958d85b1b60a21b606082015260800190565b6020808252602c908201527f46756e6374696f6e206d7573742062652063616c6c6564207468726f7567682060408201526b6163746976652070726f787960a01b606082015260800190565b6020808252602b908201527f496e697469616c697a61626c653a20636f6e7472616374206973206e6f74206960408201526a6e697469616c697a696e6760a81b606082015260800190565b6000821982111561244b5761244b61252a565b500190565b60008261246d57634e487b7160e01b600052601260045260246000fd5b500490565b600081600019048311821515161561248c5761248c61252a565b500290565b60005b838110156124ac578181015183820152602001612494565b8381111561094c5750506000910152565b6000816124cc576124cc61252a565b506000190190565b600181811c908216806124e857607f821691505b6020821081141561250957634e487b7160e01b600052602260045260246000fd5b50919050565b60006000198214156125235761252361252a565b5060010190565b634e487b7160e01b600052601160045260246000fd5b634e487b7160e01b600052603260045260246000fd5b634e487b7160e01b600052604160045260246000fdfe548c7f0307ab2a7ea894e5c7e8c5353cc750bb9385ee2e945f189a9a83daa8eda76ace73a908083d89af9ff88e5b4f7cadb3591a80631063f68b695fda726db571840dc4906352362b0cdaf79870196c8e42acafade72d5d5a6d59291253ceb1f988e4fb62b8e14f4820fed03192306ddf4d7dbfa215595ba1c6ba4b76b369ee253122b26cc2118faf5fcfc7761bd75fcfb5508f1f48d1a40db694aba32af5d0416464726573733a206c6f772d6c6576656c2064656c65676174652063616c6c206661696c6564a2646970667358221220dece5c74455cfa477e0d542b530e17be0cd9a2df14391c1a6d41bb957d14e37164736f6c63430008060033",
  "linkReferences": {},
  "deployedLinkReferences": {}
}