{
  "_format": "hh-sol-artifact-1",
  "name": "BlacklistBurnTxFeeWhiteListTemplate",
  "initializer": "function initialize(string name_, string symbol_, uint8 decimals_, uint256 amount_, uint256 txFee, address txFeeBeneficiary)",
  "sourceName": "contracts/templates/BlacklistBurnTxFeeWhiteListTemplate.sol",
  "abi": [
    {
      "anonymous": false,
      "inputs": [
        {
          "indexed": false,
          "internalType": "address",
          "name": "previousAdmin",
          "type": "address"
        },
        {
          "indexed": false,
          "internalType": "address",
          "name": "newAdmin",
          "type": "address"
        }
      ],
      "name": "AdminChanged",
      "type": "event"
    },
    {
      "anonymous": false,
      "inputs": [
        {
          "indexed": true,
          "internalType": "address",
          "name": "owner",
          "type": "address"
        },
        {
          "indexed": true,
          "internalType": "address",
          "name": "spender",
          "type": "address"
        },
        {
          "indexed": false,
          "internalType": "uint256",
          "name": "value",
          "type": "uint256"
        }
      ],
      "name": "Approval",
      "type": "event"
    },
    {
      "anonymous": false,
      "inputs": [
        {
          "indexed": true,
          "internalType": "address",
          "name": "beacon",
          "type": "address"
        }
      ],
      "name": "BeaconUpgraded",
      "type": "event"
    },
    {
      "anonymous": false,
      "inputs": [
        {
          "indexed": false,
          "internalType": "address",
          "name": "account",
          "type": "address"
        }
      ],
      "name": "Paused",
      "type": "event"
    },
    {
      "anonymous": false,
      "inputs": [
        {
          "indexed": true,
          "internalType": "bytes32",
          "name": "role",
          "type": "bytes32"
        },
        {
          "indexed": true,
          "internalType": "bytes32",
          "name": "previousAdminRole",
          "type": "bytes32"
        },
        {
          "indexed": true,
          "internalType": "bytes32",
          "name": "newAdminRole",
          "type": "bytes32"
        }
      ],
      "name": "RoleAdminChanged",
      "type": "event"
    },
    {
      "anonymous": false,
      "inputs": [
        {
          "indexed": true,
          "internalType": "bytes32",
          "name": "role",
          "type": "bytes32"
        },
        {
          "indexed": true,
          "internalType": "address",
          "name": "account",
          "type": "address"
        },
        {
          "indexed": true,
          "internalType": "address",
          "name": "sender",
          "type": "address"
        }
      ],
      "name": "RoleGranted",
      "type": "event"
    },
    {
      "anonymous": false,
      "inputs": [
        {
          "indexed": true,
          "internalType": "bytes32",
          "name": "role",
          "type": "bytes32"
        },
        {
          "indexed": true,
          "internalType": "address",
          "name": "account",
          "type": "address"
        },
        {
          "indexed": true,
          "internalType": "address",
          "name": "sender",
          "type": "address"
        }
      ],
      "name": "RoleRevoked",
      "type": "event"
    },
    {
      "anonymous": false,
      "inputs": [
        {
          "indexed": true,
          "internalType": "address",
          "name": "from",
          "type": "address"
        },
        {
          "indexed": true,
          "internalType": "address",
          "name": "to",
          "type": "address"
        },
        {
          "indexed": false,
          "internalType": "uint256",
          "name": "value",
          "type": "uint256"
        }
      ],
      "name": "Transfer",
      "type": "event"
    },
    {
      "anonymous": false,
      "inputs": [
        {
          "indexed": false,
          "internalType": "address",
          "name": "account",
          "type": "address"
        }
      ],
      "name": "Unpaused",
      "type": "event"
    },
    {
      "anonymous": false,
      "inputs": [
        {
          "indexed": true,
          "internalType": "address",
          "name": "implementation",
          "type": "address"
        }
      ],
      "name": "Upgraded",
      "type": "event"
    },
    {
      "inputs": [],
      "name": "BLACKLISTED_ROLE",
      "outputs": [
        {
          "internalType": "bytes32",
          "name": "",
          "type": "bytes32"
        }
      ],
      "stateMutability": "view",
      "type": "function"
    },
    {
      "inputs": [],
      "name": "BLACKLIST_MANAGER_ROLE",
      "outputs": [
        {
          "internalType": "bytes32",
          "name": "",
          "type": "bytes32"
        }
      ],
      "stateMutability": "view",
      "type": "function"
    },
    {
      "inputs": [],
      "name": "DEFAULT_ADMIN_ROLE",
      "outputs": [
        {
          "internalType": "bytes32",
          "name": "",
          "type": "bytes32"
        }
      ],
      "stateMutability": "view",
      "type": "function"
    },
    {
      "inputs": [],
      "name": "GOVERNANCE_ROLE",
      "outputs": [
        {
          "internalType": "bytes32",
          "name": "",
          "type": "bytes32"
        }
      ],
      "stateMutability": "view",
      "type": "function"
    },
    {
      "inputs": [],
      "name": "PAUSE_MANAGER_ROLE",
      "outputs": [
        {
          "internalType": "bytes32",
          "name": "",
          "type": "bytes32"
        }
      ],
      "stateMutability": "view",
      "type": "function"
    },
    {
      "inputs": [],
      "name": "UPGRADE_MANAGER_ROLE",
      "outputs": [
        {
          "internalType": "bytes32",
          "name": "",
          "type": "bytes32"
        }
      ],
      "stateMutability": "view",
      "type": "function"
    },
    {
      "inputs": [],
      "name": "WHITELISTED_FROM_ROLE",
      "outputs": [
        {
          "internalType": "bytes32",
          "name": "",
          "type": "bytes32"
        }
      ],
      "stateMutability": "view",
      "type": "function"
    },
    {
      "inputs": [],
      "name": "WHITELISTED_SENDER_ROLE",
      "outputs": [
        {
          "internalType": "bytes32",
          "name": "",
          "type": "bytes32"
        }
      ],
      "stateMutability": "view",
      "type": "function"
    },
    {
      "inputs": [
        {
          "internalType": "address[]",
          "name": "addresses",
          "type": "address[]"
        }
      ],
      "name": "addAddressesToBlacklist",
      "outputs": [],
      "stateMutability": "nonpayable",
      "type": "function"
    },
    {
      "inputs": [
        {
          "internalType": "address[]",
          "name": "addresses",
          "type": "address[]"
        }
      ],
      "name": "addAddressesToWhitelistFrom",
      "outputs": [],
      "stateMutability": "nonpayable",
      "type": "function"
    },
    {
      "inputs": [
        {
          "internalType": "address[]",
          "name": "addresses",
          "type": "address[]"
        }
      ],
      "name": "addAddressesToWhitelistSender",
      "outputs": [],
      "stateMutability": "nonpayable",
      "type": "function"
    },
    {
      "inputs": [
        {
          "internalType": "address",
          "name": "owner",
          "type": "address"
        },
        {
          "internalType": "address",
          "name": "spender",
          "type": "address"
        }
      ],
      "name": "allowance",
      "outputs": [
        {
          "internalType": "uint256",
          "name": "",
          "type": "uint256"
        }
      ],
      "stateMutability": "view",
      "type": "function"
    },
    {
      "inputs": [
        {
          "internalType": "address",
          "name": "spender",
          "type": "address"
        },
        {
          "internalType": "uint256",
          "name": "amount",
          "type": "uint256"
        }
      ],
      "name": "approve",
      "outputs": [
        {
          "internalType": "bool",
          "name": "",
          "type": "bool"
        }
      ],
      "stateMutability": "nonpayable",
      "type": "function"
    },
    {
      "inputs": [
        {
          "internalType": "address",
          "name": "account",
          "type": "address"
        }
      ],
      "name": "balanceOf",
      "outputs": [
        {
          "internalType": "uint256",
          "name": "",
          "type": "uint256"
        }
      ],
      "stateMutability": "view",
      "type": "function"
    },
    {
      "inputs": [
        {
          "internalType": "uint256",
          "name": "amount",
          "type": "uint256"
        }
      ],
      "name": "burn",
      "outputs": [],
      "stateMutability": "nonpayable",
      "type": "function"
    },
    {
      "inputs": [
        {
          "internalType": "address",
          "name": "account",
          "type": "address"
        },
        {
          "internalType": "uint256",
          "name": "amount",
          "type": "uint256"
        }
      ],
      "name": "burnFrom",
      "outputs": [],
      "stateMutability": "nonpayable",
      "type": "function"
    },
    {
      "inputs": [
        {
          "internalType": "uint256",
          "name": "newTxFee",
          "type": "uint256"
        },
        {
          "internalType": "address",
          "name": "newTxBeneficiary",
          "type": "address"
        }
      ],
      "name": "changeTxFeeProperties",
      "outputs": [],
      "stateMutability": "nonpayable",
      "type": "function"
    },
    {
      "inputs": [],
      "name": "decimals",
      "outputs": [
        {
          "internalType": "uint8",
          "name": "",
          "type": "uint8"
        }
      ],
      "stateMutability": "view",
      "type": "function"
    },
    {
      "inputs": [
        {
          "internalType": "address",
          "name": "spender",
          "type": "address"
        },
        {
          "internalType": "uint256",
          "name": "subtractedValue",
          "type": "uint256"
        }
      ],
      "name": "decreaseAllowance",
      "outputs": [
        {
          "internalType": "bool",
          "name": "",
          "type": "bool"
        }
      ],
      "stateMutability": "nonpayable",
      "type": "function"
    },
    {
      "inputs": [],
      "name": "getImplementation",
      "outputs": [
        {
          "internalType": "address",
          "name": "",
          "type": "address"
        }
      ],
      "stateMutability": "view",
      "type": "function"
    },
    {
      "inputs": [
        {
          "internalType": "bytes32",
          "name": "role",
          "type": "bytes32"
        }
      ],
      "name": "getRoleAdmin",
      "outputs": [
        {
          "internalType": "bytes32",
          "name": "",
          "type": "bytes32"
        }
      ],
      "stateMutability": "view",
      "type": "function"
    },
    {
      "inputs": [
        {
          "internalType": "bytes32",
          "name": "role",
          "type": "bytes32"
        },
        {
          "internalType": "address",
          "name": "account",
          "type": "address"
        }
      ],
      "name": "grantRole",
      "outputs": [],
      "stateMutability": "nonpayable",
      "type": "function"
    },
    {
      "inputs": [
        {
          "internalType": "bytes32",
          "name": "role",
          "type": "bytes32"
        },
        {
          "internalType": "address",
          "name": "account",
          "type": "address"
        }
      ],
      "name": "hasRole",
      "outputs": [
        {
          "internalType": "bool",
          "name": "",
          "type": "bool"
        }
      ],
      "stateMutability": "view",
      "type": "function"
    },
    {
      "inputs": [
        {
          "internalType": "address",
          "name": "spender",
          "type": "address"
        },
        {
          "internalType": "uint256",
          "name": "addedValue",
          "type": "uint256"
        }
      ],
      "name": "increaseAllowance",
      "outputs": [
        {
          "internalType": "bool",
          "name": "",
          "type": "bool"
        }
      ],
      "stateMutability": "nonpayable",
      "type": "function"
    },
    {
      "inputs": [
        {
          "internalType": "string",
          "name": "name_",
          "type": "string"
        },
        {
          "internalType": "string",
          "name": "symbol_",
          "type": "string"
        },
        {
          "internalType": "uint8",
          "name": "decimals_",
          "type": "uint8"
        },
        {
          "internalType": "uint256",
          "name": "amount_",
          "type": "uint256"
        },
        {
          "internalType": "uint256",
          "name": "txFee",
          "type": "uint256"
        },
        {
          "internalType": "address",
          "name": "txFeeBeneficiary",
          "type": "address"
        }
      ],
      "name": "initialize",
      "outputs": [],
      "stateMutability": "nonpayable",
      "type": "function"
    },
    {
      "inputs": [],
      "name": "name",
      "outputs": [
        {
          "internalType": "string",
          "name": "",
          "type": "string"
        }
      ],
      "stateMutability": "view",
      "type": "function"
    },
    {
      "inputs": [],
      "name": "pause",
      "outputs": [],
      "stateMutability": "nonpayable",
      "type": "function"
    },
    {
      "inputs": [],
      "name": "paused",
      "outputs": [
        {
          "internalType": "bool",
          "name": "",
          "type": "bool"
        }
      ],
      "stateMutability": "view",
      "type": "function"
    },
    {
      "inputs": [
        {
          "internalType": "address",
          "name": "implementationAddress",
          "type": "address"
        }
      ],
      "name": "proposeNewImplementation",
      "outputs": [],
      "stateMutability": "nonpayable",
      "type": "function"
    },
    {
      "inputs": [
        {
          "internalType": "address[]",
          "name": "addresses",
          "type": "address[]"
        }
      ],
      "name": "removeAddressesFromBlacklist",
      "outputs": [],
      "stateMutability": "nonpayable",
      "type": "function"
    },
    {
      "inputs": [
        {
          "internalType": "address[]",
          "name": "addresses",
          "type": "address[]"
        }
      ],
      "name": "removeAddressesFromWhitelistFrom",
      "outputs": [],
      "stateMutability": "nonpayable",
      "type": "function"
    },
    {
      "inputs": [
        {
          "internalType": "address[]",
          "name": "addresses",
          "type": "address[]"
        }
      ],
      "name": "removeAddressesFromWhitelistSender",
      "outputs": [],
      "stateMutability": "nonpayable",
      "type": "function"
    },
    {
      "inputs": [
        {
          "internalType": "bytes32",
          "name": "role",
          "type": "bytes32"
        },
        {
          "internalType": "address",
          "name": "account",
          "type": "address"
        }
      ],
      "name": "renounceRole",
      "outputs": [],
      "stateMutability": "nonpayable",
      "type": "function"
    },
    {
      "inputs": [
        {
          "internalType": "bytes32",
          "name": "role",
          "type": "bytes32"
        },
        {
          "internalType": "address",
          "name": "account",
          "type": "address"
        }
      ],
      "name": "revokeRole",
      "outputs": [],
      "stateMutability": "nonpayable",
      "type": "function"
    },
    {
      "inputs": [
        {
          "internalType": "bytes4",
          "name": "interfaceId",
          "type": "bytes4"
        }
      ],
      "name": "supportsInterface",
      "outputs": [
        {
          "internalType": "bool",
          "name": "",
          "type": "bool"
        }
      ],
      "stateMutability": "view",
      "type": "function"
    },
    {
      "inputs": [],
      "name": "symbol",
      "outputs": [
        {
          "internalType": "string",
          "name": "",
          "type": "string"
        }
      ],
      "stateMutability": "view",
      "type": "function"
    },
    {
      "inputs": [],
      "name": "totalSupply",
      "outputs": [
        {
          "internalType": "uint256",
          "name": "",
          "type": "uint256"
        }
      ],
      "stateMutability": "view",
      "type": "function"
    },
    {
      "inputs": [
        {
          "internalType": "address",
          "name": "recipient",
          "type": "address"
        },
        {
          "internalType": "uint256",
          "name": "amount",
          "type": "uint256"
        }
      ],
      "name": "transfer",
      "outputs": [
        {
          "internalType": "bool",
          "name": "",
          "type": "bool"
        }
      ],
      "stateMutability": "nonpayable",
      "type": "function"
    },
    {
      "inputs": [
        {
          "internalType": "address",
          "name": "sender",
          "type": "address"
        },
        {
          "internalType": "address",
          "name": "recipient",
          "type": "address"
        },
        {
          "internalType": "uint256",
          "name": "amount",
          "type": "uint256"
        }
      ],
      "name": "transferFrom",
      "outputs": [
        {
          "internalType": "bool",
          "name": "",
          "type": "bool"
        }
      ],
      "stateMutability": "nonpayable",
      "type": "function"
    },
    {
      "inputs": [],
      "name": "unpause",
      "outputs": [],
      "stateMutability": "nonpayable",
      "type": "function"
    },
    {
      "inputs": [
        {
          "internalType": "address",
          "name": "newImplementation",
          "type": "address"
        }
      ],
      "name": "upgradeTo",
      "outputs": [],
      "stateMutability": "nonpayable",
      "type": "function"
    },
    {
      "inputs": [
        {
          "internalType": "address",
          "name": "newImplementation",
          "type": "address"
        },
        {
          "internalType": "bytes",
          "name": "data",
          "type": "bytes"
        }
      ],
      "name": "upgradeToAndCall",
      "outputs": [],
      "stateMutability": "payable",
      "type": "function"
    }
  ],
  "bytecode": "0x60a06040523060601b60805234801561001757600080fd5b5060805160601c612f1d61004b60003960008181610b7a01528181610bba01528181610ce70152610d270152612f1d6000f3fe6080604052600436106102515760003560e01c806362b199c511610139578063a457c2d7116100b6578063ca73419e1161007a578063ca73419e146106fa578063d547741f1461071a578063d84f91e81461073a578063dd62ed3e1461075c578063f36c8f5c146107a2578063f834c502146107c457600080fd5b8063a457c2d71461064b578063a9059cbb1461066b578063aa74a34a1461068b578063aaf10f42146106ad578063c233f3b7146106da57600080fd5b806379cc6790116100fd57806379cc6790146105cc5780638456cb59146105ec57806391d148541461060157806395d89b4114610621578063a217fddf1461063657600080fd5b806362b199c514610512578063685ed81a146105345780636e79a1c01461055457806370a0823114610574578063731ce8fc146105aa57600080fd5b806336568abe116101d257806342966c681161019657806342966c681461045857806343ffa64e1461047857806347757fb61461049a5780634f1ef286146104ba5780635120561a146104cd5780635c975abb146104ed57600080fd5b806336568abe146103c15780633659cfe6146103e157806339509351146104015780633f4ba83a14610421578063410b24241461043657600080fd5b8063248a9ca311610219578063248a9ca31461030c5780632cd77a5a1461033c5780632f2ff15d1461035e578063313ce5671461037e57806332258794146103a157600080fd5b806301ffc9a71461025657806306fdde031461028b578063095ea7b3146102ad57806318160ddd146102cd57806323b872dd146102ec575b600080fd5b34801561026257600080fd5b506102766102713660046129d9565b6107e4565b60405190151581526020015b60405180910390f35b34801561029757600080fd5b506102a061081b565b6040516102829190612b3f565b3480156102b957600080fd5b506102766102c83660046128fe565b6108ad565b3480156102d957600080fd5b506067545b604051908152602001610282565b3480156102f857600080fd5b50610276610307366004612800565b6108c3565b34801561031857600080fd5b506102de61032736600461299d565b600090815260fb602052604090206001015490565b34801561034857600080fd5b5061035c610357366004612a03565b610974565b005b34801561036a57600080fd5b5061035c6103793660046129b6565b610ace565b34801561038a57600080fd5b506101605460405160ff9091168152602001610282565b3480156103ad57600080fd5b5061035c6103bc366004612928565b610ae6565b3480156103cd57600080fd5b5061035c6103dc3660046129b6565b610b5b565b3480156103ed57600080fd5b5061035c6103fc3660046127b2565b610b6f565b34801561040d57600080fd5b5061027661041c3660046128fe565b610c38565b34801561042d57600080fd5b5061035c610c74565b34801561044257600080fd5b506102de600080516020612e2183398151915281565b34801561046457600080fd5b5061035c61047336600461299d565b610c95565b34801561048457600080fd5b506102de600080516020612de183398151915281565b3480156104a657600080fd5b5061035c6104b53660046127b2565b610c9f565b61035c6104c836600461283c565b610cdc565b3480156104d957600080fd5b5061035c6104e83660046129b6565b610d92565b3480156104f957600080fd5b50600080516020612ea88339815191525460ff16610276565b34801561051e57600080fd5b506102de600080516020612dc183398151915281565b34801561054057600080fd5b5061035c61054f366004612928565b610e07565b34801561056057600080fd5b5061035c61056f366004612928565b610e76565b34801561058057600080fd5b506102de61058f3660046127b2565b6001600160a01b031660009081526065602052604090205490565b3480156105b657600080fd5b506102de600080516020612ec883398151915281565b3480156105d857600080fd5b5061035c6105e73660046128fe565b610ed0565b3480156105f857600080fd5b5061035c610f56565b34801561060d57600080fd5b5061027661061c3660046129b6565b610f77565b34801561062d57600080fd5b506102a0610fa2565b34801561064257600080fd5b506102de600081565b34801561065757600080fd5b506102766106663660046128fe565b610fb1565b34801561067757600080fd5b506102766106863660046128fe565b61104a565b34801561069757600080fd5b506102de600080516020612da183398151915281565b3480156106b957600080fd5b506106c2611057565b6040516001600160a01b039091168152602001610282565b3480156106e657600080fd5b5061035c6106f5366004612928565b611066565b34801561070657600080fd5b5061035c610715366004612928565b6110c0565b34801561072657600080fd5b5061035c6107353660046129b6565b61111a565b34801561074657600080fd5b506102de600080516020612e8883398151915281565b34801561076857600080fd5b506102de6107773660046127cd565b6001600160a01b03918216600090815260666020908152604080832093909416825291909152205490565b3480156107ae57600080fd5b506102de600080516020612e0183398151915281565b3480156107d057600080fd5b5061035c6107df366004612928565b611140565b60006001600160e01b03198216637965db0b60e01b148061081557506301ffc9a760e01b6001600160e01b03198316145b92915050565b60606068805461082a90612d08565b80601f016020809104026020016040519081016040528092919081815260200182805461085690612d08565b80156108a35780601f10610878576101008083540402835291602001916108a3565b820191906000526020600020905b81548152906001019060200180831161088657829003601f168201915b5050505050905090565b60006108ba33848461119a565b50600192915050565b60006108d08484846112be565b6001600160a01b03841660009081526066602090815260408083203384529091529020548281101561095a5760405162461bcd60e51b815260206004820152602860248201527f45524332303a207472616e7366657220616d6f756e74206578636565647320616044820152676c6c6f77616e636560c01b60648201526084015b60405180910390fd5b610967853385840361119a565b60019150505b9392505050565b600054610100900460ff1661098f5760005460ff1615610993565b303b155b6109f65760405162461bcd60e51b815260206004820152602e60248201527f496e697469616c697a61626c653a20636f6e747261637420697320616c72656160448201526d191e481a5b9a5d1a585b1a5e995960921b6064820152608401610951565b600054610100900460ff16158015610a18576000805461ffff19166101011790555b610a8f89898080601f01602080910402602001604051908101604052809392919081815260200183838082843760009201919091525050604080516020601f8d018190048102820181019092528b815292508b91508a90819084018382808284376000920191909152508a92508991506114979050565b610a976114da565b610a9f611503565b610aa7611550565b610ab183836115c3565b8015610ac3576000805461ff00191690555b505050505050505050565b610ad88282611652565b610ae282826116e1565b5050565b600080516020612e21833981519152610aff8133611707565b60005b82811015610b5557610b43600080516020612dc1833981519152858584818110610b2e57610b2e612d74565b905060200201602081019061073591906127b2565b80610b4d81612d43565b915050610b02565b50505050565b610b65828261176b565b610ae282826117d3565b306001600160a01b037f0000000000000000000000000000000000000000000000000000000000000000161415610bb85760405162461bcd60e51b815260040161095190612b72565b7f00000000000000000000000000000000000000000000000000000000000000006001600160a01b0316610bea61184d565b6001600160a01b031614610c105760405162461bcd60e51b815260040161095190612bbe565b610c198161187b565b60408051600080825260208201909252610c35918391906118fd565b50565b3360008181526066602090815260408083206001600160a01b038716845290915281205490916108ba918590610c6f908690612c55565b61119a565b600080516020612e88833981519152610c8d8133611707565b610c35611a48565b610c353382611af5565b600080516020612e01833981519152610cb88133611707565b5061012d80546001600160a01b0319166001600160a01b0392909216919091179055565b306001600160a01b037f0000000000000000000000000000000000000000000000000000000000000000161415610d255760405162461bcd60e51b815260040161095190612b72565b7f00000000000000000000000000000000000000000000000000000000000000006001600160a01b0316610d5761184d565b6001600160a01b031614610d7d5760405162461bcd60e51b815260040161095190612bbe565b610d868261187b565b610ae2828260016118fd565b6000610d9e8133611707565b6001600160a01b038216610db157600080fd5b82600080516020612e4183398151915255817fe38b16c806f019542b2d4bf356bb4ba2ea4b7eb450b8fbff2584f6084c4978f180546001600160a01b0319166001600160a01b0392909216919091179055505050565b600080516020612e88833981519152610e208133611707565b60005b82811015610b5557610e64600080516020612da1833981519152858584818110610e4f57610e4f612d74565b905060200201602081019061037991906127b2565b80610e6e81612d43565b915050610e23565b600080516020612e88833981519152610e8f8133611707565b60005b82811015610b5557610ebe600080516020612ec8833981519152858584818110610b2e57610b2e612d74565b80610ec881612d43565b915050610e92565b6000610edc8333610777565b905081811015610f3a5760405162461bcd60e51b8152602060048201526024808201527f45524332303a206275726e20616d6f756e74206578636565647320616c6c6f77604482015263616e636560e01b6064820152608401610951565b610f47833384840361119a565b610f518383611af5565b505050565b600080516020612e88833981519152610f6f8133611707565b610c35611c4f565b600091825260fb602090815260408084206001600160a01b0393909316845291905290205460ff1690565b60606069805461082a90612d08565b3360009081526066602090815260408083206001600160a01b0386168452909152812054828110156110335760405162461bcd60e51b815260206004820152602560248201527f45524332303a2064656372656173656420616c6c6f77616e63652062656c6f77604482015264207a65726f60d81b6064820152608401610951565b611040338585840361119a565b5060019392505050565b60006108ba3384846112be565b600061106161184d565b905090565b600080516020612e8883398151915261107f8133611707565b60005b82811015610b55576110ae600080516020612da1833981519152858584818110610b2e57610b2e612d74565b806110b881612d43565b915050611082565b600080516020612e218339815191526110d98133611707565b60005b82811015610b5557611108600080516020612dc1833981519152858584818110610e4f57610e4f612d74565b8061111281612d43565b9150506110dc565b600082815260fb60205260409020600101546111368133611707565b610f518383611ce3565b600080516020612e888339815191526111598133611707565b60005b82811015610b5557611188600080516020612ec8833981519152858584818110610e4f57610e4f612d74565b8061119281612d43565b91505061115c565b6001600160a01b0383166111fc5760405162461bcd60e51b8152602060048201526024808201527f45524332303a20617070726f76652066726f6d20746865207a65726f206164646044820152637265737360e01b6064820152608401610951565b6001600160a01b03821661125d5760405162461bcd60e51b815260206004820152602260248201527f45524332303a20617070726f766520746f20746865207a65726f206164647265604482015261737360f01b6064820152608401610951565b6001600160a01b0383811660008181526066602090815260408083209487168084529482529182902085905590518481527f8c5be1e5ebec7d5bd14f71427d1e84f3dd0314c0f7b2291e5b200ac8c7c3b925910160405180910390a3505050565b6001600160a01b0383166113225760405162461bcd60e51b815260206004820152602560248201527f45524332303a207472616e736665722066726f6d20746865207a65726f206164604482015264647265737360d81b6064820152608401610951565b6001600160a01b0382166113845760405162461bcd60e51b815260206004820152602360248201527f45524332303a207472616e7366657220746f20746865207a65726f206164647260448201526265737360e81b6064820152608401610951565b61138f838383611d4a565b6001600160a01b038316600090815260656020526040902054818110156114075760405162461bcd60e51b815260206004820152602660248201527f45524332303a207472616e7366657220616d6f756e7420657863656564732062604482015265616c616e636560d01b6064820152608401610951565b6001600160a01b0380851660009081526065602052604080822085850390559185168152908120805484929061143e908490612c55565b92505081905550826001600160a01b0316846001600160a01b03167fddf252ad1be2c89b69c2b068fc378daa952ba7f163c4a11628f55a4df523b3ef8460405161148a91815260200190565b60405180910390a3610b55565b600054610100900460ff166114be5760405162461bcd60e51b815260040161095190612c0a565b6114c6611d55565b6114d08484611dac565b610b558282611dfa565b600054610100900460ff166115015760405162461bcd60e51b815260040161095190612c0a565b565b600054610100900460ff1661152a5760405162461bcd60e51b815260040161095190612c0a565b611501600080516020612dc1833981519152600080516020612e21833981519152611e3b565b600054610100900460ff166115775760405162461bcd60e51b815260040161095190612c0a565b61159d600080516020612ec8833981519152600080516020612e88833981519152611e3b565b611501600080516020612da1833981519152600080516020612e88833981519152611e3b565b600054610100900460ff166115ea5760405162461bcd60e51b815260040161095190612c0a565b6001600160a01b0381166115fd57600080fd5b81600080516020612e4183398151915255807fe38b16c806f019542b2d4bf356bb4ba2ea4b7eb450b8fbff2584f6084c4978f180546001600160a01b0319166001600160a01b03929092169190911790555050565b600080516020612e2183398151915282148061166c575081155b15610ae257611689600080516020612dc183398151915282610f77565b15610ae25760405162461bcd60e51b815260206004820152602260248201527f63616e206e6f742061737369676e20726f6c6520746f20626c61636b6c697374604482015261195960f21b6064820152608401610951565b600082815260fb60205260409020600101546116fd8133611707565b610f518383611e86565b6117118282610f77565b610ae257611729816001600160a01b03166014611f0c565b611734836020611f0c565b604051602001611745929190612aca565b60408051601f198184030181529082905262461bcd60e51b825261095191600401612b3f565b600080516020612dc1833981519152821415610ae25760405162461bcd60e51b815260206004820152602160248201527f43616e206e6f742072656e6f756e636520626c61636b6c697374656420726f6c6044820152606560f81b6064820152608401610951565b6001600160a01b03811633146118435760405162461bcd60e51b815260206004820152602f60248201527f416363657373436f6e74726f6c3a2063616e206f6e6c792072656e6f756e636560448201526e103937b632b9903337b91039b2b63360891b6064820152608401610951565b610ae28282611ce3565b7f360894a13ba1a3210667c828492db98dca3e2076cc3735a920a3ca505d382bbc546001600160a01b031690565b611893600080516020612e0183398151915233610f77565b806118b157506118b1600080516020612de183398151915233610f77565b610c355760405162461bcd60e51b815260206004820152601d60248201527f4552524f523a2041646472657373206e6f7420617574686f72697a65640000006044820152606401610951565b600061190761184d565b9050611912846120a8565b60008351118061191f5750815b156119305761192e848461214d565b505b7f4910fdfa16fed3260ed0e7147f7cc6da11a60208b5b9406d12a635614ffd9143805460ff16611a4157805460ff191660011781556040516001600160a01b03831660248201526119af90869060440160408051601f198184030181529190526020810180516001600160e01b0316631b2ce7f360e11b17905261214d565b50805460ff191681556119c061184d565b6001600160a01b0316826001600160a01b031614611a385760405162461bcd60e51b815260206004820152602f60248201527f45524331393637557067726164653a207570677261646520627265616b73206660448201526e75727468657220757067726164657360881b6064820152608401610951565b611a4185612238565b5050505050565b600080516020612ea88339815191525460ff16611a9e5760405162461bcd60e51b815260206004820152601460248201527314185d5cd8589b194e881b9bdd081c185d5cd95960621b6044820152606401610951565b600080516020612ea8833981519152805460ff191690557f5db9ee0a495bf2e6ff9c91a7834c1ba4fdd244a5e8aa4e537bd38aeae4b073aa335b6040516001600160a01b03909116815260200160405180910390a1565b6001600160a01b038216611b555760405162461bcd60e51b815260206004820152602160248201527f45524332303a206275726e2066726f6d20746865207a65726f206164647265736044820152607360f81b6064820152608401610951565b611b6182600083611d4a565b6001600160a01b03821660009081526065602052604090205481811015611bd55760405162461bcd60e51b815260206004820152602260248201527f45524332303a206275726e20616d6f756e7420657863656564732062616c616e604482015261636560f01b6064820152608401610951565b6001600160a01b0383166000908152606560205260408120838303905560678054849290611c04908490612cae565b90915550506040518281526000906001600160a01b038516907fddf252ad1be2c89b69c2b068fc378daa952ba7f163c4a11628f55a4df523b3ef9060200160405180910390a3505050565b600080516020612ea88339815191525460ff1615611ca25760405162461bcd60e51b815260206004820152601060248201526f14185d5cd8589b194e881c185d5cd95960821b6044820152606401610951565b600080516020612ea8833981519152805460ff191660011790557f62e78cea01bee320cd4e420270b5ea74000d11b0c9f74754ebdbfc544b05a25833611ad8565b611ced8282610f77565b15610ae257600082815260fb602090815260408083206001600160a01b0385168085529252808320805460ff1916905551339285917ff6391f5c32d9c69d2a47ea670b442974b53935d1edc7fd64eb21e047a839171b9190a45050565b610f51838383612278565b600054610100900460ff16611d7c5760405162461bcd60e51b815260040161095190612c0a565b611d846114da565b611d8c6114da565b611d946114da565b611d9c6114da565b611da46114da565b6115016122a4565b600054610100900460ff16611dd35760405162461bcd60e51b815260040161095190612c0a565b8151611de69060689060208501906126b4565b508051610f519060699060208401906126b4565b600054610100900460ff16611e215760405162461bcd60e51b815260040161095190612c0a565b610160805460ff191660ff8416179055610ae2338261232c565b600082815260fb6020526040808220600101805490849055905190918391839186917fbd79b86ffe0ab8e8776151514217cd7cacd52c909f66475c3af44e129f0b00ff9190a4505050565b611e908282610f77565b610ae257600082815260fb602090815260408083206001600160a01b03851684529091529020805460ff19166001179055611ec83390565b6001600160a01b0316816001600160a01b0316837f2f8788117e7eff1d82e926ec794901d17c78024a50270940304540a733656f0d60405160405180910390a45050565b60606000611f1b836002612c8f565b611f26906002612c55565b67ffffffffffffffff811115611f3e57611f3e612d8a565b6040519080825280601f01601f191660200182016040528015611f68576020820181803683370190505b509050600360fc1b81600081518110611f8357611f83612d74565b60200101906001600160f81b031916908160001a905350600f60fb1b81600181518110611fb257611fb2612d74565b60200101906001600160f81b031916908160001a9053506000611fd6846002612c8f565b611fe1906001612c55565b90505b6001811115612059576f181899199a1a9b1b9c1cb0b131b232b360811b85600f166010811061201557612015612d74565b1a60f81b82828151811061202b5761202b612d74565b60200101906001600160f81b031916908160001a90535060049490941c9361205281612cf1565b9050611fe4565b50831561096d5760405162461bcd60e51b815260206004820181905260248201527f537472696e67733a20686578206c656e67746820696e73756666696369656e746044820152606401610951565b803b61210c5760405162461bcd60e51b815260206004820152602d60248201527f455243313936373a206e657720696d706c656d656e746174696f6e206973206e60448201526c1bdd08184818dbdb9d1c9858dd609a1b6064820152608401610951565b7f360894a13ba1a3210667c828492db98dca3e2076cc3735a920a3ca505d382bbc80546001600160a01b0319166001600160a01b0392909216919091179055565b6060823b6121ac5760405162461bcd60e51b815260206004820152602660248201527f416464726573733a2064656c65676174652063616c6c20746f206e6f6e2d636f6044820152651b9d1c9858dd60d21b6064820152608401610951565b600080846001600160a01b0316846040516121c79190612aae565b600060405180830381855af49150503d8060008114612202576040519150601f19603f3d011682016040523d82523d6000602084013e612207565b606091505b509150915061222f8282604051806060016040528060278152602001612e6160279139612417565b95945050505050565b612241816120a8565b6040516001600160a01b038216907fbc7cd75a20ee27fd9adebab32041f755214dbc6bffa90cc0225b39da2e5c2d3b90600090a250565b612283838383612450565b61228e8383836124a8565b61229983838361252b565b610f518383836124a8565b600054610100900460ff166122cb5760405162461bcd60e51b815260040161095190612c0a565b6122d6600033612614565b6122ee600080516020612e0183398151915233612614565b612306600080516020612de183398151915233612614565b611501600080516020612de1833981519152600080516020612e01833981519152611e3b565b6001600160a01b0382166123825760405162461bcd60e51b815260206004820152601f60248201527f45524332303a206d696e7420746f20746865207a65726f2061646472657373006044820152606401610951565b61238e60008383611d4a565b80606760008282546123a09190612c55565b90915550506001600160a01b038216600090815260656020526040812080548392906123cd908490612c55565b90915550506040518181526001600160a01b038316906000907fddf252ad1be2c89b69c2b068fc378daa952ba7f163c4a11628f55a4df523b3ef9060200160405180910390a35050565b6060831561242657508161096d565b8251156124365782518084602001fd5b8160405162461bcd60e51b81526004016109519190612b3f565b61245b33848461261e565b15610f515760405162461bcd60e51b815260206004820152601a60248201527f4552524f523a204164647265737320426c61636b6c69737465640000000000006044820152606401610951565b600080516020612ea88339815191525460ff1615806124cc57506124cc833361267c565b610f515760405162461bcd60e51b815260206004820152602a60248201527f45524332305061757361626c653a20746f6b656e207472616e736665722077686044820152691a5b19481c185d5cd95960b21b6064820152608401610951565b600080516020612e41833981519152547fe38b16c806f019542b2d4bf356bb4ba2ea4b7eb450b8fbff2584f6084c4978f1546001600160a01b03168115806125845750836001600160a01b0316816001600160a01b0316145b806125a05750846001600160a01b0316816001600160a01b0316145b806125b257506001600160a01b038516155b806125c457506001600160a01b038416155b156125d0575050505050565b6000670de0b6b3a7640000600080516020612e41833981519152546125f59086612c8f565b6125ff9190612c6d565b905061260c8683836112be565b505050505050565b610ae28282611e86565b6000612638600080516020612dc183398151915284610f77565b806126565750612656600080516020612dc183398151915285610f77565b806126745750612674600080516020612dc183398151915283610f77565b949350505050565b6000612696600080516020612ec883398151915284610f77565b8061096d575061096d600080516020612da183398151915283610f77565b8280546126c090612d08565b90600052602060002090601f0160209004810192826126e25760008555612728565b82601f106126fb57805160ff1916838001178555612728565b82800160010185558215612728579182015b8281111561272857825182559160200191906001019061270d565b50612734929150612738565b5090565b5b808211156127345760008155600101612739565b80356001600160a01b038116811461276457600080fd5b919050565b60008083601f84011261277b57600080fd5b50813567ffffffffffffffff81111561279357600080fd5b6020830191508360208285010111156127ab57600080fd5b9250929050565b6000602082840312156127c457600080fd5b61096d8261274d565b600080604083850312156127e057600080fd5b6127e98361274d565b91506127f76020840161274d565b90509250929050565b60008060006060848603121561281557600080fd5b61281e8461274d565b925061282c6020850161274d565b9150604084013590509250925092565b6000806040838503121561284f57600080fd5b6128588361274d565b9150602083013567ffffffffffffffff8082111561287557600080fd5b818501915085601f83011261288957600080fd5b81358181111561289b5761289b612d8a565b604051601f8201601f19908116603f011681019083821181831017156128c3576128c3612d8a565b816040528281528860208487010111156128dc57600080fd5b8260208601602083013760006020848301015280955050505050509250929050565b6000806040838503121561291157600080fd5b61291a8361274d565b946020939093013593505050565b6000806020838503121561293b57600080fd5b823567ffffffffffffffff8082111561295357600080fd5b818501915085601f83011261296757600080fd5b81358181111561297657600080fd5b8660208260051b850101111561298b57600080fd5b60209290920196919550909350505050565b6000602082840312156129af57600080fd5b5035919050565b600080604083850312156129c957600080fd5b823591506127f76020840161274d565b6000602082840312156129eb57600080fd5b81356001600160e01b03198116811461096d57600080fd5b60008060008060008060008060c0898b031215612a1f57600080fd5b883567ffffffffffffffff80821115612a3757600080fd5b612a438c838d01612769565b909a50985060208b0135915080821115612a5c57600080fd5b50612a698b828c01612769565b909750955050604089013560ff81168114612a8357600080fd5b93506060890135925060808901359150612a9f60a08a0161274d565b90509295985092959890939650565b60008251612ac0818460208701612cc5565b9190910192915050565b7f416363657373436f6e74726f6c3a206163636f756e7420000000000000000000815260008351612b02816017850160208801612cc5565b7001034b99036b4b9b9b4b733903937b6329607d1b6017918401918201528351612b33816028840160208801612cc5565b01602801949350505050565b6020815260008251806020840152612b5e816040850160208701612cc5565b601f01601f19169190910160400192915050565b6020808252602c908201527f46756e6374696f6e206d7573742062652063616c6c6564207468726f7567682060408201526b19195b1959d85d1958d85b1b60a21b606082015260800190565b6020808252602c908201527f46756e6374696f6e206d7573742062652063616c6c6564207468726f7567682060408201526b6163746976652070726f787960a01b606082015260800190565b6020808252602b908201527f496e697469616c697a61626c653a20636f6e7472616374206973206e6f74206960408201526a6e697469616c697a696e6760a81b606082015260800190565b60008219821115612c6857612c68612d5e565b500190565b600082612c8a57634e487b7160e01b600052601260045260246000fd5b500490565b6000816000190483118215151615612ca957612ca9612d5e565b500290565b600082821015612cc057612cc0612d5e565b500390565b60005b83811015612ce0578181015183820152602001612cc8565b83811115610b555750506000910152565b600081612d0057612d00612d5e565b506000190190565b600181811c90821680612d1c57607f821691505b60208210811415612d3d57634e487b7160e01b600052602260045260246000fd5b50919050565b6000600019821415612d5757612d57612d5e565b5060010190565b634e487b7160e01b600052601160045260246000fd5b634e487b7160e01b600052603260045260246000fd5b634e487b7160e01b600052604160045260246000fdfee1ac655ab58995133a870d1fd307ddc1d624c8ad919a09e67867a7a1483e439a548c7f0307ab2a7ea894e5c7e8c5353cc750bb9385ee2e945f189a9a83daa8eda76ace73a908083d89af9ff88e5b4f7cadb3591a80631063f68b695fda726db571840dc4906352362b0cdaf79870196c8e42acafade72d5d5a6d59291253ceb1f988e4fb62b8e14f4820fed03192306ddf4d7dbfa215595ba1c6ba4b76b369ee253122b26cc2118faf5fcfc7761bd75fcfb5508f1f48d1a40db694aba32af5d0416464726573733a206c6f772d6c6576656c2064656c65676174652063616c6c206661696c6564356a809dfdea9198dd76fb76bf6d403ecf13ea675eb89e1eda2db2c4a4676a26ad6a6591fa308fe948065665239402780db8ed4a8c4e4e16c4d066bcaa05efc2ce108bcc5e0f50fe603649304cbbbd94de794a404db82d884c0afc9ba9328e61a2646970667358221220dbc816e8d8d2c7df88ab5598ad8a6dc1242dd80d6f8c7e0bb6239ca03e801a5964736f6c63430008060033",
  "linkReferences": {},
  "deployedLinkReferences": {}
}