{
  "_format": "hh-sol-artifact-1",
  "name": "BlacklistSnapshotWhiteListTemplate",
  "initializer": "function initialize(string name_, string symbol_, uint8 decimals_, uint256 amount_)",
  "sourceName": "contracts/templates/BlacklistSnapshotWhiteListTemplate.sol",
  "abi": [
    {
      "anonymous": false,
      "inputs": [
        {
          "indexed": false,
          "internalType": "address",
          "name": "previousAdmin",
          "type": "address"
        },
        {
          "indexed": false,
          "internalType": "address",
          "name": "newAdmin",
          "type": "address"
        }
      ],
      "name": "AdminChanged",
      "type": "event"
    },
    {
      "anonymous": false,
      "inputs": [
        {
          "indexed": true,
          "internalType": "address",
          "name": "owner",
          "type": "address"
        },
        {
          "indexed": true,
          "internalType": "address",
          "name": "spender",
          "type": "address"
        },
        {
          "indexed": false,
          "internalType": "uint256",
          "name": "value",
          "type": "uint256"
        }
      ],
      "name": "Approval",
      "type": "event"
    },
    {
      "anonymous": false,
      "inputs": [
        {
          "indexed": true,
          "internalType": "address",
          "name": "beacon",
          "type": "address"
        }
      ],
      "name": "BeaconUpgraded",
      "type": "event"
    },
    {
      "anonymous": false,
      "inputs": [
        {
          "indexed": false,
          "internalType": "address",
          "name": "account",
          "type": "address"
        }
      ],
      "name": "Paused",
      "type": "event"
    },
    {
      "anonymous": false,
      "inputs": [
        {
          "indexed": true,
          "internalType": "bytes32",
          "name": "role",
          "type": "bytes32"
        },
        {
          "indexed": true,
          "internalType": "bytes32",
          "name": "previousAdminRole",
          "type": "bytes32"
        },
        {
          "indexed": true,
          "internalType": "bytes32",
          "name": "newAdminRole",
          "type": "bytes32"
        }
      ],
      "name": "RoleAdminChanged",
      "type": "event"
    },
    {
      "anonymous": false,
      "inputs": [
        {
          "indexed": true,
          "internalType": "bytes32",
          "name": "role",
          "type": "bytes32"
        },
        {
          "indexed": true,
          "internalType": "address",
          "name": "account",
          "type": "address"
        },
        {
          "indexed": true,
          "internalType": "address",
          "name": "sender",
          "type": "address"
        }
      ],
      "name": "RoleGranted",
      "type": "event"
    },
    {
      "anonymous": false,
      "inputs": [
        {
          "indexed": true,
          "internalType": "bytes32",
          "name": "role",
          "type": "bytes32"
        },
        {
          "indexed": true,
          "internalType": "address",
          "name": "account",
          "type": "address"
        },
        {
          "indexed": true,
          "internalType": "address",
          "name": "sender",
          "type": "address"
        }
      ],
      "name": "RoleRevoked",
      "type": "event"
    },
    {
      "anonymous": false,
      "inputs": [
        {
          "indexed": false,
          "internalType": "uint256",
          "name": "id",
          "type": "uint256"
        }
      ],
      "name": "Snapshot",
      "type": "event"
    },
    {
      "anonymous": false,
      "inputs": [
        {
          "indexed": true,
          "internalType": "address",
          "name": "from",
          "type": "address"
        },
        {
          "indexed": true,
          "internalType": "address",
          "name": "to",
          "type": "address"
        },
        {
          "indexed": false,
          "internalType": "uint256",
          "name": "value",
          "type": "uint256"
        }
      ],
      "name": "Transfer",
      "type": "event"
    },
    {
      "anonymous": false,
      "inputs": [
        {
          "indexed": false,
          "internalType": "address",
          "name": "account",
          "type": "address"
        }
      ],
      "name": "Unpaused",
      "type": "event"
    },
    {
      "anonymous": false,
      "inputs": [
        {
          "indexed": true,
          "internalType": "address",
          "name": "implementation",
          "type": "address"
        }
      ],
      "name": "Upgraded",
      "type": "event"
    },
    {
      "inputs": [],
      "name": "BLACKLISTED_ROLE",
      "outputs": [
        {
          "internalType": "bytes32",
          "name": "",
          "type": "bytes32"
        }
      ],
      "stateMutability": "view",
      "type": "function"
    },
    {
      "inputs": [],
      "name": "BLACKLIST_MANAGER_ROLE",
      "outputs": [
        {
          "internalType": "bytes32",
          "name": "",
          "type": "bytes32"
        }
      ],
      "stateMutability": "view",
      "type": "function"
    },
    {
      "inputs": [],
      "name": "DEFAULT_ADMIN_ROLE",
      "outputs": [
        {
          "internalType": "bytes32",
          "name": "",
          "type": "bytes32"
        }
      ],
      "stateMutability": "view",
      "type": "function"
    },
    {
      "inputs": [],
      "name": "GOVERNANCE_ROLE",
      "outputs": [
        {
          "internalType": "bytes32",
          "name": "",
          "type": "bytes32"
        }
      ],
      "stateMutability": "view",
      "type": "function"
    },
    {
      "inputs": [],
      "name": "PAUSE_MANAGER_ROLE",
      "outputs": [
        {
          "internalType": "bytes32",
          "name": "",
          "type": "bytes32"
        }
      ],
      "stateMutability": "view",
      "type": "function"
    },
    {
      "inputs": [],
      "name": "UPGRADE_MANAGER_ROLE",
      "outputs": [
        {
          "internalType": "bytes32",
          "name": "",
          "type": "bytes32"
        }
      ],
      "stateMutability": "view",
      "type": "function"
    },
    {
      "inputs": [],
      "name": "WHITELISTED_FROM_ROLE",
      "outputs": [
        {
          "internalType": "bytes32",
          "name": "",
          "type": "bytes32"
        }
      ],
      "stateMutability": "view",
      "type": "function"
    },
    {
      "inputs": [],
      "name": "WHITELISTED_SENDER_ROLE",
      "outputs": [
        {
          "internalType": "bytes32",
          "name": "",
          "type": "bytes32"
        }
      ],
      "stateMutability": "view",
      "type": "function"
    },
    {
      "inputs": [
        {
          "internalType": "address[]",
          "name": "addresses",
          "type": "address[]"
        }
      ],
      "name": "addAddressesToBlacklist",
      "outputs": [],
      "stateMutability": "nonpayable",
      "type": "function"
    },
    {
      "inputs": [
        {
          "internalType": "address[]",
          "name": "addresses",
          "type": "address[]"
        }
      ],
      "name": "addAddressesToWhitelistFrom",
      "outputs": [],
      "stateMutability": "nonpayable",
      "type": "function"
    },
    {
      "inputs": [
        {
          "internalType": "address[]",
          "name": "addresses",
          "type": "address[]"
        }
      ],
      "name": "addAddressesToWhitelistSender",
      "outputs": [],
      "stateMutability": "nonpayable",
      "type": "function"
    },
    {
      "inputs": [
        {
          "internalType": "address",
          "name": "owner",
          "type": "address"
        },
        {
          "internalType": "address",
          "name": "spender",
          "type": "address"
        }
      ],
      "name": "allowance",
      "outputs": [
        {
          "internalType": "uint256",
          "name": "",
          "type": "uint256"
        }
      ],
      "stateMutability": "view",
      "type": "function"
    },
    {
      "inputs": [
        {
          "internalType": "address",
          "name": "spender",
          "type": "address"
        },
        {
          "internalType": "uint256",
          "name": "amount",
          "type": "uint256"
        }
      ],
      "name": "approve",
      "outputs": [
        {
          "internalType": "bool",
          "name": "",
          "type": "bool"
        }
      ],
      "stateMutability": "nonpayable",
      "type": "function"
    },
    {
      "inputs": [
        {
          "internalType": "address",
          "name": "account",
          "type": "address"
        }
      ],
      "name": "balanceOf",
      "outputs": [
        {
          "internalType": "uint256",
          "name": "",
          "type": "uint256"
        }
      ],
      "stateMutability": "view",
      "type": "function"
    },
    {
      "inputs": [
        {
          "internalType": "address",
          "name": "account",
          "type": "address"
        },
        {
          "internalType": "uint256",
          "name": "snapshotId",
          "type": "uint256"
        }
      ],
      "name": "balanceOfAt",
      "outputs": [
        {
          "internalType": "uint256",
          "name": "",
          "type": "uint256"
        }
      ],
      "stateMutability": "view",
      "type": "function"
    },
    {
      "inputs": [],
      "name": "decimals",
      "outputs": [
        {
          "internalType": "uint8",
          "name": "",
          "type": "uint8"
        }
      ],
      "stateMutability": "view",
      "type": "function"
    },
    {
      "inputs": [
        {
          "internalType": "address",
          "name": "spender",
          "type": "address"
        },
        {
          "internalType": "uint256",
          "name": "subtractedValue",
          "type": "uint256"
        }
      ],
      "name": "decreaseAllowance",
      "outputs": [
        {
          "internalType": "bool",
          "name": "",
          "type": "bool"
        }
      ],
      "stateMutability": "nonpayable",
      "type": "function"
    },
    {
      "inputs": [],
      "name": "getCurrentSnapshotId",
      "outputs": [
        {
          "internalType": "uint256",
          "name": "",
          "type": "uint256"
        }
      ],
      "stateMutability": "view",
      "type": "function"
    },
    {
      "inputs": [],
      "name": "getImplementation",
      "outputs": [
        {
          "internalType": "address",
          "name": "",
          "type": "address"
        }
      ],
      "stateMutability": "view",
      "type": "function"
    },
    {
      "inputs": [
        {
          "internalType": "bytes32",
          "name": "role",
          "type": "bytes32"
        }
      ],
      "name": "getRoleAdmin",
      "outputs": [
        {
          "internalType": "bytes32",
          "name": "",
          "type": "bytes32"
        }
      ],
      "stateMutability": "view",
      "type": "function"
    },
    {
      "inputs": [
        {
          "internalType": "bytes32",
          "name": "role",
          "type": "bytes32"
        },
        {
          "internalType": "address",
          "name": "account",
          "type": "address"
        }
      ],
      "name": "grantRole",
      "outputs": [],
      "stateMutability": "nonpayable",
      "type": "function"
    },
    {
      "inputs": [
        {
          "internalType": "bytes32",
          "name": "role",
          "type": "bytes32"
        },
        {
          "internalType": "address",
          "name": "account",
          "type": "address"
        }
      ],
      "name": "hasRole",
      "outputs": [
        {
          "internalType": "bool",
          "name": "",
          "type": "bool"
        }
      ],
      "stateMutability": "view",
      "type": "function"
    },
    {
      "inputs": [
        {
          "internalType": "address",
          "name": "spender",
          "type": "address"
        },
        {
          "internalType": "uint256",
          "name": "addedValue",
          "type": "uint256"
        }
      ],
      "name": "increaseAllowance",
      "outputs": [
        {
          "internalType": "bool",
          "name": "",
          "type": "bool"
        }
      ],
      "stateMutability": "nonpayable",
      "type": "function"
    },
    {
      "inputs": [
        {
          "internalType": "string",
          "name": "name_",
          "type": "string"
        },
        {
          "internalType": "string",
          "name": "symbol_",
          "type": "string"
        },
        {
          "internalType": "uint8",
          "name": "decimals_",
          "type": "uint8"
        },
        {
          "internalType": "uint256",
          "name": "amount_",
          "type": "uint256"
        }
      ],
      "name": "initialize",
      "outputs": [],
      "stateMutability": "nonpayable",
      "type": "function"
    },
    {
      "inputs": [],
      "name": "name",
      "outputs": [
        {
          "internalType": "string",
          "name": "",
          "type": "string"
        }
      ],
      "stateMutability": "view",
      "type": "function"
    },
    {
      "inputs": [],
      "name": "pause",
      "outputs": [],
      "stateMutability": "nonpayable",
      "type": "function"
    },
    {
      "inputs": [],
      "name": "paused",
      "outputs": [
        {
          "internalType": "bool",
          "name": "",
          "type": "bool"
        }
      ],
      "stateMutability": "view",
      "type": "function"
    },
    {
      "inputs": [
        {
          "internalType": "address",
          "name": "implementationAddress",
          "type": "address"
        }
      ],
      "name": "proposeNewImplementation",
      "outputs": [],
      "stateMutability": "nonpayable",
      "type": "function"
    },
    {
      "inputs": [
        {
          "internalType": "address[]",
          "name": "addresses",
          "type": "address[]"
        }
      ],
      "name": "removeAddressesFromBlacklist",
      "outputs": [],
      "stateMutability": "nonpayable",
      "type": "function"
    },
    {
      "inputs": [
        {
          "internalType": "address[]",
          "name": "addresses",
          "type": "address[]"
        }
      ],
      "name": "removeAddressesFromWhitelistFrom",
      "outputs": [],
      "stateMutability": "nonpayable",
      "type": "function"
    },
    {
      "inputs": [
        {
          "internalType": "address[]",
          "name": "addresses",
          "type": "address[]"
        }
      ],
      "name": "removeAddressesFromWhitelistSender",
      "outputs": [],
      "stateMutability": "nonpayable",
      "type": "function"
    },
    {
      "inputs": [
        {
          "internalType": "bytes32",
          "name": "role",
          "type": "bytes32"
        },
        {
          "internalType": "address",
          "name": "account",
          "type": "address"
        }
      ],
      "name": "renounceRole",
      "outputs": [],
      "stateMutability": "nonpayable",
      "type": "function"
    },
    {
      "inputs": [
        {
          "internalType": "bytes32",
          "name": "role",
          "type": "bytes32"
        },
        {
          "internalType": "address",
          "name": "account",
          "type": "address"
        }
      ],
      "name": "revokeRole",
      "outputs": [],
      "stateMutability": "nonpayable",
      "type": "function"
    },
    {
      "inputs": [],
      "name": "snapshot",
      "outputs": [],
      "stateMutability": "nonpayable",
      "type": "function"
    },
    {
      "inputs": [
        {
          "internalType": "bytes4",
          "name": "interfaceId",
          "type": "bytes4"
        }
      ],
      "name": "supportsInterface",
      "outputs": [
        {
          "internalType": "bool",
          "name": "",
          "type": "bool"
        }
      ],
      "stateMutability": "view",
      "type": "function"
    },
    {
      "inputs": [],
      "name": "symbol",
      "outputs": [
        {
          "internalType": "string",
          "name": "",
          "type": "string"
        }
      ],
      "stateMutability": "view",
      "type": "function"
    },
    {
      "inputs": [],
      "name": "totalSupply",
      "outputs": [
        {
          "internalType": "uint256",
          "name": "",
          "type": "uint256"
        }
      ],
      "stateMutability": "view",
      "type": "function"
    },
    {
      "inputs": [
        {
          "internalType": "uint256",
          "name": "snapshotId",
          "type": "uint256"
        }
      ],
      "name": "totalSupplyAt",
      "outputs": [
        {
          "internalType": "uint256",
          "name": "",
          "type": "uint256"
        }
      ],
      "stateMutability": "view",
      "type": "function"
    },
    {
      "inputs": [
        {
          "internalType": "address",
          "name": "recipient",
          "type": "address"
        },
        {
          "internalType": "uint256",
          "name": "amount",
          "type": "uint256"
        }
      ],
      "name": "transfer",
      "outputs": [
        {
          "internalType": "bool",
          "name": "",
          "type": "bool"
        }
      ],
      "stateMutability": "nonpayable",
      "type": "function"
    },
    {
      "inputs": [
        {
          "internalType": "address",
          "name": "sender",
          "type": "address"
        },
        {
          "internalType": "address",
          "name": "recipient",
          "type": "address"
        },
        {
          "internalType": "uint256",
          "name": "amount",
          "type": "uint256"
        }
      ],
      "name": "transferFrom",
      "outputs": [
        {
          "internalType": "bool",
          "name": "",
          "type": "bool"
        }
      ],
      "stateMutability": "nonpayable",
      "type": "function"
    },
    {
      "inputs": [],
      "name": "unpause",
      "outputs": [],
      "stateMutability": "nonpayable",
      "type": "function"
    },
    {
      "inputs": [
        {
          "internalType": "address",
          "name": "newImplementation",
          "type": "address"
        }
      ],
      "name": "upgradeTo",
      "outputs": [],
      "stateMutability": "nonpayable",
      "type": "function"
    },
    {
      "inputs": [
        {
          "internalType": "address",
          "name": "newImplementation",
          "type": "address"
        },
        {
          "internalType": "bytes",
          "name": "data",
          "type": "bytes"
        }
      ],
      "name": "upgradeToAndCall",
      "outputs": [],
      "stateMutability": "payable",
      "type": "function"
    }
  ],
  "bytecode": "0x60a06040523060601b60805234801561001757600080fd5b5060805160601c61300a61004b60003960008181610b0e01528181610b4e01528181610d160152610d56015261300a6000f3fe60806040526004361061025c5760003560e01c806362b199c511610144578063a457c2d7116100b6578063ca73419e1161007a578063ca73419e1461070f578063d547741f1461072f578063d84f91e81461074f578063dd62ed3e14610771578063f36c8f5c146107b7578063f834c502146107d957600080fd5b8063a457c2d714610660578063a9059cbb14610680578063aa74a34a146106a0578063aaf10f42146106c2578063c233f3b7146106ef57600080fd5b80638456cb59116101085780638456cb59146105cc57806391d14854146105e157806395d89b41146106015780639711715a14610616578063981b24d01461062b578063a217fddf1461064b57600080fd5b806362b199c514610512578063685ed81a146105345780636e79a1c01461055457806370a0823114610574578063731ce8fc146105aa57600080fd5b806336568abe116101dd57806343ffa64e116101a157806343ffa64e1461046357806347757fb6146104855780634ee2cd7e146104a55780634f1ef286146104c55780635439ad86146104d85780635c975abb146104ed57600080fd5b806336568abe146103cc5780633659cfe6146103ec578063395093511461040c5780633f4ba83a1461042c578063410b24241461044157600080fd5b8063248a9ca311610224578063248a9ca314610317578063253279ad146103475780632f2ff15d14610369578063313ce5671461038957806332258794146103ac57600080fd5b806301ffc9a71461026157806306fdde0314610296578063095ea7b3146102b857806318160ddd146102d857806323b872dd146102f7575b600080fd5b34801561026d57600080fd5b5061028161027c366004612af3565b6107f9565b60405190151581526020015b60405180910390f35b3480156102a257600080fd5b506102ab610830565b60405161028d9190612c32565b3480156102c457600080fd5b506102816102d3366004612a18565b6108c2565b3480156102e457600080fd5b506067545b60405190815260200161028d565b34801561030357600080fd5b5061028161031236600461297a565b6108d8565b34801561032357600080fd5b506102e9610332366004612ab7565b600090815260fb602052604090206001015490565b34801561035357600080fd5b50610367610362366004612b1d565b610989565b005b34801561037557600080fd5b50610367610384366004612ad0565b610a62565b34801561039557600080fd5b506101605460405160ff909116815260200161028d565b3480156103b857600080fd5b506103676103c7366004612a42565b610a7a565b3480156103d857600080fd5b506103676103e7366004612ad0565b610aef565b3480156103f857600080fd5b5061036761040736600461292c565b610b03565b34801561041857600080fd5b50610281610427366004612a18565b610bcc565b34801561043857600080fd5b50610367610c08565b34801561044d57600080fd5b506102e9600080516020612f0e83398151915281565b34801561046f57600080fd5b506102e9600080516020612ece83398151915281565b34801561049157600080fd5b506103676104a036600461292c565b610c29565b3480156104b157600080fd5b506102e96104c0366004612a18565b610c66565b6103676104d33660046129b6565b610d0b565b3480156104e457600080fd5b506102e9610dc1565b3480156104f957600080fd5b50600080516020612f958339815191525460ff16610281565b34801561051e57600080fd5b506102e9600080516020612eae83398151915281565b34801561054057600080fd5b5061036761054f366004612a42565b610dde565b34801561056057600080fd5b5061036761056f366004612a42565b610e4d565b34801561058057600080fd5b506102e961058f36600461292c565b6001600160a01b031660009081526065602052604090205490565b3480156105b657600080fd5b506102e9600080516020612fb583398151915281565b3480156105d857600080fd5b50610367610ea7565b3480156105ed57600080fd5b506102816105fc366004612ad0565b610ec8565b34801561060d57600080fd5b506102ab610ef3565b34801561062257600080fd5b50610367610f02565b34801561063757600080fd5b506102e9610646366004612ab7565b610f0a565b34801561065757600080fd5b506102e9600081565b34801561066c57600080fd5b5061028161067b366004612a18565b610f75565b34801561068c57600080fd5b5061028161069b366004612a18565b61100e565b3480156106ac57600080fd5b506102e9600080516020612e8e83398151915281565b3480156106ce57600080fd5b506106d761101b565b6040516001600160a01b03909116815260200161028d565b3480156106fb57600080fd5b5061036761070a366004612a42565b611025565b34801561071b57600080fd5b5061036761072a366004612a42565b61107f565b34801561073b57600080fd5b5061036761074a366004612ad0565b6110d9565b34801561075b57600080fd5b506102e9600080516020612f5583398151915281565b34801561077d57600080fd5b506102e961078c366004612947565b6001600160a01b03918216600090815260666020908152604080832093909416825291909152205490565b3480156107c357600080fd5b506102e9600080516020612eee83398151915281565b3480156107e557600080fd5b506103676107f4366004612a42565b611104565b60006001600160e01b03198216637965db0b60e01b148061082a57506301ffc9a760e01b6001600160e01b03198316145b92915050565b60606068805461083f90612dfb565b80601f016020809104026020016040519081016040528092919081815260200182805461086b90612dfb565b80156108b85780601f1061088d576101008083540402835291602001916108b8565b820191906000526020600020905b81548152906001019060200180831161089b57829003601f168201915b5050505050905090565b60006108cf33848461115e565b50600192915050565b60006108e5848484611282565b6001600160a01b03841660009081526066602090815260408083203384529091529020548281101561096f5760405162461bcd60e51b815260206004820152602860248201527f45524332303a207472616e7366657220616d6f756e74206578636565647320616044820152676c6c6f77616e636560c01b60648201526084015b60405180910390fd5b61097c853385840361115e565b60019150505b9392505050565b600054610100900460ff166109a45760005460ff16156109a8565b303b155b610a0b5760405162461bcd60e51b815260206004820152602e60248201527f496e697469616c697a61626c653a20636f6e747261637420697320616c72656160448201526d191e481a5b9a5d1a585b1a5e995960921b6064820152608401610966565b600054610100900460ff16158015610a2d576000805461ffff19166101011790555b610a398585858561145b565b610a4161149e565b610a496114ed565b8015610a5b576000805461ff00191690555b5050505050565b610a6c8282611560565b610a7682826115ef565b5050565b600080516020612f0e833981519152610a938133611615565b60005b82811015610ae957610ad7600080516020612eae833981519152858584818110610ac257610ac2612e61565b905060200201602081019061074a919061292c565b80610ae181612e30565b915050610a96565b50505050565b610af98282611679565b610a7682826116e1565b306001600160a01b037f0000000000000000000000000000000000000000000000000000000000000000161415610b4c5760405162461bcd60e51b815260040161096690612c65565b7f00000000000000000000000000000000000000000000000000000000000000006001600160a01b0316610b7e61175b565b6001600160a01b031614610ba45760405162461bcd60e51b815260040161096690612cb1565b610bad81611789565b60408051600080825260208201909252610bc99183919061180b565b50565b3360008181526066602090815260408083206001600160a01b038716845290915281205490916108cf918590610c03908690612d48565b61115e565b600080516020612f55833981519152610c218133611615565b610bc961194f565b600080516020612eee833981519152610c428133611615565b5061012d80546001600160a01b0319166001600160a01b0392909216919091179055565b604080516001600160a01b0384166020808301919091527ffbf1c7065455eb4486649b8540f24ef2dd4ebedf2aa423f0039d17c2c75dea15828401528251808303840181526060909201909252805191012060009081610cc7826001612d48565b9050600080610cd78685856119fc565b9150915081610cfe576001600160a01b038716600090815260656020526040902054610d00565b805b979650505050505050565b306001600160a01b037f0000000000000000000000000000000000000000000000000000000000000000161415610d545760405162461bcd60e51b815260040161096690612c65565b7f00000000000000000000000000000000000000000000000000000000000000006001600160a01b0316610d8661175b565b6001600160a01b031614610dac5760405162461bcd60e51b815260040161096690612cb1565b610db582611789565b610a768282600161180b565b6000610dd9600080516020612f758339815191525490565b905090565b600080516020612f55833981519152610df78133611615565b60005b82811015610ae957610e3b600080516020612e8e833981519152858584818110610e2657610e26612e61565b9050602002016020810190610384919061292c565b80610e4581612e30565b915050610dfa565b600080516020612f55833981519152610e668133611615565b60005b82811015610ae957610e95600080516020612fb5833981519152858584818110610ac257610ac2612e61565b80610e9f81612e30565b915050610e69565b600080516020612f55833981519152610ec08133611615565b610bc9611ae7565b600091825260fb602090815260408084206001600160a01b0393909316845291905290205460ff1690565b60606069805461083f90612dfb565b610bc9611b7b565b6000806000610f5a847f286a9db37a0f8ddcbcee127c9f4f56031230f49cb46786f87e166d552e11f67e7ffcaa8bb100d3c5b627eac0369cc1d2778dbeffa2993d08f039fb27795729e9a56119fc565b9150915081610f6b57606754610f6d565b805b949350505050565b3360009081526066602090815260408083206001600160a01b038616845290915281205482811015610ff75760405162461bcd60e51b815260206004820152602560248201527f45524332303a2064656372656173656420616c6c6f77616e63652062656c6f77604482015264207a65726f60d81b6064820152608401610966565b611004338585840361115e565b5060019392505050565b60006108cf338484611282565b6000610dd961175b565b600080516020612f5583398151915261103e8133611615565b60005b82811015610ae95761106d600080516020612e8e833981519152858584818110610ac257610ac2612e61565b8061107781612e30565b915050611041565b600080516020612f0e8339815191526110988133611615565b60005b82811015610ae9576110c7600080516020612eae833981519152858584818110610e2657610e26612e61565b806110d181612e30565b91505061109b565b600082815260fb60205260409020600101546110f58133611615565b6110ff8383611beb565b505050565b600080516020612f5583398151915261111d8133611615565b60005b82811015610ae95761114c600080516020612fb5833981519152858584818110610e2657610e26612e61565b8061115681612e30565b915050611120565b6001600160a01b0383166111c05760405162461bcd60e51b8152602060048201526024808201527f45524332303a20617070726f76652066726f6d20746865207a65726f206164646044820152637265737360e01b6064820152608401610966565b6001600160a01b0382166112215760405162461bcd60e51b815260206004820152602260248201527f45524332303a20617070726f766520746f20746865207a65726f206164647265604482015261737360f01b6064820152608401610966565b6001600160a01b0383811660008181526066602090815260408083209487168084529482529182902085905590518481527f8c5be1e5ebec7d5bd14f71427d1e84f3dd0314c0f7b2291e5b200ac8c7c3b925910160405180910390a3505050565b6001600160a01b0383166112e65760405162461bcd60e51b815260206004820152602560248201527f45524332303a207472616e736665722066726f6d20746865207a65726f206164604482015264647265737360d81b6064820152608401610966565b6001600160a01b0382166113485760405162461bcd60e51b815260206004820152602360248201527f45524332303a207472616e7366657220746f20746865207a65726f206164647260448201526265737360e81b6064820152608401610966565b611353838383611c52565b6001600160a01b038316600090815260656020526040902054818110156113cb5760405162461bcd60e51b815260206004820152602660248201527f45524332303a207472616e7366657220616d6f756e7420657863656564732062604482015265616c616e636560d01b6064820152608401610966565b6001600160a01b03808516600090815260656020526040808220858503905591851681529081208054849290611402908490612d48565b92505081905550826001600160a01b0316846001600160a01b03167fddf252ad1be2c89b69c2b068fc378daa952ba7f163c4a11628f55a4df523b3ef8460405161144e91815260200190565b60405180910390a3610ae9565b600054610100900460ff166114825760405162461bcd60e51b815260040161096690612cfd565b61148a611c68565b6114948484611cbf565b610ae98282611d0d565b600054610100900460ff166114c55760405162461bcd60e51b815260040161096690612cfd565b6114eb600080516020612eae833981519152600080516020612f0e833981519152611d4e565b565b600054610100900460ff166115145760405162461bcd60e51b815260040161096690612cfd565b61153a600080516020612fb5833981519152600080516020612f55833981519152611d4e565b6114eb600080516020612e8e833981519152600080516020612f55833981519152611d4e565b600080516020612f0e83398151915282148061157a575081155b15610a7657611597600080516020612eae83398151915282610ec8565b15610a765760405162461bcd60e51b815260206004820152602260248201527f63616e206e6f742061737369676e20726f6c6520746f20626c61636b6c697374604482015261195960f21b6064820152608401610966565b600082815260fb602052604090206001015461160b8133611615565b6110ff8383611d99565b61161f8282610ec8565b610a7657611637816001600160a01b03166014611e1f565b611642836020611e1f565b604051602001611653929190612bbd565b60408051601f198184030181529082905262461bcd60e51b825261096691600401612c32565b600080516020612eae833981519152821415610a765760405162461bcd60e51b815260206004820152602160248201527f43616e206e6f742072656e6f756e636520626c61636b6c697374656420726f6c6044820152606560f81b6064820152608401610966565b6001600160a01b03811633146117515760405162461bcd60e51b815260206004820152602f60248201527f416363657373436f6e74726f6c3a2063616e206f6e6c792072656e6f756e636560448201526e103937b632b9903337b91039b2b63360891b6064820152608401610966565b610a768282611beb565b7f360894a13ba1a3210667c828492db98dca3e2076cc3735a920a3ca505d382bbc546001600160a01b031690565b6117a1600080516020612eee83398151915233610ec8565b806117bf57506117bf600080516020612ece83398151915233610ec8565b610bc95760405162461bcd60e51b815260206004820152601d60248201527f4552524f523a2041646472657373206e6f7420617574686f72697a65640000006044820152606401610966565b600061181561175b565b905061182084611fbb565b60008351118061182d5750815b1561183e5761183c8484612060565b505b7f4910fdfa16fed3260ed0e7147f7cc6da11a60208b5b9406d12a635614ffd9143805460ff16610a5b57805460ff191660011781556040516001600160a01b03831660248201526118bd90869060440160408051601f198184030181529190526020810180516001600160e01b0316631b2ce7f360e11b179052612060565b50805460ff191681556118ce61175b565b6001600160a01b0316826001600160a01b0316146119465760405162461bcd60e51b815260206004820152602f60248201527f45524331393637557067726164653a207570677261646520627265616b73206660448201526e75727468657220757067726164657360881b6064820152608401610966565b610a5b8561214b565b600080516020612f958339815191525460ff166119a55760405162461bcd60e51b815260206004820152601460248201527314185d5cd8589b194e881b9bdd081c185d5cd95960621b6044820152606401610966565b600080516020612f95833981519152805460ff191690557f5db9ee0a495bf2e6ff9c91a7834c1ba4fdd244a5e8aa4e537bd38aeae4b073aa335b6040516001600160a01b03909116815260200160405180910390a1565b60008060008511611a485760405162461bcd60e51b815260206004820152601660248201527504552433230536e617073686f743a20696420697320360541b6044820152606401610966565b600080516020612f7583398151915254851115611aa75760405162461bcd60e51b815260206004820152601d60248201527f4552433230536e617073686f743a206e6f6e6578697374656e742069640000006044820152606401610966565b6000611ab3858761218b565b90508454811415611acb576000809250925050611adf565b6001611ad7858361222a565b549093509150505b935093915050565b600080516020612f958339815191525460ff1615611b3a5760405162461bcd60e51b815260206004820152601060248201526f14185d5cd8589b194e881c185d5cd95960821b6044820152606401610966565b600080516020612f95833981519152805460ff191660011790557f62e78cea01bee320cd4e420270b5ea74000d11b0c9f74754ebdbfc544b05a258336119df565b60006001600080516020612f758339815191528054600090611b9e908490612d48565b9091555050600080516020612f75833981519152546040518181527f8030e83b04d87bef53480e26263266d6ca66863aa8506aca6f2559d18aa1cb679060200160405180910390a1919050565b611bf58282610ec8565b15610a7657600082815260fb602090815260408083206001600160a01b0385168085529252808320805460ff1916905551339285917ff6391f5c32d9c69d2a47ea670b442974b53935d1edc7fd64eb21e047a839171b9190a45050565b611c5d8383836122a9565b6110ff8383836122ca565b600054610100900460ff16611c8f5760405162461bcd60e51b815260040161096690612cfd565b611c97612312565b611c9f612312565b611ca7612312565b611caf612312565b611cb7612312565b6114eb612339565b600054610100900460ff16611ce65760405162461bcd60e51b815260040161096690612cfd565b8151611cf99060689060208501906127e1565b5080516110ff9060699060208401906127e1565b600054610100900460ff16611d345760405162461bcd60e51b815260040161096690612cfd565b610160805460ff191660ff8416179055610a7633826123c1565b600082815260fb6020526040808220600101805490849055905190918391839186917fbd79b86ffe0ab8e8776151514217cd7cacd52c909f66475c3af44e129f0b00ff9190a4505050565b611da38282610ec8565b610a7657600082815260fb602090815260408083206001600160a01b03851684529091529020805460ff19166001179055611ddb3390565b6001600160a01b0316816001600160a01b0316837f2f8788117e7eff1d82e926ec794901d17c78024a50270940304540a733656f0d60405160405180910390a45050565b60606000611e2e836002612d82565b611e39906002612d48565b67ffffffffffffffff811115611e5157611e51612e77565b6040519080825280601f01601f191660200182016040528015611e7b576020820181803683370190505b509050600360fc1b81600081518110611e9657611e96612e61565b60200101906001600160f81b031916908160001a905350600f60fb1b81600181518110611ec557611ec5612e61565b60200101906001600160f81b031916908160001a9053506000611ee9846002612d82565b611ef4906001612d48565b90505b6001811115611f6c576f181899199a1a9b1b9c1cb0b131b232b360811b85600f1660108110611f2857611f28612e61565b1a60f81b828281518110611f3e57611f3e612e61565b60200101906001600160f81b031916908160001a90535060049490941c93611f6581612de4565b9050611ef7565b5083156109825760405162461bcd60e51b815260206004820181905260248201527f537472696e67733a20686578206c656e67746820696e73756666696369656e746044820152606401610966565b803b61201f5760405162461bcd60e51b815260206004820152602d60248201527f455243313936373a206e657720696d706c656d656e746174696f6e206973206e60448201526c1bdd08184818dbdb9d1c9858dd609a1b6064820152608401610966565b7f360894a13ba1a3210667c828492db98dca3e2076cc3735a920a3ca505d382bbc80546001600160a01b0319166001600160a01b0392909216919091179055565b6060823b6120bf5760405162461bcd60e51b815260206004820152602660248201527f416464726573733a2064656c65676174652063616c6c20746f206e6f6e2d636f6044820152651b9d1c9858dd60d21b6064820152608401610966565b600080846001600160a01b0316846040516120da9190612ba1565b600060405180830381855af49150503d8060008114612115576040519150601f19603f3d011682016040523d82523d6000602084013e61211a565b606091505b50915091506121428282604051806060016040528060278152602001612f2e602791396124ac565b95945050505050565b61215481611fbb565b6040516001600160a01b038216907fbc7cd75a20ee27fd9adebab32041f755214dbc6bffa90cc0225b39da2e5c2d3b90600090a250565b81546000908190806121a25760009250505061082a565b808210156121e65760006121b683836124e5565b9050846121c3878361222a565b5411156121d2578091506121e0565b6121dd816001612d48565b92505b506121a2565b60008211801561220957508361220686612201600186612da1565b61222a565b54145b1561222257612219600183612da1565b9250505061082a565b50905061082a565b6000825482106122725760405162461bcd60e51b815260206004820152601360248201527211549493d48e8813dd5d081bd988189bdd5b99606a1b6044820152606401610966565b818360405160200161228691815260200190565b6040516020818303038152906040528051906020012060001c6109829190612d48565b6122b4838383611c5d565b6122bf838383612500565b6110ff838383612583565b6001600160a01b0383166122e9576122e1826125db565b6110ff612665565b6001600160a01b038216612300576122e1836125db565b612309836125db565b6110ff826125db565b600054610100900460ff166114eb5760405162461bcd60e51b815260040161096690612cfd565b600054610100900460ff166123605760405162461bcd60e51b815260040161096690612cfd565b61236b6000336126b3565b612383600080516020612eee833981519152336126b3565b61239b600080516020612ece833981519152336126b3565b6114eb600080516020612ece833981519152600080516020612eee833981519152611d4e565b6001600160a01b0382166124175760405162461bcd60e51b815260206004820152601f60248201527f45524332303a206d696e7420746f20746865207a65726f2061646472657373006044820152606401610966565b61242360008383611c52565b80606760008282546124359190612d48565b90915550506001600160a01b03821660009081526065602052604081208054839290612462908490612d48565b90915550506040518181526001600160a01b038316906000907fddf252ad1be2c89b69c2b068fc378daa952ba7f163c4a11628f55a4df523b3ef9060200160405180910390a35050565b606083156124bb575081610982565b8251156124cb5782518084602001fd5b8160405162461bcd60e51b81526004016109669190612c32565b60006124f46002848418612d60565b61098290848416612d48565b600080516020612f958339815191525460ff161580612524575061252483336126bd565b6110ff5760405162461bcd60e51b815260206004820152602a60248201527f45524332305061757361626c653a20746f6b656e207472616e736665722077686044820152691a5b19481c185d5cd95960b21b6064820152608401610966565b61258e3384846126f5565b156110ff5760405162461bcd60e51b815260206004820152601a60248201527f4552524f523a204164647265737320426c61636b6c69737465640000000000006044820152606401610966565b604080516001600160a01b0383166020808301919091527ffbf1c7065455eb4486649b8540f24ef2dd4ebedf2aa423f0039d17c2c75dea158284015282518083038401815260609092019092528051910120600061263a826001612d48565b90506110ff8282612660866001600160a01b031660009081526065602052604090205490565b61274b565b6114eb7f286a9db37a0f8ddcbcee127c9f4f56031230f49cb46786f87e166d552e11f67e7ffcaa8bb100d3c5b627eac0369cc1d2778dbeffa2993d08f039fb27795729e9a561266060675490565b610a768282611d99565b60006126d7600080516020612fb583398151915284610ec8565b806109825750610982600080516020612e8e83398151915283610ec8565b600061270f600080516020612eae83398151915284610ec8565b8061272d575061272d600080516020612eae83398151915285610ec8565b80610f6d5750610f6d600080516020612eae83398151915283610ec8565b6000612763600080516020612f758339815191525490565b90508061276f85612789565b1015610ae95761277f84826127b9565b610ae983836127b9565b80546000908061279c5750600092915050565b6127ab83612201600184612da1565b549392505050565b50919050565b815460018360006127ca8385612d48565b909155508290506127db848361222a565b55505050565b8280546127ed90612dfb565b90600052602060002090601f01602090048101928261280f5760008555612855565b82601f1061282857805160ff1916838001178555612855565b82800160010185558215612855579182015b8281111561285557825182559160200191906001019061283a565b50612861929150612865565b5090565b5b808211156128615760008155600101612866565b600067ffffffffffffffff8084111561289557612895612e77565b604051601f8501601f19908116603f011681019082821181831017156128bd576128bd612e77565b816040528093508581528686860111156128d657600080fd5b858560208301376000602087830101525050509392505050565b80356001600160a01b038116811461290757600080fd5b919050565b600082601f83011261291d57600080fd5b6109828383356020850161287a565b60006020828403121561293e57600080fd5b610982826128f0565b6000806040838503121561295a57600080fd5b612963836128f0565b9150612971602084016128f0565b90509250929050565b60008060006060848603121561298f57600080fd5b612998846128f0565b92506129a6602085016128f0565b9150604084013590509250925092565b600080604083850312156129c957600080fd5b6129d2836128f0565b9150602083013567ffffffffffffffff8111156129ee57600080fd5b8301601f810185136129ff57600080fd5b612a0e8582356020840161287a565b9150509250929050565b60008060408385031215612a2b57600080fd5b612a34836128f0565b946020939093013593505050565b60008060208385031215612a5557600080fd5b823567ffffffffffffffff80821115612a6d57600080fd5b818501915085601f830112612a8157600080fd5b813581811115612a9057600080fd5b8660208260051b8501011115612aa557600080fd5b60209290920196919550909350505050565b600060208284031215612ac957600080fd5b5035919050565b60008060408385031215612ae357600080fd5b82359150612971602084016128f0565b600060208284031215612b0557600080fd5b81356001600160e01b03198116811461098257600080fd5b60008060008060808587031215612b3357600080fd5b843567ffffffffffffffff80821115612b4b57600080fd5b612b578883890161290c565b95506020870135915080821115612b6d57600080fd5b50612b7a8782880161290c565b935050604085013560ff81168114612b9157600080fd5b9396929550929360600135925050565b60008251612bb3818460208701612db8565b9190910192915050565b7f416363657373436f6e74726f6c3a206163636f756e7420000000000000000000815260008351612bf5816017850160208801612db8565b7001034b99036b4b9b9b4b733903937b6329607d1b6017918401918201528351612c26816028840160208801612db8565b01602801949350505050565b6020815260008251806020840152612c51816040850160208701612db8565b601f01601f19169190910160400192915050565b6020808252602c908201527f46756e6374696f6e206d7573742062652063616c6c6564207468726f7567682060408201526b19195b1959d85d1958d85b1b60a21b606082015260800190565b6020808252602c908201527f46756e6374696f6e206d7573742062652063616c6c6564207468726f7567682060408201526b6163746976652070726f787960a01b606082015260800190565b6020808252602b908201527f496e697469616c697a61626c653a20636f6e7472616374206973206e6f74206960408201526a6e697469616c697a696e6760a81b606082015260800190565b60008219821115612d5b57612d5b612e4b565b500190565b600082612d7d57634e487b7160e01b600052601260045260246000fd5b500490565b6000816000190483118215151615612d9c57612d9c612e4b565b500290565b600082821015612db357612db3612e4b565b500390565b60005b83811015612dd3578181015183820152602001612dbb565b83811115610ae95750506000910152565b600081612df357612df3612e4b565b506000190190565b600181811c90821680612e0f57607f821691505b602082108114156127b357634e487b7160e01b600052602260045260246000fd5b6000600019821415612e4457612e44612e4b565b5060010190565b634e487b7160e01b600052601160045260246000fd5b634e487b7160e01b600052603260045260246000fd5b634e487b7160e01b600052604160045260246000fdfee1ac655ab58995133a870d1fd307ddc1d624c8ad919a09e67867a7a1483e439a548c7f0307ab2a7ea894e5c7e8c5353cc750bb9385ee2e945f189a9a83daa8eda76ace73a908083d89af9ff88e5b4f7cadb3591a80631063f68b695fda726db571840dc4906352362b0cdaf79870196c8e42acafade72d5d5a6d59291253ceb1f988e4fb62b8e14f4820fed03192306ddf4d7dbfa215595ba1c6ba4b76b369ee416464726573733a206c6f772d6c6576656c2064656c65676174652063616c6c206661696c6564356a809dfdea9198dd76fb76bf6d403ecf13ea675eb89e1eda2db2c4a4676a260d0a0ed3351c10a57d74a44b40c06e0946288e4e3816ac07bb89db2a755562e7ad6a6591fa308fe948065665239402780db8ed4a8c4e4e16c4d066bcaa05efc2ce108bcc5e0f50fe603649304cbbbd94de794a404db82d884c0afc9ba9328e61a26469706673582212207b2a2963d2b3d5c5932f50e61dafd24e2234fee3b34fce201e4c7c3b22eb497e64736f6c63430008060033",
  "linkReferences": {},
  "deployedLinkReferences": {}
}