{
  "_format": "hh-sol-artifact-1",
  "name": "BlacklistBurnSnapshotWhiteListTemplate",
  "initializer": "function initialize(string name_, string symbol_, uint8 decimals_, uint256 amount_)",
  "sourceName": "contracts/templates/BlacklistBurnSnapshotWhiteListTemplate.sol",
  "abi": [
    {
      "anonymous": false,
      "inputs": [
        {
          "indexed": false,
          "internalType": "address",
          "name": "previousAdmin",
          "type": "address"
        },
        {
          "indexed": false,
          "internalType": "address",
          "name": "newAdmin",
          "type": "address"
        }
      ],
      "name": "AdminChanged",
      "type": "event"
    },
    {
      "anonymous": false,
      "inputs": [
        {
          "indexed": true,
          "internalType": "address",
          "name": "owner",
          "type": "address"
        },
        {
          "indexed": true,
          "internalType": "address",
          "name": "spender",
          "type": "address"
        },
        {
          "indexed": false,
          "internalType": "uint256",
          "name": "value",
          "type": "uint256"
        }
      ],
      "name": "Approval",
      "type": "event"
    },
    {
      "anonymous": false,
      "inputs": [
        {
          "indexed": true,
          "internalType": "address",
          "name": "beacon",
          "type": "address"
        }
      ],
      "name": "BeaconUpgraded",
      "type": "event"
    },
    {
      "anonymous": false,
      "inputs": [
        {
          "indexed": false,
          "internalType": "address",
          "name": "account",
          "type": "address"
        }
      ],
      "name": "Paused",
      "type": "event"
    },
    {
      "anonymous": false,
      "inputs": [
        {
          "indexed": true,
          "internalType": "bytes32",
          "name": "role",
          "type": "bytes32"
        },
        {
          "indexed": true,
          "internalType": "bytes32",
          "name": "previousAdminRole",
          "type": "bytes32"
        },
        {
          "indexed": true,
          "internalType": "bytes32",
          "name": "newAdminRole",
          "type": "bytes32"
        }
      ],
      "name": "RoleAdminChanged",
      "type": "event"
    },
    {
      "anonymous": false,
      "inputs": [
        {
          "indexed": true,
          "internalType": "bytes32",
          "name": "role",
          "type": "bytes32"
        },
        {
          "indexed": true,
          "internalType": "address",
          "name": "account",
          "type": "address"
        },
        {
          "indexed": true,
          "internalType": "address",
          "name": "sender",
          "type": "address"
        }
      ],
      "name": "RoleGranted",
      "type": "event"
    },
    {
      "anonymous": false,
      "inputs": [
        {
          "indexed": true,
          "internalType": "bytes32",
          "name": "role",
          "type": "bytes32"
        },
        {
          "indexed": true,
          "internalType": "address",
          "name": "account",
          "type": "address"
        },
        {
          "indexed": true,
          "internalType": "address",
          "name": "sender",
          "type": "address"
        }
      ],
      "name": "RoleRevoked",
      "type": "event"
    },
    {
      "anonymous": false,
      "inputs": [
        {
          "indexed": false,
          "internalType": "uint256",
          "name": "id",
          "type": "uint256"
        }
      ],
      "name": "Snapshot",
      "type": "event"
    },
    {
      "anonymous": false,
      "inputs": [
        {
          "indexed": true,
          "internalType": "address",
          "name": "from",
          "type": "address"
        },
        {
          "indexed": true,
          "internalType": "address",
          "name": "to",
          "type": "address"
        },
        {
          "indexed": false,
          "internalType": "uint256",
          "name": "value",
          "type": "uint256"
        }
      ],
      "name": "Transfer",
      "type": "event"
    },
    {
      "anonymous": false,
      "inputs": [
        {
          "indexed": false,
          "internalType": "address",
          "name": "account",
          "type": "address"
        }
      ],
      "name": "Unpaused",
      "type": "event"
    },
    {
      "anonymous": false,
      "inputs": [
        {
          "indexed": true,
          "internalType": "address",
          "name": "implementation",
          "type": "address"
        }
      ],
      "name": "Upgraded",
      "type": "event"
    },
    {
      "inputs": [],
      "name": "BLACKLISTED_ROLE",
      "outputs": [
        {
          "internalType": "bytes32",
          "name": "",
          "type": "bytes32"
        }
      ],
      "stateMutability": "view",
      "type": "function"
    },
    {
      "inputs": [],
      "name": "BLACKLIST_MANAGER_ROLE",
      "outputs": [
        {
          "internalType": "bytes32",
          "name": "",
          "type": "bytes32"
        }
      ],
      "stateMutability": "view",
      "type": "function"
    },
    {
      "inputs": [],
      "name": "DEFAULT_ADMIN_ROLE",
      "outputs": [
        {
          "internalType": "bytes32",
          "name": "",
          "type": "bytes32"
        }
      ],
      "stateMutability": "view",
      "type": "function"
    },
    {
      "inputs": [],
      "name": "GOVERNANCE_ROLE",
      "outputs": [
        {
          "internalType": "bytes32",
          "name": "",
          "type": "bytes32"
        }
      ],
      "stateMutability": "view",
      "type": "function"
    },
    {
      "inputs": [],
      "name": "PAUSE_MANAGER_ROLE",
      "outputs": [
        {
          "internalType": "bytes32",
          "name": "",
          "type": "bytes32"
        }
      ],
      "stateMutability": "view",
      "type": "function"
    },
    {
      "inputs": [],
      "name": "UPGRADE_MANAGER_ROLE",
      "outputs": [
        {
          "internalType": "bytes32",
          "name": "",
          "type": "bytes32"
        }
      ],
      "stateMutability": "view",
      "type": "function"
    },
    {
      "inputs": [],
      "name": "WHITELISTED_FROM_ROLE",
      "outputs": [
        {
          "internalType": "bytes32",
          "name": "",
          "type": "bytes32"
        }
      ],
      "stateMutability": "view",
      "type": "function"
    },
    {
      "inputs": [],
      "name": "WHITELISTED_SENDER_ROLE",
      "outputs": [
        {
          "internalType": "bytes32",
          "name": "",
          "type": "bytes32"
        }
      ],
      "stateMutability": "view",
      "type": "function"
    },
    {
      "inputs": [
        {
          "internalType": "address[]",
          "name": "addresses",
          "type": "address[]"
        }
      ],
      "name": "addAddressesToBlacklist",
      "outputs": [],
      "stateMutability": "nonpayable",
      "type": "function"
    },
    {
      "inputs": [
        {
          "internalType": "address[]",
          "name": "addresses",
          "type": "address[]"
        }
      ],
      "name": "addAddressesToWhitelistFrom",
      "outputs": [],
      "stateMutability": "nonpayable",
      "type": "function"
    },
    {
      "inputs": [
        {
          "internalType": "address[]",
          "name": "addresses",
          "type": "address[]"
        }
      ],
      "name": "addAddressesToWhitelistSender",
      "outputs": [],
      "stateMutability": "nonpayable",
      "type": "function"
    },
    {
      "inputs": [
        {
          "internalType": "address",
          "name": "owner",
          "type": "address"
        },
        {
          "internalType": "address",
          "name": "spender",
          "type": "address"
        }
      ],
      "name": "allowance",
      "outputs": [
        {
          "internalType": "uint256",
          "name": "",
          "type": "uint256"
        }
      ],
      "stateMutability": "view",
      "type": "function"
    },
    {
      "inputs": [
        {
          "internalType": "address",
          "name": "spender",
          "type": "address"
        },
        {
          "internalType": "uint256",
          "name": "amount",
          "type": "uint256"
        }
      ],
      "name": "approve",
      "outputs": [
        {
          "internalType": "bool",
          "name": "",
          "type": "bool"
        }
      ],
      "stateMutability": "nonpayable",
      "type": "function"
    },
    {
      "inputs": [
        {
          "internalType": "address",
          "name": "account",
          "type": "address"
        }
      ],
      "name": "balanceOf",
      "outputs": [
        {
          "internalType": "uint256",
          "name": "",
          "type": "uint256"
        }
      ],
      "stateMutability": "view",
      "type": "function"
    },
    {
      "inputs": [
        {
          "internalType": "address",
          "name": "account",
          "type": "address"
        },
        {
          "internalType": "uint256",
          "name": "snapshotId",
          "type": "uint256"
        }
      ],
      "name": "balanceOfAt",
      "outputs": [
        {
          "internalType": "uint256",
          "name": "",
          "type": "uint256"
        }
      ],
      "stateMutability": "view",
      "type": "function"
    },
    {
      "inputs": [
        {
          "internalType": "uint256",
          "name": "amount",
          "type": "uint256"
        }
      ],
      "name": "burn",
      "outputs": [],
      "stateMutability": "nonpayable",
      "type": "function"
    },
    {
      "inputs": [
        {
          "internalType": "address",
          "name": "account",
          "type": "address"
        },
        {
          "internalType": "uint256",
          "name": "amount",
          "type": "uint256"
        }
      ],
      "name": "burnFrom",
      "outputs": [],
      "stateMutability": "nonpayable",
      "type": "function"
    },
    {
      "inputs": [],
      "name": "decimals",
      "outputs": [
        {
          "internalType": "uint8",
          "name": "",
          "type": "uint8"
        }
      ],
      "stateMutability": "view",
      "type": "function"
    },
    {
      "inputs": [
        {
          "internalType": "address",
          "name": "spender",
          "type": "address"
        },
        {
          "internalType": "uint256",
          "name": "subtractedValue",
          "type": "uint256"
        }
      ],
      "name": "decreaseAllowance",
      "outputs": [
        {
          "internalType": "bool",
          "name": "",
          "type": "bool"
        }
      ],
      "stateMutability": "nonpayable",
      "type": "function"
    },
    {
      "inputs": [],
      "name": "getCurrentSnapshotId",
      "outputs": [
        {
          "internalType": "uint256",
          "name": "",
          "type": "uint256"
        }
      ],
      "stateMutability": "view",
      "type": "function"
    },
    {
      "inputs": [],
      "name": "getImplementation",
      "outputs": [
        {
          "internalType": "address",
          "name": "",
          "type": "address"
        }
      ],
      "stateMutability": "view",
      "type": "function"
    },
    {
      "inputs": [
        {
          "internalType": "bytes32",
          "name": "role",
          "type": "bytes32"
        }
      ],
      "name": "getRoleAdmin",
      "outputs": [
        {
          "internalType": "bytes32",
          "name": "",
          "type": "bytes32"
        }
      ],
      "stateMutability": "view",
      "type": "function"
    },
    {
      "inputs": [
        {
          "internalType": "bytes32",
          "name": "role",
          "type": "bytes32"
        },
        {
          "internalType": "address",
          "name": "account",
          "type": "address"
        }
      ],
      "name": "grantRole",
      "outputs": [],
      "stateMutability": "nonpayable",
      "type": "function"
    },
    {
      "inputs": [
        {
          "internalType": "bytes32",
          "name": "role",
          "type": "bytes32"
        },
        {
          "internalType": "address",
          "name": "account",
          "type": "address"
        }
      ],
      "name": "hasRole",
      "outputs": [
        {
          "internalType": "bool",
          "name": "",
          "type": "bool"
        }
      ],
      "stateMutability": "view",
      "type": "function"
    },
    {
      "inputs": [
        {
          "internalType": "address",
          "name": "spender",
          "type": "address"
        },
        {
          "internalType": "uint256",
          "name": "addedValue",
          "type": "uint256"
        }
      ],
      "name": "increaseAllowance",
      "outputs": [
        {
          "internalType": "bool",
          "name": "",
          "type": "bool"
        }
      ],
      "stateMutability": "nonpayable",
      "type": "function"
    },
    {
      "inputs": [
        {
          "internalType": "string",
          "name": "name_",
          "type": "string"
        },
        {
          "internalType": "string",
          "name": "symbol_",
          "type": "string"
        },
        {
          "internalType": "uint8",
          "name": "decimals_",
          "type": "uint8"
        },
        {
          "internalType": "uint256",
          "name": "amount_",
          "type": "uint256"
        }
      ],
      "name": "initialize",
      "outputs": [],
      "stateMutability": "nonpayable",
      "type": "function"
    },
    {
      "inputs": [],
      "name": "name",
      "outputs": [
        {
          "internalType": "string",
          "name": "",
          "type": "string"
        }
      ],
      "stateMutability": "view",
      "type": "function"
    },
    {
      "inputs": [],
      "name": "pause",
      "outputs": [],
      "stateMutability": "nonpayable",
      "type": "function"
    },
    {
      "inputs": [],
      "name": "paused",
      "outputs": [
        {
          "internalType": "bool",
          "name": "",
          "type": "bool"
        }
      ],
      "stateMutability": "view",
      "type": "function"
    },
    {
      "inputs": [
        {
          "internalType": "address",
          "name": "implementationAddress",
          "type": "address"
        }
      ],
      "name": "proposeNewImplementation",
      "outputs": [],
      "stateMutability": "nonpayable",
      "type": "function"
    },
    {
      "inputs": [
        {
          "internalType": "address[]",
          "name": "addresses",
          "type": "address[]"
        }
      ],
      "name": "removeAddressesFromBlacklist",
      "outputs": [],
      "stateMutability": "nonpayable",
      "type": "function"
    },
    {
      "inputs": [
        {
          "internalType": "address[]",
          "name": "addresses",
          "type": "address[]"
        }
      ],
      "name": "removeAddressesFromWhitelistFrom",
      "outputs": [],
      "stateMutability": "nonpayable",
      "type": "function"
    },
    {
      "inputs": [
        {
          "internalType": "address[]",
          "name": "addresses",
          "type": "address[]"
        }
      ],
      "name": "removeAddressesFromWhitelistSender",
      "outputs": [],
      "stateMutability": "nonpayable",
      "type": "function"
    },
    {
      "inputs": [
        {
          "internalType": "bytes32",
          "name": "role",
          "type": "bytes32"
        },
        {
          "internalType": "address",
          "name": "account",
          "type": "address"
        }
      ],
      "name": "renounceRole",
      "outputs": [],
      "stateMutability": "nonpayable",
      "type": "function"
    },
    {
      "inputs": [
        {
          "internalType": "bytes32",
          "name": "role",
          "type": "bytes32"
        },
        {
          "internalType": "address",
          "name": "account",
          "type": "address"
        }
      ],
      "name": "revokeRole",
      "outputs": [],
      "stateMutability": "nonpayable",
      "type": "function"
    },
    {
      "inputs": [],
      "name": "snapshot",
      "outputs": [],
      "stateMutability": "nonpayable",
      "type": "function"
    },
    {
      "inputs": [
        {
          "internalType": "bytes4",
          "name": "interfaceId",
          "type": "bytes4"
        }
      ],
      "name": "supportsInterface",
      "outputs": [
        {
          "internalType": "bool",
          "name": "",
          "type": "bool"
        }
      ],
      "stateMutability": "view",
      "type": "function"
    },
    {
      "inputs": [],
      "name": "symbol",
      "outputs": [
        {
          "internalType": "string",
          "name": "",
          "type": "string"
        }
      ],
      "stateMutability": "view",
      "type": "function"
    },
    {
      "inputs": [],
      "name": "totalSupply",
      "outputs": [
        {
          "internalType": "uint256",
          "name": "",
          "type": "uint256"
        }
      ],
      "stateMutability": "view",
      "type": "function"
    },
    {
      "inputs": [
        {
          "internalType": "uint256",
          "name": "snapshotId",
          "type": "uint256"
        }
      ],
      "name": "totalSupplyAt",
      "outputs": [
        {
          "internalType": "uint256",
          "name": "",
          "type": "uint256"
        }
      ],
      "stateMutability": "view",
      "type": "function"
    },
    {
      "inputs": [
        {
          "internalType": "address",
          "name": "recipient",
          "type": "address"
        },
        {
          "internalType": "uint256",
          "name": "amount",
          "type": "uint256"
        }
      ],
      "name": "transfer",
      "outputs": [
        {
          "internalType": "bool",
          "name": "",
          "type": "bool"
        }
      ],
      "stateMutability": "nonpayable",
      "type": "function"
    },
    {
      "inputs": [
        {
          "internalType": "address",
          "name": "sender",
          "type": "address"
        },
        {
          "internalType": "address",
          "name": "recipient",
          "type": "address"
        },
        {
          "internalType": "uint256",
          "name": "amount",
          "type": "uint256"
        }
      ],
      "name": "transferFrom",
      "outputs": [
        {
          "internalType": "bool",
          "name": "",
          "type": "bool"
        }
      ],
      "stateMutability": "nonpayable",
      "type": "function"
    },
    {
      "inputs": [],
      "name": "unpause",
      "outputs": [],
      "stateMutability": "nonpayable",
      "type": "function"
    },
    {
      "inputs": [
        {
          "internalType": "address",
          "name": "newImplementation",
          "type": "address"
        }
      ],
      "name": "upgradeTo",
      "outputs": [],
      "stateMutability": "nonpayable",
      "type": "function"
    },
    {
      "inputs": [
        {
          "internalType": "address",
          "name": "newImplementation",
          "type": "address"
        },
        {
          "internalType": "bytes",
          "name": "data",
          "type": "bytes"
        }
      ],
      "name": "upgradeToAndCall",
      "outputs": [],
      "stateMutability": "payable",
      "type": "function"
    }
  ],
  "bytecode": "0x60a06040523060601b60805234801561001757600080fd5b5060805160601c61324561004b60003960008181610b6401528181610ba401528181610d760152610db601526132456000f3fe6080604052600436106102725760003560e01c806362b199c51161014f578063a217fddf116100c1578063ca73419e1161007a578063ca73419e14610765578063d547741f14610785578063d84f91e8146107a5578063dd62ed3e146107c7578063f36c8f5c1461080d578063f834c5021461082f57600080fd5b8063a217fddf146106a1578063a457c2d7146106b6578063a9059cbb146106d6578063aa74a34a146106f6578063aaf10f4214610718578063c233f3b71461074557600080fd5b806379cc67901161011357806379cc6790146106025780638456cb591461062257806391d148541461063757806395d89b41146106575780639711715a1461066c578063981b24d01461068157600080fd5b806362b199c514610548578063685ed81a1461056a5780636e79a1c01461058a57806370a08231146105aa578063731ce8fc146105e057600080fd5b80633659cfe6116101e857806343ffa64e116101ac57806343ffa64e1461049957806347757fb6146104bb5780634ee2cd7e146104db5780634f1ef286146104fb5780635439ad861461050e5780635c975abb1461052357600080fd5b80633659cfe61461040257806339509351146104225780633f4ba83a14610442578063410b24241461045757806342966c681461047957600080fd5b8063248a9ca31161023a578063248a9ca31461032d578063253279ad1461035d5780632f2ff15d1461037f578063313ce5671461039f57806332258794146103c257806336568abe146103e257600080fd5b806301ffc9a71461027757806306fdde03146102ac578063095ea7b3146102ce57806318160ddd146102ee57806323b872dd1461030d575b600080fd5b34801561028357600080fd5b50610297610292366004612d2e565b61084f565b60405190151581526020015b60405180910390f35b3480156102b857600080fd5b506102c1610886565b6040516102a39190612e6d565b3480156102da57600080fd5b506102976102e9366004612c53565b610918565b3480156102fa57600080fd5b506067545b6040519081526020016102a3565b34801561031957600080fd5b50610297610328366004612bb5565b61092e565b34801561033957600080fd5b506102ff610348366004612cf2565b600090815260fb602052604090206001015490565b34801561036957600080fd5b5061037d610378366004612d58565b6109df565b005b34801561038b57600080fd5b5061037d61039a366004612d0b565b610ab8565b3480156103ab57600080fd5b506101605460405160ff90911681526020016102a3565b3480156103ce57600080fd5b5061037d6103dd366004612c7d565b610ad0565b3480156103ee57600080fd5b5061037d6103fd366004612d0b565b610b45565b34801561040e57600080fd5b5061037d61041d366004612b67565b610b59565b34801561042e57600080fd5b5061029761043d366004612c53565b610c22565b34801561044e57600080fd5b5061037d610c5e565b34801561046357600080fd5b506102ff60008051602061314983398151915281565b34801561048557600080fd5b5061037d610494366004612cf2565b610c7f565b3480156104a557600080fd5b506102ff60008051602061310983398151915281565b3480156104c757600080fd5b5061037d6104d6366004612b67565b610c89565b3480156104e757600080fd5b506102ff6104f6366004612c53565b610cc6565b61037d610509366004612bf1565b610d6b565b34801561051a57600080fd5b506102ff610e21565b34801561052f57600080fd5b506000805160206131d08339815191525460ff16610297565b34801561055457600080fd5b506102ff6000805160206130e983398151915281565b34801561057657600080fd5b5061037d610585366004612c7d565b610e3e565b34801561059657600080fd5b5061037d6105a5366004612c7d565b610ead565b3480156105b657600080fd5b506102ff6105c5366004612b67565b6001600160a01b031660009081526065602052604090205490565b3480156105ec57600080fd5b506102ff6000805160206131f083398151915281565b34801561060e57600080fd5b5061037d61061d366004612c53565b610f07565b34801561062e57600080fd5b5061037d610f8d565b34801561064357600080fd5b50610297610652366004612d0b565b610fae565b34801561066357600080fd5b506102c1610fd9565b34801561067857600080fd5b5061037d610fe8565b34801561068d57600080fd5b506102ff61069c366004612cf2565b610ff0565b3480156106ad57600080fd5b506102ff600081565b3480156106c257600080fd5b506102976106d1366004612c53565b61105b565b3480156106e257600080fd5b506102976106f1366004612c53565b6110f4565b34801561070257600080fd5b506102ff6000805160206130c983398151915281565b34801561072457600080fd5b5061072d611101565b6040516001600160a01b0390911681526020016102a3565b34801561075157600080fd5b5061037d610760366004612c7d565b61110b565b34801561077157600080fd5b5061037d610780366004612c7d565b611165565b34801561079157600080fd5b5061037d6107a0366004612d0b565b6111bf565b3480156107b157600080fd5b506102ff60008051602061319083398151915281565b3480156107d357600080fd5b506102ff6107e2366004612b82565b6001600160a01b03918216600090815260666020908152604080832093909416825291909152205490565b34801561081957600080fd5b506102ff60008051602061312983398151915281565b34801561083b57600080fd5b5061037d61084a366004612c7d565b6111e5565b60006001600160e01b03198216637965db0b60e01b148061088057506301ffc9a760e01b6001600160e01b03198316145b92915050565b60606068805461089590613036565b80601f01602080910402602001604051908101604052809291908181526020018280546108c190613036565b801561090e5780601f106108e35761010080835404028352916020019161090e565b820191906000526020600020905b8154815290600101906020018083116108f157829003601f168201915b5050505050905090565b600061092533848461123f565b50600192915050565b600061093b848484611363565b6001600160a01b0384166000908152606660209081526040808320338452909152902054828110156109c55760405162461bcd60e51b815260206004820152602860248201527f45524332303a207472616e7366657220616d6f756e74206578636565647320616044820152676c6c6f77616e636560c01b60648201526084015b60405180910390fd5b6109d2853385840361123f565b60019150505b9392505050565b600054610100900460ff166109fa5760005460ff16156109fe565b303b155b610a615760405162461bcd60e51b815260206004820152602e60248201527f496e697469616c697a61626c653a20636f6e747261637420697320616c72656160448201526d191e481a5b9a5d1a585b1a5e995960921b60648201526084016109bc565b600054610100900460ff16158015610a83576000805461ffff19166101011790555b610a8f8585858561153c565b610a9761157f565b610a9f6115ce565b8015610ab1576000805461ff00191690555b5050505050565b610ac28282611641565b610acc82826116d0565b5050565b600080516020613149833981519152610ae981336116f6565b60005b82811015610b3f57610b2d6000805160206130e9833981519152858584818110610b1857610b1861309c565b90506020020160208101906107a09190612b67565b80610b378161306b565b915050610aec565b50505050565b610b4f828261175a565b610acc82826117c2565b306001600160a01b037f0000000000000000000000000000000000000000000000000000000000000000161415610ba25760405162461bcd60e51b81526004016109bc90612ea0565b7f00000000000000000000000000000000000000000000000000000000000000006001600160a01b0316610bd461183c565b6001600160a01b031614610bfa5760405162461bcd60e51b81526004016109bc90612eec565b610c038161186a565b60408051600080825260208201909252610c1f918391906118ec565b50565b3360008181526066602090815260408083206001600160a01b03871684529091528120549091610925918590610c59908690612f83565b61123f565b600080516020613190833981519152610c7781336116f6565b610c1f611a30565b610c1f3382611add565b600080516020613129833981519152610ca281336116f6565b5061012d80546001600160a01b0319166001600160a01b0392909216919091179055565b604080516001600160a01b0384166020808301919091527ffbf1c7065455eb4486649b8540f24ef2dd4ebedf2aa423f0039d17c2c75dea15828401528251808303840181526060909201909252805191012060009081610d27826001612f83565b9050600080610d37868585611c37565b9150915081610d5e576001600160a01b038716600090815260656020526040902054610d60565b805b979650505050505050565b306001600160a01b037f0000000000000000000000000000000000000000000000000000000000000000161415610db45760405162461bcd60e51b81526004016109bc90612ea0565b7f00000000000000000000000000000000000000000000000000000000000000006001600160a01b0316610de661183c565b6001600160a01b031614610e0c5760405162461bcd60e51b81526004016109bc90612eec565b610e158261186a565b610acc828260016118ec565b6000610e396000805160206131b08339815191525490565b905090565b600080516020613190833981519152610e5781336116f6565b60005b82811015610b3f57610e9b6000805160206130c9833981519152858584818110610e8657610e8661309c565b905060200201602081019061039a9190612b67565b80610ea58161306b565b915050610e5a565b600080516020613190833981519152610ec681336116f6565b60005b82811015610b3f57610ef56000805160206131f0833981519152858584818110610b1857610b1861309c565b80610eff8161306b565b915050610ec9565b6000610f1383336107e2565b905081811015610f715760405162461bcd60e51b8152602060048201526024808201527f45524332303a206275726e20616d6f756e74206578636565647320616c6c6f77604482015263616e636560e01b60648201526084016109bc565b610f7e833384840361123f565b610f888383611add565b505050565b600080516020613190833981519152610fa681336116f6565b610c1f611d22565b600091825260fb602090815260408084206001600160a01b0393909316845291905290205460ff1690565b60606069805461089590613036565b610c1f611db6565b6000806000611040847f286a9db37a0f8ddcbcee127c9f4f56031230f49cb46786f87e166d552e11f67e7ffcaa8bb100d3c5b627eac0369cc1d2778dbeffa2993d08f039fb27795729e9a5611c37565b915091508161105157606754611053565b805b949350505050565b3360009081526066602090815260408083206001600160a01b0386168452909152812054828110156110dd5760405162461bcd60e51b815260206004820152602560248201527f45524332303a2064656372656173656420616c6c6f77616e63652062656c6f77604482015264207a65726f60d81b60648201526084016109bc565b6110ea338585840361123f565b5060019392505050565b6000610925338484611363565b6000610e3961183c565b60008051602061319083398151915261112481336116f6565b60005b82811015610b3f576111536000805160206130c9833981519152858584818110610b1857610b1861309c565b8061115d8161306b565b915050611127565b60008051602061314983398151915261117e81336116f6565b60005b82811015610b3f576111ad6000805160206130e9833981519152858584818110610e8657610e8661309c565b806111b78161306b565b915050611181565b600082815260fb60205260409020600101546111db81336116f6565b610f888383611e26565b6000805160206131908339815191526111fe81336116f6565b60005b82811015610b3f5761122d6000805160206131f0833981519152858584818110610e8657610e8661309c565b806112378161306b565b915050611201565b6001600160a01b0383166112a15760405162461bcd60e51b8152602060048201526024808201527f45524332303a20617070726f76652066726f6d20746865207a65726f206164646044820152637265737360e01b60648201526084016109bc565b6001600160a01b0382166113025760405162461bcd60e51b815260206004820152602260248201527f45524332303a20617070726f766520746f20746865207a65726f206164647265604482015261737360f01b60648201526084016109bc565b6001600160a01b0383811660008181526066602090815260408083209487168084529482529182902085905590518481527f8c5be1e5ebec7d5bd14f71427d1e84f3dd0314c0f7b2291e5b200ac8c7c3b925910160405180910390a3505050565b6001600160a01b0383166113c75760405162461bcd60e51b815260206004820152602560248201527f45524332303a207472616e736665722066726f6d20746865207a65726f206164604482015264647265737360d81b60648201526084016109bc565b6001600160a01b0382166114295760405162461bcd60e51b815260206004820152602360248201527f45524332303a207472616e7366657220746f20746865207a65726f206164647260448201526265737360e81b60648201526084016109bc565b611434838383611e8d565b6001600160a01b038316600090815260656020526040902054818110156114ac5760405162461bcd60e51b815260206004820152602660248201527f45524332303a207472616e7366657220616d6f756e7420657863656564732062604482015265616c616e636560d01b60648201526084016109bc565b6001600160a01b038085166000908152606560205260408082208585039055918516815290812080548492906114e3908490612f83565b92505081905550826001600160a01b0316846001600160a01b03167fddf252ad1be2c89b69c2b068fc378daa952ba7f163c4a11628f55a4df523b3ef8460405161152f91815260200190565b60405180910390a3610b3f565b600054610100900460ff166115635760405162461bcd60e51b81526004016109bc90612f38565b61156b611ea3565b6115758484611efa565b610b3f8282611f48565b600054610100900460ff166115a65760405162461bcd60e51b81526004016109bc90612f38565b6115cc6000805160206130e9833981519152600080516020613149833981519152611f89565b565b600054610100900460ff166115f55760405162461bcd60e51b81526004016109bc90612f38565b61161b6000805160206131f0833981519152600080516020613190833981519152611f89565b6115cc6000805160206130c9833981519152600080516020613190833981519152611f89565b60008051602061314983398151915282148061165b575081155b15610acc576116786000805160206130e983398151915282610fae565b15610acc5760405162461bcd60e51b815260206004820152602260248201527f63616e206e6f742061737369676e20726f6c6520746f20626c61636b6c697374604482015261195960f21b60648201526084016109bc565b600082815260fb60205260409020600101546116ec81336116f6565b610f888383611fd4565b6117008282610fae565b610acc57611718816001600160a01b0316601461205a565b61172383602061205a565b604051602001611734929190612df8565b60408051601f198184030181529082905262461bcd60e51b82526109bc91600401612e6d565b6000805160206130e9833981519152821415610acc5760405162461bcd60e51b815260206004820152602160248201527f43616e206e6f742072656e6f756e636520626c61636b6c697374656420726f6c6044820152606560f81b60648201526084016109bc565b6001600160a01b03811633146118325760405162461bcd60e51b815260206004820152602f60248201527f416363657373436f6e74726f6c3a2063616e206f6e6c792072656e6f756e636560448201526e103937b632b9903337b91039b2b63360891b60648201526084016109bc565b610acc8282611e26565b7f360894a13ba1a3210667c828492db98dca3e2076cc3735a920a3ca505d382bbc546001600160a01b031690565b61188260008051602061312983398151915233610fae565b806118a057506118a060008051602061310983398151915233610fae565b610c1f5760405162461bcd60e51b815260206004820152601d60248201527f4552524f523a2041646472657373206e6f7420617574686f72697a656400000060448201526064016109bc565b60006118f661183c565b9050611901846121f6565b60008351118061190e5750815b1561191f5761191d848461229b565b505b7f4910fdfa16fed3260ed0e7147f7cc6da11a60208b5b9406d12a635614ffd9143805460ff16610ab157805460ff191660011781556040516001600160a01b038316602482015261199e90869060440160408051601f198184030181529190526020810180516001600160e01b0316631b2ce7f360e11b17905261229b565b50805460ff191681556119af61183c565b6001600160a01b0316826001600160a01b031614611a275760405162461bcd60e51b815260206004820152602f60248201527f45524331393637557067726164653a207570677261646520627265616b73206660448201526e75727468657220757067726164657360881b60648201526084016109bc565b610ab185612386565b6000805160206131d08339815191525460ff16611a865760405162461bcd60e51b815260206004820152601460248201527314185d5cd8589b194e881b9bdd081c185d5cd95960621b60448201526064016109bc565b6000805160206131d0833981519152805460ff191690557f5db9ee0a495bf2e6ff9c91a7834c1ba4fdd244a5e8aa4e537bd38aeae4b073aa335b6040516001600160a01b03909116815260200160405180910390a1565b6001600160a01b038216611b3d5760405162461bcd60e51b815260206004820152602160248201527f45524332303a206275726e2066726f6d20746865207a65726f206164647265736044820152607360f81b60648201526084016109bc565b611b4982600083611e8d565b6001600160a01b03821660009081526065602052604090205481811015611bbd5760405162461bcd60e51b815260206004820152602260248201527f45524332303a206275726e20616d6f756e7420657863656564732062616c616e604482015261636560f01b60648201526084016109bc565b6001600160a01b0383166000908152606560205260408120838303905560678054849290611bec908490612fdc565b90915550506040518281526000906001600160a01b038516907fddf252ad1be2c89b69c2b068fc378daa952ba7f163c4a11628f55a4df523b3ef9060200160405180910390a3505050565b60008060008511611c835760405162461bcd60e51b815260206004820152601660248201527504552433230536e617073686f743a20696420697320360541b60448201526064016109bc565b6000805160206131b083398151915254851115611ce25760405162461bcd60e51b815260206004820152601d60248201527f4552433230536e617073686f743a206e6f6e6578697374656e7420696400000060448201526064016109bc565b6000611cee85876123c6565b90508454811415611d06576000809250925050611d1a565b6001611d128583612465565b549093509150505b935093915050565b6000805160206131d08339815191525460ff1615611d755760405162461bcd60e51b815260206004820152601060248201526f14185d5cd8589b194e881c185d5cd95960821b60448201526064016109bc565b6000805160206131d0833981519152805460ff191660011790557f62e78cea01bee320cd4e420270b5ea74000d11b0c9f74754ebdbfc544b05a25833611ac0565b600060016000805160206131b08339815191528054600090611dd9908490612f83565b90915550506000805160206131b0833981519152546040518181527f8030e83b04d87bef53480e26263266d6ca66863aa8506aca6f2559d18aa1cb679060200160405180910390a1919050565b611e308282610fae565b15610acc57600082815260fb602090815260408083206001600160a01b0385168085529252808320805460ff1916905551339285917ff6391f5c32d9c69d2a47ea670b442974b53935d1edc7fd64eb21e047a839171b9190a45050565b611e988383836124e4565b610f88838383612505565b600054610100900460ff16611eca5760405162461bcd60e51b81526004016109bc90612f38565b611ed261254d565b611eda61254d565b611ee261254d565b611eea61254d565b611ef261254d565b6115cc612574565b600054610100900460ff16611f215760405162461bcd60e51b81526004016109bc90612f38565b8151611f34906068906020850190612a1c565b508051610f88906069906020840190612a1c565b600054610100900460ff16611f6f5760405162461bcd60e51b81526004016109bc90612f38565b610160805460ff191660ff8416179055610acc33826125fc565b600082815260fb6020526040808220600101805490849055905190918391839186917fbd79b86ffe0ab8e8776151514217cd7cacd52c909f66475c3af44e129f0b00ff9190a4505050565b611fde8282610fae565b610acc57600082815260fb602090815260408083206001600160a01b03851684529091529020805460ff191660011790556120163390565b6001600160a01b0316816001600160a01b0316837f2f8788117e7eff1d82e926ec794901d17c78024a50270940304540a733656f0d60405160405180910390a45050565b60606000612069836002612fbd565b612074906002612f83565b67ffffffffffffffff81111561208c5761208c6130b2565b6040519080825280601f01601f1916602001820160405280156120b6576020820181803683370190505b509050600360fc1b816000815181106120d1576120d161309c565b60200101906001600160f81b031916908160001a905350600f60fb1b816001815181106121005761210061309c565b60200101906001600160f81b031916908160001a9053506000612124846002612fbd565b61212f906001612f83565b90505b60018111156121a7576f181899199a1a9b1b9c1cb0b131b232b360811b85600f16601081106121635761216361309c565b1a60f81b8282815181106121795761217961309c565b60200101906001600160f81b031916908160001a90535060049490941c936121a08161301f565b9050612132565b5083156109d85760405162461bcd60e51b815260206004820181905260248201527f537472696e67733a20686578206c656e67746820696e73756666696369656e7460448201526064016109bc565b803b61225a5760405162461bcd60e51b815260206004820152602d60248201527f455243313936373a206e657720696d706c656d656e746174696f6e206973206e60448201526c1bdd08184818dbdb9d1c9858dd609a1b60648201526084016109bc565b7f360894a13ba1a3210667c828492db98dca3e2076cc3735a920a3ca505d382bbc80546001600160a01b0319166001600160a01b0392909216919091179055565b6060823b6122fa5760405162461bcd60e51b815260206004820152602660248201527f416464726573733a2064656c65676174652063616c6c20746f206e6f6e2d636f6044820152651b9d1c9858dd60d21b60648201526084016109bc565b600080846001600160a01b0316846040516123159190612ddc565b600060405180830381855af49150503d8060008114612350576040519150601f19603f3d011682016040523d82523d6000602084013e612355565b606091505b509150915061237d8282604051806060016040528060278152602001613169602791396126e7565b95945050505050565b61238f816121f6565b6040516001600160a01b038216907fbc7cd75a20ee27fd9adebab32041f755214dbc6bffa90cc0225b39da2e5c2d3b90600090a250565b81546000908190806123dd57600092505050610880565b808210156124215760006123f18383612720565b9050846123fe8783612465565b54111561240d5780915061241b565b612418816001612f83565b92505b506123dd565b6000821180156124445750836124418661243c600186612fdc565b612465565b54145b1561245d57612454600183612fdc565b92505050610880565b509050610880565b6000825482106124ad5760405162461bcd60e51b815260206004820152601360248201527211549493d48e8813dd5d081bd988189bdd5b99606a1b60448201526064016109bc565b81836040516020016124c191815260200190565b6040516020818303038152906040528051906020012060001c6109d89190612f83565b6124ef838383611e98565b6124fa83838361273b565b610f888383836127be565b6001600160a01b0383166125245761251c82612816565b610f886128a0565b6001600160a01b03821661253b5761251c83612816565b61254483612816565b610f8882612816565b600054610100900460ff166115cc5760405162461bcd60e51b81526004016109bc90612f38565b600054610100900460ff1661259b5760405162461bcd60e51b81526004016109bc90612f38565b6125a66000336128ee565b6125be600080516020613129833981519152336128ee565b6125d6600080516020613109833981519152336128ee565b6115cc600080516020613109833981519152600080516020613129833981519152611f89565b6001600160a01b0382166126525760405162461bcd60e51b815260206004820152601f60248201527f45524332303a206d696e7420746f20746865207a65726f20616464726573730060448201526064016109bc565b61265e60008383611e8d565b80606760008282546126709190612f83565b90915550506001600160a01b0382166000908152606560205260408120805483929061269d908490612f83565b90915550506040518181526001600160a01b038316906000907fddf252ad1be2c89b69c2b068fc378daa952ba7f163c4a11628f55a4df523b3ef9060200160405180910390a35050565b606083156126f65750816109d8565b8251156127065782518084602001fd5b8160405162461bcd60e51b81526004016109bc9190612e6d565b600061272f6002848418612f9b565b6109d890848416612f83565b6000805160206131d08339815191525460ff16158061275f575061275f83336128f8565b610f885760405162461bcd60e51b815260206004820152602a60248201527f45524332305061757361626c653a20746f6b656e207472616e736665722077686044820152691a5b19481c185d5cd95960b21b60648201526084016109bc565b6127c9338484612930565b15610f885760405162461bcd60e51b815260206004820152601a60248201527f4552524f523a204164647265737320426c61636b6c697374656400000000000060448201526064016109bc565b604080516001600160a01b0383166020808301919091527ffbf1c7065455eb4486649b8540f24ef2dd4ebedf2aa423f0039d17c2c75dea1582840152825180830384018152606090920190925280519101206000612875826001612f83565b9050610f88828261289b866001600160a01b031660009081526065602052604090205490565b612986565b6115cc7f286a9db37a0f8ddcbcee127c9f4f56031230f49cb46786f87e166d552e11f67e7ffcaa8bb100d3c5b627eac0369cc1d2778dbeffa2993d08f039fb27795729e9a561289b60675490565b610acc8282611fd4565b60006129126000805160206131f083398151915284610fae565b806109d857506109d86000805160206130c983398151915283610fae565b600061294a6000805160206130e983398151915284610fae565b8061296857506129686000805160206130e983398151915285610fae565b8061105357506110536000805160206130e983398151915283610fae565b600061299e6000805160206131b08339815191525490565b9050806129aa856129c4565b1015610b3f576129ba84826129f4565b610b3f83836129f4565b8054600090806129d75750600092915050565b6129e68361243c600184612fdc565b549392505050565b50919050565b81546001836000612a058385612f83565b90915550829050612a168483612465565b55505050565b828054612a2890613036565b90600052602060002090601f016020900481019282612a4a5760008555612a90565b82601f10612a6357805160ff1916838001178555612a90565b82800160010185558215612a90579182015b82811115612a90578251825591602001919060010190612a75565b50612a9c929150612aa0565b5090565b5b80821115612a9c5760008155600101612aa1565b600067ffffffffffffffff80841115612ad057612ad06130b2565b604051601f8501601f19908116603f01168101908282118183101715612af857612af86130b2565b81604052809350858152868686011115612b1157600080fd5b858560208301376000602087830101525050509392505050565b80356001600160a01b0381168114612b4257600080fd5b919050565b600082601f830112612b5857600080fd5b6109d883833560208501612ab5565b600060208284031215612b7957600080fd5b6109d882612b2b565b60008060408385031215612b9557600080fd5b612b9e83612b2b565b9150612bac60208401612b2b565b90509250929050565b600080600060608486031215612bca57600080fd5b612bd384612b2b565b9250612be160208501612b2b565b9150604084013590509250925092565b60008060408385031215612c0457600080fd5b612c0d83612b2b565b9150602083013567ffffffffffffffff811115612c2957600080fd5b8301601f81018513612c3a57600080fd5b612c4985823560208401612ab5565b9150509250929050565b60008060408385031215612c6657600080fd5b612c6f83612b2b565b946020939093013593505050565b60008060208385031215612c9057600080fd5b823567ffffffffffffffff80821115612ca857600080fd5b818501915085601f830112612cbc57600080fd5b813581811115612ccb57600080fd5b8660208260051b8501011115612ce057600080fd5b60209290920196919550909350505050565b600060208284031215612d0457600080fd5b5035919050565b60008060408385031215612d1e57600080fd5b82359150612bac60208401612b2b565b600060208284031215612d4057600080fd5b81356001600160e01b0319811681146109d857600080fd5b60008060008060808587031215612d6e57600080fd5b843567ffffffffffffffff80821115612d8657600080fd5b612d9288838901612b47565b95506020870135915080821115612da857600080fd5b50612db587828801612b47565b935050604085013560ff81168114612dcc57600080fd5b9396929550929360600135925050565b60008251612dee818460208701612ff3565b9190910192915050565b7f416363657373436f6e74726f6c3a206163636f756e7420000000000000000000815260008351612e30816017850160208801612ff3565b7001034b99036b4b9b9b4b733903937b6329607d1b6017918401918201528351612e61816028840160208801612ff3565b01602801949350505050565b6020815260008251806020840152612e8c816040850160208701612ff3565b601f01601f19169190910160400192915050565b6020808252602c908201527f46756e6374696f6e206d7573742062652063616c6c6564207468726f7567682060408201526b19195b1959d85d1958d85b1b60a21b606082015260800190565b6020808252602c908201527f46756e6374696f6e206d7573742062652063616c6c6564207468726f7567682060408201526b6163746976652070726f787960a01b606082015260800190565b6020808252602b908201527f496e697469616c697a61626c653a20636f6e7472616374206973206e6f74206960408201526a6e697469616c697a696e6760a81b606082015260800190565b60008219821115612f9657612f96613086565b500190565b600082612fb857634e487b7160e01b600052601260045260246000fd5b500490565b6000816000190483118215151615612fd757612fd7613086565b500290565b600082821015612fee57612fee613086565b500390565b60005b8381101561300e578181015183820152602001612ff6565b83811115610b3f5750506000910152565b60008161302e5761302e613086565b506000190190565b600181811c9082168061304a57607f821691505b602082108114156129ee57634e487b7160e01b600052602260045260246000fd5b600060001982141561307f5761307f613086565b5060010190565b634e487b7160e01b600052601160045260246000fd5b634e487b7160e01b600052603260045260246000fd5b634e487b7160e01b600052604160045260246000fdfee1ac655ab58995133a870d1fd307ddc1d624c8ad919a09e67867a7a1483e439a548c7f0307ab2a7ea894e5c7e8c5353cc750bb9385ee2e945f189a9a83daa8eda76ace73a908083d89af9ff88e5b4f7cadb3591a80631063f68b695fda726db571840dc4906352362b0cdaf79870196c8e42acafade72d5d5a6d59291253ceb1f988e4fb62b8e14f4820fed03192306ddf4d7dbfa215595ba1c6ba4b76b369ee416464726573733a206c6f772d6c6576656c2064656c65676174652063616c6c206661696c6564356a809dfdea9198dd76fb76bf6d403ecf13ea675eb89e1eda2db2c4a4676a260d0a0ed3351c10a57d74a44b40c06e0946288e4e3816ac07bb89db2a755562e7ad6a6591fa308fe948065665239402780db8ed4a8c4e4e16c4d066bcaa05efc2ce108bcc5e0f50fe603649304cbbbd94de794a404db82d884c0afc9ba9328e61a2646970667358221220d79d2c1038a21af355cefeee30dab667e7b0a0f77f6382b8bb30f43cfe7492a264736f6c63430008060033",
  "linkReferences": {},
  "deployedLinkReferences": {}
}