{
  "_format": "hh-sol-artifact-1",
  "name": "BlacklistBurnMintTemplate",
  "initializer": "function initialize(string name_, string symbol_, uint8 decimals_, uint256 amount_)",
  "sourceName": "contracts/templates/BlacklistBurnMintTemplate.sol",
  "abi": [
    {
      "anonymous": false,
      "inputs": [
        {
          "indexed": false,
          "internalType": "address",
          "name": "previousAdmin",
          "type": "address"
        },
        {
          "indexed": false,
          "internalType": "address",
          "name": "newAdmin",
          "type": "address"
        }
      ],
      "name": "AdminChanged",
      "type": "event"
    },
    {
      "anonymous": false,
      "inputs": [
        {
          "indexed": true,
          "internalType": "address",
          "name": "owner",
          "type": "address"
        },
        {
          "indexed": true,
          "internalType": "address",
          "name": "spender",
          "type": "address"
        },
        {
          "indexed": false,
          "internalType": "uint256",
          "name": "value",
          "type": "uint256"
        }
      ],
      "name": "Approval",
      "type": "event"
    },
    {
      "anonymous": false,
      "inputs": [
        {
          "indexed": true,
          "internalType": "address",
          "name": "beacon",
          "type": "address"
        }
      ],
      "name": "BeaconUpgraded",
      "type": "event"
    },
    {
      "anonymous": false,
      "inputs": [
        {
          "indexed": true,
          "internalType": "bytes32",
          "name": "role",
          "type": "bytes32"
        },
        {
          "indexed": true,
          "internalType": "bytes32",
          "name": "previousAdminRole",
          "type": "bytes32"
        },
        {
          "indexed": true,
          "internalType": "bytes32",
          "name": "newAdminRole",
          "type": "bytes32"
        }
      ],
      "name": "RoleAdminChanged",
      "type": "event"
    },
    {
      "anonymous": false,
      "inputs": [
        {
          "indexed": true,
          "internalType": "bytes32",
          "name": "role",
          "type": "bytes32"
        },
        {
          "indexed": true,
          "internalType": "address",
          "name": "account",
          "type": "address"
        },
        {
          "indexed": true,
          "internalType": "address",
          "name": "sender",
          "type": "address"
        }
      ],
      "name": "RoleGranted",
      "type": "event"
    },
    {
      "anonymous": false,
      "inputs": [
        {
          "indexed": true,
          "internalType": "bytes32",
          "name": "role",
          "type": "bytes32"
        },
        {
          "indexed": true,
          "internalType": "address",
          "name": "account",
          "type": "address"
        },
        {
          "indexed": true,
          "internalType": "address",
          "name": "sender",
          "type": "address"
        }
      ],
      "name": "RoleRevoked",
      "type": "event"
    },
    {
      "anonymous": false,
      "inputs": [
        {
          "indexed": true,
          "internalType": "address",
          "name": "from",
          "type": "address"
        },
        {
          "indexed": true,
          "internalType": "address",
          "name": "to",
          "type": "address"
        },
        {
          "indexed": false,
          "internalType": "uint256",
          "name": "value",
          "type": "uint256"
        }
      ],
      "name": "Transfer",
      "type": "event"
    },
    {
      "anonymous": false,
      "inputs": [
        {
          "indexed": true,
          "internalType": "address",
          "name": "implementation",
          "type": "address"
        }
      ],
      "name": "Upgraded",
      "type": "event"
    },
    {
      "inputs": [],
      "name": "BLACKLISTED_ROLE",
      "outputs": [
        {
          "internalType": "bytes32",
          "name": "",
          "type": "bytes32"
        }
      ],
      "stateMutability": "view",
      "type": "function"
    },
    {
      "inputs": [],
      "name": "BLACKLIST_MANAGER_ROLE",
      "outputs": [
        {
          "internalType": "bytes32",
          "name": "",
          "type": "bytes32"
        }
      ],
      "stateMutability": "view",
      "type": "function"
    },
    {
      "inputs": [],
      "name": "DEFAULT_ADMIN_ROLE",
      "outputs": [
        {
          "internalType": "bytes32",
          "name": "",
          "type": "bytes32"
        }
      ],
      "stateMutability": "view",
      "type": "function"
    },
    {
      "inputs": [],
      "name": "GOVERNANCE_ROLE",
      "outputs": [
        {
          "internalType": "bytes32",
          "name": "",
          "type": "bytes32"
        }
      ],
      "stateMutability": "view",
      "type": "function"
    },
    {
      "inputs": [],
      "name": "MINTER_ROLE",
      "outputs": [
        {
          "internalType": "bytes32",
          "name": "",
          "type": "bytes32"
        }
      ],
      "stateMutability": "view",
      "type": "function"
    },
    {
      "inputs": [],
      "name": "UPGRADE_MANAGER_ROLE",
      "outputs": [
        {
          "internalType": "bytes32",
          "name": "",
          "type": "bytes32"
        }
      ],
      "stateMutability": "view",
      "type": "function"
    },
    {
      "inputs": [
        {
          "internalType": "address[]",
          "name": "addresses",
          "type": "address[]"
        }
      ],
      "name": "addAddressesToBlacklist",
      "outputs": [],
      "stateMutability": "nonpayable",
      "type": "function"
    },
    {
      "inputs": [
        {
          "internalType": "address",
          "name": "owner",
          "type": "address"
        },
        {
          "internalType": "address",
          "name": "spender",
          "type": "address"
        }
      ],
      "name": "allowance",
      "outputs": [
        {
          "internalType": "uint256",
          "name": "",
          "type": "uint256"
        }
      ],
      "stateMutability": "view",
      "type": "function"
    },
    {
      "inputs": [
        {
          "internalType": "address",
          "name": "spender",
          "type": "address"
        },
        {
          "internalType": "uint256",
          "name": "amount",
          "type": "uint256"
        }
      ],
      "name": "approve",
      "outputs": [
        {
          "internalType": "bool",
          "name": "",
          "type": "bool"
        }
      ],
      "stateMutability": "nonpayable",
      "type": "function"
    },
    {
      "inputs": [
        {
          "internalType": "address",
          "name": "account",
          "type": "address"
        }
      ],
      "name": "balanceOf",
      "outputs": [
        {
          "internalType": "uint256",
          "name": "",
          "type": "uint256"
        }
      ],
      "stateMutability": "view",
      "type": "function"
    },
    {
      "inputs": [
        {
          "internalType": "address[]",
          "name": "accounts",
          "type": "address[]"
        },
        {
          "internalType": "uint256[]",
          "name": "amounts",
          "type": "uint256[]"
        }
      ],
      "name": "bulkMint",
      "outputs": [],
      "stateMutability": "nonpayable",
      "type": "function"
    },
    {
      "inputs": [
        {
          "internalType": "uint256",
          "name": "amount",
          "type": "uint256"
        }
      ],
      "name": "burn",
      "outputs": [],
      "stateMutability": "nonpayable",
      "type": "function"
    },
    {
      "inputs": [
        {
          "internalType": "address",
          "name": "account",
          "type": "address"
        },
        {
          "internalType": "uint256",
          "name": "amount",
          "type": "uint256"
        }
      ],
      "name": "burnFrom",
      "outputs": [],
      "stateMutability": "nonpayable",
      "type": "function"
    },
    {
      "inputs": [],
      "name": "decimals",
      "outputs": [
        {
          "internalType": "uint8",
          "name": "",
          "type": "uint8"
        }
      ],
      "stateMutability": "view",
      "type": "function"
    },
    {
      "inputs": [
        {
          "internalType": "address",
          "name": "spender",
          "type": "address"
        },
        {
          "internalType": "uint256",
          "name": "subtractedValue",
          "type": "uint256"
        }
      ],
      "name": "decreaseAllowance",
      "outputs": [
        {
          "internalType": "bool",
          "name": "",
          "type": "bool"
        }
      ],
      "stateMutability": "nonpayable",
      "type": "function"
    },
    {
      "inputs": [],
      "name": "getImplementation",
      "outputs": [
        {
          "internalType": "address",
          "name": "",
          "type": "address"
        }
      ],
      "stateMutability": "view",
      "type": "function"
    },
    {
      "inputs": [
        {
          "internalType": "bytes32",
          "name": "role",
          "type": "bytes32"
        }
      ],
      "name": "getRoleAdmin",
      "outputs": [
        {
          "internalType": "bytes32",
          "name": "",
          "type": "bytes32"
        }
      ],
      "stateMutability": "view",
      "type": "function"
    },
    {
      "inputs": [
        {
          "internalType": "bytes32",
          "name": "role",
          "type": "bytes32"
        },
        {
          "internalType": "address",
          "name": "account",
          "type": "address"
        }
      ],
      "name": "grantRole",
      "outputs": [],
      "stateMutability": "nonpayable",
      "type": "function"
    },
    {
      "inputs": [
        {
          "internalType": "bytes32",
          "name": "role",
          "type": "bytes32"
        },
        {
          "internalType": "address",
          "name": "account",
          "type": "address"
        }
      ],
      "name": "hasRole",
      "outputs": [
        {
          "internalType": "bool",
          "name": "",
          "type": "bool"
        }
      ],
      "stateMutability": "view",
      "type": "function"
    },
    {
      "inputs": [
        {
          "internalType": "address",
          "name": "spender",
          "type": "address"
        },
        {
          "internalType": "uint256",
          "name": "addedValue",
          "type": "uint256"
        }
      ],
      "name": "increaseAllowance",
      "outputs": [
        {
          "internalType": "bool",
          "name": "",
          "type": "bool"
        }
      ],
      "stateMutability": "nonpayable",
      "type": "function"
    },
    {
      "inputs": [
        {
          "internalType": "string",
          "name": "name_",
          "type": "string"
        },
        {
          "internalType": "string",
          "name": "symbol_",
          "type": "string"
        },
        {
          "internalType": "uint8",
          "name": "decimals_",
          "type": "uint8"
        },
        {
          "internalType": "uint256",
          "name": "amount_",
          "type": "uint256"
        }
      ],
      "name": "initialize",
      "outputs": [],
      "stateMutability": "nonpayable",
      "type": "function"
    },
    {
      "inputs": [
        {
          "internalType": "address",
          "name": "account",
          "type": "address"
        },
        {
          "internalType": "uint256",
          "name": "amount",
          "type": "uint256"
        }
      ],
      "name": "mint",
      "outputs": [],
      "stateMutability": "nonpayable",
      "type": "function"
    },
    {
      "inputs": [],
      "name": "name",
      "outputs": [
        {
          "internalType": "string",
          "name": "",
          "type": "string"
        }
      ],
      "stateMutability": "view",
      "type": "function"
    },
    {
      "inputs": [
        {
          "internalType": "address",
          "name": "implementationAddress",
          "type": "address"
        }
      ],
      "name": "proposeNewImplementation",
      "outputs": [],
      "stateMutability": "nonpayable",
      "type": "function"
    },
    {
      "inputs": [
        {
          "internalType": "address[]",
          "name": "addresses",
          "type": "address[]"
        }
      ],
      "name": "removeAddressesFromBlacklist",
      "outputs": [],
      "stateMutability": "nonpayable",
      "type": "function"
    },
    {
      "inputs": [
        {
          "internalType": "bytes32",
          "name": "role",
          "type": "bytes32"
        },
        {
          "internalType": "address",
          "name": "account",
          "type": "address"
        }
      ],
      "name": "renounceRole",
      "outputs": [],
      "stateMutability": "nonpayable",
      "type": "function"
    },
    {
      "inputs": [
        {
          "internalType": "bytes32",
          "name": "role",
          "type": "bytes32"
        },
        {
          "internalType": "address",
          "name": "account",
          "type": "address"
        }
      ],
      "name": "revokeRole",
      "outputs": [],
      "stateMutability": "nonpayable",
      "type": "function"
    },
    {
      "inputs": [
        {
          "internalType": "bytes4",
          "name": "interfaceId",
          "type": "bytes4"
        }
      ],
      "name": "supportsInterface",
      "outputs": [
        {
          "internalType": "bool",
          "name": "",
          "type": "bool"
        }
      ],
      "stateMutability": "view",
      "type": "function"
    },
    {
      "inputs": [],
      "name": "symbol",
      "outputs": [
        {
          "internalType": "string",
          "name": "",
          "type": "string"
        }
      ],
      "stateMutability": "view",
      "type": "function"
    },
    {
      "inputs": [],
      "name": "totalSupply",
      "outputs": [
        {
          "internalType": "uint256",
          "name": "",
          "type": "uint256"
        }
      ],
      "stateMutability": "view",
      "type": "function"
    },
    {
      "inputs": [
        {
          "internalType": "address",
          "name": "recipient",
          "type": "address"
        },
        {
          "internalType": "uint256",
          "name": "amount",
          "type": "uint256"
        }
      ],
      "name": "transfer",
      "outputs": [
        {
          "internalType": "bool",
          "name": "",
          "type": "bool"
        }
      ],
      "stateMutability": "nonpayable",
      "type": "function"
    },
    {
      "inputs": [
        {
          "internalType": "address",
          "name": "sender",
          "type": "address"
        },
        {
          "internalType": "address",
          "name": "recipient",
          "type": "address"
        },
        {
          "internalType": "uint256",
          "name": "amount",
          "type": "uint256"
        }
      ],
      "name": "transferFrom",
      "outputs": [
        {
          "internalType": "bool",
          "name": "",
          "type": "bool"
        }
      ],
      "stateMutability": "nonpayable",
      "type": "function"
    },
    {
      "inputs": [
        {
          "internalType": "address",
          "name": "newImplementation",
          "type": "address"
        }
      ],
      "name": "upgradeTo",
      "outputs": [],
      "stateMutability": "nonpayable",
      "type": "function"
    },
    {
      "inputs": [
        {
          "internalType": "address",
          "name": "newImplementation",
          "type": "address"
        },
        {
          "internalType": "bytes",
          "name": "data",
          "type": "bytes"
        }
      ],
      "name": "upgradeToAndCall",
      "outputs": [],
      "stateMutability": "payable",
      "type": "function"
    }
  ],
  "bytecode": "0x60a06040523060601b60805234801561001757600080fd5b5060805160601c61285d61004b60003960008181610a3501528181610a7501528181610bbb0152610bfb015261285d6000f3fe6080604052600436106101f95760003560e01c806347757fb61161010d578063a217fddf116100a0578063ca73419e1161006f578063ca73419e146105cf578063d5391393146105ef578063d547741f14610623578063dd62ed3e14610643578063f36c8f5c1461068957600080fd5b8063a217fddf1461054d578063a457c2d714610562578063a9059cbb14610582578063aaf10f42146105a257600080fd5b806370a08231116100dc57806370a08231146104c257806379cc6790146104f857806391d148541461051857806395d89b411461053857600080fd5b806347757fb61461044d5780634f1ef2861461046d57806362b199c5146104805780636ae459bd146104a257600080fd5b8063313ce56711610190578063395093511161015f57806339509351146103a957806340c10f19146103c9578063410b2424146103e957806342966c681461040b57806343ffa64e1461042b57600080fd5b8063313ce56714610326578063322587941461034957806336568abe146103695780633659cfe61461038957600080fd5b806323b872dd116101cc57806323b872dd14610294578063248a9ca3146102b4578063253279ad146102e45780632f2ff15d1461030657600080fd5b806301ffc9a7146101fe57806306fdde0314610233578063095ea7b31461025557806318160ddd14610275575b600080fd5b34801561020a57600080fd5b5061021e6102193660046123f4565b6106ab565b60405190151581526020015b60405180910390f35b34801561023f57600080fd5b506102486106e2565b60405161022a9190612541565b34801561026157600080fd5b5061021e6102703660046122e0565b610774565b34801561028157600080fd5b506067545b60405190815260200161022a565b3480156102a057600080fd5b5061021e6102af3660046121e2565b61078a565b3480156102c057600080fd5b506102866102cf3660046123b8565b600090815260fb602052604090206001015490565b3480156102f057600080fd5b506103046102ff36600461241e565b61083b565b005b34801561031257600080fd5b506103046103213660046123d1565b610989565b34801561033257600080fd5b506101605460405160ff909116815260200161022a565b34801561035557600080fd5b5061030461036436600461230a565b6109a1565b34801561037557600080fd5b506103046103843660046123d1565b610a16565b34801561039557600080fd5b506103046103a4366004612194565b610a2a565b3480156103b557600080fd5b5061021e6103c43660046122e0565b610af3565b3480156103d557600080fd5b506103046103e43660046122e0565b610b2f565b3480156103f557600080fd5b506102866000805160206127e183398151915281565b34801561041757600080fd5b506103046104263660046123b8565b610b69565b34801561043757600080fd5b506102866000805160206127a183398151915281565b34801561045957600080fd5b50610304610468366004612194565b610b73565b61030461047b36600461221e565b610bb0565b34801561048c57600080fd5b5061028660008051602061278183398151915281565b3480156104ae57600080fd5b506103046104bd36600461234c565b610c66565b3480156104ce57600080fd5b506102866104dd366004612194565b6001600160a01b031660009081526065602052604090205490565b34801561050457600080fd5b506103046105133660046122e0565b610d45565b34801561052457600080fd5b5061021e6105333660046123d1565b610dc6565b34801561054457600080fd5b50610248610df1565b34801561055957600080fd5b50610286600081565b34801561056e57600080fd5b5061021e61057d3660046122e0565b610e00565b34801561058e57600080fd5b5061021e61059d3660046122e0565b610e99565b3480156105ae57600080fd5b506105b7610ea6565b6040516001600160a01b03909116815260200161022a565b3480156105db57600080fd5b506103046105ea36600461230a565b610eb5565b3480156105fb57600080fd5b506102867ff9424f4303d7f03683a025eb8885734ad99b47df7749d9b0a02cbc985809700b81565b34801561062f57600080fd5b5061030461063e3660046123d1565b610f24565b34801561064f57600080fd5b5061028661065e3660046121af565b6001600160a01b03918216600090815260666020908152604080832093909416825291909152205490565b34801561069557600080fd5b506102866000805160206127c183398151915281565b60006001600160e01b03198216637965db0b60e01b14806106dc57506301ffc9a760e01b6001600160e01b03198316145b92915050565b6060606880546106f1906126e8565b80601f016020809104026020016040519081016040528092919081815260200182805461071d906126e8565b801561076a5780601f1061073f5761010080835404028352916020019161076a565b820191906000526020600020905b81548152906001019060200180831161074d57829003601f168201915b5050505050905090565b6000610781338484610f4a565b50600192915050565b600061079784848461106e565b6001600160a01b0384166000908152606660209081526040808320338452909152902054828110156108215760405162461bcd60e51b815260206004820152602860248201527f45524332303a207472616e7366657220616d6f756e74206578636565647320616044820152676c6c6f77616e636560c01b60648201526084015b60405180910390fd5b61082e8533858403610f4a565b60019150505b9392505050565b600054610100900460ff166108565760005460ff161561085a565b303b155b6108bd5760405162461bcd60e51b815260206004820152602e60248201527f496e697469616c697a61626c653a20636f6e747261637420697320616c72656160448201526d191e481a5b9a5d1a585b1a5e995960921b6064820152608401610818565b600054610100900460ff161580156108df576000805461ffff19166101011790555b61095687878080601f01602080910402602001604051908101604052809392919081815260200183838082843760009201919091525050604080516020601f8b0181900481028201810190925289815292508991508890819084018382808284376000920191909152508892508791506112479050565b61095e61128a565b61096661128a565b61096e6112b3565b8015610980576000805461ff00191690555b50505050505050565b6109938282611300565b61099d828261138f565b5050565b6000805160206127e18339815191526109ba81336113b5565b60005b82811015610a10576109fe6000805160206127818339815191528585848181106109e9576109e9612754565b905060200201602081019061063e9190612194565b80610a0881612723565b9150506109bd565b50505050565b610a208282611419565b61099d8282611481565b306001600160a01b037f0000000000000000000000000000000000000000000000000000000000000000161415610a735760405162461bcd60e51b815260040161081890612574565b7f00000000000000000000000000000000000000000000000000000000000000006001600160a01b0316610aa56114fb565b6001600160a01b031614610acb5760405162461bcd60e51b8152600401610818906125c0565b610ad481611529565b60408051600080825260208201909252610af0918391906115ab565b50565b3360008181526066602090815260408083206001600160a01b03871684529091528120549091610781918590610b2a908690612657565b610f4a565b7ff9424f4303d7f03683a025eb8885734ad99b47df7749d9b0a02cbc985809700b610b5a81336113b5565b610b6483836116f6565b505050565b610af033826117e1565b6000805160206127c1833981519152610b8c81336113b5565b5061012d80546001600160a01b0319166001600160a01b0392909216919091179055565b306001600160a01b037f0000000000000000000000000000000000000000000000000000000000000000161415610bf95760405162461bcd60e51b815260040161081890612574565b7f00000000000000000000000000000000000000000000000000000000000000006001600160a01b0316610c2b6114fb565b6001600160a01b031614610c515760405162461bcd60e51b8152600401610818906125c0565b610c5a82611529565b61099d828260016115ab565b7ff9424f4303d7f03683a025eb8885734ad99b47df7749d9b0a02cbc985809700b610c9181336113b5565b838214610cd85760405162461bcd60e51b8152602060048201526015602482015274082e4e4c2f240d8cadccee8d040dad2e6dac2e8c6d605b1b6044820152606401610818565b60005b84811015610d3d57610d2b868683818110610cf857610cf8612754565b9050602002016020810190610d0d9190612194565b858584818110610d1f57610d1f612754565b905060200201356116f6565b80610d3581612723565b915050610cdb565b505050505050565b6000610d51833361065e565b905081811015610daf5760405162461bcd60e51b8152602060048201526024808201527f45524332303a206275726e20616d6f756e74206578636565647320616c6c6f77604482015263616e636560e01b6064820152608401610818565b610dbc8333848403610f4a565b610b6483836117e1565b600091825260fb602090815260408084206001600160a01b0393909316845291905290205460ff1690565b6060606980546106f1906126e8565b3360009081526066602090815260408083206001600160a01b038616845290915281205482811015610e825760405162461bcd60e51b815260206004820152602560248201527f45524332303a2064656372656173656420616c6c6f77616e63652062656c6f77604482015264207a65726f60d81b6064820152608401610818565b610e8f3385858403610f4a565b5060019392505050565b600061078133848461106e565b6000610eb06114fb565b905090565b6000805160206127e1833981519152610ece81336113b5565b60005b82811015610a1057610f12600080516020612781833981519152858584818110610efd57610efd612754565b90506020020160208101906103219190612194565b80610f1c81612723565b915050610ed1565b600082815260fb6020526040902060010154610f4081336113b5565b610b64838361193b565b6001600160a01b038316610fac5760405162461bcd60e51b8152602060048201526024808201527f45524332303a20617070726f76652066726f6d20746865207a65726f206164646044820152637265737360e01b6064820152608401610818565b6001600160a01b03821661100d5760405162461bcd60e51b815260206004820152602260248201527f45524332303a20617070726f766520746f20746865207a65726f206164647265604482015261737360f01b6064820152608401610818565b6001600160a01b0383811660008181526066602090815260408083209487168084529482529182902085905590518481527f8c5be1e5ebec7d5bd14f71427d1e84f3dd0314c0f7b2291e5b200ac8c7c3b925910160405180910390a3505050565b6001600160a01b0383166110d25760405162461bcd60e51b815260206004820152602560248201527f45524332303a207472616e736665722066726f6d20746865207a65726f206164604482015264647265737360d81b6064820152608401610818565b6001600160a01b0382166111345760405162461bcd60e51b815260206004820152602360248201527f45524332303a207472616e7366657220746f20746865207a65726f206164647260448201526265737360e81b6064820152608401610818565b61113f8383836119a2565b6001600160a01b038316600090815260656020526040902054818110156111b75760405162461bcd60e51b815260206004820152602660248201527f45524332303a207472616e7366657220616d6f756e7420657863656564732062604482015265616c616e636560d01b6064820152608401610818565b6001600160a01b038085166000908152606560205260408082208585039055918516815290812080548492906111ee908490612657565b92505081905550826001600160a01b0316846001600160a01b03167fddf252ad1be2c89b69c2b068fc378daa952ba7f163c4a11628f55a4df523b3ef8460405161123a91815260200190565b60405180910390a3610a10565b600054610100900460ff1661126e5760405162461bcd60e51b81526004016108189061260c565b6112766119ad565b6112808484611a04565b610a108282611a52565b600054610100900460ff166112b15760405162461bcd60e51b81526004016108189061260c565b565b600054610100900460ff166112da5760405162461bcd60e51b81526004016108189061260c565b6112b16000805160206127818339815191526000805160206127e1833981519152611a93565b6000805160206127e183398151915282148061131a575081155b1561099d5761133760008051602061278183398151915282610dc6565b1561099d5760405162461bcd60e51b815260206004820152602260248201527f63616e206e6f742061737369676e20726f6c6520746f20626c61636b6c697374604482015261195960f21b6064820152608401610818565b600082815260fb60205260409020600101546113ab81336113b5565b610b648383611ade565b6113bf8282610dc6565b61099d576113d7816001600160a01b03166014611b64565b6113e2836020611b64565b6040516020016113f39291906124cc565b60408051601f198184030181529082905262461bcd60e51b825261081891600401612541565b60008051602061278183398151915282141561099d5760405162461bcd60e51b815260206004820152602160248201527f43616e206e6f742072656e6f756e636520626c61636b6c697374656420726f6c6044820152606560f81b6064820152608401610818565b6001600160a01b03811633146114f15760405162461bcd60e51b815260206004820152602f60248201527f416363657373436f6e74726f6c3a2063616e206f6e6c792072656e6f756e636560448201526e103937b632b9903337b91039b2b63360891b6064820152608401610818565b61099d828261193b565b7f360894a13ba1a3210667c828492db98dca3e2076cc3735a920a3ca505d382bbc546001600160a01b031690565b6115416000805160206127c183398151915233610dc6565b8061155f575061155f6000805160206127a183398151915233610dc6565b610af05760405162461bcd60e51b815260206004820152601d60248201527f4552524f523a2041646472657373206e6f7420617574686f72697a65640000006044820152606401610818565b60006115b56114fb565b90506115c084611d00565b6000835111806115cd5750815b156115de576115dc8484611da5565b505b7f4910fdfa16fed3260ed0e7147f7cc6da11a60208b5b9406d12a635614ffd9143805460ff166116ef57805460ff191660011781556040516001600160a01b038316602482015261165d90869060440160408051601f198184030181529190526020810180516001600160e01b0316631b2ce7f360e11b179052611da5565b50805460ff1916815561166e6114fb565b6001600160a01b0316826001600160a01b0316146116e65760405162461bcd60e51b815260206004820152602f60248201527f45524331393637557067726164653a207570677261646520627265616b73206660448201526e75727468657220757067726164657360881b6064820152608401610818565b6116ef85611e90565b5050505050565b6001600160a01b03821661174c5760405162461bcd60e51b815260206004820152601f60248201527f45524332303a206d696e7420746f20746865207a65726f2061646472657373006044820152606401610818565b611758600083836119a2565b806067600082825461176a9190612657565b90915550506001600160a01b03821660009081526065602052604081208054839290611797908490612657565b90915550506040518181526001600160a01b038316906000907fddf252ad1be2c89b69c2b068fc378daa952ba7f163c4a11628f55a4df523b3ef9060200160405180910390a35050565b6001600160a01b0382166118415760405162461bcd60e51b815260206004820152602160248201527f45524332303a206275726e2066726f6d20746865207a65726f206164647265736044820152607360f81b6064820152608401610818565b61184d826000836119a2565b6001600160a01b038216600090815260656020526040902054818110156118c15760405162461bcd60e51b815260206004820152602260248201527f45524332303a206275726e20616d6f756e7420657863656564732062616c616e604482015261636560f01b6064820152608401610818565b6001600160a01b03831660009081526065602052604081208383039055606780548492906118f090849061268e565b90915550506040518281526000906001600160a01b038516907fddf252ad1be2c89b69c2b068fc378daa952ba7f163c4a11628f55a4df523b3ef9060200160405180910390a3505050565b6119458282610dc6565b1561099d57600082815260fb602090815260408083206001600160a01b0385168085529252808320805460ff1916905551339285917ff6391f5c32d9c69d2a47ea670b442974b53935d1edc7fd64eb21e047a839171b9190a45050565b610b64838383611ed0565b600054610100900460ff166119d45760405162461bcd60e51b81526004016108189061260c565b6119dc61128a565b6119e461128a565b6119ec61128a565b6119f461128a565b6119fc61128a565b6112b1611f28565b600054610100900460ff16611a2b5760405162461bcd60e51b81526004016108189061260c565b8151611a3e906068906020850190612051565b508051610b64906069906020840190612051565b600054610100900460ff16611a795760405162461bcd60e51b81526004016108189061260c565b610160805460ff191660ff841617905561099d33826116f6565b600082815260fb6020526040808220600101805490849055905190918391839186917fbd79b86ffe0ab8e8776151514217cd7cacd52c909f66475c3af44e129f0b00ff9190a4505050565b611ae88282610dc6565b61099d57600082815260fb602090815260408083206001600160a01b03851684529091529020805460ff19166001179055611b203390565b6001600160a01b0316816001600160a01b0316837f2f8788117e7eff1d82e926ec794901d17c78024a50270940304540a733656f0d60405160405180910390a45050565b60606000611b7383600261266f565b611b7e906002612657565b67ffffffffffffffff811115611b9657611b9661276a565b6040519080825280601f01601f191660200182016040528015611bc0576020820181803683370190505b509050600360fc1b81600081518110611bdb57611bdb612754565b60200101906001600160f81b031916908160001a905350600f60fb1b81600181518110611c0a57611c0a612754565b60200101906001600160f81b031916908160001a9053506000611c2e84600261266f565b611c39906001612657565b90505b6001811115611cb1576f181899199a1a9b1b9c1cb0b131b232b360811b85600f1660108110611c6d57611c6d612754565b1a60f81b828281518110611c8357611c83612754565b60200101906001600160f81b031916908160001a90535060049490941c93611caa816126d1565b9050611c3c565b5083156108345760405162461bcd60e51b815260206004820181905260248201527f537472696e67733a20686578206c656e67746820696e73756666696369656e746044820152606401610818565b803b611d645760405162461bcd60e51b815260206004820152602d60248201527f455243313936373a206e657720696d706c656d656e746174696f6e206973206e60448201526c1bdd08184818dbdb9d1c9858dd609a1b6064820152608401610818565b7f360894a13ba1a3210667c828492db98dca3e2076cc3735a920a3ca505d382bbc80546001600160a01b0319166001600160a01b0392909216919091179055565b6060823b611e045760405162461bcd60e51b815260206004820152602660248201527f416464726573733a2064656c65676174652063616c6c20746f206e6f6e2d636f6044820152651b9d1c9858dd60d21b6064820152608401610818565b600080846001600160a01b031684604051611e1f91906124b0565b600060405180830381855af49150503d8060008114611e5a576040519150601f19603f3d011682016040523d82523d6000602084013e611e5f565b606091505b5091509150611e87828260405180606001604052806027815260200161280160279139611fb0565b95945050505050565b611e9981611d00565b6040516001600160a01b038216907fbc7cd75a20ee27fd9adebab32041f755214dbc6bffa90cc0225b39da2e5c2d3b90600090a250565b611edb338484611fe9565b15610b645760405162461bcd60e51b815260206004820152601a60248201527f4552524f523a204164647265737320426c61636b6c69737465640000000000006044820152606401610818565b600054610100900460ff16611f4f5760405162461bcd60e51b81526004016108189061260c565b611f5a600033612047565b611f726000805160206127c183398151915233612047565b611f8a6000805160206127a183398151915233612047565b6112b16000805160206127a18339815191526000805160206127c1833981519152611a93565b60608315611fbf575081610834565b825115611fcf5782518084602001fd5b8160405162461bcd60e51b81526004016108189190612541565b600061200360008051602061278183398151915284610dc6565b80612021575061202160008051602061278183398151915285610dc6565b8061203f575061203f60008051602061278183398151915283610dc6565b949350505050565b61099d8282611ade565b82805461205d906126e8565b90600052602060002090601f01602090048101928261207f57600085556120c5565b82601f1061209857805160ff19168380011785556120c5565b828001600101855582156120c5579182015b828111156120c55782518255916020019190600101906120aa565b506120d19291506120d5565b5090565b5b808211156120d157600081556001016120d6565b80356001600160a01b038116811461210157600080fd5b919050565b60008083601f84011261211857600080fd5b50813567ffffffffffffffff81111561213057600080fd5b6020830191508360208260051b850101111561214b57600080fd5b9250929050565b60008083601f84011261216457600080fd5b50813567ffffffffffffffff81111561217c57600080fd5b60208301915083602082850101111561214b57600080fd5b6000602082840312156121a657600080fd5b610834826120ea565b600080604083850312156121c257600080fd5b6121cb836120ea565b91506121d9602084016120ea565b90509250929050565b6000806000606084860312156121f757600080fd5b612200846120ea565b925061220e602085016120ea565b9150604084013590509250925092565b6000806040838503121561223157600080fd5b61223a836120ea565b9150602083013567ffffffffffffffff8082111561225757600080fd5b818501915085601f83011261226b57600080fd5b81358181111561227d5761227d61276a565b604051601f8201601f19908116603f011681019083821181831017156122a5576122a561276a565b816040528281528860208487010111156122be57600080fd5b8260208601602083013760006020848301015280955050505050509250929050565b600080604083850312156122f357600080fd5b6122fc836120ea565b946020939093013593505050565b6000806020838503121561231d57600080fd5b823567ffffffffffffffff81111561233457600080fd5b61234085828601612106565b90969095509350505050565b6000806000806040858703121561236257600080fd5b843567ffffffffffffffff8082111561237a57600080fd5b61238688838901612106565b9096509450602087013591508082111561239f57600080fd5b506123ac87828801612106565b95989497509550505050565b6000602082840312156123ca57600080fd5b5035919050565b600080604083850312156123e457600080fd5b823591506121d9602084016120ea565b60006020828403121561240657600080fd5b81356001600160e01b03198116811461083457600080fd5b6000806000806000806080878903121561243757600080fd5b863567ffffffffffffffff8082111561244f57600080fd5b61245b8a838b01612152565b9098509650602089013591508082111561247457600080fd5b5061248189828a01612152565b909550935050604087013560ff8116811461249b57600080fd5b80925050606087013590509295509295509295565b600082516124c28184602087016126a5565b9190910192915050565b7f416363657373436f6e74726f6c3a206163636f756e74200000000000000000008152600083516125048160178501602088016126a5565b7001034b99036b4b9b9b4b733903937b6329607d1b60179184019182015283516125358160288401602088016126a5565b01602801949350505050565b60208152600082518060208401526125608160408501602087016126a5565b601f01601f19169190910160400192915050565b6020808252602c908201527f46756e6374696f6e206d7573742062652063616c6c6564207468726f7567682060408201526b19195b1959d85d1958d85b1b60a21b606082015260800190565b6020808252602c908201527f46756e6374696f6e206d7573742062652063616c6c6564207468726f7567682060408201526b6163746976652070726f787960a01b606082015260800190565b6020808252602b908201527f496e697469616c697a61626c653a20636f6e7472616374206973206e6f74206960408201526a6e697469616c697a696e6760a81b606082015260800190565b6000821982111561266a5761266a61273e565b500190565b60008160001904831182151516156126895761268961273e565b500290565b6000828210156126a0576126a061273e565b500390565b60005b838110156126c05781810151838201526020016126a8565b83811115610a105750506000910152565b6000816126e0576126e061273e565b506000190190565b600181811c908216806126fc57607f821691505b6020821081141561271d57634e487b7160e01b600052602260045260246000fd5b50919050565b60006000198214156127375761273761273e565b5060010190565b634e487b7160e01b600052601160045260246000fd5b634e487b7160e01b600052603260045260246000fd5b634e487b7160e01b600052604160045260246000fdfe548c7f0307ab2a7ea894e5c7e8c5353cc750bb9385ee2e945f189a9a83daa8eda76ace73a908083d89af9ff88e5b4f7cadb3591a80631063f68b695fda726db571840dc4906352362b0cdaf79870196c8e42acafade72d5d5a6d59291253ceb1f988e4fb62b8e14f4820fed03192306ddf4d7dbfa215595ba1c6ba4b76b369ee416464726573733a206c6f772d6c6576656c2064656c65676174652063616c6c206661696c6564a264697066735822122049e544a0aacdb7b2a6ba3e1b5a3d353ed554efbfdeabf8ab22d4348377b3bf6464736f6c63430008060033",
  "linkReferences": {},
  "deployedLinkReferences": {}
}