{
  "_format": "hh-sol-artifact-1",
  "name": "BlacklistBurnMintSnapshotWhiteListTemplate",
  "initializer": "function initialize(string name_, string symbol_, uint8 decimals_, uint256 amount_)",
  "sourceName": "contracts/templates/BlacklistBurnMintSnapshotWhiteListTemplate.sol",
  "abi": [
    {
      "anonymous": false,
      "inputs": [
        {
          "indexed": false,
          "internalType": "address",
          "name": "previousAdmin",
          "type": "address"
        },
        {
          "indexed": false,
          "internalType": "address",
          "name": "newAdmin",
          "type": "address"
        }
      ],
      "name": "AdminChanged",
      "type": "event"
    },
    {
      "anonymous": false,
      "inputs": [
        {
          "indexed": true,
          "internalType": "address",
          "name": "owner",
          "type": "address"
        },
        {
          "indexed": true,
          "internalType": "address",
          "name": "spender",
          "type": "address"
        },
        {
          "indexed": false,
          "internalType": "uint256",
          "name": "value",
          "type": "uint256"
        }
      ],
      "name": "Approval",
      "type": "event"
    },
    {
      "anonymous": false,
      "inputs": [
        {
          "indexed": true,
          "internalType": "address",
          "name": "beacon",
          "type": "address"
        }
      ],
      "name": "BeaconUpgraded",
      "type": "event"
    },
    {
      "anonymous": false,
      "inputs": [
        {
          "indexed": false,
          "internalType": "address",
          "name": "account",
          "type": "address"
        }
      ],
      "name": "Paused",
      "type": "event"
    },
    {
      "anonymous": false,
      "inputs": [
        {
          "indexed": true,
          "internalType": "bytes32",
          "name": "role",
          "type": "bytes32"
        },
        {
          "indexed": true,
          "internalType": "bytes32",
          "name": "previousAdminRole",
          "type": "bytes32"
        },
        {
          "indexed": true,
          "internalType": "bytes32",
          "name": "newAdminRole",
          "type": "bytes32"
        }
      ],
      "name": "RoleAdminChanged",
      "type": "event"
    },
    {
      "anonymous": false,
      "inputs": [
        {
          "indexed": true,
          "internalType": "bytes32",
          "name": "role",
          "type": "bytes32"
        },
        {
          "indexed": true,
          "internalType": "address",
          "name": "account",
          "type": "address"
        },
        {
          "indexed": true,
          "internalType": "address",
          "name": "sender",
          "type": "address"
        }
      ],
      "name": "RoleGranted",
      "type": "event"
    },
    {
      "anonymous": false,
      "inputs": [
        {
          "indexed": true,
          "internalType": "bytes32",
          "name": "role",
          "type": "bytes32"
        },
        {
          "indexed": true,
          "internalType": "address",
          "name": "account",
          "type": "address"
        },
        {
          "indexed": true,
          "internalType": "address",
          "name": "sender",
          "type": "address"
        }
      ],
      "name": "RoleRevoked",
      "type": "event"
    },
    {
      "anonymous": false,
      "inputs": [
        {
          "indexed": false,
          "internalType": "uint256",
          "name": "id",
          "type": "uint256"
        }
      ],
      "name": "Snapshot",
      "type": "event"
    },
    {
      "anonymous": false,
      "inputs": [
        {
          "indexed": true,
          "internalType": "address",
          "name": "from",
          "type": "address"
        },
        {
          "indexed": true,
          "internalType": "address",
          "name": "to",
          "type": "address"
        },
        {
          "indexed": false,
          "internalType": "uint256",
          "name": "value",
          "type": "uint256"
        }
      ],
      "name": "Transfer",
      "type": "event"
    },
    {
      "anonymous": false,
      "inputs": [
        {
          "indexed": false,
          "internalType": "address",
          "name": "account",
          "type": "address"
        }
      ],
      "name": "Unpaused",
      "type": "event"
    },
    {
      "anonymous": false,
      "inputs": [
        {
          "indexed": true,
          "internalType": "address",
          "name": "implementation",
          "type": "address"
        }
      ],
      "name": "Upgraded",
      "type": "event"
    },
    {
      "inputs": [],
      "name": "BLACKLISTED_ROLE",
      "outputs": [
        {
          "internalType": "bytes32",
          "name": "",
          "type": "bytes32"
        }
      ],
      "stateMutability": "view",
      "type": "function"
    },
    {
      "inputs": [],
      "name": "BLACKLIST_MANAGER_ROLE",
      "outputs": [
        {
          "internalType": "bytes32",
          "name": "",
          "type": "bytes32"
        }
      ],
      "stateMutability": "view",
      "type": "function"
    },
    {
      "inputs": [],
      "name": "DEFAULT_ADMIN_ROLE",
      "outputs": [
        {
          "internalType": "bytes32",
          "name": "",
          "type": "bytes32"
        }
      ],
      "stateMutability": "view",
      "type": "function"
    },
    {
      "inputs": [],
      "name": "GOVERNANCE_ROLE",
      "outputs": [
        {
          "internalType": "bytes32",
          "name": "",
          "type": "bytes32"
        }
      ],
      "stateMutability": "view",
      "type": "function"
    },
    {
      "inputs": [],
      "name": "MINTER_ROLE",
      "outputs": [
        {
          "internalType": "bytes32",
          "name": "",
          "type": "bytes32"
        }
      ],
      "stateMutability": "view",
      "type": "function"
    },
    {
      "inputs": [],
      "name": "PAUSE_MANAGER_ROLE",
      "outputs": [
        {
          "internalType": "bytes32",
          "name": "",
          "type": "bytes32"
        }
      ],
      "stateMutability": "view",
      "type": "function"
    },
    {
      "inputs": [],
      "name": "UPGRADE_MANAGER_ROLE",
      "outputs": [
        {
          "internalType": "bytes32",
          "name": "",
          "type": "bytes32"
        }
      ],
      "stateMutability": "view",
      "type": "function"
    },
    {
      "inputs": [],
      "name": "WHITELISTED_FROM_ROLE",
      "outputs": [
        {
          "internalType": "bytes32",
          "name": "",
          "type": "bytes32"
        }
      ],
      "stateMutability": "view",
      "type": "function"
    },
    {
      "inputs": [],
      "name": "WHITELISTED_SENDER_ROLE",
      "outputs": [
        {
          "internalType": "bytes32",
          "name": "",
          "type": "bytes32"
        }
      ],
      "stateMutability": "view",
      "type": "function"
    },
    {
      "inputs": [
        {
          "internalType": "address[]",
          "name": "addresses",
          "type": "address[]"
        }
      ],
      "name": "addAddressesToBlacklist",
      "outputs": [],
      "stateMutability": "nonpayable",
      "type": "function"
    },
    {
      "inputs": [
        {
          "internalType": "address[]",
          "name": "addresses",
          "type": "address[]"
        }
      ],
      "name": "addAddressesToWhitelistFrom",
      "outputs": [],
      "stateMutability": "nonpayable",
      "type": "function"
    },
    {
      "inputs": [
        {
          "internalType": "address[]",
          "name": "addresses",
          "type": "address[]"
        }
      ],
      "name": "addAddressesToWhitelistSender",
      "outputs": [],
      "stateMutability": "nonpayable",
      "type": "function"
    },
    {
      "inputs": [
        {
          "internalType": "address",
          "name": "owner",
          "type": "address"
        },
        {
          "internalType": "address",
          "name": "spender",
          "type": "address"
        }
      ],
      "name": "allowance",
      "outputs": [
        {
          "internalType": "uint256",
          "name": "",
          "type": "uint256"
        }
      ],
      "stateMutability": "view",
      "type": "function"
    },
    {
      "inputs": [
        {
          "internalType": "address",
          "name": "spender",
          "type": "address"
        },
        {
          "internalType": "uint256",
          "name": "amount",
          "type": "uint256"
        }
      ],
      "name": "approve",
      "outputs": [
        {
          "internalType": "bool",
          "name": "",
          "type": "bool"
        }
      ],
      "stateMutability": "nonpayable",
      "type": "function"
    },
    {
      "inputs": [
        {
          "internalType": "address",
          "name": "account",
          "type": "address"
        }
      ],
      "name": "balanceOf",
      "outputs": [
        {
          "internalType": "uint256",
          "name": "",
          "type": "uint256"
        }
      ],
      "stateMutability": "view",
      "type": "function"
    },
    {
      "inputs": [
        {
          "internalType": "address",
          "name": "account",
          "type": "address"
        },
        {
          "internalType": "uint256",
          "name": "snapshotId",
          "type": "uint256"
        }
      ],
      "name": "balanceOfAt",
      "outputs": [
        {
          "internalType": "uint256",
          "name": "",
          "type": "uint256"
        }
      ],
      "stateMutability": "view",
      "type": "function"
    },
    {
      "inputs": [
        {
          "internalType": "address[]",
          "name": "accounts",
          "type": "address[]"
        },
        {
          "internalType": "uint256[]",
          "name": "amounts",
          "type": "uint256[]"
        }
      ],
      "name": "bulkMint",
      "outputs": [],
      "stateMutability": "nonpayable",
      "type": "function"
    },
    {
      "inputs": [
        {
          "internalType": "uint256",
          "name": "amount",
          "type": "uint256"
        }
      ],
      "name": "burn",
      "outputs": [],
      "stateMutability": "nonpayable",
      "type": "function"
    },
    {
      "inputs": [
        {
          "internalType": "address",
          "name": "account",
          "type": "address"
        },
        {
          "internalType": "uint256",
          "name": "amount",
          "type": "uint256"
        }
      ],
      "name": "burnFrom",
      "outputs": [],
      "stateMutability": "nonpayable",
      "type": "function"
    },
    {
      "inputs": [],
      "name": "decimals",
      "outputs": [
        {
          "internalType": "uint8",
          "name": "",
          "type": "uint8"
        }
      ],
      "stateMutability": "view",
      "type": "function"
    },
    {
      "inputs": [
        {
          "internalType": "address",
          "name": "spender",
          "type": "address"
        },
        {
          "internalType": "uint256",
          "name": "subtractedValue",
          "type": "uint256"
        }
      ],
      "name": "decreaseAllowance",
      "outputs": [
        {
          "internalType": "bool",
          "name": "",
          "type": "bool"
        }
      ],
      "stateMutability": "nonpayable",
      "type": "function"
    },
    {
      "inputs": [],
      "name": "getCurrentSnapshotId",
      "outputs": [
        {
          "internalType": "uint256",
          "name": "",
          "type": "uint256"
        }
      ],
      "stateMutability": "view",
      "type": "function"
    },
    {
      "inputs": [],
      "name": "getImplementation",
      "outputs": [
        {
          "internalType": "address",
          "name": "",
          "type": "address"
        }
      ],
      "stateMutability": "view",
      "type": "function"
    },
    {
      "inputs": [
        {
          "internalType": "bytes32",
          "name": "role",
          "type": "bytes32"
        }
      ],
      "name": "getRoleAdmin",
      "outputs": [
        {
          "internalType": "bytes32",
          "name": "",
          "type": "bytes32"
        }
      ],
      "stateMutability": "view",
      "type": "function"
    },
    {
      "inputs": [
        {
          "internalType": "bytes32",
          "name": "role",
          "type": "bytes32"
        },
        {
          "internalType": "address",
          "name": "account",
          "type": "address"
        }
      ],
      "name": "grantRole",
      "outputs": [],
      "stateMutability": "nonpayable",
      "type": "function"
    },
    {
      "inputs": [
        {
          "internalType": "bytes32",
          "name": "role",
          "type": "bytes32"
        },
        {
          "internalType": "address",
          "name": "account",
          "type": "address"
        }
      ],
      "name": "hasRole",
      "outputs": [
        {
          "internalType": "bool",
          "name": "",
          "type": "bool"
        }
      ],
      "stateMutability": "view",
      "type": "function"
    },
    {
      "inputs": [
        {
          "internalType": "address",
          "name": "spender",
          "type": "address"
        },
        {
          "internalType": "uint256",
          "name": "addedValue",
          "type": "uint256"
        }
      ],
      "name": "increaseAllowance",
      "outputs": [
        {
          "internalType": "bool",
          "name": "",
          "type": "bool"
        }
      ],
      "stateMutability": "nonpayable",
      "type": "function"
    },
    {
      "inputs": [
        {
          "internalType": "string",
          "name": "name_",
          "type": "string"
        },
        {
          "internalType": "string",
          "name": "symbol_",
          "type": "string"
        },
        {
          "internalType": "uint8",
          "name": "decimals_",
          "type": "uint8"
        },
        {
          "internalType": "uint256",
          "name": "amount_",
          "type": "uint256"
        }
      ],
      "name": "initialize",
      "outputs": [],
      "stateMutability": "nonpayable",
      "type": "function"
    },
    {
      "inputs": [
        {
          "internalType": "address",
          "name": "account",
          "type": "address"
        },
        {
          "internalType": "uint256",
          "name": "amount",
          "type": "uint256"
        }
      ],
      "name": "mint",
      "outputs": [],
      "stateMutability": "nonpayable",
      "type": "function"
    },
    {
      "inputs": [],
      "name": "name",
      "outputs": [
        {
          "internalType": "string",
          "name": "",
          "type": "string"
        }
      ],
      "stateMutability": "view",
      "type": "function"
    },
    {
      "inputs": [],
      "name": "pause",
      "outputs": [],
      "stateMutability": "nonpayable",
      "type": "function"
    },
    {
      "inputs": [],
      "name": "paused",
      "outputs": [
        {
          "internalType": "bool",
          "name": "",
          "type": "bool"
        }
      ],
      "stateMutability": "view",
      "type": "function"
    },
    {
      "inputs": [
        {
          "internalType": "address",
          "name": "implementationAddress",
          "type": "address"
        }
      ],
      "name": "proposeNewImplementation",
      "outputs": [],
      "stateMutability": "nonpayable",
      "type": "function"
    },
    {
      "inputs": [
        {
          "internalType": "address[]",
          "name": "addresses",
          "type": "address[]"
        }
      ],
      "name": "removeAddressesFromBlacklist",
      "outputs": [],
      "stateMutability": "nonpayable",
      "type": "function"
    },
    {
      "inputs": [
        {
          "internalType": "address[]",
          "name": "addresses",
          "type": "address[]"
        }
      ],
      "name": "removeAddressesFromWhitelistFrom",
      "outputs": [],
      "stateMutability": "nonpayable",
      "type": "function"
    },
    {
      "inputs": [
        {
          "internalType": "address[]",
          "name": "addresses",
          "type": "address[]"
        }
      ],
      "name": "removeAddressesFromWhitelistSender",
      "outputs": [],
      "stateMutability": "nonpayable",
      "type": "function"
    },
    {
      "inputs": [
        {
          "internalType": "bytes32",
          "name": "role",
          "type": "bytes32"
        },
        {
          "internalType": "address",
          "name": "account",
          "type": "address"
        }
      ],
      "name": "renounceRole",
      "outputs": [],
      "stateMutability": "nonpayable",
      "type": "function"
    },
    {
      "inputs": [
        {
          "internalType": "bytes32",
          "name": "role",
          "type": "bytes32"
        },
        {
          "internalType": "address",
          "name": "account",
          "type": "address"
        }
      ],
      "name": "revokeRole",
      "outputs": [],
      "stateMutability": "nonpayable",
      "type": "function"
    },
    {
      "inputs": [],
      "name": "snapshot",
      "outputs": [],
      "stateMutability": "nonpayable",
      "type": "function"
    },
    {
      "inputs": [
        {
          "internalType": "bytes4",
          "name": "interfaceId",
          "type": "bytes4"
        }
      ],
      "name": "supportsInterface",
      "outputs": [
        {
          "internalType": "bool",
          "name": "",
          "type": "bool"
        }
      ],
      "stateMutability": "view",
      "type": "function"
    },
    {
      "inputs": [],
      "name": "symbol",
      "outputs": [
        {
          "internalType": "string",
          "name": "",
          "type": "string"
        }
      ],
      "stateMutability": "view",
      "type": "function"
    },
    {
      "inputs": [],
      "name": "totalSupply",
      "outputs": [
        {
          "internalType": "uint256",
          "name": "",
          "type": "uint256"
        }
      ],
      "stateMutability": "view",
      "type": "function"
    },
    {
      "inputs": [
        {
          "internalType": "uint256",
          "name": "snapshotId",
          "type": "uint256"
        }
      ],
      "name": "totalSupplyAt",
      "outputs": [
        {
          "internalType": "uint256",
          "name": "",
          "type": "uint256"
        }
      ],
      "stateMutability": "view",
      "type": "function"
    },
    {
      "inputs": [
        {
          "internalType": "address",
          "name": "recipient",
          "type": "address"
        },
        {
          "internalType": "uint256",
          "name": "amount",
          "type": "uint256"
        }
      ],
      "name": "transfer",
      "outputs": [
        {
          "internalType": "bool",
          "name": "",
          "type": "bool"
        }
      ],
      "stateMutability": "nonpayable",
      "type": "function"
    },
    {
      "inputs": [
        {
          "internalType": "address",
          "name": "sender",
          "type": "address"
        },
        {
          "internalType": "address",
          "name": "recipient",
          "type": "address"
        },
        {
          "internalType": "uint256",
          "name": "amount",
          "type": "uint256"
        }
      ],
      "name": "transferFrom",
      "outputs": [
        {
          "internalType": "bool",
          "name": "",
          "type": "bool"
        }
      ],
      "stateMutability": "nonpayable",
      "type": "function"
    },
    {
      "inputs": [],
      "name": "unpause",
      "outputs": [],
      "stateMutability": "nonpayable",
      "type": "function"
    },
    {
      "inputs": [
        {
          "internalType": "address",
          "name": "newImplementation",
          "type": "address"
        }
      ],
      "name": "upgradeTo",
      "outputs": [],
      "stateMutability": "nonpayable",
      "type": "function"
    },
    {
      "inputs": [
        {
          "internalType": "address",
          "name": "newImplementation",
          "type": "address"
        },
        {
          "internalType": "bytes",
          "name": "data",
          "type": "bytes"
        }
      ],
      "name": "upgradeToAndCall",
      "outputs": [],
      "stateMutability": "payable",
      "type": "function"
    }
  ],
  "bytecode": "0x60a06040523060601b60805234801561001757600080fd5b5060805160601c61340061004b60003960008181610bf901528181610c3901528181610e450152610e8501526134006000f3fe6080604052600436106102935760003560e01c8063685ed81a1161015a578063a457c2d7116100c1578063d53913931161007a578063d5391393146107e6578063d547741f1461081a578063d84f91e81461083a578063dd62ed3e1461085c578063f36c8f5c146108a2578063f834c502146108c457600080fd5b8063a457c2d714610717578063a9059cbb14610737578063aa74a34a14610757578063aaf10f4214610779578063c233f3b7146107a6578063ca73419e146107c657600080fd5b80638456cb59116101135780638456cb591461068357806391d148541461069857806395d89b41146106b85780639711715a146106cd578063981b24d0146106e2578063a217fddf1461070257600080fd5b8063685ed81a146105ab5780636ae459bd146105cb5780636e79a1c0146105eb57806370a082311461060b578063731ce8fc1461064157806379cc67901461066357600080fd5b806339509351116101fe57806347757fb6116101b757806347757fb6146104fc5780634ee2cd7e1461051c5780634f1ef2861461053c5780635439ad861461054f5780635c975abb1461056457806362b199c51461058957600080fd5b806339509351146104435780633f4ba83a1461046357806340c10f1914610478578063410b24241461049857806342966c68146104ba57806343ffa64e146104da57600080fd5b8063253279ad11610250578063253279ad1461037e5780632f2ff15d146103a0578063313ce567146103c057806332258794146103e357806336568abe146104035780633659cfe61461042357600080fd5b806301ffc9a71461029857806306fdde03146102cd578063095ea7b3146102ef57806318160ddd1461030f57806323b872dd1461032e578063248a9ca31461034e575b600080fd5b3480156102a457600080fd5b506102b86102b3366004612ee9565b6108e4565b60405190151581526020015b60405180910390f35b3480156102d957600080fd5b506102e261091b565b6040516102c49190613028565b3480156102fb57600080fd5b506102b861030a366004612dd5565b6109ad565b34801561031b57600080fd5b506067545b6040519081526020016102c4565b34801561033a57600080fd5b506102b8610349366004612d37565b6109c3565b34801561035a57600080fd5b50610320610369366004612ead565b600090815260fb602052604090206001015490565b34801561038a57600080fd5b5061039e610399366004612f13565b610a74565b005b3480156103ac57600080fd5b5061039e6103bb366004612ec6565b610b4d565b3480156103cc57600080fd5b506101605460405160ff90911681526020016102c4565b3480156103ef57600080fd5b5061039e6103fe366004612dff565b610b65565b34801561040f57600080fd5b5061039e61041e366004612ec6565b610bda565b34801561042f57600080fd5b5061039e61043e366004612ce9565b610bee565b34801561044f57600080fd5b506102b861045e366004612dd5565b610cb7565b34801561046f57600080fd5b5061039e610cf3565b34801561048457600080fd5b5061039e610493366004612dd5565b610d14565b3480156104a457600080fd5b5061032060008051602061330483398151915281565b3480156104c657600080fd5b5061039e6104d5366004612ead565b610d4e565b3480156104e657600080fd5b506103206000805160206132c483398151915281565b34801561050857600080fd5b5061039e610517366004612ce9565b610d58565b34801561052857600080fd5b50610320610537366004612dd5565b610d95565b61039e61054a366004612d73565b610e3a565b34801561055b57600080fd5b50610320610ef0565b34801561057057600080fd5b5060008051602061338b8339815191525460ff166102b8565b34801561059557600080fd5b506103206000805160206132a483398151915281565b3480156105b757600080fd5b5061039e6105c6366004612dff565b610f0d565b3480156105d757600080fd5b5061039e6105e6366004612e41565b610f7c565b3480156105f757600080fd5b5061039e610606366004612dff565b61105b565b34801561061757600080fd5b50610320610626366004612ce9565b6001600160a01b031660009081526065602052604090205490565b34801561064d57600080fd5b506103206000805160206133ab83398151915281565b34801561066f57600080fd5b5061039e61067e366004612dd5565b6110b5565b34801561068f57600080fd5b5061039e611136565b3480156106a457600080fd5b506102b86106b3366004612ec6565b611157565b3480156106c457600080fd5b506102e2611182565b3480156106d957600080fd5b5061039e611191565b3480156106ee57600080fd5b506103206106fd366004612ead565b611199565b34801561070e57600080fd5b50610320600081565b34801561072357600080fd5b506102b8610732366004612dd5565b611204565b34801561074357600080fd5b506102b8610752366004612dd5565b61129d565b34801561076357600080fd5b5061032060008051602061328483398151915281565b34801561078557600080fd5b5061078e6112aa565b6040516001600160a01b0390911681526020016102c4565b3480156107b257600080fd5b5061039e6107c1366004612dff565b6112b4565b3480156107d257600080fd5b5061039e6107e1366004612dff565b61130e565b3480156107f257600080fd5b506103207ff9424f4303d7f03683a025eb8885734ad99b47df7749d9b0a02cbc985809700b81565b34801561082657600080fd5b5061039e610835366004612ec6565b611368565b34801561084657600080fd5b5061032060008051602061334b83398151915281565b34801561086857600080fd5b50610320610877366004612d04565b6001600160a01b03918216600090815260666020908152604080832093909416825291909152205490565b3480156108ae57600080fd5b506103206000805160206132e483398151915281565b3480156108d057600080fd5b5061039e6108df366004612dff565b61138e565b60006001600160e01b03198216637965db0b60e01b148061091557506301ffc9a760e01b6001600160e01b03198316145b92915050565b60606068805461092a906131f1565b80601f0160208091040260200160405190810160405280929190818152602001828054610956906131f1565b80156109a35780601f10610978576101008083540402835291602001916109a3565b820191906000526020600020905b81548152906001019060200180831161098657829003601f168201915b5050505050905090565b60006109ba3384846113e8565b50600192915050565b60006109d084848461150c565b6001600160a01b038416600090815260666020908152604080832033845290915290205482811015610a5a5760405162461bcd60e51b815260206004820152602860248201527f45524332303a207472616e7366657220616d6f756e74206578636565647320616044820152676c6c6f77616e636560c01b60648201526084015b60405180910390fd5b610a6785338584036113e8565b60019150505b9392505050565b600054610100900460ff16610a8f5760005460ff1615610a93565b303b155b610af65760405162461bcd60e51b815260206004820152602e60248201527f496e697469616c697a61626c653a20636f6e747261637420697320616c72656160448201526d191e481a5b9a5d1a585b1a5e995960921b6064820152608401610a51565b600054610100900460ff16158015610b18576000805461ffff19166101011790555b610b24858585856116e5565b610b2c611728565b610b34611751565b8015610b46576000805461ff00191690555b5050505050565b610b57828261179e565b610b61828261182d565b5050565b600080516020613304833981519152610b7e8133611853565b60005b82811015610bd457610bc26000805160206132a4833981519152858584818110610bad57610bad613257565b90506020020160208101906108359190612ce9565b80610bcc81613226565b915050610b81565b50505050565b610be482826118b7565b610b61828261191f565b306001600160a01b037f0000000000000000000000000000000000000000000000000000000000000000161415610c375760405162461bcd60e51b8152600401610a519061305b565b7f00000000000000000000000000000000000000000000000000000000000000006001600160a01b0316610c69611999565b6001600160a01b031614610c8f5760405162461bcd60e51b8152600401610a51906130a7565b610c98816119c7565b60408051600080825260208201909252610cb491839190611a49565b50565b3360008181526066602090815260408083206001600160a01b038716845290915281205490916109ba918590610cee90869061313e565b6113e8565b60008051602061334b833981519152610d0c8133611853565b610cb4611b8d565b7ff9424f4303d7f03683a025eb8885734ad99b47df7749d9b0a02cbc985809700b610d3f8133611853565b610d498383611c3a565b505050565b610cb43382611d25565b6000805160206132e4833981519152610d718133611853565b5061012d80546001600160a01b0319166001600160a01b0392909216919091179055565b604080516001600160a01b0384166020808301919091527ffbf1c7065455eb4486649b8540f24ef2dd4ebedf2aa423f0039d17c2c75dea15828401528251808303840181526060909201909252805191012060009081610df682600161313e565b9050600080610e06868585611e7f565b9150915081610e2d576001600160a01b038716600090815260656020526040902054610e2f565b805b979650505050505050565b306001600160a01b037f0000000000000000000000000000000000000000000000000000000000000000161415610e835760405162461bcd60e51b8152600401610a519061305b565b7f00000000000000000000000000000000000000000000000000000000000000006001600160a01b0316610eb5611999565b6001600160a01b031614610edb5760405162461bcd60e51b8152600401610a51906130a7565b610ee4826119c7565b610b6182826001611a49565b6000610f0860008051602061336b8339815191525490565b905090565b60008051602061334b833981519152610f268133611853565b60005b82811015610bd457610f6a600080516020613284833981519152858584818110610f5557610f55613257565b90506020020160208101906103bb9190612ce9565b80610f7481613226565b915050610f29565b7ff9424f4303d7f03683a025eb8885734ad99b47df7749d9b0a02cbc985809700b610fa78133611853565b838214610fee5760405162461bcd60e51b8152602060048201526015602482015274082e4e4c2f240d8cadccee8d040dad2e6dac2e8c6d605b1b6044820152606401610a51565b60005b848110156110535761104186868381811061100e5761100e613257565b90506020020160208101906110239190612ce9565b85858481811061103557611035613257565b90506020020135611c3a565b8061104b81613226565b915050610ff1565b505050505050565b60008051602061334b8339815191526110748133611853565b60005b82811015610bd4576110a36000805160206133ab833981519152858584818110610bad57610bad613257565b806110ad81613226565b915050611077565b60006110c18333610877565b90508181101561111f5760405162461bcd60e51b8152602060048201526024808201527f45524332303a206275726e20616d6f756e74206578636565647320616c6c6f77604482015263616e636560e01b6064820152608401610a51565b61112c83338484036113e8565b610d498383611d25565b60008051602061334b83398151915261114f8133611853565b610cb4611f6a565b600091825260fb602090815260408084206001600160a01b0393909316845291905290205460ff1690565b60606069805461092a906131f1565b610cb4611ffe565b60008060006111e9847f286a9db37a0f8ddcbcee127c9f4f56031230f49cb46786f87e166d552e11f67e7ffcaa8bb100d3c5b627eac0369cc1d2778dbeffa2993d08f039fb27795729e9a5611e7f565b91509150816111fa576067546111fc565b805b949350505050565b3360009081526066602090815260408083206001600160a01b0386168452909152812054828110156112865760405162461bcd60e51b815260206004820152602560248201527f45524332303a2064656372656173656420616c6c6f77616e63652062656c6f77604482015264207a65726f60d81b6064820152608401610a51565b61129333858584036113e8565b5060019392505050565b60006109ba33848461150c565b6000610f08611999565b60008051602061334b8339815191526112cd8133611853565b60005b82811015610bd4576112fc600080516020613284833981519152858584818110610bad57610bad613257565b8061130681613226565b9150506112d0565b6000805160206133048339815191526113278133611853565b60005b82811015610bd4576113566000805160206132a4833981519152858584818110610f5557610f55613257565b8061136081613226565b91505061132a565b600082815260fb60205260409020600101546113848133611853565b610d49838361206e565b60008051602061334b8339815191526113a78133611853565b60005b82811015610bd4576113d66000805160206133ab833981519152858584818110610f5557610f55613257565b806113e081613226565b9150506113aa565b6001600160a01b03831661144a5760405162461bcd60e51b8152602060048201526024808201527f45524332303a20617070726f76652066726f6d20746865207a65726f206164646044820152637265737360e01b6064820152608401610a51565b6001600160a01b0382166114ab5760405162461bcd60e51b815260206004820152602260248201527f45524332303a20617070726f766520746f20746865207a65726f206164647265604482015261737360f01b6064820152608401610a51565b6001600160a01b0383811660008181526066602090815260408083209487168084529482529182902085905590518481527f8c5be1e5ebec7d5bd14f71427d1e84f3dd0314c0f7b2291e5b200ac8c7c3b925910160405180910390a3505050565b6001600160a01b0383166115705760405162461bcd60e51b815260206004820152602560248201527f45524332303a207472616e736665722066726f6d20746865207a65726f206164604482015264647265737360d81b6064820152608401610a51565b6001600160a01b0382166115d25760405162461bcd60e51b815260206004820152602360248201527f45524332303a207472616e7366657220746f20746865207a65726f206164647260448201526265737360e81b6064820152608401610a51565b6115dd8383836120d5565b6001600160a01b038316600090815260656020526040902054818110156116555760405162461bcd60e51b815260206004820152602660248201527f45524332303a207472616e7366657220616d6f756e7420657863656564732062604482015265616c616e636560d01b6064820152608401610a51565b6001600160a01b0380851660009081526065602052604080822085850390559185168152908120805484929061168c90849061313e565b92505081905550826001600160a01b0316846001600160a01b03167fddf252ad1be2c89b69c2b068fc378daa952ba7f163c4a11628f55a4df523b3ef846040516116d891815260200190565b60405180910390a3610bd4565b600054610100900460ff1661170c5760405162461bcd60e51b8152600401610a51906130f3565b6117146120eb565b61171e8484612142565b610bd48282612190565b600054610100900460ff1661174f5760405162461bcd60e51b8152600401610a51906130f3565b565b600054610100900460ff166117785760405162461bcd60e51b8152600401610a51906130f3565b61174f6000805160206132a48339815191526000805160206133048339815191526121d1565b6000805160206133048339815191528214806117b8575081155b15610b61576117d56000805160206132a483398151915282611157565b15610b615760405162461bcd60e51b815260206004820152602260248201527f63616e206e6f742061737369676e20726f6c6520746f20626c61636b6c697374604482015261195960f21b6064820152608401610a51565b600082815260fb60205260409020600101546118498133611853565b610d49838361221c565b61185d8282611157565b610b6157611875816001600160a01b031660146122a2565b6118808360206122a2565b604051602001611891929190612fb3565b60408051601f198184030181529082905262461bcd60e51b8252610a5191600401613028565b6000805160206132a4833981519152821415610b615760405162461bcd60e51b815260206004820152602160248201527f43616e206e6f742072656e6f756e636520626c61636b6c697374656420726f6c6044820152606560f81b6064820152608401610a51565b6001600160a01b038116331461198f5760405162461bcd60e51b815260206004820152602f60248201527f416363657373436f6e74726f6c3a2063616e206f6e6c792072656e6f756e636560448201526e103937b632b9903337b91039b2b63360891b6064820152608401610a51565b610b61828261206e565b7f360894a13ba1a3210667c828492db98dca3e2076cc3735a920a3ca505d382bbc546001600160a01b031690565b6119df6000805160206132e483398151915233611157565b806119fd57506119fd6000805160206132c483398151915233611157565b610cb45760405162461bcd60e51b815260206004820152601d60248201527f4552524f523a2041646472657373206e6f7420617574686f72697a65640000006044820152606401610a51565b6000611a53611999565b9050611a5e8461243e565b600083511180611a6b5750815b15611a7c57611a7a84846124e3565b505b7f4910fdfa16fed3260ed0e7147f7cc6da11a60208b5b9406d12a635614ffd9143805460ff16610b4657805460ff191660011781556040516001600160a01b0383166024820152611afb90869060440160408051601f198184030181529190526020810180516001600160e01b0316631b2ce7f360e11b1790526124e3565b50805460ff19168155611b0c611999565b6001600160a01b0316826001600160a01b031614611b845760405162461bcd60e51b815260206004820152602f60248201527f45524331393637557067726164653a207570677261646520627265616b73206660448201526e75727468657220757067726164657360881b6064820152608401610a51565b610b46856125ce565b60008051602061338b8339815191525460ff16611be35760405162461bcd60e51b815260206004820152601460248201527314185d5cd8589b194e881b9bdd081c185d5cd95960621b6044820152606401610a51565b60008051602061338b833981519152805460ff191690557f5db9ee0a495bf2e6ff9c91a7834c1ba4fdd244a5e8aa4e537bd38aeae4b073aa335b6040516001600160a01b03909116815260200160405180910390a1565b6001600160a01b038216611c905760405162461bcd60e51b815260206004820152601f60248201527f45524332303a206d696e7420746f20746865207a65726f2061646472657373006044820152606401610a51565b611c9c600083836120d5565b8060676000828254611cae919061313e565b90915550506001600160a01b03821660009081526065602052604081208054839290611cdb90849061313e565b90915550506040518181526001600160a01b038316906000907fddf252ad1be2c89b69c2b068fc378daa952ba7f163c4a11628f55a4df523b3ef9060200160405180910390a35050565b6001600160a01b038216611d855760405162461bcd60e51b815260206004820152602160248201527f45524332303a206275726e2066726f6d20746865207a65726f206164647265736044820152607360f81b6064820152608401610a51565b611d91826000836120d5565b6001600160a01b03821660009081526065602052604090205481811015611e055760405162461bcd60e51b815260206004820152602260248201527f45524332303a206275726e20616d6f756e7420657863656564732062616c616e604482015261636560f01b6064820152608401610a51565b6001600160a01b0383166000908152606560205260408120838303905560678054849290611e34908490613197565b90915550506040518281526000906001600160a01b038516907fddf252ad1be2c89b69c2b068fc378daa952ba7f163c4a11628f55a4df523b3ef9060200160405180910390a3505050565b60008060008511611ecb5760405162461bcd60e51b815260206004820152601660248201527504552433230536e617073686f743a20696420697320360541b6044820152606401610a51565b60008051602061336b83398151915254851115611f2a5760405162461bcd60e51b815260206004820152601d60248201527f4552433230536e617073686f743a206e6f6e6578697374656e742069640000006044820152606401610a51565b6000611f36858761260e565b90508454811415611f4e576000809250925050611f62565b6001611f5a85836126ad565b549093509150505b935093915050565b60008051602061338b8339815191525460ff1615611fbd5760405162461bcd60e51b815260206004820152601060248201526f14185d5cd8589b194e881c185d5cd95960821b6044820152606401610a51565b60008051602061338b833981519152805460ff191660011790557f62e78cea01bee320cd4e420270b5ea74000d11b0c9f74754ebdbfc544b05a25833611c1d565b6000600160008051602061336b833981519152805460009061202190849061313e565b909155505060008051602061336b833981519152546040518181527f8030e83b04d87bef53480e26263266d6ca66863aa8506aca6f2559d18aa1cb679060200160405180910390a1919050565b6120788282611157565b15610b6157600082815260fb602090815260408083206001600160a01b0385168085529252808320805460ff1916905551339285917ff6391f5c32d9c69d2a47ea670b442974b53935d1edc7fd64eb21e047a839171b9190a45050565b6120e083838361272c565b610d4983838361274d565b600054610100900460ff166121125760405162461bcd60e51b8152600401610a51906130f3565b61211a611728565b612122611728565b61212a611728565b612132611728565b61213a611728565b61174f612795565b600054610100900460ff166121695760405162461bcd60e51b8152600401610a51906130f3565b815161217c906068906020850190612b52565b508051610d49906069906020840190612b52565b600054610100900460ff166121b75760405162461bcd60e51b8152600401610a51906130f3565b610160805460ff191660ff8416179055610b613382611c3a565b600082815260fb6020526040808220600101805490849055905190918391839186917fbd79b86ffe0ab8e8776151514217cd7cacd52c909f66475c3af44e129f0b00ff9190a4505050565b6122268282611157565b610b6157600082815260fb602090815260408083206001600160a01b03851684529091529020805460ff1916600117905561225e3390565b6001600160a01b0316816001600160a01b0316837f2f8788117e7eff1d82e926ec794901d17c78024a50270940304540a733656f0d60405160405180910390a45050565b606060006122b1836002613178565b6122bc90600261313e565b67ffffffffffffffff8111156122d4576122d461326d565b6040519080825280601f01601f1916602001820160405280156122fe576020820181803683370190505b509050600360fc1b8160008151811061231957612319613257565b60200101906001600160f81b031916908160001a905350600f60fb1b8160018151811061234857612348613257565b60200101906001600160f81b031916908160001a905350600061236c846002613178565b61237790600161313e565b90505b60018111156123ef576f181899199a1a9b1b9c1cb0b131b232b360811b85600f16601081106123ab576123ab613257565b1a60f81b8282815181106123c1576123c1613257565b60200101906001600160f81b031916908160001a90535060049490941c936123e8816131da565b905061237a565b508315610a6d5760405162461bcd60e51b815260206004820181905260248201527f537472696e67733a20686578206c656e67746820696e73756666696369656e746044820152606401610a51565b803b6124a25760405162461bcd60e51b815260206004820152602d60248201527f455243313936373a206e657720696d706c656d656e746174696f6e206973206e60448201526c1bdd08184818dbdb9d1c9858dd609a1b6064820152608401610a51565b7f360894a13ba1a3210667c828492db98dca3e2076cc3735a920a3ca505d382bbc80546001600160a01b0319166001600160a01b0392909216919091179055565b6060823b6125425760405162461bcd60e51b815260206004820152602660248201527f416464726573733a2064656c65676174652063616c6c20746f206e6f6e2d636f6044820152651b9d1c9858dd60d21b6064820152608401610a51565b600080846001600160a01b03168460405161255d9190612f97565b600060405180830381855af49150503d8060008114612598576040519150601f19603f3d011682016040523d82523d6000602084013e61259d565b606091505b50915091506125c582826040518060600160405280602781526020016133246027913961281d565b95945050505050565b6125d78161243e565b6040516001600160a01b038216907fbc7cd75a20ee27fd9adebab32041f755214dbc6bffa90cc0225b39da2e5c2d3b90600090a250565b815460009081908061262557600092505050610915565b808210156126695760006126398383612856565b90508461264687836126ad565b54111561265557809150612663565b61266081600161313e565b92505b50612625565b60008211801561268c57508361268986612684600186613197565b6126ad565b54145b156126a55761269c600183613197565b92505050610915565b509050610915565b6000825482106126f55760405162461bcd60e51b815260206004820152601360248201527211549493d48e8813dd5d081bd988189bdd5b99606a1b6044820152606401610a51565b818360405160200161270991815260200190565b6040516020818303038152906040528051906020012060001c610a6d919061313e565b6127378383836120e0565b612742838383612871565b610d498383836128f4565b6001600160a01b03831661276c576127648261294c565b610d496129d6565b6001600160a01b038216612783576127648361294c565b61278c8361294c565b610d498261294c565b600054610100900460ff166127bc5760405162461bcd60e51b8152600401610a51906130f3565b6127c7600033612a24565b6127df6000805160206132e483398151915233612a24565b6127f76000805160206132c483398151915233612a24565b61174f6000805160206132c48339815191526000805160206132e48339815191526121d1565b6060831561282c575081610a6d565b82511561283c5782518084602001fd5b8160405162461bcd60e51b8152600401610a519190613028565b60006128656002848418613156565b610a6d9084841661313e565b60008051602061338b8339815191525460ff16158061289557506128958333612a2e565b610d495760405162461bcd60e51b815260206004820152602a60248201527f45524332305061757361626c653a20746f6b656e207472616e736665722077686044820152691a5b19481c185d5cd95960b21b6064820152608401610a51565b6128ff338484612a66565b15610d495760405162461bcd60e51b815260206004820152601a60248201527f4552524f523a204164647265737320426c61636b6c69737465640000000000006044820152606401610a51565b604080516001600160a01b0383166020808301919091527ffbf1c7065455eb4486649b8540f24ef2dd4ebedf2aa423f0039d17c2c75dea15828401528251808303840181526060909201909252805191012060006129ab82600161313e565b9050610d4982826129d1866001600160a01b031660009081526065602052604090205490565b612abc565b61174f7f286a9db37a0f8ddcbcee127c9f4f56031230f49cb46786f87e166d552e11f67e7ffcaa8bb100d3c5b627eac0369cc1d2778dbeffa2993d08f039fb27795729e9a56129d160675490565b610b61828261221c565b6000612a486000805160206133ab83398151915284611157565b80610a6d5750610a6d60008051602061328483398151915283611157565b6000612a806000805160206132a483398151915284611157565b80612a9e5750612a9e6000805160206132a483398151915285611157565b806111fc57506111fc6000805160206132a483398151915283611157565b6000612ad460008051602061336b8339815191525490565b905080612ae085612afa565b1015610bd457612af08482612b2a565b610bd48383612b2a565b805460009080612b0d5750600092915050565b612b1c83612684600184613197565b549392505050565b50919050565b81546001836000612b3b838561313e565b90915550829050612b4c84836126ad565b55505050565b828054612b5e906131f1565b90600052602060002090601f016020900481019282612b805760008555612bc6565b82601f10612b9957805160ff1916838001178555612bc6565b82800160010185558215612bc6579182015b82811115612bc6578251825591602001919060010190612bab565b50612bd2929150612bd6565b5090565b5b80821115612bd25760008155600101612bd7565b600067ffffffffffffffff80841115612c0657612c0661326d565b604051601f8501601f19908116603f01168101908282118183101715612c2e57612c2e61326d565b81604052809350858152868686011115612c4757600080fd5b858560208301376000602087830101525050509392505050565b80356001600160a01b0381168114612c7857600080fd5b919050565b60008083601f840112612c8f57600080fd5b50813567ffffffffffffffff811115612ca757600080fd5b6020830191508360208260051b8501011115612cc257600080fd5b9250929050565b600082601f830112612cda57600080fd5b610a6d83833560208501612beb565b600060208284031215612cfb57600080fd5b610a6d82612c61565b60008060408385031215612d1757600080fd5b612d2083612c61565b9150612d2e60208401612c61565b90509250929050565b600080600060608486031215612d4c57600080fd5b612d5584612c61565b9250612d6360208501612c61565b9150604084013590509250925092565b60008060408385031215612d8657600080fd5b612d8f83612c61565b9150602083013567ffffffffffffffff811115612dab57600080fd5b8301601f81018513612dbc57600080fd5b612dcb85823560208401612beb565b9150509250929050565b60008060408385031215612de857600080fd5b612df183612c61565b946020939093013593505050565b60008060208385031215612e1257600080fd5b823567ffffffffffffffff811115612e2957600080fd5b612e3585828601612c7d565b90969095509350505050565b60008060008060408587031215612e5757600080fd5b843567ffffffffffffffff80821115612e6f57600080fd5b612e7b88838901612c7d565b90965094506020870135915080821115612e9457600080fd5b50612ea187828801612c7d565b95989497509550505050565b600060208284031215612ebf57600080fd5b5035919050565b60008060408385031215612ed957600080fd5b82359150612d2e60208401612c61565b600060208284031215612efb57600080fd5b81356001600160e01b031981168114610a6d57600080fd5b60008060008060808587031215612f2957600080fd5b843567ffffffffffffffff80821115612f4157600080fd5b612f4d88838901612cc9565b95506020870135915080821115612f6357600080fd5b50612f7087828801612cc9565b935050604085013560ff81168114612f8757600080fd5b9396929550929360600135925050565b60008251612fa98184602087016131ae565b9190910192915050565b7f416363657373436f6e74726f6c3a206163636f756e7420000000000000000000815260008351612feb8160178501602088016131ae565b7001034b99036b4b9b9b4b733903937b6329607d1b601791840191820152835161301c8160288401602088016131ae565b01602801949350505050565b60208152600082518060208401526130478160408501602087016131ae565b601f01601f19169190910160400192915050565b6020808252602c908201527f46756e6374696f6e206d7573742062652063616c6c6564207468726f7567682060408201526b19195b1959d85d1958d85b1b60a21b606082015260800190565b6020808252602c908201527f46756e6374696f6e206d7573742062652063616c6c6564207468726f7567682060408201526b6163746976652070726f787960a01b606082015260800190565b6020808252602b908201527f496e697469616c697a61626c653a20636f6e7472616374206973206e6f74206960408201526a6e697469616c697a696e6760a81b606082015260800190565b6000821982111561315157613151613241565b500190565b60008261317357634e487b7160e01b600052601260045260246000fd5b500490565b600081600019048311821515161561319257613192613241565b500290565b6000828210156131a9576131a9613241565b500390565b60005b838110156131c95781810151838201526020016131b1565b83811115610bd45750506000910152565b6000816131e9576131e9613241565b506000190190565b600181811c9082168061320557607f821691505b60208210811415612b2457634e487b7160e01b600052602260045260246000fd5b600060001982141561323a5761323a613241565b5060010190565b634e487b7160e01b600052601160045260246000fd5b634e487b7160e01b600052603260045260246000fd5b634e487b7160e01b600052604160045260246000fdfee1ac655ab58995133a870d1fd307ddc1d624c8ad919a09e67867a7a1483e439a548c7f0307ab2a7ea894e5c7e8c5353cc750bb9385ee2e945f189a9a83daa8eda76ace73a908083d89af9ff88e5b4f7cadb3591a80631063f68b695fda726db571840dc4906352362b0cdaf79870196c8e42acafade72d5d5a6d59291253ceb1f988e4fb62b8e14f4820fed03192306ddf4d7dbfa215595ba1c6ba4b76b369ee416464726573733a206c6f772d6c6576656c2064656c65676174652063616c6c206661696c6564356a809dfdea9198dd76fb76bf6d403ecf13ea675eb89e1eda2db2c4a4676a260d0a0ed3351c10a57d74a44b40c06e0946288e4e3816ac07bb89db2a755562e7ad6a6591fa308fe948065665239402780db8ed4a8c4e4e16c4d066bcaa05efc2ce108bcc5e0f50fe603649304cbbbd94de794a404db82d884c0afc9ba9328e61a2646970667358221220d12ac114d3003ee1c48b41f74a91b84a2d4bf1f9432d38a8e9893253f5707a4464736f6c63430008060033",
  "linkReferences": {},
  "deployedLinkReferences": {}
}