{
  "_format": "hh-sol-artifact-1",
  "name": "BlacklistMintTemplate",
  "initializer": "function initialize(string name_, string symbol_, uint8 decimals_, uint256 amount_)",
  "sourceName": "contracts/templates/BlacklistMintTemplate.sol",
  "abi": [
    {
      "anonymous": false,
      "inputs": [
        {
          "indexed": false,
          "internalType": "address",
          "name": "previousAdmin",
          "type": "address"
        },
        {
          "indexed": false,
          "internalType": "address",
          "name": "newAdmin",
          "type": "address"
        }
      ],
      "name": "AdminChanged",
      "type": "event"
    },
    {
      "anonymous": false,
      "inputs": [
        {
          "indexed": true,
          "internalType": "address",
          "name": "owner",
          "type": "address"
        },
        {
          "indexed": true,
          "internalType": "address",
          "name": "spender",
          "type": "address"
        },
        {
          "indexed": false,
          "internalType": "uint256",
          "name": "value",
          "type": "uint256"
        }
      ],
      "name": "Approval",
      "type": "event"
    },
    {
      "anonymous": false,
      "inputs": [
        {
          "indexed": true,
          "internalType": "address",
          "name": "beacon",
          "type": "address"
        }
      ],
      "name": "BeaconUpgraded",
      "type": "event"
    },
    {
      "anonymous": false,
      "inputs": [
        {
          "indexed": true,
          "internalType": "bytes32",
          "name": "role",
          "type": "bytes32"
        },
        {
          "indexed": true,
          "internalType": "bytes32",
          "name": "previousAdminRole",
          "type": "bytes32"
        },
        {
          "indexed": true,
          "internalType": "bytes32",
          "name": "newAdminRole",
          "type": "bytes32"
        }
      ],
      "name": "RoleAdminChanged",
      "type": "event"
    },
    {
      "anonymous": false,
      "inputs": [
        {
          "indexed": true,
          "internalType": "bytes32",
          "name": "role",
          "type": "bytes32"
        },
        {
          "indexed": true,
          "internalType": "address",
          "name": "account",
          "type": "address"
        },
        {
          "indexed": true,
          "internalType": "address",
          "name": "sender",
          "type": "address"
        }
      ],
      "name": "RoleGranted",
      "type": "event"
    },
    {
      "anonymous": false,
      "inputs": [
        {
          "indexed": true,
          "internalType": "bytes32",
          "name": "role",
          "type": "bytes32"
        },
        {
          "indexed": true,
          "internalType": "address",
          "name": "account",
          "type": "address"
        },
        {
          "indexed": true,
          "internalType": "address",
          "name": "sender",
          "type": "address"
        }
      ],
      "name": "RoleRevoked",
      "type": "event"
    },
    {
      "anonymous": false,
      "inputs": [
        {
          "indexed": true,
          "internalType": "address",
          "name": "from",
          "type": "address"
        },
        {
          "indexed": true,
          "internalType": "address",
          "name": "to",
          "type": "address"
        },
        {
          "indexed": false,
          "internalType": "uint256",
          "name": "value",
          "type": "uint256"
        }
      ],
      "name": "Transfer",
      "type": "event"
    },
    {
      "anonymous": false,
      "inputs": [
        {
          "indexed": true,
          "internalType": "address",
          "name": "implementation",
          "type": "address"
        }
      ],
      "name": "Upgraded",
      "type": "event"
    },
    {
      "inputs": [],
      "name": "BLACKLISTED_ROLE",
      "outputs": [
        {
          "internalType": "bytes32",
          "name": "",
          "type": "bytes32"
        }
      ],
      "stateMutability": "view",
      "type": "function"
    },
    {
      "inputs": [],
      "name": "BLACKLIST_MANAGER_ROLE",
      "outputs": [
        {
          "internalType": "bytes32",
          "name": "",
          "type": "bytes32"
        }
      ],
      "stateMutability": "view",
      "type": "function"
    },
    {
      "inputs": [],
      "name": "DEFAULT_ADMIN_ROLE",
      "outputs": [
        {
          "internalType": "bytes32",
          "name": "",
          "type": "bytes32"
        }
      ],
      "stateMutability": "view",
      "type": "function"
    },
    {
      "inputs": [],
      "name": "GOVERNANCE_ROLE",
      "outputs": [
        {
          "internalType": "bytes32",
          "name": "",
          "type": "bytes32"
        }
      ],
      "stateMutability": "view",
      "type": "function"
    },
    {
      "inputs": [],
      "name": "MINTER_ROLE",
      "outputs": [
        {
          "internalType": "bytes32",
          "name": "",
          "type": "bytes32"
        }
      ],
      "stateMutability": "view",
      "type": "function"
    },
    {
      "inputs": [],
      "name": "UPGRADE_MANAGER_ROLE",
      "outputs": [
        {
          "internalType": "bytes32",
          "name": "",
          "type": "bytes32"
        }
      ],
      "stateMutability": "view",
      "type": "function"
    },
    {
      "inputs": [
        {
          "internalType": "address[]",
          "name": "addresses",
          "type": "address[]"
        }
      ],
      "name": "addAddressesToBlacklist",
      "outputs": [],
      "stateMutability": "nonpayable",
      "type": "function"
    },
    {
      "inputs": [
        {
          "internalType": "address",
          "name": "owner",
          "type": "address"
        },
        {
          "internalType": "address",
          "name": "spender",
          "type": "address"
        }
      ],
      "name": "allowance",
      "outputs": [
        {
          "internalType": "uint256",
          "name": "",
          "type": "uint256"
        }
      ],
      "stateMutability": "view",
      "type": "function"
    },
    {
      "inputs": [
        {
          "internalType": "address",
          "name": "spender",
          "type": "address"
        },
        {
          "internalType": "uint256",
          "name": "amount",
          "type": "uint256"
        }
      ],
      "name": "approve",
      "outputs": [
        {
          "internalType": "bool",
          "name": "",
          "type": "bool"
        }
      ],
      "stateMutability": "nonpayable",
      "type": "function"
    },
    {
      "inputs": [
        {
          "internalType": "address",
          "name": "account",
          "type": "address"
        }
      ],
      "name": "balanceOf",
      "outputs": [
        {
          "internalType": "uint256",
          "name": "",
          "type": "uint256"
        }
      ],
      "stateMutability": "view",
      "type": "function"
    },
    {
      "inputs": [
        {
          "internalType": "address[]",
          "name": "accounts",
          "type": "address[]"
        },
        {
          "internalType": "uint256[]",
          "name": "amounts",
          "type": "uint256[]"
        }
      ],
      "name": "bulkMint",
      "outputs": [],
      "stateMutability": "nonpayable",
      "type": "function"
    },
    {
      "inputs": [],
      "name": "decimals",
      "outputs": [
        {
          "internalType": "uint8",
          "name": "",
          "type": "uint8"
        }
      ],
      "stateMutability": "view",
      "type": "function"
    },
    {
      "inputs": [
        {
          "internalType": "address",
          "name": "spender",
          "type": "address"
        },
        {
          "internalType": "uint256",
          "name": "subtractedValue",
          "type": "uint256"
        }
      ],
      "name": "decreaseAllowance",
      "outputs": [
        {
          "internalType": "bool",
          "name": "",
          "type": "bool"
        }
      ],
      "stateMutability": "nonpayable",
      "type": "function"
    },
    {
      "inputs": [],
      "name": "getImplementation",
      "outputs": [
        {
          "internalType": "address",
          "name": "",
          "type": "address"
        }
      ],
      "stateMutability": "view",
      "type": "function"
    },
    {
      "inputs": [
        {
          "internalType": "bytes32",
          "name": "role",
          "type": "bytes32"
        }
      ],
      "name": "getRoleAdmin",
      "outputs": [
        {
          "internalType": "bytes32",
          "name": "",
          "type": "bytes32"
        }
      ],
      "stateMutability": "view",
      "type": "function"
    },
    {
      "inputs": [
        {
          "internalType": "bytes32",
          "name": "role",
          "type": "bytes32"
        },
        {
          "internalType": "address",
          "name": "account",
          "type": "address"
        }
      ],
      "name": "grantRole",
      "outputs": [],
      "stateMutability": "nonpayable",
      "type": "function"
    },
    {
      "inputs": [
        {
          "internalType": "bytes32",
          "name": "role",
          "type": "bytes32"
        },
        {
          "internalType": "address",
          "name": "account",
          "type": "address"
        }
      ],
      "name": "hasRole",
      "outputs": [
        {
          "internalType": "bool",
          "name": "",
          "type": "bool"
        }
      ],
      "stateMutability": "view",
      "type": "function"
    },
    {
      "inputs": [
        {
          "internalType": "address",
          "name": "spender",
          "type": "address"
        },
        {
          "internalType": "uint256",
          "name": "addedValue",
          "type": "uint256"
        }
      ],
      "name": "increaseAllowance",
      "outputs": [
        {
          "internalType": "bool",
          "name": "",
          "type": "bool"
        }
      ],
      "stateMutability": "nonpayable",
      "type": "function"
    },
    {
      "inputs": [
        {
          "internalType": "string",
          "name": "name_",
          "type": "string"
        },
        {
          "internalType": "string",
          "name": "symbol_",
          "type": "string"
        },
        {
          "internalType": "uint8",
          "name": "decimals_",
          "type": "uint8"
        },
        {
          "internalType": "uint256",
          "name": "amount_",
          "type": "uint256"
        }
      ],
      "name": "initialize",
      "outputs": [],
      "stateMutability": "nonpayable",
      "type": "function"
    },
    {
      "inputs": [
        {
          "internalType": "address",
          "name": "account",
          "type": "address"
        },
        {
          "internalType": "uint256",
          "name": "amount",
          "type": "uint256"
        }
      ],
      "name": "mint",
      "outputs": [],
      "stateMutability": "nonpayable",
      "type": "function"
    },
    {
      "inputs": [],
      "name": "name",
      "outputs": [
        {
          "internalType": "string",
          "name": "",
          "type": "string"
        }
      ],
      "stateMutability": "view",
      "type": "function"
    },
    {
      "inputs": [
        {
          "internalType": "address",
          "name": "implementationAddress",
          "type": "address"
        }
      ],
      "name": "proposeNewImplementation",
      "outputs": [],
      "stateMutability": "nonpayable",
      "type": "function"
    },
    {
      "inputs": [
        {
          "internalType": "address[]",
          "name": "addresses",
          "type": "address[]"
        }
      ],
      "name": "removeAddressesFromBlacklist",
      "outputs": [],
      "stateMutability": "nonpayable",
      "type": "function"
    },
    {
      "inputs": [
        {
          "internalType": "bytes32",
          "name": "role",
          "type": "bytes32"
        },
        {
          "internalType": "address",
          "name": "account",
          "type": "address"
        }
      ],
      "name": "renounceRole",
      "outputs": [],
      "stateMutability": "nonpayable",
      "type": "function"
    },
    {
      "inputs": [
        {
          "internalType": "bytes32",
          "name": "role",
          "type": "bytes32"
        },
        {
          "internalType": "address",
          "name": "account",
          "type": "address"
        }
      ],
      "name": "revokeRole",
      "outputs": [],
      "stateMutability": "nonpayable",
      "type": "function"
    },
    {
      "inputs": [
        {
          "internalType": "bytes4",
          "name": "interfaceId",
          "type": "bytes4"
        }
      ],
      "name": "supportsInterface",
      "outputs": [
        {
          "internalType": "bool",
          "name": "",
          "type": "bool"
        }
      ],
      "stateMutability": "view",
      "type": "function"
    },
    {
      "inputs": [],
      "name": "symbol",
      "outputs": [
        {
          "internalType": "string",
          "name": "",
          "type": "string"
        }
      ],
      "stateMutability": "view",
      "type": "function"
    },
    {
      "inputs": [],
      "name": "totalSupply",
      "outputs": [
        {
          "internalType": "uint256",
          "name": "",
          "type": "uint256"
        }
      ],
      "stateMutability": "view",
      "type": "function"
    },
    {
      "inputs": [
        {
          "internalType": "address",
          "name": "recipient",
          "type": "address"
        },
        {
          "internalType": "uint256",
          "name": "amount",
          "type": "uint256"
        }
      ],
      "name": "transfer",
      "outputs": [
        {
          "internalType": "bool",
          "name": "",
          "type": "bool"
        }
      ],
      "stateMutability": "nonpayable",
      "type": "function"
    },
    {
      "inputs": [
        {
          "internalType": "address",
          "name": "sender",
          "type": "address"
        },
        {
          "internalType": "address",
          "name": "recipient",
          "type": "address"
        },
        {
          "internalType": "uint256",
          "name": "amount",
          "type": "uint256"
        }
      ],
      "name": "transferFrom",
      "outputs": [
        {
          "internalType": "bool",
          "name": "",
          "type": "bool"
        }
      ],
      "stateMutability": "nonpayable",
      "type": "function"
    },
    {
      "inputs": [
        {
          "internalType": "address",
          "name": "newImplementation",
          "type": "address"
        }
      ],
      "name": "upgradeTo",
      "outputs": [],
      "stateMutability": "nonpayable",
      "type": "function"
    },
    {
      "inputs": [
        {
          "internalType": "address",
          "name": "newImplementation",
          "type": "address"
        },
        {
          "internalType": "bytes",
          "name": "data",
          "type": "bytes"
        }
      ],
      "name": "upgradeToAndCall",
      "outputs": [],
      "stateMutability": "payable",
      "type": "function"
    }
  ],
  "bytecode": "0x60a06040523060601b60805234801561001757600080fd5b5060805160601c61260361004b600039600081816109d701528181610a1701528181610b530152610b9301526126036000f3fe6080604052600436106101e35760003560e01c806347757fb611610102578063a457c2d711610095578063d539139311610064578063d539139314610599578063d547741f146105cd578063dd62ed3e146105ed578063f36c8f5c1461063357600080fd5b8063a457c2d71461050c578063a9059cbb1461052c578063aaf10f421461054c578063ca73419e1461057957600080fd5b806370a08231116100d157806370a082311461048c57806391d14854146104c257806395d89b41146104e2578063a217fddf146104f757600080fd5b806347757fb6146104175780634f1ef2861461043757806362b199c51461044a5780636ae459bd1461046c57600080fd5b8063313ce5671161017a5780633950935111610149578063395093511461039357806340c10f19146103b3578063410b2424146103d357806343ffa64e146103f557600080fd5b8063313ce56714610310578063322587941461033357806336568abe146103535780633659cfe61461037357600080fd5b806323b872dd116101b657806323b872dd1461027e578063248a9ca31461029e578063253279ad146102ce5780632f2ff15d146102f057600080fd5b806301ffc9a7146101e857806306fdde031461021d578063095ea7b31461023f57806318160ddd1461025f575b600080fd5b3480156101f457600080fd5b506102086102033660046121b1565b610655565b60405190151581526020015b60405180910390f35b34801561022957600080fd5b5061023261068c565b60405161021491906122fe565b34801561024b57600080fd5b5061020861025a36600461209d565b61071e565b34801561026b57600080fd5b506067545b604051908152602001610214565b34801561028a57600080fd5b50610208610299366004611f9f565b610734565b3480156102aa57600080fd5b506102706102b9366004612175565b600090815260fb602052604090206001015490565b3480156102da57600080fd5b506102ee6102e93660046121db565b6107e5565b005b3480156102fc57600080fd5b506102ee61030b36600461218e565b61092b565b34801561031c57600080fd5b506101605460405160ff9091168152602001610214565b34801561033f57600080fd5b506102ee61034e3660046120c7565b610943565b34801561035f57600080fd5b506102ee61036e36600461218e565b6109b8565b34801561037f57600080fd5b506102ee61038e366004611f51565b6109cc565b34801561039f57600080fd5b506102086103ae36600461209d565b610a95565b3480156103bf57600080fd5b506102ee6103ce36600461209d565b610ad1565b3480156103df57600080fd5b5061027060008051602061258783398151915281565b34801561040157600080fd5b5061027060008051602061254783398151915281565b34801561042357600080fd5b506102ee610432366004611f51565b610b0b565b6102ee610445366004611fdb565b610b48565b34801561045657600080fd5b5061027060008051602061252783398151915281565b34801561047857600080fd5b506102ee610487366004612109565b610bfe565b34801561049857600080fd5b506102706104a7366004611f51565b6001600160a01b031660009081526065602052604090205490565b3480156104ce57600080fd5b506102086104dd36600461218e565b610cdd565b3480156104ee57600080fd5b50610232610d08565b34801561050357600080fd5b50610270600081565b34801561051857600080fd5b5061020861052736600461209d565b610d17565b34801561053857600080fd5b5061020861054736600461209d565b610db0565b34801561055857600080fd5b50610561610dbd565b6040516001600160a01b039091168152602001610214565b34801561058557600080fd5b506102ee6105943660046120c7565b610dcc565b3480156105a557600080fd5b506102707ff9424f4303d7f03683a025eb8885734ad99b47df7749d9b0a02cbc985809700b81565b3480156105d957600080fd5b506102ee6105e836600461218e565b610e3b565b3480156105f957600080fd5b50610270610608366004611f6c565b6001600160a01b03918216600090815260666020908152604080832093909416825291909152205490565b34801561063f57600080fd5b5061027060008051602061256783398151915281565b60006001600160e01b03198216637965db0b60e01b148061068657506301ffc9a760e01b6001600160e01b03198316145b92915050565b60606068805461069b9061248e565b80601f01602080910402602001604051908101604052809291908181526020018280546106c79061248e565b80156107145780601f106106e957610100808354040283529160200191610714565b820191906000526020600020905b8154815290600101906020018083116106f757829003601f168201915b5050505050905090565b600061072b338484610e61565b50600192915050565b6000610741848484610f85565b6001600160a01b0384166000908152606660209081526040808320338452909152902054828110156107cb5760405162461bcd60e51b815260206004820152602860248201527f45524332303a207472616e7366657220616d6f756e74206578636565647320616044820152676c6c6f77616e636560c01b60648201526084015b60405180910390fd5b6107d88533858403610e61565b60019150505b9392505050565b600054610100900460ff166108005760005460ff1615610804565b303b155b6108675760405162461bcd60e51b815260206004820152602e60248201527f496e697469616c697a61626c653a20636f6e747261637420697320616c72656160448201526d191e481a5b9a5d1a585b1a5e995960921b60648201526084016107c2565b600054610100900460ff16158015610889576000805461ffff19166101011790555b61090087878080601f01602080910402602001604051908101604052809392919081815260200183838082843760009201919091525050604080516020601f8b01819004810282018101909252898152925089915088908190840183828082843760009201919091525088925087915061115e9050565b6109086111a1565b6109106111ca565b8015610922576000805461ff00191690555b50505050505050565b6109358282611217565b61093f82826112a6565b5050565b60008051602061258783398151915261095c81336112cc565b60005b828110156109b2576109a060008051602061252783398151915285858481811061098b5761098b6124fa565b90506020020160208101906105e89190611f51565b806109aa816124c9565b91505061095f565b50505050565b6109c28282611330565b61093f8282611398565b306001600160a01b037f0000000000000000000000000000000000000000000000000000000000000000161415610a155760405162461bcd60e51b81526004016107c290612331565b7f00000000000000000000000000000000000000000000000000000000000000006001600160a01b0316610a47611412565b6001600160a01b031614610a6d5760405162461bcd60e51b81526004016107c29061237d565b610a7681611440565b60408051600080825260208201909252610a92918391906114c2565b50565b3360008181526066602090815260408083206001600160a01b0387168452909152812054909161072b918590610acc908690612414565b610e61565b7ff9424f4303d7f03683a025eb8885734ad99b47df7749d9b0a02cbc985809700b610afc81336112cc565b610b06838361160d565b505050565b600080516020612567833981519152610b2481336112cc565b5061012d80546001600160a01b0319166001600160a01b0392909216919091179055565b306001600160a01b037f0000000000000000000000000000000000000000000000000000000000000000161415610b915760405162461bcd60e51b81526004016107c290612331565b7f00000000000000000000000000000000000000000000000000000000000000006001600160a01b0316610bc3611412565b6001600160a01b031614610be95760405162461bcd60e51b81526004016107c29061237d565b610bf282611440565b61093f828260016114c2565b7ff9424f4303d7f03683a025eb8885734ad99b47df7749d9b0a02cbc985809700b610c2981336112cc565b838214610c705760405162461bcd60e51b8152602060048201526015602482015274082e4e4c2f240d8cadccee8d040dad2e6dac2e8c6d605b1b60448201526064016107c2565b60005b84811015610cd557610cc3868683818110610c9057610c906124fa565b9050602002016020810190610ca59190611f51565b858584818110610cb757610cb76124fa565b9050602002013561160d565b80610ccd816124c9565b915050610c73565b505050505050565b600091825260fb602090815260408084206001600160a01b0393909316845291905290205460ff1690565b60606069805461069b9061248e565b3360009081526066602090815260408083206001600160a01b038616845290915281205482811015610d995760405162461bcd60e51b815260206004820152602560248201527f45524332303a2064656372656173656420616c6c6f77616e63652062656c6f77604482015264207a65726f60d81b60648201526084016107c2565b610da63385858403610e61565b5060019392505050565b600061072b338484610f85565b6000610dc7611412565b905090565b600080516020612587833981519152610de581336112cc565b60005b828110156109b257610e29600080516020612527833981519152858584818110610e1457610e146124fa565b905060200201602081019061030b9190611f51565b80610e33816124c9565b915050610de8565b600082815260fb6020526040902060010154610e5781336112cc565b610b0683836116f8565b6001600160a01b038316610ec35760405162461bcd60e51b8152602060048201526024808201527f45524332303a20617070726f76652066726f6d20746865207a65726f206164646044820152637265737360e01b60648201526084016107c2565b6001600160a01b038216610f245760405162461bcd60e51b815260206004820152602260248201527f45524332303a20617070726f766520746f20746865207a65726f206164647265604482015261737360f01b60648201526084016107c2565b6001600160a01b0383811660008181526066602090815260408083209487168084529482529182902085905590518481527f8c5be1e5ebec7d5bd14f71427d1e84f3dd0314c0f7b2291e5b200ac8c7c3b925910160405180910390a3505050565b6001600160a01b038316610fe95760405162461bcd60e51b815260206004820152602560248201527f45524332303a207472616e736665722066726f6d20746865207a65726f206164604482015264647265737360d81b60648201526084016107c2565b6001600160a01b03821661104b5760405162461bcd60e51b815260206004820152602360248201527f45524332303a207472616e7366657220746f20746865207a65726f206164647260448201526265737360e81b60648201526084016107c2565b61105683838361175f565b6001600160a01b038316600090815260656020526040902054818110156110ce5760405162461bcd60e51b815260206004820152602660248201527f45524332303a207472616e7366657220616d6f756e7420657863656564732062604482015265616c616e636560d01b60648201526084016107c2565b6001600160a01b03808516600090815260656020526040808220858503905591851681529081208054849290611105908490612414565b92505081905550826001600160a01b0316846001600160a01b03167fddf252ad1be2c89b69c2b068fc378daa952ba7f163c4a11628f55a4df523b3ef8460405161115191815260200190565b60405180910390a36109b2565b600054610100900460ff166111855760405162461bcd60e51b81526004016107c2906123c9565b61118d61176a565b61119784846117c1565b6109b2828261180f565b600054610100900460ff166111c85760405162461bcd60e51b81526004016107c2906123c9565b565b600054610100900460ff166111f15760405162461bcd60e51b81526004016107c2906123c9565b6111c8600080516020612527833981519152600080516020612587833981519152611850565b600080516020612587833981519152821480611231575081155b1561093f5761124e60008051602061252783398151915282610cdd565b1561093f5760405162461bcd60e51b815260206004820152602260248201527f63616e206e6f742061737369676e20726f6c6520746f20626c61636b6c697374604482015261195960f21b60648201526084016107c2565b600082815260fb60205260409020600101546112c281336112cc565b610b06838361189b565b6112d68282610cdd565b61093f576112ee816001600160a01b03166014611921565b6112f9836020611921565b60405160200161130a929190612289565b60408051601f198184030181529082905262461bcd60e51b82526107c2916004016122fe565b60008051602061252783398151915282141561093f5760405162461bcd60e51b815260206004820152602160248201527f43616e206e6f742072656e6f756e636520626c61636b6c697374656420726f6c6044820152606560f81b60648201526084016107c2565b6001600160a01b03811633146114085760405162461bcd60e51b815260206004820152602f60248201527f416363657373436f6e74726f6c3a2063616e206f6e6c792072656e6f756e636560448201526e103937b632b9903337b91039b2b63360891b60648201526084016107c2565b61093f82826116f8565b7f360894a13ba1a3210667c828492db98dca3e2076cc3735a920a3ca505d382bbc546001600160a01b031690565b61145860008051602061256783398151915233610cdd565b80611476575061147660008051602061254783398151915233610cdd565b610a925760405162461bcd60e51b815260206004820152601d60248201527f4552524f523a2041646472657373206e6f7420617574686f72697a656400000060448201526064016107c2565b60006114cc611412565b90506114d784611abd565b6000835111806114e45750815b156114f5576114f38484611b62565b505b7f4910fdfa16fed3260ed0e7147f7cc6da11a60208b5b9406d12a635614ffd9143805460ff1661160657805460ff191660011781556040516001600160a01b038316602482015261157490869060440160408051601f198184030181529190526020810180516001600160e01b0316631b2ce7f360e11b179052611b62565b50805460ff19168155611585611412565b6001600160a01b0316826001600160a01b0316146115fd5760405162461bcd60e51b815260206004820152602f60248201527f45524331393637557067726164653a207570677261646520627265616b73206660448201526e75727468657220757067726164657360881b60648201526084016107c2565b61160685611c4d565b5050505050565b6001600160a01b0382166116635760405162461bcd60e51b815260206004820152601f60248201527f45524332303a206d696e7420746f20746865207a65726f20616464726573730060448201526064016107c2565b61166f6000838361175f565b80606760008282546116819190612414565b90915550506001600160a01b038216600090815260656020526040812080548392906116ae908490612414565b90915550506040518181526001600160a01b038316906000907fddf252ad1be2c89b69c2b068fc378daa952ba7f163c4a11628f55a4df523b3ef9060200160405180910390a35050565b6117028282610cdd565b1561093f57600082815260fb602090815260408083206001600160a01b0385168085529252808320805460ff1916905551339285917ff6391f5c32d9c69d2a47ea670b442974b53935d1edc7fd64eb21e047a839171b9190a45050565b610b06838383611c8d565b600054610100900460ff166117915760405162461bcd60e51b81526004016107c2906123c9565b6117996111a1565b6117a16111a1565b6117a96111a1565b6117b16111a1565b6117b96111a1565b6111c8611ce5565b600054610100900460ff166117e85760405162461bcd60e51b81526004016107c2906123c9565b81516117fb906068906020850190611e0e565b508051610b06906069906020840190611e0e565b600054610100900460ff166118365760405162461bcd60e51b81526004016107c2906123c9565b610160805460ff191660ff841617905561093f338261160d565b600082815260fb6020526040808220600101805490849055905190918391839186917fbd79b86ffe0ab8e8776151514217cd7cacd52c909f66475c3af44e129f0b00ff9190a4505050565b6118a58282610cdd565b61093f57600082815260fb602090815260408083206001600160a01b03851684529091529020805460ff191660011790556118dd3390565b6001600160a01b0316816001600160a01b0316837f2f8788117e7eff1d82e926ec794901d17c78024a50270940304540a733656f0d60405160405180910390a45050565b6060600061193083600261242c565b61193b906002612414565b67ffffffffffffffff81111561195357611953612510565b6040519080825280601f01601f19166020018201604052801561197d576020820181803683370190505b509050600360fc1b81600081518110611998576119986124fa565b60200101906001600160f81b031916908160001a905350600f60fb1b816001815181106119c7576119c76124fa565b60200101906001600160f81b031916908160001a90535060006119eb84600261242c565b6119f6906001612414565b90505b6001811115611a6e576f181899199a1a9b1b9c1cb0b131b232b360811b85600f1660108110611a2a57611a2a6124fa565b1a60f81b828281518110611a4057611a406124fa565b60200101906001600160f81b031916908160001a90535060049490941c93611a6781612477565b90506119f9565b5083156107de5760405162461bcd60e51b815260206004820181905260248201527f537472696e67733a20686578206c656e67746820696e73756666696369656e7460448201526064016107c2565b803b611b215760405162461bcd60e51b815260206004820152602d60248201527f455243313936373a206e657720696d706c656d656e746174696f6e206973206e60448201526c1bdd08184818dbdb9d1c9858dd609a1b60648201526084016107c2565b7f360894a13ba1a3210667c828492db98dca3e2076cc3735a920a3ca505d382bbc80546001600160a01b0319166001600160a01b0392909216919091179055565b6060823b611bc15760405162461bcd60e51b815260206004820152602660248201527f416464726573733a2064656c65676174652063616c6c20746f206e6f6e2d636f6044820152651b9d1c9858dd60d21b60648201526084016107c2565b600080846001600160a01b031684604051611bdc919061226d565b600060405180830381855af49150503d8060008114611c17576040519150601f19603f3d011682016040523d82523d6000602084013e611c1c565b606091505b5091509150611c4482826040518060600160405280602781526020016125a760279139611d6d565b95945050505050565b611c5681611abd565b6040516001600160a01b038216907fbc7cd75a20ee27fd9adebab32041f755214dbc6bffa90cc0225b39da2e5c2d3b90600090a250565b611c98338484611da6565b15610b065760405162461bcd60e51b815260206004820152601a60248201527f4552524f523a204164647265737320426c61636b6c697374656400000000000060448201526064016107c2565b600054610100900460ff16611d0c5760405162461bcd60e51b81526004016107c2906123c9565b611d17600033611e04565b611d2f60008051602061256783398151915233611e04565b611d4760008051602061254783398151915233611e04565b6111c8600080516020612547833981519152600080516020612567833981519152611850565b60608315611d7c5750816107de565b825115611d8c5782518084602001fd5b8160405162461bcd60e51b81526004016107c291906122fe565b6000611dc060008051602061252783398151915284610cdd565b80611dde5750611dde60008051602061252783398151915285610cdd565b80611dfc5750611dfc60008051602061252783398151915283610cdd565b949350505050565b61093f828261189b565b828054611e1a9061248e565b90600052602060002090601f016020900481019282611e3c5760008555611e82565b82601f10611e5557805160ff1916838001178555611e82565b82800160010185558215611e82579182015b82811115611e82578251825591602001919060010190611e67565b50611e8e929150611e92565b5090565b5b80821115611e8e5760008155600101611e93565b80356001600160a01b0381168114611ebe57600080fd5b919050565b60008083601f840112611ed557600080fd5b50813567ffffffffffffffff811115611eed57600080fd5b6020830191508360208260051b8501011115611f0857600080fd5b9250929050565b60008083601f840112611f2157600080fd5b50813567ffffffffffffffff811115611f3957600080fd5b602083019150836020828501011115611f0857600080fd5b600060208284031215611f6357600080fd5b6107de82611ea7565b60008060408385031215611f7f57600080fd5b611f8883611ea7565b9150611f9660208401611ea7565b90509250929050565b600080600060608486031215611fb457600080fd5b611fbd84611ea7565b9250611fcb60208501611ea7565b9150604084013590509250925092565b60008060408385031215611fee57600080fd5b611ff783611ea7565b9150602083013567ffffffffffffffff8082111561201457600080fd5b818501915085601f83011261202857600080fd5b81358181111561203a5761203a612510565b604051601f8201601f19908116603f0116810190838211818310171561206257612062612510565b8160405282815288602084870101111561207b57600080fd5b8260208601602083013760006020848301015280955050505050509250929050565b600080604083850312156120b057600080fd5b6120b983611ea7565b946020939093013593505050565b600080602083850312156120da57600080fd5b823567ffffffffffffffff8111156120f157600080fd5b6120fd85828601611ec3565b90969095509350505050565b6000806000806040858703121561211f57600080fd5b843567ffffffffffffffff8082111561213757600080fd5b61214388838901611ec3565b9096509450602087013591508082111561215c57600080fd5b5061216987828801611ec3565b95989497509550505050565b60006020828403121561218757600080fd5b5035919050565b600080604083850312156121a157600080fd5b82359150611f9660208401611ea7565b6000602082840312156121c357600080fd5b81356001600160e01b0319811681146107de57600080fd5b600080600080600080608087890312156121f457600080fd5b863567ffffffffffffffff8082111561220c57600080fd5b6122188a838b01611f0f565b9098509650602089013591508082111561223157600080fd5b5061223e89828a01611f0f565b909550935050604087013560ff8116811461225857600080fd5b80925050606087013590509295509295509295565b6000825161227f81846020870161244b565b9190910192915050565b7f416363657373436f6e74726f6c3a206163636f756e74200000000000000000008152600083516122c181601785016020880161244b565b7001034b99036b4b9b9b4b733903937b6329607d1b60179184019182015283516122f281602884016020880161244b565b01602801949350505050565b602081526000825180602084015261231d81604085016020870161244b565b601f01601f19169190910160400192915050565b6020808252602c908201527f46756e6374696f6e206d7573742062652063616c6c6564207468726f7567682060408201526b19195b1959d85d1958d85b1b60a21b606082015260800190565b6020808252602c908201527f46756e6374696f6e206d7573742062652063616c6c6564207468726f7567682060408201526b6163746976652070726f787960a01b606082015260800190565b6020808252602b908201527f496e697469616c697a61626c653a20636f6e7472616374206973206e6f74206960408201526a6e697469616c697a696e6760a81b606082015260800190565b60008219821115612427576124276124e4565b500190565b6000816000190483118215151615612446576124466124e4565b500290565b60005b8381101561246657818101518382015260200161244e565b838111156109b25750506000910152565b600081612486576124866124e4565b506000190190565b600181811c908216806124a257607f821691505b602082108114156124c357634e487b7160e01b600052602260045260246000fd5b50919050565b60006000198214156124dd576124dd6124e4565b5060010190565b634e487b7160e01b600052601160045260246000fd5b634e487b7160e01b600052603260045260246000fd5b634e487b7160e01b600052604160045260246000fdfe548c7f0307ab2a7ea894e5c7e8c5353cc750bb9385ee2e945f189a9a83daa8eda76ace73a908083d89af9ff88e5b4f7cadb3591a80631063f68b695fda726db571840dc4906352362b0cdaf79870196c8e42acafade72d5d5a6d59291253ceb1f988e4fb62b8e14f4820fed03192306ddf4d7dbfa215595ba1c6ba4b76b369ee416464726573733a206c6f772d6c6576656c2064656c65676174652063616c6c206661696c6564a26469706673582212204ac5e5e44eda2e51d1459ca9594abe802cd8a54735cb69efc66597a3b49c9c0064736f6c63430008060033",
  "linkReferences": {},
  "deployedLinkReferences": {}
}