{
  "_format": "hh-sol-artifact-1",
  "name": "BlacklistSnapshotTemplate",
  "initializer": "function initialize(string name_, string symbol_, uint8 decimals_, uint256 amount_)",
  "sourceName": "contracts/templates/BlacklistSnapshotTemplate.sol",
  "abi": [
    {
      "anonymous": false,
      "inputs": [
        {
          "indexed": false,
          "internalType": "address",
          "name": "previousAdmin",
          "type": "address"
        },
        {
          "indexed": false,
          "internalType": "address",
          "name": "newAdmin",
          "type": "address"
        }
      ],
      "name": "AdminChanged",
      "type": "event"
    },
    {
      "anonymous": false,
      "inputs": [
        {
          "indexed": true,
          "internalType": "address",
          "name": "owner",
          "type": "address"
        },
        {
          "indexed": true,
          "internalType": "address",
          "name": "spender",
          "type": "address"
        },
        {
          "indexed": false,
          "internalType": "uint256",
          "name": "value",
          "type": "uint256"
        }
      ],
      "name": "Approval",
      "type": "event"
    },
    {
      "anonymous": false,
      "inputs": [
        {
          "indexed": true,
          "internalType": "address",
          "name": "beacon",
          "type": "address"
        }
      ],
      "name": "BeaconUpgraded",
      "type": "event"
    },
    {
      "anonymous": false,
      "inputs": [
        {
          "indexed": true,
          "internalType": "bytes32",
          "name": "role",
          "type": "bytes32"
        },
        {
          "indexed": true,
          "internalType": "bytes32",
          "name": "previousAdminRole",
          "type": "bytes32"
        },
        {
          "indexed": true,
          "internalType": "bytes32",
          "name": "newAdminRole",
          "type": "bytes32"
        }
      ],
      "name": "RoleAdminChanged",
      "type": "event"
    },
    {
      "anonymous": false,
      "inputs": [
        {
          "indexed": true,
          "internalType": "bytes32",
          "name": "role",
          "type": "bytes32"
        },
        {
          "indexed": true,
          "internalType": "address",
          "name": "account",
          "type": "address"
        },
        {
          "indexed": true,
          "internalType": "address",
          "name": "sender",
          "type": "address"
        }
      ],
      "name": "RoleGranted",
      "type": "event"
    },
    {
      "anonymous": false,
      "inputs": [
        {
          "indexed": true,
          "internalType": "bytes32",
          "name": "role",
          "type": "bytes32"
        },
        {
          "indexed": true,
          "internalType": "address",
          "name": "account",
          "type": "address"
        },
        {
          "indexed": true,
          "internalType": "address",
          "name": "sender",
          "type": "address"
        }
      ],
      "name": "RoleRevoked",
      "type": "event"
    },
    {
      "anonymous": false,
      "inputs": [
        {
          "indexed": false,
          "internalType": "uint256",
          "name": "id",
          "type": "uint256"
        }
      ],
      "name": "Snapshot",
      "type": "event"
    },
    {
      "anonymous": false,
      "inputs": [
        {
          "indexed": true,
          "internalType": "address",
          "name": "from",
          "type": "address"
        },
        {
          "indexed": true,
          "internalType": "address",
          "name": "to",
          "type": "address"
        },
        {
          "indexed": false,
          "internalType": "uint256",
          "name": "value",
          "type": "uint256"
        }
      ],
      "name": "Transfer",
      "type": "event"
    },
    {
      "anonymous": false,
      "inputs": [
        {
          "indexed": true,
          "internalType": "address",
          "name": "implementation",
          "type": "address"
        }
      ],
      "name": "Upgraded",
      "type": "event"
    },
    {
      "inputs": [],
      "name": "BLACKLISTED_ROLE",
      "outputs": [
        {
          "internalType": "bytes32",
          "name": "",
          "type": "bytes32"
        }
      ],
      "stateMutability": "view",
      "type": "function"
    },
    {
      "inputs": [],
      "name": "BLACKLIST_MANAGER_ROLE",
      "outputs": [
        {
          "internalType": "bytes32",
          "name": "",
          "type": "bytes32"
        }
      ],
      "stateMutability": "view",
      "type": "function"
    },
    {
      "inputs": [],
      "name": "DEFAULT_ADMIN_ROLE",
      "outputs": [
        {
          "internalType": "bytes32",
          "name": "",
          "type": "bytes32"
        }
      ],
      "stateMutability": "view",
      "type": "function"
    },
    {
      "inputs": [],
      "name": "GOVERNANCE_ROLE",
      "outputs": [
        {
          "internalType": "bytes32",
          "name": "",
          "type": "bytes32"
        }
      ],
      "stateMutability": "view",
      "type": "function"
    },
    {
      "inputs": [],
      "name": "UPGRADE_MANAGER_ROLE",
      "outputs": [
        {
          "internalType": "bytes32",
          "name": "",
          "type": "bytes32"
        }
      ],
      "stateMutability": "view",
      "type": "function"
    },
    {
      "inputs": [
        {
          "internalType": "address[]",
          "name": "addresses",
          "type": "address[]"
        }
      ],
      "name": "addAddressesToBlacklist",
      "outputs": [],
      "stateMutability": "nonpayable",
      "type": "function"
    },
    {
      "inputs": [
        {
          "internalType": "address",
          "name": "owner",
          "type": "address"
        },
        {
          "internalType": "address",
          "name": "spender",
          "type": "address"
        }
      ],
      "name": "allowance",
      "outputs": [
        {
          "internalType": "uint256",
          "name": "",
          "type": "uint256"
        }
      ],
      "stateMutability": "view",
      "type": "function"
    },
    {
      "inputs": [
        {
          "internalType": "address",
          "name": "spender",
          "type": "address"
        },
        {
          "internalType": "uint256",
          "name": "amount",
          "type": "uint256"
        }
      ],
      "name": "approve",
      "outputs": [
        {
          "internalType": "bool",
          "name": "",
          "type": "bool"
        }
      ],
      "stateMutability": "nonpayable",
      "type": "function"
    },
    {
      "inputs": [
        {
          "internalType": "address",
          "name": "account",
          "type": "address"
        }
      ],
      "name": "balanceOf",
      "outputs": [
        {
          "internalType": "uint256",
          "name": "",
          "type": "uint256"
        }
      ],
      "stateMutability": "view",
      "type": "function"
    },
    {
      "inputs": [
        {
          "internalType": "address",
          "name": "account",
          "type": "address"
        },
        {
          "internalType": "uint256",
          "name": "snapshotId",
          "type": "uint256"
        }
      ],
      "name": "balanceOfAt",
      "outputs": [
        {
          "internalType": "uint256",
          "name": "",
          "type": "uint256"
        }
      ],
      "stateMutability": "view",
      "type": "function"
    },
    {
      "inputs": [],
      "name": "decimals",
      "outputs": [
        {
          "internalType": "uint8",
          "name": "",
          "type": "uint8"
        }
      ],
      "stateMutability": "view",
      "type": "function"
    },
    {
      "inputs": [
        {
          "internalType": "address",
          "name": "spender",
          "type": "address"
        },
        {
          "internalType": "uint256",
          "name": "subtractedValue",
          "type": "uint256"
        }
      ],
      "name": "decreaseAllowance",
      "outputs": [
        {
          "internalType": "bool",
          "name": "",
          "type": "bool"
        }
      ],
      "stateMutability": "nonpayable",
      "type": "function"
    },
    {
      "inputs": [],
      "name": "getCurrentSnapshotId",
      "outputs": [
        {
          "internalType": "uint256",
          "name": "",
          "type": "uint256"
        }
      ],
      "stateMutability": "view",
      "type": "function"
    },
    {
      "inputs": [],
      "name": "getImplementation",
      "outputs": [
        {
          "internalType": "address",
          "name": "",
          "type": "address"
        }
      ],
      "stateMutability": "view",
      "type": "function"
    },
    {
      "inputs": [
        {
          "internalType": "bytes32",
          "name": "role",
          "type": "bytes32"
        }
      ],
      "name": "getRoleAdmin",
      "outputs": [
        {
          "internalType": "bytes32",
          "name": "",
          "type": "bytes32"
        }
      ],
      "stateMutability": "view",
      "type": "function"
    },
    {
      "inputs": [
        {
          "internalType": "bytes32",
          "name": "role",
          "type": "bytes32"
        },
        {
          "internalType": "address",
          "name": "account",
          "type": "address"
        }
      ],
      "name": "grantRole",
      "outputs": [],
      "stateMutability": "nonpayable",
      "type": "function"
    },
    {
      "inputs": [
        {
          "internalType": "bytes32",
          "name": "role",
          "type": "bytes32"
        },
        {
          "internalType": "address",
          "name": "account",
          "type": "address"
        }
      ],
      "name": "hasRole",
      "outputs": [
        {
          "internalType": "bool",
          "name": "",
          "type": "bool"
        }
      ],
      "stateMutability": "view",
      "type": "function"
    },
    {
      "inputs": [
        {
          "internalType": "address",
          "name": "spender",
          "type": "address"
        },
        {
          "internalType": "uint256",
          "name": "addedValue",
          "type": "uint256"
        }
      ],
      "name": "increaseAllowance",
      "outputs": [
        {
          "internalType": "bool",
          "name": "",
          "type": "bool"
        }
      ],
      "stateMutability": "nonpayable",
      "type": "function"
    },
    {
      "inputs": [
        {
          "internalType": "string",
          "name": "name_",
          "type": "string"
        },
        {
          "internalType": "string",
          "name": "symbol_",
          "type": "string"
        },
        {
          "internalType": "uint8",
          "name": "decimals_",
          "type": "uint8"
        },
        {
          "internalType": "uint256",
          "name": "amount_",
          "type": "uint256"
        }
      ],
      "name": "initialize",
      "outputs": [],
      "stateMutability": "nonpayable",
      "type": "function"
    },
    {
      "inputs": [],
      "name": "name",
      "outputs": [
        {
          "internalType": "string",
          "name": "",
          "type": "string"
        }
      ],
      "stateMutability": "view",
      "type": "function"
    },
    {
      "inputs": [
        {
          "internalType": "address",
          "name": "implementationAddress",
          "type": "address"
        }
      ],
      "name": "proposeNewImplementation",
      "outputs": [],
      "stateMutability": "nonpayable",
      "type": "function"
    },
    {
      "inputs": [
        {
          "internalType": "address[]",
          "name": "addresses",
          "type": "address[]"
        }
      ],
      "name": "removeAddressesFromBlacklist",
      "outputs": [],
      "stateMutability": "nonpayable",
      "type": "function"
    },
    {
      "inputs": [
        {
          "internalType": "bytes32",
          "name": "role",
          "type": "bytes32"
        },
        {
          "internalType": "address",
          "name": "account",
          "type": "address"
        }
      ],
      "name": "renounceRole",
      "outputs": [],
      "stateMutability": "nonpayable",
      "type": "function"
    },
    {
      "inputs": [
        {
          "internalType": "bytes32",
          "name": "role",
          "type": "bytes32"
        },
        {
          "internalType": "address",
          "name": "account",
          "type": "address"
        }
      ],
      "name": "revokeRole",
      "outputs": [],
      "stateMutability": "nonpayable",
      "type": "function"
    },
    {
      "inputs": [],
      "name": "snapshot",
      "outputs": [],
      "stateMutability": "nonpayable",
      "type": "function"
    },
    {
      "inputs": [
        {
          "internalType": "bytes4",
          "name": "interfaceId",
          "type": "bytes4"
        }
      ],
      "name": "supportsInterface",
      "outputs": [
        {
          "internalType": "bool",
          "name": "",
          "type": "bool"
        }
      ],
      "stateMutability": "view",
      "type": "function"
    },
    {
      "inputs": [],
      "name": "symbol",
      "outputs": [
        {
          "internalType": "string",
          "name": "",
          "type": "string"
        }
      ],
      "stateMutability": "view",
      "type": "function"
    },
    {
      "inputs": [],
      "name": "totalSupply",
      "outputs": [
        {
          "internalType": "uint256",
          "name": "",
          "type": "uint256"
        }
      ],
      "stateMutability": "view",
      "type": "function"
    },
    {
      "inputs": [
        {
          "internalType": "uint256",
          "name": "snapshotId",
          "type": "uint256"
        }
      ],
      "name": "totalSupplyAt",
      "outputs": [
        {
          "internalType": "uint256",
          "name": "",
          "type": "uint256"
        }
      ],
      "stateMutability": "view",
      "type": "function"
    },
    {
      "inputs": [
        {
          "internalType": "address",
          "name": "recipient",
          "type": "address"
        },
        {
          "internalType": "uint256",
          "name": "amount",
          "type": "uint256"
        }
      ],
      "name": "transfer",
      "outputs": [
        {
          "internalType": "bool",
          "name": "",
          "type": "bool"
        }
      ],
      "stateMutability": "nonpayable",
      "type": "function"
    },
    {
      "inputs": [
        {
          "internalType": "address",
          "name": "sender",
          "type": "address"
        },
        {
          "internalType": "address",
          "name": "recipient",
          "type": "address"
        },
        {
          "internalType": "uint256",
          "name": "amount",
          "type": "uint256"
        }
      ],
      "name": "transferFrom",
      "outputs": [
        {
          "internalType": "bool",
          "name": "",
          "type": "bool"
        }
      ],
      "stateMutability": "nonpayable",
      "type": "function"
    },
    {
      "inputs": [
        {
          "internalType": "address",
          "name": "newImplementation",
          "type": "address"
        }
      ],
      "name": "upgradeTo",
      "outputs": [],
      "stateMutability": "nonpayable",
      "type": "function"
    },
    {
      "inputs": [
        {
          "internalType": "address",
          "name": "newImplementation",
          "type": "address"
        },
        {
          "internalType": "bytes",
          "name": "data",
          "type": "bytes"
        }
      ],
      "name": "upgradeToAndCall",
      "outputs": [],
      "stateMutability": "payable",
      "type": "function"
    }
  ],
  "bytecode": "0x60a06040523060601b60805234801561001757600080fd5b5060805160601c6129bb61004b60003960008181610963015281816109a301528181610b4a0152610b8a01526129bb6000f3fe6080604052600436106101ee5760003560e01c80634ee2cd7e1161010d578063981b24d0116100a0578063aaf10f421161006f578063aaf10f4214610581578063ca73419e146105ae578063d547741f146105ce578063dd62ed3e146105ee578063f36c8f5c1461063457600080fd5b8063981b24d01461050c578063a217fddf1461052c578063a457c2d714610541578063a9059cbb1461056157600080fd5b806370a08231116100dc57806370a082311461048c57806391d14854146104c257806395d89b41146104e25780639711715a146104f757600080fd5b80634ee2cd7e146104225780634f1ef286146104425780635439ad861461045557806362b199c51461046a57600080fd5b8063313ce567116101855780633950935111610154578063395093511461039e578063410b2424146103be57806343ffa64e146103e057806347757fb61461040257600080fd5b8063313ce5671461031b578063322587941461033e57806336568abe1461035e5780633659cfe61461037e57600080fd5b806323b872dd116101c157806323b872dd14610289578063248a9ca3146102a9578063253279ad146102d95780632f2ff15d146102fb57600080fd5b806301ffc9a7146101f357806306fdde0314610228578063095ea7b31461024a57806318160ddd1461026a575b600080fd5b3480156101ff57600080fd5b5061021361020e366004612524565b610656565b60405190151581526020015b60405180910390f35b34801561023457600080fd5b5061023d61068d565b60405161021f9190612663565b34801561025657600080fd5b50610213610265366004612449565b61071f565b34801561027657600080fd5b506067545b60405190815260200161021f565b34801561029557600080fd5b506102136102a43660046123ab565b610735565b3480156102b557600080fd5b5061027b6102c43660046124e8565b600090815260fb602052604090206001015490565b3480156102e557600080fd5b506102f96102f436600461254e565b6107e6565b005b34801561030757600080fd5b506102f9610316366004612501565b6108b7565b34801561032757600080fd5b506101605460405160ff909116815260200161021f565b34801561034a57600080fd5b506102f9610359366004612473565b6108cf565b34801561036a57600080fd5b506102f9610379366004612501565b610944565b34801561038a57600080fd5b506102f961039936600461235d565b610958565b3480156103aa57600080fd5b506102136103b9366004612449565b610a21565b3480156103ca57600080fd5b5061027b60008051602061291f83398151915281565b3480156103ec57600080fd5b5061027b6000805160206128df83398151915281565b34801561040e57600080fd5b506102f961041d36600461235d565b610a5d565b34801561042e57600080fd5b5061027b61043d366004612449565b610a9a565b6102f96104503660046123e7565b610b3f565b34801561046157600080fd5b5061027b610bf5565b34801561047657600080fd5b5061027b6000805160206128bf83398151915281565b34801561049857600080fd5b5061027b6104a736600461235d565b6001600160a01b031660009081526065602052604090205490565b3480156104ce57600080fd5b506102136104dd366004612501565b610c12565b3480156104ee57600080fd5b5061023d610c3d565b34801561050357600080fd5b506102f9610c4c565b34801561051857600080fd5b5061027b6105273660046124e8565b610c54565b34801561053857600080fd5b5061027b600081565b34801561054d57600080fd5b5061021361055c366004612449565b610cbf565b34801561056d57600080fd5b5061021361057c366004612449565b610d58565b34801561058d57600080fd5b50610596610d65565b6040516001600160a01b03909116815260200161021f565b3480156105ba57600080fd5b506102f96105c9366004612473565b610d6f565b3480156105da57600080fd5b506102f96105e9366004612501565b610dde565b3480156105fa57600080fd5b5061027b610609366004612378565b6001600160a01b03918216600090815260666020908152604080832093909416825291909152205490565b34801561064057600080fd5b5061027b6000805160206128ff83398151915281565b60006001600160e01b03198216637965db0b60e01b148061068757506301ffc9a760e01b6001600160e01b03198316145b92915050565b60606068805461069c9061282c565b80601f01602080910402602001604051908101604052809291908181526020018280546106c89061282c565b80156107155780601f106106ea57610100808354040283529160200191610715565b820191906000526020600020905b8154815290600101906020018083116106f857829003601f168201915b5050505050905090565b600061072c338484610e09565b50600192915050565b6000610742848484610f2d565b6001600160a01b0384166000908152606660209081526040808320338452909152902054828110156107cc5760405162461bcd60e51b815260206004820152602860248201527f45524332303a207472616e7366657220616d6f756e74206578636565647320616044820152676c6c6f77616e636560c01b60648201526084015b60405180910390fd5b6107d98533858403610e09565b60019150505b9392505050565b600054610100900460ff166108015760005460ff1615610805565b303b155b6108685760405162461bcd60e51b815260206004820152602e60248201527f496e697469616c697a61626c653a20636f6e747261637420697320616c72656160448201526d191e481a5b9a5d1a585b1a5e995960921b60648201526084016107c3565b600054610100900460ff1615801561088a576000805461ffff19166101011790555b61089685858585611106565b61089e611149565b80156108b0576000805461ff00191690555b5050505050565b6108c18282611198565b6108cb8282611227565b5050565b60008051602061291f8339815191526108e8813361124d565b60005b8281101561093e5761092c6000805160206128bf83398151915285858481811061091757610917612892565b90506020020160208101906105e9919061235d565b8061093681612861565b9150506108eb565b50505050565b61094e82826112b1565b6108cb8282611319565b306001600160a01b037f00000000000000000000000000000000000000000000000000000000000000001614156109a15760405162461bcd60e51b81526004016107c390612696565b7f00000000000000000000000000000000000000000000000000000000000000006001600160a01b03166109d3611393565b6001600160a01b0316146109f95760405162461bcd60e51b81526004016107c3906126e2565b610a02816113c1565b60408051600080825260208201909252610a1e91839190611443565b50565b3360008181526066602090815260408083206001600160a01b0387168452909152812054909161072c918590610a58908690612779565b610e09565b6000805160206128ff833981519152610a76813361124d565b5061012d80546001600160a01b0319166001600160a01b0392909216919091179055565b604080516001600160a01b0384166020808301919091527ffbf1c7065455eb4486649b8540f24ef2dd4ebedf2aa423f0039d17c2c75dea15828401528251808303840181526060909201909252805191012060009081610afb826001612779565b9050600080610b0b868585611587565b9150915081610b32576001600160a01b038716600090815260656020526040902054610b34565b805b979650505050505050565b306001600160a01b037f0000000000000000000000000000000000000000000000000000000000000000161415610b885760405162461bcd60e51b81526004016107c390612696565b7f00000000000000000000000000000000000000000000000000000000000000006001600160a01b0316610bba611393565b6001600160a01b031614610be05760405162461bcd60e51b81526004016107c3906126e2565b610be9826113c1565b6108cb82826001611443565b6000610c0d6000805160206129668339815191525490565b905090565b600091825260fb602090815260408084206001600160a01b0393909316845291905290205460ff1690565b60606069805461069c9061282c565b610a1e611672565b6000806000610ca4847f286a9db37a0f8ddcbcee127c9f4f56031230f49cb46786f87e166d552e11f67e7ffcaa8bb100d3c5b627eac0369cc1d2778dbeffa2993d08f039fb27795729e9a5611587565b9150915081610cb557606754610cb7565b805b949350505050565b3360009081526066602090815260408083206001600160a01b038616845290915281205482811015610d415760405162461bcd60e51b815260206004820152602560248201527f45524332303a2064656372656173656420616c6c6f77616e63652062656c6f77604482015264207a65726f60d81b60648201526084016107c3565b610d4e3385858403610e09565b5060019392505050565b600061072c338484610f2d565b6000610c0d611393565b60008051602061291f833981519152610d88813361124d565b60005b8281101561093e57610dcc6000805160206128bf833981519152858584818110610db757610db7612892565b9050602002016020810190610316919061235d565b80610dd681612861565b915050610d8b565b600082815260fb6020526040902060010154610dfa813361124d565b610e0483836116e2565b505050565b6001600160a01b038316610e6b5760405162461bcd60e51b8152602060048201526024808201527f45524332303a20617070726f76652066726f6d20746865207a65726f206164646044820152637265737360e01b60648201526084016107c3565b6001600160a01b038216610ecc5760405162461bcd60e51b815260206004820152602260248201527f45524332303a20617070726f766520746f20746865207a65726f206164647265604482015261737360f01b60648201526084016107c3565b6001600160a01b0383811660008181526066602090815260408083209487168084529482529182902085905590518481527f8c5be1e5ebec7d5bd14f71427d1e84f3dd0314c0f7b2291e5b200ac8c7c3b925910160405180910390a3505050565b6001600160a01b038316610f915760405162461bcd60e51b815260206004820152602560248201527f45524332303a207472616e736665722066726f6d20746865207a65726f206164604482015264647265737360d81b60648201526084016107c3565b6001600160a01b038216610ff35760405162461bcd60e51b815260206004820152602360248201527f45524332303a207472616e7366657220746f20746865207a65726f206164647260448201526265737360e81b60648201526084016107c3565b610ffe838383611749565b6001600160a01b038316600090815260656020526040902054818110156110765760405162461bcd60e51b815260206004820152602660248201527f45524332303a207472616e7366657220616d6f756e7420657863656564732062604482015265616c616e636560d01b60648201526084016107c3565b6001600160a01b038085166000908152606560205260408082208585039055918516815290812080548492906110ad908490612779565b92505081905550826001600160a01b0316846001600160a01b03167fddf252ad1be2c89b69c2b068fc378daa952ba7f163c4a11628f55a4df523b3ef846040516110f991815260200190565b60405180910390a361093e565b600054610100900460ff1661112d5760405162461bcd60e51b81526004016107c39061272e565b61113561175f565b61113f84846117b6565b61093e8282611804565b600054610100900460ff166111705760405162461bcd60e51b81526004016107c39061272e565b6111966000805160206128bf83398151915260008051602061291f833981519152611845565b565b60008051602061291f8339815191528214806111b2575081155b156108cb576111cf6000805160206128bf83398151915282610c12565b156108cb5760405162461bcd60e51b815260206004820152602260248201527f63616e206e6f742061737369676e20726f6c6520746f20626c61636b6c697374604482015261195960f21b60648201526084016107c3565b600082815260fb6020526040902060010154611243813361124d565b610e048383611890565b6112578282610c12565b6108cb5761126f816001600160a01b03166014611916565b61127a836020611916565b60405160200161128b9291906125ee565b60408051601f198184030181529082905262461bcd60e51b82526107c391600401612663565b6000805160206128bf8339815191528214156108cb5760405162461bcd60e51b815260206004820152602160248201527f43616e206e6f742072656e6f756e636520626c61636b6c697374656420726f6c6044820152606560f81b60648201526084016107c3565b6001600160a01b03811633146113895760405162461bcd60e51b815260206004820152602f60248201527f416363657373436f6e74726f6c3a2063616e206f6e6c792072656e6f756e636560448201526e103937b632b9903337b91039b2b63360891b60648201526084016107c3565b6108cb82826116e2565b7f360894a13ba1a3210667c828492db98dca3e2076cc3735a920a3ca505d382bbc546001600160a01b031690565b6113d96000805160206128ff83398151915233610c12565b806113f757506113f76000805160206128df83398151915233610c12565b610a1e5760405162461bcd60e51b815260206004820152601d60248201527f4552524f523a2041646472657373206e6f7420617574686f72697a656400000060448201526064016107c3565b600061144d611393565b905061145884611ab2565b6000835111806114655750815b15611476576114748484611b57565b505b7f4910fdfa16fed3260ed0e7147f7cc6da11a60208b5b9406d12a635614ffd9143805460ff166108b057805460ff191660011781556040516001600160a01b03831660248201526114f590869060440160408051601f198184030181529190526020810180516001600160e01b0316631b2ce7f360e11b179052611b57565b50805460ff19168155611506611393565b6001600160a01b0316826001600160a01b03161461157e5760405162461bcd60e51b815260206004820152602f60248201527f45524331393637557067726164653a207570677261646520627265616b73206660448201526e75727468657220757067726164657360881b60648201526084016107c3565b6108b085611c42565b600080600085116115d35760405162461bcd60e51b815260206004820152601660248201527504552433230536e617073686f743a20696420697320360541b60448201526064016107c3565b600080516020612966833981519152548511156116325760405162461bcd60e51b815260206004820152601d60248201527f4552433230536e617073686f743a206e6f6e6578697374656e7420696400000060448201526064016107c3565b600061163e8587611c82565b9050845481141561165657600080925092505061166a565b60016116628583611d21565b549093509150505b935093915050565b600060016000805160206129668339815191528054600090611695908490612779565b9091555050600080516020612966833981519152546040518181527f8030e83b04d87bef53480e26263266d6ca66863aa8506aca6f2559d18aa1cb679060200160405180910390a1919050565b6116ec8282610c12565b156108cb57600082815260fb602090815260408083206001600160a01b0385168085529252808320805460ff1916905551339285917ff6391f5c32d9c69d2a47ea670b442974b53935d1edc7fd64eb21e047a839171b9190a45050565b611754838383611da0565b610e04838383611db6565b600054610100900460ff166117865760405162461bcd60e51b81526004016107c39061272e565b61178e611dfe565b611796611dfe565b61179e611dfe565b6117a6611dfe565b6117ae611dfe565b611196611e25565b600054610100900460ff166117dd5760405162461bcd60e51b81526004016107c39061272e565b81516117f0906068906020850190612212565b508051610e04906069906020840190612212565b600054610100900460ff1661182b5760405162461bcd60e51b81526004016107c39061272e565b610160805460ff191660ff84161790556108cb3382611ead565b600082815260fb6020526040808220600101805490849055905190918391839186917fbd79b86ffe0ab8e8776151514217cd7cacd52c909f66475c3af44e129f0b00ff9190a4505050565b61189a8282610c12565b6108cb57600082815260fb602090815260408083206001600160a01b03851684529091529020805460ff191660011790556118d23390565b6001600160a01b0316816001600160a01b0316837f2f8788117e7eff1d82e926ec794901d17c78024a50270940304540a733656f0d60405160405180910390a45050565b606060006119258360026127b3565b611930906002612779565b67ffffffffffffffff811115611948576119486128a8565b6040519080825280601f01601f191660200182016040528015611972576020820181803683370190505b509050600360fc1b8160008151811061198d5761198d612892565b60200101906001600160f81b031916908160001a905350600f60fb1b816001815181106119bc576119bc612892565b60200101906001600160f81b031916908160001a90535060006119e08460026127b3565b6119eb906001612779565b90505b6001811115611a63576f181899199a1a9b1b9c1cb0b131b232b360811b85600f1660108110611a1f57611a1f612892565b1a60f81b828281518110611a3557611a35612892565b60200101906001600160f81b031916908160001a90535060049490941c93611a5c81612815565b90506119ee565b5083156107df5760405162461bcd60e51b815260206004820181905260248201527f537472696e67733a20686578206c656e67746820696e73756666696369656e7460448201526064016107c3565b803b611b165760405162461bcd60e51b815260206004820152602d60248201527f455243313936373a206e657720696d706c656d656e746174696f6e206973206e60448201526c1bdd08184818dbdb9d1c9858dd609a1b60648201526084016107c3565b7f360894a13ba1a3210667c828492db98dca3e2076cc3735a920a3ca505d382bbc80546001600160a01b0319166001600160a01b0392909216919091179055565b6060823b611bb65760405162461bcd60e51b815260206004820152602660248201527f416464726573733a2064656c65676174652063616c6c20746f206e6f6e2d636f6044820152651b9d1c9858dd60d21b60648201526084016107c3565b600080846001600160a01b031684604051611bd191906125d2565b600060405180830381855af49150503d8060008114611c0c576040519150601f19603f3d011682016040523d82523d6000602084013e611c11565b606091505b5091509150611c39828260405180606001604052806027815260200161293f60279139611f98565b95945050505050565b611c4b81611ab2565b6040516001600160a01b038216907fbc7cd75a20ee27fd9adebab32041f755214dbc6bffa90cc0225b39da2e5c2d3b90600090a250565b8154600090819080611c9957600092505050610687565b80821015611cdd576000611cad8383611fd1565b905084611cba8783611d21565b541115611cc957809150611cd7565b611cd4816001612779565b92505b50611c99565b600082118015611d00575083611cfd86611cf86001866127d2565b611d21565b54145b15611d1957611d106001836127d2565b92505050610687565b509050610687565b600082548210611d695760405162461bcd60e51b815260206004820152601360248201527211549493d48e8813dd5d081bd988189bdd5b99606a1b60448201526064016107c3565b8183604051602001611d7d91815260200190565b6040516020818303038152906040528051906020012060001c6107df9190612779565b611dab838383611754565b610e04838383611fec565b6001600160a01b038316611dd557611dcd82612044565b610e046120ce565b6001600160a01b038216611dec57611dcd83612044565b611df583612044565b610e0482612044565b600054610100900460ff166111965760405162461bcd60e51b81526004016107c39061272e565b600054610100900460ff16611e4c5760405162461bcd60e51b81526004016107c39061272e565b611e5760003361211c565b611e6f6000805160206128ff8339815191523361211c565b611e876000805160206128df8339815191523361211c565b6111966000805160206128df8339815191526000805160206128ff833981519152611845565b6001600160a01b038216611f035760405162461bcd60e51b815260206004820152601f60248201527f45524332303a206d696e7420746f20746865207a65726f20616464726573730060448201526064016107c3565b611f0f60008383611749565b8060676000828254611f219190612779565b90915550506001600160a01b03821660009081526065602052604081208054839290611f4e908490612779565b90915550506040518181526001600160a01b038316906000907fddf252ad1be2c89b69c2b068fc378daa952ba7f163c4a11628f55a4df523b3ef9060200160405180910390a35050565b60608315611fa75750816107df565b825115611fb75782518084602001fd5b8160405162461bcd60e51b81526004016107c39190612663565b6000611fe06002848418612791565b6107df90848416612779565b611ff7338484612126565b15610e045760405162461bcd60e51b815260206004820152601a60248201527f4552524f523a204164647265737320426c61636b6c697374656400000000000060448201526064016107c3565b604080516001600160a01b0383166020808301919091527ffbf1c7065455eb4486649b8540f24ef2dd4ebedf2aa423f0039d17c2c75dea15828401528251808303840181526060909201909252805191012060006120a3826001612779565b9050610e0482826120c9866001600160a01b031660009081526065602052604090205490565b61217c565b6111967f286a9db37a0f8ddcbcee127c9f4f56031230f49cb46786f87e166d552e11f67e7ffcaa8bb100d3c5b627eac0369cc1d2778dbeffa2993d08f039fb27795729e9a56120c960675490565b6108cb8282611890565b60006121406000805160206128bf83398151915284610c12565b8061215e575061215e6000805160206128bf83398151915285610c12565b80610cb75750610cb76000805160206128bf83398151915283610c12565b60006121946000805160206129668339815191525490565b9050806121a0856121ba565b101561093e576121b084826121ea565b61093e83836121ea565b8054600090806121cd5750600092915050565b6121dc83611cf86001846127d2565b549392505050565b50919050565b815460018360006121fb8385612779565b9091555082905061220c8483611d21565b55505050565b82805461221e9061282c565b90600052602060002090601f0160209004810192826122405760008555612286565b82601f1061225957805160ff1916838001178555612286565b82800160010185558215612286579182015b8281111561228657825182559160200191906001019061226b565b50612292929150612296565b5090565b5b808211156122925760008155600101612297565b600067ffffffffffffffff808411156122c6576122c66128a8565b604051601f8501601f19908116603f011681019082821181831017156122ee576122ee6128a8565b8160405280935085815286868601111561230757600080fd5b858560208301376000602087830101525050509392505050565b80356001600160a01b038116811461233857600080fd5b919050565b600082601f83011261234e57600080fd5b6107df838335602085016122ab565b60006020828403121561236f57600080fd5b6107df82612321565b6000806040838503121561238b57600080fd5b61239483612321565b91506123a260208401612321565b90509250929050565b6000806000606084860312156123c057600080fd5b6123c984612321565b92506123d760208501612321565b9150604084013590509250925092565b600080604083850312156123fa57600080fd5b61240383612321565b9150602083013567ffffffffffffffff81111561241f57600080fd5b8301601f8101851361243057600080fd5b61243f858235602084016122ab565b9150509250929050565b6000806040838503121561245c57600080fd5b61246583612321565b946020939093013593505050565b6000806020838503121561248657600080fd5b823567ffffffffffffffff8082111561249e57600080fd5b818501915085601f8301126124b257600080fd5b8135818111156124c157600080fd5b8660208260051b85010111156124d657600080fd5b60209290920196919550909350505050565b6000602082840312156124fa57600080fd5b5035919050565b6000806040838503121561251457600080fd5b823591506123a260208401612321565b60006020828403121561253657600080fd5b81356001600160e01b0319811681146107df57600080fd5b6000806000806080858703121561256457600080fd5b843567ffffffffffffffff8082111561257c57600080fd5b6125888883890161233d565b9550602087013591508082111561259e57600080fd5b506125ab8782880161233d565b935050604085013560ff811681146125c257600080fd5b9396929550929360600135925050565b600082516125e48184602087016127e9565b9190910192915050565b7f416363657373436f6e74726f6c3a206163636f756e74200000000000000000008152600083516126268160178501602088016127e9565b7001034b99036b4b9b9b4b733903937b6329607d1b60179184019182015283516126578160288401602088016127e9565b01602801949350505050565b60208152600082518060208401526126828160408501602087016127e9565b601f01601f19169190910160400192915050565b6020808252602c908201527f46756e6374696f6e206d7573742062652063616c6c6564207468726f7567682060408201526b19195b1959d85d1958d85b1b60a21b606082015260800190565b6020808252602c908201527f46756e6374696f6e206d7573742062652063616c6c6564207468726f7567682060408201526b6163746976652070726f787960a01b606082015260800190565b6020808252602b908201527f496e697469616c697a61626c653a20636f6e7472616374206973206e6f74206960408201526a6e697469616c697a696e6760a81b606082015260800190565b6000821982111561278c5761278c61287c565b500190565b6000826127ae57634e487b7160e01b600052601260045260246000fd5b500490565b60008160001904831182151516156127cd576127cd61287c565b500290565b6000828210156127e4576127e461287c565b500390565b60005b838110156128045781810151838201526020016127ec565b8381111561093e5750506000910152565b6000816128245761282461287c565b506000190190565b600181811c9082168061284057607f821691505b602082108114156121e457634e487b7160e01b600052602260045260246000fd5b60006000198214156128755761287561287c565b5060010190565b634e487b7160e01b600052601160045260246000fd5b634e487b7160e01b600052603260045260246000fd5b634e487b7160e01b600052604160045260246000fdfe548c7f0307ab2a7ea894e5c7e8c5353cc750bb9385ee2e945f189a9a83daa8eda76ace73a908083d89af9ff88e5b4f7cadb3591a80631063f68b695fda726db571840dc4906352362b0cdaf79870196c8e42acafade72d5d5a6d59291253ceb1f988e4fb62b8e14f4820fed03192306ddf4d7dbfa215595ba1c6ba4b76b369ee416464726573733a206c6f772d6c6576656c2064656c65676174652063616c6c206661696c65640d0a0ed3351c10a57d74a44b40c06e0946288e4e3816ac07bb89db2a755562e7a264697066735822122018023f1f1024d4bd05cfe18ff77feaa1fe919548ad3e2b9ae9cca1031fdd084564736f6c63430008060033",
  "linkReferences": {},
  "deployedLinkReferences": {}
}