{
  "_format": "hh-sol-artifact-1",
  "name": "BlacklistBurnWhiteListTemplate",
  "initializer": "function initialize(string name_, string symbol_, uint8 decimals_, uint256 amount_)",
  "sourceName": "contracts/templates/BlacklistBurnWhiteListTemplate.sol",
  "abi": [
    {
      "anonymous": false,
      "inputs": [
        {
          "indexed": false,
          "internalType": "address",
          "name": "previousAdmin",
          "type": "address"
        },
        {
          "indexed": false,
          "internalType": "address",
          "name": "newAdmin",
          "type": "address"
        }
      ],
      "name": "AdminChanged",
      "type": "event"
    },
    {
      "anonymous": false,
      "inputs": [
        {
          "indexed": true,
          "internalType": "address",
          "name": "owner",
          "type": "address"
        },
        {
          "indexed": true,
          "internalType": "address",
          "name": "spender",
          "type": "address"
        },
        {
          "indexed": false,
          "internalType": "uint256",
          "name": "value",
          "type": "uint256"
        }
      ],
      "name": "Approval",
      "type": "event"
    },
    {
      "anonymous": false,
      "inputs": [
        {
          "indexed": true,
          "internalType": "address",
          "name": "beacon",
          "type": "address"
        }
      ],
      "name": "BeaconUpgraded",
      "type": "event"
    },
    {
      "anonymous": false,
      "inputs": [
        {
          "indexed": false,
          "internalType": "address",
          "name": "account",
          "type": "address"
        }
      ],
      "name": "Paused",
      "type": "event"
    },
    {
      "anonymous": false,
      "inputs": [
        {
          "indexed": true,
          "internalType": "bytes32",
          "name": "role",
          "type": "bytes32"
        },
        {
          "indexed": true,
          "internalType": "bytes32",
          "name": "previousAdminRole",
          "type": "bytes32"
        },
        {
          "indexed": true,
          "internalType": "bytes32",
          "name": "newAdminRole",
          "type": "bytes32"
        }
      ],
      "name": "RoleAdminChanged",
      "type": "event"
    },
    {
      "anonymous": false,
      "inputs": [
        {
          "indexed": true,
          "internalType": "bytes32",
          "name": "role",
          "type": "bytes32"
        },
        {
          "indexed": true,
          "internalType": "address",
          "name": "account",
          "type": "address"
        },
        {
          "indexed": true,
          "internalType": "address",
          "name": "sender",
          "type": "address"
        }
      ],
      "name": "RoleGranted",
      "type": "event"
    },
    {
      "anonymous": false,
      "inputs": [
        {
          "indexed": true,
          "internalType": "bytes32",
          "name": "role",
          "type": "bytes32"
        },
        {
          "indexed": true,
          "internalType": "address",
          "name": "account",
          "type": "address"
        },
        {
          "indexed": true,
          "internalType": "address",
          "name": "sender",
          "type": "address"
        }
      ],
      "name": "RoleRevoked",
      "type": "event"
    },
    {
      "anonymous": false,
      "inputs": [
        {
          "indexed": true,
          "internalType": "address",
          "name": "from",
          "type": "address"
        },
        {
          "indexed": true,
          "internalType": "address",
          "name": "to",
          "type": "address"
        },
        {
          "indexed": false,
          "internalType": "uint256",
          "name": "value",
          "type": "uint256"
        }
      ],
      "name": "Transfer",
      "type": "event"
    },
    {
      "anonymous": false,
      "inputs": [
        {
          "indexed": false,
          "internalType": "address",
          "name": "account",
          "type": "address"
        }
      ],
      "name": "Unpaused",
      "type": "event"
    },
    {
      "anonymous": false,
      "inputs": [
        {
          "indexed": true,
          "internalType": "address",
          "name": "implementation",
          "type": "address"
        }
      ],
      "name": "Upgraded",
      "type": "event"
    },
    {
      "inputs": [],
      "name": "BLACKLISTED_ROLE",
      "outputs": [
        {
          "internalType": "bytes32",
          "name": "",
          "type": "bytes32"
        }
      ],
      "stateMutability": "view",
      "type": "function"
    },
    {
      "inputs": [],
      "name": "BLACKLIST_MANAGER_ROLE",
      "outputs": [
        {
          "internalType": "bytes32",
          "name": "",
          "type": "bytes32"
        }
      ],
      "stateMutability": "view",
      "type": "function"
    },
    {
      "inputs": [],
      "name": "DEFAULT_ADMIN_ROLE",
      "outputs": [
        {
          "internalType": "bytes32",
          "name": "",
          "type": "bytes32"
        }
      ],
      "stateMutability": "view",
      "type": "function"
    },
    {
      "inputs": [],
      "name": "GOVERNANCE_ROLE",
      "outputs": [
        {
          "internalType": "bytes32",
          "name": "",
          "type": "bytes32"
        }
      ],
      "stateMutability": "view",
      "type": "function"
    },
    {
      "inputs": [],
      "name": "PAUSE_MANAGER_ROLE",
      "outputs": [
        {
          "internalType": "bytes32",
          "name": "",
          "type": "bytes32"
        }
      ],
      "stateMutability": "view",
      "type": "function"
    },
    {
      "inputs": [],
      "name": "UPGRADE_MANAGER_ROLE",
      "outputs": [
        {
          "internalType": "bytes32",
          "name": "",
          "type": "bytes32"
        }
      ],
      "stateMutability": "view",
      "type": "function"
    },
    {
      "inputs": [],
      "name": "WHITELISTED_FROM_ROLE",
      "outputs": [
        {
          "internalType": "bytes32",
          "name": "",
          "type": "bytes32"
        }
      ],
      "stateMutability": "view",
      "type": "function"
    },
    {
      "inputs": [],
      "name": "WHITELISTED_SENDER_ROLE",
      "outputs": [
        {
          "internalType": "bytes32",
          "name": "",
          "type": "bytes32"
        }
      ],
      "stateMutability": "view",
      "type": "function"
    },
    {
      "inputs": [
        {
          "internalType": "address[]",
          "name": "addresses",
          "type": "address[]"
        }
      ],
      "name": "addAddressesToBlacklist",
      "outputs": [],
      "stateMutability": "nonpayable",
      "type": "function"
    },
    {
      "inputs": [
        {
          "internalType": "address[]",
          "name": "addresses",
          "type": "address[]"
        }
      ],
      "name": "addAddressesToWhitelistFrom",
      "outputs": [],
      "stateMutability": "nonpayable",
      "type": "function"
    },
    {
      "inputs": [
        {
          "internalType": "address[]",
          "name": "addresses",
          "type": "address[]"
        }
      ],
      "name": "addAddressesToWhitelistSender",
      "outputs": [],
      "stateMutability": "nonpayable",
      "type": "function"
    },
    {
      "inputs": [
        {
          "internalType": "address",
          "name": "owner",
          "type": "address"
        },
        {
          "internalType": "address",
          "name": "spender",
          "type": "address"
        }
      ],
      "name": "allowance",
      "outputs": [
        {
          "internalType": "uint256",
          "name": "",
          "type": "uint256"
        }
      ],
      "stateMutability": "view",
      "type": "function"
    },
    {
      "inputs": [
        {
          "internalType": "address",
          "name": "spender",
          "type": "address"
        },
        {
          "internalType": "uint256",
          "name": "amount",
          "type": "uint256"
        }
      ],
      "name": "approve",
      "outputs": [
        {
          "internalType": "bool",
          "name": "",
          "type": "bool"
        }
      ],
      "stateMutability": "nonpayable",
      "type": "function"
    },
    {
      "inputs": [
        {
          "internalType": "address",
          "name": "account",
          "type": "address"
        }
      ],
      "name": "balanceOf",
      "outputs": [
        {
          "internalType": "uint256",
          "name": "",
          "type": "uint256"
        }
      ],
      "stateMutability": "view",
      "type": "function"
    },
    {
      "inputs": [
        {
          "internalType": "uint256",
          "name": "amount",
          "type": "uint256"
        }
      ],
      "name": "burn",
      "outputs": [],
      "stateMutability": "nonpayable",
      "type": "function"
    },
    {
      "inputs": [
        {
          "internalType": "address",
          "name": "account",
          "type": "address"
        },
        {
          "internalType": "uint256",
          "name": "amount",
          "type": "uint256"
        }
      ],
      "name": "burnFrom",
      "outputs": [],
      "stateMutability": "nonpayable",
      "type": "function"
    },
    {
      "inputs": [],
      "name": "decimals",
      "outputs": [
        {
          "internalType": "uint8",
          "name": "",
          "type": "uint8"
        }
      ],
      "stateMutability": "view",
      "type": "function"
    },
    {
      "inputs": [
        {
          "internalType": "address",
          "name": "spender",
          "type": "address"
        },
        {
          "internalType": "uint256",
          "name": "subtractedValue",
          "type": "uint256"
        }
      ],
      "name": "decreaseAllowance",
      "outputs": [
        {
          "internalType": "bool",
          "name": "",
          "type": "bool"
        }
      ],
      "stateMutability": "nonpayable",
      "type": "function"
    },
    {
      "inputs": [],
      "name": "getImplementation",
      "outputs": [
        {
          "internalType": "address",
          "name": "",
          "type": "address"
        }
      ],
      "stateMutability": "view",
      "type": "function"
    },
    {
      "inputs": [
        {
          "internalType": "bytes32",
          "name": "role",
          "type": "bytes32"
        }
      ],
      "name": "getRoleAdmin",
      "outputs": [
        {
          "internalType": "bytes32",
          "name": "",
          "type": "bytes32"
        }
      ],
      "stateMutability": "view",
      "type": "function"
    },
    {
      "inputs": [
        {
          "internalType": "bytes32",
          "name": "role",
          "type": "bytes32"
        },
        {
          "internalType": "address",
          "name": "account",
          "type": "address"
        }
      ],
      "name": "grantRole",
      "outputs": [],
      "stateMutability": "nonpayable",
      "type": "function"
    },
    {
      "inputs": [
        {
          "internalType": "bytes32",
          "name": "role",
          "type": "bytes32"
        },
        {
          "internalType": "address",
          "name": "account",
          "type": "address"
        }
      ],
      "name": "hasRole",
      "outputs": [
        {
          "internalType": "bool",
          "name": "",
          "type": "bool"
        }
      ],
      "stateMutability": "view",
      "type": "function"
    },
    {
      "inputs": [
        {
          "internalType": "address",
          "name": "spender",
          "type": "address"
        },
        {
          "internalType": "uint256",
          "name": "addedValue",
          "type": "uint256"
        }
      ],
      "name": "increaseAllowance",
      "outputs": [
        {
          "internalType": "bool",
          "name": "",
          "type": "bool"
        }
      ],
      "stateMutability": "nonpayable",
      "type": "function"
    },
    {
      "inputs": [
        {
          "internalType": "string",
          "name": "name_",
          "type": "string"
        },
        {
          "internalType": "string",
          "name": "symbol_",
          "type": "string"
        },
        {
          "internalType": "uint8",
          "name": "decimals_",
          "type": "uint8"
        },
        {
          "internalType": "uint256",
          "name": "amount_",
          "type": "uint256"
        }
      ],
      "name": "initialize",
      "outputs": [],
      "stateMutability": "nonpayable",
      "type": "function"
    },
    {
      "inputs": [],
      "name": "name",
      "outputs": [
        {
          "internalType": "string",
          "name": "",
          "type": "string"
        }
      ],
      "stateMutability": "view",
      "type": "function"
    },
    {
      "inputs": [],
      "name": "pause",
      "outputs": [],
      "stateMutability": "nonpayable",
      "type": "function"
    },
    {
      "inputs": [],
      "name": "paused",
      "outputs": [
        {
          "internalType": "bool",
          "name": "",
          "type": "bool"
        }
      ],
      "stateMutability": "view",
      "type": "function"
    },
    {
      "inputs": [
        {
          "internalType": "address",
          "name": "implementationAddress",
          "type": "address"
        }
      ],
      "name": "proposeNewImplementation",
      "outputs": [],
      "stateMutability": "nonpayable",
      "type": "function"
    },
    {
      "inputs": [
        {
          "internalType": "address[]",
          "name": "addresses",
          "type": "address[]"
        }
      ],
      "name": "removeAddressesFromBlacklist",
      "outputs": [],
      "stateMutability": "nonpayable",
      "type": "function"
    },
    {
      "inputs": [
        {
          "internalType": "address[]",
          "name": "addresses",
          "type": "address[]"
        }
      ],
      "name": "removeAddressesFromWhitelistFrom",
      "outputs": [],
      "stateMutability": "nonpayable",
      "type": "function"
    },
    {
      "inputs": [
        {
          "internalType": "address[]",
          "name": "addresses",
          "type": "address[]"
        }
      ],
      "name": "removeAddressesFromWhitelistSender",
      "outputs": [],
      "stateMutability": "nonpayable",
      "type": "function"
    },
    {
      "inputs": [
        {
          "internalType": "bytes32",
          "name": "role",
          "type": "bytes32"
        },
        {
          "internalType": "address",
          "name": "account",
          "type": "address"
        }
      ],
      "name": "renounceRole",
      "outputs": [],
      "stateMutability": "nonpayable",
      "type": "function"
    },
    {
      "inputs": [
        {
          "internalType": "bytes32",
          "name": "role",
          "type": "bytes32"
        },
        {
          "internalType": "address",
          "name": "account",
          "type": "address"
        }
      ],
      "name": "revokeRole",
      "outputs": [],
      "stateMutability": "nonpayable",
      "type": "function"
    },
    {
      "inputs": [
        {
          "internalType": "bytes4",
          "name": "interfaceId",
          "type": "bytes4"
        }
      ],
      "name": "supportsInterface",
      "outputs": [
        {
          "internalType": "bool",
          "name": "",
          "type": "bool"
        }
      ],
      "stateMutability": "view",
      "type": "function"
    },
    {
      "inputs": [],
      "name": "symbol",
      "outputs": [
        {
          "internalType": "string",
          "name": "",
          "type": "string"
        }
      ],
      "stateMutability": "view",
      "type": "function"
    },
    {
      "inputs": [],
      "name": "totalSupply",
      "outputs": [
        {
          "internalType": "uint256",
          "name": "",
          "type": "uint256"
        }
      ],
      "stateMutability": "view",
      "type": "function"
    },
    {
      "inputs": [
        {
          "internalType": "address",
          "name": "recipient",
          "type": "address"
        },
        {
          "internalType": "uint256",
          "name": "amount",
          "type": "uint256"
        }
      ],
      "name": "transfer",
      "outputs": [
        {
          "internalType": "bool",
          "name": "",
          "type": "bool"
        }
      ],
      "stateMutability": "nonpayable",
      "type": "function"
    },
    {
      "inputs": [
        {
          "internalType": "address",
          "name": "sender",
          "type": "address"
        },
        {
          "internalType": "address",
          "name": "recipient",
          "type": "address"
        },
        {
          "internalType": "uint256",
          "name": "amount",
          "type": "uint256"
        }
      ],
      "name": "transferFrom",
      "outputs": [
        {
          "internalType": "bool",
          "name": "",
          "type": "bool"
        }
      ],
      "stateMutability": "nonpayable",
      "type": "function"
    },
    {
      "inputs": [],
      "name": "unpause",
      "outputs": [],
      "stateMutability": "nonpayable",
      "type": "function"
    },
    {
      "inputs": [
        {
          "internalType": "address",
          "name": "newImplementation",
          "type": "address"
        }
      ],
      "name": "upgradeTo",
      "outputs": [],
      "stateMutability": "nonpayable",
      "type": "function"
    },
    {
      "inputs": [
        {
          "internalType": "address",
          "name": "newImplementation",
          "type": "address"
        },
        {
          "internalType": "bytes",
          "name": "data",
          "type": "bytes"
        }
      ],
      "name": "upgradeToAndCall",
      "outputs": [],
      "stateMutability": "payable",
      "type": "function"
    }
  ],
  "bytecode": "0x60a06040523060601b60805234801561001757600080fd5b5060805160601c612c8861004b60003960008181610b4301528181610b8301528181610cb00152610cf00152612c886000f3fe6080604052600436106102465760003560e01c806362b199c511610139578063a457c2d7116100b6578063ca73419e1161007a578063ca73419e146106cf578063d547741f146106ef578063d84f91e81461070f578063dd62ed3e14610731578063f36c8f5c14610777578063f834c5021461079957600080fd5b8063a457c2d714610620578063a9059cbb14610640578063aa74a34a14610660578063aaf10f4214610682578063c233f3b7146106af57600080fd5b806379cc6790116100fd57806379cc6790146105a15780638456cb59146105c157806391d14854146105d657806395d89b41146105f6578063a217fddf1461060b57600080fd5b806362b199c5146104e7578063685ed81a146105095780636e79a1c01461052957806370a0823114610549578063731ce8fc1461057f57600080fd5b806336568abe116101c757806342966c681161018b57806342966c681461044d57806343ffa64e1461046d57806347757fb61461048f5780634f1ef286146104af5780635c975abb146104c257600080fd5b806336568abe146103b65780633659cfe6146103d657806339509351146103f65780633f4ba83a14610416578063410b24241461042b57600080fd5b8063248a9ca31161020e578063248a9ca314610301578063253279ad146103315780632f2ff15d14610353578063313ce56714610373578063322587941461039657600080fd5b806301ffc9a71461024b57806306fdde0314610280578063095ea7b3146102a257806318160ddd146102c257806323b872dd146102e1575b600080fd5b34801561025757600080fd5b5061026b61026636600461279f565b6107b9565b60405190151581526020015b60405180910390f35b34801561028c57600080fd5b506102956107f0565b60405161027791906128ec565b3480156102ae57600080fd5b5061026b6102bd3660046126c4565b610882565b3480156102ce57600080fd5b506067545b604051908152602001610277565b3480156102ed57600080fd5b5061026b6102fc3660046125c6565b610898565b34801561030d57600080fd5b506102d361031c366004612763565b600090815260fb602052604090206001015490565b34801561033d57600080fd5b5061035161034c3660046127c9565b610949565b005b34801561035f57600080fd5b5061035161036e36600461277c565b610a97565b34801561037f57600080fd5b506101605460405160ff9091168152602001610277565b3480156103a257600080fd5b506103516103b13660046126ee565b610aaf565b3480156103c257600080fd5b506103516103d136600461277c565b610b24565b3480156103e257600080fd5b506103516103f1366004612578565b610b38565b34801561040257600080fd5b5061026b6104113660046126c4565b610c01565b34801561042257600080fd5b50610351610c3d565b34801561043757600080fd5b506102d3600080516020612bac83398151915281565b34801561045957600080fd5b50610351610468366004612763565b610c5e565b34801561047957600080fd5b506102d3600080516020612b6c83398151915281565b34801561049b57600080fd5b506103516104aa366004612578565b610c68565b6103516104bd366004612602565b610ca5565b3480156104ce57600080fd5b50600080516020612c138339815191525460ff1661026b565b3480156104f357600080fd5b506102d3600080516020612b4c83398151915281565b34801561051557600080fd5b506103516105243660046126ee565b610d5b565b34801561053557600080fd5b506103516105443660046126ee565b610dca565b34801561055557600080fd5b506102d3610564366004612578565b6001600160a01b031660009081526065602052604090205490565b34801561058b57600080fd5b506102d3600080516020612c3383398151915281565b3480156105ad57600080fd5b506103516105bc3660046126c4565b610e24565b3480156105cd57600080fd5b50610351610eaa565b3480156105e257600080fd5b5061026b6105f136600461277c565b610ecb565b34801561060257600080fd5b50610295610ef6565b34801561061757600080fd5b506102d3600081565b34801561062c57600080fd5b5061026b61063b3660046126c4565b610f05565b34801561064c57600080fd5b5061026b61065b3660046126c4565b610f9e565b34801561066c57600080fd5b506102d3600080516020612b2c83398151915281565b34801561068e57600080fd5b50610697610fab565b6040516001600160a01b039091168152602001610277565b3480156106bb57600080fd5b506103516106ca3660046126ee565b610fba565b3480156106db57600080fd5b506103516106ea3660046126ee565b611014565b3480156106fb57600080fd5b5061035161070a36600461277c565b61106e565b34801561071b57600080fd5b506102d3600080516020612bf383398151915281565b34801561073d57600080fd5b506102d361074c366004612593565b6001600160a01b03918216600090815260666020908152604080832093909416825291909152205490565b34801561078357600080fd5b506102d3600080516020612b8c83398151915281565b3480156107a557600080fd5b506103516107b43660046126ee565b611094565b60006001600160e01b03198216637965db0b60e01b14806107ea57506301ffc9a760e01b6001600160e01b03198316145b92915050565b6060606880546107ff90612a93565b80601f016020809104026020016040519081016040528092919081815260200182805461082b90612a93565b80156108785780601f1061084d57610100808354040283529160200191610878565b820191906000526020600020905b81548152906001019060200180831161085b57829003601f168201915b5050505050905090565b600061088f3384846110ee565b50600192915050565b60006108a5848484611212565b6001600160a01b03841660009081526066602090815260408083203384529091529020548281101561092f5760405162461bcd60e51b815260206004820152602860248201527f45524332303a207472616e7366657220616d6f756e74206578636565647320616044820152676c6c6f77616e636560c01b60648201526084015b60405180910390fd5b61093c85338584036110ee565b60019150505b9392505050565b600054610100900460ff166109645760005460ff1615610968565b303b155b6109cb5760405162461bcd60e51b815260206004820152602e60248201527f496e697469616c697a61626c653a20636f6e747261637420697320616c72656160448201526d191e481a5b9a5d1a585b1a5e995960921b6064820152608401610926565b600054610100900460ff161580156109ed576000805461ffff19166101011790555b610a6487878080601f01602080910402602001604051908101604052809392919081815260200183838082843760009201919091525050604080516020601f8b0181900481028201810190925289815292508991508890819084018382808284376000920191909152508892508791506113eb9050565b610a6c61142e565b610a74611457565b610a7c6114a4565b8015610a8e576000805461ff00191690555b50505050505050565b610aa18282611517565b610aab82826115a6565b5050565b600080516020612bac833981519152610ac881336115cc565b60005b82811015610b1e57610b0c600080516020612b4c833981519152858584818110610af757610af7612aff565b905060200201602081019061070a9190612578565b80610b1681612ace565b915050610acb565b50505050565b610b2e8282611630565b610aab8282611698565b306001600160a01b037f0000000000000000000000000000000000000000000000000000000000000000161415610b815760405162461bcd60e51b81526004016109269061291f565b7f00000000000000000000000000000000000000000000000000000000000000006001600160a01b0316610bb3611712565b6001600160a01b031614610bd95760405162461bcd60e51b81526004016109269061296b565b610be281611740565b60408051600080825260208201909252610bfe918391906117c2565b50565b3360008181526066602090815260408083206001600160a01b0387168452909152812054909161088f918590610c38908690612a02565b6110ee565b600080516020612bf3833981519152610c5681336115cc565b610bfe61190d565b610bfe33826119ba565b600080516020612b8c833981519152610c8181336115cc565b5061012d80546001600160a01b0319166001600160a01b0392909216919091179055565b306001600160a01b037f0000000000000000000000000000000000000000000000000000000000000000161415610cee5760405162461bcd60e51b81526004016109269061291f565b7f00000000000000000000000000000000000000000000000000000000000000006001600160a01b0316610d20611712565b6001600160a01b031614610d465760405162461bcd60e51b81526004016109269061296b565b610d4f82611740565b610aab828260016117c2565b600080516020612bf3833981519152610d7481336115cc565b60005b82811015610b1e57610db8600080516020612b2c833981519152858584818110610da357610da3612aff565b905060200201602081019061036e9190612578565b80610dc281612ace565b915050610d77565b600080516020612bf3833981519152610de381336115cc565b60005b82811015610b1e57610e12600080516020612c33833981519152858584818110610af757610af7612aff565b80610e1c81612ace565b915050610de6565b6000610e30833361074c565b905081811015610e8e5760405162461bcd60e51b8152602060048201526024808201527f45524332303a206275726e20616d6f756e74206578636565647320616c6c6f77604482015263616e636560e01b6064820152608401610926565b610e9b83338484036110ee565b610ea583836119ba565b505050565b600080516020612bf3833981519152610ec381336115cc565b610bfe611b14565b600091825260fb602090815260408084206001600160a01b0393909316845291905290205460ff1690565b6060606980546107ff90612a93565b3360009081526066602090815260408083206001600160a01b038616845290915281205482811015610f875760405162461bcd60e51b815260206004820152602560248201527f45524332303a2064656372656173656420616c6c6f77616e63652062656c6f77604482015264207a65726f60d81b6064820152608401610926565b610f9433858584036110ee565b5060019392505050565b600061088f338484611212565b6000610fb5611712565b905090565b600080516020612bf3833981519152610fd381336115cc565b60005b82811015610b1e57611002600080516020612b2c833981519152858584818110610af757610af7612aff565b8061100c81612ace565b915050610fd6565b600080516020612bac83398151915261102d81336115cc565b60005b82811015610b1e5761105c600080516020612b4c833981519152858584818110610da357610da3612aff565b8061106681612ace565b915050611030565b600082815260fb602052604090206001015461108a81336115cc565b610ea58383611ba8565b600080516020612bf38339815191526110ad81336115cc565b60005b82811015610b1e576110dc600080516020612c33833981519152858584818110610da357610da3612aff565b806110e681612ace565b9150506110b0565b6001600160a01b0383166111505760405162461bcd60e51b8152602060048201526024808201527f45524332303a20617070726f76652066726f6d20746865207a65726f206164646044820152637265737360e01b6064820152608401610926565b6001600160a01b0382166111b15760405162461bcd60e51b815260206004820152602260248201527f45524332303a20617070726f766520746f20746865207a65726f206164647265604482015261737360f01b6064820152608401610926565b6001600160a01b0383811660008181526066602090815260408083209487168084529482529182902085905590518481527f8c5be1e5ebec7d5bd14f71427d1e84f3dd0314c0f7b2291e5b200ac8c7c3b925910160405180910390a3505050565b6001600160a01b0383166112765760405162461bcd60e51b815260206004820152602560248201527f45524332303a207472616e736665722066726f6d20746865207a65726f206164604482015264647265737360d81b6064820152608401610926565b6001600160a01b0382166112d85760405162461bcd60e51b815260206004820152602360248201527f45524332303a207472616e7366657220746f20746865207a65726f206164647260448201526265737360e81b6064820152608401610926565b6112e3838383611c0f565b6001600160a01b0383166000908152606560205260409020548181101561135b5760405162461bcd60e51b815260206004820152602660248201527f45524332303a207472616e7366657220616d6f756e7420657863656564732062604482015265616c616e636560d01b6064820152608401610926565b6001600160a01b03808516600090815260656020526040808220858503905591851681529081208054849290611392908490612a02565b92505081905550826001600160a01b0316846001600160a01b03167fddf252ad1be2c89b69c2b068fc378daa952ba7f163c4a11628f55a4df523b3ef846040516113de91815260200190565b60405180910390a3610b1e565b600054610100900460ff166114125760405162461bcd60e51b8152600401610926906129b7565b61141a611c1a565b6114248484611c71565b610b1e8282611cbf565b600054610100900460ff166114555760405162461bcd60e51b8152600401610926906129b7565b565b600054610100900460ff1661147e5760405162461bcd60e51b8152600401610926906129b7565b611455600080516020612b4c833981519152600080516020612bac833981519152611d00565b600054610100900460ff166114cb5760405162461bcd60e51b8152600401610926906129b7565b6114f1600080516020612c33833981519152600080516020612bf3833981519152611d00565b611455600080516020612b2c833981519152600080516020612bf3833981519152611d00565b600080516020612bac833981519152821480611531575081155b15610aab5761154e600080516020612b4c83398151915282610ecb565b15610aab5760405162461bcd60e51b815260206004820152602260248201527f63616e206e6f742061737369676e20726f6c6520746f20626c61636b6c697374604482015261195960f21b6064820152608401610926565b600082815260fb60205260409020600101546115c281336115cc565b610ea58383611d4b565b6115d68282610ecb565b610aab576115ee816001600160a01b03166014611dd1565b6115f9836020611dd1565b60405160200161160a929190612877565b60408051601f198184030181529082905262461bcd60e51b8252610926916004016128ec565b600080516020612b4c833981519152821415610aab5760405162461bcd60e51b815260206004820152602160248201527f43616e206e6f742072656e6f756e636520626c61636b6c697374656420726f6c6044820152606560f81b6064820152608401610926565b6001600160a01b03811633146117085760405162461bcd60e51b815260206004820152602f60248201527f416363657373436f6e74726f6c3a2063616e206f6e6c792072656e6f756e636560448201526e103937b632b9903337b91039b2b63360891b6064820152608401610926565b610aab8282611ba8565b7f360894a13ba1a3210667c828492db98dca3e2076cc3735a920a3ca505d382bbc546001600160a01b031690565b611758600080516020612b8c83398151915233610ecb565b806117765750611776600080516020612b6c83398151915233610ecb565b610bfe5760405162461bcd60e51b815260206004820152601d60248201527f4552524f523a2041646472657373206e6f7420617574686f72697a65640000006044820152606401610926565b60006117cc611712565b90506117d784611f6d565b6000835111806117e45750815b156117f5576117f38484612012565b505b7f4910fdfa16fed3260ed0e7147f7cc6da11a60208b5b9406d12a635614ffd9143805460ff1661190657805460ff191660011781556040516001600160a01b038316602482015261187490869060440160408051601f198184030181529190526020810180516001600160e01b0316631b2ce7f360e11b179052612012565b50805460ff19168155611885611712565b6001600160a01b0316826001600160a01b0316146118fd5760405162461bcd60e51b815260206004820152602f60248201527f45524331393637557067726164653a207570677261646520627265616b73206660448201526e75727468657220757067726164657360881b6064820152608401610926565b611906856120fd565b5050505050565b600080516020612c138339815191525460ff166119635760405162461bcd60e51b815260206004820152601460248201527314185d5cd8589b194e881b9bdd081c185d5cd95960621b6044820152606401610926565b600080516020612c13833981519152805460ff191690557f5db9ee0a495bf2e6ff9c91a7834c1ba4fdd244a5e8aa4e537bd38aeae4b073aa335b6040516001600160a01b03909116815260200160405180910390a1565b6001600160a01b038216611a1a5760405162461bcd60e51b815260206004820152602160248201527f45524332303a206275726e2066726f6d20746865207a65726f206164647265736044820152607360f81b6064820152608401610926565b611a2682600083611c0f565b6001600160a01b03821660009081526065602052604090205481811015611a9a5760405162461bcd60e51b815260206004820152602260248201527f45524332303a206275726e20616d6f756e7420657863656564732062616c616e604482015261636560f01b6064820152608401610926565b6001600160a01b0383166000908152606560205260408120838303905560678054849290611ac9908490612a39565b90915550506040518281526000906001600160a01b038516907fddf252ad1be2c89b69c2b068fc378daa952ba7f163c4a11628f55a4df523b3ef9060200160405180910390a3505050565b600080516020612c138339815191525460ff1615611b675760405162461bcd60e51b815260206004820152601060248201526f14185d5cd8589b194e881c185d5cd95960821b6044820152606401610926565b600080516020612c13833981519152805460ff191660011790557f62e78cea01bee320cd4e420270b5ea74000d11b0c9f74754ebdbfc544b05a2583361199d565b611bb28282610ecb565b15610aab57600082815260fb602090815260408083206001600160a01b0385168085529252808320805460ff1916905551339285917ff6391f5c32d9c69d2a47ea670b442974b53935d1edc7fd64eb21e047a839171b9190a45050565b610ea583838361213d565b600054610100900460ff16611c415760405162461bcd60e51b8152600401610926906129b7565b611c4961142e565b611c5161142e565b611c5961142e565b611c6161142e565b611c6961142e565b611455612153565b600054610100900460ff16611c985760405162461bcd60e51b8152600401610926906129b7565b8151611cab90606890602085019061247a565b508051610ea590606990602084019061247a565b600054610100900460ff16611ce65760405162461bcd60e51b8152600401610926906129b7565b610160805460ff191660ff8416179055610aab33826121db565b600082815260fb6020526040808220600101805490849055905190918391839186917fbd79b86ffe0ab8e8776151514217cd7cacd52c909f66475c3af44e129f0b00ff9190a4505050565b611d558282610ecb565b610aab57600082815260fb602090815260408083206001600160a01b03851684529091529020805460ff19166001179055611d8d3390565b6001600160a01b0316816001600160a01b0316837f2f8788117e7eff1d82e926ec794901d17c78024a50270940304540a733656f0d60405160405180910390a45050565b60606000611de0836002612a1a565b611deb906002612a02565b67ffffffffffffffff811115611e0357611e03612b15565b6040519080825280601f01601f191660200182016040528015611e2d576020820181803683370190505b509050600360fc1b81600081518110611e4857611e48612aff565b60200101906001600160f81b031916908160001a905350600f60fb1b81600181518110611e7757611e77612aff565b60200101906001600160f81b031916908160001a9053506000611e9b846002612a1a565b611ea6906001612a02565b90505b6001811115611f1e576f181899199a1a9b1b9c1cb0b131b232b360811b85600f1660108110611eda57611eda612aff565b1a60f81b828281518110611ef057611ef0612aff565b60200101906001600160f81b031916908160001a90535060049490941c93611f1781612a7c565b9050611ea9565b5083156109425760405162461bcd60e51b815260206004820181905260248201527f537472696e67733a20686578206c656e67746820696e73756666696369656e746044820152606401610926565b803b611fd15760405162461bcd60e51b815260206004820152602d60248201527f455243313936373a206e657720696d706c656d656e746174696f6e206973206e60448201526c1bdd08184818dbdb9d1c9858dd609a1b6064820152608401610926565b7f360894a13ba1a3210667c828492db98dca3e2076cc3735a920a3ca505d382bbc80546001600160a01b0319166001600160a01b0392909216919091179055565b6060823b6120715760405162461bcd60e51b815260206004820152602660248201527f416464726573733a2064656c65676174652063616c6c20746f206e6f6e2d636f6044820152651b9d1c9858dd60d21b6064820152608401610926565b600080846001600160a01b03168460405161208c919061285b565b600060405180830381855af49150503d80600081146120c7576040519150601f19603f3d011682016040523d82523d6000602084013e6120cc565b606091505b50915091506120f48282604051806060016040528060278152602001612bcc602791396122c6565b95945050505050565b61210681611f6d565b6040516001600160a01b038216907fbc7cd75a20ee27fd9adebab32041f755214dbc6bffa90cc0225b39da2e5c2d3b90600090a250565b6121488383836122ff565b610ea5838383612357565b600054610100900460ff1661217a5760405162461bcd60e51b8152600401610926906129b7565b6121856000336123da565b61219d600080516020612b8c833981519152336123da565b6121b5600080516020612b6c833981519152336123da565b611455600080516020612b6c833981519152600080516020612b8c833981519152611d00565b6001600160a01b0382166122315760405162461bcd60e51b815260206004820152601f60248201527f45524332303a206d696e7420746f20746865207a65726f2061646472657373006044820152606401610926565b61223d60008383611c0f565b806067600082825461224f9190612a02565b90915550506001600160a01b0382166000908152606560205260408120805483929061227c908490612a02565b90915550506040518181526001600160a01b038316906000907fddf252ad1be2c89b69c2b068fc378daa952ba7f163c4a11628f55a4df523b3ef9060200160405180910390a35050565b606083156122d5575081610942565b8251156122e55782518084602001fd5b8160405162461bcd60e51b815260040161092691906128ec565b61230a3384846123e4565b15610ea55760405162461bcd60e51b815260206004820152601a60248201527f4552524f523a204164647265737320426c61636b6c69737465640000000000006044820152606401610926565b600080516020612c138339815191525460ff16158061237b575061237b8333612442565b610ea55760405162461bcd60e51b815260206004820152602a60248201527f45524332305061757361626c653a20746f6b656e207472616e736665722077686044820152691a5b19481c185d5cd95960b21b6064820152608401610926565b610aab8282611d4b565b60006123fe600080516020612b4c83398151915284610ecb565b8061241c575061241c600080516020612b4c83398151915285610ecb565b8061243a575061243a600080516020612b4c83398151915283610ecb565b949350505050565b600061245c600080516020612c3383398151915284610ecb565b806109425750610942600080516020612b2c83398151915283610ecb565b82805461248690612a93565b90600052602060002090601f0160209004810192826124a857600085556124ee565b82601f106124c157805160ff19168380011785556124ee565b828001600101855582156124ee579182015b828111156124ee5782518255916020019190600101906124d3565b506124fa9291506124fe565b5090565b5b808211156124fa57600081556001016124ff565b80356001600160a01b038116811461252a57600080fd5b919050565b60008083601f84011261254157600080fd5b50813567ffffffffffffffff81111561255957600080fd5b60208301915083602082850101111561257157600080fd5b9250929050565b60006020828403121561258a57600080fd5b61094282612513565b600080604083850312156125a657600080fd5b6125af83612513565b91506125bd60208401612513565b90509250929050565b6000806000606084860312156125db57600080fd5b6125e484612513565b92506125f260208501612513565b9150604084013590509250925092565b6000806040838503121561261557600080fd5b61261e83612513565b9150602083013567ffffffffffffffff8082111561263b57600080fd5b818501915085601f83011261264f57600080fd5b81358181111561266157612661612b15565b604051601f8201601f19908116603f0116810190838211818310171561268957612689612b15565b816040528281528860208487010111156126a257600080fd5b8260208601602083013760006020848301015280955050505050509250929050565b600080604083850312156126d757600080fd5b6126e083612513565b946020939093013593505050565b6000806020838503121561270157600080fd5b823567ffffffffffffffff8082111561271957600080fd5b818501915085601f83011261272d57600080fd5b81358181111561273c57600080fd5b8660208260051b850101111561275157600080fd5b60209290920196919550909350505050565b60006020828403121561277557600080fd5b5035919050565b6000806040838503121561278f57600080fd5b823591506125bd60208401612513565b6000602082840312156127b157600080fd5b81356001600160e01b03198116811461094257600080fd5b600080600080600080608087890312156127e257600080fd5b863567ffffffffffffffff808211156127fa57600080fd5b6128068a838b0161252f565b9098509650602089013591508082111561281f57600080fd5b5061282c89828a0161252f565b909550935050604087013560ff8116811461284657600080fd5b80925050606087013590509295509295509295565b6000825161286d818460208701612a50565b9190910192915050565b7f416363657373436f6e74726f6c3a206163636f756e74200000000000000000008152600083516128af816017850160208801612a50565b7001034b99036b4b9b9b4b733903937b6329607d1b60179184019182015283516128e0816028840160208801612a50565b01602801949350505050565b602081526000825180602084015261290b816040850160208701612a50565b601f01601f19169190910160400192915050565b6020808252602c908201527f46756e6374696f6e206d7573742062652063616c6c6564207468726f7567682060408201526b19195b1959d85d1958d85b1b60a21b606082015260800190565b6020808252602c908201527f46756e6374696f6e206d7573742062652063616c6c6564207468726f7567682060408201526b6163746976652070726f787960a01b606082015260800190565b6020808252602b908201527f496e697469616c697a61626c653a20636f6e7472616374206973206e6f74206960408201526a6e697469616c697a696e6760a81b606082015260800190565b60008219821115612a1557612a15612ae9565b500190565b6000816000190483118215151615612a3457612a34612ae9565b500290565b600082821015612a4b57612a4b612ae9565b500390565b60005b83811015612a6b578181015183820152602001612a53565b83811115610b1e5750506000910152565b600081612a8b57612a8b612ae9565b506000190190565b600181811c90821680612aa757607f821691505b60208210811415612ac857634e487b7160e01b600052602260045260246000fd5b50919050565b6000600019821415612ae257612ae2612ae9565b5060010190565b634e487b7160e01b600052601160045260246000fd5b634e487b7160e01b600052603260045260246000fd5b634e487b7160e01b600052604160045260246000fdfee1ac655ab58995133a870d1fd307ddc1d624c8ad919a09e67867a7a1483e439a548c7f0307ab2a7ea894e5c7e8c5353cc750bb9385ee2e945f189a9a83daa8eda76ace73a908083d89af9ff88e5b4f7cadb3591a80631063f68b695fda726db571840dc4906352362b0cdaf79870196c8e42acafade72d5d5a6d59291253ceb1f988e4fb62b8e14f4820fed03192306ddf4d7dbfa215595ba1c6ba4b76b369ee416464726573733a206c6f772d6c6576656c2064656c65676174652063616c6c206661696c6564356a809dfdea9198dd76fb76bf6d403ecf13ea675eb89e1eda2db2c4a4676a26ad6a6591fa308fe948065665239402780db8ed4a8c4e4e16c4d066bcaa05efc2ce108bcc5e0f50fe603649304cbbbd94de794a404db82d884c0afc9ba9328e61a26469706673582212203614dcf54e8a93fe13f058353541fe1baf3049fbf92478c80fdce3642561fe5864736f6c63430008060033",
  "linkReferences": {},
  "deployedLinkReferences": {}
}