{
  "_format": "hh-sol-artifact-1",
  "name": "BlacklistTemplate",
  "initializer": "function initialize(string name_, string symbol_, uint8 decimals_, uint256 amount_)",
  "sourceName": "contracts/templates/BlacklistTemplate.sol",
  "abi": [
    {
      "anonymous": false,
      "inputs": [
        {
          "indexed": false,
          "internalType": "address",
          "name": "previousAdmin",
          "type": "address"
        },
        {
          "indexed": false,
          "internalType": "address",
          "name": "newAdmin",
          "type": "address"
        }
      ],
      "name": "AdminChanged",
      "type": "event"
    },
    {
      "anonymous": false,
      "inputs": [
        {
          "indexed": true,
          "internalType": "address",
          "name": "owner",
          "type": "address"
        },
        {
          "indexed": true,
          "internalType": "address",
          "name": "spender",
          "type": "address"
        },
        {
          "indexed": false,
          "internalType": "uint256",
          "name": "value",
          "type": "uint256"
        }
      ],
      "name": "Approval",
      "type": "event"
    },
    {
      "anonymous": false,
      "inputs": [
        {
          "indexed": true,
          "internalType": "address",
          "name": "beacon",
          "type": "address"
        }
      ],
      "name": "BeaconUpgraded",
      "type": "event"
    },
    {
      "anonymous": false,
      "inputs": [
        {
          "indexed": true,
          "internalType": "bytes32",
          "name": "role",
          "type": "bytes32"
        },
        {
          "indexed": true,
          "internalType": "bytes32",
          "name": "previousAdminRole",
          "type": "bytes32"
        },
        {
          "indexed": true,
          "internalType": "bytes32",
          "name": "newAdminRole",
          "type": "bytes32"
        }
      ],
      "name": "RoleAdminChanged",
      "type": "event"
    },
    {
      "anonymous": false,
      "inputs": [
        {
          "indexed": true,
          "internalType": "bytes32",
          "name": "role",
          "type": "bytes32"
        },
        {
          "indexed": true,
          "internalType": "address",
          "name": "account",
          "type": "address"
        },
        {
          "indexed": true,
          "internalType": "address",
          "name": "sender",
          "type": "address"
        }
      ],
      "name": "RoleGranted",
      "type": "event"
    },
    {
      "anonymous": false,
      "inputs": [
        {
          "indexed": true,
          "internalType": "bytes32",
          "name": "role",
          "type": "bytes32"
        },
        {
          "indexed": true,
          "internalType": "address",
          "name": "account",
          "type": "address"
        },
        {
          "indexed": true,
          "internalType": "address",
          "name": "sender",
          "type": "address"
        }
      ],
      "name": "RoleRevoked",
      "type": "event"
    },
    {
      "anonymous": false,
      "inputs": [
        {
          "indexed": true,
          "internalType": "address",
          "name": "from",
          "type": "address"
        },
        {
          "indexed": true,
          "internalType": "address",
          "name": "to",
          "type": "address"
        },
        {
          "indexed": false,
          "internalType": "uint256",
          "name": "value",
          "type": "uint256"
        }
      ],
      "name": "Transfer",
      "type": "event"
    },
    {
      "anonymous": false,
      "inputs": [
        {
          "indexed": true,
          "internalType": "address",
          "name": "implementation",
          "type": "address"
        }
      ],
      "name": "Upgraded",
      "type": "event"
    },
    {
      "inputs": [],
      "name": "BLACKLISTED_ROLE",
      "outputs": [
        {
          "internalType": "bytes32",
          "name": "",
          "type": "bytes32"
        }
      ],
      "stateMutability": "view",
      "type": "function"
    },
    {
      "inputs": [],
      "name": "BLACKLIST_MANAGER_ROLE",
      "outputs": [
        {
          "internalType": "bytes32",
          "name": "",
          "type": "bytes32"
        }
      ],
      "stateMutability": "view",
      "type": "function"
    },
    {
      "inputs": [],
      "name": "DEFAULT_ADMIN_ROLE",
      "outputs": [
        {
          "internalType": "bytes32",
          "name": "",
          "type": "bytes32"
        }
      ],
      "stateMutability": "view",
      "type": "function"
    },
    {
      "inputs": [],
      "name": "GOVERNANCE_ROLE",
      "outputs": [
        {
          "internalType": "bytes32",
          "name": "",
          "type": "bytes32"
        }
      ],
      "stateMutability": "view",
      "type": "function"
    },
    {
      "inputs": [],
      "name": "UPGRADE_MANAGER_ROLE",
      "outputs": [
        {
          "internalType": "bytes32",
          "name": "",
          "type": "bytes32"
        }
      ],
      "stateMutability": "view",
      "type": "function"
    },
    {
      "inputs": [
        {
          "internalType": "address[]",
          "name": "addresses",
          "type": "address[]"
        }
      ],
      "name": "addAddressesToBlacklist",
      "outputs": [],
      "stateMutability": "nonpayable",
      "type": "function"
    },
    {
      "inputs": [
        {
          "internalType": "address",
          "name": "owner",
          "type": "address"
        },
        {
          "internalType": "address",
          "name": "spender",
          "type": "address"
        }
      ],
      "name": "allowance",
      "outputs": [
        {
          "internalType": "uint256",
          "name": "",
          "type": "uint256"
        }
      ],
      "stateMutability": "view",
      "type": "function"
    },
    {
      "inputs": [
        {
          "internalType": "address",
          "name": "spender",
          "type": "address"
        },
        {
          "internalType": "uint256",
          "name": "amount",
          "type": "uint256"
        }
      ],
      "name": "approve",
      "outputs": [
        {
          "internalType": "bool",
          "name": "",
          "type": "bool"
        }
      ],
      "stateMutability": "nonpayable",
      "type": "function"
    },
    {
      "inputs": [
        {
          "internalType": "address",
          "name": "account",
          "type": "address"
        }
      ],
      "name": "balanceOf",
      "outputs": [
        {
          "internalType": "uint256",
          "name": "",
          "type": "uint256"
        }
      ],
      "stateMutability": "view",
      "type": "function"
    },
    {
      "inputs": [],
      "name": "decimals",
      "outputs": [
        {
          "internalType": "uint8",
          "name": "",
          "type": "uint8"
        }
      ],
      "stateMutability": "view",
      "type": "function"
    },
    {
      "inputs": [
        {
          "internalType": "address",
          "name": "spender",
          "type": "address"
        },
        {
          "internalType": "uint256",
          "name": "subtractedValue",
          "type": "uint256"
        }
      ],
      "name": "decreaseAllowance",
      "outputs": [
        {
          "internalType": "bool",
          "name": "",
          "type": "bool"
        }
      ],
      "stateMutability": "nonpayable",
      "type": "function"
    },
    {
      "inputs": [],
      "name": "getImplementation",
      "outputs": [
        {
          "internalType": "address",
          "name": "",
          "type": "address"
        }
      ],
      "stateMutability": "view",
      "type": "function"
    },
    {
      "inputs": [
        {
          "internalType": "bytes32",
          "name": "role",
          "type": "bytes32"
        }
      ],
      "name": "getRoleAdmin",
      "outputs": [
        {
          "internalType": "bytes32",
          "name": "",
          "type": "bytes32"
        }
      ],
      "stateMutability": "view",
      "type": "function"
    },
    {
      "inputs": [
        {
          "internalType": "bytes32",
          "name": "role",
          "type": "bytes32"
        },
        {
          "internalType": "address",
          "name": "account",
          "type": "address"
        }
      ],
      "name": "grantRole",
      "outputs": [],
      "stateMutability": "nonpayable",
      "type": "function"
    },
    {
      "inputs": [
        {
          "internalType": "bytes32",
          "name": "role",
          "type": "bytes32"
        },
        {
          "internalType": "address",
          "name": "account",
          "type": "address"
        }
      ],
      "name": "hasRole",
      "outputs": [
        {
          "internalType": "bool",
          "name": "",
          "type": "bool"
        }
      ],
      "stateMutability": "view",
      "type": "function"
    },
    {
      "inputs": [
        {
          "internalType": "address",
          "name": "spender",
          "type": "address"
        },
        {
          "internalType": "uint256",
          "name": "addedValue",
          "type": "uint256"
        }
      ],
      "name": "increaseAllowance",
      "outputs": [
        {
          "internalType": "bool",
          "name": "",
          "type": "bool"
        }
      ],
      "stateMutability": "nonpayable",
      "type": "function"
    },
    {
      "inputs": [
        {
          "internalType": "string",
          "name": "name_",
          "type": "string"
        },
        {
          "internalType": "string",
          "name": "symbol_",
          "type": "string"
        },
        {
          "internalType": "uint8",
          "name": "decimals_",
          "type": "uint8"
        },
        {
          "internalType": "uint256",
          "name": "amount_",
          "type": "uint256"
        }
      ],
      "name": "initialize",
      "outputs": [],
      "stateMutability": "nonpayable",
      "type": "function"
    },
    {
      "inputs": [],
      "name": "name",
      "outputs": [
        {
          "internalType": "string",
          "name": "",
          "type": "string"
        }
      ],
      "stateMutability": "view",
      "type": "function"
    },
    {
      "inputs": [
        {
          "internalType": "address",
          "name": "implementationAddress",
          "type": "address"
        }
      ],
      "name": "proposeNewImplementation",
      "outputs": [],
      "stateMutability": "nonpayable",
      "type": "function"
    },
    {
      "inputs": [
        {
          "internalType": "address[]",
          "name": "addresses",
          "type": "address[]"
        }
      ],
      "name": "removeAddressesFromBlacklist",
      "outputs": [],
      "stateMutability": "nonpayable",
      "type": "function"
    },
    {
      "inputs": [
        {
          "internalType": "bytes32",
          "name": "role",
          "type": "bytes32"
        },
        {
          "internalType": "address",
          "name": "account",
          "type": "address"
        }
      ],
      "name": "renounceRole",
      "outputs": [],
      "stateMutability": "nonpayable",
      "type": "function"
    },
    {
      "inputs": [
        {
          "internalType": "bytes32",
          "name": "role",
          "type": "bytes32"
        },
        {
          "internalType": "address",
          "name": "account",
          "type": "address"
        }
      ],
      "name": "revokeRole",
      "outputs": [],
      "stateMutability": "nonpayable",
      "type": "function"
    },
    {
      "inputs": [
        {
          "internalType": "bytes4",
          "name": "interfaceId",
          "type": "bytes4"
        }
      ],
      "name": "supportsInterface",
      "outputs": [
        {
          "internalType": "bool",
          "name": "",
          "type": "bool"
        }
      ],
      "stateMutability": "view",
      "type": "function"
    },
    {
      "inputs": [],
      "name": "symbol",
      "outputs": [
        {
          "internalType": "string",
          "name": "",
          "type": "string"
        }
      ],
      "stateMutability": "view",
      "type": "function"
    },
    {
      "inputs": [],
      "name": "totalSupply",
      "outputs": [
        {
          "internalType": "uint256",
          "name": "",
          "type": "uint256"
        }
      ],
      "stateMutability": "view",
      "type": "function"
    },
    {
      "inputs": [
        {
          "internalType": "address",
          "name": "recipient",
          "type": "address"
        },
        {
          "internalType": "uint256",
          "name": "amount",
          "type": "uint256"
        }
      ],
      "name": "transfer",
      "outputs": [
        {
          "internalType": "bool",
          "name": "",
          "type": "bool"
        }
      ],
      "stateMutability": "nonpayable",
      "type": "function"
    },
    {
      "inputs": [
        {
          "internalType": "address",
          "name": "sender",
          "type": "address"
        },
        {
          "internalType": "address",
          "name": "recipient",
          "type": "address"
        },
        {
          "internalType": "uint256",
          "name": "amount",
          "type": "uint256"
        }
      ],
      "name": "transferFrom",
      "outputs": [
        {
          "internalType": "bool",
          "name": "",
          "type": "bool"
        }
      ],
      "stateMutability": "nonpayable",
      "type": "function"
    },
    {
      "inputs": [
        {
          "internalType": "address",
          "name": "newImplementation",
          "type": "address"
        }
      ],
      "name": "upgradeTo",
      "outputs": [],
      "stateMutability": "nonpayable",
      "type": "function"
    },
    {
      "inputs": [
        {
          "internalType": "address",
          "name": "newImplementation",
          "type": "address"
        },
        {
          "internalType": "bytes",
          "name": "data",
          "type": "bytes"
        }
      ],
      "name": "upgradeToAndCall",
      "outputs": [],
      "stateMutability": "payable",
      "type": "function"
    }
  ],
  "bytecode": "0x60a06040523060601b60805234801561001757600080fd5b5060805160601c6123d461004b6000396000818161093a0152818161097a01528181610a7c0152610abc01526123d46000f3fe6080604052600436106101c25760003560e01c806343ffa64e116100f7578063a217fddf11610095578063ca73419e11610064578063ca73419e14610518578063d547741f14610538578063dd62ed3e14610558578063f36c8f5c1461059e57600080fd5b8063a217fddf14610496578063a457c2d7146104ab578063a9059cbb146104cb578063aaf10f42146104eb57600080fd5b806362b199c5116100d157806362b199c51461040957806370a082311461042b57806391d148541461046157806395d89b411461048157600080fd5b806343ffa64e146103b457806347757fb6146103d65780634f1ef286146103f657600080fd5b80632f2ff15d1161016457806336568abe1161013e57806336568abe146103325780633659cfe6146103525780633950935114610372578063410b24241461039257600080fd5b80632f2ff15d146102cf578063313ce567146102ef578063322587941461031257600080fd5b806318160ddd116101a057806318160ddd1461023e57806323b872dd1461025d578063248a9ca31461027d578063253279ad146102ad57600080fd5b806301ffc9a7146101c757806306fdde03146101fc578063095ea7b31461021e575b600080fd5b3480156101d357600080fd5b506101e76101e2366004611f82565b6105c0565b60405190151581526020015b60405180910390f35b34801561020857600080fd5b506102116105f7565b6040516101f391906120cf565b34801561022a57600080fd5b506101e7610239366004611ea7565b610689565b34801561024a57600080fd5b506067545b6040519081526020016101f3565b34801561026957600080fd5b506101e7610278366004611da9565b61069f565b34801561028957600080fd5b5061024f610298366004611f46565b600090815260fb602052604090206001015490565b3480156102b957600080fd5b506102cd6102c8366004611fac565b610750565b005b3480156102db57600080fd5b506102cd6102ea366004611f5f565b61088e565b3480156102fb57600080fd5b506101605460405160ff90911681526020016101f3565b34801561031e57600080fd5b506102cd61032d366004611ed1565b6108a6565b34801561033e57600080fd5b506102cd61034d366004611f5f565b61091b565b34801561035e57600080fd5b506102cd61036d366004611d5b565b61092f565b34801561037e57600080fd5b506101e761038d366004611ea7565b6109f8565b34801561039e57600080fd5b5061024f60008051602061235883398151915281565b3480156103c057600080fd5b5061024f60008051602061231883398151915281565b3480156103e257600080fd5b506102cd6103f1366004611d5b565b610a34565b6102cd610404366004611de5565b610a71565b34801561041557600080fd5b5061024f6000805160206122f883398151915281565b34801561043757600080fd5b5061024f610446366004611d5b565b6001600160a01b031660009081526065602052604090205490565b34801561046d57600080fd5b506101e761047c366004611f5f565b610b27565b34801561048d57600080fd5b50610211610b52565b3480156104a257600080fd5b5061024f600081565b3480156104b757600080fd5b506101e76104c6366004611ea7565b610b61565b3480156104d757600080fd5b506101e76104e6366004611ea7565b610bfa565b3480156104f757600080fd5b50610500610c07565b6040516001600160a01b0390911681526020016101f3565b34801561052457600080fd5b506102cd610533366004611ed1565b610c16565b34801561054457600080fd5b506102cd610553366004611f5f565b610c85565b34801561056457600080fd5b5061024f610573366004611d76565b6001600160a01b03918216600090815260666020908152604080832093909416825291909152205490565b3480156105aa57600080fd5b5061024f60008051602061233883398151915281565b60006001600160e01b03198216637965db0b60e01b14806105f157506301ffc9a760e01b6001600160e01b03198316145b92915050565b6060606880546106069061225f565b80601f01602080910402602001604051908101604052809291908181526020018280546106329061225f565b801561067f5780601f106106545761010080835404028352916020019161067f565b820191906000526020600020905b81548152906001019060200180831161066257829003601f168201915b5050505050905090565b6000610696338484610cb0565b50600192915050565b60006106ac848484610dd4565b6001600160a01b0384166000908152606660209081526040808320338452909152902054828110156107365760405162461bcd60e51b815260206004820152602860248201527f45524332303a207472616e7366657220616d6f756e74206578636565647320616044820152676c6c6f77616e636560c01b60648201526084015b60405180910390fd5b6107438533858403610cb0565b60019150505b9392505050565b600054610100900460ff1661076b5760005460ff161561076f565b303b155b6107d25760405162461bcd60e51b815260206004820152602e60248201527f496e697469616c697a61626c653a20636f6e747261637420697320616c72656160448201526d191e481a5b9a5d1a585b1a5e995960921b606482015260840161072d565b600054610100900460ff161580156107f4576000805461ffff19166101011790555b61086b87878080601f01602080910402602001604051908101604052809392919081815260200183838082843760009201919091525050604080516020601f8b018190048102820181019092528981529250899150889081908401838280828437600092019190915250889250879150610fad9050565b610873610ff0565b8015610885576000805461ff00191690555b50505050505050565b610898828261103f565b6108a282826110ce565b5050565b6000805160206123588339815191526108bf81336110f4565b60005b82811015610915576109036000805160206122f88339815191528585848181106108ee576108ee6122cb565b90506020020160208101906105539190611d5b565b8061090d8161229a565b9150506108c2565b50505050565b6109258282611158565b6108a282826111c0565b306001600160a01b037f00000000000000000000000000000000000000000000000000000000000000001614156109785760405162461bcd60e51b815260040161072d90612102565b7f00000000000000000000000000000000000000000000000000000000000000006001600160a01b03166109aa61123a565b6001600160a01b0316146109d05760405162461bcd60e51b815260040161072d9061214e565b6109d981611268565b604080516000808252602082019092526109f5918391906112ea565b50565b3360008181526066602090815260408083206001600160a01b03871684529091528120549091610696918590610a2f9086906121e5565b610cb0565b600080516020612338833981519152610a4d81336110f4565b5061012d80546001600160a01b0319166001600160a01b0392909216919091179055565b306001600160a01b037f0000000000000000000000000000000000000000000000000000000000000000161415610aba5760405162461bcd60e51b815260040161072d90612102565b7f00000000000000000000000000000000000000000000000000000000000000006001600160a01b0316610aec61123a565b6001600160a01b031614610b125760405162461bcd60e51b815260040161072d9061214e565b610b1b82611268565b6108a2828260016112ea565b600091825260fb602090815260408084206001600160a01b0393909316845291905290205460ff1690565b6060606980546106069061225f565b3360009081526066602090815260408083206001600160a01b038616845290915281205482811015610be35760405162461bcd60e51b815260206004820152602560248201527f45524332303a2064656372656173656420616c6c6f77616e63652062656c6f77604482015264207a65726f60d81b606482015260840161072d565b610bf03385858403610cb0565b5060019392505050565b6000610696338484610dd4565b6000610c1161123a565b905090565b600080516020612358833981519152610c2f81336110f4565b60005b8281101561091557610c736000805160206122f8833981519152858584818110610c5e57610c5e6122cb565b90506020020160208101906102ea9190611d5b565b80610c7d8161229a565b915050610c32565b600082815260fb6020526040902060010154610ca181336110f4565b610cab8383611435565b505050565b6001600160a01b038316610d125760405162461bcd60e51b8152602060048201526024808201527f45524332303a20617070726f76652066726f6d20746865207a65726f206164646044820152637265737360e01b606482015260840161072d565b6001600160a01b038216610d735760405162461bcd60e51b815260206004820152602260248201527f45524332303a20617070726f766520746f20746865207a65726f206164647265604482015261737360f01b606482015260840161072d565b6001600160a01b0383811660008181526066602090815260408083209487168084529482529182902085905590518481527f8c5be1e5ebec7d5bd14f71427d1e84f3dd0314c0f7b2291e5b200ac8c7c3b925910160405180910390a3505050565b6001600160a01b038316610e385760405162461bcd60e51b815260206004820152602560248201527f45524332303a207472616e736665722066726f6d20746865207a65726f206164604482015264647265737360d81b606482015260840161072d565b6001600160a01b038216610e9a5760405162461bcd60e51b815260206004820152602360248201527f45524332303a207472616e7366657220746f20746865207a65726f206164647260448201526265737360e81b606482015260840161072d565b610ea583838361149c565b6001600160a01b03831660009081526065602052604090205481811015610f1d5760405162461bcd60e51b815260206004820152602660248201527f45524332303a207472616e7366657220616d6f756e7420657863656564732062604482015265616c616e636560d01b606482015260840161072d565b6001600160a01b03808516600090815260656020526040808220858503905591851681529081208054849290610f549084906121e5565b92505081905550826001600160a01b0316846001600160a01b03167fddf252ad1be2c89b69c2b068fc378daa952ba7f163c4a11628f55a4df523b3ef84604051610fa091815260200190565b60405180910390a3610915565b600054610100900460ff16610fd45760405162461bcd60e51b815260040161072d9061219a565b610fdc6114a7565b610fe684846114fe565b610915828261154c565b600054610100900460ff166110175760405162461bcd60e51b815260040161072d9061219a565b61103d6000805160206122f883398151915260008051602061235883398151915261158d565b565b600080516020612358833981519152821480611059575081155b156108a2576110766000805160206122f883398151915282610b27565b156108a25760405162461bcd60e51b815260206004820152602260248201527f63616e206e6f742061737369676e20726f6c6520746f20626c61636b6c697374604482015261195960f21b606482015260840161072d565b600082815260fb60205260409020600101546110ea81336110f4565b610cab83836115d8565b6110fe8282610b27565b6108a257611116816001600160a01b0316601461165e565b61112183602061165e565b60405160200161113292919061205a565b60408051601f198184030181529082905262461bcd60e51b825261072d916004016120cf565b6000805160206122f88339815191528214156108a25760405162461bcd60e51b815260206004820152602160248201527f43616e206e6f742072656e6f756e636520626c61636b6c697374656420726f6c6044820152606560f81b606482015260840161072d565b6001600160a01b03811633146112305760405162461bcd60e51b815260206004820152602f60248201527f416363657373436f6e74726f6c3a2063616e206f6e6c792072656e6f756e636560448201526e103937b632b9903337b91039b2b63360891b606482015260840161072d565b6108a28282611435565b7f360894a13ba1a3210667c828492db98dca3e2076cc3735a920a3ca505d382bbc546001600160a01b031690565b61128060008051602061233883398151915233610b27565b8061129e575061129e60008051602061231883398151915233610b27565b6109f55760405162461bcd60e51b815260206004820152601d60248201527f4552524f523a2041646472657373206e6f7420617574686f72697a6564000000604482015260640161072d565b60006112f461123a565b90506112ff846117fa565b60008351118061130c5750815b1561131d5761131b848461189f565b505b7f4910fdfa16fed3260ed0e7147f7cc6da11a60208b5b9406d12a635614ffd9143805460ff1661142e57805460ff191660011781556040516001600160a01b038316602482015261139c90869060440160408051601f198184030181529190526020810180516001600160e01b0316631b2ce7f360e11b17905261189f565b50805460ff191681556113ad61123a565b6001600160a01b0316826001600160a01b0316146114255760405162461bcd60e51b815260206004820152602f60248201527f45524331393637557067726164653a207570677261646520627265616b73206660448201526e75727468657220757067726164657360881b606482015260840161072d565b61142e8561198a565b5050505050565b61143f8282610b27565b156108a257600082815260fb602090815260408083206001600160a01b0385168085529252808320805460ff1916905551339285917ff6391f5c32d9c69d2a47ea670b442974b53935d1edc7fd64eb21e047a839171b9190a45050565b610cab8383836119ca565b600054610100900460ff166114ce5760405162461bcd60e51b815260040161072d9061219a565b6114d6611a22565b6114de611a22565b6114e6611a22565b6114ee611a22565b6114f6611a22565b61103d611a49565b600054610100900460ff166115255760405162461bcd60e51b815260040161072d9061219a565b8151611538906068906020850190611c5d565b508051610cab906069906020840190611c5d565b600054610100900460ff166115735760405162461bcd60e51b815260040161072d9061219a565b610160805460ff191660ff84161790556108a23382611ad1565b600082815260fb6020526040808220600101805490849055905190918391839186917fbd79b86ffe0ab8e8776151514217cd7cacd52c909f66475c3af44e129f0b00ff9190a4505050565b6115e28282610b27565b6108a257600082815260fb602090815260408083206001600160a01b03851684529091529020805460ff1916600117905561161a3390565b6001600160a01b0316816001600160a01b0316837f2f8788117e7eff1d82e926ec794901d17c78024a50270940304540a733656f0d60405160405180910390a45050565b6060600061166d8360026121fd565b6116789060026121e5565b67ffffffffffffffff811115611690576116906122e1565b6040519080825280601f01601f1916602001820160405280156116ba576020820181803683370190505b509050600360fc1b816000815181106116d5576116d56122cb565b60200101906001600160f81b031916908160001a905350600f60fb1b81600181518110611704576117046122cb565b60200101906001600160f81b031916908160001a90535060006117288460026121fd565b6117339060016121e5565b90505b60018111156117ab576f181899199a1a9b1b9c1cb0b131b232b360811b85600f1660108110611767576117676122cb565b1a60f81b82828151811061177d5761177d6122cb565b60200101906001600160f81b031916908160001a90535060049490941c936117a481612248565b9050611736565b5083156107495760405162461bcd60e51b815260206004820181905260248201527f537472696e67733a20686578206c656e67746820696e73756666696369656e74604482015260640161072d565b803b61185e5760405162461bcd60e51b815260206004820152602d60248201527f455243313936373a206e657720696d706c656d656e746174696f6e206973206e60448201526c1bdd08184818dbdb9d1c9858dd609a1b606482015260840161072d565b7f360894a13ba1a3210667c828492db98dca3e2076cc3735a920a3ca505d382bbc80546001600160a01b0319166001600160a01b0392909216919091179055565b6060823b6118fe5760405162461bcd60e51b815260206004820152602660248201527f416464726573733a2064656c65676174652063616c6c20746f206e6f6e2d636f6044820152651b9d1c9858dd60d21b606482015260840161072d565b600080846001600160a01b031684604051611919919061203e565b600060405180830381855af49150503d8060008114611954576040519150601f19603f3d011682016040523d82523d6000602084013e611959565b606091505b5091509150611981828260405180606001604052806027815260200161237860279139611bbc565b95945050505050565b611993816117fa565b6040516001600160a01b038216907fbc7cd75a20ee27fd9adebab32041f755214dbc6bffa90cc0225b39da2e5c2d3b90600090a250565b6119d5338484611bf5565b15610cab5760405162461bcd60e51b815260206004820152601a60248201527f4552524f523a204164647265737320426c61636b6c6973746564000000000000604482015260640161072d565b600054610100900460ff1661103d5760405162461bcd60e51b815260040161072d9061219a565b600054610100900460ff16611a705760405162461bcd60e51b815260040161072d9061219a565b611a7b600033611c53565b611a9360008051602061233883398151915233611c53565b611aab60008051602061231883398151915233611c53565b61103d60008051602061231883398151915260008051602061233883398151915261158d565b6001600160a01b038216611b275760405162461bcd60e51b815260206004820152601f60248201527f45524332303a206d696e7420746f20746865207a65726f206164647265737300604482015260640161072d565b611b336000838361149c565b8060676000828254611b4591906121e5565b90915550506001600160a01b03821660009081526065602052604081208054839290611b729084906121e5565b90915550506040518181526001600160a01b038316906000907fddf252ad1be2c89b69c2b068fc378daa952ba7f163c4a11628f55a4df523b3ef9060200160405180910390a35050565b60608315611bcb575081610749565b825115611bdb5782518084602001fd5b8160405162461bcd60e51b815260040161072d91906120cf565b6000611c0f6000805160206122f883398151915284610b27565b80611c2d5750611c2d6000805160206122f883398151915285610b27565b80611c4b5750611c4b6000805160206122f883398151915283610b27565b949350505050565b6108a282826115d8565b828054611c699061225f565b90600052602060002090601f016020900481019282611c8b5760008555611cd1565b82601f10611ca457805160ff1916838001178555611cd1565b82800160010185558215611cd1579182015b82811115611cd1578251825591602001919060010190611cb6565b50611cdd929150611ce1565b5090565b5b80821115611cdd5760008155600101611ce2565b80356001600160a01b0381168114611d0d57600080fd5b919050565b60008083601f840112611d2457600080fd5b50813567ffffffffffffffff811115611d3c57600080fd5b602083019150836020828501011115611d5457600080fd5b9250929050565b600060208284031215611d6d57600080fd5b61074982611cf6565b60008060408385031215611d8957600080fd5b611d9283611cf6565b9150611da060208401611cf6565b90509250929050565b600080600060608486031215611dbe57600080fd5b611dc784611cf6565b9250611dd560208501611cf6565b9150604084013590509250925092565b60008060408385031215611df857600080fd5b611e0183611cf6565b9150602083013567ffffffffffffffff80821115611e1e57600080fd5b818501915085601f830112611e3257600080fd5b813581811115611e4457611e446122e1565b604051601f8201601f19908116603f01168101908382118183101715611e6c57611e6c6122e1565b81604052828152886020848701011115611e8557600080fd5b8260208601602083013760006020848301015280955050505050509250929050565b60008060408385031215611eba57600080fd5b611ec383611cf6565b946020939093013593505050565b60008060208385031215611ee457600080fd5b823567ffffffffffffffff80821115611efc57600080fd5b818501915085601f830112611f1057600080fd5b813581811115611f1f57600080fd5b8660208260051b8501011115611f3457600080fd5b60209290920196919550909350505050565b600060208284031215611f5857600080fd5b5035919050565b60008060408385031215611f7257600080fd5b82359150611da060208401611cf6565b600060208284031215611f9457600080fd5b81356001600160e01b03198116811461074957600080fd5b60008060008060008060808789031215611fc557600080fd5b863567ffffffffffffffff80821115611fdd57600080fd5b611fe98a838b01611d12565b9098509650602089013591508082111561200257600080fd5b5061200f89828a01611d12565b909550935050604087013560ff8116811461202957600080fd5b80925050606087013590509295509295509295565b6000825161205081846020870161221c565b9190910192915050565b7f416363657373436f6e74726f6c3a206163636f756e742000000000000000000081526000835161209281601785016020880161221c565b7001034b99036b4b9b9b4b733903937b6329607d1b60179184019182015283516120c381602884016020880161221c565b01602801949350505050565b60208152600082518060208401526120ee81604085016020870161221c565b601f01601f19169190910160400192915050565b6020808252602c908201527f46756e6374696f6e206d7573742062652063616c6c6564207468726f7567682060408201526b19195b1959d85d1958d85b1b60a21b606082015260800190565b6020808252602c908201527f46756e6374696f6e206d7573742062652063616c6c6564207468726f7567682060408201526b6163746976652070726f787960a01b606082015260800190565b6020808252602b908201527f496e697469616c697a61626c653a20636f6e7472616374206973206e6f74206960408201526a6e697469616c697a696e6760a81b606082015260800190565b600082198211156121f8576121f86122b5565b500190565b6000816000190483118215151615612217576122176122b5565b500290565b60005b8381101561223757818101518382015260200161221f565b838111156109155750506000910152565b600081612257576122576122b5565b506000190190565b600181811c9082168061227357607f821691505b6020821081141561229457634e487b7160e01b600052602260045260246000fd5b50919050565b60006000198214156122ae576122ae6122b5565b5060010190565b634e487b7160e01b600052601160045260246000fd5b634e487b7160e01b600052603260045260246000fd5b634e487b7160e01b600052604160045260246000fdfe548c7f0307ab2a7ea894e5c7e8c5353cc750bb9385ee2e945f189a9a83daa8eda76ace73a908083d89af9ff88e5b4f7cadb3591a80631063f68b695fda726db571840dc4906352362b0cdaf79870196c8e42acafade72d5d5a6d59291253ceb1f988e4fb62b8e14f4820fed03192306ddf4d7dbfa215595ba1c6ba4b76b369ee416464726573733a206c6f772d6c6576656c2064656c65676174652063616c6c206661696c6564a264697066735822122043d421ac0f29afb65bd7e221a2569b3c4aaa8b288ce3dbd5c7cfc41a8201daab64736f6c63430008060033",
  "linkReferences": {},
  "deployedLinkReferences": {}
}