{
  "_format": "hh-sol-artifact-1",
  "name": "BlacklistWhiteListTemplate",
  "initializer": "function initialize(string name_, string symbol_, uint8 decimals_, uint256 amount_)",
  "sourceName": "contracts/templates/BlacklistWhiteListTemplate.sol",
  "abi": [
    {
      "anonymous": false,
      "inputs": [
        {
          "indexed": false,
          "internalType": "address",
          "name": "previousAdmin",
          "type": "address"
        },
        {
          "indexed": false,
          "internalType": "address",
          "name": "newAdmin",
          "type": "address"
        }
      ],
      "name": "AdminChanged",
      "type": "event"
    },
    {
      "anonymous": false,
      "inputs": [
        {
          "indexed": true,
          "internalType": "address",
          "name": "owner",
          "type": "address"
        },
        {
          "indexed": true,
          "internalType": "address",
          "name": "spender",
          "type": "address"
        },
        {
          "indexed": false,
          "internalType": "uint256",
          "name": "value",
          "type": "uint256"
        }
      ],
      "name": "Approval",
      "type": "event"
    },
    {
      "anonymous": false,
      "inputs": [
        {
          "indexed": true,
          "internalType": "address",
          "name": "beacon",
          "type": "address"
        }
      ],
      "name": "BeaconUpgraded",
      "type": "event"
    },
    {
      "anonymous": false,
      "inputs": [
        {
          "indexed": false,
          "internalType": "address",
          "name": "account",
          "type": "address"
        }
      ],
      "name": "Paused",
      "type": "event"
    },
    {
      "anonymous": false,
      "inputs": [
        {
          "indexed": true,
          "internalType": "bytes32",
          "name": "role",
          "type": "bytes32"
        },
        {
          "indexed": true,
          "internalType": "bytes32",
          "name": "previousAdminRole",
          "type": "bytes32"
        },
        {
          "indexed": true,
          "internalType": "bytes32",
          "name": "newAdminRole",
          "type": "bytes32"
        }
      ],
      "name": "RoleAdminChanged",
      "type": "event"
    },
    {
      "anonymous": false,
      "inputs": [
        {
          "indexed": true,
          "internalType": "bytes32",
          "name": "role",
          "type": "bytes32"
        },
        {
          "indexed": true,
          "internalType": "address",
          "name": "account",
          "type": "address"
        },
        {
          "indexed": true,
          "internalType": "address",
          "name": "sender",
          "type": "address"
        }
      ],
      "name": "RoleGranted",
      "type": "event"
    },
    {
      "anonymous": false,
      "inputs": [
        {
          "indexed": true,
          "internalType": "bytes32",
          "name": "role",
          "type": "bytes32"
        },
        {
          "indexed": true,
          "internalType": "address",
          "name": "account",
          "type": "address"
        },
        {
          "indexed": true,
          "internalType": "address",
          "name": "sender",
          "type": "address"
        }
      ],
      "name": "RoleRevoked",
      "type": "event"
    },
    {
      "anonymous": false,
      "inputs": [
        {
          "indexed": true,
          "internalType": "address",
          "name": "from",
          "type": "address"
        },
        {
          "indexed": true,
          "internalType": "address",
          "name": "to",
          "type": "address"
        },
        {
          "indexed": false,
          "internalType": "uint256",
          "name": "value",
          "type": "uint256"
        }
      ],
      "name": "Transfer",
      "type": "event"
    },
    {
      "anonymous": false,
      "inputs": [
        {
          "indexed": false,
          "internalType": "address",
          "name": "account",
          "type": "address"
        }
      ],
      "name": "Unpaused",
      "type": "event"
    },
    {
      "anonymous": false,
      "inputs": [
        {
          "indexed": true,
          "internalType": "address",
          "name": "implementation",
          "type": "address"
        }
      ],
      "name": "Upgraded",
      "type": "event"
    },
    {
      "inputs": [],
      "name": "BLACKLISTED_ROLE",
      "outputs": [
        {
          "internalType": "bytes32",
          "name": "",
          "type": "bytes32"
        }
      ],
      "stateMutability": "view",
      "type": "function"
    },
    {
      "inputs": [],
      "name": "BLACKLIST_MANAGER_ROLE",
      "outputs": [
        {
          "internalType": "bytes32",
          "name": "",
          "type": "bytes32"
        }
      ],
      "stateMutability": "view",
      "type": "function"
    },
    {
      "inputs": [],
      "name": "DEFAULT_ADMIN_ROLE",
      "outputs": [
        {
          "internalType": "bytes32",
          "name": "",
          "type": "bytes32"
        }
      ],
      "stateMutability": "view",
      "type": "function"
    },
    {
      "inputs": [],
      "name": "GOVERNANCE_ROLE",
      "outputs": [
        {
          "internalType": "bytes32",
          "name": "",
          "type": "bytes32"
        }
      ],
      "stateMutability": "view",
      "type": "function"
    },
    {
      "inputs": [],
      "name": "PAUSE_MANAGER_ROLE",
      "outputs": [
        {
          "internalType": "bytes32",
          "name": "",
          "type": "bytes32"
        }
      ],
      "stateMutability": "view",
      "type": "function"
    },
    {
      "inputs": [],
      "name": "UPGRADE_MANAGER_ROLE",
      "outputs": [
        {
          "internalType": "bytes32",
          "name": "",
          "type": "bytes32"
        }
      ],
      "stateMutability": "view",
      "type": "function"
    },
    {
      "inputs": [],
      "name": "WHITELISTED_FROM_ROLE",
      "outputs": [
        {
          "internalType": "bytes32",
          "name": "",
          "type": "bytes32"
        }
      ],
      "stateMutability": "view",
      "type": "function"
    },
    {
      "inputs": [],
      "name": "WHITELISTED_SENDER_ROLE",
      "outputs": [
        {
          "internalType": "bytes32",
          "name": "",
          "type": "bytes32"
        }
      ],
      "stateMutability": "view",
      "type": "function"
    },
    {
      "inputs": [
        {
          "internalType": "address[]",
          "name": "addresses",
          "type": "address[]"
        }
      ],
      "name": "addAddressesToBlacklist",
      "outputs": [],
      "stateMutability": "nonpayable",
      "type": "function"
    },
    {
      "inputs": [
        {
          "internalType": "address[]",
          "name": "addresses",
          "type": "address[]"
        }
      ],
      "name": "addAddressesToWhitelistFrom",
      "outputs": [],
      "stateMutability": "nonpayable",
      "type": "function"
    },
    {
      "inputs": [
        {
          "internalType": "address[]",
          "name": "addresses",
          "type": "address[]"
        }
      ],
      "name": "addAddressesToWhitelistSender",
      "outputs": [],
      "stateMutability": "nonpayable",
      "type": "function"
    },
    {
      "inputs": [
        {
          "internalType": "address",
          "name": "owner",
          "type": "address"
        },
        {
          "internalType": "address",
          "name": "spender",
          "type": "address"
        }
      ],
      "name": "allowance",
      "outputs": [
        {
          "internalType": "uint256",
          "name": "",
          "type": "uint256"
        }
      ],
      "stateMutability": "view",
      "type": "function"
    },
    {
      "inputs": [
        {
          "internalType": "address",
          "name": "spender",
          "type": "address"
        },
        {
          "internalType": "uint256",
          "name": "amount",
          "type": "uint256"
        }
      ],
      "name": "approve",
      "outputs": [
        {
          "internalType": "bool",
          "name": "",
          "type": "bool"
        }
      ],
      "stateMutability": "nonpayable",
      "type": "function"
    },
    {
      "inputs": [
        {
          "internalType": "address",
          "name": "account",
          "type": "address"
        }
      ],
      "name": "balanceOf",
      "outputs": [
        {
          "internalType": "uint256",
          "name": "",
          "type": "uint256"
        }
      ],
      "stateMutability": "view",
      "type": "function"
    },
    {
      "inputs": [],
      "name": "decimals",
      "outputs": [
        {
          "internalType": "uint8",
          "name": "",
          "type": "uint8"
        }
      ],
      "stateMutability": "view",
      "type": "function"
    },
    {
      "inputs": [
        {
          "internalType": "address",
          "name": "spender",
          "type": "address"
        },
        {
          "internalType": "uint256",
          "name": "subtractedValue",
          "type": "uint256"
        }
      ],
      "name": "decreaseAllowance",
      "outputs": [
        {
          "internalType": "bool",
          "name": "",
          "type": "bool"
        }
      ],
      "stateMutability": "nonpayable",
      "type": "function"
    },
    {
      "inputs": [],
      "name": "getImplementation",
      "outputs": [
        {
          "internalType": "address",
          "name": "",
          "type": "address"
        }
      ],
      "stateMutability": "view",
      "type": "function"
    },
    {
      "inputs": [
        {
          "internalType": "bytes32",
          "name": "role",
          "type": "bytes32"
        }
      ],
      "name": "getRoleAdmin",
      "outputs": [
        {
          "internalType": "bytes32",
          "name": "",
          "type": "bytes32"
        }
      ],
      "stateMutability": "view",
      "type": "function"
    },
    {
      "inputs": [
        {
          "internalType": "bytes32",
          "name": "role",
          "type": "bytes32"
        },
        {
          "internalType": "address",
          "name": "account",
          "type": "address"
        }
      ],
      "name": "grantRole",
      "outputs": [],
      "stateMutability": "nonpayable",
      "type": "function"
    },
    {
      "inputs": [
        {
          "internalType": "bytes32",
          "name": "role",
          "type": "bytes32"
        },
        {
          "internalType": "address",
          "name": "account",
          "type": "address"
        }
      ],
      "name": "hasRole",
      "outputs": [
        {
          "internalType": "bool",
          "name": "",
          "type": "bool"
        }
      ],
      "stateMutability": "view",
      "type": "function"
    },
    {
      "inputs": [
        {
          "internalType": "address",
          "name": "spender",
          "type": "address"
        },
        {
          "internalType": "uint256",
          "name": "addedValue",
          "type": "uint256"
        }
      ],
      "name": "increaseAllowance",
      "outputs": [
        {
          "internalType": "bool",
          "name": "",
          "type": "bool"
        }
      ],
      "stateMutability": "nonpayable",
      "type": "function"
    },
    {
      "inputs": [
        {
          "internalType": "string",
          "name": "name_",
          "type": "string"
        },
        {
          "internalType": "string",
          "name": "symbol_",
          "type": "string"
        },
        {
          "internalType": "uint8",
          "name": "decimals_",
          "type": "uint8"
        },
        {
          "internalType": "uint256",
          "name": "amount_",
          "type": "uint256"
        }
      ],
      "name": "initialize",
      "outputs": [],
      "stateMutability": "nonpayable",
      "type": "function"
    },
    {
      "inputs": [],
      "name": "name",
      "outputs": [
        {
          "internalType": "string",
          "name": "",
          "type": "string"
        }
      ],
      "stateMutability": "view",
      "type": "function"
    },
    {
      "inputs": [],
      "name": "pause",
      "outputs": [],
      "stateMutability": "nonpayable",
      "type": "function"
    },
    {
      "inputs": [],
      "name": "paused",
      "outputs": [
        {
          "internalType": "bool",
          "name": "",
          "type": "bool"
        }
      ],
      "stateMutability": "view",
      "type": "function"
    },
    {
      "inputs": [
        {
          "internalType": "address",
          "name": "implementationAddress",
          "type": "address"
        }
      ],
      "name": "proposeNewImplementation",
      "outputs": [],
      "stateMutability": "nonpayable",
      "type": "function"
    },
    {
      "inputs": [
        {
          "internalType": "address[]",
          "name": "addresses",
          "type": "address[]"
        }
      ],
      "name": "removeAddressesFromBlacklist",
      "outputs": [],
      "stateMutability": "nonpayable",
      "type": "function"
    },
    {
      "inputs": [
        {
          "internalType": "address[]",
          "name": "addresses",
          "type": "address[]"
        }
      ],
      "name": "removeAddressesFromWhitelistFrom",
      "outputs": [],
      "stateMutability": "nonpayable",
      "type": "function"
    },
    {
      "inputs": [
        {
          "internalType": "address[]",
          "name": "addresses",
          "type": "address[]"
        }
      ],
      "name": "removeAddressesFromWhitelistSender",
      "outputs": [],
      "stateMutability": "nonpayable",
      "type": "function"
    },
    {
      "inputs": [
        {
          "internalType": "bytes32",
          "name": "role",
          "type": "bytes32"
        },
        {
          "internalType": "address",
          "name": "account",
          "type": "address"
        }
      ],
      "name": "renounceRole",
      "outputs": [],
      "stateMutability": "nonpayable",
      "type": "function"
    },
    {
      "inputs": [
        {
          "internalType": "bytes32",
          "name": "role",
          "type": "bytes32"
        },
        {
          "internalType": "address",
          "name": "account",
          "type": "address"
        }
      ],
      "name": "revokeRole",
      "outputs": [],
      "stateMutability": "nonpayable",
      "type": "function"
    },
    {
      "inputs": [
        {
          "internalType": "bytes4",
          "name": "interfaceId",
          "type": "bytes4"
        }
      ],
      "name": "supportsInterface",
      "outputs": [
        {
          "internalType": "bool",
          "name": "",
          "type": "bool"
        }
      ],
      "stateMutability": "view",
      "type": "function"
    },
    {
      "inputs": [],
      "name": "symbol",
      "outputs": [
        {
          "internalType": "string",
          "name": "",
          "type": "string"
        }
      ],
      "stateMutability": "view",
      "type": "function"
    },
    {
      "inputs": [],
      "name": "totalSupply",
      "outputs": [
        {
          "internalType": "uint256",
          "name": "",
          "type": "uint256"
        }
      ],
      "stateMutability": "view",
      "type": "function"
    },
    {
      "inputs": [
        {
          "internalType": "address",
          "name": "recipient",
          "type": "address"
        },
        {
          "internalType": "uint256",
          "name": "amount",
          "type": "uint256"
        }
      ],
      "name": "transfer",
      "outputs": [
        {
          "internalType": "bool",
          "name": "",
          "type": "bool"
        }
      ],
      "stateMutability": "nonpayable",
      "type": "function"
    },
    {
      "inputs": [
        {
          "internalType": "address",
          "name": "sender",
          "type": "address"
        },
        {
          "internalType": "address",
          "name": "recipient",
          "type": "address"
        },
        {
          "internalType": "uint256",
          "name": "amount",
          "type": "uint256"
        }
      ],
      "name": "transferFrom",
      "outputs": [
        {
          "internalType": "bool",
          "name": "",
          "type": "bool"
        }
      ],
      "stateMutability": "nonpayable",
      "type": "function"
    },
    {
      "inputs": [],
      "name": "unpause",
      "outputs": [],
      "stateMutability": "nonpayable",
      "type": "function"
    },
    {
      "inputs": [
        {
          "internalType": "address",
          "name": "newImplementation",
          "type": "address"
        }
      ],
      "name": "upgradeTo",
      "outputs": [],
      "stateMutability": "nonpayable",
      "type": "function"
    },
    {
      "inputs": [
        {
          "internalType": "address",
          "name": "newImplementation",
          "type": "address"
        },
        {
          "internalType": "bytes",
          "name": "data",
          "type": "bytes"
        }
      ],
      "name": "upgradeToAndCall",
      "outputs": [],
      "stateMutability": "payable",
      "type": "function"
    }
  ],
  "bytecode": "0x60a06040523060601b60805234801561001757600080fd5b5060805160601c612a2e61004b60003960008181610ae501528181610b2501528181610c480152610c880152612a2e6000f3fe6080604052600436106102305760003560e01c806362b199c51161012e578063a9059cbb116100ab578063d547741f1161006f578063d547741f14610699578063d84f91e8146106b9578063dd62ed3e146106db578063f36c8f5c14610721578063f834c5021461074357600080fd5b8063a9059cbb146105ea578063aa74a34a1461060a578063aaf10f421461062c578063c233f3b714610659578063ca73419e1461067957600080fd5b80638456cb59116100f25780638456cb591461056b57806391d148541461058057806395d89b41146105a0578063a217fddf146105b5578063a457c2d7146105ca57600080fd5b806362b199c5146104b1578063685ed81a146104d35780636e79a1c0146104f357806370a0823114610513578063731ce8fc1461054957600080fd5b806332258794116101bc578063410b242411610180578063410b24241461041557806343ffa64e1461043757806347757fb6146104595780634f1ef286146104795780635c975abb1461048c57600080fd5b8063322587941461038057806336568abe146103a05780633659cfe6146103c057806339509351146103e05780633f4ba83a1461040057600080fd5b806323b872dd1161020357806323b872dd146102cb578063248a9ca3146102eb578063253279ad1461031b5780632f2ff15d1461033d578063313ce5671461035d57600080fd5b806301ffc9a71461023557806306fdde031461026a578063095ea7b31461028c57806318160ddd146102ac575b600080fd5b34801561024157600080fd5b5061025561025036600461255c565b610763565b60405190151581526020015b60405180910390f35b34801561027657600080fd5b5061027f61079a565b60405161026191906126a9565b34801561029857600080fd5b506102556102a7366004612481565b61082c565b3480156102b857600080fd5b506067545b604051908152602001610261565b3480156102d757600080fd5b506102556102e6366004612383565b610842565b3480156102f757600080fd5b506102bd610306366004612520565b600090815260fb602052604090206001015490565b34801561032757600080fd5b5061033b610336366004612586565b6108f3565b005b34801561034957600080fd5b5061033b610358366004612539565b610a39565b34801561036957600080fd5b506101605460405160ff9091168152602001610261565b34801561038c57600080fd5b5061033b61039b3660046124ab565b610a51565b3480156103ac57600080fd5b5061033b6103bb366004612539565b610ac6565b3480156103cc57600080fd5b5061033b6103db366004612335565b610ada565b3480156103ec57600080fd5b506102556103fb366004612481565b610ba3565b34801561040c57600080fd5b5061033b610bdf565b34801561042157600080fd5b506102bd60008051602061295283398151915281565b34801561044357600080fd5b506102bd60008051602061291283398151915281565b34801561046557600080fd5b5061033b610474366004612335565b610c00565b61033b6104873660046123bf565b610c3d565b34801561049857600080fd5b506000805160206129b98339815191525460ff16610255565b3480156104bd57600080fd5b506102bd6000805160206128f283398151915281565b3480156104df57600080fd5b5061033b6104ee3660046124ab565b610cf3565b3480156104ff57600080fd5b5061033b61050e3660046124ab565b610d62565b34801561051f57600080fd5b506102bd61052e366004612335565b6001600160a01b031660009081526065602052604090205490565b34801561055557600080fd5b506102bd6000805160206129d983398151915281565b34801561057757600080fd5b5061033b610dbc565b34801561058c57600080fd5b5061025561059b366004612539565b610ddd565b3480156105ac57600080fd5b5061027f610e08565b3480156105c157600080fd5b506102bd600081565b3480156105d657600080fd5b506102556105e5366004612481565b610e17565b3480156105f657600080fd5b50610255610605366004612481565b610eb0565b34801561061657600080fd5b506102bd6000805160206128d283398151915281565b34801561063857600080fd5b50610641610ebd565b6040516001600160a01b039091168152602001610261565b34801561066557600080fd5b5061033b6106743660046124ab565b610ecc565b34801561068557600080fd5b5061033b6106943660046124ab565b610f26565b3480156106a557600080fd5b5061033b6106b4366004612539565b610f80565b3480156106c557600080fd5b506102bd60008051602061299983398151915281565b3480156106e757600080fd5b506102bd6106f6366004612350565b6001600160a01b03918216600090815260666020908152604080832093909416825291909152205490565b34801561072d57600080fd5b506102bd60008051602061293283398151915281565b34801561074f57600080fd5b5061033b61075e3660046124ab565b610fab565b60006001600160e01b03198216637965db0b60e01b148061079457506301ffc9a760e01b6001600160e01b03198316145b92915050565b6060606880546107a990612839565b80601f01602080910402602001604051908101604052809291908181526020018280546107d590612839565b80156108225780601f106107f757610100808354040283529160200191610822565b820191906000526020600020905b81548152906001019060200180831161080557829003601f168201915b5050505050905090565b6000610839338484611005565b50600192915050565b600061084f848484611129565b6001600160a01b0384166000908152606660209081526040808320338452909152902054828110156108d95760405162461bcd60e51b815260206004820152602860248201527f45524332303a207472616e7366657220616d6f756e74206578636565647320616044820152676c6c6f77616e636560c01b60648201526084015b60405180910390fd5b6108e68533858403611005565b60019150505b9392505050565b600054610100900460ff1661090e5760005460ff1615610912565b303b155b6109755760405162461bcd60e51b815260206004820152602e60248201527f496e697469616c697a61626c653a20636f6e747261637420697320616c72656160448201526d191e481a5b9a5d1a585b1a5e995960921b60648201526084016108d0565b600054610100900460ff16158015610997576000805461ffff19166101011790555b610a0e87878080601f01602080910402602001604051908101604052809392919081815260200183838082843760009201919091525050604080516020601f8b0181900481028201810190925289815292508991508890819084018382808284376000920191909152508892508791506113029050565b610a16611345565b610a1e611394565b8015610a30576000805461ff00191690555b50505050505050565b610a438282611407565b610a4d8282611496565b5050565b600080516020612952833981519152610a6a81336114bc565b60005b82811015610ac057610aae6000805160206128f2833981519152858584818110610a9957610a996128a5565b90506020020160208101906106b49190612335565b80610ab881612874565b915050610a6d565b50505050565b610ad08282611520565b610a4d8282611588565b306001600160a01b037f0000000000000000000000000000000000000000000000000000000000000000161415610b235760405162461bcd60e51b81526004016108d0906126dc565b7f00000000000000000000000000000000000000000000000000000000000000006001600160a01b0316610b55611602565b6001600160a01b031614610b7b5760405162461bcd60e51b81526004016108d090612728565b610b8481611630565b60408051600080825260208201909252610ba0918391906116b2565b50565b3360008181526066602090815260408083206001600160a01b03871684529091528120549091610839918590610bda9086906127bf565b611005565b600080516020612999833981519152610bf881336114bc565b610ba06117fd565b600080516020612932833981519152610c1981336114bc565b5061012d80546001600160a01b0319166001600160a01b0392909216919091179055565b306001600160a01b037f0000000000000000000000000000000000000000000000000000000000000000161415610c865760405162461bcd60e51b81526004016108d0906126dc565b7f00000000000000000000000000000000000000000000000000000000000000006001600160a01b0316610cb8611602565b6001600160a01b031614610cde5760405162461bcd60e51b81526004016108d090612728565b610ce782611630565b610a4d828260016116b2565b600080516020612999833981519152610d0c81336114bc565b60005b82811015610ac057610d506000805160206128d2833981519152858584818110610d3b57610d3b6128a5565b90506020020160208101906103589190612335565b80610d5a81612874565b915050610d0f565b600080516020612999833981519152610d7b81336114bc565b60005b82811015610ac057610daa6000805160206129d9833981519152858584818110610a9957610a996128a5565b80610db481612874565b915050610d7e565b600080516020612999833981519152610dd581336114bc565b610ba06118aa565b600091825260fb602090815260408084206001600160a01b0393909316845291905290205460ff1690565b6060606980546107a990612839565b3360009081526066602090815260408083206001600160a01b038616845290915281205482811015610e995760405162461bcd60e51b815260206004820152602560248201527f45524332303a2064656372656173656420616c6c6f77616e63652062656c6f77604482015264207a65726f60d81b60648201526084016108d0565b610ea63385858403611005565b5060019392505050565b6000610839338484611129565b6000610ec7611602565b905090565b600080516020612999833981519152610ee581336114bc565b60005b82811015610ac057610f146000805160206128d2833981519152858584818110610a9957610a996128a5565b80610f1e81612874565b915050610ee8565b600080516020612952833981519152610f3f81336114bc565b60005b82811015610ac057610f6e6000805160206128f2833981519152858584818110610d3b57610d3b6128a5565b80610f7881612874565b915050610f42565b600082815260fb6020526040902060010154610f9c81336114bc565b610fa6838361193e565b505050565b600080516020612999833981519152610fc481336114bc565b60005b82811015610ac057610ff36000805160206129d9833981519152858584818110610d3b57610d3b6128a5565b80610ffd81612874565b915050610fc7565b6001600160a01b0383166110675760405162461bcd60e51b8152602060048201526024808201527f45524332303a20617070726f76652066726f6d20746865207a65726f206164646044820152637265737360e01b60648201526084016108d0565b6001600160a01b0382166110c85760405162461bcd60e51b815260206004820152602260248201527f45524332303a20617070726f766520746f20746865207a65726f206164647265604482015261737360f01b60648201526084016108d0565b6001600160a01b0383811660008181526066602090815260408083209487168084529482529182902085905590518481527f8c5be1e5ebec7d5bd14f71427d1e84f3dd0314c0f7b2291e5b200ac8c7c3b925910160405180910390a3505050565b6001600160a01b03831661118d5760405162461bcd60e51b815260206004820152602560248201527f45524332303a207472616e736665722066726f6d20746865207a65726f206164604482015264647265737360d81b60648201526084016108d0565b6001600160a01b0382166111ef5760405162461bcd60e51b815260206004820152602360248201527f45524332303a207472616e7366657220746f20746865207a65726f206164647260448201526265737360e81b60648201526084016108d0565b6111fa8383836119a5565b6001600160a01b038316600090815260656020526040902054818110156112725760405162461bcd60e51b815260206004820152602660248201527f45524332303a207472616e7366657220616d6f756e7420657863656564732062604482015265616c616e636560d01b60648201526084016108d0565b6001600160a01b038085166000908152606560205260408082208585039055918516815290812080548492906112a99084906127bf565b92505081905550826001600160a01b0316846001600160a01b03167fddf252ad1be2c89b69c2b068fc378daa952ba7f163c4a11628f55a4df523b3ef846040516112f591815260200190565b60405180910390a3610ac0565b600054610100900460ff166113295760405162461bcd60e51b81526004016108d090612774565b6113316119b0565b61133b8484611a07565b610ac08282611a55565b600054610100900460ff1661136c5760405162461bcd60e51b81526004016108d090612774565b6113926000805160206128f2833981519152600080516020612952833981519152611a96565b565b600054610100900460ff166113bb5760405162461bcd60e51b81526004016108d090612774565b6113e16000805160206129d9833981519152600080516020612999833981519152611a96565b6113926000805160206128d2833981519152600080516020612999833981519152611a96565b600080516020612952833981519152821480611421575081155b15610a4d5761143e6000805160206128f283398151915282610ddd565b15610a4d5760405162461bcd60e51b815260206004820152602260248201527f63616e206e6f742061737369676e20726f6c6520746f20626c61636b6c697374604482015261195960f21b60648201526084016108d0565b600082815260fb60205260409020600101546114b281336114bc565b610fa68383611ae1565b6114c68282610ddd565b610a4d576114de816001600160a01b03166014611b67565b6114e9836020611b67565b6040516020016114fa929190612634565b60408051601f198184030181529082905262461bcd60e51b82526108d0916004016126a9565b6000805160206128f2833981519152821415610a4d5760405162461bcd60e51b815260206004820152602160248201527f43616e206e6f742072656e6f756e636520626c61636b6c697374656420726f6c6044820152606560f81b60648201526084016108d0565b6001600160a01b03811633146115f85760405162461bcd60e51b815260206004820152602f60248201527f416363657373436f6e74726f6c3a2063616e206f6e6c792072656e6f756e636560448201526e103937b632b9903337b91039b2b63360891b60648201526084016108d0565b610a4d828261193e565b7f360894a13ba1a3210667c828492db98dca3e2076cc3735a920a3ca505d382bbc546001600160a01b031690565b61164860008051602061293283398151915233610ddd565b80611666575061166660008051602061291283398151915233610ddd565b610ba05760405162461bcd60e51b815260206004820152601d60248201527f4552524f523a2041646472657373206e6f7420617574686f72697a656400000060448201526064016108d0565b60006116bc611602565b90506116c784611d03565b6000835111806116d45750815b156116e5576116e38484611da8565b505b7f4910fdfa16fed3260ed0e7147f7cc6da11a60208b5b9406d12a635614ffd9143805460ff166117f657805460ff191660011781556040516001600160a01b038316602482015261176490869060440160408051601f198184030181529190526020810180516001600160e01b0316631b2ce7f360e11b179052611da8565b50805460ff19168155611775611602565b6001600160a01b0316826001600160a01b0316146117ed5760405162461bcd60e51b815260206004820152602f60248201527f45524331393637557067726164653a207570677261646520627265616b73206660448201526e75727468657220757067726164657360881b60648201526084016108d0565b6117f685611e93565b5050505050565b6000805160206129b98339815191525460ff166118535760405162461bcd60e51b815260206004820152601460248201527314185d5cd8589b194e881b9bdd081c185d5cd95960621b60448201526064016108d0565b6000805160206129b9833981519152805460ff191690557f5db9ee0a495bf2e6ff9c91a7834c1ba4fdd244a5e8aa4e537bd38aeae4b073aa335b6040516001600160a01b03909116815260200160405180910390a1565b6000805160206129b98339815191525460ff16156118fd5760405162461bcd60e51b815260206004820152601060248201526f14185d5cd8589b194e881c185d5cd95960821b60448201526064016108d0565b6000805160206129b9833981519152805460ff191660011790557f62e78cea01bee320cd4e420270b5ea74000d11b0c9f74754ebdbfc544b05a2583361188d565b6119488282610ddd565b15610a4d57600082815260fb602090815260408083206001600160a01b0385168085529252808320805460ff1916905551339285917ff6391f5c32d9c69d2a47ea670b442974b53935d1edc7fd64eb21e047a839171b9190a45050565b610fa6838383611ed3565b600054610100900460ff166119d75760405162461bcd60e51b81526004016108d090612774565b6119df611ee9565b6119e7611ee9565b6119ef611ee9565b6119f7611ee9565b6119ff611ee9565b611392611f10565b600054610100900460ff16611a2e5760405162461bcd60e51b81526004016108d090612774565b8151611a41906068906020850190612237565b508051610fa6906069906020840190612237565b600054610100900460ff16611a7c5760405162461bcd60e51b81526004016108d090612774565b610160805460ff191660ff8416179055610a4d3382611f98565b600082815260fb6020526040808220600101805490849055905190918391839186917fbd79b86ffe0ab8e8776151514217cd7cacd52c909f66475c3af44e129f0b00ff9190a4505050565b611aeb8282610ddd565b610a4d57600082815260fb602090815260408083206001600160a01b03851684529091529020805460ff19166001179055611b233390565b6001600160a01b0316816001600160a01b0316837f2f8788117e7eff1d82e926ec794901d17c78024a50270940304540a733656f0d60405160405180910390a45050565b60606000611b768360026127d7565b611b819060026127bf565b67ffffffffffffffff811115611b9957611b996128bb565b6040519080825280601f01601f191660200182016040528015611bc3576020820181803683370190505b509050600360fc1b81600081518110611bde57611bde6128a5565b60200101906001600160f81b031916908160001a905350600f60fb1b81600181518110611c0d57611c0d6128a5565b60200101906001600160f81b031916908160001a9053506000611c318460026127d7565b611c3c9060016127bf565b90505b6001811115611cb4576f181899199a1a9b1b9c1cb0b131b232b360811b85600f1660108110611c7057611c706128a5565b1a60f81b828281518110611c8657611c866128a5565b60200101906001600160f81b031916908160001a90535060049490941c93611cad81612822565b9050611c3f565b5083156108ec5760405162461bcd60e51b815260206004820181905260248201527f537472696e67733a20686578206c656e67746820696e73756666696369656e7460448201526064016108d0565b803b611d675760405162461bcd60e51b815260206004820152602d60248201527f455243313936373a206e657720696d706c656d656e746174696f6e206973206e60448201526c1bdd08184818dbdb9d1c9858dd609a1b60648201526084016108d0565b7f360894a13ba1a3210667c828492db98dca3e2076cc3735a920a3ca505d382bbc80546001600160a01b0319166001600160a01b0392909216919091179055565b6060823b611e075760405162461bcd60e51b815260206004820152602660248201527f416464726573733a2064656c65676174652063616c6c20746f206e6f6e2d636f6044820152651b9d1c9858dd60d21b60648201526084016108d0565b600080846001600160a01b031684604051611e229190612618565b600060405180830381855af49150503d8060008114611e5d576040519150601f19603f3d011682016040523d82523d6000602084013e611e62565b606091505b5091509150611e8a828260405180606001604052806027815260200161297260279139612083565b95945050505050565b611e9c81611d03565b6040516001600160a01b038216907fbc7cd75a20ee27fd9adebab32041f755214dbc6bffa90cc0225b39da2e5c2d3b90600090a250565b611ede8383836120bc565b610fa6838383612114565b600054610100900460ff166113925760405162461bcd60e51b81526004016108d090612774565b600054610100900460ff16611f375760405162461bcd60e51b81526004016108d090612774565b611f42600033612197565b611f5a60008051602061293283398151915233612197565b611f7260008051602061291283398151915233612197565b611392600080516020612912833981519152600080516020612932833981519152611a96565b6001600160a01b038216611fee5760405162461bcd60e51b815260206004820152601f60248201527f45524332303a206d696e7420746f20746865207a65726f20616464726573730060448201526064016108d0565b611ffa600083836119a5565b806067600082825461200c91906127bf565b90915550506001600160a01b038216600090815260656020526040812080548392906120399084906127bf565b90915550506040518181526001600160a01b038316906000907fddf252ad1be2c89b69c2b068fc378daa952ba7f163c4a11628f55a4df523b3ef9060200160405180910390a35050565b606083156120925750816108ec565b8251156120a25782518084602001fd5b8160405162461bcd60e51b81526004016108d091906126a9565b6120c73384846121a1565b15610fa65760405162461bcd60e51b815260206004820152601a60248201527f4552524f523a204164647265737320426c61636b6c697374656400000000000060448201526064016108d0565b6000805160206129b98339815191525460ff161580612138575061213883336121ff565b610fa65760405162461bcd60e51b815260206004820152602a60248201527f45524332305061757361626c653a20746f6b656e207472616e736665722077686044820152691a5b19481c185d5cd95960b21b60648201526084016108d0565b610a4d8282611ae1565b60006121bb6000805160206128f283398151915284610ddd565b806121d957506121d96000805160206128f283398151915285610ddd565b806121f757506121f76000805160206128f283398151915283610ddd565b949350505050565b60006122196000805160206129d983398151915284610ddd565b806108ec57506108ec6000805160206128d283398151915283610ddd565b82805461224390612839565b90600052602060002090601f01602090048101928261226557600085556122ab565b82601f1061227e57805160ff19168380011785556122ab565b828001600101855582156122ab579182015b828111156122ab578251825591602001919060010190612290565b506122b79291506122bb565b5090565b5b808211156122b757600081556001016122bc565b80356001600160a01b03811681146122e757600080fd5b919050565b60008083601f8401126122fe57600080fd5b50813567ffffffffffffffff81111561231657600080fd5b60208301915083602082850101111561232e57600080fd5b9250929050565b60006020828403121561234757600080fd5b6108ec826122d0565b6000806040838503121561236357600080fd5b61236c836122d0565b915061237a602084016122d0565b90509250929050565b60008060006060848603121561239857600080fd5b6123a1846122d0565b92506123af602085016122d0565b9150604084013590509250925092565b600080604083850312156123d257600080fd5b6123db836122d0565b9150602083013567ffffffffffffffff808211156123f857600080fd5b818501915085601f83011261240c57600080fd5b81358181111561241e5761241e6128bb565b604051601f8201601f19908116603f01168101908382118183101715612446576124466128bb565b8160405282815288602084870101111561245f57600080fd5b8260208601602083013760006020848301015280955050505050509250929050565b6000806040838503121561249457600080fd5b61249d836122d0565b946020939093013593505050565b600080602083850312156124be57600080fd5b823567ffffffffffffffff808211156124d657600080fd5b818501915085601f8301126124ea57600080fd5b8135818111156124f957600080fd5b8660208260051b850101111561250e57600080fd5b60209290920196919550909350505050565b60006020828403121561253257600080fd5b5035919050565b6000806040838503121561254c57600080fd5b8235915061237a602084016122d0565b60006020828403121561256e57600080fd5b81356001600160e01b0319811681146108ec57600080fd5b6000806000806000806080878903121561259f57600080fd5b863567ffffffffffffffff808211156125b757600080fd5b6125c38a838b016122ec565b909850965060208901359150808211156125dc57600080fd5b506125e989828a016122ec565b909550935050604087013560ff8116811461260357600080fd5b80925050606087013590509295509295509295565b6000825161262a8184602087016127f6565b9190910192915050565b7f416363657373436f6e74726f6c3a206163636f756e742000000000000000000081526000835161266c8160178501602088016127f6565b7001034b99036b4b9b9b4b733903937b6329607d1b601791840191820152835161269d8160288401602088016127f6565b01602801949350505050565b60208152600082518060208401526126c88160408501602087016127f6565b601f01601f19169190910160400192915050565b6020808252602c908201527f46756e6374696f6e206d7573742062652063616c6c6564207468726f7567682060408201526b19195b1959d85d1958d85b1b60a21b606082015260800190565b6020808252602c908201527f46756e6374696f6e206d7573742062652063616c6c6564207468726f7567682060408201526b6163746976652070726f787960a01b606082015260800190565b6020808252602b908201527f496e697469616c697a61626c653a20636f6e7472616374206973206e6f74206960408201526a6e697469616c697a696e6760a81b606082015260800190565b600082198211156127d2576127d261288f565b500190565b60008160001904831182151516156127f1576127f161288f565b500290565b60005b838110156128115781810151838201526020016127f9565b83811115610ac05750506000910152565b6000816128315761283161288f565b506000190190565b600181811c9082168061284d57607f821691505b6020821081141561286e57634e487b7160e01b600052602260045260246000fd5b50919050565b60006000198214156128885761288861288f565b5060010190565b634e487b7160e01b600052601160045260246000fd5b634e487b7160e01b600052603260045260246000fd5b634e487b7160e01b600052604160045260246000fdfee1ac655ab58995133a870d1fd307ddc1d624c8ad919a09e67867a7a1483e439a548c7f0307ab2a7ea894e5c7e8c5353cc750bb9385ee2e945f189a9a83daa8eda76ace73a908083d89af9ff88e5b4f7cadb3591a80631063f68b695fda726db571840dc4906352362b0cdaf79870196c8e42acafade72d5d5a6d59291253ceb1f988e4fb62b8e14f4820fed03192306ddf4d7dbfa215595ba1c6ba4b76b369ee416464726573733a206c6f772d6c6576656c2064656c65676174652063616c6c206661696c6564356a809dfdea9198dd76fb76bf6d403ecf13ea675eb89e1eda2db2c4a4676a26ad6a6591fa308fe948065665239402780db8ed4a8c4e4e16c4d066bcaa05efc2ce108bcc5e0f50fe603649304cbbbd94de794a404db82d884c0afc9ba9328e61a26469706673582212203a8c41b6ba9fa3df37a3ed44c91d29a6d9f4af207d5d4bf593996eec0b97a69664736f6c63430008060033",
  "linkReferences": {},
  "deployedLinkReferences": {}
}