{
  "_format": "hh-sol-artifact-1",
  "name": "BlacklistBurnSnapshotTemplate",
  "initializer": "function initialize(string name_, string symbol_, uint8 decimals_, uint256 amount_)",
  "sourceName": "contracts/templates/BlacklistBurnSnapshotTemplate.sol",
  "abi": [
    {
      "anonymous": false,
      "inputs": [
        {
          "indexed": false,
          "internalType": "address",
          "name": "previousAdmin",
          "type": "address"
        },
        {
          "indexed": false,
          "internalType": "address",
          "name": "newAdmin",
          "type": "address"
        }
      ],
      "name": "AdminChanged",
      "type": "event"
    },
    {
      "anonymous": false,
      "inputs": [
        {
          "indexed": true,
          "internalType": "address",
          "name": "owner",
          "type": "address"
        },
        {
          "indexed": true,
          "internalType": "address",
          "name": "spender",
          "type": "address"
        },
        {
          "indexed": false,
          "internalType": "uint256",
          "name": "value",
          "type": "uint256"
        }
      ],
      "name": "Approval",
      "type": "event"
    },
    {
      "anonymous": false,
      "inputs": [
        {
          "indexed": true,
          "internalType": "address",
          "name": "beacon",
          "type": "address"
        }
      ],
      "name": "BeaconUpgraded",
      "type": "event"
    },
    {
      "anonymous": false,
      "inputs": [
        {
          "indexed": true,
          "internalType": "bytes32",
          "name": "role",
          "type": "bytes32"
        },
        {
          "indexed": true,
          "internalType": "bytes32",
          "name": "previousAdminRole",
          "type": "bytes32"
        },
        {
          "indexed": true,
          "internalType": "bytes32",
          "name": "newAdminRole",
          "type": "bytes32"
        }
      ],
      "name": "RoleAdminChanged",
      "type": "event"
    },
    {
      "anonymous": false,
      "inputs": [
        {
          "indexed": true,
          "internalType": "bytes32",
          "name": "role",
          "type": "bytes32"
        },
        {
          "indexed": true,
          "internalType": "address",
          "name": "account",
          "type": "address"
        },
        {
          "indexed": true,
          "internalType": "address",
          "name": "sender",
          "type": "address"
        }
      ],
      "name": "RoleGranted",
      "type": "event"
    },
    {
      "anonymous": false,
      "inputs": [
        {
          "indexed": true,
          "internalType": "bytes32",
          "name": "role",
          "type": "bytes32"
        },
        {
          "indexed": true,
          "internalType": "address",
          "name": "account",
          "type": "address"
        },
        {
          "indexed": true,
          "internalType": "address",
          "name": "sender",
          "type": "address"
        }
      ],
      "name": "RoleRevoked",
      "type": "event"
    },
    {
      "anonymous": false,
      "inputs": [
        {
          "indexed": false,
          "internalType": "uint256",
          "name": "id",
          "type": "uint256"
        }
      ],
      "name": "Snapshot",
      "type": "event"
    },
    {
      "anonymous": false,
      "inputs": [
        {
          "indexed": true,
          "internalType": "address",
          "name": "from",
          "type": "address"
        },
        {
          "indexed": true,
          "internalType": "address",
          "name": "to",
          "type": "address"
        },
        {
          "indexed": false,
          "internalType": "uint256",
          "name": "value",
          "type": "uint256"
        }
      ],
      "name": "Transfer",
      "type": "event"
    },
    {
      "anonymous": false,
      "inputs": [
        {
          "indexed": true,
          "internalType": "address",
          "name": "implementation",
          "type": "address"
        }
      ],
      "name": "Upgraded",
      "type": "event"
    },
    {
      "inputs": [],
      "name": "BLACKLISTED_ROLE",
      "outputs": [
        {
          "internalType": "bytes32",
          "name": "",
          "type": "bytes32"
        }
      ],
      "stateMutability": "view",
      "type": "function"
    },
    {
      "inputs": [],
      "name": "BLACKLIST_MANAGER_ROLE",
      "outputs": [
        {
          "internalType": "bytes32",
          "name": "",
          "type": "bytes32"
        }
      ],
      "stateMutability": "view",
      "type": "function"
    },
    {
      "inputs": [],
      "name": "DEFAULT_ADMIN_ROLE",
      "outputs": [
        {
          "internalType": "bytes32",
          "name": "",
          "type": "bytes32"
        }
      ],
      "stateMutability": "view",
      "type": "function"
    },
    {
      "inputs": [],
      "name": "GOVERNANCE_ROLE",
      "outputs": [
        {
          "internalType": "bytes32",
          "name": "",
          "type": "bytes32"
        }
      ],
      "stateMutability": "view",
      "type": "function"
    },
    {
      "inputs": [],
      "name": "UPGRADE_MANAGER_ROLE",
      "outputs": [
        {
          "internalType": "bytes32",
          "name": "",
          "type": "bytes32"
        }
      ],
      "stateMutability": "view",
      "type": "function"
    },
    {
      "inputs": [
        {
          "internalType": "address[]",
          "name": "addresses",
          "type": "address[]"
        }
      ],
      "name": "addAddressesToBlacklist",
      "outputs": [],
      "stateMutability": "nonpayable",
      "type": "function"
    },
    {
      "inputs": [
        {
          "internalType": "address",
          "name": "owner",
          "type": "address"
        },
        {
          "internalType": "address",
          "name": "spender",
          "type": "address"
        }
      ],
      "name": "allowance",
      "outputs": [
        {
          "internalType": "uint256",
          "name": "",
          "type": "uint256"
        }
      ],
      "stateMutability": "view",
      "type": "function"
    },
    {
      "inputs": [
        {
          "internalType": "address",
          "name": "spender",
          "type": "address"
        },
        {
          "internalType": "uint256",
          "name": "amount",
          "type": "uint256"
        }
      ],
      "name": "approve",
      "outputs": [
        {
          "internalType": "bool",
          "name": "",
          "type": "bool"
        }
      ],
      "stateMutability": "nonpayable",
      "type": "function"
    },
    {
      "inputs": [
        {
          "internalType": "address",
          "name": "account",
          "type": "address"
        }
      ],
      "name": "balanceOf",
      "outputs": [
        {
          "internalType": "uint256",
          "name": "",
          "type": "uint256"
        }
      ],
      "stateMutability": "view",
      "type": "function"
    },
    {
      "inputs": [
        {
          "internalType": "address",
          "name": "account",
          "type": "address"
        },
        {
          "internalType": "uint256",
          "name": "snapshotId",
          "type": "uint256"
        }
      ],
      "name": "balanceOfAt",
      "outputs": [
        {
          "internalType": "uint256",
          "name": "",
          "type": "uint256"
        }
      ],
      "stateMutability": "view",
      "type": "function"
    },
    {
      "inputs": [
        {
          "internalType": "uint256",
          "name": "amount",
          "type": "uint256"
        }
      ],
      "name": "burn",
      "outputs": [],
      "stateMutability": "nonpayable",
      "type": "function"
    },
    {
      "inputs": [
        {
          "internalType": "address",
          "name": "account",
          "type": "address"
        },
        {
          "internalType": "uint256",
          "name": "amount",
          "type": "uint256"
        }
      ],
      "name": "burnFrom",
      "outputs": [],
      "stateMutability": "nonpayable",
      "type": "function"
    },
    {
      "inputs": [],
      "name": "decimals",
      "outputs": [
        {
          "internalType": "uint8",
          "name": "",
          "type": "uint8"
        }
      ],
      "stateMutability": "view",
      "type": "function"
    },
    {
      "inputs": [
        {
          "internalType": "address",
          "name": "spender",
          "type": "address"
        },
        {
          "internalType": "uint256",
          "name": "subtractedValue",
          "type": "uint256"
        }
      ],
      "name": "decreaseAllowance",
      "outputs": [
        {
          "internalType": "bool",
          "name": "",
          "type": "bool"
        }
      ],
      "stateMutability": "nonpayable",
      "type": "function"
    },
    {
      "inputs": [],
      "name": "getCurrentSnapshotId",
      "outputs": [
        {
          "internalType": "uint256",
          "name": "",
          "type": "uint256"
        }
      ],
      "stateMutability": "view",
      "type": "function"
    },
    {
      "inputs": [],
      "name": "getImplementation",
      "outputs": [
        {
          "internalType": "address",
          "name": "",
          "type": "address"
        }
      ],
      "stateMutability": "view",
      "type": "function"
    },
    {
      "inputs": [
        {
          "internalType": "bytes32",
          "name": "role",
          "type": "bytes32"
        }
      ],
      "name": "getRoleAdmin",
      "outputs": [
        {
          "internalType": "bytes32",
          "name": "",
          "type": "bytes32"
        }
      ],
      "stateMutability": "view",
      "type": "function"
    },
    {
      "inputs": [
        {
          "internalType": "bytes32",
          "name": "role",
          "type": "bytes32"
        },
        {
          "internalType": "address",
          "name": "account",
          "type": "address"
        }
      ],
      "name": "grantRole",
      "outputs": [],
      "stateMutability": "nonpayable",
      "type": "function"
    },
    {
      "inputs": [
        {
          "internalType": "bytes32",
          "name": "role",
          "type": "bytes32"
        },
        {
          "internalType": "address",
          "name": "account",
          "type": "address"
        }
      ],
      "name": "hasRole",
      "outputs": [
        {
          "internalType": "bool",
          "name": "",
          "type": "bool"
        }
      ],
      "stateMutability": "view",
      "type": "function"
    },
    {
      "inputs": [
        {
          "internalType": "address",
          "name": "spender",
          "type": "address"
        },
        {
          "internalType": "uint256",
          "name": "addedValue",
          "type": "uint256"
        }
      ],
      "name": "increaseAllowance",
      "outputs": [
        {
          "internalType": "bool",
          "name": "",
          "type": "bool"
        }
      ],
      "stateMutability": "nonpayable",
      "type": "function"
    },
    {
      "inputs": [
        {
          "internalType": "string",
          "name": "name_",
          "type": "string"
        },
        {
          "internalType": "string",
          "name": "symbol_",
          "type": "string"
        },
        {
          "internalType": "uint8",
          "name": "decimals_",
          "type": "uint8"
        },
        {
          "internalType": "uint256",
          "name": "amount_",
          "type": "uint256"
        }
      ],
      "name": "initialize",
      "outputs": [],
      "stateMutability": "nonpayable",
      "type": "function"
    },
    {
      "inputs": [],
      "name": "name",
      "outputs": [
        {
          "internalType": "string",
          "name": "",
          "type": "string"
        }
      ],
      "stateMutability": "view",
      "type": "function"
    },
    {
      "inputs": [
        {
          "internalType": "address",
          "name": "implementationAddress",
          "type": "address"
        }
      ],
      "name": "proposeNewImplementation",
      "outputs": [],
      "stateMutability": "nonpayable",
      "type": "function"
    },
    {
      "inputs": [
        {
          "internalType": "address[]",
          "name": "addresses",
          "type": "address[]"
        }
      ],
      "name": "removeAddressesFromBlacklist",
      "outputs": [],
      "stateMutability": "nonpayable",
      "type": "function"
    },
    {
      "inputs": [
        {
          "internalType": "bytes32",
          "name": "role",
          "type": "bytes32"
        },
        {
          "internalType": "address",
          "name": "account",
          "type": "address"
        }
      ],
      "name": "renounceRole",
      "outputs": [],
      "stateMutability": "nonpayable",
      "type": "function"
    },
    {
      "inputs": [
        {
          "internalType": "bytes32",
          "name": "role",
          "type": "bytes32"
        },
        {
          "internalType": "address",
          "name": "account",
          "type": "address"
        }
      ],
      "name": "revokeRole",
      "outputs": [],
      "stateMutability": "nonpayable",
      "type": "function"
    },
    {
      "inputs": [],
      "name": "snapshot",
      "outputs": [],
      "stateMutability": "nonpayable",
      "type": "function"
    },
    {
      "inputs": [
        {
          "internalType": "bytes4",
          "name": "interfaceId",
          "type": "bytes4"
        }
      ],
      "name": "supportsInterface",
      "outputs": [
        {
          "internalType": "bool",
          "name": "",
          "type": "bool"
        }
      ],
      "stateMutability": "view",
      "type": "function"
    },
    {
      "inputs": [],
      "name": "symbol",
      "outputs": [
        {
          "internalType": "string",
          "name": "",
          "type": "string"
        }
      ],
      "stateMutability": "view",
      "type": "function"
    },
    {
      "inputs": [],
      "name": "totalSupply",
      "outputs": [
        {
          "internalType": "uint256",
          "name": "",
          "type": "uint256"
        }
      ],
      "stateMutability": "view",
      "type": "function"
    },
    {
      "inputs": [
        {
          "internalType": "uint256",
          "name": "snapshotId",
          "type": "uint256"
        }
      ],
      "name": "totalSupplyAt",
      "outputs": [
        {
          "internalType": "uint256",
          "name": "",
          "type": "uint256"
        }
      ],
      "stateMutability": "view",
      "type": "function"
    },
    {
      "inputs": [
        {
          "internalType": "address",
          "name": "recipient",
          "type": "address"
        },
        {
          "internalType": "uint256",
          "name": "amount",
          "type": "uint256"
        }
      ],
      "name": "transfer",
      "outputs": [
        {
          "internalType": "bool",
          "name": "",
          "type": "bool"
        }
      ],
      "stateMutability": "nonpayable",
      "type": "function"
    },
    {
      "inputs": [
        {
          "internalType": "address",
          "name": "sender",
          "type": "address"
        },
        {
          "internalType": "address",
          "name": "recipient",
          "type": "address"
        },
        {
          "internalType": "uint256",
          "name": "amount",
          "type": "uint256"
        }
      ],
      "name": "transferFrom",
      "outputs": [
        {
          "internalType": "bool",
          "name": "",
          "type": "bool"
        }
      ],
      "stateMutability": "nonpayable",
      "type": "function"
    },
    {
      "inputs": [
        {
          "internalType": "address",
          "name": "newImplementation",
          "type": "address"
        }
      ],
      "name": "upgradeTo",
      "outputs": [],
      "stateMutability": "nonpayable",
      "type": "function"
    },
    {
      "inputs": [
        {
          "internalType": "address",
          "name": "newImplementation",
          "type": "address"
        },
        {
          "internalType": "bytes",
          "name": "data",
          "type": "bytes"
        }
      ],
      "name": "upgradeToAndCall",
      "outputs": [],
      "stateMutability": "payable",
      "type": "function"
    }
  ],
  "bytecode": "0x60a06040523060601b60805234801561001757600080fd5b5060805160601c612bf661004b600039600081816109b9015281816109f901528181610baa0152610bea0152612bf66000f3fe6080604052600436106102045760003560e01c80634ee2cd7e11610118578063981b24d0116100a0578063aaf10f421161006f578063aaf10f42146105d7578063ca73419e14610604578063d547741f14610624578063dd62ed3e14610644578063f36c8f5c1461068a57600080fd5b8063981b24d014610562578063a217fddf14610582578063a457c2d714610597578063a9059cbb146105b757600080fd5b806370a08231116100e757806370a08231146104c257806379cc6790146104f857806391d148541461051857806395d89b41146105385780639711715a1461054d57600080fd5b80634ee2cd7e146104585780634f1ef286146104785780635439ad861461048b57806362b199c5146104a057600080fd5b8063313ce5671161019b578063395093511161016a57806339509351146103b4578063410b2424146103d457806342966c68146103f657806343ffa64e1461041657806347757fb61461043857600080fd5b8063313ce56714610331578063322587941461035457806336568abe146103745780633659cfe61461039457600080fd5b806323b872dd116101d757806323b872dd1461029f578063248a9ca3146102bf578063253279ad146102ef5780632f2ff15d1461031157600080fd5b806301ffc9a71461020957806306fdde031461023e578063095ea7b31461026057806318160ddd14610280575b600080fd5b34801561021557600080fd5b5061022961022436600461275f565b6106ac565b60405190151581526020015b60405180910390f35b34801561024a57600080fd5b506102536106e3565b604051610235919061289e565b34801561026c57600080fd5b5061022961027b366004612684565b610775565b34801561028c57600080fd5b506067545b604051908152602001610235565b3480156102ab57600080fd5b506102296102ba3660046125e6565b61078b565b3480156102cb57600080fd5b506102916102da366004612723565b600090815260fb602052604090206001015490565b3480156102fb57600080fd5b5061030f61030a366004612789565b61083c565b005b34801561031d57600080fd5b5061030f61032c36600461273c565b61090d565b34801561033d57600080fd5b506101605460405160ff9091168152602001610235565b34801561036057600080fd5b5061030f61036f3660046126ae565b610925565b34801561038057600080fd5b5061030f61038f36600461273c565b61099a565b3480156103a057600080fd5b5061030f6103af366004612598565b6109ae565b3480156103c057600080fd5b506102296103cf366004612684565b610a77565b3480156103e057600080fd5b50610291600080516020612b5a83398151915281565b34801561040257600080fd5b5061030f610411366004612723565b610ab3565b34801561042257600080fd5b50610291600080516020612b1a83398151915281565b34801561044457600080fd5b5061030f610453366004612598565b610abd565b34801561046457600080fd5b50610291610473366004612684565b610afa565b61030f610486366004612622565b610b9f565b34801561049757600080fd5b50610291610c55565b3480156104ac57600080fd5b50610291600080516020612afa83398151915281565b3480156104ce57600080fd5b506102916104dd366004612598565b6001600160a01b031660009081526065602052604090205490565b34801561050457600080fd5b5061030f610513366004612684565b610c72565b34801561052457600080fd5b5061022961053336600461273c565b610cf8565b34801561054457600080fd5b50610253610d23565b34801561055957600080fd5b5061030f610d32565b34801561056e57600080fd5b5061029161057d366004612723565b610d3a565b34801561058e57600080fd5b50610291600081565b3480156105a357600080fd5b506102296105b2366004612684565b610da5565b3480156105c357600080fd5b506102296105d2366004612684565b610e3e565b3480156105e357600080fd5b506105ec610e4b565b6040516001600160a01b039091168152602001610235565b34801561061057600080fd5b5061030f61061f3660046126ae565b610e55565b34801561063057600080fd5b5061030f61063f36600461273c565b610ec4565b34801561065057600080fd5b5061029161065f3660046125b3565b6001600160a01b03918216600090815260666020908152604080832093909416825291909152205490565b34801561069657600080fd5b50610291600080516020612b3a83398151915281565b60006001600160e01b03198216637965db0b60e01b14806106dd57506301ffc9a760e01b6001600160e01b03198316145b92915050565b6060606880546106f290612a67565b80601f016020809104026020016040519081016040528092919081815260200182805461071e90612a67565b801561076b5780601f106107405761010080835404028352916020019161076b565b820191906000526020600020905b81548152906001019060200180831161074e57829003601f168201915b5050505050905090565b6000610782338484610eea565b50600192915050565b600061079884848461100e565b6001600160a01b0384166000908152606660209081526040808320338452909152902054828110156108225760405162461bcd60e51b815260206004820152602860248201527f45524332303a207472616e7366657220616d6f756e74206578636565647320616044820152676c6c6f77616e636560c01b60648201526084015b60405180910390fd5b61082f8533858403610eea565b60019150505b9392505050565b600054610100900460ff166108575760005460ff161561085b565b303b155b6108be5760405162461bcd60e51b815260206004820152602e60248201527f496e697469616c697a61626c653a20636f6e747261637420697320616c72656160448201526d191e481a5b9a5d1a585b1a5e995960921b6064820152608401610819565b600054610100900460ff161580156108e0576000805461ffff19166101011790555b6108ec858585856111e7565b6108f461122a565b8015610906576000805461ff00191690555b5050505050565b6109178282611279565b6109218282611308565b5050565b600080516020612b5a83398151915261093e813361132e565b60005b8281101561099457610982600080516020612afa83398151915285858481811061096d5761096d612acd565b905060200201602081019061063f9190612598565b8061098c81612a9c565b915050610941565b50505050565b6109a48282611392565b61092182826113fa565b306001600160a01b037f00000000000000000000000000000000000000000000000000000000000000001614156109f75760405162461bcd60e51b8152600401610819906128d1565b7f00000000000000000000000000000000000000000000000000000000000000006001600160a01b0316610a29611474565b6001600160a01b031614610a4f5760405162461bcd60e51b81526004016108199061291d565b610a58816114a2565b60408051600080825260208201909252610a7491839190611524565b50565b3360008181526066602090815260408083206001600160a01b03871684529091528120549091610782918590610aae9086906129b4565b610eea565b610a743382611668565b600080516020612b3a833981519152610ad6813361132e565b5061012d80546001600160a01b0319166001600160a01b0392909216919091179055565b604080516001600160a01b0384166020808301919091527ffbf1c7065455eb4486649b8540f24ef2dd4ebedf2aa423f0039d17c2c75dea15828401528251808303840181526060909201909252805191012060009081610b5b8260016129b4565b9050600080610b6b8685856117c2565b9150915081610b92576001600160a01b038716600090815260656020526040902054610b94565b805b979650505050505050565b306001600160a01b037f0000000000000000000000000000000000000000000000000000000000000000161415610be85760405162461bcd60e51b8152600401610819906128d1565b7f00000000000000000000000000000000000000000000000000000000000000006001600160a01b0316610c1a611474565b6001600160a01b031614610c405760405162461bcd60e51b81526004016108199061291d565b610c49826114a2565b61092182826001611524565b6000610c6d600080516020612ba18339815191525490565b905090565b6000610c7e833361065f565b905081811015610cdc5760405162461bcd60e51b8152602060048201526024808201527f45524332303a206275726e20616d6f756e74206578636565647320616c6c6f77604482015263616e636560e01b6064820152608401610819565b610ce98333848403610eea565b610cf38383611668565b505050565b600091825260fb602090815260408084206001600160a01b0393909316845291905290205460ff1690565b6060606980546106f290612a67565b610a746118ad565b6000806000610d8a847f286a9db37a0f8ddcbcee127c9f4f56031230f49cb46786f87e166d552e11f67e7ffcaa8bb100d3c5b627eac0369cc1d2778dbeffa2993d08f039fb27795729e9a56117c2565b9150915081610d9b57606754610d9d565b805b949350505050565b3360009081526066602090815260408083206001600160a01b038616845290915281205482811015610e275760405162461bcd60e51b815260206004820152602560248201527f45524332303a2064656372656173656420616c6c6f77616e63652062656c6f77604482015264207a65726f60d81b6064820152608401610819565b610e343385858403610eea565b5060019392505050565b600061078233848461100e565b6000610c6d611474565b600080516020612b5a833981519152610e6e813361132e565b60005b8281101561099457610eb2600080516020612afa833981519152858584818110610e9d57610e9d612acd565b905060200201602081019061032c9190612598565b80610ebc81612a9c565b915050610e71565b600082815260fb6020526040902060010154610ee0813361132e565b610cf3838361191d565b6001600160a01b038316610f4c5760405162461bcd60e51b8152602060048201526024808201527f45524332303a20617070726f76652066726f6d20746865207a65726f206164646044820152637265737360e01b6064820152608401610819565b6001600160a01b038216610fad5760405162461bcd60e51b815260206004820152602260248201527f45524332303a20617070726f766520746f20746865207a65726f206164647265604482015261737360f01b6064820152608401610819565b6001600160a01b0383811660008181526066602090815260408083209487168084529482529182902085905590518481527f8c5be1e5ebec7d5bd14f71427d1e84f3dd0314c0f7b2291e5b200ac8c7c3b925910160405180910390a3505050565b6001600160a01b0383166110725760405162461bcd60e51b815260206004820152602560248201527f45524332303a207472616e736665722066726f6d20746865207a65726f206164604482015264647265737360d81b6064820152608401610819565b6001600160a01b0382166110d45760405162461bcd60e51b815260206004820152602360248201527f45524332303a207472616e7366657220746f20746865207a65726f206164647260448201526265737360e81b6064820152608401610819565b6110df838383611984565b6001600160a01b038316600090815260656020526040902054818110156111575760405162461bcd60e51b815260206004820152602660248201527f45524332303a207472616e7366657220616d6f756e7420657863656564732062604482015265616c616e636560d01b6064820152608401610819565b6001600160a01b0380851660009081526065602052604080822085850390559185168152908120805484929061118e9084906129b4565b92505081905550826001600160a01b0316846001600160a01b03167fddf252ad1be2c89b69c2b068fc378daa952ba7f163c4a11628f55a4df523b3ef846040516111da91815260200190565b60405180910390a3610994565b600054610100900460ff1661120e5760405162461bcd60e51b815260040161081990612969565b61121661199a565b61122084846119f1565b6109948282611a3f565b600054610100900460ff166112515760405162461bcd60e51b815260040161081990612969565b611277600080516020612afa833981519152600080516020612b5a833981519152611a80565b565b600080516020612b5a833981519152821480611293575081155b15610921576112b0600080516020612afa83398151915282610cf8565b156109215760405162461bcd60e51b815260206004820152602260248201527f63616e206e6f742061737369676e20726f6c6520746f20626c61636b6c697374604482015261195960f21b6064820152608401610819565b600082815260fb6020526040902060010154611324813361132e565b610cf38383611acb565b6113388282610cf8565b61092157611350816001600160a01b03166014611b51565b61135b836020611b51565b60405160200161136c929190612829565b60408051601f198184030181529082905262461bcd60e51b82526108199160040161289e565b600080516020612afa8339815191528214156109215760405162461bcd60e51b815260206004820152602160248201527f43616e206e6f742072656e6f756e636520626c61636b6c697374656420726f6c6044820152606560f81b6064820152608401610819565b6001600160a01b038116331461146a5760405162461bcd60e51b815260206004820152602f60248201527f416363657373436f6e74726f6c3a2063616e206f6e6c792072656e6f756e636560448201526e103937b632b9903337b91039b2b63360891b6064820152608401610819565b610921828261191d565b7f360894a13ba1a3210667c828492db98dca3e2076cc3735a920a3ca505d382bbc546001600160a01b031690565b6114ba600080516020612b3a83398151915233610cf8565b806114d857506114d8600080516020612b1a83398151915233610cf8565b610a745760405162461bcd60e51b815260206004820152601d60248201527f4552524f523a2041646472657373206e6f7420617574686f72697a65640000006044820152606401610819565b600061152e611474565b905061153984611ced565b6000835111806115465750815b15611557576115558484611d92565b505b7f4910fdfa16fed3260ed0e7147f7cc6da11a60208b5b9406d12a635614ffd9143805460ff1661090657805460ff191660011781556040516001600160a01b03831660248201526115d690869060440160408051601f198184030181529190526020810180516001600160e01b0316631b2ce7f360e11b179052611d92565b50805460ff191681556115e7611474565b6001600160a01b0316826001600160a01b03161461165f5760405162461bcd60e51b815260206004820152602f60248201527f45524331393637557067726164653a207570677261646520627265616b73206660448201526e75727468657220757067726164657360881b6064820152608401610819565b61090685611e7d565b6001600160a01b0382166116c85760405162461bcd60e51b815260206004820152602160248201527f45524332303a206275726e2066726f6d20746865207a65726f206164647265736044820152607360f81b6064820152608401610819565b6116d482600083611984565b6001600160a01b038216600090815260656020526040902054818110156117485760405162461bcd60e51b815260206004820152602260248201527f45524332303a206275726e20616d6f756e7420657863656564732062616c616e604482015261636560f01b6064820152608401610819565b6001600160a01b0383166000908152606560205260408120838303905560678054849290611777908490612a0d565b90915550506040518281526000906001600160a01b038516907fddf252ad1be2c89b69c2b068fc378daa952ba7f163c4a11628f55a4df523b3ef9060200160405180910390a3505050565b6000806000851161180e5760405162461bcd60e51b815260206004820152601660248201527504552433230536e617073686f743a20696420697320360541b6044820152606401610819565b600080516020612ba18339815191525485111561186d5760405162461bcd60e51b815260206004820152601d60248201527f4552433230536e617073686f743a206e6f6e6578697374656e742069640000006044820152606401610819565b60006118798587611ebd565b905084548114156118915760008092509250506118a5565b600161189d8583611f5c565b549093509150505b935093915050565b60006001600080516020612ba183398151915280546000906118d09084906129b4565b9091555050600080516020612ba1833981519152546040518181527f8030e83b04d87bef53480e26263266d6ca66863aa8506aca6f2559d18aa1cb679060200160405180910390a1919050565b6119278282610cf8565b1561092157600082815260fb602090815260408083206001600160a01b0385168085529252808320805460ff1916905551339285917ff6391f5c32d9c69d2a47ea670b442974b53935d1edc7fd64eb21e047a839171b9190a45050565b61198f838383611fdb565b610cf3838383611ff1565b600054610100900460ff166119c15760405162461bcd60e51b815260040161081990612969565b6119c9612039565b6119d1612039565b6119d9612039565b6119e1612039565b6119e9612039565b611277612060565b600054610100900460ff16611a185760405162461bcd60e51b815260040161081990612969565b8151611a2b90606890602085019061244d565b508051610cf390606990602084019061244d565b600054610100900460ff16611a665760405162461bcd60e51b815260040161081990612969565b610160805460ff191660ff841617905561092133826120e8565b600082815260fb6020526040808220600101805490849055905190918391839186917fbd79b86ffe0ab8e8776151514217cd7cacd52c909f66475c3af44e129f0b00ff9190a4505050565b611ad58282610cf8565b61092157600082815260fb602090815260408083206001600160a01b03851684529091529020805460ff19166001179055611b0d3390565b6001600160a01b0316816001600160a01b0316837f2f8788117e7eff1d82e926ec794901d17c78024a50270940304540a733656f0d60405160405180910390a45050565b60606000611b608360026129ee565b611b6b9060026129b4565b67ffffffffffffffff811115611b8357611b83612ae3565b6040519080825280601f01601f191660200182016040528015611bad576020820181803683370190505b509050600360fc1b81600081518110611bc857611bc8612acd565b60200101906001600160f81b031916908160001a905350600f60fb1b81600181518110611bf757611bf7612acd565b60200101906001600160f81b031916908160001a9053506000611c1b8460026129ee565b611c269060016129b4565b90505b6001811115611c9e576f181899199a1a9b1b9c1cb0b131b232b360811b85600f1660108110611c5a57611c5a612acd565b1a60f81b828281518110611c7057611c70612acd565b60200101906001600160f81b031916908160001a90535060049490941c93611c9781612a50565b9050611c29565b5083156108355760405162461bcd60e51b815260206004820181905260248201527f537472696e67733a20686578206c656e67746820696e73756666696369656e746044820152606401610819565b803b611d515760405162461bcd60e51b815260206004820152602d60248201527f455243313936373a206e657720696d706c656d656e746174696f6e206973206e60448201526c1bdd08184818dbdb9d1c9858dd609a1b6064820152608401610819565b7f360894a13ba1a3210667c828492db98dca3e2076cc3735a920a3ca505d382bbc80546001600160a01b0319166001600160a01b0392909216919091179055565b6060823b611df15760405162461bcd60e51b815260206004820152602660248201527f416464726573733a2064656c65676174652063616c6c20746f206e6f6e2d636f6044820152651b9d1c9858dd60d21b6064820152608401610819565b600080846001600160a01b031684604051611e0c919061280d565b600060405180830381855af49150503d8060008114611e47576040519150601f19603f3d011682016040523d82523d6000602084013e611e4c565b606091505b5091509150611e748282604051806060016040528060278152602001612b7a602791396121d3565b95945050505050565b611e8681611ced565b6040516001600160a01b038216907fbc7cd75a20ee27fd9adebab32041f755214dbc6bffa90cc0225b39da2e5c2d3b90600090a250565b8154600090819080611ed4576000925050506106dd565b80821015611f18576000611ee8838361220c565b905084611ef58783611f5c565b541115611f0457809150611f12565b611f0f8160016129b4565b92505b50611ed4565b600082118015611f3b575083611f3886611f33600186612a0d565b611f5c565b54145b15611f5457611f4b600183612a0d565b925050506106dd565b5090506106dd565b600082548210611fa45760405162461bcd60e51b815260206004820152601360248201527211549493d48e8813dd5d081bd988189bdd5b99606a1b6044820152606401610819565b8183604051602001611fb891815260200190565b6040516020818303038152906040528051906020012060001c61083591906129b4565b611fe683838361198f565b610cf3838383612227565b6001600160a01b038316612010576120088261227f565b610cf3612309565b6001600160a01b038216612027576120088361227f565b6120308361227f565b610cf38261227f565b600054610100900460ff166112775760405162461bcd60e51b815260040161081990612969565b600054610100900460ff166120875760405162461bcd60e51b815260040161081990612969565b612092600033612357565b6120aa600080516020612b3a83398151915233612357565b6120c2600080516020612b1a83398151915233612357565b611277600080516020612b1a833981519152600080516020612b3a833981519152611a80565b6001600160a01b03821661213e5760405162461bcd60e51b815260206004820152601f60248201527f45524332303a206d696e7420746f20746865207a65726f2061646472657373006044820152606401610819565b61214a60008383611984565b806067600082825461215c91906129b4565b90915550506001600160a01b038216600090815260656020526040812080548392906121899084906129b4565b90915550506040518181526001600160a01b038316906000907fddf252ad1be2c89b69c2b068fc378daa952ba7f163c4a11628f55a4df523b3ef9060200160405180910390a35050565b606083156121e2575081610835565b8251156121f25782518084602001fd5b8160405162461bcd60e51b8152600401610819919061289e565b600061221b60028484186129cc565b610835908484166129b4565b612232338484612361565b15610cf35760405162461bcd60e51b815260206004820152601a60248201527f4552524f523a204164647265737320426c61636b6c69737465640000000000006044820152606401610819565b604080516001600160a01b0383166020808301919091527ffbf1c7065455eb4486649b8540f24ef2dd4ebedf2aa423f0039d17c2c75dea15828401528251808303840181526060909201909252805191012060006122de8260016129b4565b9050610cf38282612304866001600160a01b031660009081526065602052604090205490565b6123b7565b6112777f286a9db37a0f8ddcbcee127c9f4f56031230f49cb46786f87e166d552e11f67e7ffcaa8bb100d3c5b627eac0369cc1d2778dbeffa2993d08f039fb27795729e9a561230460675490565b6109218282611acb565b600061237b600080516020612afa83398151915284610cf8565b806123995750612399600080516020612afa83398151915285610cf8565b80610d9d5750610d9d600080516020612afa83398151915283610cf8565b60006123cf600080516020612ba18339815191525490565b9050806123db856123f5565b1015610994576123eb8482612425565b6109948383612425565b8054600090806124085750600092915050565b61241783611f33600184612a0d565b549392505050565b50919050565b8154600183600061243683856129b4565b909155508290506124478483611f5c565b55505050565b82805461245990612a67565b90600052602060002090601f01602090048101928261247b57600085556124c1565b82601f1061249457805160ff19168380011785556124c1565b828001600101855582156124c1579182015b828111156124c15782518255916020019190600101906124a6565b506124cd9291506124d1565b5090565b5b808211156124cd57600081556001016124d2565b600067ffffffffffffffff8084111561250157612501612ae3565b604051601f8501601f19908116603f0116810190828211818310171561252957612529612ae3565b8160405280935085815286868601111561254257600080fd5b858560208301376000602087830101525050509392505050565b80356001600160a01b038116811461257357600080fd5b919050565b600082601f83011261258957600080fd5b610835838335602085016124e6565b6000602082840312156125aa57600080fd5b6108358261255c565b600080604083850312156125c657600080fd5b6125cf8361255c565b91506125dd6020840161255c565b90509250929050565b6000806000606084860312156125fb57600080fd5b6126048461255c565b92506126126020850161255c565b9150604084013590509250925092565b6000806040838503121561263557600080fd5b61263e8361255c565b9150602083013567ffffffffffffffff81111561265a57600080fd5b8301601f8101851361266b57600080fd5b61267a858235602084016124e6565b9150509250929050565b6000806040838503121561269757600080fd5b6126a08361255c565b946020939093013593505050565b600080602083850312156126c157600080fd5b823567ffffffffffffffff808211156126d957600080fd5b818501915085601f8301126126ed57600080fd5b8135818111156126fc57600080fd5b8660208260051b850101111561271157600080fd5b60209290920196919550909350505050565b60006020828403121561273557600080fd5b5035919050565b6000806040838503121561274f57600080fd5b823591506125dd6020840161255c565b60006020828403121561277157600080fd5b81356001600160e01b03198116811461083557600080fd5b6000806000806080858703121561279f57600080fd5b843567ffffffffffffffff808211156127b757600080fd5b6127c388838901612578565b955060208701359150808211156127d957600080fd5b506127e687828801612578565b935050604085013560ff811681146127fd57600080fd5b9396929550929360600135925050565b6000825161281f818460208701612a24565b9190910192915050565b7f416363657373436f6e74726f6c3a206163636f756e7420000000000000000000815260008351612861816017850160208801612a24565b7001034b99036b4b9b9b4b733903937b6329607d1b6017918401918201528351612892816028840160208801612a24565b01602801949350505050565b60208152600082518060208401526128bd816040850160208701612a24565b601f01601f19169190910160400192915050565b6020808252602c908201527f46756e6374696f6e206d7573742062652063616c6c6564207468726f7567682060408201526b19195b1959d85d1958d85b1b60a21b606082015260800190565b6020808252602c908201527f46756e6374696f6e206d7573742062652063616c6c6564207468726f7567682060408201526b6163746976652070726f787960a01b606082015260800190565b6020808252602b908201527f496e697469616c697a61626c653a20636f6e7472616374206973206e6f74206960408201526a6e697469616c697a696e6760a81b606082015260800190565b600082198211156129c7576129c7612ab7565b500190565b6000826129e957634e487b7160e01b600052601260045260246000fd5b500490565b6000816000190483118215151615612a0857612a08612ab7565b500290565b600082821015612a1f57612a1f612ab7565b500390565b60005b83811015612a3f578181015183820152602001612a27565b838111156109945750506000910152565b600081612a5f57612a5f612ab7565b506000190190565b600181811c90821680612a7b57607f821691505b6020821081141561241f57634e487b7160e01b600052602260045260246000fd5b6000600019821415612ab057612ab0612ab7565b5060010190565b634e487b7160e01b600052601160045260246000fd5b634e487b7160e01b600052603260045260246000fd5b634e487b7160e01b600052604160045260246000fdfe548c7f0307ab2a7ea894e5c7e8c5353cc750bb9385ee2e945f189a9a83daa8eda76ace73a908083d89af9ff88e5b4f7cadb3591a80631063f68b695fda726db571840dc4906352362b0cdaf79870196c8e42acafade72d5d5a6d59291253ceb1f988e4fb62b8e14f4820fed03192306ddf4d7dbfa215595ba1c6ba4b76b369ee416464726573733a206c6f772d6c6576656c2064656c65676174652063616c6c206661696c65640d0a0ed3351c10a57d74a44b40c06e0946288e4e3816ac07bb89db2a755562e7a26469706673582212209a46e3b0f738d21444394c7de423c1a2a2459a6461854df12820ea285262144464736f6c63430008060033",
  "linkReferences": {},
  "deployedLinkReferences": {}
}