{
  "_format": "hh-sol-artifact-1",
  "name": "BlacklistMintSnapshotTemplate",
  "initializer": "function initialize(string name_, string symbol_, uint8 decimals_, uint256 amount_)",
  "sourceName": "contracts/templates/BlacklistMintSnapshotTemplate.sol",
  "abi": [
    {
      "anonymous": false,
      "inputs": [
        {
          "indexed": false,
          "internalType": "address",
          "name": "previousAdmin",
          "type": "address"
        },
        {
          "indexed": false,
          "internalType": "address",
          "name": "newAdmin",
          "type": "address"
        }
      ],
      "name": "AdminChanged",
      "type": "event"
    },
    {
      "anonymous": false,
      "inputs": [
        {
          "indexed": true,
          "internalType": "address",
          "name": "owner",
          "type": "address"
        },
        {
          "indexed": true,
          "internalType": "address",
          "name": "spender",
          "type": "address"
        },
        {
          "indexed": false,
          "internalType": "uint256",
          "name": "value",
          "type": "uint256"
        }
      ],
      "name": "Approval",
      "type": "event"
    },
    {
      "anonymous": false,
      "inputs": [
        {
          "indexed": true,
          "internalType": "address",
          "name": "beacon",
          "type": "address"
        }
      ],
      "name": "BeaconUpgraded",
      "type": "event"
    },
    {
      "anonymous": false,
      "inputs": [
        {
          "indexed": true,
          "internalType": "bytes32",
          "name": "role",
          "type": "bytes32"
        },
        {
          "indexed": true,
          "internalType": "bytes32",
          "name": "previousAdminRole",
          "type": "bytes32"
        },
        {
          "indexed": true,
          "internalType": "bytes32",
          "name": "newAdminRole",
          "type": "bytes32"
        }
      ],
      "name": "RoleAdminChanged",
      "type": "event"
    },
    {
      "anonymous": false,
      "inputs": [
        {
          "indexed": true,
          "internalType": "bytes32",
          "name": "role",
          "type": "bytes32"
        },
        {
          "indexed": true,
          "internalType": "address",
          "name": "account",
          "type": "address"
        },
        {
          "indexed": true,
          "internalType": "address",
          "name": "sender",
          "type": "address"
        }
      ],
      "name": "RoleGranted",
      "type": "event"
    },
    {
      "anonymous": false,
      "inputs": [
        {
          "indexed": true,
          "internalType": "bytes32",
          "name": "role",
          "type": "bytes32"
        },
        {
          "indexed": true,
          "internalType": "address",
          "name": "account",
          "type": "address"
        },
        {
          "indexed": true,
          "internalType": "address",
          "name": "sender",
          "type": "address"
        }
      ],
      "name": "RoleRevoked",
      "type": "event"
    },
    {
      "anonymous": false,
      "inputs": [
        {
          "indexed": false,
          "internalType": "uint256",
          "name": "id",
          "type": "uint256"
        }
      ],
      "name": "Snapshot",
      "type": "event"
    },
    {
      "anonymous": false,
      "inputs": [
        {
          "indexed": true,
          "internalType": "address",
          "name": "from",
          "type": "address"
        },
        {
          "indexed": true,
          "internalType": "address",
          "name": "to",
          "type": "address"
        },
        {
          "indexed": false,
          "internalType": "uint256",
          "name": "value",
          "type": "uint256"
        }
      ],
      "name": "Transfer",
      "type": "event"
    },
    {
      "anonymous": false,
      "inputs": [
        {
          "indexed": true,
          "internalType": "address",
          "name": "implementation",
          "type": "address"
        }
      ],
      "name": "Upgraded",
      "type": "event"
    },
    {
      "inputs": [],
      "name": "BLACKLISTED_ROLE",
      "outputs": [
        {
          "internalType": "bytes32",
          "name": "",
          "type": "bytes32"
        }
      ],
      "stateMutability": "view",
      "type": "function"
    },
    {
      "inputs": [],
      "name": "BLACKLIST_MANAGER_ROLE",
      "outputs": [
        {
          "internalType": "bytes32",
          "name": "",
          "type": "bytes32"
        }
      ],
      "stateMutability": "view",
      "type": "function"
    },
    {
      "inputs": [],
      "name": "DEFAULT_ADMIN_ROLE",
      "outputs": [
        {
          "internalType": "bytes32",
          "name": "",
          "type": "bytes32"
        }
      ],
      "stateMutability": "view",
      "type": "function"
    },
    {
      "inputs": [],
      "name": "GOVERNANCE_ROLE",
      "outputs": [
        {
          "internalType": "bytes32",
          "name": "",
          "type": "bytes32"
        }
      ],
      "stateMutability": "view",
      "type": "function"
    },
    {
      "inputs": [],
      "name": "MINTER_ROLE",
      "outputs": [
        {
          "internalType": "bytes32",
          "name": "",
          "type": "bytes32"
        }
      ],
      "stateMutability": "view",
      "type": "function"
    },
    {
      "inputs": [],
      "name": "UPGRADE_MANAGER_ROLE",
      "outputs": [
        {
          "internalType": "bytes32",
          "name": "",
          "type": "bytes32"
        }
      ],
      "stateMutability": "view",
      "type": "function"
    },
    {
      "inputs": [
        {
          "internalType": "address[]",
          "name": "addresses",
          "type": "address[]"
        }
      ],
      "name": "addAddressesToBlacklist",
      "outputs": [],
      "stateMutability": "nonpayable",
      "type": "function"
    },
    {
      "inputs": [
        {
          "internalType": "address",
          "name": "owner",
          "type": "address"
        },
        {
          "internalType": "address",
          "name": "spender",
          "type": "address"
        }
      ],
      "name": "allowance",
      "outputs": [
        {
          "internalType": "uint256",
          "name": "",
          "type": "uint256"
        }
      ],
      "stateMutability": "view",
      "type": "function"
    },
    {
      "inputs": [
        {
          "internalType": "address",
          "name": "spender",
          "type": "address"
        },
        {
          "internalType": "uint256",
          "name": "amount",
          "type": "uint256"
        }
      ],
      "name": "approve",
      "outputs": [
        {
          "internalType": "bool",
          "name": "",
          "type": "bool"
        }
      ],
      "stateMutability": "nonpayable",
      "type": "function"
    },
    {
      "inputs": [
        {
          "internalType": "address",
          "name": "account",
          "type": "address"
        }
      ],
      "name": "balanceOf",
      "outputs": [
        {
          "internalType": "uint256",
          "name": "",
          "type": "uint256"
        }
      ],
      "stateMutability": "view",
      "type": "function"
    },
    {
      "inputs": [
        {
          "internalType": "address",
          "name": "account",
          "type": "address"
        },
        {
          "internalType": "uint256",
          "name": "snapshotId",
          "type": "uint256"
        }
      ],
      "name": "balanceOfAt",
      "outputs": [
        {
          "internalType": "uint256",
          "name": "",
          "type": "uint256"
        }
      ],
      "stateMutability": "view",
      "type": "function"
    },
    {
      "inputs": [
        {
          "internalType": "address[]",
          "name": "accounts",
          "type": "address[]"
        },
        {
          "internalType": "uint256[]",
          "name": "amounts",
          "type": "uint256[]"
        }
      ],
      "name": "bulkMint",
      "outputs": [],
      "stateMutability": "nonpayable",
      "type": "function"
    },
    {
      "inputs": [],
      "name": "decimals",
      "outputs": [
        {
          "internalType": "uint8",
          "name": "",
          "type": "uint8"
        }
      ],
      "stateMutability": "view",
      "type": "function"
    },
    {
      "inputs": [
        {
          "internalType": "address",
          "name": "spender",
          "type": "address"
        },
        {
          "internalType": "uint256",
          "name": "subtractedValue",
          "type": "uint256"
        }
      ],
      "name": "decreaseAllowance",
      "outputs": [
        {
          "internalType": "bool",
          "name": "",
          "type": "bool"
        }
      ],
      "stateMutability": "nonpayable",
      "type": "function"
    },
    {
      "inputs": [],
      "name": "getCurrentSnapshotId",
      "outputs": [
        {
          "internalType": "uint256",
          "name": "",
          "type": "uint256"
        }
      ],
      "stateMutability": "view",
      "type": "function"
    },
    {
      "inputs": [],
      "name": "getImplementation",
      "outputs": [
        {
          "internalType": "address",
          "name": "",
          "type": "address"
        }
      ],
      "stateMutability": "view",
      "type": "function"
    },
    {
      "inputs": [
        {
          "internalType": "bytes32",
          "name": "role",
          "type": "bytes32"
        }
      ],
      "name": "getRoleAdmin",
      "outputs": [
        {
          "internalType": "bytes32",
          "name": "",
          "type": "bytes32"
        }
      ],
      "stateMutability": "view",
      "type": "function"
    },
    {
      "inputs": [
        {
          "internalType": "bytes32",
          "name": "role",
          "type": "bytes32"
        },
        {
          "internalType": "address",
          "name": "account",
          "type": "address"
        }
      ],
      "name": "grantRole",
      "outputs": [],
      "stateMutability": "nonpayable",
      "type": "function"
    },
    {
      "inputs": [
        {
          "internalType": "bytes32",
          "name": "role",
          "type": "bytes32"
        },
        {
          "internalType": "address",
          "name": "account",
          "type": "address"
        }
      ],
      "name": "hasRole",
      "outputs": [
        {
          "internalType": "bool",
          "name": "",
          "type": "bool"
        }
      ],
      "stateMutability": "view",
      "type": "function"
    },
    {
      "inputs": [
        {
          "internalType": "address",
          "name": "spender",
          "type": "address"
        },
        {
          "internalType": "uint256",
          "name": "addedValue",
          "type": "uint256"
        }
      ],
      "name": "increaseAllowance",
      "outputs": [
        {
          "internalType": "bool",
          "name": "",
          "type": "bool"
        }
      ],
      "stateMutability": "nonpayable",
      "type": "function"
    },
    {
      "inputs": [
        {
          "internalType": "string",
          "name": "name_",
          "type": "string"
        },
        {
          "internalType": "string",
          "name": "symbol_",
          "type": "string"
        },
        {
          "internalType": "uint8",
          "name": "decimals_",
          "type": "uint8"
        },
        {
          "internalType": "uint256",
          "name": "amount_",
          "type": "uint256"
        }
      ],
      "name": "initialize",
      "outputs": [],
      "stateMutability": "nonpayable",
      "type": "function"
    },
    {
      "inputs": [
        {
          "internalType": "address",
          "name": "account",
          "type": "address"
        },
        {
          "internalType": "uint256",
          "name": "amount",
          "type": "uint256"
        }
      ],
      "name": "mint",
      "outputs": [],
      "stateMutability": "nonpayable",
      "type": "function"
    },
    {
      "inputs": [],
      "name": "name",
      "outputs": [
        {
          "internalType": "string",
          "name": "",
          "type": "string"
        }
      ],
      "stateMutability": "view",
      "type": "function"
    },
    {
      "inputs": [
        {
          "internalType": "address",
          "name": "implementationAddress",
          "type": "address"
        }
      ],
      "name": "proposeNewImplementation",
      "outputs": [],
      "stateMutability": "nonpayable",
      "type": "function"
    },
    {
      "inputs": [
        {
          "internalType": "address[]",
          "name": "addresses",
          "type": "address[]"
        }
      ],
      "name": "removeAddressesFromBlacklist",
      "outputs": [],
      "stateMutability": "nonpayable",
      "type": "function"
    },
    {
      "inputs": [
        {
          "internalType": "bytes32",
          "name": "role",
          "type": "bytes32"
        },
        {
          "internalType": "address",
          "name": "account",
          "type": "address"
        }
      ],
      "name": "renounceRole",
      "outputs": [],
      "stateMutability": "nonpayable",
      "type": "function"
    },
    {
      "inputs": [
        {
          "internalType": "bytes32",
          "name": "role",
          "type": "bytes32"
        },
        {
          "internalType": "address",
          "name": "account",
          "type": "address"
        }
      ],
      "name": "revokeRole",
      "outputs": [],
      "stateMutability": "nonpayable",
      "type": "function"
    },
    {
      "inputs": [],
      "name": "snapshot",
      "outputs": [],
      "stateMutability": "nonpayable",
      "type": "function"
    },
    {
      "inputs": [
        {
          "internalType": "bytes4",
          "name": "interfaceId",
          "type": "bytes4"
        }
      ],
      "name": "supportsInterface",
      "outputs": [
        {
          "internalType": "bool",
          "name": "",
          "type": "bool"
        }
      ],
      "stateMutability": "view",
      "type": "function"
    },
    {
      "inputs": [],
      "name": "symbol",
      "outputs": [
        {
          "internalType": "string",
          "name": "",
          "type": "string"
        }
      ],
      "stateMutability": "view",
      "type": "function"
    },
    {
      "inputs": [],
      "name": "totalSupply",
      "outputs": [
        {
          "internalType": "uint256",
          "name": "",
          "type": "uint256"
        }
      ],
      "stateMutability": "view",
      "type": "function"
    },
    {
      "inputs": [
        {
          "internalType": "uint256",
          "name": "snapshotId",
          "type": "uint256"
        }
      ],
      "name": "totalSupplyAt",
      "outputs": [
        {
          "internalType": "uint256",
          "name": "",
          "type": "uint256"
        }
      ],
      "stateMutability": "view",
      "type": "function"
    },
    {
      "inputs": [
        {
          "internalType": "address",
          "name": "recipient",
          "type": "address"
        },
        {
          "internalType": "uint256",
          "name": "amount",
          "type": "uint256"
        }
      ],
      "name": "transfer",
      "outputs": [
        {
          "internalType": "bool",
          "name": "",
          "type": "bool"
        }
      ],
      "stateMutability": "nonpayable",
      "type": "function"
    },
    {
      "inputs": [
        {
          "internalType": "address",
          "name": "sender",
          "type": "address"
        },
        {
          "internalType": "address",
          "name": "recipient",
          "type": "address"
        },
        {
          "internalType": "uint256",
          "name": "amount",
          "type": "uint256"
        }
      ],
      "name": "transferFrom",
      "outputs": [
        {
          "internalType": "bool",
          "name": "",
          "type": "bool"
        }
      ],
      "stateMutability": "nonpayable",
      "type": "function"
    },
    {
      "inputs": [
        {
          "internalType": "address",
          "name": "newImplementation",
          "type": "address"
        }
      ],
      "name": "upgradeTo",
      "outputs": [],
      "stateMutability": "nonpayable",
      "type": "function"
    },
    {
      "inputs": [
        {
          "internalType": "address",
          "name": "newImplementation",
          "type": "address"
        },
        {
          "internalType": "bytes",
          "name": "data",
          "type": "bytes"
        }
      ],
      "name": "upgradeToAndCall",
      "outputs": [],
      "stateMutability": "payable",
      "type": "function"
    }
  ],
  "bytecode": "0x60a06040523060601b60805234801561001757600080fd5b5060805160601c612bf161004b60003960008181610a0001528181610a4001528181610c210152610c610152612bf16000f3fe60806040526004361061020f5760003560e01c80634f1ef28611610118578063a217fddf116100a0578063ca73419e1161006f578063ca73419e1461060f578063d53913931461062f578063d547741f14610663578063dd62ed3e14610683578063f36c8f5c146106c957600080fd5b8063a217fddf1461058d578063a457c2d7146105a2578063a9059cbb146105c2578063aaf10f42146105e257600080fd5b806370a08231116100e757806370a08231146104ed57806391d148541461052357806395d89b41146105435780639711715a14610558578063981b24d01461056d57600080fd5b80634f1ef286146104835780635439ad861461049657806362b199c5146104ab5780636ae459bd146104cd57600080fd5b8063322587941161019b57806340c10f191161016a57806340c10f19146103df578063410b2424146103ff57806343ffa64e1461042157806347757fb6146104435780634ee2cd7e1461046357600080fd5b8063322587941461035f57806336568abe1461037f5780633659cfe61461039f57806339509351146103bf57600080fd5b806323b872dd116101e257806323b872dd146102aa578063248a9ca3146102ca578063253279ad146102fa5780632f2ff15d1461031c578063313ce5671461033c57600080fd5b806301ffc9a71461021457806306fdde0314610249578063095ea7b31461026b57806318160ddd1461028b575b600080fd5b34801561022057600080fd5b5061023461022f36600461275a565b6106eb565b60405190151581526020015b60405180910390f35b34801561025557600080fd5b5061025e610722565b6040516102409190612899565b34801561027757600080fd5b50610234610286366004612646565b6107b4565b34801561029757600080fd5b506067545b604051908152602001610240565b3480156102b657600080fd5b506102346102c53660046125a8565b6107ca565b3480156102d657600080fd5b5061029c6102e536600461271e565b600090815260fb602052604090206001015490565b34801561030657600080fd5b5061031a610315366004612784565b61087b565b005b34801561032857600080fd5b5061031a610337366004612737565b610954565b34801561034857600080fd5b506101605460405160ff9091168152602001610240565b34801561036b57600080fd5b5061031a61037a366004612670565b61096c565b34801561038b57600080fd5b5061031a61039a366004612737565b6109e1565b3480156103ab57600080fd5b5061031a6103ba36600461255a565b6109f5565b3480156103cb57600080fd5b506102346103da366004612646565b610abe565b3480156103eb57600080fd5b5061031a6103fa366004612646565b610afa565b34801561040b57600080fd5b5061029c600080516020612b5583398151915281565b34801561042d57600080fd5b5061029c600080516020612b1583398151915281565b34801561044f57600080fd5b5061031a61045e36600461255a565b610b34565b34801561046f57600080fd5b5061029c61047e366004612646565b610b71565b61031a6104913660046125e4565b610c16565b3480156104a257600080fd5b5061029c610ccc565b3480156104b757600080fd5b5061029c600080516020612af583398151915281565b3480156104d957600080fd5b5061031a6104e83660046126b2565b610ce9565b3480156104f957600080fd5b5061029c61050836600461255a565b6001600160a01b031660009081526065602052604090205490565b34801561052f57600080fd5b5061023461053e366004612737565b610dc8565b34801561054f57600080fd5b5061025e610df3565b34801561056457600080fd5b5061031a610e02565b34801561057957600080fd5b5061029c61058836600461271e565b610e0a565b34801561059957600080fd5b5061029c600081565b3480156105ae57600080fd5b506102346105bd366004612646565b610e75565b3480156105ce57600080fd5b506102346105dd366004612646565b610f0e565b3480156105ee57600080fd5b506105f7610f1b565b6040516001600160a01b039091168152602001610240565b34801561061b57600080fd5b5061031a61062a366004612670565b610f25565b34801561063b57600080fd5b5061029c7ff9424f4303d7f03683a025eb8885734ad99b47df7749d9b0a02cbc985809700b81565b34801561066f57600080fd5b5061031a61067e366004612737565b610f94565b34801561068f57600080fd5b5061029c61069e366004612575565b6001600160a01b03918216600090815260666020908152604080832093909416825291909152205490565b3480156106d557600080fd5b5061029c600080516020612b3583398151915281565b60006001600160e01b03198216637965db0b60e01b148061071c57506301ffc9a760e01b6001600160e01b03198316145b92915050565b60606068805461073190612a62565b80601f016020809104026020016040519081016040528092919081815260200182805461075d90612a62565b80156107aa5780601f1061077f576101008083540402835291602001916107aa565b820191906000526020600020905b81548152906001019060200180831161078d57829003601f168201915b5050505050905090565b60006107c1338484610fba565b50600192915050565b60006107d78484846110de565b6001600160a01b0384166000908152606660209081526040808320338452909152902054828110156108615760405162461bcd60e51b815260206004820152602860248201527f45524332303a207472616e7366657220616d6f756e74206578636565647320616044820152676c6c6f77616e636560c01b60648201526084015b60405180910390fd5b61086e8533858403610fba565b60019150505b9392505050565b600054610100900460ff166108965760005460ff161561089a565b303b155b6108fd5760405162461bcd60e51b815260206004820152602e60248201527f496e697469616c697a61626c653a20636f6e747261637420697320616c72656160448201526d191e481a5b9a5d1a585b1a5e995960921b6064820152608401610858565b600054610100900460ff1615801561091f576000805461ffff19166101011790555b61092b858585856112b7565b6109336112fa565b61093b611349565b801561094d576000805461ff00191690555b5050505050565b61095e8282611370565b61096882826113ff565b5050565b600080516020612b558339815191526109858133611425565b60005b828110156109db576109c9600080516020612af58339815191528585848181106109b4576109b4612ac8565b905060200201602081019061067e919061255a565b806109d381612a97565b915050610988565b50505050565b6109eb8282611489565b61096882826114f1565b306001600160a01b037f0000000000000000000000000000000000000000000000000000000000000000161415610a3e5760405162461bcd60e51b8152600401610858906128cc565b7f00000000000000000000000000000000000000000000000000000000000000006001600160a01b0316610a7061156b565b6001600160a01b031614610a965760405162461bcd60e51b815260040161085890612918565b610a9f81611599565b60408051600080825260208201909252610abb9183919061161b565b50565b3360008181526066602090815260408083206001600160a01b038716845290915281205490916107c1918590610af59086906129af565b610fba565b7ff9424f4303d7f03683a025eb8885734ad99b47df7749d9b0a02cbc985809700b610b258133611425565b610b2f838361175f565b505050565b600080516020612b35833981519152610b4d8133611425565b5061012d80546001600160a01b0319166001600160a01b0392909216919091179055565b604080516001600160a01b0384166020808301919091527ffbf1c7065455eb4486649b8540f24ef2dd4ebedf2aa423f0039d17c2c75dea15828401528251808303840181526060909201909252805191012060009081610bd28260016129af565b9050600080610be286858561184a565b9150915081610c09576001600160a01b038716600090815260656020526040902054610c0b565b805b979650505050505050565b306001600160a01b037f0000000000000000000000000000000000000000000000000000000000000000161415610c5f5760405162461bcd60e51b8152600401610858906128cc565b7f00000000000000000000000000000000000000000000000000000000000000006001600160a01b0316610c9161156b565b6001600160a01b031614610cb75760405162461bcd60e51b815260040161085890612918565b610cc082611599565b6109688282600161161b565b6000610ce4600080516020612b9c8339815191525490565b905090565b7ff9424f4303d7f03683a025eb8885734ad99b47df7749d9b0a02cbc985809700b610d148133611425565b838214610d5b5760405162461bcd60e51b8152602060048201526015602482015274082e4e4c2f240d8cadccee8d040dad2e6dac2e8c6d605b1b6044820152606401610858565b60005b84811015610dc057610dae868683818110610d7b57610d7b612ac8565b9050602002016020810190610d90919061255a565b858584818110610da257610da2612ac8565b9050602002013561175f565b80610db881612a97565b915050610d5e565b505050505050565b600091825260fb602090815260408084206001600160a01b0393909316845291905290205460ff1690565b60606069805461073190612a62565b610abb611935565b6000806000610e5a847f286a9db37a0f8ddcbcee127c9f4f56031230f49cb46786f87e166d552e11f67e7ffcaa8bb100d3c5b627eac0369cc1d2778dbeffa2993d08f039fb27795729e9a561184a565b9150915081610e6b57606754610e6d565b805b949350505050565b3360009081526066602090815260408083206001600160a01b038616845290915281205482811015610ef75760405162461bcd60e51b815260206004820152602560248201527f45524332303a2064656372656173656420616c6c6f77616e63652062656c6f77604482015264207a65726f60d81b6064820152608401610858565b610f043385858403610fba565b5060019392505050565b60006107c13384846110de565b6000610ce461156b565b600080516020612b55833981519152610f3e8133611425565b60005b828110156109db57610f82600080516020612af5833981519152858584818110610f6d57610f6d612ac8565b9050602002016020810190610337919061255a565b80610f8c81612a97565b915050610f41565b600082815260fb6020526040902060010154610fb08133611425565b610b2f83836119a5565b6001600160a01b03831661101c5760405162461bcd60e51b8152602060048201526024808201527f45524332303a20617070726f76652066726f6d20746865207a65726f206164646044820152637265737360e01b6064820152608401610858565b6001600160a01b03821661107d5760405162461bcd60e51b815260206004820152602260248201527f45524332303a20617070726f766520746f20746865207a65726f206164647265604482015261737360f01b6064820152608401610858565b6001600160a01b0383811660008181526066602090815260408083209487168084529482529182902085905590518481527f8c5be1e5ebec7d5bd14f71427d1e84f3dd0314c0f7b2291e5b200ac8c7c3b925910160405180910390a3505050565b6001600160a01b0383166111425760405162461bcd60e51b815260206004820152602560248201527f45524332303a207472616e736665722066726f6d20746865207a65726f206164604482015264647265737360d81b6064820152608401610858565b6001600160a01b0382166111a45760405162461bcd60e51b815260206004820152602360248201527f45524332303a207472616e7366657220746f20746865207a65726f206164647260448201526265737360e81b6064820152608401610858565b6111af838383611a0c565b6001600160a01b038316600090815260656020526040902054818110156112275760405162461bcd60e51b815260206004820152602660248201527f45524332303a207472616e7366657220616d6f756e7420657863656564732062604482015265616c616e636560d01b6064820152608401610858565b6001600160a01b0380851660009081526065602052604080822085850390559185168152908120805484929061125e9084906129af565b92505081905550826001600160a01b0316846001600160a01b03167fddf252ad1be2c89b69c2b068fc378daa952ba7f163c4a11628f55a4df523b3ef846040516112aa91815260200190565b60405180910390a36109db565b600054610100900460ff166112de5760405162461bcd60e51b815260040161085890612964565b6112e6611a22565b6112f08484611a79565b6109db8282611ac7565b600054610100900460ff166113215760405162461bcd60e51b815260040161085890612964565b611347600080516020612af5833981519152600080516020612b55833981519152611b08565b565b600054610100900460ff166113475760405162461bcd60e51b815260040161085890612964565b600080516020612b5583398151915282148061138a575081155b15610968576113a7600080516020612af583398151915282610dc8565b156109685760405162461bcd60e51b815260206004820152602260248201527f63616e206e6f742061737369676e20726f6c6520746f20626c61636b6c697374604482015261195960f21b6064820152608401610858565b600082815260fb602052604090206001015461141b8133611425565b610b2f8383611b53565b61142f8282610dc8565b61096857611447816001600160a01b03166014611bd9565b611452836020611bd9565b604051602001611463929190612824565b60408051601f198184030181529082905262461bcd60e51b825261085891600401612899565b600080516020612af58339815191528214156109685760405162461bcd60e51b815260206004820152602160248201527f43616e206e6f742072656e6f756e636520626c61636b6c697374656420726f6c6044820152606560f81b6064820152608401610858565b6001600160a01b03811633146115615760405162461bcd60e51b815260206004820152602f60248201527f416363657373436f6e74726f6c3a2063616e206f6e6c792072656e6f756e636560448201526e103937b632b9903337b91039b2b63360891b6064820152608401610858565b61096882826119a5565b7f360894a13ba1a3210667c828492db98dca3e2076cc3735a920a3ca505d382bbc546001600160a01b031690565b6115b1600080516020612b3583398151915233610dc8565b806115cf57506115cf600080516020612b1583398151915233610dc8565b610abb5760405162461bcd60e51b815260206004820152601d60248201527f4552524f523a2041646472657373206e6f7420617574686f72697a65640000006044820152606401610858565b600061162561156b565b905061163084611d75565b60008351118061163d5750815b1561164e5761164c8484611e1a565b505b7f4910fdfa16fed3260ed0e7147f7cc6da11a60208b5b9406d12a635614ffd9143805460ff1661094d57805460ff191660011781556040516001600160a01b03831660248201526116cd90869060440160408051601f198184030181529190526020810180516001600160e01b0316631b2ce7f360e11b179052611e1a565b50805460ff191681556116de61156b565b6001600160a01b0316826001600160a01b0316146117565760405162461bcd60e51b815260206004820152602f60248201527f45524331393637557067726164653a207570677261646520627265616b73206660448201526e75727468657220757067726164657360881b6064820152608401610858565b61094d85611f05565b6001600160a01b0382166117b55760405162461bcd60e51b815260206004820152601f60248201527f45524332303a206d696e7420746f20746865207a65726f2061646472657373006044820152606401610858565b6117c160008383611a0c565b80606760008282546117d391906129af565b90915550506001600160a01b038216600090815260656020526040812080548392906118009084906129af565b90915550506040518181526001600160a01b038316906000907fddf252ad1be2c89b69c2b068fc378daa952ba7f163c4a11628f55a4df523b3ef9060200160405180910390a35050565b600080600085116118965760405162461bcd60e51b815260206004820152601660248201527504552433230536e617073686f743a20696420697320360541b6044820152606401610858565b600080516020612b9c833981519152548511156118f55760405162461bcd60e51b815260206004820152601d60248201527f4552433230536e617073686f743a206e6f6e6578697374656e742069640000006044820152606401610858565b60006119018587611f45565b9050845481141561191957600080925092505061192d565b60016119258583611fe4565b549093509150505b935093915050565b60006001600080516020612b9c83398151915280546000906119589084906129af565b9091555050600080516020612b9c833981519152546040518181527f8030e83b04d87bef53480e26263266d6ca66863aa8506aca6f2559d18aa1cb679060200160405180910390a1919050565b6119af8282610dc8565b1561096857600082815260fb602090815260408083206001600160a01b0385168085529252808320805460ff1916905551339285917ff6391f5c32d9c69d2a47ea670b442974b53935d1edc7fd64eb21e047a839171b9190a45050565b611a17838383612063565b610b2f838383612079565b600054610100900460ff16611a495760405162461bcd60e51b815260040161085890612964565b611a51611349565b611a59611349565b611a61611349565b611a69611349565b611a71611349565b6113476120c1565b600054610100900460ff16611aa05760405162461bcd60e51b815260040161085890612964565b8151611ab39060689060208501906123c3565b508051610b2f9060699060208401906123c3565b600054610100900460ff16611aee5760405162461bcd60e51b815260040161085890612964565b610160805460ff191660ff8416179055610968338261175f565b600082815260fb6020526040808220600101805490849055905190918391839186917fbd79b86ffe0ab8e8776151514217cd7cacd52c909f66475c3af44e129f0b00ff9190a4505050565b611b5d8282610dc8565b61096857600082815260fb602090815260408083206001600160a01b03851684529091529020805460ff19166001179055611b953390565b6001600160a01b0316816001600160a01b0316837f2f8788117e7eff1d82e926ec794901d17c78024a50270940304540a733656f0d60405160405180910390a45050565b60606000611be88360026129e9565b611bf39060026129af565b67ffffffffffffffff811115611c0b57611c0b612ade565b6040519080825280601f01601f191660200182016040528015611c35576020820181803683370190505b509050600360fc1b81600081518110611c5057611c50612ac8565b60200101906001600160f81b031916908160001a905350600f60fb1b81600181518110611c7f57611c7f612ac8565b60200101906001600160f81b031916908160001a9053506000611ca38460026129e9565b611cae9060016129af565b90505b6001811115611d26576f181899199a1a9b1b9c1cb0b131b232b360811b85600f1660108110611ce257611ce2612ac8565b1a60f81b828281518110611cf857611cf8612ac8565b60200101906001600160f81b031916908160001a90535060049490941c93611d1f81612a4b565b9050611cb1565b5083156108745760405162461bcd60e51b815260206004820181905260248201527f537472696e67733a20686578206c656e67746820696e73756666696369656e746044820152606401610858565b803b611dd95760405162461bcd60e51b815260206004820152602d60248201527f455243313936373a206e657720696d706c656d656e746174696f6e206973206e60448201526c1bdd08184818dbdb9d1c9858dd609a1b6064820152608401610858565b7f360894a13ba1a3210667c828492db98dca3e2076cc3735a920a3ca505d382bbc80546001600160a01b0319166001600160a01b0392909216919091179055565b6060823b611e795760405162461bcd60e51b815260206004820152602660248201527f416464726573733a2064656c65676174652063616c6c20746f206e6f6e2d636f6044820152651b9d1c9858dd60d21b6064820152608401610858565b600080846001600160a01b031684604051611e949190612808565b600060405180830381855af49150503d8060008114611ecf576040519150601f19603f3d011682016040523d82523d6000602084013e611ed4565b606091505b5091509150611efc8282604051806060016040528060278152602001612b7560279139612149565b95945050505050565b611f0e81611d75565b6040516001600160a01b038216907fbc7cd75a20ee27fd9adebab32041f755214dbc6bffa90cc0225b39da2e5c2d3b90600090a250565b8154600090819080611f5c5760009250505061071c565b80821015611fa0576000611f708383612182565b905084611f7d8783611fe4565b541115611f8c57809150611f9a565b611f978160016129af565b92505b50611f5c565b600082118015611fc3575083611fc086611fbb600186612a08565b611fe4565b54145b15611fdc57611fd3600183612a08565b9250505061071c565b50905061071c565b60008254821061202c5760405162461bcd60e51b815260206004820152601360248201527211549493d48e8813dd5d081bd988189bdd5b99606a1b6044820152606401610858565b818360405160200161204091815260200190565b6040516020818303038152906040528051906020012060001c61087491906129af565b61206e838383611a17565b610b2f83838361219d565b6001600160a01b03831661209857612090826121f5565b610b2f61227f565b6001600160a01b0382166120af57612090836121f5565b6120b8836121f5565b610b2f826121f5565b600054610100900460ff166120e85760405162461bcd60e51b815260040161085890612964565b6120f36000336122cd565b61210b600080516020612b35833981519152336122cd565b612123600080516020612b15833981519152336122cd565b611347600080516020612b15833981519152600080516020612b35833981519152611b08565b60608315612158575081610874565b8251156121685782518084602001fd5b8160405162461bcd60e51b81526004016108589190612899565b600061219160028484186129c7565b610874908484166129af565b6121a83384846122d7565b15610b2f5760405162461bcd60e51b815260206004820152601a60248201527f4552524f523a204164647265737320426c61636b6c69737465640000000000006044820152606401610858565b604080516001600160a01b0383166020808301919091527ffbf1c7065455eb4486649b8540f24ef2dd4ebedf2aa423f0039d17c2c75dea15828401528251808303840181526060909201909252805191012060006122548260016129af565b9050610b2f828261227a866001600160a01b031660009081526065602052604090205490565b61232d565b6113477f286a9db37a0f8ddcbcee127c9f4f56031230f49cb46786f87e166d552e11f67e7ffcaa8bb100d3c5b627eac0369cc1d2778dbeffa2993d08f039fb27795729e9a561227a60675490565b6109688282611b53565b60006122f1600080516020612af583398151915284610dc8565b8061230f575061230f600080516020612af583398151915285610dc8565b80610e6d5750610e6d600080516020612af583398151915283610dc8565b6000612345600080516020612b9c8339815191525490565b9050806123518561236b565b10156109db57612361848261239b565b6109db838361239b565b80546000908061237e5750600092915050565b61238d83611fbb600184612a08565b549392505050565b50919050565b815460018360006123ac83856129af565b909155508290506123bd8483611fe4565b55505050565b8280546123cf90612a62565b90600052602060002090601f0160209004810192826123f15760008555612437565b82601f1061240a57805160ff1916838001178555612437565b82800160010185558215612437579182015b8281111561243757825182559160200191906001019061241c565b50612443929150612447565b5090565b5b808211156124435760008155600101612448565b600067ffffffffffffffff8084111561247757612477612ade565b604051601f8501601f19908116603f0116810190828211818310171561249f5761249f612ade565b816040528093508581528686860111156124b857600080fd5b858560208301376000602087830101525050509392505050565b80356001600160a01b03811681146124e957600080fd5b919050565b60008083601f84011261250057600080fd5b50813567ffffffffffffffff81111561251857600080fd5b6020830191508360208260051b850101111561253357600080fd5b9250929050565b600082601f83011261254b57600080fd5b6108748383356020850161245c565b60006020828403121561256c57600080fd5b610874826124d2565b6000806040838503121561258857600080fd5b612591836124d2565b915061259f602084016124d2565b90509250929050565b6000806000606084860312156125bd57600080fd5b6125c6846124d2565b92506125d4602085016124d2565b9150604084013590509250925092565b600080604083850312156125f757600080fd5b612600836124d2565b9150602083013567ffffffffffffffff81111561261c57600080fd5b8301601f8101851361262d57600080fd5b61263c8582356020840161245c565b9150509250929050565b6000806040838503121561265957600080fd5b612662836124d2565b946020939093013593505050565b6000806020838503121561268357600080fd5b823567ffffffffffffffff81111561269a57600080fd5b6126a6858286016124ee565b90969095509350505050565b600080600080604085870312156126c857600080fd5b843567ffffffffffffffff808211156126e057600080fd5b6126ec888389016124ee565b9096509450602087013591508082111561270557600080fd5b50612712878288016124ee565b95989497509550505050565b60006020828403121561273057600080fd5b5035919050565b6000806040838503121561274a57600080fd5b8235915061259f602084016124d2565b60006020828403121561276c57600080fd5b81356001600160e01b03198116811461087457600080fd5b6000806000806080858703121561279a57600080fd5b843567ffffffffffffffff808211156127b257600080fd5b6127be8883890161253a565b955060208701359150808211156127d457600080fd5b506127e18782880161253a565b935050604085013560ff811681146127f857600080fd5b9396929550929360600135925050565b6000825161281a818460208701612a1f565b9190910192915050565b7f416363657373436f6e74726f6c3a206163636f756e742000000000000000000081526000835161285c816017850160208801612a1f565b7001034b99036b4b9b9b4b733903937b6329607d1b601791840191820152835161288d816028840160208801612a1f565b01602801949350505050565b60208152600082518060208401526128b8816040850160208701612a1f565b601f01601f19169190910160400192915050565b6020808252602c908201527f46756e6374696f6e206d7573742062652063616c6c6564207468726f7567682060408201526b19195b1959d85d1958d85b1b60a21b606082015260800190565b6020808252602c908201527f46756e6374696f6e206d7573742062652063616c6c6564207468726f7567682060408201526b6163746976652070726f787960a01b606082015260800190565b6020808252602b908201527f496e697469616c697a61626c653a20636f6e7472616374206973206e6f74206960408201526a6e697469616c697a696e6760a81b606082015260800190565b600082198211156129c2576129c2612ab2565b500190565b6000826129e457634e487b7160e01b600052601260045260246000fd5b500490565b6000816000190483118215151615612a0357612a03612ab2565b500290565b600082821015612a1a57612a1a612ab2565b500390565b60005b83811015612a3a578181015183820152602001612a22565b838111156109db5750506000910152565b600081612a5a57612a5a612ab2565b506000190190565b600181811c90821680612a7657607f821691505b6020821081141561239557634e487b7160e01b600052602260045260246000fd5b6000600019821415612aab57612aab612ab2565b5060010190565b634e487b7160e01b600052601160045260246000fd5b634e487b7160e01b600052603260045260246000fd5b634e487b7160e01b600052604160045260246000fdfe548c7f0307ab2a7ea894e5c7e8c5353cc750bb9385ee2e945f189a9a83daa8eda76ace73a908083d89af9ff88e5b4f7cadb3591a80631063f68b695fda726db571840dc4906352362b0cdaf79870196c8e42acafade72d5d5a6d59291253ceb1f988e4fb62b8e14f4820fed03192306ddf4d7dbfa215595ba1c6ba4b76b369ee416464726573733a206c6f772d6c6576656c2064656c65676174652063616c6c206661696c65640d0a0ed3351c10a57d74a44b40c06e0946288e4e3816ac07bb89db2a755562e7a26469706673582212209dcf23dac6243bb98eb555e8ff0a494a5fc4359f2bfab62424952167da01dfae64736f6c63430008060033",
  "linkReferences": {},
  "deployedLinkReferences": {}
}