{
  "_format": "hh-sol-artifact-1",
  "name": "BlacklistBurnSnapshotTxFeeWhiteListTemplate",
  "initializer": "function initialize(string name_, string symbol_, uint8 decimals_, uint256 amount_, uint256 txFee, address txFeeBeneficiary)",
  "sourceName": "contracts/templates/BlacklistBurnSnapshotTxFeeWhiteListTemplate.sol",
  "abi": [
    {
      "anonymous": false,
      "inputs": [
        {
          "indexed": false,
          "internalType": "address",
          "name": "previousAdmin",
          "type": "address"
        },
        {
          "indexed": false,
          "internalType": "address",
          "name": "newAdmin",
          "type": "address"
        }
      ],
      "name": "AdminChanged",
      "type": "event"
    },
    {
      "anonymous": false,
      "inputs": [
        {
          "indexed": true,
          "internalType": "address",
          "name": "owner",
          "type": "address"
        },
        {
          "indexed": true,
          "internalType": "address",
          "name": "spender",
          "type": "address"
        },
        {
          "indexed": false,
          "internalType": "uint256",
          "name": "value",
          "type": "uint256"
        }
      ],
      "name": "Approval",
      "type": "event"
    },
    {
      "anonymous": false,
      "inputs": [
        {
          "indexed": true,
          "internalType": "address",
          "name": "beacon",
          "type": "address"
        }
      ],
      "name": "BeaconUpgraded",
      "type": "event"
    },
    {
      "anonymous": false,
      "inputs": [
        {
          "indexed": false,
          "internalType": "address",
          "name": "account",
          "type": "address"
        }
      ],
      "name": "Paused",
      "type": "event"
    },
    {
      "anonymous": false,
      "inputs": [
        {
          "indexed": true,
          "internalType": "bytes32",
          "name": "role",
          "type": "bytes32"
        },
        {
          "indexed": true,
          "internalType": "bytes32",
          "name": "previousAdminRole",
          "type": "bytes32"
        },
        {
          "indexed": true,
          "internalType": "bytes32",
          "name": "newAdminRole",
          "type": "bytes32"
        }
      ],
      "name": "RoleAdminChanged",
      "type": "event"
    },
    {
      "anonymous": false,
      "inputs": [
        {
          "indexed": true,
          "internalType": "bytes32",
          "name": "role",
          "type": "bytes32"
        },
        {
          "indexed": true,
          "internalType": "address",
          "name": "account",
          "type": "address"
        },
        {
          "indexed": true,
          "internalType": "address",
          "name": "sender",
          "type": "address"
        }
      ],
      "name": "RoleGranted",
      "type": "event"
    },
    {
      "anonymous": false,
      "inputs": [
        {
          "indexed": true,
          "internalType": "bytes32",
          "name": "role",
          "type": "bytes32"
        },
        {
          "indexed": true,
          "internalType": "address",
          "name": "account",
          "type": "address"
        },
        {
          "indexed": true,
          "internalType": "address",
          "name": "sender",
          "type": "address"
        }
      ],
      "name": "RoleRevoked",
      "type": "event"
    },
    {
      "anonymous": false,
      "inputs": [
        {
          "indexed": false,
          "internalType": "uint256",
          "name": "id",
          "type": "uint256"
        }
      ],
      "name": "Snapshot",
      "type": "event"
    },
    {
      "anonymous": false,
      "inputs": [
        {
          "indexed": true,
          "internalType": "address",
          "name": "from",
          "type": "address"
        },
        {
          "indexed": true,
          "internalType": "address",
          "name": "to",
          "type": "address"
        },
        {
          "indexed": false,
          "internalType": "uint256",
          "name": "value",
          "type": "uint256"
        }
      ],
      "name": "Transfer",
      "type": "event"
    },
    {
      "anonymous": false,
      "inputs": [
        {
          "indexed": false,
          "internalType": "address",
          "name": "account",
          "type": "address"
        }
      ],
      "name": "Unpaused",
      "type": "event"
    },
    {
      "anonymous": false,
      "inputs": [
        {
          "indexed": true,
          "internalType": "address",
          "name": "implementation",
          "type": "address"
        }
      ],
      "name": "Upgraded",
      "type": "event"
    },
    {
      "inputs": [],
      "name": "BLACKLISTED_ROLE",
      "outputs": [
        {
          "internalType": "bytes32",
          "name": "",
          "type": "bytes32"
        }
      ],
      "stateMutability": "view",
      "type": "function"
    },
    {
      "inputs": [],
      "name": "BLACKLIST_MANAGER_ROLE",
      "outputs": [
        {
          "internalType": "bytes32",
          "name": "",
          "type": "bytes32"
        }
      ],
      "stateMutability": "view",
      "type": "function"
    },
    {
      "inputs": [],
      "name": "DEFAULT_ADMIN_ROLE",
      "outputs": [
        {
          "internalType": "bytes32",
          "name": "",
          "type": "bytes32"
        }
      ],
      "stateMutability": "view",
      "type": "function"
    },
    {
      "inputs": [],
      "name": "GOVERNANCE_ROLE",
      "outputs": [
        {
          "internalType": "bytes32",
          "name": "",
          "type": "bytes32"
        }
      ],
      "stateMutability": "view",
      "type": "function"
    },
    {
      "inputs": [],
      "name": "PAUSE_MANAGER_ROLE",
      "outputs": [
        {
          "internalType": "bytes32",
          "name": "",
          "type": "bytes32"
        }
      ],
      "stateMutability": "view",
      "type": "function"
    },
    {
      "inputs": [],
      "name": "UPGRADE_MANAGER_ROLE",
      "outputs": [
        {
          "internalType": "bytes32",
          "name": "",
          "type": "bytes32"
        }
      ],
      "stateMutability": "view",
      "type": "function"
    },
    {
      "inputs": [],
      "name": "WHITELISTED_FROM_ROLE",
      "outputs": [
        {
          "internalType": "bytes32",
          "name": "",
          "type": "bytes32"
        }
      ],
      "stateMutability": "view",
      "type": "function"
    },
    {
      "inputs": [],
      "name": "WHITELISTED_SENDER_ROLE",
      "outputs": [
        {
          "internalType": "bytes32",
          "name": "",
          "type": "bytes32"
        }
      ],
      "stateMutability": "view",
      "type": "function"
    },
    {
      "inputs": [
        {
          "internalType": "address[]",
          "name": "addresses",
          "type": "address[]"
        }
      ],
      "name": "addAddressesToBlacklist",
      "outputs": [],
      "stateMutability": "nonpayable",
      "type": "function"
    },
    {
      "inputs": [
        {
          "internalType": "address[]",
          "name": "addresses",
          "type": "address[]"
        }
      ],
      "name": "addAddressesToWhitelistFrom",
      "outputs": [],
      "stateMutability": "nonpayable",
      "type": "function"
    },
    {
      "inputs": [
        {
          "internalType": "address[]",
          "name": "addresses",
          "type": "address[]"
        }
      ],
      "name": "addAddressesToWhitelistSender",
      "outputs": [],
      "stateMutability": "nonpayable",
      "type": "function"
    },
    {
      "inputs": [
        {
          "internalType": "address",
          "name": "owner",
          "type": "address"
        },
        {
          "internalType": "address",
          "name": "spender",
          "type": "address"
        }
      ],
      "name": "allowance",
      "outputs": [
        {
          "internalType": "uint256",
          "name": "",
          "type": "uint256"
        }
      ],
      "stateMutability": "view",
      "type": "function"
    },
    {
      "inputs": [
        {
          "internalType": "address",
          "name": "spender",
          "type": "address"
        },
        {
          "internalType": "uint256",
          "name": "amount",
          "type": "uint256"
        }
      ],
      "name": "approve",
      "outputs": [
        {
          "internalType": "bool",
          "name": "",
          "type": "bool"
        }
      ],
      "stateMutability": "nonpayable",
      "type": "function"
    },
    {
      "inputs": [
        {
          "internalType": "address",
          "name": "account",
          "type": "address"
        }
      ],
      "name": "balanceOf",
      "outputs": [
        {
          "internalType": "uint256",
          "name": "",
          "type": "uint256"
        }
      ],
      "stateMutability": "view",
      "type": "function"
    },
    {
      "inputs": [
        {
          "internalType": "address",
          "name": "account",
          "type": "address"
        },
        {
          "internalType": "uint256",
          "name": "snapshotId",
          "type": "uint256"
        }
      ],
      "name": "balanceOfAt",
      "outputs": [
        {
          "internalType": "uint256",
          "name": "",
          "type": "uint256"
        }
      ],
      "stateMutability": "view",
      "type": "function"
    },
    {
      "inputs": [
        {
          "internalType": "uint256",
          "name": "amount",
          "type": "uint256"
        }
      ],
      "name": "burn",
      "outputs": [],
      "stateMutability": "nonpayable",
      "type": "function"
    },
    {
      "inputs": [
        {
          "internalType": "address",
          "name": "account",
          "type": "address"
        },
        {
          "internalType": "uint256",
          "name": "amount",
          "type": "uint256"
        }
      ],
      "name": "burnFrom",
      "outputs": [],
      "stateMutability": "nonpayable",
      "type": "function"
    },
    {
      "inputs": [
        {
          "internalType": "uint256",
          "name": "newTxFee",
          "type": "uint256"
        },
        {
          "internalType": "address",
          "name": "newTxBeneficiary",
          "type": "address"
        }
      ],
      "name": "changeTxFeeProperties",
      "outputs": [],
      "stateMutability": "nonpayable",
      "type": "function"
    },
    {
      "inputs": [],
      "name": "decimals",
      "outputs": [
        {
          "internalType": "uint8",
          "name": "",
          "type": "uint8"
        }
      ],
      "stateMutability": "view",
      "type": "function"
    },
    {
      "inputs": [
        {
          "internalType": "address",
          "name": "spender",
          "type": "address"
        },
        {
          "internalType": "uint256",
          "name": "subtractedValue",
          "type": "uint256"
        }
      ],
      "name": "decreaseAllowance",
      "outputs": [
        {
          "internalType": "bool",
          "name": "",
          "type": "bool"
        }
      ],
      "stateMutability": "nonpayable",
      "type": "function"
    },
    {
      "inputs": [],
      "name": "getCurrentSnapshotId",
      "outputs": [
        {
          "internalType": "uint256",
          "name": "",
          "type": "uint256"
        }
      ],
      "stateMutability": "view",
      "type": "function"
    },
    {
      "inputs": [],
      "name": "getImplementation",
      "outputs": [
        {
          "internalType": "address",
          "name": "",
          "type": "address"
        }
      ],
      "stateMutability": "view",
      "type": "function"
    },
    {
      "inputs": [
        {
          "internalType": "bytes32",
          "name": "role",
          "type": "bytes32"
        }
      ],
      "name": "getRoleAdmin",
      "outputs": [
        {
          "internalType": "bytes32",
          "name": "",
          "type": "bytes32"
        }
      ],
      "stateMutability": "view",
      "type": "function"
    },
    {
      "inputs": [
        {
          "internalType": "bytes32",
          "name": "role",
          "type": "bytes32"
        },
        {
          "internalType": "address",
          "name": "account",
          "type": "address"
        }
      ],
      "name": "grantRole",
      "outputs": [],
      "stateMutability": "nonpayable",
      "type": "function"
    },
    {
      "inputs": [
        {
          "internalType": "bytes32",
          "name": "role",
          "type": "bytes32"
        },
        {
          "internalType": "address",
          "name": "account",
          "type": "address"
        }
      ],
      "name": "hasRole",
      "outputs": [
        {
          "internalType": "bool",
          "name": "",
          "type": "bool"
        }
      ],
      "stateMutability": "view",
      "type": "function"
    },
    {
      "inputs": [
        {
          "internalType": "address",
          "name": "spender",
          "type": "address"
        },
        {
          "internalType": "uint256",
          "name": "addedValue",
          "type": "uint256"
        }
      ],
      "name": "increaseAllowance",
      "outputs": [
        {
          "internalType": "bool",
          "name": "",
          "type": "bool"
        }
      ],
      "stateMutability": "nonpayable",
      "type": "function"
    },
    {
      "inputs": [
        {
          "internalType": "string",
          "name": "name_",
          "type": "string"
        },
        {
          "internalType": "string",
          "name": "symbol_",
          "type": "string"
        },
        {
          "internalType": "uint8",
          "name": "decimals_",
          "type": "uint8"
        },
        {
          "internalType": "uint256",
          "name": "amount_",
          "type": "uint256"
        },
        {
          "internalType": "uint256",
          "name": "txFee",
          "type": "uint256"
        },
        {
          "internalType": "address",
          "name": "txFeeBeneficiary",
          "type": "address"
        }
      ],
      "name": "initialize",
      "outputs": [],
      "stateMutability": "nonpayable",
      "type": "function"
    },
    {
      "inputs": [],
      "name": "name",
      "outputs": [
        {
          "internalType": "string",
          "name": "",
          "type": "string"
        }
      ],
      "stateMutability": "view",
      "type": "function"
    },
    {
      "inputs": [],
      "name": "pause",
      "outputs": [],
      "stateMutability": "nonpayable",
      "type": "function"
    },
    {
      "inputs": [],
      "name": "paused",
      "outputs": [
        {
          "internalType": "bool",
          "name": "",
          "type": "bool"
        }
      ],
      "stateMutability": "view",
      "type": "function"
    },
    {
      "inputs": [
        {
          "internalType": "address",
          "name": "implementationAddress",
          "type": "address"
        }
      ],
      "name": "proposeNewImplementation",
      "outputs": [],
      "stateMutability": "nonpayable",
      "type": "function"
    },
    {
      "inputs": [
        {
          "internalType": "address[]",
          "name": "addresses",
          "type": "address[]"
        }
      ],
      "name": "removeAddressesFromBlacklist",
      "outputs": [],
      "stateMutability": "nonpayable",
      "type": "function"
    },
    {
      "inputs": [
        {
          "internalType": "address[]",
          "name": "addresses",
          "type": "address[]"
        }
      ],
      "name": "removeAddressesFromWhitelistFrom",
      "outputs": [],
      "stateMutability": "nonpayable",
      "type": "function"
    },
    {
      "inputs": [
        {
          "internalType": "address[]",
          "name": "addresses",
          "type": "address[]"
        }
      ],
      "name": "removeAddressesFromWhitelistSender",
      "outputs": [],
      "stateMutability": "nonpayable",
      "type": "function"
    },
    {
      "inputs": [
        {
          "internalType": "bytes32",
          "name": "role",
          "type": "bytes32"
        },
        {
          "internalType": "address",
          "name": "account",
          "type": "address"
        }
      ],
      "name": "renounceRole",
      "outputs": [],
      "stateMutability": "nonpayable",
      "type": "function"
    },
    {
      "inputs": [
        {
          "internalType": "bytes32",
          "name": "role",
          "type": "bytes32"
        },
        {
          "internalType": "address",
          "name": "account",
          "type": "address"
        }
      ],
      "name": "revokeRole",
      "outputs": [],
      "stateMutability": "nonpayable",
      "type": "function"
    },
    {
      "inputs": [],
      "name": "snapshot",
      "outputs": [],
      "stateMutability": "nonpayable",
      "type": "function"
    },
    {
      "inputs": [
        {
          "internalType": "bytes4",
          "name": "interfaceId",
          "type": "bytes4"
        }
      ],
      "name": "supportsInterface",
      "outputs": [
        {
          "internalType": "bool",
          "name": "",
          "type": "bool"
        }
      ],
      "stateMutability": "view",
      "type": "function"
    },
    {
      "inputs": [],
      "name": "symbol",
      "outputs": [
        {
          "internalType": "string",
          "name": "",
          "type": "string"
        }
      ],
      "stateMutability": "view",
      "type": "function"
    },
    {
      "inputs": [],
      "name": "totalSupply",
      "outputs": [
        {
          "internalType": "uint256",
          "name": "",
          "type": "uint256"
        }
      ],
      "stateMutability": "view",
      "type": "function"
    },
    {
      "inputs": [
        {
          "internalType": "uint256",
          "name": "snapshotId",
          "type": "uint256"
        }
      ],
      "name": "totalSupplyAt",
      "outputs": [
        {
          "internalType": "uint256",
          "name": "",
          "type": "uint256"
        }
      ],
      "stateMutability": "view",
      "type": "function"
    },
    {
      "inputs": [
        {
          "internalType": "address",
          "name": "recipient",
          "type": "address"
        },
        {
          "internalType": "uint256",
          "name": "amount",
          "type": "uint256"
        }
      ],
      "name": "transfer",
      "outputs": [
        {
          "internalType": "bool",
          "name": "",
          "type": "bool"
        }
      ],
      "stateMutability": "nonpayable",
      "type": "function"
    },
    {
      "inputs": [
        {
          "internalType": "address",
          "name": "sender",
          "type": "address"
        },
        {
          "internalType": "address",
          "name": "recipient",
          "type": "address"
        },
        {
          "internalType": "uint256",
          "name": "amount",
          "type": "uint256"
        }
      ],
      "name": "transferFrom",
      "outputs": [
        {
          "internalType": "bool",
          "name": "",
          "type": "bool"
        }
      ],
      "stateMutability": "nonpayable",
      "type": "function"
    },
    {
      "inputs": [],
      "name": "unpause",
      "outputs": [],
      "stateMutability": "nonpayable",
      "type": "function"
    },
    {
      "inputs": [
        {
          "internalType": "address",
          "name": "newImplementation",
          "type": "address"
        }
      ],
      "name": "upgradeTo",
      "outputs": [],
      "stateMutability": "nonpayable",
      "type": "function"
    },
    {
      "inputs": [
        {
          "internalType": "address",
          "name": "newImplementation",
          "type": "address"
        },
        {
          "internalType": "bytes",
          "name": "data",
          "type": "bytes"
        }
      ],
      "name": "upgradeToAndCall",
      "outputs": [],
      "stateMutability": "payable",
      "type": "function"
    }
  ],
  "bytecode": "0x60a06040523060601b60805234801561001757600080fd5b5060805160601c6134b661004b60003960008181610b9b01528181610bdb01528181610dad0152610ded01526134b66000f3fe60806040526004361061027d5760003560e01c806362b199c51161014f578063a217fddf116100c1578063ca73419e1161007a578063ca73419e14610790578063d547741f146107b0578063d84f91e8146107d0578063dd62ed3e146107f2578063f36c8f5c14610838578063f834c5021461085a57600080fd5b8063a217fddf146106cc578063a457c2d7146106e1578063a9059cbb14610701578063aa74a34a14610721578063aaf10f4214610743578063c233f3b71461077057600080fd5b806379cc67901161011357806379cc67901461062d5780638456cb591461064d57806391d148541461066257806395d89b41146106825780639711715a14610697578063981b24d0146106ac57600080fd5b806362b199c514610573578063685ed81a146105955780636e79a1c0146105b557806370a08231146105d5578063731ce8fc1461060b57600080fd5b80633659cfe6116101f357806347757fb6116101ac57806347757fb6146104c65780634ee2cd7e146104e65780634f1ef286146105065780635120561a146105195780635439ad86146105395780635c975abb1461054e57600080fd5b80633659cfe61461040d578063395093511461042d5780633f4ba83a1461044d578063410b24241461046257806342966c681461048457806343ffa64e146104a457600080fd5b8063248a9ca311610245578063248a9ca3146103385780632cd77a5a146103685780632f2ff15d1461038a578063313ce567146103aa57806332258794146103cd57806336568abe146103ed57600080fd5b806301ffc9a71461028257806306fdde03146102b7578063095ea7b3146102d957806318160ddd146102f957806323b872dd14610318575b600080fd5b34801561028e57600080fd5b506102a261029d366004612f64565b61087a565b60405190151581526020015b60405180910390f35b3480156102c357600080fd5b506102cc6108b1565b6040516102ae91906130be565b3480156102e557600080fd5b506102a26102f4366004612e89565b610943565b34801561030557600080fd5b506067545b6040519081526020016102ae565b34801561032457600080fd5b506102a2610333366004612deb565b610959565b34801561034457600080fd5b5061030a610353366004612f28565b600090815260fb602052604090206001015490565b34801561037457600080fd5b50610388610383366004612f8e565b610a0a565b005b34801561039657600080fd5b506103886103a5366004612f41565b610aef565b3480156103b657600080fd5b506101605460405160ff90911681526020016102ae565b3480156103d957600080fd5b506103886103e8366004612eb3565b610b07565b3480156103f957600080fd5b50610388610408366004612f41565b610b7c565b34801561041957600080fd5b50610388610428366004612d9d565b610b90565b34801561043957600080fd5b506102a2610448366004612e89565b610c59565b34801561045957600080fd5b50610388610c95565b34801561046e57600080fd5b5061030a60008051602061339a83398151915281565b34801561049057600080fd5b5061038861049f366004612f28565b610cb6565b3480156104b057600080fd5b5061030a60008051602061335a83398151915281565b3480156104d257600080fd5b506103886104e1366004612d9d565b610cc0565b3480156104f257600080fd5b5061030a610501366004612e89565b610cfd565b610388610514366004612e27565b610da2565b34801561052557600080fd5b50610388610534366004612f41565b610e58565b34801561054557600080fd5b5061030a610ecd565b34801561055a57600080fd5b506000805160206134418339815191525460ff166102a2565b34801561057f57600080fd5b5061030a60008051602061333a83398151915281565b3480156105a157600080fd5b506103886105b0366004612eb3565b610eea565b3480156105c157600080fd5b506103886105d0366004612eb3565b610f59565b3480156105e157600080fd5b5061030a6105f0366004612d9d565b6001600160a01b031660009081526065602052604090205490565b34801561061757600080fd5b5061030a60008051602061346183398151915281565b34801561063957600080fd5b50610388610648366004612e89565b610fb3565b34801561065957600080fd5b50610388611039565b34801561066e57600080fd5b506102a261067d366004612f41565b61105a565b34801561068e57600080fd5b506102cc611085565b3480156106a357600080fd5b50610388611094565b3480156106b857600080fd5b5061030a6106c7366004612f28565b61109c565b3480156106d857600080fd5b5061030a600081565b3480156106ed57600080fd5b506102a26106fc366004612e89565b611107565b34801561070d57600080fd5b506102a261071c366004612e89565b6111a0565b34801561072d57600080fd5b5061030a60008051602061331a83398151915281565b34801561074f57600080fd5b506107586111ad565b6040516001600160a01b0390911681526020016102ae565b34801561077c57600080fd5b5061038861078b366004612eb3565b6111b7565b34801561079c57600080fd5b506103886107ab366004612eb3565b611211565b3480156107bc57600080fd5b506103886107cb366004612f41565b61126b565b3480156107dc57600080fd5b5061030a60008051602061340183398151915281565b3480156107fe57600080fd5b5061030a61080d366004612db8565b6001600160a01b03918216600090815260666020908152604080832093909416825291909152205490565b34801561084457600080fd5b5061030a60008051602061337a83398151915281565b34801561086657600080fd5b50610388610875366004612eb3565b611291565b60006001600160e01b03198216637965db0b60e01b14806108ab57506301ffc9a760e01b6001600160e01b03198316145b92915050565b6060606880546108c090613287565b80601f01602080910402602001604051908101604052809291908181526020018280546108ec90613287565b80156109395780601f1061090e57610100808354040283529160200191610939565b820191906000526020600020905b81548152906001019060200180831161091c57829003601f168201915b5050505050905090565b60006109503384846112eb565b50600192915050565b600061096684848461140f565b6001600160a01b0384166000908152606660209081526040808320338452909152902054828110156109f05760405162461bcd60e51b815260206004820152602860248201527f45524332303a207472616e7366657220616d6f756e74206578636565647320616044820152676c6c6f77616e636560c01b60648201526084015b60405180910390fd5b6109fd85338584036112eb565b60019150505b9392505050565b600054610100900460ff16610a255760005460ff1615610a29565b303b155b610a8c5760405162461bcd60e51b815260206004820152602e60248201527f496e697469616c697a61626c653a20636f6e747261637420697320616c72656160448201526d191e481a5b9a5d1a585b1a5e995960921b60648201526084016109e7565b600054610100900460ff16158015610aae576000805461ffff19166101011790555b610aba878787876115e8565b610ac261162b565b610aca61167a565b610ad483836116ed565b8015610ae6576000805461ff00191690555b50505050505050565b610af9828261177c565b610b03828261180b565b5050565b60008051602061339a833981519152610b208133611831565b60005b82811015610b7657610b6460008051602061333a833981519152858584818110610b4f57610b4f6132ed565b90506020020160208101906107cb9190612d9d565b80610b6e816132bc565b915050610b23565b50505050565b610b868282611895565b610b0382826118fd565b306001600160a01b037f0000000000000000000000000000000000000000000000000000000000000000161415610bd95760405162461bcd60e51b81526004016109e7906130f1565b7f00000000000000000000000000000000000000000000000000000000000000006001600160a01b0316610c0b611977565b6001600160a01b031614610c315760405162461bcd60e51b81526004016109e79061313d565b610c3a816119a5565b60408051600080825260208201909252610c5691839190611a27565b50565b3360008181526066602090815260408083206001600160a01b03871684529091528120549091610950918590610c909086906131d4565b6112eb565b600080516020613401833981519152610cae8133611831565b610c56611b72565b610c563382611c1f565b60008051602061337a833981519152610cd98133611831565b5061012d80546001600160a01b0319166001600160a01b0392909216919091179055565b604080516001600160a01b0384166020808301919091527ffbf1c7065455eb4486649b8540f24ef2dd4ebedf2aa423f0039d17c2c75dea15828401528251808303840181526060909201909252805191012060009081610d5e8260016131d4565b9050600080610d6e868585611d79565b9150915081610d95576001600160a01b038716600090815260656020526040902054610d97565b805b979650505050505050565b306001600160a01b037f0000000000000000000000000000000000000000000000000000000000000000161415610deb5760405162461bcd60e51b81526004016109e7906130f1565b7f00000000000000000000000000000000000000000000000000000000000000006001600160a01b0316610e1d611977565b6001600160a01b031614610e435760405162461bcd60e51b81526004016109e79061313d565b610e4c826119a5565b610b0382826001611a27565b6000610e648133611831565b6001600160a01b038216610e7757600080fd5b826000805160206133ba83398151915255817fe38b16c806f019542b2d4bf356bb4ba2ea4b7eb450b8fbff2584f6084c4978f180546001600160a01b0319166001600160a01b0392909216919091179055505050565b6000610ee56000805160206134218339815191525490565b905090565b600080516020613401833981519152610f038133611831565b60005b82811015610b7657610f4760008051602061331a833981519152858584818110610f3257610f326132ed565b90506020020160208101906103a59190612d9d565b80610f51816132bc565b915050610f06565b600080516020613401833981519152610f728133611831565b60005b82811015610b7657610fa1600080516020613461833981519152858584818110610b4f57610b4f6132ed565b80610fab816132bc565b915050610f75565b6000610fbf833361080d565b90508181101561101d5760405162461bcd60e51b8152602060048201526024808201527f45524332303a206275726e20616d6f756e74206578636565647320616c6c6f77604482015263616e636560e01b60648201526084016109e7565b61102a83338484036112eb565b6110348383611c1f565b505050565b6000805160206134018339815191526110528133611831565b610c56611e64565b600091825260fb602090815260408084206001600160a01b0393909316845291905290205460ff1690565b6060606980546108c090613287565b610c56611ef8565b60008060006110ec847f286a9db37a0f8ddcbcee127c9f4f56031230f49cb46786f87e166d552e11f67e7ffcaa8bb100d3c5b627eac0369cc1d2778dbeffa2993d08f039fb27795729e9a5611d79565b91509150816110fd576067546110ff565b805b949350505050565b3360009081526066602090815260408083206001600160a01b0386168452909152812054828110156111895760405162461bcd60e51b815260206004820152602560248201527f45524332303a2064656372656173656420616c6c6f77616e63652062656c6f77604482015264207a65726f60d81b60648201526084016109e7565b61119633858584036112eb565b5060019392505050565b600061095033848461140f565b6000610ee5611977565b6000805160206134018339815191526111d08133611831565b60005b82811015610b76576111ff60008051602061331a833981519152858584818110610b4f57610b4f6132ed565b80611209816132bc565b9150506111d3565b60008051602061339a83398151915261122a8133611831565b60005b82811015610b765761125960008051602061333a833981519152858584818110610f3257610f326132ed565b80611263816132bc565b91505061122d565b600082815260fb60205260409020600101546112878133611831565b6110348383611f68565b6000805160206134018339815191526112aa8133611831565b60005b82811015610b76576112d9600080516020613461833981519152858584818110610f3257610f326132ed565b806112e3816132bc565b9150506112ad565b6001600160a01b03831661134d5760405162461bcd60e51b8152602060048201526024808201527f45524332303a20617070726f76652066726f6d20746865207a65726f206164646044820152637265737360e01b60648201526084016109e7565b6001600160a01b0382166113ae5760405162461bcd60e51b815260206004820152602260248201527f45524332303a20617070726f766520746f20746865207a65726f206164647265604482015261737360f01b60648201526084016109e7565b6001600160a01b0383811660008181526066602090815260408083209487168084529482529182902085905590518481527f8c5be1e5ebec7d5bd14f71427d1e84f3dd0314c0f7b2291e5b200ac8c7c3b925910160405180910390a3505050565b6001600160a01b0383166114735760405162461bcd60e51b815260206004820152602560248201527f45524332303a207472616e736665722066726f6d20746865207a65726f206164604482015264647265737360d81b60648201526084016109e7565b6001600160a01b0382166114d55760405162461bcd60e51b815260206004820152602360248201527f45524332303a207472616e7366657220746f20746865207a65726f206164647260448201526265737360e81b60648201526084016109e7565b6114e0838383611fcf565b6001600160a01b038316600090815260656020526040902054818110156115585760405162461bcd60e51b815260206004820152602660248201527f45524332303a207472616e7366657220616d6f756e7420657863656564732062604482015265616c616e636560d01b60648201526084016109e7565b6001600160a01b0380851660009081526065602052604080822085850390559185168152908120805484929061158f9084906131d4565b92505081905550826001600160a01b0316846001600160a01b03167fddf252ad1be2c89b69c2b068fc378daa952ba7f163c4a11628f55a4df523b3ef846040516115db91815260200190565b60405180910390a3610b76565b600054610100900460ff1661160f5760405162461bcd60e51b81526004016109e790613189565b611617611fe5565b611621848461203c565b610b76828261208a565b600054610100900460ff166116525760405162461bcd60e51b81526004016109e790613189565b61167860008051602061333a83398151915260008051602061339a8339815191526120cb565b565b600054610100900460ff166116a15760405162461bcd60e51b81526004016109e790613189565b6116c76000805160206134618339815191526000805160206134018339815191526120cb565b61167860008051602061331a8339815191526000805160206134018339815191526120cb565b600054610100900460ff166117145760405162461bcd60e51b81526004016109e790613189565b6001600160a01b03811661172757600080fd5b816000805160206133ba83398151915255807fe38b16c806f019542b2d4bf356bb4ba2ea4b7eb450b8fbff2584f6084c4978f180546001600160a01b0319166001600160a01b03929092169190911790555050565b60008051602061339a833981519152821480611796575081155b15610b03576117b360008051602061333a8339815191528261105a565b15610b035760405162461bcd60e51b815260206004820152602260248201527f63616e206e6f742061737369676e20726f6c6520746f20626c61636b6c697374604482015261195960f21b60648201526084016109e7565b600082815260fb60205260409020600101546118278133611831565b6110348383612116565b61183b828261105a565b610b0357611853816001600160a01b0316601461219c565b61185e83602061219c565b60405160200161186f929190613049565b60408051601f198184030181529082905262461bcd60e51b82526109e7916004016130be565b60008051602061333a833981519152821415610b035760405162461bcd60e51b815260206004820152602160248201527f43616e206e6f742072656e6f756e636520626c61636b6c697374656420726f6c6044820152606560f81b60648201526084016109e7565b6001600160a01b038116331461196d5760405162461bcd60e51b815260206004820152602f60248201527f416363657373436f6e74726f6c3a2063616e206f6e6c792072656e6f756e636560448201526e103937b632b9903337b91039b2b63360891b60648201526084016109e7565b610b038282611f68565b7f360894a13ba1a3210667c828492db98dca3e2076cc3735a920a3ca505d382bbc546001600160a01b031690565b6119bd60008051602061337a8339815191523361105a565b806119db57506119db60008051602061335a8339815191523361105a565b610c565760405162461bcd60e51b815260206004820152601d60248201527f4552524f523a2041646472657373206e6f7420617574686f72697a656400000060448201526064016109e7565b6000611a31611977565b9050611a3c84612338565b600083511180611a495750815b15611a5a57611a5884846123dd565b505b7f4910fdfa16fed3260ed0e7147f7cc6da11a60208b5b9406d12a635614ffd9143805460ff16611b6b57805460ff191660011781556040516001600160a01b0383166024820152611ad990869060440160408051601f198184030181529190526020810180516001600160e01b0316631b2ce7f360e11b1790526123dd565b50805460ff19168155611aea611977565b6001600160a01b0316826001600160a01b031614611b625760405162461bcd60e51b815260206004820152602f60248201527f45524331393637557067726164653a207570677261646520627265616b73206660448201526e75727468657220757067726164657360881b60648201526084016109e7565b611b6b856124c8565b5050505050565b6000805160206134418339815191525460ff16611bc85760405162461bcd60e51b815260206004820152601460248201527314185d5cd8589b194e881b9bdd081c185d5cd95960621b60448201526064016109e7565b600080516020613441833981519152805460ff191690557f5db9ee0a495bf2e6ff9c91a7834c1ba4fdd244a5e8aa4e537bd38aeae4b073aa335b6040516001600160a01b03909116815260200160405180910390a1565b6001600160a01b038216611c7f5760405162461bcd60e51b815260206004820152602160248201527f45524332303a206275726e2066726f6d20746865207a65726f206164647265736044820152607360f81b60648201526084016109e7565b611c8b82600083611fcf565b6001600160a01b03821660009081526065602052604090205481811015611cff5760405162461bcd60e51b815260206004820152602260248201527f45524332303a206275726e20616d6f756e7420657863656564732062616c616e604482015261636560f01b60648201526084016109e7565b6001600160a01b0383166000908152606560205260408120838303905560678054849290611d2e90849061322d565b90915550506040518281526000906001600160a01b038516907fddf252ad1be2c89b69c2b068fc378daa952ba7f163c4a11628f55a4df523b3ef9060200160405180910390a3505050565b60008060008511611dc55760405162461bcd60e51b815260206004820152601660248201527504552433230536e617073686f743a20696420697320360541b60448201526064016109e7565b60008051602061342183398151915254851115611e245760405162461bcd60e51b815260206004820152601d60248201527f4552433230536e617073686f743a206e6f6e6578697374656e7420696400000060448201526064016109e7565b6000611e308587612508565b90508454811415611e48576000809250925050611e5c565b6001611e5485836125a7565b549093509150505b935093915050565b6000805160206134418339815191525460ff1615611eb75760405162461bcd60e51b815260206004820152601060248201526f14185d5cd8589b194e881c185d5cd95960821b60448201526064016109e7565b600080516020613441833981519152805460ff191660011790557f62e78cea01bee320cd4e420270b5ea74000d11b0c9f74754ebdbfc544b05a25833611c02565b600060016000805160206134218339815191528054600090611f1b9084906131d4565b9091555050600080516020613421833981519152546040518181527f8030e83b04d87bef53480e26263266d6ca66863aa8506aca6f2559d18aa1cb679060200160405180910390a1919050565b611f72828261105a565b15610b0357600082815260fb602090815260408083206001600160a01b0385168085529252808320805460ff1916905551339285917ff6391f5c32d9c69d2a47ea670b442974b53935d1edc7fd64eb21e047a839171b9190a45050565b611fda838383612626565b611034838383612652565b600054610100900460ff1661200c5760405162461bcd60e51b81526004016109e790613189565b61201461269a565b61201c61269a565b61202461269a565b61202c61269a565b61203461269a565b6116786126c1565b600054610100900460ff166120635760405162461bcd60e51b81526004016109e790613189565b8151612076906068906020850190612c52565b508051611034906069906020840190612c52565b600054610100900460ff166120b15760405162461bcd60e51b81526004016109e790613189565b610160805460ff191660ff8416179055610b033382612749565b600082815260fb6020526040808220600101805490849055905190918391839186917fbd79b86ffe0ab8e8776151514217cd7cacd52c909f66475c3af44e129f0b00ff9190a4505050565b612120828261105a565b610b0357600082815260fb602090815260408083206001600160a01b03851684529091529020805460ff191660011790556121583390565b6001600160a01b0316816001600160a01b0316837f2f8788117e7eff1d82e926ec794901d17c78024a50270940304540a733656f0d60405160405180910390a45050565b606060006121ab83600261320e565b6121b69060026131d4565b67ffffffffffffffff8111156121ce576121ce613303565b6040519080825280601f01601f1916602001820160405280156121f8576020820181803683370190505b509050600360fc1b81600081518110612213576122136132ed565b60200101906001600160f81b031916908160001a905350600f60fb1b81600181518110612242576122426132ed565b60200101906001600160f81b031916908160001a905350600061226684600261320e565b6122719060016131d4565b90505b60018111156122e9576f181899199a1a9b1b9c1cb0b131b232b360811b85600f16601081106122a5576122a56132ed565b1a60f81b8282815181106122bb576122bb6132ed565b60200101906001600160f81b031916908160001a90535060049490941c936122e281613270565b9050612274565b508315610a035760405162461bcd60e51b815260206004820181905260248201527f537472696e67733a20686578206c656e67746820696e73756666696369656e7460448201526064016109e7565b803b61239c5760405162461bcd60e51b815260206004820152602d60248201527f455243313936373a206e657720696d706c656d656e746174696f6e206973206e60448201526c1bdd08184818dbdb9d1c9858dd609a1b60648201526084016109e7565b7f360894a13ba1a3210667c828492db98dca3e2076cc3735a920a3ca505d382bbc80546001600160a01b0319166001600160a01b0392909216919091179055565b6060823b61243c5760405162461bcd60e51b815260206004820152602660248201527f416464726573733a2064656c65676174652063616c6c20746f206e6f6e2d636f6044820152651b9d1c9858dd60d21b60648201526084016109e7565b600080846001600160a01b031684604051612457919061302d565b600060405180830381855af49150503d8060008114612492576040519150601f19603f3d011682016040523d82523d6000602084013e612497565b606091505b50915091506124bf82826040518060600160405280602781526020016133da60279139612834565b95945050505050565b6124d181612338565b6040516001600160a01b038216907fbc7cd75a20ee27fd9adebab32041f755214dbc6bffa90cc0225b39da2e5c2d3b90600090a250565b815460009081908061251f576000925050506108ab565b80821015612563576000612533838361286d565b90508461254087836125a7565b54111561254f5780915061255d565b61255a8160016131d4565b92505b5061251f565b6000821180156125865750836125838661257e60018661322d565b6125a7565b54145b1561259f5761259660018361322d565b925050506108ab565b5090506108ab565b6000825482106125ef5760405162461bcd60e51b815260206004820152601360248201527211549493d48e8813dd5d081bd988189bdd5b99606a1b60448201526064016109e7565b818360405160200161260391815260200190565b6040516020818303038152906040528051906020012060001c610a0391906131d4565b612631838383611fda565b61263c838383612888565b61264783838361290b565b611034838383612963565b6001600160a01b0383166126715761266982612a4c565b611034612ad6565b6001600160a01b0382166126885761266983612a4c565b61269183612a4c565b61103482612a4c565b600054610100900460ff166116785760405162461bcd60e51b81526004016109e790613189565b600054610100900460ff166126e85760405162461bcd60e51b81526004016109e790613189565b6126f3600033612b24565b61270b60008051602061337a83398151915233612b24565b61272360008051602061335a83398151915233612b24565b61167860008051602061335a83398151915260008051602061337a8339815191526120cb565b6001600160a01b03821661279f5760405162461bcd60e51b815260206004820152601f60248201527f45524332303a206d696e7420746f20746865207a65726f20616464726573730060448201526064016109e7565b6127ab60008383611fcf565b80606760008282546127bd91906131d4565b90915550506001600160a01b038216600090815260656020526040812080548392906127ea9084906131d4565b90915550506040518181526001600160a01b038316906000907fddf252ad1be2c89b69c2b068fc378daa952ba7f163c4a11628f55a4df523b3ef9060200160405180910390a35050565b60608315612843575081610a03565b8251156128535782518084602001fd5b8160405162461bcd60e51b81526004016109e791906130be565b600061287c60028484186131ec565b610a03908484166131d4565b6000805160206134418339815191525460ff1615806128ac57506128ac8333612b2e565b6110345760405162461bcd60e51b815260206004820152602a60248201527f45524332305061757361626c653a20746f6b656e207472616e736665722077686044820152691a5b19481c185d5cd95960b21b60648201526084016109e7565b612916338484612b66565b156110345760405162461bcd60e51b815260206004820152601a60248201527f4552524f523a204164647265737320426c61636b6c697374656400000000000060448201526064016109e7565b6000805160206133ba833981519152547fe38b16c806f019542b2d4bf356bb4ba2ea4b7eb450b8fbff2584f6084c4978f1546001600160a01b03168115806129bc5750836001600160a01b0316816001600160a01b0316145b806129d85750846001600160a01b0316816001600160a01b0316145b806129ea57506001600160a01b038516155b806129fc57506001600160a01b038416155b15612a08575050505050565b6000670de0b6b3a76400006000805160206133ba83398151915254612a2d908661320e565b612a3791906131ec565b9050612a4486838361140f565b505050505050565b604080516001600160a01b0383166020808301919091527ffbf1c7065455eb4486649b8540f24ef2dd4ebedf2aa423f0039d17c2c75dea1582840152825180830384018152606090920190925280519101206000612aab8260016131d4565b90506110348282612ad1866001600160a01b031660009081526065602052604090205490565b612bbc565b6116787f286a9db37a0f8ddcbcee127c9f4f56031230f49cb46786f87e166d552e11f67e7ffcaa8bb100d3c5b627eac0369cc1d2778dbeffa2993d08f039fb27795729e9a5612ad160675490565b610b038282612116565b6000612b486000805160206134618339815191528461105a565b80610a035750610a0360008051602061331a8339815191528361105a565b6000612b8060008051602061333a8339815191528461105a565b80612b9e5750612b9e60008051602061333a8339815191528561105a565b806110ff57506110ff60008051602061333a8339815191528361105a565b6000612bd46000805160206134218339815191525490565b905080612be085612bfa565b1015610b7657612bf08482612c2a565b610b768383612c2a565b805460009080612c0d5750600092915050565b612c1c8361257e60018461322d565b549392505050565b50919050565b81546001836000612c3b83856131d4565b90915550829050612c4c84836125a7565b55505050565b828054612c5e90613287565b90600052602060002090601f016020900481019282612c805760008555612cc6565b82601f10612c9957805160ff1916838001178555612cc6565b82800160010185558215612cc6579182015b82811115612cc6578251825591602001919060010190612cab565b50612cd2929150612cd6565b5090565b5b80821115612cd25760008155600101612cd7565b600067ffffffffffffffff80841115612d0657612d06613303565b604051601f8501601f19908116603f01168101908282118183101715612d2e57612d2e613303565b81604052809350858152868686011115612d4757600080fd5b858560208301376000602087830101525050509392505050565b80356001600160a01b0381168114612d7857600080fd5b919050565b600082601f830112612d8e57600080fd5b610a0383833560208501612ceb565b600060208284031215612daf57600080fd5b610a0382612d61565b60008060408385031215612dcb57600080fd5b612dd483612d61565b9150612de260208401612d61565b90509250929050565b600080600060608486031215612e0057600080fd5b612e0984612d61565b9250612e1760208501612d61565b9150604084013590509250925092565b60008060408385031215612e3a57600080fd5b612e4383612d61565b9150602083013567ffffffffffffffff811115612e5f57600080fd5b8301601f81018513612e7057600080fd5b612e7f85823560208401612ceb565b9150509250929050565b60008060408385031215612e9c57600080fd5b612ea583612d61565b946020939093013593505050565b60008060208385031215612ec657600080fd5b823567ffffffffffffffff80821115612ede57600080fd5b818501915085601f830112612ef257600080fd5b813581811115612f0157600080fd5b8660208260051b8501011115612f1657600080fd5b60209290920196919550909350505050565b600060208284031215612f3a57600080fd5b5035919050565b60008060408385031215612f5457600080fd5b82359150612de260208401612d61565b600060208284031215612f7657600080fd5b81356001600160e01b031981168114610a0357600080fd5b60008060008060008060c08789031215612fa757600080fd5b863567ffffffffffffffff80821115612fbf57600080fd5b612fcb8a838b01612d7d565b97506020890135915080821115612fe157600080fd5b50612fee89828a01612d7d565b955050604087013560ff8116811461300557600080fd5b9350606087013592506080870135915061302160a08801612d61565b90509295509295509295565b6000825161303f818460208701613244565b9190910192915050565b7f416363657373436f6e74726f6c3a206163636f756e7420000000000000000000815260008351613081816017850160208801613244565b7001034b99036b4b9b9b4b733903937b6329607d1b60179184019182015283516130b2816028840160208801613244565b01602801949350505050565b60208152600082518060208401526130dd816040850160208701613244565b601f01601f19169190910160400192915050565b6020808252602c908201527f46756e6374696f6e206d7573742062652063616c6c6564207468726f7567682060408201526b19195b1959d85d1958d85b1b60a21b606082015260800190565b6020808252602c908201527f46756e6374696f6e206d7573742062652063616c6c6564207468726f7567682060408201526b6163746976652070726f787960a01b606082015260800190565b6020808252602b908201527f496e697469616c697a61626c653a20636f6e7472616374206973206e6f74206960408201526a6e697469616c697a696e6760a81b606082015260800190565b600082198211156131e7576131e76132d7565b500190565b60008261320957634e487b7160e01b600052601260045260246000fd5b500490565b6000816000190483118215151615613228576132286132d7565b500290565b60008282101561323f5761323f6132d7565b500390565b60005b8381101561325f578181015183820152602001613247565b83811115610b765750506000910152565b60008161327f5761327f6132d7565b506000190190565b600181811c9082168061329b57607f821691505b60208210811415612c2457634e487b7160e01b600052602260045260246000fd5b60006000198214156132d0576132d06132d7565b5060010190565b634e487b7160e01b600052601160045260246000fd5b634e487b7160e01b600052603260045260246000fd5b634e487b7160e01b600052604160045260246000fdfee1ac655ab58995133a870d1fd307ddc1d624c8ad919a09e67867a7a1483e439a548c7f0307ab2a7ea894e5c7e8c5353cc750bb9385ee2e945f189a9a83daa8eda76ace73a908083d89af9ff88e5b4f7cadb3591a80631063f68b695fda726db571840dc4906352362b0cdaf79870196c8e42acafade72d5d5a6d59291253ceb1f988e4fb62b8e14f4820fed03192306ddf4d7dbfa215595ba1c6ba4b76b369ee253122b26cc2118faf5fcfc7761bd75fcfb5508f1f48d1a40db694aba32af5d0416464726573733a206c6f772d6c6576656c2064656c65676174652063616c6c206661696c6564356a809dfdea9198dd76fb76bf6d403ecf13ea675eb89e1eda2db2c4a4676a260d0a0ed3351c10a57d74a44b40c06e0946288e4e3816ac07bb89db2a755562e7ad6a6591fa308fe948065665239402780db8ed4a8c4e4e16c4d066bcaa05efc2ce108bcc5e0f50fe603649304cbbbd94de794a404db82d884c0afc9ba9328e61a2646970667358221220abd9580785b0c2b85fa48981961f70a48ff4ccd99b95600f3aca2ddb7ba7e36e64736f6c63430008060033",
  "linkReferences": {},
  "deployedLinkReferences": {}
}