{
  "_format": "hh-sol-artifact-1",
  "name": "BlacklistBurnMintSnapshotTxFeeWhiteListTemplate",
  "initializer": "function initialize(string name_, string symbol_, uint8 decimals_, uint256 amount_, uint256 txFee, address txFeeBeneficiary)",
  "sourceName": "contracts/templates/BlacklistBurnMintSnapshotTxFeeWhiteListTemplate.sol",
  "abi": [
    {
      "anonymous": false,
      "inputs": [
        {
          "indexed": false,
          "internalType": "address",
          "name": "previousAdmin",
          "type": "address"
        },
        {
          "indexed": false,
          "internalType": "address",
          "name": "newAdmin",
          "type": "address"
        }
      ],
      "name": "AdminChanged",
      "type": "event"
    },
    {
      "anonymous": false,
      "inputs": [
        {
          "indexed": true,
          "internalType": "address",
          "name": "owner",
          "type": "address"
        },
        {
          "indexed": true,
          "internalType": "address",
          "name": "spender",
          "type": "address"
        },
        {
          "indexed": false,
          "internalType": "uint256",
          "name": "value",
          "type": "uint256"
        }
      ],
      "name": "Approval",
      "type": "event"
    },
    {
      "anonymous": false,
      "inputs": [
        {
          "indexed": true,
          "internalType": "address",
          "name": "beacon",
          "type": "address"
        }
      ],
      "name": "BeaconUpgraded",
      "type": "event"
    },
    {
      "anonymous": false,
      "inputs": [
        {
          "indexed": false,
          "internalType": "address",
          "name": "account",
          "type": "address"
        }
      ],
      "name": "Paused",
      "type": "event"
    },
    {
      "anonymous": false,
      "inputs": [
        {
          "indexed": true,
          "internalType": "bytes32",
          "name": "role",
          "type": "bytes32"
        },
        {
          "indexed": true,
          "internalType": "bytes32",
          "name": "previousAdminRole",
          "type": "bytes32"
        },
        {
          "indexed": true,
          "internalType": "bytes32",
          "name": "newAdminRole",
          "type": "bytes32"
        }
      ],
      "name": "RoleAdminChanged",
      "type": "event"
    },
    {
      "anonymous": false,
      "inputs": [
        {
          "indexed": true,
          "internalType": "bytes32",
          "name": "role",
          "type": "bytes32"
        },
        {
          "indexed": true,
          "internalType": "address",
          "name": "account",
          "type": "address"
        },
        {
          "indexed": true,
          "internalType": "address",
          "name": "sender",
          "type": "address"
        }
      ],
      "name": "RoleGranted",
      "type": "event"
    },
    {
      "anonymous": false,
      "inputs": [
        {
          "indexed": true,
          "internalType": "bytes32",
          "name": "role",
          "type": "bytes32"
        },
        {
          "indexed": true,
          "internalType": "address",
          "name": "account",
          "type": "address"
        },
        {
          "indexed": true,
          "internalType": "address",
          "name": "sender",
          "type": "address"
        }
      ],
      "name": "RoleRevoked",
      "type": "event"
    },
    {
      "anonymous": false,
      "inputs": [
        {
          "indexed": false,
          "internalType": "uint256",
          "name": "id",
          "type": "uint256"
        }
      ],
      "name": "Snapshot",
      "type": "event"
    },
    {
      "anonymous": false,
      "inputs": [
        {
          "indexed": true,
          "internalType": "address",
          "name": "from",
          "type": "address"
        },
        {
          "indexed": true,
          "internalType": "address",
          "name": "to",
          "type": "address"
        },
        {
          "indexed": false,
          "internalType": "uint256",
          "name": "value",
          "type": "uint256"
        }
      ],
      "name": "Transfer",
      "type": "event"
    },
    {
      "anonymous": false,
      "inputs": [
        {
          "indexed": false,
          "internalType": "address",
          "name": "account",
          "type": "address"
        }
      ],
      "name": "Unpaused",
      "type": "event"
    },
    {
      "anonymous": false,
      "inputs": [
        {
          "indexed": true,
          "internalType": "address",
          "name": "implementation",
          "type": "address"
        }
      ],
      "name": "Upgraded",
      "type": "event"
    },
    {
      "inputs": [],
      "name": "BLACKLISTED_ROLE",
      "outputs": [
        {
          "internalType": "bytes32",
          "name": "",
          "type": "bytes32"
        }
      ],
      "stateMutability": "view",
      "type": "function"
    },
    {
      "inputs": [],
      "name": "BLACKLIST_MANAGER_ROLE",
      "outputs": [
        {
          "internalType": "bytes32",
          "name": "",
          "type": "bytes32"
        }
      ],
      "stateMutability": "view",
      "type": "function"
    },
    {
      "inputs": [],
      "name": "DEFAULT_ADMIN_ROLE",
      "outputs": [
        {
          "internalType": "bytes32",
          "name": "",
          "type": "bytes32"
        }
      ],
      "stateMutability": "view",
      "type": "function"
    },
    {
      "inputs": [],
      "name": "GOVERNANCE_ROLE",
      "outputs": [
        {
          "internalType": "bytes32",
          "name": "",
          "type": "bytes32"
        }
      ],
      "stateMutability": "view",
      "type": "function"
    },
    {
      "inputs": [],
      "name": "MINTER_ROLE",
      "outputs": [
        {
          "internalType": "bytes32",
          "name": "",
          "type": "bytes32"
        }
      ],
      "stateMutability": "view",
      "type": "function"
    },
    {
      "inputs": [],
      "name": "PAUSE_MANAGER_ROLE",
      "outputs": [
        {
          "internalType": "bytes32",
          "name": "",
          "type": "bytes32"
        }
      ],
      "stateMutability": "view",
      "type": "function"
    },
    {
      "inputs": [],
      "name": "UPGRADE_MANAGER_ROLE",
      "outputs": [
        {
          "internalType": "bytes32",
          "name": "",
          "type": "bytes32"
        }
      ],
      "stateMutability": "view",
      "type": "function"
    },
    {
      "inputs": [],
      "name": "WHITELISTED_FROM_ROLE",
      "outputs": [
        {
          "internalType": "bytes32",
          "name": "",
          "type": "bytes32"
        }
      ],
      "stateMutability": "view",
      "type": "function"
    },
    {
      "inputs": [],
      "name": "WHITELISTED_SENDER_ROLE",
      "outputs": [
        {
          "internalType": "bytes32",
          "name": "",
          "type": "bytes32"
        }
      ],
      "stateMutability": "view",
      "type": "function"
    },
    {
      "inputs": [
        {
          "internalType": "address[]",
          "name": "addresses",
          "type": "address[]"
        }
      ],
      "name": "addAddressesToBlacklist",
      "outputs": [],
      "stateMutability": "nonpayable",
      "type": "function"
    },
    {
      "inputs": [
        {
          "internalType": "address[]",
          "name": "addresses",
          "type": "address[]"
        }
      ],
      "name": "addAddressesToWhitelistFrom",
      "outputs": [],
      "stateMutability": "nonpayable",
      "type": "function"
    },
    {
      "inputs": [
        {
          "internalType": "address[]",
          "name": "addresses",
          "type": "address[]"
        }
      ],
      "name": "addAddressesToWhitelistSender",
      "outputs": [],
      "stateMutability": "nonpayable",
      "type": "function"
    },
    {
      "inputs": [
        {
          "internalType": "address",
          "name": "owner",
          "type": "address"
        },
        {
          "internalType": "address",
          "name": "spender",
          "type": "address"
        }
      ],
      "name": "allowance",
      "outputs": [
        {
          "internalType": "uint256",
          "name": "",
          "type": "uint256"
        }
      ],
      "stateMutability": "view",
      "type": "function"
    },
    {
      "inputs": [
        {
          "internalType": "address",
          "name": "spender",
          "type": "address"
        },
        {
          "internalType": "uint256",
          "name": "amount",
          "type": "uint256"
        }
      ],
      "name": "approve",
      "outputs": [
        {
          "internalType": "bool",
          "name": "",
          "type": "bool"
        }
      ],
      "stateMutability": "nonpayable",
      "type": "function"
    },
    {
      "inputs": [
        {
          "internalType": "address",
          "name": "account",
          "type": "address"
        }
      ],
      "name": "balanceOf",
      "outputs": [
        {
          "internalType": "uint256",
          "name": "",
          "type": "uint256"
        }
      ],
      "stateMutability": "view",
      "type": "function"
    },
    {
      "inputs": [
        {
          "internalType": "address",
          "name": "account",
          "type": "address"
        },
        {
          "internalType": "uint256",
          "name": "snapshotId",
          "type": "uint256"
        }
      ],
      "name": "balanceOfAt",
      "outputs": [
        {
          "internalType": "uint256",
          "name": "",
          "type": "uint256"
        }
      ],
      "stateMutability": "view",
      "type": "function"
    },
    {
      "inputs": [
        {
          "internalType": "address[]",
          "name": "accounts",
          "type": "address[]"
        },
        {
          "internalType": "uint256[]",
          "name": "amounts",
          "type": "uint256[]"
        }
      ],
      "name": "bulkMint",
      "outputs": [],
      "stateMutability": "nonpayable",
      "type": "function"
    },
    {
      "inputs": [
        {
          "internalType": "uint256",
          "name": "amount",
          "type": "uint256"
        }
      ],
      "name": "burn",
      "outputs": [],
      "stateMutability": "nonpayable",
      "type": "function"
    },
    {
      "inputs": [
        {
          "internalType": "address",
          "name": "account",
          "type": "address"
        },
        {
          "internalType": "uint256",
          "name": "amount",
          "type": "uint256"
        }
      ],
      "name": "burnFrom",
      "outputs": [],
      "stateMutability": "nonpayable",
      "type": "function"
    },
    {
      "inputs": [
        {
          "internalType": "uint256",
          "name": "newTxFee",
          "type": "uint256"
        },
        {
          "internalType": "address",
          "name": "newTxBeneficiary",
          "type": "address"
        }
      ],
      "name": "changeTxFeeProperties",
      "outputs": [],
      "stateMutability": "nonpayable",
      "type": "function"
    },
    {
      "inputs": [],
      "name": "decimals",
      "outputs": [
        {
          "internalType": "uint8",
          "name": "",
          "type": "uint8"
        }
      ],
      "stateMutability": "view",
      "type": "function"
    },
    {
      "inputs": [
        {
          "internalType": "address",
          "name": "spender",
          "type": "address"
        },
        {
          "internalType": "uint256",
          "name": "subtractedValue",
          "type": "uint256"
        }
      ],
      "name": "decreaseAllowance",
      "outputs": [
        {
          "internalType": "bool",
          "name": "",
          "type": "bool"
        }
      ],
      "stateMutability": "nonpayable",
      "type": "function"
    },
    {
      "inputs": [],
      "name": "getCurrentSnapshotId",
      "outputs": [
        {
          "internalType": "uint256",
          "name": "",
          "type": "uint256"
        }
      ],
      "stateMutability": "view",
      "type": "function"
    },
    {
      "inputs": [],
      "name": "getImplementation",
      "outputs": [
        {
          "internalType": "address",
          "name": "",
          "type": "address"
        }
      ],
      "stateMutability": "view",
      "type": "function"
    },
    {
      "inputs": [
        {
          "internalType": "bytes32",
          "name": "role",
          "type": "bytes32"
        }
      ],
      "name": "getRoleAdmin",
      "outputs": [
        {
          "internalType": "bytes32",
          "name": "",
          "type": "bytes32"
        }
      ],
      "stateMutability": "view",
      "type": "function"
    },
    {
      "inputs": [
        {
          "internalType": "bytes32",
          "name": "role",
          "type": "bytes32"
        },
        {
          "internalType": "address",
          "name": "account",
          "type": "address"
        }
      ],
      "name": "grantRole",
      "outputs": [],
      "stateMutability": "nonpayable",
      "type": "function"
    },
    {
      "inputs": [
        {
          "internalType": "bytes32",
          "name": "role",
          "type": "bytes32"
        },
        {
          "internalType": "address",
          "name": "account",
          "type": "address"
        }
      ],
      "name": "hasRole",
      "outputs": [
        {
          "internalType": "bool",
          "name": "",
          "type": "bool"
        }
      ],
      "stateMutability": "view",
      "type": "function"
    },
    {
      "inputs": [
        {
          "internalType": "address",
          "name": "spender",
          "type": "address"
        },
        {
          "internalType": "uint256",
          "name": "addedValue",
          "type": "uint256"
        }
      ],
      "name": "increaseAllowance",
      "outputs": [
        {
          "internalType": "bool",
          "name": "",
          "type": "bool"
        }
      ],
      "stateMutability": "nonpayable",
      "type": "function"
    },
    {
      "inputs": [
        {
          "internalType": "string",
          "name": "name_",
          "type": "string"
        },
        {
          "internalType": "string",
          "name": "symbol_",
          "type": "string"
        },
        {
          "internalType": "uint8",
          "name": "decimals_",
          "type": "uint8"
        },
        {
          "internalType": "uint256",
          "name": "amount_",
          "type": "uint256"
        },
        {
          "internalType": "uint256",
          "name": "txFee",
          "type": "uint256"
        },
        {
          "internalType": "address",
          "name": "txFeeBeneficiary",
          "type": "address"
        }
      ],
      "name": "initialize",
      "outputs": [],
      "stateMutability": "nonpayable",
      "type": "function"
    },
    {
      "inputs": [
        {
          "internalType": "address",
          "name": "account",
          "type": "address"
        },
        {
          "internalType": "uint256",
          "name": "amount",
          "type": "uint256"
        }
      ],
      "name": "mint",
      "outputs": [],
      "stateMutability": "nonpayable",
      "type": "function"
    },
    {
      "inputs": [],
      "name": "name",
      "outputs": [
        {
          "internalType": "string",
          "name": "",
          "type": "string"
        }
      ],
      "stateMutability": "view",
      "type": "function"
    },
    {
      "inputs": [],
      "name": "pause",
      "outputs": [],
      "stateMutability": "nonpayable",
      "type": "function"
    },
    {
      "inputs": [],
      "name": "paused",
      "outputs": [
        {
          "internalType": "bool",
          "name": "",
          "type": "bool"
        }
      ],
      "stateMutability": "view",
      "type": "function"
    },
    {
      "inputs": [
        {
          "internalType": "address",
          "name": "implementationAddress",
          "type": "address"
        }
      ],
      "name": "proposeNewImplementation",
      "outputs": [],
      "stateMutability": "nonpayable",
      "type": "function"
    },
    {
      "inputs": [
        {
          "internalType": "address[]",
          "name": "addresses",
          "type": "address[]"
        }
      ],
      "name": "removeAddressesFromBlacklist",
      "outputs": [],
      "stateMutability": "nonpayable",
      "type": "function"
    },
    {
      "inputs": [
        {
          "internalType": "address[]",
          "name": "addresses",
          "type": "address[]"
        }
      ],
      "name": "removeAddressesFromWhitelistFrom",
      "outputs": [],
      "stateMutability": "nonpayable",
      "type": "function"
    },
    {
      "inputs": [
        {
          "internalType": "address[]",
          "name": "addresses",
          "type": "address[]"
        }
      ],
      "name": "removeAddressesFromWhitelistSender",
      "outputs": [],
      "stateMutability": "nonpayable",
      "type": "function"
    },
    {
      "inputs": [
        {
          "internalType": "bytes32",
          "name": "role",
          "type": "bytes32"
        },
        {
          "internalType": "address",
          "name": "account",
          "type": "address"
        }
      ],
      "name": "renounceRole",
      "outputs": [],
      "stateMutability": "nonpayable",
      "type": "function"
    },
    {
      "inputs": [
        {
          "internalType": "bytes32",
          "name": "role",
          "type": "bytes32"
        },
        {
          "internalType": "address",
          "name": "account",
          "type": "address"
        }
      ],
      "name": "revokeRole",
      "outputs": [],
      "stateMutability": "nonpayable",
      "type": "function"
    },
    {
      "inputs": [],
      "name": "snapshot",
      "outputs": [],
      "stateMutability": "nonpayable",
      "type": "function"
    },
    {
      "inputs": [
        {
          "internalType": "bytes4",
          "name": "interfaceId",
          "type": "bytes4"
        }
      ],
      "name": "supportsInterface",
      "outputs": [
        {
          "internalType": "bool",
          "name": "",
          "type": "bool"
        }
      ],
      "stateMutability": "view",
      "type": "function"
    },
    {
      "inputs": [],
      "name": "symbol",
      "outputs": [
        {
          "internalType": "string",
          "name": "",
          "type": "string"
        }
      ],
      "stateMutability": "view",
      "type": "function"
    },
    {
      "inputs": [],
      "name": "totalSupply",
      "outputs": [
        {
          "internalType": "uint256",
          "name": "",
          "type": "uint256"
        }
      ],
      "stateMutability": "view",
      "type": "function"
    },
    {
      "inputs": [
        {
          "internalType": "uint256",
          "name": "snapshotId",
          "type": "uint256"
        }
      ],
      "name": "totalSupplyAt",
      "outputs": [
        {
          "internalType": "uint256",
          "name": "",
          "type": "uint256"
        }
      ],
      "stateMutability": "view",
      "type": "function"
    },
    {
      "inputs": [
        {
          "internalType": "address",
          "name": "recipient",
          "type": "address"
        },
        {
          "internalType": "uint256",
          "name": "amount",
          "type": "uint256"
        }
      ],
      "name": "transfer",
      "outputs": [
        {
          "internalType": "bool",
          "name": "",
          "type": "bool"
        }
      ],
      "stateMutability": "nonpayable",
      "type": "function"
    },
    {
      "inputs": [
        {
          "internalType": "address",
          "name": "sender",
          "type": "address"
        },
        {
          "internalType": "address",
          "name": "recipient",
          "type": "address"
        },
        {
          "internalType": "uint256",
          "name": "amount",
          "type": "uint256"
        }
      ],
      "name": "transferFrom",
      "outputs": [
        {
          "internalType": "bool",
          "name": "",
          "type": "bool"
        }
      ],
      "stateMutability": "nonpayable",
      "type": "function"
    },
    {
      "inputs": [],
      "name": "unpause",
      "outputs": [],
      "stateMutability": "nonpayable",
      "type": "function"
    },
    {
      "inputs": [
        {
          "internalType": "address",
          "name": "newImplementation",
          "type": "address"
        }
      ],
      "name": "upgradeTo",
      "outputs": [],
      "stateMutability": "nonpayable",
      "type": "function"
    },
    {
      "inputs": [
        {
          "internalType": "address",
          "name": "newImplementation",
          "type": "address"
        },
        {
          "internalType": "bytes",
          "name": "data",
          "type": "bytes"
        }
      ],
      "name": "upgradeToAndCall",
      "outputs": [],
      "stateMutability": "payable",
      "type": "function"
    }
  ],
  "bytecode": "0x60a06040523060601b60805234801561001757600080fd5b5060805160601c6136f461004b60003960008181610c4801528181610c8801528181610e940152610ed401526136f46000f3fe6080604052600436106102ae5760003560e01c806362b199c511610175578063a217fddf116100dc578063ca73419e11610095578063d84f91e81161006f578063d84f91e814610875578063dd62ed3e14610897578063f36c8f5c146108dd578063f834c502146108ff57600080fd5b8063ca73419e14610801578063d539139314610821578063d547741f1461085557600080fd5b8063a217fddf1461073d578063a457c2d714610752578063a9059cbb14610772578063aa74a34a14610792578063aaf10f42146107b4578063c233f3b7146107e157600080fd5b806379cc67901161012e57806379cc67901461069e5780638456cb59146106be57806391d14854146106d357806395d89b41146106f35780639711715a14610708578063981b24d01461071d57600080fd5b806362b199c5146105c4578063685ed81a146105e65780636ae459bd146106065780636e79a1c01461062657806370a0823114610646578063731ce8fc1461067c57600080fd5b8063395093511161021957806347757fb6116101d257806347757fb6146105175780634ee2cd7e146105375780634f1ef286146105575780635120561a1461056a5780635439ad861461058a5780635c975abb1461059f57600080fd5b8063395093511461045e5780633f4ba83a1461047e57806340c10f1914610493578063410b2424146104b357806342966c68146104d557806343ffa64e146104f557600080fd5b80632cd77a5a1161026b5780632cd77a5a146103995780632f2ff15d146103bb578063313ce567146103db57806332258794146103fe57806336568abe1461041e5780633659cfe61461043e57600080fd5b806301ffc9a7146102b357806306fdde03146102e8578063095ea7b31461030a57806318160ddd1461032a57806323b872dd14610349578063248a9ca314610369575b600080fd5b3480156102bf57600080fd5b506102d36102ce3660046131a2565b61091f565b60405190151581526020015b60405180910390f35b3480156102f457600080fd5b506102fd610956565b6040516102df91906132fc565b34801561031657600080fd5b506102d361032536600461308e565b6109e8565b34801561033657600080fd5b506067545b6040519081526020016102df565b34801561035557600080fd5b506102d3610364366004612ff0565b6109fe565b34801561037557600080fd5b5061033b610384366004613166565b600090815260fb602052604090206001015490565b3480156103a557600080fd5b506103b96103b43660046131cc565b610aaf565b005b3480156103c757600080fd5b506103b96103d636600461317f565b610b9c565b3480156103e757600080fd5b506101605460405160ff90911681526020016102df565b34801561040a57600080fd5b506103b96104193660046130b8565b610bb4565b34801561042a57600080fd5b506103b961043936600461317f565b610c29565b34801561044a57600080fd5b506103b9610459366004612fa2565b610c3d565b34801561046a57600080fd5b506102d361047936600461308e565b610d06565b34801561048a57600080fd5b506103b9610d42565b34801561049f57600080fd5b506103b96104ae36600461308e565b610d63565b3480156104bf57600080fd5b5061033b6000805160206135d883398151915281565b3480156104e157600080fd5b506103b96104f0366004613166565b610d9d565b34801561050157600080fd5b5061033b60008051602061359883398151915281565b34801561052357600080fd5b506103b9610532366004612fa2565b610da7565b34801561054357600080fd5b5061033b61055236600461308e565b610de4565b6103b961056536600461302c565b610e89565b34801561057657600080fd5b506103b961058536600461317f565b610f3f565b34801561059657600080fd5b5061033b610fb4565b3480156105ab57600080fd5b5060008051602061367f8339815191525460ff166102d3565b3480156105d057600080fd5b5061033b60008051602061357883398151915281565b3480156105f257600080fd5b506103b96106013660046130b8565b610fd1565b34801561061257600080fd5b506103b96106213660046130fa565b611040565b34801561063257600080fd5b506103b96106413660046130b8565b61111f565b34801561065257600080fd5b5061033b610661366004612fa2565b6001600160a01b031660009081526065602052604090205490565b34801561068857600080fd5b5061033b60008051602061369f83398151915281565b3480156106aa57600080fd5b506103b96106b936600461308e565b611179565b3480156106ca57600080fd5b506103b96111fa565b3480156106df57600080fd5b506102d36106ee36600461317f565b61121b565b3480156106ff57600080fd5b506102fd611246565b34801561071457600080fd5b506103b9611255565b34801561072957600080fd5b5061033b610738366004613166565b61125d565b34801561074957600080fd5b5061033b600081565b34801561075e57600080fd5b506102d361076d36600461308e565b6112c8565b34801561077e57600080fd5b506102d361078d36600461308e565b611361565b34801561079e57600080fd5b5061033b60008051602061355883398151915281565b3480156107c057600080fd5b506107c961136e565b6040516001600160a01b0390911681526020016102df565b3480156107ed57600080fd5b506103b96107fc3660046130b8565b611378565b34801561080d57600080fd5b506103b961081c3660046130b8565b6113d2565b34801561082d57600080fd5b5061033b7ff9424f4303d7f03683a025eb8885734ad99b47df7749d9b0a02cbc985809700b81565b34801561086157600080fd5b506103b961087036600461317f565b61142c565b34801561088157600080fd5b5061033b60008051602061363f83398151915281565b3480156108a357600080fd5b5061033b6108b2366004612fbd565b6001600160a01b03918216600090815260666020908152604080832093909416825291909152205490565b3480156108e957600080fd5b5061033b6000805160206135b883398151915281565b34801561090b57600080fd5b506103b961091a3660046130b8565b611452565b60006001600160e01b03198216637965db0b60e01b148061095057506301ffc9a760e01b6001600160e01b03198316145b92915050565b606060688054610965906134c5565b80601f0160208091040260200160405190810160405280929190818152602001828054610991906134c5565b80156109de5780601f106109b3576101008083540402835291602001916109de565b820191906000526020600020905b8154815290600101906020018083116109c157829003601f168201915b5050505050905090565b60006109f53384846114ac565b50600192915050565b6000610a0b8484846115d0565b6001600160a01b038416600090815260666020908152604080832033845290915290205482811015610a955760405162461bcd60e51b815260206004820152602860248201527f45524332303a207472616e7366657220616d6f756e74206578636565647320616044820152676c6c6f77616e636560c01b60648201526084015b60405180910390fd5b610aa285338584036114ac565b60019150505b9392505050565b600054610100900460ff16610aca5760005460ff1615610ace565b303b155b610b315760405162461bcd60e51b815260206004820152602e60248201527f496e697469616c697a61626c653a20636f6e747261637420697320616c72656160448201526d191e481a5b9a5d1a585b1a5e995960921b6064820152608401610a8c565b600054610100900460ff16158015610b53576000805461ffff19166101011790555b610b5f878787876117a9565b610b676117ec565b610b6f611815565b610b798383611862565b610b816118f1565b8015610b93576000805461ff00191690555b50505050505050565b610ba68282611964565b610bb082826119f3565b5050565b6000805160206135d8833981519152610bcd8133611a19565b60005b82811015610c2357610c11600080516020613578833981519152858584818110610bfc57610bfc61352b565b90506020020160208101906108709190612fa2565b80610c1b816134fa565b915050610bd0565b50505050565b610c338282611a7d565b610bb08282611ae5565b306001600160a01b037f0000000000000000000000000000000000000000000000000000000000000000161415610c865760405162461bcd60e51b8152600401610a8c9061332f565b7f00000000000000000000000000000000000000000000000000000000000000006001600160a01b0316610cb8611b5f565b6001600160a01b031614610cde5760405162461bcd60e51b8152600401610a8c9061337b565b610ce781611b8d565b60408051600080825260208201909252610d0391839190611c0f565b50565b3360008181526066602090815260408083206001600160a01b038716845290915281205490916109f5918590610d3d908690613412565b6114ac565b60008051602061363f833981519152610d5b8133611a19565b610d03611d5a565b7ff9424f4303d7f03683a025eb8885734ad99b47df7749d9b0a02cbc985809700b610d8e8133611a19565b610d988383611e07565b505050565b610d033382611ef2565b6000805160206135b8833981519152610dc08133611a19565b5061012d80546001600160a01b0319166001600160a01b0392909216919091179055565b604080516001600160a01b0384166020808301919091527ffbf1c7065455eb4486649b8540f24ef2dd4ebedf2aa423f0039d17c2c75dea15828401528251808303840181526060909201909252805191012060009081610e45826001613412565b9050600080610e5586858561204c565b9150915081610e7c576001600160a01b038716600090815260656020526040902054610e7e565b805b979650505050505050565b306001600160a01b037f0000000000000000000000000000000000000000000000000000000000000000161415610ed25760405162461bcd60e51b8152600401610a8c9061332f565b7f00000000000000000000000000000000000000000000000000000000000000006001600160a01b0316610f04611b5f565b6001600160a01b031614610f2a5760405162461bcd60e51b8152600401610a8c9061337b565b610f3382611b8d565b610bb082826001611c0f565b6000610f4b8133611a19565b6001600160a01b038216610f5e57600080fd5b826000805160206135f883398151915255817fe38b16c806f019542b2d4bf356bb4ba2ea4b7eb450b8fbff2584f6084c4978f180546001600160a01b0319166001600160a01b0392909216919091179055505050565b6000610fcc60008051602061365f8339815191525490565b905090565b60008051602061363f833981519152610fea8133611a19565b60005b82811015610c235761102e6000805160206135588339815191528585848181106110195761101961352b565b90506020020160208101906103d69190612fa2565b80611038816134fa565b915050610fed565b7ff9424f4303d7f03683a025eb8885734ad99b47df7749d9b0a02cbc985809700b61106b8133611a19565b8382146110b25760405162461bcd60e51b8152602060048201526015602482015274082e4e4c2f240d8cadccee8d040dad2e6dac2e8c6d605b1b6044820152606401610a8c565b60005b84811015611117576111058686838181106110d2576110d261352b565b90506020020160208101906110e79190612fa2565b8585848181106110f9576110f961352b565b90506020020135611e07565b8061110f816134fa565b9150506110b5565b505050505050565b60008051602061363f8339815191526111388133611a19565b60005b82811015610c235761116760008051602061369f833981519152858584818110610bfc57610bfc61352b565b80611171816134fa565b91505061113b565b600061118583336108b2565b9050818110156111e35760405162461bcd60e51b8152602060048201526024808201527f45524332303a206275726e20616d6f756e74206578636565647320616c6c6f77604482015263616e636560e01b6064820152608401610a8c565b6111f083338484036114ac565b610d988383611ef2565b60008051602061363f8339815191526112138133611a19565b610d03612137565b600091825260fb602090815260408084206001600160a01b0393909316845291905290205460ff1690565b606060698054610965906134c5565b610d036121cb565b60008060006112ad847f286a9db37a0f8ddcbcee127c9f4f56031230f49cb46786f87e166d552e11f67e7ffcaa8bb100d3c5b627eac0369cc1d2778dbeffa2993d08f039fb27795729e9a561204c565b91509150816112be576067546112c0565b805b949350505050565b3360009081526066602090815260408083206001600160a01b03861684529091528120548281101561134a5760405162461bcd60e51b815260206004820152602560248201527f45524332303a2064656372656173656420616c6c6f77616e63652062656c6f77604482015264207a65726f60d81b6064820152608401610a8c565b61135733858584036114ac565b5060019392505050565b60006109f53384846115d0565b6000610fcc611b5f565b60008051602061363f8339815191526113918133611a19565b60005b82811015610c23576113c0600080516020613558833981519152858584818110610bfc57610bfc61352b565b806113ca816134fa565b915050611394565b6000805160206135d88339815191526113eb8133611a19565b60005b82811015610c235761141a6000805160206135788339815191528585848181106110195761101961352b565b80611424816134fa565b9150506113ee565b600082815260fb60205260409020600101546114488133611a19565b610d98838361223b565b60008051602061363f83398151915261146b8133611a19565b60005b82811015610c235761149a60008051602061369f8339815191528585848181106110195761101961352b565b806114a4816134fa565b91505061146e565b6001600160a01b03831661150e5760405162461bcd60e51b8152602060048201526024808201527f45524332303a20617070726f76652066726f6d20746865207a65726f206164646044820152637265737360e01b6064820152608401610a8c565b6001600160a01b03821661156f5760405162461bcd60e51b815260206004820152602260248201527f45524332303a20617070726f766520746f20746865207a65726f206164647265604482015261737360f01b6064820152608401610a8c565b6001600160a01b0383811660008181526066602090815260408083209487168084529482529182902085905590518481527f8c5be1e5ebec7d5bd14f71427d1e84f3dd0314c0f7b2291e5b200ac8c7c3b925910160405180910390a3505050565b6001600160a01b0383166116345760405162461bcd60e51b815260206004820152602560248201527f45524332303a207472616e736665722066726f6d20746865207a65726f206164604482015264647265737360d81b6064820152608401610a8c565b6001600160a01b0382166116965760405162461bcd60e51b815260206004820152602360248201527f45524332303a207472616e7366657220746f20746865207a65726f206164647260448201526265737360e81b6064820152608401610a8c565b6116a18383836122a2565b6001600160a01b038316600090815260656020526040902054818110156117195760405162461bcd60e51b815260206004820152602660248201527f45524332303a207472616e7366657220616d6f756e7420657863656564732062604482015265616c616e636560d01b6064820152608401610a8c565b6001600160a01b03808516600090815260656020526040808220858503905591851681529081208054849290611750908490613412565b92505081905550826001600160a01b0316846001600160a01b03167fddf252ad1be2c89b69c2b068fc378daa952ba7f163c4a11628f55a4df523b3ef8460405161179c91815260200190565b60405180910390a3610c23565b600054610100900460ff166117d05760405162461bcd60e51b8152600401610a8c906133c7565b6117d86122b8565b6117e2848461230f565b610c23828261235d565b600054610100900460ff166118135760405162461bcd60e51b8152600401610a8c906133c7565b565b600054610100900460ff1661183c5760405162461bcd60e51b8152600401610a8c906133c7565b6118136000805160206135788339815191526000805160206135d883398151915261239e565b600054610100900460ff166118895760405162461bcd60e51b8152600401610a8c906133c7565b6001600160a01b03811661189c57600080fd5b816000805160206135f883398151915255807fe38b16c806f019542b2d4bf356bb4ba2ea4b7eb450b8fbff2584f6084c4978f180546001600160a01b0319166001600160a01b03929092169190911790555050565b600054610100900460ff166119185760405162461bcd60e51b8152600401610a8c906133c7565b61193e60008051602061369f83398151915260008051602061363f83398151915261239e565b61181360008051602061355883398151915260008051602061363f83398151915261239e565b6000805160206135d883398151915282148061197e575081155b15610bb05761199b6000805160206135788339815191528261121b565b15610bb05760405162461bcd60e51b815260206004820152602260248201527f63616e206e6f742061737369676e20726f6c6520746f20626c61636b6c697374604482015261195960f21b6064820152608401610a8c565b600082815260fb6020526040902060010154611a0f8133611a19565b610d9883836123e9565b611a23828261121b565b610bb057611a3b816001600160a01b0316601461246f565b611a4683602061246f565b604051602001611a57929190613287565b60408051601f198184030181529082905262461bcd60e51b8252610a8c916004016132fc565b600080516020613578833981519152821415610bb05760405162461bcd60e51b815260206004820152602160248201527f43616e206e6f742072656e6f756e636520626c61636b6c697374656420726f6c6044820152606560f81b6064820152608401610a8c565b6001600160a01b0381163314611b555760405162461bcd60e51b815260206004820152602f60248201527f416363657373436f6e74726f6c3a2063616e206f6e6c792072656e6f756e636560448201526e103937b632b9903337b91039b2b63360891b6064820152608401610a8c565b610bb0828261223b565b7f360894a13ba1a3210667c828492db98dca3e2076cc3735a920a3ca505d382bbc546001600160a01b031690565b611ba56000805160206135b88339815191523361121b565b80611bc35750611bc36000805160206135988339815191523361121b565b610d035760405162461bcd60e51b815260206004820152601d60248201527f4552524f523a2041646472657373206e6f7420617574686f72697a65640000006044820152606401610a8c565b6000611c19611b5f565b9050611c248461260b565b600083511180611c315750815b15611c4257611c4084846126b0565b505b7f4910fdfa16fed3260ed0e7147f7cc6da11a60208b5b9406d12a635614ffd9143805460ff16611d5357805460ff191660011781556040516001600160a01b0383166024820152611cc190869060440160408051601f198184030181529190526020810180516001600160e01b0316631b2ce7f360e11b1790526126b0565b50805460ff19168155611cd2611b5f565b6001600160a01b0316826001600160a01b031614611d4a5760405162461bcd60e51b815260206004820152602f60248201527f45524331393637557067726164653a207570677261646520627265616b73206660448201526e75727468657220757067726164657360881b6064820152608401610a8c565b611d538561279b565b5050505050565b60008051602061367f8339815191525460ff16611db05760405162461bcd60e51b815260206004820152601460248201527314185d5cd8589b194e881b9bdd081c185d5cd95960621b6044820152606401610a8c565b60008051602061367f833981519152805460ff191690557f5db9ee0a495bf2e6ff9c91a7834c1ba4fdd244a5e8aa4e537bd38aeae4b073aa335b6040516001600160a01b03909116815260200160405180910390a1565b6001600160a01b038216611e5d5760405162461bcd60e51b815260206004820152601f60248201527f45524332303a206d696e7420746f20746865207a65726f2061646472657373006044820152606401610a8c565b611e69600083836122a2565b8060676000828254611e7b9190613412565b90915550506001600160a01b03821660009081526065602052604081208054839290611ea8908490613412565b90915550506040518181526001600160a01b038316906000907fddf252ad1be2c89b69c2b068fc378daa952ba7f163c4a11628f55a4df523b3ef9060200160405180910390a35050565b6001600160a01b038216611f525760405162461bcd60e51b815260206004820152602160248201527f45524332303a206275726e2066726f6d20746865207a65726f206164647265736044820152607360f81b6064820152608401610a8c565b611f5e826000836122a2565b6001600160a01b03821660009081526065602052604090205481811015611fd25760405162461bcd60e51b815260206004820152602260248201527f45524332303a206275726e20616d6f756e7420657863656564732062616c616e604482015261636560f01b6064820152608401610a8c565b6001600160a01b038316600090815260656020526040812083830390556067805484929061200190849061346b565b90915550506040518281526000906001600160a01b038516907fddf252ad1be2c89b69c2b068fc378daa952ba7f163c4a11628f55a4df523b3ef9060200160405180910390a3505050565b600080600085116120985760405162461bcd60e51b815260206004820152601660248201527504552433230536e617073686f743a20696420697320360541b6044820152606401610a8c565b60008051602061365f833981519152548511156120f75760405162461bcd60e51b815260206004820152601d60248201527f4552433230536e617073686f743a206e6f6e6578697374656e742069640000006044820152606401610a8c565b600061210385876127db565b9050845481141561211b57600080925092505061212f565b6001612127858361287a565b549093509150505b935093915050565b60008051602061367f8339815191525460ff161561218a5760405162461bcd60e51b815260206004820152601060248201526f14185d5cd8589b194e881c185d5cd95960821b6044820152606401610a8c565b60008051602061367f833981519152805460ff191660011790557f62e78cea01bee320cd4e420270b5ea74000d11b0c9f74754ebdbfc544b05a25833611dea565b6000600160008051602061365f83398151915280546000906121ee908490613412565b909155505060008051602061365f833981519152546040518181527f8030e83b04d87bef53480e26263266d6ca66863aa8506aca6f2559d18aa1cb679060200160405180910390a1919050565b612245828261121b565b15610bb057600082815260fb602090815260408083206001600160a01b0385168085529252808320805460ff1916905551339285917ff6391f5c32d9c69d2a47ea670b442974b53935d1edc7fd64eb21e047a839171b9190a45050565b6122ad8383836128f9565b610d98838383612925565b600054610100900460ff166122df5760405162461bcd60e51b8152600401610a8c906133c7565b6122e76117ec565b6122ef6117ec565b6122f76117ec565b6122ff6117ec565b6123076117ec565b61181361296d565b600054610100900460ff166123365760405162461bcd60e51b8152600401610a8c906133c7565b8151612349906068906020850190612e0b565b508051610d98906069906020840190612e0b565b600054610100900460ff166123845760405162461bcd60e51b8152600401610a8c906133c7565b610160805460ff191660ff8416179055610bb03382611e07565b600082815260fb6020526040808220600101805490849055905190918391839186917fbd79b86ffe0ab8e8776151514217cd7cacd52c909f66475c3af44e129f0b00ff9190a4505050565b6123f3828261121b565b610bb057600082815260fb602090815260408083206001600160a01b03851684529091529020805460ff1916600117905561242b3390565b6001600160a01b0316816001600160a01b0316837f2f8788117e7eff1d82e926ec794901d17c78024a50270940304540a733656f0d60405160405180910390a45050565b6060600061247e83600261344c565b612489906002613412565b67ffffffffffffffff8111156124a1576124a1613541565b6040519080825280601f01601f1916602001820160405280156124cb576020820181803683370190505b509050600360fc1b816000815181106124e6576124e661352b565b60200101906001600160f81b031916908160001a905350600f60fb1b816001815181106125155761251561352b565b60200101906001600160f81b031916908160001a905350600061253984600261344c565b612544906001613412565b90505b60018111156125bc576f181899199a1a9b1b9c1cb0b131b232b360811b85600f16601081106125785761257861352b565b1a60f81b82828151811061258e5761258e61352b565b60200101906001600160f81b031916908160001a90535060049490941c936125b5816134ae565b9050612547565b508315610aa85760405162461bcd60e51b815260206004820181905260248201527f537472696e67733a20686578206c656e67746820696e73756666696369656e746044820152606401610a8c565b803b61266f5760405162461bcd60e51b815260206004820152602d60248201527f455243313936373a206e657720696d706c656d656e746174696f6e206973206e60448201526c1bdd08184818dbdb9d1c9858dd609a1b6064820152608401610a8c565b7f360894a13ba1a3210667c828492db98dca3e2076cc3735a920a3ca505d382bbc80546001600160a01b0319166001600160a01b0392909216919091179055565b6060823b61270f5760405162461bcd60e51b815260206004820152602660248201527f416464726573733a2064656c65676174652063616c6c20746f206e6f6e2d636f6044820152651b9d1c9858dd60d21b6064820152608401610a8c565b600080846001600160a01b03168460405161272a919061326b565b600060405180830381855af49150503d8060008114612765576040519150601f19603f3d011682016040523d82523d6000602084013e61276a565b606091505b50915091506127928282604051806060016040528060278152602001613618602791396129f5565b95945050505050565b6127a48161260b565b6040516001600160a01b038216907fbc7cd75a20ee27fd9adebab32041f755214dbc6bffa90cc0225b39da2e5c2d3b90600090a250565b81546000908190806127f257600092505050610950565b808210156128365760006128068383612a2e565b905084612813878361287a565b54111561282257809150612830565b61282d816001613412565b92505b506127f2565b6000821180156128595750836128568661285160018661346b565b61287a565b54145b156128725761286960018361346b565b92505050610950565b509050610950565b6000825482106128c25760405162461bcd60e51b815260206004820152601360248201527211549493d48e8813dd5d081bd988189bdd5b99606a1b6044820152606401610a8c565b81836040516020016128d691815260200190565b6040516020818303038152906040528051906020012060001c610aa89190613412565b6129048383836122ad565b61290f838383612a49565b61291a838383612acc565b610d98838383612b24565b6001600160a01b0383166129445761293c82612c05565b610d98612c8f565b6001600160a01b03821661295b5761293c83612c05565b61296483612c05565b610d9882612c05565b600054610100900460ff166129945760405162461bcd60e51b8152600401610a8c906133c7565b61299f600033612cdd565b6129b76000805160206135b883398151915233612cdd565b6129cf60008051602061359883398151915233612cdd565b6118136000805160206135988339815191526000805160206135b883398151915261239e565b60608315612a04575081610aa8565b825115612a145782518084602001fd5b8160405162461bcd60e51b8152600401610a8c91906132fc565b6000612a3d600284841861342a565b610aa890848416613412565b60008051602061367f8339815191525460ff161580612a6d5750612a6d8333612ce7565b610d985760405162461bcd60e51b815260206004820152602a60248201527f45524332305061757361626c653a20746f6b656e207472616e736665722077686044820152691a5b19481c185d5cd95960b21b6064820152608401610a8c565b612ad7338484612d1f565b15610d985760405162461bcd60e51b815260206004820152601a60248201527f4552524f523a204164647265737320426c61636b6c69737465640000000000006044820152606401610a8c565b6000805160206135f8833981519152547fe38b16c806f019542b2d4bf356bb4ba2ea4b7eb450b8fbff2584f6084c4978f1546001600160a01b0316811580612b7d5750836001600160a01b0316816001600160a01b0316145b80612b995750846001600160a01b0316816001600160a01b0316145b80612bab57506001600160a01b038516155b80612bbd57506001600160a01b038416155b15612bc9575050505050565b6000670de0b6b3a76400006000805160206135f883398151915254612bee908661344c565b612bf8919061342a565b90506111178683836115d0565b604080516001600160a01b0383166020808301919091527ffbf1c7065455eb4486649b8540f24ef2dd4ebedf2aa423f0039d17c2c75dea1582840152825180830384018152606090920190925280519101206000612c64826001613412565b9050610d988282612c8a866001600160a01b031660009081526065602052604090205490565b612d75565b6118137f286a9db37a0f8ddcbcee127c9f4f56031230f49cb46786f87e166d552e11f67e7ffcaa8bb100d3c5b627eac0369cc1d2778dbeffa2993d08f039fb27795729e9a5612c8a60675490565b610bb082826123e9565b6000612d0160008051602061369f8339815191528461121b565b80610aa85750610aa86000805160206135588339815191528361121b565b6000612d396000805160206135788339815191528461121b565b80612d575750612d576000805160206135788339815191528561121b565b806112c057506112c06000805160206135788339815191528361121b565b6000612d8d60008051602061365f8339815191525490565b905080612d9985612db3565b1015610c2357612da98482612de3565b610c238383612de3565b805460009080612dc65750600092915050565b612dd58361285160018461346b565b549392505050565b50919050565b81546001836000612df48385613412565b90915550829050612e05848361287a565b55505050565b828054612e17906134c5565b90600052602060002090601f016020900481019282612e395760008555612e7f565b82601f10612e5257805160ff1916838001178555612e7f565b82800160010185558215612e7f579182015b82811115612e7f578251825591602001919060010190612e64565b50612e8b929150612e8f565b5090565b5b80821115612e8b5760008155600101612e90565b600067ffffffffffffffff80841115612ebf57612ebf613541565b604051601f8501601f19908116603f01168101908282118183101715612ee757612ee7613541565b81604052809350858152868686011115612f0057600080fd5b858560208301376000602087830101525050509392505050565b80356001600160a01b0381168114612f3157600080fd5b919050565b60008083601f840112612f4857600080fd5b50813567ffffffffffffffff811115612f6057600080fd5b6020830191508360208260051b8501011115612f7b57600080fd5b9250929050565b600082601f830112612f9357600080fd5b610aa883833560208501612ea4565b600060208284031215612fb457600080fd5b610aa882612f1a565b60008060408385031215612fd057600080fd5b612fd983612f1a565b9150612fe760208401612f1a565b90509250929050565b60008060006060848603121561300557600080fd5b61300e84612f1a565b925061301c60208501612f1a565b9150604084013590509250925092565b6000806040838503121561303f57600080fd5b61304883612f1a565b9150602083013567ffffffffffffffff81111561306457600080fd5b8301601f8101851361307557600080fd5b61308485823560208401612ea4565b9150509250929050565b600080604083850312156130a157600080fd5b6130aa83612f1a565b946020939093013593505050565b600080602083850312156130cb57600080fd5b823567ffffffffffffffff8111156130e257600080fd5b6130ee85828601612f36565b90969095509350505050565b6000806000806040858703121561311057600080fd5b843567ffffffffffffffff8082111561312857600080fd5b61313488838901612f36565b9096509450602087013591508082111561314d57600080fd5b5061315a87828801612f36565b95989497509550505050565b60006020828403121561317857600080fd5b5035919050565b6000806040838503121561319257600080fd5b82359150612fe760208401612f1a565b6000602082840312156131b457600080fd5b81356001600160e01b031981168114610aa857600080fd5b60008060008060008060c087890312156131e557600080fd5b863567ffffffffffffffff808211156131fd57600080fd5b6132098a838b01612f82565b9750602089013591508082111561321f57600080fd5b5061322c89828a01612f82565b955050604087013560ff8116811461324357600080fd5b9350606087013592506080870135915061325f60a08801612f1a565b90509295509295509295565b6000825161327d818460208701613482565b9190910192915050565b7f416363657373436f6e74726f6c3a206163636f756e74200000000000000000008152600083516132bf816017850160208801613482565b7001034b99036b4b9b9b4b733903937b6329607d1b60179184019182015283516132f0816028840160208801613482565b01602801949350505050565b602081526000825180602084015261331b816040850160208701613482565b601f01601f19169190910160400192915050565b6020808252602c908201527f46756e6374696f6e206d7573742062652063616c6c6564207468726f7567682060408201526b19195b1959d85d1958d85b1b60a21b606082015260800190565b6020808252602c908201527f46756e6374696f6e206d7573742062652063616c6c6564207468726f7567682060408201526b6163746976652070726f787960a01b606082015260800190565b6020808252602b908201527f496e697469616c697a61626c653a20636f6e7472616374206973206e6f74206960408201526a6e697469616c697a696e6760a81b606082015260800190565b6000821982111561342557613425613515565b500190565b60008261344757634e487b7160e01b600052601260045260246000fd5b500490565b600081600019048311821515161561346657613466613515565b500290565b60008282101561347d5761347d613515565b500390565b60005b8381101561349d578181015183820152602001613485565b83811115610c235750506000910152565b6000816134bd576134bd613515565b506000190190565b600181811c908216806134d957607f821691505b60208210811415612ddd57634e487b7160e01b600052602260045260246000fd5b600060001982141561350e5761350e613515565b5060010190565b634e487b7160e01b600052601160045260246000fd5b634e487b7160e01b600052603260045260246000fd5b634e487b7160e01b600052604160045260246000fdfee1ac655ab58995133a870d1fd307ddc1d624c8ad919a09e67867a7a1483e439a548c7f0307ab2a7ea894e5c7e8c5353cc750bb9385ee2e945f189a9a83daa8eda76ace73a908083d89af9ff88e5b4f7cadb3591a80631063f68b695fda726db571840dc4906352362b0cdaf79870196c8e42acafade72d5d5a6d59291253ceb1f988e4fb62b8e14f4820fed03192306ddf4d7dbfa215595ba1c6ba4b76b369ee253122b26cc2118faf5fcfc7761bd75fcfb5508f1f48d1a40db694aba32af5d0416464726573733a206c6f772d6c6576656c2064656c65676174652063616c6c206661696c6564356a809dfdea9198dd76fb76bf6d403ecf13ea675eb89e1eda2db2c4a4676a260d0a0ed3351c10a57d74a44b40c06e0946288e4e3816ac07bb89db2a755562e7ad6a6591fa308fe948065665239402780db8ed4a8c4e4e16c4d066bcaa05efc2ce108bcc5e0f50fe603649304cbbbd94de794a404db82d884c0afc9ba9328e61a26469706673582212201e37e2c6c63d97335c3866d545f26378b8183d77280e077ea31a5848b4e5a04064736f6c63430008060033",
  "linkReferences": {},
  "deployedLinkReferences": {}
}