{
  "_format": "hh-sol-artifact-1",
  "name": "BlacklistBurnTxFeeTemplate",
  "initializer": "function initialize(string name_, string symbol_, uint8 decimals_, uint256 amount_, uint256 txFee, address txFeeBeneficiary)",
  "sourceName": "contracts/templates/BlacklistBurnTxFeeTemplate.sol",
  "abi": [
    {
      "anonymous": false,
      "inputs": [
        {
          "indexed": false,
          "internalType": "address",
          "name": "previousAdmin",
          "type": "address"
        },
        {
          "indexed": false,
          "internalType": "address",
          "name": "newAdmin",
          "type": "address"
        }
      ],
      "name": "AdminChanged",
      "type": "event"
    },
    {
      "anonymous": false,
      "inputs": [
        {
          "indexed": true,
          "internalType": "address",
          "name": "owner",
          "type": "address"
        },
        {
          "indexed": true,
          "internalType": "address",
          "name": "spender",
          "type": "address"
        },
        {
          "indexed": false,
          "internalType": "uint256",
          "name": "value",
          "type": "uint256"
        }
      ],
      "name": "Approval",
      "type": "event"
    },
    {
      "anonymous": false,
      "inputs": [
        {
          "indexed": true,
          "internalType": "address",
          "name": "beacon",
          "type": "address"
        }
      ],
      "name": "BeaconUpgraded",
      "type": "event"
    },
    {
      "anonymous": false,
      "inputs": [
        {
          "indexed": true,
          "internalType": "bytes32",
          "name": "role",
          "type": "bytes32"
        },
        {
          "indexed": true,
          "internalType": "bytes32",
          "name": "previousAdminRole",
          "type": "bytes32"
        },
        {
          "indexed": true,
          "internalType": "bytes32",
          "name": "newAdminRole",
          "type": "bytes32"
        }
      ],
      "name": "RoleAdminChanged",
      "type": "event"
    },
    {
      "anonymous": false,
      "inputs": [
        {
          "indexed": true,
          "internalType": "bytes32",
          "name": "role",
          "type": "bytes32"
        },
        {
          "indexed": true,
          "internalType": "address",
          "name": "account",
          "type": "address"
        },
        {
          "indexed": true,
          "internalType": "address",
          "name": "sender",
          "type": "address"
        }
      ],
      "name": "RoleGranted",
      "type": "event"
    },
    {
      "anonymous": false,
      "inputs": [
        {
          "indexed": true,
          "internalType": "bytes32",
          "name": "role",
          "type": "bytes32"
        },
        {
          "indexed": true,
          "internalType": "address",
          "name": "account",
          "type": "address"
        },
        {
          "indexed": true,
          "internalType": "address",
          "name": "sender",
          "type": "address"
        }
      ],
      "name": "RoleRevoked",
      "type": "event"
    },
    {
      "anonymous": false,
      "inputs": [
        {
          "indexed": true,
          "internalType": "address",
          "name": "from",
          "type": "address"
        },
        {
          "indexed": true,
          "internalType": "address",
          "name": "to",
          "type": "address"
        },
        {
          "indexed": false,
          "internalType": "uint256",
          "name": "value",
          "type": "uint256"
        }
      ],
      "name": "Transfer",
      "type": "event"
    },
    {
      "anonymous": false,
      "inputs": [
        {
          "indexed": true,
          "internalType": "address",
          "name": "implementation",
          "type": "address"
        }
      ],
      "name": "Upgraded",
      "type": "event"
    },
    {
      "inputs": [],
      "name": "BLACKLISTED_ROLE",
      "outputs": [
        {
          "internalType": "bytes32",
          "name": "",
          "type": "bytes32"
        }
      ],
      "stateMutability": "view",
      "type": "function"
    },
    {
      "inputs": [],
      "name": "BLACKLIST_MANAGER_ROLE",
      "outputs": [
        {
          "internalType": "bytes32",
          "name": "",
          "type": "bytes32"
        }
      ],
      "stateMutability": "view",
      "type": "function"
    },
    {
      "inputs": [],
      "name": "DEFAULT_ADMIN_ROLE",
      "outputs": [
        {
          "internalType": "bytes32",
          "name": "",
          "type": "bytes32"
        }
      ],
      "stateMutability": "view",
      "type": "function"
    },
    {
      "inputs": [],
      "name": "GOVERNANCE_ROLE",
      "outputs": [
        {
          "internalType": "bytes32",
          "name": "",
          "type": "bytes32"
        }
      ],
      "stateMutability": "view",
      "type": "function"
    },
    {
      "inputs": [],
      "name": "UPGRADE_MANAGER_ROLE",
      "outputs": [
        {
          "internalType": "bytes32",
          "name": "",
          "type": "bytes32"
        }
      ],
      "stateMutability": "view",
      "type": "function"
    },
    {
      "inputs": [
        {
          "internalType": "address[]",
          "name": "addresses",
          "type": "address[]"
        }
      ],
      "name": "addAddressesToBlacklist",
      "outputs": [],
      "stateMutability": "nonpayable",
      "type": "function"
    },
    {
      "inputs": [
        {
          "internalType": "address",
          "name": "owner",
          "type": "address"
        },
        {
          "internalType": "address",
          "name": "spender",
          "type": "address"
        }
      ],
      "name": "allowance",
      "outputs": [
        {
          "internalType": "uint256",
          "name": "",
          "type": "uint256"
        }
      ],
      "stateMutability": "view",
      "type": "function"
    },
    {
      "inputs": [
        {
          "internalType": "address",
          "name": "spender",
          "type": "address"
        },
        {
          "internalType": "uint256",
          "name": "amount",
          "type": "uint256"
        }
      ],
      "name": "approve",
      "outputs": [
        {
          "internalType": "bool",
          "name": "",
          "type": "bool"
        }
      ],
      "stateMutability": "nonpayable",
      "type": "function"
    },
    {
      "inputs": [
        {
          "internalType": "address",
          "name": "account",
          "type": "address"
        }
      ],
      "name": "balanceOf",
      "outputs": [
        {
          "internalType": "uint256",
          "name": "",
          "type": "uint256"
        }
      ],
      "stateMutability": "view",
      "type": "function"
    },
    {
      "inputs": [
        {
          "internalType": "uint256",
          "name": "amount",
          "type": "uint256"
        }
      ],
      "name": "burn",
      "outputs": [],
      "stateMutability": "nonpayable",
      "type": "function"
    },
    {
      "inputs": [
        {
          "internalType": "address",
          "name": "account",
          "type": "address"
        },
        {
          "internalType": "uint256",
          "name": "amount",
          "type": "uint256"
        }
      ],
      "name": "burnFrom",
      "outputs": [],
      "stateMutability": "nonpayable",
      "type": "function"
    },
    {
      "inputs": [
        {
          "internalType": "uint256",
          "name": "newTxFee",
          "type": "uint256"
        },
        {
          "internalType": "address",
          "name": "newTxBeneficiary",
          "type": "address"
        }
      ],
      "name": "changeTxFeeProperties",
      "outputs": [],
      "stateMutability": "nonpayable",
      "type": "function"
    },
    {
      "inputs": [],
      "name": "decimals",
      "outputs": [
        {
          "internalType": "uint8",
          "name": "",
          "type": "uint8"
        }
      ],
      "stateMutability": "view",
      "type": "function"
    },
    {
      "inputs": [
        {
          "internalType": "address",
          "name": "spender",
          "type": "address"
        },
        {
          "internalType": "uint256",
          "name": "subtractedValue",
          "type": "uint256"
        }
      ],
      "name": "decreaseAllowance",
      "outputs": [
        {
          "internalType": "bool",
          "name": "",
          "type": "bool"
        }
      ],
      "stateMutability": "nonpayable",
      "type": "function"
    },
    {
      "inputs": [],
      "name": "getImplementation",
      "outputs": [
        {
          "internalType": "address",
          "name": "",
          "type": "address"
        }
      ],
      "stateMutability": "view",
      "type": "function"
    },
    {
      "inputs": [
        {
          "internalType": "bytes32",
          "name": "role",
          "type": "bytes32"
        }
      ],
      "name": "getRoleAdmin",
      "outputs": [
        {
          "internalType": "bytes32",
          "name": "",
          "type": "bytes32"
        }
      ],
      "stateMutability": "view",
      "type": "function"
    },
    {
      "inputs": [
        {
          "internalType": "bytes32",
          "name": "role",
          "type": "bytes32"
        },
        {
          "internalType": "address",
          "name": "account",
          "type": "address"
        }
      ],
      "name": "grantRole",
      "outputs": [],
      "stateMutability": "nonpayable",
      "type": "function"
    },
    {
      "inputs": [
        {
          "internalType": "bytes32",
          "name": "role",
          "type": "bytes32"
        },
        {
          "internalType": "address",
          "name": "account",
          "type": "address"
        }
      ],
      "name": "hasRole",
      "outputs": [
        {
          "internalType": "bool",
          "name": "",
          "type": "bool"
        }
      ],
      "stateMutability": "view",
      "type": "function"
    },
    {
      "inputs": [
        {
          "internalType": "address",
          "name": "spender",
          "type": "address"
        },
        {
          "internalType": "uint256",
          "name": "addedValue",
          "type": "uint256"
        }
      ],
      "name": "increaseAllowance",
      "outputs": [
        {
          "internalType": "bool",
          "name": "",
          "type": "bool"
        }
      ],
      "stateMutability": "nonpayable",
      "type": "function"
    },
    {
      "inputs": [
        {
          "internalType": "string",
          "name": "name_",
          "type": "string"
        },
        {
          "internalType": "string",
          "name": "symbol_",
          "type": "string"
        },
        {
          "internalType": "uint8",
          "name": "decimals_",
          "type": "uint8"
        },
        {
          "internalType": "uint256",
          "name": "amount_",
          "type": "uint256"
        },
        {
          "internalType": "uint256",
          "name": "txFee",
          "type": "uint256"
        },
        {
          "internalType": "address",
          "name": "txFeeBeneficiary",
          "type": "address"
        }
      ],
      "name": "initialize",
      "outputs": [],
      "stateMutability": "nonpayable",
      "type": "function"
    },
    {
      "inputs": [],
      "name": "name",
      "outputs": [
        {
          "internalType": "string",
          "name": "",
          "type": "string"
        }
      ],
      "stateMutability": "view",
      "type": "function"
    },
    {
      "inputs": [
        {
          "internalType": "address",
          "name": "implementationAddress",
          "type": "address"
        }
      ],
      "name": "proposeNewImplementation",
      "outputs": [],
      "stateMutability": "nonpayable",
      "type": "function"
    },
    {
      "inputs": [
        {
          "internalType": "address[]",
          "name": "addresses",
          "type": "address[]"
        }
      ],
      "name": "removeAddressesFromBlacklist",
      "outputs": [],
      "stateMutability": "nonpayable",
      "type": "function"
    },
    {
      "inputs": [
        {
          "internalType": "bytes32",
          "name": "role",
          "type": "bytes32"
        },
        {
          "internalType": "address",
          "name": "account",
          "type": "address"
        }
      ],
      "name": "renounceRole",
      "outputs": [],
      "stateMutability": "nonpayable",
      "type": "function"
    },
    {
      "inputs": [
        {
          "internalType": "bytes32",
          "name": "role",
          "type": "bytes32"
        },
        {
          "internalType": "address",
          "name": "account",
          "type": "address"
        }
      ],
      "name": "revokeRole",
      "outputs": [],
      "stateMutability": "nonpayable",
      "type": "function"
    },
    {
      "inputs": [
        {
          "internalType": "bytes4",
          "name": "interfaceId",
          "type": "bytes4"
        }
      ],
      "name": "supportsInterface",
      "outputs": [
        {
          "internalType": "bool",
          "name": "",
          "type": "bool"
        }
      ],
      "stateMutability": "view",
      "type": "function"
    },
    {
      "inputs": [],
      "name": "symbol",
      "outputs": [
        {
          "internalType": "string",
          "name": "",
          "type": "string"
        }
      ],
      "stateMutability": "view",
      "type": "function"
    },
    {
      "inputs": [],
      "name": "totalSupply",
      "outputs": [
        {
          "internalType": "uint256",
          "name": "",
          "type": "uint256"
        }
      ],
      "stateMutability": "view",
      "type": "function"
    },
    {
      "inputs": [
        {
          "internalType": "address",
          "name": "recipient",
          "type": "address"
        },
        {
          "internalType": "uint256",
          "name": "amount",
          "type": "uint256"
        }
      ],
      "name": "transfer",
      "outputs": [
        {
          "internalType": "bool",
          "name": "",
          "type": "bool"
        }
      ],
      "stateMutability": "nonpayable",
      "type": "function"
    },
    {
      "inputs": [
        {
          "internalType": "address",
          "name": "sender",
          "type": "address"
        },
        {
          "internalType": "address",
          "name": "recipient",
          "type": "address"
        },
        {
          "internalType": "uint256",
          "name": "amount",
          "type": "uint256"
        }
      ],
      "name": "transferFrom",
      "outputs": [
        {
          "internalType": "bool",
          "name": "",
          "type": "bool"
        }
      ],
      "stateMutability": "nonpayable",
      "type": "function"
    },
    {
      "inputs": [
        {
          "internalType": "address",
          "name": "newImplementation",
          "type": "address"
        }
      ],
      "name": "upgradeTo",
      "outputs": [],
      "stateMutability": "nonpayable",
      "type": "function"
    },
    {
      "inputs": [
        {
          "internalType": "address",
          "name": "newImplementation",
          "type": "address"
        },
        {
          "internalType": "bytes",
          "name": "data",
          "type": "bytes"
        }
      ],
      "name": "upgradeToAndCall",
      "outputs": [],
      "stateMutability": "payable",
      "type": "function"
    }
  ],
  "bytecode": "0x60a06040523060601b60805234801561001757600080fd5b5060805160601c6128c361004b600039600081816109cf01528181610a0f01528181610b1b0152610b5b01526128c36000f3fe6080604052600436106101e35760003560e01c806347757fb611610102578063a217fddf11610095578063ca73419e11610064578063ca73419e14610599578063d547741f146105b9578063dd62ed3e146105d9578063f36c8f5c1461061f57600080fd5b8063a217fddf14610517578063a457c2d71461052c578063a9059cbb1461054c578063aaf10f421461056c57600080fd5b806370a08231116100d157806370a082311461048c57806379cc6790146104c257806391d14854146104e257806395d89b411461050257600080fd5b806347757fb6146104175780634f1ef286146104375780635120561a1461044a57806362b199c51461046a57600080fd5b8063313ce5671161017a57806339509351116101495780633950935114610393578063410b2424146103b357806342966c68146103d557806343ffa64e146103f557600080fd5b8063313ce56714610310578063322587941461033357806336568abe146103535780633659cfe61461037357600080fd5b806323b872dd116101b657806323b872dd1461027e578063248a9ca31461029e5780632cd77a5a146102ce5780632f2ff15d146102f057600080fd5b806301ffc9a7146101e857806306fdde031461021d578063095ea7b31461023f57806318160ddd1461025f575b600080fd5b3480156101f457600080fd5b506102086102033660046123ff565b610641565b60405190151581526020015b60405180910390f35b34801561022957600080fd5b50610232610678565b6040516102149190612565565b34801561024b57600080fd5b5061020861025a366004612324565b61070a565b34801561026b57600080fd5b506067545b604051908152602001610214565b34801561028a57600080fd5b50610208610299366004612226565b610720565b3480156102aa57600080fd5b506102706102b93660046123c3565b600090815260fb602052604090206001015490565b3480156102da57600080fd5b506102ee6102e9366004612429565b6107d1565b005b3480156102fc57600080fd5b506102ee61030b3660046123dc565b610923565b34801561031c57600080fd5b506101605460405160ff9091168152602001610214565b34801561033f57600080fd5b506102ee61034e36600461234e565b61093b565b34801561035f57600080fd5b506102ee61036e3660046123dc565b6109b0565b34801561037f57600080fd5b506102ee61038e3660046121d8565b6109c4565b34801561039f57600080fd5b506102086103ae366004612324565b610a8d565b3480156103bf57600080fd5b5061027060008051602061282783398151915281565b3480156103e157600080fd5b506102ee6103f03660046123c3565b610ac9565b34801561040157600080fd5b506102706000805160206127e783398151915281565b34801561042357600080fd5b506102ee6104323660046121d8565b610ad3565b6102ee610445366004612262565b610b10565b34801561045657600080fd5b506102ee6104653660046123dc565b610bc6565b34801561047657600080fd5b506102706000805160206127c783398151915281565b34801561049857600080fd5b506102706104a73660046121d8565b6001600160a01b031660009081526065602052604090205490565b3480156104ce57600080fd5b506102ee6104dd366004612324565b610c3b565b3480156104ee57600080fd5b506102086104fd3660046123dc565b610cc1565b34801561050e57600080fd5b50610232610cec565b34801561052357600080fd5b50610270600081565b34801561053857600080fd5b50610208610547366004612324565b610cfb565b34801561055857600080fd5b50610208610567366004612324565b610d94565b34801561057857600080fd5b50610581610da1565b6040516001600160a01b039091168152602001610214565b3480156105a557600080fd5b506102ee6105b436600461234e565b610db0565b3480156105c557600080fd5b506102ee6105d43660046123dc565b610e1f565b3480156105e557600080fd5b506102706105f43660046121f3565b6001600160a01b03918216600090815260666020908152604080832093909416825291909152205490565b34801561062b57600080fd5b5061027060008051602061280783398151915281565b60006001600160e01b03198216637965db0b60e01b148061067257506301ffc9a760e01b6001600160e01b03198316145b92915050565b6060606880546106879061272e565b80601f01602080910402602001604051908101604052809291908181526020018280546106b39061272e565b80156107005780601f106106d557610100808354040283529160200191610700565b820191906000526020600020905b8154815290600101906020018083116106e357829003601f168201915b5050505050905090565b6000610717338484610e45565b50600192915050565b600061072d848484610f69565b6001600160a01b0384166000908152606660209081526040808320338452909152902054828110156107b75760405162461bcd60e51b815260206004820152602860248201527f45524332303a207472616e7366657220616d6f756e74206578636565647320616044820152676c6c6f77616e636560c01b60648201526084015b60405180910390fd5b6107c48533858403610e45565b60019150505b9392505050565b600054610100900460ff166107ec5760005460ff16156107f0565b303b155b6108535760405162461bcd60e51b815260206004820152602e60248201527f496e697469616c697a61626c653a20636f6e747261637420697320616c72656160448201526d191e481a5b9a5d1a585b1a5e995960921b60648201526084016107ae565b600054610100900460ff16158015610875576000805461ffff19166101011790555b6108ec89898080601f01602080910402602001604051908101604052809392919081815260200183838082843760009201919091525050604080516020601f8d018190048102820181019092528b815292508b91508a90819084018382808284376000920191909152508a92508991506111429050565b6108f4611185565b6108fc6111ae565b61090683836111fb565b8015610918576000805461ff00191690555b505050505050505050565b61092d828261128a565b6109378282611319565b5050565b600080516020612827833981519152610954813361133f565b60005b828110156109aa576109986000805160206127c78339815191528585848181106109835761098361279a565b90506020020160208101906105d491906121d8565b806109a281612769565b915050610957565b50505050565b6109ba82826113a3565b610937828261140b565b306001600160a01b037f0000000000000000000000000000000000000000000000000000000000000000161415610a0d5760405162461bcd60e51b81526004016107ae90612598565b7f00000000000000000000000000000000000000000000000000000000000000006001600160a01b0316610a3f611485565b6001600160a01b031614610a655760405162461bcd60e51b81526004016107ae906125e4565b610a6e816114b3565b60408051600080825260208201909252610a8a91839190611535565b50565b3360008181526066602090815260408083206001600160a01b03871684529091528120549091610717918590610ac490869061267b565b610e45565b610a8a3382611680565b600080516020612807833981519152610aec813361133f565b5061012d80546001600160a01b0319166001600160a01b0392909216919091179055565b306001600160a01b037f0000000000000000000000000000000000000000000000000000000000000000161415610b595760405162461bcd60e51b81526004016107ae90612598565b7f00000000000000000000000000000000000000000000000000000000000000006001600160a01b0316610b8b611485565b6001600160a01b031614610bb15760405162461bcd60e51b81526004016107ae906125e4565b610bba826114b3565b61093782826001611535565b6000610bd2813361133f565b6001600160a01b038216610be557600080fd5b8260008051602061284783398151915255817fe38b16c806f019542b2d4bf356bb4ba2ea4b7eb450b8fbff2584f6084c4978f180546001600160a01b0319166001600160a01b0392909216919091179055505050565b6000610c4783336105f4565b905081811015610ca55760405162461bcd60e51b8152602060048201526024808201527f45524332303a206275726e20616d6f756e74206578636565647320616c6c6f77604482015263616e636560e01b60648201526084016107ae565b610cb28333848403610e45565b610cbc8383611680565b505050565b600091825260fb602090815260408084206001600160a01b0393909316845291905290205460ff1690565b6060606980546106879061272e565b3360009081526066602090815260408083206001600160a01b038616845290915281205482811015610d7d5760405162461bcd60e51b815260206004820152602560248201527f45524332303a2064656372656173656420616c6c6f77616e63652062656c6f77604482015264207a65726f60d81b60648201526084016107ae565b610d8a3385858403610e45565b5060019392505050565b6000610717338484610f69565b6000610dab611485565b905090565b600080516020612827833981519152610dc9813361133f565b60005b828110156109aa57610e0d6000805160206127c7833981519152858584818110610df857610df861279a565b905060200201602081019061030b91906121d8565b80610e1781612769565b915050610dcc565b600082815260fb6020526040902060010154610e3b813361133f565b610cbc83836117da565b6001600160a01b038316610ea75760405162461bcd60e51b8152602060048201526024808201527f45524332303a20617070726f76652066726f6d20746865207a65726f206164646044820152637265737360e01b60648201526084016107ae565b6001600160a01b038216610f085760405162461bcd60e51b815260206004820152602260248201527f45524332303a20617070726f766520746f20746865207a65726f206164647265604482015261737360f01b60648201526084016107ae565b6001600160a01b0383811660008181526066602090815260408083209487168084529482529182902085905590518481527f8c5be1e5ebec7d5bd14f71427d1e84f3dd0314c0f7b2291e5b200ac8c7c3b925910160405180910390a3505050565b6001600160a01b038316610fcd5760405162461bcd60e51b815260206004820152602560248201527f45524332303a207472616e736665722066726f6d20746865207a65726f206164604482015264647265737360d81b60648201526084016107ae565b6001600160a01b03821661102f5760405162461bcd60e51b815260206004820152602360248201527f45524332303a207472616e7366657220746f20746865207a65726f206164647260448201526265737360e81b60648201526084016107ae565b61103a838383611841565b6001600160a01b038316600090815260656020526040902054818110156110b25760405162461bcd60e51b815260206004820152602660248201527f45524332303a207472616e7366657220616d6f756e7420657863656564732062604482015265616c616e636560d01b60648201526084016107ae565b6001600160a01b038085166000908152606560205260408082208585039055918516815290812080548492906110e990849061267b565b92505081905550826001600160a01b0316846001600160a01b03167fddf252ad1be2c89b69c2b068fc378daa952ba7f163c4a11628f55a4df523b3ef8460405161113591815260200190565b60405180910390a36109aa565b600054610100900460ff166111695760405162461bcd60e51b81526004016107ae90612630565b61117161184c565b61117b84846118a3565b6109aa82826118f1565b600054610100900460ff166111ac5760405162461bcd60e51b81526004016107ae90612630565b565b600054610100900460ff166111d55760405162461bcd60e51b81526004016107ae90612630565b6111ac6000805160206127c7833981519152600080516020612827833981519152611932565b600054610100900460ff166112225760405162461bcd60e51b81526004016107ae90612630565b6001600160a01b03811661123557600080fd5b8160008051602061284783398151915255807fe38b16c806f019542b2d4bf356bb4ba2ea4b7eb450b8fbff2584f6084c4978f180546001600160a01b0319166001600160a01b03929092169190911790555050565b6000805160206128278339815191528214806112a4575081155b15610937576112c16000805160206127c783398151915282610cc1565b156109375760405162461bcd60e51b815260206004820152602260248201527f63616e206e6f742061737369676e20726f6c6520746f20626c61636b6c697374604482015261195960f21b60648201526084016107ae565b600082815260fb6020526040902060010154611335813361133f565b610cbc838361197d565b6113498282610cc1565b61093757611361816001600160a01b03166014611a03565b61136c836020611a03565b60405160200161137d9291906124f0565b60408051601f198184030181529082905262461bcd60e51b82526107ae91600401612565565b6000805160206127c78339815191528214156109375760405162461bcd60e51b815260206004820152602160248201527f43616e206e6f742072656e6f756e636520626c61636b6c697374656420726f6c6044820152606560f81b60648201526084016107ae565b6001600160a01b038116331461147b5760405162461bcd60e51b815260206004820152602f60248201527f416363657373436f6e74726f6c3a2063616e206f6e6c792072656e6f756e636560448201526e103937b632b9903337b91039b2b63360891b60648201526084016107ae565b61093782826117da565b7f360894a13ba1a3210667c828492db98dca3e2076cc3735a920a3ca505d382bbc546001600160a01b031690565b6114cb60008051602061280783398151915233610cc1565b806114e957506114e96000805160206127e783398151915233610cc1565b610a8a5760405162461bcd60e51b815260206004820152601d60248201527f4552524f523a2041646472657373206e6f7420617574686f72697a656400000060448201526064016107ae565b600061153f611485565b905061154a84611b9f565b6000835111806115575750815b15611568576115668484611c44565b505b7f4910fdfa16fed3260ed0e7147f7cc6da11a60208b5b9406d12a635614ffd9143805460ff1661167957805460ff191660011781556040516001600160a01b03831660248201526115e790869060440160408051601f198184030181529190526020810180516001600160e01b0316631b2ce7f360e11b179052611c44565b50805460ff191681556115f8611485565b6001600160a01b0316826001600160a01b0316146116705760405162461bcd60e51b815260206004820152602f60248201527f45524331393637557067726164653a207570677261646520627265616b73206660448201526e75727468657220757067726164657360881b60648201526084016107ae565b61167985611d2f565b5050505050565b6001600160a01b0382166116e05760405162461bcd60e51b815260206004820152602160248201527f45524332303a206275726e2066726f6d20746865207a65726f206164647265736044820152607360f81b60648201526084016107ae565b6116ec82600083611841565b6001600160a01b038216600090815260656020526040902054818110156117605760405162461bcd60e51b815260206004820152602260248201527f45524332303a206275726e20616d6f756e7420657863656564732062616c616e604482015261636560f01b60648201526084016107ae565b6001600160a01b038316600090815260656020526040812083830390556067805484929061178f9084906126d4565b90915550506040518281526000906001600160a01b038516907fddf252ad1be2c89b69c2b068fc378daa952ba7f163c4a11628f55a4df523b3ef9060200160405180910390a3505050565b6117e48282610cc1565b1561093757600082815260fb602090815260408083206001600160a01b0385168085529252808320805460ff1916905551339285917ff6391f5c32d9c69d2a47ea670b442974b53935d1edc7fd64eb21e047a839171b9190a45050565b610cbc838383611d6f565b600054610100900460ff166118735760405162461bcd60e51b81526004016107ae90612630565b61187b611185565b611883611185565b61188b611185565b611893611185565b61189b611185565b6111ac611d85565b600054610100900460ff166118ca5760405162461bcd60e51b81526004016107ae90612630565b81516118dd9060689060208501906120da565b508051610cbc9060699060208401906120da565b600054610100900460ff166119185760405162461bcd60e51b81526004016107ae90612630565b610160805460ff191660ff84161790556109373382611e0d565b600082815260fb6020526040808220600101805490849055905190918391839186917fbd79b86ffe0ab8e8776151514217cd7cacd52c909f66475c3af44e129f0b00ff9190a4505050565b6119878282610cc1565b61093757600082815260fb602090815260408083206001600160a01b03851684529091529020805460ff191660011790556119bf3390565b6001600160a01b0316816001600160a01b0316837f2f8788117e7eff1d82e926ec794901d17c78024a50270940304540a733656f0d60405160405180910390a45050565b60606000611a128360026126b5565b611a1d90600261267b565b67ffffffffffffffff811115611a3557611a356127b0565b6040519080825280601f01601f191660200182016040528015611a5f576020820181803683370190505b509050600360fc1b81600081518110611a7a57611a7a61279a565b60200101906001600160f81b031916908160001a905350600f60fb1b81600181518110611aa957611aa961279a565b60200101906001600160f81b031916908160001a9053506000611acd8460026126b5565b611ad890600161267b565b90505b6001811115611b50576f181899199a1a9b1b9c1cb0b131b232b360811b85600f1660108110611b0c57611b0c61279a565b1a60f81b828281518110611b2257611b2261279a565b60200101906001600160f81b031916908160001a90535060049490941c93611b4981612717565b9050611adb565b5083156107ca5760405162461bcd60e51b815260206004820181905260248201527f537472696e67733a20686578206c656e67746820696e73756666696369656e7460448201526064016107ae565b803b611c035760405162461bcd60e51b815260206004820152602d60248201527f455243313936373a206e657720696d706c656d656e746174696f6e206973206e60448201526c1bdd08184818dbdb9d1c9858dd609a1b60648201526084016107ae565b7f360894a13ba1a3210667c828492db98dca3e2076cc3735a920a3ca505d382bbc80546001600160a01b0319166001600160a01b0392909216919091179055565b6060823b611ca35760405162461bcd60e51b815260206004820152602660248201527f416464726573733a2064656c65676174652063616c6c20746f206e6f6e2d636f6044820152651b9d1c9858dd60d21b60648201526084016107ae565b600080846001600160a01b031684604051611cbe91906124d4565b600060405180830381855af49150503d8060008114611cf9576040519150601f19603f3d011682016040523d82523d6000602084013e611cfe565b606091505b5091509150611d26828260405180606001604052806027815260200161286760279139611ef8565b95945050505050565b611d3881611b9f565b6040516001600160a01b038216907fbc7cd75a20ee27fd9adebab32041f755214dbc6bffa90cc0225b39da2e5c2d3b90600090a250565b611d7a838383611f31565b610cbc838383611f89565b600054610100900460ff16611dac5760405162461bcd60e51b81526004016107ae90612630565b611db7600033612072565b611dcf60008051602061280783398151915233612072565b611de76000805160206127e783398151915233612072565b6111ac6000805160206127e7833981519152600080516020612807833981519152611932565b6001600160a01b038216611e635760405162461bcd60e51b815260206004820152601f60248201527f45524332303a206d696e7420746f20746865207a65726f20616464726573730060448201526064016107ae565b611e6f60008383611841565b8060676000828254611e81919061267b565b90915550506001600160a01b03821660009081526065602052604081208054839290611eae90849061267b565b90915550506040518181526001600160a01b038316906000907fddf252ad1be2c89b69c2b068fc378daa952ba7f163c4a11628f55a4df523b3ef9060200160405180910390a35050565b60608315611f075750816107ca565b825115611f175782518084602001fd5b8160405162461bcd60e51b81526004016107ae9190612565565b611f3c33848461207c565b15610cbc5760405162461bcd60e51b815260206004820152601a60248201527f4552524f523a204164647265737320426c61636b6c697374656400000000000060448201526064016107ae565b600080516020612847833981519152547fe38b16c806f019542b2d4bf356bb4ba2ea4b7eb450b8fbff2584f6084c4978f1546001600160a01b0316811580611fe25750836001600160a01b0316816001600160a01b0316145b80611ffe5750846001600160a01b0316816001600160a01b0316145b8061201057506001600160a01b038516155b8061202257506001600160a01b038416155b1561202e575050505050565b6000670de0b6b3a76400006000805160206128478339815191525461205390866126b5565b61205d9190612693565b905061206a868383610f69565b505050505050565b610937828261197d565b60006120966000805160206127c783398151915284610cc1565b806120b457506120b46000805160206127c783398151915285610cc1565b806120d257506120d26000805160206127c783398151915283610cc1565b949350505050565b8280546120e69061272e565b90600052602060002090601f016020900481019282612108576000855561214e565b82601f1061212157805160ff191683800117855561214e565b8280016001018555821561214e579182015b8281111561214e578251825591602001919060010190612133565b5061215a92915061215e565b5090565b5b8082111561215a576000815560010161215f565b80356001600160a01b038116811461218a57600080fd5b919050565b60008083601f8401126121a157600080fd5b50813567ffffffffffffffff8111156121b957600080fd5b6020830191508360208285010111156121d157600080fd5b9250929050565b6000602082840312156121ea57600080fd5b6107ca82612173565b6000806040838503121561220657600080fd5b61220f83612173565b915061221d60208401612173565b90509250929050565b60008060006060848603121561223b57600080fd5b61224484612173565b925061225260208501612173565b9150604084013590509250925092565b6000806040838503121561227557600080fd5b61227e83612173565b9150602083013567ffffffffffffffff8082111561229b57600080fd5b818501915085601f8301126122af57600080fd5b8135818111156122c1576122c16127b0565b604051601f8201601f19908116603f011681019083821181831017156122e9576122e96127b0565b8160405282815288602084870101111561230257600080fd5b8260208601602083013760006020848301015280955050505050509250929050565b6000806040838503121561233757600080fd5b61234083612173565b946020939093013593505050565b6000806020838503121561236157600080fd5b823567ffffffffffffffff8082111561237957600080fd5b818501915085601f83011261238d57600080fd5b81358181111561239c57600080fd5b8660208260051b85010111156123b157600080fd5b60209290920196919550909350505050565b6000602082840312156123d557600080fd5b5035919050565b600080604083850312156123ef57600080fd5b8235915061221d60208401612173565b60006020828403121561241157600080fd5b81356001600160e01b0319811681146107ca57600080fd5b60008060008060008060008060c0898b03121561244557600080fd5b883567ffffffffffffffff8082111561245d57600080fd5b6124698c838d0161218f565b909a50985060208b013591508082111561248257600080fd5b5061248f8b828c0161218f565b909750955050604089013560ff811681146124a957600080fd5b935060608901359250608089013591506124c560a08a01612173565b90509295985092959890939650565b600082516124e68184602087016126eb565b9190910192915050565b7f416363657373436f6e74726f6c3a206163636f756e74200000000000000000008152600083516125288160178501602088016126eb565b7001034b99036b4b9b9b4b733903937b6329607d1b60179184019182015283516125598160288401602088016126eb565b01602801949350505050565b60208152600082518060208401526125848160408501602087016126eb565b601f01601f19169190910160400192915050565b6020808252602c908201527f46756e6374696f6e206d7573742062652063616c6c6564207468726f7567682060408201526b19195b1959d85d1958d85b1b60a21b606082015260800190565b6020808252602c908201527f46756e6374696f6e206d7573742062652063616c6c6564207468726f7567682060408201526b6163746976652070726f787960a01b606082015260800190565b6020808252602b908201527f496e697469616c697a61626c653a20636f6e7472616374206973206e6f74206960408201526a6e697469616c697a696e6760a81b606082015260800190565b6000821982111561268e5761268e612784565b500190565b6000826126b057634e487b7160e01b600052601260045260246000fd5b500490565b60008160001904831182151516156126cf576126cf612784565b500290565b6000828210156126e6576126e6612784565b500390565b60005b838110156127065781810151838201526020016126ee565b838111156109aa5750506000910152565b60008161272657612726612784565b506000190190565b600181811c9082168061274257607f821691505b6020821081141561276357634e487b7160e01b600052602260045260246000fd5b50919050565b600060001982141561277d5761277d612784565b5060010190565b634e487b7160e01b600052601160045260246000fd5b634e487b7160e01b600052603260045260246000fd5b634e487b7160e01b600052604160045260246000fdfe548c7f0307ab2a7ea894e5c7e8c5353cc750bb9385ee2e945f189a9a83daa8eda76ace73a908083d89af9ff88e5b4f7cadb3591a80631063f68b695fda726db571840dc4906352362b0cdaf79870196c8e42acafade72d5d5a6d59291253ceb1f988e4fb62b8e14f4820fed03192306ddf4d7dbfa215595ba1c6ba4b76b369ee253122b26cc2118faf5fcfc7761bd75fcfb5508f1f48d1a40db694aba32af5d0416464726573733a206c6f772d6c6576656c2064656c65676174652063616c6c206661696c6564a2646970667358221220c7a4308382727283211718b8f399509c7ca3e539b48bdcf82e24e0210b1a08d564736f6c63430008060033",
  "linkReferences": {},
  "deployedLinkReferences": {}
}