{
  "_format": "hh-sol-artifact-1",
  "name": "BlacklistMintSnapshotTxFeeWhiteListTemplate",
  "initializer": "function initialize(string name_, string symbol_, uint8 decimals_, uint256 amount_, uint256 txFee, address txFeeBeneficiary)",
  "sourceName": "contracts/templates/BlacklistMintSnapshotTxFeeWhiteListTemplate.sol",
  "abi": [
    {
      "anonymous": false,
      "inputs": [
        {
          "indexed": false,
          "internalType": "address",
          "name": "previousAdmin",
          "type": "address"
        },
        {
          "indexed": false,
          "internalType": "address",
          "name": "newAdmin",
          "type": "address"
        }
      ],
      "name": "AdminChanged",
      "type": "event"
    },
    {
      "anonymous": false,
      "inputs": [
        {
          "indexed": true,
          "internalType": "address",
          "name": "owner",
          "type": "address"
        },
        {
          "indexed": true,
          "internalType": "address",
          "name": "spender",
          "type": "address"
        },
        {
          "indexed": false,
          "internalType": "uint256",
          "name": "value",
          "type": "uint256"
        }
      ],
      "name": "Approval",
      "type": "event"
    },
    {
      "anonymous": false,
      "inputs": [
        {
          "indexed": true,
          "internalType": "address",
          "name": "beacon",
          "type": "address"
        }
      ],
      "name": "BeaconUpgraded",
      "type": "event"
    },
    {
      "anonymous": false,
      "inputs": [
        {
          "indexed": false,
          "internalType": "address",
          "name": "account",
          "type": "address"
        }
      ],
      "name": "Paused",
      "type": "event"
    },
    {
      "anonymous": false,
      "inputs": [
        {
          "indexed": true,
          "internalType": "bytes32",
          "name": "role",
          "type": "bytes32"
        },
        {
          "indexed": true,
          "internalType": "bytes32",
          "name": "previousAdminRole",
          "type": "bytes32"
        },
        {
          "indexed": true,
          "internalType": "bytes32",
          "name": "newAdminRole",
          "type": "bytes32"
        }
      ],
      "name": "RoleAdminChanged",
      "type": "event"
    },
    {
      "anonymous": false,
      "inputs": [
        {
          "indexed": true,
          "internalType": "bytes32",
          "name": "role",
          "type": "bytes32"
        },
        {
          "indexed": true,
          "internalType": "address",
          "name": "account",
          "type": "address"
        },
        {
          "indexed": true,
          "internalType": "address",
          "name": "sender",
          "type": "address"
        }
      ],
      "name": "RoleGranted",
      "type": "event"
    },
    {
      "anonymous": false,
      "inputs": [
        {
          "indexed": true,
          "internalType": "bytes32",
          "name": "role",
          "type": "bytes32"
        },
        {
          "indexed": true,
          "internalType": "address",
          "name": "account",
          "type": "address"
        },
        {
          "indexed": true,
          "internalType": "address",
          "name": "sender",
          "type": "address"
        }
      ],
      "name": "RoleRevoked",
      "type": "event"
    },
    {
      "anonymous": false,
      "inputs": [
        {
          "indexed": false,
          "internalType": "uint256",
          "name": "id",
          "type": "uint256"
        }
      ],
      "name": "Snapshot",
      "type": "event"
    },
    {
      "anonymous": false,
      "inputs": [
        {
          "indexed": true,
          "internalType": "address",
          "name": "from",
          "type": "address"
        },
        {
          "indexed": true,
          "internalType": "address",
          "name": "to",
          "type": "address"
        },
        {
          "indexed": false,
          "internalType": "uint256",
          "name": "value",
          "type": "uint256"
        }
      ],
      "name": "Transfer",
      "type": "event"
    },
    {
      "anonymous": false,
      "inputs": [
        {
          "indexed": false,
          "internalType": "address",
          "name": "account",
          "type": "address"
        }
      ],
      "name": "Unpaused",
      "type": "event"
    },
    {
      "anonymous": false,
      "inputs": [
        {
          "indexed": true,
          "internalType": "address",
          "name": "implementation",
          "type": "address"
        }
      ],
      "name": "Upgraded",
      "type": "event"
    },
    {
      "inputs": [],
      "name": "BLACKLISTED_ROLE",
      "outputs": [
        {
          "internalType": "bytes32",
          "name": "",
          "type": "bytes32"
        }
      ],
      "stateMutability": "view",
      "type": "function"
    },
    {
      "inputs": [],
      "name": "BLACKLIST_MANAGER_ROLE",
      "outputs": [
        {
          "internalType": "bytes32",
          "name": "",
          "type": "bytes32"
        }
      ],
      "stateMutability": "view",
      "type": "function"
    },
    {
      "inputs": [],
      "name": "DEFAULT_ADMIN_ROLE",
      "outputs": [
        {
          "internalType": "bytes32",
          "name": "",
          "type": "bytes32"
        }
      ],
      "stateMutability": "view",
      "type": "function"
    },
    {
      "inputs": [],
      "name": "GOVERNANCE_ROLE",
      "outputs": [
        {
          "internalType": "bytes32",
          "name": "",
          "type": "bytes32"
        }
      ],
      "stateMutability": "view",
      "type": "function"
    },
    {
      "inputs": [],
      "name": "MINTER_ROLE",
      "outputs": [
        {
          "internalType": "bytes32",
          "name": "",
          "type": "bytes32"
        }
      ],
      "stateMutability": "view",
      "type": "function"
    },
    {
      "inputs": [],
      "name": "PAUSE_MANAGER_ROLE",
      "outputs": [
        {
          "internalType": "bytes32",
          "name": "",
          "type": "bytes32"
        }
      ],
      "stateMutability": "view",
      "type": "function"
    },
    {
      "inputs": [],
      "name": "UPGRADE_MANAGER_ROLE",
      "outputs": [
        {
          "internalType": "bytes32",
          "name": "",
          "type": "bytes32"
        }
      ],
      "stateMutability": "view",
      "type": "function"
    },
    {
      "inputs": [],
      "name": "WHITELISTED_FROM_ROLE",
      "outputs": [
        {
          "internalType": "bytes32",
          "name": "",
          "type": "bytes32"
        }
      ],
      "stateMutability": "view",
      "type": "function"
    },
    {
      "inputs": [],
      "name": "WHITELISTED_SENDER_ROLE",
      "outputs": [
        {
          "internalType": "bytes32",
          "name": "",
          "type": "bytes32"
        }
      ],
      "stateMutability": "view",
      "type": "function"
    },
    {
      "inputs": [
        {
          "internalType": "address[]",
          "name": "addresses",
          "type": "address[]"
        }
      ],
      "name": "addAddressesToBlacklist",
      "outputs": [],
      "stateMutability": "nonpayable",
      "type": "function"
    },
    {
      "inputs": [
        {
          "internalType": "address[]",
          "name": "addresses",
          "type": "address[]"
        }
      ],
      "name": "addAddressesToWhitelistFrom",
      "outputs": [],
      "stateMutability": "nonpayable",
      "type": "function"
    },
    {
      "inputs": [
        {
          "internalType": "address[]",
          "name": "addresses",
          "type": "address[]"
        }
      ],
      "name": "addAddressesToWhitelistSender",
      "outputs": [],
      "stateMutability": "nonpayable",
      "type": "function"
    },
    {
      "inputs": [
        {
          "internalType": "address",
          "name": "owner",
          "type": "address"
        },
        {
          "internalType": "address",
          "name": "spender",
          "type": "address"
        }
      ],
      "name": "allowance",
      "outputs": [
        {
          "internalType": "uint256",
          "name": "",
          "type": "uint256"
        }
      ],
      "stateMutability": "view",
      "type": "function"
    },
    {
      "inputs": [
        {
          "internalType": "address",
          "name": "spender",
          "type": "address"
        },
        {
          "internalType": "uint256",
          "name": "amount",
          "type": "uint256"
        }
      ],
      "name": "approve",
      "outputs": [
        {
          "internalType": "bool",
          "name": "",
          "type": "bool"
        }
      ],
      "stateMutability": "nonpayable",
      "type": "function"
    },
    {
      "inputs": [
        {
          "internalType": "address",
          "name": "account",
          "type": "address"
        }
      ],
      "name": "balanceOf",
      "outputs": [
        {
          "internalType": "uint256",
          "name": "",
          "type": "uint256"
        }
      ],
      "stateMutability": "view",
      "type": "function"
    },
    {
      "inputs": [
        {
          "internalType": "address",
          "name": "account",
          "type": "address"
        },
        {
          "internalType": "uint256",
          "name": "snapshotId",
          "type": "uint256"
        }
      ],
      "name": "balanceOfAt",
      "outputs": [
        {
          "internalType": "uint256",
          "name": "",
          "type": "uint256"
        }
      ],
      "stateMutability": "view",
      "type": "function"
    },
    {
      "inputs": [
        {
          "internalType": "address[]",
          "name": "accounts",
          "type": "address[]"
        },
        {
          "internalType": "uint256[]",
          "name": "amounts",
          "type": "uint256[]"
        }
      ],
      "name": "bulkMint",
      "outputs": [],
      "stateMutability": "nonpayable",
      "type": "function"
    },
    {
      "inputs": [
        {
          "internalType": "uint256",
          "name": "newTxFee",
          "type": "uint256"
        },
        {
          "internalType": "address",
          "name": "newTxBeneficiary",
          "type": "address"
        }
      ],
      "name": "changeTxFeeProperties",
      "outputs": [],
      "stateMutability": "nonpayable",
      "type": "function"
    },
    {
      "inputs": [],
      "name": "decimals",
      "outputs": [
        {
          "internalType": "uint8",
          "name": "",
          "type": "uint8"
        }
      ],
      "stateMutability": "view",
      "type": "function"
    },
    {
      "inputs": [
        {
          "internalType": "address",
          "name": "spender",
          "type": "address"
        },
        {
          "internalType": "uint256",
          "name": "subtractedValue",
          "type": "uint256"
        }
      ],
      "name": "decreaseAllowance",
      "outputs": [
        {
          "internalType": "bool",
          "name": "",
          "type": "bool"
        }
      ],
      "stateMutability": "nonpayable",
      "type": "function"
    },
    {
      "inputs": [],
      "name": "getCurrentSnapshotId",
      "outputs": [
        {
          "internalType": "uint256",
          "name": "",
          "type": "uint256"
        }
      ],
      "stateMutability": "view",
      "type": "function"
    },
    {
      "inputs": [],
      "name": "getImplementation",
      "outputs": [
        {
          "internalType": "address",
          "name": "",
          "type": "address"
        }
      ],
      "stateMutability": "view",
      "type": "function"
    },
    {
      "inputs": [
        {
          "internalType": "bytes32",
          "name": "role",
          "type": "bytes32"
        }
      ],
      "name": "getRoleAdmin",
      "outputs": [
        {
          "internalType": "bytes32",
          "name": "",
          "type": "bytes32"
        }
      ],
      "stateMutability": "view",
      "type": "function"
    },
    {
      "inputs": [
        {
          "internalType": "bytes32",
          "name": "role",
          "type": "bytes32"
        },
        {
          "internalType": "address",
          "name": "account",
          "type": "address"
        }
      ],
      "name": "grantRole",
      "outputs": [],
      "stateMutability": "nonpayable",
      "type": "function"
    },
    {
      "inputs": [
        {
          "internalType": "bytes32",
          "name": "role",
          "type": "bytes32"
        },
        {
          "internalType": "address",
          "name": "account",
          "type": "address"
        }
      ],
      "name": "hasRole",
      "outputs": [
        {
          "internalType": "bool",
          "name": "",
          "type": "bool"
        }
      ],
      "stateMutability": "view",
      "type": "function"
    },
    {
      "inputs": [
        {
          "internalType": "address",
          "name": "spender",
          "type": "address"
        },
        {
          "internalType": "uint256",
          "name": "addedValue",
          "type": "uint256"
        }
      ],
      "name": "increaseAllowance",
      "outputs": [
        {
          "internalType": "bool",
          "name": "",
          "type": "bool"
        }
      ],
      "stateMutability": "nonpayable",
      "type": "function"
    },
    {
      "inputs": [
        {
          "internalType": "string",
          "name": "name_",
          "type": "string"
        },
        {
          "internalType": "string",
          "name": "symbol_",
          "type": "string"
        },
        {
          "internalType": "uint8",
          "name": "decimals_",
          "type": "uint8"
        },
        {
          "internalType": "uint256",
          "name": "amount_",
          "type": "uint256"
        },
        {
          "internalType": "uint256",
          "name": "txFee",
          "type": "uint256"
        },
        {
          "internalType": "address",
          "name": "txFeeBeneficiary",
          "type": "address"
        }
      ],
      "name": "initialize",
      "outputs": [],
      "stateMutability": "nonpayable",
      "type": "function"
    },
    {
      "inputs": [
        {
          "internalType": "address",
          "name": "account",
          "type": "address"
        },
        {
          "internalType": "uint256",
          "name": "amount",
          "type": "uint256"
        }
      ],
      "name": "mint",
      "outputs": [],
      "stateMutability": "nonpayable",
      "type": "function"
    },
    {
      "inputs": [],
      "name": "name",
      "outputs": [
        {
          "internalType": "string",
          "name": "",
          "type": "string"
        }
      ],
      "stateMutability": "view",
      "type": "function"
    },
    {
      "inputs": [],
      "name": "pause",
      "outputs": [],
      "stateMutability": "nonpayable",
      "type": "function"
    },
    {
      "inputs": [],
      "name": "paused",
      "outputs": [
        {
          "internalType": "bool",
          "name": "",
          "type": "bool"
        }
      ],
      "stateMutability": "view",
      "type": "function"
    },
    {
      "inputs": [
        {
          "internalType": "address",
          "name": "implementationAddress",
          "type": "address"
        }
      ],
      "name": "proposeNewImplementation",
      "outputs": [],
      "stateMutability": "nonpayable",
      "type": "function"
    },
    {
      "inputs": [
        {
          "internalType": "address[]",
          "name": "addresses",
          "type": "address[]"
        }
      ],
      "name": "removeAddressesFromBlacklist",
      "outputs": [],
      "stateMutability": "nonpayable",
      "type": "function"
    },
    {
      "inputs": [
        {
          "internalType": "address[]",
          "name": "addresses",
          "type": "address[]"
        }
      ],
      "name": "removeAddressesFromWhitelistFrom",
      "outputs": [],
      "stateMutability": "nonpayable",
      "type": "function"
    },
    {
      "inputs": [
        {
          "internalType": "address[]",
          "name": "addresses",
          "type": "address[]"
        }
      ],
      "name": "removeAddressesFromWhitelistSender",
      "outputs": [],
      "stateMutability": "nonpayable",
      "type": "function"
    },
    {
      "inputs": [
        {
          "internalType": "bytes32",
          "name": "role",
          "type": "bytes32"
        },
        {
          "internalType": "address",
          "name": "account",
          "type": "address"
        }
      ],
      "name": "renounceRole",
      "outputs": [],
      "stateMutability": "nonpayable",
      "type": "function"
    },
    {
      "inputs": [
        {
          "internalType": "bytes32",
          "name": "role",
          "type": "bytes32"
        },
        {
          "internalType": "address",
          "name": "account",
          "type": "address"
        }
      ],
      "name": "revokeRole",
      "outputs": [],
      "stateMutability": "nonpayable",
      "type": "function"
    },
    {
      "inputs": [],
      "name": "snapshot",
      "outputs": [],
      "stateMutability": "nonpayable",
      "type": "function"
    },
    {
      "inputs": [
        {
          "internalType": "bytes4",
          "name": "interfaceId",
          "type": "bytes4"
        }
      ],
      "name": "supportsInterface",
      "outputs": [
        {
          "internalType": "bool",
          "name": "",
          "type": "bool"
        }
      ],
      "stateMutability": "view",
      "type": "function"
    },
    {
      "inputs": [],
      "name": "symbol",
      "outputs": [
        {
          "internalType": "string",
          "name": "",
          "type": "string"
        }
      ],
      "stateMutability": "view",
      "type": "function"
    },
    {
      "inputs": [],
      "name": "totalSupply",
      "outputs": [
        {
          "internalType": "uint256",
          "name": "",
          "type": "uint256"
        }
      ],
      "stateMutability": "view",
      "type": "function"
    },
    {
      "inputs": [
        {
          "internalType": "uint256",
          "name": "snapshotId",
          "type": "uint256"
        }
      ],
      "name": "totalSupplyAt",
      "outputs": [
        {
          "internalType": "uint256",
          "name": "",
          "type": "uint256"
        }
      ],
      "stateMutability": "view",
      "type": "function"
    },
    {
      "inputs": [
        {
          "internalType": "address",
          "name": "recipient",
          "type": "address"
        },
        {
          "internalType": "uint256",
          "name": "amount",
          "type": "uint256"
        }
      ],
      "name": "transfer",
      "outputs": [
        {
          "internalType": "bool",
          "name": "",
          "type": "bool"
        }
      ],
      "stateMutability": "nonpayable",
      "type": "function"
    },
    {
      "inputs": [
        {
          "internalType": "address",
          "name": "sender",
          "type": "address"
        },
        {
          "internalType": "address",
          "name": "recipient",
          "type": "address"
        },
        {
          "internalType": "uint256",
          "name": "amount",
          "type": "uint256"
        }
      ],
      "name": "transferFrom",
      "outputs": [
        {
          "internalType": "bool",
          "name": "",
          "type": "bool"
        }
      ],
      "stateMutability": "nonpayable",
      "type": "function"
    },
    {
      "inputs": [],
      "name": "unpause",
      "outputs": [],
      "stateMutability": "nonpayable",
      "type": "function"
    },
    {
      "inputs": [
        {
          "internalType": "address",
          "name": "newImplementation",
          "type": "address"
        }
      ],
      "name": "upgradeTo",
      "outputs": [],
      "stateMutability": "nonpayable",
      "type": "function"
    },
    {
      "inputs": [
        {
          "internalType": "address",
          "name": "newImplementation",
          "type": "address"
        },
        {
          "internalType": "bytes",
          "name": "data",
          "type": "bytes"
        }
      ],
      "name": "upgradeToAndCall",
      "outputs": [],
      "stateMutability": "payable",
      "type": "function"
    }
  ],
  "bytecode": "0x60a06040523060601b60805234801561001757600080fd5b5060805160601c6134a961004b60003960008181610be201528181610c2201528181610e240152610e6401526134a96000f3fe6080604052600436106102885760003560e01c806362b199c51161015a578063a457c2d7116100c1578063d53913931161007a578063d5391393146107bb578063d547741f146107ef578063d84f91e81461080f578063dd62ed3e14610831578063f36c8f5c14610877578063f834c5021461089957600080fd5b8063a457c2d7146106ec578063a9059cbb1461070c578063aa74a34a1461072c578063aaf10f421461074e578063c233f3b71461077b578063ca73419e1461079b57600080fd5b80638456cb59116101135780638456cb591461065857806391d148541461066d57806395d89b411461068d5780639711715a146106a2578063981b24d0146106b7578063a217fddf146106d757600080fd5b806362b199c51461057e578063685ed81a146105a05780636ae459bd146105c05780636e79a1c0146105e057806370a0823114610600578063731ce8fc1461063657600080fd5b80633659cfe6116101fe57806347757fb6116101b757806347757fb6146104d15780634ee2cd7e146104f15780634f1ef286146105115780635120561a146105245780635439ad86146105445780635c975abb1461055957600080fd5b80633659cfe61461041857806339509351146104385780633f4ba83a1461045857806340c10f191461046d578063410b24241461048d57806343ffa64e146104af57600080fd5b8063248a9ca311610250578063248a9ca3146103435780632cd77a5a146103735780632f2ff15d14610395578063313ce567146103b557806332258794146103d857806336568abe146103f857600080fd5b806301ffc9a71461028d57806306fdde03146102c2578063095ea7b3146102e457806318160ddd1461030457806323b872dd14610323575b600080fd5b34801561029957600080fd5b506102ad6102a8366004612f57565b6108b9565b60405190151581526020015b60405180910390f35b3480156102ce57600080fd5b506102d76108f0565b6040516102b991906130b1565b3480156102f057600080fd5b506102ad6102ff366004612e43565b610982565b34801561031057600080fd5b506067545b6040519081526020016102b9565b34801561032f57600080fd5b506102ad61033e366004612da5565b610998565b34801561034f57600080fd5b5061031561035e366004612f1b565b600090815260fb602052604090206001015490565b34801561037f57600080fd5b5061039361038e366004612f81565b610a49565b005b3480156103a157600080fd5b506103936103b0366004612f34565b610b36565b3480156103c157600080fd5b506101605460405160ff90911681526020016102b9565b3480156103e457600080fd5b506103936103f3366004612e6d565b610b4e565b34801561040457600080fd5b50610393610413366004612f34565b610bc3565b34801561042457600080fd5b50610393610433366004612d57565b610bd7565b34801561044457600080fd5b506102ad610453366004612e43565b610ca0565b34801561046457600080fd5b50610393610cdc565b34801561047957600080fd5b50610393610488366004612e43565b610cfd565b34801561049957600080fd5b5061031560008051602061338d83398151915281565b3480156104bb57600080fd5b5061031560008051602061334d83398151915281565b3480156104dd57600080fd5b506103936104ec366004612d57565b610d37565b3480156104fd57600080fd5b5061031561050c366004612e43565b610d74565b61039361051f366004612de1565b610e19565b34801561053057600080fd5b5061039361053f366004612f34565b610ecf565b34801561055057600080fd5b50610315610f44565b34801561056557600080fd5b506000805160206134348339815191525460ff166102ad565b34801561058a57600080fd5b5061031560008051602061332d83398151915281565b3480156105ac57600080fd5b506103936105bb366004612e6d565b610f61565b3480156105cc57600080fd5b506103936105db366004612eaf565b610fd0565b3480156105ec57600080fd5b506103936105fb366004612e6d565b6110af565b34801561060c57600080fd5b5061031561061b366004612d57565b6001600160a01b031660009081526065602052604090205490565b34801561064257600080fd5b5061031560008051602061345483398151915281565b34801561066457600080fd5b50610393611109565b34801561067957600080fd5b506102ad610688366004612f34565b61112a565b34801561069957600080fd5b506102d7611155565b3480156106ae57600080fd5b50610393611164565b3480156106c357600080fd5b506103156106d2366004612f1b565b61116c565b3480156106e357600080fd5b50610315600081565b3480156106f857600080fd5b506102ad610707366004612e43565b6111d7565b34801561071857600080fd5b506102ad610727366004612e43565b611270565b34801561073857600080fd5b5061031560008051602061330d83398151915281565b34801561075a57600080fd5b5061076361127d565b6040516001600160a01b0390911681526020016102b9565b34801561078757600080fd5b50610393610796366004612e6d565b611287565b3480156107a757600080fd5b506103936107b6366004612e6d565b6112e1565b3480156107c757600080fd5b506103157ff9424f4303d7f03683a025eb8885734ad99b47df7749d9b0a02cbc985809700b81565b3480156107fb57600080fd5b5061039361080a366004612f34565b61133b565b34801561081b57600080fd5b506103156000805160206133f483398151915281565b34801561083d57600080fd5b5061031561084c366004612d72565b6001600160a01b03918216600090815260666020908152604080832093909416825291909152205490565b34801561088357600080fd5b5061031560008051602061336d83398151915281565b3480156108a557600080fd5b506103936108b4366004612e6d565b611361565b60006001600160e01b03198216637965db0b60e01b14806108ea57506301ffc9a760e01b6001600160e01b03198316145b92915050565b6060606880546108ff9061327a565b80601f016020809104026020016040519081016040528092919081815260200182805461092b9061327a565b80156109785780601f1061094d57610100808354040283529160200191610978565b820191906000526020600020905b81548152906001019060200180831161095b57829003601f168201915b5050505050905090565b600061098f3384846113bb565b50600192915050565b60006109a58484846114df565b6001600160a01b038416600090815260666020908152604080832033845290915290205482811015610a2f5760405162461bcd60e51b815260206004820152602860248201527f45524332303a207472616e7366657220616d6f756e74206578636565647320616044820152676c6c6f77616e636560c01b60648201526084015b60405180910390fd5b610a3c85338584036113bb565b60019150505b9392505050565b600054610100900460ff16610a645760005460ff1615610a68565b303b155b610acb5760405162461bcd60e51b815260206004820152602e60248201527f496e697469616c697a61626c653a20636f6e747261637420697320616c72656160448201526d191e481a5b9a5d1a585b1a5e995960921b6064820152608401610a26565b600054610100900460ff16158015610aed576000805461ffff19166101011790555b610af9878787876116b8565b610b016116fb565b610b09611724565b610b138383611771565b610b1b611800565b8015610b2d576000805461ff00191690555b50505050505050565b610b408282611873565b610b4a8282611902565b5050565b60008051602061338d833981519152610b678133611928565b60005b82811015610bbd57610bab60008051602061332d833981519152858584818110610b9657610b966132e0565b905060200201602081019061080a9190612d57565b80610bb5816132af565b915050610b6a565b50505050565b610bcd828261198c565b610b4a82826119f4565b306001600160a01b037f0000000000000000000000000000000000000000000000000000000000000000161415610c205760405162461bcd60e51b8152600401610a26906130e4565b7f00000000000000000000000000000000000000000000000000000000000000006001600160a01b0316610c52611a6e565b6001600160a01b031614610c785760405162461bcd60e51b8152600401610a2690613130565b610c8181611a9c565b60408051600080825260208201909252610c9d91839190611b1e565b50565b3360008181526066602090815260408083206001600160a01b0387168452909152812054909161098f918590610cd79086906131c7565b6113bb565b6000805160206133f4833981519152610cf58133611928565b610c9d611c69565b7ff9424f4303d7f03683a025eb8885734ad99b47df7749d9b0a02cbc985809700b610d288133611928565b610d328383611d16565b505050565b60008051602061336d833981519152610d508133611928565b5061012d80546001600160a01b0319166001600160a01b0392909216919091179055565b604080516001600160a01b0384166020808301919091527ffbf1c7065455eb4486649b8540f24ef2dd4ebedf2aa423f0039d17c2c75dea15828401528251808303840181526060909201909252805191012060009081610dd58260016131c7565b9050600080610de5868585611e01565b9150915081610e0c576001600160a01b038716600090815260656020526040902054610e0e565b805b979650505050505050565b306001600160a01b037f0000000000000000000000000000000000000000000000000000000000000000161415610e625760405162461bcd60e51b8152600401610a26906130e4565b7f00000000000000000000000000000000000000000000000000000000000000006001600160a01b0316610e94611a6e565b6001600160a01b031614610eba5760405162461bcd60e51b8152600401610a2690613130565b610ec382611a9c565b610b4a82826001611b1e565b6000610edb8133611928565b6001600160a01b038216610eee57600080fd5b826000805160206133ad83398151915255817fe38b16c806f019542b2d4bf356bb4ba2ea4b7eb450b8fbff2584f6084c4978f180546001600160a01b0319166001600160a01b0392909216919091179055505050565b6000610f5c6000805160206134148339815191525490565b905090565b6000805160206133f4833981519152610f7a8133611928565b60005b82811015610bbd57610fbe60008051602061330d833981519152858584818110610fa957610fa96132e0565b90506020020160208101906103b09190612d57565b80610fc8816132af565b915050610f7d565b7ff9424f4303d7f03683a025eb8885734ad99b47df7749d9b0a02cbc985809700b610ffb8133611928565b8382146110425760405162461bcd60e51b8152602060048201526015602482015274082e4e4c2f240d8cadccee8d040dad2e6dac2e8c6d605b1b6044820152606401610a26565b60005b848110156110a757611095868683818110611062576110626132e0565b90506020020160208101906110779190612d57565b858584818110611089576110896132e0565b90506020020135611d16565b8061109f816132af565b915050611045565b505050505050565b6000805160206133f48339815191526110c88133611928565b60005b82811015610bbd576110f7600080516020613454833981519152858584818110610b9657610b966132e0565b80611101816132af565b9150506110cb565b6000805160206133f48339815191526111228133611928565b610c9d611eec565b600091825260fb602090815260408084206001600160a01b0393909316845291905290205460ff1690565b6060606980546108ff9061327a565b610c9d611f80565b60008060006111bc847f286a9db37a0f8ddcbcee127c9f4f56031230f49cb46786f87e166d552e11f67e7ffcaa8bb100d3c5b627eac0369cc1d2778dbeffa2993d08f039fb27795729e9a5611e01565b91509150816111cd576067546111cf565b805b949350505050565b3360009081526066602090815260408083206001600160a01b0386168452909152812054828110156112595760405162461bcd60e51b815260206004820152602560248201527f45524332303a2064656372656173656420616c6c6f77616e63652062656c6f77604482015264207a65726f60d81b6064820152608401610a26565b61126633858584036113bb565b5060019392505050565b600061098f3384846114df565b6000610f5c611a6e565b6000805160206133f48339815191526112a08133611928565b60005b82811015610bbd576112cf60008051602061330d833981519152858584818110610b9657610b966132e0565b806112d9816132af565b9150506112a3565b60008051602061338d8339815191526112fa8133611928565b60005b82811015610bbd5761132960008051602061332d833981519152858584818110610fa957610fa96132e0565b80611333816132af565b9150506112fd565b600082815260fb60205260409020600101546113578133611928565b610d328383611ff0565b6000805160206133f483398151915261137a8133611928565b60005b82811015610bbd576113a9600080516020613454833981519152858584818110610fa957610fa96132e0565b806113b3816132af565b91505061137d565b6001600160a01b03831661141d5760405162461bcd60e51b8152602060048201526024808201527f45524332303a20617070726f76652066726f6d20746865207a65726f206164646044820152637265737360e01b6064820152608401610a26565b6001600160a01b03821661147e5760405162461bcd60e51b815260206004820152602260248201527f45524332303a20617070726f766520746f20746865207a65726f206164647265604482015261737360f01b6064820152608401610a26565b6001600160a01b0383811660008181526066602090815260408083209487168084529482529182902085905590518481527f8c5be1e5ebec7d5bd14f71427d1e84f3dd0314c0f7b2291e5b200ac8c7c3b925910160405180910390a3505050565b6001600160a01b0383166115435760405162461bcd60e51b815260206004820152602560248201527f45524332303a207472616e736665722066726f6d20746865207a65726f206164604482015264647265737360d81b6064820152608401610a26565b6001600160a01b0382166115a55760405162461bcd60e51b815260206004820152602360248201527f45524332303a207472616e7366657220746f20746865207a65726f206164647260448201526265737360e81b6064820152608401610a26565b6115b0838383612057565b6001600160a01b038316600090815260656020526040902054818110156116285760405162461bcd60e51b815260206004820152602660248201527f45524332303a207472616e7366657220616d6f756e7420657863656564732062604482015265616c616e636560d01b6064820152608401610a26565b6001600160a01b0380851660009081526065602052604080822085850390559185168152908120805484929061165f9084906131c7565b92505081905550826001600160a01b0316846001600160a01b03167fddf252ad1be2c89b69c2b068fc378daa952ba7f163c4a11628f55a4df523b3ef846040516116ab91815260200190565b60405180910390a3610bbd565b600054610100900460ff166116df5760405162461bcd60e51b8152600401610a269061317c565b6116e761206d565b6116f184846120c4565b610bbd8282612112565b600054610100900460ff166117225760405162461bcd60e51b8152600401610a269061317c565b565b600054610100900460ff1661174b5760405162461bcd60e51b8152600401610a269061317c565b61172260008051602061332d83398151915260008051602061338d833981519152612153565b600054610100900460ff166117985760405162461bcd60e51b8152600401610a269061317c565b6001600160a01b0381166117ab57600080fd5b816000805160206133ad83398151915255807fe38b16c806f019542b2d4bf356bb4ba2ea4b7eb450b8fbff2584f6084c4978f180546001600160a01b0319166001600160a01b03929092169190911790555050565b600054610100900460ff166118275760405162461bcd60e51b8152600401610a269061317c565b61184d6000805160206134548339815191526000805160206133f4833981519152612153565b61172260008051602061330d8339815191526000805160206133f4833981519152612153565b60008051602061338d83398151915282148061188d575081155b15610b4a576118aa60008051602061332d8339815191528261112a565b15610b4a5760405162461bcd60e51b815260206004820152602260248201527f63616e206e6f742061737369676e20726f6c6520746f20626c61636b6c697374604482015261195960f21b6064820152608401610a26565b600082815260fb602052604090206001015461191e8133611928565b610d32838361219e565b611932828261112a565b610b4a5761194a816001600160a01b03166014612224565b611955836020612224565b60405160200161196692919061303c565b60408051601f198184030181529082905262461bcd60e51b8252610a26916004016130b1565b60008051602061332d833981519152821415610b4a5760405162461bcd60e51b815260206004820152602160248201527f43616e206e6f742072656e6f756e636520626c61636b6c697374656420726f6c6044820152606560f81b6064820152608401610a26565b6001600160a01b0381163314611a645760405162461bcd60e51b815260206004820152602f60248201527f416363657373436f6e74726f6c3a2063616e206f6e6c792072656e6f756e636560448201526e103937b632b9903337b91039b2b63360891b6064820152608401610a26565b610b4a8282611ff0565b7f360894a13ba1a3210667c828492db98dca3e2076cc3735a920a3ca505d382bbc546001600160a01b031690565b611ab460008051602061336d8339815191523361112a565b80611ad25750611ad260008051602061334d8339815191523361112a565b610c9d5760405162461bcd60e51b815260206004820152601d60248201527f4552524f523a2041646472657373206e6f7420617574686f72697a65640000006044820152606401610a26565b6000611b28611a6e565b9050611b33846123c0565b600083511180611b405750815b15611b5157611b4f8484612465565b505b7f4910fdfa16fed3260ed0e7147f7cc6da11a60208b5b9406d12a635614ffd9143805460ff16611c6257805460ff191660011781556040516001600160a01b0383166024820152611bd090869060440160408051601f198184030181529190526020810180516001600160e01b0316631b2ce7f360e11b179052612465565b50805460ff19168155611be1611a6e565b6001600160a01b0316826001600160a01b031614611c595760405162461bcd60e51b815260206004820152602f60248201527f45524331393637557067726164653a207570677261646520627265616b73206660448201526e75727468657220757067726164657360881b6064820152608401610a26565b611c6285612550565b5050505050565b6000805160206134348339815191525460ff16611cbf5760405162461bcd60e51b815260206004820152601460248201527314185d5cd8589b194e881b9bdd081c185d5cd95960621b6044820152606401610a26565b600080516020613434833981519152805460ff191690557f5db9ee0a495bf2e6ff9c91a7834c1ba4fdd244a5e8aa4e537bd38aeae4b073aa335b6040516001600160a01b03909116815260200160405180910390a1565b6001600160a01b038216611d6c5760405162461bcd60e51b815260206004820152601f60248201527f45524332303a206d696e7420746f20746865207a65726f2061646472657373006044820152606401610a26565b611d7860008383612057565b8060676000828254611d8a91906131c7565b90915550506001600160a01b03821660009081526065602052604081208054839290611db79084906131c7565b90915550506040518181526001600160a01b038316906000907fddf252ad1be2c89b69c2b068fc378daa952ba7f163c4a11628f55a4df523b3ef9060200160405180910390a35050565b60008060008511611e4d5760405162461bcd60e51b815260206004820152601660248201527504552433230536e617073686f743a20696420697320360541b6044820152606401610a26565b60008051602061341483398151915254851115611eac5760405162461bcd60e51b815260206004820152601d60248201527f4552433230536e617073686f743a206e6f6e6578697374656e742069640000006044820152606401610a26565b6000611eb88587612590565b90508454811415611ed0576000809250925050611ee4565b6001611edc858361262f565b549093509150505b935093915050565b6000805160206134348339815191525460ff1615611f3f5760405162461bcd60e51b815260206004820152601060248201526f14185d5cd8589b194e881c185d5cd95960821b6044820152606401610a26565b600080516020613434833981519152805460ff191660011790557f62e78cea01bee320cd4e420270b5ea74000d11b0c9f74754ebdbfc544b05a25833611cf9565b600060016000805160206134148339815191528054600090611fa39084906131c7565b9091555050600080516020613414833981519152546040518181527f8030e83b04d87bef53480e26263266d6ca66863aa8506aca6f2559d18aa1cb679060200160405180910390a1919050565b611ffa828261112a565b15610b4a57600082815260fb602090815260408083206001600160a01b0385168085529252808320805460ff1916905551339285917ff6391f5c32d9c69d2a47ea670b442974b53935d1edc7fd64eb21e047a839171b9190a45050565b6120628383836126ae565b610d328383836126da565b600054610100900460ff166120945760405162461bcd60e51b8152600401610a269061317c565b61209c6116fb565b6120a46116fb565b6120ac6116fb565b6120b46116fb565b6120bc6116fb565b611722612722565b600054610100900460ff166120eb5760405162461bcd60e51b8152600401610a269061317c565b81516120fe906068906020850190612bc0565b508051610d32906069906020840190612bc0565b600054610100900460ff166121395760405162461bcd60e51b8152600401610a269061317c565b610160805460ff191660ff8416179055610b4a3382611d16565b600082815260fb6020526040808220600101805490849055905190918391839186917fbd79b86ffe0ab8e8776151514217cd7cacd52c909f66475c3af44e129f0b00ff9190a4505050565b6121a8828261112a565b610b4a57600082815260fb602090815260408083206001600160a01b03851684529091529020805460ff191660011790556121e03390565b6001600160a01b0316816001600160a01b0316837f2f8788117e7eff1d82e926ec794901d17c78024a50270940304540a733656f0d60405160405180910390a45050565b60606000612233836002613201565b61223e9060026131c7565b67ffffffffffffffff811115612256576122566132f6565b6040519080825280601f01601f191660200182016040528015612280576020820181803683370190505b509050600360fc1b8160008151811061229b5761229b6132e0565b60200101906001600160f81b031916908160001a905350600f60fb1b816001815181106122ca576122ca6132e0565b60200101906001600160f81b031916908160001a90535060006122ee846002613201565b6122f99060016131c7565b90505b6001811115612371576f181899199a1a9b1b9c1cb0b131b232b360811b85600f166010811061232d5761232d6132e0565b1a60f81b828281518110612343576123436132e0565b60200101906001600160f81b031916908160001a90535060049490941c9361236a81613263565b90506122fc565b508315610a425760405162461bcd60e51b815260206004820181905260248201527f537472696e67733a20686578206c656e67746820696e73756666696369656e746044820152606401610a26565b803b6124245760405162461bcd60e51b815260206004820152602d60248201527f455243313936373a206e657720696d706c656d656e746174696f6e206973206e60448201526c1bdd08184818dbdb9d1c9858dd609a1b6064820152608401610a26565b7f360894a13ba1a3210667c828492db98dca3e2076cc3735a920a3ca505d382bbc80546001600160a01b0319166001600160a01b0392909216919091179055565b6060823b6124c45760405162461bcd60e51b815260206004820152602660248201527f416464726573733a2064656c65676174652063616c6c20746f206e6f6e2d636f6044820152651b9d1c9858dd60d21b6064820152608401610a26565b600080846001600160a01b0316846040516124df9190613020565b600060405180830381855af49150503d806000811461251a576040519150601f19603f3d011682016040523d82523d6000602084013e61251f565b606091505b509150915061254782826040518060600160405280602781526020016133cd602791396127aa565b95945050505050565b612559816123c0565b6040516001600160a01b038216907fbc7cd75a20ee27fd9adebab32041f755214dbc6bffa90cc0225b39da2e5c2d3b90600090a250565b81546000908190806125a7576000925050506108ea565b808210156125eb5760006125bb83836127e3565b9050846125c8878361262f565b5411156125d7578091506125e5565b6125e28160016131c7565b92505b506125a7565b60008211801561260e57508361260b86612606600186613220565b61262f565b54145b156126275761261e600183613220565b925050506108ea565b5090506108ea565b6000825482106126775760405162461bcd60e51b815260206004820152601360248201527211549493d48e8813dd5d081bd988189bdd5b99606a1b6044820152606401610a26565b818360405160200161268b91815260200190565b6040516020818303038152906040528051906020012060001c610a4291906131c7565b6126b9838383612062565b6126c48383836127fe565b6126cf838383612881565b610d328383836128d9565b6001600160a01b0383166126f9576126f1826129ba565b610d32612a44565b6001600160a01b038216612710576126f1836129ba565b612719836129ba565b610d32826129ba565b600054610100900460ff166127495760405162461bcd60e51b8152600401610a269061317c565b612754600033612a92565b61276c60008051602061336d83398151915233612a92565b61278460008051602061334d83398151915233612a92565b61172260008051602061334d83398151915260008051602061336d833981519152612153565b606083156127b9575081610a42565b8251156127c95782518084602001fd5b8160405162461bcd60e51b8152600401610a2691906130b1565b60006127f260028484186131df565b610a42908484166131c7565b6000805160206134348339815191525460ff16158061282257506128228333612a9c565b610d325760405162461bcd60e51b815260206004820152602a60248201527f45524332305061757361626c653a20746f6b656e207472616e736665722077686044820152691a5b19481c185d5cd95960b21b6064820152608401610a26565b61288c338484612ad4565b15610d325760405162461bcd60e51b815260206004820152601a60248201527f4552524f523a204164647265737320426c61636b6c69737465640000000000006044820152606401610a26565b6000805160206133ad833981519152547fe38b16c806f019542b2d4bf356bb4ba2ea4b7eb450b8fbff2584f6084c4978f1546001600160a01b03168115806129325750836001600160a01b0316816001600160a01b0316145b8061294e5750846001600160a01b0316816001600160a01b0316145b8061296057506001600160a01b038516155b8061297257506001600160a01b038416155b1561297e575050505050565b6000670de0b6b3a76400006000805160206133ad833981519152546129a39086613201565b6129ad91906131df565b90506110a78683836114df565b604080516001600160a01b0383166020808301919091527ffbf1c7065455eb4486649b8540f24ef2dd4ebedf2aa423f0039d17c2c75dea1582840152825180830384018152606090920190925280519101206000612a198260016131c7565b9050610d328282612a3f866001600160a01b031660009081526065602052604090205490565b612b2a565b6117227f286a9db37a0f8ddcbcee127c9f4f56031230f49cb46786f87e166d552e11f67e7ffcaa8bb100d3c5b627eac0369cc1d2778dbeffa2993d08f039fb27795729e9a5612a3f60675490565b610b4a828261219e565b6000612ab66000805160206134548339815191528461112a565b80610a425750610a4260008051602061330d8339815191528361112a565b6000612aee60008051602061332d8339815191528461112a565b80612b0c5750612b0c60008051602061332d8339815191528561112a565b806111cf57506111cf60008051602061332d8339815191528361112a565b6000612b426000805160206134148339815191525490565b905080612b4e85612b68565b1015610bbd57612b5e8482612b98565b610bbd8383612b98565b805460009080612b7b5750600092915050565b612b8a83612606600184613220565b549392505050565b50919050565b81546001836000612ba983856131c7565b90915550829050612bba848361262f565b55505050565b828054612bcc9061327a565b90600052602060002090601f016020900481019282612bee5760008555612c34565b82601f10612c0757805160ff1916838001178555612c34565b82800160010185558215612c34579182015b82811115612c34578251825591602001919060010190612c19565b50612c40929150612c44565b5090565b5b80821115612c405760008155600101612c45565b600067ffffffffffffffff80841115612c7457612c746132f6565b604051601f8501601f19908116603f01168101908282118183101715612c9c57612c9c6132f6565b81604052809350858152868686011115612cb557600080fd5b858560208301376000602087830101525050509392505050565b80356001600160a01b0381168114612ce657600080fd5b919050565b60008083601f840112612cfd57600080fd5b50813567ffffffffffffffff811115612d1557600080fd5b6020830191508360208260051b8501011115612d3057600080fd5b9250929050565b600082601f830112612d4857600080fd5b610a4283833560208501612c59565b600060208284031215612d6957600080fd5b610a4282612ccf565b60008060408385031215612d8557600080fd5b612d8e83612ccf565b9150612d9c60208401612ccf565b90509250929050565b600080600060608486031215612dba57600080fd5b612dc384612ccf565b9250612dd160208501612ccf565b9150604084013590509250925092565b60008060408385031215612df457600080fd5b612dfd83612ccf565b9150602083013567ffffffffffffffff811115612e1957600080fd5b8301601f81018513612e2a57600080fd5b612e3985823560208401612c59565b9150509250929050565b60008060408385031215612e5657600080fd5b612e5f83612ccf565b946020939093013593505050565b60008060208385031215612e8057600080fd5b823567ffffffffffffffff811115612e9757600080fd5b612ea385828601612ceb565b90969095509350505050565b60008060008060408587031215612ec557600080fd5b843567ffffffffffffffff80821115612edd57600080fd5b612ee988838901612ceb565b90965094506020870135915080821115612f0257600080fd5b50612f0f87828801612ceb565b95989497509550505050565b600060208284031215612f2d57600080fd5b5035919050565b60008060408385031215612f4757600080fd5b82359150612d9c60208401612ccf565b600060208284031215612f6957600080fd5b81356001600160e01b031981168114610a4257600080fd5b60008060008060008060c08789031215612f9a57600080fd5b863567ffffffffffffffff80821115612fb257600080fd5b612fbe8a838b01612d37565b97506020890135915080821115612fd457600080fd5b50612fe189828a01612d37565b955050604087013560ff81168114612ff857600080fd5b9350606087013592506080870135915061301460a08801612ccf565b90509295509295509295565b60008251613032818460208701613237565b9190910192915050565b7f416363657373436f6e74726f6c3a206163636f756e7420000000000000000000815260008351613074816017850160208801613237565b7001034b99036b4b9b9b4b733903937b6329607d1b60179184019182015283516130a5816028840160208801613237565b01602801949350505050565b60208152600082518060208401526130d0816040850160208701613237565b601f01601f19169190910160400192915050565b6020808252602c908201527f46756e6374696f6e206d7573742062652063616c6c6564207468726f7567682060408201526b19195b1959d85d1958d85b1b60a21b606082015260800190565b6020808252602c908201527f46756e6374696f6e206d7573742062652063616c6c6564207468726f7567682060408201526b6163746976652070726f787960a01b606082015260800190565b6020808252602b908201527f496e697469616c697a61626c653a20636f6e7472616374206973206e6f74206960408201526a6e697469616c697a696e6760a81b606082015260800190565b600082198211156131da576131da6132ca565b500190565b6000826131fc57634e487b7160e01b600052601260045260246000fd5b500490565b600081600019048311821515161561321b5761321b6132ca565b500290565b600082821015613232576132326132ca565b500390565b60005b8381101561325257818101518382015260200161323a565b83811115610bbd5750506000910152565b600081613272576132726132ca565b506000190190565b600181811c9082168061328e57607f821691505b60208210811415612b9257634e487b7160e01b600052602260045260246000fd5b60006000198214156132c3576132c36132ca565b5060010190565b634e487b7160e01b600052601160045260246000fd5b634e487b7160e01b600052603260045260246000fd5b634e487b7160e01b600052604160045260246000fdfee1ac655ab58995133a870d1fd307ddc1d624c8ad919a09e67867a7a1483e439a548c7f0307ab2a7ea894e5c7e8c5353cc750bb9385ee2e945f189a9a83daa8eda76ace73a908083d89af9ff88e5b4f7cadb3591a80631063f68b695fda726db571840dc4906352362b0cdaf79870196c8e42acafade72d5d5a6d59291253ceb1f988e4fb62b8e14f4820fed03192306ddf4d7dbfa215595ba1c6ba4b76b369ee253122b26cc2118faf5fcfc7761bd75fcfb5508f1f48d1a40db694aba32af5d0416464726573733a206c6f772d6c6576656c2064656c65676174652063616c6c206661696c6564356a809dfdea9198dd76fb76bf6d403ecf13ea675eb89e1eda2db2c4a4676a260d0a0ed3351c10a57d74a44b40c06e0946288e4e3816ac07bb89db2a755562e7ad6a6591fa308fe948065665239402780db8ed4a8c4e4e16c4d066bcaa05efc2ce108bcc5e0f50fe603649304cbbbd94de794a404db82d884c0afc9ba9328e61a2646970667358221220475ffe6827a3eb3b2d260bc074c1ccedf08a87652183c64aa9ee05bb5570bc3f64736f6c63430008060033",
  "linkReferences": {},
  "deployedLinkReferences": {}
}