{
  "_format": "hh-sol-artifact-1",
  "name": "BlacklistMintTxFeeWhiteListTemplate",
  "initializer": "function initialize(string name_, string symbol_, uint8 decimals_, uint256 amount_, uint256 txFee, address txFeeBeneficiary)",
  "sourceName": "contracts/templates/BlacklistMintTxFeeWhiteListTemplate.sol",
  "abi": [
    {
      "anonymous": false,
      "inputs": [
        {
          "indexed": false,
          "internalType": "address",
          "name": "previousAdmin",
          "type": "address"
        },
        {
          "indexed": false,
          "internalType": "address",
          "name": "newAdmin",
          "type": "address"
        }
      ],
      "name": "AdminChanged",
      "type": "event"
    },
    {
      "anonymous": false,
      "inputs": [
        {
          "indexed": true,
          "internalType": "address",
          "name": "owner",
          "type": "address"
        },
        {
          "indexed": true,
          "internalType": "address",
          "name": "spender",
          "type": "address"
        },
        {
          "indexed": false,
          "internalType": "uint256",
          "name": "value",
          "type": "uint256"
        }
      ],
      "name": "Approval",
      "type": "event"
    },
    {
      "anonymous": false,
      "inputs": [
        {
          "indexed": true,
          "internalType": "address",
          "name": "beacon",
          "type": "address"
        }
      ],
      "name": "BeaconUpgraded",
      "type": "event"
    },
    {
      "anonymous": false,
      "inputs": [
        {
          "indexed": false,
          "internalType": "address",
          "name": "account",
          "type": "address"
        }
      ],
      "name": "Paused",
      "type": "event"
    },
    {
      "anonymous": false,
      "inputs": [
        {
          "indexed": true,
          "internalType": "bytes32",
          "name": "role",
          "type": "bytes32"
        },
        {
          "indexed": true,
          "internalType": "bytes32",
          "name": "previousAdminRole",
          "type": "bytes32"
        },
        {
          "indexed": true,
          "internalType": "bytes32",
          "name": "newAdminRole",
          "type": "bytes32"
        }
      ],
      "name": "RoleAdminChanged",
      "type": "event"
    },
    {
      "anonymous": false,
      "inputs": [
        {
          "indexed": true,
          "internalType": "bytes32",
          "name": "role",
          "type": "bytes32"
        },
        {
          "indexed": true,
          "internalType": "address",
          "name": "account",
          "type": "address"
        },
        {
          "indexed": true,
          "internalType": "address",
          "name": "sender",
          "type": "address"
        }
      ],
      "name": "RoleGranted",
      "type": "event"
    },
    {
      "anonymous": false,
      "inputs": [
        {
          "indexed": true,
          "internalType": "bytes32",
          "name": "role",
          "type": "bytes32"
        },
        {
          "indexed": true,
          "internalType": "address",
          "name": "account",
          "type": "address"
        },
        {
          "indexed": true,
          "internalType": "address",
          "name": "sender",
          "type": "address"
        }
      ],
      "name": "RoleRevoked",
      "type": "event"
    },
    {
      "anonymous": false,
      "inputs": [
        {
          "indexed": true,
          "internalType": "address",
          "name": "from",
          "type": "address"
        },
        {
          "indexed": true,
          "internalType": "address",
          "name": "to",
          "type": "address"
        },
        {
          "indexed": false,
          "internalType": "uint256",
          "name": "value",
          "type": "uint256"
        }
      ],
      "name": "Transfer",
      "type": "event"
    },
    {
      "anonymous": false,
      "inputs": [
        {
          "indexed": false,
          "internalType": "address",
          "name": "account",
          "type": "address"
        }
      ],
      "name": "Unpaused",
      "type": "event"
    },
    {
      "anonymous": false,
      "inputs": [
        {
          "indexed": true,
          "internalType": "address",
          "name": "implementation",
          "type": "address"
        }
      ],
      "name": "Upgraded",
      "type": "event"
    },
    {
      "inputs": [],
      "name": "BLACKLISTED_ROLE",
      "outputs": [
        {
          "internalType": "bytes32",
          "name": "",
          "type": "bytes32"
        }
      ],
      "stateMutability": "view",
      "type": "function"
    },
    {
      "inputs": [],
      "name": "BLACKLIST_MANAGER_ROLE",
      "outputs": [
        {
          "internalType": "bytes32",
          "name": "",
          "type": "bytes32"
        }
      ],
      "stateMutability": "view",
      "type": "function"
    },
    {
      "inputs": [],
      "name": "DEFAULT_ADMIN_ROLE",
      "outputs": [
        {
          "internalType": "bytes32",
          "name": "",
          "type": "bytes32"
        }
      ],
      "stateMutability": "view",
      "type": "function"
    },
    {
      "inputs": [],
      "name": "GOVERNANCE_ROLE",
      "outputs": [
        {
          "internalType": "bytes32",
          "name": "",
          "type": "bytes32"
        }
      ],
      "stateMutability": "view",
      "type": "function"
    },
    {
      "inputs": [],
      "name": "MINTER_ROLE",
      "outputs": [
        {
          "internalType": "bytes32",
          "name": "",
          "type": "bytes32"
        }
      ],
      "stateMutability": "view",
      "type": "function"
    },
    {
      "inputs": [],
      "name": "PAUSE_MANAGER_ROLE",
      "outputs": [
        {
          "internalType": "bytes32",
          "name": "",
          "type": "bytes32"
        }
      ],
      "stateMutability": "view",
      "type": "function"
    },
    {
      "inputs": [],
      "name": "UPGRADE_MANAGER_ROLE",
      "outputs": [
        {
          "internalType": "bytes32",
          "name": "",
          "type": "bytes32"
        }
      ],
      "stateMutability": "view",
      "type": "function"
    },
    {
      "inputs": [],
      "name": "WHITELISTED_FROM_ROLE",
      "outputs": [
        {
          "internalType": "bytes32",
          "name": "",
          "type": "bytes32"
        }
      ],
      "stateMutability": "view",
      "type": "function"
    },
    {
      "inputs": [],
      "name": "WHITELISTED_SENDER_ROLE",
      "outputs": [
        {
          "internalType": "bytes32",
          "name": "",
          "type": "bytes32"
        }
      ],
      "stateMutability": "view",
      "type": "function"
    },
    {
      "inputs": [
        {
          "internalType": "address[]",
          "name": "addresses",
          "type": "address[]"
        }
      ],
      "name": "addAddressesToBlacklist",
      "outputs": [],
      "stateMutability": "nonpayable",
      "type": "function"
    },
    {
      "inputs": [
        {
          "internalType": "address[]",
          "name": "addresses",
          "type": "address[]"
        }
      ],
      "name": "addAddressesToWhitelistFrom",
      "outputs": [],
      "stateMutability": "nonpayable",
      "type": "function"
    },
    {
      "inputs": [
        {
          "internalType": "address[]",
          "name": "addresses",
          "type": "address[]"
        }
      ],
      "name": "addAddressesToWhitelistSender",
      "outputs": [],
      "stateMutability": "nonpayable",
      "type": "function"
    },
    {
      "inputs": [
        {
          "internalType": "address",
          "name": "owner",
          "type": "address"
        },
        {
          "internalType": "address",
          "name": "spender",
          "type": "address"
        }
      ],
      "name": "allowance",
      "outputs": [
        {
          "internalType": "uint256",
          "name": "",
          "type": "uint256"
        }
      ],
      "stateMutability": "view",
      "type": "function"
    },
    {
      "inputs": [
        {
          "internalType": "address",
          "name": "spender",
          "type": "address"
        },
        {
          "internalType": "uint256",
          "name": "amount",
          "type": "uint256"
        }
      ],
      "name": "approve",
      "outputs": [
        {
          "internalType": "bool",
          "name": "",
          "type": "bool"
        }
      ],
      "stateMutability": "nonpayable",
      "type": "function"
    },
    {
      "inputs": [
        {
          "internalType": "address",
          "name": "account",
          "type": "address"
        }
      ],
      "name": "balanceOf",
      "outputs": [
        {
          "internalType": "uint256",
          "name": "",
          "type": "uint256"
        }
      ],
      "stateMutability": "view",
      "type": "function"
    },
    {
      "inputs": [
        {
          "internalType": "address[]",
          "name": "accounts",
          "type": "address[]"
        },
        {
          "internalType": "uint256[]",
          "name": "amounts",
          "type": "uint256[]"
        }
      ],
      "name": "bulkMint",
      "outputs": [],
      "stateMutability": "nonpayable",
      "type": "function"
    },
    {
      "inputs": [
        {
          "internalType": "uint256",
          "name": "newTxFee",
          "type": "uint256"
        },
        {
          "internalType": "address",
          "name": "newTxBeneficiary",
          "type": "address"
        }
      ],
      "name": "changeTxFeeProperties",
      "outputs": [],
      "stateMutability": "nonpayable",
      "type": "function"
    },
    {
      "inputs": [],
      "name": "decimals",
      "outputs": [
        {
          "internalType": "uint8",
          "name": "",
          "type": "uint8"
        }
      ],
      "stateMutability": "view",
      "type": "function"
    },
    {
      "inputs": [
        {
          "internalType": "address",
          "name": "spender",
          "type": "address"
        },
        {
          "internalType": "uint256",
          "name": "subtractedValue",
          "type": "uint256"
        }
      ],
      "name": "decreaseAllowance",
      "outputs": [
        {
          "internalType": "bool",
          "name": "",
          "type": "bool"
        }
      ],
      "stateMutability": "nonpayable",
      "type": "function"
    },
    {
      "inputs": [],
      "name": "getImplementation",
      "outputs": [
        {
          "internalType": "address",
          "name": "",
          "type": "address"
        }
      ],
      "stateMutability": "view",
      "type": "function"
    },
    {
      "inputs": [
        {
          "internalType": "bytes32",
          "name": "role",
          "type": "bytes32"
        }
      ],
      "name": "getRoleAdmin",
      "outputs": [
        {
          "internalType": "bytes32",
          "name": "",
          "type": "bytes32"
        }
      ],
      "stateMutability": "view",
      "type": "function"
    },
    {
      "inputs": [
        {
          "internalType": "bytes32",
          "name": "role",
          "type": "bytes32"
        },
        {
          "internalType": "address",
          "name": "account",
          "type": "address"
        }
      ],
      "name": "grantRole",
      "outputs": [],
      "stateMutability": "nonpayable",
      "type": "function"
    },
    {
      "inputs": [
        {
          "internalType": "bytes32",
          "name": "role",
          "type": "bytes32"
        },
        {
          "internalType": "address",
          "name": "account",
          "type": "address"
        }
      ],
      "name": "hasRole",
      "outputs": [
        {
          "internalType": "bool",
          "name": "",
          "type": "bool"
        }
      ],
      "stateMutability": "view",
      "type": "function"
    },
    {
      "inputs": [
        {
          "internalType": "address",
          "name": "spender",
          "type": "address"
        },
        {
          "internalType": "uint256",
          "name": "addedValue",
          "type": "uint256"
        }
      ],
      "name": "increaseAllowance",
      "outputs": [
        {
          "internalType": "bool",
          "name": "",
          "type": "bool"
        }
      ],
      "stateMutability": "nonpayable",
      "type": "function"
    },
    {
      "inputs": [
        {
          "internalType": "string",
          "name": "name_",
          "type": "string"
        },
        {
          "internalType": "string",
          "name": "symbol_",
          "type": "string"
        },
        {
          "internalType": "uint8",
          "name": "decimals_",
          "type": "uint8"
        },
        {
          "internalType": "uint256",
          "name": "amount_",
          "type": "uint256"
        },
        {
          "internalType": "uint256",
          "name": "txFee",
          "type": "uint256"
        },
        {
          "internalType": "address",
          "name": "txFeeBeneficiary",
          "type": "address"
        }
      ],
      "name": "initialize",
      "outputs": [],
      "stateMutability": "nonpayable",
      "type": "function"
    },
    {
      "inputs": [
        {
          "internalType": "address",
          "name": "account",
          "type": "address"
        },
        {
          "internalType": "uint256",
          "name": "amount",
          "type": "uint256"
        }
      ],
      "name": "mint",
      "outputs": [],
      "stateMutability": "nonpayable",
      "type": "function"
    },
    {
      "inputs": [],
      "name": "name",
      "outputs": [
        {
          "internalType": "string",
          "name": "",
          "type": "string"
        }
      ],
      "stateMutability": "view",
      "type": "function"
    },
    {
      "inputs": [],
      "name": "pause",
      "outputs": [],
      "stateMutability": "nonpayable",
      "type": "function"
    },
    {
      "inputs": [],
      "name": "paused",
      "outputs": [
        {
          "internalType": "bool",
          "name": "",
          "type": "bool"
        }
      ],
      "stateMutability": "view",
      "type": "function"
    },
    {
      "inputs": [
        {
          "internalType": "address",
          "name": "implementationAddress",
          "type": "address"
        }
      ],
      "name": "proposeNewImplementation",
      "outputs": [],
      "stateMutability": "nonpayable",
      "type": "function"
    },
    {
      "inputs": [
        {
          "internalType": "address[]",
          "name": "addresses",
          "type": "address[]"
        }
      ],
      "name": "removeAddressesFromBlacklist",
      "outputs": [],
      "stateMutability": "nonpayable",
      "type": "function"
    },
    {
      "inputs": [
        {
          "internalType": "address[]",
          "name": "addresses",
          "type": "address[]"
        }
      ],
      "name": "removeAddressesFromWhitelistFrom",
      "outputs": [],
      "stateMutability": "nonpayable",
      "type": "function"
    },
    {
      "inputs": [
        {
          "internalType": "address[]",
          "name": "addresses",
          "type": "address[]"
        }
      ],
      "name": "removeAddressesFromWhitelistSender",
      "outputs": [],
      "stateMutability": "nonpayable",
      "type": "function"
    },
    {
      "inputs": [
        {
          "internalType": "bytes32",
          "name": "role",
          "type": "bytes32"
        },
        {
          "internalType": "address",
          "name": "account",
          "type": "address"
        }
      ],
      "name": "renounceRole",
      "outputs": [],
      "stateMutability": "nonpayable",
      "type": "function"
    },
    {
      "inputs": [
        {
          "internalType": "bytes32",
          "name": "role",
          "type": "bytes32"
        },
        {
          "internalType": "address",
          "name": "account",
          "type": "address"
        }
      ],
      "name": "revokeRole",
      "outputs": [],
      "stateMutability": "nonpayable",
      "type": "function"
    },
    {
      "inputs": [
        {
          "internalType": "bytes4",
          "name": "interfaceId",
          "type": "bytes4"
        }
      ],
      "name": "supportsInterface",
      "outputs": [
        {
          "internalType": "bool",
          "name": "",
          "type": "bool"
        }
      ],
      "stateMutability": "view",
      "type": "function"
    },
    {
      "inputs": [],
      "name": "symbol",
      "outputs": [
        {
          "internalType": "string",
          "name": "",
          "type": "string"
        }
      ],
      "stateMutability": "view",
      "type": "function"
    },
    {
      "inputs": [],
      "name": "totalSupply",
      "outputs": [
        {
          "internalType": "uint256",
          "name": "",
          "type": "uint256"
        }
      ],
      "stateMutability": "view",
      "type": "function"
    },
    {
      "inputs": [
        {
          "internalType": "address",
          "name": "recipient",
          "type": "address"
        },
        {
          "internalType": "uint256",
          "name": "amount",
          "type": "uint256"
        }
      ],
      "name": "transfer",
      "outputs": [
        {
          "internalType": "bool",
          "name": "",
          "type": "bool"
        }
      ],
      "stateMutability": "nonpayable",
      "type": "function"
    },
    {
      "inputs": [
        {
          "internalType": "address",
          "name": "sender",
          "type": "address"
        },
        {
          "internalType": "address",
          "name": "recipient",
          "type": "address"
        },
        {
          "internalType": "uint256",
          "name": "amount",
          "type": "uint256"
        }
      ],
      "name": "transferFrom",
      "outputs": [
        {
          "internalType": "bool",
          "name": "",
          "type": "bool"
        }
      ],
      "stateMutability": "nonpayable",
      "type": "function"
    },
    {
      "inputs": [],
      "name": "unpause",
      "outputs": [],
      "stateMutability": "nonpayable",
      "type": "function"
    },
    {
      "inputs": [
        {
          "internalType": "address",
          "name": "newImplementation",
          "type": "address"
        }
      ],
      "name": "upgradeTo",
      "outputs": [],
      "stateMutability": "nonpayable",
      "type": "function"
    },
    {
      "inputs": [
        {
          "internalType": "address",
          "name": "newImplementation",
          "type": "address"
        },
        {
          "internalType": "bytes",
          "name": "data",
          "type": "bytes"
        }
      ],
      "name": "upgradeToAndCall",
      "outputs": [],
      "stateMutability": "payable",
      "type": "function"
    }
  ],
  "bytecode": "0x60a06040523060601b60805234801561001757600080fd5b5060805160601c612edf61004b60003960008181610bb901528181610bf901528181610d560152610d960152612edf6000f3fe60806040526004361061025c5760003560e01c806362b199c511610144578063a9059cbb116100b6578063d53913931161007a578063d539139314610725578063d547741f14610759578063d84f91e814610779578063dd62ed3e1461079b578063f36c8f5c146107e1578063f834c5021461080357600080fd5b8063a9059cbb14610676578063aa74a34a14610696578063aaf10f42146106b8578063c233f3b7146106e5578063ca73419e1461070557600080fd5b8063731ce8fc11610108578063731ce8fc146105d55780638456cb59146105f757806391d148541461060c57806395d89b411461062c578063a217fddf14610641578063a457c2d71461065657600080fd5b806362b199c51461051d578063685ed81a1461053f5780636ae459bd1461055f5780636e79a1c01461057f57806370a082311461059f57600080fd5b806336568abe116101dd578063410b2424116101a1578063410b24241461046157806343ffa64e1461048357806347757fb6146104a55780634f1ef286146104c55780635120561a146104d85780635c975abb146104f857600080fd5b806336568abe146103cc5780633659cfe6146103ec578063395093511461040c5780633f4ba83a1461042c57806340c10f191461044157600080fd5b8063248a9ca311610224578063248a9ca3146103175780632cd77a5a146103475780632f2ff15d14610369578063313ce5671461038957806332258794146103ac57600080fd5b806301ffc9a71461026157806306fdde0314610296578063095ea7b3146102b857806318160ddd146102d857806323b872dd146102f7575b600080fd5b34801561026d57600080fd5b5061028161027c3660046129b2565b610823565b60405190151581526020015b60405180910390f35b3480156102a257600080fd5b506102ab61085a565b60405161028d9190612b18565b3480156102c457600080fd5b506102816102d336600461289e565b6108ec565b3480156102e457600080fd5b506067545b60405190815260200161028d565b34801561030357600080fd5b506102816103123660046127a0565b610902565b34801561032357600080fd5b506102e9610332366004612976565b600090815260fb602052604090206001015490565b34801561035357600080fd5b506103676103623660046129dc565b6109b3565b005b34801561037557600080fd5b5061036761038436600461298f565b610b0d565b34801561039557600080fd5b506101605460405160ff909116815260200161028d565b3480156103b857600080fd5b506103676103c73660046128c8565b610b25565b3480156103d857600080fd5b506103676103e736600461298f565b610b9a565b3480156103f857600080fd5b50610367610407366004612752565b610bae565b34801561041857600080fd5b5061028161042736600461289e565b610c77565b34801561043857600080fd5b50610367610cb3565b34801561044d57600080fd5b5061036761045c36600461289e565b610cd4565b34801561046d57600080fd5b506102e9600080516020612de383398151915281565b34801561048f57600080fd5b506102e9600080516020612da383398151915281565b3480156104b157600080fd5b506103676104c0366004612752565b610d0e565b6103676104d33660046127dc565b610d4b565b3480156104e457600080fd5b506103676104f336600461298f565b610e01565b34801561050457600080fd5b50600080516020612e6a8339815191525460ff16610281565b34801561052957600080fd5b506102e9600080516020612d8383398151915281565b34801561054b57600080fd5b5061036761055a3660046128c8565b610e76565b34801561056b57600080fd5b5061036761057a36600461290a565b610ee5565b34801561058b57600080fd5b5061036761059a3660046128c8565b610fc4565b3480156105ab57600080fd5b506102e96105ba366004612752565b6001600160a01b031660009081526065602052604090205490565b3480156105e157600080fd5b506102e9600080516020612e8a83398151915281565b34801561060357600080fd5b5061036761101e565b34801561061857600080fd5b5061028161062736600461298f565b61103f565b34801561063857600080fd5b506102ab61106a565b34801561064d57600080fd5b506102e9600081565b34801561066257600080fd5b5061028161067136600461289e565b611079565b34801561068257600080fd5b5061028161069136600461289e565b611112565b3480156106a257600080fd5b506102e9600080516020612d6383398151915281565b3480156106c457600080fd5b506106cd61111f565b6040516001600160a01b03909116815260200161028d565b3480156106f157600080fd5b506103676107003660046128c8565b61112e565b34801561071157600080fd5b506103676107203660046128c8565b611188565b34801561073157600080fd5b506102e97ff9424f4303d7f03683a025eb8885734ad99b47df7749d9b0a02cbc985809700b81565b34801561076557600080fd5b5061036761077436600461298f565b6111e2565b34801561078557600080fd5b506102e9600080516020612e4a83398151915281565b3480156107a757600080fd5b506102e96107b636600461276d565b6001600160a01b03918216600090815260666020908152604080832093909416825291909152205490565b3480156107ed57600080fd5b506102e9600080516020612dc383398151915281565b34801561080f57600080fd5b5061036761081e3660046128c8565b611208565b60006001600160e01b03198216637965db0b60e01b148061085457506301ffc9a760e01b6001600160e01b03198316145b92915050565b60606068805461086990612cca565b80601f016020809104026020016040519081016040528092919081815260200182805461089590612cca565b80156108e25780601f106108b7576101008083540402835291602001916108e2565b820191906000526020600020905b8154815290600101906020018083116108c557829003601f168201915b5050505050905090565b60006108f9338484611262565b50600192915050565b600061090f848484611386565b6001600160a01b0384166000908152606660209081526040808320338452909152902054828110156109995760405162461bcd60e51b815260206004820152602860248201527f45524332303a207472616e7366657220616d6f756e74206578636565647320616044820152676c6c6f77616e636560c01b60648201526084015b60405180910390fd5b6109a68533858403611262565b60019150505b9392505050565b600054610100900460ff166109ce5760005460ff16156109d2565b303b155b610a355760405162461bcd60e51b815260206004820152602e60248201527f496e697469616c697a61626c653a20636f6e747261637420697320616c72656160448201526d191e481a5b9a5d1a585b1a5e995960921b6064820152608401610990565b600054610100900460ff16158015610a57576000805461ffff19166101011790555b610ace89898080601f01602080910402602001604051908101604052809392919081815260200183838082843760009201919091525050604080516020601f8d018190048102820181019092528b815292508b91508a90819084018382808284376000920191909152508a925089915061155f9050565b610ad66115a2565b610ade6115cb565b610ae6611618565b610af0838361168b565b8015610b02576000805461ff00191690555b505050505050505050565b610b17828261171a565b610b2182826117a9565b5050565b600080516020612de3833981519152610b3e81336117cf565b60005b82811015610b9457610b82600080516020612d83833981519152858584818110610b6d57610b6d612d36565b90506020020160208101906107749190612752565b80610b8c81612d05565b915050610b41565b50505050565b610ba48282611833565b610b21828261189b565b306001600160a01b037f0000000000000000000000000000000000000000000000000000000000000000161415610bf75760405162461bcd60e51b815260040161099090612b4b565b7f00000000000000000000000000000000000000000000000000000000000000006001600160a01b0316610c29611915565b6001600160a01b031614610c4f5760405162461bcd60e51b815260040161099090612b97565b610c5881611943565b60408051600080825260208201909252610c74918391906119c5565b50565b3360008181526066602090815260408083206001600160a01b038716845290915281205490916108f9918590610cae908690612c2e565b611262565b600080516020612e4a833981519152610ccc81336117cf565b610c74611b10565b7ff9424f4303d7f03683a025eb8885734ad99b47df7749d9b0a02cbc985809700b610cff81336117cf565b610d098383611bbd565b505050565b600080516020612dc3833981519152610d2781336117cf565b5061012d80546001600160a01b0319166001600160a01b0392909216919091179055565b306001600160a01b037f0000000000000000000000000000000000000000000000000000000000000000161415610d945760405162461bcd60e51b815260040161099090612b4b565b7f00000000000000000000000000000000000000000000000000000000000000006001600160a01b0316610dc6611915565b6001600160a01b031614610dec5760405162461bcd60e51b815260040161099090612b97565b610df582611943565b610b21828260016119c5565b6000610e0d81336117cf565b6001600160a01b038216610e2057600080fd5b82600080516020612e0383398151915255817fe38b16c806f019542b2d4bf356bb4ba2ea4b7eb450b8fbff2584f6084c4978f180546001600160a01b0319166001600160a01b0392909216919091179055505050565b600080516020612e4a833981519152610e8f81336117cf565b60005b82811015610b9457610ed3600080516020612d63833981519152858584818110610ebe57610ebe612d36565b90506020020160208101906103849190612752565b80610edd81612d05565b915050610e92565b7ff9424f4303d7f03683a025eb8885734ad99b47df7749d9b0a02cbc985809700b610f1081336117cf565b838214610f575760405162461bcd60e51b8152602060048201526015602482015274082e4e4c2f240d8cadccee8d040dad2e6dac2e8c6d605b1b6044820152606401610990565b60005b84811015610fbc57610faa868683818110610f7757610f77612d36565b9050602002016020810190610f8c9190612752565b858584818110610f9e57610f9e612d36565b90506020020135611bbd565b80610fb481612d05565b915050610f5a565b505050505050565b600080516020612e4a833981519152610fdd81336117cf565b60005b82811015610b945761100c600080516020612e8a833981519152858584818110610b6d57610b6d612d36565b8061101681612d05565b915050610fe0565b600080516020612e4a83398151915261103781336117cf565b610c74611ca8565b600091825260fb602090815260408084206001600160a01b0393909316845291905290205460ff1690565b60606069805461086990612cca565b3360009081526066602090815260408083206001600160a01b0386168452909152812054828110156110fb5760405162461bcd60e51b815260206004820152602560248201527f45524332303a2064656372656173656420616c6c6f77616e63652062656c6f77604482015264207a65726f60d81b6064820152608401610990565b6111083385858403611262565b5060019392505050565b60006108f9338484611386565b6000611129611915565b905090565b600080516020612e4a83398151915261114781336117cf565b60005b82811015610b9457611176600080516020612d63833981519152858584818110610b6d57610b6d612d36565b8061118081612d05565b91505061114a565b600080516020612de38339815191526111a181336117cf565b60005b82811015610b94576111d0600080516020612d83833981519152858584818110610ebe57610ebe612d36565b806111da81612d05565b9150506111a4565b600082815260fb60205260409020600101546111fe81336117cf565b610d098383611d3c565b600080516020612e4a83398151915261122181336117cf565b60005b82811015610b9457611250600080516020612e8a833981519152858584818110610ebe57610ebe612d36565b8061125a81612d05565b915050611224565b6001600160a01b0383166112c45760405162461bcd60e51b8152602060048201526024808201527f45524332303a20617070726f76652066726f6d20746865207a65726f206164646044820152637265737360e01b6064820152608401610990565b6001600160a01b0382166113255760405162461bcd60e51b815260206004820152602260248201527f45524332303a20617070726f766520746f20746865207a65726f206164647265604482015261737360f01b6064820152608401610990565b6001600160a01b0383811660008181526066602090815260408083209487168084529482529182902085905590518481527f8c5be1e5ebec7d5bd14f71427d1e84f3dd0314c0f7b2291e5b200ac8c7c3b925910160405180910390a3505050565b6001600160a01b0383166113ea5760405162461bcd60e51b815260206004820152602560248201527f45524332303a207472616e736665722066726f6d20746865207a65726f206164604482015264647265737360d81b6064820152608401610990565b6001600160a01b03821661144c5760405162461bcd60e51b815260206004820152602360248201527f45524332303a207472616e7366657220746f20746865207a65726f206164647260448201526265737360e81b6064820152608401610990565b611457838383611da3565b6001600160a01b038316600090815260656020526040902054818110156114cf5760405162461bcd60e51b815260206004820152602660248201527f45524332303a207472616e7366657220616d6f756e7420657863656564732062604482015265616c616e636560d01b6064820152608401610990565b6001600160a01b03808516600090815260656020526040808220858503905591851681529081208054849290611506908490612c2e565b92505081905550826001600160a01b0316846001600160a01b03167fddf252ad1be2c89b69c2b068fc378daa952ba7f163c4a11628f55a4df523b3ef8460405161155291815260200190565b60405180910390a3610b94565b600054610100900460ff166115865760405162461bcd60e51b815260040161099090612be3565b61158e611dae565b6115988484611e05565b610b948282611e53565b600054610100900460ff166115c95760405162461bcd60e51b815260040161099090612be3565b565b600054610100900460ff166115f25760405162461bcd60e51b815260040161099090612be3565b6115c9600080516020612d83833981519152600080516020612de3833981519152611e94565b600054610100900460ff1661163f5760405162461bcd60e51b815260040161099090612be3565b611665600080516020612e8a833981519152600080516020612e4a833981519152611e94565b6115c9600080516020612d63833981519152600080516020612e4a833981519152611e94565b600054610100900460ff166116b25760405162461bcd60e51b815260040161099090612be3565b6001600160a01b0381166116c557600080fd5b81600080516020612e0383398151915255807fe38b16c806f019542b2d4bf356bb4ba2ea4b7eb450b8fbff2584f6084c4978f180546001600160a01b0319166001600160a01b03929092169190911790555050565b600080516020612de3833981519152821480611734575081155b15610b2157611751600080516020612d838339815191528261103f565b15610b215760405162461bcd60e51b815260206004820152602260248201527f63616e206e6f742061737369676e20726f6c6520746f20626c61636b6c697374604482015261195960f21b6064820152608401610990565b600082815260fb60205260409020600101546117c581336117cf565b610d098383611edf565b6117d9828261103f565b610b21576117f1816001600160a01b03166014611f65565b6117fc836020611f65565b60405160200161180d929190612aa3565b60408051601f198184030181529082905262461bcd60e51b825261099091600401612b18565b600080516020612d83833981519152821415610b215760405162461bcd60e51b815260206004820152602160248201527f43616e206e6f742072656e6f756e636520626c61636b6c697374656420726f6c6044820152606560f81b6064820152608401610990565b6001600160a01b038116331461190b5760405162461bcd60e51b815260206004820152602f60248201527f416363657373436f6e74726f6c3a2063616e206f6e6c792072656e6f756e636560448201526e103937b632b9903337b91039b2b63360891b6064820152608401610990565b610b218282611d3c565b7f360894a13ba1a3210667c828492db98dca3e2076cc3735a920a3ca505d382bbc546001600160a01b031690565b61195b600080516020612dc38339815191523361103f565b806119795750611979600080516020612da38339815191523361103f565b610c745760405162461bcd60e51b815260206004820152601d60248201527f4552524f523a2041646472657373206e6f7420617574686f72697a65640000006044820152606401610990565b60006119cf611915565b90506119da84612101565b6000835111806119e75750815b156119f8576119f684846121a6565b505b7f4910fdfa16fed3260ed0e7147f7cc6da11a60208b5b9406d12a635614ffd9143805460ff16611b0957805460ff191660011781556040516001600160a01b0383166024820152611a7790869060440160408051601f198184030181529190526020810180516001600160e01b0316631b2ce7f360e11b1790526121a6565b50805460ff19168155611a88611915565b6001600160a01b0316826001600160a01b031614611b005760405162461bcd60e51b815260206004820152602f60248201527f45524331393637557067726164653a207570677261646520627265616b73206660448201526e75727468657220757067726164657360881b6064820152608401610990565b611b0985612291565b5050505050565b600080516020612e6a8339815191525460ff16611b665760405162461bcd60e51b815260206004820152601460248201527314185d5cd8589b194e881b9bdd081c185d5cd95960621b6044820152606401610990565b600080516020612e6a833981519152805460ff191690557f5db9ee0a495bf2e6ff9c91a7834c1ba4fdd244a5e8aa4e537bd38aeae4b073aa335b6040516001600160a01b03909116815260200160405180910390a1565b6001600160a01b038216611c135760405162461bcd60e51b815260206004820152601f60248201527f45524332303a206d696e7420746f20746865207a65726f2061646472657373006044820152606401610990565b611c1f60008383611da3565b8060676000828254611c319190612c2e565b90915550506001600160a01b03821660009081526065602052604081208054839290611c5e908490612c2e565b90915550506040518181526001600160a01b038316906000907fddf252ad1be2c89b69c2b068fc378daa952ba7f163c4a11628f55a4df523b3ef9060200160405180910390a35050565b600080516020612e6a8339815191525460ff1615611cfb5760405162461bcd60e51b815260206004820152601060248201526f14185d5cd8589b194e881c185d5cd95960821b6044820152606401610990565b600080516020612e6a833981519152805460ff191660011790557f62e78cea01bee320cd4e420270b5ea74000d11b0c9f74754ebdbfc544b05a25833611ba0565b611d46828261103f565b15610b2157600082815260fb602090815260408083206001600160a01b0385168085529252808320805460ff1916905551339285917ff6391f5c32d9c69d2a47ea670b442974b53935d1edc7fd64eb21e047a839171b9190a45050565b610d098383836122d1565b600054610100900460ff16611dd55760405162461bcd60e51b815260040161099090612be3565b611ddd6115a2565b611de56115a2565b611ded6115a2565b611df56115a2565b611dfd6115a2565b6115c96122f2565b600054610100900460ff16611e2c5760405162461bcd60e51b815260040161099090612be3565b8151611e3f90606890602085019061260f565b508051610d0990606990602084019061260f565b600054610100900460ff16611e7a5760405162461bcd60e51b815260040161099090612be3565b610160805460ff191660ff8416179055610b213382611bbd565b600082815260fb6020526040808220600101805490849055905190918391839186917fbd79b86ffe0ab8e8776151514217cd7cacd52c909f66475c3af44e129f0b00ff9190a4505050565b611ee9828261103f565b610b2157600082815260fb602090815260408083206001600160a01b03851684529091529020805460ff19166001179055611f213390565b6001600160a01b0316816001600160a01b0316837f2f8788117e7eff1d82e926ec794901d17c78024a50270940304540a733656f0d60405160405180910390a45050565b60606000611f74836002612c68565b611f7f906002612c2e565b67ffffffffffffffff811115611f9757611f97612d4c565b6040519080825280601f01601f191660200182016040528015611fc1576020820181803683370190505b509050600360fc1b81600081518110611fdc57611fdc612d36565b60200101906001600160f81b031916908160001a905350600f60fb1b8160018151811061200b5761200b612d36565b60200101906001600160f81b031916908160001a905350600061202f846002612c68565b61203a906001612c2e565b90505b60018111156120b2576f181899199a1a9b1b9c1cb0b131b232b360811b85600f166010811061206e5761206e612d36565b1a60f81b82828151811061208457612084612d36565b60200101906001600160f81b031916908160001a90535060049490941c936120ab81612cb3565b905061203d565b5083156109ac5760405162461bcd60e51b815260206004820181905260248201527f537472696e67733a20686578206c656e67746820696e73756666696369656e746044820152606401610990565b803b6121655760405162461bcd60e51b815260206004820152602d60248201527f455243313936373a206e657720696d706c656d656e746174696f6e206973206e60448201526c1bdd08184818dbdb9d1c9858dd609a1b6064820152608401610990565b7f360894a13ba1a3210667c828492db98dca3e2076cc3735a920a3ca505d382bbc80546001600160a01b0319166001600160a01b0392909216919091179055565b6060823b6122055760405162461bcd60e51b815260206004820152602660248201527f416464726573733a2064656c65676174652063616c6c20746f206e6f6e2d636f6044820152651b9d1c9858dd60d21b6064820152608401610990565b600080846001600160a01b0316846040516122209190612a87565b600060405180830381855af49150503d806000811461225b576040519150601f19603f3d011682016040523d82523d6000602084013e612260565b606091505b50915091506122888282604051806060016040528060278152602001612e236027913961237a565b95945050505050565b61229a81612101565b6040516001600160a01b038216907fbc7cd75a20ee27fd9adebab32041f755214dbc6bffa90cc0225b39da2e5c2d3b90600090a250565b6122dc8383836123b3565b6122e783838361240b565b610d0983838361248e565b600054610100900460ff166123195760405162461bcd60e51b815260040161099090612be3565b61232460003361256f565b61233c600080516020612dc38339815191523361256f565b612354600080516020612da38339815191523361256f565b6115c9600080516020612da3833981519152600080516020612dc3833981519152611e94565b606083156123895750816109ac565b8251156123995782518084602001fd5b8160405162461bcd60e51b81526004016109909190612b18565b6123be338484612579565b15610d095760405162461bcd60e51b815260206004820152601a60248201527f4552524f523a204164647265737320426c61636b6c69737465640000000000006044820152606401610990565b600080516020612e6a8339815191525460ff16158061242f575061242f83336125d7565b610d095760405162461bcd60e51b815260206004820152602a60248201527f45524332305061757361626c653a20746f6b656e207472616e736665722077686044820152691a5b19481c185d5cd95960b21b6064820152608401610990565b600080516020612e03833981519152547fe38b16c806f019542b2d4bf356bb4ba2ea4b7eb450b8fbff2584f6084c4978f1546001600160a01b03168115806124e75750836001600160a01b0316816001600160a01b0316145b806125035750846001600160a01b0316816001600160a01b0316145b8061251557506001600160a01b038516155b8061252757506001600160a01b038416155b15612533575050505050565b6000670de0b6b3a7640000600080516020612e03833981519152546125589086612c68565b6125629190612c46565b9050610fbc868383611386565b610b218282611edf565b6000612593600080516020612d838339815191528461103f565b806125b157506125b1600080516020612d838339815191528561103f565b806125cf57506125cf600080516020612d838339815191528361103f565b949350505050565b60006125f1600080516020612e8a8339815191528461103f565b806109ac57506109ac600080516020612d638339815191528361103f565b82805461261b90612cca565b90600052602060002090601f01602090048101928261263d5760008555612683565b82601f1061265657805160ff1916838001178555612683565b82800160010185558215612683579182015b82811115612683578251825591602001919060010190612668565b5061268f929150612693565b5090565b5b8082111561268f5760008155600101612694565b80356001600160a01b03811681146126bf57600080fd5b919050565b60008083601f8401126126d657600080fd5b50813567ffffffffffffffff8111156126ee57600080fd5b6020830191508360208260051b850101111561270957600080fd5b9250929050565b60008083601f84011261272257600080fd5b50813567ffffffffffffffff81111561273a57600080fd5b60208301915083602082850101111561270957600080fd5b60006020828403121561276457600080fd5b6109ac826126a8565b6000806040838503121561278057600080fd5b612789836126a8565b9150612797602084016126a8565b90509250929050565b6000806000606084860312156127b557600080fd5b6127be846126a8565b92506127cc602085016126a8565b9150604084013590509250925092565b600080604083850312156127ef57600080fd5b6127f8836126a8565b9150602083013567ffffffffffffffff8082111561281557600080fd5b818501915085601f83011261282957600080fd5b81358181111561283b5761283b612d4c565b604051601f8201601f19908116603f0116810190838211818310171561286357612863612d4c565b8160405282815288602084870101111561287c57600080fd5b8260208601602083013760006020848301015280955050505050509250929050565b600080604083850312156128b157600080fd5b6128ba836126a8565b946020939093013593505050565b600080602083850312156128db57600080fd5b823567ffffffffffffffff8111156128f257600080fd5b6128fe858286016126c4565b90969095509350505050565b6000806000806040858703121561292057600080fd5b843567ffffffffffffffff8082111561293857600080fd5b612944888389016126c4565b9096509450602087013591508082111561295d57600080fd5b5061296a878288016126c4565b95989497509550505050565b60006020828403121561298857600080fd5b5035919050565b600080604083850312156129a257600080fd5b82359150612797602084016126a8565b6000602082840312156129c457600080fd5b81356001600160e01b0319811681146109ac57600080fd5b60008060008060008060008060c0898b0312156129f857600080fd5b883567ffffffffffffffff80821115612a1057600080fd5b612a1c8c838d01612710565b909a50985060208b0135915080821115612a3557600080fd5b50612a428b828c01612710565b909750955050604089013560ff81168114612a5c57600080fd5b93506060890135925060808901359150612a7860a08a016126a8565b90509295985092959890939650565b60008251612a99818460208701612c87565b9190910192915050565b7f416363657373436f6e74726f6c3a206163636f756e7420000000000000000000815260008351612adb816017850160208801612c87565b7001034b99036b4b9b9b4b733903937b6329607d1b6017918401918201528351612b0c816028840160208801612c87565b01602801949350505050565b6020815260008251806020840152612b37816040850160208701612c87565b601f01601f19169190910160400192915050565b6020808252602c908201527f46756e6374696f6e206d7573742062652063616c6c6564207468726f7567682060408201526b19195b1959d85d1958d85b1b60a21b606082015260800190565b6020808252602c908201527f46756e6374696f6e206d7573742062652063616c6c6564207468726f7567682060408201526b6163746976652070726f787960a01b606082015260800190565b6020808252602b908201527f496e697469616c697a61626c653a20636f6e7472616374206973206e6f74206960408201526a6e697469616c697a696e6760a81b606082015260800190565b60008219821115612c4157612c41612d20565b500190565b600082612c6357634e487b7160e01b600052601260045260246000fd5b500490565b6000816000190483118215151615612c8257612c82612d20565b500290565b60005b83811015612ca2578181015183820152602001612c8a565b83811115610b945750506000910152565b600081612cc257612cc2612d20565b506000190190565b600181811c90821680612cde57607f821691505b60208210811415612cff57634e487b7160e01b600052602260045260246000fd5b50919050565b6000600019821415612d1957612d19612d20565b5060010190565b634e487b7160e01b600052601160045260246000fd5b634e487b7160e01b600052603260045260246000fd5b634e487b7160e01b600052604160045260246000fdfee1ac655ab58995133a870d1fd307ddc1d624c8ad919a09e67867a7a1483e439a548c7f0307ab2a7ea894e5c7e8c5353cc750bb9385ee2e945f189a9a83daa8eda76ace73a908083d89af9ff88e5b4f7cadb3591a80631063f68b695fda726db571840dc4906352362b0cdaf79870196c8e42acafade72d5d5a6d59291253ceb1f988e4fb62b8e14f4820fed03192306ddf4d7dbfa215595ba1c6ba4b76b369ee253122b26cc2118faf5fcfc7761bd75fcfb5508f1f48d1a40db694aba32af5d0416464726573733a206c6f772d6c6576656c2064656c65676174652063616c6c206661696c6564356a809dfdea9198dd76fb76bf6d403ecf13ea675eb89e1eda2db2c4a4676a26ad6a6591fa308fe948065665239402780db8ed4a8c4e4e16c4d066bcaa05efc2ce108bcc5e0f50fe603649304cbbbd94de794a404db82d884c0afc9ba9328e61a26469706673582212203be3d11106b58426ab2a2d307cdc17b2ec7a6cd365ea77d03936f57e9482ab3464736f6c63430008060033",
  "linkReferences": {},
  "deployedLinkReferences": {}
}