{
  "_format": "hh-sol-artifact-1",
  "name": "BurnTxFeeWhiteListTemplate",
  "initializer": "function initialize(string name_, string symbol_, uint8 decimals_, uint256 amount_, uint256 txFee, address txFeeBeneficiary)",
  "sourceName": "contracts/templates/BurnTxFeeWhiteListTemplate.sol",
  "abi": [
    {
      "anonymous": false,
      "inputs": [
        {
          "indexed": false,
          "internalType": "address",
          "name": "previousAdmin",
          "type": "address"
        },
        {
          "indexed": false,
          "internalType": "address",
          "name": "newAdmin",
          "type": "address"
        }
      ],
      "name": "AdminChanged",
      "type": "event"
    },
    {
      "anonymous": false,
      "inputs": [
        {
          "indexed": true,
          "internalType": "address",
          "name": "owner",
          "type": "address"
        },
        {
          "indexed": true,
          "internalType": "address",
          "name": "spender",
          "type": "address"
        },
        {
          "indexed": false,
          "internalType": "uint256",
          "name": "value",
          "type": "uint256"
        }
      ],
      "name": "Approval",
      "type": "event"
    },
    {
      "anonymous": false,
      "inputs": [
        {
          "indexed": true,
          "internalType": "address",
          "name": "beacon",
          "type": "address"
        }
      ],
      "name": "BeaconUpgraded",
      "type": "event"
    },
    {
      "anonymous": false,
      "inputs": [
        {
          "indexed": false,
          "internalType": "address",
          "name": "account",
          "type": "address"
        }
      ],
      "name": "Paused",
      "type": "event"
    },
    {
      "anonymous": false,
      "inputs": [
        {
          "indexed": true,
          "internalType": "bytes32",
          "name": "role",
          "type": "bytes32"
        },
        {
          "indexed": true,
          "internalType": "bytes32",
          "name": "previousAdminRole",
          "type": "bytes32"
        },
        {
          "indexed": true,
          "internalType": "bytes32",
          "name": "newAdminRole",
          "type": "bytes32"
        }
      ],
      "name": "RoleAdminChanged",
      "type": "event"
    },
    {
      "anonymous": false,
      "inputs": [
        {
          "indexed": true,
          "internalType": "bytes32",
          "name": "role",
          "type": "bytes32"
        },
        {
          "indexed": true,
          "internalType": "address",
          "name": "account",
          "type": "address"
        },
        {
          "indexed": true,
          "internalType": "address",
          "name": "sender",
          "type": "address"
        }
      ],
      "name": "RoleGranted",
      "type": "event"
    },
    {
      "anonymous": false,
      "inputs": [
        {
          "indexed": true,
          "internalType": "bytes32",
          "name": "role",
          "type": "bytes32"
        },
        {
          "indexed": true,
          "internalType": "address",
          "name": "account",
          "type": "address"
        },
        {
          "indexed": true,
          "internalType": "address",
          "name": "sender",
          "type": "address"
        }
      ],
      "name": "RoleRevoked",
      "type": "event"
    },
    {
      "anonymous": false,
      "inputs": [
        {
          "indexed": true,
          "internalType": "address",
          "name": "from",
          "type": "address"
        },
        {
          "indexed": true,
          "internalType": "address",
          "name": "to",
          "type": "address"
        },
        {
          "indexed": false,
          "internalType": "uint256",
          "name": "value",
          "type": "uint256"
        }
      ],
      "name": "Transfer",
      "type": "event"
    },
    {
      "anonymous": false,
      "inputs": [
        {
          "indexed": false,
          "internalType": "address",
          "name": "account",
          "type": "address"
        }
      ],
      "name": "Unpaused",
      "type": "event"
    },
    {
      "anonymous": false,
      "inputs": [
        {
          "indexed": true,
          "internalType": "address",
          "name": "implementation",
          "type": "address"
        }
      ],
      "name": "Upgraded",
      "type": "event"
    },
    {
      "inputs": [],
      "name": "DEFAULT_ADMIN_ROLE",
      "outputs": [
        {
          "internalType": "bytes32",
          "name": "",
          "type": "bytes32"
        }
      ],
      "stateMutability": "view",
      "type": "function"
    },
    {
      "inputs": [],
      "name": "GOVERNANCE_ROLE",
      "outputs": [
        {
          "internalType": "bytes32",
          "name": "",
          "type": "bytes32"
        }
      ],
      "stateMutability": "view",
      "type": "function"
    },
    {
      "inputs": [],
      "name": "PAUSE_MANAGER_ROLE",
      "outputs": [
        {
          "internalType": "bytes32",
          "name": "",
          "type": "bytes32"
        }
      ],
      "stateMutability": "view",
      "type": "function"
    },
    {
      "inputs": [],
      "name": "UPGRADE_MANAGER_ROLE",
      "outputs": [
        {
          "internalType": "bytes32",
          "name": "",
          "type": "bytes32"
        }
      ],
      "stateMutability": "view",
      "type": "function"
    },
    {
      "inputs": [],
      "name": "WHITELISTED_FROM_ROLE",
      "outputs": [
        {
          "internalType": "bytes32",
          "name": "",
          "type": "bytes32"
        }
      ],
      "stateMutability": "view",
      "type": "function"
    },
    {
      "inputs": [],
      "name": "WHITELISTED_SENDER_ROLE",
      "outputs": [
        {
          "internalType": "bytes32",
          "name": "",
          "type": "bytes32"
        }
      ],
      "stateMutability": "view",
      "type": "function"
    },
    {
      "inputs": [
        {
          "internalType": "address[]",
          "name": "addresses",
          "type": "address[]"
        }
      ],
      "name": "addAddressesToWhitelistFrom",
      "outputs": [],
      "stateMutability": "nonpayable",
      "type": "function"
    },
    {
      "inputs": [
        {
          "internalType": "address[]",
          "name": "addresses",
          "type": "address[]"
        }
      ],
      "name": "addAddressesToWhitelistSender",
      "outputs": [],
      "stateMutability": "nonpayable",
      "type": "function"
    },
    {
      "inputs": [
        {
          "internalType": "address",
          "name": "owner",
          "type": "address"
        },
        {
          "internalType": "address",
          "name": "spender",
          "type": "address"
        }
      ],
      "name": "allowance",
      "outputs": [
        {
          "internalType": "uint256",
          "name": "",
          "type": "uint256"
        }
      ],
      "stateMutability": "view",
      "type": "function"
    },
    {
      "inputs": [
        {
          "internalType": "address",
          "name": "spender",
          "type": "address"
        },
        {
          "internalType": "uint256",
          "name": "amount",
          "type": "uint256"
        }
      ],
      "name": "approve",
      "outputs": [
        {
          "internalType": "bool",
          "name": "",
          "type": "bool"
        }
      ],
      "stateMutability": "nonpayable",
      "type": "function"
    },
    {
      "inputs": [
        {
          "internalType": "address",
          "name": "account",
          "type": "address"
        }
      ],
      "name": "balanceOf",
      "outputs": [
        {
          "internalType": "uint256",
          "name": "",
          "type": "uint256"
        }
      ],
      "stateMutability": "view",
      "type": "function"
    },
    {
      "inputs": [
        {
          "internalType": "uint256",
          "name": "amount",
          "type": "uint256"
        }
      ],
      "name": "burn",
      "outputs": [],
      "stateMutability": "nonpayable",
      "type": "function"
    },
    {
      "inputs": [
        {
          "internalType": "address",
          "name": "account",
          "type": "address"
        },
        {
          "internalType": "uint256",
          "name": "amount",
          "type": "uint256"
        }
      ],
      "name": "burnFrom",
      "outputs": [],
      "stateMutability": "nonpayable",
      "type": "function"
    },
    {
      "inputs": [
        {
          "internalType": "uint256",
          "name": "newTxFee",
          "type": "uint256"
        },
        {
          "internalType": "address",
          "name": "newTxBeneficiary",
          "type": "address"
        }
      ],
      "name": "changeTxFeeProperties",
      "outputs": [],
      "stateMutability": "nonpayable",
      "type": "function"
    },
    {
      "inputs": [],
      "name": "decimals",
      "outputs": [
        {
          "internalType": "uint8",
          "name": "",
          "type": "uint8"
        }
      ],
      "stateMutability": "view",
      "type": "function"
    },
    {
      "inputs": [
        {
          "internalType": "address",
          "name": "spender",
          "type": "address"
        },
        {
          "internalType": "uint256",
          "name": "subtractedValue",
          "type": "uint256"
        }
      ],
      "name": "decreaseAllowance",
      "outputs": [
        {
          "internalType": "bool",
          "name": "",
          "type": "bool"
        }
      ],
      "stateMutability": "nonpayable",
      "type": "function"
    },
    {
      "inputs": [],
      "name": "getImplementation",
      "outputs": [
        {
          "internalType": "address",
          "name": "",
          "type": "address"
        }
      ],
      "stateMutability": "view",
      "type": "function"
    },
    {
      "inputs": [
        {
          "internalType": "bytes32",
          "name": "role",
          "type": "bytes32"
        }
      ],
      "name": "getRoleAdmin",
      "outputs": [
        {
          "internalType": "bytes32",
          "name": "",
          "type": "bytes32"
        }
      ],
      "stateMutability": "view",
      "type": "function"
    },
    {
      "inputs": [
        {
          "internalType": "bytes32",
          "name": "role",
          "type": "bytes32"
        },
        {
          "internalType": "address",
          "name": "account",
          "type": "address"
        }
      ],
      "name": "grantRole",
      "outputs": [],
      "stateMutability": "nonpayable",
      "type": "function"
    },
    {
      "inputs": [
        {
          "internalType": "bytes32",
          "name": "role",
          "type": "bytes32"
        },
        {
          "internalType": "address",
          "name": "account",
          "type": "address"
        }
      ],
      "name": "hasRole",
      "outputs": [
        {
          "internalType": "bool",
          "name": "",
          "type": "bool"
        }
      ],
      "stateMutability": "view",
      "type": "function"
    },
    {
      "inputs": [
        {
          "internalType": "address",
          "name": "spender",
          "type": "address"
        },
        {
          "internalType": "uint256",
          "name": "addedValue",
          "type": "uint256"
        }
      ],
      "name": "increaseAllowance",
      "outputs": [
        {
          "internalType": "bool",
          "name": "",
          "type": "bool"
        }
      ],
      "stateMutability": "nonpayable",
      "type": "function"
    },
    {
      "inputs": [
        {
          "internalType": "string",
          "name": "name_",
          "type": "string"
        },
        {
          "internalType": "string",
          "name": "symbol_",
          "type": "string"
        },
        {
          "internalType": "uint8",
          "name": "decimals_",
          "type": "uint8"
        },
        {
          "internalType": "uint256",
          "name": "amount_",
          "type": "uint256"
        },
        {
          "internalType": "uint256",
          "name": "txFee",
          "type": "uint256"
        },
        {
          "internalType": "address",
          "name": "txFeeBeneficiary",
          "type": "address"
        }
      ],
      "name": "initialize",
      "outputs": [],
      "stateMutability": "nonpayable",
      "type": "function"
    },
    {
      "inputs": [],
      "name": "name",
      "outputs": [
        {
          "internalType": "string",
          "name": "",
          "type": "string"
        }
      ],
      "stateMutability": "view",
      "type": "function"
    },
    {
      "inputs": [],
      "name": "pause",
      "outputs": [],
      "stateMutability": "nonpayable",
      "type": "function"
    },
    {
      "inputs": [],
      "name": "paused",
      "outputs": [
        {
          "internalType": "bool",
          "name": "",
          "type": "bool"
        }
      ],
      "stateMutability": "view",
      "type": "function"
    },
    {
      "inputs": [
        {
          "internalType": "address",
          "name": "implementationAddress",
          "type": "address"
        }
      ],
      "name": "proposeNewImplementation",
      "outputs": [],
      "stateMutability": "nonpayable",
      "type": "function"
    },
    {
      "inputs": [
        {
          "internalType": "address[]",
          "name": "addresses",
          "type": "address[]"
        }
      ],
      "name": "removeAddressesFromWhitelistFrom",
      "outputs": [],
      "stateMutability": "nonpayable",
      "type": "function"
    },
    {
      "inputs": [
        {
          "internalType": "address[]",
          "name": "addresses",
          "type": "address[]"
        }
      ],
      "name": "removeAddressesFromWhitelistSender",
      "outputs": [],
      "stateMutability": "nonpayable",
      "type": "function"
    },
    {
      "inputs": [
        {
          "internalType": "bytes32",
          "name": "role",
          "type": "bytes32"
        },
        {
          "internalType": "address",
          "name": "account",
          "type": "address"
        }
      ],
      "name": "renounceRole",
      "outputs": [],
      "stateMutability": "nonpayable",
      "type": "function"
    },
    {
      "inputs": [
        {
          "internalType": "bytes32",
          "name": "role",
          "type": "bytes32"
        },
        {
          "internalType": "address",
          "name": "account",
          "type": "address"
        }
      ],
      "name": "revokeRole",
      "outputs": [],
      "stateMutability": "nonpayable",
      "type": "function"
    },
    {
      "inputs": [
        {
          "internalType": "bytes4",
          "name": "interfaceId",
          "type": "bytes4"
        }
      ],
      "name": "supportsInterface",
      "outputs": [
        {
          "internalType": "bool",
          "name": "",
          "type": "bool"
        }
      ],
      "stateMutability": "view",
      "type": "function"
    },
    {
      "inputs": [],
      "name": "symbol",
      "outputs": [
        {
          "internalType": "string",
          "name": "",
          "type": "string"
        }
      ],
      "stateMutability": "view",
      "type": "function"
    },
    {
      "inputs": [],
      "name": "totalSupply",
      "outputs": [
        {
          "internalType": "uint256",
          "name": "",
          "type": "uint256"
        }
      ],
      "stateMutability": "view",
      "type": "function"
    },
    {
      "inputs": [
        {
          "internalType": "address",
          "name": "recipient",
          "type": "address"
        },
        {
          "internalType": "uint256",
          "name": "amount",
          "type": "uint256"
        }
      ],
      "name": "transfer",
      "outputs": [
        {
          "internalType": "bool",
          "name": "",
          "type": "bool"
        }
      ],
      "stateMutability": "nonpayable",
      "type": "function"
    },
    {
      "inputs": [
        {
          "internalType": "address",
          "name": "sender",
          "type": "address"
        },
        {
          "internalType": "address",
          "name": "recipient",
          "type": "address"
        },
        {
          "internalType": "uint256",
          "name": "amount",
          "type": "uint256"
        }
      ],
      "name": "transferFrom",
      "outputs": [
        {
          "internalType": "bool",
          "name": "",
          "type": "bool"
        }
      ],
      "stateMutability": "nonpayable",
      "type": "function"
    },
    {
      "inputs": [],
      "name": "unpause",
      "outputs": [],
      "stateMutability": "nonpayable",
      "type": "function"
    },
    {
      "inputs": [
        {
          "internalType": "address",
          "name": "newImplementation",
          "type": "address"
        }
      ],
      "name": "upgradeTo",
      "outputs": [],
      "stateMutability": "nonpayable",
      "type": "function"
    },
    {
      "inputs": [
        {
          "internalType": "address",
          "name": "newImplementation",
          "type": "address"
        },
        {
          "internalType": "bytes",
          "name": "data",
          "type": "bytes"
        }
      ],
      "name": "upgradeToAndCall",
      "outputs": [],
      "stateMutability": "payable",
      "type": "function"
    }
  ],
  "bytecode": "0x60a06040523060601b60805234801561001757600080fd5b5060805160601c612aa561004b60003960008181610a5501528181610a9501528181610bc20152610c020152612aa56000f3fe6080604052600436106102255760003560e01c8063685ed81a11610123578063a457c2d7116100ab578063d547741f1161006f578063d547741f1461066a578063d84f91e81461068a578063dd62ed3e146106ac578063f36c8f5c146106f2578063f834c5021461071457600080fd5b8063a457c2d7146105bb578063a9059cbb146105db578063aa74a34a146105fb578063aaf10f421461061d578063c233f3b71461064a57600080fd5b806379cc6790116100f257806379cc67901461053c5780638456cb591461055c57806391d148541461057157806395d89b4114610591578063a217fddf146105a657600080fd5b8063685ed81a146104a45780636e79a1c0146104c457806370a08231146104e4578063731ce8fc1461051a57600080fd5b806336568abe116101b157806343ffa64e1161017557806343ffa64e1461040a57806347757fb61461042c5780634f1ef2861461044c5780635120561a1461045f5780635c975abb1461047f57600080fd5b806336568abe146103755780633659cfe61461039557806339509351146103b55780633f4ba83a146103d557806342966c68146103ea57600080fd5b806323b872dd116101f857806323b872dd146102c0578063248a9ca3146102e05780632cd77a5a146103105780632f2ff15d14610332578063313ce5671461035257600080fd5b806301ffc9a71461022a57806306fdde031461025f578063095ea7b31461028157806318160ddd146102a1575b600080fd5b34801561023657600080fd5b5061024a6102453660046125ad565b610734565b60405190151581526020015b60405180910390f35b34801561026b57600080fd5b5061027461076b565b6040516102569190612707565b34801561028d57600080fd5b5061024a61029c3660046124d2565b6107fd565b3480156102ad57600080fd5b506067545b604051908152602001610256565b3480156102cc57600080fd5b5061024a6102db366004612434565b610813565b3480156102ec57600080fd5b506102b26102fb366004612571565b600090815260fb602052604090206001015490565b34801561031c57600080fd5b5061033061032b3660046125d7565b6108c4565b005b34801561033e57600080fd5b5061033061034d36600461258a565b6109a1565b34801561035e57600080fd5b506101605460405160ff9091168152602001610256565b34801561038157600080fd5b5061033061039036600461258a565b6109cc565b3480156103a157600080fd5b506103306103b03660046123e6565b610a4a565b3480156103c157600080fd5b5061024a6103d03660046124d2565b610b13565b3480156103e157600080fd5b50610330610b4f565b3480156103f657600080fd5b50610330610405366004612571565b610b70565b34801561041657600080fd5b506102b260008051602061298983398151915281565b34801561043857600080fd5b506103306104473660046123e6565b610b7a565b61033061045a366004612470565b610bb7565b34801561046b57600080fd5b5061033061047a36600461258a565b610c6d565b34801561048b57600080fd5b50600080516020612a308339815191525460ff1661024a565b3480156104b057600080fd5b506103306104bf3660046124fc565b610ce2565b3480156104d057600080fd5b506103306104df3660046124fc565b610d57565b3480156104f057600080fd5b506102b26104ff3660046123e6565b6001600160a01b031660009081526065602052604090205490565b34801561052657600080fd5b506102b2600080516020612a5083398151915281565b34801561054857600080fd5b506103306105573660046124d2565b610dc6565b34801561056857600080fd5b50610330610e47565b34801561057d57600080fd5b5061024a61058c36600461258a565b610e68565b34801561059d57600080fd5b50610274610e93565b3480156105b257600080fd5b506102b2600081565b3480156105c757600080fd5b5061024a6105d63660046124d2565b610ea2565b3480156105e757600080fd5b5061024a6105f63660046124d2565b610f3b565b34801561060757600080fd5b506102b260008051602061296983398151915281565b34801561062957600080fd5b50610632610f48565b6040516001600160a01b039091168152602001610256565b34801561065657600080fd5b506103306106653660046124fc565b610f57565b34801561067657600080fd5b5061033061068536600461258a565b610fb1565b34801561069657600080fd5b506102b2600080516020612a1083398151915281565b3480156106b857600080fd5b506102b26106c7366004612401565b6001600160a01b03918216600090815260666020908152604080832093909416825291909152205490565b3480156106fe57600080fd5b506102b26000805160206129a983398151915281565b34801561072057600080fd5b5061033061072f3660046124fc565b610fd7565b60006001600160e01b03198216637965db0b60e01b148061076557506301ffc9a760e01b6001600160e01b03198316145b92915050565b60606068805461077a906128d0565b80601f01602080910402602001604051908101604052809291908181526020018280546107a6906128d0565b80156107f35780601f106107c8576101008083540402835291602001916107f3565b820191906000526020600020905b8154815290600101906020018083116107d657829003601f168201915b5050505050905090565b600061080a338484611031565b50600192915050565b6000610820848484611155565b6001600160a01b0384166000908152606660209081526040808320338452909152902054828110156108aa5760405162461bcd60e51b815260206004820152602860248201527f45524332303a207472616e7366657220616d6f756e74206578636565647320616044820152676c6c6f77616e636560c01b60648201526084015b60405180910390fd5b6108b78533858403611031565b60019150505b9392505050565b600054610100900460ff166108df5760005460ff16156108e3565b303b155b6109465760405162461bcd60e51b815260206004820152602e60248201527f496e697469616c697a61626c653a20636f6e747261637420697320616c72656160448201526d191e481a5b9a5d1a585b1a5e995960921b60648201526084016108a1565b600054610100900460ff16158015610968576000805461ffff19166101011790555b6109748787878761132e565b61097e8383611371565b610986611400565b8015610998576000805461ff00191690555b50505050505050565b600082815260fb60205260409020600101546109bd8133611475565b6109c783836114d9565b505050565b6001600160a01b0381163314610a3c5760405162461bcd60e51b815260206004820152602f60248201527f416363657373436f6e74726f6c3a2063616e206f6e6c792072656e6f756e636560448201526e103937b632b9903337b91039b2b63360891b60648201526084016108a1565b610a46828261155f565b5050565b306001600160a01b037f0000000000000000000000000000000000000000000000000000000000000000161415610a935760405162461bcd60e51b81526004016108a19061273a565b7f00000000000000000000000000000000000000000000000000000000000000006001600160a01b0316610ac56115c6565b6001600160a01b031614610aeb5760405162461bcd60e51b81526004016108a190612786565b610af4816115f4565b60408051600080825260208201909252610b1091839190611676565b50565b3360008181526066602090815260408083206001600160a01b0387168452909152812054909161080a918590610b4a90869061281d565b611031565b600080516020612a10833981519152610b688133611475565b610b106117c1565b610b10338261186e565b6000805160206129a9833981519152610b938133611475565b5061012d80546001600160a01b0319166001600160a01b0392909216919091179055565b306001600160a01b037f0000000000000000000000000000000000000000000000000000000000000000161415610c005760405162461bcd60e51b81526004016108a19061273a565b7f00000000000000000000000000000000000000000000000000000000000000006001600160a01b0316610c326115c6565b6001600160a01b031614610c585760405162461bcd60e51b81526004016108a190612786565b610c61826115f4565b610a4682826001611676565b6000610c798133611475565b6001600160a01b038216610c8c57600080fd5b826000805160206129c983398151915255817fe38b16c806f019542b2d4bf356bb4ba2ea4b7eb450b8fbff2584f6084c4978f180546001600160a01b0319166001600160a01b0392909216919091179055505050565b600080516020612a10833981519152610cfb8133611475565b60005b82811015610d5157610d3f600080516020612969833981519152858584818110610d2a57610d2a61293c565b905060200201602081019061034d91906123e6565b80610d498161290b565b915050610cfe565b50505050565b600080516020612a10833981519152610d708133611475565b60005b82811015610d5157610db4600080516020612a50833981519152858584818110610d9f57610d9f61293c565b905060200201602081019061068591906123e6565b80610dbe8161290b565b915050610d73565b6000610dd283336106c7565b905081811015610e305760405162461bcd60e51b8152602060048201526024808201527f45524332303a206275726e20616d6f756e74206578636565647320616c6c6f77604482015263616e636560e01b60648201526084016108a1565b610e3d8333848403611031565b6109c7838361186e565b600080516020612a10833981519152610e608133611475565b610b106119c8565b600091825260fb602090815260408084206001600160a01b0393909316845291905290205460ff1690565b60606069805461077a906128d0565b3360009081526066602090815260408083206001600160a01b038616845290915281205482811015610f245760405162461bcd60e51b815260206004820152602560248201527f45524332303a2064656372656173656420616c6c6f77616e63652062656c6f77604482015264207a65726f60d81b60648201526084016108a1565b610f313385858403611031565b5060019392505050565b600061080a338484611155565b6000610f526115c6565b905090565b600080516020612a10833981519152610f708133611475565b60005b82811015610d5157610f9f600080516020612969833981519152858584818110610d9f57610d9f61293c565b80610fa98161290b565b915050610f73565b600082815260fb6020526040902060010154610fcd8133611475565b6109c7838361155f565b600080516020612a10833981519152610ff08133611475565b60005b82811015610d515761101f600080516020612a50833981519152858584818110610d2a57610d2a61293c565b806110298161290b565b915050610ff3565b6001600160a01b0383166110935760405162461bcd60e51b8152602060048201526024808201527f45524332303a20617070726f76652066726f6d20746865207a65726f206164646044820152637265737360e01b60648201526084016108a1565b6001600160a01b0382166110f45760405162461bcd60e51b815260206004820152602260248201527f45524332303a20617070726f766520746f20746865207a65726f206164647265604482015261737360f01b60648201526084016108a1565b6001600160a01b0383811660008181526066602090815260408083209487168084529482529182902085905590518481527f8c5be1e5ebec7d5bd14f71427d1e84f3dd0314c0f7b2291e5b200ac8c7c3b925910160405180910390a3505050565b6001600160a01b0383166111b95760405162461bcd60e51b815260206004820152602560248201527f45524332303a207472616e736665722066726f6d20746865207a65726f206164604482015264647265737360d81b60648201526084016108a1565b6001600160a01b03821661121b5760405162461bcd60e51b815260206004820152602360248201527f45524332303a207472616e7366657220746f20746865207a65726f206164647260448201526265737360e81b60648201526084016108a1565b611226838383611a5c565b6001600160a01b0383166000908152606560205260409020548181101561129e5760405162461bcd60e51b815260206004820152602660248201527f45524332303a207472616e7366657220616d6f756e7420657863656564732062604482015265616c616e636560d01b60648201526084016108a1565b6001600160a01b038085166000908152606560205260408082208585039055918516815290812080548492906112d590849061281d565b92505081905550826001600160a01b0316846001600160a01b03167fddf252ad1be2c89b69c2b068fc378daa952ba7f163c4a11628f55a4df523b3ef8460405161132191815260200190565b60405180910390a3610d51565b600054610100900460ff166113555760405162461bcd60e51b81526004016108a1906127d2565b61135d611a67565b6113678484611abe565b610d518282611b0c565b600054610100900460ff166113985760405162461bcd60e51b81526004016108a1906127d2565b6001600160a01b0381166113ab57600080fd5b816000805160206129c983398151915255807fe38b16c806f019542b2d4bf356bb4ba2ea4b7eb450b8fbff2584f6084c4978f180546001600160a01b0319166001600160a01b03929092169190911790555050565b600054610100900460ff166114275760405162461bcd60e51b81526004016108a1906127d2565b61144d600080516020612a50833981519152600080516020612a10833981519152611b4d565b611473600080516020612969833981519152600080516020612a10833981519152611b4d565b565b61147f8282610e68565b610a4657611497816001600160a01b03166014611b98565b6114a2836020611b98565b6040516020016114b3929190612692565b60408051601f198184030181529082905262461bcd60e51b82526108a191600401612707565b6114e38282610e68565b610a4657600082815260fb602090815260408083206001600160a01b03851684529091529020805460ff1916600117905561151b3390565b6001600160a01b0316816001600160a01b0316837f2f8788117e7eff1d82e926ec794901d17c78024a50270940304540a733656f0d60405160405180910390a45050565b6115698282610e68565b15610a4657600082815260fb602090815260408083206001600160a01b0385168085529252808320805460ff1916905551339285917ff6391f5c32d9c69d2a47ea670b442974b53935d1edc7fd64eb21e047a839171b9190a45050565b7f360894a13ba1a3210667c828492db98dca3e2076cc3735a920a3ca505d382bbc546001600160a01b031690565b61160c6000805160206129a983398151915233610e68565b8061162a575061162a60008051602061298983398151915233610e68565b610b105760405162461bcd60e51b815260206004820152601d60248201527f4552524f523a2041646472657373206e6f7420617574686f72697a656400000060448201526064016108a1565b60006116806115c6565b905061168b84611d34565b6000835111806116985750815b156116a9576116a78484611dd9565b505b7f4910fdfa16fed3260ed0e7147f7cc6da11a60208b5b9406d12a635614ffd9143805460ff166117ba57805460ff191660011781556040516001600160a01b038316602482015261172890869060440160408051601f198184030181529190526020810180516001600160e01b0316631b2ce7f360e11b179052611dd9565b50805460ff191681556117396115c6565b6001600160a01b0316826001600160a01b0316146117b15760405162461bcd60e51b815260206004820152602f60248201527f45524331393637557067726164653a207570677261646520627265616b73206660448201526e75727468657220757067726164657360881b60648201526084016108a1565b6117ba85611ec4565b5050505050565b600080516020612a308339815191525460ff166118175760405162461bcd60e51b815260206004820152601460248201527314185d5cd8589b194e881b9bdd081c185d5cd95960621b60448201526064016108a1565b600080516020612a30833981519152805460ff191690557f5db9ee0a495bf2e6ff9c91a7834c1ba4fdd244a5e8aa4e537bd38aeae4b073aa335b6040516001600160a01b03909116815260200160405180910390a1565b6001600160a01b0382166118ce5760405162461bcd60e51b815260206004820152602160248201527f45524332303a206275726e2066726f6d20746865207a65726f206164647265736044820152607360f81b60648201526084016108a1565b6118da82600083611a5c565b6001600160a01b0382166000908152606560205260409020548181101561194e5760405162461bcd60e51b815260206004820152602260248201527f45524332303a206275726e20616d6f756e7420657863656564732062616c616e604482015261636560f01b60648201526084016108a1565b6001600160a01b038316600090815260656020526040812083830390556067805484929061197d908490612876565b90915550506040518281526000906001600160a01b038516907fddf252ad1be2c89b69c2b068fc378daa952ba7f163c4a11628f55a4df523b3ef9060200160405180910390a3505050565b600080516020612a308339815191525460ff1615611a1b5760405162461bcd60e51b815260206004820152601060248201526f14185d5cd8589b194e881c185d5cd95960821b60448201526064016108a1565b600080516020612a30833981519152805460ff191660011790557f62e78cea01bee320cd4e420270b5ea74000d11b0c9f74754ebdbfc544b05a25833611851565b6109c7838383611f04565b600054610100900460ff16611a8e5760405162461bcd60e51b81526004016108a1906127d2565b611a96611f1a565b611a9e611f1a565b611aa6611f1a565b611aae611f1a565b611ab6611f1a565b611473611f41565b600054610100900460ff16611ae55760405162461bcd60e51b81526004016108a1906127d2565b8151611af890606890602085019061229b565b5080516109c790606990602084019061229b565b600054610100900460ff16611b335760405162461bcd60e51b81526004016108a1906127d2565b610160805460ff191660ff8416179055610a463382611fc9565b600082815260fb6020526040808220600101805490849055905190918391839186917fbd79b86ffe0ab8e8776151514217cd7cacd52c909f66475c3af44e129f0b00ff9190a4505050565b60606000611ba7836002612857565b611bb290600261281d565b67ffffffffffffffff811115611bca57611bca612952565b6040519080825280601f01601f191660200182016040528015611bf4576020820181803683370190505b509050600360fc1b81600081518110611c0f57611c0f61293c565b60200101906001600160f81b031916908160001a905350600f60fb1b81600181518110611c3e57611c3e61293c565b60200101906001600160f81b031916908160001a9053506000611c62846002612857565b611c6d90600161281d565b90505b6001811115611ce5576f181899199a1a9b1b9c1cb0b131b232b360811b85600f1660108110611ca157611ca161293c565b1a60f81b828281518110611cb757611cb761293c565b60200101906001600160f81b031916908160001a90535060049490941c93611cde816128b9565b9050611c70565b5083156108bd5760405162461bcd60e51b815260206004820181905260248201527f537472696e67733a20686578206c656e67746820696e73756666696369656e7460448201526064016108a1565b803b611d985760405162461bcd60e51b815260206004820152602d60248201527f455243313936373a206e657720696d706c656d656e746174696f6e206973206e60448201526c1bdd08184818dbdb9d1c9858dd609a1b60648201526084016108a1565b7f360894a13ba1a3210667c828492db98dca3e2076cc3735a920a3ca505d382bbc80546001600160a01b0319166001600160a01b0392909216919091179055565b6060823b611e385760405162461bcd60e51b815260206004820152602660248201527f416464726573733a2064656c65676174652063616c6c20746f206e6f6e2d636f6044820152651b9d1c9858dd60d21b60648201526084016108a1565b600080846001600160a01b031684604051611e539190612676565b600060405180830381855af49150503d8060008114611e8e576040519150601f19603f3d011682016040523d82523d6000602084013e611e93565b606091505b5091509150611ebb82826040518060600160405280602781526020016129e9602791396120b4565b95945050505050565b611ecd81611d34565b6040516001600160a01b038216907fbc7cd75a20ee27fd9adebab32041f755214dbc6bffa90cc0225b39da2e5c2d3b90600090a250565b611f0f8383836120ed565b6109c78383836121d6565b600054610100900460ff166114735760405162461bcd60e51b81526004016108a1906127d2565b600054610100900460ff16611f685760405162461bcd60e51b81526004016108a1906127d2565b611f73600033612259565b611f8b6000805160206129a983398151915233612259565b611fa360008051602061298983398151915233612259565b6114736000805160206129898339815191526000805160206129a9833981519152611b4d565b6001600160a01b03821661201f5760405162461bcd60e51b815260206004820152601f60248201527f45524332303a206d696e7420746f20746865207a65726f20616464726573730060448201526064016108a1565b61202b60008383611a5c565b806067600082825461203d919061281d565b90915550506001600160a01b0382166000908152606560205260408120805483929061206a90849061281d565b90915550506040518181526001600160a01b038316906000907fddf252ad1be2c89b69c2b068fc378daa952ba7f163c4a11628f55a4df523b3ef9060200160405180910390a35050565b606083156120c35750816108bd565b8251156120d35782518084602001fd5b8160405162461bcd60e51b81526004016108a19190612707565b6000805160206129c9833981519152547fe38b16c806f019542b2d4bf356bb4ba2ea4b7eb450b8fbff2584f6084c4978f1546001600160a01b03168115806121465750836001600160a01b0316816001600160a01b0316145b806121625750846001600160a01b0316816001600160a01b0316145b8061217457506001600160a01b038516155b8061218657506001600160a01b038416155b15612192575050505050565b6000670de0b6b3a76400006000805160206129c9833981519152546121b79086612857565b6121c19190612835565b90506121ce868383611155565b505050505050565b600080516020612a308339815191525460ff1615806121fa57506121fa8333612263565b6109c75760405162461bcd60e51b815260206004820152602a60248201527f45524332305061757361626c653a20746f6b656e207472616e736665722077686044820152691a5b19481c185d5cd95960b21b60648201526084016108a1565b610a4682826114d9565b600061227d600080516020612a5083398151915284610e68565b806108bd57506108bd60008051602061296983398151915283610e68565b8280546122a7906128d0565b90600052602060002090601f0160209004810192826122c9576000855561230f565b82601f106122e257805160ff191683800117855561230f565b8280016001018555821561230f579182015b8281111561230f5782518255916020019190600101906122f4565b5061231b92915061231f565b5090565b5b8082111561231b5760008155600101612320565b600067ffffffffffffffff8084111561234f5761234f612952565b604051601f8501601f19908116603f0116810190828211818310171561237757612377612952565b8160405280935085815286868601111561239057600080fd5b858560208301376000602087830101525050509392505050565b80356001600160a01b03811681146123c157600080fd5b919050565b600082601f8301126123d757600080fd5b6108bd83833560208501612334565b6000602082840312156123f857600080fd5b6108bd826123aa565b6000806040838503121561241457600080fd5b61241d836123aa565b915061242b602084016123aa565b90509250929050565b60008060006060848603121561244957600080fd5b612452846123aa565b9250612460602085016123aa565b9150604084013590509250925092565b6000806040838503121561248357600080fd5b61248c836123aa565b9150602083013567ffffffffffffffff8111156124a857600080fd5b8301601f810185136124b957600080fd5b6124c885823560208401612334565b9150509250929050565b600080604083850312156124e557600080fd5b6124ee836123aa565b946020939093013593505050565b6000806020838503121561250f57600080fd5b823567ffffffffffffffff8082111561252757600080fd5b818501915085601f83011261253b57600080fd5b81358181111561254a57600080fd5b8660208260051b850101111561255f57600080fd5b60209290920196919550909350505050565b60006020828403121561258357600080fd5b5035919050565b6000806040838503121561259d57600080fd5b8235915061242b602084016123aa565b6000602082840312156125bf57600080fd5b81356001600160e01b0319811681146108bd57600080fd5b60008060008060008060c087890312156125f057600080fd5b863567ffffffffffffffff8082111561260857600080fd5b6126148a838b016123c6565b9750602089013591508082111561262a57600080fd5b5061263789828a016123c6565b955050604087013560ff8116811461264e57600080fd5b9350606087013592506080870135915061266a60a088016123aa565b90509295509295509295565b6000825161268881846020870161288d565b9190910192915050565b7f416363657373436f6e74726f6c3a206163636f756e74200000000000000000008152600083516126ca81601785016020880161288d565b7001034b99036b4b9b9b4b733903937b6329607d1b60179184019182015283516126fb81602884016020880161288d565b01602801949350505050565b602081526000825180602084015261272681604085016020870161288d565b601f01601f19169190910160400192915050565b6020808252602c908201527f46756e6374696f6e206d7573742062652063616c6c6564207468726f7567682060408201526b19195b1959d85d1958d85b1b60a21b606082015260800190565b6020808252602c908201527f46756e6374696f6e206d7573742062652063616c6c6564207468726f7567682060408201526b6163746976652070726f787960a01b606082015260800190565b6020808252602b908201527f496e697469616c697a61626c653a20636f6e7472616374206973206e6f74206960408201526a6e697469616c697a696e6760a81b606082015260800190565b6000821982111561283057612830612926565b500190565b60008261285257634e487b7160e01b600052601260045260246000fd5b500490565b600081600019048311821515161561287157612871612926565b500290565b60008282101561288857612888612926565b500390565b60005b838110156128a8578181015183820152602001612890565b83811115610d515750506000910152565b6000816128c8576128c8612926565b506000190190565b600181811c908216806128e457607f821691505b6020821081141561290557634e487b7160e01b600052602260045260246000fd5b50919050565b600060001982141561291f5761291f612926565b5060010190565b634e487b7160e01b600052601160045260246000fd5b634e487b7160e01b600052603260045260246000fd5b634e487b7160e01b600052604160045260246000fdfee1ac655ab58995133a870d1fd307ddc1d624c8ad919a09e67867a7a1483e439aa76ace73a908083d89af9ff88e5b4f7cadb3591a80631063f68b695fda726db571840dc4906352362b0cdaf79870196c8e42acafade72d5d5a6d59291253ceb1253122b26cc2118faf5fcfc7761bd75fcfb5508f1f48d1a40db694aba32af5d0416464726573733a206c6f772d6c6576656c2064656c65676174652063616c6c206661696c6564356a809dfdea9198dd76fb76bf6d403ecf13ea675eb89e1eda2db2c4a4676a26ad6a6591fa308fe948065665239402780db8ed4a8c4e4e16c4d066bcaa05efc2ce108bcc5e0f50fe603649304cbbbd94de794a404db82d884c0afc9ba9328e61a2646970667358221220e2a7e162ed5814d2e82c12ac04f81c06f97a6e5c2a76878b50a9a6fdc48acc3a64736f6c63430008060033",
  "linkReferences": {},
  "deployedLinkReferences": {}
}