{
  "_format": "hh-sol-artifact-1",
  "name": "BurnSnapshotTxFeeTemplate",
  "initializer": "function initialize(string name_, string symbol_, uint8 decimals_, uint256 amount_, uint256 txFee, address txFeeBeneficiary)",
  "sourceName": "contracts/templates/BurnSnapshotTxFeeTemplate.sol",
  "abi": [
    {
      "anonymous": false,
      "inputs": [
        {
          "indexed": false,
          "internalType": "address",
          "name": "previousAdmin",
          "type": "address"
        },
        {
          "indexed": false,
          "internalType": "address",
          "name": "newAdmin",
          "type": "address"
        }
      ],
      "name": "AdminChanged",
      "type": "event"
    },
    {
      "anonymous": false,
      "inputs": [
        {
          "indexed": true,
          "internalType": "address",
          "name": "owner",
          "type": "address"
        },
        {
          "indexed": true,
          "internalType": "address",
          "name": "spender",
          "type": "address"
        },
        {
          "indexed": false,
          "internalType": "uint256",
          "name": "value",
          "type": "uint256"
        }
      ],
      "name": "Approval",
      "type": "event"
    },
    {
      "anonymous": false,
      "inputs": [
        {
          "indexed": true,
          "internalType": "address",
          "name": "beacon",
          "type": "address"
        }
      ],
      "name": "BeaconUpgraded",
      "type": "event"
    },
    {
      "anonymous": false,
      "inputs": [
        {
          "indexed": true,
          "internalType": "bytes32",
          "name": "role",
          "type": "bytes32"
        },
        {
          "indexed": true,
          "internalType": "bytes32",
          "name": "previousAdminRole",
          "type": "bytes32"
        },
        {
          "indexed": true,
          "internalType": "bytes32",
          "name": "newAdminRole",
          "type": "bytes32"
        }
      ],
      "name": "RoleAdminChanged",
      "type": "event"
    },
    {
      "anonymous": false,
      "inputs": [
        {
          "indexed": true,
          "internalType": "bytes32",
          "name": "role",
          "type": "bytes32"
        },
        {
          "indexed": true,
          "internalType": "address",
          "name": "account",
          "type": "address"
        },
        {
          "indexed": true,
          "internalType": "address",
          "name": "sender",
          "type": "address"
        }
      ],
      "name": "RoleGranted",
      "type": "event"
    },
    {
      "anonymous": false,
      "inputs": [
        {
          "indexed": true,
          "internalType": "bytes32",
          "name": "role",
          "type": "bytes32"
        },
        {
          "indexed": true,
          "internalType": "address",
          "name": "account",
          "type": "address"
        },
        {
          "indexed": true,
          "internalType": "address",
          "name": "sender",
          "type": "address"
        }
      ],
      "name": "RoleRevoked",
      "type": "event"
    },
    {
      "anonymous": false,
      "inputs": [
        {
          "indexed": false,
          "internalType": "uint256",
          "name": "id",
          "type": "uint256"
        }
      ],
      "name": "Snapshot",
      "type": "event"
    },
    {
      "anonymous": false,
      "inputs": [
        {
          "indexed": true,
          "internalType": "address",
          "name": "from",
          "type": "address"
        },
        {
          "indexed": true,
          "internalType": "address",
          "name": "to",
          "type": "address"
        },
        {
          "indexed": false,
          "internalType": "uint256",
          "name": "value",
          "type": "uint256"
        }
      ],
      "name": "Transfer",
      "type": "event"
    },
    {
      "anonymous": false,
      "inputs": [
        {
          "indexed": true,
          "internalType": "address",
          "name": "implementation",
          "type": "address"
        }
      ],
      "name": "Upgraded",
      "type": "event"
    },
    {
      "inputs": [],
      "name": "DEFAULT_ADMIN_ROLE",
      "outputs": [
        {
          "internalType": "bytes32",
          "name": "",
          "type": "bytes32"
        }
      ],
      "stateMutability": "view",
      "type": "function"
    },
    {
      "inputs": [],
      "name": "GOVERNANCE_ROLE",
      "outputs": [
        {
          "internalType": "bytes32",
          "name": "",
          "type": "bytes32"
        }
      ],
      "stateMutability": "view",
      "type": "function"
    },
    {
      "inputs": [],
      "name": "UPGRADE_MANAGER_ROLE",
      "outputs": [
        {
          "internalType": "bytes32",
          "name": "",
          "type": "bytes32"
        }
      ],
      "stateMutability": "view",
      "type": "function"
    },
    {
      "inputs": [
        {
          "internalType": "address",
          "name": "owner",
          "type": "address"
        },
        {
          "internalType": "address",
          "name": "spender",
          "type": "address"
        }
      ],
      "name": "allowance",
      "outputs": [
        {
          "internalType": "uint256",
          "name": "",
          "type": "uint256"
        }
      ],
      "stateMutability": "view",
      "type": "function"
    },
    {
      "inputs": [
        {
          "internalType": "address",
          "name": "spender",
          "type": "address"
        },
        {
          "internalType": "uint256",
          "name": "amount",
          "type": "uint256"
        }
      ],
      "name": "approve",
      "outputs": [
        {
          "internalType": "bool",
          "name": "",
          "type": "bool"
        }
      ],
      "stateMutability": "nonpayable",
      "type": "function"
    },
    {
      "inputs": [
        {
          "internalType": "address",
          "name": "account",
          "type": "address"
        }
      ],
      "name": "balanceOf",
      "outputs": [
        {
          "internalType": "uint256",
          "name": "",
          "type": "uint256"
        }
      ],
      "stateMutability": "view",
      "type": "function"
    },
    {
      "inputs": [
        {
          "internalType": "address",
          "name": "account",
          "type": "address"
        },
        {
          "internalType": "uint256",
          "name": "snapshotId",
          "type": "uint256"
        }
      ],
      "name": "balanceOfAt",
      "outputs": [
        {
          "internalType": "uint256",
          "name": "",
          "type": "uint256"
        }
      ],
      "stateMutability": "view",
      "type": "function"
    },
    {
      "inputs": [
        {
          "internalType": "uint256",
          "name": "amount",
          "type": "uint256"
        }
      ],
      "name": "burn",
      "outputs": [],
      "stateMutability": "nonpayable",
      "type": "function"
    },
    {
      "inputs": [
        {
          "internalType": "address",
          "name": "account",
          "type": "address"
        },
        {
          "internalType": "uint256",
          "name": "amount",
          "type": "uint256"
        }
      ],
      "name": "burnFrom",
      "outputs": [],
      "stateMutability": "nonpayable",
      "type": "function"
    },
    {
      "inputs": [
        {
          "internalType": "uint256",
          "name": "newTxFee",
          "type": "uint256"
        },
        {
          "internalType": "address",
          "name": "newTxBeneficiary",
          "type": "address"
        }
      ],
      "name": "changeTxFeeProperties",
      "outputs": [],
      "stateMutability": "nonpayable",
      "type": "function"
    },
    {
      "inputs": [],
      "name": "decimals",
      "outputs": [
        {
          "internalType": "uint8",
          "name": "",
          "type": "uint8"
        }
      ],
      "stateMutability": "view",
      "type": "function"
    },
    {
      "inputs": [
        {
          "internalType": "address",
          "name": "spender",
          "type": "address"
        },
        {
          "internalType": "uint256",
          "name": "subtractedValue",
          "type": "uint256"
        }
      ],
      "name": "decreaseAllowance",
      "outputs": [
        {
          "internalType": "bool",
          "name": "",
          "type": "bool"
        }
      ],
      "stateMutability": "nonpayable",
      "type": "function"
    },
    {
      "inputs": [],
      "name": "getCurrentSnapshotId",
      "outputs": [
        {
          "internalType": "uint256",
          "name": "",
          "type": "uint256"
        }
      ],
      "stateMutability": "view",
      "type": "function"
    },
    {
      "inputs": [],
      "name": "getImplementation",
      "outputs": [
        {
          "internalType": "address",
          "name": "",
          "type": "address"
        }
      ],
      "stateMutability": "view",
      "type": "function"
    },
    {
      "inputs": [
        {
          "internalType": "bytes32",
          "name": "role",
          "type": "bytes32"
        }
      ],
      "name": "getRoleAdmin",
      "outputs": [
        {
          "internalType": "bytes32",
          "name": "",
          "type": "bytes32"
        }
      ],
      "stateMutability": "view",
      "type": "function"
    },
    {
      "inputs": [
        {
          "internalType": "bytes32",
          "name": "role",
          "type": "bytes32"
        },
        {
          "internalType": "address",
          "name": "account",
          "type": "address"
        }
      ],
      "name": "grantRole",
      "outputs": [],
      "stateMutability": "nonpayable",
      "type": "function"
    },
    {
      "inputs": [
        {
          "internalType": "bytes32",
          "name": "role",
          "type": "bytes32"
        },
        {
          "internalType": "address",
          "name": "account",
          "type": "address"
        }
      ],
      "name": "hasRole",
      "outputs": [
        {
          "internalType": "bool",
          "name": "",
          "type": "bool"
        }
      ],
      "stateMutability": "view",
      "type": "function"
    },
    {
      "inputs": [
        {
          "internalType": "address",
          "name": "spender",
          "type": "address"
        },
        {
          "internalType": "uint256",
          "name": "addedValue",
          "type": "uint256"
        }
      ],
      "name": "increaseAllowance",
      "outputs": [
        {
          "internalType": "bool",
          "name": "",
          "type": "bool"
        }
      ],
      "stateMutability": "nonpayable",
      "type": "function"
    },
    {
      "inputs": [
        {
          "internalType": "string",
          "name": "name_",
          "type": "string"
        },
        {
          "internalType": "string",
          "name": "symbol_",
          "type": "string"
        },
        {
          "internalType": "uint8",
          "name": "decimals_",
          "type": "uint8"
        },
        {
          "internalType": "uint256",
          "name": "amount_",
          "type": "uint256"
        },
        {
          "internalType": "uint256",
          "name": "txFee",
          "type": "uint256"
        },
        {
          "internalType": "address",
          "name": "txFeeBeneficiary",
          "type": "address"
        }
      ],
      "name": "initialize",
      "outputs": [],
      "stateMutability": "nonpayable",
      "type": "function"
    },
    {
      "inputs": [],
      "name": "name",
      "outputs": [
        {
          "internalType": "string",
          "name": "",
          "type": "string"
        }
      ],
      "stateMutability": "view",
      "type": "function"
    },
    {
      "inputs": [
        {
          "internalType": "address",
          "name": "implementationAddress",
          "type": "address"
        }
      ],
      "name": "proposeNewImplementation",
      "outputs": [],
      "stateMutability": "nonpayable",
      "type": "function"
    },
    {
      "inputs": [
        {
          "internalType": "bytes32",
          "name": "role",
          "type": "bytes32"
        },
        {
          "internalType": "address",
          "name": "account",
          "type": "address"
        }
      ],
      "name": "renounceRole",
      "outputs": [],
      "stateMutability": "nonpayable",
      "type": "function"
    },
    {
      "inputs": [
        {
          "internalType": "bytes32",
          "name": "role",
          "type": "bytes32"
        },
        {
          "internalType": "address",
          "name": "account",
          "type": "address"
        }
      ],
      "name": "revokeRole",
      "outputs": [],
      "stateMutability": "nonpayable",
      "type": "function"
    },
    {
      "inputs": [],
      "name": "snapshot",
      "outputs": [],
      "stateMutability": "nonpayable",
      "type": "function"
    },
    {
      "inputs": [
        {
          "internalType": "bytes4",
          "name": "interfaceId",
          "type": "bytes4"
        }
      ],
      "name": "supportsInterface",
      "outputs": [
        {
          "internalType": "bool",
          "name": "",
          "type": "bool"
        }
      ],
      "stateMutability": "view",
      "type": "function"
    },
    {
      "inputs": [],
      "name": "symbol",
      "outputs": [
        {
          "internalType": "string",
          "name": "",
          "type": "string"
        }
      ],
      "stateMutability": "view",
      "type": "function"
    },
    {
      "inputs": [],
      "name": "totalSupply",
      "outputs": [
        {
          "internalType": "uint256",
          "name": "",
          "type": "uint256"
        }
      ],
      "stateMutability": "view",
      "type": "function"
    },
    {
      "inputs": [
        {
          "internalType": "uint256",
          "name": "snapshotId",
          "type": "uint256"
        }
      ],
      "name": "totalSupplyAt",
      "outputs": [
        {
          "internalType": "uint256",
          "name": "",
          "type": "uint256"
        }
      ],
      "stateMutability": "view",
      "type": "function"
    },
    {
      "inputs": [
        {
          "internalType": "address",
          "name": "recipient",
          "type": "address"
        },
        {
          "internalType": "uint256",
          "name": "amount",
          "type": "uint256"
        }
      ],
      "name": "transfer",
      "outputs": [
        {
          "internalType": "bool",
          "name": "",
          "type": "bool"
        }
      ],
      "stateMutability": "nonpayable",
      "type": "function"
    },
    {
      "inputs": [
        {
          "internalType": "address",
          "name": "sender",
          "type": "address"
        },
        {
          "internalType": "address",
          "name": "recipient",
          "type": "address"
        },
        {
          "internalType": "uint256",
          "name": "amount",
          "type": "uint256"
        }
      ],
      "name": "transferFrom",
      "outputs": [
        {
          "internalType": "bool",
          "name": "",
          "type": "bool"
        }
      ],
      "stateMutability": "nonpayable",
      "type": "function"
    },
    {
      "inputs": [
        {
          "internalType": "address",
          "name": "newImplementation",
          "type": "address"
        }
      ],
      "name": "upgradeTo",
      "outputs": [],
      "stateMutability": "nonpayable",
      "type": "function"
    },
    {
      "inputs": [
        {
          "internalType": "address",
          "name": "newImplementation",
          "type": "address"
        },
        {
          "internalType": "bytes",
          "name": "data",
          "type": "bytes"
        }
      ],
      "name": "upgradeToAndCall",
      "outputs": [],
      "stateMutability": "payable",
      "type": "function"
    }
  ],
  "bytecode": "0x60a06040523060601b60805234801561001757600080fd5b5060805160601c6129d861004b600039600081816109400152818161098001528181610b310152610b7101526129d86000f3fe6080604052600436106101e35760003560e01c80634f1ef28611610102578063981b24d011610095578063aaf10f4211610064578063aaf10f4214610572578063d547741f1461059f578063dd62ed3e146105bf578063f36c8f5c1461060557600080fd5b8063981b24d0146104fd578063a217fddf1461051d578063a457c2d714610532578063a9059cbb1461055257600080fd5b806379cc6790116100d157806379cc67901461049357806391d14854146104b357806395d89b41146104d35780639711715a146104e857600080fd5b80634f1ef286146104155780635120561a146104285780635439ad861461044857806370a082311461045d57600080fd5b8063313ce5671161017a57806342966c681161014957806342966c681461039357806343ffa64e146103b357806347757fb6146103d55780634ee2cd7e146103f557600080fd5b8063313ce5671461031057806336568abe146103335780633659cfe614610353578063395093511461037357600080fd5b806323b872dd116101b657806323b872dd1461027e578063248a9ca31461029e5780632cd77a5a146102ce5780632f2ff15d146102f057600080fd5b806301ffc9a7146101e857806306fdde031461021d578063095ea7b31461023f57806318160ddd1461025f575b600080fd5b3480156101f457600080fd5b50610208610203366004612561565b610627565b60405190151581526020015b60405180910390f35b34801561022957600080fd5b5061023261065e565b60405161021491906126bb565b34801561024b57600080fd5b5061020861025a3660046124fb565b6106f0565b34801561026b57600080fd5b506067545b604051908152602001610214565b34801561028a57600080fd5b5061020861029936600461245d565b610706565b3480156102aa57600080fd5b506102706102b9366004612525565b600090815260fb602052604090206001015490565b3480156102da57600080fd5b506102ee6102e936600461258b565b6107b7565b005b3480156102fc57600080fd5b506102ee61030b36600461253e565b61088c565b34801561031c57600080fd5b506101605460405160ff9091168152602001610214565b34801561033f57600080fd5b506102ee61034e36600461253e565b6108b7565b34801561035f57600080fd5b506102ee61036e36600461240f565b610935565b34801561037f57600080fd5b5061020861038e3660046124fb565b6109fe565b34801561039f57600080fd5b506102ee6103ae366004612525565b610a3a565b3480156103bf57600080fd5b506102706000805160206128fc83398151915281565b3480156103e157600080fd5b506102ee6103f036600461240f565b610a44565b34801561040157600080fd5b506102706104103660046124fb565b610a81565b6102ee610423366004612499565b610b26565b34801561043457600080fd5b506102ee61044336600461253e565b610bdc565b34801561045457600080fd5b50610270610c51565b34801561046957600080fd5b5061027061047836600461240f565b6001600160a01b031660009081526065602052604090205490565b34801561049f57600080fd5b506102ee6104ae3660046124fb565b610c6e565b3480156104bf57600080fd5b506102086104ce36600461253e565b610cef565b3480156104df57600080fd5b50610232610d1a565b3480156104f457600080fd5b506102ee610d29565b34801561050957600080fd5b50610270610518366004612525565b610d31565b34801561052957600080fd5b50610270600081565b34801561053e57600080fd5b5061020861054d3660046124fb565b610d9c565b34801561055e57600080fd5b5061020861056d3660046124fb565b610e35565b34801561057e57600080fd5b50610587610e42565b6040516001600160a01b039091168152602001610214565b3480156105ab57600080fd5b506102ee6105ba36600461253e565b610e4c565b3480156105cb57600080fd5b506102706105da36600461242a565b6001600160a01b03918216600090815260666020908152604080832093909416825291909152205490565b34801561061157600080fd5b5061027060008051602061291c83398151915281565b60006001600160e01b03198216637965db0b60e01b148061065857506301ffc9a760e01b6001600160e01b03198316145b92915050565b60606068805461066d90612884565b80601f016020809104026020016040519081016040528092919081815260200182805461069990612884565b80156106e65780601f106106bb576101008083540402835291602001916106e6565b820191906000526020600020905b8154815290600101906020018083116106c957829003601f168201915b5050505050905090565b60006106fd338484610e72565b50600192915050565b6000610713848484610f96565b6001600160a01b03841660009081526066602090815260408083203384529091529020548281101561079d5760405162461bcd60e51b815260206004820152602860248201527f45524332303a207472616e7366657220616d6f756e74206578636565647320616044820152676c6c6f77616e636560c01b60648201526084015b60405180910390fd5b6107aa8533858403610e72565b60019150505b9392505050565b600054610100900460ff166107d25760005460ff16156107d6565b303b155b6108395760405162461bcd60e51b815260206004820152602e60248201527f496e697469616c697a61626c653a20636f6e747261637420697320616c72656160448201526d191e481a5b9a5d1a585b1a5e995960921b6064820152608401610794565b600054610100900460ff1615801561085b576000805461ffff19166101011790555b61086787878787611171565b61087183836111b4565b8015610883576000805461ff00191690555b50505050505050565b600082815260fb60205260409020600101546108a88133611243565b6108b283836112a7565b505050565b6001600160a01b03811633146109275760405162461bcd60e51b815260206004820152602f60248201527f416363657373436f6e74726f6c3a2063616e206f6e6c792072656e6f756e636560448201526e103937b632b9903337b91039b2b63360891b6064820152608401610794565b610931828261132d565b5050565b306001600160a01b037f000000000000000000000000000000000000000000000000000000000000000016141561097e5760405162461bcd60e51b8152600401610794906126ee565b7f00000000000000000000000000000000000000000000000000000000000000006001600160a01b03166109b0611394565b6001600160a01b0316146109d65760405162461bcd60e51b81526004016107949061273a565b6109df816113c2565b604080516000808252602082019092526109fb91839190611444565b50565b3360008181526066602090815260408083206001600160a01b038716845290915281205490916106fd918590610a359086906127d1565b610e72565b6109fb338261158f565b60008051602061291c833981519152610a5d8133611243565b5061012d80546001600160a01b0319166001600160a01b0392909216919091179055565b604080516001600160a01b0384166020808301919091527ffbf1c7065455eb4486649b8540f24ef2dd4ebedf2aa423f0039d17c2c75dea15828401528251808303840181526060909201909252805191012060009081610ae28260016127d1565b9050600080610af28685856116e9565b9150915081610b19576001600160a01b038716600090815260656020526040902054610b1b565b805b979650505050505050565b306001600160a01b037f0000000000000000000000000000000000000000000000000000000000000000161415610b6f5760405162461bcd60e51b8152600401610794906126ee565b7f00000000000000000000000000000000000000000000000000000000000000006001600160a01b0316610ba1611394565b6001600160a01b031614610bc75760405162461bcd60e51b81526004016107949061273a565b610bd0826113c2565b61093182826001611444565b6000610be88133611243565b6001600160a01b038216610bfb57600080fd5b8260008051602061293c83398151915255817fe38b16c806f019542b2d4bf356bb4ba2ea4b7eb450b8fbff2584f6084c4978f180546001600160a01b0319166001600160a01b0392909216919091179055505050565b6000610c696000805160206129838339815191525490565b905090565b6000610c7a83336105da565b905081811015610cd85760405162461bcd60e51b8152602060048201526024808201527f45524332303a206275726e20616d6f756e74206578636565647320616c6c6f77604482015263616e636560e01b6064820152608401610794565b610ce58333848403610e72565b6108b2838361158f565b600091825260fb602090815260408084206001600160a01b0393909316845291905290205460ff1690565b60606069805461066d90612884565b6109fb6117d4565b6000806000610d81847f286a9db37a0f8ddcbcee127c9f4f56031230f49cb46786f87e166d552e11f67e7ffcaa8bb100d3c5b627eac0369cc1d2778dbeffa2993d08f039fb27795729e9a56116e9565b9150915081610d9257606754610d94565b805b949350505050565b3360009081526066602090815260408083206001600160a01b038616845290915281205482811015610e1e5760405162461bcd60e51b815260206004820152602560248201527f45524332303a2064656372656173656420616c6c6f77616e63652062656c6f77604482015264207a65726f60d81b6064820152608401610794565b610e2b3385858403610e72565b5060019392505050565b60006106fd338484610f96565b6000610c69611394565b600082815260fb6020526040902060010154610e688133611243565b6108b2838361132d565b6001600160a01b038316610ed45760405162461bcd60e51b8152602060048201526024808201527f45524332303a20617070726f76652066726f6d20746865207a65726f206164646044820152637265737360e01b6064820152608401610794565b6001600160a01b038216610f355760405162461bcd60e51b815260206004820152602260248201527f45524332303a20617070726f766520746f20746865207a65726f206164647265604482015261737360f01b6064820152608401610794565b6001600160a01b0383811660008181526066602090815260408083209487168084529482529182902085905590518481527f8c5be1e5ebec7d5bd14f71427d1e84f3dd0314c0f7b2291e5b200ac8c7c3b925910160405180910390a3505050565b6001600160a01b038316610ffa5760405162461bcd60e51b815260206004820152602560248201527f45524332303a207472616e736665722066726f6d20746865207a65726f206164604482015264647265737360d81b6064820152608401610794565b6001600160a01b03821661105c5760405162461bcd60e51b815260206004820152602360248201527f45524332303a207472616e7366657220746f20746865207a65726f206164647260448201526265737360e81b6064820152608401610794565b611067838383611844565b6001600160a01b038316600090815260656020526040902054818110156110df5760405162461bcd60e51b815260206004820152602660248201527f45524332303a207472616e7366657220616d6f756e7420657863656564732062604482015265616c616e636560d01b6064820152608401610794565b6001600160a01b038085166000908152606560205260408082208585039055918516815290812080548492906111169084906127d1565b92505081905550826001600160a01b0316846001600160a01b03167fddf252ad1be2c89b69c2b068fc378daa952ba7f163c4a11628f55a4df523b3ef8460405161116291815260200190565b60405180910390a35b50505050565b600054610100900460ff166111985760405162461bcd60e51b815260040161079490612786565b6111a061185a565b6111aa84846118b3565b61116b8282611901565b600054610100900460ff166111db5760405162461bcd60e51b815260040161079490612786565b6001600160a01b0381166111ee57600080fd5b8160008051602061293c83398151915255807fe38b16c806f019542b2d4bf356bb4ba2ea4b7eb450b8fbff2584f6084c4978f180546001600160a01b0319166001600160a01b03929092169190911790555050565b61124d8282610cef565b61093157611265816001600160a01b03166014611942565b611270836020611942565b604051602001611281929190612646565b60408051601f198184030181529082905262461bcd60e51b8252610794916004016126bb565b6112b18282610cef565b61093157600082815260fb602090815260408083206001600160a01b03851684529091529020805460ff191660011790556112e93390565b6001600160a01b0316816001600160a01b0316837f2f8788117e7eff1d82e926ec794901d17c78024a50270940304540a733656f0d60405160405180910390a45050565b6113378282610cef565b1561093157600082815260fb602090815260408083206001600160a01b0385168085529252808320805460ff1916905551339285917ff6391f5c32d9c69d2a47ea670b442974b53935d1edc7fd64eb21e047a839171b9190a45050565b7f360894a13ba1a3210667c828492db98dca3e2076cc3735a920a3ca505d382bbc546001600160a01b031690565b6113da60008051602061291c83398151915233610cef565b806113f857506113f86000805160206128fc83398151915233610cef565b6109fb5760405162461bcd60e51b815260206004820152601d60248201527f4552524f523a2041646472657373206e6f7420617574686f72697a65640000006044820152606401610794565b600061144e611394565b905061145984611ade565b6000835111806114665750815b15611477576114758484611b83565b505b7f4910fdfa16fed3260ed0e7147f7cc6da11a60208b5b9406d12a635614ffd9143805460ff1661158857805460ff191660011781556040516001600160a01b03831660248201526114f690869060440160408051601f198184030181529190526020810180516001600160e01b0316631b2ce7f360e11b179052611b83565b50805460ff19168155611507611394565b6001600160a01b0316826001600160a01b03161461157f5760405162461bcd60e51b815260206004820152602f60248201527f45524331393637557067726164653a207570677261646520627265616b73206660448201526e75727468657220757067726164657360881b6064820152608401610794565b61158885611c6e565b5050505050565b6001600160a01b0382166115ef5760405162461bcd60e51b815260206004820152602160248201527f45524332303a206275726e2066726f6d20746865207a65726f206164647265736044820152607360f81b6064820152608401610794565b6115fb82600083611844565b6001600160a01b0382166000908152606560205260409020548181101561166f5760405162461bcd60e51b815260206004820152602260248201527f45524332303a206275726e20616d6f756e7420657863656564732062616c616e604482015261636560f01b6064820152608401610794565b6001600160a01b038316600090815260656020526040812083830390556067805484929061169e90849061282a565b90915550506040518281526000906001600160a01b038516907fddf252ad1be2c89b69c2b068fc378daa952ba7f163c4a11628f55a4df523b3ef9060200160405180910390a3505050565b600080600085116117355760405162461bcd60e51b815260206004820152601660248201527504552433230536e617073686f743a20696420697320360541b6044820152606401610794565b600080516020612983833981519152548511156117945760405162461bcd60e51b815260206004820152601d60248201527f4552433230536e617073686f743a206e6f6e6578697374656e742069640000006044820152606401610794565b60006117a08587611cae565b905084548114156117b85760008092509250506117cc565b60016117c48583611d4d565b549093509150505b935093915050565b6000600160008051602061298383398151915280546000906117f79084906127d1565b9091555050600080516020612983833981519152546040518181527f8030e83b04d87bef53480e26263266d6ca66863aa8506aca6f2559d18aa1cb679060200160405180910390a1919050565b61184f838383611dcc565b6108b2838383611de2565b600054610100900460ff166118815760405162461bcd60e51b815260040161079490612786565b611889611e2a565b611891611e2a565b611899611e2a565b6118a1611e2a565b6118a9611e2a565b6118b1611e51565b565b600054610100900460ff166118da5760405162461bcd60e51b815260040161079490612786565b81516118ed9060689060208501906122c4565b5080516108b29060699060208401906122c4565b600054610100900460ff166119285760405162461bcd60e51b815260040161079490612786565b610160805460ff191660ff84161790556109313382611ed9565b6060600061195183600261280b565b61195c9060026127d1565b67ffffffffffffffff811115611974576119746128e5565b6040519080825280601f01601f19166020018201604052801561199e576020820181803683370190505b509050600360fc1b816000815181106119b9576119b96128cf565b60200101906001600160f81b031916908160001a905350600f60fb1b816001815181106119e8576119e86128cf565b60200101906001600160f81b031916908160001a9053506000611a0c84600261280b565b611a179060016127d1565b90505b6001811115611a8f576f181899199a1a9b1b9c1cb0b131b232b360811b85600f1660108110611a4b57611a4b6128cf565b1a60f81b828281518110611a6157611a616128cf565b60200101906001600160f81b031916908160001a90535060049490941c93611a888161286d565b9050611a1a565b5083156107b05760405162461bcd60e51b815260206004820181905260248201527f537472696e67733a20686578206c656e67746820696e73756666696369656e746044820152606401610794565b803b611b425760405162461bcd60e51b815260206004820152602d60248201527f455243313936373a206e657720696d706c656d656e746174696f6e206973206e60448201526c1bdd08184818dbdb9d1c9858dd609a1b6064820152608401610794565b7f360894a13ba1a3210667c828492db98dca3e2076cc3735a920a3ca505d382bbc80546001600160a01b0319166001600160a01b0392909216919091179055565b6060823b611be25760405162461bcd60e51b815260206004820152602660248201527f416464726573733a2064656c65676174652063616c6c20746f206e6f6e2d636f6044820152651b9d1c9858dd60d21b6064820152608401610794565b600080846001600160a01b031684604051611bfd919061262a565b600060405180830381855af49150503d8060008114611c38576040519150601f19603f3d011682016040523d82523d6000602084013e611c3d565b606091505b5091509150611c65828260405180606001604052806027815260200161295c60279139611fc4565b95945050505050565b611c7781611ade565b6040516001600160a01b038216907fbc7cd75a20ee27fd9adebab32041f755214dbc6bffa90cc0225b39da2e5c2d3b90600090a250565b8154600090819080611cc557600092505050610658565b80821015611d09576000611cd98383611ffd565b905084611ce68783611d4d565b541115611cf557809150611d03565b611d008160016127d1565b92505b50611cc5565b600082118015611d2c575083611d2986611d2460018661282a565b611d4d565b54145b15611d4557611d3c60018361282a565b92505050610658565b509050610658565b600082548210611d955760405162461bcd60e51b815260206004820152601360248201527211549493d48e8813dd5d081bd988189bdd5b99606a1b6044820152606401610794565b8183604051602001611da991815260200190565b6040516020818303038152906040528051906020012060001c6107b091906127d1565b611dd783838361184f565b6108b2838383612018565b6001600160a01b038316611e0157611df982612101565b6108b261218b565b6001600160a01b038216611e1857611df983612101565b611e2183612101565b6108b282612101565b600054610100900460ff166118b15760405162461bcd60e51b815260040161079490612786565b600054610100900460ff16611e785760405162461bcd60e51b815260040161079490612786565b611e836000336121d9565b611e9b60008051602061291c833981519152336121d9565b611eb36000805160206128fc833981519152336121d9565b6118b16000805160206128fc83398151915260008051602061291c8339815191526121e3565b6001600160a01b038216611f2f5760405162461bcd60e51b815260206004820152601f60248201527f45524332303a206d696e7420746f20746865207a65726f2061646472657373006044820152606401610794565b611f3b60008383611844565b8060676000828254611f4d91906127d1565b90915550506001600160a01b03821660009081526065602052604081208054839290611f7a9084906127d1565b90915550506040518181526001600160a01b038316906000907fddf252ad1be2c89b69c2b068fc378daa952ba7f163c4a11628f55a4df523b3ef9060200160405180910390a35050565b60608315611fd35750816107b0565b825115611fe35782518084602001fd5b8160405162461bcd60e51b815260040161079491906126bb565b600061200c60028484186127e9565b6107b0908484166127d1565b60008051602061293c833981519152547fe38b16c806f019542b2d4bf356bb4ba2ea4b7eb450b8fbff2584f6084c4978f1546001600160a01b03168115806120715750836001600160a01b0316816001600160a01b0316145b8061208d5750846001600160a01b0316816001600160a01b0316145b8061209f57506001600160a01b038516155b806120b157506001600160a01b038416155b156120bd575050505050565b6000670de0b6b3a764000060008051602061293c833981519152546120e2908661280b565b6120ec91906127e9565b90506120f9868383610f96565b505050505050565b604080516001600160a01b0383166020808301919091527ffbf1c7065455eb4486649b8540f24ef2dd4ebedf2aa423f0039d17c2c75dea15828401528251808303840181526060909201909252805191012060006121608260016127d1565b90506108b28282612186866001600160a01b031660009081526065602052604090205490565b61222e565b6118b17f286a9db37a0f8ddcbcee127c9f4f56031230f49cb46786f87e166d552e11f67e7ffcaa8bb100d3c5b627eac0369cc1d2778dbeffa2993d08f039fb27795729e9a561218660675490565b61093182826112a7565b600082815260fb6020526040808220600101805490849055905190918391839186917fbd79b86ffe0ab8e8776151514217cd7cacd52c909f66475c3af44e129f0b00ff9190a4505050565b60006122466000805160206129838339815191525490565b9050806122528561226c565b101561116b57612262848261229c565b61116b838361229c565b80546000908061227f5750600092915050565b61228e83611d2460018461282a565b549392505050565b50919050565b815460018360006122ad83856127d1565b909155508290506122be8483611d4d565b55505050565b8280546122d090612884565b90600052602060002090601f0160209004810192826122f25760008555612338565b82601f1061230b57805160ff1916838001178555612338565b82800160010185558215612338579182015b8281111561233857825182559160200191906001019061231d565b50612344929150612348565b5090565b5b808211156123445760008155600101612349565b600067ffffffffffffffff80841115612378576123786128e5565b604051601f8501601f19908116603f011681019082821181831017156123a0576123a06128e5565b816040528093508581528686860111156123b957600080fd5b858560208301376000602087830101525050509392505050565b80356001600160a01b03811681146123ea57600080fd5b919050565b600082601f83011261240057600080fd5b6107b08383356020850161235d565b60006020828403121561242157600080fd5b6107b0826123d3565b6000806040838503121561243d57600080fd5b612446836123d3565b9150612454602084016123d3565b90509250929050565b60008060006060848603121561247257600080fd5b61247b846123d3565b9250612489602085016123d3565b9150604084013590509250925092565b600080604083850312156124ac57600080fd5b6124b5836123d3565b9150602083013567ffffffffffffffff8111156124d157600080fd5b8301601f810185136124e257600080fd5b6124f18582356020840161235d565b9150509250929050565b6000806040838503121561250e57600080fd5b612517836123d3565b946020939093013593505050565b60006020828403121561253757600080fd5b5035919050565b6000806040838503121561255157600080fd5b82359150612454602084016123d3565b60006020828403121561257357600080fd5b81356001600160e01b0319811681146107b057600080fd5b60008060008060008060c087890312156125a457600080fd5b863567ffffffffffffffff808211156125bc57600080fd5b6125c88a838b016123ef565b975060208901359150808211156125de57600080fd5b506125eb89828a016123ef565b955050604087013560ff8116811461260257600080fd5b9350606087013592506080870135915061261e60a088016123d3565b90509295509295509295565b6000825161263c818460208701612841565b9190910192915050565b7f416363657373436f6e74726f6c3a206163636f756e742000000000000000000081526000835161267e816017850160208801612841565b7001034b99036b4b9b9b4b733903937b6329607d1b60179184019182015283516126af816028840160208801612841565b01602801949350505050565b60208152600082518060208401526126da816040850160208701612841565b601f01601f19169190910160400192915050565b6020808252602c908201527f46756e6374696f6e206d7573742062652063616c6c6564207468726f7567682060408201526b19195b1959d85d1958d85b1b60a21b606082015260800190565b6020808252602c908201527f46756e6374696f6e206d7573742062652063616c6c6564207468726f7567682060408201526b6163746976652070726f787960a01b606082015260800190565b6020808252602b908201527f496e697469616c697a61626c653a20636f6e7472616374206973206e6f74206960408201526a6e697469616c697a696e6760a81b606082015260800190565b600082198211156127e4576127e46128b9565b500190565b60008261280657634e487b7160e01b600052601260045260246000fd5b500490565b6000816000190483118215151615612825576128256128b9565b500290565b60008282101561283c5761283c6128b9565b500390565b60005b8381101561285c578181015183820152602001612844565b8381111561116b5750506000910152565b60008161287c5761287c6128b9565b506000190190565b600181811c9082168061289857607f821691505b6020821081141561229657634e487b7160e01b600052602260045260246000fd5b634e487b7160e01b600052601160045260246000fd5b634e487b7160e01b600052603260045260246000fd5b634e487b7160e01b600052604160045260246000fdfea76ace73a908083d89af9ff88e5b4f7cadb3591a80631063f68b695fda726db571840dc4906352362b0cdaf79870196c8e42acafade72d5d5a6d59291253ceb1253122b26cc2118faf5fcfc7761bd75fcfb5508f1f48d1a40db694aba32af5d0416464726573733a206c6f772d6c6576656c2064656c65676174652063616c6c206661696c65640d0a0ed3351c10a57d74a44b40c06e0946288e4e3816ac07bb89db2a755562e7a2646970667358221220a7911ac367f846e76f0994fdba456df55f9fb5e7cbc8f201d3ae64e9082c8bd564736f6c63430008060033",
  "linkReferences": {},
  "deployedLinkReferences": {}
}