{
  "_format": "hh-sol-artifact-1",
  "name": "BurnSnapshotWhiteListTemplate",
  "initializer": "function initialize(string name_, string symbol_, uint8 decimals_, uint256 amount_)",
  "sourceName": "contracts/templates/BurnSnapshotWhiteListTemplate.sol",
  "abi": [
    {
      "anonymous": false,
      "inputs": [
        {
          "indexed": false,
          "internalType": "address",
          "name": "previousAdmin",
          "type": "address"
        },
        {
          "indexed": false,
          "internalType": "address",
          "name": "newAdmin",
          "type": "address"
        }
      ],
      "name": "AdminChanged",
      "type": "event"
    },
    {
      "anonymous": false,
      "inputs": [
        {
          "indexed": true,
          "internalType": "address",
          "name": "owner",
          "type": "address"
        },
        {
          "indexed": true,
          "internalType": "address",
          "name": "spender",
          "type": "address"
        },
        {
          "indexed": false,
          "internalType": "uint256",
          "name": "value",
          "type": "uint256"
        }
      ],
      "name": "Approval",
      "type": "event"
    },
    {
      "anonymous": false,
      "inputs": [
        {
          "indexed": true,
          "internalType": "address",
          "name": "beacon",
          "type": "address"
        }
      ],
      "name": "BeaconUpgraded",
      "type": "event"
    },
    {
      "anonymous": false,
      "inputs": [
        {
          "indexed": false,
          "internalType": "address",
          "name": "account",
          "type": "address"
        }
      ],
      "name": "Paused",
      "type": "event"
    },
    {
      "anonymous": false,
      "inputs": [
        {
          "indexed": true,
          "internalType": "bytes32",
          "name": "role",
          "type": "bytes32"
        },
        {
          "indexed": true,
          "internalType": "bytes32",
          "name": "previousAdminRole",
          "type": "bytes32"
        },
        {
          "indexed": true,
          "internalType": "bytes32",
          "name": "newAdminRole",
          "type": "bytes32"
        }
      ],
      "name": "RoleAdminChanged",
      "type": "event"
    },
    {
      "anonymous": false,
      "inputs": [
        {
          "indexed": true,
          "internalType": "bytes32",
          "name": "role",
          "type": "bytes32"
        },
        {
          "indexed": true,
          "internalType": "address",
          "name": "account",
          "type": "address"
        },
        {
          "indexed": true,
          "internalType": "address",
          "name": "sender",
          "type": "address"
        }
      ],
      "name": "RoleGranted",
      "type": "event"
    },
    {
      "anonymous": false,
      "inputs": [
        {
          "indexed": true,
          "internalType": "bytes32",
          "name": "role",
          "type": "bytes32"
        },
        {
          "indexed": true,
          "internalType": "address",
          "name": "account",
          "type": "address"
        },
        {
          "indexed": true,
          "internalType": "address",
          "name": "sender",
          "type": "address"
        }
      ],
      "name": "RoleRevoked",
      "type": "event"
    },
    {
      "anonymous": false,
      "inputs": [
        {
          "indexed": false,
          "internalType": "uint256",
          "name": "id",
          "type": "uint256"
        }
      ],
      "name": "Snapshot",
      "type": "event"
    },
    {
      "anonymous": false,
      "inputs": [
        {
          "indexed": true,
          "internalType": "address",
          "name": "from",
          "type": "address"
        },
        {
          "indexed": true,
          "internalType": "address",
          "name": "to",
          "type": "address"
        },
        {
          "indexed": false,
          "internalType": "uint256",
          "name": "value",
          "type": "uint256"
        }
      ],
      "name": "Transfer",
      "type": "event"
    },
    {
      "anonymous": false,
      "inputs": [
        {
          "indexed": false,
          "internalType": "address",
          "name": "account",
          "type": "address"
        }
      ],
      "name": "Unpaused",
      "type": "event"
    },
    {
      "anonymous": false,
      "inputs": [
        {
          "indexed": true,
          "internalType": "address",
          "name": "implementation",
          "type": "address"
        }
      ],
      "name": "Upgraded",
      "type": "event"
    },
    {
      "inputs": [],
      "name": "DEFAULT_ADMIN_ROLE",
      "outputs": [
        {
          "internalType": "bytes32",
          "name": "",
          "type": "bytes32"
        }
      ],
      "stateMutability": "view",
      "type": "function"
    },
    {
      "inputs": [],
      "name": "GOVERNANCE_ROLE",
      "outputs": [
        {
          "internalType": "bytes32",
          "name": "",
          "type": "bytes32"
        }
      ],
      "stateMutability": "view",
      "type": "function"
    },
    {
      "inputs": [],
      "name": "PAUSE_MANAGER_ROLE",
      "outputs": [
        {
          "internalType": "bytes32",
          "name": "",
          "type": "bytes32"
        }
      ],
      "stateMutability": "view",
      "type": "function"
    },
    {
      "inputs": [],
      "name": "UPGRADE_MANAGER_ROLE",
      "outputs": [
        {
          "internalType": "bytes32",
          "name": "",
          "type": "bytes32"
        }
      ],
      "stateMutability": "view",
      "type": "function"
    },
    {
      "inputs": [],
      "name": "WHITELISTED_FROM_ROLE",
      "outputs": [
        {
          "internalType": "bytes32",
          "name": "",
          "type": "bytes32"
        }
      ],
      "stateMutability": "view",
      "type": "function"
    },
    {
      "inputs": [],
      "name": "WHITELISTED_SENDER_ROLE",
      "outputs": [
        {
          "internalType": "bytes32",
          "name": "",
          "type": "bytes32"
        }
      ],
      "stateMutability": "view",
      "type": "function"
    },
    {
      "inputs": [
        {
          "internalType": "address[]",
          "name": "addresses",
          "type": "address[]"
        }
      ],
      "name": "addAddressesToWhitelistFrom",
      "outputs": [],
      "stateMutability": "nonpayable",
      "type": "function"
    },
    {
      "inputs": [
        {
          "internalType": "address[]",
          "name": "addresses",
          "type": "address[]"
        }
      ],
      "name": "addAddressesToWhitelistSender",
      "outputs": [],
      "stateMutability": "nonpayable",
      "type": "function"
    },
    {
      "inputs": [
        {
          "internalType": "address",
          "name": "owner",
          "type": "address"
        },
        {
          "internalType": "address",
          "name": "spender",
          "type": "address"
        }
      ],
      "name": "allowance",
      "outputs": [
        {
          "internalType": "uint256",
          "name": "",
          "type": "uint256"
        }
      ],
      "stateMutability": "view",
      "type": "function"
    },
    {
      "inputs": [
        {
          "internalType": "address",
          "name": "spender",
          "type": "address"
        },
        {
          "internalType": "uint256",
          "name": "amount",
          "type": "uint256"
        }
      ],
      "name": "approve",
      "outputs": [
        {
          "internalType": "bool",
          "name": "",
          "type": "bool"
        }
      ],
      "stateMutability": "nonpayable",
      "type": "function"
    },
    {
      "inputs": [
        {
          "internalType": "address",
          "name": "account",
          "type": "address"
        }
      ],
      "name": "balanceOf",
      "outputs": [
        {
          "internalType": "uint256",
          "name": "",
          "type": "uint256"
        }
      ],
      "stateMutability": "view",
      "type": "function"
    },
    {
      "inputs": [
        {
          "internalType": "address",
          "name": "account",
          "type": "address"
        },
        {
          "internalType": "uint256",
          "name": "snapshotId",
          "type": "uint256"
        }
      ],
      "name": "balanceOfAt",
      "outputs": [
        {
          "internalType": "uint256",
          "name": "",
          "type": "uint256"
        }
      ],
      "stateMutability": "view",
      "type": "function"
    },
    {
      "inputs": [
        {
          "internalType": "uint256",
          "name": "amount",
          "type": "uint256"
        }
      ],
      "name": "burn",
      "outputs": [],
      "stateMutability": "nonpayable",
      "type": "function"
    },
    {
      "inputs": [
        {
          "internalType": "address",
          "name": "account",
          "type": "address"
        },
        {
          "internalType": "uint256",
          "name": "amount",
          "type": "uint256"
        }
      ],
      "name": "burnFrom",
      "outputs": [],
      "stateMutability": "nonpayable",
      "type": "function"
    },
    {
      "inputs": [],
      "name": "decimals",
      "outputs": [
        {
          "internalType": "uint8",
          "name": "",
          "type": "uint8"
        }
      ],
      "stateMutability": "view",
      "type": "function"
    },
    {
      "inputs": [
        {
          "internalType": "address",
          "name": "spender",
          "type": "address"
        },
        {
          "internalType": "uint256",
          "name": "subtractedValue",
          "type": "uint256"
        }
      ],
      "name": "decreaseAllowance",
      "outputs": [
        {
          "internalType": "bool",
          "name": "",
          "type": "bool"
        }
      ],
      "stateMutability": "nonpayable",
      "type": "function"
    },
    {
      "inputs": [],
      "name": "getCurrentSnapshotId",
      "outputs": [
        {
          "internalType": "uint256",
          "name": "",
          "type": "uint256"
        }
      ],
      "stateMutability": "view",
      "type": "function"
    },
    {
      "inputs": [],
      "name": "getImplementation",
      "outputs": [
        {
          "internalType": "address",
          "name": "",
          "type": "address"
        }
      ],
      "stateMutability": "view",
      "type": "function"
    },
    {
      "inputs": [
        {
          "internalType": "bytes32",
          "name": "role",
          "type": "bytes32"
        }
      ],
      "name": "getRoleAdmin",
      "outputs": [
        {
          "internalType": "bytes32",
          "name": "",
          "type": "bytes32"
        }
      ],
      "stateMutability": "view",
      "type": "function"
    },
    {
      "inputs": [
        {
          "internalType": "bytes32",
          "name": "role",
          "type": "bytes32"
        },
        {
          "internalType": "address",
          "name": "account",
          "type": "address"
        }
      ],
      "name": "grantRole",
      "outputs": [],
      "stateMutability": "nonpayable",
      "type": "function"
    },
    {
      "inputs": [
        {
          "internalType": "bytes32",
          "name": "role",
          "type": "bytes32"
        },
        {
          "internalType": "address",
          "name": "account",
          "type": "address"
        }
      ],
      "name": "hasRole",
      "outputs": [
        {
          "internalType": "bool",
          "name": "",
          "type": "bool"
        }
      ],
      "stateMutability": "view",
      "type": "function"
    },
    {
      "inputs": [
        {
          "internalType": "address",
          "name": "spender",
          "type": "address"
        },
        {
          "internalType": "uint256",
          "name": "addedValue",
          "type": "uint256"
        }
      ],
      "name": "increaseAllowance",
      "outputs": [
        {
          "internalType": "bool",
          "name": "",
          "type": "bool"
        }
      ],
      "stateMutability": "nonpayable",
      "type": "function"
    },
    {
      "inputs": [
        {
          "internalType": "string",
          "name": "name_",
          "type": "string"
        },
        {
          "internalType": "string",
          "name": "symbol_",
          "type": "string"
        },
        {
          "internalType": "uint8",
          "name": "decimals_",
          "type": "uint8"
        },
        {
          "internalType": "uint256",
          "name": "amount_",
          "type": "uint256"
        }
      ],
      "name": "initialize",
      "outputs": [],
      "stateMutability": "nonpayable",
      "type": "function"
    },
    {
      "inputs": [],
      "name": "name",
      "outputs": [
        {
          "internalType": "string",
          "name": "",
          "type": "string"
        }
      ],
      "stateMutability": "view",
      "type": "function"
    },
    {
      "inputs": [],
      "name": "pause",
      "outputs": [],
      "stateMutability": "nonpayable",
      "type": "function"
    },
    {
      "inputs": [],
      "name": "paused",
      "outputs": [
        {
          "internalType": "bool",
          "name": "",
          "type": "bool"
        }
      ],
      "stateMutability": "view",
      "type": "function"
    },
    {
      "inputs": [
        {
          "internalType": "address",
          "name": "implementationAddress",
          "type": "address"
        }
      ],
      "name": "proposeNewImplementation",
      "outputs": [],
      "stateMutability": "nonpayable",
      "type": "function"
    },
    {
      "inputs": [
        {
          "internalType": "address[]",
          "name": "addresses",
          "type": "address[]"
        }
      ],
      "name": "removeAddressesFromWhitelistFrom",
      "outputs": [],
      "stateMutability": "nonpayable",
      "type": "function"
    },
    {
      "inputs": [
        {
          "internalType": "address[]",
          "name": "addresses",
          "type": "address[]"
        }
      ],
      "name": "removeAddressesFromWhitelistSender",
      "outputs": [],
      "stateMutability": "nonpayable",
      "type": "function"
    },
    {
      "inputs": [
        {
          "internalType": "bytes32",
          "name": "role",
          "type": "bytes32"
        },
        {
          "internalType": "address",
          "name": "account",
          "type": "address"
        }
      ],
      "name": "renounceRole",
      "outputs": [],
      "stateMutability": "nonpayable",
      "type": "function"
    },
    {
      "inputs": [
        {
          "internalType": "bytes32",
          "name": "role",
          "type": "bytes32"
        },
        {
          "internalType": "address",
          "name": "account",
          "type": "address"
        }
      ],
      "name": "revokeRole",
      "outputs": [],
      "stateMutability": "nonpayable",
      "type": "function"
    },
    {
      "inputs": [],
      "name": "snapshot",
      "outputs": [],
      "stateMutability": "nonpayable",
      "type": "function"
    },
    {
      "inputs": [
        {
          "internalType": "bytes4",
          "name": "interfaceId",
          "type": "bytes4"
        }
      ],
      "name": "supportsInterface",
      "outputs": [
        {
          "internalType": "bool",
          "name": "",
          "type": "bool"
        }
      ],
      "stateMutability": "view",
      "type": "function"
    },
    {
      "inputs": [],
      "name": "symbol",
      "outputs": [
        {
          "internalType": "string",
          "name": "",
          "type": "string"
        }
      ],
      "stateMutability": "view",
      "type": "function"
    },
    {
      "inputs": [],
      "name": "totalSupply",
      "outputs": [
        {
          "internalType": "uint256",
          "name": "",
          "type": "uint256"
        }
      ],
      "stateMutability": "view",
      "type": "function"
    },
    {
      "inputs": [
        {
          "internalType": "uint256",
          "name": "snapshotId",
          "type": "uint256"
        }
      ],
      "name": "totalSupplyAt",
      "outputs": [
        {
          "internalType": "uint256",
          "name": "",
          "type": "uint256"
        }
      ],
      "stateMutability": "view",
      "type": "function"
    },
    {
      "inputs": [
        {
          "internalType": "address",
          "name": "recipient",
          "type": "address"
        },
        {
          "internalType": "uint256",
          "name": "amount",
          "type": "uint256"
        }
      ],
      "name": "transfer",
      "outputs": [
        {
          "internalType": "bool",
          "name": "",
          "type": "bool"
        }
      ],
      "stateMutability": "nonpayable",
      "type": "function"
    },
    {
      "inputs": [
        {
          "internalType": "address",
          "name": "sender",
          "type": "address"
        },
        {
          "internalType": "address",
          "name": "recipient",
          "type": "address"
        },
        {
          "internalType": "uint256",
          "name": "amount",
          "type": "uint256"
        }
      ],
      "name": "transferFrom",
      "outputs": [
        {
          "internalType": "bool",
          "name": "",
          "type": "bool"
        }
      ],
      "stateMutability": "nonpayable",
      "type": "function"
    },
    {
      "inputs": [],
      "name": "unpause",
      "outputs": [],
      "stateMutability": "nonpayable",
      "type": "function"
    },
    {
      "inputs": [
        {
          "internalType": "address",
          "name": "newImplementation",
          "type": "address"
        }
      ],
      "name": "upgradeTo",
      "outputs": [],
      "stateMutability": "nonpayable",
      "type": "function"
    },
    {
      "inputs": [
        {
          "internalType": "address",
          "name": "newImplementation",
          "type": "address"
        },
        {
          "internalType": "bytes",
          "name": "data",
          "type": "bytes"
        }
      ],
      "name": "upgradeToAndCall",
      "outputs": [],
      "stateMutability": "payable",
      "type": "function"
    }
  ],
  "bytecode": "0x60a06040523060601b60805234801561001757600080fd5b5060805160601c612df961004b60003960008181610aac01528181610aec01528181610cbe0152610cfe0152612df96000f3fe6080604052600436106102465760003560e01c8063685ed81a11610139578063a217fddf116100b6578063c233f3b71161007a578063c233f3b7146106b5578063d547741f146106d5578063d84f91e8146106f5578063dd62ed3e14610717578063f36c8f5c1461075d578063f834c5021461077f57600080fd5b8063a217fddf14610611578063a457c2d714610626578063a9059cbb14610646578063aa74a34a14610666578063aaf10f421461068857600080fd5b80638456cb59116100fd5780638456cb591461059257806391d14854146105a757806395d89b41146105c75780639711715a146105dc578063981b24d0146105f157600080fd5b8063685ed81a146104da5780636e79a1c0146104fa57806370a082311461051a578063731ce8fc1461055057806379cc67901461057257600080fd5b80633659cfe6116101c757806347757fb61161018b57806347757fb61461044d5780634ee2cd7e1461046d5780634f1ef2861461048d5780635439ad86146104a05780635c975abb146104b557600080fd5b80633659cfe6146103b657806339509351146103d65780633f4ba83a146103f657806342966c681461040b57806343ffa64e1461042b57600080fd5b8063248a9ca31161020e578063248a9ca314610301578063253279ad146103315780632f2ff15d14610353578063313ce5671461037357806336568abe1461039657600080fd5b806301ffc9a71461024b57806306fdde0314610280578063095ea7b3146102a257806318160ddd146102c257806323b872dd146102e1575b600080fd5b34801561025757600080fd5b5061026b610266366004612922565b61079f565b60405190151581526020015b60405180910390f35b34801561028c57600080fd5b506102956107d6565b6040516102779190612a61565b3480156102ae57600080fd5b5061026b6102bd366004612847565b610868565b3480156102ce57600080fd5b506067545b604051908152602001610277565b3480156102ed57600080fd5b5061026b6102fc3660046127a9565b61087e565b34801561030d57600080fd5b506102d361031c3660046128e6565b600090815260fb602052604090206001015490565b34801561033d57600080fd5b5061035161034c36600461294c565b61092f565b005b34801561035f57600080fd5b5061035161036e3660046128ff565b6109f8565b34801561037f57600080fd5b506101605460405160ff9091168152602001610277565b3480156103a257600080fd5b506103516103b13660046128ff565b610a23565b3480156103c257600080fd5b506103516103d136600461275b565b610aa1565b3480156103e257600080fd5b5061026b6103f1366004612847565b610b6a565b34801561040257600080fd5b50610351610ba6565b34801561041757600080fd5b506103516104263660046128e6565b610bc7565b34801561043757600080fd5b506102d3600080516020612cdd83398151915281565b34801561045957600080fd5b5061035161046836600461275b565b610bd1565b34801561047957600080fd5b506102d3610488366004612847565b610c0e565b61035161049b3660046127e5565b610cb3565b3480156104ac57600080fd5b506102d3610d69565b3480156104c157600080fd5b50600080516020612d848339815191525460ff1661026b565b3480156104e657600080fd5b506103516104f5366004612871565b610d86565b34801561050657600080fd5b50610351610515366004612871565b610dfb565b34801561052657600080fd5b506102d361053536600461275b565b6001600160a01b031660009081526065602052604090205490565b34801561055c57600080fd5b506102d3600080516020612da483398151915281565b34801561057e57600080fd5b5061035161058d366004612847565b610e6a565b34801561059e57600080fd5b50610351610eeb565b3480156105b357600080fd5b5061026b6105c23660046128ff565b610f0c565b3480156105d357600080fd5b50610295610f37565b3480156105e857600080fd5b50610351610f46565b3480156105fd57600080fd5b506102d361060c3660046128e6565b610f4e565b34801561061d57600080fd5b506102d3600081565b34801561063257600080fd5b5061026b610641366004612847565b610fb9565b34801561065257600080fd5b5061026b610661366004612847565b611052565b34801561067257600080fd5b506102d3600080516020612cbd83398151915281565b34801561069457600080fd5b5061069d61105f565b6040516001600160a01b039091168152602001610277565b3480156106c157600080fd5b506103516106d0366004612871565b611069565b3480156106e157600080fd5b506103516106f03660046128ff565b6110c3565b34801561070157600080fd5b506102d3600080516020612d4483398151915281565b34801561072357600080fd5b506102d3610732366004612776565b6001600160a01b03918216600090815260666020908152604080832093909416825291909152205490565b34801561076957600080fd5b506102d3600080516020612cfd83398151915281565b34801561078b57600080fd5b5061035161079a366004612871565b6110e9565b60006001600160e01b03198216637965db0b60e01b14806107d057506301ffc9a760e01b6001600160e01b03198316145b92915050565b6060606880546107e590612c2a565b80601f016020809104026020016040519081016040528092919081815260200182805461081190612c2a565b801561085e5780601f106108335761010080835404028352916020019161085e565b820191906000526020600020905b81548152906001019060200180831161084157829003601f168201915b5050505050905090565b6000610875338484611143565b50600192915050565b600061088b848484611267565b6001600160a01b0384166000908152606660209081526040808320338452909152902054828110156109155760405162461bcd60e51b815260206004820152602860248201527f45524332303a207472616e7366657220616d6f756e74206578636565647320616044820152676c6c6f77616e636560c01b60648201526084015b60405180910390fd5b6109228533858403611143565b60019150505b9392505050565b600054610100900460ff1661094a5760005460ff161561094e565b303b155b6109b15760405162461bcd60e51b815260206004820152602e60248201527f496e697469616c697a61626c653a20636f6e747261637420697320616c72656160448201526d191e481a5b9a5d1a585b1a5e995960921b606482015260840161090c565b600054610100900460ff161580156109d3576000805461ffff19166101011790555b6109df85858585611440565b80156109f1576000805461ff00191690555b5050505050565b600082815260fb6020526040902060010154610a148133611483565b610a1e83836114e7565b505050565b6001600160a01b0381163314610a935760405162461bcd60e51b815260206004820152602f60248201527f416363657373436f6e74726f6c3a2063616e206f6e6c792072656e6f756e636560448201526e103937b632b9903337b91039b2b63360891b606482015260840161090c565b610a9d828261156d565b5050565b306001600160a01b037f0000000000000000000000000000000000000000000000000000000000000000161415610aea5760405162461bcd60e51b815260040161090c90612a94565b7f00000000000000000000000000000000000000000000000000000000000000006001600160a01b0316610b1c6115d4565b6001600160a01b031614610b425760405162461bcd60e51b815260040161090c90612ae0565b610b4b81611602565b60408051600080825260208201909252610b6791839190611684565b50565b3360008181526066602090815260408083206001600160a01b03871684529091528120549091610875918590610ba1908690612b77565b611143565b600080516020612d44833981519152610bbf8133611483565b610b676117c8565b610b673382611875565b600080516020612cfd833981519152610bea8133611483565b5061012d80546001600160a01b0319166001600160a01b0392909216919091179055565b604080516001600160a01b0384166020808301919091527ffbf1c7065455eb4486649b8540f24ef2dd4ebedf2aa423f0039d17c2c75dea15828401528251808303840181526060909201909252805191012060009081610c6f826001612b77565b9050600080610c7f8685856119cf565b9150915081610ca6576001600160a01b038716600090815260656020526040902054610ca8565b805b979650505050505050565b306001600160a01b037f0000000000000000000000000000000000000000000000000000000000000000161415610cfc5760405162461bcd60e51b815260040161090c90612a94565b7f00000000000000000000000000000000000000000000000000000000000000006001600160a01b0316610d2e6115d4565b6001600160a01b031614610d545760405162461bcd60e51b815260040161090c90612ae0565b610d5d82611602565b610a9d82826001611684565b6000610d81600080516020612d648339815191525490565b905090565b600080516020612d44833981519152610d9f8133611483565b60005b82811015610df557610de3600080516020612cbd833981519152858584818110610dce57610dce612c90565b905060200201602081019061036e919061275b565b80610ded81612c5f565b915050610da2565b50505050565b600080516020612d44833981519152610e148133611483565b60005b82811015610df557610e58600080516020612da4833981519152858584818110610e4357610e43612c90565b90506020020160208101906106f0919061275b565b80610e6281612c5f565b915050610e17565b6000610e768333610732565b905081811015610ed45760405162461bcd60e51b8152602060048201526024808201527f45524332303a206275726e20616d6f756e74206578636565647320616c6c6f77604482015263616e636560e01b606482015260840161090c565b610ee18333848403611143565b610a1e8383611875565b600080516020612d44833981519152610f048133611483565b610b67611aba565b600091825260fb602090815260408084206001600160a01b0393909316845291905290205460ff1690565b6060606980546107e590612c2a565b610b67611b4e565b6000806000610f9e847f286a9db37a0f8ddcbcee127c9f4f56031230f49cb46786f87e166d552e11f67e7ffcaa8bb100d3c5b627eac0369cc1d2778dbeffa2993d08f039fb27795729e9a56119cf565b9150915081610faf57606754610fb1565b805b949350505050565b3360009081526066602090815260408083206001600160a01b03861684529091528120548281101561103b5760405162461bcd60e51b815260206004820152602560248201527f45524332303a2064656372656173656420616c6c6f77616e63652062656c6f77604482015264207a65726f60d81b606482015260840161090c565b6110483385858403611143565b5060019392505050565b6000610875338484611267565b6000610d816115d4565b600080516020612d448339815191526110828133611483565b60005b82811015610df5576110b1600080516020612cbd833981519152858584818110610e4357610e43612c90565b806110bb81612c5f565b915050611085565b600082815260fb60205260409020600101546110df8133611483565b610a1e838361156d565b600080516020612d448339815191526111028133611483565b60005b82811015610df557611131600080516020612da4833981519152858584818110610dce57610dce612c90565b8061113b81612c5f565b915050611105565b6001600160a01b0383166111a55760405162461bcd60e51b8152602060048201526024808201527f45524332303a20617070726f76652066726f6d20746865207a65726f206164646044820152637265737360e01b606482015260840161090c565b6001600160a01b0382166112065760405162461bcd60e51b815260206004820152602260248201527f45524332303a20617070726f766520746f20746865207a65726f206164647265604482015261737360f01b606482015260840161090c565b6001600160a01b0383811660008181526066602090815260408083209487168084529482529182902085905590518481527f8c5be1e5ebec7d5bd14f71427d1e84f3dd0314c0f7b2291e5b200ac8c7c3b925910160405180910390a3505050565b6001600160a01b0383166112cb5760405162461bcd60e51b815260206004820152602560248201527f45524332303a207472616e736665722066726f6d20746865207a65726f206164604482015264647265737360d81b606482015260840161090c565b6001600160a01b03821661132d5760405162461bcd60e51b815260206004820152602360248201527f45524332303a207472616e7366657220746f20746865207a65726f206164647260448201526265737360e81b606482015260840161090c565b611338838383611bbe565b6001600160a01b038316600090815260656020526040902054818110156113b05760405162461bcd60e51b815260206004820152602660248201527f45524332303a207472616e7366657220616d6f756e7420657863656564732062604482015265616c616e636560d01b606482015260840161090c565b6001600160a01b038085166000908152606560205260408082208585039055918516815290812080548492906113e7908490612b77565b92505081905550826001600160a01b0316846001600160a01b03167fddf252ad1be2c89b69c2b068fc378daa952ba7f163c4a11628f55a4df523b3ef8460405161143391815260200190565b60405180910390a3610df5565b600054610100900460ff166114675760405162461bcd60e51b815260040161090c90612b2c565b61146f611bd4565b6114798484611c2d565b610df58282611c7b565b61148d8282610f0c565b610a9d576114a5816001600160a01b03166014611cbc565b6114b0836020611cbc565b6040516020016114c19291906129ec565b60408051601f198184030181529082905262461bcd60e51b825261090c91600401612a61565b6114f18282610f0c565b610a9d57600082815260fb602090815260408083206001600160a01b03851684529091529020805460ff191660011790556115293390565b6001600160a01b0316816001600160a01b0316837f2f8788117e7eff1d82e926ec794901d17c78024a50270940304540a733656f0d60405160405180910390a45050565b6115778282610f0c565b15610a9d57600082815260fb602090815260408083206001600160a01b0385168085529252808320805460ff1916905551339285917ff6391f5c32d9c69d2a47ea670b442974b53935d1edc7fd64eb21e047a839171b9190a45050565b7f360894a13ba1a3210667c828492db98dca3e2076cc3735a920a3ca505d382bbc546001600160a01b031690565b61161a600080516020612cfd83398151915233610f0c565b806116385750611638600080516020612cdd83398151915233610f0c565b610b675760405162461bcd60e51b815260206004820152601d60248201527f4552524f523a2041646472657373206e6f7420617574686f72697a6564000000604482015260640161090c565b600061168e6115d4565b905061169984611e58565b6000835111806116a65750815b156116b7576116b58484611efd565b505b7f4910fdfa16fed3260ed0e7147f7cc6da11a60208b5b9406d12a635614ffd9143805460ff166109f157805460ff191660011781556040516001600160a01b038316602482015261173690869060440160408051601f198184030181529190526020810180516001600160e01b0316631b2ce7f360e11b179052611efd565b50805460ff191681556117476115d4565b6001600160a01b0316826001600160a01b0316146117bf5760405162461bcd60e51b815260206004820152602f60248201527f45524331393637557067726164653a207570677261646520627265616b73206660448201526e75727468657220757067726164657360881b606482015260840161090c565b6109f185611fe8565b600080516020612d848339815191525460ff1661181e5760405162461bcd60e51b815260206004820152601460248201527314185d5cd8589b194e881b9bdd081c185d5cd95960621b604482015260640161090c565b600080516020612d84833981519152805460ff191690557f5db9ee0a495bf2e6ff9c91a7834c1ba4fdd244a5e8aa4e537bd38aeae4b073aa335b6040516001600160a01b03909116815260200160405180910390a1565b6001600160a01b0382166118d55760405162461bcd60e51b815260206004820152602160248201527f45524332303a206275726e2066726f6d20746865207a65726f206164647265736044820152607360f81b606482015260840161090c565b6118e182600083611bbe565b6001600160a01b038216600090815260656020526040902054818110156119555760405162461bcd60e51b815260206004820152602260248201527f45524332303a206275726e20616d6f756e7420657863656564732062616c616e604482015261636560f01b606482015260840161090c565b6001600160a01b0383166000908152606560205260408120838303905560678054849290611984908490612bd0565b90915550506040518281526000906001600160a01b038516907fddf252ad1be2c89b69c2b068fc378daa952ba7f163c4a11628f55a4df523b3ef9060200160405180910390a3505050565b60008060008511611a1b5760405162461bcd60e51b815260206004820152601660248201527504552433230536e617073686f743a20696420697320360541b604482015260640161090c565b600080516020612d6483398151915254851115611a7a5760405162461bcd60e51b815260206004820152601d60248201527f4552433230536e617073686f743a206e6f6e6578697374656e74206964000000604482015260640161090c565b6000611a868587612028565b90508454811415611a9e576000809250925050611ab2565b6001611aaa85836120c7565b549093509150505b935093915050565b600080516020612d848339815191525460ff1615611b0d5760405162461bcd60e51b815260206004820152601060248201526f14185d5cd8589b194e881c185d5cd95960821b604482015260640161090c565b600080516020612d84833981519152805460ff191660011790557f62e78cea01bee320cd4e420270b5ea74000d11b0c9f74754ebdbfc544b05a25833611858565b60006001600080516020612d648339815191528054600090611b71908490612b77565b9091555050600080516020612d64833981519152546040518181527f8030e83b04d87bef53480e26263266d6ca66863aa8506aca6f2559d18aa1cb679060200160405180910390a1919050565b611bc9838383612146565b610a1e83838361215c565b600054610100900460ff16611bfb5760405162461bcd60e51b815260040161090c90612b2c565b611c036121a4565b611c0b6121a4565b611c136121a4565b611c1b6121a4565b611c236121a4565b611c2b6121cb565b565b600054610100900460ff16611c545760405162461bcd60e51b815260040161090c90612b2c565b8151611c67906068906020850190612610565b508051610a1e906069906020840190612610565b600054610100900460ff16611ca25760405162461bcd60e51b815260040161090c90612b2c565b610160805460ff191660ff8416179055610a9d3382612253565b60606000611ccb836002612bb1565b611cd6906002612b77565b67ffffffffffffffff811115611cee57611cee612ca6565b6040519080825280601f01601f191660200182016040528015611d18576020820181803683370190505b509050600360fc1b81600081518110611d3357611d33612c90565b60200101906001600160f81b031916908160001a905350600f60fb1b81600181518110611d6257611d62612c90565b60200101906001600160f81b031916908160001a9053506000611d86846002612bb1565b611d91906001612b77565b90505b6001811115611e09576f181899199a1a9b1b9c1cb0b131b232b360811b85600f1660108110611dc557611dc5612c90565b1a60f81b828281518110611ddb57611ddb612c90565b60200101906001600160f81b031916908160001a90535060049490941c93611e0281612c13565b9050611d94565b5083156109285760405162461bcd60e51b815260206004820181905260248201527f537472696e67733a20686578206c656e67746820696e73756666696369656e74604482015260640161090c565b803b611ebc5760405162461bcd60e51b815260206004820152602d60248201527f455243313936373a206e657720696d706c656d656e746174696f6e206973206e60448201526c1bdd08184818dbdb9d1c9858dd609a1b606482015260840161090c565b7f360894a13ba1a3210667c828492db98dca3e2076cc3735a920a3ca505d382bbc80546001600160a01b0319166001600160a01b0392909216919091179055565b6060823b611f5c5760405162461bcd60e51b815260206004820152602660248201527f416464726573733a2064656c65676174652063616c6c20746f206e6f6e2d636f6044820152651b9d1c9858dd60d21b606482015260840161090c565b600080846001600160a01b031684604051611f7791906129d0565b600060405180830381855af49150503d8060008114611fb2576040519150601f19603f3d011682016040523d82523d6000602084013e611fb7565b606091505b5091509150611fdf8282604051806060016040528060278152602001612d1d6027913961233e565b95945050505050565b611ff181611e58565b6040516001600160a01b038216907fbc7cd75a20ee27fd9adebab32041f755214dbc6bffa90cc0225b39da2e5c2d3b90600090a250565b815460009081908061203f576000925050506107d0565b808210156120835760006120538383612377565b90508461206087836120c7565b54111561206f5780915061207d565b61207a816001612b77565b92505b5061203f565b6000821180156120a65750836120a38661209e600186612bd0565b6120c7565b54145b156120bf576120b6600183612bd0565b925050506107d0565b5090506107d0565b60008254821061210f5760405162461bcd60e51b815260206004820152601360248201527211549493d48e8813dd5d081bd988189bdd5b99606a1b604482015260640161090c565b818360405160200161212391815260200190565b6040516020818303038152906040528051906020012060001c6109289190612b77565b612151838383611bc9565b610a1e838383612392565b6001600160a01b03831661217b5761217382612415565b610a1e61249f565b6001600160a01b0382166121925761217383612415565b61219b83612415565b610a1e82612415565b600054610100900460ff16611c2b5760405162461bcd60e51b815260040161090c90612b2c565b600054610100900460ff166121f25760405162461bcd60e51b815260040161090c90612b2c565b6121fd6000336124ed565b612215600080516020612cfd833981519152336124ed565b61222d600080516020612cdd833981519152336124ed565b611c2b600080516020612cdd833981519152600080516020612cfd8339815191526124f7565b6001600160a01b0382166122a95760405162461bcd60e51b815260206004820152601f60248201527f45524332303a206d696e7420746f20746865207a65726f206164647265737300604482015260640161090c565b6122b560008383611bbe565b80606760008282546122c79190612b77565b90915550506001600160a01b038216600090815260656020526040812080548392906122f4908490612b77565b90915550506040518181526001600160a01b038316906000907fddf252ad1be2c89b69c2b068fc378daa952ba7f163c4a11628f55a4df523b3ef9060200160405180910390a35050565b6060831561234d575081610928565b82511561235d5782518084602001fd5b8160405162461bcd60e51b815260040161090c9190612a61565b60006123866002848418612b8f565b61092890848416612b77565b600080516020612d848339815191525460ff1615806123b657506123b68333612542565b610a1e5760405162461bcd60e51b815260206004820152602a60248201527f45524332305061757361626c653a20746f6b656e207472616e736665722077686044820152691a5b19481c185d5cd95960b21b606482015260840161090c565b604080516001600160a01b0383166020808301919091527ffbf1c7065455eb4486649b8540f24ef2dd4ebedf2aa423f0039d17c2c75dea1582840152825180830384018152606090920190925280519101206000612474826001612b77565b9050610a1e828261249a866001600160a01b031660009081526065602052604090205490565b61257a565b611c2b7f286a9db37a0f8ddcbcee127c9f4f56031230f49cb46786f87e166d552e11f67e7ffcaa8bb100d3c5b627eac0369cc1d2778dbeffa2993d08f039fb27795729e9a561249a60675490565b610a9d82826114e7565b600082815260fb6020526040808220600101805490849055905190918391839186917fbd79b86ffe0ab8e8776151514217cd7cacd52c909f66475c3af44e129f0b00ff9190a4505050565b600061255c600080516020612da483398151915284610f0c565b806109285750610928600080516020612cbd83398151915283610f0c565b6000612592600080516020612d648339815191525490565b90508061259e856125b8565b1015610df5576125ae84826125e8565b610df583836125e8565b8054600090806125cb5750600092915050565b6125da8361209e600184612bd0565b549392505050565b50919050565b815460018360006125f98385612b77565b9091555082905061260a84836120c7565b55505050565b82805461261c90612c2a565b90600052602060002090601f01602090048101928261263e5760008555612684565b82601f1061265757805160ff1916838001178555612684565b82800160010185558215612684579182015b82811115612684578251825591602001919060010190612669565b50612690929150612694565b5090565b5b808211156126905760008155600101612695565b600067ffffffffffffffff808411156126c4576126c4612ca6565b604051601f8501601f19908116603f011681019082821181831017156126ec576126ec612ca6565b8160405280935085815286868601111561270557600080fd5b858560208301376000602087830101525050509392505050565b80356001600160a01b038116811461273657600080fd5b919050565b600082601f83011261274c57600080fd5b610928838335602085016126a9565b60006020828403121561276d57600080fd5b6109288261271f565b6000806040838503121561278957600080fd5b6127928361271f565b91506127a06020840161271f565b90509250929050565b6000806000606084860312156127be57600080fd5b6127c78461271f565b92506127d56020850161271f565b9150604084013590509250925092565b600080604083850312156127f857600080fd5b6128018361271f565b9150602083013567ffffffffffffffff81111561281d57600080fd5b8301601f8101851361282e57600080fd5b61283d858235602084016126a9565b9150509250929050565b6000806040838503121561285a57600080fd5b6128638361271f565b946020939093013593505050565b6000806020838503121561288457600080fd5b823567ffffffffffffffff8082111561289c57600080fd5b818501915085601f8301126128b057600080fd5b8135818111156128bf57600080fd5b8660208260051b85010111156128d457600080fd5b60209290920196919550909350505050565b6000602082840312156128f857600080fd5b5035919050565b6000806040838503121561291257600080fd5b823591506127a06020840161271f565b60006020828403121561293457600080fd5b81356001600160e01b03198116811461092857600080fd5b6000806000806080858703121561296257600080fd5b843567ffffffffffffffff8082111561297a57600080fd5b6129868883890161273b565b9550602087013591508082111561299c57600080fd5b506129a98782880161273b565b935050604085013560ff811681146129c057600080fd5b9396929550929360600135925050565b600082516129e2818460208701612be7565b9190910192915050565b7f416363657373436f6e74726f6c3a206163636f756e7420000000000000000000815260008351612a24816017850160208801612be7565b7001034b99036b4b9b9b4b733903937b6329607d1b6017918401918201528351612a55816028840160208801612be7565b01602801949350505050565b6020815260008251806020840152612a80816040850160208701612be7565b601f01601f19169190910160400192915050565b6020808252602c908201527f46756e6374696f6e206d7573742062652063616c6c6564207468726f7567682060408201526b19195b1959d85d1958d85b1b60a21b606082015260800190565b6020808252602c908201527f46756e6374696f6e206d7573742062652063616c6c6564207468726f7567682060408201526b6163746976652070726f787960a01b606082015260800190565b6020808252602b908201527f496e697469616c697a61626c653a20636f6e7472616374206973206e6f74206960408201526a6e697469616c697a696e6760a81b606082015260800190565b60008219821115612b8a57612b8a612c7a565b500190565b600082612bac57634e487b7160e01b600052601260045260246000fd5b500490565b6000816000190483118215151615612bcb57612bcb612c7a565b500290565b600082821015612be257612be2612c7a565b500390565b60005b83811015612c02578181015183820152602001612bea565b83811115610df55750506000910152565b600081612c2257612c22612c7a565b506000190190565b600181811c90821680612c3e57607f821691505b602082108114156125e257634e487b7160e01b600052602260045260246000fd5b6000600019821415612c7357612c73612c7a565b5060010190565b634e487b7160e01b600052601160045260246000fd5b634e487b7160e01b600052603260045260246000fd5b634e487b7160e01b600052604160045260246000fdfee1ac655ab58995133a870d1fd307ddc1d624c8ad919a09e67867a7a1483e439aa76ace73a908083d89af9ff88e5b4f7cadb3591a80631063f68b695fda726db571840dc4906352362b0cdaf79870196c8e42acafade72d5d5a6d59291253ceb1416464726573733a206c6f772d6c6576656c2064656c65676174652063616c6c206661696c6564356a809dfdea9198dd76fb76bf6d403ecf13ea675eb89e1eda2db2c4a4676a260d0a0ed3351c10a57d74a44b40c06e0946288e4e3816ac07bb89db2a755562e7ad6a6591fa308fe948065665239402780db8ed4a8c4e4e16c4d066bcaa05efc2ce108bcc5e0f50fe603649304cbbbd94de794a404db82d884c0afc9ba9328e61a2646970667358221220be7dd10c0a6327094cffa148159714fdeaf79c6669f26f2ec7d8536d436c5ac764736f6c63430008060033",
  "linkReferences": {},
  "deployedLinkReferences": {}
}