{
  "_format": "hh-sol-artifact-1",
  "name": "BurnSnapshotTemplate",
  "initializer": "function initialize(string name_, string symbol_, uint8 decimals_, uint256 amount_)",
  "sourceName": "contracts/templates/BurnSnapshotTemplate.sol",
  "abi": [
    {
      "anonymous": false,
      "inputs": [
        {
          "indexed": false,
          "internalType": "address",
          "name": "previousAdmin",
          "type": "address"
        },
        {
          "indexed": false,
          "internalType": "address",
          "name": "newAdmin",
          "type": "address"
        }
      ],
      "name": "AdminChanged",
      "type": "event"
    },
    {
      "anonymous": false,
      "inputs": [
        {
          "indexed": true,
          "internalType": "address",
          "name": "owner",
          "type": "address"
        },
        {
          "indexed": true,
          "internalType": "address",
          "name": "spender",
          "type": "address"
        },
        {
          "indexed": false,
          "internalType": "uint256",
          "name": "value",
          "type": "uint256"
        }
      ],
      "name": "Approval",
      "type": "event"
    },
    {
      "anonymous": false,
      "inputs": [
        {
          "indexed": true,
          "internalType": "address",
          "name": "beacon",
          "type": "address"
        }
      ],
      "name": "BeaconUpgraded",
      "type": "event"
    },
    {
      "anonymous": false,
      "inputs": [
        {
          "indexed": true,
          "internalType": "bytes32",
          "name": "role",
          "type": "bytes32"
        },
        {
          "indexed": true,
          "internalType": "bytes32",
          "name": "previousAdminRole",
          "type": "bytes32"
        },
        {
          "indexed": true,
          "internalType": "bytes32",
          "name": "newAdminRole",
          "type": "bytes32"
        }
      ],
      "name": "RoleAdminChanged",
      "type": "event"
    },
    {
      "anonymous": false,
      "inputs": [
        {
          "indexed": true,
          "internalType": "bytes32",
          "name": "role",
          "type": "bytes32"
        },
        {
          "indexed": true,
          "internalType": "address",
          "name": "account",
          "type": "address"
        },
        {
          "indexed": true,
          "internalType": "address",
          "name": "sender",
          "type": "address"
        }
      ],
      "name": "RoleGranted",
      "type": "event"
    },
    {
      "anonymous": false,
      "inputs": [
        {
          "indexed": true,
          "internalType": "bytes32",
          "name": "role",
          "type": "bytes32"
        },
        {
          "indexed": true,
          "internalType": "address",
          "name": "account",
          "type": "address"
        },
        {
          "indexed": true,
          "internalType": "address",
          "name": "sender",
          "type": "address"
        }
      ],
      "name": "RoleRevoked",
      "type": "event"
    },
    {
      "anonymous": false,
      "inputs": [
        {
          "indexed": false,
          "internalType": "uint256",
          "name": "id",
          "type": "uint256"
        }
      ],
      "name": "Snapshot",
      "type": "event"
    },
    {
      "anonymous": false,
      "inputs": [
        {
          "indexed": true,
          "internalType": "address",
          "name": "from",
          "type": "address"
        },
        {
          "indexed": true,
          "internalType": "address",
          "name": "to",
          "type": "address"
        },
        {
          "indexed": false,
          "internalType": "uint256",
          "name": "value",
          "type": "uint256"
        }
      ],
      "name": "Transfer",
      "type": "event"
    },
    {
      "anonymous": false,
      "inputs": [
        {
          "indexed": true,
          "internalType": "address",
          "name": "implementation",
          "type": "address"
        }
      ],
      "name": "Upgraded",
      "type": "event"
    },
    {
      "inputs": [],
      "name": "DEFAULT_ADMIN_ROLE",
      "outputs": [
        {
          "internalType": "bytes32",
          "name": "",
          "type": "bytes32"
        }
      ],
      "stateMutability": "view",
      "type": "function"
    },
    {
      "inputs": [],
      "name": "GOVERNANCE_ROLE",
      "outputs": [
        {
          "internalType": "bytes32",
          "name": "",
          "type": "bytes32"
        }
      ],
      "stateMutability": "view",
      "type": "function"
    },
    {
      "inputs": [],
      "name": "UPGRADE_MANAGER_ROLE",
      "outputs": [
        {
          "internalType": "bytes32",
          "name": "",
          "type": "bytes32"
        }
      ],
      "stateMutability": "view",
      "type": "function"
    },
    {
      "inputs": [
        {
          "internalType": "address",
          "name": "owner",
          "type": "address"
        },
        {
          "internalType": "address",
          "name": "spender",
          "type": "address"
        }
      ],
      "name": "allowance",
      "outputs": [
        {
          "internalType": "uint256",
          "name": "",
          "type": "uint256"
        }
      ],
      "stateMutability": "view",
      "type": "function"
    },
    {
      "inputs": [
        {
          "internalType": "address",
          "name": "spender",
          "type": "address"
        },
        {
          "internalType": "uint256",
          "name": "amount",
          "type": "uint256"
        }
      ],
      "name": "approve",
      "outputs": [
        {
          "internalType": "bool",
          "name": "",
          "type": "bool"
        }
      ],
      "stateMutability": "nonpayable",
      "type": "function"
    },
    {
      "inputs": [
        {
          "internalType": "address",
          "name": "account",
          "type": "address"
        }
      ],
      "name": "balanceOf",
      "outputs": [
        {
          "internalType": "uint256",
          "name": "",
          "type": "uint256"
        }
      ],
      "stateMutability": "view",
      "type": "function"
    },
    {
      "inputs": [
        {
          "internalType": "address",
          "name": "account",
          "type": "address"
        },
        {
          "internalType": "uint256",
          "name": "snapshotId",
          "type": "uint256"
        }
      ],
      "name": "balanceOfAt",
      "outputs": [
        {
          "internalType": "uint256",
          "name": "",
          "type": "uint256"
        }
      ],
      "stateMutability": "view",
      "type": "function"
    },
    {
      "inputs": [
        {
          "internalType": "uint256",
          "name": "amount",
          "type": "uint256"
        }
      ],
      "name": "burn",
      "outputs": [],
      "stateMutability": "nonpayable",
      "type": "function"
    },
    {
      "inputs": [
        {
          "internalType": "address",
          "name": "account",
          "type": "address"
        },
        {
          "internalType": "uint256",
          "name": "amount",
          "type": "uint256"
        }
      ],
      "name": "burnFrom",
      "outputs": [],
      "stateMutability": "nonpayable",
      "type": "function"
    },
    {
      "inputs": [],
      "name": "decimals",
      "outputs": [
        {
          "internalType": "uint8",
          "name": "",
          "type": "uint8"
        }
      ],
      "stateMutability": "view",
      "type": "function"
    },
    {
      "inputs": [
        {
          "internalType": "address",
          "name": "spender",
          "type": "address"
        },
        {
          "internalType": "uint256",
          "name": "subtractedValue",
          "type": "uint256"
        }
      ],
      "name": "decreaseAllowance",
      "outputs": [
        {
          "internalType": "bool",
          "name": "",
          "type": "bool"
        }
      ],
      "stateMutability": "nonpayable",
      "type": "function"
    },
    {
      "inputs": [],
      "name": "getCurrentSnapshotId",
      "outputs": [
        {
          "internalType": "uint256",
          "name": "",
          "type": "uint256"
        }
      ],
      "stateMutability": "view",
      "type": "function"
    },
    {
      "inputs": [],
      "name": "getImplementation",
      "outputs": [
        {
          "internalType": "address",
          "name": "",
          "type": "address"
        }
      ],
      "stateMutability": "view",
      "type": "function"
    },
    {
      "inputs": [
        {
          "internalType": "bytes32",
          "name": "role",
          "type": "bytes32"
        }
      ],
      "name": "getRoleAdmin",
      "outputs": [
        {
          "internalType": "bytes32",
          "name": "",
          "type": "bytes32"
        }
      ],
      "stateMutability": "view",
      "type": "function"
    },
    {
      "inputs": [
        {
          "internalType": "bytes32",
          "name": "role",
          "type": "bytes32"
        },
        {
          "internalType": "address",
          "name": "account",
          "type": "address"
        }
      ],
      "name": "grantRole",
      "outputs": [],
      "stateMutability": "nonpayable",
      "type": "function"
    },
    {
      "inputs": [
        {
          "internalType": "bytes32",
          "name": "role",
          "type": "bytes32"
        },
        {
          "internalType": "address",
          "name": "account",
          "type": "address"
        }
      ],
      "name": "hasRole",
      "outputs": [
        {
          "internalType": "bool",
          "name": "",
          "type": "bool"
        }
      ],
      "stateMutability": "view",
      "type": "function"
    },
    {
      "inputs": [
        {
          "internalType": "address",
          "name": "spender",
          "type": "address"
        },
        {
          "internalType": "uint256",
          "name": "addedValue",
          "type": "uint256"
        }
      ],
      "name": "increaseAllowance",
      "outputs": [
        {
          "internalType": "bool",
          "name": "",
          "type": "bool"
        }
      ],
      "stateMutability": "nonpayable",
      "type": "function"
    },
    {
      "inputs": [
        {
          "internalType": "string",
          "name": "name_",
          "type": "string"
        },
        {
          "internalType": "string",
          "name": "symbol_",
          "type": "string"
        },
        {
          "internalType": "uint8",
          "name": "decimals_",
          "type": "uint8"
        },
        {
          "internalType": "uint256",
          "name": "amount_",
          "type": "uint256"
        }
      ],
      "name": "initialize",
      "outputs": [],
      "stateMutability": "nonpayable",
      "type": "function"
    },
    {
      "inputs": [],
      "name": "name",
      "outputs": [
        {
          "internalType": "string",
          "name": "",
          "type": "string"
        }
      ],
      "stateMutability": "view",
      "type": "function"
    },
    {
      "inputs": [
        {
          "internalType": "address",
          "name": "implementationAddress",
          "type": "address"
        }
      ],
      "name": "proposeNewImplementation",
      "outputs": [],
      "stateMutability": "nonpayable",
      "type": "function"
    },
    {
      "inputs": [
        {
          "internalType": "bytes32",
          "name": "role",
          "type": "bytes32"
        },
        {
          "internalType": "address",
          "name": "account",
          "type": "address"
        }
      ],
      "name": "renounceRole",
      "outputs": [],
      "stateMutability": "nonpayable",
      "type": "function"
    },
    {
      "inputs": [
        {
          "internalType": "bytes32",
          "name": "role",
          "type": "bytes32"
        },
        {
          "internalType": "address",
          "name": "account",
          "type": "address"
        }
      ],
      "name": "revokeRole",
      "outputs": [],
      "stateMutability": "nonpayable",
      "type": "function"
    },
    {
      "inputs": [],
      "name": "snapshot",
      "outputs": [],
      "stateMutability": "nonpayable",
      "type": "function"
    },
    {
      "inputs": [
        {
          "internalType": "bytes4",
          "name": "interfaceId",
          "type": "bytes4"
        }
      ],
      "name": "supportsInterface",
      "outputs": [
        {
          "internalType": "bool",
          "name": "",
          "type": "bool"
        }
      ],
      "stateMutability": "view",
      "type": "function"
    },
    {
      "inputs": [],
      "name": "symbol",
      "outputs": [
        {
          "internalType": "string",
          "name": "",
          "type": "string"
        }
      ],
      "stateMutability": "view",
      "type": "function"
    },
    {
      "inputs": [],
      "name": "totalSupply",
      "outputs": [
        {
          "internalType": "uint256",
          "name": "",
          "type": "uint256"
        }
      ],
      "stateMutability": "view",
      "type": "function"
    },
    {
      "inputs": [
        {
          "internalType": "uint256",
          "name": "snapshotId",
          "type": "uint256"
        }
      ],
      "name": "totalSupplyAt",
      "outputs": [
        {
          "internalType": "uint256",
          "name": "",
          "type": "uint256"
        }
      ],
      "stateMutability": "view",
      "type": "function"
    },
    {
      "inputs": [
        {
          "internalType": "address",
          "name": "recipient",
          "type": "address"
        },
        {
          "internalType": "uint256",
          "name": "amount",
          "type": "uint256"
        }
      ],
      "name": "transfer",
      "outputs": [
        {
          "internalType": "bool",
          "name": "",
          "type": "bool"
        }
      ],
      "stateMutability": "nonpayable",
      "type": "function"
    },
    {
      "inputs": [
        {
          "internalType": "address",
          "name": "sender",
          "type": "address"
        },
        {
          "internalType": "address",
          "name": "recipient",
          "type": "address"
        },
        {
          "internalType": "uint256",
          "name": "amount",
          "type": "uint256"
        }
      ],
      "name": "transferFrom",
      "outputs": [
        {
          "internalType": "bool",
          "name": "",
          "type": "bool"
        }
      ],
      "stateMutability": "nonpayable",
      "type": "function"
    },
    {
      "inputs": [
        {
          "internalType": "address",
          "name": "newImplementation",
          "type": "address"
        }
      ],
      "name": "upgradeTo",
      "outputs": [],
      "stateMutability": "nonpayable",
      "type": "function"
    },
    {
      "inputs": [
        {
          "internalType": "address",
          "name": "newImplementation",
          "type": "address"
        },
        {
          "internalType": "bytes",
          "name": "data",
          "type": "bytes"
        }
      ],
      "name": "upgradeToAndCall",
      "outputs": [],
      "stateMutability": "payable",
      "type": "function"
    }
  ],
  "bytecode": "0x60a06040523060601b60805234801561001757600080fd5b5060805160601c61276761004b600039600081816109090152818161094901528181610afa0152610b3a01526127676000f3fe6080604052600436106101d85760003560e01c80634ee2cd7e11610102578063981b24d011610095578063aaf10f4211610064578063aaf10f4214610547578063d547741f14610574578063dd62ed3e14610594578063f36c8f5c146105da57600080fd5b8063981b24d0146104d2578063a217fddf146104f2578063a457c2d714610507578063a9059cbb1461052757600080fd5b806379cc6790116100d157806379cc67901461046857806391d148541461048857806395d89b41146104a85780639711715a146104bd57600080fd5b80634ee2cd7e146103ea5780634f1ef2861461040a5780635439ad861461041d57806370a082311461043257600080fd5b80632f2ff15d1161017a5780633950935111610149578063395093511461036857806342966c681461038857806343ffa64e146103a857806347757fb6146103ca57600080fd5b80632f2ff15d146102e5578063313ce5671461030557806336568abe146103285780633659cfe61461034857600080fd5b806318160ddd116101b657806318160ddd1461025457806323b872dd14610273578063248a9ca314610293578063253279ad146102c357600080fd5b806301ffc9a7146101dd57806306fdde0314610212578063095ea7b314610234575b600080fd5b3480156101e957600080fd5b506101fd6101f836600461232b565b6105fc565b60405190151581526020015b60405180910390f35b34801561021e57600080fd5b50610227610633565b604051610209919061246a565b34801561024057600080fd5b506101fd61024f3660046122c5565b6106c5565b34801561026057600080fd5b506067545b604051908152602001610209565b34801561027f57600080fd5b506101fd61028e366004612227565b6106db565b34801561029f57600080fd5b506102656102ae3660046122ef565b600090815260fb602052604090206001015490565b3480156102cf57600080fd5b506102e36102de366004612355565b61078c565b005b3480156102f157600080fd5b506102e3610300366004612308565b610855565b34801561031157600080fd5b506101605460405160ff9091168152602001610209565b34801561033457600080fd5b506102e3610343366004612308565b610880565b34801561035457600080fd5b506102e36103633660046121d9565b6108fe565b34801561037457600080fd5b506101fd6103833660046122c5565b6109c7565b34801561039457600080fd5b506102e36103a33660046122ef565b610a03565b3480156103b457600080fd5b506102656000805160206126ab83398151915281565b3480156103d657600080fd5b506102e36103e53660046121d9565b610a0d565b3480156103f657600080fd5b506102656104053660046122c5565b610a4a565b6102e3610418366004612263565b610aef565b34801561042957600080fd5b50610265610ba5565b34801561043e57600080fd5b5061026561044d3660046121d9565b6001600160a01b031660009081526065602052604090205490565b34801561047457600080fd5b506102e36104833660046122c5565b610bc2565b34801561049457600080fd5b506101fd6104a3366004612308565b610c43565b3480156104b457600080fd5b50610227610c6e565b3480156104c957600080fd5b506102e3610c7d565b3480156104de57600080fd5b506102656104ed3660046122ef565b610c85565b3480156104fe57600080fd5b50610265600081565b34801561051357600080fd5b506101fd6105223660046122c5565b610cf0565b34801561053357600080fd5b506101fd6105423660046122c5565b610d89565b34801561055357600080fd5b5061055c610d96565b6040516001600160a01b039091168152602001610209565b34801561058057600080fd5b506102e361058f366004612308565b610da0565b3480156105a057600080fd5b506102656105af3660046121f4565b6001600160a01b03918216600090815260666020908152604080832093909416825291909152205490565b3480156105e657600080fd5b506102656000805160206126cb83398151915281565b60006001600160e01b03198216637965db0b60e01b148061062d57506301ffc9a760e01b6001600160e01b03198316145b92915050565b60606068805461064290612633565b80601f016020809104026020016040519081016040528092919081815260200182805461066e90612633565b80156106bb5780601f10610690576101008083540402835291602001916106bb565b820191906000526020600020905b81548152906001019060200180831161069e57829003601f168201915b5050505050905090565b60006106d2338484610dc6565b50600192915050565b60006106e8848484610eea565b6001600160a01b0384166000908152606660209081526040808320338452909152902054828110156107725760405162461bcd60e51b815260206004820152602860248201527f45524332303a207472616e7366657220616d6f756e74206578636565647320616044820152676c6c6f77616e636560c01b60648201526084015b60405180910390fd5b61077f8533858403610dc6565b60019150505b9392505050565b600054610100900460ff166107a75760005460ff16156107ab565b303b155b61080e5760405162461bcd60e51b815260206004820152602e60248201527f496e697469616c697a61626c653a20636f6e747261637420697320616c72656160448201526d191e481a5b9a5d1a585b1a5e995960921b6064820152608401610769565b600054610100900460ff16158015610830576000805461ffff19166101011790555b61083c858585856110c5565b801561084e576000805461ff00191690555b5050505050565b600082815260fb60205260409020600101546108718133611108565b61087b838361116c565b505050565b6001600160a01b03811633146108f05760405162461bcd60e51b815260206004820152602f60248201527f416363657373436f6e74726f6c3a2063616e206f6e6c792072656e6f756e636560448201526e103937b632b9903337b91039b2b63360891b6064820152608401610769565b6108fa82826111f2565b5050565b306001600160a01b037f00000000000000000000000000000000000000000000000000000000000000001614156109475760405162461bcd60e51b81526004016107699061249d565b7f00000000000000000000000000000000000000000000000000000000000000006001600160a01b0316610979611259565b6001600160a01b03161461099f5760405162461bcd60e51b8152600401610769906124e9565b6109a881611287565b604080516000808252602082019092526109c491839190611309565b50565b3360008181526066602090815260408083206001600160a01b038716845290915281205490916106d29185906109fe908690612580565b610dc6565b6109c4338261144d565b6000805160206126cb833981519152610a268133611108565b5061012d80546001600160a01b0319166001600160a01b0392909216919091179055565b604080516001600160a01b0384166020808301919091527ffbf1c7065455eb4486649b8540f24ef2dd4ebedf2aa423f0039d17c2c75dea15828401528251808303840181526060909201909252805191012060009081610aab826001612580565b9050600080610abb8685856115a7565b9150915081610ae2576001600160a01b038716600090815260656020526040902054610ae4565b805b979650505050505050565b306001600160a01b037f0000000000000000000000000000000000000000000000000000000000000000161415610b385760405162461bcd60e51b81526004016107699061249d565b7f00000000000000000000000000000000000000000000000000000000000000006001600160a01b0316610b6a611259565b6001600160a01b031614610b905760405162461bcd60e51b8152600401610769906124e9565b610b9982611287565b6108fa82826001611309565b6000610bbd6000805160206127128339815191525490565b905090565b6000610bce83336105af565b905081811015610c2c5760405162461bcd60e51b8152602060048201526024808201527f45524332303a206275726e20616d6f756e74206578636565647320616c6c6f77604482015263616e636560e01b6064820152608401610769565b610c398333848403610dc6565b61087b838361144d565b600091825260fb602090815260408084206001600160a01b0393909316845291905290205460ff1690565b60606069805461064290612633565b6109c4611692565b6000806000610cd5847f286a9db37a0f8ddcbcee127c9f4f56031230f49cb46786f87e166d552e11f67e7ffcaa8bb100d3c5b627eac0369cc1d2778dbeffa2993d08f039fb27795729e9a56115a7565b9150915081610ce657606754610ce8565b805b949350505050565b3360009081526066602090815260408083206001600160a01b038616845290915281205482811015610d725760405162461bcd60e51b815260206004820152602560248201527f45524332303a2064656372656173656420616c6c6f77616e63652062656c6f77604482015264207a65726f60d81b6064820152608401610769565b610d7f3385858403610dc6565b5060019392505050565b60006106d2338484610eea565b6000610bbd611259565b600082815260fb6020526040902060010154610dbc8133611108565b61087b83836111f2565b6001600160a01b038316610e285760405162461bcd60e51b8152602060048201526024808201527f45524332303a20617070726f76652066726f6d20746865207a65726f206164646044820152637265737360e01b6064820152608401610769565b6001600160a01b038216610e895760405162461bcd60e51b815260206004820152602260248201527f45524332303a20617070726f766520746f20746865207a65726f206164647265604482015261737360f01b6064820152608401610769565b6001600160a01b0383811660008181526066602090815260408083209487168084529482529182902085905590518481527f8c5be1e5ebec7d5bd14f71427d1e84f3dd0314c0f7b2291e5b200ac8c7c3b925910160405180910390a3505050565b6001600160a01b038316610f4e5760405162461bcd60e51b815260206004820152602560248201527f45524332303a207472616e736665722066726f6d20746865207a65726f206164604482015264647265737360d81b6064820152608401610769565b6001600160a01b038216610fb05760405162461bcd60e51b815260206004820152602360248201527f45524332303a207472616e7366657220746f20746865207a65726f206164647260448201526265737360e81b6064820152608401610769565b610fbb838383611702565b6001600160a01b038316600090815260656020526040902054818110156110335760405162461bcd60e51b815260206004820152602660248201527f45524332303a207472616e7366657220616d6f756e7420657863656564732062604482015265616c616e636560d01b6064820152608401610769565b6001600160a01b0380851660009081526065602052604080822085850390559185168152908120805484929061106a908490612580565b92505081905550826001600160a01b0316846001600160a01b03167fddf252ad1be2c89b69c2b068fc378daa952ba7f163c4a11628f55a4df523b3ef846040516110b691815260200190565b60405180910390a35b50505050565b600054610100900460ff166110ec5760405162461bcd60e51b815260040161076990612535565b6110f4611718565b6110fe8484611771565b6110bf82826117bf565b6111128282610c43565b6108fa5761112a816001600160a01b03166014611800565b611135836020611800565b6040516020016111469291906123f5565b60408051601f198184030181529082905262461bcd60e51b82526107699160040161246a565b6111768282610c43565b6108fa57600082815260fb602090815260408083206001600160a01b03851684529091529020805460ff191660011790556111ae3390565b6001600160a01b0316816001600160a01b0316837f2f8788117e7eff1d82e926ec794901d17c78024a50270940304540a733656f0d60405160405180910390a45050565b6111fc8282610c43565b156108fa57600082815260fb602090815260408083206001600160a01b0385168085529252808320805460ff1916905551339285917ff6391f5c32d9c69d2a47ea670b442974b53935d1edc7fd64eb21e047a839171b9190a45050565b7f360894a13ba1a3210667c828492db98dca3e2076cc3735a920a3ca505d382bbc546001600160a01b031690565b61129f6000805160206126cb83398151915233610c43565b806112bd57506112bd6000805160206126ab83398151915233610c43565b6109c45760405162461bcd60e51b815260206004820152601d60248201527f4552524f523a2041646472657373206e6f7420617574686f72697a65640000006044820152606401610769565b6000611313611259565b905061131e8461199c565b60008351118061132b5750815b1561133c5761133a8484611a41565b505b7f4910fdfa16fed3260ed0e7147f7cc6da11a60208b5b9406d12a635614ffd9143805460ff1661084e57805460ff191660011781556040516001600160a01b03831660248201526113bb90869060440160408051601f198184030181529190526020810180516001600160e01b0316631b2ce7f360e11b179052611a41565b50805460ff191681556113cc611259565b6001600160a01b0316826001600160a01b0316146114445760405162461bcd60e51b815260206004820152602f60248201527f45524331393637557067726164653a207570677261646520627265616b73206660448201526e75727468657220757067726164657360881b6064820152608401610769565b61084e85611b2c565b6001600160a01b0382166114ad5760405162461bcd60e51b815260206004820152602160248201527f45524332303a206275726e2066726f6d20746865207a65726f206164647265736044820152607360f81b6064820152608401610769565b6114b982600083611702565b6001600160a01b0382166000908152606560205260409020548181101561152d5760405162461bcd60e51b815260206004820152602260248201527f45524332303a206275726e20616d6f756e7420657863656564732062616c616e604482015261636560f01b6064820152608401610769565b6001600160a01b038316600090815260656020526040812083830390556067805484929061155c9084906125d9565b90915550506040518281526000906001600160a01b038516907fddf252ad1be2c89b69c2b068fc378daa952ba7f163c4a11628f55a4df523b3ef9060200160405180910390a3505050565b600080600085116115f35760405162461bcd60e51b815260206004820152601660248201527504552433230536e617073686f743a20696420697320360541b6044820152606401610769565b600080516020612712833981519152548511156116525760405162461bcd60e51b815260206004820152601d60248201527f4552433230536e617073686f743a206e6f6e6578697374656e742069640000006044820152606401610769565b600061165e8587611b6c565b9050845481141561167657600080925092505061168a565b60016116828583611c0b565b549093509150505b935093915050565b6000600160008051602061271283398151915280546000906116b5908490612580565b9091555050600080516020612712833981519152546040518181527f8030e83b04d87bef53480e26263266d6ca66863aa8506aca6f2559d18aa1cb679060200160405180910390a1919050565b61170d838383611c8a565b61087b838383611c95565b600054610100900460ff1661173f5760405162461bcd60e51b815260040161076990612535565b611747611cdd565b61174f611cdd565b611757611cdd565b61175f611cdd565b611767611cdd565b61176f611d04565b565b600054610100900460ff166117985760405162461bcd60e51b815260040161076990612535565b81516117ab90606890602085019061208e565b50805161087b90606990602084019061208e565b600054610100900460ff166117e65760405162461bcd60e51b815260040161076990612535565b610160805460ff191660ff84161790556108fa3382611d8c565b6060600061180f8360026125ba565b61181a906002612580565b67ffffffffffffffff81111561183257611832612694565b6040519080825280601f01601f19166020018201604052801561185c576020820181803683370190505b509050600360fc1b816000815181106118775761187761267e565b60200101906001600160f81b031916908160001a905350600f60fb1b816001815181106118a6576118a661267e565b60200101906001600160f81b031916908160001a90535060006118ca8460026125ba565b6118d5906001612580565b90505b600181111561194d576f181899199a1a9b1b9c1cb0b131b232b360811b85600f16601081106119095761190961267e565b1a60f81b82828151811061191f5761191f61267e565b60200101906001600160f81b031916908160001a90535060049490941c936119468161261c565b90506118d8565b5083156107855760405162461bcd60e51b815260206004820181905260248201527f537472696e67733a20686578206c656e67746820696e73756666696369656e746044820152606401610769565b803b611a005760405162461bcd60e51b815260206004820152602d60248201527f455243313936373a206e657720696d706c656d656e746174696f6e206973206e60448201526c1bdd08184818dbdb9d1c9858dd609a1b6064820152608401610769565b7f360894a13ba1a3210667c828492db98dca3e2076cc3735a920a3ca505d382bbc80546001600160a01b0319166001600160a01b0392909216919091179055565b6060823b611aa05760405162461bcd60e51b815260206004820152602660248201527f416464726573733a2064656c65676174652063616c6c20746f206e6f6e2d636f6044820152651b9d1c9858dd60d21b6064820152608401610769565b600080846001600160a01b031684604051611abb91906123d9565b600060405180830381855af49150503d8060008114611af6576040519150601f19603f3d011682016040523d82523d6000602084013e611afb565b606091505b5091509150611b2382826040518060600160405280602781526020016126eb60279139611e77565b95945050505050565b611b358161199c565b6040516001600160a01b038216907fbc7cd75a20ee27fd9adebab32041f755214dbc6bffa90cc0225b39da2e5c2d3b90600090a250565b8154600090819080611b835760009250505061062d565b80821015611bc7576000611b978383611eb0565b905084611ba48783611c0b565b541115611bb357809150611bc1565b611bbe816001612580565b92505b50611b83565b600082118015611bea575083611be786611be26001866125d9565b611c0b565b54145b15611c0357611bfa6001836125d9565b9250505061062d565b50905061062d565b600082548210611c535760405162461bcd60e51b815260206004820152601360248201527211549493d48e8813dd5d081bd988189bdd5b99606a1b6044820152606401610769565b8183604051602001611c6791815260200190565b6040516020818303038152906040528051906020012060001c6107859190612580565b61087b83838361170d565b6001600160a01b038316611cb457611cac82611ecb565b61087b611f55565b6001600160a01b038216611ccb57611cac83611ecb565b611cd483611ecb565b61087b82611ecb565b600054610100900460ff1661176f5760405162461bcd60e51b815260040161076990612535565b600054610100900460ff16611d2b5760405162461bcd60e51b815260040161076990612535565b611d36600033611fa3565b611d4e6000805160206126cb83398151915233611fa3565b611d666000805160206126ab83398151915233611fa3565b61176f6000805160206126ab8339815191526000805160206126cb833981519152611fad565b6001600160a01b038216611de25760405162461bcd60e51b815260206004820152601f60248201527f45524332303a206d696e7420746f20746865207a65726f2061646472657373006044820152606401610769565b611dee60008383611702565b8060676000828254611e009190612580565b90915550506001600160a01b03821660009081526065602052604081208054839290611e2d908490612580565b90915550506040518181526001600160a01b038316906000907fddf252ad1be2c89b69c2b068fc378daa952ba7f163c4a11628f55a4df523b3ef9060200160405180910390a35050565b60608315611e86575081610785565b825115611e965782518084602001fd5b8160405162461bcd60e51b8152600401610769919061246a565b6000611ebf6002848418612598565b61078590848416612580565b604080516001600160a01b0383166020808301919091527ffbf1c7065455eb4486649b8540f24ef2dd4ebedf2aa423f0039d17c2c75dea1582840152825180830384018152606090920190925280519101206000611f2a826001612580565b905061087b8282611f50866001600160a01b031660009081526065602052604090205490565b611ff8565b61176f7f286a9db37a0f8ddcbcee127c9f4f56031230f49cb46786f87e166d552e11f67e7ffcaa8bb100d3c5b627eac0369cc1d2778dbeffa2993d08f039fb27795729e9a5611f5060675490565b6108fa828261116c565b600082815260fb6020526040808220600101805490849055905190918391839186917fbd79b86ffe0ab8e8776151514217cd7cacd52c909f66475c3af44e129f0b00ff9190a4505050565b60006120106000805160206127128339815191525490565b90508061201c85612036565b10156110bf5761202c8482612066565b6110bf8383612066565b8054600090806120495750600092915050565b61205883611be26001846125d9565b549392505050565b50919050565b815460018360006120778385612580565b909155508290506120888483611c0b565b55505050565b82805461209a90612633565b90600052602060002090601f0160209004810192826120bc5760008555612102565b82601f106120d557805160ff1916838001178555612102565b82800160010185558215612102579182015b828111156121025782518255916020019190600101906120e7565b5061210e929150612112565b5090565b5b8082111561210e5760008155600101612113565b600067ffffffffffffffff8084111561214257612142612694565b604051601f8501601f19908116603f0116810190828211818310171561216a5761216a612694565b8160405280935085815286868601111561218357600080fd5b858560208301376000602087830101525050509392505050565b80356001600160a01b03811681146121b457600080fd5b919050565b600082601f8301126121ca57600080fd5b61078583833560208501612127565b6000602082840312156121eb57600080fd5b6107858261219d565b6000806040838503121561220757600080fd5b6122108361219d565b915061221e6020840161219d565b90509250929050565b60008060006060848603121561223c57600080fd5b6122458461219d565b92506122536020850161219d565b9150604084013590509250925092565b6000806040838503121561227657600080fd5b61227f8361219d565b9150602083013567ffffffffffffffff81111561229b57600080fd5b8301601f810185136122ac57600080fd5b6122bb85823560208401612127565b9150509250929050565b600080604083850312156122d857600080fd5b6122e18361219d565b946020939093013593505050565b60006020828403121561230157600080fd5b5035919050565b6000806040838503121561231b57600080fd5b8235915061221e6020840161219d565b60006020828403121561233d57600080fd5b81356001600160e01b03198116811461078557600080fd5b6000806000806080858703121561236b57600080fd5b843567ffffffffffffffff8082111561238357600080fd5b61238f888389016121b9565b955060208701359150808211156123a557600080fd5b506123b2878288016121b9565b935050604085013560ff811681146123c957600080fd5b9396929550929360600135925050565b600082516123eb8184602087016125f0565b9190910192915050565b7f416363657373436f6e74726f6c3a206163636f756e742000000000000000000081526000835161242d8160178501602088016125f0565b7001034b99036b4b9b9b4b733903937b6329607d1b601791840191820152835161245e8160288401602088016125f0565b01602801949350505050565b60208152600082518060208401526124898160408501602087016125f0565b601f01601f19169190910160400192915050565b6020808252602c908201527f46756e6374696f6e206d7573742062652063616c6c6564207468726f7567682060408201526b19195b1959d85d1958d85b1b60a21b606082015260800190565b6020808252602c908201527f46756e6374696f6e206d7573742062652063616c6c6564207468726f7567682060408201526b6163746976652070726f787960a01b606082015260800190565b6020808252602b908201527f496e697469616c697a61626c653a20636f6e7472616374206973206e6f74206960408201526a6e697469616c697a696e6760a81b606082015260800190565b6000821982111561259357612593612668565b500190565b6000826125b557634e487b7160e01b600052601260045260246000fd5b500490565b60008160001904831182151516156125d4576125d4612668565b500290565b6000828210156125eb576125eb612668565b500390565b60005b8381101561260b5781810151838201526020016125f3565b838111156110bf5750506000910152565b60008161262b5761262b612668565b506000190190565b600181811c9082168061264757607f821691505b6020821081141561206057634e487b7160e01b600052602260045260246000fd5b634e487b7160e01b600052601160045260246000fd5b634e487b7160e01b600052603260045260246000fd5b634e487b7160e01b600052604160045260246000fdfea76ace73a908083d89af9ff88e5b4f7cadb3591a80631063f68b695fda726db571840dc4906352362b0cdaf79870196c8e42acafade72d5d5a6d59291253ceb1416464726573733a206c6f772d6c6576656c2064656c65676174652063616c6c206661696c65640d0a0ed3351c10a57d74a44b40c06e0946288e4e3816ac07bb89db2a755562e7a26469706673582212206533dd2ee274c7ef24eb94df83604de7957d43a75d32a9f513f1962a0581452864736f6c63430008060033",
  "linkReferences": {},
  "deployedLinkReferences": {}
}