{
  "_format": "hh-sol-artifact-1",
  "name": "BurnTemplate",
  "initializer": "function initialize(string name_, string symbol_, uint8 decimals_, uint256 amount_)",
  "sourceName": "contracts/templates/BurnTemplate.sol",
  "abi": [
    {
      "anonymous": false,
      "inputs": [
        {
          "indexed": false,
          "internalType": "address",
          "name": "previousAdmin",
          "type": "address"
        },
        {
          "indexed": false,
          "internalType": "address",
          "name": "newAdmin",
          "type": "address"
        }
      ],
      "name": "AdminChanged",
      "type": "event"
    },
    {
      "anonymous": false,
      "inputs": [
        {
          "indexed": true,
          "internalType": "address",
          "name": "owner",
          "type": "address"
        },
        {
          "indexed": true,
          "internalType": "address",
          "name": "spender",
          "type": "address"
        },
        {
          "indexed": false,
          "internalType": "uint256",
          "name": "value",
          "type": "uint256"
        }
      ],
      "name": "Approval",
      "type": "event"
    },
    {
      "anonymous": false,
      "inputs": [
        {
          "indexed": true,
          "internalType": "address",
          "name": "beacon",
          "type": "address"
        }
      ],
      "name": "BeaconUpgraded",
      "type": "event"
    },
    {
      "anonymous": false,
      "inputs": [
        {
          "indexed": true,
          "internalType": "bytes32",
          "name": "role",
          "type": "bytes32"
        },
        {
          "indexed": true,
          "internalType": "bytes32",
          "name": "previousAdminRole",
          "type": "bytes32"
        },
        {
          "indexed": true,
          "internalType": "bytes32",
          "name": "newAdminRole",
          "type": "bytes32"
        }
      ],
      "name": "RoleAdminChanged",
      "type": "event"
    },
    {
      "anonymous": false,
      "inputs": [
        {
          "indexed": true,
          "internalType": "bytes32",
          "name": "role",
          "type": "bytes32"
        },
        {
          "indexed": true,
          "internalType": "address",
          "name": "account",
          "type": "address"
        },
        {
          "indexed": true,
          "internalType": "address",
          "name": "sender",
          "type": "address"
        }
      ],
      "name": "RoleGranted",
      "type": "event"
    },
    {
      "anonymous": false,
      "inputs": [
        {
          "indexed": true,
          "internalType": "bytes32",
          "name": "role",
          "type": "bytes32"
        },
        {
          "indexed": true,
          "internalType": "address",
          "name": "account",
          "type": "address"
        },
        {
          "indexed": true,
          "internalType": "address",
          "name": "sender",
          "type": "address"
        }
      ],
      "name": "RoleRevoked",
      "type": "event"
    },
    {
      "anonymous": false,
      "inputs": [
        {
          "indexed": true,
          "internalType": "address",
          "name": "from",
          "type": "address"
        },
        {
          "indexed": true,
          "internalType": "address",
          "name": "to",
          "type": "address"
        },
        {
          "indexed": false,
          "internalType": "uint256",
          "name": "value",
          "type": "uint256"
        }
      ],
      "name": "Transfer",
      "type": "event"
    },
    {
      "anonymous": false,
      "inputs": [
        {
          "indexed": true,
          "internalType": "address",
          "name": "implementation",
          "type": "address"
        }
      ],
      "name": "Upgraded",
      "type": "event"
    },
    {
      "inputs": [],
      "name": "DEFAULT_ADMIN_ROLE",
      "outputs": [
        {
          "internalType": "bytes32",
          "name": "",
          "type": "bytes32"
        }
      ],
      "stateMutability": "view",
      "type": "function"
    },
    {
      "inputs": [],
      "name": "GOVERNANCE_ROLE",
      "outputs": [
        {
          "internalType": "bytes32",
          "name": "",
          "type": "bytes32"
        }
      ],
      "stateMutability": "view",
      "type": "function"
    },
    {
      "inputs": [],
      "name": "UPGRADE_MANAGER_ROLE",
      "outputs": [
        {
          "internalType": "bytes32",
          "name": "",
          "type": "bytes32"
        }
      ],
      "stateMutability": "view",
      "type": "function"
    },
    {
      "inputs": [
        {
          "internalType": "address",
          "name": "owner",
          "type": "address"
        },
        {
          "internalType": "address",
          "name": "spender",
          "type": "address"
        }
      ],
      "name": "allowance",
      "outputs": [
        {
          "internalType": "uint256",
          "name": "",
          "type": "uint256"
        }
      ],
      "stateMutability": "view",
      "type": "function"
    },
    {
      "inputs": [
        {
          "internalType": "address",
          "name": "spender",
          "type": "address"
        },
        {
          "internalType": "uint256",
          "name": "amount",
          "type": "uint256"
        }
      ],
      "name": "approve",
      "outputs": [
        {
          "internalType": "bool",
          "name": "",
          "type": "bool"
        }
      ],
      "stateMutability": "nonpayable",
      "type": "function"
    },
    {
      "inputs": [
        {
          "internalType": "address",
          "name": "account",
          "type": "address"
        }
      ],
      "name": "balanceOf",
      "outputs": [
        {
          "internalType": "uint256",
          "name": "",
          "type": "uint256"
        }
      ],
      "stateMutability": "view",
      "type": "function"
    },
    {
      "inputs": [
        {
          "internalType": "uint256",
          "name": "amount",
          "type": "uint256"
        }
      ],
      "name": "burn",
      "outputs": [],
      "stateMutability": "nonpayable",
      "type": "function"
    },
    {
      "inputs": [
        {
          "internalType": "address",
          "name": "account",
          "type": "address"
        },
        {
          "internalType": "uint256",
          "name": "amount",
          "type": "uint256"
        }
      ],
      "name": "burnFrom",
      "outputs": [],
      "stateMutability": "nonpayable",
      "type": "function"
    },
    {
      "inputs": [],
      "name": "decimals",
      "outputs": [
        {
          "internalType": "uint8",
          "name": "",
          "type": "uint8"
        }
      ],
      "stateMutability": "view",
      "type": "function"
    },
    {
      "inputs": [
        {
          "internalType": "address",
          "name": "spender",
          "type": "address"
        },
        {
          "internalType": "uint256",
          "name": "subtractedValue",
          "type": "uint256"
        }
      ],
      "name": "decreaseAllowance",
      "outputs": [
        {
          "internalType": "bool",
          "name": "",
          "type": "bool"
        }
      ],
      "stateMutability": "nonpayable",
      "type": "function"
    },
    {
      "inputs": [],
      "name": "getImplementation",
      "outputs": [
        {
          "internalType": "address",
          "name": "",
          "type": "address"
        }
      ],
      "stateMutability": "view",
      "type": "function"
    },
    {
      "inputs": [
        {
          "internalType": "bytes32",
          "name": "role",
          "type": "bytes32"
        }
      ],
      "name": "getRoleAdmin",
      "outputs": [
        {
          "internalType": "bytes32",
          "name": "",
          "type": "bytes32"
        }
      ],
      "stateMutability": "view",
      "type": "function"
    },
    {
      "inputs": [
        {
          "internalType": "bytes32",
          "name": "role",
          "type": "bytes32"
        },
        {
          "internalType": "address",
          "name": "account",
          "type": "address"
        }
      ],
      "name": "grantRole",
      "outputs": [],
      "stateMutability": "nonpayable",
      "type": "function"
    },
    {
      "inputs": [
        {
          "internalType": "bytes32",
          "name": "role",
          "type": "bytes32"
        },
        {
          "internalType": "address",
          "name": "account",
          "type": "address"
        }
      ],
      "name": "hasRole",
      "outputs": [
        {
          "internalType": "bool",
          "name": "",
          "type": "bool"
        }
      ],
      "stateMutability": "view",
      "type": "function"
    },
    {
      "inputs": [
        {
          "internalType": "address",
          "name": "spender",
          "type": "address"
        },
        {
          "internalType": "uint256",
          "name": "addedValue",
          "type": "uint256"
        }
      ],
      "name": "increaseAllowance",
      "outputs": [
        {
          "internalType": "bool",
          "name": "",
          "type": "bool"
        }
      ],
      "stateMutability": "nonpayable",
      "type": "function"
    },
    {
      "inputs": [
        {
          "internalType": "string",
          "name": "name_",
          "type": "string"
        },
        {
          "internalType": "string",
          "name": "symbol_",
          "type": "string"
        },
        {
          "internalType": "uint8",
          "name": "decimals_",
          "type": "uint8"
        },
        {
          "internalType": "uint256",
          "name": "amount_",
          "type": "uint256"
        }
      ],
      "name": "initialize",
      "outputs": [],
      "stateMutability": "nonpayable",
      "type": "function"
    },
    {
      "inputs": [],
      "name": "name",
      "outputs": [
        {
          "internalType": "string",
          "name": "",
          "type": "string"
        }
      ],
      "stateMutability": "view",
      "type": "function"
    },
    {
      "inputs": [
        {
          "internalType": "address",
          "name": "implementationAddress",
          "type": "address"
        }
      ],
      "name": "proposeNewImplementation",
      "outputs": [],
      "stateMutability": "nonpayable",
      "type": "function"
    },
    {
      "inputs": [
        {
          "internalType": "bytes32",
          "name": "role",
          "type": "bytes32"
        },
        {
          "internalType": "address",
          "name": "account",
          "type": "address"
        }
      ],
      "name": "renounceRole",
      "outputs": [],
      "stateMutability": "nonpayable",
      "type": "function"
    },
    {
      "inputs": [
        {
          "internalType": "bytes32",
          "name": "role",
          "type": "bytes32"
        },
        {
          "internalType": "address",
          "name": "account",
          "type": "address"
        }
      ],
      "name": "revokeRole",
      "outputs": [],
      "stateMutability": "nonpayable",
      "type": "function"
    },
    {
      "inputs": [
        {
          "internalType": "bytes4",
          "name": "interfaceId",
          "type": "bytes4"
        }
      ],
      "name": "supportsInterface",
      "outputs": [
        {
          "internalType": "bool",
          "name": "",
          "type": "bool"
        }
      ],
      "stateMutability": "view",
      "type": "function"
    },
    {
      "inputs": [],
      "name": "symbol",
      "outputs": [
        {
          "internalType": "string",
          "name": "",
          "type": "string"
        }
      ],
      "stateMutability": "view",
      "type": "function"
    },
    {
      "inputs": [],
      "name": "totalSupply",
      "outputs": [
        {
          "internalType": "uint256",
          "name": "",
          "type": "uint256"
        }
      ],
      "stateMutability": "view",
      "type": "function"
    },
    {
      "inputs": [
        {
          "internalType": "address",
          "name": "recipient",
          "type": "address"
        },
        {
          "internalType": "uint256",
          "name": "amount",
          "type": "uint256"
        }
      ],
      "name": "transfer",
      "outputs": [
        {
          "internalType": "bool",
          "name": "",
          "type": "bool"
        }
      ],
      "stateMutability": "nonpayable",
      "type": "function"
    },
    {
      "inputs": [
        {
          "internalType": "address",
          "name": "sender",
          "type": "address"
        },
        {
          "internalType": "address",
          "name": "recipient",
          "type": "address"
        },
        {
          "internalType": "uint256",
          "name": "amount",
          "type": "uint256"
        }
      ],
      "name": "transferFrom",
      "outputs": [
        {
          "internalType": "bool",
          "name": "",
          "type": "bool"
        }
      ],
      "stateMutability": "nonpayable",
      "type": "function"
    },
    {
      "inputs": [
        {
          "internalType": "address",
          "name": "newImplementation",
          "type": "address"
        }
      ],
      "name": "upgradeTo",
      "outputs": [],
      "stateMutability": "nonpayable",
      "type": "function"
    },
    {
      "inputs": [
        {
          "internalType": "address",
          "name": "newImplementation",
          "type": "address"
        },
        {
          "internalType": "bytes",
          "name": "data",
          "type": "bytes"
        }
      ],
      "name": "upgradeToAndCall",
      "outputs": [],
      "stateMutability": "payable",
      "type": "function"
    }
  ],
  "bytecode": "0x60a06040523060601b60805234801561001757600080fd5b5060805160601c6120c761004b60003960008181610863015281816108a3015281816109af01526109ef01526120c76000f3fe60806040526004361061019c5760003560e01c806343ffa64e116100ec578063a217fddf1161008a578063aaf10f4211610064578063aaf10f42146104a1578063d547741f146104ce578063dd62ed3e146104ee578063f36c8f5c1461053457600080fd5b8063a217fddf1461044c578063a457c2d714610461578063a9059cbb1461048157600080fd5b806370a08231116100c657806370a08231146103c157806379cc6790146103f757806391d148541461041757806395d89b411461043757600080fd5b806343ffa64e1461036c57806347757fb61461038e5780634f1ef286146103ae57600080fd5b8063253279ad1161015957806336568abe1161013357806336568abe146102ec5780633659cfe61461030c578063395093511461032c57806342966c681461034c57600080fd5b8063253279ad146102875780632f2ff15d146102a9578063313ce567146102c957600080fd5b806301ffc9a7146101a157806306fdde03146101d6578063095ea7b3146101f857806318160ddd1461021857806323b872dd14610237578063248a9ca314610257575b600080fd5b3480156101ad57600080fd5b506101c16101bc366004611cc7565b610556565b60405190151581526020015b60405180910390f35b3480156101e257600080fd5b506101eb61058d565b6040516101cd9190611e06565b34801561020457600080fd5b506101c1610213366004611c61565b61061f565b34801561022457600080fd5b506067545b6040519081526020016101cd565b34801561024357600080fd5b506101c1610252366004611bc3565b610635565b34801561026357600080fd5b50610229610272366004611c8b565b600090815260fb602052604090206001015490565b34801561029357600080fd5b506102a76102a2366004611cf1565b6106e6565b005b3480156102b557600080fd5b506102a76102c4366004611ca4565b6107af565b3480156102d557600080fd5b506101605460405160ff90911681526020016101cd565b3480156102f857600080fd5b506102a7610307366004611ca4565b6107da565b34801561031857600080fd5b506102a7610327366004611b75565b610858565b34801561033857600080fd5b506101c1610347366004611c61565b610921565b34801561035857600080fd5b506102a7610367366004611c8b565b61095d565b34801561037857600080fd5b5061022960008051602061202b83398151915281565b34801561039a57600080fd5b506102a76103a9366004611b75565b610967565b6102a76103bc366004611bff565b6109a4565b3480156103cd57600080fd5b506102296103dc366004611b75565b6001600160a01b031660009081526065602052604090205490565b34801561040357600080fd5b506102a7610412366004611c61565b610a5a565b34801561042357600080fd5b506101c1610432366004611ca4565b610adb565b34801561044357600080fd5b506101eb610b06565b34801561045857600080fd5b50610229600081565b34801561046d57600080fd5b506101c161047c366004611c61565b610b15565b34801561048d57600080fd5b506101c161049c366004611c61565b610bae565b3480156104ad57600080fd5b506104b6610bbb565b6040516001600160a01b0390911681526020016101cd565b3480156104da57600080fd5b506102a76104e9366004611ca4565b610bca565b3480156104fa57600080fd5b50610229610509366004611b90565b6001600160a01b03918216600090815260666020908152604080832093909416825291909152205490565b34801561054057600080fd5b5061022960008051602061204b83398151915281565b60006001600160e01b03198216637965db0b60e01b148061058757506301ffc9a760e01b6001600160e01b03198316145b92915050565b60606068805461059c90611fad565b80601f01602080910402602001604051908101604052809291908181526020018280546105c890611fad565b80156106155780601f106105ea57610100808354040283529160200191610615565b820191906000526020600020905b8154815290600101906020018083116105f857829003601f168201915b5050505050905090565b600061062c338484610bf0565b50600192915050565b6000610642848484610d14565b6001600160a01b0384166000908152606660209081526040808320338452909152902054828110156106cc5760405162461bcd60e51b815260206004820152602860248201527f45524332303a207472616e7366657220616d6f756e74206578636565647320616044820152676c6c6f77616e636560c01b60648201526084015b60405180910390fd5b6106d98533858403610bf0565b60019150505b9392505050565b600054610100900460ff166107015760005460ff1615610705565b303b155b6107685760405162461bcd60e51b815260206004820152602e60248201527f496e697469616c697a61626c653a20636f6e747261637420697320616c72656160448201526d191e481a5b9a5d1a585b1a5e995960921b60648201526084016106c3565b600054610100900460ff1615801561078a576000805461ffff19166101011790555b61079685858585610ee4565b80156107a8576000805461ff00191690555b5050505050565b600082815260fb60205260409020600101546107cb8133610f27565b6107d58383610f8b565b505050565b6001600160a01b038116331461084a5760405162461bcd60e51b815260206004820152602f60248201527f416363657373436f6e74726f6c3a2063616e206f6e6c792072656e6f756e636560448201526e103937b632b9903337b91039b2b63360891b60648201526084016106c3565b6108548282611011565b5050565b306001600160a01b037f00000000000000000000000000000000000000000000000000000000000000001614156108a15760405162461bcd60e51b81526004016106c390611e39565b7f00000000000000000000000000000000000000000000000000000000000000006001600160a01b03166108d3611078565b6001600160a01b0316146108f95760405162461bcd60e51b81526004016106c390611e85565b610902816110a6565b6040805160008082526020820190925261091e91839190611128565b50565b3360008181526066602090815260408083206001600160a01b0387168452909152812054909161062c918590610958908690611f1c565b610bf0565b61091e338261126c565b60008051602061204b8339815191526109808133610f27565b5061012d80546001600160a01b0319166001600160a01b0392909216919091179055565b306001600160a01b037f00000000000000000000000000000000000000000000000000000000000000001614156109ed5760405162461bcd60e51b81526004016106c390611e39565b7f00000000000000000000000000000000000000000000000000000000000000006001600160a01b0316610a1f611078565b6001600160a01b031614610a455760405162461bcd60e51b81526004016106c390611e85565b610a4e826110a6565b61085482826001611128565b6000610a668333610509565b905081811015610ac45760405162461bcd60e51b8152602060048201526024808201527f45524332303a206275726e20616d6f756e74206578636565647320616c6c6f77604482015263616e636560e01b60648201526084016106c3565b610ad18333848403610bf0565b6107d5838361126c565b600091825260fb602090815260408084206001600160a01b0393909316845291905290205460ff1690565b60606069805461059c90611fad565b3360009081526066602090815260408083206001600160a01b038616845290915281205482811015610b975760405162461bcd60e51b815260206004820152602560248201527f45524332303a2064656372656173656420616c6c6f77616e63652062656c6f77604482015264207a65726f60d81b60648201526084016106c3565b610ba43385858403610bf0565b5060019392505050565b600061062c338484610d14565b6000610bc5611078565b905090565b600082815260fb6020526040902060010154610be68133610f27565b6107d58383611011565b6001600160a01b038316610c525760405162461bcd60e51b8152602060048201526024808201527f45524332303a20617070726f76652066726f6d20746865207a65726f206164646044820152637265737360e01b60648201526084016106c3565b6001600160a01b038216610cb35760405162461bcd60e51b815260206004820152602260248201527f45524332303a20617070726f766520746f20746865207a65726f206164647265604482015261737360f01b60648201526084016106c3565b6001600160a01b0383811660008181526066602090815260408083209487168084529482529182902085905590518481527f8c5be1e5ebec7d5bd14f71427d1e84f3dd0314c0f7b2291e5b200ac8c7c3b925910160405180910390a3505050565b6001600160a01b038316610d785760405162461bcd60e51b815260206004820152602560248201527f45524332303a207472616e736665722066726f6d20746865207a65726f206164604482015264647265737360d81b60648201526084016106c3565b6001600160a01b038216610dda5760405162461bcd60e51b815260206004820152602360248201527f45524332303a207472616e7366657220746f20746865207a65726f206164647260448201526265737360e81b60648201526084016106c3565b6001600160a01b03831660009081526065602052604090205481811015610e525760405162461bcd60e51b815260206004820152602660248201527f45524332303a207472616e7366657220616d6f756e7420657863656564732062604482015265616c616e636560d01b60648201526084016106c3565b6001600160a01b03808516600090815260656020526040808220858503905591851681529081208054849290610e89908490611f1c565b92505081905550826001600160a01b0316846001600160a01b03167fddf252ad1be2c89b69c2b068fc378daa952ba7f163c4a11628f55a4df523b3ef84604051610ed591815260200190565b60405180910390a35b50505050565b600054610100900460ff16610f0b5760405162461bcd60e51b81526004016106c390611ed1565b610f136113ba565b610f1d8484611413565b610ede8282611461565b610f318282610adb565b61085457610f49816001600160a01b031660146114a2565b610f548360206114a2565b604051602001610f65929190611d91565b60408051601f198184030181529082905262461bcd60e51b82526106c391600401611e06565b610f958282610adb565b61085457600082815260fb602090815260408083206001600160a01b03851684529091529020805460ff19166001179055610fcd3390565b6001600160a01b0316816001600160a01b0316837f2f8788117e7eff1d82e926ec794901d17c78024a50270940304540a733656f0d60405160405180910390a45050565b61101b8282610adb565b1561085457600082815260fb602090815260408083206001600160a01b0385168085529252808320805460ff1916905551339285917ff6391f5c32d9c69d2a47ea670b442974b53935d1edc7fd64eb21e047a839171b9190a45050565b7f360894a13ba1a3210667c828492db98dca3e2076cc3735a920a3ca505d382bbc546001600160a01b031690565b6110be60008051602061204b83398151915233610adb565b806110dc57506110dc60008051602061202b83398151915233610adb565b61091e5760405162461bcd60e51b815260206004820152601d60248201527f4552524f523a2041646472657373206e6f7420617574686f72697a656400000060448201526064016106c3565b6000611132611078565b905061113d8461163e565b60008351118061114a5750815b1561115b5761115984846116e3565b505b7f4910fdfa16fed3260ed0e7147f7cc6da11a60208b5b9406d12a635614ffd9143805460ff166107a857805460ff191660011781556040516001600160a01b03831660248201526111da90869060440160408051601f198184030181529190526020810180516001600160e01b0316631b2ce7f360e11b1790526116e3565b50805460ff191681556111eb611078565b6001600160a01b0316826001600160a01b0316146112635760405162461bcd60e51b815260206004820152602f60248201527f45524331393637557067726164653a207570677261646520627265616b73206660448201526e75727468657220757067726164657360881b60648201526084016106c3565b6107a8856117ce565b6001600160a01b0382166112cc5760405162461bcd60e51b815260206004820152602160248201527f45524332303a206275726e2066726f6d20746865207a65726f206164647265736044820152607360f81b60648201526084016106c3565b6001600160a01b038216600090815260656020526040902054818110156113405760405162461bcd60e51b815260206004820152602260248201527f45524332303a206275726e20616d6f756e7420657863656564732062616c616e604482015261636560f01b60648201526084016106c3565b6001600160a01b038316600090815260656020526040812083830390556067805484929061136f908490611f53565b90915550506040518281526000906001600160a01b038516907fddf252ad1be2c89b69c2b068fc378daa952ba7f163c4a11628f55a4df523b3ef9060200160405180910390a3505050565b600054610100900460ff166113e15760405162461bcd60e51b81526004016106c390611ed1565b6113e961180e565b6113f161180e565b6113f961180e565b61140161180e565b61140961180e565b611411611835565b565b600054610100900460ff1661143a5760405162461bcd60e51b81526004016106c390611ed1565b815161144d906068906020850190611a2a565b5080516107d5906069906020840190611a2a565b600054610100900460ff166114885760405162461bcd60e51b81526004016106c390611ed1565b610160805460ff191660ff841617905561085433826118bd565b606060006114b1836002611f34565b6114bc906002611f1c565b67ffffffffffffffff8111156114d4576114d4612014565b6040519080825280601f01601f1916602001820160405280156114fe576020820181803683370190505b509050600360fc1b8160008151811061151957611519611ffe565b60200101906001600160f81b031916908160001a905350600f60fb1b8160018151811061154857611548611ffe565b60200101906001600160f81b031916908160001a905350600061156c846002611f34565b611577906001611f1c565b90505b60018111156115ef576f181899199a1a9b1b9c1cb0b131b232b360811b85600f16601081106115ab576115ab611ffe565b1a60f81b8282815181106115c1576115c1611ffe565b60200101906001600160f81b031916908160001a90535060049490941c936115e881611f96565b905061157a565b5083156106df5760405162461bcd60e51b815260206004820181905260248201527f537472696e67733a20686578206c656e67746820696e73756666696369656e7460448201526064016106c3565b803b6116a25760405162461bcd60e51b815260206004820152602d60248201527f455243313936373a206e657720696d706c656d656e746174696f6e206973206e60448201526c1bdd08184818dbdb9d1c9858dd609a1b60648201526084016106c3565b7f360894a13ba1a3210667c828492db98dca3e2076cc3735a920a3ca505d382bbc80546001600160a01b0319166001600160a01b0392909216919091179055565b6060823b6117425760405162461bcd60e51b815260206004820152602660248201527f416464726573733a2064656c65676174652063616c6c20746f206e6f6e2d636f6044820152651b9d1c9858dd60d21b60648201526084016106c3565b600080846001600160a01b03168460405161175d9190611d75565b600060405180830381855af49150503d8060008114611798576040519150601f19603f3d011682016040523d82523d6000602084013e61179d565b606091505b50915091506117c5828260405180606001604052806027815260200161206b6027913961199c565b95945050505050565b6117d78161163e565b6040516001600160a01b038216907fbc7cd75a20ee27fd9adebab32041f755214dbc6bffa90cc0225b39da2e5c2d3b90600090a250565b600054610100900460ff166114115760405162461bcd60e51b81526004016106c390611ed1565b600054610100900460ff1661185c5760405162461bcd60e51b81526004016106c390611ed1565b6118676000336119d5565b61187f60008051602061204b833981519152336119d5565b61189760008051602061202b833981519152336119d5565b61141160008051602061202b83398151915260008051602061204b8339815191526119df565b6001600160a01b0382166119135760405162461bcd60e51b815260206004820152601f60248201527f45524332303a206d696e7420746f20746865207a65726f20616464726573730060448201526064016106c3565b80606760008282546119259190611f1c565b90915550506001600160a01b03821660009081526065602052604081208054839290611952908490611f1c565b90915550506040518181526001600160a01b038316906000907fddf252ad1be2c89b69c2b068fc378daa952ba7f163c4a11628f55a4df523b3ef9060200160405180910390a35050565b606083156119ab5750816106df565b8251156119bb5782518084602001fd5b8160405162461bcd60e51b81526004016106c39190611e06565b6108548282610f8b565b600082815260fb6020526040808220600101805490849055905190918391839186917fbd79b86ffe0ab8e8776151514217cd7cacd52c909f66475c3af44e129f0b00ff9190a4505050565b828054611a3690611fad565b90600052602060002090601f016020900481019282611a585760008555611a9e565b82601f10611a7157805160ff1916838001178555611a9e565b82800160010185558215611a9e579182015b82811115611a9e578251825591602001919060010190611a83565b50611aaa929150611aae565b5090565b5b80821115611aaa5760008155600101611aaf565b600067ffffffffffffffff80841115611ade57611ade612014565b604051601f8501601f19908116603f01168101908282118183101715611b0657611b06612014565b81604052809350858152868686011115611b1f57600080fd5b858560208301376000602087830101525050509392505050565b80356001600160a01b0381168114611b5057600080fd5b919050565b600082601f830112611b6657600080fd5b6106df83833560208501611ac3565b600060208284031215611b8757600080fd5b6106df82611b39565b60008060408385031215611ba357600080fd5b611bac83611b39565b9150611bba60208401611b39565b90509250929050565b600080600060608486031215611bd857600080fd5b611be184611b39565b9250611bef60208501611b39565b9150604084013590509250925092565b60008060408385031215611c1257600080fd5b611c1b83611b39565b9150602083013567ffffffffffffffff811115611c3757600080fd5b8301601f81018513611c4857600080fd5b611c5785823560208401611ac3565b9150509250929050565b60008060408385031215611c7457600080fd5b611c7d83611b39565b946020939093013593505050565b600060208284031215611c9d57600080fd5b5035919050565b60008060408385031215611cb757600080fd5b82359150611bba60208401611b39565b600060208284031215611cd957600080fd5b81356001600160e01b0319811681146106df57600080fd5b60008060008060808587031215611d0757600080fd5b843567ffffffffffffffff80821115611d1f57600080fd5b611d2b88838901611b55565b95506020870135915080821115611d4157600080fd5b50611d4e87828801611b55565b935050604085013560ff81168114611d6557600080fd5b9396929550929360600135925050565b60008251611d87818460208701611f6a565b9190910192915050565b7f416363657373436f6e74726f6c3a206163636f756e7420000000000000000000815260008351611dc9816017850160208801611f6a565b7001034b99036b4b9b9b4b733903937b6329607d1b6017918401918201528351611dfa816028840160208801611f6a565b01602801949350505050565b6020815260008251806020840152611e25816040850160208701611f6a565b601f01601f19169190910160400192915050565b6020808252602c908201527f46756e6374696f6e206d7573742062652063616c6c6564207468726f7567682060408201526b19195b1959d85d1958d85b1b60a21b606082015260800190565b6020808252602c908201527f46756e6374696f6e206d7573742062652063616c6c6564207468726f7567682060408201526b6163746976652070726f787960a01b606082015260800190565b6020808252602b908201527f496e697469616c697a61626c653a20636f6e7472616374206973206e6f74206960408201526a6e697469616c697a696e6760a81b606082015260800190565b60008219821115611f2f57611f2f611fe8565b500190565b6000816000190483118215151615611f4e57611f4e611fe8565b500290565b600082821015611f6557611f65611fe8565b500390565b60005b83811015611f85578181015183820152602001611f6d565b83811115610ede5750506000910152565b600081611fa557611fa5611fe8565b506000190190565b600181811c90821680611fc157607f821691505b60208210811415611fe257634e487b7160e01b600052602260045260246000fd5b50919050565b634e487b7160e01b600052601160045260246000fd5b634e487b7160e01b600052603260045260246000fd5b634e487b7160e01b600052604160045260246000fdfea76ace73a908083d89af9ff88e5b4f7cadb3591a80631063f68b695fda726db571840dc4906352362b0cdaf79870196c8e42acafade72d5d5a6d59291253ceb1416464726573733a206c6f772d6c6576656c2064656c65676174652063616c6c206661696c6564a2646970667358221220903a4b64e8d2e8f07b3c6ce4b797ccf1f5988cfb39d34f700953459cdd2ab2e064736f6c63430008060033",
  "linkReferences": {},
  "deployedLinkReferences": {}
}