{
  "_format": "hh-sol-artifact-1",
  "name": "BurnMintWhiteListTemplate",
  "initializer": "function initialize(string name_, string symbol_, uint8 decimals_, uint256 amount_)",
  "sourceName": "contracts/templates/BurnMintWhiteListTemplate.sol",
  "abi": [
    {
      "anonymous": false,
      "inputs": [
        {
          "indexed": false,
          "internalType": "address",
          "name": "previousAdmin",
          "type": "address"
        },
        {
          "indexed": false,
          "internalType": "address",
          "name": "newAdmin",
          "type": "address"
        }
      ],
      "name": "AdminChanged",
      "type": "event"
    },
    {
      "anonymous": false,
      "inputs": [
        {
          "indexed": true,
          "internalType": "address",
          "name": "owner",
          "type": "address"
        },
        {
          "indexed": true,
          "internalType": "address",
          "name": "spender",
          "type": "address"
        },
        {
          "indexed": false,
          "internalType": "uint256",
          "name": "value",
          "type": "uint256"
        }
      ],
      "name": "Approval",
      "type": "event"
    },
    {
      "anonymous": false,
      "inputs": [
        {
          "indexed": true,
          "internalType": "address",
          "name": "beacon",
          "type": "address"
        }
      ],
      "name": "BeaconUpgraded",
      "type": "event"
    },
    {
      "anonymous": false,
      "inputs": [
        {
          "indexed": false,
          "internalType": "address",
          "name": "account",
          "type": "address"
        }
      ],
      "name": "Paused",
      "type": "event"
    },
    {
      "anonymous": false,
      "inputs": [
        {
          "indexed": true,
          "internalType": "bytes32",
          "name": "role",
          "type": "bytes32"
        },
        {
          "indexed": true,
          "internalType": "bytes32",
          "name": "previousAdminRole",
          "type": "bytes32"
        },
        {
          "indexed": true,
          "internalType": "bytes32",
          "name": "newAdminRole",
          "type": "bytes32"
        }
      ],
      "name": "RoleAdminChanged",
      "type": "event"
    },
    {
      "anonymous": false,
      "inputs": [
        {
          "indexed": true,
          "internalType": "bytes32",
          "name": "role",
          "type": "bytes32"
        },
        {
          "indexed": true,
          "internalType": "address",
          "name": "account",
          "type": "address"
        },
        {
          "indexed": true,
          "internalType": "address",
          "name": "sender",
          "type": "address"
        }
      ],
      "name": "RoleGranted",
      "type": "event"
    },
    {
      "anonymous": false,
      "inputs": [
        {
          "indexed": true,
          "internalType": "bytes32",
          "name": "role",
          "type": "bytes32"
        },
        {
          "indexed": true,
          "internalType": "address",
          "name": "account",
          "type": "address"
        },
        {
          "indexed": true,
          "internalType": "address",
          "name": "sender",
          "type": "address"
        }
      ],
      "name": "RoleRevoked",
      "type": "event"
    },
    {
      "anonymous": false,
      "inputs": [
        {
          "indexed": true,
          "internalType": "address",
          "name": "from",
          "type": "address"
        },
        {
          "indexed": true,
          "internalType": "address",
          "name": "to",
          "type": "address"
        },
        {
          "indexed": false,
          "internalType": "uint256",
          "name": "value",
          "type": "uint256"
        }
      ],
      "name": "Transfer",
      "type": "event"
    },
    {
      "anonymous": false,
      "inputs": [
        {
          "indexed": false,
          "internalType": "address",
          "name": "account",
          "type": "address"
        }
      ],
      "name": "Unpaused",
      "type": "event"
    },
    {
      "anonymous": false,
      "inputs": [
        {
          "indexed": true,
          "internalType": "address",
          "name": "implementation",
          "type": "address"
        }
      ],
      "name": "Upgraded",
      "type": "event"
    },
    {
      "inputs": [],
      "name": "DEFAULT_ADMIN_ROLE",
      "outputs": [
        {
          "internalType": "bytes32",
          "name": "",
          "type": "bytes32"
        }
      ],
      "stateMutability": "view",
      "type": "function"
    },
    {
      "inputs": [],
      "name": "GOVERNANCE_ROLE",
      "outputs": [
        {
          "internalType": "bytes32",
          "name": "",
          "type": "bytes32"
        }
      ],
      "stateMutability": "view",
      "type": "function"
    },
    {
      "inputs": [],
      "name": "MINTER_ROLE",
      "outputs": [
        {
          "internalType": "bytes32",
          "name": "",
          "type": "bytes32"
        }
      ],
      "stateMutability": "view",
      "type": "function"
    },
    {
      "inputs": [],
      "name": "PAUSE_MANAGER_ROLE",
      "outputs": [
        {
          "internalType": "bytes32",
          "name": "",
          "type": "bytes32"
        }
      ],
      "stateMutability": "view",
      "type": "function"
    },
    {
      "inputs": [],
      "name": "UPGRADE_MANAGER_ROLE",
      "outputs": [
        {
          "internalType": "bytes32",
          "name": "",
          "type": "bytes32"
        }
      ],
      "stateMutability": "view",
      "type": "function"
    },
    {
      "inputs": [],
      "name": "WHITELISTED_FROM_ROLE",
      "outputs": [
        {
          "internalType": "bytes32",
          "name": "",
          "type": "bytes32"
        }
      ],
      "stateMutability": "view",
      "type": "function"
    },
    {
      "inputs": [],
      "name": "WHITELISTED_SENDER_ROLE",
      "outputs": [
        {
          "internalType": "bytes32",
          "name": "",
          "type": "bytes32"
        }
      ],
      "stateMutability": "view",
      "type": "function"
    },
    {
      "inputs": [
        {
          "internalType": "address[]",
          "name": "addresses",
          "type": "address[]"
        }
      ],
      "name": "addAddressesToWhitelistFrom",
      "outputs": [],
      "stateMutability": "nonpayable",
      "type": "function"
    },
    {
      "inputs": [
        {
          "internalType": "address[]",
          "name": "addresses",
          "type": "address[]"
        }
      ],
      "name": "addAddressesToWhitelistSender",
      "outputs": [],
      "stateMutability": "nonpayable",
      "type": "function"
    },
    {
      "inputs": [
        {
          "internalType": "address",
          "name": "owner",
          "type": "address"
        },
        {
          "internalType": "address",
          "name": "spender",
          "type": "address"
        }
      ],
      "name": "allowance",
      "outputs": [
        {
          "internalType": "uint256",
          "name": "",
          "type": "uint256"
        }
      ],
      "stateMutability": "view",
      "type": "function"
    },
    {
      "inputs": [
        {
          "internalType": "address",
          "name": "spender",
          "type": "address"
        },
        {
          "internalType": "uint256",
          "name": "amount",
          "type": "uint256"
        }
      ],
      "name": "approve",
      "outputs": [
        {
          "internalType": "bool",
          "name": "",
          "type": "bool"
        }
      ],
      "stateMutability": "nonpayable",
      "type": "function"
    },
    {
      "inputs": [
        {
          "internalType": "address",
          "name": "account",
          "type": "address"
        }
      ],
      "name": "balanceOf",
      "outputs": [
        {
          "internalType": "uint256",
          "name": "",
          "type": "uint256"
        }
      ],
      "stateMutability": "view",
      "type": "function"
    },
    {
      "inputs": [
        {
          "internalType": "address[]",
          "name": "accounts",
          "type": "address[]"
        },
        {
          "internalType": "uint256[]",
          "name": "amounts",
          "type": "uint256[]"
        }
      ],
      "name": "bulkMint",
      "outputs": [],
      "stateMutability": "nonpayable",
      "type": "function"
    },
    {
      "inputs": [
        {
          "internalType": "uint256",
          "name": "amount",
          "type": "uint256"
        }
      ],
      "name": "burn",
      "outputs": [],
      "stateMutability": "nonpayable",
      "type": "function"
    },
    {
      "inputs": [
        {
          "internalType": "address",
          "name": "account",
          "type": "address"
        },
        {
          "internalType": "uint256",
          "name": "amount",
          "type": "uint256"
        }
      ],
      "name": "burnFrom",
      "outputs": [],
      "stateMutability": "nonpayable",
      "type": "function"
    },
    {
      "inputs": [],
      "name": "decimals",
      "outputs": [
        {
          "internalType": "uint8",
          "name": "",
          "type": "uint8"
        }
      ],
      "stateMutability": "view",
      "type": "function"
    },
    {
      "inputs": [
        {
          "internalType": "address",
          "name": "spender",
          "type": "address"
        },
        {
          "internalType": "uint256",
          "name": "subtractedValue",
          "type": "uint256"
        }
      ],
      "name": "decreaseAllowance",
      "outputs": [
        {
          "internalType": "bool",
          "name": "",
          "type": "bool"
        }
      ],
      "stateMutability": "nonpayable",
      "type": "function"
    },
    {
      "inputs": [],
      "name": "getImplementation",
      "outputs": [
        {
          "internalType": "address",
          "name": "",
          "type": "address"
        }
      ],
      "stateMutability": "view",
      "type": "function"
    },
    {
      "inputs": [
        {
          "internalType": "bytes32",
          "name": "role",
          "type": "bytes32"
        }
      ],
      "name": "getRoleAdmin",
      "outputs": [
        {
          "internalType": "bytes32",
          "name": "",
          "type": "bytes32"
        }
      ],
      "stateMutability": "view",
      "type": "function"
    },
    {
      "inputs": [
        {
          "internalType": "bytes32",
          "name": "role",
          "type": "bytes32"
        },
        {
          "internalType": "address",
          "name": "account",
          "type": "address"
        }
      ],
      "name": "grantRole",
      "outputs": [],
      "stateMutability": "nonpayable",
      "type": "function"
    },
    {
      "inputs": [
        {
          "internalType": "bytes32",
          "name": "role",
          "type": "bytes32"
        },
        {
          "internalType": "address",
          "name": "account",
          "type": "address"
        }
      ],
      "name": "hasRole",
      "outputs": [
        {
          "internalType": "bool",
          "name": "",
          "type": "bool"
        }
      ],
      "stateMutability": "view",
      "type": "function"
    },
    {
      "inputs": [
        {
          "internalType": "address",
          "name": "spender",
          "type": "address"
        },
        {
          "internalType": "uint256",
          "name": "addedValue",
          "type": "uint256"
        }
      ],
      "name": "increaseAllowance",
      "outputs": [
        {
          "internalType": "bool",
          "name": "",
          "type": "bool"
        }
      ],
      "stateMutability": "nonpayable",
      "type": "function"
    },
    {
      "inputs": [
        {
          "internalType": "string",
          "name": "name_",
          "type": "string"
        },
        {
          "internalType": "string",
          "name": "symbol_",
          "type": "string"
        },
        {
          "internalType": "uint8",
          "name": "decimals_",
          "type": "uint8"
        },
        {
          "internalType": "uint256",
          "name": "amount_",
          "type": "uint256"
        }
      ],
      "name": "initialize",
      "outputs": [],
      "stateMutability": "nonpayable",
      "type": "function"
    },
    {
      "inputs": [
        {
          "internalType": "address",
          "name": "account",
          "type": "address"
        },
        {
          "internalType": "uint256",
          "name": "amount",
          "type": "uint256"
        }
      ],
      "name": "mint",
      "outputs": [],
      "stateMutability": "nonpayable",
      "type": "function"
    },
    {
      "inputs": [],
      "name": "name",
      "outputs": [
        {
          "internalType": "string",
          "name": "",
          "type": "string"
        }
      ],
      "stateMutability": "view",
      "type": "function"
    },
    {
      "inputs": [],
      "name": "pause",
      "outputs": [],
      "stateMutability": "nonpayable",
      "type": "function"
    },
    {
      "inputs": [],
      "name": "paused",
      "outputs": [
        {
          "internalType": "bool",
          "name": "",
          "type": "bool"
        }
      ],
      "stateMutability": "view",
      "type": "function"
    },
    {
      "inputs": [
        {
          "internalType": "address",
          "name": "implementationAddress",
          "type": "address"
        }
      ],
      "name": "proposeNewImplementation",
      "outputs": [],
      "stateMutability": "nonpayable",
      "type": "function"
    },
    {
      "inputs": [
        {
          "internalType": "address[]",
          "name": "addresses",
          "type": "address[]"
        }
      ],
      "name": "removeAddressesFromWhitelistFrom",
      "outputs": [],
      "stateMutability": "nonpayable",
      "type": "function"
    },
    {
      "inputs": [
        {
          "internalType": "address[]",
          "name": "addresses",
          "type": "address[]"
        }
      ],
      "name": "removeAddressesFromWhitelistSender",
      "outputs": [],
      "stateMutability": "nonpayable",
      "type": "function"
    },
    {
      "inputs": [
        {
          "internalType": "bytes32",
          "name": "role",
          "type": "bytes32"
        },
        {
          "internalType": "address",
          "name": "account",
          "type": "address"
        }
      ],
      "name": "renounceRole",
      "outputs": [],
      "stateMutability": "nonpayable",
      "type": "function"
    },
    {
      "inputs": [
        {
          "internalType": "bytes32",
          "name": "role",
          "type": "bytes32"
        },
        {
          "internalType": "address",
          "name": "account",
          "type": "address"
        }
      ],
      "name": "revokeRole",
      "outputs": [],
      "stateMutability": "nonpayable",
      "type": "function"
    },
    {
      "inputs": [
        {
          "internalType": "bytes4",
          "name": "interfaceId",
          "type": "bytes4"
        }
      ],
      "name": "supportsInterface",
      "outputs": [
        {
          "internalType": "bool",
          "name": "",
          "type": "bool"
        }
      ],
      "stateMutability": "view",
      "type": "function"
    },
    {
      "inputs": [],
      "name": "symbol",
      "outputs": [
        {
          "internalType": "string",
          "name": "",
          "type": "string"
        }
      ],
      "stateMutability": "view",
      "type": "function"
    },
    {
      "inputs": [],
      "name": "totalSupply",
      "outputs": [
        {
          "internalType": "uint256",
          "name": "",
          "type": "uint256"
        }
      ],
      "stateMutability": "view",
      "type": "function"
    },
    {
      "inputs": [
        {
          "internalType": "address",
          "name": "recipient",
          "type": "address"
        },
        {
          "internalType": "uint256",
          "name": "amount",
          "type": "uint256"
        }
      ],
      "name": "transfer",
      "outputs": [
        {
          "internalType": "bool",
          "name": "",
          "type": "bool"
        }
      ],
      "stateMutability": "nonpayable",
      "type": "function"
    },
    {
      "inputs": [
        {
          "internalType": "address",
          "name": "sender",
          "type": "address"
        },
        {
          "internalType": "address",
          "name": "recipient",
          "type": "address"
        },
        {
          "internalType": "uint256",
          "name": "amount",
          "type": "uint256"
        }
      ],
      "name": "transferFrom",
      "outputs": [
        {
          "internalType": "bool",
          "name": "",
          "type": "bool"
        }
      ],
      "stateMutability": "nonpayable",
      "type": "function"
    },
    {
      "inputs": [],
      "name": "unpause",
      "outputs": [],
      "stateMutability": "nonpayable",
      "type": "function"
    },
    {
      "inputs": [
        {
          "internalType": "address",
          "name": "newImplementation",
          "type": "address"
        }
      ],
      "name": "upgradeTo",
      "outputs": [],
      "stateMutability": "nonpayable",
      "type": "function"
    },
    {
      "inputs": [
        {
          "internalType": "address",
          "name": "newImplementation",
          "type": "address"
        },
        {
          "internalType": "bytes",
          "name": "data",
          "type": "bytes"
        }
      ],
      "name": "upgradeToAndCall",
      "outputs": [],
      "stateMutability": "payable",
      "type": "function"
    }
  ],
  "bytecode": "0x60a06040523060601b60805234801561001757600080fd5b5060805160601c612a4861004b60003960008181610abb01528181610afb01528181610c5d0152610c9d0152612a486000f3fe60806040526004361061023b5760003560e01c80636ae459bd1161012e578063a9059cbb116100ab578063d547741f1161006f578063d547741f146106d4578063d84f91e8146106f4578063dd62ed3e14610716578063f36c8f5c1461075c578063f834c5021461077e57600080fd5b8063a9059cbb14610611578063aa74a34a14610631578063aaf10f4214610653578063c233f3b714610680578063d5391393146106a057600080fd5b80638456cb59116100f25780638456cb591461059257806391d14854146105a757806395d89b41146105c7578063a217fddf146105dc578063a457c2d7146105f157600080fd5b80636ae459bd146104da5780636e79a1c0146104fa57806370a082311461051a578063731ce8fc1461055057806379cc67901461057257600080fd5b80633659cfe6116101bc57806343ffa64e1161018057806343ffa64e1461044057806347757fb6146104625780634f1ef286146104825780635c975abb14610495578063685ed81a146104ba57600080fd5b80633659cfe6146103ab57806339509351146103cb5780633f4ba83a146103eb57806340c10f191461040057806342966c681461042057600080fd5b8063248a9ca311610203578063248a9ca3146102f6578063253279ad146103265780632f2ff15d14610348578063313ce5671461036857806336568abe1461038b57600080fd5b806301ffc9a71461024057806306fdde0314610275578063095ea7b31461029757806318160ddd146102b757806323b872dd146102d6575b600080fd5b34801561024c57600080fd5b5061026061025b3660046125ad565b61079e565b60405190151581526020015b60405180910390f35b34801561028157600080fd5b5061028a6107d5565b60405161026c91906126ec565b3480156102a357600080fd5b506102606102b2366004612499565b610867565b3480156102c357600080fd5b506067545b60405190815260200161026c565b3480156102e257600080fd5b506102606102f13660046123fb565b61087d565b34801561030257600080fd5b506102c8610311366004612571565b600090815260fb602052604090206001015490565b34801561033257600080fd5b506103466103413660046125d7565b61092e565b005b34801561035457600080fd5b5061034661036336600461258a565b610a07565b34801561037457600080fd5b506101605460405160ff909116815260200161026c565b34801561039757600080fd5b506103466103a636600461258a565b610a32565b3480156103b757600080fd5b506103466103c63660046123ad565b610ab0565b3480156103d757600080fd5b506102606103e6366004612499565b610b79565b3480156103f757600080fd5b50610346610bb5565b34801561040c57600080fd5b5061034661041b366004612499565b610bd6565b34801561042c57600080fd5b5061034661043b366004612571565b610c0b565b34801561044c57600080fd5b506102c860008051602061294c83398151915281565b34801561046e57600080fd5b5061034661047d3660046123ad565b610c15565b610346610490366004612437565b610c52565b3480156104a157600080fd5b506000805160206129d38339815191525460ff16610260565b3480156104c657600080fd5b506103466104d53660046124c3565b610d08565b3480156104e657600080fd5b506103466104f5366004612505565b610d7d565b34801561050657600080fd5b506103466105153660046124c3565b610e5c565b34801561052657600080fd5b506102c86105353660046123ad565b6001600160a01b031660009081526065602052604090205490565b34801561055c57600080fd5b506102c86000805160206129f383398151915281565b34801561057e57600080fd5b5061034661058d366004612499565b610ecb565b34801561059e57600080fd5b50610346610f4c565b3480156105b357600080fd5b506102606105c236600461258a565b610f6d565b3480156105d357600080fd5b5061028a610f98565b3480156105e857600080fd5b506102c8600081565b3480156105fd57600080fd5b5061026061060c366004612499565b610fa7565b34801561061d57600080fd5b5061026061062c366004612499565b611040565b34801561063d57600080fd5b506102c860008051602061292c83398151915281565b34801561065f57600080fd5b5061066861104d565b6040516001600160a01b03909116815260200161026c565b34801561068c57600080fd5b5061034661069b3660046124c3565b61105c565b3480156106ac57600080fd5b506102c87ff9424f4303d7f03683a025eb8885734ad99b47df7749d9b0a02cbc985809700b81565b3480156106e057600080fd5b506103466106ef36600461258a565b6110b6565b34801561070057600080fd5b506102c86000805160206129b383398151915281565b34801561072257600080fd5b506102c86107313660046123c8565b6001600160a01b03918216600090815260666020908152604080832093909416825291909152205490565b34801561076857600080fd5b506102c860008051602061296c83398151915281565b34801561078a57600080fd5b506103466107993660046124c3565b6110dc565b60006001600160e01b03198216637965db0b60e01b14806107cf57506301ffc9a760e01b6001600160e01b03198316145b92915050565b6060606880546107e490612893565b80601f016020809104026020016040519081016040528092919081815260200182805461081090612893565b801561085d5780601f106108325761010080835404028352916020019161085d565b820191906000526020600020905b81548152906001019060200180831161084057829003601f168201915b5050505050905090565b6000610874338484611136565b50600192915050565b600061088a84848461125a565b6001600160a01b0384166000908152606660209081526040808320338452909152902054828110156109145760405162461bcd60e51b815260206004820152602860248201527f45524332303a207472616e7366657220616d6f756e74206578636565647320616044820152676c6c6f77616e636560c01b60648201526084015b60405180910390fd5b6109218533858403611136565b60019150505b9392505050565b600054610100900460ff166109495760005460ff161561094d565b303b155b6109b05760405162461bcd60e51b815260206004820152602e60248201527f496e697469616c697a61626c653a20636f6e747261637420697320616c72656160448201526d191e481a5b9a5d1a585b1a5e995960921b606482015260840161090b565b600054610100900460ff161580156109d2576000805461ffff19166101011790555b6109de85858585611433565b6109e6611476565b6109ee61149f565b8015610a00576000805461ff00191690555b5050505050565b600082815260fb6020526040902060010154610a238133611512565b610a2d8383611576565b505050565b6001600160a01b0381163314610aa25760405162461bcd60e51b815260206004820152602f60248201527f416363657373436f6e74726f6c3a2063616e206f6e6c792072656e6f756e636560448201526e103937b632b9903337b91039b2b63360891b606482015260840161090b565b610aac82826115fc565b5050565b306001600160a01b037f0000000000000000000000000000000000000000000000000000000000000000161415610af95760405162461bcd60e51b815260040161090b9061271f565b7f00000000000000000000000000000000000000000000000000000000000000006001600160a01b0316610b2b611663565b6001600160a01b031614610b515760405162461bcd60e51b815260040161090b9061276b565b610b5a81611691565b60408051600080825260208201909252610b7691839190611713565b50565b3360008181526066602090815260408083206001600160a01b03871684529091528120549091610874918590610bb0908690612802565b611136565b6000805160206129b3833981519152610bce8133611512565b610b76611857565b7ff9424f4303d7f03683a025eb8885734ad99b47df7749d9b0a02cbc985809700b610c018133611512565b610a2d8383611904565b610b7633826119ef565b60008051602061296c833981519152610c2e8133611512565b5061012d80546001600160a01b0319166001600160a01b0392909216919091179055565b306001600160a01b037f0000000000000000000000000000000000000000000000000000000000000000161415610c9b5760405162461bcd60e51b815260040161090b9061271f565b7f00000000000000000000000000000000000000000000000000000000000000006001600160a01b0316610ccd611663565b6001600160a01b031614610cf35760405162461bcd60e51b815260040161090b9061276b565b610cfc82611691565b610aac82826001611713565b6000805160206129b3833981519152610d218133611512565b60005b82811015610d7757610d6560008051602061292c833981519152858584818110610d5057610d506128ff565b905060200201602081019061036391906123ad565b80610d6f816128ce565b915050610d24565b50505050565b7ff9424f4303d7f03683a025eb8885734ad99b47df7749d9b0a02cbc985809700b610da88133611512565b838214610def5760405162461bcd60e51b8152602060048201526015602482015274082e4e4c2f240d8cadccee8d040dad2e6dac2e8c6d605b1b604482015260640161090b565b60005b84811015610e5457610e42868683818110610e0f57610e0f6128ff565b9050602002016020810190610e2491906123ad565b858584818110610e3657610e366128ff565b90506020020135611904565b80610e4c816128ce565b915050610df2565b505050505050565b6000805160206129b3833981519152610e758133611512565b60005b82811015610d7757610eb96000805160206129f3833981519152858584818110610ea457610ea46128ff565b90506020020160208101906106ef91906123ad565b80610ec3816128ce565b915050610e78565b6000610ed78333610731565b905081811015610f355760405162461bcd60e51b8152602060048201526024808201527f45524332303a206275726e20616d6f756e74206578636565647320616c6c6f77604482015263616e636560e01b606482015260840161090b565b610f428333848403611136565b610a2d83836119ef565b6000805160206129b3833981519152610f658133611512565b610b76611b49565b600091825260fb602090815260408084206001600160a01b0393909316845291905290205460ff1690565b6060606980546107e490612893565b3360009081526066602090815260408083206001600160a01b0386168452909152812054828110156110295760405162461bcd60e51b815260206004820152602560248201527f45524332303a2064656372656173656420616c6c6f77616e63652062656c6f77604482015264207a65726f60d81b606482015260840161090b565b6110363385858403611136565b5060019392505050565b600061087433848461125a565b6000611057611663565b905090565b6000805160206129b38339815191526110758133611512565b60005b82811015610d77576110a460008051602061292c833981519152858584818110610ea457610ea46128ff565b806110ae816128ce565b915050611078565b600082815260fb60205260409020600101546110d28133611512565b610a2d83836115fc565b6000805160206129b38339815191526110f58133611512565b60005b82811015610d77576111246000805160206129f3833981519152858584818110610d5057610d506128ff565b8061112e816128ce565b9150506110f8565b6001600160a01b0383166111985760405162461bcd60e51b8152602060048201526024808201527f45524332303a20617070726f76652066726f6d20746865207a65726f206164646044820152637265737360e01b606482015260840161090b565b6001600160a01b0382166111f95760405162461bcd60e51b815260206004820152602260248201527f45524332303a20617070726f766520746f20746865207a65726f206164647265604482015261737360f01b606482015260840161090b565b6001600160a01b0383811660008181526066602090815260408083209487168084529482529182902085905590518481527f8c5be1e5ebec7d5bd14f71427d1e84f3dd0314c0f7b2291e5b200ac8c7c3b925910160405180910390a3505050565b6001600160a01b0383166112be5760405162461bcd60e51b815260206004820152602560248201527f45524332303a207472616e736665722066726f6d20746865207a65726f206164604482015264647265737360d81b606482015260840161090b565b6001600160a01b0382166113205760405162461bcd60e51b815260206004820152602360248201527f45524332303a207472616e7366657220746f20746865207a65726f206164647260448201526265737360e81b606482015260840161090b565b61132b838383611bdd565b6001600160a01b038316600090815260656020526040902054818110156113a35760405162461bcd60e51b815260206004820152602660248201527f45524332303a207472616e7366657220616d6f756e7420657863656564732062604482015265616c616e636560d01b606482015260840161090b565b6001600160a01b038085166000908152606560205260408082208585039055918516815290812080548492906113da908490612802565b92505081905550826001600160a01b0316846001600160a01b03167fddf252ad1be2c89b69c2b068fc378daa952ba7f163c4a11628f55a4df523b3ef8460405161142691815260200190565b60405180910390a3610d77565b600054610100900460ff1661145a5760405162461bcd60e51b815260040161090b906127b7565b611462611be8565b61146c8484611c3f565b610d778282611c8d565b600054610100900460ff1661149d5760405162461bcd60e51b815260040161090b906127b7565b565b600054610100900460ff166114c65760405162461bcd60e51b815260040161090b906127b7565b6114ec6000805160206129f38339815191526000805160206129b3833981519152611cce565b61149d60008051602061292c8339815191526000805160206129b3833981519152611cce565b61151c8282610f6d565b610aac57611534816001600160a01b03166014611d19565b61153f836020611d19565b604051602001611550929190612677565b60408051601f198184030181529082905262461bcd60e51b825261090b916004016126ec565b6115808282610f6d565b610aac57600082815260fb602090815260408083206001600160a01b03851684529091529020805460ff191660011790556115b83390565b6001600160a01b0316816001600160a01b0316837f2f8788117e7eff1d82e926ec794901d17c78024a50270940304540a733656f0d60405160405180910390a45050565b6116068282610f6d565b15610aac57600082815260fb602090815260408083206001600160a01b0385168085529252808320805460ff1916905551339285917ff6391f5c32d9c69d2a47ea670b442974b53935d1edc7fd64eb21e047a839171b9190a45050565b7f360894a13ba1a3210667c828492db98dca3e2076cc3735a920a3ca505d382bbc546001600160a01b031690565b6116a960008051602061296c83398151915233610f6d565b806116c757506116c760008051602061294c83398151915233610f6d565b610b765760405162461bcd60e51b815260206004820152601d60248201527f4552524f523a2041646472657373206e6f7420617574686f72697a6564000000604482015260640161090b565b600061171d611663565b905061172884611eb5565b6000835111806117355750815b15611746576117448484611f5a565b505b7f4910fdfa16fed3260ed0e7147f7cc6da11a60208b5b9406d12a635614ffd9143805460ff16610a0057805460ff191660011781556040516001600160a01b03831660248201526117c590869060440160408051601f198184030181529190526020810180516001600160e01b0316631b2ce7f360e11b179052611f5a565b50805460ff191681556117d6611663565b6001600160a01b0316826001600160a01b03161461184e5760405162461bcd60e51b815260206004820152602f60248201527f45524331393637557067726164653a207570677261646520627265616b73206660448201526e75727468657220757067726164657360881b606482015260840161090b565b610a0085612045565b6000805160206129d38339815191525460ff166118ad5760405162461bcd60e51b815260206004820152601460248201527314185d5cd8589b194e881b9bdd081c185d5cd95960621b604482015260640161090b565b6000805160206129d3833981519152805460ff191690557f5db9ee0a495bf2e6ff9c91a7834c1ba4fdd244a5e8aa4e537bd38aeae4b073aa335b6040516001600160a01b03909116815260200160405180910390a1565b6001600160a01b03821661195a5760405162461bcd60e51b815260206004820152601f60248201527f45524332303a206d696e7420746f20746865207a65726f206164647265737300604482015260640161090b565b61196660008383611bdd565b80606760008282546119789190612802565b90915550506001600160a01b038216600090815260656020526040812080548392906119a5908490612802565b90915550506040518181526001600160a01b038316906000907fddf252ad1be2c89b69c2b068fc378daa952ba7f163c4a11628f55a4df523b3ef9060200160405180910390a35050565b6001600160a01b038216611a4f5760405162461bcd60e51b815260206004820152602160248201527f45524332303a206275726e2066726f6d20746865207a65726f206164647265736044820152607360f81b606482015260840161090b565b611a5b82600083611bdd565b6001600160a01b03821660009081526065602052604090205481811015611acf5760405162461bcd60e51b815260206004820152602260248201527f45524332303a206275726e20616d6f756e7420657863656564732062616c616e604482015261636560f01b606482015260840161090b565b6001600160a01b0383166000908152606560205260408120838303905560678054849290611afe908490612839565b90915550506040518281526000906001600160a01b038516907fddf252ad1be2c89b69c2b068fc378daa952ba7f163c4a11628f55a4df523b3ef9060200160405180910390a3505050565b6000805160206129d38339815191525460ff1615611b9c5760405162461bcd60e51b815260206004820152601060248201526f14185d5cd8589b194e881c185d5cd95960821b604482015260640161090b565b6000805160206129d3833981519152805460ff191660011790557f62e78cea01bee320cd4e420270b5ea74000d11b0c9f74754ebdbfc544b05a258336118e7565b610a2d838383612085565b600054610100900460ff16611c0f5760405162461bcd60e51b815260040161090b906127b7565b611c17611476565b611c1f611476565b611c27611476565b611c2f611476565b611c37611476565b61149d612090565b600054610100900460ff16611c665760405162461bcd60e51b815260040161090b906127b7565b8151611c79906068906020850190612216565b508051610a2d906069906020840190612216565b600054610100900460ff16611cb45760405162461bcd60e51b815260040161090b906127b7565b610160805460ff191660ff8416179055610aac3382611904565b600082815260fb6020526040808220600101805490849055905190918391839186917fbd79b86ffe0ab8e8776151514217cd7cacd52c909f66475c3af44e129f0b00ff9190a4505050565b60606000611d2883600261281a565b611d33906002612802565b67ffffffffffffffff811115611d4b57611d4b612915565b6040519080825280601f01601f191660200182016040528015611d75576020820181803683370190505b509050600360fc1b81600081518110611d9057611d906128ff565b60200101906001600160f81b031916908160001a905350600f60fb1b81600181518110611dbf57611dbf6128ff565b60200101906001600160f81b031916908160001a9053506000611de384600261281a565b611dee906001612802565b90505b6001811115611e66576f181899199a1a9b1b9c1cb0b131b232b360811b85600f1660108110611e2257611e226128ff565b1a60f81b828281518110611e3857611e386128ff565b60200101906001600160f81b031916908160001a90535060049490941c93611e5f8161287c565b9050611df1565b5083156109275760405162461bcd60e51b815260206004820181905260248201527f537472696e67733a20686578206c656e67746820696e73756666696369656e74604482015260640161090b565b803b611f195760405162461bcd60e51b815260206004820152602d60248201527f455243313936373a206e657720696d706c656d656e746174696f6e206973206e60448201526c1bdd08184818dbdb9d1c9858dd609a1b606482015260840161090b565b7f360894a13ba1a3210667c828492db98dca3e2076cc3735a920a3ca505d382bbc80546001600160a01b0319166001600160a01b0392909216919091179055565b6060823b611fb95760405162461bcd60e51b815260206004820152602660248201527f416464726573733a2064656c65676174652063616c6c20746f206e6f6e2d636f6044820152651b9d1c9858dd60d21b606482015260840161090b565b600080846001600160a01b031684604051611fd4919061265b565b600060405180830381855af49150503d806000811461200f576040519150601f19603f3d011682016040523d82523d6000602084013e612014565b606091505b509150915061203c828260405180606001604052806027815260200161298c60279139612118565b95945050505050565b61204e81611eb5565b6040516001600160a01b038216907fbc7cd75a20ee27fd9adebab32041f755214dbc6bffa90cc0225b39da2e5c2d3b90600090a250565b610a2d838383612151565b600054610100900460ff166120b75760405162461bcd60e51b815260040161090b906127b7565b6120c26000336121d4565b6120da60008051602061296c833981519152336121d4565b6120f260008051602061294c833981519152336121d4565b61149d60008051602061294c83398151915260008051602061296c833981519152611cce565b60608315612127575081610927565b8251156121375782518084602001fd5b8160405162461bcd60e51b815260040161090b91906126ec565b6000805160206129d38339815191525460ff161580612175575061217583336121de565b610a2d5760405162461bcd60e51b815260206004820152602a60248201527f45524332305061757361626c653a20746f6b656e207472616e736665722077686044820152691a5b19481c185d5cd95960b21b606482015260840161090b565b610aac8282611576565b60006121f86000805160206129f383398151915284610f6d565b80610927575061092760008051602061292c83398151915283610f6d565b82805461222290612893565b90600052602060002090601f016020900481019282612244576000855561228a565b82601f1061225d57805160ff191683800117855561228a565b8280016001018555821561228a579182015b8281111561228a57825182559160200191906001019061226f565b5061229692915061229a565b5090565b5b80821115612296576000815560010161229b565b600067ffffffffffffffff808411156122ca576122ca612915565b604051601f8501601f19908116603f011681019082821181831017156122f2576122f2612915565b8160405280935085815286868601111561230b57600080fd5b858560208301376000602087830101525050509392505050565b80356001600160a01b038116811461233c57600080fd5b919050565b60008083601f84011261235357600080fd5b50813567ffffffffffffffff81111561236b57600080fd5b6020830191508360208260051b850101111561238657600080fd5b9250929050565b600082601f83011261239e57600080fd5b610927838335602085016122af565b6000602082840312156123bf57600080fd5b61092782612325565b600080604083850312156123db57600080fd5b6123e483612325565b91506123f260208401612325565b90509250929050565b60008060006060848603121561241057600080fd5b61241984612325565b925061242760208501612325565b9150604084013590509250925092565b6000806040838503121561244a57600080fd5b61245383612325565b9150602083013567ffffffffffffffff81111561246f57600080fd5b8301601f8101851361248057600080fd5b61248f858235602084016122af565b9150509250929050565b600080604083850312156124ac57600080fd5b6124b583612325565b946020939093013593505050565b600080602083850312156124d657600080fd5b823567ffffffffffffffff8111156124ed57600080fd5b6124f985828601612341565b90969095509350505050565b6000806000806040858703121561251b57600080fd5b843567ffffffffffffffff8082111561253357600080fd5b61253f88838901612341565b9096509450602087013591508082111561255857600080fd5b5061256587828801612341565b95989497509550505050565b60006020828403121561258357600080fd5b5035919050565b6000806040838503121561259d57600080fd5b823591506123f260208401612325565b6000602082840312156125bf57600080fd5b81356001600160e01b03198116811461092757600080fd5b600080600080608085870312156125ed57600080fd5b843567ffffffffffffffff8082111561260557600080fd5b6126118883890161238d565b9550602087013591508082111561262757600080fd5b506126348782880161238d565b935050604085013560ff8116811461264b57600080fd5b9396929550929360600135925050565b6000825161266d818460208701612850565b9190910192915050565b7f416363657373436f6e74726f6c3a206163636f756e74200000000000000000008152600083516126af816017850160208801612850565b7001034b99036b4b9b9b4b733903937b6329607d1b60179184019182015283516126e0816028840160208801612850565b01602801949350505050565b602081526000825180602084015261270b816040850160208701612850565b601f01601f19169190910160400192915050565b6020808252602c908201527f46756e6374696f6e206d7573742062652063616c6c6564207468726f7567682060408201526b19195b1959d85d1958d85b1b60a21b606082015260800190565b6020808252602c908201527f46756e6374696f6e206d7573742062652063616c6c6564207468726f7567682060408201526b6163746976652070726f787960a01b606082015260800190565b6020808252602b908201527f496e697469616c697a61626c653a20636f6e7472616374206973206e6f74206960408201526a6e697469616c697a696e6760a81b606082015260800190565b60008219821115612815576128156128e9565b500190565b6000816000190483118215151615612834576128346128e9565b500290565b60008282101561284b5761284b6128e9565b500390565b60005b8381101561286b578181015183820152602001612853565b83811115610d775750506000910152565b60008161288b5761288b6128e9565b506000190190565b600181811c908216806128a757607f821691505b602082108114156128c857634e487b7160e01b600052602260045260246000fd5b50919050565b60006000198214156128e2576128e26128e9565b5060010190565b634e487b7160e01b600052601160045260246000fd5b634e487b7160e01b600052603260045260246000fd5b634e487b7160e01b600052604160045260246000fdfee1ac655ab58995133a870d1fd307ddc1d624c8ad919a09e67867a7a1483e439aa76ace73a908083d89af9ff88e5b4f7cadb3591a80631063f68b695fda726db571840dc4906352362b0cdaf79870196c8e42acafade72d5d5a6d59291253ceb1416464726573733a206c6f772d6c6576656c2064656c65676174652063616c6c206661696c6564356a809dfdea9198dd76fb76bf6d403ecf13ea675eb89e1eda2db2c4a4676a26ad6a6591fa308fe948065665239402780db8ed4a8c4e4e16c4d066bcaa05efc2ce108bcc5e0f50fe603649304cbbbd94de794a404db82d884c0afc9ba9328e61a2646970667358221220be78692f876173001a95ec2282307ec4f5364f969e81f510494c10760384aa3c64736f6c63430008060033",
  "linkReferences": {},
  "deployedLinkReferences": {}
}