{
  "_format": "hh-sol-artifact-1",
  "name": "BurnTxFeeTemplate",
  "initializer": "function initialize(string name_, string symbol_, uint8 decimals_, uint256 amount_, uint256 txFee, address txFeeBeneficiary)",
  "sourceName": "contracts/templates/BurnTxFeeTemplate.sol",
  "abi": [
    {
      "anonymous": false,
      "inputs": [
        {
          "indexed": false,
          "internalType": "address",
          "name": "previousAdmin",
          "type": "address"
        },
        {
          "indexed": false,
          "internalType": "address",
          "name": "newAdmin",
          "type": "address"
        }
      ],
      "name": "AdminChanged",
      "type": "event"
    },
    {
      "anonymous": false,
      "inputs": [
        {
          "indexed": true,
          "internalType": "address",
          "name": "owner",
          "type": "address"
        },
        {
          "indexed": true,
          "internalType": "address",
          "name": "spender",
          "type": "address"
        },
        {
          "indexed": false,
          "internalType": "uint256",
          "name": "value",
          "type": "uint256"
        }
      ],
      "name": "Approval",
      "type": "event"
    },
    {
      "anonymous": false,
      "inputs": [
        {
          "indexed": true,
          "internalType": "address",
          "name": "beacon",
          "type": "address"
        }
      ],
      "name": "BeaconUpgraded",
      "type": "event"
    },
    {
      "anonymous": false,
      "inputs": [
        {
          "indexed": true,
          "internalType": "bytes32",
          "name": "role",
          "type": "bytes32"
        },
        {
          "indexed": true,
          "internalType": "bytes32",
          "name": "previousAdminRole",
          "type": "bytes32"
        },
        {
          "indexed": true,
          "internalType": "bytes32",
          "name": "newAdminRole",
          "type": "bytes32"
        }
      ],
      "name": "RoleAdminChanged",
      "type": "event"
    },
    {
      "anonymous": false,
      "inputs": [
        {
          "indexed": true,
          "internalType": "bytes32",
          "name": "role",
          "type": "bytes32"
        },
        {
          "indexed": true,
          "internalType": "address",
          "name": "account",
          "type": "address"
        },
        {
          "indexed": true,
          "internalType": "address",
          "name": "sender",
          "type": "address"
        }
      ],
      "name": "RoleGranted",
      "type": "event"
    },
    {
      "anonymous": false,
      "inputs": [
        {
          "indexed": true,
          "internalType": "bytes32",
          "name": "role",
          "type": "bytes32"
        },
        {
          "indexed": true,
          "internalType": "address",
          "name": "account",
          "type": "address"
        },
        {
          "indexed": true,
          "internalType": "address",
          "name": "sender",
          "type": "address"
        }
      ],
      "name": "RoleRevoked",
      "type": "event"
    },
    {
      "anonymous": false,
      "inputs": [
        {
          "indexed": true,
          "internalType": "address",
          "name": "from",
          "type": "address"
        },
        {
          "indexed": true,
          "internalType": "address",
          "name": "to",
          "type": "address"
        },
        {
          "indexed": false,
          "internalType": "uint256",
          "name": "value",
          "type": "uint256"
        }
      ],
      "name": "Transfer",
      "type": "event"
    },
    {
      "anonymous": false,
      "inputs": [
        {
          "indexed": true,
          "internalType": "address",
          "name": "implementation",
          "type": "address"
        }
      ],
      "name": "Upgraded",
      "type": "event"
    },
    {
      "inputs": [],
      "name": "DEFAULT_ADMIN_ROLE",
      "outputs": [
        {
          "internalType": "bytes32",
          "name": "",
          "type": "bytes32"
        }
      ],
      "stateMutability": "view",
      "type": "function"
    },
    {
      "inputs": [],
      "name": "GOVERNANCE_ROLE",
      "outputs": [
        {
          "internalType": "bytes32",
          "name": "",
          "type": "bytes32"
        }
      ],
      "stateMutability": "view",
      "type": "function"
    },
    {
      "inputs": [],
      "name": "UPGRADE_MANAGER_ROLE",
      "outputs": [
        {
          "internalType": "bytes32",
          "name": "",
          "type": "bytes32"
        }
      ],
      "stateMutability": "view",
      "type": "function"
    },
    {
      "inputs": [
        {
          "internalType": "address",
          "name": "owner",
          "type": "address"
        },
        {
          "internalType": "address",
          "name": "spender",
          "type": "address"
        }
      ],
      "name": "allowance",
      "outputs": [
        {
          "internalType": "uint256",
          "name": "",
          "type": "uint256"
        }
      ],
      "stateMutability": "view",
      "type": "function"
    },
    {
      "inputs": [
        {
          "internalType": "address",
          "name": "spender",
          "type": "address"
        },
        {
          "internalType": "uint256",
          "name": "amount",
          "type": "uint256"
        }
      ],
      "name": "approve",
      "outputs": [
        {
          "internalType": "bool",
          "name": "",
          "type": "bool"
        }
      ],
      "stateMutability": "nonpayable",
      "type": "function"
    },
    {
      "inputs": [
        {
          "internalType": "address",
          "name": "account",
          "type": "address"
        }
      ],
      "name": "balanceOf",
      "outputs": [
        {
          "internalType": "uint256",
          "name": "",
          "type": "uint256"
        }
      ],
      "stateMutability": "view",
      "type": "function"
    },
    {
      "inputs": [
        {
          "internalType": "uint256",
          "name": "amount",
          "type": "uint256"
        }
      ],
      "name": "burn",
      "outputs": [],
      "stateMutability": "nonpayable",
      "type": "function"
    },
    {
      "inputs": [
        {
          "internalType": "address",
          "name": "account",
          "type": "address"
        },
        {
          "internalType": "uint256",
          "name": "amount",
          "type": "uint256"
        }
      ],
      "name": "burnFrom",
      "outputs": [],
      "stateMutability": "nonpayable",
      "type": "function"
    },
    {
      "inputs": [
        {
          "internalType": "uint256",
          "name": "newTxFee",
          "type": "uint256"
        },
        {
          "internalType": "address",
          "name": "newTxBeneficiary",
          "type": "address"
        }
      ],
      "name": "changeTxFeeProperties",
      "outputs": [],
      "stateMutability": "nonpayable",
      "type": "function"
    },
    {
      "inputs": [],
      "name": "decimals",
      "outputs": [
        {
          "internalType": "uint8",
          "name": "",
          "type": "uint8"
        }
      ],
      "stateMutability": "view",
      "type": "function"
    },
    {
      "inputs": [
        {
          "internalType": "address",
          "name": "spender",
          "type": "address"
        },
        {
          "internalType": "uint256",
          "name": "subtractedValue",
          "type": "uint256"
        }
      ],
      "name": "decreaseAllowance",
      "outputs": [
        {
          "internalType": "bool",
          "name": "",
          "type": "bool"
        }
      ],
      "stateMutability": "nonpayable",
      "type": "function"
    },
    {
      "inputs": [],
      "name": "getImplementation",
      "outputs": [
        {
          "internalType": "address",
          "name": "",
          "type": "address"
        }
      ],
      "stateMutability": "view",
      "type": "function"
    },
    {
      "inputs": [
        {
          "internalType": "bytes32",
          "name": "role",
          "type": "bytes32"
        }
      ],
      "name": "getRoleAdmin",
      "outputs": [
        {
          "internalType": "bytes32",
          "name": "",
          "type": "bytes32"
        }
      ],
      "stateMutability": "view",
      "type": "function"
    },
    {
      "inputs": [
        {
          "internalType": "bytes32",
          "name": "role",
          "type": "bytes32"
        },
        {
          "internalType": "address",
          "name": "account",
          "type": "address"
        }
      ],
      "name": "grantRole",
      "outputs": [],
      "stateMutability": "nonpayable",
      "type": "function"
    },
    {
      "inputs": [
        {
          "internalType": "bytes32",
          "name": "role",
          "type": "bytes32"
        },
        {
          "internalType": "address",
          "name": "account",
          "type": "address"
        }
      ],
      "name": "hasRole",
      "outputs": [
        {
          "internalType": "bool",
          "name": "",
          "type": "bool"
        }
      ],
      "stateMutability": "view",
      "type": "function"
    },
    {
      "inputs": [
        {
          "internalType": "address",
          "name": "spender",
          "type": "address"
        },
        {
          "internalType": "uint256",
          "name": "addedValue",
          "type": "uint256"
        }
      ],
      "name": "increaseAllowance",
      "outputs": [
        {
          "internalType": "bool",
          "name": "",
          "type": "bool"
        }
      ],
      "stateMutability": "nonpayable",
      "type": "function"
    },
    {
      "inputs": [
        {
          "internalType": "string",
          "name": "name_",
          "type": "string"
        },
        {
          "internalType": "string",
          "name": "symbol_",
          "type": "string"
        },
        {
          "internalType": "uint8",
          "name": "decimals_",
          "type": "uint8"
        },
        {
          "internalType": "uint256",
          "name": "amount_",
          "type": "uint256"
        },
        {
          "internalType": "uint256",
          "name": "txFee",
          "type": "uint256"
        },
        {
          "internalType": "address",
          "name": "txFeeBeneficiary",
          "type": "address"
        }
      ],
      "name": "initialize",
      "outputs": [],
      "stateMutability": "nonpayable",
      "type": "function"
    },
    {
      "inputs": [],
      "name": "name",
      "outputs": [
        {
          "internalType": "string",
          "name": "",
          "type": "string"
        }
      ],
      "stateMutability": "view",
      "type": "function"
    },
    {
      "inputs": [
        {
          "internalType": "address",
          "name": "implementationAddress",
          "type": "address"
        }
      ],
      "name": "proposeNewImplementation",
      "outputs": [],
      "stateMutability": "nonpayable",
      "type": "function"
    },
    {
      "inputs": [
        {
          "internalType": "bytes32",
          "name": "role",
          "type": "bytes32"
        },
        {
          "internalType": "address",
          "name": "account",
          "type": "address"
        }
      ],
      "name": "renounceRole",
      "outputs": [],
      "stateMutability": "nonpayable",
      "type": "function"
    },
    {
      "inputs": [
        {
          "internalType": "bytes32",
          "name": "role",
          "type": "bytes32"
        },
        {
          "internalType": "address",
          "name": "account",
          "type": "address"
        }
      ],
      "name": "revokeRole",
      "outputs": [],
      "stateMutability": "nonpayable",
      "type": "function"
    },
    {
      "inputs": [
        {
          "internalType": "bytes4",
          "name": "interfaceId",
          "type": "bytes4"
        }
      ],
      "name": "supportsInterface",
      "outputs": [
        {
          "internalType": "bool",
          "name": "",
          "type": "bool"
        }
      ],
      "stateMutability": "view",
      "type": "function"
    },
    {
      "inputs": [],
      "name": "symbol",
      "outputs": [
        {
          "internalType": "string",
          "name": "",
          "type": "string"
        }
      ],
      "stateMutability": "view",
      "type": "function"
    },
    {
      "inputs": [],
      "name": "totalSupply",
      "outputs": [
        {
          "internalType": "uint256",
          "name": "",
          "type": "uint256"
        }
      ],
      "stateMutability": "view",
      "type": "function"
    },
    {
      "inputs": [
        {
          "internalType": "address",
          "name": "recipient",
          "type": "address"
        },
        {
          "internalType": "uint256",
          "name": "amount",
          "type": "uint256"
        }
      ],
      "name": "transfer",
      "outputs": [
        {
          "internalType": "bool",
          "name": "",
          "type": "bool"
        }
      ],
      "stateMutability": "nonpayable",
      "type": "function"
    },
    {
      "inputs": [
        {
          "internalType": "address",
          "name": "sender",
          "type": "address"
        },
        {
          "internalType": "address",
          "name": "recipient",
          "type": "address"
        },
        {
          "internalType": "uint256",
          "name": "amount",
          "type": "uint256"
        }
      ],
      "name": "transferFrom",
      "outputs": [
        {
          "internalType": "bool",
          "name": "",
          "type": "bool"
        }
      ],
      "stateMutability": "nonpayable",
      "type": "function"
    },
    {
      "inputs": [
        {
          "internalType": "address",
          "name": "newImplementation",
          "type": "address"
        }
      ],
      "name": "upgradeTo",
      "outputs": [],
      "stateMutability": "nonpayable",
      "type": "function"
    },
    {
      "inputs": [
        {
          "internalType": "address",
          "name": "newImplementation",
          "type": "address"
        },
        {
          "internalType": "bytes",
          "name": "data",
          "type": "bytes"
        }
      ],
      "name": "upgradeToAndCall",
      "outputs": [],
      "stateMutability": "payable",
      "type": "function"
    }
  ],
  "bytecode": "0x60a06040523060601b60805234801561001757600080fd5b5060805160601c61239861004b600039600081816108aa015281816108ea015281816109f60152610a3601526123986000f3fe6080604052600436106101b75760003560e01c806347757fb6116100ec578063a217fddf1161008a578063aaf10f4211610064578063aaf10f42146104dc578063d547741f14610509578063dd62ed3e14610529578063f36c8f5c1461056f57600080fd5b8063a217fddf14610487578063a457c2d71461049c578063a9059cbb146104bc57600080fd5b806370a08231116100c657806370a08231146103fc57806379cc67901461043257806391d148541461045257806395d89b411461047257600080fd5b806347757fb6146103a95780634f1ef286146103c95780635120561a146103dc57600080fd5b80632f2ff15d116101595780633659cfe6116101335780633659cfe614610327578063395093511461034757806342966c681461036757806343ffa64e1461038757600080fd5b80632f2ff15d146102c4578063313ce567146102e457806336568abe1461030757600080fd5b806318160ddd1161019557806318160ddd1461023357806323b872dd14610252578063248a9ca3146102725780632cd77a5a146102a257600080fd5b806301ffc9a7146101bc57806306fdde03146101f1578063095ea7b314610213575b600080fd5b3480156101c857600080fd5b506101dc6101d7366004611f3b565b610591565b60405190151581526020015b60405180910390f35b3480156101fd57600080fd5b506102066105c8565b6040516101e89190612095565b34801561021f57600080fd5b506101dc61022e366004611ed5565b61065a565b34801561023f57600080fd5b506067545b6040519081526020016101e8565b34801561025e57600080fd5b506101dc61026d366004611e37565b610670565b34801561027e57600080fd5b5061024461028d366004611eff565b600090815260fb602052604090206001015490565b3480156102ae57600080fd5b506102c26102bd366004611f65565b610721565b005b3480156102d057600080fd5b506102c26102df366004611f18565b6107f6565b3480156102f057600080fd5b506101605460405160ff90911681526020016101e8565b34801561031357600080fd5b506102c2610322366004611f18565b610821565b34801561033357600080fd5b506102c2610342366004611de9565b61089f565b34801561035357600080fd5b506101dc610362366004611ed5565b610968565b34801561037357600080fd5b506102c2610382366004611eff565b6109a4565b34801561039357600080fd5b506102446000805160206122dc83398151915281565b3480156103b557600080fd5b506102c26103c4366004611de9565b6109ae565b6102c26103d7366004611e73565b6109eb565b3480156103e857600080fd5b506102c26103f7366004611f18565b610aa1565b34801561040857600080fd5b50610244610417366004611de9565b6001600160a01b031660009081526065602052604090205490565b34801561043e57600080fd5b506102c261044d366004611ed5565b610b16565b34801561045e57600080fd5b506101dc61046d366004611f18565b610b97565b34801561047e57600080fd5b50610206610bc2565b34801561049357600080fd5b50610244600081565b3480156104a857600080fd5b506101dc6104b7366004611ed5565b610bd1565b3480156104c857600080fd5b506101dc6104d7366004611ed5565b610c6a565b3480156104e857600080fd5b506104f1610c77565b6040516001600160a01b0390911681526020016101e8565b34801561051557600080fd5b506102c2610524366004611f18565b610c86565b34801561053557600080fd5b50610244610544366004611e04565b6001600160a01b03918216600090815260666020908152604080832093909416825291909152205490565b34801561057b57600080fd5b506102446000805160206122fc83398151915281565b60006001600160e01b03198216637965db0b60e01b14806105c257506301ffc9a760e01b6001600160e01b03198316145b92915050565b6060606880546105d79061225e565b80601f01602080910402602001604051908101604052809291908181526020018280546106039061225e565b80156106505780601f1061062557610100808354040283529160200191610650565b820191906000526020600020905b81548152906001019060200180831161063357829003601f168201915b5050505050905090565b6000610667338484610cac565b50600192915050565b600061067d848484610dd0565b6001600160a01b0384166000908152606660209081526040808320338452909152902054828110156107075760405162461bcd60e51b815260206004820152602860248201527f45524332303a207472616e7366657220616d6f756e74206578636565647320616044820152676c6c6f77616e636560c01b60648201526084015b60405180910390fd5b6107148533858403610cac565b60019150505b9392505050565b600054610100900460ff1661073c5760005460ff1615610740565b303b155b6107a35760405162461bcd60e51b815260206004820152602e60248201527f496e697469616c697a61626c653a20636f6e747261637420697320616c72656160448201526d191e481a5b9a5d1a585b1a5e995960921b60648201526084016106fe565b600054610100900460ff161580156107c5576000805461ffff19166101011790555b6107d187878787610fab565b6107db8383610fee565b80156107ed576000805461ff00191690555b50505050505050565b600082815260fb6020526040902060010154610812813361107d565b61081c83836110e1565b505050565b6001600160a01b03811633146108915760405162461bcd60e51b815260206004820152602f60248201527f416363657373436f6e74726f6c3a2063616e206f6e6c792072656e6f756e636560448201526e103937b632b9903337b91039b2b63360891b60648201526084016106fe565b61089b8282611167565b5050565b306001600160a01b037f00000000000000000000000000000000000000000000000000000000000000001614156108e85760405162461bcd60e51b81526004016106fe906120c8565b7f00000000000000000000000000000000000000000000000000000000000000006001600160a01b031661091a6111ce565b6001600160a01b0316146109405760405162461bcd60e51b81526004016106fe90612114565b610949816111fc565b604080516000808252602082019092526109659183919061127e565b50565b3360008181526066602090815260408083206001600160a01b0387168452909152812054909161066791859061099f9086906121ab565b610cac565b61096533826113c9565b6000805160206122fc8339815191526109c7813361107d565b5061012d80546001600160a01b0319166001600160a01b0392909216919091179055565b306001600160a01b037f0000000000000000000000000000000000000000000000000000000000000000161415610a345760405162461bcd60e51b81526004016106fe906120c8565b7f00000000000000000000000000000000000000000000000000000000000000006001600160a01b0316610a666111ce565b6001600160a01b031614610a8c5760405162461bcd60e51b81526004016106fe90612114565b610a95826111fc565b61089b8282600161127e565b6000610aad813361107d565b6001600160a01b038216610ac057600080fd5b8260008051602061231c83398151915255817fe38b16c806f019542b2d4bf356bb4ba2ea4b7eb450b8fbff2584f6084c4978f180546001600160a01b0319166001600160a01b0392909216919091179055505050565b6000610b228333610544565b905081811015610b805760405162461bcd60e51b8152602060048201526024808201527f45524332303a206275726e20616d6f756e74206578636565647320616c6c6f77604482015263616e636560e01b60648201526084016106fe565b610b8d8333848403610cac565b61081c83836113c9565b600091825260fb602090815260408084206001600160a01b0393909316845291905290205460ff1690565b6060606980546105d79061225e565b3360009081526066602090815260408083206001600160a01b038616845290915281205482811015610c535760405162461bcd60e51b815260206004820152602560248201527f45524332303a2064656372656173656420616c6c6f77616e63652062656c6f77604482015264207a65726f60d81b60648201526084016106fe565b610c603385858403610cac565b5060019392505050565b6000610667338484610dd0565b6000610c816111ce565b905090565b600082815260fb6020526040902060010154610ca2813361107d565b61081c8383611167565b6001600160a01b038316610d0e5760405162461bcd60e51b8152602060048201526024808201527f45524332303a20617070726f76652066726f6d20746865207a65726f206164646044820152637265737360e01b60648201526084016106fe565b6001600160a01b038216610d6f5760405162461bcd60e51b815260206004820152602260248201527f45524332303a20617070726f766520746f20746865207a65726f206164647265604482015261737360f01b60648201526084016106fe565b6001600160a01b0383811660008181526066602090815260408083209487168084529482529182902085905590518481527f8c5be1e5ebec7d5bd14f71427d1e84f3dd0314c0f7b2291e5b200ac8c7c3b925910160405180910390a3505050565b6001600160a01b038316610e345760405162461bcd60e51b815260206004820152602560248201527f45524332303a207472616e736665722066726f6d20746865207a65726f206164604482015264647265737360d81b60648201526084016106fe565b6001600160a01b038216610e965760405162461bcd60e51b815260206004820152602360248201527f45524332303a207472616e7366657220746f20746865207a65726f206164647260448201526265737360e81b60648201526084016106fe565b610ea1838383611523565b6001600160a01b03831660009081526065602052604090205481811015610f195760405162461bcd60e51b815260206004820152602660248201527f45524332303a207472616e7366657220616d6f756e7420657863656564732062604482015265616c616e636560d01b60648201526084016106fe565b6001600160a01b03808516600090815260656020526040808220858503905591851681529081208054849290610f509084906121ab565b92505081905550826001600160a01b0316846001600160a01b03167fddf252ad1be2c89b69c2b068fc378daa952ba7f163c4a11628f55a4df523b3ef84604051610f9c91815260200190565b60405180910390a35b50505050565b600054610100900460ff16610fd25760405162461bcd60e51b81526004016106fe90612160565b610fda61152e565b610fe48484611587565b610fa582826115d5565b600054610100900460ff166110155760405162461bcd60e51b81526004016106fe90612160565b6001600160a01b03811661102857600080fd5b8160008051602061231c83398151915255807fe38b16c806f019542b2d4bf356bb4ba2ea4b7eb450b8fbff2584f6084c4978f180546001600160a01b0319166001600160a01b03929092169190911790555050565b6110878282610b97565b61089b5761109f816001600160a01b03166014611616565b6110aa836020611616565b6040516020016110bb929190612020565b60408051601f198184030181529082905262461bcd60e51b82526106fe91600401612095565b6110eb8282610b97565b61089b57600082815260fb602090815260408083206001600160a01b03851684529091529020805460ff191660011790556111233390565b6001600160a01b0316816001600160a01b0316837f2f8788117e7eff1d82e926ec794901d17c78024a50270940304540a733656f0d60405160405180910390a45050565b6111718282610b97565b1561089b57600082815260fb602090815260408083206001600160a01b0385168085529252808320805460ff1916905551339285917ff6391f5c32d9c69d2a47ea670b442974b53935d1edc7fd64eb21e047a839171b9190a45050565b7f360894a13ba1a3210667c828492db98dca3e2076cc3735a920a3ca505d382bbc546001600160a01b031690565b6112146000805160206122fc83398151915233610b97565b8061123257506112326000805160206122dc83398151915233610b97565b6109655760405162461bcd60e51b815260206004820152601d60248201527f4552524f523a2041646472657373206e6f7420617574686f72697a656400000060448201526064016106fe565b60006112886111ce565b9050611293846117b2565b6000835111806112a05750815b156112b1576112af8484611857565b505b7f4910fdfa16fed3260ed0e7147f7cc6da11a60208b5b9406d12a635614ffd9143805460ff166113c257805460ff191660011781556040516001600160a01b038316602482015261133090869060440160408051601f198184030181529190526020810180516001600160e01b0316631b2ce7f360e11b179052611857565b50805460ff191681556113416111ce565b6001600160a01b0316826001600160a01b0316146113b95760405162461bcd60e51b815260206004820152602f60248201527f45524331393637557067726164653a207570677261646520627265616b73206660448201526e75727468657220757067726164657360881b60648201526084016106fe565b6113c285611942565b5050505050565b6001600160a01b0382166114295760405162461bcd60e51b815260206004820152602160248201527f45524332303a206275726e2066726f6d20746865207a65726f206164647265736044820152607360f81b60648201526084016106fe565b61143582600083611523565b6001600160a01b038216600090815260656020526040902054818110156114a95760405162461bcd60e51b815260206004820152602260248201527f45524332303a206275726e20616d6f756e7420657863656564732062616c616e604482015261636560f01b60648201526084016106fe565b6001600160a01b03831660009081526065602052604081208383039055606780548492906114d8908490612204565b90915550506040518281526000906001600160a01b038516907fddf252ad1be2c89b69c2b068fc378daa952ba7f163c4a11628f55a4df523b3ef9060200160405180910390a3505050565b61081c838383611982565b600054610100900460ff166115555760405162461bcd60e51b81526004016106fe90612160565b61155d61198d565b61156561198d565b61156d61198d565b61157561198d565b61157d61198d565b6115856119b4565b565b600054610100900460ff166115ae5760405162461bcd60e51b81526004016106fe90612160565b81516115c1906068906020850190611c9e565b50805161081c906069906020840190611c9e565b600054610100900460ff166115fc5760405162461bcd60e51b81526004016106fe90612160565b610160805460ff191660ff841617905561089b3382611a3c565b606060006116258360026121e5565b6116309060026121ab565b67ffffffffffffffff811115611648576116486122c5565b6040519080825280601f01601f191660200182016040528015611672576020820181803683370190505b509050600360fc1b8160008151811061168d5761168d6122af565b60200101906001600160f81b031916908160001a905350600f60fb1b816001815181106116bc576116bc6122af565b60200101906001600160f81b031916908160001a90535060006116e08460026121e5565b6116eb9060016121ab565b90505b6001811115611763576f181899199a1a9b1b9c1cb0b131b232b360811b85600f166010811061171f5761171f6122af565b1a60f81b828281518110611735576117356122af565b60200101906001600160f81b031916908160001a90535060049490941c9361175c81612247565b90506116ee565b50831561071a5760405162461bcd60e51b815260206004820181905260248201527f537472696e67733a20686578206c656e67746820696e73756666696369656e7460448201526064016106fe565b803b6118165760405162461bcd60e51b815260206004820152602d60248201527f455243313936373a206e657720696d706c656d656e746174696f6e206973206e60448201526c1bdd08184818dbdb9d1c9858dd609a1b60648201526084016106fe565b7f360894a13ba1a3210667c828492db98dca3e2076cc3735a920a3ca505d382bbc80546001600160a01b0319166001600160a01b0392909216919091179055565b6060823b6118b65760405162461bcd60e51b815260206004820152602660248201527f416464726573733a2064656c65676174652063616c6c20746f206e6f6e2d636f6044820152651b9d1c9858dd60d21b60648201526084016106fe565b600080846001600160a01b0316846040516118d19190612004565b600060405180830381855af49150503d806000811461190c576040519150601f19603f3d011682016040523d82523d6000602084013e611911565b606091505b5091509150611939828260405180606001604052806027815260200161233c60279139611b27565b95945050505050565b61194b816117b2565b6040516001600160a01b038216907fbc7cd75a20ee27fd9adebab32041f755214dbc6bffa90cc0225b39da2e5c2d3b90600090a250565b61081c838383611b60565b600054610100900460ff166115855760405162461bcd60e51b81526004016106fe90612160565b600054610100900460ff166119db5760405162461bcd60e51b81526004016106fe90612160565b6119e6600033611c49565b6119fe6000805160206122fc83398151915233611c49565b611a166000805160206122dc83398151915233611c49565b6115856000805160206122dc8339815191526000805160206122fc833981519152611c53565b6001600160a01b038216611a925760405162461bcd60e51b815260206004820152601f60248201527f45524332303a206d696e7420746f20746865207a65726f20616464726573730060448201526064016106fe565b611a9e60008383611523565b8060676000828254611ab091906121ab565b90915550506001600160a01b03821660009081526065602052604081208054839290611add9084906121ab565b90915550506040518181526001600160a01b038316906000907fddf252ad1be2c89b69c2b068fc378daa952ba7f163c4a11628f55a4df523b3ef9060200160405180910390a35050565b60608315611b3657508161071a565b825115611b465782518084602001fd5b8160405162461bcd60e51b81526004016106fe9190612095565b60008051602061231c833981519152547fe38b16c806f019542b2d4bf356bb4ba2ea4b7eb450b8fbff2584f6084c4978f1546001600160a01b0316811580611bb95750836001600160a01b0316816001600160a01b0316145b80611bd55750846001600160a01b0316816001600160a01b0316145b80611be757506001600160a01b038516155b80611bf957506001600160a01b038416155b15611c05575050505050565b6000670de0b6b3a764000060008051602061231c83398151915254611c2a90866121e5565b611c3491906121c3565b9050611c41868383610dd0565b505050505050565b61089b82826110e1565b600082815260fb6020526040808220600101805490849055905190918391839186917fbd79b86ffe0ab8e8776151514217cd7cacd52c909f66475c3af44e129f0b00ff9190a4505050565b828054611caa9061225e565b90600052602060002090601f016020900481019282611ccc5760008555611d12565b82601f10611ce557805160ff1916838001178555611d12565b82800160010185558215611d12579182015b82811115611d12578251825591602001919060010190611cf7565b50611d1e929150611d22565b5090565b5b80821115611d1e5760008155600101611d23565b600067ffffffffffffffff80841115611d5257611d526122c5565b604051601f8501601f19908116603f01168101908282118183101715611d7a57611d7a6122c5565b81604052809350858152868686011115611d9357600080fd5b858560208301376000602087830101525050509392505050565b80356001600160a01b0381168114611dc457600080fd5b919050565b600082601f830112611dda57600080fd5b61071a83833560208501611d37565b600060208284031215611dfb57600080fd5b61071a82611dad565b60008060408385031215611e1757600080fd5b611e2083611dad565b9150611e2e60208401611dad565b90509250929050565b600080600060608486031215611e4c57600080fd5b611e5584611dad565b9250611e6360208501611dad565b9150604084013590509250925092565b60008060408385031215611e8657600080fd5b611e8f83611dad565b9150602083013567ffffffffffffffff811115611eab57600080fd5b8301601f81018513611ebc57600080fd5b611ecb85823560208401611d37565b9150509250929050565b60008060408385031215611ee857600080fd5b611ef183611dad565b946020939093013593505050565b600060208284031215611f1157600080fd5b5035919050565b60008060408385031215611f2b57600080fd5b82359150611e2e60208401611dad565b600060208284031215611f4d57600080fd5b81356001600160e01b03198116811461071a57600080fd5b60008060008060008060c08789031215611f7e57600080fd5b863567ffffffffffffffff80821115611f9657600080fd5b611fa28a838b01611dc9565b97506020890135915080821115611fb857600080fd5b50611fc589828a01611dc9565b955050604087013560ff81168114611fdc57600080fd5b93506060870135925060808701359150611ff860a08801611dad565b90509295509295509295565b6000825161201681846020870161221b565b9190910192915050565b7f416363657373436f6e74726f6c3a206163636f756e742000000000000000000081526000835161205881601785016020880161221b565b7001034b99036b4b9b9b4b733903937b6329607d1b601791840191820152835161208981602884016020880161221b565b01602801949350505050565b60208152600082518060208401526120b481604085016020870161221b565b601f01601f19169190910160400192915050565b6020808252602c908201527f46756e6374696f6e206d7573742062652063616c6c6564207468726f7567682060408201526b19195b1959d85d1958d85b1b60a21b606082015260800190565b6020808252602c908201527f46756e6374696f6e206d7573742062652063616c6c6564207468726f7567682060408201526b6163746976652070726f787960a01b606082015260800190565b6020808252602b908201527f496e697469616c697a61626c653a20636f6e7472616374206973206e6f74206960408201526a6e697469616c697a696e6760a81b606082015260800190565b600082198211156121be576121be612299565b500190565b6000826121e057634e487b7160e01b600052601260045260246000fd5b500490565b60008160001904831182151516156121ff576121ff612299565b500290565b60008282101561221657612216612299565b500390565b60005b8381101561223657818101518382015260200161221e565b83811115610fa55750506000910152565b60008161225657612256612299565b506000190190565b600181811c9082168061227257607f821691505b6020821081141561229357634e487b7160e01b600052602260045260246000fd5b50919050565b634e487b7160e01b600052601160045260246000fd5b634e487b7160e01b600052603260045260246000fd5b634e487b7160e01b600052604160045260246000fdfea76ace73a908083d89af9ff88e5b4f7cadb3591a80631063f68b695fda726db571840dc4906352362b0cdaf79870196c8e42acafade72d5d5a6d59291253ceb1253122b26cc2118faf5fcfc7761bd75fcfb5508f1f48d1a40db694aba32af5d0416464726573733a206c6f772d6c6576656c2064656c65676174652063616c6c206661696c6564a2646970667358221220ddce157d71547bb71a9682930f6a6dab6edfec9046b64110f7f1b44201b95e7a64736f6c63430008060033",
  "linkReferences": {},
  "deployedLinkReferences": {}
}