{
  "_format": "hh-sol-artifact-1",
  "name": "BurnMintSnapshotWhiteListTemplate",
  "initializer": "function initialize(string name_, string symbol_, uint8 decimals_, uint256 amount_)",
  "sourceName": "contracts/templates/BurnMintSnapshotWhiteListTemplate.sol",
  "abi": [
    {
      "anonymous": false,
      "inputs": [
        {
          "indexed": false,
          "internalType": "address",
          "name": "previousAdmin",
          "type": "address"
        },
        {
          "indexed": false,
          "internalType": "address",
          "name": "newAdmin",
          "type": "address"
        }
      ],
      "name": "AdminChanged",
      "type": "event"
    },
    {
      "anonymous": false,
      "inputs": [
        {
          "indexed": true,
          "internalType": "address",
          "name": "owner",
          "type": "address"
        },
        {
          "indexed": true,
          "internalType": "address",
          "name": "spender",
          "type": "address"
        },
        {
          "indexed": false,
          "internalType": "uint256",
          "name": "value",
          "type": "uint256"
        }
      ],
      "name": "Approval",
      "type": "event"
    },
    {
      "anonymous": false,
      "inputs": [
        {
          "indexed": true,
          "internalType": "address",
          "name": "beacon",
          "type": "address"
        }
      ],
      "name": "BeaconUpgraded",
      "type": "event"
    },
    {
      "anonymous": false,
      "inputs": [
        {
          "indexed": false,
          "internalType": "address",
          "name": "account",
          "type": "address"
        }
      ],
      "name": "Paused",
      "type": "event"
    },
    {
      "anonymous": false,
      "inputs": [
        {
          "indexed": true,
          "internalType": "bytes32",
          "name": "role",
          "type": "bytes32"
        },
        {
          "indexed": true,
          "internalType": "bytes32",
          "name": "previousAdminRole",
          "type": "bytes32"
        },
        {
          "indexed": true,
          "internalType": "bytes32",
          "name": "newAdminRole",
          "type": "bytes32"
        }
      ],
      "name": "RoleAdminChanged",
      "type": "event"
    },
    {
      "anonymous": false,
      "inputs": [
        {
          "indexed": true,
          "internalType": "bytes32",
          "name": "role",
          "type": "bytes32"
        },
        {
          "indexed": true,
          "internalType": "address",
          "name": "account",
          "type": "address"
        },
        {
          "indexed": true,
          "internalType": "address",
          "name": "sender",
          "type": "address"
        }
      ],
      "name": "RoleGranted",
      "type": "event"
    },
    {
      "anonymous": false,
      "inputs": [
        {
          "indexed": true,
          "internalType": "bytes32",
          "name": "role",
          "type": "bytes32"
        },
        {
          "indexed": true,
          "internalType": "address",
          "name": "account",
          "type": "address"
        },
        {
          "indexed": true,
          "internalType": "address",
          "name": "sender",
          "type": "address"
        }
      ],
      "name": "RoleRevoked",
      "type": "event"
    },
    {
      "anonymous": false,
      "inputs": [
        {
          "indexed": false,
          "internalType": "uint256",
          "name": "id",
          "type": "uint256"
        }
      ],
      "name": "Snapshot",
      "type": "event"
    },
    {
      "anonymous": false,
      "inputs": [
        {
          "indexed": true,
          "internalType": "address",
          "name": "from",
          "type": "address"
        },
        {
          "indexed": true,
          "internalType": "address",
          "name": "to",
          "type": "address"
        },
        {
          "indexed": false,
          "internalType": "uint256",
          "name": "value",
          "type": "uint256"
        }
      ],
      "name": "Transfer",
      "type": "event"
    },
    {
      "anonymous": false,
      "inputs": [
        {
          "indexed": false,
          "internalType": "address",
          "name": "account",
          "type": "address"
        }
      ],
      "name": "Unpaused",
      "type": "event"
    },
    {
      "anonymous": false,
      "inputs": [
        {
          "indexed": true,
          "internalType": "address",
          "name": "implementation",
          "type": "address"
        }
      ],
      "name": "Upgraded",
      "type": "event"
    },
    {
      "inputs": [],
      "name": "DEFAULT_ADMIN_ROLE",
      "outputs": [
        {
          "internalType": "bytes32",
          "name": "",
          "type": "bytes32"
        }
      ],
      "stateMutability": "view",
      "type": "function"
    },
    {
      "inputs": [],
      "name": "GOVERNANCE_ROLE",
      "outputs": [
        {
          "internalType": "bytes32",
          "name": "",
          "type": "bytes32"
        }
      ],
      "stateMutability": "view",
      "type": "function"
    },
    {
      "inputs": [],
      "name": "MINTER_ROLE",
      "outputs": [
        {
          "internalType": "bytes32",
          "name": "",
          "type": "bytes32"
        }
      ],
      "stateMutability": "view",
      "type": "function"
    },
    {
      "inputs": [],
      "name": "PAUSE_MANAGER_ROLE",
      "outputs": [
        {
          "internalType": "bytes32",
          "name": "",
          "type": "bytes32"
        }
      ],
      "stateMutability": "view",
      "type": "function"
    },
    {
      "inputs": [],
      "name": "UPGRADE_MANAGER_ROLE",
      "outputs": [
        {
          "internalType": "bytes32",
          "name": "",
          "type": "bytes32"
        }
      ],
      "stateMutability": "view",
      "type": "function"
    },
    {
      "inputs": [],
      "name": "WHITELISTED_FROM_ROLE",
      "outputs": [
        {
          "internalType": "bytes32",
          "name": "",
          "type": "bytes32"
        }
      ],
      "stateMutability": "view",
      "type": "function"
    },
    {
      "inputs": [],
      "name": "WHITELISTED_SENDER_ROLE",
      "outputs": [
        {
          "internalType": "bytes32",
          "name": "",
          "type": "bytes32"
        }
      ],
      "stateMutability": "view",
      "type": "function"
    },
    {
      "inputs": [
        {
          "internalType": "address[]",
          "name": "addresses",
          "type": "address[]"
        }
      ],
      "name": "addAddressesToWhitelistFrom",
      "outputs": [],
      "stateMutability": "nonpayable",
      "type": "function"
    },
    {
      "inputs": [
        {
          "internalType": "address[]",
          "name": "addresses",
          "type": "address[]"
        }
      ],
      "name": "addAddressesToWhitelistSender",
      "outputs": [],
      "stateMutability": "nonpayable",
      "type": "function"
    },
    {
      "inputs": [
        {
          "internalType": "address",
          "name": "owner",
          "type": "address"
        },
        {
          "internalType": "address",
          "name": "spender",
          "type": "address"
        }
      ],
      "name": "allowance",
      "outputs": [
        {
          "internalType": "uint256",
          "name": "",
          "type": "uint256"
        }
      ],
      "stateMutability": "view",
      "type": "function"
    },
    {
      "inputs": [
        {
          "internalType": "address",
          "name": "spender",
          "type": "address"
        },
        {
          "internalType": "uint256",
          "name": "amount",
          "type": "uint256"
        }
      ],
      "name": "approve",
      "outputs": [
        {
          "internalType": "bool",
          "name": "",
          "type": "bool"
        }
      ],
      "stateMutability": "nonpayable",
      "type": "function"
    },
    {
      "inputs": [
        {
          "internalType": "address",
          "name": "account",
          "type": "address"
        }
      ],
      "name": "balanceOf",
      "outputs": [
        {
          "internalType": "uint256",
          "name": "",
          "type": "uint256"
        }
      ],
      "stateMutability": "view",
      "type": "function"
    },
    {
      "inputs": [
        {
          "internalType": "address",
          "name": "account",
          "type": "address"
        },
        {
          "internalType": "uint256",
          "name": "snapshotId",
          "type": "uint256"
        }
      ],
      "name": "balanceOfAt",
      "outputs": [
        {
          "internalType": "uint256",
          "name": "",
          "type": "uint256"
        }
      ],
      "stateMutability": "view",
      "type": "function"
    },
    {
      "inputs": [
        {
          "internalType": "address[]",
          "name": "accounts",
          "type": "address[]"
        },
        {
          "internalType": "uint256[]",
          "name": "amounts",
          "type": "uint256[]"
        }
      ],
      "name": "bulkMint",
      "outputs": [],
      "stateMutability": "nonpayable",
      "type": "function"
    },
    {
      "inputs": [
        {
          "internalType": "uint256",
          "name": "amount",
          "type": "uint256"
        }
      ],
      "name": "burn",
      "outputs": [],
      "stateMutability": "nonpayable",
      "type": "function"
    },
    {
      "inputs": [
        {
          "internalType": "address",
          "name": "account",
          "type": "address"
        },
        {
          "internalType": "uint256",
          "name": "amount",
          "type": "uint256"
        }
      ],
      "name": "burnFrom",
      "outputs": [],
      "stateMutability": "nonpayable",
      "type": "function"
    },
    {
      "inputs": [],
      "name": "decimals",
      "outputs": [
        {
          "internalType": "uint8",
          "name": "",
          "type": "uint8"
        }
      ],
      "stateMutability": "view",
      "type": "function"
    },
    {
      "inputs": [
        {
          "internalType": "address",
          "name": "spender",
          "type": "address"
        },
        {
          "internalType": "uint256",
          "name": "subtractedValue",
          "type": "uint256"
        }
      ],
      "name": "decreaseAllowance",
      "outputs": [
        {
          "internalType": "bool",
          "name": "",
          "type": "bool"
        }
      ],
      "stateMutability": "nonpayable",
      "type": "function"
    },
    {
      "inputs": [],
      "name": "getCurrentSnapshotId",
      "outputs": [
        {
          "internalType": "uint256",
          "name": "",
          "type": "uint256"
        }
      ],
      "stateMutability": "view",
      "type": "function"
    },
    {
      "inputs": [],
      "name": "getImplementation",
      "outputs": [
        {
          "internalType": "address",
          "name": "",
          "type": "address"
        }
      ],
      "stateMutability": "view",
      "type": "function"
    },
    {
      "inputs": [
        {
          "internalType": "bytes32",
          "name": "role",
          "type": "bytes32"
        }
      ],
      "name": "getRoleAdmin",
      "outputs": [
        {
          "internalType": "bytes32",
          "name": "",
          "type": "bytes32"
        }
      ],
      "stateMutability": "view",
      "type": "function"
    },
    {
      "inputs": [
        {
          "internalType": "bytes32",
          "name": "role",
          "type": "bytes32"
        },
        {
          "internalType": "address",
          "name": "account",
          "type": "address"
        }
      ],
      "name": "grantRole",
      "outputs": [],
      "stateMutability": "nonpayable",
      "type": "function"
    },
    {
      "inputs": [
        {
          "internalType": "bytes32",
          "name": "role",
          "type": "bytes32"
        },
        {
          "internalType": "address",
          "name": "account",
          "type": "address"
        }
      ],
      "name": "hasRole",
      "outputs": [
        {
          "internalType": "bool",
          "name": "",
          "type": "bool"
        }
      ],
      "stateMutability": "view",
      "type": "function"
    },
    {
      "inputs": [
        {
          "internalType": "address",
          "name": "spender",
          "type": "address"
        },
        {
          "internalType": "uint256",
          "name": "addedValue",
          "type": "uint256"
        }
      ],
      "name": "increaseAllowance",
      "outputs": [
        {
          "internalType": "bool",
          "name": "",
          "type": "bool"
        }
      ],
      "stateMutability": "nonpayable",
      "type": "function"
    },
    {
      "inputs": [
        {
          "internalType": "string",
          "name": "name_",
          "type": "string"
        },
        {
          "internalType": "string",
          "name": "symbol_",
          "type": "string"
        },
        {
          "internalType": "uint8",
          "name": "decimals_",
          "type": "uint8"
        },
        {
          "internalType": "uint256",
          "name": "amount_",
          "type": "uint256"
        }
      ],
      "name": "initialize",
      "outputs": [],
      "stateMutability": "nonpayable",
      "type": "function"
    },
    {
      "inputs": [
        {
          "internalType": "address",
          "name": "account",
          "type": "address"
        },
        {
          "internalType": "uint256",
          "name": "amount",
          "type": "uint256"
        }
      ],
      "name": "mint",
      "outputs": [],
      "stateMutability": "nonpayable",
      "type": "function"
    },
    {
      "inputs": [],
      "name": "name",
      "outputs": [
        {
          "internalType": "string",
          "name": "",
          "type": "string"
        }
      ],
      "stateMutability": "view",
      "type": "function"
    },
    {
      "inputs": [],
      "name": "pause",
      "outputs": [],
      "stateMutability": "nonpayable",
      "type": "function"
    },
    {
      "inputs": [],
      "name": "paused",
      "outputs": [
        {
          "internalType": "bool",
          "name": "",
          "type": "bool"
        }
      ],
      "stateMutability": "view",
      "type": "function"
    },
    {
      "inputs": [
        {
          "internalType": "address",
          "name": "implementationAddress",
          "type": "address"
        }
      ],
      "name": "proposeNewImplementation",
      "outputs": [],
      "stateMutability": "nonpayable",
      "type": "function"
    },
    {
      "inputs": [
        {
          "internalType": "address[]",
          "name": "addresses",
          "type": "address[]"
        }
      ],
      "name": "removeAddressesFromWhitelistFrom",
      "outputs": [],
      "stateMutability": "nonpayable",
      "type": "function"
    },
    {
      "inputs": [
        {
          "internalType": "address[]",
          "name": "addresses",
          "type": "address[]"
        }
      ],
      "name": "removeAddressesFromWhitelistSender",
      "outputs": [],
      "stateMutability": "nonpayable",
      "type": "function"
    },
    {
      "inputs": [
        {
          "internalType": "bytes32",
          "name": "role",
          "type": "bytes32"
        },
        {
          "internalType": "address",
          "name": "account",
          "type": "address"
        }
      ],
      "name": "renounceRole",
      "outputs": [],
      "stateMutability": "nonpayable",
      "type": "function"
    },
    {
      "inputs": [
        {
          "internalType": "bytes32",
          "name": "role",
          "type": "bytes32"
        },
        {
          "internalType": "address",
          "name": "account",
          "type": "address"
        }
      ],
      "name": "revokeRole",
      "outputs": [],
      "stateMutability": "nonpayable",
      "type": "function"
    },
    {
      "inputs": [],
      "name": "snapshot",
      "outputs": [],
      "stateMutability": "nonpayable",
      "type": "function"
    },
    {
      "inputs": [
        {
          "internalType": "bytes4",
          "name": "interfaceId",
          "type": "bytes4"
        }
      ],
      "name": "supportsInterface",
      "outputs": [
        {
          "internalType": "bool",
          "name": "",
          "type": "bool"
        }
      ],
      "stateMutability": "view",
      "type": "function"
    },
    {
      "inputs": [],
      "name": "symbol",
      "outputs": [
        {
          "internalType": "string",
          "name": "",
          "type": "string"
        }
      ],
      "stateMutability": "view",
      "type": "function"
    },
    {
      "inputs": [],
      "name": "totalSupply",
      "outputs": [
        {
          "internalType": "uint256",
          "name": "",
          "type": "uint256"
        }
      ],
      "stateMutability": "view",
      "type": "function"
    },
    {
      "inputs": [
        {
          "internalType": "uint256",
          "name": "snapshotId",
          "type": "uint256"
        }
      ],
      "name": "totalSupplyAt",
      "outputs": [
        {
          "internalType": "uint256",
          "name": "",
          "type": "uint256"
        }
      ],
      "stateMutability": "view",
      "type": "function"
    },
    {
      "inputs": [
        {
          "internalType": "address",
          "name": "recipient",
          "type": "address"
        },
        {
          "internalType": "uint256",
          "name": "amount",
          "type": "uint256"
        }
      ],
      "name": "transfer",
      "outputs": [
        {
          "internalType": "bool",
          "name": "",
          "type": "bool"
        }
      ],
      "stateMutability": "nonpayable",
      "type": "function"
    },
    {
      "inputs": [
        {
          "internalType": "address",
          "name": "sender",
          "type": "address"
        },
        {
          "internalType": "address",
          "name": "recipient",
          "type": "address"
        },
        {
          "internalType": "uint256",
          "name": "amount",
          "type": "uint256"
        }
      ],
      "name": "transferFrom",
      "outputs": [
        {
          "internalType": "bool",
          "name": "",
          "type": "bool"
        }
      ],
      "stateMutability": "nonpayable",
      "type": "function"
    },
    {
      "inputs": [],
      "name": "unpause",
      "outputs": [],
      "stateMutability": "nonpayable",
      "type": "function"
    },
    {
      "inputs": [
        {
          "internalType": "address",
          "name": "newImplementation",
          "type": "address"
        }
      ],
      "name": "upgradeTo",
      "outputs": [],
      "stateMutability": "nonpayable",
      "type": "function"
    },
    {
      "inputs": [
        {
          "internalType": "address",
          "name": "newImplementation",
          "type": "address"
        },
        {
          "internalType": "bytes",
          "name": "data",
          "type": "bytes"
        }
      ],
      "name": "upgradeToAndCall",
      "outputs": [],
      "stateMutability": "payable",
      "type": "function"
    }
  ],
  "bytecode": "0x60a06040523060601b60805234801561001757600080fd5b5060805160601c61302f61004b60003960008181610b4901528181610b8901528181610d900152610dd0015261302f6000f3fe6080604052600436106102675760003560e01c80636ae459bd11610144578063a457c2d7116100b6578063d53913931161007a578063d539139314610736578063d547741f1461076a578063d84f91e81461078a578063dd62ed3e146107ac578063f36c8f5c146107f2578063f834c5021461081457600080fd5b8063a457c2d714610687578063a9059cbb146106a7578063aa74a34a146106c7578063aaf10f42146106e9578063c233f3b71461071657600080fd5b80638456cb59116101085780638456cb59146105f357806391d148541461060857806395d89b41146106285780639711715a1461063d578063981b24d014610652578063a217fddf1461067257600080fd5b80636ae459bd1461053b5780636e79a1c01461055b57806370a082311461057b578063731ce8fc146105b157806379cc6790146105d357600080fd5b806339509351116101dd57806347757fb6116101a157806347757fb61461048e5780634ee2cd7e146104ae5780634f1ef286146104ce5780635439ad86146104e15780635c975abb146104f6578063685ed81a1461051b57600080fd5b806339509351146103f75780633f4ba83a1461041757806340c10f191461042c57806342966c681461044c57806343ffa64e1461046c57600080fd5b8063248a9ca31161022f578063248a9ca314610322578063253279ad146103525780632f2ff15d14610374578063313ce5671461039457806336568abe146103b75780633659cfe6146103d757600080fd5b806301ffc9a71461026c57806306fdde03146102a1578063095ea7b3146102c357806318160ddd146102e357806323b872dd14610302575b600080fd5b34801561027857600080fd5b5061028c610287366004612b58565b610834565b60405190151581526020015b60405180910390f35b3480156102ad57600080fd5b506102b661086b565b6040516102989190612c97565b3480156102cf57600080fd5b5061028c6102de366004612a44565b6108fd565b3480156102ef57600080fd5b506067545b604051908152602001610298565b34801561030e57600080fd5b5061028c61031d3660046129a6565b610913565b34801561032e57600080fd5b506102f461033d366004612b1c565b600090815260fb602052604090206001015490565b34801561035e57600080fd5b5061037261036d366004612b82565b6109c4565b005b34801561038057600080fd5b5061037261038f366004612b35565b610a95565b3480156103a057600080fd5b506101605460405160ff9091168152602001610298565b3480156103c357600080fd5b506103726103d2366004612b35565b610ac0565b3480156103e357600080fd5b506103726103f2366004612958565b610b3e565b34801561040357600080fd5b5061028c610412366004612a44565b610c07565b34801561042357600080fd5b50610372610c43565b34801561043857600080fd5b50610372610447366004612a44565b610c64565b34801561045857600080fd5b50610372610467366004612b1c565b610c99565b34801561047857600080fd5b506102f4600080516020612f1383398151915281565b34801561049a57600080fd5b506103726104a9366004612958565b610ca3565b3480156104ba57600080fd5b506102f46104c9366004612a44565b610ce0565b6103726104dc3660046129e2565b610d85565b3480156104ed57600080fd5b506102f4610e3b565b34801561050257600080fd5b50600080516020612fba8339815191525460ff1661028c565b34801561052757600080fd5b50610372610536366004612a6e565b610e58565b34801561054757600080fd5b50610372610556366004612ab0565b610ecd565b34801561056757600080fd5b50610372610576366004612a6e565b610fac565b34801561058757600080fd5b506102f4610596366004612958565b6001600160a01b031660009081526065602052604090205490565b3480156105bd57600080fd5b506102f4600080516020612fda83398151915281565b3480156105df57600080fd5b506103726105ee366004612a44565b61101b565b3480156105ff57600080fd5b5061037261109c565b34801561061457600080fd5b5061028c610623366004612b35565b6110bd565b34801561063457600080fd5b506102b66110e8565b34801561064957600080fd5b506103726110f7565b34801561065e57600080fd5b506102f461066d366004612b1c565b6110ff565b34801561067e57600080fd5b506102f4600081565b34801561069357600080fd5b5061028c6106a2366004612a44565b61116a565b3480156106b357600080fd5b5061028c6106c2366004612a44565b611203565b3480156106d357600080fd5b506102f4600080516020612ef383398151915281565b3480156106f557600080fd5b506106fe611210565b6040516001600160a01b039091168152602001610298565b34801561072257600080fd5b50610372610731366004612a6e565b61121a565b34801561074257600080fd5b506102f47ff9424f4303d7f03683a025eb8885734ad99b47df7749d9b0a02cbc985809700b81565b34801561077657600080fd5b50610372610785366004612b35565b611274565b34801561079657600080fd5b506102f4600080516020612f7a83398151915281565b3480156107b857600080fd5b506102f46107c7366004612973565b6001600160a01b03918216600090815260666020908152604080832093909416825291909152205490565b3480156107fe57600080fd5b506102f4600080516020612f3383398151915281565b34801561082057600080fd5b5061037261082f366004612a6e565b61129a565b60006001600160e01b03198216637965db0b60e01b148061086557506301ffc9a760e01b6001600160e01b03198316145b92915050565b60606068805461087a90612e60565b80601f01602080910402602001604051908101604052809291908181526020018280546108a690612e60565b80156108f35780601f106108c8576101008083540402835291602001916108f3565b820191906000526020600020905b8154815290600101906020018083116108d657829003601f168201915b5050505050905090565b600061090a3384846112f4565b50600192915050565b6000610920848484611418565b6001600160a01b0384166000908152606660209081526040808320338452909152902054828110156109aa5760405162461bcd60e51b815260206004820152602860248201527f45524332303a207472616e7366657220616d6f756e74206578636565647320616044820152676c6c6f77616e636560c01b60648201526084015b60405180910390fd5b6109b785338584036112f4565b60019150505b9392505050565b600054610100900460ff166109df5760005460ff16156109e3565b303b155b610a465760405162461bcd60e51b815260206004820152602e60248201527f496e697469616c697a61626c653a20636f6e747261637420697320616c72656160448201526d191e481a5b9a5d1a585b1a5e995960921b60648201526084016109a1565b600054610100900460ff16158015610a68576000805461ffff19166101011790555b610a74858585856115f1565b610a7c611634565b8015610a8e576000805461ff00191690555b5050505050565b600082815260fb6020526040902060010154610ab1813361165d565b610abb83836116c1565b505050565b6001600160a01b0381163314610b305760405162461bcd60e51b815260206004820152602f60248201527f416363657373436f6e74726f6c3a2063616e206f6e6c792072656e6f756e636560448201526e103937b632b9903337b91039b2b63360891b60648201526084016109a1565b610b3a8282611747565b5050565b306001600160a01b037f0000000000000000000000000000000000000000000000000000000000000000161415610b875760405162461bcd60e51b81526004016109a190612cca565b7f00000000000000000000000000000000000000000000000000000000000000006001600160a01b0316610bb96117ae565b6001600160a01b031614610bdf5760405162461bcd60e51b81526004016109a190612d16565b610be8816117dc565b60408051600080825260208201909252610c049183919061185e565b50565b3360008181526066602090815260408083206001600160a01b0387168452909152812054909161090a918590610c3e908690612dad565b6112f4565b600080516020612f7a833981519152610c5c813361165d565b610c046119a2565b7ff9424f4303d7f03683a025eb8885734ad99b47df7749d9b0a02cbc985809700b610c8f813361165d565b610abb8383611a4f565b610c043382611b3a565b600080516020612f33833981519152610cbc813361165d565b5061012d80546001600160a01b0319166001600160a01b0392909216919091179055565b604080516001600160a01b0384166020808301919091527ffbf1c7065455eb4486649b8540f24ef2dd4ebedf2aa423f0039d17c2c75dea15828401528251808303840181526060909201909252805191012060009081610d41826001612dad565b9050600080610d51868585611c94565b9150915081610d78576001600160a01b038716600090815260656020526040902054610d7a565b805b979650505050505050565b306001600160a01b037f0000000000000000000000000000000000000000000000000000000000000000161415610dce5760405162461bcd60e51b81526004016109a190612cca565b7f00000000000000000000000000000000000000000000000000000000000000006001600160a01b0316610e006117ae565b6001600160a01b031614610e265760405162461bcd60e51b81526004016109a190612d16565b610e2f826117dc565b610b3a8282600161185e565b6000610e53600080516020612f9a8339815191525490565b905090565b600080516020612f7a833981519152610e71813361165d565b60005b82811015610ec757610eb5600080516020612ef3833981519152858584818110610ea057610ea0612ec6565b905060200201602081019061038f9190612958565b80610ebf81612e95565b915050610e74565b50505050565b7ff9424f4303d7f03683a025eb8885734ad99b47df7749d9b0a02cbc985809700b610ef8813361165d565b838214610f3f5760405162461bcd60e51b8152602060048201526015602482015274082e4e4c2f240d8cadccee8d040dad2e6dac2e8c6d605b1b60448201526064016109a1565b60005b84811015610fa457610f92868683818110610f5f57610f5f612ec6565b9050602002016020810190610f749190612958565b858584818110610f8657610f86612ec6565b90506020020135611a4f565b80610f9c81612e95565b915050610f42565b505050505050565b600080516020612f7a833981519152610fc5813361165d565b60005b82811015610ec757611009600080516020612fda833981519152858584818110610ff457610ff4612ec6565b90506020020160208101906107859190612958565b8061101381612e95565b915050610fc8565b600061102783336107c7565b9050818110156110855760405162461bcd60e51b8152602060048201526024808201527f45524332303a206275726e20616d6f756e74206578636565647320616c6c6f77604482015263616e636560e01b60648201526084016109a1565b61109283338484036112f4565b610abb8383611b3a565b600080516020612f7a8339815191526110b5813361165d565b610c04611d7f565b600091825260fb602090815260408084206001600160a01b0393909316845291905290205460ff1690565b60606069805461087a90612e60565b610c04611e13565b600080600061114f847f286a9db37a0f8ddcbcee127c9f4f56031230f49cb46786f87e166d552e11f67e7ffcaa8bb100d3c5b627eac0369cc1d2778dbeffa2993d08f039fb27795729e9a5611c94565b915091508161116057606754611162565b805b949350505050565b3360009081526066602090815260408083206001600160a01b0386168452909152812054828110156111ec5760405162461bcd60e51b815260206004820152602560248201527f45524332303a2064656372656173656420616c6c6f77616e63652062656c6f77604482015264207a65726f60d81b60648201526084016109a1565b6111f933858584036112f4565b5060019392505050565b600061090a338484611418565b6000610e536117ae565b600080516020612f7a833981519152611233813361165d565b60005b82811015610ec757611262600080516020612ef3833981519152858584818110610ff457610ff4612ec6565b8061126c81612e95565b915050611236565b600082815260fb6020526040902060010154611290813361165d565b610abb8383611747565b600080516020612f7a8339815191526112b3813361165d565b60005b82811015610ec7576112e2600080516020612fda833981519152858584818110610ea057610ea0612ec6565b806112ec81612e95565b9150506112b6565b6001600160a01b0383166113565760405162461bcd60e51b8152602060048201526024808201527f45524332303a20617070726f76652066726f6d20746865207a65726f206164646044820152637265737360e01b60648201526084016109a1565b6001600160a01b0382166113b75760405162461bcd60e51b815260206004820152602260248201527f45524332303a20617070726f766520746f20746865207a65726f206164647265604482015261737360f01b60648201526084016109a1565b6001600160a01b0383811660008181526066602090815260408083209487168084529482529182902085905590518481527f8c5be1e5ebec7d5bd14f71427d1e84f3dd0314c0f7b2291e5b200ac8c7c3b925910160405180910390a3505050565b6001600160a01b03831661147c5760405162461bcd60e51b815260206004820152602560248201527f45524332303a207472616e736665722066726f6d20746865207a65726f206164604482015264647265737360d81b60648201526084016109a1565b6001600160a01b0382166114de5760405162461bcd60e51b815260206004820152602360248201527f45524332303a207472616e7366657220746f20746865207a65726f206164647260448201526265737360e81b60648201526084016109a1565b6114e9838383611e83565b6001600160a01b038316600090815260656020526040902054818110156115615760405162461bcd60e51b815260206004820152602660248201527f45524332303a207472616e7366657220616d6f756e7420657863656564732062604482015265616c616e636560d01b60648201526084016109a1565b6001600160a01b03808516600090815260656020526040808220858503905591851681529081208054849290611598908490612dad565b92505081905550826001600160a01b0316846001600160a01b03167fddf252ad1be2c89b69c2b068fc378daa952ba7f163c4a11628f55a4df523b3ef846040516115e491815260200190565b60405180910390a3610ec7565b600054610100900460ff166116185760405162461bcd60e51b81526004016109a190612d62565b611620611e99565b61162a8484611ef0565b610ec78282611f3e565b600054610100900460ff1661165b5760405162461bcd60e51b81526004016109a190612d62565b565b61166782826110bd565b610b3a5761167f816001600160a01b03166014611f7f565b61168a836020611f7f565b60405160200161169b929190612c22565b60408051601f198184030181529082905262461bcd60e51b82526109a191600401612c97565b6116cb82826110bd565b610b3a57600082815260fb602090815260408083206001600160a01b03851684529091529020805460ff191660011790556117033390565b6001600160a01b0316816001600160a01b0316837f2f8788117e7eff1d82e926ec794901d17c78024a50270940304540a733656f0d60405160405180910390a45050565b61175182826110bd565b15610b3a57600082815260fb602090815260408083206001600160a01b0385168085529252808320805460ff1916905551339285917ff6391f5c32d9c69d2a47ea670b442974b53935d1edc7fd64eb21e047a839171b9190a45050565b7f360894a13ba1a3210667c828492db98dca3e2076cc3735a920a3ca505d382bbc546001600160a01b031690565b6117f4600080516020612f33833981519152336110bd565b806118125750611812600080516020612f13833981519152336110bd565b610c045760405162461bcd60e51b815260206004820152601d60248201527f4552524f523a2041646472657373206e6f7420617574686f72697a656400000060448201526064016109a1565b60006118686117ae565b90506118738461211b565b6000835111806118805750815b156118915761188f84846121c0565b505b7f4910fdfa16fed3260ed0e7147f7cc6da11a60208b5b9406d12a635614ffd9143805460ff16610a8e57805460ff191660011781556040516001600160a01b038316602482015261191090869060440160408051601f198184030181529190526020810180516001600160e01b0316631b2ce7f360e11b1790526121c0565b50805460ff191681556119216117ae565b6001600160a01b0316826001600160a01b0316146119995760405162461bcd60e51b815260206004820152602f60248201527f45524331393637557067726164653a207570677261646520627265616b73206660448201526e75727468657220757067726164657360881b60648201526084016109a1565b610a8e856122ab565b600080516020612fba8339815191525460ff166119f85760405162461bcd60e51b815260206004820152601460248201527314185d5cd8589b194e881b9bdd081c185d5cd95960621b60448201526064016109a1565b600080516020612fba833981519152805460ff191690557f5db9ee0a495bf2e6ff9c91a7834c1ba4fdd244a5e8aa4e537bd38aeae4b073aa335b6040516001600160a01b03909116815260200160405180910390a1565b6001600160a01b038216611aa55760405162461bcd60e51b815260206004820152601f60248201527f45524332303a206d696e7420746f20746865207a65726f20616464726573730060448201526064016109a1565b611ab160008383611e83565b8060676000828254611ac39190612dad565b90915550506001600160a01b03821660009081526065602052604081208054839290611af0908490612dad565b90915550506040518181526001600160a01b038316906000907fddf252ad1be2c89b69c2b068fc378daa952ba7f163c4a11628f55a4df523b3ef9060200160405180910390a35050565b6001600160a01b038216611b9a5760405162461bcd60e51b815260206004820152602160248201527f45524332303a206275726e2066726f6d20746865207a65726f206164647265736044820152607360f81b60648201526084016109a1565b611ba682600083611e83565b6001600160a01b03821660009081526065602052604090205481811015611c1a5760405162461bcd60e51b815260206004820152602260248201527f45524332303a206275726e20616d6f756e7420657863656564732062616c616e604482015261636560f01b60648201526084016109a1565b6001600160a01b0383166000908152606560205260408120838303905560678054849290611c49908490612e06565b90915550506040518281526000906001600160a01b038516907fddf252ad1be2c89b69c2b068fc378daa952ba7f163c4a11628f55a4df523b3ef9060200160405180910390a3505050565b60008060008511611ce05760405162461bcd60e51b815260206004820152601660248201527504552433230536e617073686f743a20696420697320360541b60448201526064016109a1565b600080516020612f9a83398151915254851115611d3f5760405162461bcd60e51b815260206004820152601d60248201527f4552433230536e617073686f743a206e6f6e6578697374656e7420696400000060448201526064016109a1565b6000611d4b85876122eb565b90508454811415611d63576000809250925050611d77565b6001611d6f858361238a565b549093509150505b935093915050565b600080516020612fba8339815191525460ff1615611dd25760405162461bcd60e51b815260206004820152601060248201526f14185d5cd8589b194e881c185d5cd95960821b60448201526064016109a1565b600080516020612fba833981519152805460ff191660011790557f62e78cea01bee320cd4e420270b5ea74000d11b0c9f74754ebdbfc544b05a25833611a32565b60006001600080516020612f9a8339815191528054600090611e36908490612dad565b9091555050600080516020612f9a833981519152546040518181527f8030e83b04d87bef53480e26263266d6ca66863aa8506aca6f2559d18aa1cb679060200160405180910390a1919050565b611e8e838383612409565b610abb83838361241f565b600054610100900460ff16611ec05760405162461bcd60e51b81526004016109a190612d62565b611ec8611634565b611ed0611634565b611ed8611634565b611ee0611634565b611ee8611634565b61165b612467565b600054610100900460ff16611f175760405162461bcd60e51b81526004016109a190612d62565b8151611f2a9060689060208501906127c1565b508051610abb9060699060208401906127c1565b600054610100900460ff16611f655760405162461bcd60e51b81526004016109a190612d62565b610160805460ff191660ff8416179055610b3a3382611a4f565b60606000611f8e836002612de7565b611f99906002612dad565b67ffffffffffffffff811115611fb157611fb1612edc565b6040519080825280601f01601f191660200182016040528015611fdb576020820181803683370190505b509050600360fc1b81600081518110611ff657611ff6612ec6565b60200101906001600160f81b031916908160001a905350600f60fb1b8160018151811061202557612025612ec6565b60200101906001600160f81b031916908160001a9053506000612049846002612de7565b612054906001612dad565b90505b60018111156120cc576f181899199a1a9b1b9c1cb0b131b232b360811b85600f166010811061208857612088612ec6565b1a60f81b82828151811061209e5761209e612ec6565b60200101906001600160f81b031916908160001a90535060049490941c936120c581612e49565b9050612057565b5083156109bd5760405162461bcd60e51b815260206004820181905260248201527f537472696e67733a20686578206c656e67746820696e73756666696369656e7460448201526064016109a1565b803b61217f5760405162461bcd60e51b815260206004820152602d60248201527f455243313936373a206e657720696d706c656d656e746174696f6e206973206e60448201526c1bdd08184818dbdb9d1c9858dd609a1b60648201526084016109a1565b7f360894a13ba1a3210667c828492db98dca3e2076cc3735a920a3ca505d382bbc80546001600160a01b0319166001600160a01b0392909216919091179055565b6060823b61221f5760405162461bcd60e51b815260206004820152602660248201527f416464726573733a2064656c65676174652063616c6c20746f206e6f6e2d636f6044820152651b9d1c9858dd60d21b60648201526084016109a1565b600080846001600160a01b03168460405161223a9190612c06565b600060405180830381855af49150503d8060008114612275576040519150601f19603f3d011682016040523d82523d6000602084013e61227a565b606091505b50915091506122a28282604051806060016040528060278152602001612f53602791396124ef565b95945050505050565b6122b48161211b565b6040516001600160a01b038216907fbc7cd75a20ee27fd9adebab32041f755214dbc6bffa90cc0225b39da2e5c2d3b90600090a250565b815460009081908061230257600092505050610865565b808210156123465760006123168383612528565b905084612323878361238a565b54111561233257809150612340565b61233d816001612dad565b92505b50612302565b60008211801561236957508361236686612361600186612e06565b61238a565b54145b1561238257612379600183612e06565b92505050610865565b509050610865565b6000825482106123d25760405162461bcd60e51b815260206004820152601360248201527211549493d48e8813dd5d081bd988189bdd5b99606a1b60448201526064016109a1565b81836040516020016123e691815260200190565b6040516020818303038152906040528051906020012060001c6109bd9190612dad565b612414838383611e8e565b610abb838383612543565b6001600160a01b03831661243e57612436826125c6565b610abb612650565b6001600160a01b03821661245557612436836125c6565b61245e836125c6565b610abb826125c6565b600054610100900460ff1661248e5760405162461bcd60e51b81526004016109a190612d62565b61249960003361269e565b6124b1600080516020612f338339815191523361269e565b6124c9600080516020612f138339815191523361269e565b61165b600080516020612f13833981519152600080516020612f338339815191526126a8565b606083156124fe5750816109bd565b82511561250e5782518084602001fd5b8160405162461bcd60e51b81526004016109a19190612c97565b60006125376002848418612dc5565b6109bd90848416612dad565b600080516020612fba8339815191525460ff161580612567575061256783336126f3565b610abb5760405162461bcd60e51b815260206004820152602a60248201527f45524332305061757361626c653a20746f6b656e207472616e736665722077686044820152691a5b19481c185d5cd95960b21b60648201526084016109a1565b604080516001600160a01b0383166020808301919091527ffbf1c7065455eb4486649b8540f24ef2dd4ebedf2aa423f0039d17c2c75dea1582840152825180830384018152606090920190925280519101206000612625826001612dad565b9050610abb828261264b866001600160a01b031660009081526065602052604090205490565b61272b565b61165b7f286a9db37a0f8ddcbcee127c9f4f56031230f49cb46786f87e166d552e11f67e7ffcaa8bb100d3c5b627eac0369cc1d2778dbeffa2993d08f039fb27795729e9a561264b60675490565b610b3a82826116c1565b600082815260fb6020526040808220600101805490849055905190918391839186917fbd79b86ffe0ab8e8776151514217cd7cacd52c909f66475c3af44e129f0b00ff9190a4505050565b600061270d600080516020612fda833981519152846110bd565b806109bd57506109bd600080516020612ef3833981519152836110bd565b6000612743600080516020612f9a8339815191525490565b90508061274f85612769565b1015610ec75761275f8482612799565b610ec78383612799565b80546000908061277c5750600092915050565b61278b83612361600184612e06565b549392505050565b50919050565b815460018360006127aa8385612dad565b909155508290506127bb848361238a565b55505050565b8280546127cd90612e60565b90600052602060002090601f0160209004810192826127ef5760008555612835565b82601f1061280857805160ff1916838001178555612835565b82800160010185558215612835579182015b8281111561283557825182559160200191906001019061281a565b50612841929150612845565b5090565b5b808211156128415760008155600101612846565b600067ffffffffffffffff8084111561287557612875612edc565b604051601f8501601f19908116603f0116810190828211818310171561289d5761289d612edc565b816040528093508581528686860111156128b657600080fd5b858560208301376000602087830101525050509392505050565b80356001600160a01b03811681146128e757600080fd5b919050565b60008083601f8401126128fe57600080fd5b50813567ffffffffffffffff81111561291657600080fd5b6020830191508360208260051b850101111561293157600080fd5b9250929050565b600082601f83011261294957600080fd5b6109bd8383356020850161285a565b60006020828403121561296a57600080fd5b6109bd826128d0565b6000806040838503121561298657600080fd5b61298f836128d0565b915061299d602084016128d0565b90509250929050565b6000806000606084860312156129bb57600080fd5b6129c4846128d0565b92506129d2602085016128d0565b9150604084013590509250925092565b600080604083850312156129f557600080fd5b6129fe836128d0565b9150602083013567ffffffffffffffff811115612a1a57600080fd5b8301601f81018513612a2b57600080fd5b612a3a8582356020840161285a565b9150509250929050565b60008060408385031215612a5757600080fd5b612a60836128d0565b946020939093013593505050565b60008060208385031215612a8157600080fd5b823567ffffffffffffffff811115612a9857600080fd5b612aa4858286016128ec565b90969095509350505050565b60008060008060408587031215612ac657600080fd5b843567ffffffffffffffff80821115612ade57600080fd5b612aea888389016128ec565b90965094506020870135915080821115612b0357600080fd5b50612b10878288016128ec565b95989497509550505050565b600060208284031215612b2e57600080fd5b5035919050565b60008060408385031215612b4857600080fd5b8235915061299d602084016128d0565b600060208284031215612b6a57600080fd5b81356001600160e01b0319811681146109bd57600080fd5b60008060008060808587031215612b9857600080fd5b843567ffffffffffffffff80821115612bb057600080fd5b612bbc88838901612938565b95506020870135915080821115612bd257600080fd5b50612bdf87828801612938565b935050604085013560ff81168114612bf657600080fd5b9396929550929360600135925050565b60008251612c18818460208701612e1d565b9190910192915050565b7f416363657373436f6e74726f6c3a206163636f756e7420000000000000000000815260008351612c5a816017850160208801612e1d565b7001034b99036b4b9b9b4b733903937b6329607d1b6017918401918201528351612c8b816028840160208801612e1d565b01602801949350505050565b6020815260008251806020840152612cb6816040850160208701612e1d565b601f01601f19169190910160400192915050565b6020808252602c908201527f46756e6374696f6e206d7573742062652063616c6c6564207468726f7567682060408201526b19195b1959d85d1958d85b1b60a21b606082015260800190565b6020808252602c908201527f46756e6374696f6e206d7573742062652063616c6c6564207468726f7567682060408201526b6163746976652070726f787960a01b606082015260800190565b6020808252602b908201527f496e697469616c697a61626c653a20636f6e7472616374206973206e6f74206960408201526a6e697469616c697a696e6760a81b606082015260800190565b60008219821115612dc057612dc0612eb0565b500190565b600082612de257634e487b7160e01b600052601260045260246000fd5b500490565b6000816000190483118215151615612e0157612e01612eb0565b500290565b600082821015612e1857612e18612eb0565b500390565b60005b83811015612e38578181015183820152602001612e20565b83811115610ec75750506000910152565b600081612e5857612e58612eb0565b506000190190565b600181811c90821680612e7457607f821691505b6020821081141561279357634e487b7160e01b600052602260045260246000fd5b6000600019821415612ea957612ea9612eb0565b5060010190565b634e487b7160e01b600052601160045260246000fd5b634e487b7160e01b600052603260045260246000fd5b634e487b7160e01b600052604160045260246000fdfee1ac655ab58995133a870d1fd307ddc1d624c8ad919a09e67867a7a1483e439aa76ace73a908083d89af9ff88e5b4f7cadb3591a80631063f68b695fda726db571840dc4906352362b0cdaf79870196c8e42acafade72d5d5a6d59291253ceb1416464726573733a206c6f772d6c6576656c2064656c65676174652063616c6c206661696c6564356a809dfdea9198dd76fb76bf6d403ecf13ea675eb89e1eda2db2c4a4676a260d0a0ed3351c10a57d74a44b40c06e0946288e4e3816ac07bb89db2a755562e7ad6a6591fa308fe948065665239402780db8ed4a8c4e4e16c4d066bcaa05efc2ce108bcc5e0f50fe603649304cbbbd94de794a404db82d884c0afc9ba9328e61a26469706673582212209bd861f2dc21fb48f3d83e587f1db69b1852192ce31991212d2b067cb6ac8a6164736f6c63430008060033",
  "linkReferences": {},
  "deployedLinkReferences": {}
}