{
  "_format": "hh-sol-artifact-1",
  "name": "BurnMintTemplate",
  "initializer": "function initialize(string name_, string symbol_, uint8 decimals_, uint256 amount_)",
  "sourceName": "contracts/templates/BurnMintTemplate.sol",
  "abi": [
    {
      "anonymous": false,
      "inputs": [
        {
          "indexed": false,
          "internalType": "address",
          "name": "previousAdmin",
          "type": "address"
        },
        {
          "indexed": false,
          "internalType": "address",
          "name": "newAdmin",
          "type": "address"
        }
      ],
      "name": "AdminChanged",
      "type": "event"
    },
    {
      "anonymous": false,
      "inputs": [
        {
          "indexed": true,
          "internalType": "address",
          "name": "owner",
          "type": "address"
        },
        {
          "indexed": true,
          "internalType": "address",
          "name": "spender",
          "type": "address"
        },
        {
          "indexed": false,
          "internalType": "uint256",
          "name": "value",
          "type": "uint256"
        }
      ],
      "name": "Approval",
      "type": "event"
    },
    {
      "anonymous": false,
      "inputs": [
        {
          "indexed": true,
          "internalType": "address",
          "name": "beacon",
          "type": "address"
        }
      ],
      "name": "BeaconUpgraded",
      "type": "event"
    },
    {
      "anonymous": false,
      "inputs": [
        {
          "indexed": true,
          "internalType": "bytes32",
          "name": "role",
          "type": "bytes32"
        },
        {
          "indexed": true,
          "internalType": "bytes32",
          "name": "previousAdminRole",
          "type": "bytes32"
        },
        {
          "indexed": true,
          "internalType": "bytes32",
          "name": "newAdminRole",
          "type": "bytes32"
        }
      ],
      "name": "RoleAdminChanged",
      "type": "event"
    },
    {
      "anonymous": false,
      "inputs": [
        {
          "indexed": true,
          "internalType": "bytes32",
          "name": "role",
          "type": "bytes32"
        },
        {
          "indexed": true,
          "internalType": "address",
          "name": "account",
          "type": "address"
        },
        {
          "indexed": true,
          "internalType": "address",
          "name": "sender",
          "type": "address"
        }
      ],
      "name": "RoleGranted",
      "type": "event"
    },
    {
      "anonymous": false,
      "inputs": [
        {
          "indexed": true,
          "internalType": "bytes32",
          "name": "role",
          "type": "bytes32"
        },
        {
          "indexed": true,
          "internalType": "address",
          "name": "account",
          "type": "address"
        },
        {
          "indexed": true,
          "internalType": "address",
          "name": "sender",
          "type": "address"
        }
      ],
      "name": "RoleRevoked",
      "type": "event"
    },
    {
      "anonymous": false,
      "inputs": [
        {
          "indexed": true,
          "internalType": "address",
          "name": "from",
          "type": "address"
        },
        {
          "indexed": true,
          "internalType": "address",
          "name": "to",
          "type": "address"
        },
        {
          "indexed": false,
          "internalType": "uint256",
          "name": "value",
          "type": "uint256"
        }
      ],
      "name": "Transfer",
      "type": "event"
    },
    {
      "anonymous": false,
      "inputs": [
        {
          "indexed": true,
          "internalType": "address",
          "name": "implementation",
          "type": "address"
        }
      ],
      "name": "Upgraded",
      "type": "event"
    },
    {
      "inputs": [],
      "name": "DEFAULT_ADMIN_ROLE",
      "outputs": [
        {
          "internalType": "bytes32",
          "name": "",
          "type": "bytes32"
        }
      ],
      "stateMutability": "view",
      "type": "function"
    },
    {
      "inputs": [],
      "name": "GOVERNANCE_ROLE",
      "outputs": [
        {
          "internalType": "bytes32",
          "name": "",
          "type": "bytes32"
        }
      ],
      "stateMutability": "view",
      "type": "function"
    },
    {
      "inputs": [],
      "name": "MINTER_ROLE",
      "outputs": [
        {
          "internalType": "bytes32",
          "name": "",
          "type": "bytes32"
        }
      ],
      "stateMutability": "view",
      "type": "function"
    },
    {
      "inputs": [],
      "name": "UPGRADE_MANAGER_ROLE",
      "outputs": [
        {
          "internalType": "bytes32",
          "name": "",
          "type": "bytes32"
        }
      ],
      "stateMutability": "view",
      "type": "function"
    },
    {
      "inputs": [
        {
          "internalType": "address",
          "name": "owner",
          "type": "address"
        },
        {
          "internalType": "address",
          "name": "spender",
          "type": "address"
        }
      ],
      "name": "allowance",
      "outputs": [
        {
          "internalType": "uint256",
          "name": "",
          "type": "uint256"
        }
      ],
      "stateMutability": "view",
      "type": "function"
    },
    {
      "inputs": [
        {
          "internalType": "address",
          "name": "spender",
          "type": "address"
        },
        {
          "internalType": "uint256",
          "name": "amount",
          "type": "uint256"
        }
      ],
      "name": "approve",
      "outputs": [
        {
          "internalType": "bool",
          "name": "",
          "type": "bool"
        }
      ],
      "stateMutability": "nonpayable",
      "type": "function"
    },
    {
      "inputs": [
        {
          "internalType": "address",
          "name": "account",
          "type": "address"
        }
      ],
      "name": "balanceOf",
      "outputs": [
        {
          "internalType": "uint256",
          "name": "",
          "type": "uint256"
        }
      ],
      "stateMutability": "view",
      "type": "function"
    },
    {
      "inputs": [
        {
          "internalType": "address[]",
          "name": "accounts",
          "type": "address[]"
        },
        {
          "internalType": "uint256[]",
          "name": "amounts",
          "type": "uint256[]"
        }
      ],
      "name": "bulkMint",
      "outputs": [],
      "stateMutability": "nonpayable",
      "type": "function"
    },
    {
      "inputs": [
        {
          "internalType": "uint256",
          "name": "amount",
          "type": "uint256"
        }
      ],
      "name": "burn",
      "outputs": [],
      "stateMutability": "nonpayable",
      "type": "function"
    },
    {
      "inputs": [
        {
          "internalType": "address",
          "name": "account",
          "type": "address"
        },
        {
          "internalType": "uint256",
          "name": "amount",
          "type": "uint256"
        }
      ],
      "name": "burnFrom",
      "outputs": [],
      "stateMutability": "nonpayable",
      "type": "function"
    },
    {
      "inputs": [],
      "name": "decimals",
      "outputs": [
        {
          "internalType": "uint8",
          "name": "",
          "type": "uint8"
        }
      ],
      "stateMutability": "view",
      "type": "function"
    },
    {
      "inputs": [
        {
          "internalType": "address",
          "name": "spender",
          "type": "address"
        },
        {
          "internalType": "uint256",
          "name": "subtractedValue",
          "type": "uint256"
        }
      ],
      "name": "decreaseAllowance",
      "outputs": [
        {
          "internalType": "bool",
          "name": "",
          "type": "bool"
        }
      ],
      "stateMutability": "nonpayable",
      "type": "function"
    },
    {
      "inputs": [],
      "name": "getImplementation",
      "outputs": [
        {
          "internalType": "address",
          "name": "",
          "type": "address"
        }
      ],
      "stateMutability": "view",
      "type": "function"
    },
    {
      "inputs": [
        {
          "internalType": "bytes32",
          "name": "role",
          "type": "bytes32"
        }
      ],
      "name": "getRoleAdmin",
      "outputs": [
        {
          "internalType": "bytes32",
          "name": "",
          "type": "bytes32"
        }
      ],
      "stateMutability": "view",
      "type": "function"
    },
    {
      "inputs": [
        {
          "internalType": "bytes32",
          "name": "role",
          "type": "bytes32"
        },
        {
          "internalType": "address",
          "name": "account",
          "type": "address"
        }
      ],
      "name": "grantRole",
      "outputs": [],
      "stateMutability": "nonpayable",
      "type": "function"
    },
    {
      "inputs": [
        {
          "internalType": "bytes32",
          "name": "role",
          "type": "bytes32"
        },
        {
          "internalType": "address",
          "name": "account",
          "type": "address"
        }
      ],
      "name": "hasRole",
      "outputs": [
        {
          "internalType": "bool",
          "name": "",
          "type": "bool"
        }
      ],
      "stateMutability": "view",
      "type": "function"
    },
    {
      "inputs": [
        {
          "internalType": "address",
          "name": "spender",
          "type": "address"
        },
        {
          "internalType": "uint256",
          "name": "addedValue",
          "type": "uint256"
        }
      ],
      "name": "increaseAllowance",
      "outputs": [
        {
          "internalType": "bool",
          "name": "",
          "type": "bool"
        }
      ],
      "stateMutability": "nonpayable",
      "type": "function"
    },
    {
      "inputs": [
        {
          "internalType": "string",
          "name": "name_",
          "type": "string"
        },
        {
          "internalType": "string",
          "name": "symbol_",
          "type": "string"
        },
        {
          "internalType": "uint8",
          "name": "decimals_",
          "type": "uint8"
        },
        {
          "internalType": "uint256",
          "name": "amount_",
          "type": "uint256"
        }
      ],
      "name": "initialize",
      "outputs": [],
      "stateMutability": "nonpayable",
      "type": "function"
    },
    {
      "inputs": [
        {
          "internalType": "address",
          "name": "account",
          "type": "address"
        },
        {
          "internalType": "uint256",
          "name": "amount",
          "type": "uint256"
        }
      ],
      "name": "mint",
      "outputs": [],
      "stateMutability": "nonpayable",
      "type": "function"
    },
    {
      "inputs": [],
      "name": "name",
      "outputs": [
        {
          "internalType": "string",
          "name": "",
          "type": "string"
        }
      ],
      "stateMutability": "view",
      "type": "function"
    },
    {
      "inputs": [
        {
          "internalType": "address",
          "name": "implementationAddress",
          "type": "address"
        }
      ],
      "name": "proposeNewImplementation",
      "outputs": [],
      "stateMutability": "nonpayable",
      "type": "function"
    },
    {
      "inputs": [
        {
          "internalType": "bytes32",
          "name": "role",
          "type": "bytes32"
        },
        {
          "internalType": "address",
          "name": "account",
          "type": "address"
        }
      ],
      "name": "renounceRole",
      "outputs": [],
      "stateMutability": "nonpayable",
      "type": "function"
    },
    {
      "inputs": [
        {
          "internalType": "bytes32",
          "name": "role",
          "type": "bytes32"
        },
        {
          "internalType": "address",
          "name": "account",
          "type": "address"
        }
      ],
      "name": "revokeRole",
      "outputs": [],
      "stateMutability": "nonpayable",
      "type": "function"
    },
    {
      "inputs": [
        {
          "internalType": "bytes4",
          "name": "interfaceId",
          "type": "bytes4"
        }
      ],
      "name": "supportsInterface",
      "outputs": [
        {
          "internalType": "bool",
          "name": "",
          "type": "bool"
        }
      ],
      "stateMutability": "view",
      "type": "function"
    },
    {
      "inputs": [],
      "name": "symbol",
      "outputs": [
        {
          "internalType": "string",
          "name": "",
          "type": "string"
        }
      ],
      "stateMutability": "view",
      "type": "function"
    },
    {
      "inputs": [],
      "name": "totalSupply",
      "outputs": [
        {
          "internalType": "uint256",
          "name": "",
          "type": "uint256"
        }
      ],
      "stateMutability": "view",
      "type": "function"
    },
    {
      "inputs": [
        {
          "internalType": "address",
          "name": "recipient",
          "type": "address"
        },
        {
          "internalType": "uint256",
          "name": "amount",
          "type": "uint256"
        }
      ],
      "name": "transfer",
      "outputs": [
        {
          "internalType": "bool",
          "name": "",
          "type": "bool"
        }
      ],
      "stateMutability": "nonpayable",
      "type": "function"
    },
    {
      "inputs": [
        {
          "internalType": "address",
          "name": "sender",
          "type": "address"
        },
        {
          "internalType": "address",
          "name": "recipient",
          "type": "address"
        },
        {
          "internalType": "uint256",
          "name": "amount",
          "type": "uint256"
        }
      ],
      "name": "transferFrom",
      "outputs": [
        {
          "internalType": "bool",
          "name": "",
          "type": "bool"
        }
      ],
      "stateMutability": "nonpayable",
      "type": "function"
    },
    {
      "inputs": [
        {
          "internalType": "address",
          "name": "newImplementation",
          "type": "address"
        }
      ],
      "name": "upgradeTo",
      "outputs": [],
      "stateMutability": "nonpayable",
      "type": "function"
    },
    {
      "inputs": [
        {
          "internalType": "address",
          "name": "newImplementation",
          "type": "address"
        },
        {
          "internalType": "bytes",
          "name": "data",
          "type": "bytes"
        }
      ],
      "name": "upgradeToAndCall",
      "outputs": [],
      "stateMutability": "payable",
      "type": "function"
    }
  ],
  "bytecode": "0x60a06040523060601b60805234801561001757600080fd5b5060805160601c61235b61004b600039600081816109100152818161095001528181610a910152610ad1015261235b6000f3fe6080604052600436106101cd5760003560e01c806347757fb6116100f7578063a217fddf11610095578063d539139311610064578063d53913931461053f578063d547741f14610573578063dd62ed3e14610593578063f36c8f5c146105d957600080fd5b8063a217fddf146104bd578063a457c2d7146104d2578063a9059cbb146104f2578063aaf10f421461051257600080fd5b806370a08231116100d157806370a082311461043257806379cc67901461046857806391d148541461048857806395d89b41146104a857600080fd5b806347757fb6146103df5780634f1ef286146103ff5780636ae459bd1461041257600080fd5b80632f2ff15d1161016f578063395093511161013e578063395093511461035d57806340c10f191461037d57806342966c681461039d57806343ffa64e146103bd57600080fd5b80632f2ff15d146102da578063313ce567146102fa57806336568abe1461031d5780633659cfe61461033d57600080fd5b806318160ddd116101ab57806318160ddd1461024957806323b872dd14610268578063248a9ca314610288578063253279ad146102b857600080fd5b806301ffc9a7146101d257806306fdde0314610207578063095ea7b314610229575b600080fd5b3480156101de57600080fd5b506101f26101ed366004611f40565b6105fb565b60405190151581526020015b60405180910390f35b34801561021357600080fd5b5061021c610632565b6040516101fe919061207f565b34801561023557600080fd5b506101f2610244366004611e6e565b6106c4565b34801561025557600080fd5b506067545b6040519081526020016101fe565b34801561027457600080fd5b506101f2610283366004611dd0565b6106da565b34801561029457600080fd5b5061025a6102a3366004611f04565b600090815260fb602052604090206001015490565b3480156102c457600080fd5b506102d86102d3366004611f6a565b61078b565b005b3480156102e657600080fd5b506102d86102f5366004611f1d565b61085c565b34801561030657600080fd5b506101605460405160ff90911681526020016101fe565b34801561032957600080fd5b506102d8610338366004611f1d565b610887565b34801561034957600080fd5b506102d8610358366004611d82565b610905565b34801561036957600080fd5b506101f2610378366004611e6e565b6109ce565b34801561038957600080fd5b506102d8610398366004611e6e565b610a0a565b3480156103a957600080fd5b506102d86103b8366004611f04565b610a3f565b3480156103c957600080fd5b5061025a6000805160206122bf83398151915281565b3480156103eb57600080fd5b506102d86103fa366004611d82565b610a49565b6102d861040d366004611e0c565b610a86565b34801561041e57600080fd5b506102d861042d366004611e98565b610b3c565b34801561043e57600080fd5b5061025a61044d366004611d82565b6001600160a01b031660009081526065602052604090205490565b34801561047457600080fd5b506102d8610483366004611e6e565b610c1b565b34801561049457600080fd5b506101f26104a3366004611f1d565b610c9c565b3480156104b457600080fd5b5061021c610cc7565b3480156104c957600080fd5b5061025a600081565b3480156104de57600080fd5b506101f26104ed366004611e6e565b610cd6565b3480156104fe57600080fd5b506101f261050d366004611e6e565b610d6f565b34801561051e57600080fd5b50610527610d7c565b6040516001600160a01b0390911681526020016101fe565b34801561054b57600080fd5b5061025a7ff9424f4303d7f03683a025eb8885734ad99b47df7749d9b0a02cbc985809700b81565b34801561057f57600080fd5b506102d861058e366004611f1d565b610d8b565b34801561059f57600080fd5b5061025a6105ae366004611d9d565b6001600160a01b03918216600090815260666020908152604080832093909416825291909152205490565b3480156105e557600080fd5b5061025a6000805160206122df83398151915281565b60006001600160e01b03198216637965db0b60e01b148061062c57506301ffc9a760e01b6001600160e01b03198316145b92915050565b60606068805461064190612226565b80601f016020809104026020016040519081016040528092919081815260200182805461066d90612226565b80156106ba5780601f1061068f576101008083540402835291602001916106ba565b820191906000526020600020905b81548152906001019060200180831161069d57829003601f168201915b5050505050905090565b60006106d1338484610db1565b50600192915050565b60006106e7848484610ed5565b6001600160a01b0384166000908152606660209081526040808320338452909152902054828110156107715760405162461bcd60e51b815260206004820152602860248201527f45524332303a207472616e7366657220616d6f756e74206578636565647320616044820152676c6c6f77616e636560c01b60648201526084015b60405180910390fd5b61077e8533858403610db1565b60019150505b9392505050565b600054610100900460ff166107a65760005460ff16156107aa565b303b155b61080d5760405162461bcd60e51b815260206004820152602e60248201527f496e697469616c697a61626c653a20636f6e747261637420697320616c72656160448201526d191e481a5b9a5d1a585b1a5e995960921b6064820152608401610768565b600054610100900460ff1615801561082f576000805461ffff19166101011790555b61083b858585856110a5565b6108436110e8565b8015610855576000805461ff00191690555b5050505050565b600082815260fb60205260409020600101546108788133611111565b6108828383611175565b505050565b6001600160a01b03811633146108f75760405162461bcd60e51b815260206004820152602f60248201527f416363657373436f6e74726f6c3a2063616e206f6e6c792072656e6f756e636560448201526e103937b632b9903337b91039b2b63360891b6064820152608401610768565b61090182826111fb565b5050565b306001600160a01b037f000000000000000000000000000000000000000000000000000000000000000016141561094e5760405162461bcd60e51b8152600401610768906120b2565b7f00000000000000000000000000000000000000000000000000000000000000006001600160a01b0316610980611262565b6001600160a01b0316146109a65760405162461bcd60e51b8152600401610768906120fe565b6109af81611290565b604080516000808252602082019092526109cb91839190611312565b50565b3360008181526066602090815260408083206001600160a01b038716845290915281205490916106d1918590610a05908690612195565b610db1565b7ff9424f4303d7f03683a025eb8885734ad99b47df7749d9b0a02cbc985809700b610a358133611111565b6108828383611456565b6109cb3382611535565b6000805160206122df833981519152610a628133611111565b5061012d80546001600160a01b0319166001600160a01b0392909216919091179055565b306001600160a01b037f0000000000000000000000000000000000000000000000000000000000000000161415610acf5760405162461bcd60e51b8152600401610768906120b2565b7f00000000000000000000000000000000000000000000000000000000000000006001600160a01b0316610b01611262565b6001600160a01b031614610b275760405162461bcd60e51b8152600401610768906120fe565b610b3082611290565b61090182826001611312565b7ff9424f4303d7f03683a025eb8885734ad99b47df7749d9b0a02cbc985809700b610b678133611111565b838214610bae5760405162461bcd60e51b8152602060048201526015602482015274082e4e4c2f240d8cadccee8d040dad2e6dac2e8c6d605b1b6044820152606401610768565b60005b84811015610c1357610c01868683818110610bce57610bce612292565b9050602002016020810190610be39190611d82565b858584818110610bf557610bf5612292565b90506020020135611456565b80610c0b81612261565b915050610bb1565b505050505050565b6000610c2783336105ae565b905081811015610c855760405162461bcd60e51b8152602060048201526024808201527f45524332303a206275726e20616d6f756e74206578636565647320616c6c6f77604482015263616e636560e01b6064820152608401610768565b610c928333848403610db1565b6108828383611535565b600091825260fb602090815260408084206001600160a01b0393909316845291905290205460ff1690565b60606069805461064190612226565b3360009081526066602090815260408083206001600160a01b038616845290915281205482811015610d585760405162461bcd60e51b815260206004820152602560248201527f45524332303a2064656372656173656420616c6c6f77616e63652062656c6f77604482015264207a65726f60d81b6064820152608401610768565b610d653385858403610db1565b5060019392505050565b60006106d1338484610ed5565b6000610d86611262565b905090565b600082815260fb6020526040902060010154610da78133611111565b61088283836111fb565b6001600160a01b038316610e135760405162461bcd60e51b8152602060048201526024808201527f45524332303a20617070726f76652066726f6d20746865207a65726f206164646044820152637265737360e01b6064820152608401610768565b6001600160a01b038216610e745760405162461bcd60e51b815260206004820152602260248201527f45524332303a20617070726f766520746f20746865207a65726f206164647265604482015261737360f01b6064820152608401610768565b6001600160a01b0383811660008181526066602090815260408083209487168084529482529182902085905590518481527f8c5be1e5ebec7d5bd14f71427d1e84f3dd0314c0f7b2291e5b200ac8c7c3b925910160405180910390a3505050565b6001600160a01b038316610f395760405162461bcd60e51b815260206004820152602560248201527f45524332303a207472616e736665722066726f6d20746865207a65726f206164604482015264647265737360d81b6064820152608401610768565b6001600160a01b038216610f9b5760405162461bcd60e51b815260206004820152602360248201527f45524332303a207472616e7366657220746f20746865207a65726f206164647260448201526265737360e81b6064820152608401610768565b6001600160a01b038316600090815260656020526040902054818110156110135760405162461bcd60e51b815260206004820152602660248201527f45524332303a207472616e7366657220616d6f756e7420657863656564732062604482015265616c616e636560d01b6064820152608401610768565b6001600160a01b0380851660009081526065602052604080822085850390559185168152908120805484929061104a908490612195565b92505081905550826001600160a01b0316846001600160a01b03167fddf252ad1be2c89b69c2b068fc378daa952ba7f163c4a11628f55a4df523b3ef8460405161109691815260200190565b60405180910390a35b50505050565b600054610100900460ff166110cc5760405162461bcd60e51b81526004016107689061214a565b6110d4611683565b6110de84846116da565b61109f8282611728565b600054610100900460ff1661110f5760405162461bcd60e51b81526004016107689061214a565b565b61111b8282610c9c565b61090157611133816001600160a01b03166014611769565b61113e836020611769565b60405160200161114f92919061200a565b60408051601f198184030181529082905262461bcd60e51b82526107689160040161207f565b61117f8282610c9c565b61090157600082815260fb602090815260408083206001600160a01b03851684529091529020805460ff191660011790556111b73390565b6001600160a01b0316816001600160a01b0316837f2f8788117e7eff1d82e926ec794901d17c78024a50270940304540a733656f0d60405160405180910390a45050565b6112058282610c9c565b1561090157600082815260fb602090815260408083206001600160a01b0385168085529252808320805460ff1916905551339285917ff6391f5c32d9c69d2a47ea670b442974b53935d1edc7fd64eb21e047a839171b9190a45050565b7f360894a13ba1a3210667c828492db98dca3e2076cc3735a920a3ca505d382bbc546001600160a01b031690565b6112a86000805160206122df83398151915233610c9c565b806112c657506112c66000805160206122bf83398151915233610c9c565b6109cb5760405162461bcd60e51b815260206004820152601d60248201527f4552524f523a2041646472657373206e6f7420617574686f72697a65640000006044820152606401610768565b600061131c611262565b905061132784611905565b6000835111806113345750815b156113455761134384846119aa565b505b7f4910fdfa16fed3260ed0e7147f7cc6da11a60208b5b9406d12a635614ffd9143805460ff1661085557805460ff191660011781556040516001600160a01b03831660248201526113c490869060440160408051601f198184030181529190526020810180516001600160e01b0316631b2ce7f360e11b1790526119aa565b50805460ff191681556113d5611262565b6001600160a01b0316826001600160a01b03161461144d5760405162461bcd60e51b815260206004820152602f60248201527f45524331393637557067726164653a207570677261646520627265616b73206660448201526e75727468657220757067726164657360881b6064820152608401610768565b61085585611a95565b6001600160a01b0382166114ac5760405162461bcd60e51b815260206004820152601f60248201527f45524332303a206d696e7420746f20746865207a65726f2061646472657373006044820152606401610768565b80606760008282546114be9190612195565b90915550506001600160a01b038216600090815260656020526040812080548392906114eb908490612195565b90915550506040518181526001600160a01b038316906000907fddf252ad1be2c89b69c2b068fc378daa952ba7f163c4a11628f55a4df523b3ef9060200160405180910390a35050565b6001600160a01b0382166115955760405162461bcd60e51b815260206004820152602160248201527f45524332303a206275726e2066726f6d20746865207a65726f206164647265736044820152607360f81b6064820152608401610768565b6001600160a01b038216600090815260656020526040902054818110156116095760405162461bcd60e51b815260206004820152602260248201527f45524332303a206275726e20616d6f756e7420657863656564732062616c616e604482015261636560f01b6064820152608401610768565b6001600160a01b03831660009081526065602052604081208383039055606780548492906116389084906121cc565b90915550506040518281526000906001600160a01b038516907fddf252ad1be2c89b69c2b068fc378daa952ba7f163c4a11628f55a4df523b3ef9060200160405180910390a3505050565b600054610100900460ff166116aa5760405162461bcd60e51b81526004016107689061214a565b6116b26110e8565b6116ba6110e8565b6116c26110e8565b6116ca6110e8565b6116d26110e8565b61110f611ad5565b600054610100900460ff166117015760405162461bcd60e51b81526004016107689061214a565b8151611714906068906020850190611beb565b508051610882906069906020840190611beb565b600054610100900460ff1661174f5760405162461bcd60e51b81526004016107689061214a565b610160805460ff191660ff84161790556109013382611456565b606060006117788360026121ad565b611783906002612195565b67ffffffffffffffff81111561179b5761179b6122a8565b6040519080825280601f01601f1916602001820160405280156117c5576020820181803683370190505b509050600360fc1b816000815181106117e0576117e0612292565b60200101906001600160f81b031916908160001a905350600f60fb1b8160018151811061180f5761180f612292565b60200101906001600160f81b031916908160001a90535060006118338460026121ad565b61183e906001612195565b90505b60018111156118b6576f181899199a1a9b1b9c1cb0b131b232b360811b85600f166010811061187257611872612292565b1a60f81b82828151811061188857611888612292565b60200101906001600160f81b031916908160001a90535060049490941c936118af8161220f565b9050611841565b5083156107845760405162461bcd60e51b815260206004820181905260248201527f537472696e67733a20686578206c656e67746820696e73756666696369656e746044820152606401610768565b803b6119695760405162461bcd60e51b815260206004820152602d60248201527f455243313936373a206e657720696d706c656d656e746174696f6e206973206e60448201526c1bdd08184818dbdb9d1c9858dd609a1b6064820152608401610768565b7f360894a13ba1a3210667c828492db98dca3e2076cc3735a920a3ca505d382bbc80546001600160a01b0319166001600160a01b0392909216919091179055565b6060823b611a095760405162461bcd60e51b815260206004820152602660248201527f416464726573733a2064656c65676174652063616c6c20746f206e6f6e2d636f6044820152651b9d1c9858dd60d21b6064820152608401610768565b600080846001600160a01b031684604051611a249190611fee565b600060405180830381855af49150503d8060008114611a5f576040519150601f19603f3d011682016040523d82523d6000602084013e611a64565b606091505b5091509150611a8c82826040518060600160405280602781526020016122ff60279139611b5d565b95945050505050565b611a9e81611905565b6040516001600160a01b038216907fbc7cd75a20ee27fd9adebab32041f755214dbc6bffa90cc0225b39da2e5c2d3b90600090a250565b600054610100900460ff16611afc5760405162461bcd60e51b81526004016107689061214a565b611b07600033611b96565b611b1f6000805160206122df83398151915233611b96565b611b376000805160206122bf83398151915233611b96565b61110f6000805160206122bf8339815191526000805160206122df833981519152611ba0565b60608315611b6c575081610784565b825115611b7c5782518084602001fd5b8160405162461bcd60e51b8152600401610768919061207f565b6109018282611175565b600082815260fb6020526040808220600101805490849055905190918391839186917fbd79b86ffe0ab8e8776151514217cd7cacd52c909f66475c3af44e129f0b00ff9190a4505050565b828054611bf790612226565b90600052602060002090601f016020900481019282611c195760008555611c5f565b82601f10611c3257805160ff1916838001178555611c5f565b82800160010185558215611c5f579182015b82811115611c5f578251825591602001919060010190611c44565b50611c6b929150611c6f565b5090565b5b80821115611c6b5760008155600101611c70565b600067ffffffffffffffff80841115611c9f57611c9f6122a8565b604051601f8501601f19908116603f01168101908282118183101715611cc757611cc76122a8565b81604052809350858152868686011115611ce057600080fd5b858560208301376000602087830101525050509392505050565b80356001600160a01b0381168114611d1157600080fd5b919050565b60008083601f840112611d2857600080fd5b50813567ffffffffffffffff811115611d4057600080fd5b6020830191508360208260051b8501011115611d5b57600080fd5b9250929050565b600082601f830112611d7357600080fd5b61078483833560208501611c84565b600060208284031215611d9457600080fd5b61078482611cfa565b60008060408385031215611db057600080fd5b611db983611cfa565b9150611dc760208401611cfa565b90509250929050565b600080600060608486031215611de557600080fd5b611dee84611cfa565b9250611dfc60208501611cfa565b9150604084013590509250925092565b60008060408385031215611e1f57600080fd5b611e2883611cfa565b9150602083013567ffffffffffffffff811115611e4457600080fd5b8301601f81018513611e5557600080fd5b611e6485823560208401611c84565b9150509250929050565b60008060408385031215611e8157600080fd5b611e8a83611cfa565b946020939093013593505050565b60008060008060408587031215611eae57600080fd5b843567ffffffffffffffff80821115611ec657600080fd5b611ed288838901611d16565b90965094506020870135915080821115611eeb57600080fd5b50611ef887828801611d16565b95989497509550505050565b600060208284031215611f1657600080fd5b5035919050565b60008060408385031215611f3057600080fd5b82359150611dc760208401611cfa565b600060208284031215611f5257600080fd5b81356001600160e01b03198116811461078457600080fd5b60008060008060808587031215611f8057600080fd5b843567ffffffffffffffff80821115611f9857600080fd5b611fa488838901611d62565b95506020870135915080821115611fba57600080fd5b50611fc787828801611d62565b935050604085013560ff81168114611fde57600080fd5b9396929550929360600135925050565b600082516120008184602087016121e3565b9190910192915050565b7f416363657373436f6e74726f6c3a206163636f756e74200000000000000000008152600083516120428160178501602088016121e3565b7001034b99036b4b9b9b4b733903937b6329607d1b60179184019182015283516120738160288401602088016121e3565b01602801949350505050565b602081526000825180602084015261209e8160408501602087016121e3565b601f01601f19169190910160400192915050565b6020808252602c908201527f46756e6374696f6e206d7573742062652063616c6c6564207468726f7567682060408201526b19195b1959d85d1958d85b1b60a21b606082015260800190565b6020808252602c908201527f46756e6374696f6e206d7573742062652063616c6c6564207468726f7567682060408201526b6163746976652070726f787960a01b606082015260800190565b6020808252602b908201527f496e697469616c697a61626c653a20636f6e7472616374206973206e6f74206960408201526a6e697469616c697a696e6760a81b606082015260800190565b600082198211156121a8576121a861227c565b500190565b60008160001904831182151516156121c7576121c761227c565b500290565b6000828210156121de576121de61227c565b500390565b60005b838110156121fe5781810151838201526020016121e6565b8381111561109f5750506000910152565b60008161221e5761221e61227c565b506000190190565b600181811c9082168061223a57607f821691505b6020821081141561225b57634e487b7160e01b600052602260045260246000fd5b50919050565b60006000198214156122755761227561227c565b5060010190565b634e487b7160e01b600052601160045260246000fd5b634e487b7160e01b600052603260045260246000fd5b634e487b7160e01b600052604160045260246000fdfea76ace73a908083d89af9ff88e5b4f7cadb3591a80631063f68b695fda726db571840dc4906352362b0cdaf79870196c8e42acafade72d5d5a6d59291253ceb1416464726573733a206c6f772d6c6576656c2064656c65676174652063616c6c206661696c6564a2646970667358221220600d7371c37f9902b92965ad7f32d37bf114225c72f94d9edcafb0438d2c925264736f6c63430008060033",
  "linkReferences": {},
  "deployedLinkReferences": {}
}