{
  "_format": "hh-sol-artifact-1",
  "name": "BurnMintSnapshotTemplate",
  "initializer": "function initialize(string name_, string symbol_, uint8 decimals_, uint256 amount_)",
  "sourceName": "contracts/templates/BurnMintSnapshotTemplate.sol",
  "abi": [
    {
      "anonymous": false,
      "inputs": [
        {
          "indexed": false,
          "internalType": "address",
          "name": "previousAdmin",
          "type": "address"
        },
        {
          "indexed": false,
          "internalType": "address",
          "name": "newAdmin",
          "type": "address"
        }
      ],
      "name": "AdminChanged",
      "type": "event"
    },
    {
      "anonymous": false,
      "inputs": [
        {
          "indexed": true,
          "internalType": "address",
          "name": "owner",
          "type": "address"
        },
        {
          "indexed": true,
          "internalType": "address",
          "name": "spender",
          "type": "address"
        },
        {
          "indexed": false,
          "internalType": "uint256",
          "name": "value",
          "type": "uint256"
        }
      ],
      "name": "Approval",
      "type": "event"
    },
    {
      "anonymous": false,
      "inputs": [
        {
          "indexed": true,
          "internalType": "address",
          "name": "beacon",
          "type": "address"
        }
      ],
      "name": "BeaconUpgraded",
      "type": "event"
    },
    {
      "anonymous": false,
      "inputs": [
        {
          "indexed": true,
          "internalType": "bytes32",
          "name": "role",
          "type": "bytes32"
        },
        {
          "indexed": true,
          "internalType": "bytes32",
          "name": "previousAdminRole",
          "type": "bytes32"
        },
        {
          "indexed": true,
          "internalType": "bytes32",
          "name": "newAdminRole",
          "type": "bytes32"
        }
      ],
      "name": "RoleAdminChanged",
      "type": "event"
    },
    {
      "anonymous": false,
      "inputs": [
        {
          "indexed": true,
          "internalType": "bytes32",
          "name": "role",
          "type": "bytes32"
        },
        {
          "indexed": true,
          "internalType": "address",
          "name": "account",
          "type": "address"
        },
        {
          "indexed": true,
          "internalType": "address",
          "name": "sender",
          "type": "address"
        }
      ],
      "name": "RoleGranted",
      "type": "event"
    },
    {
      "anonymous": false,
      "inputs": [
        {
          "indexed": true,
          "internalType": "bytes32",
          "name": "role",
          "type": "bytes32"
        },
        {
          "indexed": true,
          "internalType": "address",
          "name": "account",
          "type": "address"
        },
        {
          "indexed": true,
          "internalType": "address",
          "name": "sender",
          "type": "address"
        }
      ],
      "name": "RoleRevoked",
      "type": "event"
    },
    {
      "anonymous": false,
      "inputs": [
        {
          "indexed": false,
          "internalType": "uint256",
          "name": "id",
          "type": "uint256"
        }
      ],
      "name": "Snapshot",
      "type": "event"
    },
    {
      "anonymous": false,
      "inputs": [
        {
          "indexed": true,
          "internalType": "address",
          "name": "from",
          "type": "address"
        },
        {
          "indexed": true,
          "internalType": "address",
          "name": "to",
          "type": "address"
        },
        {
          "indexed": false,
          "internalType": "uint256",
          "name": "value",
          "type": "uint256"
        }
      ],
      "name": "Transfer",
      "type": "event"
    },
    {
      "anonymous": false,
      "inputs": [
        {
          "indexed": true,
          "internalType": "address",
          "name": "implementation",
          "type": "address"
        }
      ],
      "name": "Upgraded",
      "type": "event"
    },
    {
      "inputs": [],
      "name": "DEFAULT_ADMIN_ROLE",
      "outputs": [
        {
          "internalType": "bytes32",
          "name": "",
          "type": "bytes32"
        }
      ],
      "stateMutability": "view",
      "type": "function"
    },
    {
      "inputs": [],
      "name": "GOVERNANCE_ROLE",
      "outputs": [
        {
          "internalType": "bytes32",
          "name": "",
          "type": "bytes32"
        }
      ],
      "stateMutability": "view",
      "type": "function"
    },
    {
      "inputs": [],
      "name": "MINTER_ROLE",
      "outputs": [
        {
          "internalType": "bytes32",
          "name": "",
          "type": "bytes32"
        }
      ],
      "stateMutability": "view",
      "type": "function"
    },
    {
      "inputs": [],
      "name": "UPGRADE_MANAGER_ROLE",
      "outputs": [
        {
          "internalType": "bytes32",
          "name": "",
          "type": "bytes32"
        }
      ],
      "stateMutability": "view",
      "type": "function"
    },
    {
      "inputs": [
        {
          "internalType": "address",
          "name": "owner",
          "type": "address"
        },
        {
          "internalType": "address",
          "name": "spender",
          "type": "address"
        }
      ],
      "name": "allowance",
      "outputs": [
        {
          "internalType": "uint256",
          "name": "",
          "type": "uint256"
        }
      ],
      "stateMutability": "view",
      "type": "function"
    },
    {
      "inputs": [
        {
          "internalType": "address",
          "name": "spender",
          "type": "address"
        },
        {
          "internalType": "uint256",
          "name": "amount",
          "type": "uint256"
        }
      ],
      "name": "approve",
      "outputs": [
        {
          "internalType": "bool",
          "name": "",
          "type": "bool"
        }
      ],
      "stateMutability": "nonpayable",
      "type": "function"
    },
    {
      "inputs": [
        {
          "internalType": "address",
          "name": "account",
          "type": "address"
        }
      ],
      "name": "balanceOf",
      "outputs": [
        {
          "internalType": "uint256",
          "name": "",
          "type": "uint256"
        }
      ],
      "stateMutability": "view",
      "type": "function"
    },
    {
      "inputs": [
        {
          "internalType": "address",
          "name": "account",
          "type": "address"
        },
        {
          "internalType": "uint256",
          "name": "snapshotId",
          "type": "uint256"
        }
      ],
      "name": "balanceOfAt",
      "outputs": [
        {
          "internalType": "uint256",
          "name": "",
          "type": "uint256"
        }
      ],
      "stateMutability": "view",
      "type": "function"
    },
    {
      "inputs": [
        {
          "internalType": "address[]",
          "name": "accounts",
          "type": "address[]"
        },
        {
          "internalType": "uint256[]",
          "name": "amounts",
          "type": "uint256[]"
        }
      ],
      "name": "bulkMint",
      "outputs": [],
      "stateMutability": "nonpayable",
      "type": "function"
    },
    {
      "inputs": [
        {
          "internalType": "uint256",
          "name": "amount",
          "type": "uint256"
        }
      ],
      "name": "burn",
      "outputs": [],
      "stateMutability": "nonpayable",
      "type": "function"
    },
    {
      "inputs": [
        {
          "internalType": "address",
          "name": "account",
          "type": "address"
        },
        {
          "internalType": "uint256",
          "name": "amount",
          "type": "uint256"
        }
      ],
      "name": "burnFrom",
      "outputs": [],
      "stateMutability": "nonpayable",
      "type": "function"
    },
    {
      "inputs": [],
      "name": "decimals",
      "outputs": [
        {
          "internalType": "uint8",
          "name": "",
          "type": "uint8"
        }
      ],
      "stateMutability": "view",
      "type": "function"
    },
    {
      "inputs": [
        {
          "internalType": "address",
          "name": "spender",
          "type": "address"
        },
        {
          "internalType": "uint256",
          "name": "subtractedValue",
          "type": "uint256"
        }
      ],
      "name": "decreaseAllowance",
      "outputs": [
        {
          "internalType": "bool",
          "name": "",
          "type": "bool"
        }
      ],
      "stateMutability": "nonpayable",
      "type": "function"
    },
    {
      "inputs": [],
      "name": "getCurrentSnapshotId",
      "outputs": [
        {
          "internalType": "uint256",
          "name": "",
          "type": "uint256"
        }
      ],
      "stateMutability": "view",
      "type": "function"
    },
    {
      "inputs": [],
      "name": "getImplementation",
      "outputs": [
        {
          "internalType": "address",
          "name": "",
          "type": "address"
        }
      ],
      "stateMutability": "view",
      "type": "function"
    },
    {
      "inputs": [
        {
          "internalType": "bytes32",
          "name": "role",
          "type": "bytes32"
        }
      ],
      "name": "getRoleAdmin",
      "outputs": [
        {
          "internalType": "bytes32",
          "name": "",
          "type": "bytes32"
        }
      ],
      "stateMutability": "view",
      "type": "function"
    },
    {
      "inputs": [
        {
          "internalType": "bytes32",
          "name": "role",
          "type": "bytes32"
        },
        {
          "internalType": "address",
          "name": "account",
          "type": "address"
        }
      ],
      "name": "grantRole",
      "outputs": [],
      "stateMutability": "nonpayable",
      "type": "function"
    },
    {
      "inputs": [
        {
          "internalType": "bytes32",
          "name": "role",
          "type": "bytes32"
        },
        {
          "internalType": "address",
          "name": "account",
          "type": "address"
        }
      ],
      "name": "hasRole",
      "outputs": [
        {
          "internalType": "bool",
          "name": "",
          "type": "bool"
        }
      ],
      "stateMutability": "view",
      "type": "function"
    },
    {
      "inputs": [
        {
          "internalType": "address",
          "name": "spender",
          "type": "address"
        },
        {
          "internalType": "uint256",
          "name": "addedValue",
          "type": "uint256"
        }
      ],
      "name": "increaseAllowance",
      "outputs": [
        {
          "internalType": "bool",
          "name": "",
          "type": "bool"
        }
      ],
      "stateMutability": "nonpayable",
      "type": "function"
    },
    {
      "inputs": [
        {
          "internalType": "string",
          "name": "name_",
          "type": "string"
        },
        {
          "internalType": "string",
          "name": "symbol_",
          "type": "string"
        },
        {
          "internalType": "uint8",
          "name": "decimals_",
          "type": "uint8"
        },
        {
          "internalType": "uint256",
          "name": "amount_",
          "type": "uint256"
        }
      ],
      "name": "initialize",
      "outputs": [],
      "stateMutability": "nonpayable",
      "type": "function"
    },
    {
      "inputs": [
        {
          "internalType": "address",
          "name": "account",
          "type": "address"
        },
        {
          "internalType": "uint256",
          "name": "amount",
          "type": "uint256"
        }
      ],
      "name": "mint",
      "outputs": [],
      "stateMutability": "nonpayable",
      "type": "function"
    },
    {
      "inputs": [],
      "name": "name",
      "outputs": [
        {
          "internalType": "string",
          "name": "",
          "type": "string"
        }
      ],
      "stateMutability": "view",
      "type": "function"
    },
    {
      "inputs": [
        {
          "internalType": "address",
          "name": "implementationAddress",
          "type": "address"
        }
      ],
      "name": "proposeNewImplementation",
      "outputs": [],
      "stateMutability": "nonpayable",
      "type": "function"
    },
    {
      "inputs": [
        {
          "internalType": "bytes32",
          "name": "role",
          "type": "bytes32"
        },
        {
          "internalType": "address",
          "name": "account",
          "type": "address"
        }
      ],
      "name": "renounceRole",
      "outputs": [],
      "stateMutability": "nonpayable",
      "type": "function"
    },
    {
      "inputs": [
        {
          "internalType": "bytes32",
          "name": "role",
          "type": "bytes32"
        },
        {
          "internalType": "address",
          "name": "account",
          "type": "address"
        }
      ],
      "name": "revokeRole",
      "outputs": [],
      "stateMutability": "nonpayable",
      "type": "function"
    },
    {
      "inputs": [],
      "name": "snapshot",
      "outputs": [],
      "stateMutability": "nonpayable",
      "type": "function"
    },
    {
      "inputs": [
        {
          "internalType": "bytes4",
          "name": "interfaceId",
          "type": "bytes4"
        }
      ],
      "name": "supportsInterface",
      "outputs": [
        {
          "internalType": "bool",
          "name": "",
          "type": "bool"
        }
      ],
      "stateMutability": "view",
      "type": "function"
    },
    {
      "inputs": [],
      "name": "symbol",
      "outputs": [
        {
          "internalType": "string",
          "name": "",
          "type": "string"
        }
      ],
      "stateMutability": "view",
      "type": "function"
    },
    {
      "inputs": [],
      "name": "totalSupply",
      "outputs": [
        {
          "internalType": "uint256",
          "name": "",
          "type": "uint256"
        }
      ],
      "stateMutability": "view",
      "type": "function"
    },
    {
      "inputs": [
        {
          "internalType": "uint256",
          "name": "snapshotId",
          "type": "uint256"
        }
      ],
      "name": "totalSupplyAt",
      "outputs": [
        {
          "internalType": "uint256",
          "name": "",
          "type": "uint256"
        }
      ],
      "stateMutability": "view",
      "type": "function"
    },
    {
      "inputs": [
        {
          "internalType": "address",
          "name": "recipient",
          "type": "address"
        },
        {
          "internalType": "uint256",
          "name": "amount",
          "type": "uint256"
        }
      ],
      "name": "transfer",
      "outputs": [
        {
          "internalType": "bool",
          "name": "",
          "type": "bool"
        }
      ],
      "stateMutability": "nonpayable",
      "type": "function"
    },
    {
      "inputs": [
        {
          "internalType": "address",
          "name": "sender",
          "type": "address"
        },
        {
          "internalType": "address",
          "name": "recipient",
          "type": "address"
        },
        {
          "internalType": "uint256",
          "name": "amount",
          "type": "uint256"
        }
      ],
      "name": "transferFrom",
      "outputs": [
        {
          "internalType": "bool",
          "name": "",
          "type": "bool"
        }
      ],
      "stateMutability": "nonpayable",
      "type": "function"
    },
    {
      "inputs": [
        {
          "internalType": "address",
          "name": "newImplementation",
          "type": "address"
        }
      ],
      "name": "upgradeTo",
      "outputs": [],
      "stateMutability": "nonpayable",
      "type": "function"
    },
    {
      "inputs": [
        {
          "internalType": "address",
          "name": "newImplementation",
          "type": "address"
        },
        {
          "internalType": "bytes",
          "name": "data",
          "type": "bytes"
        }
      ],
      "name": "upgradeToAndCall",
      "outputs": [],
      "stateMutability": "payable",
      "type": "function"
    }
  ],
  "bytecode": "0x60a06040523060601b60805234801561001757600080fd5b5060805160601c6129eb61004b600039600081816109a6015281816109e601528181610bcc0152610c0c01526129eb6000f3fe6080604052600436106101f95760003560e01c80634f1ef2861161010d578063981b24d0116100a0578063aaf10f421161006f578063aaf10f42146105a8578063d5391393146105d5578063d547741f14610609578063dd62ed3e14610629578063f36c8f5c1461066f57600080fd5b8063981b24d014610533578063a217fddf14610553578063a457c2d714610568578063a9059cbb1461058857600080fd5b806379cc6790116100dc57806379cc6790146104c957806391d14854146104e957806395d89b41146105095780639711715a1461051e57600080fd5b80634f1ef2861461044b5780635439ad861461045e5780636ae459bd1461047357806370a082311461049357600080fd5b8063313ce5671161019057806340c10f191161015f57806340c10f19146103a957806342966c68146103c957806343ffa64e146103e957806347757fb61461040b5780634ee2cd7e1461042b57600080fd5b8063313ce5671461032657806336568abe146103495780633659cfe614610369578063395093511461038957600080fd5b806323b872dd116101cc57806323b872dd14610294578063248a9ca3146102b4578063253279ad146102e45780632f2ff15d1461030657600080fd5b806301ffc9a7146101fe57806306fdde0314610233578063095ea7b31461025557806318160ddd14610275575b600080fd5b34801561020a57600080fd5b5061021e610219366004612594565b610691565b60405190151581526020015b60405180910390f35b34801561023f57600080fd5b506102486106c8565b60405161022a91906126d3565b34801561026157600080fd5b5061021e6102703660046124c2565b61075a565b34801561028157600080fd5b506067545b60405190815260200161022a565b3480156102a057600080fd5b5061021e6102af366004612424565b610770565b3480156102c057600080fd5b506102866102cf366004612558565b600090815260fb602052604090206001015490565b3480156102f057600080fd5b506103046102ff3660046125be565b610821565b005b34801561031257600080fd5b50610304610321366004612571565b6108f2565b34801561033257600080fd5b506101605460405160ff909116815260200161022a565b34801561035557600080fd5b50610304610364366004612571565b61091d565b34801561037557600080fd5b506103046103843660046123d6565b61099b565b34801561039557600080fd5b5061021e6103a43660046124c2565b610a64565b3480156103b557600080fd5b506103046103c43660046124c2565b610aa0565b3480156103d557600080fd5b506103046103e4366004612558565b610ad5565b3480156103f557600080fd5b5061028660008051602061292f83398151915281565b34801561041757600080fd5b506103046104263660046123d6565b610adf565b34801561043757600080fd5b506102866104463660046124c2565b610b1c565b610304610459366004612460565b610bc1565b34801561046a57600080fd5b50610286610c77565b34801561047f57600080fd5b5061030461048e3660046124ec565b610c94565b34801561049f57600080fd5b506102866104ae3660046123d6565b6001600160a01b031660009081526065602052604090205490565b3480156104d557600080fd5b506103046104e43660046124c2565b610d73565b3480156104f557600080fd5b5061021e610504366004612571565b610df4565b34801561051557600080fd5b50610248610e1f565b34801561052a57600080fd5b50610304610e2e565b34801561053f57600080fd5b5061028661054e366004612558565b610e36565b34801561055f57600080fd5b50610286600081565b34801561057457600080fd5b5061021e6105833660046124c2565b610ea1565b34801561059457600080fd5b5061021e6105a33660046124c2565b610f3a565b3480156105b457600080fd5b506105bd610f47565b6040516001600160a01b03909116815260200161022a565b3480156105e157600080fd5b506102867ff9424f4303d7f03683a025eb8885734ad99b47df7749d9b0a02cbc985809700b81565b34801561061557600080fd5b50610304610624366004612571565b610f51565b34801561063557600080fd5b506102866106443660046123f1565b6001600160a01b03918216600090815260666020908152604080832093909416825291909152205490565b34801561067b57600080fd5b5061028660008051602061294f83398151915281565b60006001600160e01b03198216637965db0b60e01b14806106c257506301ffc9a760e01b6001600160e01b03198316145b92915050565b6060606880546106d79061289c565b80601f01602080910402602001604051908101604052809291908181526020018280546107039061289c565b80156107505780601f1061072557610100808354040283529160200191610750565b820191906000526020600020905b81548152906001019060200180831161073357829003601f168201915b5050505050905090565b6000610767338484610f77565b50600192915050565b600061077d84848461109b565b6001600160a01b0384166000908152606660209081526040808320338452909152902054828110156108075760405162461bcd60e51b815260206004820152602860248201527f45524332303a207472616e7366657220616d6f756e74206578636565647320616044820152676c6c6f77616e636560c01b60648201526084015b60405180910390fd5b6108148533858403610f77565b60019150505b9392505050565b600054610100900460ff1661083c5760005460ff1615610840565b303b155b6108a35760405162461bcd60e51b815260206004820152602e60248201527f496e697469616c697a61626c653a20636f6e747261637420697320616c72656160448201526d191e481a5b9a5d1a585b1a5e995960921b60648201526084016107fe565b600054610100900460ff161580156108c5576000805461ffff19166101011790555b6108d185858585611276565b6108d96112b9565b80156108eb576000805461ff00191690555b5050505050565b600082815260fb602052604090206001015461090e81336112e2565b6109188383611346565b505050565b6001600160a01b038116331461098d5760405162461bcd60e51b815260206004820152602f60248201527f416363657373436f6e74726f6c3a2063616e206f6e6c792072656e6f756e636560448201526e103937b632b9903337b91039b2b63360891b60648201526084016107fe565b61099782826113cc565b5050565b306001600160a01b037f00000000000000000000000000000000000000000000000000000000000000001614156109e45760405162461bcd60e51b81526004016107fe90612706565b7f00000000000000000000000000000000000000000000000000000000000000006001600160a01b0316610a16611433565b6001600160a01b031614610a3c5760405162461bcd60e51b81526004016107fe90612752565b610a4581611461565b60408051600080825260208201909252610a61918391906114e3565b50565b3360008181526066602090815260408083206001600160a01b03871684529091528120549091610767918590610a9b9086906127e9565b610f77565b7ff9424f4303d7f03683a025eb8885734ad99b47df7749d9b0a02cbc985809700b610acb81336112e2565b6109188383611627565b610a613382611712565b60008051602061294f833981519152610af881336112e2565b5061012d80546001600160a01b0319166001600160a01b0392909216919091179055565b604080516001600160a01b0384166020808301919091527ffbf1c7065455eb4486649b8540f24ef2dd4ebedf2aa423f0039d17c2c75dea15828401528251808303840181526060909201909252805191012060009081610b7d8260016127e9565b9050600080610b8d86858561186c565b9150915081610bb4576001600160a01b038716600090815260656020526040902054610bb6565b805b979650505050505050565b306001600160a01b037f0000000000000000000000000000000000000000000000000000000000000000161415610c0a5760405162461bcd60e51b81526004016107fe90612706565b7f00000000000000000000000000000000000000000000000000000000000000006001600160a01b0316610c3c611433565b6001600160a01b031614610c625760405162461bcd60e51b81526004016107fe90612752565b610c6b82611461565b610997828260016114e3565b6000610c8f6000805160206129968339815191525490565b905090565b7ff9424f4303d7f03683a025eb8885734ad99b47df7749d9b0a02cbc985809700b610cbf81336112e2565b838214610d065760405162461bcd60e51b8152602060048201526015602482015274082e4e4c2f240d8cadccee8d040dad2e6dac2e8c6d605b1b60448201526064016107fe565b60005b84811015610d6b57610d59868683818110610d2657610d26612902565b9050602002016020810190610d3b91906123d6565b858584818110610d4d57610d4d612902565b90506020020135611627565b80610d63816128d1565b915050610d09565b505050505050565b6000610d7f8333610644565b905081811015610ddd5760405162461bcd60e51b8152602060048201526024808201527f45524332303a206275726e20616d6f756e74206578636565647320616c6c6f77604482015263616e636560e01b60648201526084016107fe565b610dea8333848403610f77565b6109188383611712565b600091825260fb602090815260408084206001600160a01b0393909316845291905290205460ff1690565b6060606980546106d79061289c565b610a61611957565b6000806000610e86847f286a9db37a0f8ddcbcee127c9f4f56031230f49cb46786f87e166d552e11f67e7ffcaa8bb100d3c5b627eac0369cc1d2778dbeffa2993d08f039fb27795729e9a561186c565b9150915081610e9757606754610e99565b805b949350505050565b3360009081526066602090815260408083206001600160a01b038616845290915281205482811015610f235760405162461bcd60e51b815260206004820152602560248201527f45524332303a2064656372656173656420616c6c6f77616e63652062656c6f77604482015264207a65726f60d81b60648201526084016107fe565b610f303385858403610f77565b5060019392505050565b600061076733848461109b565b6000610c8f611433565b600082815260fb6020526040902060010154610f6d81336112e2565b61091883836113cc565b6001600160a01b038316610fd95760405162461bcd60e51b8152602060048201526024808201527f45524332303a20617070726f76652066726f6d20746865207a65726f206164646044820152637265737360e01b60648201526084016107fe565b6001600160a01b03821661103a5760405162461bcd60e51b815260206004820152602260248201527f45524332303a20617070726f766520746f20746865207a65726f206164647265604482015261737360f01b60648201526084016107fe565b6001600160a01b0383811660008181526066602090815260408083209487168084529482529182902085905590518481527f8c5be1e5ebec7d5bd14f71427d1e84f3dd0314c0f7b2291e5b200ac8c7c3b925910160405180910390a3505050565b6001600160a01b0383166110ff5760405162461bcd60e51b815260206004820152602560248201527f45524332303a207472616e736665722066726f6d20746865207a65726f206164604482015264647265737360d81b60648201526084016107fe565b6001600160a01b0382166111615760405162461bcd60e51b815260206004820152602360248201527f45524332303a207472616e7366657220746f20746865207a65726f206164647260448201526265737360e81b60648201526084016107fe565b61116c8383836119c7565b6001600160a01b038316600090815260656020526040902054818110156111e45760405162461bcd60e51b815260206004820152602660248201527f45524332303a207472616e7366657220616d6f756e7420657863656564732062604482015265616c616e636560d01b60648201526084016107fe565b6001600160a01b0380851660009081526065602052604080822085850390559185168152908120805484929061121b9084906127e9565b92505081905550826001600160a01b0316846001600160a01b03167fddf252ad1be2c89b69c2b068fc378daa952ba7f163c4a11628f55a4df523b3ef8460405161126791815260200190565b60405180910390a35b50505050565b600054610100900460ff1661129d5760405162461bcd60e51b81526004016107fe9061279e565b6112a56119dd565b6112af8484611a34565b6112708282611a82565b600054610100900460ff166112e05760405162461bcd60e51b81526004016107fe9061279e565b565b6112ec8282610df4565b61099757611304816001600160a01b03166014611ac3565b61130f836020611ac3565b60405160200161132092919061265e565b60408051601f198184030181529082905262461bcd60e51b82526107fe916004016126d3565b6113508282610df4565b61099757600082815260fb602090815260408083206001600160a01b03851684529091529020805460ff191660011790556113883390565b6001600160a01b0316816001600160a01b0316837f2f8788117e7eff1d82e926ec794901d17c78024a50270940304540a733656f0d60405160405180910390a45050565b6113d68282610df4565b1561099757600082815260fb602090815260408083206001600160a01b0385168085529252808320805460ff1916905551339285917ff6391f5c32d9c69d2a47ea670b442974b53935d1edc7fd64eb21e047a839171b9190a45050565b7f360894a13ba1a3210667c828492db98dca3e2076cc3735a920a3ca505d382bbc546001600160a01b031690565b61147960008051602061294f83398151915233610df4565b80611497575061149760008051602061292f83398151915233610df4565b610a615760405162461bcd60e51b815260206004820152601d60248201527f4552524f523a2041646472657373206e6f7420617574686f72697a656400000060448201526064016107fe565b60006114ed611433565b90506114f884611c5f565b6000835111806115055750815b15611516576115148484611d04565b505b7f4910fdfa16fed3260ed0e7147f7cc6da11a60208b5b9406d12a635614ffd9143805460ff166108eb57805460ff191660011781556040516001600160a01b038316602482015261159590869060440160408051601f198184030181529190526020810180516001600160e01b0316631b2ce7f360e11b179052611d04565b50805460ff191681556115a6611433565b6001600160a01b0316826001600160a01b03161461161e5760405162461bcd60e51b815260206004820152602f60248201527f45524331393637557067726164653a207570677261646520627265616b73206660448201526e75727468657220757067726164657360881b60648201526084016107fe565b6108eb85611def565b6001600160a01b03821661167d5760405162461bcd60e51b815260206004820152601f60248201527f45524332303a206d696e7420746f20746865207a65726f20616464726573730060448201526064016107fe565b611689600083836119c7565b806067600082825461169b91906127e9565b90915550506001600160a01b038216600090815260656020526040812080548392906116c89084906127e9565b90915550506040518181526001600160a01b038316906000907fddf252ad1be2c89b69c2b068fc378daa952ba7f163c4a11628f55a4df523b3ef9060200160405180910390a35050565b6001600160a01b0382166117725760405162461bcd60e51b815260206004820152602160248201527f45524332303a206275726e2066726f6d20746865207a65726f206164647265736044820152607360f81b60648201526084016107fe565b61177e826000836119c7565b6001600160a01b038216600090815260656020526040902054818110156117f25760405162461bcd60e51b815260206004820152602260248201527f45524332303a206275726e20616d6f756e7420657863656564732062616c616e604482015261636560f01b60648201526084016107fe565b6001600160a01b0383166000908152606560205260408120838303905560678054849290611821908490612842565b90915550506040518281526000906001600160a01b038516907fddf252ad1be2c89b69c2b068fc378daa952ba7f163c4a11628f55a4df523b3ef9060200160405180910390a3505050565b600080600085116118b85760405162461bcd60e51b815260206004820152601660248201527504552433230536e617073686f743a20696420697320360541b60448201526064016107fe565b600080516020612996833981519152548511156119175760405162461bcd60e51b815260206004820152601d60248201527f4552433230536e617073686f743a206e6f6e6578697374656e7420696400000060448201526064016107fe565b60006119238587611e2f565b9050845481141561193b57600080925092505061194f565b60016119478583611ece565b549093509150505b935093915050565b60006001600080516020612996833981519152805460009061197a9084906127e9565b9091555050600080516020612996833981519152546040518181527f8030e83b04d87bef53480e26263266d6ca66863aa8506aca6f2559d18aa1cb679060200160405180910390a1919050565b6119d2838383611f4d565b610918838383611f58565b600054610100900460ff16611a045760405162461bcd60e51b81526004016107fe9061279e565b611a0c6112b9565b611a146112b9565b611a1c6112b9565b611a246112b9565b611a2c6112b9565b6112e0611fa0565b600054610100900460ff16611a5b5760405162461bcd60e51b81526004016107fe9061279e565b8151611a6e90606890602085019061223f565b50805161091890606990602084019061223f565b600054610100900460ff16611aa95760405162461bcd60e51b81526004016107fe9061279e565b610160805460ff191660ff84161790556109973382611627565b60606000611ad2836002612823565b611add9060026127e9565b67ffffffffffffffff811115611af557611af5612918565b6040519080825280601f01601f191660200182016040528015611b1f576020820181803683370190505b509050600360fc1b81600081518110611b3a57611b3a612902565b60200101906001600160f81b031916908160001a905350600f60fb1b81600181518110611b6957611b69612902565b60200101906001600160f81b031916908160001a9053506000611b8d846002612823565b611b989060016127e9565b90505b6001811115611c10576f181899199a1a9b1b9c1cb0b131b232b360811b85600f1660108110611bcc57611bcc612902565b1a60f81b828281518110611be257611be2612902565b60200101906001600160f81b031916908160001a90535060049490941c93611c0981612885565b9050611b9b565b50831561081a5760405162461bcd60e51b815260206004820181905260248201527f537472696e67733a20686578206c656e67746820696e73756666696369656e7460448201526064016107fe565b803b611cc35760405162461bcd60e51b815260206004820152602d60248201527f455243313936373a206e657720696d706c656d656e746174696f6e206973206e60448201526c1bdd08184818dbdb9d1c9858dd609a1b60648201526084016107fe565b7f360894a13ba1a3210667c828492db98dca3e2076cc3735a920a3ca505d382bbc80546001600160a01b0319166001600160a01b0392909216919091179055565b6060823b611d635760405162461bcd60e51b815260206004820152602660248201527f416464726573733a2064656c65676174652063616c6c20746f206e6f6e2d636f6044820152651b9d1c9858dd60d21b60648201526084016107fe565b600080846001600160a01b031684604051611d7e9190612642565b600060405180830381855af49150503d8060008114611db9576040519150601f19603f3d011682016040523d82523d6000602084013e611dbe565b606091505b5091509150611de6828260405180606001604052806027815260200161296f60279139612028565b95945050505050565b611df881611c5f565b6040516001600160a01b038216907fbc7cd75a20ee27fd9adebab32041f755214dbc6bffa90cc0225b39da2e5c2d3b90600090a250565b8154600090819080611e46576000925050506106c2565b80821015611e8a576000611e5a8383612061565b905084611e678783611ece565b541115611e7657809150611e84565b611e818160016127e9565b92505b50611e46565b600082118015611ead575083611eaa86611ea5600186612842565b611ece565b54145b15611ec657611ebd600183612842565b925050506106c2565b5090506106c2565b600082548210611f165760405162461bcd60e51b815260206004820152601360248201527211549493d48e8813dd5d081bd988189bdd5b99606a1b60448201526064016107fe565b8183604051602001611f2a91815260200190565b6040516020818303038152906040528051906020012060001c61081a91906127e9565b6109188383836119d2565b6001600160a01b038316611f7757611f6f8261207c565b610918612106565b6001600160a01b038216611f8e57611f6f8361207c565b611f978361207c565b6109188261207c565b600054610100900460ff16611fc75760405162461bcd60e51b81526004016107fe9061279e565b611fd2600033612154565b611fea60008051602061294f83398151915233612154565b61200260008051602061292f83398151915233612154565b6112e060008051602061292f83398151915260008051602061294f83398151915261215e565b6060831561203757508161081a565b8251156120475782518084602001fd5b8160405162461bcd60e51b81526004016107fe91906126d3565b60006120706002848418612801565b61081a908484166127e9565b604080516001600160a01b0383166020808301919091527ffbf1c7065455eb4486649b8540f24ef2dd4ebedf2aa423f0039d17c2c75dea15828401528251808303840181526060909201909252805191012060006120db8260016127e9565b90506109188282612101866001600160a01b031660009081526065602052604090205490565b6121a9565b6112e07f286a9db37a0f8ddcbcee127c9f4f56031230f49cb46786f87e166d552e11f67e7ffcaa8bb100d3c5b627eac0369cc1d2778dbeffa2993d08f039fb27795729e9a561210160675490565b6109978282611346565b600082815260fb6020526040808220600101805490849055905190918391839186917fbd79b86ffe0ab8e8776151514217cd7cacd52c909f66475c3af44e129f0b00ff9190a4505050565b60006121c16000805160206129968339815191525490565b9050806121cd856121e7565b1015611270576121dd8482612217565b6112708383612217565b8054600090806121fa5750600092915050565b61220983611ea5600184612842565b549392505050565b50919050565b8154600183600061222883856127e9565b909155508290506122398483611ece565b55505050565b82805461224b9061289c565b90600052602060002090601f01602090048101928261226d57600085556122b3565b82601f1061228657805160ff19168380011785556122b3565b828001600101855582156122b3579182015b828111156122b3578251825591602001919060010190612298565b506122bf9291506122c3565b5090565b5b808211156122bf57600081556001016122c4565b600067ffffffffffffffff808411156122f3576122f3612918565b604051601f8501601f19908116603f0116810190828211818310171561231b5761231b612918565b8160405280935085815286868601111561233457600080fd5b858560208301376000602087830101525050509392505050565b80356001600160a01b038116811461236557600080fd5b919050565b60008083601f84011261237c57600080fd5b50813567ffffffffffffffff81111561239457600080fd5b6020830191508360208260051b85010111156123af57600080fd5b9250929050565b600082601f8301126123c757600080fd5b61081a838335602085016122d8565b6000602082840312156123e857600080fd5b61081a8261234e565b6000806040838503121561240457600080fd5b61240d8361234e565b915061241b6020840161234e565b90509250929050565b60008060006060848603121561243957600080fd5b6124428461234e565b92506124506020850161234e565b9150604084013590509250925092565b6000806040838503121561247357600080fd5b61247c8361234e565b9150602083013567ffffffffffffffff81111561249857600080fd5b8301601f810185136124a957600080fd5b6124b8858235602084016122d8565b9150509250929050565b600080604083850312156124d557600080fd5b6124de8361234e565b946020939093013593505050565b6000806000806040858703121561250257600080fd5b843567ffffffffffffffff8082111561251a57600080fd5b6125268883890161236a565b9096509450602087013591508082111561253f57600080fd5b5061254c8782880161236a565b95989497509550505050565b60006020828403121561256a57600080fd5b5035919050565b6000806040838503121561258457600080fd5b8235915061241b6020840161234e565b6000602082840312156125a657600080fd5b81356001600160e01b03198116811461081a57600080fd5b600080600080608085870312156125d457600080fd5b843567ffffffffffffffff808211156125ec57600080fd5b6125f8888389016123b6565b9550602087013591508082111561260e57600080fd5b5061261b878288016123b6565b935050604085013560ff8116811461263257600080fd5b9396929550929360600135925050565b60008251612654818460208701612859565b9190910192915050565b7f416363657373436f6e74726f6c3a206163636f756e7420000000000000000000815260008351612696816017850160208801612859565b7001034b99036b4b9b9b4b733903937b6329607d1b60179184019182015283516126c7816028840160208801612859565b01602801949350505050565b60208152600082518060208401526126f2816040850160208701612859565b601f01601f19169190910160400192915050565b6020808252602c908201527f46756e6374696f6e206d7573742062652063616c6c6564207468726f7567682060408201526b19195b1959d85d1958d85b1b60a21b606082015260800190565b6020808252602c908201527f46756e6374696f6e206d7573742062652063616c6c6564207468726f7567682060408201526b6163746976652070726f787960a01b606082015260800190565b6020808252602b908201527f496e697469616c697a61626c653a20636f6e7472616374206973206e6f74206960408201526a6e697469616c697a696e6760a81b606082015260800190565b600082198211156127fc576127fc6128ec565b500190565b60008261281e57634e487b7160e01b600052601260045260246000fd5b500490565b600081600019048311821515161561283d5761283d6128ec565b500290565b600082821015612854576128546128ec565b500390565b60005b8381101561287457818101518382015260200161285c565b838111156112705750506000910152565b600081612894576128946128ec565b506000190190565b600181811c908216806128b057607f821691505b6020821081141561221157634e487b7160e01b600052602260045260246000fd5b60006000198214156128e5576128e56128ec565b5060010190565b634e487b7160e01b600052601160045260246000fd5b634e487b7160e01b600052603260045260246000fd5b634e487b7160e01b600052604160045260246000fdfea76ace73a908083d89af9ff88e5b4f7cadb3591a80631063f68b695fda726db571840dc4906352362b0cdaf79870196c8e42acafade72d5d5a6d59291253ceb1416464726573733a206c6f772d6c6576656c2064656c65676174652063616c6c206661696c65640d0a0ed3351c10a57d74a44b40c06e0946288e4e3816ac07bb89db2a755562e7a2646970667358221220a7e71a9889ddc03b33f788d0beaaa52555c710675e63f1469db60fbbd062463864736f6c63430008060033",
  "linkReferences": {},
  "deployedLinkReferences": {}
}