{
  "_format": "hh-sol-artifact-1",
  "name": "BurnMintTxFeeTemplate",
  "initializer": "function initialize(string name_, string symbol_, uint8 decimals_, uint256 amount_, uint256 txFee, address txFeeBeneficiary)",
  "sourceName": "contracts/templates/BurnMintTxFeeTemplate.sol",
  "abi": [
    {
      "anonymous": false,
      "inputs": [
        {
          "indexed": false,
          "internalType": "address",
          "name": "previousAdmin",
          "type": "address"
        },
        {
          "indexed": false,
          "internalType": "address",
          "name": "newAdmin",
          "type": "address"
        }
      ],
      "name": "AdminChanged",
      "type": "event"
    },
    {
      "anonymous": false,
      "inputs": [
        {
          "indexed": true,
          "internalType": "address",
          "name": "owner",
          "type": "address"
        },
        {
          "indexed": true,
          "internalType": "address",
          "name": "spender",
          "type": "address"
        },
        {
          "indexed": false,
          "internalType": "uint256",
          "name": "value",
          "type": "uint256"
        }
      ],
      "name": "Approval",
      "type": "event"
    },
    {
      "anonymous": false,
      "inputs": [
        {
          "indexed": true,
          "internalType": "address",
          "name": "beacon",
          "type": "address"
        }
      ],
      "name": "BeaconUpgraded",
      "type": "event"
    },
    {
      "anonymous": false,
      "inputs": [
        {
          "indexed": true,
          "internalType": "bytes32",
          "name": "role",
          "type": "bytes32"
        },
        {
          "indexed": true,
          "internalType": "bytes32",
          "name": "previousAdminRole",
          "type": "bytes32"
        },
        {
          "indexed": true,
          "internalType": "bytes32",
          "name": "newAdminRole",
          "type": "bytes32"
        }
      ],
      "name": "RoleAdminChanged",
      "type": "event"
    },
    {
      "anonymous": false,
      "inputs": [
        {
          "indexed": true,
          "internalType": "bytes32",
          "name": "role",
          "type": "bytes32"
        },
        {
          "indexed": true,
          "internalType": "address",
          "name": "account",
          "type": "address"
        },
        {
          "indexed": true,
          "internalType": "address",
          "name": "sender",
          "type": "address"
        }
      ],
      "name": "RoleGranted",
      "type": "event"
    },
    {
      "anonymous": false,
      "inputs": [
        {
          "indexed": true,
          "internalType": "bytes32",
          "name": "role",
          "type": "bytes32"
        },
        {
          "indexed": true,
          "internalType": "address",
          "name": "account",
          "type": "address"
        },
        {
          "indexed": true,
          "internalType": "address",
          "name": "sender",
          "type": "address"
        }
      ],
      "name": "RoleRevoked",
      "type": "event"
    },
    {
      "anonymous": false,
      "inputs": [
        {
          "indexed": true,
          "internalType": "address",
          "name": "from",
          "type": "address"
        },
        {
          "indexed": true,
          "internalType": "address",
          "name": "to",
          "type": "address"
        },
        {
          "indexed": false,
          "internalType": "uint256",
          "name": "value",
          "type": "uint256"
        }
      ],
      "name": "Transfer",
      "type": "event"
    },
    {
      "anonymous": false,
      "inputs": [
        {
          "indexed": true,
          "internalType": "address",
          "name": "implementation",
          "type": "address"
        }
      ],
      "name": "Upgraded",
      "type": "event"
    },
    {
      "inputs": [],
      "name": "DEFAULT_ADMIN_ROLE",
      "outputs": [
        {
          "internalType": "bytes32",
          "name": "",
          "type": "bytes32"
        }
      ],
      "stateMutability": "view",
      "type": "function"
    },
    {
      "inputs": [],
      "name": "GOVERNANCE_ROLE",
      "outputs": [
        {
          "internalType": "bytes32",
          "name": "",
          "type": "bytes32"
        }
      ],
      "stateMutability": "view",
      "type": "function"
    },
    {
      "inputs": [],
      "name": "MINTER_ROLE",
      "outputs": [
        {
          "internalType": "bytes32",
          "name": "",
          "type": "bytes32"
        }
      ],
      "stateMutability": "view",
      "type": "function"
    },
    {
      "inputs": [],
      "name": "UPGRADE_MANAGER_ROLE",
      "outputs": [
        {
          "internalType": "bytes32",
          "name": "",
          "type": "bytes32"
        }
      ],
      "stateMutability": "view",
      "type": "function"
    },
    {
      "inputs": [
        {
          "internalType": "address",
          "name": "owner",
          "type": "address"
        },
        {
          "internalType": "address",
          "name": "spender",
          "type": "address"
        }
      ],
      "name": "allowance",
      "outputs": [
        {
          "internalType": "uint256",
          "name": "",
          "type": "uint256"
        }
      ],
      "stateMutability": "view",
      "type": "function"
    },
    {
      "inputs": [
        {
          "internalType": "address",
          "name": "spender",
          "type": "address"
        },
        {
          "internalType": "uint256",
          "name": "amount",
          "type": "uint256"
        }
      ],
      "name": "approve",
      "outputs": [
        {
          "internalType": "bool",
          "name": "",
          "type": "bool"
        }
      ],
      "stateMutability": "nonpayable",
      "type": "function"
    },
    {
      "inputs": [
        {
          "internalType": "address",
          "name": "account",
          "type": "address"
        }
      ],
      "name": "balanceOf",
      "outputs": [
        {
          "internalType": "uint256",
          "name": "",
          "type": "uint256"
        }
      ],
      "stateMutability": "view",
      "type": "function"
    },
    {
      "inputs": [
        {
          "internalType": "address[]",
          "name": "accounts",
          "type": "address[]"
        },
        {
          "internalType": "uint256[]",
          "name": "amounts",
          "type": "uint256[]"
        }
      ],
      "name": "bulkMint",
      "outputs": [],
      "stateMutability": "nonpayable",
      "type": "function"
    },
    {
      "inputs": [
        {
          "internalType": "uint256",
          "name": "amount",
          "type": "uint256"
        }
      ],
      "name": "burn",
      "outputs": [],
      "stateMutability": "nonpayable",
      "type": "function"
    },
    {
      "inputs": [
        {
          "internalType": "address",
          "name": "account",
          "type": "address"
        },
        {
          "internalType": "uint256",
          "name": "amount",
          "type": "uint256"
        }
      ],
      "name": "burnFrom",
      "outputs": [],
      "stateMutability": "nonpayable",
      "type": "function"
    },
    {
      "inputs": [
        {
          "internalType": "uint256",
          "name": "newTxFee",
          "type": "uint256"
        },
        {
          "internalType": "address",
          "name": "newTxBeneficiary",
          "type": "address"
        }
      ],
      "name": "changeTxFeeProperties",
      "outputs": [],
      "stateMutability": "nonpayable",
      "type": "function"
    },
    {
      "inputs": [],
      "name": "decimals",
      "outputs": [
        {
          "internalType": "uint8",
          "name": "",
          "type": "uint8"
        }
      ],
      "stateMutability": "view",
      "type": "function"
    },
    {
      "inputs": [
        {
          "internalType": "address",
          "name": "spender",
          "type": "address"
        },
        {
          "internalType": "uint256",
          "name": "subtractedValue",
          "type": "uint256"
        }
      ],
      "name": "decreaseAllowance",
      "outputs": [
        {
          "internalType": "bool",
          "name": "",
          "type": "bool"
        }
      ],
      "stateMutability": "nonpayable",
      "type": "function"
    },
    {
      "inputs": [],
      "name": "getImplementation",
      "outputs": [
        {
          "internalType": "address",
          "name": "",
          "type": "address"
        }
      ],
      "stateMutability": "view",
      "type": "function"
    },
    {
      "inputs": [
        {
          "internalType": "bytes32",
          "name": "role",
          "type": "bytes32"
        }
      ],
      "name": "getRoleAdmin",
      "outputs": [
        {
          "internalType": "bytes32",
          "name": "",
          "type": "bytes32"
        }
      ],
      "stateMutability": "view",
      "type": "function"
    },
    {
      "inputs": [
        {
          "internalType": "bytes32",
          "name": "role",
          "type": "bytes32"
        },
        {
          "internalType": "address",
          "name": "account",
          "type": "address"
        }
      ],
      "name": "grantRole",
      "outputs": [],
      "stateMutability": "nonpayable",
      "type": "function"
    },
    {
      "inputs": [
        {
          "internalType": "bytes32",
          "name": "role",
          "type": "bytes32"
        },
        {
          "internalType": "address",
          "name": "account",
          "type": "address"
        }
      ],
      "name": "hasRole",
      "outputs": [
        {
          "internalType": "bool",
          "name": "",
          "type": "bool"
        }
      ],
      "stateMutability": "view",
      "type": "function"
    },
    {
      "inputs": [
        {
          "internalType": "address",
          "name": "spender",
          "type": "address"
        },
        {
          "internalType": "uint256",
          "name": "addedValue",
          "type": "uint256"
        }
      ],
      "name": "increaseAllowance",
      "outputs": [
        {
          "internalType": "bool",
          "name": "",
          "type": "bool"
        }
      ],
      "stateMutability": "nonpayable",
      "type": "function"
    },
    {
      "inputs": [
        {
          "internalType": "string",
          "name": "name_",
          "type": "string"
        },
        {
          "internalType": "string",
          "name": "symbol_",
          "type": "string"
        },
        {
          "internalType": "uint8",
          "name": "decimals_",
          "type": "uint8"
        },
        {
          "internalType": "uint256",
          "name": "amount_",
          "type": "uint256"
        },
        {
          "internalType": "uint256",
          "name": "txFee",
          "type": "uint256"
        },
        {
          "internalType": "address",
          "name": "txFeeBeneficiary",
          "type": "address"
        }
      ],
      "name": "initialize",
      "outputs": [],
      "stateMutability": "nonpayable",
      "type": "function"
    },
    {
      "inputs": [
        {
          "internalType": "address",
          "name": "account",
          "type": "address"
        },
        {
          "internalType": "uint256",
          "name": "amount",
          "type": "uint256"
        }
      ],
      "name": "mint",
      "outputs": [],
      "stateMutability": "nonpayable",
      "type": "function"
    },
    {
      "inputs": [],
      "name": "name",
      "outputs": [
        {
          "internalType": "string",
          "name": "",
          "type": "string"
        }
      ],
      "stateMutability": "view",
      "type": "function"
    },
    {
      "inputs": [
        {
          "internalType": "address",
          "name": "implementationAddress",
          "type": "address"
        }
      ],
      "name": "proposeNewImplementation",
      "outputs": [],
      "stateMutability": "nonpayable",
      "type": "function"
    },
    {
      "inputs": [
        {
          "internalType": "bytes32",
          "name": "role",
          "type": "bytes32"
        },
        {
          "internalType": "address",
          "name": "account",
          "type": "address"
        }
      ],
      "name": "renounceRole",
      "outputs": [],
      "stateMutability": "nonpayable",
      "type": "function"
    },
    {
      "inputs": [
        {
          "internalType": "bytes32",
          "name": "role",
          "type": "bytes32"
        },
        {
          "internalType": "address",
          "name": "account",
          "type": "address"
        }
      ],
      "name": "revokeRole",
      "outputs": [],
      "stateMutability": "nonpayable",
      "type": "function"
    },
    {
      "inputs": [
        {
          "internalType": "bytes4",
          "name": "interfaceId",
          "type": "bytes4"
        }
      ],
      "name": "supportsInterface",
      "outputs": [
        {
          "internalType": "bool",
          "name": "",
          "type": "bool"
        }
      ],
      "stateMutability": "view",
      "type": "function"
    },
    {
      "inputs": [],
      "name": "symbol",
      "outputs": [
        {
          "internalType": "string",
          "name": "",
          "type": "string"
        }
      ],
      "stateMutability": "view",
      "type": "function"
    },
    {
      "inputs": [],
      "name": "totalSupply",
      "outputs": [
        {
          "internalType": "uint256",
          "name": "",
          "type": "uint256"
        }
      ],
      "stateMutability": "view",
      "type": "function"
    },
    {
      "inputs": [
        {
          "internalType": "address",
          "name": "recipient",
          "type": "address"
        },
        {
          "internalType": "uint256",
          "name": "amount",
          "type": "uint256"
        }
      ],
      "name": "transfer",
      "outputs": [
        {
          "internalType": "bool",
          "name": "",
          "type": "bool"
        }
      ],
      "stateMutability": "nonpayable",
      "type": "function"
    },
    {
      "inputs": [
        {
          "internalType": "address",
          "name": "sender",
          "type": "address"
        },
        {
          "internalType": "address",
          "name": "recipient",
          "type": "address"
        },
        {
          "internalType": "uint256",
          "name": "amount",
          "type": "uint256"
        }
      ],
      "name": "transferFrom",
      "outputs": [
        {
          "internalType": "bool",
          "name": "",
          "type": "bool"
        }
      ],
      "stateMutability": "nonpayable",
      "type": "function"
    },
    {
      "inputs": [
        {
          "internalType": "address",
          "name": "newImplementation",
          "type": "address"
        }
      ],
      "name": "upgradeTo",
      "outputs": [],
      "stateMutability": "nonpayable",
      "type": "function"
    },
    {
      "inputs": [
        {
          "internalType": "address",
          "name": "newImplementation",
          "type": "address"
        },
        {
          "internalType": "bytes",
          "name": "data",
          "type": "bytes"
        }
      ],
      "name": "upgradeToAndCall",
      "outputs": [],
      "stateMutability": "payable",
      "type": "function"
    }
  ],
  "bytecode": "0x60a06040523060601b60805234801561001757600080fd5b5060805160601c61261461004b600039600081816109470152818161098701528181610ac80152610b0801526126146000f3fe6080604052600436106101d85760003560e01c806347757fb611610102578063a217fddf11610095578063d539139311610064578063d53913931461056a578063d547741f1461059e578063dd62ed3e146105be578063f36c8f5c1461060457600080fd5b8063a217fddf146104e8578063a457c2d7146104fd578063a9059cbb1461051d578063aaf10f421461053d57600080fd5b806370a08231116100d157806370a082311461045d57806379cc67901461049357806391d14854146104b357806395d89b41146104d357600080fd5b806347757fb6146103ea5780634f1ef2861461040a5780635120561a1461041d5780636ae459bd1461043d57600080fd5b80632f2ff15d1161017a5780633950935111610149578063395093511461036857806340c10f191461038857806342966c68146103a857806343ffa64e146103c857600080fd5b80632f2ff15d146102e5578063313ce5671461030557806336568abe146103285780633659cfe61461034857600080fd5b806318160ddd116101b657806318160ddd1461025457806323b872dd14610273578063248a9ca3146102935780632cd77a5a146102c357600080fd5b806301ffc9a7146101dd57806306fdde0314610212578063095ea7b314610234575b600080fd5b3480156101e957600080fd5b506101fd6101f836600461219c565b610626565b60405190151581526020015b60405180910390f35b34801561021e57600080fd5b5061022761065d565b60405161020991906122f6565b34801561024057600080fd5b506101fd61024f3660046120ca565b6106ef565b34801561026057600080fd5b506067545b604051908152602001610209565b34801561027f57600080fd5b506101fd61028e36600461202c565b610705565b34801561029f57600080fd5b506102656102ae366004612160565b600090815260fb602052604090206001015490565b3480156102cf57600080fd5b506102e36102de3660046121c6565b6107b6565b005b3480156102f157600080fd5b506102e3610300366004612179565b610893565b34801561031157600080fd5b506101605460405160ff9091168152602001610209565b34801561033457600080fd5b506102e3610343366004612179565b6108be565b34801561035457600080fd5b506102e3610363366004611fde565b61093c565b34801561037457600080fd5b506101fd6103833660046120ca565b610a05565b34801561039457600080fd5b506102e36103a33660046120ca565b610a41565b3480156103b457600080fd5b506102e36103c3366004612160565b610a76565b3480156103d457600080fd5b5061026560008051602061255883398151915281565b3480156103f657600080fd5b506102e3610405366004611fde565b610a80565b6102e3610418366004612068565b610abd565b34801561042957600080fd5b506102e3610438366004612179565b610b73565b34801561044957600080fd5b506102e36104583660046120f4565b610be8565b34801561046957600080fd5b50610265610478366004611fde565b6001600160a01b031660009081526065602052604090205490565b34801561049f57600080fd5b506102e36104ae3660046120ca565b610cc7565b3480156104bf57600080fd5b506101fd6104ce366004612179565b610d48565b3480156104df57600080fd5b50610227610d73565b3480156104f457600080fd5b50610265600081565b34801561050957600080fd5b506101fd6105183660046120ca565b610d82565b34801561052957600080fd5b506101fd6105383660046120ca565b610e1b565b34801561054957600080fd5b50610552610e28565b6040516001600160a01b039091168152602001610209565b34801561057657600080fd5b506102657ff9424f4303d7f03683a025eb8885734ad99b47df7749d9b0a02cbc985809700b81565b3480156105aa57600080fd5b506102e36105b9366004612179565b610e37565b3480156105ca57600080fd5b506102656105d9366004611ff9565b6001600160a01b03918216600090815260666020908152604080832093909416825291909152205490565b34801561061057600080fd5b5061026560008051602061257883398151915281565b60006001600160e01b03198216637965db0b60e01b148061065757506301ffc9a760e01b6001600160e01b03198316145b92915050565b60606068805461066c906124bf565b80601f0160208091040260200160405190810160405280929190818152602001828054610698906124bf565b80156106e55780601f106106ba576101008083540402835291602001916106e5565b820191906000526020600020905b8154815290600101906020018083116106c857829003601f168201915b5050505050905090565b60006106fc338484610e5d565b50600192915050565b6000610712848484610f81565b6001600160a01b03841660009081526066602090815260408083203384529091529020548281101561079c5760405162461bcd60e51b815260206004820152602860248201527f45524332303a207472616e7366657220616d6f756e74206578636565647320616044820152676c6c6f77616e636560c01b60648201526084015b60405180910390fd5b6107a98533858403610e5d565b60019150505b9392505050565b600054610100900460ff166107d15760005460ff16156107d5565b303b155b6108385760405162461bcd60e51b815260206004820152602e60248201527f496e697469616c697a61626c653a20636f6e747261637420697320616c72656160448201526d191e481a5b9a5d1a585b1a5e995960921b6064820152608401610793565b600054610100900460ff1615801561085a576000805461ffff19166101011790555b6108668787878761115c565b61086e61119f565b61087883836111c8565b801561088a576000805461ff00191690555b50505050505050565b600082815260fb60205260409020600101546108af8133611257565b6108b983836112bb565b505050565b6001600160a01b038116331461092e5760405162461bcd60e51b815260206004820152602f60248201527f416363657373436f6e74726f6c3a2063616e206f6e6c792072656e6f756e636560448201526e103937b632b9903337b91039b2b63360891b6064820152608401610793565b6109388282611341565b5050565b306001600160a01b037f00000000000000000000000000000000000000000000000000000000000000001614156109855760405162461bcd60e51b815260040161079390612329565b7f00000000000000000000000000000000000000000000000000000000000000006001600160a01b03166109b76113a8565b6001600160a01b0316146109dd5760405162461bcd60e51b815260040161079390612375565b6109e6816113d6565b60408051600080825260208201909252610a0291839190611458565b50565b3360008181526066602090815260408083206001600160a01b038716845290915281205490916106fc918590610a3c90869061240c565b610e5d565b7ff9424f4303d7f03683a025eb8885734ad99b47df7749d9b0a02cbc985809700b610a6c8133611257565b6108b983836115a3565b610a02338261168e565b600080516020612578833981519152610a998133611257565b5061012d80546001600160a01b0319166001600160a01b0392909216919091179055565b306001600160a01b037f0000000000000000000000000000000000000000000000000000000000000000161415610b065760405162461bcd60e51b815260040161079390612329565b7f00000000000000000000000000000000000000000000000000000000000000006001600160a01b0316610b386113a8565b6001600160a01b031614610b5e5760405162461bcd60e51b815260040161079390612375565b610b67826113d6565b61093882826001611458565b6000610b7f8133611257565b6001600160a01b038216610b9257600080fd5b8260008051602061259883398151915255817fe38b16c806f019542b2d4bf356bb4ba2ea4b7eb450b8fbff2584f6084c4978f180546001600160a01b0319166001600160a01b0392909216919091179055505050565b7ff9424f4303d7f03683a025eb8885734ad99b47df7749d9b0a02cbc985809700b610c138133611257565b838214610c5a5760405162461bcd60e51b8152602060048201526015602482015274082e4e4c2f240d8cadccee8d040dad2e6dac2e8c6d605b1b6044820152606401610793565b60005b84811015610cbf57610cad868683818110610c7a57610c7a61252b565b9050602002016020810190610c8f9190611fde565b858584818110610ca157610ca161252b565b905060200201356115a3565b80610cb7816124fa565b915050610c5d565b505050505050565b6000610cd383336105d9565b905081811015610d315760405162461bcd60e51b8152602060048201526024808201527f45524332303a206275726e20616d6f756e74206578636565647320616c6c6f77604482015263616e636560e01b6064820152608401610793565b610d3e8333848403610e5d565b6108b9838361168e565b600091825260fb602090815260408084206001600160a01b0393909316845291905290205460ff1690565b60606069805461066c906124bf565b3360009081526066602090815260408083206001600160a01b038616845290915281205482811015610e045760405162461bcd60e51b815260206004820152602560248201527f45524332303a2064656372656173656420616c6c6f77616e63652062656c6f77604482015264207a65726f60d81b6064820152608401610793565b610e113385858403610e5d565b5060019392505050565b60006106fc338484610f81565b6000610e326113a8565b905090565b600082815260fb6020526040902060010154610e538133611257565b6108b98383611341565b6001600160a01b038316610ebf5760405162461bcd60e51b8152602060048201526024808201527f45524332303a20617070726f76652066726f6d20746865207a65726f206164646044820152637265737360e01b6064820152608401610793565b6001600160a01b038216610f205760405162461bcd60e51b815260206004820152602260248201527f45524332303a20617070726f766520746f20746865207a65726f206164647265604482015261737360f01b6064820152608401610793565b6001600160a01b0383811660008181526066602090815260408083209487168084529482529182902085905590518481527f8c5be1e5ebec7d5bd14f71427d1e84f3dd0314c0f7b2291e5b200ac8c7c3b925910160405180910390a3505050565b6001600160a01b038316610fe55760405162461bcd60e51b815260206004820152602560248201527f45524332303a207472616e736665722066726f6d20746865207a65726f206164604482015264647265737360d81b6064820152608401610793565b6001600160a01b0382166110475760405162461bcd60e51b815260206004820152602360248201527f45524332303a207472616e7366657220746f20746865207a65726f206164647260448201526265737360e81b6064820152608401610793565b6110528383836117e8565b6001600160a01b038316600090815260656020526040902054818110156110ca5760405162461bcd60e51b815260206004820152602660248201527f45524332303a207472616e7366657220616d6f756e7420657863656564732062604482015265616c616e636560d01b6064820152608401610793565b6001600160a01b0380851660009081526065602052604080822085850390559185168152908120805484929061110190849061240c565b92505081905550826001600160a01b0316846001600160a01b03167fddf252ad1be2c89b69c2b068fc378daa952ba7f163c4a11628f55a4df523b3ef8460405161114d91815260200190565b60405180910390a35b50505050565b600054610100900460ff166111835760405162461bcd60e51b8152600401610793906123c1565b61118b6117f3565b611195848461184a565b6111568282611898565b600054610100900460ff166111c65760405162461bcd60e51b8152600401610793906123c1565b565b600054610100900460ff166111ef5760405162461bcd60e51b8152600401610793906123c1565b6001600160a01b03811661120257600080fd5b8160008051602061259883398151915255807fe38b16c806f019542b2d4bf356bb4ba2ea4b7eb450b8fbff2584f6084c4978f180546001600160a01b0319166001600160a01b03929092169190911790555050565b6112618282610d48565b61093857611279816001600160a01b031660146118d9565b6112848360206118d9565b604051602001611295929190612281565b60408051601f198184030181529082905262461bcd60e51b8252610793916004016122f6565b6112c58282610d48565b61093857600082815260fb602090815260408083206001600160a01b03851684529091529020805460ff191660011790556112fd3390565b6001600160a01b0316816001600160a01b0316837f2f8788117e7eff1d82e926ec794901d17c78024a50270940304540a733656f0d60405160405180910390a45050565b61134b8282610d48565b1561093857600082815260fb602090815260408083206001600160a01b0385168085529252808320805460ff1916905551339285917ff6391f5c32d9c69d2a47ea670b442974b53935d1edc7fd64eb21e047a839171b9190a45050565b7f360894a13ba1a3210667c828492db98dca3e2076cc3735a920a3ca505d382bbc546001600160a01b031690565b6113ee60008051602061257883398151915233610d48565b8061140c575061140c60008051602061255883398151915233610d48565b610a025760405162461bcd60e51b815260206004820152601d60248201527f4552524f523a2041646472657373206e6f7420617574686f72697a65640000006044820152606401610793565b60006114626113a8565b905061146d84611a75565b60008351118061147a5750815b1561148b576114898484611b1a565b505b7f4910fdfa16fed3260ed0e7147f7cc6da11a60208b5b9406d12a635614ffd9143805460ff1661159c57805460ff191660011781556040516001600160a01b038316602482015261150a90869060440160408051601f198184030181529190526020810180516001600160e01b0316631b2ce7f360e11b179052611b1a565b50805460ff1916815561151b6113a8565b6001600160a01b0316826001600160a01b0316146115935760405162461bcd60e51b815260206004820152602f60248201527f45524331393637557067726164653a207570677261646520627265616b73206660448201526e75727468657220757067726164657360881b6064820152608401610793565b61159c85611c05565b5050505050565b6001600160a01b0382166115f95760405162461bcd60e51b815260206004820152601f60248201527f45524332303a206d696e7420746f20746865207a65726f2061646472657373006044820152606401610793565b611605600083836117e8565b8060676000828254611617919061240c565b90915550506001600160a01b0382166000908152606560205260408120805483929061164490849061240c565b90915550506040518181526001600160a01b038316906000907fddf252ad1be2c89b69c2b068fc378daa952ba7f163c4a11628f55a4df523b3ef9060200160405180910390a35050565b6001600160a01b0382166116ee5760405162461bcd60e51b815260206004820152602160248201527f45524332303a206275726e2066726f6d20746865207a65726f206164647265736044820152607360f81b6064820152608401610793565b6116fa826000836117e8565b6001600160a01b0382166000908152606560205260409020548181101561176e5760405162461bcd60e51b815260206004820152602260248201527f45524332303a206275726e20616d6f756e7420657863656564732062616c616e604482015261636560f01b6064820152608401610793565b6001600160a01b038316600090815260656020526040812083830390556067805484929061179d908490612465565b90915550506040518281526000906001600160a01b038516907fddf252ad1be2c89b69c2b068fc378daa952ba7f163c4a11628f55a4df523b3ef9060200160405180910390a3505050565b6108b9838383611c45565b600054610100900460ff1661181a5760405162461bcd60e51b8152600401610793906123c1565b61182261119f565b61182a61119f565b61183261119f565b61183a61119f565b61184261119f565b6111c6611c50565b600054610100900460ff166118715760405162461bcd60e51b8152600401610793906123c1565b8151611884906068906020850190611e47565b5080516108b9906069906020840190611e47565b600054610100900460ff166118bf5760405162461bcd60e51b8152600401610793906123c1565b610160805460ff191660ff841617905561093833826115a3565b606060006118e8836002612446565b6118f390600261240c565b67ffffffffffffffff81111561190b5761190b612541565b6040519080825280601f01601f191660200182016040528015611935576020820181803683370190505b509050600360fc1b816000815181106119505761195061252b565b60200101906001600160f81b031916908160001a905350600f60fb1b8160018151811061197f5761197f61252b565b60200101906001600160f81b031916908160001a90535060006119a3846002612446565b6119ae90600161240c565b90505b6001811115611a26576f181899199a1a9b1b9c1cb0b131b232b360811b85600f16601081106119e2576119e261252b565b1a60f81b8282815181106119f8576119f861252b565b60200101906001600160f81b031916908160001a90535060049490941c93611a1f816124a8565b90506119b1565b5083156107af5760405162461bcd60e51b815260206004820181905260248201527f537472696e67733a20686578206c656e67746820696e73756666696369656e746044820152606401610793565b803b611ad95760405162461bcd60e51b815260206004820152602d60248201527f455243313936373a206e657720696d706c656d656e746174696f6e206973206e60448201526c1bdd08184818dbdb9d1c9858dd609a1b6064820152608401610793565b7f360894a13ba1a3210667c828492db98dca3e2076cc3735a920a3ca505d382bbc80546001600160a01b0319166001600160a01b0392909216919091179055565b6060823b611b795760405162461bcd60e51b815260206004820152602660248201527f416464726573733a2064656c65676174652063616c6c20746f206e6f6e2d636f6044820152651b9d1c9858dd60d21b6064820152608401610793565b600080846001600160a01b031684604051611b949190612265565b600060405180830381855af49150503d8060008114611bcf576040519150601f19603f3d011682016040523d82523d6000602084013e611bd4565b606091505b5091509150611bfc82826040518060600160405280602781526020016125b860279139611cd8565b95945050505050565b611c0e81611a75565b6040516001600160a01b038216907fbc7cd75a20ee27fd9adebab32041f755214dbc6bffa90cc0225b39da2e5c2d3b90600090a250565b6108b9838383611d11565b600054610100900460ff16611c775760405162461bcd60e51b8152600401610793906123c1565b611c82600033611df2565b611c9a60008051602061257883398151915233611df2565b611cb260008051602061255883398151915233611df2565b6111c6600080516020612558833981519152600080516020612578833981519152611dfc565b60608315611ce75750816107af565b825115611cf75782518084602001fd5b8160405162461bcd60e51b815260040161079391906122f6565b600080516020612598833981519152547fe38b16c806f019542b2d4bf356bb4ba2ea4b7eb450b8fbff2584f6084c4978f1546001600160a01b0316811580611d6a5750836001600160a01b0316816001600160a01b0316145b80611d865750846001600160a01b0316816001600160a01b0316145b80611d9857506001600160a01b038516155b80611daa57506001600160a01b038416155b15611db6575050505050565b6000670de0b6b3a764000060008051602061259883398151915254611ddb9086612446565b611de59190612424565b9050610cbf868383610f81565b61093882826112bb565b600082815260fb6020526040808220600101805490849055905190918391839186917fbd79b86ffe0ab8e8776151514217cd7cacd52c909f66475c3af44e129f0b00ff9190a4505050565b828054611e53906124bf565b90600052602060002090601f016020900481019282611e755760008555611ebb565b82601f10611e8e57805160ff1916838001178555611ebb565b82800160010185558215611ebb579182015b82811115611ebb578251825591602001919060010190611ea0565b50611ec7929150611ecb565b5090565b5b80821115611ec75760008155600101611ecc565b600067ffffffffffffffff80841115611efb57611efb612541565b604051601f8501601f19908116603f01168101908282118183101715611f2357611f23612541565b81604052809350858152868686011115611f3c57600080fd5b858560208301376000602087830101525050509392505050565b80356001600160a01b0381168114611f6d57600080fd5b919050565b60008083601f840112611f8457600080fd5b50813567ffffffffffffffff811115611f9c57600080fd5b6020830191508360208260051b8501011115611fb757600080fd5b9250929050565b600082601f830112611fcf57600080fd5b6107af83833560208501611ee0565b600060208284031215611ff057600080fd5b6107af82611f56565b6000806040838503121561200c57600080fd5b61201583611f56565b915061202360208401611f56565b90509250929050565b60008060006060848603121561204157600080fd5b61204a84611f56565b925061205860208501611f56565b9150604084013590509250925092565b6000806040838503121561207b57600080fd5b61208483611f56565b9150602083013567ffffffffffffffff8111156120a057600080fd5b8301601f810185136120b157600080fd5b6120c085823560208401611ee0565b9150509250929050565b600080604083850312156120dd57600080fd5b6120e683611f56565b946020939093013593505050565b6000806000806040858703121561210a57600080fd5b843567ffffffffffffffff8082111561212257600080fd5b61212e88838901611f72565b9096509450602087013591508082111561214757600080fd5b5061215487828801611f72565b95989497509550505050565b60006020828403121561217257600080fd5b5035919050565b6000806040838503121561218c57600080fd5b8235915061202360208401611f56565b6000602082840312156121ae57600080fd5b81356001600160e01b0319811681146107af57600080fd5b60008060008060008060c087890312156121df57600080fd5b863567ffffffffffffffff808211156121f757600080fd5b6122038a838b01611fbe565b9750602089013591508082111561221957600080fd5b5061222689828a01611fbe565b955050604087013560ff8116811461223d57600080fd5b9350606087013592506080870135915061225960a08801611f56565b90509295509295509295565b6000825161227781846020870161247c565b9190910192915050565b7f416363657373436f6e74726f6c3a206163636f756e74200000000000000000008152600083516122b981601785016020880161247c565b7001034b99036b4b9b9b4b733903937b6329607d1b60179184019182015283516122ea81602884016020880161247c565b01602801949350505050565b602081526000825180602084015261231581604085016020870161247c565b601f01601f19169190910160400192915050565b6020808252602c908201527f46756e6374696f6e206d7573742062652063616c6c6564207468726f7567682060408201526b19195b1959d85d1958d85b1b60a21b606082015260800190565b6020808252602c908201527f46756e6374696f6e206d7573742062652063616c6c6564207468726f7567682060408201526b6163746976652070726f787960a01b606082015260800190565b6020808252602b908201527f496e697469616c697a61626c653a20636f6e7472616374206973206e6f74206960408201526a6e697469616c697a696e6760a81b606082015260800190565b6000821982111561241f5761241f612515565b500190565b60008261244157634e487b7160e01b600052601260045260246000fd5b500490565b600081600019048311821515161561246057612460612515565b500290565b60008282101561247757612477612515565b500390565b60005b8381101561249757818101518382015260200161247f565b838111156111565750506000910152565b6000816124b7576124b7612515565b506000190190565b600181811c908216806124d357607f821691505b602082108114156124f457634e487b7160e01b600052602260045260246000fd5b50919050565b600060001982141561250e5761250e612515565b5060010190565b634e487b7160e01b600052601160045260246000fd5b634e487b7160e01b600052603260045260246000fd5b634e487b7160e01b600052604160045260246000fdfea76ace73a908083d89af9ff88e5b4f7cadb3591a80631063f68b695fda726db571840dc4906352362b0cdaf79870196c8e42acafade72d5d5a6d59291253ceb1253122b26cc2118faf5fcfc7761bd75fcfb5508f1f48d1a40db694aba32af5d0416464726573733a206c6f772d6c6576656c2064656c65676174652063616c6c206661696c6564a2646970667358221220a0abee78d2233ca24332dd567e1d3d2383a18f4fcfad3bf75688a67f587e564264736f6c63430008060033",
  "linkReferences": {},
  "deployedLinkReferences": {}
}