{
  "_format": "hh-sol-artifact-1",
  "name": "BurnSnapshotTxFeeWhiteListTemplate",
  "initializer": "function initialize(string name_, string symbol_, uint8 decimals_, uint256 amount_, uint256 txFee, address txFeeBeneficiary)",
  "sourceName": "contracts/templates/BurnSnapshotTxFeeWhiteListTemplate.sol",
  "abi": [
    {
      "anonymous": false,
      "inputs": [
        {
          "indexed": false,
          "internalType": "address",
          "name": "previousAdmin",
          "type": "address"
        },
        {
          "indexed": false,
          "internalType": "address",
          "name": "newAdmin",
          "type": "address"
        }
      ],
      "name": "AdminChanged",
      "type": "event"
    },
    {
      "anonymous": false,
      "inputs": [
        {
          "indexed": true,
          "internalType": "address",
          "name": "owner",
          "type": "address"
        },
        {
          "indexed": true,
          "internalType": "address",
          "name": "spender",
          "type": "address"
        },
        {
          "indexed": false,
          "internalType": "uint256",
          "name": "value",
          "type": "uint256"
        }
      ],
      "name": "Approval",
      "type": "event"
    },
    {
      "anonymous": false,
      "inputs": [
        {
          "indexed": true,
          "internalType": "address",
          "name": "beacon",
          "type": "address"
        }
      ],
      "name": "BeaconUpgraded",
      "type": "event"
    },
    {
      "anonymous": false,
      "inputs": [
        {
          "indexed": false,
          "internalType": "address",
          "name": "account",
          "type": "address"
        }
      ],
      "name": "Paused",
      "type": "event"
    },
    {
      "anonymous": false,
      "inputs": [
        {
          "indexed": true,
          "internalType": "bytes32",
          "name": "role",
          "type": "bytes32"
        },
        {
          "indexed": true,
          "internalType": "bytes32",
          "name": "previousAdminRole",
          "type": "bytes32"
        },
        {
          "indexed": true,
          "internalType": "bytes32",
          "name": "newAdminRole",
          "type": "bytes32"
        }
      ],
      "name": "RoleAdminChanged",
      "type": "event"
    },
    {
      "anonymous": false,
      "inputs": [
        {
          "indexed": true,
          "internalType": "bytes32",
          "name": "role",
          "type": "bytes32"
        },
        {
          "indexed": true,
          "internalType": "address",
          "name": "account",
          "type": "address"
        },
        {
          "indexed": true,
          "internalType": "address",
          "name": "sender",
          "type": "address"
        }
      ],
      "name": "RoleGranted",
      "type": "event"
    },
    {
      "anonymous": false,
      "inputs": [
        {
          "indexed": true,
          "internalType": "bytes32",
          "name": "role",
          "type": "bytes32"
        },
        {
          "indexed": true,
          "internalType": "address",
          "name": "account",
          "type": "address"
        },
        {
          "indexed": true,
          "internalType": "address",
          "name": "sender",
          "type": "address"
        }
      ],
      "name": "RoleRevoked",
      "type": "event"
    },
    {
      "anonymous": false,
      "inputs": [
        {
          "indexed": false,
          "internalType": "uint256",
          "name": "id",
          "type": "uint256"
        }
      ],
      "name": "Snapshot",
      "type": "event"
    },
    {
      "anonymous": false,
      "inputs": [
        {
          "indexed": true,
          "internalType": "address",
          "name": "from",
          "type": "address"
        },
        {
          "indexed": true,
          "internalType": "address",
          "name": "to",
          "type": "address"
        },
        {
          "indexed": false,
          "internalType": "uint256",
          "name": "value",
          "type": "uint256"
        }
      ],
      "name": "Transfer",
      "type": "event"
    },
    {
      "anonymous": false,
      "inputs": [
        {
          "indexed": false,
          "internalType": "address",
          "name": "account",
          "type": "address"
        }
      ],
      "name": "Unpaused",
      "type": "event"
    },
    {
      "anonymous": false,
      "inputs": [
        {
          "indexed": true,
          "internalType": "address",
          "name": "implementation",
          "type": "address"
        }
      ],
      "name": "Upgraded",
      "type": "event"
    },
    {
      "inputs": [],
      "name": "DEFAULT_ADMIN_ROLE",
      "outputs": [
        {
          "internalType": "bytes32",
          "name": "",
          "type": "bytes32"
        }
      ],
      "stateMutability": "view",
      "type": "function"
    },
    {
      "inputs": [],
      "name": "GOVERNANCE_ROLE",
      "outputs": [
        {
          "internalType": "bytes32",
          "name": "",
          "type": "bytes32"
        }
      ],
      "stateMutability": "view",
      "type": "function"
    },
    {
      "inputs": [],
      "name": "PAUSE_MANAGER_ROLE",
      "outputs": [
        {
          "internalType": "bytes32",
          "name": "",
          "type": "bytes32"
        }
      ],
      "stateMutability": "view",
      "type": "function"
    },
    {
      "inputs": [],
      "name": "UPGRADE_MANAGER_ROLE",
      "outputs": [
        {
          "internalType": "bytes32",
          "name": "",
          "type": "bytes32"
        }
      ],
      "stateMutability": "view",
      "type": "function"
    },
    {
      "inputs": [],
      "name": "WHITELISTED_FROM_ROLE",
      "outputs": [
        {
          "internalType": "bytes32",
          "name": "",
          "type": "bytes32"
        }
      ],
      "stateMutability": "view",
      "type": "function"
    },
    {
      "inputs": [],
      "name": "WHITELISTED_SENDER_ROLE",
      "outputs": [
        {
          "internalType": "bytes32",
          "name": "",
          "type": "bytes32"
        }
      ],
      "stateMutability": "view",
      "type": "function"
    },
    {
      "inputs": [
        {
          "internalType": "address[]",
          "name": "addresses",
          "type": "address[]"
        }
      ],
      "name": "addAddressesToWhitelistFrom",
      "outputs": [],
      "stateMutability": "nonpayable",
      "type": "function"
    },
    {
      "inputs": [
        {
          "internalType": "address[]",
          "name": "addresses",
          "type": "address[]"
        }
      ],
      "name": "addAddressesToWhitelistSender",
      "outputs": [],
      "stateMutability": "nonpayable",
      "type": "function"
    },
    {
      "inputs": [
        {
          "internalType": "address",
          "name": "owner",
          "type": "address"
        },
        {
          "internalType": "address",
          "name": "spender",
          "type": "address"
        }
      ],
      "name": "allowance",
      "outputs": [
        {
          "internalType": "uint256",
          "name": "",
          "type": "uint256"
        }
      ],
      "stateMutability": "view",
      "type": "function"
    },
    {
      "inputs": [
        {
          "internalType": "address",
          "name": "spender",
          "type": "address"
        },
        {
          "internalType": "uint256",
          "name": "amount",
          "type": "uint256"
        }
      ],
      "name": "approve",
      "outputs": [
        {
          "internalType": "bool",
          "name": "",
          "type": "bool"
        }
      ],
      "stateMutability": "nonpayable",
      "type": "function"
    },
    {
      "inputs": [
        {
          "internalType": "address",
          "name": "account",
          "type": "address"
        }
      ],
      "name": "balanceOf",
      "outputs": [
        {
          "internalType": "uint256",
          "name": "",
          "type": "uint256"
        }
      ],
      "stateMutability": "view",
      "type": "function"
    },
    {
      "inputs": [
        {
          "internalType": "address",
          "name": "account",
          "type": "address"
        },
        {
          "internalType": "uint256",
          "name": "snapshotId",
          "type": "uint256"
        }
      ],
      "name": "balanceOfAt",
      "outputs": [
        {
          "internalType": "uint256",
          "name": "",
          "type": "uint256"
        }
      ],
      "stateMutability": "view",
      "type": "function"
    },
    {
      "inputs": [
        {
          "internalType": "uint256",
          "name": "amount",
          "type": "uint256"
        }
      ],
      "name": "burn",
      "outputs": [],
      "stateMutability": "nonpayable",
      "type": "function"
    },
    {
      "inputs": [
        {
          "internalType": "address",
          "name": "account",
          "type": "address"
        },
        {
          "internalType": "uint256",
          "name": "amount",
          "type": "uint256"
        }
      ],
      "name": "burnFrom",
      "outputs": [],
      "stateMutability": "nonpayable",
      "type": "function"
    },
    {
      "inputs": [
        {
          "internalType": "uint256",
          "name": "newTxFee",
          "type": "uint256"
        },
        {
          "internalType": "address",
          "name": "newTxBeneficiary",
          "type": "address"
        }
      ],
      "name": "changeTxFeeProperties",
      "outputs": [],
      "stateMutability": "nonpayable",
      "type": "function"
    },
    {
      "inputs": [],
      "name": "decimals",
      "outputs": [
        {
          "internalType": "uint8",
          "name": "",
          "type": "uint8"
        }
      ],
      "stateMutability": "view",
      "type": "function"
    },
    {
      "inputs": [
        {
          "internalType": "address",
          "name": "spender",
          "type": "address"
        },
        {
          "internalType": "uint256",
          "name": "subtractedValue",
          "type": "uint256"
        }
      ],
      "name": "decreaseAllowance",
      "outputs": [
        {
          "internalType": "bool",
          "name": "",
          "type": "bool"
        }
      ],
      "stateMutability": "nonpayable",
      "type": "function"
    },
    {
      "inputs": [],
      "name": "getCurrentSnapshotId",
      "outputs": [
        {
          "internalType": "uint256",
          "name": "",
          "type": "uint256"
        }
      ],
      "stateMutability": "view",
      "type": "function"
    },
    {
      "inputs": [],
      "name": "getImplementation",
      "outputs": [
        {
          "internalType": "address",
          "name": "",
          "type": "address"
        }
      ],
      "stateMutability": "view",
      "type": "function"
    },
    {
      "inputs": [
        {
          "internalType": "bytes32",
          "name": "role",
          "type": "bytes32"
        }
      ],
      "name": "getRoleAdmin",
      "outputs": [
        {
          "internalType": "bytes32",
          "name": "",
          "type": "bytes32"
        }
      ],
      "stateMutability": "view",
      "type": "function"
    },
    {
      "inputs": [
        {
          "internalType": "bytes32",
          "name": "role",
          "type": "bytes32"
        },
        {
          "internalType": "address",
          "name": "account",
          "type": "address"
        }
      ],
      "name": "grantRole",
      "outputs": [],
      "stateMutability": "nonpayable",
      "type": "function"
    },
    {
      "inputs": [
        {
          "internalType": "bytes32",
          "name": "role",
          "type": "bytes32"
        },
        {
          "internalType": "address",
          "name": "account",
          "type": "address"
        }
      ],
      "name": "hasRole",
      "outputs": [
        {
          "internalType": "bool",
          "name": "",
          "type": "bool"
        }
      ],
      "stateMutability": "view",
      "type": "function"
    },
    {
      "inputs": [
        {
          "internalType": "address",
          "name": "spender",
          "type": "address"
        },
        {
          "internalType": "uint256",
          "name": "addedValue",
          "type": "uint256"
        }
      ],
      "name": "increaseAllowance",
      "outputs": [
        {
          "internalType": "bool",
          "name": "",
          "type": "bool"
        }
      ],
      "stateMutability": "nonpayable",
      "type": "function"
    },
    {
      "inputs": [
        {
          "internalType": "string",
          "name": "name_",
          "type": "string"
        },
        {
          "internalType": "string",
          "name": "symbol_",
          "type": "string"
        },
        {
          "internalType": "uint8",
          "name": "decimals_",
          "type": "uint8"
        },
        {
          "internalType": "uint256",
          "name": "amount_",
          "type": "uint256"
        },
        {
          "internalType": "uint256",
          "name": "txFee",
          "type": "uint256"
        },
        {
          "internalType": "address",
          "name": "txFeeBeneficiary",
          "type": "address"
        }
      ],
      "name": "initialize",
      "outputs": [],
      "stateMutability": "nonpayable",
      "type": "function"
    },
    {
      "inputs": [],
      "name": "name",
      "outputs": [
        {
          "internalType": "string",
          "name": "",
          "type": "string"
        }
      ],
      "stateMutability": "view",
      "type": "function"
    },
    {
      "inputs": [],
      "name": "pause",
      "outputs": [],
      "stateMutability": "nonpayable",
      "type": "function"
    },
    {
      "inputs": [],
      "name": "paused",
      "outputs": [
        {
          "internalType": "bool",
          "name": "",
          "type": "bool"
        }
      ],
      "stateMutability": "view",
      "type": "function"
    },
    {
      "inputs": [
        {
          "internalType": "address",
          "name": "implementationAddress",
          "type": "address"
        }
      ],
      "name": "proposeNewImplementation",
      "outputs": [],
      "stateMutability": "nonpayable",
      "type": "function"
    },
    {
      "inputs": [
        {
          "internalType": "address[]",
          "name": "addresses",
          "type": "address[]"
        }
      ],
      "name": "removeAddressesFromWhitelistFrom",
      "outputs": [],
      "stateMutability": "nonpayable",
      "type": "function"
    },
    {
      "inputs": [
        {
          "internalType": "address[]",
          "name": "addresses",
          "type": "address[]"
        }
      ],
      "name": "removeAddressesFromWhitelistSender",
      "outputs": [],
      "stateMutability": "nonpayable",
      "type": "function"
    },
    {
      "inputs": [
        {
          "internalType": "bytes32",
          "name": "role",
          "type": "bytes32"
        },
        {
          "internalType": "address",
          "name": "account",
          "type": "address"
        }
      ],
      "name": "renounceRole",
      "outputs": [],
      "stateMutability": "nonpayable",
      "type": "function"
    },
    {
      "inputs": [
        {
          "internalType": "bytes32",
          "name": "role",
          "type": "bytes32"
        },
        {
          "internalType": "address",
          "name": "account",
          "type": "address"
        }
      ],
      "name": "revokeRole",
      "outputs": [],
      "stateMutability": "nonpayable",
      "type": "function"
    },
    {
      "inputs": [],
      "name": "snapshot",
      "outputs": [],
      "stateMutability": "nonpayable",
      "type": "function"
    },
    {
      "inputs": [
        {
          "internalType": "bytes4",
          "name": "interfaceId",
          "type": "bytes4"
        }
      ],
      "name": "supportsInterface",
      "outputs": [
        {
          "internalType": "bool",
          "name": "",
          "type": "bool"
        }
      ],
      "stateMutability": "view",
      "type": "function"
    },
    {
      "inputs": [],
      "name": "symbol",
      "outputs": [
        {
          "internalType": "string",
          "name": "",
          "type": "string"
        }
      ],
      "stateMutability": "view",
      "type": "function"
    },
    {
      "inputs": [],
      "name": "totalSupply",
      "outputs": [
        {
          "internalType": "uint256",
          "name": "",
          "type": "uint256"
        }
      ],
      "stateMutability": "view",
      "type": "function"
    },
    {
      "inputs": [
        {
          "internalType": "uint256",
          "name": "snapshotId",
          "type": "uint256"
        }
      ],
      "name": "totalSupplyAt",
      "outputs": [
        {
          "internalType": "uint256",
          "name": "",
          "type": "uint256"
        }
      ],
      "stateMutability": "view",
      "type": "function"
    },
    {
      "inputs": [
        {
          "internalType": "address",
          "name": "recipient",
          "type": "address"
        },
        {
          "internalType": "uint256",
          "name": "amount",
          "type": "uint256"
        }
      ],
      "name": "transfer",
      "outputs": [
        {
          "internalType": "bool",
          "name": "",
          "type": "bool"
        }
      ],
      "stateMutability": "nonpayable",
      "type": "function"
    },
    {
      "inputs": [
        {
          "internalType": "address",
          "name": "sender",
          "type": "address"
        },
        {
          "internalType": "address",
          "name": "recipient",
          "type": "address"
        },
        {
          "internalType": "uint256",
          "name": "amount",
          "type": "uint256"
        }
      ],
      "name": "transferFrom",
      "outputs": [
        {
          "internalType": "bool",
          "name": "",
          "type": "bool"
        }
      ],
      "stateMutability": "nonpayable",
      "type": "function"
    },
    {
      "inputs": [],
      "name": "unpause",
      "outputs": [],
      "stateMutability": "nonpayable",
      "type": "function"
    },
    {
      "inputs": [
        {
          "internalType": "address",
          "name": "newImplementation",
          "type": "address"
        }
      ],
      "name": "upgradeTo",
      "outputs": [],
      "stateMutability": "nonpayable",
      "type": "function"
    },
    {
      "inputs": [
        {
          "internalType": "address",
          "name": "newImplementation",
          "type": "address"
        },
        {
          "internalType": "bytes",
          "name": "data",
          "type": "bytes"
        }
      ],
      "name": "upgradeToAndCall",
      "outputs": [],
      "stateMutability": "payable",
      "type": "function"
    }
  ],
  "bytecode": "0x60a06040523060601b60805234801561001757600080fd5b5060805160601c6130e561004b60003960008181610aeb01528181610b2b01528181610cfd0152610d3d01526130e56000f3fe6080604052600436106102515760003560e01c8063685ed81a11610139578063a217fddf116100b6578063c233f3b71161007a578063c233f3b7146106e0578063d547741f14610700578063d84f91e814610720578063dd62ed3e14610742578063f36c8f5c14610788578063f834c502146107aa57600080fd5b8063a217fddf1461063c578063a457c2d714610651578063a9059cbb14610671578063aa74a34a14610691578063aaf10f42146106b357600080fd5b80638456cb59116100fd5780638456cb59146105bd57806391d14854146105d257806395d89b41146105f25780639711715a14610607578063981b24d01461061c57600080fd5b8063685ed81a146105055780636e79a1c01461052557806370a0823114610545578063731ce8fc1461057b57806379cc67901461059d57600080fd5b80633659cfe6116101d257806347757fb61161019657806347757fb6146104585780634ee2cd7e146104785780634f1ef286146104985780635120561a146104ab5780635439ad86146104cb5780635c975abb146104e057600080fd5b80633659cfe6146103c157806339509351146103e15780633f4ba83a1461040157806342966c681461041657806343ffa64e1461043657600080fd5b8063248a9ca311610219578063248a9ca31461030c5780632cd77a5a1461033c5780632f2ff15d1461035e578063313ce5671461037e57806336568abe146103a157600080fd5b806301ffc9a71461025657806306fdde031461028b578063095ea7b3146102ad57806318160ddd146102cd57806323b872dd146102ec575b600080fd5b34801561026257600080fd5b50610276610271366004612bd3565b6107ca565b60405190151581526020015b60405180910390f35b34801561029757600080fd5b506102a0610801565b6040516102829190612d2d565b3480156102b957600080fd5b506102766102c8366004612af8565b610893565b3480156102d957600080fd5b506067545b604051908152602001610282565b3480156102f857600080fd5b50610276610307366004612a5a565b6108a9565b34801561031857600080fd5b506102de610327366004612b97565b600090815260fb602052604090206001015490565b34801561034857600080fd5b5061035c610357366004612bfd565b61095a565b005b34801561036a57600080fd5b5061035c610379366004612bb0565b610a37565b34801561038a57600080fd5b506101605460405160ff9091168152602001610282565b3480156103ad57600080fd5b5061035c6103bc366004612bb0565b610a62565b3480156103cd57600080fd5b5061035c6103dc366004612a0c565b610ae0565b3480156103ed57600080fd5b506102766103fc366004612af8565b610ba9565b34801561040d57600080fd5b5061035c610be5565b34801561042257600080fd5b5061035c610431366004612b97565b610c06565b34801561044257600080fd5b506102de600080516020612fa983398151915281565b34801561046457600080fd5b5061035c610473366004612a0c565b610c10565b34801561048457600080fd5b506102de610493366004612af8565b610c4d565b61035c6104a6366004612a96565b610cf2565b3480156104b757600080fd5b5061035c6104c6366004612bb0565b610da8565b3480156104d757600080fd5b506102de610e1d565b3480156104ec57600080fd5b506000805160206130708339815191525460ff16610276565b34801561051157600080fd5b5061035c610520366004612b22565b610e3a565b34801561053157600080fd5b5061035c610540366004612b22565b610eaf565b34801561055157600080fd5b506102de610560366004612a0c565b6001600160a01b031660009081526065602052604090205490565b34801561058757600080fd5b506102de60008051602061309083398151915281565b3480156105a957600080fd5b5061035c6105b8366004612af8565b610f1e565b3480156105c957600080fd5b5061035c610f9f565b3480156105de57600080fd5b506102766105ed366004612bb0565b610fc0565b3480156105fe57600080fd5b506102a0610feb565b34801561061357600080fd5b5061035c610ffa565b34801561062857600080fd5b506102de610637366004612b97565b611002565b34801561064857600080fd5b506102de600081565b34801561065d57600080fd5b5061027661066c366004612af8565b61106d565b34801561067d57600080fd5b5061027661068c366004612af8565b611106565b34801561069d57600080fd5b506102de600080516020612f8983398151915281565b3480156106bf57600080fd5b506106c8611113565b6040516001600160a01b039091168152602001610282565b3480156106ec57600080fd5b5061035c6106fb366004612b22565b61111d565b34801561070c57600080fd5b5061035c61071b366004612bb0565b611177565b34801561072c57600080fd5b506102de60008051602061303083398151915281565b34801561074e57600080fd5b506102de61075d366004612a27565b6001600160a01b03918216600090815260666020908152604080832093909416825291909152205490565b34801561079457600080fd5b506102de600080516020612fc983398151915281565b3480156107b657600080fd5b5061035c6107c5366004612b22565b61119d565b60006001600160e01b03198216637965db0b60e01b14806107fb57506301ffc9a760e01b6001600160e01b03198316145b92915050565b60606068805461081090612ef6565b80601f016020809104026020016040519081016040528092919081815260200182805461083c90612ef6565b80156108895780601f1061085e57610100808354040283529160200191610889565b820191906000526020600020905b81548152906001019060200180831161086c57829003601f168201915b5050505050905090565b60006108a03384846111f7565b50600192915050565b60006108b684848461131b565b6001600160a01b0384166000908152606660209081526040808320338452909152902054828110156109405760405162461bcd60e51b815260206004820152602860248201527f45524332303a207472616e7366657220616d6f756e74206578636565647320616044820152676c6c6f77616e636560c01b60648201526084015b60405180910390fd5b61094d85338584036111f7565b60019150505b9392505050565b600054610100900460ff166109755760005460ff1615610979565b303b155b6109dc5760405162461bcd60e51b815260206004820152602e60248201527f496e697469616c697a61626c653a20636f6e747261637420697320616c72656160448201526d191e481a5b9a5d1a585b1a5e995960921b6064820152608401610937565b600054610100900460ff161580156109fe576000805461ffff19166101011790555b610a0a878787876114f4565b610a148383611537565b610a1c6115c6565b8015610a2e576000805461ff00191690555b50505050505050565b600082815260fb6020526040902060010154610a53813361163b565b610a5d838361169f565b505050565b6001600160a01b0381163314610ad25760405162461bcd60e51b815260206004820152602f60248201527f416363657373436f6e74726f6c3a2063616e206f6e6c792072656e6f756e636560448201526e103937b632b9903337b91039b2b63360891b6064820152608401610937565b610adc8282611725565b5050565b306001600160a01b037f0000000000000000000000000000000000000000000000000000000000000000161415610b295760405162461bcd60e51b815260040161093790612d60565b7f00000000000000000000000000000000000000000000000000000000000000006001600160a01b0316610b5b61178c565b6001600160a01b031614610b815760405162461bcd60e51b815260040161093790612dac565b610b8a816117ba565b60408051600080825260208201909252610ba69183919061183c565b50565b3360008181526066602090815260408083206001600160a01b038716845290915281205490916108a0918590610be0908690612e43565b6111f7565b600080516020613030833981519152610bfe813361163b565b610ba6611987565b610ba63382611a34565b600080516020612fc9833981519152610c29813361163b565b5061012d80546001600160a01b0319166001600160a01b0392909216919091179055565b604080516001600160a01b0384166020808301919091527ffbf1c7065455eb4486649b8540f24ef2dd4ebedf2aa423f0039d17c2c75dea15828401528251808303840181526060909201909252805191012060009081610cae826001612e43565b9050600080610cbe868585611b8e565b9150915081610ce5576001600160a01b038716600090815260656020526040902054610ce7565b805b979650505050505050565b306001600160a01b037f0000000000000000000000000000000000000000000000000000000000000000161415610d3b5760405162461bcd60e51b815260040161093790612d60565b7f00000000000000000000000000000000000000000000000000000000000000006001600160a01b0316610d6d61178c565b6001600160a01b031614610d935760405162461bcd60e51b815260040161093790612dac565b610d9c826117ba565b610adc8282600161183c565b6000610db4813361163b565b6001600160a01b038216610dc757600080fd5b82600080516020612fe983398151915255817fe38b16c806f019542b2d4bf356bb4ba2ea4b7eb450b8fbff2584f6084c4978f180546001600160a01b0319166001600160a01b0392909216919091179055505050565b6000610e356000805160206130508339815191525490565b905090565b600080516020613030833981519152610e53813361163b565b60005b82811015610ea957610e97600080516020612f89833981519152858584818110610e8257610e82612f5c565b90506020020160208101906103799190612a0c565b80610ea181612f2b565b915050610e56565b50505050565b600080516020613030833981519152610ec8813361163b565b60005b82811015610ea957610f0c600080516020613090833981519152858584818110610ef757610ef7612f5c565b905060200201602081019061071b9190612a0c565b80610f1681612f2b565b915050610ecb565b6000610f2a833361075d565b905081811015610f885760405162461bcd60e51b8152602060048201526024808201527f45524332303a206275726e20616d6f756e74206578636565647320616c6c6f77604482015263616e636560e01b6064820152608401610937565b610f9583338484036111f7565b610a5d8383611a34565b600080516020613030833981519152610fb8813361163b565b610ba6611c79565b600091825260fb602090815260408084206001600160a01b0393909316845291905290205460ff1690565b60606069805461081090612ef6565b610ba6611d0d565b6000806000611052847f286a9db37a0f8ddcbcee127c9f4f56031230f49cb46786f87e166d552e11f67e7ffcaa8bb100d3c5b627eac0369cc1d2778dbeffa2993d08f039fb27795729e9a5611b8e565b915091508161106357606754611065565b805b949350505050565b3360009081526066602090815260408083206001600160a01b0386168452909152812054828110156110ef5760405162461bcd60e51b815260206004820152602560248201527f45524332303a2064656372656173656420616c6c6f77616e63652062656c6f77604482015264207a65726f60d81b6064820152608401610937565b6110fc33858584036111f7565b5060019392505050565b60006108a033848461131b565b6000610e3561178c565b600080516020613030833981519152611136813361163b565b60005b82811015610ea957611165600080516020612f89833981519152858584818110610ef757610ef7612f5c565b8061116f81612f2b565b915050611139565b600082815260fb6020526040902060010154611193813361163b565b610a5d8383611725565b6000805160206130308339815191526111b6813361163b565b60005b82811015610ea9576111e5600080516020613090833981519152858584818110610e8257610e82612f5c565b806111ef81612f2b565b9150506111b9565b6001600160a01b0383166112595760405162461bcd60e51b8152602060048201526024808201527f45524332303a20617070726f76652066726f6d20746865207a65726f206164646044820152637265737360e01b6064820152608401610937565b6001600160a01b0382166112ba5760405162461bcd60e51b815260206004820152602260248201527f45524332303a20617070726f766520746f20746865207a65726f206164647265604482015261737360f01b6064820152608401610937565b6001600160a01b0383811660008181526066602090815260408083209487168084529482529182902085905590518481527f8c5be1e5ebec7d5bd14f71427d1e84f3dd0314c0f7b2291e5b200ac8c7c3b925910160405180910390a3505050565b6001600160a01b03831661137f5760405162461bcd60e51b815260206004820152602560248201527f45524332303a207472616e736665722066726f6d20746865207a65726f206164604482015264647265737360d81b6064820152608401610937565b6001600160a01b0382166113e15760405162461bcd60e51b815260206004820152602360248201527f45524332303a207472616e7366657220746f20746865207a65726f206164647260448201526265737360e81b6064820152608401610937565b6113ec838383611d7d565b6001600160a01b038316600090815260656020526040902054818110156114645760405162461bcd60e51b815260206004820152602660248201527f45524332303a207472616e7366657220616d6f756e7420657863656564732062604482015265616c616e636560d01b6064820152608401610937565b6001600160a01b0380851660009081526065602052604080822085850390559185168152908120805484929061149b908490612e43565b92505081905550826001600160a01b0316846001600160a01b03167fddf252ad1be2c89b69c2b068fc378daa952ba7f163c4a11628f55a4df523b3ef846040516114e791815260200190565b60405180910390a3610ea9565b600054610100900460ff1661151b5760405162461bcd60e51b815260040161093790612df8565b611523611d93565b61152d8484611dea565b610ea98282611e38565b600054610100900460ff1661155e5760405162461bcd60e51b815260040161093790612df8565b6001600160a01b03811661157157600080fd5b81600080516020612fe983398151915255807fe38b16c806f019542b2d4bf356bb4ba2ea4b7eb450b8fbff2584f6084c4978f180546001600160a01b0319166001600160a01b03929092169190911790555050565b600054610100900460ff166115ed5760405162461bcd60e51b815260040161093790612df8565b611613600080516020613090833981519152600080516020613030833981519152611e79565b611639600080516020612f89833981519152600080516020613030833981519152611e79565b565b6116458282610fc0565b610adc5761165d816001600160a01b03166014611ec4565b611668836020611ec4565b604051602001611679929190612cb8565b60408051601f198184030181529082905262461bcd60e51b825261093791600401612d2d565b6116a98282610fc0565b610adc57600082815260fb602090815260408083206001600160a01b03851684529091529020805460ff191660011790556116e13390565b6001600160a01b0316816001600160a01b0316837f2f8788117e7eff1d82e926ec794901d17c78024a50270940304540a733656f0d60405160405180910390a45050565b61172f8282610fc0565b15610adc57600082815260fb602090815260408083206001600160a01b0385168085529252808320805460ff1916905551339285917ff6391f5c32d9c69d2a47ea670b442974b53935d1edc7fd64eb21e047a839171b9190a45050565b7f360894a13ba1a3210667c828492db98dca3e2076cc3735a920a3ca505d382bbc546001600160a01b031690565b6117d2600080516020612fc983398151915233610fc0565b806117f057506117f0600080516020612fa983398151915233610fc0565b610ba65760405162461bcd60e51b815260206004820152601d60248201527f4552524f523a2041646472657373206e6f7420617574686f72697a65640000006044820152606401610937565b600061184661178c565b905061185184612060565b60008351118061185e5750815b1561186f5761186d8484612105565b505b7f4910fdfa16fed3260ed0e7147f7cc6da11a60208b5b9406d12a635614ffd9143805460ff1661198057805460ff191660011781556040516001600160a01b03831660248201526118ee90869060440160408051601f198184030181529190526020810180516001600160e01b0316631b2ce7f360e11b179052612105565b50805460ff191681556118ff61178c565b6001600160a01b0316826001600160a01b0316146119775760405162461bcd60e51b815260206004820152602f60248201527f45524331393637557067726164653a207570677261646520627265616b73206660448201526e75727468657220757067726164657360881b6064820152608401610937565b611980856121f0565b5050505050565b6000805160206130708339815191525460ff166119dd5760405162461bcd60e51b815260206004820152601460248201527314185d5cd8589b194e881b9bdd081c185d5cd95960621b6044820152606401610937565b600080516020613070833981519152805460ff191690557f5db9ee0a495bf2e6ff9c91a7834c1ba4fdd244a5e8aa4e537bd38aeae4b073aa335b6040516001600160a01b03909116815260200160405180910390a1565b6001600160a01b038216611a945760405162461bcd60e51b815260206004820152602160248201527f45524332303a206275726e2066726f6d20746865207a65726f206164647265736044820152607360f81b6064820152608401610937565b611aa082600083611d7d565b6001600160a01b03821660009081526065602052604090205481811015611b145760405162461bcd60e51b815260206004820152602260248201527f45524332303a206275726e20616d6f756e7420657863656564732062616c616e604482015261636560f01b6064820152608401610937565b6001600160a01b0383166000908152606560205260408120838303905560678054849290611b43908490612e9c565b90915550506040518281526000906001600160a01b038516907fddf252ad1be2c89b69c2b068fc378daa952ba7f163c4a11628f55a4df523b3ef9060200160405180910390a3505050565b60008060008511611bda5760405162461bcd60e51b815260206004820152601660248201527504552433230536e617073686f743a20696420697320360541b6044820152606401610937565b60008051602061305083398151915254851115611c395760405162461bcd60e51b815260206004820152601d60248201527f4552433230536e617073686f743a206e6f6e6578697374656e742069640000006044820152606401610937565b6000611c458587612230565b90508454811415611c5d576000809250925050611c71565b6001611c6985836122cf565b549093509150505b935093915050565b6000805160206130708339815191525460ff1615611ccc5760405162461bcd60e51b815260206004820152601060248201526f14185d5cd8589b194e881c185d5cd95960821b6044820152606401610937565b600080516020613070833981519152805460ff191660011790557f62e78cea01bee320cd4e420270b5ea74000d11b0c9f74754ebdbfc544b05a25833611a17565b600060016000805160206130508339815191528054600090611d30908490612e43565b9091555050600080516020613050833981519152546040518181527f8030e83b04d87bef53480e26263266d6ca66863aa8506aca6f2559d18aa1cb679060200160405180910390a1919050565b611d8883838361234e565b610a5d83838361236f565b600054610100900460ff16611dba5760405162461bcd60e51b815260040161093790612df8565b611dc26123b7565b611dca6123b7565b611dd26123b7565b611dda6123b7565b611de26123b7565b6116396123de565b600054610100900460ff16611e115760405162461bcd60e51b815260040161093790612df8565b8151611e249060689060208501906128c1565b508051610a5d9060699060208401906128c1565b600054610100900460ff16611e5f5760405162461bcd60e51b815260040161093790612df8565b610160805460ff191660ff8416179055610adc3382612466565b600082815260fb6020526040808220600101805490849055905190918391839186917fbd79b86ffe0ab8e8776151514217cd7cacd52c909f66475c3af44e129f0b00ff9190a4505050565b60606000611ed3836002612e7d565b611ede906002612e43565b67ffffffffffffffff811115611ef657611ef6612f72565b6040519080825280601f01601f191660200182016040528015611f20576020820181803683370190505b509050600360fc1b81600081518110611f3b57611f3b612f5c565b60200101906001600160f81b031916908160001a905350600f60fb1b81600181518110611f6a57611f6a612f5c565b60200101906001600160f81b031916908160001a9053506000611f8e846002612e7d565b611f99906001612e43565b90505b6001811115612011576f181899199a1a9b1b9c1cb0b131b232b360811b85600f1660108110611fcd57611fcd612f5c565b1a60f81b828281518110611fe357611fe3612f5c565b60200101906001600160f81b031916908160001a90535060049490941c9361200a81612edf565b9050611f9c565b5083156109535760405162461bcd60e51b815260206004820181905260248201527f537472696e67733a20686578206c656e67746820696e73756666696369656e746044820152606401610937565b803b6120c45760405162461bcd60e51b815260206004820152602d60248201527f455243313936373a206e657720696d706c656d656e746174696f6e206973206e60448201526c1bdd08184818dbdb9d1c9858dd609a1b6064820152608401610937565b7f360894a13ba1a3210667c828492db98dca3e2076cc3735a920a3ca505d382bbc80546001600160a01b0319166001600160a01b0392909216919091179055565b6060823b6121645760405162461bcd60e51b815260206004820152602660248201527f416464726573733a2064656c65676174652063616c6c20746f206e6f6e2d636f6044820152651b9d1c9858dd60d21b6064820152608401610937565b600080846001600160a01b03168460405161217f9190612c9c565b600060405180830381855af49150503d80600081146121ba576040519150601f19603f3d011682016040523d82523d6000602084013e6121bf565b606091505b50915091506121e7828260405180606001604052806027815260200161300960279139612551565b95945050505050565b6121f981612060565b6040516001600160a01b038216907fbc7cd75a20ee27fd9adebab32041f755214dbc6bffa90cc0225b39da2e5c2d3b90600090a250565b8154600090819080612247576000925050506107fb565b8082101561228b57600061225b838361258a565b90508461226887836122cf565b54111561227757809150612285565b612282816001612e43565b92505b50612247565b6000821180156122ae5750836122ab866122a6600186612e9c565b6122cf565b54145b156122c7576122be600183612e9c565b925050506107fb565b5090506107fb565b6000825482106123175760405162461bcd60e51b815260206004820152601360248201527211549493d48e8813dd5d081bd988189bdd5b99606a1b6044820152606401610937565b818360405160200161232b91815260200190565b6040516020818303038152906040528051906020012060001c6109539190612e43565b612359838383611d88565b6123648383836125a5565b610a5d838383612628565b6001600160a01b03831661238e5761238682612711565b610a5d61279b565b6001600160a01b0382166123a55761238683612711565b6123ae83612711565b610a5d82612711565b600054610100900460ff166116395760405162461bcd60e51b815260040161093790612df8565b600054610100900460ff166124055760405162461bcd60e51b815260040161093790612df8565b6124106000336127e9565b612428600080516020612fc9833981519152336127e9565b612440600080516020612fa9833981519152336127e9565b611639600080516020612fa9833981519152600080516020612fc9833981519152611e79565b6001600160a01b0382166124bc5760405162461bcd60e51b815260206004820152601f60248201527f45524332303a206d696e7420746f20746865207a65726f2061646472657373006044820152606401610937565b6124c860008383611d7d565b80606760008282546124da9190612e43565b90915550506001600160a01b03821660009081526065602052604081208054839290612507908490612e43565b90915550506040518181526001600160a01b038316906000907fddf252ad1be2c89b69c2b068fc378daa952ba7f163c4a11628f55a4df523b3ef9060200160405180910390a35050565b60608315612560575081610953565b8251156125705782518084602001fd5b8160405162461bcd60e51b81526004016109379190612d2d565b60006125996002848418612e5b565b61095390848416612e43565b6000805160206130708339815191525460ff1615806125c957506125c983336127f3565b610a5d5760405162461bcd60e51b815260206004820152602a60248201527f45524332305061757361626c653a20746f6b656e207472616e736665722077686044820152691a5b19481c185d5cd95960b21b6064820152608401610937565b600080516020612fe9833981519152547fe38b16c806f019542b2d4bf356bb4ba2ea4b7eb450b8fbff2584f6084c4978f1546001600160a01b03168115806126815750836001600160a01b0316816001600160a01b0316145b8061269d5750846001600160a01b0316816001600160a01b0316145b806126af57506001600160a01b038516155b806126c157506001600160a01b038416155b156126cd575050505050565b6000670de0b6b3a7640000600080516020612fe9833981519152546126f29086612e7d565b6126fc9190612e5b565b905061270986838361131b565b505050505050565b604080516001600160a01b0383166020808301919091527ffbf1c7065455eb4486649b8540f24ef2dd4ebedf2aa423f0039d17c2c75dea1582840152825180830384018152606090920190925280519101206000612770826001612e43565b9050610a5d8282612796866001600160a01b031660009081526065602052604090205490565b61282b565b6116397f286a9db37a0f8ddcbcee127c9f4f56031230f49cb46786f87e166d552e11f67e7ffcaa8bb100d3c5b627eac0369cc1d2778dbeffa2993d08f039fb27795729e9a561279660675490565b610adc828261169f565b600061280d60008051602061309083398151915284610fc0565b806109535750610953600080516020612f8983398151915283610fc0565b60006128436000805160206130508339815191525490565b90508061284f85612869565b1015610ea95761285f8482612899565b610ea98383612899565b80546000908061287c5750600092915050565b61288b836122a6600184612e9c565b549392505050565b50919050565b815460018360006128aa8385612e43565b909155508290506128bb84836122cf565b55505050565b8280546128cd90612ef6565b90600052602060002090601f0160209004810192826128ef5760008555612935565b82601f1061290857805160ff1916838001178555612935565b82800160010185558215612935579182015b8281111561293557825182559160200191906001019061291a565b50612941929150612945565b5090565b5b808211156129415760008155600101612946565b600067ffffffffffffffff8084111561297557612975612f72565b604051601f8501601f19908116603f0116810190828211818310171561299d5761299d612f72565b816040528093508581528686860111156129b657600080fd5b858560208301376000602087830101525050509392505050565b80356001600160a01b03811681146129e757600080fd5b919050565b600082601f8301126129fd57600080fd5b6109538383356020850161295a565b600060208284031215612a1e57600080fd5b610953826129d0565b60008060408385031215612a3a57600080fd5b612a43836129d0565b9150612a51602084016129d0565b90509250929050565b600080600060608486031215612a6f57600080fd5b612a78846129d0565b9250612a86602085016129d0565b9150604084013590509250925092565b60008060408385031215612aa957600080fd5b612ab2836129d0565b9150602083013567ffffffffffffffff811115612ace57600080fd5b8301601f81018513612adf57600080fd5b612aee8582356020840161295a565b9150509250929050565b60008060408385031215612b0b57600080fd5b612b14836129d0565b946020939093013593505050565b60008060208385031215612b3557600080fd5b823567ffffffffffffffff80821115612b4d57600080fd5b818501915085601f830112612b6157600080fd5b813581811115612b7057600080fd5b8660208260051b8501011115612b8557600080fd5b60209290920196919550909350505050565b600060208284031215612ba957600080fd5b5035919050565b60008060408385031215612bc357600080fd5b82359150612a51602084016129d0565b600060208284031215612be557600080fd5b81356001600160e01b03198116811461095357600080fd5b60008060008060008060c08789031215612c1657600080fd5b863567ffffffffffffffff80821115612c2e57600080fd5b612c3a8a838b016129ec565b97506020890135915080821115612c5057600080fd5b50612c5d89828a016129ec565b955050604087013560ff81168114612c7457600080fd5b93506060870135925060808701359150612c9060a088016129d0565b90509295509295509295565b60008251612cae818460208701612eb3565b9190910192915050565b7f416363657373436f6e74726f6c3a206163636f756e7420000000000000000000815260008351612cf0816017850160208801612eb3565b7001034b99036b4b9b9b4b733903937b6329607d1b6017918401918201528351612d21816028840160208801612eb3565b01602801949350505050565b6020815260008251806020840152612d4c816040850160208701612eb3565b601f01601f19169190910160400192915050565b6020808252602c908201527f46756e6374696f6e206d7573742062652063616c6c6564207468726f7567682060408201526b19195b1959d85d1958d85b1b60a21b606082015260800190565b6020808252602c908201527f46756e6374696f6e206d7573742062652063616c6c6564207468726f7567682060408201526b6163746976652070726f787960a01b606082015260800190565b6020808252602b908201527f496e697469616c697a61626c653a20636f6e7472616374206973206e6f74206960408201526a6e697469616c697a696e6760a81b606082015260800190565b60008219821115612e5657612e56612f46565b500190565b600082612e7857634e487b7160e01b600052601260045260246000fd5b500490565b6000816000190483118215151615612e9757612e97612f46565b500290565b600082821015612eae57612eae612f46565b500390565b60005b83811015612ece578181015183820152602001612eb6565b83811115610ea95750506000910152565b600081612eee57612eee612f46565b506000190190565b600181811c90821680612f0a57607f821691505b6020821081141561289357634e487b7160e01b600052602260045260246000fd5b6000600019821415612f3f57612f3f612f46565b5060010190565b634e487b7160e01b600052601160045260246000fd5b634e487b7160e01b600052603260045260246000fd5b634e487b7160e01b600052604160045260246000fdfee1ac655ab58995133a870d1fd307ddc1d624c8ad919a09e67867a7a1483e439aa76ace73a908083d89af9ff88e5b4f7cadb3591a80631063f68b695fda726db571840dc4906352362b0cdaf79870196c8e42acafade72d5d5a6d59291253ceb1253122b26cc2118faf5fcfc7761bd75fcfb5508f1f48d1a40db694aba32af5d0416464726573733a206c6f772d6c6576656c2064656c65676174652063616c6c206661696c6564356a809dfdea9198dd76fb76bf6d403ecf13ea675eb89e1eda2db2c4a4676a260d0a0ed3351c10a57d74a44b40c06e0946288e4e3816ac07bb89db2a755562e7ad6a6591fa308fe948065665239402780db8ed4a8c4e4e16c4d066bcaa05efc2ce108bcc5e0f50fe603649304cbbbd94de794a404db82d884c0afc9ba9328e61a2646970667358221220bcfcc977e68853b1336f79dc6a1c62c639255eabfd1718e62d8345e2893e183364736f6c63430008060033",
  "linkReferences": {},
  "deployedLinkReferences": {}
}