{
  "_format": "hh-sol-artifact-1",
  "name": "BurnWhiteListTemplate",
  "initializer": "function initialize(string name_, string symbol_, uint8 decimals_, uint256 amount_)",
  "sourceName": "contracts/templates/BurnWhiteListTemplate.sol",
  "abi": [
    {
      "anonymous": false,
      "inputs": [
        {
          "indexed": false,
          "internalType": "address",
          "name": "previousAdmin",
          "type": "address"
        },
        {
          "indexed": false,
          "internalType": "address",
          "name": "newAdmin",
          "type": "address"
        }
      ],
      "name": "AdminChanged",
      "type": "event"
    },
    {
      "anonymous": false,
      "inputs": [
        {
          "indexed": true,
          "internalType": "address",
          "name": "owner",
          "type": "address"
        },
        {
          "indexed": true,
          "internalType": "address",
          "name": "spender",
          "type": "address"
        },
        {
          "indexed": false,
          "internalType": "uint256",
          "name": "value",
          "type": "uint256"
        }
      ],
      "name": "Approval",
      "type": "event"
    },
    {
      "anonymous": false,
      "inputs": [
        {
          "indexed": true,
          "internalType": "address",
          "name": "beacon",
          "type": "address"
        }
      ],
      "name": "BeaconUpgraded",
      "type": "event"
    },
    {
      "anonymous": false,
      "inputs": [
        {
          "indexed": false,
          "internalType": "address",
          "name": "account",
          "type": "address"
        }
      ],
      "name": "Paused",
      "type": "event"
    },
    {
      "anonymous": false,
      "inputs": [
        {
          "indexed": true,
          "internalType": "bytes32",
          "name": "role",
          "type": "bytes32"
        },
        {
          "indexed": true,
          "internalType": "bytes32",
          "name": "previousAdminRole",
          "type": "bytes32"
        },
        {
          "indexed": true,
          "internalType": "bytes32",
          "name": "newAdminRole",
          "type": "bytes32"
        }
      ],
      "name": "RoleAdminChanged",
      "type": "event"
    },
    {
      "anonymous": false,
      "inputs": [
        {
          "indexed": true,
          "internalType": "bytes32",
          "name": "role",
          "type": "bytes32"
        },
        {
          "indexed": true,
          "internalType": "address",
          "name": "account",
          "type": "address"
        },
        {
          "indexed": true,
          "internalType": "address",
          "name": "sender",
          "type": "address"
        }
      ],
      "name": "RoleGranted",
      "type": "event"
    },
    {
      "anonymous": false,
      "inputs": [
        {
          "indexed": true,
          "internalType": "bytes32",
          "name": "role",
          "type": "bytes32"
        },
        {
          "indexed": true,
          "internalType": "address",
          "name": "account",
          "type": "address"
        },
        {
          "indexed": true,
          "internalType": "address",
          "name": "sender",
          "type": "address"
        }
      ],
      "name": "RoleRevoked",
      "type": "event"
    },
    {
      "anonymous": false,
      "inputs": [
        {
          "indexed": true,
          "internalType": "address",
          "name": "from",
          "type": "address"
        },
        {
          "indexed": true,
          "internalType": "address",
          "name": "to",
          "type": "address"
        },
        {
          "indexed": false,
          "internalType": "uint256",
          "name": "value",
          "type": "uint256"
        }
      ],
      "name": "Transfer",
      "type": "event"
    },
    {
      "anonymous": false,
      "inputs": [
        {
          "indexed": false,
          "internalType": "address",
          "name": "account",
          "type": "address"
        }
      ],
      "name": "Unpaused",
      "type": "event"
    },
    {
      "anonymous": false,
      "inputs": [
        {
          "indexed": true,
          "internalType": "address",
          "name": "implementation",
          "type": "address"
        }
      ],
      "name": "Upgraded",
      "type": "event"
    },
    {
      "inputs": [],
      "name": "DEFAULT_ADMIN_ROLE",
      "outputs": [
        {
          "internalType": "bytes32",
          "name": "",
          "type": "bytes32"
        }
      ],
      "stateMutability": "view",
      "type": "function"
    },
    {
      "inputs": [],
      "name": "GOVERNANCE_ROLE",
      "outputs": [
        {
          "internalType": "bytes32",
          "name": "",
          "type": "bytes32"
        }
      ],
      "stateMutability": "view",
      "type": "function"
    },
    {
      "inputs": [],
      "name": "PAUSE_MANAGER_ROLE",
      "outputs": [
        {
          "internalType": "bytes32",
          "name": "",
          "type": "bytes32"
        }
      ],
      "stateMutability": "view",
      "type": "function"
    },
    {
      "inputs": [],
      "name": "UPGRADE_MANAGER_ROLE",
      "outputs": [
        {
          "internalType": "bytes32",
          "name": "",
          "type": "bytes32"
        }
      ],
      "stateMutability": "view",
      "type": "function"
    },
    {
      "inputs": [],
      "name": "WHITELISTED_FROM_ROLE",
      "outputs": [
        {
          "internalType": "bytes32",
          "name": "",
          "type": "bytes32"
        }
      ],
      "stateMutability": "view",
      "type": "function"
    },
    {
      "inputs": [],
      "name": "WHITELISTED_SENDER_ROLE",
      "outputs": [
        {
          "internalType": "bytes32",
          "name": "",
          "type": "bytes32"
        }
      ],
      "stateMutability": "view",
      "type": "function"
    },
    {
      "inputs": [
        {
          "internalType": "address[]",
          "name": "addresses",
          "type": "address[]"
        }
      ],
      "name": "addAddressesToWhitelistFrom",
      "outputs": [],
      "stateMutability": "nonpayable",
      "type": "function"
    },
    {
      "inputs": [
        {
          "internalType": "address[]",
          "name": "addresses",
          "type": "address[]"
        }
      ],
      "name": "addAddressesToWhitelistSender",
      "outputs": [],
      "stateMutability": "nonpayable",
      "type": "function"
    },
    {
      "inputs": [
        {
          "internalType": "address",
          "name": "owner",
          "type": "address"
        },
        {
          "internalType": "address",
          "name": "spender",
          "type": "address"
        }
      ],
      "name": "allowance",
      "outputs": [
        {
          "internalType": "uint256",
          "name": "",
          "type": "uint256"
        }
      ],
      "stateMutability": "view",
      "type": "function"
    },
    {
      "inputs": [
        {
          "internalType": "address",
          "name": "spender",
          "type": "address"
        },
        {
          "internalType": "uint256",
          "name": "amount",
          "type": "uint256"
        }
      ],
      "name": "approve",
      "outputs": [
        {
          "internalType": "bool",
          "name": "",
          "type": "bool"
        }
      ],
      "stateMutability": "nonpayable",
      "type": "function"
    },
    {
      "inputs": [
        {
          "internalType": "address",
          "name": "account",
          "type": "address"
        }
      ],
      "name": "balanceOf",
      "outputs": [
        {
          "internalType": "uint256",
          "name": "",
          "type": "uint256"
        }
      ],
      "stateMutability": "view",
      "type": "function"
    },
    {
      "inputs": [
        {
          "internalType": "uint256",
          "name": "amount",
          "type": "uint256"
        }
      ],
      "name": "burn",
      "outputs": [],
      "stateMutability": "nonpayable",
      "type": "function"
    },
    {
      "inputs": [
        {
          "internalType": "address",
          "name": "account",
          "type": "address"
        },
        {
          "internalType": "uint256",
          "name": "amount",
          "type": "uint256"
        }
      ],
      "name": "burnFrom",
      "outputs": [],
      "stateMutability": "nonpayable",
      "type": "function"
    },
    {
      "inputs": [],
      "name": "decimals",
      "outputs": [
        {
          "internalType": "uint8",
          "name": "",
          "type": "uint8"
        }
      ],
      "stateMutability": "view",
      "type": "function"
    },
    {
      "inputs": [
        {
          "internalType": "address",
          "name": "spender",
          "type": "address"
        },
        {
          "internalType": "uint256",
          "name": "subtractedValue",
          "type": "uint256"
        }
      ],
      "name": "decreaseAllowance",
      "outputs": [
        {
          "internalType": "bool",
          "name": "",
          "type": "bool"
        }
      ],
      "stateMutability": "nonpayable",
      "type": "function"
    },
    {
      "inputs": [],
      "name": "getImplementation",
      "outputs": [
        {
          "internalType": "address",
          "name": "",
          "type": "address"
        }
      ],
      "stateMutability": "view",
      "type": "function"
    },
    {
      "inputs": [
        {
          "internalType": "bytes32",
          "name": "role",
          "type": "bytes32"
        }
      ],
      "name": "getRoleAdmin",
      "outputs": [
        {
          "internalType": "bytes32",
          "name": "",
          "type": "bytes32"
        }
      ],
      "stateMutability": "view",
      "type": "function"
    },
    {
      "inputs": [
        {
          "internalType": "bytes32",
          "name": "role",
          "type": "bytes32"
        },
        {
          "internalType": "address",
          "name": "account",
          "type": "address"
        }
      ],
      "name": "grantRole",
      "outputs": [],
      "stateMutability": "nonpayable",
      "type": "function"
    },
    {
      "inputs": [
        {
          "internalType": "bytes32",
          "name": "role",
          "type": "bytes32"
        },
        {
          "internalType": "address",
          "name": "account",
          "type": "address"
        }
      ],
      "name": "hasRole",
      "outputs": [
        {
          "internalType": "bool",
          "name": "",
          "type": "bool"
        }
      ],
      "stateMutability": "view",
      "type": "function"
    },
    {
      "inputs": [
        {
          "internalType": "address",
          "name": "spender",
          "type": "address"
        },
        {
          "internalType": "uint256",
          "name": "addedValue",
          "type": "uint256"
        }
      ],
      "name": "increaseAllowance",
      "outputs": [
        {
          "internalType": "bool",
          "name": "",
          "type": "bool"
        }
      ],
      "stateMutability": "nonpayable",
      "type": "function"
    },
    {
      "inputs": [
        {
          "internalType": "string",
          "name": "name_",
          "type": "string"
        },
        {
          "internalType": "string",
          "name": "symbol_",
          "type": "string"
        },
        {
          "internalType": "uint8",
          "name": "decimals_",
          "type": "uint8"
        },
        {
          "internalType": "uint256",
          "name": "amount_",
          "type": "uint256"
        }
      ],
      "name": "initialize",
      "outputs": [],
      "stateMutability": "nonpayable",
      "type": "function"
    },
    {
      "inputs": [],
      "name": "name",
      "outputs": [
        {
          "internalType": "string",
          "name": "",
          "type": "string"
        }
      ],
      "stateMutability": "view",
      "type": "function"
    },
    {
      "inputs": [],
      "name": "pause",
      "outputs": [],
      "stateMutability": "nonpayable",
      "type": "function"
    },
    {
      "inputs": [],
      "name": "paused",
      "outputs": [
        {
          "internalType": "bool",
          "name": "",
          "type": "bool"
        }
      ],
      "stateMutability": "view",
      "type": "function"
    },
    {
      "inputs": [
        {
          "internalType": "address",
          "name": "implementationAddress",
          "type": "address"
        }
      ],
      "name": "proposeNewImplementation",
      "outputs": [],
      "stateMutability": "nonpayable",
      "type": "function"
    },
    {
      "inputs": [
        {
          "internalType": "address[]",
          "name": "addresses",
          "type": "address[]"
        }
      ],
      "name": "removeAddressesFromWhitelistFrom",
      "outputs": [],
      "stateMutability": "nonpayable",
      "type": "function"
    },
    {
      "inputs": [
        {
          "internalType": "address[]",
          "name": "addresses",
          "type": "address[]"
        }
      ],
      "name": "removeAddressesFromWhitelistSender",
      "outputs": [],
      "stateMutability": "nonpayable",
      "type": "function"
    },
    {
      "inputs": [
        {
          "internalType": "bytes32",
          "name": "role",
          "type": "bytes32"
        },
        {
          "internalType": "address",
          "name": "account",
          "type": "address"
        }
      ],
      "name": "renounceRole",
      "outputs": [],
      "stateMutability": "nonpayable",
      "type": "function"
    },
    {
      "inputs": [
        {
          "internalType": "bytes32",
          "name": "role",
          "type": "bytes32"
        },
        {
          "internalType": "address",
          "name": "account",
          "type": "address"
        }
      ],
      "name": "revokeRole",
      "outputs": [],
      "stateMutability": "nonpayable",
      "type": "function"
    },
    {
      "inputs": [
        {
          "internalType": "bytes4",
          "name": "interfaceId",
          "type": "bytes4"
        }
      ],
      "name": "supportsInterface",
      "outputs": [
        {
          "internalType": "bool",
          "name": "",
          "type": "bool"
        }
      ],
      "stateMutability": "view",
      "type": "function"
    },
    {
      "inputs": [],
      "name": "symbol",
      "outputs": [
        {
          "internalType": "string",
          "name": "",
          "type": "string"
        }
      ],
      "stateMutability": "view",
      "type": "function"
    },
    {
      "inputs": [],
      "name": "totalSupply",
      "outputs": [
        {
          "internalType": "uint256",
          "name": "",
          "type": "uint256"
        }
      ],
      "stateMutability": "view",
      "type": "function"
    },
    {
      "inputs": [
        {
          "internalType": "address",
          "name": "recipient",
          "type": "address"
        },
        {
          "internalType": "uint256",
          "name": "amount",
          "type": "uint256"
        }
      ],
      "name": "transfer",
      "outputs": [
        {
          "internalType": "bool",
          "name": "",
          "type": "bool"
        }
      ],
      "stateMutability": "nonpayable",
      "type": "function"
    },
    {
      "inputs": [
        {
          "internalType": "address",
          "name": "sender",
          "type": "address"
        },
        {
          "internalType": "address",
          "name": "recipient",
          "type": "address"
        },
        {
          "internalType": "uint256",
          "name": "amount",
          "type": "uint256"
        }
      ],
      "name": "transferFrom",
      "outputs": [
        {
          "internalType": "bool",
          "name": "",
          "type": "bool"
        }
      ],
      "stateMutability": "nonpayable",
      "type": "function"
    },
    {
      "inputs": [],
      "name": "unpause",
      "outputs": [],
      "stateMutability": "nonpayable",
      "type": "function"
    },
    {
      "inputs": [
        {
          "internalType": "address",
          "name": "newImplementation",
          "type": "address"
        }
      ],
      "name": "upgradeTo",
      "outputs": [],
      "stateMutability": "nonpayable",
      "type": "function"
    },
    {
      "inputs": [
        {
          "internalType": "address",
          "name": "newImplementation",
          "type": "address"
        },
        {
          "internalType": "bytes",
          "name": "data",
          "type": "bytes"
        }
      ],
      "name": "upgradeToAndCall",
      "outputs": [],
      "stateMutability": "payable",
      "type": "function"
    }
  ],
  "bytecode": "0x60a06040523060601b60805234801561001757600080fd5b5060805160601c61281261004b60003960008181610a1e01528181610a5e01528181610b8b0152610bcb01526128126000f3fe60806040526004361061021a5760003560e01c8063685ed81a11610123578063a457c2d7116100ab578063d547741f1161006f578063d547741f1461063f578063d84f91e81461065f578063dd62ed3e14610681578063f36c8f5c146106c7578063f834c502146106e957600080fd5b8063a457c2d714610590578063a9059cbb146105b0578063aa74a34a146105d0578063aaf10f42146105f2578063c233f3b71461061f57600080fd5b806379cc6790116100f257806379cc6790146105115780638456cb591461053157806391d148541461054657806395d89b4114610566578063a217fddf1461057b57600080fd5b8063685ed81a146104795780636e79a1c01461049957806370a08231146104b9578063731ce8fc146104ef57600080fd5b806336568abe116101a657806342966c681161017557806342966c68146103df57806343ffa64e146103ff57806347757fb6146104215780634f1ef286146104415780635c975abb1461045457600080fd5b806336568abe1461036a5780633659cfe61461038a57806339509351146103aa5780633f4ba83a146103ca57600080fd5b806323b872dd116101ed57806323b872dd146102b5578063248a9ca3146102d5578063253279ad146103055780632f2ff15d14610327578063313ce5671461034757600080fd5b806301ffc9a71461021f57806306fdde0314610254578063095ea7b31461027657806318160ddd14610296575b600080fd5b34801561022b57600080fd5b5061023f61023a366004612377565b610709565b60405190151581526020015b60405180910390f35b34801561026057600080fd5b50610269610740565b60405161024b91906124b6565b34801561028257600080fd5b5061023f61029136600461229c565b6107d2565b3480156102a257600080fd5b506067545b60405190815260200161024b565b3480156102c157600080fd5b5061023f6102d03660046121fe565b6107e8565b3480156102e157600080fd5b506102a76102f036600461233b565b600090815260fb602052604090206001015490565b34801561031157600080fd5b506103256103203660046123a1565b610899565b005b34801561033357600080fd5b50610325610342366004612354565b61096a565b34801561035357600080fd5b506101605460405160ff909116815260200161024b565b34801561037657600080fd5b50610325610385366004612354565b610995565b34801561039657600080fd5b506103256103a53660046121b0565b610a13565b3480156103b657600080fd5b5061023f6103c536600461229c565b610adc565b3480156103d657600080fd5b50610325610b18565b3480156103eb57600080fd5b506103256103fa36600461233b565b610b39565b34801561040b57600080fd5b506102a760008051602061271683398151915281565b34801561042d57600080fd5b5061032561043c3660046121b0565b610b43565b61032561044f36600461223a565b610b80565b34801561046057600080fd5b5060008051602061279d8339815191525460ff1661023f565b34801561048557600080fd5b506103256104943660046122c6565b610c36565b3480156104a557600080fd5b506103256104b43660046122c6565b610cab565b3480156104c557600080fd5b506102a76104d43660046121b0565b6001600160a01b031660009081526065602052604090205490565b3480156104fb57600080fd5b506102a76000805160206127bd83398151915281565b34801561051d57600080fd5b5061032561052c36600461229c565b610d1a565b34801561053d57600080fd5b50610325610d9b565b34801561055257600080fd5b5061023f610561366004612354565b610dbc565b34801561057257600080fd5b50610269610de7565b34801561058757600080fd5b506102a7600081565b34801561059c57600080fd5b5061023f6105ab36600461229c565b610df6565b3480156105bc57600080fd5b5061023f6105cb36600461229c565b610e8f565b3480156105dc57600080fd5b506102a76000805160206126f683398151915281565b3480156105fe57600080fd5b50610607610e9c565b6040516001600160a01b03909116815260200161024b565b34801561062b57600080fd5b5061032561063a3660046122c6565b610eab565b34801561064b57600080fd5b5061032561065a366004612354565b610f05565b34801561066b57600080fd5b506102a760008051602061277d83398151915281565b34801561068d57600080fd5b506102a761069c3660046121cb565b6001600160a01b03918216600090815260666020908152604080832093909416825291909152205490565b3480156106d357600080fd5b506102a760008051602061273683398151915281565b3480156106f557600080fd5b506103256107043660046122c6565b610f2b565b60006001600160e01b03198216637965db0b60e01b148061073a57506301ffc9a760e01b6001600160e01b03198316145b92915050565b60606068805461074f9061265d565b80601f016020809104026020016040519081016040528092919081815260200182805461077b9061265d565b80156107c85780601f1061079d576101008083540402835291602001916107c8565b820191906000526020600020905b8154815290600101906020018083116107ab57829003601f168201915b5050505050905090565b60006107df338484610f85565b50600192915050565b60006107f58484846110a9565b6001600160a01b03841660009081526066602090815260408083203384529091529020548281101561087f5760405162461bcd60e51b815260206004820152602860248201527f45524332303a207472616e7366657220616d6f756e74206578636565647320616044820152676c6c6f77616e636560c01b60648201526084015b60405180910390fd5b61088c8533858403610f85565b60019150505b9392505050565b600054610100900460ff166108b45760005460ff16156108b8565b303b155b61091b5760405162461bcd60e51b815260206004820152602e60248201527f496e697469616c697a61626c653a20636f6e747261637420697320616c72656160448201526d191e481a5b9a5d1a585b1a5e995960921b6064820152608401610876565b600054610100900460ff1615801561093d576000805461ffff19166101011790555b61094985858585611282565b6109516112c5565b8015610963576000805461ff00191690555b5050505050565b600082815260fb6020526040902060010154610986813361133a565b610990838361139e565b505050565b6001600160a01b0381163314610a055760405162461bcd60e51b815260206004820152602f60248201527f416363657373436f6e74726f6c3a2063616e206f6e6c792072656e6f756e636560448201526e103937b632b9903337b91039b2b63360891b6064820152608401610876565b610a0f8282611424565b5050565b306001600160a01b037f0000000000000000000000000000000000000000000000000000000000000000161415610a5c5760405162461bcd60e51b8152600401610876906124e9565b7f00000000000000000000000000000000000000000000000000000000000000006001600160a01b0316610a8e61148b565b6001600160a01b031614610ab45760405162461bcd60e51b815260040161087690612535565b610abd816114b9565b60408051600080825260208201909252610ad99183919061153b565b50565b3360008181526066602090815260408083206001600160a01b038716845290915281205490916107df918590610b139086906125cc565b610f85565b60008051602061277d833981519152610b31813361133a565b610ad961167f565b610ad9338261172c565b600080516020612736833981519152610b5c813361133a565b5061012d80546001600160a01b0319166001600160a01b0392909216919091179055565b306001600160a01b037f0000000000000000000000000000000000000000000000000000000000000000161415610bc95760405162461bcd60e51b8152600401610876906124e9565b7f00000000000000000000000000000000000000000000000000000000000000006001600160a01b0316610bfb61148b565b6001600160a01b031614610c215760405162461bcd60e51b815260040161087690612535565b610c2a826114b9565b610a0f8282600161153b565b60008051602061277d833981519152610c4f813361133a565b60005b82811015610ca557610c936000805160206126f6833981519152858584818110610c7e57610c7e6126c9565b905060200201602081019061034291906121b0565b80610c9d81612698565b915050610c52565b50505050565b60008051602061277d833981519152610cc4813361133a565b60005b82811015610ca557610d086000805160206127bd833981519152858584818110610cf357610cf36126c9565b905060200201602081019061065a91906121b0565b80610d1281612698565b915050610cc7565b6000610d26833361069c565b905081811015610d845760405162461bcd60e51b8152602060048201526024808201527f45524332303a206275726e20616d6f756e74206578636565647320616c6c6f77604482015263616e636560e01b6064820152608401610876565b610d918333848403610f85565b610990838361172c565b60008051602061277d833981519152610db4813361133a565b610ad9611886565b600091825260fb602090815260408084206001600160a01b0393909316845291905290205460ff1690565b60606069805461074f9061265d565b3360009081526066602090815260408083206001600160a01b038616845290915281205482811015610e785760405162461bcd60e51b815260206004820152602560248201527f45524332303a2064656372656173656420616c6c6f77616e63652062656c6f77604482015264207a65726f60d81b6064820152608401610876565b610e853385858403610f85565b5060019392505050565b60006107df3384846110a9565b6000610ea661148b565b905090565b60008051602061277d833981519152610ec4813361133a565b60005b82811015610ca557610ef36000805160206126f6833981519152858584818110610cf357610cf36126c9565b80610efd81612698565b915050610ec7565b600082815260fb6020526040902060010154610f21813361133a565b6109908383611424565b60008051602061277d833981519152610f44813361133a565b60005b82811015610ca557610f736000805160206127bd833981519152858584818110610c7e57610c7e6126c9565b80610f7d81612698565b915050610f47565b6001600160a01b038316610fe75760405162461bcd60e51b8152602060048201526024808201527f45524332303a20617070726f76652066726f6d20746865207a65726f206164646044820152637265737360e01b6064820152608401610876565b6001600160a01b0382166110485760405162461bcd60e51b815260206004820152602260248201527f45524332303a20617070726f766520746f20746865207a65726f206164647265604482015261737360f01b6064820152608401610876565b6001600160a01b0383811660008181526066602090815260408083209487168084529482529182902085905590518481527f8c5be1e5ebec7d5bd14f71427d1e84f3dd0314c0f7b2291e5b200ac8c7c3b925910160405180910390a3505050565b6001600160a01b03831661110d5760405162461bcd60e51b815260206004820152602560248201527f45524332303a207472616e736665722066726f6d20746865207a65726f206164604482015264647265737360d81b6064820152608401610876565b6001600160a01b03821661116f5760405162461bcd60e51b815260206004820152602360248201527f45524332303a207472616e7366657220746f20746865207a65726f206164647260448201526265737360e81b6064820152608401610876565b61117a83838361191a565b6001600160a01b038316600090815260656020526040902054818110156111f25760405162461bcd60e51b815260206004820152602660248201527f45524332303a207472616e7366657220616d6f756e7420657863656564732062604482015265616c616e636560d01b6064820152608401610876565b6001600160a01b038085166000908152606560205260408082208585039055918516815290812080548492906112299084906125cc565b92505081905550826001600160a01b0316846001600160a01b03167fddf252ad1be2c89b69c2b068fc378daa952ba7f163c4a11628f55a4df523b3ef8460405161127591815260200190565b60405180910390a3610ca5565b600054610100900460ff166112a95760405162461bcd60e51b815260040161087690612581565b6112b1611925565b6112bb848461197c565b610ca582826119ca565b600054610100900460ff166112ec5760405162461bcd60e51b815260040161087690612581565b6113126000805160206127bd83398151915260008051602061277d833981519152611a0b565b6113386000805160206126f683398151915260008051602061277d833981519152611a0b565b565b6113448282610dbc565b610a0f5761135c816001600160a01b03166014611a56565b611367836020611a56565b604051602001611378929190612441565b60408051601f198184030181529082905262461bcd60e51b8252610876916004016124b6565b6113a88282610dbc565b610a0f57600082815260fb602090815260408083206001600160a01b03851684529091529020805460ff191660011790556113e03390565b6001600160a01b0316816001600160a01b0316837f2f8788117e7eff1d82e926ec794901d17c78024a50270940304540a733656f0d60405160405180910390a45050565b61142e8282610dbc565b15610a0f57600082815260fb602090815260408083206001600160a01b0385168085529252808320805460ff1916905551339285917ff6391f5c32d9c69d2a47ea670b442974b53935d1edc7fd64eb21e047a839171b9190a45050565b7f360894a13ba1a3210667c828492db98dca3e2076cc3735a920a3ca505d382bbc546001600160a01b031690565b6114d160008051602061273683398151915233610dbc565b806114ef57506114ef60008051602061271683398151915233610dbc565b610ad95760405162461bcd60e51b815260206004820152601d60248201527f4552524f523a2041646472657373206e6f7420617574686f72697a65640000006044820152606401610876565b600061154561148b565b905061155084611bf2565b60008351118061155d5750815b1561156e5761156c8484611c97565b505b7f4910fdfa16fed3260ed0e7147f7cc6da11a60208b5b9406d12a635614ffd9143805460ff1661096357805460ff191660011781556040516001600160a01b03831660248201526115ed90869060440160408051601f198184030181529190526020810180516001600160e01b0316631b2ce7f360e11b179052611c97565b50805460ff191681556115fe61148b565b6001600160a01b0316826001600160a01b0316146116765760405162461bcd60e51b815260206004820152602f60248201527f45524331393637557067726164653a207570677261646520627265616b73206660448201526e75727468657220757067726164657360881b6064820152608401610876565b61096385611d82565b60008051602061279d8339815191525460ff166116d55760405162461bcd60e51b815260206004820152601460248201527314185d5cd8589b194e881b9bdd081c185d5cd95960621b6044820152606401610876565b60008051602061279d833981519152805460ff191690557f5db9ee0a495bf2e6ff9c91a7834c1ba4fdd244a5e8aa4e537bd38aeae4b073aa335b6040516001600160a01b03909116815260200160405180910390a1565b6001600160a01b03821661178c5760405162461bcd60e51b815260206004820152602160248201527f45524332303a206275726e2066726f6d20746865207a65726f206164647265736044820152607360f81b6064820152608401610876565b6117988260008361191a565b6001600160a01b0382166000908152606560205260409020548181101561180c5760405162461bcd60e51b815260206004820152602260248201527f45524332303a206275726e20616d6f756e7420657863656564732062616c616e604482015261636560f01b6064820152608401610876565b6001600160a01b038316600090815260656020526040812083830390556067805484929061183b908490612603565b90915550506040518281526000906001600160a01b038516907fddf252ad1be2c89b69c2b068fc378daa952ba7f163c4a11628f55a4df523b3ef9060200160405180910390a3505050565b60008051602061279d8339815191525460ff16156118d95760405162461bcd60e51b815260206004820152601060248201526f14185d5cd8589b194e881c185d5cd95960821b6044820152606401610876565b60008051602061279d833981519152805460ff191660011790557f62e78cea01bee320cd4e420270b5ea74000d11b0c9f74754ebdbfc544b05a2583361170f565b610990838383611dc2565b600054610100900460ff1661194c5760405162461bcd60e51b815260040161087690612581565b611954611dcd565b61195c611dcd565b611964611dcd565b61196c611dcd565b611974611dcd565b611338611df4565b600054610100900460ff166119a35760405162461bcd60e51b815260040161087690612581565b81516119b6906068906020850190612065565b508051610990906069906020840190612065565b600054610100900460ff166119f15760405162461bcd60e51b815260040161087690612581565b610160805460ff191660ff8416179055610a0f3382611e7c565b600082815260fb6020526040808220600101805490849055905190918391839186917fbd79b86ffe0ab8e8776151514217cd7cacd52c909f66475c3af44e129f0b00ff9190a4505050565b60606000611a658360026125e4565b611a709060026125cc565b67ffffffffffffffff811115611a8857611a886126df565b6040519080825280601f01601f191660200182016040528015611ab2576020820181803683370190505b509050600360fc1b81600081518110611acd57611acd6126c9565b60200101906001600160f81b031916908160001a905350600f60fb1b81600181518110611afc57611afc6126c9565b60200101906001600160f81b031916908160001a9053506000611b208460026125e4565b611b2b9060016125cc565b90505b6001811115611ba3576f181899199a1a9b1b9c1cb0b131b232b360811b85600f1660108110611b5f57611b5f6126c9565b1a60f81b828281518110611b7557611b756126c9565b60200101906001600160f81b031916908160001a90535060049490941c93611b9c81612646565b9050611b2e565b5083156108925760405162461bcd60e51b815260206004820181905260248201527f537472696e67733a20686578206c656e67746820696e73756666696369656e746044820152606401610876565b803b611c565760405162461bcd60e51b815260206004820152602d60248201527f455243313936373a206e657720696d706c656d656e746174696f6e206973206e60448201526c1bdd08184818dbdb9d1c9858dd609a1b6064820152608401610876565b7f360894a13ba1a3210667c828492db98dca3e2076cc3735a920a3ca505d382bbc80546001600160a01b0319166001600160a01b0392909216919091179055565b6060823b611cf65760405162461bcd60e51b815260206004820152602660248201527f416464726573733a2064656c65676174652063616c6c20746f206e6f6e2d636f6044820152651b9d1c9858dd60d21b6064820152608401610876565b600080846001600160a01b031684604051611d119190612425565b600060405180830381855af49150503d8060008114611d4c576040519150601f19603f3d011682016040523d82523d6000602084013e611d51565b606091505b5091509150611d79828260405180606001604052806027815260200161275660279139611f67565b95945050505050565b611d8b81611bf2565b6040516001600160a01b038216907fbc7cd75a20ee27fd9adebab32041f755214dbc6bffa90cc0225b39da2e5c2d3b90600090a250565b610990838383611fa0565b600054610100900460ff166113385760405162461bcd60e51b815260040161087690612581565b600054610100900460ff16611e1b5760405162461bcd60e51b815260040161087690612581565b611e26600033612023565b611e3e60008051602061273683398151915233612023565b611e5660008051602061271683398151915233612023565b611338600080516020612716833981519152600080516020612736833981519152611a0b565b6001600160a01b038216611ed25760405162461bcd60e51b815260206004820152601f60248201527f45524332303a206d696e7420746f20746865207a65726f2061646472657373006044820152606401610876565b611ede6000838361191a565b8060676000828254611ef091906125cc565b90915550506001600160a01b03821660009081526065602052604081208054839290611f1d9084906125cc565b90915550506040518181526001600160a01b038316906000907fddf252ad1be2c89b69c2b068fc378daa952ba7f163c4a11628f55a4df523b3ef9060200160405180910390a35050565b60608315611f76575081610892565b825115611f865782518084602001fd5b8160405162461bcd60e51b815260040161087691906124b6565b60008051602061279d8339815191525460ff161580611fc45750611fc4833361202d565b6109905760405162461bcd60e51b815260206004820152602a60248201527f45524332305061757361626c653a20746f6b656e207472616e736665722077686044820152691a5b19481c185d5cd95960b21b6064820152608401610876565b610a0f828261139e565b60006120476000805160206127bd83398151915284610dbc565b8061089257506108926000805160206126f683398151915283610dbc565b8280546120719061265d565b90600052602060002090601f01602090048101928261209357600085556120d9565b82601f106120ac57805160ff19168380011785556120d9565b828001600101855582156120d9579182015b828111156120d95782518255916020019190600101906120be565b506120e59291506120e9565b5090565b5b808211156120e557600081556001016120ea565b600067ffffffffffffffff80841115612119576121196126df565b604051601f8501601f19908116603f01168101908282118183101715612141576121416126df565b8160405280935085815286868601111561215a57600080fd5b858560208301376000602087830101525050509392505050565b80356001600160a01b038116811461218b57600080fd5b919050565b600082601f8301126121a157600080fd5b610892838335602085016120fe565b6000602082840312156121c257600080fd5b61089282612174565b600080604083850312156121de57600080fd5b6121e783612174565b91506121f560208401612174565b90509250929050565b60008060006060848603121561221357600080fd5b61221c84612174565b925061222a60208501612174565b9150604084013590509250925092565b6000806040838503121561224d57600080fd5b61225683612174565b9150602083013567ffffffffffffffff81111561227257600080fd5b8301601f8101851361228357600080fd5b612292858235602084016120fe565b9150509250929050565b600080604083850312156122af57600080fd5b6122b883612174565b946020939093013593505050565b600080602083850312156122d957600080fd5b823567ffffffffffffffff808211156122f157600080fd5b818501915085601f83011261230557600080fd5b81358181111561231457600080fd5b8660208260051b850101111561232957600080fd5b60209290920196919550909350505050565b60006020828403121561234d57600080fd5b5035919050565b6000806040838503121561236757600080fd5b823591506121f560208401612174565b60006020828403121561238957600080fd5b81356001600160e01b03198116811461089257600080fd5b600080600080608085870312156123b757600080fd5b843567ffffffffffffffff808211156123cf57600080fd5b6123db88838901612190565b955060208701359150808211156123f157600080fd5b506123fe87828801612190565b935050604085013560ff8116811461241557600080fd5b9396929550929360600135925050565b6000825161243781846020870161261a565b9190910192915050565b7f416363657373436f6e74726f6c3a206163636f756e742000000000000000000081526000835161247981601785016020880161261a565b7001034b99036b4b9b9b4b733903937b6329607d1b60179184019182015283516124aa81602884016020880161261a565b01602801949350505050565b60208152600082518060208401526124d581604085016020870161261a565b601f01601f19169190910160400192915050565b6020808252602c908201527f46756e6374696f6e206d7573742062652063616c6c6564207468726f7567682060408201526b19195b1959d85d1958d85b1b60a21b606082015260800190565b6020808252602c908201527f46756e6374696f6e206d7573742062652063616c6c6564207468726f7567682060408201526b6163746976652070726f787960a01b606082015260800190565b6020808252602b908201527f496e697469616c697a61626c653a20636f6e7472616374206973206e6f74206960408201526a6e697469616c697a696e6760a81b606082015260800190565b600082198211156125df576125df6126b3565b500190565b60008160001904831182151516156125fe576125fe6126b3565b500290565b600082821015612615576126156126b3565b500390565b60005b8381101561263557818101518382015260200161261d565b83811115610ca55750506000910152565b600081612655576126556126b3565b506000190190565b600181811c9082168061267157607f821691505b6020821081141561269257634e487b7160e01b600052602260045260246000fd5b50919050565b60006000198214156126ac576126ac6126b3565b5060010190565b634e487b7160e01b600052601160045260246000fd5b634e487b7160e01b600052603260045260246000fd5b634e487b7160e01b600052604160045260246000fdfee1ac655ab58995133a870d1fd307ddc1d624c8ad919a09e67867a7a1483e439aa76ace73a908083d89af9ff88e5b4f7cadb3591a80631063f68b695fda726db571840dc4906352362b0cdaf79870196c8e42acafade72d5d5a6d59291253ceb1416464726573733a206c6f772d6c6576656c2064656c65676174652063616c6c206661696c6564356a809dfdea9198dd76fb76bf6d403ecf13ea675eb89e1eda2db2c4a4676a26ad6a6591fa308fe948065665239402780db8ed4a8c4e4e16c4d066bcaa05efc2ce108bcc5e0f50fe603649304cbbbd94de794a404db82d884c0afc9ba9328e61a2646970667358221220cb77061f07402bc5c530358fc5e73a1c1674c4c8cecd203930c9a572627d98a164736f6c63430008060033",
  "linkReferences": {},
  "deployedLinkReferences": {}
}