{
  "_format": "hh-sol-artifact-1",
  "name": "BurnMintTxFeeWhiteListTemplate",
  "initializer": "function initialize(string name_, string symbol_, uint8 decimals_, uint256 amount_, uint256 txFee, address txFeeBeneficiary)",
  "sourceName": "contracts/templates/BurnMintTxFeeWhiteListTemplate.sol",
  "abi": [
    {
      "anonymous": false,
      "inputs": [
        {
          "indexed": false,
          "internalType": "address",
          "name": "previousAdmin",
          "type": "address"
        },
        {
          "indexed": false,
          "internalType": "address",
          "name": "newAdmin",
          "type": "address"
        }
      ],
      "name": "AdminChanged",
      "type": "event"
    },
    {
      "anonymous": false,
      "inputs": [
        {
          "indexed": true,
          "internalType": "address",
          "name": "owner",
          "type": "address"
        },
        {
          "indexed": true,
          "internalType": "address",
          "name": "spender",
          "type": "address"
        },
        {
          "indexed": false,
          "internalType": "uint256",
          "name": "value",
          "type": "uint256"
        }
      ],
      "name": "Approval",
      "type": "event"
    },
    {
      "anonymous": false,
      "inputs": [
        {
          "indexed": true,
          "internalType": "address",
          "name": "beacon",
          "type": "address"
        }
      ],
      "name": "BeaconUpgraded",
      "type": "event"
    },
    {
      "anonymous": false,
      "inputs": [
        {
          "indexed": false,
          "internalType": "address",
          "name": "account",
          "type": "address"
        }
      ],
      "name": "Paused",
      "type": "event"
    },
    {
      "anonymous": false,
      "inputs": [
        {
          "indexed": true,
          "internalType": "bytes32",
          "name": "role",
          "type": "bytes32"
        },
        {
          "indexed": true,
          "internalType": "bytes32",
          "name": "previousAdminRole",
          "type": "bytes32"
        },
        {
          "indexed": true,
          "internalType": "bytes32",
          "name": "newAdminRole",
          "type": "bytes32"
        }
      ],
      "name": "RoleAdminChanged",
      "type": "event"
    },
    {
      "anonymous": false,
      "inputs": [
        {
          "indexed": true,
          "internalType": "bytes32",
          "name": "role",
          "type": "bytes32"
        },
        {
          "indexed": true,
          "internalType": "address",
          "name": "account",
          "type": "address"
        },
        {
          "indexed": true,
          "internalType": "address",
          "name": "sender",
          "type": "address"
        }
      ],
      "name": "RoleGranted",
      "type": "event"
    },
    {
      "anonymous": false,
      "inputs": [
        {
          "indexed": true,
          "internalType": "bytes32",
          "name": "role",
          "type": "bytes32"
        },
        {
          "indexed": true,
          "internalType": "address",
          "name": "account",
          "type": "address"
        },
        {
          "indexed": true,
          "internalType": "address",
          "name": "sender",
          "type": "address"
        }
      ],
      "name": "RoleRevoked",
      "type": "event"
    },
    {
      "anonymous": false,
      "inputs": [
        {
          "indexed": true,
          "internalType": "address",
          "name": "from",
          "type": "address"
        },
        {
          "indexed": true,
          "internalType": "address",
          "name": "to",
          "type": "address"
        },
        {
          "indexed": false,
          "internalType": "uint256",
          "name": "value",
          "type": "uint256"
        }
      ],
      "name": "Transfer",
      "type": "event"
    },
    {
      "anonymous": false,
      "inputs": [
        {
          "indexed": false,
          "internalType": "address",
          "name": "account",
          "type": "address"
        }
      ],
      "name": "Unpaused",
      "type": "event"
    },
    {
      "anonymous": false,
      "inputs": [
        {
          "indexed": true,
          "internalType": "address",
          "name": "implementation",
          "type": "address"
        }
      ],
      "name": "Upgraded",
      "type": "event"
    },
    {
      "inputs": [],
      "name": "DEFAULT_ADMIN_ROLE",
      "outputs": [
        {
          "internalType": "bytes32",
          "name": "",
          "type": "bytes32"
        }
      ],
      "stateMutability": "view",
      "type": "function"
    },
    {
      "inputs": [],
      "name": "GOVERNANCE_ROLE",
      "outputs": [
        {
          "internalType": "bytes32",
          "name": "",
          "type": "bytes32"
        }
      ],
      "stateMutability": "view",
      "type": "function"
    },
    {
      "inputs": [],
      "name": "MINTER_ROLE",
      "outputs": [
        {
          "internalType": "bytes32",
          "name": "",
          "type": "bytes32"
        }
      ],
      "stateMutability": "view",
      "type": "function"
    },
    {
      "inputs": [],
      "name": "PAUSE_MANAGER_ROLE",
      "outputs": [
        {
          "internalType": "bytes32",
          "name": "",
          "type": "bytes32"
        }
      ],
      "stateMutability": "view",
      "type": "function"
    },
    {
      "inputs": [],
      "name": "UPGRADE_MANAGER_ROLE",
      "outputs": [
        {
          "internalType": "bytes32",
          "name": "",
          "type": "bytes32"
        }
      ],
      "stateMutability": "view",
      "type": "function"
    },
    {
      "inputs": [],
      "name": "WHITELISTED_FROM_ROLE",
      "outputs": [
        {
          "internalType": "bytes32",
          "name": "",
          "type": "bytes32"
        }
      ],
      "stateMutability": "view",
      "type": "function"
    },
    {
      "inputs": [],
      "name": "WHITELISTED_SENDER_ROLE",
      "outputs": [
        {
          "internalType": "bytes32",
          "name": "",
          "type": "bytes32"
        }
      ],
      "stateMutability": "view",
      "type": "function"
    },
    {
      "inputs": [
        {
          "internalType": "address[]",
          "name": "addresses",
          "type": "address[]"
        }
      ],
      "name": "addAddressesToWhitelistFrom",
      "outputs": [],
      "stateMutability": "nonpayable",
      "type": "function"
    },
    {
      "inputs": [
        {
          "internalType": "address[]",
          "name": "addresses",
          "type": "address[]"
        }
      ],
      "name": "addAddressesToWhitelistSender",
      "outputs": [],
      "stateMutability": "nonpayable",
      "type": "function"
    },
    {
      "inputs": [
        {
          "internalType": "address",
          "name": "owner",
          "type": "address"
        },
        {
          "internalType": "address",
          "name": "spender",
          "type": "address"
        }
      ],
      "name": "allowance",
      "outputs": [
        {
          "internalType": "uint256",
          "name": "",
          "type": "uint256"
        }
      ],
      "stateMutability": "view",
      "type": "function"
    },
    {
      "inputs": [
        {
          "internalType": "address",
          "name": "spender",
          "type": "address"
        },
        {
          "internalType": "uint256",
          "name": "amount",
          "type": "uint256"
        }
      ],
      "name": "approve",
      "outputs": [
        {
          "internalType": "bool",
          "name": "",
          "type": "bool"
        }
      ],
      "stateMutability": "nonpayable",
      "type": "function"
    },
    {
      "inputs": [
        {
          "internalType": "address",
          "name": "account",
          "type": "address"
        }
      ],
      "name": "balanceOf",
      "outputs": [
        {
          "internalType": "uint256",
          "name": "",
          "type": "uint256"
        }
      ],
      "stateMutability": "view",
      "type": "function"
    },
    {
      "inputs": [
        {
          "internalType": "address[]",
          "name": "accounts",
          "type": "address[]"
        },
        {
          "internalType": "uint256[]",
          "name": "amounts",
          "type": "uint256[]"
        }
      ],
      "name": "bulkMint",
      "outputs": [],
      "stateMutability": "nonpayable",
      "type": "function"
    },
    {
      "inputs": [
        {
          "internalType": "uint256",
          "name": "amount",
          "type": "uint256"
        }
      ],
      "name": "burn",
      "outputs": [],
      "stateMutability": "nonpayable",
      "type": "function"
    },
    {
      "inputs": [
        {
          "internalType": "address",
          "name": "account",
          "type": "address"
        },
        {
          "internalType": "uint256",
          "name": "amount",
          "type": "uint256"
        }
      ],
      "name": "burnFrom",
      "outputs": [],
      "stateMutability": "nonpayable",
      "type": "function"
    },
    {
      "inputs": [
        {
          "internalType": "uint256",
          "name": "newTxFee",
          "type": "uint256"
        },
        {
          "internalType": "address",
          "name": "newTxBeneficiary",
          "type": "address"
        }
      ],
      "name": "changeTxFeeProperties",
      "outputs": [],
      "stateMutability": "nonpayable",
      "type": "function"
    },
    {
      "inputs": [],
      "name": "decimals",
      "outputs": [
        {
          "internalType": "uint8",
          "name": "",
          "type": "uint8"
        }
      ],
      "stateMutability": "view",
      "type": "function"
    },
    {
      "inputs": [
        {
          "internalType": "address",
          "name": "spender",
          "type": "address"
        },
        {
          "internalType": "uint256",
          "name": "subtractedValue",
          "type": "uint256"
        }
      ],
      "name": "decreaseAllowance",
      "outputs": [
        {
          "internalType": "bool",
          "name": "",
          "type": "bool"
        }
      ],
      "stateMutability": "nonpayable",
      "type": "function"
    },
    {
      "inputs": [],
      "name": "getImplementation",
      "outputs": [
        {
          "internalType": "address",
          "name": "",
          "type": "address"
        }
      ],
      "stateMutability": "view",
      "type": "function"
    },
    {
      "inputs": [
        {
          "internalType": "bytes32",
          "name": "role",
          "type": "bytes32"
        }
      ],
      "name": "getRoleAdmin",
      "outputs": [
        {
          "internalType": "bytes32",
          "name": "",
          "type": "bytes32"
        }
      ],
      "stateMutability": "view",
      "type": "function"
    },
    {
      "inputs": [
        {
          "internalType": "bytes32",
          "name": "role",
          "type": "bytes32"
        },
        {
          "internalType": "address",
          "name": "account",
          "type": "address"
        }
      ],
      "name": "grantRole",
      "outputs": [],
      "stateMutability": "nonpayable",
      "type": "function"
    },
    {
      "inputs": [
        {
          "internalType": "bytes32",
          "name": "role",
          "type": "bytes32"
        },
        {
          "internalType": "address",
          "name": "account",
          "type": "address"
        }
      ],
      "name": "hasRole",
      "outputs": [
        {
          "internalType": "bool",
          "name": "",
          "type": "bool"
        }
      ],
      "stateMutability": "view",
      "type": "function"
    },
    {
      "inputs": [
        {
          "internalType": "address",
          "name": "spender",
          "type": "address"
        },
        {
          "internalType": "uint256",
          "name": "addedValue",
          "type": "uint256"
        }
      ],
      "name": "increaseAllowance",
      "outputs": [
        {
          "internalType": "bool",
          "name": "",
          "type": "bool"
        }
      ],
      "stateMutability": "nonpayable",
      "type": "function"
    },
    {
      "inputs": [
        {
          "internalType": "string",
          "name": "name_",
          "type": "string"
        },
        {
          "internalType": "string",
          "name": "symbol_",
          "type": "string"
        },
        {
          "internalType": "uint8",
          "name": "decimals_",
          "type": "uint8"
        },
        {
          "internalType": "uint256",
          "name": "amount_",
          "type": "uint256"
        },
        {
          "internalType": "uint256",
          "name": "txFee",
          "type": "uint256"
        },
        {
          "internalType": "address",
          "name": "txFeeBeneficiary",
          "type": "address"
        }
      ],
      "name": "initialize",
      "outputs": [],
      "stateMutability": "nonpayable",
      "type": "function"
    },
    {
      "inputs": [
        {
          "internalType": "address",
          "name": "account",
          "type": "address"
        },
        {
          "internalType": "uint256",
          "name": "amount",
          "type": "uint256"
        }
      ],
      "name": "mint",
      "outputs": [],
      "stateMutability": "nonpayable",
      "type": "function"
    },
    {
      "inputs": [],
      "name": "name",
      "outputs": [
        {
          "internalType": "string",
          "name": "",
          "type": "string"
        }
      ],
      "stateMutability": "view",
      "type": "function"
    },
    {
      "inputs": [],
      "name": "pause",
      "outputs": [],
      "stateMutability": "nonpayable",
      "type": "function"
    },
    {
      "inputs": [],
      "name": "paused",
      "outputs": [
        {
          "internalType": "bool",
          "name": "",
          "type": "bool"
        }
      ],
      "stateMutability": "view",
      "type": "function"
    },
    {
      "inputs": [
        {
          "internalType": "address",
          "name": "implementationAddress",
          "type": "address"
        }
      ],
      "name": "proposeNewImplementation",
      "outputs": [],
      "stateMutability": "nonpayable",
      "type": "function"
    },
    {
      "inputs": [
        {
          "internalType": "address[]",
          "name": "addresses",
          "type": "address[]"
        }
      ],
      "name": "removeAddressesFromWhitelistFrom",
      "outputs": [],
      "stateMutability": "nonpayable",
      "type": "function"
    },
    {
      "inputs": [
        {
          "internalType": "address[]",
          "name": "addresses",
          "type": "address[]"
        }
      ],
      "name": "removeAddressesFromWhitelistSender",
      "outputs": [],
      "stateMutability": "nonpayable",
      "type": "function"
    },
    {
      "inputs": [
        {
          "internalType": "bytes32",
          "name": "role",
          "type": "bytes32"
        },
        {
          "internalType": "address",
          "name": "account",
          "type": "address"
        }
      ],
      "name": "renounceRole",
      "outputs": [],
      "stateMutability": "nonpayable",
      "type": "function"
    },
    {
      "inputs": [
        {
          "internalType": "bytes32",
          "name": "role",
          "type": "bytes32"
        },
        {
          "internalType": "address",
          "name": "account",
          "type": "address"
        }
      ],
      "name": "revokeRole",
      "outputs": [],
      "stateMutability": "nonpayable",
      "type": "function"
    },
    {
      "inputs": [
        {
          "internalType": "bytes4",
          "name": "interfaceId",
          "type": "bytes4"
        }
      ],
      "name": "supportsInterface",
      "outputs": [
        {
          "internalType": "bool",
          "name": "",
          "type": "bool"
        }
      ],
      "stateMutability": "view",
      "type": "function"
    },
    {
      "inputs": [],
      "name": "symbol",
      "outputs": [
        {
          "internalType": "string",
          "name": "",
          "type": "string"
        }
      ],
      "stateMutability": "view",
      "type": "function"
    },
    {
      "inputs": [],
      "name": "totalSupply",
      "outputs": [
        {
          "internalType": "uint256",
          "name": "",
          "type": "uint256"
        }
      ],
      "stateMutability": "view",
      "type": "function"
    },
    {
      "inputs": [
        {
          "internalType": "address",
          "name": "recipient",
          "type": "address"
        },
        {
          "internalType": "uint256",
          "name": "amount",
          "type": "uint256"
        }
      ],
      "name": "transfer",
      "outputs": [
        {
          "internalType": "bool",
          "name": "",
          "type": "bool"
        }
      ],
      "stateMutability": "nonpayable",
      "type": "function"
    },
    {
      "inputs": [
        {
          "internalType": "address",
          "name": "sender",
          "type": "address"
        },
        {
          "internalType": "address",
          "name": "recipient",
          "type": "address"
        },
        {
          "internalType": "uint256",
          "name": "amount",
          "type": "uint256"
        }
      ],
      "name": "transferFrom",
      "outputs": [
        {
          "internalType": "bool",
          "name": "",
          "type": "bool"
        }
      ],
      "stateMutability": "nonpayable",
      "type": "function"
    },
    {
      "inputs": [],
      "name": "unpause",
      "outputs": [],
      "stateMutability": "nonpayable",
      "type": "function"
    },
    {
      "inputs": [
        {
          "internalType": "address",
          "name": "newImplementation",
          "type": "address"
        }
      ],
      "name": "upgradeTo",
      "outputs": [],
      "stateMutability": "nonpayable",
      "type": "function"
    },
    {
      "inputs": [
        {
          "internalType": "address",
          "name": "newImplementation",
          "type": "address"
        },
        {
          "internalType": "bytes",
          "name": "data",
          "type": "bytes"
        }
      ],
      "name": "upgradeToAndCall",
      "outputs": [],
      "stateMutability": "payable",
      "type": "function"
    }
  ],
  "bytecode": "0x60a06040523060601b60805234801561001757600080fd5b5060805160601c612ccb61004b60003960008181610aea01528181610b2a01528181610c8c0152610ccc0152612ccb6000f3fe6080604052600436106102465760003560e01c8063685ed81a11610139578063a457c2d7116100b6578063d53913931161007a578063d5391393146106cb578063d547741f146106ff578063d84f91e81461071f578063dd62ed3e14610741578063f36c8f5c14610787578063f834c502146107a957600080fd5b8063a457c2d71461061c578063a9059cbb1461063c578063aa74a34a1461065c578063aaf10f421461067e578063c233f3b7146106ab57600080fd5b806379cc6790116100fd57806379cc67901461059d5780638456cb59146105bd57806391d14854146105d257806395d89b41146105f2578063a217fddf1461060757600080fd5b8063685ed81a146104e55780636ae459bd146105055780636e79a1c01461052557806370a0823114610545578063731ce8fc1461057b57600080fd5b80633659cfe6116101c757806343ffa64e1161018b57806343ffa64e1461044b57806347757fb61461046d5780634f1ef2861461048d5780635120561a146104a05780635c975abb146104c057600080fd5b80633659cfe6146103b657806339509351146103d65780633f4ba83a146103f657806340c10f191461040b57806342966c681461042b57600080fd5b8063248a9ca31161020e578063248a9ca3146103015780632cd77a5a146103315780632f2ff15d14610353578063313ce5671461037357806336568abe1461039657600080fd5b806301ffc9a71461024b57806306fdde0314610280578063095ea7b3146102a257806318160ddd146102c257806323b872dd146102e1575b600080fd5b34801561025757600080fd5b5061026b6102663660046127d3565b6107c9565b60405190151581526020015b60405180910390f35b34801561028c57600080fd5b50610295610800565b604051610277919061292d565b3480156102ae57600080fd5b5061026b6102bd3660046126bf565b610892565b3480156102ce57600080fd5b506067545b604051908152602001610277565b3480156102ed57600080fd5b5061026b6102fc366004612621565b6108a8565b34801561030d57600080fd5b506102d361031c366004612797565b600090815260fb602052604090206001015490565b34801561033d57600080fd5b5061035161034c3660046127fd565b610959565b005b34801561035f57600080fd5b5061035161036e3660046127b0565b610a36565b34801561037f57600080fd5b506101605460405160ff9091168152602001610277565b3480156103a257600080fd5b506103516103b13660046127b0565b610a61565b3480156103c257600080fd5b506103516103d13660046125d3565b610adf565b3480156103e257600080fd5b5061026b6103f13660046126bf565b610ba8565b34801561040257600080fd5b50610351610be4565b34801561041757600080fd5b506103516104263660046126bf565b610c05565b34801561043757600080fd5b50610351610446366004612797565b610c3a565b34801561045757600080fd5b506102d3600080516020612baf83398151915281565b34801561047957600080fd5b506103516104883660046125d3565b610c44565b61035161049b36600461265d565b610c81565b3480156104ac57600080fd5b506103516104bb3660046127b0565b610d37565b3480156104cc57600080fd5b50600080516020612c568339815191525460ff1661026b565b3480156104f157600080fd5b506103516105003660046126e9565b610dac565b34801561051157600080fd5b5061035161052036600461272b565b610e21565b34801561053157600080fd5b506103516105403660046126e9565b610f00565b34801561055157600080fd5b506102d36105603660046125d3565b6001600160a01b031660009081526065602052604090205490565b34801561058757600080fd5b506102d3600080516020612c7683398151915281565b3480156105a957600080fd5b506103516105b83660046126bf565b610f6f565b3480156105c957600080fd5b50610351610ff0565b3480156105de57600080fd5b5061026b6105ed3660046127b0565b611011565b3480156105fe57600080fd5b5061029561103c565b34801561061357600080fd5b506102d3600081565b34801561062857600080fd5b5061026b6106373660046126bf565b61104b565b34801561064857600080fd5b5061026b6106573660046126bf565b6110e4565b34801561066857600080fd5b506102d3600080516020612b8f83398151915281565b34801561068a57600080fd5b506106936110f1565b6040516001600160a01b039091168152602001610277565b3480156106b757600080fd5b506103516106c63660046126e9565b611100565b3480156106d757600080fd5b506102d37ff9424f4303d7f03683a025eb8885734ad99b47df7749d9b0a02cbc985809700b81565b34801561070b57600080fd5b5061035161071a3660046127b0565b61115a565b34801561072b57600080fd5b506102d3600080516020612c3683398151915281565b34801561074d57600080fd5b506102d361075c3660046125ee565b6001600160a01b03918216600090815260666020908152604080832093909416825291909152205490565b34801561079357600080fd5b506102d3600080516020612bcf83398151915281565b3480156107b557600080fd5b506103516107c43660046126e9565b611180565b60006001600160e01b03198216637965db0b60e01b14806107fa57506301ffc9a760e01b6001600160e01b03198316145b92915050565b60606068805461080f90612af6565b80601f016020809104026020016040519081016040528092919081815260200182805461083b90612af6565b80156108885780601f1061085d57610100808354040283529160200191610888565b820191906000526020600020905b81548152906001019060200180831161086b57829003601f168201915b5050505050905090565b600061089f3384846111da565b50600192915050565b60006108b58484846112fe565b6001600160a01b03841660009081526066602090815260408083203384529091529020548281101561093f5760405162461bcd60e51b815260206004820152602860248201527f45524332303a207472616e7366657220616d6f756e74206578636565647320616044820152676c6c6f77616e636560c01b60648201526084015b60405180910390fd5b61094c85338584036111da565b60019150505b9392505050565b600054610100900460ff166109745760005460ff1615610978565b303b155b6109db5760405162461bcd60e51b815260206004820152602e60248201527f496e697469616c697a61626c653a20636f6e747261637420697320616c72656160448201526d191e481a5b9a5d1a585b1a5e995960921b6064820152608401610936565b600054610100900460ff161580156109fd576000805461ffff19166101011790555b610a09878787876114d7565b610a13838361151a565b610a1b6115a9565b8015610a2d576000805461ff00191690555b50505050505050565b600082815260fb6020526040902060010154610a52813361161e565b610a5c8383611682565b505050565b6001600160a01b0381163314610ad15760405162461bcd60e51b815260206004820152602f60248201527f416363657373436f6e74726f6c3a2063616e206f6e6c792072656e6f756e636560448201526e103937b632b9903337b91039b2b63360891b6064820152608401610936565b610adb8282611708565b5050565b306001600160a01b037f0000000000000000000000000000000000000000000000000000000000000000161415610b285760405162461bcd60e51b815260040161093690612960565b7f00000000000000000000000000000000000000000000000000000000000000006001600160a01b0316610b5a61176f565b6001600160a01b031614610b805760405162461bcd60e51b8152600401610936906129ac565b610b898161179d565b60408051600080825260208201909252610ba59183919061181f565b50565b3360008181526066602090815260408083206001600160a01b0387168452909152812054909161089f918590610bdf908690612a43565b6111da565b600080516020612c36833981519152610bfd813361161e565b610ba561196a565b7ff9424f4303d7f03683a025eb8885734ad99b47df7749d9b0a02cbc985809700b610c30813361161e565b610a5c8383611a17565b610ba53382611b02565b600080516020612bcf833981519152610c5d813361161e565b5061012d80546001600160a01b0319166001600160a01b0392909216919091179055565b306001600160a01b037f0000000000000000000000000000000000000000000000000000000000000000161415610cca5760405162461bcd60e51b815260040161093690612960565b7f00000000000000000000000000000000000000000000000000000000000000006001600160a01b0316610cfc61176f565b6001600160a01b031614610d225760405162461bcd60e51b8152600401610936906129ac565b610d2b8261179d565b610adb8282600161181f565b6000610d43813361161e565b6001600160a01b038216610d5657600080fd5b82600080516020612bef83398151915255817fe38b16c806f019542b2d4bf356bb4ba2ea4b7eb450b8fbff2584f6084c4978f180546001600160a01b0319166001600160a01b0392909216919091179055505050565b600080516020612c36833981519152610dc5813361161e565b60005b82811015610e1b57610e09600080516020612b8f833981519152858584818110610df457610df4612b62565b905060200201602081019061036e91906125d3565b80610e1381612b31565b915050610dc8565b50505050565b7ff9424f4303d7f03683a025eb8885734ad99b47df7749d9b0a02cbc985809700b610e4c813361161e565b838214610e935760405162461bcd60e51b8152602060048201526015602482015274082e4e4c2f240d8cadccee8d040dad2e6dac2e8c6d605b1b6044820152606401610936565b60005b84811015610ef857610ee6868683818110610eb357610eb3612b62565b9050602002016020810190610ec891906125d3565b858584818110610eda57610eda612b62565b90506020020135611a17565b80610ef081612b31565b915050610e96565b505050505050565b600080516020612c36833981519152610f19813361161e565b60005b82811015610e1b57610f5d600080516020612c76833981519152858584818110610f4857610f48612b62565b905060200201602081019061071a91906125d3565b80610f6781612b31565b915050610f1c565b6000610f7b833361075c565b905081811015610fd95760405162461bcd60e51b8152602060048201526024808201527f45524332303a206275726e20616d6f756e74206578636565647320616c6c6f77604482015263616e636560e01b6064820152608401610936565b610fe683338484036111da565b610a5c8383611b02565b600080516020612c36833981519152611009813361161e565b610ba5611c5c565b600091825260fb602090815260408084206001600160a01b0393909316845291905290205460ff1690565b60606069805461080f90612af6565b3360009081526066602090815260408083206001600160a01b0386168452909152812054828110156110cd5760405162461bcd60e51b815260206004820152602560248201527f45524332303a2064656372656173656420616c6c6f77616e63652062656c6f77604482015264207a65726f60d81b6064820152608401610936565b6110da33858584036111da565b5060019392505050565b600061089f3384846112fe565b60006110fb61176f565b905090565b600080516020612c36833981519152611119813361161e565b60005b82811015610e1b57611148600080516020612b8f833981519152858584818110610f4857610f48612b62565b8061115281612b31565b91505061111c565b600082815260fb6020526040902060010154611176813361161e565b610a5c8383611708565b600080516020612c36833981519152611199813361161e565b60005b82811015610e1b576111c8600080516020612c76833981519152858584818110610df457610df4612b62565b806111d281612b31565b91505061119c565b6001600160a01b03831661123c5760405162461bcd60e51b8152602060048201526024808201527f45524332303a20617070726f76652066726f6d20746865207a65726f206164646044820152637265737360e01b6064820152608401610936565b6001600160a01b03821661129d5760405162461bcd60e51b815260206004820152602260248201527f45524332303a20617070726f766520746f20746865207a65726f206164647265604482015261737360f01b6064820152608401610936565b6001600160a01b0383811660008181526066602090815260408083209487168084529482529182902085905590518481527f8c5be1e5ebec7d5bd14f71427d1e84f3dd0314c0f7b2291e5b200ac8c7c3b925910160405180910390a3505050565b6001600160a01b0383166113625760405162461bcd60e51b815260206004820152602560248201527f45524332303a207472616e736665722066726f6d20746865207a65726f206164604482015264647265737360d81b6064820152608401610936565b6001600160a01b0382166113c45760405162461bcd60e51b815260206004820152602360248201527f45524332303a207472616e7366657220746f20746865207a65726f206164647260448201526265737360e81b6064820152608401610936565b6113cf838383611cf0565b6001600160a01b038316600090815260656020526040902054818110156114475760405162461bcd60e51b815260206004820152602660248201527f45524332303a207472616e7366657220616d6f756e7420657863656564732062604482015265616c616e636560d01b6064820152608401610936565b6001600160a01b0380851660009081526065602052604080822085850390559185168152908120805484929061147e908490612a43565b92505081905550826001600160a01b0316846001600160a01b03167fddf252ad1be2c89b69c2b068fc378daa952ba7f163c4a11628f55a4df523b3ef846040516114ca91815260200190565b60405180910390a3610e1b565b600054610100900460ff166114fe5760405162461bcd60e51b8152600401610936906129f8565b611506611cfb565b6115108484611d52565b610e1b8282611da0565b600054610100900460ff166115415760405162461bcd60e51b8152600401610936906129f8565b6001600160a01b03811661155457600080fd5b81600080516020612bef83398151915255807fe38b16c806f019542b2d4bf356bb4ba2ea4b7eb450b8fbff2584f6084c4978f180546001600160a01b0319166001600160a01b03929092169190911790555050565b600054610100900460ff166115d05760405162461bcd60e51b8152600401610936906129f8565b6115f6600080516020612c76833981519152600080516020612c36833981519152611de1565b61161c600080516020612b8f833981519152600080516020612c36833981519152611de1565b565b6116288282611011565b610adb57611640816001600160a01b03166014611e2c565b61164b836020611e2c565b60405160200161165c9291906128b8565b60408051601f198184030181529082905262461bcd60e51b82526109369160040161292d565b61168c8282611011565b610adb57600082815260fb602090815260408083206001600160a01b03851684529091529020805460ff191660011790556116c43390565b6001600160a01b0316816001600160a01b0316837f2f8788117e7eff1d82e926ec794901d17c78024a50270940304540a733656f0d60405160405180910390a45050565b6117128282611011565b15610adb57600082815260fb602090815260408083206001600160a01b0385168085529252808320805460ff1916905551339285917ff6391f5c32d9c69d2a47ea670b442974b53935d1edc7fd64eb21e047a839171b9190a45050565b7f360894a13ba1a3210667c828492db98dca3e2076cc3735a920a3ca505d382bbc546001600160a01b031690565b6117b5600080516020612bcf83398151915233611011565b806117d357506117d3600080516020612baf83398151915233611011565b610ba55760405162461bcd60e51b815260206004820152601d60248201527f4552524f523a2041646472657373206e6f7420617574686f72697a65640000006044820152606401610936565b600061182961176f565b905061183484611fc8565b6000835111806118415750815b1561185257611850848461206d565b505b7f4910fdfa16fed3260ed0e7147f7cc6da11a60208b5b9406d12a635614ffd9143805460ff1661196357805460ff191660011781556040516001600160a01b03831660248201526118d190869060440160408051601f198184030181529190526020810180516001600160e01b0316631b2ce7f360e11b17905261206d565b50805460ff191681556118e261176f565b6001600160a01b0316826001600160a01b03161461195a5760405162461bcd60e51b815260206004820152602f60248201527f45524331393637557067726164653a207570677261646520627265616b73206660448201526e75727468657220757067726164657360881b6064820152608401610936565b61196385612158565b5050505050565b600080516020612c568339815191525460ff166119c05760405162461bcd60e51b815260206004820152601460248201527314185d5cd8589b194e881b9bdd081c185d5cd95960621b6044820152606401610936565b600080516020612c56833981519152805460ff191690557f5db9ee0a495bf2e6ff9c91a7834c1ba4fdd244a5e8aa4e537bd38aeae4b073aa335b6040516001600160a01b03909116815260200160405180910390a1565b6001600160a01b038216611a6d5760405162461bcd60e51b815260206004820152601f60248201527f45524332303a206d696e7420746f20746865207a65726f2061646472657373006044820152606401610936565b611a7960008383611cf0565b8060676000828254611a8b9190612a43565b90915550506001600160a01b03821660009081526065602052604081208054839290611ab8908490612a43565b90915550506040518181526001600160a01b038316906000907fddf252ad1be2c89b69c2b068fc378daa952ba7f163c4a11628f55a4df523b3ef9060200160405180910390a35050565b6001600160a01b038216611b625760405162461bcd60e51b815260206004820152602160248201527f45524332303a206275726e2066726f6d20746865207a65726f206164647265736044820152607360f81b6064820152608401610936565b611b6e82600083611cf0565b6001600160a01b03821660009081526065602052604090205481811015611be25760405162461bcd60e51b815260206004820152602260248201527f45524332303a206275726e20616d6f756e7420657863656564732062616c616e604482015261636560f01b6064820152608401610936565b6001600160a01b0383166000908152606560205260408120838303905560678054849290611c11908490612a9c565b90915550506040518281526000906001600160a01b038516907fddf252ad1be2c89b69c2b068fc378daa952ba7f163c4a11628f55a4df523b3ef9060200160405180910390a3505050565b600080516020612c568339815191525460ff1615611caf5760405162461bcd60e51b815260206004820152601060248201526f14185d5cd8589b194e881c185d5cd95960821b6044820152606401610936565b600080516020612c56833981519152805460ff191660011790557f62e78cea01bee320cd4e420270b5ea74000d11b0c9f74754ebdbfc544b05a258336119fa565b610a5c838383612198565b600054610100900460ff16611d225760405162461bcd60e51b8152600401610936906129f8565b611d2a6121ae565b611d326121ae565b611d3a6121ae565b611d426121ae565b611d4a6121ae565b61161c6121d5565b600054610100900460ff16611d795760405162461bcd60e51b8152600401610936906129f8565b8151611d8c90606890602085019061243c565b508051610a5c90606990602084019061243c565b600054610100900460ff16611dc75760405162461bcd60e51b8152600401610936906129f8565b610160805460ff191660ff8416179055610adb3382611a17565b600082815260fb6020526040808220600101805490849055905190918391839186917fbd79b86ffe0ab8e8776151514217cd7cacd52c909f66475c3af44e129f0b00ff9190a4505050565b60606000611e3b836002612a7d565b611e46906002612a43565b67ffffffffffffffff811115611e5e57611e5e612b78565b6040519080825280601f01601f191660200182016040528015611e88576020820181803683370190505b509050600360fc1b81600081518110611ea357611ea3612b62565b60200101906001600160f81b031916908160001a905350600f60fb1b81600181518110611ed257611ed2612b62565b60200101906001600160f81b031916908160001a9053506000611ef6846002612a7d565b611f01906001612a43565b90505b6001811115611f79576f181899199a1a9b1b9c1cb0b131b232b360811b85600f1660108110611f3557611f35612b62565b1a60f81b828281518110611f4b57611f4b612b62565b60200101906001600160f81b031916908160001a90535060049490941c93611f7281612adf565b9050611f04565b5083156109525760405162461bcd60e51b815260206004820181905260248201527f537472696e67733a20686578206c656e67746820696e73756666696369656e746044820152606401610936565b803b61202c5760405162461bcd60e51b815260206004820152602d60248201527f455243313936373a206e657720696d706c656d656e746174696f6e206973206e60448201526c1bdd08184818dbdb9d1c9858dd609a1b6064820152608401610936565b7f360894a13ba1a3210667c828492db98dca3e2076cc3735a920a3ca505d382bbc80546001600160a01b0319166001600160a01b0392909216919091179055565b6060823b6120cc5760405162461bcd60e51b815260206004820152602660248201527f416464726573733a2064656c65676174652063616c6c20746f206e6f6e2d636f6044820152651b9d1c9858dd60d21b6064820152608401610936565b600080846001600160a01b0316846040516120e7919061289c565b600060405180830381855af49150503d8060008114612122576040519150601f19603f3d011682016040523d82523d6000602084013e612127565b606091505b509150915061214f8282604051806060016040528060278152602001612c0f6027913961225d565b95945050505050565b61216181611fc8565b6040516001600160a01b038216907fbc7cd75a20ee27fd9adebab32041f755214dbc6bffa90cc0225b39da2e5c2d3b90600090a250565b6121a3838383612296565b610a5c838383612377565b600054610100900460ff1661161c5760405162461bcd60e51b8152600401610936906129f8565b600054610100900460ff166121fc5760405162461bcd60e51b8152600401610936906129f8565b6122076000336123fa565b61221f600080516020612bcf833981519152336123fa565b612237600080516020612baf833981519152336123fa565b61161c600080516020612baf833981519152600080516020612bcf833981519152611de1565b6060831561226c575081610952565b82511561227c5782518084602001fd5b8160405162461bcd60e51b8152600401610936919061292d565b600080516020612bef833981519152547fe38b16c806f019542b2d4bf356bb4ba2ea4b7eb450b8fbff2584f6084c4978f1546001600160a01b03168115806122ef5750836001600160a01b0316816001600160a01b0316145b8061230b5750846001600160a01b0316816001600160a01b0316145b8061231d57506001600160a01b038516155b8061232f57506001600160a01b038416155b1561233b575050505050565b6000670de0b6b3a7640000600080516020612bef833981519152546123609086612a7d565b61236a9190612a5b565b9050610ef88683836112fe565b600080516020612c568339815191525460ff16158061239b575061239b8333612404565b610a5c5760405162461bcd60e51b815260206004820152602a60248201527f45524332305061757361626c653a20746f6b656e207472616e736665722077686044820152691a5b19481c185d5cd95960b21b6064820152608401610936565b610adb8282611682565b600061241e600080516020612c7683398151915284611011565b806109525750610952600080516020612b8f83398151915283611011565b82805461244890612af6565b90600052602060002090601f01602090048101928261246a57600085556124b0565b82601f1061248357805160ff19168380011785556124b0565b828001600101855582156124b0579182015b828111156124b0578251825591602001919060010190612495565b506124bc9291506124c0565b5090565b5b808211156124bc57600081556001016124c1565b600067ffffffffffffffff808411156124f0576124f0612b78565b604051601f8501601f19908116603f0116810190828211818310171561251857612518612b78565b8160405280935085815286868601111561253157600080fd5b858560208301376000602087830101525050509392505050565b80356001600160a01b038116811461256257600080fd5b919050565b60008083601f84011261257957600080fd5b50813567ffffffffffffffff81111561259157600080fd5b6020830191508360208260051b85010111156125ac57600080fd5b9250929050565b600082601f8301126125c457600080fd5b610952838335602085016124d5565b6000602082840312156125e557600080fd5b6109528261254b565b6000806040838503121561260157600080fd5b61260a8361254b565b91506126186020840161254b565b90509250929050565b60008060006060848603121561263657600080fd5b61263f8461254b565b925061264d6020850161254b565b9150604084013590509250925092565b6000806040838503121561267057600080fd5b6126798361254b565b9150602083013567ffffffffffffffff81111561269557600080fd5b8301601f810185136126a657600080fd5b6126b5858235602084016124d5565b9150509250929050565b600080604083850312156126d257600080fd5b6126db8361254b565b946020939093013593505050565b600080602083850312156126fc57600080fd5b823567ffffffffffffffff81111561271357600080fd5b61271f85828601612567565b90969095509350505050565b6000806000806040858703121561274157600080fd5b843567ffffffffffffffff8082111561275957600080fd5b61276588838901612567565b9096509450602087013591508082111561277e57600080fd5b5061278b87828801612567565b95989497509550505050565b6000602082840312156127a957600080fd5b5035919050565b600080604083850312156127c357600080fd5b823591506126186020840161254b565b6000602082840312156127e557600080fd5b81356001600160e01b03198116811461095257600080fd5b60008060008060008060c0878903121561281657600080fd5b863567ffffffffffffffff8082111561282e57600080fd5b61283a8a838b016125b3565b9750602089013591508082111561285057600080fd5b5061285d89828a016125b3565b955050604087013560ff8116811461287457600080fd5b9350606087013592506080870135915061289060a0880161254b565b90509295509295509295565b600082516128ae818460208701612ab3565b9190910192915050565b7f416363657373436f6e74726f6c3a206163636f756e74200000000000000000008152600083516128f0816017850160208801612ab3565b7001034b99036b4b9b9b4b733903937b6329607d1b6017918401918201528351612921816028840160208801612ab3565b01602801949350505050565b602081526000825180602084015261294c816040850160208701612ab3565b601f01601f19169190910160400192915050565b6020808252602c908201527f46756e6374696f6e206d7573742062652063616c6c6564207468726f7567682060408201526b19195b1959d85d1958d85b1b60a21b606082015260800190565b6020808252602c908201527f46756e6374696f6e206d7573742062652063616c6c6564207468726f7567682060408201526b6163746976652070726f787960a01b606082015260800190565b6020808252602b908201527f496e697469616c697a61626c653a20636f6e7472616374206973206e6f74206960408201526a6e697469616c697a696e6760a81b606082015260800190565b60008219821115612a5657612a56612b4c565b500190565b600082612a7857634e487b7160e01b600052601260045260246000fd5b500490565b6000816000190483118215151615612a9757612a97612b4c565b500290565b600082821015612aae57612aae612b4c565b500390565b60005b83811015612ace578181015183820152602001612ab6565b83811115610e1b5750506000910152565b600081612aee57612aee612b4c565b506000190190565b600181811c90821680612b0a57607f821691505b60208210811415612b2b57634e487b7160e01b600052602260045260246000fd5b50919050565b6000600019821415612b4557612b45612b4c565b5060010190565b634e487b7160e01b600052601160045260246000fd5b634e487b7160e01b600052603260045260246000fd5b634e487b7160e01b600052604160045260246000fdfee1ac655ab58995133a870d1fd307ddc1d624c8ad919a09e67867a7a1483e439aa76ace73a908083d89af9ff88e5b4f7cadb3591a80631063f68b695fda726db571840dc4906352362b0cdaf79870196c8e42acafade72d5d5a6d59291253ceb1253122b26cc2118faf5fcfc7761bd75fcfb5508f1f48d1a40db694aba32af5d0416464726573733a206c6f772d6c6576656c2064656c65676174652063616c6c206661696c6564356a809dfdea9198dd76fb76bf6d403ecf13ea675eb89e1eda2db2c4a4676a26ad6a6591fa308fe948065665239402780db8ed4a8c4e4e16c4d066bcaa05efc2ce108bcc5e0f50fe603649304cbbbd94de794a404db82d884c0afc9ba9328e61a2646970667358221220ec68b99c1615d87c69b482bf4bac7eccf57546db0f7b8d17436053c87687d28564736f6c63430008060033",
  "linkReferences": {},
  "deployedLinkReferences": {}
}