{
  "_format": "hh-sol-artifact-1",
  "name": "MintSnapshotWhiteListTemplate",
  "initializer": "function initialize(string name_, string symbol_, uint8 decimals_, uint256 amount_)",
  "sourceName": "contracts/templates/MintSnapshotWhiteListTemplate.sol",
  "abi": [
    {
      "anonymous": false,
      "inputs": [
        {
          "indexed": false,
          "internalType": "address",
          "name": "previousAdmin",
          "type": "address"
        },
        {
          "indexed": false,
          "internalType": "address",
          "name": "newAdmin",
          "type": "address"
        }
      ],
      "name": "AdminChanged",
      "type": "event"
    },
    {
      "anonymous": false,
      "inputs": [
        {
          "indexed": true,
          "internalType": "address",
          "name": "owner",
          "type": "address"
        },
        {
          "indexed": true,
          "internalType": "address",
          "name": "spender",
          "type": "address"
        },
        {
          "indexed": false,
          "internalType": "uint256",
          "name": "value",
          "type": "uint256"
        }
      ],
      "name": "Approval",
      "type": "event"
    },
    {
      "anonymous": false,
      "inputs": [
        {
          "indexed": true,
          "internalType": "address",
          "name": "beacon",
          "type": "address"
        }
      ],
      "name": "BeaconUpgraded",
      "type": "event"
    },
    {
      "anonymous": false,
      "inputs": [
        {
          "indexed": false,
          "internalType": "address",
          "name": "account",
          "type": "address"
        }
      ],
      "name": "Paused",
      "type": "event"
    },
    {
      "anonymous": false,
      "inputs": [
        {
          "indexed": true,
          "internalType": "bytes32",
          "name": "role",
          "type": "bytes32"
        },
        {
          "indexed": true,
          "internalType": "bytes32",
          "name": "previousAdminRole",
          "type": "bytes32"
        },
        {
          "indexed": true,
          "internalType": "bytes32",
          "name": "newAdminRole",
          "type": "bytes32"
        }
      ],
      "name": "RoleAdminChanged",
      "type": "event"
    },
    {
      "anonymous": false,
      "inputs": [
        {
          "indexed": true,
          "internalType": "bytes32",
          "name": "role",
          "type": "bytes32"
        },
        {
          "indexed": true,
          "internalType": "address",
          "name": "account",
          "type": "address"
        },
        {
          "indexed": true,
          "internalType": "address",
          "name": "sender",
          "type": "address"
        }
      ],
      "name": "RoleGranted",
      "type": "event"
    },
    {
      "anonymous": false,
      "inputs": [
        {
          "indexed": true,
          "internalType": "bytes32",
          "name": "role",
          "type": "bytes32"
        },
        {
          "indexed": true,
          "internalType": "address",
          "name": "account",
          "type": "address"
        },
        {
          "indexed": true,
          "internalType": "address",
          "name": "sender",
          "type": "address"
        }
      ],
      "name": "RoleRevoked",
      "type": "event"
    },
    {
      "anonymous": false,
      "inputs": [
        {
          "indexed": false,
          "internalType": "uint256",
          "name": "id",
          "type": "uint256"
        }
      ],
      "name": "Snapshot",
      "type": "event"
    },
    {
      "anonymous": false,
      "inputs": [
        {
          "indexed": true,
          "internalType": "address",
          "name": "from",
          "type": "address"
        },
        {
          "indexed": true,
          "internalType": "address",
          "name": "to",
          "type": "address"
        },
        {
          "indexed": false,
          "internalType": "uint256",
          "name": "value",
          "type": "uint256"
        }
      ],
      "name": "Transfer",
      "type": "event"
    },
    {
      "anonymous": false,
      "inputs": [
        {
          "indexed": false,
          "internalType": "address",
          "name": "account",
          "type": "address"
        }
      ],
      "name": "Unpaused",
      "type": "event"
    },
    {
      "anonymous": false,
      "inputs": [
        {
          "indexed": true,
          "internalType": "address",
          "name": "implementation",
          "type": "address"
        }
      ],
      "name": "Upgraded",
      "type": "event"
    },
    {
      "inputs": [],
      "name": "DEFAULT_ADMIN_ROLE",
      "outputs": [
        {
          "internalType": "bytes32",
          "name": "",
          "type": "bytes32"
        }
      ],
      "stateMutability": "view",
      "type": "function"
    },
    {
      "inputs": [],
      "name": "GOVERNANCE_ROLE",
      "outputs": [
        {
          "internalType": "bytes32",
          "name": "",
          "type": "bytes32"
        }
      ],
      "stateMutability": "view",
      "type": "function"
    },
    {
      "inputs": [],
      "name": "MINTER_ROLE",
      "outputs": [
        {
          "internalType": "bytes32",
          "name": "",
          "type": "bytes32"
        }
      ],
      "stateMutability": "view",
      "type": "function"
    },
    {
      "inputs": [],
      "name": "PAUSE_MANAGER_ROLE",
      "outputs": [
        {
          "internalType": "bytes32",
          "name": "",
          "type": "bytes32"
        }
      ],
      "stateMutability": "view",
      "type": "function"
    },
    {
      "inputs": [],
      "name": "UPGRADE_MANAGER_ROLE",
      "outputs": [
        {
          "internalType": "bytes32",
          "name": "",
          "type": "bytes32"
        }
      ],
      "stateMutability": "view",
      "type": "function"
    },
    {
      "inputs": [],
      "name": "WHITELISTED_FROM_ROLE",
      "outputs": [
        {
          "internalType": "bytes32",
          "name": "",
          "type": "bytes32"
        }
      ],
      "stateMutability": "view",
      "type": "function"
    },
    {
      "inputs": [],
      "name": "WHITELISTED_SENDER_ROLE",
      "outputs": [
        {
          "internalType": "bytes32",
          "name": "",
          "type": "bytes32"
        }
      ],
      "stateMutability": "view",
      "type": "function"
    },
    {
      "inputs": [
        {
          "internalType": "address[]",
          "name": "addresses",
          "type": "address[]"
        }
      ],
      "name": "addAddressesToWhitelistFrom",
      "outputs": [],
      "stateMutability": "nonpayable",
      "type": "function"
    },
    {
      "inputs": [
        {
          "internalType": "address[]",
          "name": "addresses",
          "type": "address[]"
        }
      ],
      "name": "addAddressesToWhitelistSender",
      "outputs": [],
      "stateMutability": "nonpayable",
      "type": "function"
    },
    {
      "inputs": [
        {
          "internalType": "address",
          "name": "owner",
          "type": "address"
        },
        {
          "internalType": "address",
          "name": "spender",
          "type": "address"
        }
      ],
      "name": "allowance",
      "outputs": [
        {
          "internalType": "uint256",
          "name": "",
          "type": "uint256"
        }
      ],
      "stateMutability": "view",
      "type": "function"
    },
    {
      "inputs": [
        {
          "internalType": "address",
          "name": "spender",
          "type": "address"
        },
        {
          "internalType": "uint256",
          "name": "amount",
          "type": "uint256"
        }
      ],
      "name": "approve",
      "outputs": [
        {
          "internalType": "bool",
          "name": "",
          "type": "bool"
        }
      ],
      "stateMutability": "nonpayable",
      "type": "function"
    },
    {
      "inputs": [
        {
          "internalType": "address",
          "name": "account",
          "type": "address"
        }
      ],
      "name": "balanceOf",
      "outputs": [
        {
          "internalType": "uint256",
          "name": "",
          "type": "uint256"
        }
      ],
      "stateMutability": "view",
      "type": "function"
    },
    {
      "inputs": [
        {
          "internalType": "address",
          "name": "account",
          "type": "address"
        },
        {
          "internalType": "uint256",
          "name": "snapshotId",
          "type": "uint256"
        }
      ],
      "name": "balanceOfAt",
      "outputs": [
        {
          "internalType": "uint256",
          "name": "",
          "type": "uint256"
        }
      ],
      "stateMutability": "view",
      "type": "function"
    },
    {
      "inputs": [
        {
          "internalType": "address[]",
          "name": "accounts",
          "type": "address[]"
        },
        {
          "internalType": "uint256[]",
          "name": "amounts",
          "type": "uint256[]"
        }
      ],
      "name": "bulkMint",
      "outputs": [],
      "stateMutability": "nonpayable",
      "type": "function"
    },
    {
      "inputs": [],
      "name": "decimals",
      "outputs": [
        {
          "internalType": "uint8",
          "name": "",
          "type": "uint8"
        }
      ],
      "stateMutability": "view",
      "type": "function"
    },
    {
      "inputs": [
        {
          "internalType": "address",
          "name": "spender",
          "type": "address"
        },
        {
          "internalType": "uint256",
          "name": "subtractedValue",
          "type": "uint256"
        }
      ],
      "name": "decreaseAllowance",
      "outputs": [
        {
          "internalType": "bool",
          "name": "",
          "type": "bool"
        }
      ],
      "stateMutability": "nonpayable",
      "type": "function"
    },
    {
      "inputs": [],
      "name": "getCurrentSnapshotId",
      "outputs": [
        {
          "internalType": "uint256",
          "name": "",
          "type": "uint256"
        }
      ],
      "stateMutability": "view",
      "type": "function"
    },
    {
      "inputs": [],
      "name": "getImplementation",
      "outputs": [
        {
          "internalType": "address",
          "name": "",
          "type": "address"
        }
      ],
      "stateMutability": "view",
      "type": "function"
    },
    {
      "inputs": [
        {
          "internalType": "bytes32",
          "name": "role",
          "type": "bytes32"
        }
      ],
      "name": "getRoleAdmin",
      "outputs": [
        {
          "internalType": "bytes32",
          "name": "",
          "type": "bytes32"
        }
      ],
      "stateMutability": "view",
      "type": "function"
    },
    {
      "inputs": [
        {
          "internalType": "bytes32",
          "name": "role",
          "type": "bytes32"
        },
        {
          "internalType": "address",
          "name": "account",
          "type": "address"
        }
      ],
      "name": "grantRole",
      "outputs": [],
      "stateMutability": "nonpayable",
      "type": "function"
    },
    {
      "inputs": [
        {
          "internalType": "bytes32",
          "name": "role",
          "type": "bytes32"
        },
        {
          "internalType": "address",
          "name": "account",
          "type": "address"
        }
      ],
      "name": "hasRole",
      "outputs": [
        {
          "internalType": "bool",
          "name": "",
          "type": "bool"
        }
      ],
      "stateMutability": "view",
      "type": "function"
    },
    {
      "inputs": [
        {
          "internalType": "address",
          "name": "spender",
          "type": "address"
        },
        {
          "internalType": "uint256",
          "name": "addedValue",
          "type": "uint256"
        }
      ],
      "name": "increaseAllowance",
      "outputs": [
        {
          "internalType": "bool",
          "name": "",
          "type": "bool"
        }
      ],
      "stateMutability": "nonpayable",
      "type": "function"
    },
    {
      "inputs": [
        {
          "internalType": "string",
          "name": "name_",
          "type": "string"
        },
        {
          "internalType": "string",
          "name": "symbol_",
          "type": "string"
        },
        {
          "internalType": "uint8",
          "name": "decimals_",
          "type": "uint8"
        },
        {
          "internalType": "uint256",
          "name": "amount_",
          "type": "uint256"
        }
      ],
      "name": "initialize",
      "outputs": [],
      "stateMutability": "nonpayable",
      "type": "function"
    },
    {
      "inputs": [
        {
          "internalType": "address",
          "name": "account",
          "type": "address"
        },
        {
          "internalType": "uint256",
          "name": "amount",
          "type": "uint256"
        }
      ],
      "name": "mint",
      "outputs": [],
      "stateMutability": "nonpayable",
      "type": "function"
    },
    {
      "inputs": [],
      "name": "name",
      "outputs": [
        {
          "internalType": "string",
          "name": "",
          "type": "string"
        }
      ],
      "stateMutability": "view",
      "type": "function"
    },
    {
      "inputs": [],
      "name": "pause",
      "outputs": [],
      "stateMutability": "nonpayable",
      "type": "function"
    },
    {
      "inputs": [],
      "name": "paused",
      "outputs": [
        {
          "internalType": "bool",
          "name": "",
          "type": "bool"
        }
      ],
      "stateMutability": "view",
      "type": "function"
    },
    {
      "inputs": [
        {
          "internalType": "address",
          "name": "implementationAddress",
          "type": "address"
        }
      ],
      "name": "proposeNewImplementation",
      "outputs": [],
      "stateMutability": "nonpayable",
      "type": "function"
    },
    {
      "inputs": [
        {
          "internalType": "address[]",
          "name": "addresses",
          "type": "address[]"
        }
      ],
      "name": "removeAddressesFromWhitelistFrom",
      "outputs": [],
      "stateMutability": "nonpayable",
      "type": "function"
    },
    {
      "inputs": [
        {
          "internalType": "address[]",
          "name": "addresses",
          "type": "address[]"
        }
      ],
      "name": "removeAddressesFromWhitelistSender",
      "outputs": [],
      "stateMutability": "nonpayable",
      "type": "function"
    },
    {
      "inputs": [
        {
          "internalType": "bytes32",
          "name": "role",
          "type": "bytes32"
        },
        {
          "internalType": "address",
          "name": "account",
          "type": "address"
        }
      ],
      "name": "renounceRole",
      "outputs": [],
      "stateMutability": "nonpayable",
      "type": "function"
    },
    {
      "inputs": [
        {
          "internalType": "bytes32",
          "name": "role",
          "type": "bytes32"
        },
        {
          "internalType": "address",
          "name": "account",
          "type": "address"
        }
      ],
      "name": "revokeRole",
      "outputs": [],
      "stateMutability": "nonpayable",
      "type": "function"
    },
    {
      "inputs": [],
      "name": "snapshot",
      "outputs": [],
      "stateMutability": "nonpayable",
      "type": "function"
    },
    {
      "inputs": [
        {
          "internalType": "bytes4",
          "name": "interfaceId",
          "type": "bytes4"
        }
      ],
      "name": "supportsInterface",
      "outputs": [
        {
          "internalType": "bool",
          "name": "",
          "type": "bool"
        }
      ],
      "stateMutability": "view",
      "type": "function"
    },
    {
      "inputs": [],
      "name": "symbol",
      "outputs": [
        {
          "internalType": "string",
          "name": "",
          "type": "string"
        }
      ],
      "stateMutability": "view",
      "type": "function"
    },
    {
      "inputs": [],
      "name": "totalSupply",
      "outputs": [
        {
          "internalType": "uint256",
          "name": "",
          "type": "uint256"
        }
      ],
      "stateMutability": "view",
      "type": "function"
    },
    {
      "inputs": [
        {
          "internalType": "uint256",
          "name": "snapshotId",
          "type": "uint256"
        }
      ],
      "name": "totalSupplyAt",
      "outputs": [
        {
          "internalType": "uint256",
          "name": "",
          "type": "uint256"
        }
      ],
      "stateMutability": "view",
      "type": "function"
    },
    {
      "inputs": [
        {
          "internalType": "address",
          "name": "recipient",
          "type": "address"
        },
        {
          "internalType": "uint256",
          "name": "amount",
          "type": "uint256"
        }
      ],
      "name": "transfer",
      "outputs": [
        {
          "internalType": "bool",
          "name": "",
          "type": "bool"
        }
      ],
      "stateMutability": "nonpayable",
      "type": "function"
    },
    {
      "inputs": [
        {
          "internalType": "address",
          "name": "sender",
          "type": "address"
        },
        {
          "internalType": "address",
          "name": "recipient",
          "type": "address"
        },
        {
          "internalType": "uint256",
          "name": "amount",
          "type": "uint256"
        }
      ],
      "name": "transferFrom",
      "outputs": [
        {
          "internalType": "bool",
          "name": "",
          "type": "bool"
        }
      ],
      "stateMutability": "nonpayable",
      "type": "function"
    },
    {
      "inputs": [],
      "name": "unpause",
      "outputs": [],
      "stateMutability": "nonpayable",
      "type": "function"
    },
    {
      "inputs": [
        {
          "internalType": "address",
          "name": "newImplementation",
          "type": "address"
        }
      ],
      "name": "upgradeTo",
      "outputs": [],
      "stateMutability": "nonpayable",
      "type": "function"
    },
    {
      "inputs": [
        {
          "internalType": "address",
          "name": "newImplementation",
          "type": "address"
        },
        {
          "internalType": "bytes",
          "name": "data",
          "type": "bytes"
        }
      ],
      "name": "upgradeToAndCall",
      "outputs": [],
      "stateMutability": "payable",
      "type": "function"
    }
  ],
  "bytecode": "0x60a06040523060601b60805234801561001757600080fd5b5060805160601c612df461004b60003960008181610af301528181610b3301528181610d300152610d700152612df46000f3fe6080604052600436106102515760003560e01c80636ae459bd11610139578063a457c2d7116100b6578063d53913931161007a578063d5391393146106e0578063d547741f14610714578063d84f91e814610734578063dd62ed3e14610756578063f36c8f5c1461079c578063f834c502146107be57600080fd5b8063a457c2d714610631578063a9059cbb14610651578063aa74a34a14610671578063aaf10f4214610693578063c233f3b7146106c057600080fd5b806391d14854116100fd57806391d14854146105b257806395d89b41146105d25780639711715a146105e7578063981b24d0146105fc578063a217fddf1461061c57600080fd5b80636ae459bd146105055780636e79a1c01461052557806370a0823114610545578063731ce8fc1461057b5780638456cb591461059d57600080fd5b80633659cfe6116101d257806347757fb61161019657806347757fb6146104585780634ee2cd7e146104785780634f1ef286146104985780635439ad86146104ab5780635c975abb146104c0578063685ed81a146104e557600080fd5b80633659cfe6146103c157806339509351146103e15780633f4ba83a1461040157806340c10f191461041657806343ffa64e1461043657600080fd5b8063248a9ca311610219578063248a9ca31461030c578063253279ad1461033c5780632f2ff15d1461035e578063313ce5671461037e57806336568abe146103a157600080fd5b806301ffc9a71461025657806306fdde031461028b578063095ea7b3146102ad57806318160ddd146102cd57806323b872dd146102ec575b600080fd5b34801561026257600080fd5b5061027661027136600461291d565b6107de565b60405190151581526020015b60405180910390f35b34801561029757600080fd5b506102a0610815565b6040516102829190612a5c565b3480156102b957600080fd5b506102766102c8366004612809565b6108a7565b3480156102d957600080fd5b506067545b604051908152602001610282565b3480156102f857600080fd5b5061027661030736600461276b565b6108bd565b34801561031857600080fd5b506102de6103273660046128e1565b600090815260fb602052604090206001015490565b34801561034857600080fd5b5061035c610357366004612947565b61096e565b005b34801561036a57600080fd5b5061035c6103793660046128fa565b610a3f565b34801561038a57600080fd5b506101605460405160ff9091168152602001610282565b3480156103ad57600080fd5b5061035c6103bc3660046128fa565b610a6a565b3480156103cd57600080fd5b5061035c6103dc36600461271d565b610ae8565b3480156103ed57600080fd5b506102766103fc366004612809565b610bb1565b34801561040d57600080fd5b5061035c610bed565b34801561042257600080fd5b5061035c610431366004612809565b610c0e565b34801561044257600080fd5b506102de600080516020612cd883398151915281565b34801561046457600080fd5b5061035c61047336600461271d565b610c43565b34801561048457600080fd5b506102de610493366004612809565b610c80565b61035c6104a63660046127a7565b610d25565b3480156104b757600080fd5b506102de610ddb565b3480156104cc57600080fd5b50600080516020612d7f8339815191525460ff16610276565b3480156104f157600080fd5b5061035c610500366004612833565b610df8565b34801561051157600080fd5b5061035c610520366004612875565b610e6d565b34801561053157600080fd5b5061035c610540366004612833565b610f4c565b34801561055157600080fd5b506102de61056036600461271d565b6001600160a01b031660009081526065602052604090205490565b34801561058757600080fd5b506102de600080516020612d9f83398151915281565b3480156105a957600080fd5b5061035c610fbb565b3480156105be57600080fd5b506102766105cd3660046128fa565b610fdc565b3480156105de57600080fd5b506102a0611007565b3480156105f357600080fd5b5061035c611016565b34801561060857600080fd5b506102de6106173660046128e1565b61101e565b34801561062857600080fd5b506102de600081565b34801561063d57600080fd5b5061027661064c366004612809565b611089565b34801561065d57600080fd5b5061027661066c366004612809565b611122565b34801561067d57600080fd5b506102de600080516020612cb883398151915281565b34801561069f57600080fd5b506106a861112f565b6040516001600160a01b039091168152602001610282565b3480156106cc57600080fd5b5061035c6106db366004612833565b611139565b3480156106ec57600080fd5b506102de7ff9424f4303d7f03683a025eb8885734ad99b47df7749d9b0a02cbc985809700b81565b34801561072057600080fd5b5061035c61072f3660046128fa565b611193565b34801561074057600080fd5b506102de600080516020612d3f83398151915281565b34801561076257600080fd5b506102de610771366004612738565b6001600160a01b03918216600090815260666020908152604080832093909416825291909152205490565b3480156107a857600080fd5b506102de600080516020612cf883398151915281565b3480156107ca57600080fd5b5061035c6107d9366004612833565b6111b9565b60006001600160e01b03198216637965db0b60e01b148061080f57506301ffc9a760e01b6001600160e01b03198316145b92915050565b60606068805461082490612c25565b80601f016020809104026020016040519081016040528092919081815260200182805461085090612c25565b801561089d5780601f106108725761010080835404028352916020019161089d565b820191906000526020600020905b81548152906001019060200180831161088057829003601f168201915b5050505050905090565b60006108b4338484611213565b50600192915050565b60006108ca848484611337565b6001600160a01b0384166000908152606660209081526040808320338452909152902054828110156109545760405162461bcd60e51b815260206004820152602860248201527f45524332303a207472616e7366657220616d6f756e74206578636565647320616044820152676c6c6f77616e636560c01b60648201526084015b60405180910390fd5b6109618533858403611213565b60019150505b9392505050565b600054610100900460ff166109895760005460ff161561098d565b303b155b6109f05760405162461bcd60e51b815260206004820152602e60248201527f496e697469616c697a61626c653a20636f6e747261637420697320616c72656160448201526d191e481a5b9a5d1a585b1a5e995960921b606482015260840161094b565b600054610100900460ff16158015610a12576000805461ffff19166101011790555b610a1e85858585611510565b610a26611553565b8015610a38576000805461ff00191690555b5050505050565b600082815260fb6020526040902060010154610a5b813361157c565b610a6583836115e0565b505050565b6001600160a01b0381163314610ada5760405162461bcd60e51b815260206004820152602f60248201527f416363657373436f6e74726f6c3a2063616e206f6e6c792072656e6f756e636560448201526e103937b632b9903337b91039b2b63360891b606482015260840161094b565b610ae48282611666565b5050565b306001600160a01b037f0000000000000000000000000000000000000000000000000000000000000000161415610b315760405162461bcd60e51b815260040161094b90612a8f565b7f00000000000000000000000000000000000000000000000000000000000000006001600160a01b0316610b636116cd565b6001600160a01b031614610b895760405162461bcd60e51b815260040161094b90612adb565b610b92816116fb565b60408051600080825260208201909252610bae9183919061177d565b50565b3360008181526066602090815260408083206001600160a01b038716845290915281205490916108b4918590610be8908690612b72565b611213565b600080516020612d3f833981519152610c06813361157c565b610bae6118c1565b7ff9424f4303d7f03683a025eb8885734ad99b47df7749d9b0a02cbc985809700b610c39813361157c565b610a65838361196e565b600080516020612cf8833981519152610c5c813361157c565b5061012d80546001600160a01b0319166001600160a01b0392909216919091179055565b604080516001600160a01b0384166020808301919091527ffbf1c7065455eb4486649b8540f24ef2dd4ebedf2aa423f0039d17c2c75dea15828401528251808303840181526060909201909252805191012060009081610ce1826001612b72565b9050600080610cf1868585611a59565b9150915081610d18576001600160a01b038716600090815260656020526040902054610d1a565b805b979650505050505050565b306001600160a01b037f0000000000000000000000000000000000000000000000000000000000000000161415610d6e5760405162461bcd60e51b815260040161094b90612a8f565b7f00000000000000000000000000000000000000000000000000000000000000006001600160a01b0316610da06116cd565b6001600160a01b031614610dc65760405162461bcd60e51b815260040161094b90612adb565b610dcf826116fb565b610ae48282600161177d565b6000610df3600080516020612d5f8339815191525490565b905090565b600080516020612d3f833981519152610e11813361157c565b60005b82811015610e6757610e55600080516020612cb8833981519152858584818110610e4057610e40612c8b565b9050602002016020810190610379919061271d565b80610e5f81612c5a565b915050610e14565b50505050565b7ff9424f4303d7f03683a025eb8885734ad99b47df7749d9b0a02cbc985809700b610e98813361157c565b838214610edf5760405162461bcd60e51b8152602060048201526015602482015274082e4e4c2f240d8cadccee8d040dad2e6dac2e8c6d605b1b604482015260640161094b565b60005b84811015610f4457610f32868683818110610eff57610eff612c8b565b9050602002016020810190610f14919061271d565b858584818110610f2657610f26612c8b565b9050602002013561196e565b80610f3c81612c5a565b915050610ee2565b505050505050565b600080516020612d3f833981519152610f65813361157c565b60005b82811015610e6757610fa9600080516020612d9f833981519152858584818110610f9457610f94612c8b565b905060200201602081019061072f919061271d565b80610fb381612c5a565b915050610f68565b600080516020612d3f833981519152610fd4813361157c565b610bae611b44565b600091825260fb602090815260408084206001600160a01b0393909316845291905290205460ff1690565b60606069805461082490612c25565b610bae611bd8565b600080600061106e847f286a9db37a0f8ddcbcee127c9f4f56031230f49cb46786f87e166d552e11f67e7ffcaa8bb100d3c5b627eac0369cc1d2778dbeffa2993d08f039fb27795729e9a5611a59565b915091508161107f57606754611081565b805b949350505050565b3360009081526066602090815260408083206001600160a01b03861684529091528120548281101561110b5760405162461bcd60e51b815260206004820152602560248201527f45524332303a2064656372656173656420616c6c6f77616e63652062656c6f77604482015264207a65726f60d81b606482015260840161094b565b6111183385858403611213565b5060019392505050565b60006108b4338484611337565b6000610df36116cd565b600080516020612d3f833981519152611152813361157c565b60005b82811015610e6757611181600080516020612cb8833981519152858584818110610f9457610f94612c8b565b8061118b81612c5a565b915050611155565b600082815260fb60205260409020600101546111af813361157c565b610a658383611666565b600080516020612d3f8339815191526111d2813361157c565b60005b82811015610e6757611201600080516020612d9f833981519152858584818110610e4057610e40612c8b565b8061120b81612c5a565b9150506111d5565b6001600160a01b0383166112755760405162461bcd60e51b8152602060048201526024808201527f45524332303a20617070726f76652066726f6d20746865207a65726f206164646044820152637265737360e01b606482015260840161094b565b6001600160a01b0382166112d65760405162461bcd60e51b815260206004820152602260248201527f45524332303a20617070726f766520746f20746865207a65726f206164647265604482015261737360f01b606482015260840161094b565b6001600160a01b0383811660008181526066602090815260408083209487168084529482529182902085905590518481527f8c5be1e5ebec7d5bd14f71427d1e84f3dd0314c0f7b2291e5b200ac8c7c3b925910160405180910390a3505050565b6001600160a01b03831661139b5760405162461bcd60e51b815260206004820152602560248201527f45524332303a207472616e736665722066726f6d20746865207a65726f206164604482015264647265737360d81b606482015260840161094b565b6001600160a01b0382166113fd5760405162461bcd60e51b815260206004820152602360248201527f45524332303a207472616e7366657220746f20746865207a65726f206164647260448201526265737360e81b606482015260840161094b565b611408838383611c48565b6001600160a01b038316600090815260656020526040902054818110156114805760405162461bcd60e51b815260206004820152602660248201527f45524332303a207472616e7366657220616d6f756e7420657863656564732062604482015265616c616e636560d01b606482015260840161094b565b6001600160a01b038085166000908152606560205260408082208585039055918516815290812080548492906114b7908490612b72565b92505081905550826001600160a01b0316846001600160a01b03167fddf252ad1be2c89b69c2b068fc378daa952ba7f163c4a11628f55a4df523b3ef8460405161150391815260200190565b60405180910390a3610e67565b600054610100900460ff166115375760405162461bcd60e51b815260040161094b90612b27565b61153f611c5e565b6115498484611cb5565b610e678282611d03565b600054610100900460ff1661157a5760405162461bcd60e51b815260040161094b90612b27565b565b6115868282610fdc565b610ae45761159e816001600160a01b03166014611d44565b6115a9836020611d44565b6040516020016115ba9291906129e7565b60408051601f198184030181529082905262461bcd60e51b825261094b91600401612a5c565b6115ea8282610fdc565b610ae457600082815260fb602090815260408083206001600160a01b03851684529091529020805460ff191660011790556116223390565b6001600160a01b0316816001600160a01b0316837f2f8788117e7eff1d82e926ec794901d17c78024a50270940304540a733656f0d60405160405180910390a45050565b6116708282610fdc565b15610ae457600082815260fb602090815260408083206001600160a01b0385168085529252808320805460ff1916905551339285917ff6391f5c32d9c69d2a47ea670b442974b53935d1edc7fd64eb21e047a839171b9190a45050565b7f360894a13ba1a3210667c828492db98dca3e2076cc3735a920a3ca505d382bbc546001600160a01b031690565b611713600080516020612cf883398151915233610fdc565b806117315750611731600080516020612cd883398151915233610fdc565b610bae5760405162461bcd60e51b815260206004820152601d60248201527f4552524f523a2041646472657373206e6f7420617574686f72697a6564000000604482015260640161094b565b60006117876116cd565b905061179284611ee0565b60008351118061179f5750815b156117b0576117ae8484611f85565b505b7f4910fdfa16fed3260ed0e7147f7cc6da11a60208b5b9406d12a635614ffd9143805460ff16610a3857805460ff191660011781556040516001600160a01b038316602482015261182f90869060440160408051601f198184030181529190526020810180516001600160e01b0316631b2ce7f360e11b179052611f85565b50805460ff191681556118406116cd565b6001600160a01b0316826001600160a01b0316146118b85760405162461bcd60e51b815260206004820152602f60248201527f45524331393637557067726164653a207570677261646520627265616b73206660448201526e75727468657220757067726164657360881b606482015260840161094b565b610a3885612070565b600080516020612d7f8339815191525460ff166119175760405162461bcd60e51b815260206004820152601460248201527314185d5cd8589b194e881b9bdd081c185d5cd95960621b604482015260640161094b565b600080516020612d7f833981519152805460ff191690557f5db9ee0a495bf2e6ff9c91a7834c1ba4fdd244a5e8aa4e537bd38aeae4b073aa335b6040516001600160a01b03909116815260200160405180910390a1565b6001600160a01b0382166119c45760405162461bcd60e51b815260206004820152601f60248201527f45524332303a206d696e7420746f20746865207a65726f206164647265737300604482015260640161094b565b6119d060008383611c48565b80606760008282546119e29190612b72565b90915550506001600160a01b03821660009081526065602052604081208054839290611a0f908490612b72565b90915550506040518181526001600160a01b038316906000907fddf252ad1be2c89b69c2b068fc378daa952ba7f163c4a11628f55a4df523b3ef9060200160405180910390a35050565b60008060008511611aa55760405162461bcd60e51b815260206004820152601660248201527504552433230536e617073686f743a20696420697320360541b604482015260640161094b565b600080516020612d5f83398151915254851115611b045760405162461bcd60e51b815260206004820152601d60248201527f4552433230536e617073686f743a206e6f6e6578697374656e74206964000000604482015260640161094b565b6000611b1085876120b0565b90508454811415611b28576000809250925050611b3c565b6001611b34858361214f565b549093509150505b935093915050565b600080516020612d7f8339815191525460ff1615611b975760405162461bcd60e51b815260206004820152601060248201526f14185d5cd8589b194e881c185d5cd95960821b604482015260640161094b565b600080516020612d7f833981519152805460ff191660011790557f62e78cea01bee320cd4e420270b5ea74000d11b0c9f74754ebdbfc544b05a25833611951565b60006001600080516020612d5f8339815191528054600090611bfb908490612b72565b9091555050600080516020612d5f833981519152546040518181527f8030e83b04d87bef53480e26263266d6ca66863aa8506aca6f2559d18aa1cb679060200160405180910390a1919050565b611c538383836121ce565b610a658383836121e4565b600054610100900460ff16611c855760405162461bcd60e51b815260040161094b90612b27565b611c8d611553565b611c95611553565b611c9d611553565b611ca5611553565b611cad611553565b61157a61222c565b600054610100900460ff16611cdc5760405162461bcd60e51b815260040161094b90612b27565b8151611cef906068906020850190612586565b508051610a65906069906020840190612586565b600054610100900460ff16611d2a5760405162461bcd60e51b815260040161094b90612b27565b610160805460ff191660ff8416179055610ae4338261196e565b60606000611d53836002612bac565b611d5e906002612b72565b67ffffffffffffffff811115611d7657611d76612ca1565b6040519080825280601f01601f191660200182016040528015611da0576020820181803683370190505b509050600360fc1b81600081518110611dbb57611dbb612c8b565b60200101906001600160f81b031916908160001a905350600f60fb1b81600181518110611dea57611dea612c8b565b60200101906001600160f81b031916908160001a9053506000611e0e846002612bac565b611e19906001612b72565b90505b6001811115611e91576f181899199a1a9b1b9c1cb0b131b232b360811b85600f1660108110611e4d57611e4d612c8b565b1a60f81b828281518110611e6357611e63612c8b565b60200101906001600160f81b031916908160001a90535060049490941c93611e8a81612c0e565b9050611e1c565b5083156109675760405162461bcd60e51b815260206004820181905260248201527f537472696e67733a20686578206c656e67746820696e73756666696369656e74604482015260640161094b565b803b611f445760405162461bcd60e51b815260206004820152602d60248201527f455243313936373a206e657720696d706c656d656e746174696f6e206973206e60448201526c1bdd08184818dbdb9d1c9858dd609a1b606482015260840161094b565b7f360894a13ba1a3210667c828492db98dca3e2076cc3735a920a3ca505d382bbc80546001600160a01b0319166001600160a01b0392909216919091179055565b6060823b611fe45760405162461bcd60e51b815260206004820152602660248201527f416464726573733a2064656c65676174652063616c6c20746f206e6f6e2d636f6044820152651b9d1c9858dd60d21b606482015260840161094b565b600080846001600160a01b031684604051611fff91906129cb565b600060405180830381855af49150503d806000811461203a576040519150601f19603f3d011682016040523d82523d6000602084013e61203f565b606091505b50915091506120678282604051806060016040528060278152602001612d18602791396122b4565b95945050505050565b61207981611ee0565b6040516001600160a01b038216907fbc7cd75a20ee27fd9adebab32041f755214dbc6bffa90cc0225b39da2e5c2d3b90600090a250565b81546000908190806120c75760009250505061080f565b8082101561210b5760006120db83836122ed565b9050846120e8878361214f565b5411156120f757809150612105565b612102816001612b72565b92505b506120c7565b60008211801561212e57508361212b86612126600186612bcb565b61214f565b54145b156121475761213e600183612bcb565b9250505061080f565b50905061080f565b6000825482106121975760405162461bcd60e51b815260206004820152601360248201527211549493d48e8813dd5d081bd988189bdd5b99606a1b604482015260640161094b565b81836040516020016121ab91815260200190565b6040516020818303038152906040528051906020012060001c6109679190612b72565b6121d9838383611c53565b610a65838383612308565b6001600160a01b038316612203576121fb8261238b565b610a65612415565b6001600160a01b03821661221a576121fb8361238b565b6122238361238b565b610a658261238b565b600054610100900460ff166122535760405162461bcd60e51b815260040161094b90612b27565b61225e600033612463565b612276600080516020612cf883398151915233612463565b61228e600080516020612cd883398151915233612463565b61157a600080516020612cd8833981519152600080516020612cf883398151915261246d565b606083156122c3575081610967565b8251156122d35782518084602001fd5b8160405162461bcd60e51b815260040161094b9190612a5c565b60006122fc6002848418612b8a565b61096790848416612b72565b600080516020612d7f8339815191525460ff16158061232c575061232c83336124b8565b610a655760405162461bcd60e51b815260206004820152602a60248201527f45524332305061757361626c653a20746f6b656e207472616e736665722077686044820152691a5b19481c185d5cd95960b21b606482015260840161094b565b604080516001600160a01b0383166020808301919091527ffbf1c7065455eb4486649b8540f24ef2dd4ebedf2aa423f0039d17c2c75dea15828401528251808303840181526060909201909252805191012060006123ea826001612b72565b9050610a658282612410866001600160a01b031660009081526065602052604090205490565b6124f0565b61157a7f286a9db37a0f8ddcbcee127c9f4f56031230f49cb46786f87e166d552e11f67e7ffcaa8bb100d3c5b627eac0369cc1d2778dbeffa2993d08f039fb27795729e9a561241060675490565b610ae482826115e0565b600082815260fb6020526040808220600101805490849055905190918391839186917fbd79b86ffe0ab8e8776151514217cd7cacd52c909f66475c3af44e129f0b00ff9190a4505050565b60006124d2600080516020612d9f83398151915284610fdc565b806109675750610967600080516020612cb883398151915283610fdc565b6000612508600080516020612d5f8339815191525490565b9050806125148561252e565b1015610e6757612524848261255e565b610e67838361255e565b8054600090806125415750600092915050565b61255083612126600184612bcb565b549392505050565b50919050565b8154600183600061256f8385612b72565b90915550829050612580848361214f565b55505050565b82805461259290612c25565b90600052602060002090601f0160209004810192826125b457600085556125fa565b82601f106125cd57805160ff19168380011785556125fa565b828001600101855582156125fa579182015b828111156125fa5782518255916020019190600101906125df565b5061260692915061260a565b5090565b5b80821115612606576000815560010161260b565b600067ffffffffffffffff8084111561263a5761263a612ca1565b604051601f8501601f19908116603f0116810190828211818310171561266257612662612ca1565b8160405280935085815286868601111561267b57600080fd5b858560208301376000602087830101525050509392505050565b80356001600160a01b03811681146126ac57600080fd5b919050565b60008083601f8401126126c357600080fd5b50813567ffffffffffffffff8111156126db57600080fd5b6020830191508360208260051b85010111156126f657600080fd5b9250929050565b600082601f83011261270e57600080fd5b6109678383356020850161261f565b60006020828403121561272f57600080fd5b61096782612695565b6000806040838503121561274b57600080fd5b61275483612695565b915061276260208401612695565b90509250929050565b60008060006060848603121561278057600080fd5b61278984612695565b925061279760208501612695565b9150604084013590509250925092565b600080604083850312156127ba57600080fd5b6127c383612695565b9150602083013567ffffffffffffffff8111156127df57600080fd5b8301601f810185136127f057600080fd5b6127ff8582356020840161261f565b9150509250929050565b6000806040838503121561281c57600080fd5b61282583612695565b946020939093013593505050565b6000806020838503121561284657600080fd5b823567ffffffffffffffff81111561285d57600080fd5b612869858286016126b1565b90969095509350505050565b6000806000806040858703121561288b57600080fd5b843567ffffffffffffffff808211156128a357600080fd5b6128af888389016126b1565b909650945060208701359150808211156128c857600080fd5b506128d5878288016126b1565b95989497509550505050565b6000602082840312156128f357600080fd5b5035919050565b6000806040838503121561290d57600080fd5b8235915061276260208401612695565b60006020828403121561292f57600080fd5b81356001600160e01b03198116811461096757600080fd5b6000806000806080858703121561295d57600080fd5b843567ffffffffffffffff8082111561297557600080fd5b612981888389016126fd565b9550602087013591508082111561299757600080fd5b506129a4878288016126fd565b935050604085013560ff811681146129bb57600080fd5b9396929550929360600135925050565b600082516129dd818460208701612be2565b9190910192915050565b7f416363657373436f6e74726f6c3a206163636f756e7420000000000000000000815260008351612a1f816017850160208801612be2565b7001034b99036b4b9b9b4b733903937b6329607d1b6017918401918201528351612a50816028840160208801612be2565b01602801949350505050565b6020815260008251806020840152612a7b816040850160208701612be2565b601f01601f19169190910160400192915050565b6020808252602c908201527f46756e6374696f6e206d7573742062652063616c6c6564207468726f7567682060408201526b19195b1959d85d1958d85b1b60a21b606082015260800190565b6020808252602c908201527f46756e6374696f6e206d7573742062652063616c6c6564207468726f7567682060408201526b6163746976652070726f787960a01b606082015260800190565b6020808252602b908201527f496e697469616c697a61626c653a20636f6e7472616374206973206e6f74206960408201526a6e697469616c697a696e6760a81b606082015260800190565b60008219821115612b8557612b85612c75565b500190565b600082612ba757634e487b7160e01b600052601260045260246000fd5b500490565b6000816000190483118215151615612bc657612bc6612c75565b500290565b600082821015612bdd57612bdd612c75565b500390565b60005b83811015612bfd578181015183820152602001612be5565b83811115610e675750506000910152565b600081612c1d57612c1d612c75565b506000190190565b600181811c90821680612c3957607f821691505b6020821081141561255857634e487b7160e01b600052602260045260246000fd5b6000600019821415612c6e57612c6e612c75565b5060010190565b634e487b7160e01b600052601160045260246000fd5b634e487b7160e01b600052603260045260246000fd5b634e487b7160e01b600052604160045260246000fdfee1ac655ab58995133a870d1fd307ddc1d624c8ad919a09e67867a7a1483e439aa76ace73a908083d89af9ff88e5b4f7cadb3591a80631063f68b695fda726db571840dc4906352362b0cdaf79870196c8e42acafade72d5d5a6d59291253ceb1416464726573733a206c6f772d6c6576656c2064656c65676174652063616c6c206661696c6564356a809dfdea9198dd76fb76bf6d403ecf13ea675eb89e1eda2db2c4a4676a260d0a0ed3351c10a57d74a44b40c06e0946288e4e3816ac07bb89db2a755562e7ad6a6591fa308fe948065665239402780db8ed4a8c4e4e16c4d066bcaa05efc2ce108bcc5e0f50fe603649304cbbbd94de794a404db82d884c0afc9ba9328e61a2646970667358221220ee1ccf2b20086288f6e5155e8d027799d1df3fae9ded2bce4c6a59fdf8b8b09364736f6c63430008060033",
  "linkReferences": {},
  "deployedLinkReferences": {}
}