{
  "_format": "hh-sol-artifact-1",
  "name": "MintSnapshotTxFeeTemplate",
  "initializer": "function initialize(string name_, string symbol_, uint8 decimals_, uint256 amount_, uint256 txFee, address txFeeBeneficiary)",
  "sourceName": "contracts/templates/MintSnapshotTxFeeTemplate.sol",
  "abi": [
    {
      "anonymous": false,
      "inputs": [
        {
          "indexed": false,
          "internalType": "address",
          "name": "previousAdmin",
          "type": "address"
        },
        {
          "indexed": false,
          "internalType": "address",
          "name": "newAdmin",
          "type": "address"
        }
      ],
      "name": "AdminChanged",
      "type": "event"
    },
    {
      "anonymous": false,
      "inputs": [
        {
          "indexed": true,
          "internalType": "address",
          "name": "owner",
          "type": "address"
        },
        {
          "indexed": true,
          "internalType": "address",
          "name": "spender",
          "type": "address"
        },
        {
          "indexed": false,
          "internalType": "uint256",
          "name": "value",
          "type": "uint256"
        }
      ],
      "name": "Approval",
      "type": "event"
    },
    {
      "anonymous": false,
      "inputs": [
        {
          "indexed": true,
          "internalType": "address",
          "name": "beacon",
          "type": "address"
        }
      ],
      "name": "BeaconUpgraded",
      "type": "event"
    },
    {
      "anonymous": false,
      "inputs": [
        {
          "indexed": true,
          "internalType": "bytes32",
          "name": "role",
          "type": "bytes32"
        },
        {
          "indexed": true,
          "internalType": "bytes32",
          "name": "previousAdminRole",
          "type": "bytes32"
        },
        {
          "indexed": true,
          "internalType": "bytes32",
          "name": "newAdminRole",
          "type": "bytes32"
        }
      ],
      "name": "RoleAdminChanged",
      "type": "event"
    },
    {
      "anonymous": false,
      "inputs": [
        {
          "indexed": true,
          "internalType": "bytes32",
          "name": "role",
          "type": "bytes32"
        },
        {
          "indexed": true,
          "internalType": "address",
          "name": "account",
          "type": "address"
        },
        {
          "indexed": true,
          "internalType": "address",
          "name": "sender",
          "type": "address"
        }
      ],
      "name": "RoleGranted",
      "type": "event"
    },
    {
      "anonymous": false,
      "inputs": [
        {
          "indexed": true,
          "internalType": "bytes32",
          "name": "role",
          "type": "bytes32"
        },
        {
          "indexed": true,
          "internalType": "address",
          "name": "account",
          "type": "address"
        },
        {
          "indexed": true,
          "internalType": "address",
          "name": "sender",
          "type": "address"
        }
      ],
      "name": "RoleRevoked",
      "type": "event"
    },
    {
      "anonymous": false,
      "inputs": [
        {
          "indexed": false,
          "internalType": "uint256",
          "name": "id",
          "type": "uint256"
        }
      ],
      "name": "Snapshot",
      "type": "event"
    },
    {
      "anonymous": false,
      "inputs": [
        {
          "indexed": true,
          "internalType": "address",
          "name": "from",
          "type": "address"
        },
        {
          "indexed": true,
          "internalType": "address",
          "name": "to",
          "type": "address"
        },
        {
          "indexed": false,
          "internalType": "uint256",
          "name": "value",
          "type": "uint256"
        }
      ],
      "name": "Transfer",
      "type": "event"
    },
    {
      "anonymous": false,
      "inputs": [
        {
          "indexed": true,
          "internalType": "address",
          "name": "implementation",
          "type": "address"
        }
      ],
      "name": "Upgraded",
      "type": "event"
    },
    {
      "inputs": [],
      "name": "DEFAULT_ADMIN_ROLE",
      "outputs": [
        {
          "internalType": "bytes32",
          "name": "",
          "type": "bytes32"
        }
      ],
      "stateMutability": "view",
      "type": "function"
    },
    {
      "inputs": [],
      "name": "GOVERNANCE_ROLE",
      "outputs": [
        {
          "internalType": "bytes32",
          "name": "",
          "type": "bytes32"
        }
      ],
      "stateMutability": "view",
      "type": "function"
    },
    {
      "inputs": [],
      "name": "MINTER_ROLE",
      "outputs": [
        {
          "internalType": "bytes32",
          "name": "",
          "type": "bytes32"
        }
      ],
      "stateMutability": "view",
      "type": "function"
    },
    {
      "inputs": [],
      "name": "UPGRADE_MANAGER_ROLE",
      "outputs": [
        {
          "internalType": "bytes32",
          "name": "",
          "type": "bytes32"
        }
      ],
      "stateMutability": "view",
      "type": "function"
    },
    {
      "inputs": [
        {
          "internalType": "address",
          "name": "owner",
          "type": "address"
        },
        {
          "internalType": "address",
          "name": "spender",
          "type": "address"
        }
      ],
      "name": "allowance",
      "outputs": [
        {
          "internalType": "uint256",
          "name": "",
          "type": "uint256"
        }
      ],
      "stateMutability": "view",
      "type": "function"
    },
    {
      "inputs": [
        {
          "internalType": "address",
          "name": "spender",
          "type": "address"
        },
        {
          "internalType": "uint256",
          "name": "amount",
          "type": "uint256"
        }
      ],
      "name": "approve",
      "outputs": [
        {
          "internalType": "bool",
          "name": "",
          "type": "bool"
        }
      ],
      "stateMutability": "nonpayable",
      "type": "function"
    },
    {
      "inputs": [
        {
          "internalType": "address",
          "name": "account",
          "type": "address"
        }
      ],
      "name": "balanceOf",
      "outputs": [
        {
          "internalType": "uint256",
          "name": "",
          "type": "uint256"
        }
      ],
      "stateMutability": "view",
      "type": "function"
    },
    {
      "inputs": [
        {
          "internalType": "address",
          "name": "account",
          "type": "address"
        },
        {
          "internalType": "uint256",
          "name": "snapshotId",
          "type": "uint256"
        }
      ],
      "name": "balanceOfAt",
      "outputs": [
        {
          "internalType": "uint256",
          "name": "",
          "type": "uint256"
        }
      ],
      "stateMutability": "view",
      "type": "function"
    },
    {
      "inputs": [
        {
          "internalType": "address[]",
          "name": "accounts",
          "type": "address[]"
        },
        {
          "internalType": "uint256[]",
          "name": "amounts",
          "type": "uint256[]"
        }
      ],
      "name": "bulkMint",
      "outputs": [],
      "stateMutability": "nonpayable",
      "type": "function"
    },
    {
      "inputs": [
        {
          "internalType": "uint256",
          "name": "newTxFee",
          "type": "uint256"
        },
        {
          "internalType": "address",
          "name": "newTxBeneficiary",
          "type": "address"
        }
      ],
      "name": "changeTxFeeProperties",
      "outputs": [],
      "stateMutability": "nonpayable",
      "type": "function"
    },
    {
      "inputs": [],
      "name": "decimals",
      "outputs": [
        {
          "internalType": "uint8",
          "name": "",
          "type": "uint8"
        }
      ],
      "stateMutability": "view",
      "type": "function"
    },
    {
      "inputs": [
        {
          "internalType": "address",
          "name": "spender",
          "type": "address"
        },
        {
          "internalType": "uint256",
          "name": "subtractedValue",
          "type": "uint256"
        }
      ],
      "name": "decreaseAllowance",
      "outputs": [
        {
          "internalType": "bool",
          "name": "",
          "type": "bool"
        }
      ],
      "stateMutability": "nonpayable",
      "type": "function"
    },
    {
      "inputs": [],
      "name": "getCurrentSnapshotId",
      "outputs": [
        {
          "internalType": "uint256",
          "name": "",
          "type": "uint256"
        }
      ],
      "stateMutability": "view",
      "type": "function"
    },
    {
      "inputs": [],
      "name": "getImplementation",
      "outputs": [
        {
          "internalType": "address",
          "name": "",
          "type": "address"
        }
      ],
      "stateMutability": "view",
      "type": "function"
    },
    {
      "inputs": [
        {
          "internalType": "bytes32",
          "name": "role",
          "type": "bytes32"
        }
      ],
      "name": "getRoleAdmin",
      "outputs": [
        {
          "internalType": "bytes32",
          "name": "",
          "type": "bytes32"
        }
      ],
      "stateMutability": "view",
      "type": "function"
    },
    {
      "inputs": [
        {
          "internalType": "bytes32",
          "name": "role",
          "type": "bytes32"
        },
        {
          "internalType": "address",
          "name": "account",
          "type": "address"
        }
      ],
      "name": "grantRole",
      "outputs": [],
      "stateMutability": "nonpayable",
      "type": "function"
    },
    {
      "inputs": [
        {
          "internalType": "bytes32",
          "name": "role",
          "type": "bytes32"
        },
        {
          "internalType": "address",
          "name": "account",
          "type": "address"
        }
      ],
      "name": "hasRole",
      "outputs": [
        {
          "internalType": "bool",
          "name": "",
          "type": "bool"
        }
      ],
      "stateMutability": "view",
      "type": "function"
    },
    {
      "inputs": [
        {
          "internalType": "address",
          "name": "spender",
          "type": "address"
        },
        {
          "internalType": "uint256",
          "name": "addedValue",
          "type": "uint256"
        }
      ],
      "name": "increaseAllowance",
      "outputs": [
        {
          "internalType": "bool",
          "name": "",
          "type": "bool"
        }
      ],
      "stateMutability": "nonpayable",
      "type": "function"
    },
    {
      "inputs": [
        {
          "internalType": "string",
          "name": "name_",
          "type": "string"
        },
        {
          "internalType": "string",
          "name": "symbol_",
          "type": "string"
        },
        {
          "internalType": "uint8",
          "name": "decimals_",
          "type": "uint8"
        },
        {
          "internalType": "uint256",
          "name": "amount_",
          "type": "uint256"
        },
        {
          "internalType": "uint256",
          "name": "txFee",
          "type": "uint256"
        },
        {
          "internalType": "address",
          "name": "txFeeBeneficiary",
          "type": "address"
        }
      ],
      "name": "initialize",
      "outputs": [],
      "stateMutability": "nonpayable",
      "type": "function"
    },
    {
      "inputs": [
        {
          "internalType": "address",
          "name": "account",
          "type": "address"
        },
        {
          "internalType": "uint256",
          "name": "amount",
          "type": "uint256"
        }
      ],
      "name": "mint",
      "outputs": [],
      "stateMutability": "nonpayable",
      "type": "function"
    },
    {
      "inputs": [],
      "name": "name",
      "outputs": [
        {
          "internalType": "string",
          "name": "",
          "type": "string"
        }
      ],
      "stateMutability": "view",
      "type": "function"
    },
    {
      "inputs": [
        {
          "internalType": "address",
          "name": "implementationAddress",
          "type": "address"
        }
      ],
      "name": "proposeNewImplementation",
      "outputs": [],
      "stateMutability": "nonpayable",
      "type": "function"
    },
    {
      "inputs": [
        {
          "internalType": "bytes32",
          "name": "role",
          "type": "bytes32"
        },
        {
          "internalType": "address",
          "name": "account",
          "type": "address"
        }
      ],
      "name": "renounceRole",
      "outputs": [],
      "stateMutability": "nonpayable",
      "type": "function"
    },
    {
      "inputs": [
        {
          "internalType": "bytes32",
          "name": "role",
          "type": "bytes32"
        },
        {
          "internalType": "address",
          "name": "account",
          "type": "address"
        }
      ],
      "name": "revokeRole",
      "outputs": [],
      "stateMutability": "nonpayable",
      "type": "function"
    },
    {
      "inputs": [],
      "name": "snapshot",
      "outputs": [],
      "stateMutability": "nonpayable",
      "type": "function"
    },
    {
      "inputs": [
        {
          "internalType": "bytes4",
          "name": "interfaceId",
          "type": "bytes4"
        }
      ],
      "name": "supportsInterface",
      "outputs": [
        {
          "internalType": "bool",
          "name": "",
          "type": "bool"
        }
      ],
      "stateMutability": "view",
      "type": "function"
    },
    {
      "inputs": [],
      "name": "symbol",
      "outputs": [
        {
          "internalType": "string",
          "name": "",
          "type": "string"
        }
      ],
      "stateMutability": "view",
      "type": "function"
    },
    {
      "inputs": [],
      "name": "totalSupply",
      "outputs": [
        {
          "internalType": "uint256",
          "name": "",
          "type": "uint256"
        }
      ],
      "stateMutability": "view",
      "type": "function"
    },
    {
      "inputs": [
        {
          "internalType": "uint256",
          "name": "snapshotId",
          "type": "uint256"
        }
      ],
      "name": "totalSupplyAt",
      "outputs": [
        {
          "internalType": "uint256",
          "name": "",
          "type": "uint256"
        }
      ],
      "stateMutability": "view",
      "type": "function"
    },
    {
      "inputs": [
        {
          "internalType": "address",
          "name": "recipient",
          "type": "address"
        },
        {
          "internalType": "uint256",
          "name": "amount",
          "type": "uint256"
        }
      ],
      "name": "transfer",
      "outputs": [
        {
          "internalType": "bool",
          "name": "",
          "type": "bool"
        }
      ],
      "stateMutability": "nonpayable",
      "type": "function"
    },
    {
      "inputs": [
        {
          "internalType": "address",
          "name": "sender",
          "type": "address"
        },
        {
          "internalType": "address",
          "name": "recipient",
          "type": "address"
        },
        {
          "internalType": "uint256",
          "name": "amount",
          "type": "uint256"
        }
      ],
      "name": "transferFrom",
      "outputs": [
        {
          "internalType": "bool",
          "name": "",
          "type": "bool"
        }
      ],
      "stateMutability": "nonpayable",
      "type": "function"
    },
    {
      "inputs": [
        {
          "internalType": "address",
          "name": "newImplementation",
          "type": "address"
        }
      ],
      "name": "upgradeTo",
      "outputs": [],
      "stateMutability": "nonpayable",
      "type": "function"
    },
    {
      "inputs": [
        {
          "internalType": "address",
          "name": "newImplementation",
          "type": "address"
        },
        {
          "internalType": "bytes",
          "name": "data",
          "type": "bytes"
        }
      ],
      "name": "upgradeToAndCall",
      "outputs": [],
      "stateMutability": "payable",
      "type": "function"
    }
  ],
  "bytecode": "0x60a06040523060601b60805234801561001757600080fd5b5060805160601c612a1961004b60003960008181610987015281816109c701528181610ba30152610be30152612a196000f3fe6080604052600436106101ee5760003560e01c80634f1ef2861161010d578063981b24d0116100a0578063aaf10f421161006f578063aaf10f421461057d578063d5391393146105aa578063d547741f146105de578063dd62ed3e146105fe578063f36c8f5c1461064457600080fd5b8063981b24d014610508578063a217fddf14610528578063a457c2d71461053d578063a9059cbb1461055d57600080fd5b806370a08231116100dc57806370a082311461048857806391d14854146104be57806395d89b41146104de5780639711715a146104f357600080fd5b80634f1ef286146104205780635120561a146104335780635439ad86146104535780636ae459bd1461046857600080fd5b8063313ce5671161018557806340c10f191161015457806340c10f191461039e57806343ffa64e146103be57806347757fb6146103e05780634ee2cd7e1461040057600080fd5b8063313ce5671461031b57806336568abe1461033e5780633659cfe61461035e578063395093511461037e57600080fd5b806323b872dd116101c157806323b872dd14610289578063248a9ca3146102a95780632cd77a5a146102d95780632f2ff15d146102fb57600080fd5b806301ffc9a7146101f357806306fdde0314610228578063095ea7b31461024a57806318160ddd1461026a575b600080fd5b3480156101ff57600080fd5b5061021361020e366004612587565b610666565b60405190151581526020015b60405180910390f35b34801561023457600080fd5b5061023d61069d565b60405161021f91906126e1565b34801561025657600080fd5b506102136102653660046124b5565b61072f565b34801561027657600080fd5b506067545b60405190815260200161021f565b34801561029557600080fd5b506102136102a4366004612417565b610745565b3480156102b557600080fd5b5061027b6102c436600461254b565b600090815260fb602052604090206001015490565b3480156102e557600080fd5b506102f96102f43660046125b1565b6107f6565b005b34801561030757600080fd5b506102f9610316366004612564565b6108d3565b34801561032757600080fd5b506101605460405160ff909116815260200161021f565b34801561034a57600080fd5b506102f9610359366004612564565b6108fe565b34801561036a57600080fd5b506102f96103793660046123c9565b61097c565b34801561038a57600080fd5b506102136103993660046124b5565b610a45565b3480156103aa57600080fd5b506102f96103b93660046124b5565b610a81565b3480156103ca57600080fd5b5061027b60008051602061293d83398151915281565b3480156103ec57600080fd5b506102f96103fb3660046123c9565b610ab6565b34801561040c57600080fd5b5061027b61041b3660046124b5565b610af3565b6102f961042e366004612453565b610b98565b34801561043f57600080fd5b506102f961044e366004612564565b610c4e565b34801561045f57600080fd5b5061027b610cc3565b34801561047457600080fd5b506102f96104833660046124df565b610ce0565b34801561049457600080fd5b5061027b6104a33660046123c9565b6001600160a01b031660009081526065602052604090205490565b3480156104ca57600080fd5b506102136104d9366004612564565b610dbf565b3480156104ea57600080fd5b5061023d610dea565b3480156104ff57600080fd5b506102f9610df9565b34801561051457600080fd5b5061027b61052336600461254b565b610e01565b34801561053457600080fd5b5061027b600081565b34801561054957600080fd5b506102136105583660046124b5565b610e6c565b34801561056957600080fd5b506102136105783660046124b5565b610f05565b34801561058957600080fd5b50610592610f12565b6040516001600160a01b03909116815260200161021f565b3480156105b657600080fd5b5061027b7ff9424f4303d7f03683a025eb8885734ad99b47df7749d9b0a02cbc985809700b81565b3480156105ea57600080fd5b506102f96105f9366004612564565b610f1c565b34801561060a57600080fd5b5061027b6106193660046123e4565b6001600160a01b03918216600090815260666020908152604080832093909416825291909152205490565b34801561065057600080fd5b5061027b60008051602061295d83398151915281565b60006001600160e01b03198216637965db0b60e01b148061069757506301ffc9a760e01b6001600160e01b03198316145b92915050565b6060606880546106ac906128aa565b80601f01602080910402602001604051908101604052809291908181526020018280546106d8906128aa565b80156107255780601f106106fa57610100808354040283529160200191610725565b820191906000526020600020905b81548152906001019060200180831161070857829003601f168201915b5050505050905090565b600061073c338484610f42565b50600192915050565b6000610752848484611066565b6001600160a01b0384166000908152606660209081526040808320338452909152902054828110156107dc5760405162461bcd60e51b815260206004820152602860248201527f45524332303a207472616e7366657220616d6f756e74206578636565647320616044820152676c6c6f77616e636560c01b60648201526084015b60405180910390fd5b6107e98533858403610f42565b60019150505b9392505050565b600054610100900460ff166108115760005460ff1615610815565b303b155b6108785760405162461bcd60e51b815260206004820152602e60248201527f496e697469616c697a61626c653a20636f6e747261637420697320616c72656160448201526d191e481a5b9a5d1a585b1a5e995960921b60648201526084016107d3565b600054610100900460ff1615801561089a576000805461ffff19166101011790555b6108a687878787611241565b6108b08383611284565b6108b8611313565b80156108ca576000805461ff00191690555b50505050505050565b600082815260fb60205260409020600101546108ef813361133c565b6108f983836113a0565b505050565b6001600160a01b038116331461096e5760405162461bcd60e51b815260206004820152602f60248201527f416363657373436f6e74726f6c3a2063616e206f6e6c792072656e6f756e636560448201526e103937b632b9903337b91039b2b63360891b60648201526084016107d3565b6109788282611426565b5050565b306001600160a01b037f00000000000000000000000000000000000000000000000000000000000000001614156109c55760405162461bcd60e51b81526004016107d390612714565b7f00000000000000000000000000000000000000000000000000000000000000006001600160a01b03166109f761148d565b6001600160a01b031614610a1d5760405162461bcd60e51b81526004016107d390612760565b610a26816114bb565b60408051600080825260208201909252610a429183919061153d565b50565b3360008181526066602090815260408083206001600160a01b0387168452909152812054909161073c918590610a7c9086906127f7565b610f42565b7ff9424f4303d7f03683a025eb8885734ad99b47df7749d9b0a02cbc985809700b610aac813361133c565b6108f98383611688565b60008051602061295d833981519152610acf813361133c565b5061012d80546001600160a01b0319166001600160a01b0392909216919091179055565b604080516001600160a01b0384166020808301919091527ffbf1c7065455eb4486649b8540f24ef2dd4ebedf2aa423f0039d17c2c75dea15828401528251808303840181526060909201909252805191012060009081610b548260016127f7565b9050600080610b64868585611773565b9150915081610b8b576001600160a01b038716600090815260656020526040902054610b8d565b805b979650505050505050565b306001600160a01b037f0000000000000000000000000000000000000000000000000000000000000000161415610be15760405162461bcd60e51b81526004016107d390612714565b7f00000000000000000000000000000000000000000000000000000000000000006001600160a01b0316610c1361148d565b6001600160a01b031614610c395760405162461bcd60e51b81526004016107d390612760565b610c42826114bb565b6109788282600161153d565b6000610c5a813361133c565b6001600160a01b038216610c6d57600080fd5b8260008051602061297d83398151915255817fe38b16c806f019542b2d4bf356bb4ba2ea4b7eb450b8fbff2584f6084c4978f180546001600160a01b0319166001600160a01b0392909216919091179055505050565b6000610cdb6000805160206129c48339815191525490565b905090565b7ff9424f4303d7f03683a025eb8885734ad99b47df7749d9b0a02cbc985809700b610d0b813361133c565b838214610d525760405162461bcd60e51b8152602060048201526015602482015274082e4e4c2f240d8cadccee8d040dad2e6dac2e8c6d605b1b60448201526064016107d3565b60005b84811015610db757610da5868683818110610d7257610d72612910565b9050602002016020810190610d8791906123c9565b858584818110610d9957610d99612910565b90506020020135611688565b80610daf816128df565b915050610d55565b505050505050565b600091825260fb602090815260408084206001600160a01b0393909316845291905290205460ff1690565b6060606980546106ac906128aa565b610a4261185e565b6000806000610e51847f286a9db37a0f8ddcbcee127c9f4f56031230f49cb46786f87e166d552e11f67e7ffcaa8bb100d3c5b627eac0369cc1d2778dbeffa2993d08f039fb27795729e9a5611773565b9150915081610e6257606754610e64565b805b949350505050565b3360009081526066602090815260408083206001600160a01b038616845290915281205482811015610eee5760405162461bcd60e51b815260206004820152602560248201527f45524332303a2064656372656173656420616c6c6f77616e63652062656c6f77604482015264207a65726f60d81b60648201526084016107d3565b610efb3385858403610f42565b5060019392505050565b600061073c338484611066565b6000610cdb61148d565b600082815260fb6020526040902060010154610f38813361133c565b6108f98383611426565b6001600160a01b038316610fa45760405162461bcd60e51b8152602060048201526024808201527f45524332303a20617070726f76652066726f6d20746865207a65726f206164646044820152637265737360e01b60648201526084016107d3565b6001600160a01b0382166110055760405162461bcd60e51b815260206004820152602260248201527f45524332303a20617070726f766520746f20746865207a65726f206164647265604482015261737360f01b60648201526084016107d3565b6001600160a01b0383811660008181526066602090815260408083209487168084529482529182902085905590518481527f8c5be1e5ebec7d5bd14f71427d1e84f3dd0314c0f7b2291e5b200ac8c7c3b925910160405180910390a3505050565b6001600160a01b0383166110ca5760405162461bcd60e51b815260206004820152602560248201527f45524332303a207472616e736665722066726f6d20746865207a65726f206164604482015264647265737360d81b60648201526084016107d3565b6001600160a01b03821661112c5760405162461bcd60e51b815260206004820152602360248201527f45524332303a207472616e7366657220746f20746865207a65726f206164647260448201526265737360e81b60648201526084016107d3565b6111378383836118ce565b6001600160a01b038316600090815260656020526040902054818110156111af5760405162461bcd60e51b815260206004820152602660248201527f45524332303a207472616e7366657220616d6f756e7420657863656564732062604482015265616c616e636560d01b60648201526084016107d3565b6001600160a01b038085166000908152606560205260408082208585039055918516815290812080548492906111e69084906127f7565b92505081905550826001600160a01b0316846001600160a01b03167fddf252ad1be2c89b69c2b068fc378daa952ba7f163c4a11628f55a4df523b3ef8460405161123291815260200190565b60405180910390a35b50505050565b600054610100900460ff166112685760405162461bcd60e51b81526004016107d3906127ac565b6112706118e4565b61127a848461193b565b61123b8282611989565b600054610100900460ff166112ab5760405162461bcd60e51b81526004016107d3906127ac565b6001600160a01b0381166112be57600080fd5b8160008051602061297d83398151915255807fe38b16c806f019542b2d4bf356bb4ba2ea4b7eb450b8fbff2584f6084c4978f180546001600160a01b0319166001600160a01b03929092169190911790555050565b600054610100900460ff1661133a5760405162461bcd60e51b81526004016107d3906127ac565b565b6113468282610dbf565b6109785761135e816001600160a01b031660146119ca565b6113698360206119ca565b60405160200161137a92919061266c565b60408051601f198184030181529082905262461bcd60e51b82526107d3916004016126e1565b6113aa8282610dbf565b61097857600082815260fb602090815260408083206001600160a01b03851684529091529020805460ff191660011790556113e23390565b6001600160a01b0316816001600160a01b0316837f2f8788117e7eff1d82e926ec794901d17c78024a50270940304540a733656f0d60405160405180910390a45050565b6114308282610dbf565b1561097857600082815260fb602090815260408083206001600160a01b0385168085529252808320805460ff1916905551339285917ff6391f5c32d9c69d2a47ea670b442974b53935d1edc7fd64eb21e047a839171b9190a45050565b7f360894a13ba1a3210667c828492db98dca3e2076cc3735a920a3ca505d382bbc546001600160a01b031690565b6114d360008051602061295d83398151915233610dbf565b806114f157506114f160008051602061293d83398151915233610dbf565b610a425760405162461bcd60e51b815260206004820152601d60248201527f4552524f523a2041646472657373206e6f7420617574686f72697a656400000060448201526064016107d3565b600061154761148d565b905061155284611b66565b60008351118061155f5750815b156115705761156e8484611c0b565b505b7f4910fdfa16fed3260ed0e7147f7cc6da11a60208b5b9406d12a635614ffd9143805460ff1661168157805460ff191660011781556040516001600160a01b03831660248201526115ef90869060440160408051601f198184030181529190526020810180516001600160e01b0316631b2ce7f360e11b179052611c0b565b50805460ff1916815561160061148d565b6001600160a01b0316826001600160a01b0316146116785760405162461bcd60e51b815260206004820152602f60248201527f45524331393637557067726164653a207570677261646520627265616b73206660448201526e75727468657220757067726164657360881b60648201526084016107d3565b61168185611cf6565b5050505050565b6001600160a01b0382166116de5760405162461bcd60e51b815260206004820152601f60248201527f45524332303a206d696e7420746f20746865207a65726f20616464726573730060448201526064016107d3565b6116ea600083836118ce565b80606760008282546116fc91906127f7565b90915550506001600160a01b038216600090815260656020526040812080548392906117299084906127f7565b90915550506040518181526001600160a01b038316906000907fddf252ad1be2c89b69c2b068fc378daa952ba7f163c4a11628f55a4df523b3ef9060200160405180910390a35050565b600080600085116117bf5760405162461bcd60e51b815260206004820152601660248201527504552433230536e617073686f743a20696420697320360541b60448201526064016107d3565b6000805160206129c48339815191525485111561181e5760405162461bcd60e51b815260206004820152601d60248201527f4552433230536e617073686f743a206e6f6e6578697374656e7420696400000060448201526064016107d3565b600061182a8587611d36565b90508454811415611842576000809250925050611856565b600161184e8583611dd5565b549093509150505b935093915050565b600060016000805160206129c483398151915280546000906118819084906127f7565b90915550506000805160206129c4833981519152546040518181527f8030e83b04d87bef53480e26263266d6ca66863aa8506aca6f2559d18aa1cb679060200160405180910390a1919050565b6118d9838383611e54565b6108f9838383611e6a565b600054610100900460ff1661190b5760405162461bcd60e51b81526004016107d3906127ac565b611913611313565b61191b611313565b611923611313565b61192b611313565b611933611313565b61133a611eb2565b600054610100900460ff166119625760405162461bcd60e51b81526004016107d3906127ac565b8151611975906068906020850190612232565b5080516108f9906069906020840190612232565b600054610100900460ff166119b05760405162461bcd60e51b81526004016107d3906127ac565b610160805460ff191660ff84161790556109783382611688565b606060006119d9836002612831565b6119e49060026127f7565b67ffffffffffffffff8111156119fc576119fc612926565b6040519080825280601f01601f191660200182016040528015611a26576020820181803683370190505b509050600360fc1b81600081518110611a4157611a41612910565b60200101906001600160f81b031916908160001a905350600f60fb1b81600181518110611a7057611a70612910565b60200101906001600160f81b031916908160001a9053506000611a94846002612831565b611a9f9060016127f7565b90505b6001811115611b17576f181899199a1a9b1b9c1cb0b131b232b360811b85600f1660108110611ad357611ad3612910565b1a60f81b828281518110611ae957611ae9612910565b60200101906001600160f81b031916908160001a90535060049490941c93611b1081612893565b9050611aa2565b5083156107ef5760405162461bcd60e51b815260206004820181905260248201527f537472696e67733a20686578206c656e67746820696e73756666696369656e7460448201526064016107d3565b803b611bca5760405162461bcd60e51b815260206004820152602d60248201527f455243313936373a206e657720696d706c656d656e746174696f6e206973206e60448201526c1bdd08184818dbdb9d1c9858dd609a1b60648201526084016107d3565b7f360894a13ba1a3210667c828492db98dca3e2076cc3735a920a3ca505d382bbc80546001600160a01b0319166001600160a01b0392909216919091179055565b6060823b611c6a5760405162461bcd60e51b815260206004820152602660248201527f416464726573733a2064656c65676174652063616c6c20746f206e6f6e2d636f6044820152651b9d1c9858dd60d21b60648201526084016107d3565b600080846001600160a01b031684604051611c859190612650565b600060405180830381855af49150503d8060008114611cc0576040519150601f19603f3d011682016040523d82523d6000602084013e611cc5565b606091505b5091509150611ced828260405180606001604052806027815260200161299d60279139611f3a565b95945050505050565b611cff81611b66565b6040516001600160a01b038216907fbc7cd75a20ee27fd9adebab32041f755214dbc6bffa90cc0225b39da2e5c2d3b90600090a250565b8154600090819080611d4d57600092505050610697565b80821015611d91576000611d618383611f73565b905084611d6e8783611dd5565b541115611d7d57809150611d8b565b611d888160016127f7565b92505b50611d4d565b600082118015611db4575083611db186611dac600186612850565b611dd5565b54145b15611dcd57611dc4600183612850565b92505050610697565b509050610697565b600082548210611e1d5760405162461bcd60e51b815260206004820152601360248201527211549493d48e8813dd5d081bd988189bdd5b99606a1b60448201526064016107d3565b8183604051602001611e3191815260200190565b6040516020818303038152906040528051906020012060001c6107ef91906127f7565b611e5f8383836118d9565b6108f9838383611f8e565b6001600160a01b038316611e8957611e818261206f565b6108f96120f9565b6001600160a01b038216611ea057611e818361206f565b611ea98361206f565b6108f98261206f565b600054610100900460ff16611ed95760405162461bcd60e51b81526004016107d3906127ac565b611ee4600033612147565b611efc60008051602061295d83398151915233612147565b611f1460008051602061293d83398151915233612147565b61133a60008051602061293d83398151915260008051602061295d833981519152612151565b60608315611f495750816107ef565b825115611f595782518084602001fd5b8160405162461bcd60e51b81526004016107d391906126e1565b6000611f82600284841861280f565b6107ef908484166127f7565b60008051602061297d833981519152547fe38b16c806f019542b2d4bf356bb4ba2ea4b7eb450b8fbff2584f6084c4978f1546001600160a01b0316811580611fe75750836001600160a01b0316816001600160a01b0316145b806120035750846001600160a01b0316816001600160a01b0316145b8061201557506001600160a01b038516155b8061202757506001600160a01b038416155b15612033575050505050565b6000670de0b6b3a764000060008051602061297d833981519152546120589086612831565b612062919061280f565b9050610db7868383611066565b604080516001600160a01b0383166020808301919091527ffbf1c7065455eb4486649b8540f24ef2dd4ebedf2aa423f0039d17c2c75dea15828401528251808303840181526060909201909252805191012060006120ce8260016127f7565b90506108f982826120f4866001600160a01b031660009081526065602052604090205490565b61219c565b61133a7f286a9db37a0f8ddcbcee127c9f4f56031230f49cb46786f87e166d552e11f67e7ffcaa8bb100d3c5b627eac0369cc1d2778dbeffa2993d08f039fb27795729e9a56120f460675490565b61097882826113a0565b600082815260fb6020526040808220600101805490849055905190918391839186917fbd79b86ffe0ab8e8776151514217cd7cacd52c909f66475c3af44e129f0b00ff9190a4505050565b60006121b46000805160206129c48339815191525490565b9050806121c0856121da565b101561123b576121d0848261220a565b61123b838361220a565b8054600090806121ed5750600092915050565b6121fc83611dac600184612850565b549392505050565b50919050565b8154600183600061221b83856127f7565b9091555082905061222c8483611dd5565b55505050565b82805461223e906128aa565b90600052602060002090601f01602090048101928261226057600085556122a6565b82601f1061227957805160ff19168380011785556122a6565b828001600101855582156122a6579182015b828111156122a657825182559160200191906001019061228b565b506122b29291506122b6565b5090565b5b808211156122b257600081556001016122b7565b600067ffffffffffffffff808411156122e6576122e6612926565b604051601f8501601f19908116603f0116810190828211818310171561230e5761230e612926565b8160405280935085815286868601111561232757600080fd5b858560208301376000602087830101525050509392505050565b80356001600160a01b038116811461235857600080fd5b919050565b60008083601f84011261236f57600080fd5b50813567ffffffffffffffff81111561238757600080fd5b6020830191508360208260051b85010111156123a257600080fd5b9250929050565b600082601f8301126123ba57600080fd5b6107ef838335602085016122cb565b6000602082840312156123db57600080fd5b6107ef82612341565b600080604083850312156123f757600080fd5b61240083612341565b915061240e60208401612341565b90509250929050565b60008060006060848603121561242c57600080fd5b61243584612341565b925061244360208501612341565b9150604084013590509250925092565b6000806040838503121561246657600080fd5b61246f83612341565b9150602083013567ffffffffffffffff81111561248b57600080fd5b8301601f8101851361249c57600080fd5b6124ab858235602084016122cb565b9150509250929050565b600080604083850312156124c857600080fd5b6124d183612341565b946020939093013593505050565b600080600080604085870312156124f557600080fd5b843567ffffffffffffffff8082111561250d57600080fd5b6125198883890161235d565b9096509450602087013591508082111561253257600080fd5b5061253f8782880161235d565b95989497509550505050565b60006020828403121561255d57600080fd5b5035919050565b6000806040838503121561257757600080fd5b8235915061240e60208401612341565b60006020828403121561259957600080fd5b81356001600160e01b0319811681146107ef57600080fd5b60008060008060008060c087890312156125ca57600080fd5b863567ffffffffffffffff808211156125e257600080fd5b6125ee8a838b016123a9565b9750602089013591508082111561260457600080fd5b5061261189828a016123a9565b955050604087013560ff8116811461262857600080fd5b9350606087013592506080870135915061264460a08801612341565b90509295509295509295565b60008251612662818460208701612867565b9190910192915050565b7f416363657373436f6e74726f6c3a206163636f756e74200000000000000000008152600083516126a4816017850160208801612867565b7001034b99036b4b9b9b4b733903937b6329607d1b60179184019182015283516126d5816028840160208801612867565b01602801949350505050565b6020815260008251806020840152612700816040850160208701612867565b601f01601f19169190910160400192915050565b6020808252602c908201527f46756e6374696f6e206d7573742062652063616c6c6564207468726f7567682060408201526b19195b1959d85d1958d85b1b60a21b606082015260800190565b6020808252602c908201527f46756e6374696f6e206d7573742062652063616c6c6564207468726f7567682060408201526b6163746976652070726f787960a01b606082015260800190565b6020808252602b908201527f496e697469616c697a61626c653a20636f6e7472616374206973206e6f74206960408201526a6e697469616c697a696e6760a81b606082015260800190565b6000821982111561280a5761280a6128fa565b500190565b60008261282c57634e487b7160e01b600052601260045260246000fd5b500490565b600081600019048311821515161561284b5761284b6128fa565b500290565b600082821015612862576128626128fa565b500390565b60005b8381101561288257818101518382015260200161286a565b8381111561123b5750506000910152565b6000816128a2576128a26128fa565b506000190190565b600181811c908216806128be57607f821691505b6020821081141561220457634e487b7160e01b600052602260045260246000fd5b60006000198214156128f3576128f36128fa565b5060010190565b634e487b7160e01b600052601160045260246000fd5b634e487b7160e01b600052603260045260246000fd5b634e487b7160e01b600052604160045260246000fdfea76ace73a908083d89af9ff88e5b4f7cadb3591a80631063f68b695fda726db571840dc4906352362b0cdaf79870196c8e42acafade72d5d5a6d59291253ceb1253122b26cc2118faf5fcfc7761bd75fcfb5508f1f48d1a40db694aba32af5d0416464726573733a206c6f772d6c6576656c2064656c65676174652063616c6c206661696c65640d0a0ed3351c10a57d74a44b40c06e0946288e4e3816ac07bb89db2a755562e7a2646970667358221220f14a171a96447ccc06d61d384e3daa42cd31d90271d876f046ac460f1852896d64736f6c63430008060033",
  "linkReferences": {},
  "deployedLinkReferences": {}
}