{
  "_format": "hh-sol-artifact-1",
  "name": "MintWhiteListTemplate",
  "initializer": "function initialize(string name_, string symbol_, uint8 decimals_, uint256 amount_)",
  "sourceName": "contracts/templates/MintWhiteListTemplate.sol",
  "abi": [
    {
      "anonymous": false,
      "inputs": [
        {
          "indexed": false,
          "internalType": "address",
          "name": "previousAdmin",
          "type": "address"
        },
        {
          "indexed": false,
          "internalType": "address",
          "name": "newAdmin",
          "type": "address"
        }
      ],
      "name": "AdminChanged",
      "type": "event"
    },
    {
      "anonymous": false,
      "inputs": [
        {
          "indexed": true,
          "internalType": "address",
          "name": "owner",
          "type": "address"
        },
        {
          "indexed": true,
          "internalType": "address",
          "name": "spender",
          "type": "address"
        },
        {
          "indexed": false,
          "internalType": "uint256",
          "name": "value",
          "type": "uint256"
        }
      ],
      "name": "Approval",
      "type": "event"
    },
    {
      "anonymous": false,
      "inputs": [
        {
          "indexed": true,
          "internalType": "address",
          "name": "beacon",
          "type": "address"
        }
      ],
      "name": "BeaconUpgraded",
      "type": "event"
    },
    {
      "anonymous": false,
      "inputs": [
        {
          "indexed": false,
          "internalType": "address",
          "name": "account",
          "type": "address"
        }
      ],
      "name": "Paused",
      "type": "event"
    },
    {
      "anonymous": false,
      "inputs": [
        {
          "indexed": true,
          "internalType": "bytes32",
          "name": "role",
          "type": "bytes32"
        },
        {
          "indexed": true,
          "internalType": "bytes32",
          "name": "previousAdminRole",
          "type": "bytes32"
        },
        {
          "indexed": true,
          "internalType": "bytes32",
          "name": "newAdminRole",
          "type": "bytes32"
        }
      ],
      "name": "RoleAdminChanged",
      "type": "event"
    },
    {
      "anonymous": false,
      "inputs": [
        {
          "indexed": true,
          "internalType": "bytes32",
          "name": "role",
          "type": "bytes32"
        },
        {
          "indexed": true,
          "internalType": "address",
          "name": "account",
          "type": "address"
        },
        {
          "indexed": true,
          "internalType": "address",
          "name": "sender",
          "type": "address"
        }
      ],
      "name": "RoleGranted",
      "type": "event"
    },
    {
      "anonymous": false,
      "inputs": [
        {
          "indexed": true,
          "internalType": "bytes32",
          "name": "role",
          "type": "bytes32"
        },
        {
          "indexed": true,
          "internalType": "address",
          "name": "account",
          "type": "address"
        },
        {
          "indexed": true,
          "internalType": "address",
          "name": "sender",
          "type": "address"
        }
      ],
      "name": "RoleRevoked",
      "type": "event"
    },
    {
      "anonymous": false,
      "inputs": [
        {
          "indexed": true,
          "internalType": "address",
          "name": "from",
          "type": "address"
        },
        {
          "indexed": true,
          "internalType": "address",
          "name": "to",
          "type": "address"
        },
        {
          "indexed": false,
          "internalType": "uint256",
          "name": "value",
          "type": "uint256"
        }
      ],
      "name": "Transfer",
      "type": "event"
    },
    {
      "anonymous": false,
      "inputs": [
        {
          "indexed": false,
          "internalType": "address",
          "name": "account",
          "type": "address"
        }
      ],
      "name": "Unpaused",
      "type": "event"
    },
    {
      "anonymous": false,
      "inputs": [
        {
          "indexed": true,
          "internalType": "address",
          "name": "implementation",
          "type": "address"
        }
      ],
      "name": "Upgraded",
      "type": "event"
    },
    {
      "inputs": [],
      "name": "DEFAULT_ADMIN_ROLE",
      "outputs": [
        {
          "internalType": "bytes32",
          "name": "",
          "type": "bytes32"
        }
      ],
      "stateMutability": "view",
      "type": "function"
    },
    {
      "inputs": [],
      "name": "GOVERNANCE_ROLE",
      "outputs": [
        {
          "internalType": "bytes32",
          "name": "",
          "type": "bytes32"
        }
      ],
      "stateMutability": "view",
      "type": "function"
    },
    {
      "inputs": [],
      "name": "MINTER_ROLE",
      "outputs": [
        {
          "internalType": "bytes32",
          "name": "",
          "type": "bytes32"
        }
      ],
      "stateMutability": "view",
      "type": "function"
    },
    {
      "inputs": [],
      "name": "PAUSE_MANAGER_ROLE",
      "outputs": [
        {
          "internalType": "bytes32",
          "name": "",
          "type": "bytes32"
        }
      ],
      "stateMutability": "view",
      "type": "function"
    },
    {
      "inputs": [],
      "name": "UPGRADE_MANAGER_ROLE",
      "outputs": [
        {
          "internalType": "bytes32",
          "name": "",
          "type": "bytes32"
        }
      ],
      "stateMutability": "view",
      "type": "function"
    },
    {
      "inputs": [],
      "name": "WHITELISTED_FROM_ROLE",
      "outputs": [
        {
          "internalType": "bytes32",
          "name": "",
          "type": "bytes32"
        }
      ],
      "stateMutability": "view",
      "type": "function"
    },
    {
      "inputs": [],
      "name": "WHITELISTED_SENDER_ROLE",
      "outputs": [
        {
          "internalType": "bytes32",
          "name": "",
          "type": "bytes32"
        }
      ],
      "stateMutability": "view",
      "type": "function"
    },
    {
      "inputs": [
        {
          "internalType": "address[]",
          "name": "addresses",
          "type": "address[]"
        }
      ],
      "name": "addAddressesToWhitelistFrom",
      "outputs": [],
      "stateMutability": "nonpayable",
      "type": "function"
    },
    {
      "inputs": [
        {
          "internalType": "address[]",
          "name": "addresses",
          "type": "address[]"
        }
      ],
      "name": "addAddressesToWhitelistSender",
      "outputs": [],
      "stateMutability": "nonpayable",
      "type": "function"
    },
    {
      "inputs": [
        {
          "internalType": "address",
          "name": "owner",
          "type": "address"
        },
        {
          "internalType": "address",
          "name": "spender",
          "type": "address"
        }
      ],
      "name": "allowance",
      "outputs": [
        {
          "internalType": "uint256",
          "name": "",
          "type": "uint256"
        }
      ],
      "stateMutability": "view",
      "type": "function"
    },
    {
      "inputs": [
        {
          "internalType": "address",
          "name": "spender",
          "type": "address"
        },
        {
          "internalType": "uint256",
          "name": "amount",
          "type": "uint256"
        }
      ],
      "name": "approve",
      "outputs": [
        {
          "internalType": "bool",
          "name": "",
          "type": "bool"
        }
      ],
      "stateMutability": "nonpayable",
      "type": "function"
    },
    {
      "inputs": [
        {
          "internalType": "address",
          "name": "account",
          "type": "address"
        }
      ],
      "name": "balanceOf",
      "outputs": [
        {
          "internalType": "uint256",
          "name": "",
          "type": "uint256"
        }
      ],
      "stateMutability": "view",
      "type": "function"
    },
    {
      "inputs": [
        {
          "internalType": "address[]",
          "name": "accounts",
          "type": "address[]"
        },
        {
          "internalType": "uint256[]",
          "name": "amounts",
          "type": "uint256[]"
        }
      ],
      "name": "bulkMint",
      "outputs": [],
      "stateMutability": "nonpayable",
      "type": "function"
    },
    {
      "inputs": [],
      "name": "decimals",
      "outputs": [
        {
          "internalType": "uint8",
          "name": "",
          "type": "uint8"
        }
      ],
      "stateMutability": "view",
      "type": "function"
    },
    {
      "inputs": [
        {
          "internalType": "address",
          "name": "spender",
          "type": "address"
        },
        {
          "internalType": "uint256",
          "name": "subtractedValue",
          "type": "uint256"
        }
      ],
      "name": "decreaseAllowance",
      "outputs": [
        {
          "internalType": "bool",
          "name": "",
          "type": "bool"
        }
      ],
      "stateMutability": "nonpayable",
      "type": "function"
    },
    {
      "inputs": [],
      "name": "getImplementation",
      "outputs": [
        {
          "internalType": "address",
          "name": "",
          "type": "address"
        }
      ],
      "stateMutability": "view",
      "type": "function"
    },
    {
      "inputs": [
        {
          "internalType": "bytes32",
          "name": "role",
          "type": "bytes32"
        }
      ],
      "name": "getRoleAdmin",
      "outputs": [
        {
          "internalType": "bytes32",
          "name": "",
          "type": "bytes32"
        }
      ],
      "stateMutability": "view",
      "type": "function"
    },
    {
      "inputs": [
        {
          "internalType": "bytes32",
          "name": "role",
          "type": "bytes32"
        },
        {
          "internalType": "address",
          "name": "account",
          "type": "address"
        }
      ],
      "name": "grantRole",
      "outputs": [],
      "stateMutability": "nonpayable",
      "type": "function"
    },
    {
      "inputs": [
        {
          "internalType": "bytes32",
          "name": "role",
          "type": "bytes32"
        },
        {
          "internalType": "address",
          "name": "account",
          "type": "address"
        }
      ],
      "name": "hasRole",
      "outputs": [
        {
          "internalType": "bool",
          "name": "",
          "type": "bool"
        }
      ],
      "stateMutability": "view",
      "type": "function"
    },
    {
      "inputs": [
        {
          "internalType": "address",
          "name": "spender",
          "type": "address"
        },
        {
          "internalType": "uint256",
          "name": "addedValue",
          "type": "uint256"
        }
      ],
      "name": "increaseAllowance",
      "outputs": [
        {
          "internalType": "bool",
          "name": "",
          "type": "bool"
        }
      ],
      "stateMutability": "nonpayable",
      "type": "function"
    },
    {
      "inputs": [
        {
          "internalType": "string",
          "name": "name_",
          "type": "string"
        },
        {
          "internalType": "string",
          "name": "symbol_",
          "type": "string"
        },
        {
          "internalType": "uint8",
          "name": "decimals_",
          "type": "uint8"
        },
        {
          "internalType": "uint256",
          "name": "amount_",
          "type": "uint256"
        }
      ],
      "name": "initialize",
      "outputs": [],
      "stateMutability": "nonpayable",
      "type": "function"
    },
    {
      "inputs": [
        {
          "internalType": "address",
          "name": "account",
          "type": "address"
        },
        {
          "internalType": "uint256",
          "name": "amount",
          "type": "uint256"
        }
      ],
      "name": "mint",
      "outputs": [],
      "stateMutability": "nonpayable",
      "type": "function"
    },
    {
      "inputs": [],
      "name": "name",
      "outputs": [
        {
          "internalType": "string",
          "name": "",
          "type": "string"
        }
      ],
      "stateMutability": "view",
      "type": "function"
    },
    {
      "inputs": [],
      "name": "pause",
      "outputs": [],
      "stateMutability": "nonpayable",
      "type": "function"
    },
    {
      "inputs": [],
      "name": "paused",
      "outputs": [
        {
          "internalType": "bool",
          "name": "",
          "type": "bool"
        }
      ],
      "stateMutability": "view",
      "type": "function"
    },
    {
      "inputs": [
        {
          "internalType": "address",
          "name": "implementationAddress",
          "type": "address"
        }
      ],
      "name": "proposeNewImplementation",
      "outputs": [],
      "stateMutability": "nonpayable",
      "type": "function"
    },
    {
      "inputs": [
        {
          "internalType": "address[]",
          "name": "addresses",
          "type": "address[]"
        }
      ],
      "name": "removeAddressesFromWhitelistFrom",
      "outputs": [],
      "stateMutability": "nonpayable",
      "type": "function"
    },
    {
      "inputs": [
        {
          "internalType": "address[]",
          "name": "addresses",
          "type": "address[]"
        }
      ],
      "name": "removeAddressesFromWhitelistSender",
      "outputs": [],
      "stateMutability": "nonpayable",
      "type": "function"
    },
    {
      "inputs": [
        {
          "internalType": "bytes32",
          "name": "role",
          "type": "bytes32"
        },
        {
          "internalType": "address",
          "name": "account",
          "type": "address"
        }
      ],
      "name": "renounceRole",
      "outputs": [],
      "stateMutability": "nonpayable",
      "type": "function"
    },
    {
      "inputs": [
        {
          "internalType": "bytes32",
          "name": "role",
          "type": "bytes32"
        },
        {
          "internalType": "address",
          "name": "account",
          "type": "address"
        }
      ],
      "name": "revokeRole",
      "outputs": [],
      "stateMutability": "nonpayable",
      "type": "function"
    },
    {
      "inputs": [
        {
          "internalType": "bytes4",
          "name": "interfaceId",
          "type": "bytes4"
        }
      ],
      "name": "supportsInterface",
      "outputs": [
        {
          "internalType": "bool",
          "name": "",
          "type": "bool"
        }
      ],
      "stateMutability": "view",
      "type": "function"
    },
    {
      "inputs": [],
      "name": "symbol",
      "outputs": [
        {
          "internalType": "string",
          "name": "",
          "type": "string"
        }
      ],
      "stateMutability": "view",
      "type": "function"
    },
    {
      "inputs": [],
      "name": "totalSupply",
      "outputs": [
        {
          "internalType": "uint256",
          "name": "",
          "type": "uint256"
        }
      ],
      "stateMutability": "view",
      "type": "function"
    },
    {
      "inputs": [
        {
          "internalType": "address",
          "name": "recipient",
          "type": "address"
        },
        {
          "internalType": "uint256",
          "name": "amount",
          "type": "uint256"
        }
      ],
      "name": "transfer",
      "outputs": [
        {
          "internalType": "bool",
          "name": "",
          "type": "bool"
        }
      ],
      "stateMutability": "nonpayable",
      "type": "function"
    },
    {
      "inputs": [
        {
          "internalType": "address",
          "name": "sender",
          "type": "address"
        },
        {
          "internalType": "address",
          "name": "recipient",
          "type": "address"
        },
        {
          "internalType": "uint256",
          "name": "amount",
          "type": "uint256"
        }
      ],
      "name": "transferFrom",
      "outputs": [
        {
          "internalType": "bool",
          "name": "",
          "type": "bool"
        }
      ],
      "stateMutability": "nonpayable",
      "type": "function"
    },
    {
      "inputs": [],
      "name": "unpause",
      "outputs": [],
      "stateMutability": "nonpayable",
      "type": "function"
    },
    {
      "inputs": [
        {
          "internalType": "address",
          "name": "newImplementation",
          "type": "address"
        }
      ],
      "name": "upgradeTo",
      "outputs": [],
      "stateMutability": "nonpayable",
      "type": "function"
    },
    {
      "inputs": [
        {
          "internalType": "address",
          "name": "newImplementation",
          "type": "address"
        },
        {
          "internalType": "bytes",
          "name": "data",
          "type": "bytes"
        }
      ],
      "name": "upgradeToAndCall",
      "outputs": [],
      "stateMutability": "payable",
      "type": "function"
    }
  ],
  "bytecode": "0x60a06040523060601b60805234801561001757600080fd5b5060805160601c6127f661004b60003960008181610a6501528181610aa501528181610bfd0152610c3d01526127f66000f3fe6080604052600436106102255760003560e01c80636ae459bd11610123578063a9059cbb116100ab578063d547741f1161006f578063d547741f1461067e578063d84f91e81461069e578063dd62ed3e146106c0578063f36c8f5c14610706578063f834c5021461072857600080fd5b8063a9059cbb146105bb578063aa74a34a146105db578063aaf10f42146105fd578063c233f3b71461062a578063d53913931461064a57600080fd5b80638456cb59116100f25780638456cb591461053c57806391d148541461055157806395d89b4114610571578063a217fddf14610586578063a457c2d71461059b57600080fd5b80636ae459bd146104a45780636e79a1c0146104c457806370a08231146104e4578063731ce8fc1461051a57600080fd5b806336568abe116101b157806343ffa64e1161017557806343ffa64e1461040a57806347757fb61461042c5780634f1ef2861461044c5780635c975abb1461045f578063685ed81a1461048457600080fd5b806336568abe146103755780633659cfe61461039557806339509351146103b55780633f4ba83a146103d557806340c10f19146103ea57600080fd5b806323b872dd116101f857806323b872dd146102c0578063248a9ca3146102e0578063253279ad146103105780632f2ff15d14610332578063313ce5671461035257600080fd5b806301ffc9a71461022a57806306fdde031461025f578063095ea7b31461028157806318160ddd146102a1575b600080fd5b34801561023657600080fd5b5061024a610245366004612372565b610748565b60405190151581526020015b60405180910390f35b34801561026b57600080fd5b5061027461077f565b60405161025691906124b1565b34801561028d57600080fd5b5061024a61029c36600461225e565b610811565b3480156102ad57600080fd5b506067545b604051908152602001610256565b3480156102cc57600080fd5b5061024a6102db3660046121c0565b610827565b3480156102ec57600080fd5b506102b26102fb366004612336565b600090815260fb602052604090206001015490565b34801561031c57600080fd5b5061033061032b36600461239c565b6108d8565b005b34801561033e57600080fd5b5061033061034d36600461234f565b6109b1565b34801561035e57600080fd5b506101605460405160ff9091168152602001610256565b34801561038157600080fd5b5061033061039036600461234f565b6109dc565b3480156103a157600080fd5b506103306103b0366004612172565b610a5a565b3480156103c157600080fd5b5061024a6103d036600461225e565b610b23565b3480156103e157600080fd5b50610330610b5f565b3480156103f657600080fd5b5061033061040536600461225e565b610b80565b34801561041657600080fd5b506102b26000805160206126fa83398151915281565b34801561043857600080fd5b50610330610447366004612172565b610bb5565b61033061045a3660046121fc565b610bf2565b34801561046b57600080fd5b506000805160206127818339815191525460ff1661024a565b34801561049057600080fd5b5061033061049f366004612288565b610ca8565b3480156104b057600080fd5b506103306104bf3660046122ca565b610d1d565b3480156104d057600080fd5b506103306104df366004612288565b610dfc565b3480156104f057600080fd5b506102b26104ff366004612172565b6001600160a01b031660009081526065602052604090205490565b34801561052657600080fd5b506102b26000805160206127a183398151915281565b34801561054857600080fd5b50610330610e6b565b34801561055d57600080fd5b5061024a61056c36600461234f565b610e8c565b34801561057d57600080fd5b50610274610eb7565b34801561059257600080fd5b506102b2600081565b3480156105a757600080fd5b5061024a6105b636600461225e565b610ec6565b3480156105c757600080fd5b5061024a6105d636600461225e565b610f5f565b3480156105e757600080fd5b506102b26000805160206126da83398151915281565b34801561060957600080fd5b50610612610f6c565b6040516001600160a01b039091168152602001610256565b34801561063657600080fd5b50610330610645366004612288565b610f7b565b34801561065657600080fd5b506102b27ff9424f4303d7f03683a025eb8885734ad99b47df7749d9b0a02cbc985809700b81565b34801561068a57600080fd5b5061033061069936600461234f565b610fd5565b3480156106aa57600080fd5b506102b260008051602061276183398151915281565b3480156106cc57600080fd5b506102b26106db36600461218d565b6001600160a01b03918216600090815260666020908152604080832093909416825291909152205490565b34801561071257600080fd5b506102b260008051602061271a83398151915281565b34801561073457600080fd5b50610330610743366004612288565b610ffb565b60006001600160e01b03198216637965db0b60e01b148061077957506301ffc9a760e01b6001600160e01b03198316145b92915050565b60606068805461078e90612641565b80601f01602080910402602001604051908101604052809291908181526020018280546107ba90612641565b80156108075780601f106107dc57610100808354040283529160200191610807565b820191906000526020600020905b8154815290600101906020018083116107ea57829003601f168201915b5050505050905090565b600061081e338484611055565b50600192915050565b6000610834848484611179565b6001600160a01b0384166000908152606660209081526040808320338452909152902054828110156108be5760405162461bcd60e51b815260206004820152602860248201527f45524332303a207472616e7366657220616d6f756e74206578636565647320616044820152676c6c6f77616e636560c01b60648201526084015b60405180910390fd5b6108cb8533858403611055565b60019150505b9392505050565b600054610100900460ff166108f35760005460ff16156108f7565b303b155b61095a5760405162461bcd60e51b815260206004820152602e60248201527f496e697469616c697a61626c653a20636f6e747261637420697320616c72656160448201526d191e481a5b9a5d1a585b1a5e995960921b60648201526084016108b5565b600054610100900460ff1615801561097c576000805461ffff19166101011790555b61098885858585611352565b610990611395565b6109986113be565b80156109aa576000805461ff00191690555b5050505050565b600082815260fb60205260409020600101546109cd8133611431565b6109d78383611495565b505050565b6001600160a01b0381163314610a4c5760405162461bcd60e51b815260206004820152602f60248201527f416363657373436f6e74726f6c3a2063616e206f6e6c792072656e6f756e636560448201526e103937b632b9903337b91039b2b63360891b60648201526084016108b5565b610a56828261151b565b5050565b306001600160a01b037f0000000000000000000000000000000000000000000000000000000000000000161415610aa35760405162461bcd60e51b81526004016108b5906124e4565b7f00000000000000000000000000000000000000000000000000000000000000006001600160a01b0316610ad5611582565b6001600160a01b031614610afb5760405162461bcd60e51b81526004016108b590612530565b610b04816115b0565b60408051600080825260208201909252610b2091839190611632565b50565b3360008181526066602090815260408083206001600160a01b0387168452909152812054909161081e918590610b5a9086906125c7565b611055565b600080516020612761833981519152610b788133611431565b610b20611776565b7ff9424f4303d7f03683a025eb8885734ad99b47df7749d9b0a02cbc985809700b610bab8133611431565b6109d78383611823565b60008051602061271a833981519152610bce8133611431565b5061012d80546001600160a01b0319166001600160a01b0392909216919091179055565b306001600160a01b037f0000000000000000000000000000000000000000000000000000000000000000161415610c3b5760405162461bcd60e51b81526004016108b5906124e4565b7f00000000000000000000000000000000000000000000000000000000000000006001600160a01b0316610c6d611582565b6001600160a01b031614610c935760405162461bcd60e51b81526004016108b590612530565b610c9c826115b0565b610a5682826001611632565b600080516020612761833981519152610cc18133611431565b60005b82811015610d1757610d056000805160206126da833981519152858584818110610cf057610cf06126ad565b905060200201602081019061034d9190612172565b80610d0f8161267c565b915050610cc4565b50505050565b7ff9424f4303d7f03683a025eb8885734ad99b47df7749d9b0a02cbc985809700b610d488133611431565b838214610d8f5760405162461bcd60e51b8152602060048201526015602482015274082e4e4c2f240d8cadccee8d040dad2e6dac2e8c6d605b1b60448201526064016108b5565b60005b84811015610df457610de2868683818110610daf57610daf6126ad565b9050602002016020810190610dc49190612172565b858584818110610dd657610dd66126ad565b90506020020135611823565b80610dec8161267c565b915050610d92565b505050505050565b600080516020612761833981519152610e158133611431565b60005b82811015610d1757610e596000805160206127a1833981519152858584818110610e4457610e446126ad565b90506020020160208101906106999190612172565b80610e638161267c565b915050610e18565b600080516020612761833981519152610e848133611431565b610b2061190e565b600091825260fb602090815260408084206001600160a01b0393909316845291905290205460ff1690565b60606069805461078e90612641565b3360009081526066602090815260408083206001600160a01b038616845290915281205482811015610f485760405162461bcd60e51b815260206004820152602560248201527f45524332303a2064656372656173656420616c6c6f77616e63652062656c6f77604482015264207a65726f60d81b60648201526084016108b5565b610f553385858403611055565b5060019392505050565b600061081e338484611179565b6000610f76611582565b905090565b600080516020612761833981519152610f948133611431565b60005b82811015610d1757610fc36000805160206126da833981519152858584818110610e4457610e446126ad565b80610fcd8161267c565b915050610f97565b600082815260fb6020526040902060010154610ff18133611431565b6109d7838361151b565b6000805160206127618339815191526110148133611431565b60005b82811015610d17576110436000805160206127a1833981519152858584818110610cf057610cf06126ad565b8061104d8161267c565b915050611017565b6001600160a01b0383166110b75760405162461bcd60e51b8152602060048201526024808201527f45524332303a20617070726f76652066726f6d20746865207a65726f206164646044820152637265737360e01b60648201526084016108b5565b6001600160a01b0382166111185760405162461bcd60e51b815260206004820152602260248201527f45524332303a20617070726f766520746f20746865207a65726f206164647265604482015261737360f01b60648201526084016108b5565b6001600160a01b0383811660008181526066602090815260408083209487168084529482529182902085905590518481527f8c5be1e5ebec7d5bd14f71427d1e84f3dd0314c0f7b2291e5b200ac8c7c3b925910160405180910390a3505050565b6001600160a01b0383166111dd5760405162461bcd60e51b815260206004820152602560248201527f45524332303a207472616e736665722066726f6d20746865207a65726f206164604482015264647265737360d81b60648201526084016108b5565b6001600160a01b03821661123f5760405162461bcd60e51b815260206004820152602360248201527f45524332303a207472616e7366657220746f20746865207a65726f206164647260448201526265737360e81b60648201526084016108b5565b61124a8383836119a2565b6001600160a01b038316600090815260656020526040902054818110156112c25760405162461bcd60e51b815260206004820152602660248201527f45524332303a207472616e7366657220616d6f756e7420657863656564732062604482015265616c616e636560d01b60648201526084016108b5565b6001600160a01b038085166000908152606560205260408082208585039055918516815290812080548492906112f99084906125c7565b92505081905550826001600160a01b0316846001600160a01b03167fddf252ad1be2c89b69c2b068fc378daa952ba7f163c4a11628f55a4df523b3ef8460405161134591815260200190565b60405180910390a3610d17565b600054610100900460ff166113795760405162461bcd60e51b81526004016108b59061257c565b6113816119ad565b61138b8484611a04565b610d178282611a52565b600054610100900460ff166113bc5760405162461bcd60e51b81526004016108b59061257c565b565b600054610100900460ff166113e55760405162461bcd60e51b81526004016108b59061257c565b61140b6000805160206127a1833981519152600080516020612761833981519152611a93565b6113bc6000805160206126da833981519152600080516020612761833981519152611a93565b61143b8282610e8c565b610a5657611453816001600160a01b03166014611ade565b61145e836020611ade565b60405160200161146f92919061243c565b60408051601f198184030181529082905262461bcd60e51b82526108b5916004016124b1565b61149f8282610e8c565b610a5657600082815260fb602090815260408083206001600160a01b03851684529091529020805460ff191660011790556114d73390565b6001600160a01b0316816001600160a01b0316837f2f8788117e7eff1d82e926ec794901d17c78024a50270940304540a733656f0d60405160405180910390a45050565b6115258282610e8c565b15610a5657600082815260fb602090815260408083206001600160a01b0385168085529252808320805460ff1916905551339285917ff6391f5c32d9c69d2a47ea670b442974b53935d1edc7fd64eb21e047a839171b9190a45050565b7f360894a13ba1a3210667c828492db98dca3e2076cc3735a920a3ca505d382bbc546001600160a01b031690565b6115c860008051602061271a83398151915233610e8c565b806115e657506115e66000805160206126fa83398151915233610e8c565b610b205760405162461bcd60e51b815260206004820152601d60248201527f4552524f523a2041646472657373206e6f7420617574686f72697a656400000060448201526064016108b5565b600061163c611582565b905061164784611c7a565b6000835111806116545750815b15611665576116638484611d1f565b505b7f4910fdfa16fed3260ed0e7147f7cc6da11a60208b5b9406d12a635614ffd9143805460ff166109aa57805460ff191660011781556040516001600160a01b03831660248201526116e490869060440160408051601f198184030181529190526020810180516001600160e01b0316631b2ce7f360e11b179052611d1f565b50805460ff191681556116f5611582565b6001600160a01b0316826001600160a01b03161461176d5760405162461bcd60e51b815260206004820152602f60248201527f45524331393637557067726164653a207570677261646520627265616b73206660448201526e75727468657220757067726164657360881b60648201526084016108b5565b6109aa85611e0a565b6000805160206127818339815191525460ff166117cc5760405162461bcd60e51b815260206004820152601460248201527314185d5cd8589b194e881b9bdd081c185d5cd95960621b60448201526064016108b5565b600080516020612781833981519152805460ff191690557f5db9ee0a495bf2e6ff9c91a7834c1ba4fdd244a5e8aa4e537bd38aeae4b073aa335b6040516001600160a01b03909116815260200160405180910390a1565b6001600160a01b0382166118795760405162461bcd60e51b815260206004820152601f60248201527f45524332303a206d696e7420746f20746865207a65726f20616464726573730060448201526064016108b5565b611885600083836119a2565b806067600082825461189791906125c7565b90915550506001600160a01b038216600090815260656020526040812080548392906118c49084906125c7565b90915550506040518181526001600160a01b038316906000907fddf252ad1be2c89b69c2b068fc378daa952ba7f163c4a11628f55a4df523b3ef9060200160405180910390a35050565b6000805160206127818339815191525460ff16156119615760405162461bcd60e51b815260206004820152601060248201526f14185d5cd8589b194e881c185d5cd95960821b60448201526064016108b5565b600080516020612781833981519152805460ff191660011790557f62e78cea01bee320cd4e420270b5ea74000d11b0c9f74754ebdbfc544b05a25833611806565b6109d7838383611e4a565b600054610100900460ff166119d45760405162461bcd60e51b81526004016108b59061257c565b6119dc611395565b6119e4611395565b6119ec611395565b6119f4611395565b6119fc611395565b6113bc611e55565b600054610100900460ff16611a2b5760405162461bcd60e51b81526004016108b59061257c565b8151611a3e906068906020850190611fdb565b5080516109d7906069906020840190611fdb565b600054610100900460ff16611a795760405162461bcd60e51b81526004016108b59061257c565b610160805460ff191660ff8416179055610a563382611823565b600082815260fb6020526040808220600101805490849055905190918391839186917fbd79b86ffe0ab8e8776151514217cd7cacd52c909f66475c3af44e129f0b00ff9190a4505050565b60606000611aed8360026125df565b611af89060026125c7565b67ffffffffffffffff811115611b1057611b106126c3565b6040519080825280601f01601f191660200182016040528015611b3a576020820181803683370190505b509050600360fc1b81600081518110611b5557611b556126ad565b60200101906001600160f81b031916908160001a905350600f60fb1b81600181518110611b8457611b846126ad565b60200101906001600160f81b031916908160001a9053506000611ba88460026125df565b611bb39060016125c7565b90505b6001811115611c2b576f181899199a1a9b1b9c1cb0b131b232b360811b85600f1660108110611be757611be76126ad565b1a60f81b828281518110611bfd57611bfd6126ad565b60200101906001600160f81b031916908160001a90535060049490941c93611c248161262a565b9050611bb6565b5083156108d15760405162461bcd60e51b815260206004820181905260248201527f537472696e67733a20686578206c656e67746820696e73756666696369656e7460448201526064016108b5565b803b611cde5760405162461bcd60e51b815260206004820152602d60248201527f455243313936373a206e657720696d706c656d656e746174696f6e206973206e60448201526c1bdd08184818dbdb9d1c9858dd609a1b60648201526084016108b5565b7f360894a13ba1a3210667c828492db98dca3e2076cc3735a920a3ca505d382bbc80546001600160a01b0319166001600160a01b0392909216919091179055565b6060823b611d7e5760405162461bcd60e51b815260206004820152602660248201527f416464726573733a2064656c65676174652063616c6c20746f206e6f6e2d636f6044820152651b9d1c9858dd60d21b60648201526084016108b5565b600080846001600160a01b031684604051611d999190612420565b600060405180830381855af49150503d8060008114611dd4576040519150601f19603f3d011682016040523d82523d6000602084013e611dd9565b606091505b5091509150611e01828260405180606001604052806027815260200161273a60279139611edd565b95945050505050565b611e1381611c7a565b6040516001600160a01b038216907fbc7cd75a20ee27fd9adebab32041f755214dbc6bffa90cc0225b39da2e5c2d3b90600090a250565b6109d7838383611f16565b600054610100900460ff16611e7c5760405162461bcd60e51b81526004016108b59061257c565b611e87600033611f99565b611e9f60008051602061271a83398151915233611f99565b611eb76000805160206126fa83398151915233611f99565b6113bc6000805160206126fa83398151915260008051602061271a833981519152611a93565b60608315611eec5750816108d1565b825115611efc5782518084602001fd5b8160405162461bcd60e51b81526004016108b591906124b1565b6000805160206127818339815191525460ff161580611f3a5750611f3a8333611fa3565b6109d75760405162461bcd60e51b815260206004820152602a60248201527f45524332305061757361626c653a20746f6b656e207472616e736665722077686044820152691a5b19481c185d5cd95960b21b60648201526084016108b5565b610a568282611495565b6000611fbd6000805160206127a183398151915284610e8c565b806108d157506108d16000805160206126da83398151915283610e8c565b828054611fe790612641565b90600052602060002090601f016020900481019282612009576000855561204f565b82601f1061202257805160ff191683800117855561204f565b8280016001018555821561204f579182015b8281111561204f578251825591602001919060010190612034565b5061205b92915061205f565b5090565b5b8082111561205b5760008155600101612060565b600067ffffffffffffffff8084111561208f5761208f6126c3565b604051601f8501601f19908116603f011681019082821181831017156120b7576120b76126c3565b816040528093508581528686860111156120d057600080fd5b858560208301376000602087830101525050509392505050565b80356001600160a01b038116811461210157600080fd5b919050565b60008083601f84011261211857600080fd5b50813567ffffffffffffffff81111561213057600080fd5b6020830191508360208260051b850101111561214b57600080fd5b9250929050565b600082601f83011261216357600080fd5b6108d183833560208501612074565b60006020828403121561218457600080fd5b6108d1826120ea565b600080604083850312156121a057600080fd5b6121a9836120ea565b91506121b7602084016120ea565b90509250929050565b6000806000606084860312156121d557600080fd5b6121de846120ea565b92506121ec602085016120ea565b9150604084013590509250925092565b6000806040838503121561220f57600080fd5b612218836120ea565b9150602083013567ffffffffffffffff81111561223457600080fd5b8301601f8101851361224557600080fd5b61225485823560208401612074565b9150509250929050565b6000806040838503121561227157600080fd5b61227a836120ea565b946020939093013593505050565b6000806020838503121561229b57600080fd5b823567ffffffffffffffff8111156122b257600080fd5b6122be85828601612106565b90969095509350505050565b600080600080604085870312156122e057600080fd5b843567ffffffffffffffff808211156122f857600080fd5b61230488838901612106565b9096509450602087013591508082111561231d57600080fd5b5061232a87828801612106565b95989497509550505050565b60006020828403121561234857600080fd5b5035919050565b6000806040838503121561236257600080fd5b823591506121b7602084016120ea565b60006020828403121561238457600080fd5b81356001600160e01b0319811681146108d157600080fd5b600080600080608085870312156123b257600080fd5b843567ffffffffffffffff808211156123ca57600080fd5b6123d688838901612152565b955060208701359150808211156123ec57600080fd5b506123f987828801612152565b935050604085013560ff8116811461241057600080fd5b9396929550929360600135925050565b600082516124328184602087016125fe565b9190910192915050565b7f416363657373436f6e74726f6c3a206163636f756e74200000000000000000008152600083516124748160178501602088016125fe565b7001034b99036b4b9b9b4b733903937b6329607d1b60179184019182015283516124a58160288401602088016125fe565b01602801949350505050565b60208152600082518060208401526124d08160408501602087016125fe565b601f01601f19169190910160400192915050565b6020808252602c908201527f46756e6374696f6e206d7573742062652063616c6c6564207468726f7567682060408201526b19195b1959d85d1958d85b1b60a21b606082015260800190565b6020808252602c908201527f46756e6374696f6e206d7573742062652063616c6c6564207468726f7567682060408201526b6163746976652070726f787960a01b606082015260800190565b6020808252602b908201527f496e697469616c697a61626c653a20636f6e7472616374206973206e6f74206960408201526a6e697469616c697a696e6760a81b606082015260800190565b600082198211156125da576125da612697565b500190565b60008160001904831182151516156125f9576125f9612697565b500290565b60005b83811015612619578181015183820152602001612601565b83811115610d175750506000910152565b60008161263957612639612697565b506000190190565b600181811c9082168061265557607f821691505b6020821081141561267657634e487b7160e01b600052602260045260246000fd5b50919050565b600060001982141561269057612690612697565b5060010190565b634e487b7160e01b600052601160045260246000fd5b634e487b7160e01b600052603260045260246000fd5b634e487b7160e01b600052604160045260246000fdfee1ac655ab58995133a870d1fd307ddc1d624c8ad919a09e67867a7a1483e439aa76ace73a908083d89af9ff88e5b4f7cadb3591a80631063f68b695fda726db571840dc4906352362b0cdaf79870196c8e42acafade72d5d5a6d59291253ceb1416464726573733a206c6f772d6c6576656c2064656c65676174652063616c6c206661696c6564356a809dfdea9198dd76fb76bf6d403ecf13ea675eb89e1eda2db2c4a4676a26ad6a6591fa308fe948065665239402780db8ed4a8c4e4e16c4d066bcaa05efc2ce108bcc5e0f50fe603649304cbbbd94de794a404db82d884c0afc9ba9328e61a2646970667358221220403fc110ed18001555478f565250f8a8f32debc82baf965a50a1fff6faf4e88164736f6c63430008060033",
  "linkReferences": {},
  "deployedLinkReferences": {}
}