{
  "_format": "hh-sol-artifact-1",
  "name": "MintSnapshotTxFeeWhiteListTemplate",
  "initializer": "function initialize(string name_, string symbol_, uint8 decimals_, uint256 amount_, uint256 txFee, address txFeeBeneficiary)",
  "sourceName": "contracts/templates/MintSnapshotTxFeeWhiteListTemplate.sol",
  "abi": [
    {
      "anonymous": false,
      "inputs": [
        {
          "indexed": false,
          "internalType": "address",
          "name": "previousAdmin",
          "type": "address"
        },
        {
          "indexed": false,
          "internalType": "address",
          "name": "newAdmin",
          "type": "address"
        }
      ],
      "name": "AdminChanged",
      "type": "event"
    },
    {
      "anonymous": false,
      "inputs": [
        {
          "indexed": true,
          "internalType": "address",
          "name": "owner",
          "type": "address"
        },
        {
          "indexed": true,
          "internalType": "address",
          "name": "spender",
          "type": "address"
        },
        {
          "indexed": false,
          "internalType": "uint256",
          "name": "value",
          "type": "uint256"
        }
      ],
      "name": "Approval",
      "type": "event"
    },
    {
      "anonymous": false,
      "inputs": [
        {
          "indexed": true,
          "internalType": "address",
          "name": "beacon",
          "type": "address"
        }
      ],
      "name": "BeaconUpgraded",
      "type": "event"
    },
    {
      "anonymous": false,
      "inputs": [
        {
          "indexed": false,
          "internalType": "address",
          "name": "account",
          "type": "address"
        }
      ],
      "name": "Paused",
      "type": "event"
    },
    {
      "anonymous": false,
      "inputs": [
        {
          "indexed": true,
          "internalType": "bytes32",
          "name": "role",
          "type": "bytes32"
        },
        {
          "indexed": true,
          "internalType": "bytes32",
          "name": "previousAdminRole",
          "type": "bytes32"
        },
        {
          "indexed": true,
          "internalType": "bytes32",
          "name": "newAdminRole",
          "type": "bytes32"
        }
      ],
      "name": "RoleAdminChanged",
      "type": "event"
    },
    {
      "anonymous": false,
      "inputs": [
        {
          "indexed": true,
          "internalType": "bytes32",
          "name": "role",
          "type": "bytes32"
        },
        {
          "indexed": true,
          "internalType": "address",
          "name": "account",
          "type": "address"
        },
        {
          "indexed": true,
          "internalType": "address",
          "name": "sender",
          "type": "address"
        }
      ],
      "name": "RoleGranted",
      "type": "event"
    },
    {
      "anonymous": false,
      "inputs": [
        {
          "indexed": true,
          "internalType": "bytes32",
          "name": "role",
          "type": "bytes32"
        },
        {
          "indexed": true,
          "internalType": "address",
          "name": "account",
          "type": "address"
        },
        {
          "indexed": true,
          "internalType": "address",
          "name": "sender",
          "type": "address"
        }
      ],
      "name": "RoleRevoked",
      "type": "event"
    },
    {
      "anonymous": false,
      "inputs": [
        {
          "indexed": false,
          "internalType": "uint256",
          "name": "id",
          "type": "uint256"
        }
      ],
      "name": "Snapshot",
      "type": "event"
    },
    {
      "anonymous": false,
      "inputs": [
        {
          "indexed": true,
          "internalType": "address",
          "name": "from",
          "type": "address"
        },
        {
          "indexed": true,
          "internalType": "address",
          "name": "to",
          "type": "address"
        },
        {
          "indexed": false,
          "internalType": "uint256",
          "name": "value",
          "type": "uint256"
        }
      ],
      "name": "Transfer",
      "type": "event"
    },
    {
      "anonymous": false,
      "inputs": [
        {
          "indexed": false,
          "internalType": "address",
          "name": "account",
          "type": "address"
        }
      ],
      "name": "Unpaused",
      "type": "event"
    },
    {
      "anonymous": false,
      "inputs": [
        {
          "indexed": true,
          "internalType": "address",
          "name": "implementation",
          "type": "address"
        }
      ],
      "name": "Upgraded",
      "type": "event"
    },
    {
      "inputs": [],
      "name": "DEFAULT_ADMIN_ROLE",
      "outputs": [
        {
          "internalType": "bytes32",
          "name": "",
          "type": "bytes32"
        }
      ],
      "stateMutability": "view",
      "type": "function"
    },
    {
      "inputs": [],
      "name": "GOVERNANCE_ROLE",
      "outputs": [
        {
          "internalType": "bytes32",
          "name": "",
          "type": "bytes32"
        }
      ],
      "stateMutability": "view",
      "type": "function"
    },
    {
      "inputs": [],
      "name": "MINTER_ROLE",
      "outputs": [
        {
          "internalType": "bytes32",
          "name": "",
          "type": "bytes32"
        }
      ],
      "stateMutability": "view",
      "type": "function"
    },
    {
      "inputs": [],
      "name": "PAUSE_MANAGER_ROLE",
      "outputs": [
        {
          "internalType": "bytes32",
          "name": "",
          "type": "bytes32"
        }
      ],
      "stateMutability": "view",
      "type": "function"
    },
    {
      "inputs": [],
      "name": "UPGRADE_MANAGER_ROLE",
      "outputs": [
        {
          "internalType": "bytes32",
          "name": "",
          "type": "bytes32"
        }
      ],
      "stateMutability": "view",
      "type": "function"
    },
    {
      "inputs": [],
      "name": "WHITELISTED_FROM_ROLE",
      "outputs": [
        {
          "internalType": "bytes32",
          "name": "",
          "type": "bytes32"
        }
      ],
      "stateMutability": "view",
      "type": "function"
    },
    {
      "inputs": [],
      "name": "WHITELISTED_SENDER_ROLE",
      "outputs": [
        {
          "internalType": "bytes32",
          "name": "",
          "type": "bytes32"
        }
      ],
      "stateMutability": "view",
      "type": "function"
    },
    {
      "inputs": [
        {
          "internalType": "address[]",
          "name": "addresses",
          "type": "address[]"
        }
      ],
      "name": "addAddressesToWhitelistFrom",
      "outputs": [],
      "stateMutability": "nonpayable",
      "type": "function"
    },
    {
      "inputs": [
        {
          "internalType": "address[]",
          "name": "addresses",
          "type": "address[]"
        }
      ],
      "name": "addAddressesToWhitelistSender",
      "outputs": [],
      "stateMutability": "nonpayable",
      "type": "function"
    },
    {
      "inputs": [
        {
          "internalType": "address",
          "name": "owner",
          "type": "address"
        },
        {
          "internalType": "address",
          "name": "spender",
          "type": "address"
        }
      ],
      "name": "allowance",
      "outputs": [
        {
          "internalType": "uint256",
          "name": "",
          "type": "uint256"
        }
      ],
      "stateMutability": "view",
      "type": "function"
    },
    {
      "inputs": [
        {
          "internalType": "address",
          "name": "spender",
          "type": "address"
        },
        {
          "internalType": "uint256",
          "name": "amount",
          "type": "uint256"
        }
      ],
      "name": "approve",
      "outputs": [
        {
          "internalType": "bool",
          "name": "",
          "type": "bool"
        }
      ],
      "stateMutability": "nonpayable",
      "type": "function"
    },
    {
      "inputs": [
        {
          "internalType": "address",
          "name": "account",
          "type": "address"
        }
      ],
      "name": "balanceOf",
      "outputs": [
        {
          "internalType": "uint256",
          "name": "",
          "type": "uint256"
        }
      ],
      "stateMutability": "view",
      "type": "function"
    },
    {
      "inputs": [
        {
          "internalType": "address",
          "name": "account",
          "type": "address"
        },
        {
          "internalType": "uint256",
          "name": "snapshotId",
          "type": "uint256"
        }
      ],
      "name": "balanceOfAt",
      "outputs": [
        {
          "internalType": "uint256",
          "name": "",
          "type": "uint256"
        }
      ],
      "stateMutability": "view",
      "type": "function"
    },
    {
      "inputs": [
        {
          "internalType": "address[]",
          "name": "accounts",
          "type": "address[]"
        },
        {
          "internalType": "uint256[]",
          "name": "amounts",
          "type": "uint256[]"
        }
      ],
      "name": "bulkMint",
      "outputs": [],
      "stateMutability": "nonpayable",
      "type": "function"
    },
    {
      "inputs": [
        {
          "internalType": "uint256",
          "name": "newTxFee",
          "type": "uint256"
        },
        {
          "internalType": "address",
          "name": "newTxBeneficiary",
          "type": "address"
        }
      ],
      "name": "changeTxFeeProperties",
      "outputs": [],
      "stateMutability": "nonpayable",
      "type": "function"
    },
    {
      "inputs": [],
      "name": "decimals",
      "outputs": [
        {
          "internalType": "uint8",
          "name": "",
          "type": "uint8"
        }
      ],
      "stateMutability": "view",
      "type": "function"
    },
    {
      "inputs": [
        {
          "internalType": "address",
          "name": "spender",
          "type": "address"
        },
        {
          "internalType": "uint256",
          "name": "subtractedValue",
          "type": "uint256"
        }
      ],
      "name": "decreaseAllowance",
      "outputs": [
        {
          "internalType": "bool",
          "name": "",
          "type": "bool"
        }
      ],
      "stateMutability": "nonpayable",
      "type": "function"
    },
    {
      "inputs": [],
      "name": "getCurrentSnapshotId",
      "outputs": [
        {
          "internalType": "uint256",
          "name": "",
          "type": "uint256"
        }
      ],
      "stateMutability": "view",
      "type": "function"
    },
    {
      "inputs": [],
      "name": "getImplementation",
      "outputs": [
        {
          "internalType": "address",
          "name": "",
          "type": "address"
        }
      ],
      "stateMutability": "view",
      "type": "function"
    },
    {
      "inputs": [
        {
          "internalType": "bytes32",
          "name": "role",
          "type": "bytes32"
        }
      ],
      "name": "getRoleAdmin",
      "outputs": [
        {
          "internalType": "bytes32",
          "name": "",
          "type": "bytes32"
        }
      ],
      "stateMutability": "view",
      "type": "function"
    },
    {
      "inputs": [
        {
          "internalType": "bytes32",
          "name": "role",
          "type": "bytes32"
        },
        {
          "internalType": "address",
          "name": "account",
          "type": "address"
        }
      ],
      "name": "grantRole",
      "outputs": [],
      "stateMutability": "nonpayable",
      "type": "function"
    },
    {
      "inputs": [
        {
          "internalType": "bytes32",
          "name": "role",
          "type": "bytes32"
        },
        {
          "internalType": "address",
          "name": "account",
          "type": "address"
        }
      ],
      "name": "hasRole",
      "outputs": [
        {
          "internalType": "bool",
          "name": "",
          "type": "bool"
        }
      ],
      "stateMutability": "view",
      "type": "function"
    },
    {
      "inputs": [
        {
          "internalType": "address",
          "name": "spender",
          "type": "address"
        },
        {
          "internalType": "uint256",
          "name": "addedValue",
          "type": "uint256"
        }
      ],
      "name": "increaseAllowance",
      "outputs": [
        {
          "internalType": "bool",
          "name": "",
          "type": "bool"
        }
      ],
      "stateMutability": "nonpayable",
      "type": "function"
    },
    {
      "inputs": [
        {
          "internalType": "string",
          "name": "name_",
          "type": "string"
        },
        {
          "internalType": "string",
          "name": "symbol_",
          "type": "string"
        },
        {
          "internalType": "uint8",
          "name": "decimals_",
          "type": "uint8"
        },
        {
          "internalType": "uint256",
          "name": "amount_",
          "type": "uint256"
        },
        {
          "internalType": "uint256",
          "name": "txFee",
          "type": "uint256"
        },
        {
          "internalType": "address",
          "name": "txFeeBeneficiary",
          "type": "address"
        }
      ],
      "name": "initialize",
      "outputs": [],
      "stateMutability": "nonpayable",
      "type": "function"
    },
    {
      "inputs": [
        {
          "internalType": "address",
          "name": "account",
          "type": "address"
        },
        {
          "internalType": "uint256",
          "name": "amount",
          "type": "uint256"
        }
      ],
      "name": "mint",
      "outputs": [],
      "stateMutability": "nonpayable",
      "type": "function"
    },
    {
      "inputs": [],
      "name": "name",
      "outputs": [
        {
          "internalType": "string",
          "name": "",
          "type": "string"
        }
      ],
      "stateMutability": "view",
      "type": "function"
    },
    {
      "inputs": [],
      "name": "pause",
      "outputs": [],
      "stateMutability": "nonpayable",
      "type": "function"
    },
    {
      "inputs": [],
      "name": "paused",
      "outputs": [
        {
          "internalType": "bool",
          "name": "",
          "type": "bool"
        }
      ],
      "stateMutability": "view",
      "type": "function"
    },
    {
      "inputs": [
        {
          "internalType": "address",
          "name": "implementationAddress",
          "type": "address"
        }
      ],
      "name": "proposeNewImplementation",
      "outputs": [],
      "stateMutability": "nonpayable",
      "type": "function"
    },
    {
      "inputs": [
        {
          "internalType": "address[]",
          "name": "addresses",
          "type": "address[]"
        }
      ],
      "name": "removeAddressesFromWhitelistFrom",
      "outputs": [],
      "stateMutability": "nonpayable",
      "type": "function"
    },
    {
      "inputs": [
        {
          "internalType": "address[]",
          "name": "addresses",
          "type": "address[]"
        }
      ],
      "name": "removeAddressesFromWhitelistSender",
      "outputs": [],
      "stateMutability": "nonpayable",
      "type": "function"
    },
    {
      "inputs": [
        {
          "internalType": "bytes32",
          "name": "role",
          "type": "bytes32"
        },
        {
          "internalType": "address",
          "name": "account",
          "type": "address"
        }
      ],
      "name": "renounceRole",
      "outputs": [],
      "stateMutability": "nonpayable",
      "type": "function"
    },
    {
      "inputs": [
        {
          "internalType": "bytes32",
          "name": "role",
          "type": "bytes32"
        },
        {
          "internalType": "address",
          "name": "account",
          "type": "address"
        }
      ],
      "name": "revokeRole",
      "outputs": [],
      "stateMutability": "nonpayable",
      "type": "function"
    },
    {
      "inputs": [],
      "name": "snapshot",
      "outputs": [],
      "stateMutability": "nonpayable",
      "type": "function"
    },
    {
      "inputs": [
        {
          "internalType": "bytes4",
          "name": "interfaceId",
          "type": "bytes4"
        }
      ],
      "name": "supportsInterface",
      "outputs": [
        {
          "internalType": "bool",
          "name": "",
          "type": "bool"
        }
      ],
      "stateMutability": "view",
      "type": "function"
    },
    {
      "inputs": [],
      "name": "symbol",
      "outputs": [
        {
          "internalType": "string",
          "name": "",
          "type": "string"
        }
      ],
      "stateMutability": "view",
      "type": "function"
    },
    {
      "inputs": [],
      "name": "totalSupply",
      "outputs": [
        {
          "internalType": "uint256",
          "name": "",
          "type": "uint256"
        }
      ],
      "stateMutability": "view",
      "type": "function"
    },
    {
      "inputs": [
        {
          "internalType": "uint256",
          "name": "snapshotId",
          "type": "uint256"
        }
      ],
      "name": "totalSupplyAt",
      "outputs": [
        {
          "internalType": "uint256",
          "name": "",
          "type": "uint256"
        }
      ],
      "stateMutability": "view",
      "type": "function"
    },
    {
      "inputs": [
        {
          "internalType": "address",
          "name": "recipient",
          "type": "address"
        },
        {
          "internalType": "uint256",
          "name": "amount",
          "type": "uint256"
        }
      ],
      "name": "transfer",
      "outputs": [
        {
          "internalType": "bool",
          "name": "",
          "type": "bool"
        }
      ],
      "stateMutability": "nonpayable",
      "type": "function"
    },
    {
      "inputs": [
        {
          "internalType": "address",
          "name": "sender",
          "type": "address"
        },
        {
          "internalType": "address",
          "name": "recipient",
          "type": "address"
        },
        {
          "internalType": "uint256",
          "name": "amount",
          "type": "uint256"
        }
      ],
      "name": "transferFrom",
      "outputs": [
        {
          "internalType": "bool",
          "name": "",
          "type": "bool"
        }
      ],
      "stateMutability": "nonpayable",
      "type": "function"
    },
    {
      "inputs": [],
      "name": "unpause",
      "outputs": [],
      "stateMutability": "nonpayable",
      "type": "function"
    },
    {
      "inputs": [
        {
          "internalType": "address",
          "name": "newImplementation",
          "type": "address"
        }
      ],
      "name": "upgradeTo",
      "outputs": [],
      "stateMutability": "nonpayable",
      "type": "function"
    },
    {
      "inputs": [
        {
          "internalType": "address",
          "name": "newImplementation",
          "type": "address"
        },
        {
          "internalType": "bytes",
          "name": "data",
          "type": "bytes"
        }
      ],
      "name": "upgradeToAndCall",
      "outputs": [],
      "stateMutability": "payable",
      "type": "function"
    }
  ],
  "bytecode": "0x60a06040523060601b60805234801561001757600080fd5b5060805160601c61305d61004b60003960008181610b2a01528181610b6a01528181610d670152610da7015261305d6000f3fe60806040526004361061025c5760003560e01c8063685ed81a11610144578063a457c2d7116100b6578063d53913931161007a578063d53913931461070b578063d547741f1461073f578063d84f91e81461075f578063dd62ed3e14610781578063f36c8f5c146107c7578063f834c502146107e957600080fd5b8063a457c2d71461065c578063a9059cbb1461067c578063aa74a34a1461069c578063aaf10f42146106be578063c233f3b7146106eb57600080fd5b80638456cb59116101085780638456cb59146105c857806391d14854146105dd57806395d89b41146105fd5780639711715a14610612578063981b24d014610627578063a217fddf1461064757600080fd5b8063685ed81a146105105780636ae459bd146105305780636e79a1c01461055057806370a0823114610570578063731ce8fc146105a657600080fd5b80633659cfe6116101dd57806347757fb6116101a157806347757fb6146104635780634ee2cd7e146104835780634f1ef286146104a35780635120561a146104b65780635439ad86146104d65780635c975abb146104eb57600080fd5b80633659cfe6146103cc57806339509351146103ec5780633f4ba83a1461040c57806340c10f191461042157806343ffa64e1461044157600080fd5b8063248a9ca311610224578063248a9ca3146103175780632cd77a5a146103475780632f2ff15d14610369578063313ce5671461038957806336568abe146103ac57600080fd5b806301ffc9a71461026157806306fdde0314610296578063095ea7b3146102b857806318160ddd146102d857806323b872dd146102f7575b600080fd5b34801561026d57600080fd5b5061028161027c366004612b4b565b610809565b60405190151581526020015b60405180910390f35b3480156102a257600080fd5b506102ab610840565b60405161028d9190612ca5565b3480156102c457600080fd5b506102816102d3366004612a37565b6108d2565b3480156102e457600080fd5b506067545b60405190815260200161028d565b34801561030357600080fd5b50610281610312366004612999565b6108e8565b34801561032357600080fd5b506102e9610332366004612b0f565b600090815260fb602052604090206001015490565b34801561035357600080fd5b50610367610362366004612b75565b610999565b005b34801561037557600080fd5b50610367610384366004612b28565b610a76565b34801561039557600080fd5b506101605460405160ff909116815260200161028d565b3480156103b857600080fd5b506103676103c7366004612b28565b610aa1565b3480156103d857600080fd5b506103676103e736600461294b565b610b1f565b3480156103f857600080fd5b50610281610407366004612a37565b610be8565b34801561041857600080fd5b50610367610c24565b34801561042d57600080fd5b5061036761043c366004612a37565b610c45565b34801561044d57600080fd5b506102e9600080516020612f2183398151915281565b34801561046f57600080fd5b5061036761047e36600461294b565b610c7a565b34801561048f57600080fd5b506102e961049e366004612a37565b610cb7565b6103676104b13660046129d5565b610d5c565b3480156104c257600080fd5b506103676104d1366004612b28565b610e12565b3480156104e257600080fd5b506102e9610e87565b3480156104f757600080fd5b50600080516020612fe88339815191525460ff16610281565b34801561051c57600080fd5b5061036761052b366004612a61565b610ea4565b34801561053c57600080fd5b5061036761054b366004612aa3565b610f19565b34801561055c57600080fd5b5061036761056b366004612a61565b610ff8565b34801561057c57600080fd5b506102e961058b36600461294b565b6001600160a01b031660009081526065602052604090205490565b3480156105b257600080fd5b506102e960008051602061300883398151915281565b3480156105d457600080fd5b50610367611067565b3480156105e957600080fd5b506102816105f8366004612b28565b611088565b34801561060957600080fd5b506102ab6110b3565b34801561061e57600080fd5b506103676110c2565b34801561063357600080fd5b506102e9610642366004612b0f565b6110ca565b34801561065357600080fd5b506102e9600081565b34801561066857600080fd5b50610281610677366004612a37565b611135565b34801561068857600080fd5b50610281610697366004612a37565b6111ce565b3480156106a857600080fd5b506102e9600080516020612f0183398151915281565b3480156106ca57600080fd5b506106d36111db565b6040516001600160a01b03909116815260200161028d565b3480156106f757600080fd5b50610367610706366004612a61565b6111e5565b34801561071757600080fd5b506102e97ff9424f4303d7f03683a025eb8885734ad99b47df7749d9b0a02cbc985809700b81565b34801561074b57600080fd5b5061036761075a366004612b28565b61123f565b34801561076b57600080fd5b506102e9600080516020612fa883398151915281565b34801561078d57600080fd5b506102e961079c366004612966565b6001600160a01b03918216600090815260666020908152604080832093909416825291909152205490565b3480156107d357600080fd5b506102e9600080516020612f4183398151915281565b3480156107f557600080fd5b50610367610804366004612a61565b611265565b60006001600160e01b03198216637965db0b60e01b148061083a57506301ffc9a760e01b6001600160e01b03198316145b92915050565b60606068805461084f90612e6e565b80601f016020809104026020016040519081016040528092919081815260200182805461087b90612e6e565b80156108c85780601f1061089d576101008083540402835291602001916108c8565b820191906000526020600020905b8154815290600101906020018083116108ab57829003601f168201915b5050505050905090565b60006108df3384846112bf565b50600192915050565b60006108f58484846113e3565b6001600160a01b03841660009081526066602090815260408083203384529091529020548281101561097f5760405162461bcd60e51b815260206004820152602860248201527f45524332303a207472616e7366657220616d6f756e74206578636565647320616044820152676c6c6f77616e636560c01b60648201526084015b60405180910390fd5b61098c85338584036112bf565b60019150505b9392505050565b600054610100900460ff166109b45760005460ff16156109b8565b303b155b610a1b5760405162461bcd60e51b815260206004820152602e60248201527f496e697469616c697a61626c653a20636f6e747261637420697320616c72656160448201526d191e481a5b9a5d1a585b1a5e995960921b6064820152608401610976565b600054610100900460ff16158015610a3d576000805461ffff19166101011790555b610a49878787876115bc565b610a516115ff565b610a5b8383611628565b8015610a6d576000805461ff00191690555b50505050505050565b600082815260fb6020526040902060010154610a9281336116b7565b610a9c838361171b565b505050565b6001600160a01b0381163314610b115760405162461bcd60e51b815260206004820152602f60248201527f416363657373436f6e74726f6c3a2063616e206f6e6c792072656e6f756e636560448201526e103937b632b9903337b91039b2b63360891b6064820152608401610976565b610b1b82826117a1565b5050565b306001600160a01b037f0000000000000000000000000000000000000000000000000000000000000000161415610b685760405162461bcd60e51b815260040161097690612cd8565b7f00000000000000000000000000000000000000000000000000000000000000006001600160a01b0316610b9a611808565b6001600160a01b031614610bc05760405162461bcd60e51b815260040161097690612d24565b610bc981611836565b60408051600080825260208201909252610be5918391906118b8565b50565b3360008181526066602090815260408083206001600160a01b038716845290915281205490916108df918590610c1f908690612dbb565b6112bf565b600080516020612fa8833981519152610c3d81336116b7565b610be5611a03565b7ff9424f4303d7f03683a025eb8885734ad99b47df7749d9b0a02cbc985809700b610c7081336116b7565b610a9c8383611ab0565b600080516020612f41833981519152610c9381336116b7565b5061012d80546001600160a01b0319166001600160a01b0392909216919091179055565b604080516001600160a01b0384166020808301919091527ffbf1c7065455eb4486649b8540f24ef2dd4ebedf2aa423f0039d17c2c75dea15828401528251808303840181526060909201909252805191012060009081610d18826001612dbb565b9050600080610d28868585611b9b565b9150915081610d4f576001600160a01b038716600090815260656020526040902054610d51565b805b979650505050505050565b306001600160a01b037f0000000000000000000000000000000000000000000000000000000000000000161415610da55760405162461bcd60e51b815260040161097690612cd8565b7f00000000000000000000000000000000000000000000000000000000000000006001600160a01b0316610dd7611808565b6001600160a01b031614610dfd5760405162461bcd60e51b815260040161097690612d24565b610e0682611836565b610b1b828260016118b8565b6000610e1e81336116b7565b6001600160a01b038216610e3157600080fd5b82600080516020612f6183398151915255817fe38b16c806f019542b2d4bf356bb4ba2ea4b7eb450b8fbff2584f6084c4978f180546001600160a01b0319166001600160a01b0392909216919091179055505050565b6000610e9f600080516020612fc88339815191525490565b905090565b600080516020612fa8833981519152610ebd81336116b7565b60005b82811015610f1357610f01600080516020612f01833981519152858584818110610eec57610eec612ed4565b9050602002016020810190610384919061294b565b80610f0b81612ea3565b915050610ec0565b50505050565b7ff9424f4303d7f03683a025eb8885734ad99b47df7749d9b0a02cbc985809700b610f4481336116b7565b838214610f8b5760405162461bcd60e51b8152602060048201526015602482015274082e4e4c2f240d8cadccee8d040dad2e6dac2e8c6d605b1b6044820152606401610976565b60005b84811015610ff057610fde868683818110610fab57610fab612ed4565b9050602002016020810190610fc0919061294b565b858584818110610fd257610fd2612ed4565b90506020020135611ab0565b80610fe881612ea3565b915050610f8e565b505050505050565b600080516020612fa883398151915261101181336116b7565b60005b82811015610f135761105560008051602061300883398151915285858481811061104057611040612ed4565b905060200201602081019061075a919061294b565b8061105f81612ea3565b915050611014565b600080516020612fa883398151915261108081336116b7565b610be5611c86565b600091825260fb602090815260408084206001600160a01b0393909316845291905290205460ff1690565b60606069805461084f90612e6e565b610be5611d1a565b600080600061111a847f286a9db37a0f8ddcbcee127c9f4f56031230f49cb46786f87e166d552e11f67e7ffcaa8bb100d3c5b627eac0369cc1d2778dbeffa2993d08f039fb27795729e9a5611b9b565b915091508161112b5760675461112d565b805b949350505050565b3360009081526066602090815260408083206001600160a01b0386168452909152812054828110156111b75760405162461bcd60e51b815260206004820152602560248201527f45524332303a2064656372656173656420616c6c6f77616e63652062656c6f77604482015264207a65726f60d81b6064820152608401610976565b6111c433858584036112bf565b5060019392505050565b60006108df3384846113e3565b6000610e9f611808565b600080516020612fa88339815191526111fe81336116b7565b60005b82811015610f135761122d600080516020612f0183398151915285858481811061104057611040612ed4565b8061123781612ea3565b915050611201565b600082815260fb602052604090206001015461125b81336116b7565b610a9c83836117a1565b600080516020612fa883398151915261127e81336116b7565b60005b82811015610f13576112ad600080516020613008833981519152858584818110610eec57610eec612ed4565b806112b781612ea3565b915050611281565b6001600160a01b0383166113215760405162461bcd60e51b8152602060048201526024808201527f45524332303a20617070726f76652066726f6d20746865207a65726f206164646044820152637265737360e01b6064820152608401610976565b6001600160a01b0382166113825760405162461bcd60e51b815260206004820152602260248201527f45524332303a20617070726f766520746f20746865207a65726f206164647265604482015261737360f01b6064820152608401610976565b6001600160a01b0383811660008181526066602090815260408083209487168084529482529182902085905590518481527f8c5be1e5ebec7d5bd14f71427d1e84f3dd0314c0f7b2291e5b200ac8c7c3b925910160405180910390a3505050565b6001600160a01b0383166114475760405162461bcd60e51b815260206004820152602560248201527f45524332303a207472616e736665722066726f6d20746865207a65726f206164604482015264647265737360d81b6064820152608401610976565b6001600160a01b0382166114a95760405162461bcd60e51b815260206004820152602360248201527f45524332303a207472616e7366657220746f20746865207a65726f206164647260448201526265737360e81b6064820152608401610976565b6114b4838383611d8a565b6001600160a01b0383166000908152606560205260409020548181101561152c5760405162461bcd60e51b815260206004820152602660248201527f45524332303a207472616e7366657220616d6f756e7420657863656564732062604482015265616c616e636560d01b6064820152608401610976565b6001600160a01b03808516600090815260656020526040808220858503905591851681529081208054849290611563908490612dbb565b92505081905550826001600160a01b0316846001600160a01b03167fddf252ad1be2c89b69c2b068fc378daa952ba7f163c4a11628f55a4df523b3ef846040516115af91815260200190565b60405180910390a3610f13565b600054610100900460ff166115e35760405162461bcd60e51b815260040161097690612d70565b6115eb611da0565b6115f58484611df7565b610f138282611e45565b600054610100900460ff166116265760405162461bcd60e51b815260040161097690612d70565b565b600054610100900460ff1661164f5760405162461bcd60e51b815260040161097690612d70565b6001600160a01b03811661166257600080fd5b81600080516020612f6183398151915255807fe38b16c806f019542b2d4bf356bb4ba2ea4b7eb450b8fbff2584f6084c4978f180546001600160a01b0319166001600160a01b03929092169190911790555050565b6116c18282611088565b610b1b576116d9816001600160a01b03166014611e86565b6116e4836020611e86565b6040516020016116f5929190612c30565b60408051601f198184030181529082905262461bcd60e51b825261097691600401612ca5565b6117258282611088565b610b1b57600082815260fb602090815260408083206001600160a01b03851684529091529020805460ff1916600117905561175d3390565b6001600160a01b0316816001600160a01b0316837f2f8788117e7eff1d82e926ec794901d17c78024a50270940304540a733656f0d60405160405180910390a45050565b6117ab8282611088565b15610b1b57600082815260fb602090815260408083206001600160a01b0385168085529252808320805460ff1916905551339285917ff6391f5c32d9c69d2a47ea670b442974b53935d1edc7fd64eb21e047a839171b9190a45050565b7f360894a13ba1a3210667c828492db98dca3e2076cc3735a920a3ca505d382bbc546001600160a01b031690565b61184e600080516020612f4183398151915233611088565b8061186c575061186c600080516020612f2183398151915233611088565b610be55760405162461bcd60e51b815260206004820152601d60248201527f4552524f523a2041646472657373206e6f7420617574686f72697a65640000006044820152606401610976565b60006118c2611808565b90506118cd84612022565b6000835111806118da5750815b156118eb576118e984846120c7565b505b7f4910fdfa16fed3260ed0e7147f7cc6da11a60208b5b9406d12a635614ffd9143805460ff166119fc57805460ff191660011781556040516001600160a01b038316602482015261196a90869060440160408051601f198184030181529190526020810180516001600160e01b0316631b2ce7f360e11b1790526120c7565b50805460ff1916815561197b611808565b6001600160a01b0316826001600160a01b0316146119f35760405162461bcd60e51b815260206004820152602f60248201527f45524331393637557067726164653a207570677261646520627265616b73206660448201526e75727468657220757067726164657360881b6064820152608401610976565b6119fc856121b2565b5050505050565b600080516020612fe88339815191525460ff16611a595760405162461bcd60e51b815260206004820152601460248201527314185d5cd8589b194e881b9bdd081c185d5cd95960621b6044820152606401610976565b600080516020612fe8833981519152805460ff191690557f5db9ee0a495bf2e6ff9c91a7834c1ba4fdd244a5e8aa4e537bd38aeae4b073aa335b6040516001600160a01b03909116815260200160405180910390a1565b6001600160a01b038216611b065760405162461bcd60e51b815260206004820152601f60248201527f45524332303a206d696e7420746f20746865207a65726f2061646472657373006044820152606401610976565b611b1260008383611d8a565b8060676000828254611b249190612dbb565b90915550506001600160a01b03821660009081526065602052604081208054839290611b51908490612dbb565b90915550506040518181526001600160a01b038316906000907fddf252ad1be2c89b69c2b068fc378daa952ba7f163c4a11628f55a4df523b3ef9060200160405180910390a35050565b60008060008511611be75760405162461bcd60e51b815260206004820152601660248201527504552433230536e617073686f743a20696420697320360541b6044820152606401610976565b600080516020612fc883398151915254851115611c465760405162461bcd60e51b815260206004820152601d60248201527f4552433230536e617073686f743a206e6f6e6578697374656e742069640000006044820152606401610976565b6000611c5285876121f2565b90508454811415611c6a576000809250925050611c7e565b6001611c768583612291565b549093509150505b935093915050565b600080516020612fe88339815191525460ff1615611cd95760405162461bcd60e51b815260206004820152601060248201526f14185d5cd8589b194e881c185d5cd95960821b6044820152606401610976565b600080516020612fe8833981519152805460ff191660011790557f62e78cea01bee320cd4e420270b5ea74000d11b0c9f74754ebdbfc544b05a25833611a93565b60006001600080516020612fc88339815191528054600090611d3d908490612dbb565b9091555050600080516020612fc8833981519152546040518181527f8030e83b04d87bef53480e26263266d6ca66863aa8506aca6f2559d18aa1cb679060200160405180910390a1919050565b611d95838383612310565b610a9c838383612331565b600054610100900460ff16611dc75760405162461bcd60e51b815260040161097690612d70565b611dcf6115ff565b611dd76115ff565b611ddf6115ff565b611de76115ff565b611def6115ff565b611626612379565b600054610100900460ff16611e1e5760405162461bcd60e51b815260040161097690612d70565b8151611e319060689060208501906127b4565b508051610a9c9060699060208401906127b4565b600054610100900460ff16611e6c5760405162461bcd60e51b815260040161097690612d70565b610160805460ff191660ff8416179055610b1b3382611ab0565b60606000611e95836002612df5565b611ea0906002612dbb565b67ffffffffffffffff811115611eb857611eb8612eea565b6040519080825280601f01601f191660200182016040528015611ee2576020820181803683370190505b509050600360fc1b81600081518110611efd57611efd612ed4565b60200101906001600160f81b031916908160001a905350600f60fb1b81600181518110611f2c57611f2c612ed4565b60200101906001600160f81b031916908160001a9053506000611f50846002612df5565b611f5b906001612dbb565b90505b6001811115611fd3576f181899199a1a9b1b9c1cb0b131b232b360811b85600f1660108110611f8f57611f8f612ed4565b1a60f81b828281518110611fa557611fa5612ed4565b60200101906001600160f81b031916908160001a90535060049490941c93611fcc81612e57565b9050611f5e565b5083156109925760405162461bcd60e51b815260206004820181905260248201527f537472696e67733a20686578206c656e67746820696e73756666696369656e746044820152606401610976565b803b6120865760405162461bcd60e51b815260206004820152602d60248201527f455243313936373a206e657720696d706c656d656e746174696f6e206973206e60448201526c1bdd08184818dbdb9d1c9858dd609a1b6064820152608401610976565b7f360894a13ba1a3210667c828492db98dca3e2076cc3735a920a3ca505d382bbc80546001600160a01b0319166001600160a01b0392909216919091179055565b6060823b6121265760405162461bcd60e51b815260206004820152602660248201527f416464726573733a2064656c65676174652063616c6c20746f206e6f6e2d636f6044820152651b9d1c9858dd60d21b6064820152608401610976565b600080846001600160a01b0316846040516121419190612c14565b600060405180830381855af49150503d806000811461217c576040519150601f19603f3d011682016040523d82523d6000602084013e612181565b606091505b50915091506121a98282604051806060016040528060278152602001612f8160279139612401565b95945050505050565b6121bb81612022565b6040516001600160a01b038216907fbc7cd75a20ee27fd9adebab32041f755214dbc6bffa90cc0225b39da2e5c2d3b90600090a250565b81546000908190806122095760009250505061083a565b8082101561224d57600061221d838361243a565b90508461222a8783612291565b54111561223957809150612247565b612244816001612dbb565b92505b50612209565b60008211801561227057508361226d86612268600186612e14565b612291565b54145b1561228957612280600183612e14565b9250505061083a565b50905061083a565b6000825482106122d95760405162461bcd60e51b815260206004820152601360248201527211549493d48e8813dd5d081bd988189bdd5b99606a1b6044820152606401610976565b81836040516020016122ed91815260200190565b6040516020818303038152906040528051906020012060001c6109929190612dbb565b61231b838383611d95565b612326838383612455565b610a9c8383836124d8565b6001600160a01b03831661235057612348826125b9565b610a9c612643565b6001600160a01b03821661236757612348836125b9565b612370836125b9565b610a9c826125b9565b600054610100900460ff166123a05760405162461bcd60e51b815260040161097690612d70565b6123ab600033612691565b6123c3600080516020612f4183398151915233612691565b6123db600080516020612f2183398151915233612691565b611626600080516020612f21833981519152600080516020612f4183398151915261269b565b60608315612410575081610992565b8251156124205782518084602001fd5b8160405162461bcd60e51b81526004016109769190612ca5565b60006124496002848418612dd3565b61099290848416612dbb565b600080516020612fe88339815191525460ff161580612479575061247983336126e6565b610a9c5760405162461bcd60e51b815260206004820152602a60248201527f45524332305061757361626c653a20746f6b656e207472616e736665722077686044820152691a5b19481c185d5cd95960b21b6064820152608401610976565b600080516020612f61833981519152547fe38b16c806f019542b2d4bf356bb4ba2ea4b7eb450b8fbff2584f6084c4978f1546001600160a01b03168115806125315750836001600160a01b0316816001600160a01b0316145b8061254d5750846001600160a01b0316816001600160a01b0316145b8061255f57506001600160a01b038516155b8061257157506001600160a01b038416155b1561257d575050505050565b6000670de0b6b3a7640000600080516020612f61833981519152546125a29086612df5565b6125ac9190612dd3565b9050610ff08683836113e3565b604080516001600160a01b0383166020808301919091527ffbf1c7065455eb4486649b8540f24ef2dd4ebedf2aa423f0039d17c2c75dea1582840152825180830384018152606090920190925280519101206000612618826001612dbb565b9050610a9c828261263e866001600160a01b031660009081526065602052604090205490565b61271e565b6116267f286a9db37a0f8ddcbcee127c9f4f56031230f49cb46786f87e166d552e11f67e7ffcaa8bb100d3c5b627eac0369cc1d2778dbeffa2993d08f039fb27795729e9a561263e60675490565b610b1b828261171b565b600082815260fb6020526040808220600101805490849055905190918391839186917fbd79b86ffe0ab8e8776151514217cd7cacd52c909f66475c3af44e129f0b00ff9190a4505050565b600061270060008051602061300883398151915284611088565b806109925750610992600080516020612f0183398151915283611088565b6000612736600080516020612fc88339815191525490565b9050806127428561275c565b1015610f1357612752848261278c565b610f13838361278c565b80546000908061276f5750600092915050565b61277e83612268600184612e14565b549392505050565b50919050565b8154600183600061279d8385612dbb565b909155508290506127ae8483612291565b55505050565b8280546127c090612e6e565b90600052602060002090601f0160209004810192826127e25760008555612828565b82601f106127fb57805160ff1916838001178555612828565b82800160010185558215612828579182015b8281111561282857825182559160200191906001019061280d565b50612834929150612838565b5090565b5b808211156128345760008155600101612839565b600067ffffffffffffffff8084111561286857612868612eea565b604051601f8501601f19908116603f0116810190828211818310171561289057612890612eea565b816040528093508581528686860111156128a957600080fd5b858560208301376000602087830101525050509392505050565b80356001600160a01b03811681146128da57600080fd5b919050565b60008083601f8401126128f157600080fd5b50813567ffffffffffffffff81111561290957600080fd5b6020830191508360208260051b850101111561292457600080fd5b9250929050565b600082601f83011261293c57600080fd5b6109928383356020850161284d565b60006020828403121561295d57600080fd5b610992826128c3565b6000806040838503121561297957600080fd5b612982836128c3565b9150612990602084016128c3565b90509250929050565b6000806000606084860312156129ae57600080fd5b6129b7846128c3565b92506129c5602085016128c3565b9150604084013590509250925092565b600080604083850312156129e857600080fd5b6129f1836128c3565b9150602083013567ffffffffffffffff811115612a0d57600080fd5b8301601f81018513612a1e57600080fd5b612a2d8582356020840161284d565b9150509250929050565b60008060408385031215612a4a57600080fd5b612a53836128c3565b946020939093013593505050565b60008060208385031215612a7457600080fd5b823567ffffffffffffffff811115612a8b57600080fd5b612a97858286016128df565b90969095509350505050565b60008060008060408587031215612ab957600080fd5b843567ffffffffffffffff80821115612ad157600080fd5b612add888389016128df565b90965094506020870135915080821115612af657600080fd5b50612b03878288016128df565b95989497509550505050565b600060208284031215612b2157600080fd5b5035919050565b60008060408385031215612b3b57600080fd5b82359150612990602084016128c3565b600060208284031215612b5d57600080fd5b81356001600160e01b03198116811461099257600080fd5b60008060008060008060c08789031215612b8e57600080fd5b863567ffffffffffffffff80821115612ba657600080fd5b612bb28a838b0161292b565b97506020890135915080821115612bc857600080fd5b50612bd589828a0161292b565b955050604087013560ff81168114612bec57600080fd5b93506060870135925060808701359150612c0860a088016128c3565b90509295509295509295565b60008251612c26818460208701612e2b565b9190910192915050565b7f416363657373436f6e74726f6c3a206163636f756e7420000000000000000000815260008351612c68816017850160208801612e2b565b7001034b99036b4b9b9b4b733903937b6329607d1b6017918401918201528351612c99816028840160208801612e2b565b01602801949350505050565b6020815260008251806020840152612cc4816040850160208701612e2b565b601f01601f19169190910160400192915050565b6020808252602c908201527f46756e6374696f6e206d7573742062652063616c6c6564207468726f7567682060408201526b19195b1959d85d1958d85b1b60a21b606082015260800190565b6020808252602c908201527f46756e6374696f6e206d7573742062652063616c6c6564207468726f7567682060408201526b6163746976652070726f787960a01b606082015260800190565b6020808252602b908201527f496e697469616c697a61626c653a20636f6e7472616374206973206e6f74206960408201526a6e697469616c697a696e6760a81b606082015260800190565b60008219821115612dce57612dce612ebe565b500190565b600082612df057634e487b7160e01b600052601260045260246000fd5b500490565b6000816000190483118215151615612e0f57612e0f612ebe565b500290565b600082821015612e2657612e26612ebe565b500390565b60005b83811015612e46578181015183820152602001612e2e565b83811115610f135750506000910152565b600081612e6657612e66612ebe565b506000190190565b600181811c90821680612e8257607f821691505b6020821081141561278657634e487b7160e01b600052602260045260246000fd5b6000600019821415612eb757612eb7612ebe565b5060010190565b634e487b7160e01b600052601160045260246000fd5b634e487b7160e01b600052603260045260246000fd5b634e487b7160e01b600052604160045260246000fdfee1ac655ab58995133a870d1fd307ddc1d624c8ad919a09e67867a7a1483e439aa76ace73a908083d89af9ff88e5b4f7cadb3591a80631063f68b695fda726db571840dc4906352362b0cdaf79870196c8e42acafade72d5d5a6d59291253ceb1253122b26cc2118faf5fcfc7761bd75fcfb5508f1f48d1a40db694aba32af5d0416464726573733a206c6f772d6c6576656c2064656c65676174652063616c6c206661696c6564356a809dfdea9198dd76fb76bf6d403ecf13ea675eb89e1eda2db2c4a4676a260d0a0ed3351c10a57d74a44b40c06e0946288e4e3816ac07bb89db2a755562e7ad6a6591fa308fe948065665239402780db8ed4a8c4e4e16c4d066bcaa05efc2ce108bcc5e0f50fe603649304cbbbd94de794a404db82d884c0afc9ba9328e61a26469706673582212203dd7dcc1c684cfb34d50fa8473979ed65c6896d344a6462ea17c3e21f709fc9e64736f6c63430008060033",
  "linkReferences": {},
  "deployedLinkReferences": {}
}