{
  "_format": "hh-sol-artifact-1",
  "name": "MintTxFeeTemplate",
  "initializer": "function initialize(string name_, string symbol_, uint8 decimals_, uint256 amount_, uint256 txFee, address txFeeBeneficiary)",
  "sourceName": "contracts/templates/MintTxFeeTemplate.sol",
  "abi": [
    {
      "anonymous": false,
      "inputs": [
        {
          "indexed": false,
          "internalType": "address",
          "name": "previousAdmin",
          "type": "address"
        },
        {
          "indexed": false,
          "internalType": "address",
          "name": "newAdmin",
          "type": "address"
        }
      ],
      "name": "AdminChanged",
      "type": "event"
    },
    {
      "anonymous": false,
      "inputs": [
        {
          "indexed": true,
          "internalType": "address",
          "name": "owner",
          "type": "address"
        },
        {
          "indexed": true,
          "internalType": "address",
          "name": "spender",
          "type": "address"
        },
        {
          "indexed": false,
          "internalType": "uint256",
          "name": "value",
          "type": "uint256"
        }
      ],
      "name": "Approval",
      "type": "event"
    },
    {
      "anonymous": false,
      "inputs": [
        {
          "indexed": true,
          "internalType": "address",
          "name": "beacon",
          "type": "address"
        }
      ],
      "name": "BeaconUpgraded",
      "type": "event"
    },
    {
      "anonymous": false,
      "inputs": [
        {
          "indexed": true,
          "internalType": "bytes32",
          "name": "role",
          "type": "bytes32"
        },
        {
          "indexed": true,
          "internalType": "bytes32",
          "name": "previousAdminRole",
          "type": "bytes32"
        },
        {
          "indexed": true,
          "internalType": "bytes32",
          "name": "newAdminRole",
          "type": "bytes32"
        }
      ],
      "name": "RoleAdminChanged",
      "type": "event"
    },
    {
      "anonymous": false,
      "inputs": [
        {
          "indexed": true,
          "internalType": "bytes32",
          "name": "role",
          "type": "bytes32"
        },
        {
          "indexed": true,
          "internalType": "address",
          "name": "account",
          "type": "address"
        },
        {
          "indexed": true,
          "internalType": "address",
          "name": "sender",
          "type": "address"
        }
      ],
      "name": "RoleGranted",
      "type": "event"
    },
    {
      "anonymous": false,
      "inputs": [
        {
          "indexed": true,
          "internalType": "bytes32",
          "name": "role",
          "type": "bytes32"
        },
        {
          "indexed": true,
          "internalType": "address",
          "name": "account",
          "type": "address"
        },
        {
          "indexed": true,
          "internalType": "address",
          "name": "sender",
          "type": "address"
        }
      ],
      "name": "RoleRevoked",
      "type": "event"
    },
    {
      "anonymous": false,
      "inputs": [
        {
          "indexed": true,
          "internalType": "address",
          "name": "from",
          "type": "address"
        },
        {
          "indexed": true,
          "internalType": "address",
          "name": "to",
          "type": "address"
        },
        {
          "indexed": false,
          "internalType": "uint256",
          "name": "value",
          "type": "uint256"
        }
      ],
      "name": "Transfer",
      "type": "event"
    },
    {
      "anonymous": false,
      "inputs": [
        {
          "indexed": true,
          "internalType": "address",
          "name": "implementation",
          "type": "address"
        }
      ],
      "name": "Upgraded",
      "type": "event"
    },
    {
      "inputs": [],
      "name": "DEFAULT_ADMIN_ROLE",
      "outputs": [
        {
          "internalType": "bytes32",
          "name": "",
          "type": "bytes32"
        }
      ],
      "stateMutability": "view",
      "type": "function"
    },
    {
      "inputs": [],
      "name": "GOVERNANCE_ROLE",
      "outputs": [
        {
          "internalType": "bytes32",
          "name": "",
          "type": "bytes32"
        }
      ],
      "stateMutability": "view",
      "type": "function"
    },
    {
      "inputs": [],
      "name": "MINTER_ROLE",
      "outputs": [
        {
          "internalType": "bytes32",
          "name": "",
          "type": "bytes32"
        }
      ],
      "stateMutability": "view",
      "type": "function"
    },
    {
      "inputs": [],
      "name": "UPGRADE_MANAGER_ROLE",
      "outputs": [
        {
          "internalType": "bytes32",
          "name": "",
          "type": "bytes32"
        }
      ],
      "stateMutability": "view",
      "type": "function"
    },
    {
      "inputs": [
        {
          "internalType": "address",
          "name": "owner",
          "type": "address"
        },
        {
          "internalType": "address",
          "name": "spender",
          "type": "address"
        }
      ],
      "name": "allowance",
      "outputs": [
        {
          "internalType": "uint256",
          "name": "",
          "type": "uint256"
        }
      ],
      "stateMutability": "view",
      "type": "function"
    },
    {
      "inputs": [
        {
          "internalType": "address",
          "name": "spender",
          "type": "address"
        },
        {
          "internalType": "uint256",
          "name": "amount",
          "type": "uint256"
        }
      ],
      "name": "approve",
      "outputs": [
        {
          "internalType": "bool",
          "name": "",
          "type": "bool"
        }
      ],
      "stateMutability": "nonpayable",
      "type": "function"
    },
    {
      "inputs": [
        {
          "internalType": "address",
          "name": "account",
          "type": "address"
        }
      ],
      "name": "balanceOf",
      "outputs": [
        {
          "internalType": "uint256",
          "name": "",
          "type": "uint256"
        }
      ],
      "stateMutability": "view",
      "type": "function"
    },
    {
      "inputs": [
        {
          "internalType": "address[]",
          "name": "accounts",
          "type": "address[]"
        },
        {
          "internalType": "uint256[]",
          "name": "amounts",
          "type": "uint256[]"
        }
      ],
      "name": "bulkMint",
      "outputs": [],
      "stateMutability": "nonpayable",
      "type": "function"
    },
    {
      "inputs": [
        {
          "internalType": "uint256",
          "name": "newTxFee",
          "type": "uint256"
        },
        {
          "internalType": "address",
          "name": "newTxBeneficiary",
          "type": "address"
        }
      ],
      "name": "changeTxFeeProperties",
      "outputs": [],
      "stateMutability": "nonpayable",
      "type": "function"
    },
    {
      "inputs": [],
      "name": "decimals",
      "outputs": [
        {
          "internalType": "uint8",
          "name": "",
          "type": "uint8"
        }
      ],
      "stateMutability": "view",
      "type": "function"
    },
    {
      "inputs": [
        {
          "internalType": "address",
          "name": "spender",
          "type": "address"
        },
        {
          "internalType": "uint256",
          "name": "subtractedValue",
          "type": "uint256"
        }
      ],
      "name": "decreaseAllowance",
      "outputs": [
        {
          "internalType": "bool",
          "name": "",
          "type": "bool"
        }
      ],
      "stateMutability": "nonpayable",
      "type": "function"
    },
    {
      "inputs": [],
      "name": "getImplementation",
      "outputs": [
        {
          "internalType": "address",
          "name": "",
          "type": "address"
        }
      ],
      "stateMutability": "view",
      "type": "function"
    },
    {
      "inputs": [
        {
          "internalType": "bytes32",
          "name": "role",
          "type": "bytes32"
        }
      ],
      "name": "getRoleAdmin",
      "outputs": [
        {
          "internalType": "bytes32",
          "name": "",
          "type": "bytes32"
        }
      ],
      "stateMutability": "view",
      "type": "function"
    },
    {
      "inputs": [
        {
          "internalType": "bytes32",
          "name": "role",
          "type": "bytes32"
        },
        {
          "internalType": "address",
          "name": "account",
          "type": "address"
        }
      ],
      "name": "grantRole",
      "outputs": [],
      "stateMutability": "nonpayable",
      "type": "function"
    },
    {
      "inputs": [
        {
          "internalType": "bytes32",
          "name": "role",
          "type": "bytes32"
        },
        {
          "internalType": "address",
          "name": "account",
          "type": "address"
        }
      ],
      "name": "hasRole",
      "outputs": [
        {
          "internalType": "bool",
          "name": "",
          "type": "bool"
        }
      ],
      "stateMutability": "view",
      "type": "function"
    },
    {
      "inputs": [
        {
          "internalType": "address",
          "name": "spender",
          "type": "address"
        },
        {
          "internalType": "uint256",
          "name": "addedValue",
          "type": "uint256"
        }
      ],
      "name": "increaseAllowance",
      "outputs": [
        {
          "internalType": "bool",
          "name": "",
          "type": "bool"
        }
      ],
      "stateMutability": "nonpayable",
      "type": "function"
    },
    {
      "inputs": [
        {
          "internalType": "string",
          "name": "name_",
          "type": "string"
        },
        {
          "internalType": "string",
          "name": "symbol_",
          "type": "string"
        },
        {
          "internalType": "uint8",
          "name": "decimals_",
          "type": "uint8"
        },
        {
          "internalType": "uint256",
          "name": "amount_",
          "type": "uint256"
        },
        {
          "internalType": "uint256",
          "name": "txFee",
          "type": "uint256"
        },
        {
          "internalType": "address",
          "name": "txFeeBeneficiary",
          "type": "address"
        }
      ],
      "name": "initialize",
      "outputs": [],
      "stateMutability": "nonpayable",
      "type": "function"
    },
    {
      "inputs": [
        {
          "internalType": "address",
          "name": "account",
          "type": "address"
        },
        {
          "internalType": "uint256",
          "name": "amount",
          "type": "uint256"
        }
      ],
      "name": "mint",
      "outputs": [],
      "stateMutability": "nonpayable",
      "type": "function"
    },
    {
      "inputs": [],
      "name": "name",
      "outputs": [
        {
          "internalType": "string",
          "name": "",
          "type": "string"
        }
      ],
      "stateMutability": "view",
      "type": "function"
    },
    {
      "inputs": [
        {
          "internalType": "address",
          "name": "implementationAddress",
          "type": "address"
        }
      ],
      "name": "proposeNewImplementation",
      "outputs": [],
      "stateMutability": "nonpayable",
      "type": "function"
    },
    {
      "inputs": [
        {
          "internalType": "bytes32",
          "name": "role",
          "type": "bytes32"
        },
        {
          "internalType": "address",
          "name": "account",
          "type": "address"
        }
      ],
      "name": "renounceRole",
      "outputs": [],
      "stateMutability": "nonpayable",
      "type": "function"
    },
    {
      "inputs": [
        {
          "internalType": "bytes32",
          "name": "role",
          "type": "bytes32"
        },
        {
          "internalType": "address",
          "name": "account",
          "type": "address"
        }
      ],
      "name": "revokeRole",
      "outputs": [],
      "stateMutability": "nonpayable",
      "type": "function"
    },
    {
      "inputs": [
        {
          "internalType": "bytes4",
          "name": "interfaceId",
          "type": "bytes4"
        }
      ],
      "name": "supportsInterface",
      "outputs": [
        {
          "internalType": "bool",
          "name": "",
          "type": "bool"
        }
      ],
      "stateMutability": "view",
      "type": "function"
    },
    {
      "inputs": [],
      "name": "symbol",
      "outputs": [
        {
          "internalType": "string",
          "name": "",
          "type": "string"
        }
      ],
      "stateMutability": "view",
      "type": "function"
    },
    {
      "inputs": [],
      "name": "totalSupply",
      "outputs": [
        {
          "internalType": "uint256",
          "name": "",
          "type": "uint256"
        }
      ],
      "stateMutability": "view",
      "type": "function"
    },
    {
      "inputs": [
        {
          "internalType": "address",
          "name": "recipient",
          "type": "address"
        },
        {
          "internalType": "uint256",
          "name": "amount",
          "type": "uint256"
        }
      ],
      "name": "transfer",
      "outputs": [
        {
          "internalType": "bool",
          "name": "",
          "type": "bool"
        }
      ],
      "stateMutability": "nonpayable",
      "type": "function"
    },
    {
      "inputs": [
        {
          "internalType": "address",
          "name": "sender",
          "type": "address"
        },
        {
          "internalType": "address",
          "name": "recipient",
          "type": "address"
        },
        {
          "internalType": "uint256",
          "name": "amount",
          "type": "uint256"
        }
      ],
      "name": "transferFrom",
      "outputs": [
        {
          "internalType": "bool",
          "name": "",
          "type": "bool"
        }
      ],
      "stateMutability": "nonpayable",
      "type": "function"
    },
    {
      "inputs": [
        {
          "internalType": "address",
          "name": "newImplementation",
          "type": "address"
        }
      ],
      "name": "upgradeTo",
      "outputs": [],
      "stateMutability": "nonpayable",
      "type": "function"
    },
    {
      "inputs": [
        {
          "internalType": "address",
          "name": "newImplementation",
          "type": "address"
        },
        {
          "internalType": "bytes",
          "name": "data",
          "type": "bytes"
        }
      ],
      "name": "upgradeToAndCall",
      "outputs": [],
      "stateMutability": "payable",
      "type": "function"
    }
  ],
  "bytecode": "0x60a06040523060601b60805234801561001757600080fd5b5060805160601c6123c261004b600039600081816108f10152818161093101528181610a680152610aa801526123c26000f3fe6080604052600436106101c25760003560e01c806347757fb6116100f7578063a217fddf11610095578063d539139311610064578063d539139314610514578063d547741f14610548578063dd62ed3e14610568578063f36c8f5c146105ae57600080fd5b8063a217fddf14610492578063a457c2d7146104a7578063a9059cbb146104c7578063aaf10f42146104e757600080fd5b80636ae459bd116100d15780636ae459bd1461040757806370a082311461042757806391d148541461045d57806395d89b411461047d57600080fd5b806347757fb6146103b45780634f1ef286146103d45780635120561a146103e757600080fd5b80632f2ff15d116101645780633659cfe61161013e5780633659cfe614610332578063395093511461035257806340c10f191461037257806343ffa64e1461039257600080fd5b80632f2ff15d146102cf578063313ce567146102ef57806336568abe1461031257600080fd5b806318160ddd116101a057806318160ddd1461023e57806323b872dd1461025d578063248a9ca31461027d5780632cd77a5a146102ad57600080fd5b806301ffc9a7146101c757806306fdde03146101fc578063095ea7b31461021e575b600080fd5b3480156101d357600080fd5b506101e76101e2366004611f61565b6105d0565b60405190151581526020015b60405180910390f35b34801561020857600080fd5b50610211610607565b6040516101f391906120bb565b34801561022a57600080fd5b506101e7610239366004611e8f565b610699565b34801561024a57600080fd5b506067545b6040519081526020016101f3565b34801561026957600080fd5b506101e7610278366004611df1565b6106af565b34801561028957600080fd5b5061024f610298366004611f25565b600090815260fb602052604090206001015490565b3480156102b957600080fd5b506102cd6102c8366004611f8b565b610760565b005b3480156102db57600080fd5b506102cd6102ea366004611f3e565b61083d565b3480156102fb57600080fd5b506101605460405160ff90911681526020016101f3565b34801561031e57600080fd5b506102cd61032d366004611f3e565b610868565b34801561033e57600080fd5b506102cd61034d366004611da3565b6108e6565b34801561035e57600080fd5b506101e761036d366004611e8f565b6109af565b34801561037e57600080fd5b506102cd61038d366004611e8f565b6109eb565b34801561039e57600080fd5b5061024f60008051602061230683398151915281565b3480156103c057600080fd5b506102cd6103cf366004611da3565b610a20565b6102cd6103e2366004611e2d565b610a5d565b3480156103f357600080fd5b506102cd610402366004611f3e565b610b13565b34801561041357600080fd5b506102cd610422366004611eb9565b610b88565b34801561043357600080fd5b5061024f610442366004611da3565b6001600160a01b031660009081526065602052604090205490565b34801561046957600080fd5b506101e7610478366004611f3e565b610c67565b34801561048957600080fd5b50610211610c92565b34801561049e57600080fd5b5061024f600081565b3480156104b357600080fd5b506101e76104c2366004611e8f565b610ca1565b3480156104d357600080fd5b506101e76104e2366004611e8f565b610d3a565b3480156104f357600080fd5b506104fc610d47565b6040516001600160a01b0390911681526020016101f3565b34801561052057600080fd5b5061024f7ff9424f4303d7f03683a025eb8885734ad99b47df7749d9b0a02cbc985809700b81565b34801561055457600080fd5b506102cd610563366004611f3e565b610d56565b34801561057457600080fd5b5061024f610583366004611dbe565b6001600160a01b03918216600090815260666020908152604080832093909416825291909152205490565b3480156105ba57600080fd5b5061024f60008051602061232683398151915281565b60006001600160e01b03198216637965db0b60e01b148061060157506301ffc9a760e01b6001600160e01b03198316145b92915050565b6060606880546106169061226d565b80601f01602080910402602001604051908101604052809291908181526020018280546106429061226d565b801561068f5780601f106106645761010080835404028352916020019161068f565b820191906000526020600020905b81548152906001019060200180831161067257829003601f168201915b5050505050905090565b60006106a6338484610d7c565b50600192915050565b60006106bc848484610ea0565b6001600160a01b0384166000908152606660209081526040808320338452909152902054828110156107465760405162461bcd60e51b815260206004820152602860248201527f45524332303a207472616e7366657220616d6f756e74206578636565647320616044820152676c6c6f77616e636560c01b60648201526084015b60405180910390fd5b6107538533858403610d7c565b60019150505b9392505050565b600054610100900460ff1661077b5760005460ff161561077f565b303b155b6107e25760405162461bcd60e51b815260206004820152602e60248201527f496e697469616c697a61626c653a20636f6e747261637420697320616c72656160448201526d191e481a5b9a5d1a585b1a5e995960921b606482015260840161073d565b600054610100900460ff16158015610804576000805461ffff19166101011790555b6108108787878761107b565b6108186110be565b61082283836110e7565b8015610834576000805461ff00191690555b50505050505050565b600082815260fb60205260409020600101546108598133611176565b61086383836111da565b505050565b6001600160a01b03811633146108d85760405162461bcd60e51b815260206004820152602f60248201527f416363657373436f6e74726f6c3a2063616e206f6e6c792072656e6f756e636560448201526e103937b632b9903337b91039b2b63360891b606482015260840161073d565b6108e28282611260565b5050565b306001600160a01b037f000000000000000000000000000000000000000000000000000000000000000016141561092f5760405162461bcd60e51b815260040161073d906120ee565b7f00000000000000000000000000000000000000000000000000000000000000006001600160a01b03166109616112c7565b6001600160a01b0316146109875760405162461bcd60e51b815260040161073d9061213a565b610990816112f5565b604080516000808252602082019092526109ac91839190611377565b50565b3360008181526066602090815260408083206001600160a01b038716845290915281205490916106a69185906109e69086906121d1565b610d7c565b7ff9424f4303d7f03683a025eb8885734ad99b47df7749d9b0a02cbc985809700b610a168133611176565b61086383836114c2565b600080516020612326833981519152610a398133611176565b5061012d80546001600160a01b0319166001600160a01b0392909216919091179055565b306001600160a01b037f0000000000000000000000000000000000000000000000000000000000000000161415610aa65760405162461bcd60e51b815260040161073d906120ee565b7f00000000000000000000000000000000000000000000000000000000000000006001600160a01b0316610ad86112c7565b6001600160a01b031614610afe5760405162461bcd60e51b815260040161073d9061213a565b610b07826112f5565b6108e282826001611377565b6000610b1f8133611176565b6001600160a01b038216610b3257600080fd5b8260008051602061234683398151915255817fe38b16c806f019542b2d4bf356bb4ba2ea4b7eb450b8fbff2584f6084c4978f180546001600160a01b0319166001600160a01b0392909216919091179055505050565b7ff9424f4303d7f03683a025eb8885734ad99b47df7749d9b0a02cbc985809700b610bb38133611176565b838214610bfa5760405162461bcd60e51b8152602060048201526015602482015274082e4e4c2f240d8cadccee8d040dad2e6dac2e8c6d605b1b604482015260640161073d565b60005b84811015610c5f57610c4d868683818110610c1a57610c1a6122d9565b9050602002016020810190610c2f9190611da3565b858584818110610c4157610c416122d9565b905060200201356114c2565b80610c57816122a8565b915050610bfd565b505050505050565b600091825260fb602090815260408084206001600160a01b0393909316845291905290205460ff1690565b6060606980546106169061226d565b3360009081526066602090815260408083206001600160a01b038616845290915281205482811015610d235760405162461bcd60e51b815260206004820152602560248201527f45524332303a2064656372656173656420616c6c6f77616e63652062656c6f77604482015264207a65726f60d81b606482015260840161073d565b610d303385858403610d7c565b5060019392505050565b60006106a6338484610ea0565b6000610d516112c7565b905090565b600082815260fb6020526040902060010154610d728133611176565b6108638383611260565b6001600160a01b038316610dde5760405162461bcd60e51b8152602060048201526024808201527f45524332303a20617070726f76652066726f6d20746865207a65726f206164646044820152637265737360e01b606482015260840161073d565b6001600160a01b038216610e3f5760405162461bcd60e51b815260206004820152602260248201527f45524332303a20617070726f766520746f20746865207a65726f206164647265604482015261737360f01b606482015260840161073d565b6001600160a01b0383811660008181526066602090815260408083209487168084529482529182902085905590518481527f8c5be1e5ebec7d5bd14f71427d1e84f3dd0314c0f7b2291e5b200ac8c7c3b925910160405180910390a3505050565b6001600160a01b038316610f045760405162461bcd60e51b815260206004820152602560248201527f45524332303a207472616e736665722066726f6d20746865207a65726f206164604482015264647265737360d81b606482015260840161073d565b6001600160a01b038216610f665760405162461bcd60e51b815260206004820152602360248201527f45524332303a207472616e7366657220746f20746865207a65726f206164647260448201526265737360e81b606482015260840161073d565b610f718383836115ad565b6001600160a01b03831660009081526065602052604090205481811015610fe95760405162461bcd60e51b815260206004820152602660248201527f45524332303a207472616e7366657220616d6f756e7420657863656564732062604482015265616c616e636560d01b606482015260840161073d565b6001600160a01b038085166000908152606560205260408082208585039055918516815290812080548492906110209084906121d1565b92505081905550826001600160a01b0316846001600160a01b03167fddf252ad1be2c89b69c2b068fc378daa952ba7f163c4a11628f55a4df523b3ef8460405161106c91815260200190565b60405180910390a35b50505050565b600054610100900460ff166110a25760405162461bcd60e51b815260040161073d90612186565b6110aa6115b8565b6110b4848461160f565b611075828261165d565b600054610100900460ff166110e55760405162461bcd60e51b815260040161073d90612186565b565b600054610100900460ff1661110e5760405162461bcd60e51b815260040161073d90612186565b6001600160a01b03811661112157600080fd5b8160008051602061234683398151915255807fe38b16c806f019542b2d4bf356bb4ba2ea4b7eb450b8fbff2584f6084c4978f180546001600160a01b0319166001600160a01b03929092169190911790555050565b6111808282610c67565b6108e257611198816001600160a01b0316601461169e565b6111a383602061169e565b6040516020016111b4929190612046565b60408051601f198184030181529082905262461bcd60e51b825261073d916004016120bb565b6111e48282610c67565b6108e257600082815260fb602090815260408083206001600160a01b03851684529091529020805460ff1916600117905561121c3390565b6001600160a01b0316816001600160a01b0316837f2f8788117e7eff1d82e926ec794901d17c78024a50270940304540a733656f0d60405160405180910390a45050565b61126a8282610c67565b156108e257600082815260fb602090815260408083206001600160a01b0385168085529252808320805460ff1916905551339285917ff6391f5c32d9c69d2a47ea670b442974b53935d1edc7fd64eb21e047a839171b9190a45050565b7f360894a13ba1a3210667c828492db98dca3e2076cc3735a920a3ca505d382bbc546001600160a01b031690565b61130d60008051602061232683398151915233610c67565b8061132b575061132b60008051602061230683398151915233610c67565b6109ac5760405162461bcd60e51b815260206004820152601d60248201527f4552524f523a2041646472657373206e6f7420617574686f72697a6564000000604482015260640161073d565b60006113816112c7565b905061138c8461183a565b6000835111806113995750815b156113aa576113a884846118df565b505b7f4910fdfa16fed3260ed0e7147f7cc6da11a60208b5b9406d12a635614ffd9143805460ff166114bb57805460ff191660011781556040516001600160a01b038316602482015261142990869060440160408051601f198184030181529190526020810180516001600160e01b0316631b2ce7f360e11b1790526118df565b50805460ff1916815561143a6112c7565b6001600160a01b0316826001600160a01b0316146114b25760405162461bcd60e51b815260206004820152602f60248201527f45524331393637557067726164653a207570677261646520627265616b73206660448201526e75727468657220757067726164657360881b606482015260840161073d565b6114bb856119ca565b5050505050565b6001600160a01b0382166115185760405162461bcd60e51b815260206004820152601f60248201527f45524332303a206d696e7420746f20746865207a65726f206164647265737300604482015260640161073d565b611524600083836115ad565b806067600082825461153691906121d1565b90915550506001600160a01b038216600090815260656020526040812080548392906115639084906121d1565b90915550506040518181526001600160a01b038316906000907fddf252ad1be2c89b69c2b068fc378daa952ba7f163c4a11628f55a4df523b3ef9060200160405180910390a35050565b610863838383611a0a565b600054610100900460ff166115df5760405162461bcd60e51b815260040161073d90612186565b6115e76110be565b6115ef6110be565b6115f76110be565b6115ff6110be565b6116076110be565b6110e5611a15565b600054610100900460ff166116365760405162461bcd60e51b815260040161073d90612186565b8151611649906068906020850190611c0c565b508051610863906069906020840190611c0c565b600054610100900460ff166116845760405162461bcd60e51b815260040161073d90612186565b610160805460ff191660ff84161790556108e233826114c2565b606060006116ad83600261220b565b6116b89060026121d1565b67ffffffffffffffff8111156116d0576116d06122ef565b6040519080825280601f01601f1916602001820160405280156116fa576020820181803683370190505b509050600360fc1b81600081518110611715576117156122d9565b60200101906001600160f81b031916908160001a905350600f60fb1b81600181518110611744576117446122d9565b60200101906001600160f81b031916908160001a905350600061176884600261220b565b6117739060016121d1565b90505b60018111156117eb576f181899199a1a9b1b9c1cb0b131b232b360811b85600f16601081106117a7576117a76122d9565b1a60f81b8282815181106117bd576117bd6122d9565b60200101906001600160f81b031916908160001a90535060049490941c936117e481612256565b9050611776565b5083156107595760405162461bcd60e51b815260206004820181905260248201527f537472696e67733a20686578206c656e67746820696e73756666696369656e74604482015260640161073d565b803b61189e5760405162461bcd60e51b815260206004820152602d60248201527f455243313936373a206e657720696d706c656d656e746174696f6e206973206e60448201526c1bdd08184818dbdb9d1c9858dd609a1b606482015260840161073d565b7f360894a13ba1a3210667c828492db98dca3e2076cc3735a920a3ca505d382bbc80546001600160a01b0319166001600160a01b0392909216919091179055565b6060823b61193e5760405162461bcd60e51b815260206004820152602660248201527f416464726573733a2064656c65676174652063616c6c20746f206e6f6e2d636f6044820152651b9d1c9858dd60d21b606482015260840161073d565b600080846001600160a01b031684604051611959919061202a565b600060405180830381855af49150503d8060008114611994576040519150601f19603f3d011682016040523d82523d6000602084013e611999565b606091505b50915091506119c1828260405180606001604052806027815260200161236660279139611a9d565b95945050505050565b6119d38161183a565b6040516001600160a01b038216907fbc7cd75a20ee27fd9adebab32041f755214dbc6bffa90cc0225b39da2e5c2d3b90600090a250565b610863838383611ad6565b600054610100900460ff16611a3c5760405162461bcd60e51b815260040161073d90612186565b611a47600033611bb7565b611a5f60008051602061232683398151915233611bb7565b611a7760008051602061230683398151915233611bb7565b6110e5600080516020612306833981519152600080516020612326833981519152611bc1565b60608315611aac575081610759565b825115611abc5782518084602001fd5b8160405162461bcd60e51b815260040161073d91906120bb565b600080516020612346833981519152547fe38b16c806f019542b2d4bf356bb4ba2ea4b7eb450b8fbff2584f6084c4978f1546001600160a01b0316811580611b2f5750836001600160a01b0316816001600160a01b0316145b80611b4b5750846001600160a01b0316816001600160a01b0316145b80611b5d57506001600160a01b038516155b80611b6f57506001600160a01b038416155b15611b7b575050505050565b6000670de0b6b3a764000060008051602061234683398151915254611ba0908661220b565b611baa91906121e9565b9050610c5f868383610ea0565b6108e282826111da565b600082815260fb6020526040808220600101805490849055905190918391839186917fbd79b86ffe0ab8e8776151514217cd7cacd52c909f66475c3af44e129f0b00ff9190a4505050565b828054611c189061226d565b90600052602060002090601f016020900481019282611c3a5760008555611c80565b82601f10611c5357805160ff1916838001178555611c80565b82800160010185558215611c80579182015b82811115611c80578251825591602001919060010190611c65565b50611c8c929150611c90565b5090565b5b80821115611c8c5760008155600101611c91565b600067ffffffffffffffff80841115611cc057611cc06122ef565b604051601f8501601f19908116603f01168101908282118183101715611ce857611ce86122ef565b81604052809350858152868686011115611d0157600080fd5b858560208301376000602087830101525050509392505050565b80356001600160a01b0381168114611d3257600080fd5b919050565b60008083601f840112611d4957600080fd5b50813567ffffffffffffffff811115611d6157600080fd5b6020830191508360208260051b8501011115611d7c57600080fd5b9250929050565b600082601f830112611d9457600080fd5b61075983833560208501611ca5565b600060208284031215611db557600080fd5b61075982611d1b565b60008060408385031215611dd157600080fd5b611dda83611d1b565b9150611de860208401611d1b565b90509250929050565b600080600060608486031215611e0657600080fd5b611e0f84611d1b565b9250611e1d60208501611d1b565b9150604084013590509250925092565b60008060408385031215611e4057600080fd5b611e4983611d1b565b9150602083013567ffffffffffffffff811115611e6557600080fd5b8301601f81018513611e7657600080fd5b611e8585823560208401611ca5565b9150509250929050565b60008060408385031215611ea257600080fd5b611eab83611d1b565b946020939093013593505050565b60008060008060408587031215611ecf57600080fd5b843567ffffffffffffffff80821115611ee757600080fd5b611ef388838901611d37565b90965094506020870135915080821115611f0c57600080fd5b50611f1987828801611d37565b95989497509550505050565b600060208284031215611f3757600080fd5b5035919050565b60008060408385031215611f5157600080fd5b82359150611de860208401611d1b565b600060208284031215611f7357600080fd5b81356001600160e01b03198116811461075957600080fd5b60008060008060008060c08789031215611fa457600080fd5b863567ffffffffffffffff80821115611fbc57600080fd5b611fc88a838b01611d83565b97506020890135915080821115611fde57600080fd5b50611feb89828a01611d83565b955050604087013560ff8116811461200257600080fd5b9350606087013592506080870135915061201e60a08801611d1b565b90509295509295509295565b6000825161203c81846020870161222a565b9190910192915050565b7f416363657373436f6e74726f6c3a206163636f756e742000000000000000000081526000835161207e81601785016020880161222a565b7001034b99036b4b9b9b4b733903937b6329607d1b60179184019182015283516120af81602884016020880161222a565b01602801949350505050565b60208152600082518060208401526120da81604085016020870161222a565b601f01601f19169190910160400192915050565b6020808252602c908201527f46756e6374696f6e206d7573742062652063616c6c6564207468726f7567682060408201526b19195b1959d85d1958d85b1b60a21b606082015260800190565b6020808252602c908201527f46756e6374696f6e206d7573742062652063616c6c6564207468726f7567682060408201526b6163746976652070726f787960a01b606082015260800190565b6020808252602b908201527f496e697469616c697a61626c653a20636f6e7472616374206973206e6f74206960408201526a6e697469616c697a696e6760a81b606082015260800190565b600082198211156121e4576121e46122c3565b500190565b60008261220657634e487b7160e01b600052601260045260246000fd5b500490565b6000816000190483118215151615612225576122256122c3565b500290565b60005b8381101561224557818101518382015260200161222d565b838111156110755750506000910152565b600081612265576122656122c3565b506000190190565b600181811c9082168061228157607f821691505b602082108114156122a257634e487b7160e01b600052602260045260246000fd5b50919050565b60006000198214156122bc576122bc6122c3565b5060010190565b634e487b7160e01b600052601160045260246000fd5b634e487b7160e01b600052603260045260246000fd5b634e487b7160e01b600052604160045260246000fdfea76ace73a908083d89af9ff88e5b4f7cadb3591a80631063f68b695fda726db571840dc4906352362b0cdaf79870196c8e42acafade72d5d5a6d59291253ceb1253122b26cc2118faf5fcfc7761bd75fcfb5508f1f48d1a40db694aba32af5d0416464726573733a206c6f772d6c6576656c2064656c65676174652063616c6c206661696c6564a2646970667358221220d98c0d49e20c310072183a0b6d5e3f2250643b4ab1ceb37205afafa3323e6e3364736f6c63430008060033",
  "linkReferences": {},
  "deployedLinkReferences": {}
}