{
  "_format": "hh-sol-artifact-1",
  "name": "MintTxFeeWhiteListTemplate",
  "initializer": "function initialize(string name_, string symbol_, uint8 decimals_, uint256 amount_, uint256 txFee, address txFeeBeneficiary)",
  "sourceName": "contracts/templates/MintTxFeeWhiteListTemplate.sol",
  "abi": [
    {
      "anonymous": false,
      "inputs": [
        {
          "indexed": false,
          "internalType": "address",
          "name": "previousAdmin",
          "type": "address"
        },
        {
          "indexed": false,
          "internalType": "address",
          "name": "newAdmin",
          "type": "address"
        }
      ],
      "name": "AdminChanged",
      "type": "event"
    },
    {
      "anonymous": false,
      "inputs": [
        {
          "indexed": true,
          "internalType": "address",
          "name": "owner",
          "type": "address"
        },
        {
          "indexed": true,
          "internalType": "address",
          "name": "spender",
          "type": "address"
        },
        {
          "indexed": false,
          "internalType": "uint256",
          "name": "value",
          "type": "uint256"
        }
      ],
      "name": "Approval",
      "type": "event"
    },
    {
      "anonymous": false,
      "inputs": [
        {
          "indexed": true,
          "internalType": "address",
          "name": "beacon",
          "type": "address"
        }
      ],
      "name": "BeaconUpgraded",
      "type": "event"
    },
    {
      "anonymous": false,
      "inputs": [
        {
          "indexed": false,
          "internalType": "address",
          "name": "account",
          "type": "address"
        }
      ],
      "name": "Paused",
      "type": "event"
    },
    {
      "anonymous": false,
      "inputs": [
        {
          "indexed": true,
          "internalType": "bytes32",
          "name": "role",
          "type": "bytes32"
        },
        {
          "indexed": true,
          "internalType": "bytes32",
          "name": "previousAdminRole",
          "type": "bytes32"
        },
        {
          "indexed": true,
          "internalType": "bytes32",
          "name": "newAdminRole",
          "type": "bytes32"
        }
      ],
      "name": "RoleAdminChanged",
      "type": "event"
    },
    {
      "anonymous": false,
      "inputs": [
        {
          "indexed": true,
          "internalType": "bytes32",
          "name": "role",
          "type": "bytes32"
        },
        {
          "indexed": true,
          "internalType": "address",
          "name": "account",
          "type": "address"
        },
        {
          "indexed": true,
          "internalType": "address",
          "name": "sender",
          "type": "address"
        }
      ],
      "name": "RoleGranted",
      "type": "event"
    },
    {
      "anonymous": false,
      "inputs": [
        {
          "indexed": true,
          "internalType": "bytes32",
          "name": "role",
          "type": "bytes32"
        },
        {
          "indexed": true,
          "internalType": "address",
          "name": "account",
          "type": "address"
        },
        {
          "indexed": true,
          "internalType": "address",
          "name": "sender",
          "type": "address"
        }
      ],
      "name": "RoleRevoked",
      "type": "event"
    },
    {
      "anonymous": false,
      "inputs": [
        {
          "indexed": true,
          "internalType": "address",
          "name": "from",
          "type": "address"
        },
        {
          "indexed": true,
          "internalType": "address",
          "name": "to",
          "type": "address"
        },
        {
          "indexed": false,
          "internalType": "uint256",
          "name": "value",
          "type": "uint256"
        }
      ],
      "name": "Transfer",
      "type": "event"
    },
    {
      "anonymous": false,
      "inputs": [
        {
          "indexed": false,
          "internalType": "address",
          "name": "account",
          "type": "address"
        }
      ],
      "name": "Unpaused",
      "type": "event"
    },
    {
      "anonymous": false,
      "inputs": [
        {
          "indexed": true,
          "internalType": "address",
          "name": "implementation",
          "type": "address"
        }
      ],
      "name": "Upgraded",
      "type": "event"
    },
    {
      "inputs": [],
      "name": "DEFAULT_ADMIN_ROLE",
      "outputs": [
        {
          "internalType": "bytes32",
          "name": "",
          "type": "bytes32"
        }
      ],
      "stateMutability": "view",
      "type": "function"
    },
    {
      "inputs": [],
      "name": "GOVERNANCE_ROLE",
      "outputs": [
        {
          "internalType": "bytes32",
          "name": "",
          "type": "bytes32"
        }
      ],
      "stateMutability": "view",
      "type": "function"
    },
    {
      "inputs": [],
      "name": "MINTER_ROLE",
      "outputs": [
        {
          "internalType": "bytes32",
          "name": "",
          "type": "bytes32"
        }
      ],
      "stateMutability": "view",
      "type": "function"
    },
    {
      "inputs": [],
      "name": "PAUSE_MANAGER_ROLE",
      "outputs": [
        {
          "internalType": "bytes32",
          "name": "",
          "type": "bytes32"
        }
      ],
      "stateMutability": "view",
      "type": "function"
    },
    {
      "inputs": [],
      "name": "UPGRADE_MANAGER_ROLE",
      "outputs": [
        {
          "internalType": "bytes32",
          "name": "",
          "type": "bytes32"
        }
      ],
      "stateMutability": "view",
      "type": "function"
    },
    {
      "inputs": [],
      "name": "WHITELISTED_FROM_ROLE",
      "outputs": [
        {
          "internalType": "bytes32",
          "name": "",
          "type": "bytes32"
        }
      ],
      "stateMutability": "view",
      "type": "function"
    },
    {
      "inputs": [],
      "name": "WHITELISTED_SENDER_ROLE",
      "outputs": [
        {
          "internalType": "bytes32",
          "name": "",
          "type": "bytes32"
        }
      ],
      "stateMutability": "view",
      "type": "function"
    },
    {
      "inputs": [
        {
          "internalType": "address[]",
          "name": "addresses",
          "type": "address[]"
        }
      ],
      "name": "addAddressesToWhitelistFrom",
      "outputs": [],
      "stateMutability": "nonpayable",
      "type": "function"
    },
    {
      "inputs": [
        {
          "internalType": "address[]",
          "name": "addresses",
          "type": "address[]"
        }
      ],
      "name": "addAddressesToWhitelistSender",
      "outputs": [],
      "stateMutability": "nonpayable",
      "type": "function"
    },
    {
      "inputs": [
        {
          "internalType": "address",
          "name": "owner",
          "type": "address"
        },
        {
          "internalType": "address",
          "name": "spender",
          "type": "address"
        }
      ],
      "name": "allowance",
      "outputs": [
        {
          "internalType": "uint256",
          "name": "",
          "type": "uint256"
        }
      ],
      "stateMutability": "view",
      "type": "function"
    },
    {
      "inputs": [
        {
          "internalType": "address",
          "name": "spender",
          "type": "address"
        },
        {
          "internalType": "uint256",
          "name": "amount",
          "type": "uint256"
        }
      ],
      "name": "approve",
      "outputs": [
        {
          "internalType": "bool",
          "name": "",
          "type": "bool"
        }
      ],
      "stateMutability": "nonpayable",
      "type": "function"
    },
    {
      "inputs": [
        {
          "internalType": "address",
          "name": "account",
          "type": "address"
        }
      ],
      "name": "balanceOf",
      "outputs": [
        {
          "internalType": "uint256",
          "name": "",
          "type": "uint256"
        }
      ],
      "stateMutability": "view",
      "type": "function"
    },
    {
      "inputs": [
        {
          "internalType": "address[]",
          "name": "accounts",
          "type": "address[]"
        },
        {
          "internalType": "uint256[]",
          "name": "amounts",
          "type": "uint256[]"
        }
      ],
      "name": "bulkMint",
      "outputs": [],
      "stateMutability": "nonpayable",
      "type": "function"
    },
    {
      "inputs": [
        {
          "internalType": "uint256",
          "name": "newTxFee",
          "type": "uint256"
        },
        {
          "internalType": "address",
          "name": "newTxBeneficiary",
          "type": "address"
        }
      ],
      "name": "changeTxFeeProperties",
      "outputs": [],
      "stateMutability": "nonpayable",
      "type": "function"
    },
    {
      "inputs": [],
      "name": "decimals",
      "outputs": [
        {
          "internalType": "uint8",
          "name": "",
          "type": "uint8"
        }
      ],
      "stateMutability": "view",
      "type": "function"
    },
    {
      "inputs": [
        {
          "internalType": "address",
          "name": "spender",
          "type": "address"
        },
        {
          "internalType": "uint256",
          "name": "subtractedValue",
          "type": "uint256"
        }
      ],
      "name": "decreaseAllowance",
      "outputs": [
        {
          "internalType": "bool",
          "name": "",
          "type": "bool"
        }
      ],
      "stateMutability": "nonpayable",
      "type": "function"
    },
    {
      "inputs": [],
      "name": "getImplementation",
      "outputs": [
        {
          "internalType": "address",
          "name": "",
          "type": "address"
        }
      ],
      "stateMutability": "view",
      "type": "function"
    },
    {
      "inputs": [
        {
          "internalType": "bytes32",
          "name": "role",
          "type": "bytes32"
        }
      ],
      "name": "getRoleAdmin",
      "outputs": [
        {
          "internalType": "bytes32",
          "name": "",
          "type": "bytes32"
        }
      ],
      "stateMutability": "view",
      "type": "function"
    },
    {
      "inputs": [
        {
          "internalType": "bytes32",
          "name": "role",
          "type": "bytes32"
        },
        {
          "internalType": "address",
          "name": "account",
          "type": "address"
        }
      ],
      "name": "grantRole",
      "outputs": [],
      "stateMutability": "nonpayable",
      "type": "function"
    },
    {
      "inputs": [
        {
          "internalType": "bytes32",
          "name": "role",
          "type": "bytes32"
        },
        {
          "internalType": "address",
          "name": "account",
          "type": "address"
        }
      ],
      "name": "hasRole",
      "outputs": [
        {
          "internalType": "bool",
          "name": "",
          "type": "bool"
        }
      ],
      "stateMutability": "view",
      "type": "function"
    },
    {
      "inputs": [
        {
          "internalType": "address",
          "name": "spender",
          "type": "address"
        },
        {
          "internalType": "uint256",
          "name": "addedValue",
          "type": "uint256"
        }
      ],
      "name": "increaseAllowance",
      "outputs": [
        {
          "internalType": "bool",
          "name": "",
          "type": "bool"
        }
      ],
      "stateMutability": "nonpayable",
      "type": "function"
    },
    {
      "inputs": [
        {
          "internalType": "string",
          "name": "name_",
          "type": "string"
        },
        {
          "internalType": "string",
          "name": "symbol_",
          "type": "string"
        },
        {
          "internalType": "uint8",
          "name": "decimals_",
          "type": "uint8"
        },
        {
          "internalType": "uint256",
          "name": "amount_",
          "type": "uint256"
        },
        {
          "internalType": "uint256",
          "name": "txFee",
          "type": "uint256"
        },
        {
          "internalType": "address",
          "name": "txFeeBeneficiary",
          "type": "address"
        }
      ],
      "name": "initialize",
      "outputs": [],
      "stateMutability": "nonpayable",
      "type": "function"
    },
    {
      "inputs": [
        {
          "internalType": "address",
          "name": "account",
          "type": "address"
        },
        {
          "internalType": "uint256",
          "name": "amount",
          "type": "uint256"
        }
      ],
      "name": "mint",
      "outputs": [],
      "stateMutability": "nonpayable",
      "type": "function"
    },
    {
      "inputs": [],
      "name": "name",
      "outputs": [
        {
          "internalType": "string",
          "name": "",
          "type": "string"
        }
      ],
      "stateMutability": "view",
      "type": "function"
    },
    {
      "inputs": [],
      "name": "pause",
      "outputs": [],
      "stateMutability": "nonpayable",
      "type": "function"
    },
    {
      "inputs": [],
      "name": "paused",
      "outputs": [
        {
          "internalType": "bool",
          "name": "",
          "type": "bool"
        }
      ],
      "stateMutability": "view",
      "type": "function"
    },
    {
      "inputs": [
        {
          "internalType": "address",
          "name": "implementationAddress",
          "type": "address"
        }
      ],
      "name": "proposeNewImplementation",
      "outputs": [],
      "stateMutability": "nonpayable",
      "type": "function"
    },
    {
      "inputs": [
        {
          "internalType": "address[]",
          "name": "addresses",
          "type": "address[]"
        }
      ],
      "name": "removeAddressesFromWhitelistFrom",
      "outputs": [],
      "stateMutability": "nonpayable",
      "type": "function"
    },
    {
      "inputs": [
        {
          "internalType": "address[]",
          "name": "addresses",
          "type": "address[]"
        }
      ],
      "name": "removeAddressesFromWhitelistSender",
      "outputs": [],
      "stateMutability": "nonpayable",
      "type": "function"
    },
    {
      "inputs": [
        {
          "internalType": "bytes32",
          "name": "role",
          "type": "bytes32"
        },
        {
          "internalType": "address",
          "name": "account",
          "type": "address"
        }
      ],
      "name": "renounceRole",
      "outputs": [],
      "stateMutability": "nonpayable",
      "type": "function"
    },
    {
      "inputs": [
        {
          "internalType": "bytes32",
          "name": "role",
          "type": "bytes32"
        },
        {
          "internalType": "address",
          "name": "account",
          "type": "address"
        }
      ],
      "name": "revokeRole",
      "outputs": [],
      "stateMutability": "nonpayable",
      "type": "function"
    },
    {
      "inputs": [
        {
          "internalType": "bytes4",
          "name": "interfaceId",
          "type": "bytes4"
        }
      ],
      "name": "supportsInterface",
      "outputs": [
        {
          "internalType": "bool",
          "name": "",
          "type": "bool"
        }
      ],
      "stateMutability": "view",
      "type": "function"
    },
    {
      "inputs": [],
      "name": "symbol",
      "outputs": [
        {
          "internalType": "string",
          "name": "",
          "type": "string"
        }
      ],
      "stateMutability": "view",
      "type": "function"
    },
    {
      "inputs": [],
      "name": "totalSupply",
      "outputs": [
        {
          "internalType": "uint256",
          "name": "",
          "type": "uint256"
        }
      ],
      "stateMutability": "view",
      "type": "function"
    },
    {
      "inputs": [
        {
          "internalType": "address",
          "name": "recipient",
          "type": "address"
        },
        {
          "internalType": "uint256",
          "name": "amount",
          "type": "uint256"
        }
      ],
      "name": "transfer",
      "outputs": [
        {
          "internalType": "bool",
          "name": "",
          "type": "bool"
        }
      ],
      "stateMutability": "nonpayable",
      "type": "function"
    },
    {
      "inputs": [
        {
          "internalType": "address",
          "name": "sender",
          "type": "address"
        },
        {
          "internalType": "address",
          "name": "recipient",
          "type": "address"
        },
        {
          "internalType": "uint256",
          "name": "amount",
          "type": "uint256"
        }
      ],
      "name": "transferFrom",
      "outputs": [
        {
          "internalType": "bool",
          "name": "",
          "type": "bool"
        }
      ],
      "stateMutability": "nonpayable",
      "type": "function"
    },
    {
      "inputs": [],
      "name": "unpause",
      "outputs": [],
      "stateMutability": "nonpayable",
      "type": "function"
    },
    {
      "inputs": [
        {
          "internalType": "address",
          "name": "newImplementation",
          "type": "address"
        }
      ],
      "name": "upgradeTo",
      "outputs": [],
      "stateMutability": "nonpayable",
      "type": "function"
    },
    {
      "inputs": [
        {
          "internalType": "address",
          "name": "newImplementation",
          "type": "address"
        },
        {
          "internalType": "bytes",
          "name": "data",
          "type": "bytes"
        }
      ],
      "name": "upgradeToAndCall",
      "outputs": [],
      "stateMutability": "payable",
      "type": "function"
    }
  ],
  "bytecode": "0x60a06040523060601b60805234801561001757600080fd5b5060805160601c612a8161004b60003960008181610a9c01528181610adc01528181610c340152610c740152612a816000f3fe6080604052600436106102305760003560e01c8063685ed81a1161012e578063a9059cbb116100ab578063d547741f1161006f578063d547741f146106a9578063d84f91e8146106c9578063dd62ed3e146106eb578063f36c8f5c14610731578063f834c5021461075357600080fd5b8063a9059cbb146105e6578063aa74a34a14610606578063aaf10f4214610628578063c233f3b714610655578063d53913931461067557600080fd5b80638456cb59116100f25780638456cb591461056757806391d148541461057c57806395d89b411461059c578063a217fddf146105b1578063a457c2d7146105c657600080fd5b8063685ed81a146104af5780636ae459bd146104cf5780636e79a1c0146104ef57806370a082311461050f578063731ce8fc1461054557600080fd5b806336568abe116101bc57806343ffa64e1161018057806343ffa64e1461041557806347757fb6146104375780634f1ef286146104575780635120561a1461046a5780635c975abb1461048a57600080fd5b806336568abe146103805780633659cfe6146103a057806339509351146103c05780633f4ba83a146103e057806340c10f19146103f557600080fd5b806323b872dd1161020357806323b872dd146102cb578063248a9ca3146102eb5780632cd77a5a1461031b5780632f2ff15d1461033d578063313ce5671461035d57600080fd5b806301ffc9a71461023557806306fdde031461026a578063095ea7b31461028c57806318160ddd146102ac575b600080fd5b34801561024157600080fd5b506102556102503660046125a0565b610773565b60405190151581526020015b60405180910390f35b34801561027657600080fd5b5061027f6107aa565b60405161026191906126fa565b34801561029857600080fd5b506102556102a736600461248c565b61083c565b3480156102b857600080fd5b506067545b604051908152602001610261565b3480156102d757600080fd5b506102556102e63660046123ee565b610852565b3480156102f757600080fd5b506102bd610306366004612564565b600090815260fb602052604090206001015490565b34801561032757600080fd5b5061033b6103363660046125ca565b610903565b005b34801561034957600080fd5b5061033b61035836600461257d565b6109e8565b34801561036957600080fd5b506101605460405160ff9091168152602001610261565b34801561038c57600080fd5b5061033b61039b36600461257d565b610a13565b3480156103ac57600080fd5b5061033b6103bb3660046123a0565b610a91565b3480156103cc57600080fd5b506102556103db36600461248c565b610b5a565b3480156103ec57600080fd5b5061033b610b96565b34801561040157600080fd5b5061033b61041036600461248c565b610bb7565b34801561042157600080fd5b506102bd60008051602061296583398151915281565b34801561044357600080fd5b5061033b6104523660046123a0565b610bec565b61033b61046536600461242a565b610c29565b34801561047657600080fd5b5061033b61048536600461257d565b610cdf565b34801561049657600080fd5b50600080516020612a0c8339815191525460ff16610255565b3480156104bb57600080fd5b5061033b6104ca3660046124b6565b610d54565b3480156104db57600080fd5b5061033b6104ea3660046124f8565b610dc9565b3480156104fb57600080fd5b5061033b61050a3660046124b6565b610ea8565b34801561051b57600080fd5b506102bd61052a3660046123a0565b6001600160a01b031660009081526065602052604090205490565b34801561055157600080fd5b506102bd600080516020612a2c83398151915281565b34801561057357600080fd5b5061033b610f17565b34801561058857600080fd5b5061025561059736600461257d565b610f38565b3480156105a857600080fd5b5061027f610f63565b3480156105bd57600080fd5b506102bd600081565b3480156105d257600080fd5b506102556105e136600461248c565b610f72565b3480156105f257600080fd5b5061025561060136600461248c565b61100b565b34801561061257600080fd5b506102bd60008051602061294583398151915281565b34801561063457600080fd5b5061063d611018565b6040516001600160a01b039091168152602001610261565b34801561066157600080fd5b5061033b6106703660046124b6565b611027565b34801561068157600080fd5b506102bd7ff9424f4303d7f03683a025eb8885734ad99b47df7749d9b0a02cbc985809700b81565b3480156106b557600080fd5b5061033b6106c436600461257d565b611081565b3480156106d557600080fd5b506102bd6000805160206129ec83398151915281565b3480156106f757600080fd5b506102bd6107063660046123bb565b6001600160a01b03918216600090815260666020908152604080832093909416825291909152205490565b34801561073d57600080fd5b506102bd60008051602061298583398151915281565b34801561075f57600080fd5b5061033b61076e3660046124b6565b6110a7565b60006001600160e01b03198216637965db0b60e01b14806107a457506301ffc9a760e01b6001600160e01b03198316145b92915050565b6060606880546107b9906128ac565b80601f01602080910402602001604051908101604052809291908181526020018280546107e5906128ac565b80156108325780601f1061080757610100808354040283529160200191610832565b820191906000526020600020905b81548152906001019060200180831161081557829003601f168201915b5050505050905090565b6000610849338484611101565b50600192915050565b600061085f848484611225565b6001600160a01b0384166000908152606660209081526040808320338452909152902054828110156108e95760405162461bcd60e51b815260206004820152602860248201527f45524332303a207472616e7366657220616d6f756e74206578636565647320616044820152676c6c6f77616e636560c01b60648201526084015b60405180910390fd5b6108f68533858403611101565b60019150505b9392505050565b600054610100900460ff1661091e5760005460ff1615610922565b303b155b6109855760405162461bcd60e51b815260206004820152602e60248201527f496e697469616c697a61626c653a20636f6e747261637420697320616c72656160448201526d191e481a5b9a5d1a585b1a5e995960921b60648201526084016108e0565b600054610100900460ff161580156109a7576000805461ffff19166101011790555b6109b3878787876113fe565b6109bb611441565b6109c361146a565b6109cd83836114dd565b80156109df576000805461ff00191690555b50505050505050565b600082815260fb6020526040902060010154610a04813361156c565b610a0e83836115d0565b505050565b6001600160a01b0381163314610a835760405162461bcd60e51b815260206004820152602f60248201527f416363657373436f6e74726f6c3a2063616e206f6e6c792072656e6f756e636560448201526e103937b632b9903337b91039b2b63360891b60648201526084016108e0565b610a8d8282611656565b5050565b306001600160a01b037f0000000000000000000000000000000000000000000000000000000000000000161415610ada5760405162461bcd60e51b81526004016108e09061272d565b7f00000000000000000000000000000000000000000000000000000000000000006001600160a01b0316610b0c6116bd565b6001600160a01b031614610b325760405162461bcd60e51b81526004016108e090612779565b610b3b816116eb565b60408051600080825260208201909252610b579183919061176d565b50565b3360008181526066602090815260408083206001600160a01b03871684529091528120549091610849918590610b91908690612810565b611101565b6000805160206129ec833981519152610baf813361156c565b610b576118b8565b7ff9424f4303d7f03683a025eb8885734ad99b47df7749d9b0a02cbc985809700b610be2813361156c565b610a0e8383611965565b600080516020612985833981519152610c05813361156c565b5061012d80546001600160a01b0319166001600160a01b0392909216919091179055565b306001600160a01b037f0000000000000000000000000000000000000000000000000000000000000000161415610c725760405162461bcd60e51b81526004016108e09061272d565b7f00000000000000000000000000000000000000000000000000000000000000006001600160a01b0316610ca46116bd565b6001600160a01b031614610cca5760405162461bcd60e51b81526004016108e090612779565b610cd3826116eb565b610a8d8282600161176d565b6000610ceb813361156c565b6001600160a01b038216610cfe57600080fd5b826000805160206129a583398151915255817fe38b16c806f019542b2d4bf356bb4ba2ea4b7eb450b8fbff2584f6084c4978f180546001600160a01b0319166001600160a01b0392909216919091179055505050565b6000805160206129ec833981519152610d6d813361156c565b60005b82811015610dc357610db1600080516020612945833981519152858584818110610d9c57610d9c612918565b905060200201602081019061035891906123a0565b80610dbb816128e7565b915050610d70565b50505050565b7ff9424f4303d7f03683a025eb8885734ad99b47df7749d9b0a02cbc985809700b610df4813361156c565b838214610e3b5760405162461bcd60e51b8152602060048201526015602482015274082e4e4c2f240d8cadccee8d040dad2e6dac2e8c6d605b1b60448201526064016108e0565b60005b84811015610ea057610e8e868683818110610e5b57610e5b612918565b9050602002016020810190610e7091906123a0565b858584818110610e8257610e82612918565b90506020020135611965565b80610e98816128e7565b915050610e3e565b505050505050565b6000805160206129ec833981519152610ec1813361156c565b60005b82811015610dc357610f05600080516020612a2c833981519152858584818110610ef057610ef0612918565b90506020020160208101906106c491906123a0565b80610f0f816128e7565b915050610ec4565b6000805160206129ec833981519152610f30813361156c565b610b57611a50565b600091825260fb602090815260408084206001600160a01b0393909316845291905290205460ff1690565b6060606980546107b9906128ac565b3360009081526066602090815260408083206001600160a01b038616845290915281205482811015610ff45760405162461bcd60e51b815260206004820152602560248201527f45524332303a2064656372656173656420616c6c6f77616e63652062656c6f77604482015264207a65726f60d81b60648201526084016108e0565b6110013385858403611101565b5060019392505050565b6000610849338484611225565b60006110226116bd565b905090565b6000805160206129ec833981519152611040813361156c565b60005b82811015610dc35761106f600080516020612945833981519152858584818110610ef057610ef0612918565b80611079816128e7565b915050611043565b600082815260fb602052604090206001015461109d813361156c565b610a0e8383611656565b6000805160206129ec8339815191526110c0813361156c565b60005b82811015610dc3576110ef600080516020612a2c833981519152858584818110610d9c57610d9c612918565b806110f9816128e7565b9150506110c3565b6001600160a01b0383166111635760405162461bcd60e51b8152602060048201526024808201527f45524332303a20617070726f76652066726f6d20746865207a65726f206164646044820152637265737360e01b60648201526084016108e0565b6001600160a01b0382166111c45760405162461bcd60e51b815260206004820152602260248201527f45524332303a20617070726f766520746f20746865207a65726f206164647265604482015261737360f01b60648201526084016108e0565b6001600160a01b0383811660008181526066602090815260408083209487168084529482529182902085905590518481527f8c5be1e5ebec7d5bd14f71427d1e84f3dd0314c0f7b2291e5b200ac8c7c3b925910160405180910390a3505050565b6001600160a01b0383166112895760405162461bcd60e51b815260206004820152602560248201527f45524332303a207472616e736665722066726f6d20746865207a65726f206164604482015264647265737360d81b60648201526084016108e0565b6001600160a01b0382166112eb5760405162461bcd60e51b815260206004820152602360248201527f45524332303a207472616e7366657220746f20746865207a65726f206164647260448201526265737360e81b60648201526084016108e0565b6112f6838383611ae4565b6001600160a01b0383166000908152606560205260409020548181101561136e5760405162461bcd60e51b815260206004820152602660248201527f45524332303a207472616e7366657220616d6f756e7420657863656564732062604482015265616c616e636560d01b60648201526084016108e0565b6001600160a01b038085166000908152606560205260408082208585039055918516815290812080548492906113a5908490612810565b92505081905550826001600160a01b0316846001600160a01b03167fddf252ad1be2c89b69c2b068fc378daa952ba7f163c4a11628f55a4df523b3ef846040516113f191815260200190565b60405180910390a3610dc3565b600054610100900460ff166114255760405162461bcd60e51b81526004016108e0906127c5565b61142d611aef565b6114378484611b46565b610dc38282611b94565b600054610100900460ff166114685760405162461bcd60e51b81526004016108e0906127c5565b565b600054610100900460ff166114915760405162461bcd60e51b81526004016108e0906127c5565b6114b7600080516020612a2c8339815191526000805160206129ec833981519152611bd5565b6114686000805160206129458339815191526000805160206129ec833981519152611bd5565b600054610100900460ff166115045760405162461bcd60e51b81526004016108e0906127c5565b6001600160a01b03811661151757600080fd5b816000805160206129a583398151915255807fe38b16c806f019542b2d4bf356bb4ba2ea4b7eb450b8fbff2584f6084c4978f180546001600160a01b0319166001600160a01b03929092169190911790555050565b6115768282610f38565b610a8d5761158e816001600160a01b03166014611c20565b611599836020611c20565b6040516020016115aa929190612685565b60408051601f198184030181529082905262461bcd60e51b82526108e0916004016126fa565b6115da8282610f38565b610a8d57600082815260fb602090815260408083206001600160a01b03851684529091529020805460ff191660011790556116123390565b6001600160a01b0316816001600160a01b0316837f2f8788117e7eff1d82e926ec794901d17c78024a50270940304540a733656f0d60405160405180910390a45050565b6116608282610f38565b15610a8d57600082815260fb602090815260408083206001600160a01b0385168085529252808320805460ff1916905551339285917ff6391f5c32d9c69d2a47ea670b442974b53935d1edc7fd64eb21e047a839171b9190a45050565b7f360894a13ba1a3210667c828492db98dca3e2076cc3735a920a3ca505d382bbc546001600160a01b031690565b61170360008051602061298583398151915233610f38565b80611721575061172160008051602061296583398151915233610f38565b610b575760405162461bcd60e51b815260206004820152601d60248201527f4552524f523a2041646472657373206e6f7420617574686f72697a656400000060448201526064016108e0565b60006117776116bd565b905061178284611dbc565b60008351118061178f5750815b156117a05761179e8484611e61565b505b7f4910fdfa16fed3260ed0e7147f7cc6da11a60208b5b9406d12a635614ffd9143805460ff166118b157805460ff191660011781556040516001600160a01b038316602482015261181f90869060440160408051601f198184030181529190526020810180516001600160e01b0316631b2ce7f360e11b179052611e61565b50805460ff191681556118306116bd565b6001600160a01b0316826001600160a01b0316146118a85760405162461bcd60e51b815260206004820152602f60248201527f45524331393637557067726164653a207570677261646520627265616b73206660448201526e75727468657220757067726164657360881b60648201526084016108e0565b6118b185611f4c565b5050505050565b600080516020612a0c8339815191525460ff1661190e5760405162461bcd60e51b815260206004820152601460248201527314185d5cd8589b194e881b9bdd081c185d5cd95960621b60448201526064016108e0565b600080516020612a0c833981519152805460ff191690557f5db9ee0a495bf2e6ff9c91a7834c1ba4fdd244a5e8aa4e537bd38aeae4b073aa335b6040516001600160a01b03909116815260200160405180910390a1565b6001600160a01b0382166119bb5760405162461bcd60e51b815260206004820152601f60248201527f45524332303a206d696e7420746f20746865207a65726f20616464726573730060448201526064016108e0565b6119c760008383611ae4565b80606760008282546119d99190612810565b90915550506001600160a01b03821660009081526065602052604081208054839290611a06908490612810565b90915550506040518181526001600160a01b038316906000907fddf252ad1be2c89b69c2b068fc378daa952ba7f163c4a11628f55a4df523b3ef9060200160405180910390a35050565b600080516020612a0c8339815191525460ff1615611aa35760405162461bcd60e51b815260206004820152601060248201526f14185d5cd8589b194e881c185d5cd95960821b60448201526064016108e0565b600080516020612a0c833981519152805460ff191660011790557f62e78cea01bee320cd4e420270b5ea74000d11b0c9f74754ebdbfc544b05a25833611948565b610a0e838383611f8c565b600054610100900460ff16611b165760405162461bcd60e51b81526004016108e0906127c5565b611b1e611441565b611b26611441565b611b2e611441565b611b36611441565b611b3e611441565b611468611fa2565b600054610100900460ff16611b6d5760405162461bcd60e51b81526004016108e0906127c5565b8151611b80906068906020850190612209565b508051610a0e906069906020840190612209565b600054610100900460ff16611bbb5760405162461bcd60e51b81526004016108e0906127c5565b610160805460ff191660ff8416179055610a8d3382611965565b600082815260fb6020526040808220600101805490849055905190918391839186917fbd79b86ffe0ab8e8776151514217cd7cacd52c909f66475c3af44e129f0b00ff9190a4505050565b60606000611c2f83600261284a565b611c3a906002612810565b67ffffffffffffffff811115611c5257611c5261292e565b6040519080825280601f01601f191660200182016040528015611c7c576020820181803683370190505b509050600360fc1b81600081518110611c9757611c97612918565b60200101906001600160f81b031916908160001a905350600f60fb1b81600181518110611cc657611cc6612918565b60200101906001600160f81b031916908160001a9053506000611cea84600261284a565b611cf5906001612810565b90505b6001811115611d6d576f181899199a1a9b1b9c1cb0b131b232b360811b85600f1660108110611d2957611d29612918565b1a60f81b828281518110611d3f57611d3f612918565b60200101906001600160f81b031916908160001a90535060049490941c93611d6681612895565b9050611cf8565b5083156108fc5760405162461bcd60e51b815260206004820181905260248201527f537472696e67733a20686578206c656e67746820696e73756666696369656e7460448201526064016108e0565b803b611e205760405162461bcd60e51b815260206004820152602d60248201527f455243313936373a206e657720696d706c656d656e746174696f6e206973206e60448201526c1bdd08184818dbdb9d1c9858dd609a1b60648201526084016108e0565b7f360894a13ba1a3210667c828492db98dca3e2076cc3735a920a3ca505d382bbc80546001600160a01b0319166001600160a01b0392909216919091179055565b6060823b611ec05760405162461bcd60e51b815260206004820152602660248201527f416464726573733a2064656c65676174652063616c6c20746f206e6f6e2d636f6044820152651b9d1c9858dd60d21b60648201526084016108e0565b600080846001600160a01b031684604051611edb9190612669565b600060405180830381855af49150503d8060008114611f16576040519150601f19603f3d011682016040523d82523d6000602084013e611f1b565b606091505b5091509150611f4382826040518060600160405280602781526020016129c56027913961202a565b95945050505050565b611f5581611dbc565b6040516001600160a01b038216907fbc7cd75a20ee27fd9adebab32041f755214dbc6bffa90cc0225b39da2e5c2d3b90600090a250565b611f97838383612063565b610a0e838383612144565b600054610100900460ff16611fc95760405162461bcd60e51b81526004016108e0906127c5565b611fd46000336121c7565b611fec600080516020612985833981519152336121c7565b612004600080516020612965833981519152336121c7565b611468600080516020612965833981519152600080516020612985833981519152611bd5565b606083156120395750816108fc565b8251156120495782518084602001fd5b8160405162461bcd60e51b81526004016108e091906126fa565b6000805160206129a5833981519152547fe38b16c806f019542b2d4bf356bb4ba2ea4b7eb450b8fbff2584f6084c4978f1546001600160a01b03168115806120bc5750836001600160a01b0316816001600160a01b0316145b806120d85750846001600160a01b0316816001600160a01b0316145b806120ea57506001600160a01b038516155b806120fc57506001600160a01b038416155b15612108575050505050565b6000670de0b6b3a76400006000805160206129a58339815191525461212d908661284a565b6121379190612828565b9050610ea0868383611225565b600080516020612a0c8339815191525460ff161580612168575061216883336121d1565b610a0e5760405162461bcd60e51b815260206004820152602a60248201527f45524332305061757361626c653a20746f6b656e207472616e736665722077686044820152691a5b19481c185d5cd95960b21b60648201526084016108e0565b610a8d82826115d0565b60006121eb600080516020612a2c83398151915284610f38565b806108fc57506108fc60008051602061294583398151915283610f38565b828054612215906128ac565b90600052602060002090601f016020900481019282612237576000855561227d565b82601f1061225057805160ff191683800117855561227d565b8280016001018555821561227d579182015b8281111561227d578251825591602001919060010190612262565b5061228992915061228d565b5090565b5b80821115612289576000815560010161228e565b600067ffffffffffffffff808411156122bd576122bd61292e565b604051601f8501601f19908116603f011681019082821181831017156122e5576122e561292e565b816040528093508581528686860111156122fe57600080fd5b858560208301376000602087830101525050509392505050565b80356001600160a01b038116811461232f57600080fd5b919050565b60008083601f84011261234657600080fd5b50813567ffffffffffffffff81111561235e57600080fd5b6020830191508360208260051b850101111561237957600080fd5b9250929050565b600082601f83011261239157600080fd5b6108fc838335602085016122a2565b6000602082840312156123b257600080fd5b6108fc82612318565b600080604083850312156123ce57600080fd5b6123d783612318565b91506123e560208401612318565b90509250929050565b60008060006060848603121561240357600080fd5b61240c84612318565b925061241a60208501612318565b9150604084013590509250925092565b6000806040838503121561243d57600080fd5b61244683612318565b9150602083013567ffffffffffffffff81111561246257600080fd5b8301601f8101851361247357600080fd5b612482858235602084016122a2565b9150509250929050565b6000806040838503121561249f57600080fd5b6124a883612318565b946020939093013593505050565b600080602083850312156124c957600080fd5b823567ffffffffffffffff8111156124e057600080fd5b6124ec85828601612334565b90969095509350505050565b6000806000806040858703121561250e57600080fd5b843567ffffffffffffffff8082111561252657600080fd5b61253288838901612334565b9096509450602087013591508082111561254b57600080fd5b5061255887828801612334565b95989497509550505050565b60006020828403121561257657600080fd5b5035919050565b6000806040838503121561259057600080fd5b823591506123e560208401612318565b6000602082840312156125b257600080fd5b81356001600160e01b0319811681146108fc57600080fd5b60008060008060008060c087890312156125e357600080fd5b863567ffffffffffffffff808211156125fb57600080fd5b6126078a838b01612380565b9750602089013591508082111561261d57600080fd5b5061262a89828a01612380565b955050604087013560ff8116811461264157600080fd5b9350606087013592506080870135915061265d60a08801612318565b90509295509295509295565b6000825161267b818460208701612869565b9190910192915050565b7f416363657373436f6e74726f6c3a206163636f756e74200000000000000000008152600083516126bd816017850160208801612869565b7001034b99036b4b9b9b4b733903937b6329607d1b60179184019182015283516126ee816028840160208801612869565b01602801949350505050565b6020815260008251806020840152612719816040850160208701612869565b601f01601f19169190910160400192915050565b6020808252602c908201527f46756e6374696f6e206d7573742062652063616c6c6564207468726f7567682060408201526b19195b1959d85d1958d85b1b60a21b606082015260800190565b6020808252602c908201527f46756e6374696f6e206d7573742062652063616c6c6564207468726f7567682060408201526b6163746976652070726f787960a01b606082015260800190565b6020808252602b908201527f496e697469616c697a61626c653a20636f6e7472616374206973206e6f74206960408201526a6e697469616c697a696e6760a81b606082015260800190565b6000821982111561282357612823612902565b500190565b60008261284557634e487b7160e01b600052601260045260246000fd5b500490565b600081600019048311821515161561286457612864612902565b500290565b60005b8381101561288457818101518382015260200161286c565b83811115610dc35750506000910152565b6000816128a4576128a4612902565b506000190190565b600181811c908216806128c057607f821691505b602082108114156128e157634e487b7160e01b600052602260045260246000fd5b50919050565b60006000198214156128fb576128fb612902565b5060010190565b634e487b7160e01b600052601160045260246000fd5b634e487b7160e01b600052603260045260246000fd5b634e487b7160e01b600052604160045260246000fdfee1ac655ab58995133a870d1fd307ddc1d624c8ad919a09e67867a7a1483e439aa76ace73a908083d89af9ff88e5b4f7cadb3591a80631063f68b695fda726db571840dc4906352362b0cdaf79870196c8e42acafade72d5d5a6d59291253ceb1253122b26cc2118faf5fcfc7761bd75fcfb5508f1f48d1a40db694aba32af5d0416464726573733a206c6f772d6c6576656c2064656c65676174652063616c6c206661696c6564356a809dfdea9198dd76fb76bf6d403ecf13ea675eb89e1eda2db2c4a4676a26ad6a6591fa308fe948065665239402780db8ed4a8c4e4e16c4d066bcaa05efc2ce108bcc5e0f50fe603649304cbbbd94de794a404db82d884c0afc9ba9328e61a2646970667358221220c8d430b563fd3a48232edb8368ad77d0c2a492cae5c66a469f04432b7c82510164736f6c63430008060033",
  "linkReferences": {},
  "deployedLinkReferences": {}
}