{
  "_format": "hh-sol-artifact-1",
  "name": "MintTemplate",
  "initializer": "function initialize(string name_, string symbol_, uint8 decimals_, uint256 amount_)",
  "sourceName": "contracts/templates/MintTemplate.sol",
  "abi": [
    {
      "anonymous": false,
      "inputs": [
        {
          "indexed": false,
          "internalType": "address",
          "name": "previousAdmin",
          "type": "address"
        },
        {
          "indexed": false,
          "internalType": "address",
          "name": "newAdmin",
          "type": "address"
        }
      ],
      "name": "AdminChanged",
      "type": "event"
    },
    {
      "anonymous": false,
      "inputs": [
        {
          "indexed": true,
          "internalType": "address",
          "name": "owner",
          "type": "address"
        },
        {
          "indexed": true,
          "internalType": "address",
          "name": "spender",
          "type": "address"
        },
        {
          "indexed": false,
          "internalType": "uint256",
          "name": "value",
          "type": "uint256"
        }
      ],
      "name": "Approval",
      "type": "event"
    },
    {
      "anonymous": false,
      "inputs": [
        {
          "indexed": true,
          "internalType": "address",
          "name": "beacon",
          "type": "address"
        }
      ],
      "name": "BeaconUpgraded",
      "type": "event"
    },
    {
      "anonymous": false,
      "inputs": [
        {
          "indexed": true,
          "internalType": "bytes32",
          "name": "role",
          "type": "bytes32"
        },
        {
          "indexed": true,
          "internalType": "bytes32",
          "name": "previousAdminRole",
          "type": "bytes32"
        },
        {
          "indexed": true,
          "internalType": "bytes32",
          "name": "newAdminRole",
          "type": "bytes32"
        }
      ],
      "name": "RoleAdminChanged",
      "type": "event"
    },
    {
      "anonymous": false,
      "inputs": [
        {
          "indexed": true,
          "internalType": "bytes32",
          "name": "role",
          "type": "bytes32"
        },
        {
          "indexed": true,
          "internalType": "address",
          "name": "account",
          "type": "address"
        },
        {
          "indexed": true,
          "internalType": "address",
          "name": "sender",
          "type": "address"
        }
      ],
      "name": "RoleGranted",
      "type": "event"
    },
    {
      "anonymous": false,
      "inputs": [
        {
          "indexed": true,
          "internalType": "bytes32",
          "name": "role",
          "type": "bytes32"
        },
        {
          "indexed": true,
          "internalType": "address",
          "name": "account",
          "type": "address"
        },
        {
          "indexed": true,
          "internalType": "address",
          "name": "sender",
          "type": "address"
        }
      ],
      "name": "RoleRevoked",
      "type": "event"
    },
    {
      "anonymous": false,
      "inputs": [
        {
          "indexed": true,
          "internalType": "address",
          "name": "from",
          "type": "address"
        },
        {
          "indexed": true,
          "internalType": "address",
          "name": "to",
          "type": "address"
        },
        {
          "indexed": false,
          "internalType": "uint256",
          "name": "value",
          "type": "uint256"
        }
      ],
      "name": "Transfer",
      "type": "event"
    },
    {
      "anonymous": false,
      "inputs": [
        {
          "indexed": true,
          "internalType": "address",
          "name": "implementation",
          "type": "address"
        }
      ],
      "name": "Upgraded",
      "type": "event"
    },
    {
      "inputs": [],
      "name": "DEFAULT_ADMIN_ROLE",
      "outputs": [
        {
          "internalType": "bytes32",
          "name": "",
          "type": "bytes32"
        }
      ],
      "stateMutability": "view",
      "type": "function"
    },
    {
      "inputs": [],
      "name": "GOVERNANCE_ROLE",
      "outputs": [
        {
          "internalType": "bytes32",
          "name": "",
          "type": "bytes32"
        }
      ],
      "stateMutability": "view",
      "type": "function"
    },
    {
      "inputs": [],
      "name": "MINTER_ROLE",
      "outputs": [
        {
          "internalType": "bytes32",
          "name": "",
          "type": "bytes32"
        }
      ],
      "stateMutability": "view",
      "type": "function"
    },
    {
      "inputs": [],
      "name": "UPGRADE_MANAGER_ROLE",
      "outputs": [
        {
          "internalType": "bytes32",
          "name": "",
          "type": "bytes32"
        }
      ],
      "stateMutability": "view",
      "type": "function"
    },
    {
      "inputs": [
        {
          "internalType": "address",
          "name": "owner",
          "type": "address"
        },
        {
          "internalType": "address",
          "name": "spender",
          "type": "address"
        }
      ],
      "name": "allowance",
      "outputs": [
        {
          "internalType": "uint256",
          "name": "",
          "type": "uint256"
        }
      ],
      "stateMutability": "view",
      "type": "function"
    },
    {
      "inputs": [
        {
          "internalType": "address",
          "name": "spender",
          "type": "address"
        },
        {
          "internalType": "uint256",
          "name": "amount",
          "type": "uint256"
        }
      ],
      "name": "approve",
      "outputs": [
        {
          "internalType": "bool",
          "name": "",
          "type": "bool"
        }
      ],
      "stateMutability": "nonpayable",
      "type": "function"
    },
    {
      "inputs": [
        {
          "internalType": "address",
          "name": "account",
          "type": "address"
        }
      ],
      "name": "balanceOf",
      "outputs": [
        {
          "internalType": "uint256",
          "name": "",
          "type": "uint256"
        }
      ],
      "stateMutability": "view",
      "type": "function"
    },
    {
      "inputs": [
        {
          "internalType": "address[]",
          "name": "accounts",
          "type": "address[]"
        },
        {
          "internalType": "uint256[]",
          "name": "amounts",
          "type": "uint256[]"
        }
      ],
      "name": "bulkMint",
      "outputs": [],
      "stateMutability": "nonpayable",
      "type": "function"
    },
    {
      "inputs": [],
      "name": "decimals",
      "outputs": [
        {
          "internalType": "uint8",
          "name": "",
          "type": "uint8"
        }
      ],
      "stateMutability": "view",
      "type": "function"
    },
    {
      "inputs": [
        {
          "internalType": "address",
          "name": "spender",
          "type": "address"
        },
        {
          "internalType": "uint256",
          "name": "subtractedValue",
          "type": "uint256"
        }
      ],
      "name": "decreaseAllowance",
      "outputs": [
        {
          "internalType": "bool",
          "name": "",
          "type": "bool"
        }
      ],
      "stateMutability": "nonpayable",
      "type": "function"
    },
    {
      "inputs": [],
      "name": "getImplementation",
      "outputs": [
        {
          "internalType": "address",
          "name": "",
          "type": "address"
        }
      ],
      "stateMutability": "view",
      "type": "function"
    },
    {
      "inputs": [
        {
          "internalType": "bytes32",
          "name": "role",
          "type": "bytes32"
        }
      ],
      "name": "getRoleAdmin",
      "outputs": [
        {
          "internalType": "bytes32",
          "name": "",
          "type": "bytes32"
        }
      ],
      "stateMutability": "view",
      "type": "function"
    },
    {
      "inputs": [
        {
          "internalType": "bytes32",
          "name": "role",
          "type": "bytes32"
        },
        {
          "internalType": "address",
          "name": "account",
          "type": "address"
        }
      ],
      "name": "grantRole",
      "outputs": [],
      "stateMutability": "nonpayable",
      "type": "function"
    },
    {
      "inputs": [
        {
          "internalType": "bytes32",
          "name": "role",
          "type": "bytes32"
        },
        {
          "internalType": "address",
          "name": "account",
          "type": "address"
        }
      ],
      "name": "hasRole",
      "outputs": [
        {
          "internalType": "bool",
          "name": "",
          "type": "bool"
        }
      ],
      "stateMutability": "view",
      "type": "function"
    },
    {
      "inputs": [
        {
          "internalType": "address",
          "name": "spender",
          "type": "address"
        },
        {
          "internalType": "uint256",
          "name": "addedValue",
          "type": "uint256"
        }
      ],
      "name": "increaseAllowance",
      "outputs": [
        {
          "internalType": "bool",
          "name": "",
          "type": "bool"
        }
      ],
      "stateMutability": "nonpayable",
      "type": "function"
    },
    {
      "inputs": [
        {
          "internalType": "string",
          "name": "name_",
          "type": "string"
        },
        {
          "internalType": "string",
          "name": "symbol_",
          "type": "string"
        },
        {
          "internalType": "uint8",
          "name": "decimals_",
          "type": "uint8"
        },
        {
          "internalType": "uint256",
          "name": "amount_",
          "type": "uint256"
        }
      ],
      "name": "initialize",
      "outputs": [],
      "stateMutability": "nonpayable",
      "type": "function"
    },
    {
      "inputs": [
        {
          "internalType": "address",
          "name": "account",
          "type": "address"
        },
        {
          "internalType": "uint256",
          "name": "amount",
          "type": "uint256"
        }
      ],
      "name": "mint",
      "outputs": [],
      "stateMutability": "nonpayable",
      "type": "function"
    },
    {
      "inputs": [],
      "name": "name",
      "outputs": [
        {
          "internalType": "string",
          "name": "",
          "type": "string"
        }
      ],
      "stateMutability": "view",
      "type": "function"
    },
    {
      "inputs": [
        {
          "internalType": "address",
          "name": "implementationAddress",
          "type": "address"
        }
      ],
      "name": "proposeNewImplementation",
      "outputs": [],
      "stateMutability": "nonpayable",
      "type": "function"
    },
    {
      "inputs": [
        {
          "internalType": "bytes32",
          "name": "role",
          "type": "bytes32"
        },
        {
          "internalType": "address",
          "name": "account",
          "type": "address"
        }
      ],
      "name": "renounceRole",
      "outputs": [],
      "stateMutability": "nonpayable",
      "type": "function"
    },
    {
      "inputs": [
        {
          "internalType": "bytes32",
          "name": "role",
          "type": "bytes32"
        },
        {
          "internalType": "address",
          "name": "account",
          "type": "address"
        }
      ],
      "name": "revokeRole",
      "outputs": [],
      "stateMutability": "nonpayable",
      "type": "function"
    },
    {
      "inputs": [
        {
          "internalType": "bytes4",
          "name": "interfaceId",
          "type": "bytes4"
        }
      ],
      "name": "supportsInterface",
      "outputs": [
        {
          "internalType": "bool",
          "name": "",
          "type": "bool"
        }
      ],
      "stateMutability": "view",
      "type": "function"
    },
    {
      "inputs": [],
      "name": "symbol",
      "outputs": [
        {
          "internalType": "string",
          "name": "",
          "type": "string"
        }
      ],
      "stateMutability": "view",
      "type": "function"
    },
    {
      "inputs": [],
      "name": "totalSupply",
      "outputs": [
        {
          "internalType": "uint256",
          "name": "",
          "type": "uint256"
        }
      ],
      "stateMutability": "view",
      "type": "function"
    },
    {
      "inputs": [
        {
          "internalType": "address",
          "name": "recipient",
          "type": "address"
        },
        {
          "internalType": "uint256",
          "name": "amount",
          "type": "uint256"
        }
      ],
      "name": "transfer",
      "outputs": [
        {
          "internalType": "bool",
          "name": "",
          "type": "bool"
        }
      ],
      "stateMutability": "nonpayable",
      "type": "function"
    },
    {
      "inputs": [
        {
          "internalType": "address",
          "name": "sender",
          "type": "address"
        },
        {
          "internalType": "address",
          "name": "recipient",
          "type": "address"
        },
        {
          "internalType": "uint256",
          "name": "amount",
          "type": "uint256"
        }
      ],
      "name": "transferFrom",
      "outputs": [
        {
          "internalType": "bool",
          "name": "",
          "type": "bool"
        }
      ],
      "stateMutability": "nonpayable",
      "type": "function"
    },
    {
      "inputs": [
        {
          "internalType": "address",
          "name": "newImplementation",
          "type": "address"
        }
      ],
      "name": "upgradeTo",
      "outputs": [],
      "stateMutability": "nonpayable",
      "type": "function"
    },
    {
      "inputs": [
        {
          "internalType": "address",
          "name": "newImplementation",
          "type": "address"
        },
        {
          "internalType": "bytes",
          "name": "data",
          "type": "bytes"
        }
      ],
      "name": "upgradeToAndCall",
      "outputs": [],
      "stateMutability": "payable",
      "type": "function"
    }
  ],
  "bytecode": "0x60a06040523060601b60805234801561001757600080fd5b5060805160601c61211561004b600039600081816108ba015281816108fa01528181610a310152610a7101526121156000f3fe6080604052600436106101b75760003560e01c806347757fb6116100ec578063a457c2d71161008a578063d539139311610064578063d5391393146104e9578063d547741f1461051d578063dd62ed3e1461053d578063f36c8f5c1461058357600080fd5b8063a457c2d71461047c578063a9059cbb1461049c578063aaf10f42146104bc57600080fd5b806370a08231116100c657806370a08231146103fc57806391d148541461043257806395d89b4114610452578063a217fddf1461046757600080fd5b806347757fb6146103a95780634f1ef286146103c95780636ae459bd146103dc57600080fd5b80632f2ff15d116101595780633659cfe6116101335780633659cfe614610327578063395093511461034757806340c10f191461036757806343ffa64e1461038757600080fd5b80632f2ff15d146102c4578063313ce567146102e457806336568abe1461030757600080fd5b806318160ddd1161019557806318160ddd1461023357806323b872dd14610252578063248a9ca314610272578063253279ad146102a257600080fd5b806301ffc9a7146101bc57806306fdde03146101f1578063095ea7b314610213575b600080fd5b3480156101c857600080fd5b506101dc6101d7366004611d11565b6105a5565b60405190151581526020015b60405180910390f35b3480156101fd57600080fd5b506102066105dc565b6040516101e89190611e50565b34801561021f57600080fd5b506101dc61022e366004611c3f565b61066e565b34801561023f57600080fd5b506067545b6040519081526020016101e8565b34801561025e57600080fd5b506101dc61026d366004611ba1565b610684565b34801561027e57600080fd5b5061024461028d366004611cd5565b600090815260fb602052604090206001015490565b3480156102ae57600080fd5b506102c26102bd366004611d3b565b610735565b005b3480156102d057600080fd5b506102c26102df366004611cee565b610806565b3480156102f057600080fd5b506101605460405160ff90911681526020016101e8565b34801561031357600080fd5b506102c2610322366004611cee565b610831565b34801561033357600080fd5b506102c2610342366004611b53565b6108af565b34801561035357600080fd5b506101dc610362366004611c3f565b610978565b34801561037357600080fd5b506102c2610382366004611c3f565b6109b4565b34801561039357600080fd5b5061024460008051602061207983398151915281565b3480156103b557600080fd5b506102c26103c4366004611b53565b6109e9565b6102c26103d7366004611bdd565b610a26565b3480156103e857600080fd5b506102c26103f7366004611c69565b610adc565b34801561040857600080fd5b50610244610417366004611b53565b6001600160a01b031660009081526065602052604090205490565b34801561043e57600080fd5b506101dc61044d366004611cee565b610bbb565b34801561045e57600080fd5b50610206610be6565b34801561047357600080fd5b50610244600081565b34801561048857600080fd5b506101dc610497366004611c3f565b610bf5565b3480156104a857600080fd5b506101dc6104b7366004611c3f565b610c8e565b3480156104c857600080fd5b506104d1610c9b565b6040516001600160a01b0390911681526020016101e8565b3480156104f557600080fd5b506102447ff9424f4303d7f03683a025eb8885734ad99b47df7749d9b0a02cbc985809700b81565b34801561052957600080fd5b506102c2610538366004611cee565b610caa565b34801561054957600080fd5b50610244610558366004611b6e565b6001600160a01b03918216600090815260666020908152604080832093909416825291909152205490565b34801561058f57600080fd5b5061024460008051602061209983398151915281565b60006001600160e01b03198216637965db0b60e01b14806105d657506301ffc9a760e01b6001600160e01b03198316145b92915050565b6060606880546105eb90611fe0565b80601f016020809104026020016040519081016040528092919081815260200182805461061790611fe0565b80156106645780601f1061063957610100808354040283529160200191610664565b820191906000526020600020905b81548152906001019060200180831161064757829003601f168201915b5050505050905090565b600061067b338484610cd0565b50600192915050565b6000610691848484610df4565b6001600160a01b03841660009081526066602090815260408083203384529091529020548281101561071b5760405162461bcd60e51b815260206004820152602860248201527f45524332303a207472616e7366657220616d6f756e74206578636565647320616044820152676c6c6f77616e636560c01b60648201526084015b60405180910390fd5b6107288533858403610cd0565b60019150505b9392505050565b600054610100900460ff166107505760005460ff1615610754565b303b155b6107b75760405162461bcd60e51b815260206004820152602e60248201527f496e697469616c697a61626c653a20636f6e747261637420697320616c72656160448201526d191e481a5b9a5d1a585b1a5e995960921b6064820152608401610712565b600054610100900460ff161580156107d9576000805461ffff19166101011790555b6107e585858585610fc4565b6107ed611007565b80156107ff576000805461ff00191690555b5050505050565b600082815260fb60205260409020600101546108228133611030565b61082c8383611094565b505050565b6001600160a01b03811633146108a15760405162461bcd60e51b815260206004820152602f60248201527f416363657373436f6e74726f6c3a2063616e206f6e6c792072656e6f756e636560448201526e103937b632b9903337b91039b2b63360891b6064820152608401610712565b6108ab828261111a565b5050565b306001600160a01b037f00000000000000000000000000000000000000000000000000000000000000001614156108f85760405162461bcd60e51b815260040161071290611e83565b7f00000000000000000000000000000000000000000000000000000000000000006001600160a01b031661092a611181565b6001600160a01b0316146109505760405162461bcd60e51b815260040161071290611ecf565b610959816111af565b6040805160008082526020820190925261097591839190611231565b50565b3360008181526066602090815260408083206001600160a01b0387168452909152812054909161067b9185906109af908690611f66565b610cd0565b7ff9424f4303d7f03683a025eb8885734ad99b47df7749d9b0a02cbc985809700b6109df8133611030565b61082c8383611375565b600080516020612099833981519152610a028133611030565b5061012d80546001600160a01b0319166001600160a01b0392909216919091179055565b306001600160a01b037f0000000000000000000000000000000000000000000000000000000000000000161415610a6f5760405162461bcd60e51b815260040161071290611e83565b7f00000000000000000000000000000000000000000000000000000000000000006001600160a01b0316610aa1611181565b6001600160a01b031614610ac75760405162461bcd60e51b815260040161071290611ecf565b610ad0826111af565b6108ab82826001611231565b7ff9424f4303d7f03683a025eb8885734ad99b47df7749d9b0a02cbc985809700b610b078133611030565b838214610b4e5760405162461bcd60e51b8152602060048201526015602482015274082e4e4c2f240d8cadccee8d040dad2e6dac2e8c6d605b1b6044820152606401610712565b60005b84811015610bb357610ba1868683818110610b6e57610b6e61204c565b9050602002016020810190610b839190611b53565b858584818110610b9557610b9561204c565b90506020020135611375565b80610bab8161201b565b915050610b51565b505050505050565b600091825260fb602090815260408084206001600160a01b0393909316845291905290205460ff1690565b6060606980546105eb90611fe0565b3360009081526066602090815260408083206001600160a01b038616845290915281205482811015610c775760405162461bcd60e51b815260206004820152602560248201527f45524332303a2064656372656173656420616c6c6f77616e63652062656c6f77604482015264207a65726f60d81b6064820152608401610712565b610c843385858403610cd0565b5060019392505050565b600061067b338484610df4565b6000610ca5611181565b905090565b600082815260fb6020526040902060010154610cc68133611030565b61082c838361111a565b6001600160a01b038316610d325760405162461bcd60e51b8152602060048201526024808201527f45524332303a20617070726f76652066726f6d20746865207a65726f206164646044820152637265737360e01b6064820152608401610712565b6001600160a01b038216610d935760405162461bcd60e51b815260206004820152602260248201527f45524332303a20617070726f766520746f20746865207a65726f206164647265604482015261737360f01b6064820152608401610712565b6001600160a01b0383811660008181526066602090815260408083209487168084529482529182902085905590518481527f8c5be1e5ebec7d5bd14f71427d1e84f3dd0314c0f7b2291e5b200ac8c7c3b925910160405180910390a3505050565b6001600160a01b038316610e585760405162461bcd60e51b815260206004820152602560248201527f45524332303a207472616e736665722066726f6d20746865207a65726f206164604482015264647265737360d81b6064820152608401610712565b6001600160a01b038216610eba5760405162461bcd60e51b815260206004820152602360248201527f45524332303a207472616e7366657220746f20746865207a65726f206164647260448201526265737360e81b6064820152608401610712565b6001600160a01b03831660009081526065602052604090205481811015610f325760405162461bcd60e51b815260206004820152602660248201527f45524332303a207472616e7366657220616d6f756e7420657863656564732062604482015265616c616e636560d01b6064820152608401610712565b6001600160a01b03808516600090815260656020526040808220858503905591851681529081208054849290610f69908490611f66565b92505081905550826001600160a01b0316846001600160a01b03167fddf252ad1be2c89b69c2b068fc378daa952ba7f163c4a11628f55a4df523b3ef84604051610fb591815260200190565b60405180910390a35b50505050565b600054610100900460ff16610feb5760405162461bcd60e51b815260040161071290611f1b565b610ff3611454565b610ffd84846114ab565b610fbe82826114f9565b600054610100900460ff1661102e5760405162461bcd60e51b815260040161071290611f1b565b565b61103a8282610bbb565b6108ab57611052816001600160a01b0316601461153a565b61105d83602061153a565b60405160200161106e929190611ddb565b60408051601f198184030181529082905262461bcd60e51b825261071291600401611e50565b61109e8282610bbb565b6108ab57600082815260fb602090815260408083206001600160a01b03851684529091529020805460ff191660011790556110d63390565b6001600160a01b0316816001600160a01b0316837f2f8788117e7eff1d82e926ec794901d17c78024a50270940304540a733656f0d60405160405180910390a45050565b6111248282610bbb565b156108ab57600082815260fb602090815260408083206001600160a01b0385168085529252808320805460ff1916905551339285917ff6391f5c32d9c69d2a47ea670b442974b53935d1edc7fd64eb21e047a839171b9190a45050565b7f360894a13ba1a3210667c828492db98dca3e2076cc3735a920a3ca505d382bbc546001600160a01b031690565b6111c760008051602061209983398151915233610bbb565b806111e557506111e560008051602061207983398151915233610bbb565b6109755760405162461bcd60e51b815260206004820152601d60248201527f4552524f523a2041646472657373206e6f7420617574686f72697a65640000006044820152606401610712565b600061123b611181565b9050611246846116d6565b6000835111806112535750815b1561126457611262848461177b565b505b7f4910fdfa16fed3260ed0e7147f7cc6da11a60208b5b9406d12a635614ffd9143805460ff166107ff57805460ff191660011781556040516001600160a01b03831660248201526112e390869060440160408051601f198184030181529190526020810180516001600160e01b0316631b2ce7f360e11b17905261177b565b50805460ff191681556112f4611181565b6001600160a01b0316826001600160a01b03161461136c5760405162461bcd60e51b815260206004820152602f60248201527f45524331393637557067726164653a207570677261646520627265616b73206660448201526e75727468657220757067726164657360881b6064820152608401610712565b6107ff85611866565b6001600160a01b0382166113cb5760405162461bcd60e51b815260206004820152601f60248201527f45524332303a206d696e7420746f20746865207a65726f2061646472657373006044820152606401610712565b80606760008282546113dd9190611f66565b90915550506001600160a01b0382166000908152606560205260408120805483929061140a908490611f66565b90915550506040518181526001600160a01b038316906000907fddf252ad1be2c89b69c2b068fc378daa952ba7f163c4a11628f55a4df523b3ef9060200160405180910390a35050565b600054610100900460ff1661147b5760405162461bcd60e51b815260040161071290611f1b565b611483611007565b61148b611007565b611493611007565b61149b611007565b6114a3611007565b61102e6118a6565b600054610100900460ff166114d25760405162461bcd60e51b815260040161071290611f1b565b81516114e59060689060208501906119bc565b50805161082c9060699060208401906119bc565b600054610100900460ff166115205760405162461bcd60e51b815260040161071290611f1b565b610160805460ff191660ff84161790556108ab3382611375565b60606000611549836002611f7e565b611554906002611f66565b67ffffffffffffffff81111561156c5761156c612062565b6040519080825280601f01601f191660200182016040528015611596576020820181803683370190505b509050600360fc1b816000815181106115b1576115b161204c565b60200101906001600160f81b031916908160001a905350600f60fb1b816001815181106115e0576115e061204c565b60200101906001600160f81b031916908160001a9053506000611604846002611f7e565b61160f906001611f66565b90505b6001811115611687576f181899199a1a9b1b9c1cb0b131b232b360811b85600f16601081106116435761164361204c565b1a60f81b8282815181106116595761165961204c565b60200101906001600160f81b031916908160001a90535060049490941c9361168081611fc9565b9050611612565b50831561072e5760405162461bcd60e51b815260206004820181905260248201527f537472696e67733a20686578206c656e67746820696e73756666696369656e746044820152606401610712565b803b61173a5760405162461bcd60e51b815260206004820152602d60248201527f455243313936373a206e657720696d706c656d656e746174696f6e206973206e60448201526c1bdd08184818dbdb9d1c9858dd609a1b6064820152608401610712565b7f360894a13ba1a3210667c828492db98dca3e2076cc3735a920a3ca505d382bbc80546001600160a01b0319166001600160a01b0392909216919091179055565b6060823b6117da5760405162461bcd60e51b815260206004820152602660248201527f416464726573733a2064656c65676174652063616c6c20746f206e6f6e2d636f6044820152651b9d1c9858dd60d21b6064820152608401610712565b600080846001600160a01b0316846040516117f59190611dbf565b600060405180830381855af49150503d8060008114611830576040519150601f19603f3d011682016040523d82523d6000602084013e611835565b606091505b509150915061185d82826040518060600160405280602781526020016120b96027913961192e565b95945050505050565b61186f816116d6565b6040516001600160a01b038216907fbc7cd75a20ee27fd9adebab32041f755214dbc6bffa90cc0225b39da2e5c2d3b90600090a250565b600054610100900460ff166118cd5760405162461bcd60e51b815260040161071290611f1b565b6118d8600033611967565b6118f060008051602061209983398151915233611967565b61190860008051602061207983398151915233611967565b61102e600080516020612079833981519152600080516020612099833981519152611971565b6060831561193d57508161072e565b82511561194d5782518084602001fd5b8160405162461bcd60e51b81526004016107129190611e50565b6108ab8282611094565b600082815260fb6020526040808220600101805490849055905190918391839186917fbd79b86ffe0ab8e8776151514217cd7cacd52c909f66475c3af44e129f0b00ff9190a4505050565b8280546119c890611fe0565b90600052602060002090601f0160209004810192826119ea5760008555611a30565b82601f10611a0357805160ff1916838001178555611a30565b82800160010185558215611a30579182015b82811115611a30578251825591602001919060010190611a15565b50611a3c929150611a40565b5090565b5b80821115611a3c5760008155600101611a41565b600067ffffffffffffffff80841115611a7057611a70612062565b604051601f8501601f19908116603f01168101908282118183101715611a9857611a98612062565b81604052809350858152868686011115611ab157600080fd5b858560208301376000602087830101525050509392505050565b80356001600160a01b0381168114611ae257600080fd5b919050565b60008083601f840112611af957600080fd5b50813567ffffffffffffffff811115611b1157600080fd5b6020830191508360208260051b8501011115611b2c57600080fd5b9250929050565b600082601f830112611b4457600080fd5b61072e83833560208501611a55565b600060208284031215611b6557600080fd5b61072e82611acb565b60008060408385031215611b8157600080fd5b611b8a83611acb565b9150611b9860208401611acb565b90509250929050565b600080600060608486031215611bb657600080fd5b611bbf84611acb565b9250611bcd60208501611acb565b9150604084013590509250925092565b60008060408385031215611bf057600080fd5b611bf983611acb565b9150602083013567ffffffffffffffff811115611c1557600080fd5b8301601f81018513611c2657600080fd5b611c3585823560208401611a55565b9150509250929050565b60008060408385031215611c5257600080fd5b611c5b83611acb565b946020939093013593505050565b60008060008060408587031215611c7f57600080fd5b843567ffffffffffffffff80821115611c9757600080fd5b611ca388838901611ae7565b90965094506020870135915080821115611cbc57600080fd5b50611cc987828801611ae7565b95989497509550505050565b600060208284031215611ce757600080fd5b5035919050565b60008060408385031215611d0157600080fd5b82359150611b9860208401611acb565b600060208284031215611d2357600080fd5b81356001600160e01b03198116811461072e57600080fd5b60008060008060808587031215611d5157600080fd5b843567ffffffffffffffff80821115611d6957600080fd5b611d7588838901611b33565b95506020870135915080821115611d8b57600080fd5b50611d9887828801611b33565b935050604085013560ff81168114611daf57600080fd5b9396929550929360600135925050565b60008251611dd1818460208701611f9d565b9190910192915050565b7f416363657373436f6e74726f6c3a206163636f756e7420000000000000000000815260008351611e13816017850160208801611f9d565b7001034b99036b4b9b9b4b733903937b6329607d1b6017918401918201528351611e44816028840160208801611f9d565b01602801949350505050565b6020815260008251806020840152611e6f816040850160208701611f9d565b601f01601f19169190910160400192915050565b6020808252602c908201527f46756e6374696f6e206d7573742062652063616c6c6564207468726f7567682060408201526b19195b1959d85d1958d85b1b60a21b606082015260800190565b6020808252602c908201527f46756e6374696f6e206d7573742062652063616c6c6564207468726f7567682060408201526b6163746976652070726f787960a01b606082015260800190565b6020808252602b908201527f496e697469616c697a61626c653a20636f6e7472616374206973206e6f74206960408201526a6e697469616c697a696e6760a81b606082015260800190565b60008219821115611f7957611f79612036565b500190565b6000816000190483118215151615611f9857611f98612036565b500290565b60005b83811015611fb8578181015183820152602001611fa0565b83811115610fbe5750506000910152565b600081611fd857611fd8612036565b506000190190565b600181811c90821680611ff457607f821691505b6020821081141561201557634e487b7160e01b600052602260045260246000fd5b50919050565b600060001982141561202f5761202f612036565b5060010190565b634e487b7160e01b600052601160045260246000fd5b634e487b7160e01b600052603260045260246000fd5b634e487b7160e01b600052604160045260246000fdfea76ace73a908083d89af9ff88e5b4f7cadb3591a80631063f68b695fda726db571840dc4906352362b0cdaf79870196c8e42acafade72d5d5a6d59291253ceb1416464726573733a206c6f772d6c6576656c2064656c65676174652063616c6c206661696c6564a26469706673582212201a36ce9345ae94e76abc7e40c2f79e800ffa5fa5be49b1c0930fa8ed272523f964736f6c63430008060033",
  "linkReferences": {},
  "deployedLinkReferences": {}
}