{
  "_format": "hh-sol-artifact-1",
  "name": "MintSnapshotTemplate",
  "initializer": "function initialize(string name_, string symbol_, uint8 decimals_, uint256 amount_)",
  "sourceName": "contracts/templates/MintSnapshotTemplate.sol",
  "abi": [
    {
      "anonymous": false,
      "inputs": [
        {
          "indexed": false,
          "internalType": "address",
          "name": "previousAdmin",
          "type": "address"
        },
        {
          "indexed": false,
          "internalType": "address",
          "name": "newAdmin",
          "type": "address"
        }
      ],
      "name": "AdminChanged",
      "type": "event"
    },
    {
      "anonymous": false,
      "inputs": [
        {
          "indexed": true,
          "internalType": "address",
          "name": "owner",
          "type": "address"
        },
        {
          "indexed": true,
          "internalType": "address",
          "name": "spender",
          "type": "address"
        },
        {
          "indexed": false,
          "internalType": "uint256",
          "name": "value",
          "type": "uint256"
        }
      ],
      "name": "Approval",
      "type": "event"
    },
    {
      "anonymous": false,
      "inputs": [
        {
          "indexed": true,
          "internalType": "address",
          "name": "beacon",
          "type": "address"
        }
      ],
      "name": "BeaconUpgraded",
      "type": "event"
    },
    {
      "anonymous": false,
      "inputs": [
        {
          "indexed": true,
          "internalType": "bytes32",
          "name": "role",
          "type": "bytes32"
        },
        {
          "indexed": true,
          "internalType": "bytes32",
          "name": "previousAdminRole",
          "type": "bytes32"
        },
        {
          "indexed": true,
          "internalType": "bytes32",
          "name": "newAdminRole",
          "type": "bytes32"
        }
      ],
      "name": "RoleAdminChanged",
      "type": "event"
    },
    {
      "anonymous": false,
      "inputs": [
        {
          "indexed": true,
          "internalType": "bytes32",
          "name": "role",
          "type": "bytes32"
        },
        {
          "indexed": true,
          "internalType": "address",
          "name": "account",
          "type": "address"
        },
        {
          "indexed": true,
          "internalType": "address",
          "name": "sender",
          "type": "address"
        }
      ],
      "name": "RoleGranted",
      "type": "event"
    },
    {
      "anonymous": false,
      "inputs": [
        {
          "indexed": true,
          "internalType": "bytes32",
          "name": "role",
          "type": "bytes32"
        },
        {
          "indexed": true,
          "internalType": "address",
          "name": "account",
          "type": "address"
        },
        {
          "indexed": true,
          "internalType": "address",
          "name": "sender",
          "type": "address"
        }
      ],
      "name": "RoleRevoked",
      "type": "event"
    },
    {
      "anonymous": false,
      "inputs": [
        {
          "indexed": false,
          "internalType": "uint256",
          "name": "id",
          "type": "uint256"
        }
      ],
      "name": "Snapshot",
      "type": "event"
    },
    {
      "anonymous": false,
      "inputs": [
        {
          "indexed": true,
          "internalType": "address",
          "name": "from",
          "type": "address"
        },
        {
          "indexed": true,
          "internalType": "address",
          "name": "to",
          "type": "address"
        },
        {
          "indexed": false,
          "internalType": "uint256",
          "name": "value",
          "type": "uint256"
        }
      ],
      "name": "Transfer",
      "type": "event"
    },
    {
      "anonymous": false,
      "inputs": [
        {
          "indexed": true,
          "internalType": "address",
          "name": "implementation",
          "type": "address"
        }
      ],
      "name": "Upgraded",
      "type": "event"
    },
    {
      "inputs": [],
      "name": "DEFAULT_ADMIN_ROLE",
      "outputs": [
        {
          "internalType": "bytes32",
          "name": "",
          "type": "bytes32"
        }
      ],
      "stateMutability": "view",
      "type": "function"
    },
    {
      "inputs": [],
      "name": "GOVERNANCE_ROLE",
      "outputs": [
        {
          "internalType": "bytes32",
          "name": "",
          "type": "bytes32"
        }
      ],
      "stateMutability": "view",
      "type": "function"
    },
    {
      "inputs": [],
      "name": "MINTER_ROLE",
      "outputs": [
        {
          "internalType": "bytes32",
          "name": "",
          "type": "bytes32"
        }
      ],
      "stateMutability": "view",
      "type": "function"
    },
    {
      "inputs": [],
      "name": "UPGRADE_MANAGER_ROLE",
      "outputs": [
        {
          "internalType": "bytes32",
          "name": "",
          "type": "bytes32"
        }
      ],
      "stateMutability": "view",
      "type": "function"
    },
    {
      "inputs": [
        {
          "internalType": "address",
          "name": "owner",
          "type": "address"
        },
        {
          "internalType": "address",
          "name": "spender",
          "type": "address"
        }
      ],
      "name": "allowance",
      "outputs": [
        {
          "internalType": "uint256",
          "name": "",
          "type": "uint256"
        }
      ],
      "stateMutability": "view",
      "type": "function"
    },
    {
      "inputs": [
        {
          "internalType": "address",
          "name": "spender",
          "type": "address"
        },
        {
          "internalType": "uint256",
          "name": "amount",
          "type": "uint256"
        }
      ],
      "name": "approve",
      "outputs": [
        {
          "internalType": "bool",
          "name": "",
          "type": "bool"
        }
      ],
      "stateMutability": "nonpayable",
      "type": "function"
    },
    {
      "inputs": [
        {
          "internalType": "address",
          "name": "account",
          "type": "address"
        }
      ],
      "name": "balanceOf",
      "outputs": [
        {
          "internalType": "uint256",
          "name": "",
          "type": "uint256"
        }
      ],
      "stateMutability": "view",
      "type": "function"
    },
    {
      "inputs": [
        {
          "internalType": "address",
          "name": "account",
          "type": "address"
        },
        {
          "internalType": "uint256",
          "name": "snapshotId",
          "type": "uint256"
        }
      ],
      "name": "balanceOfAt",
      "outputs": [
        {
          "internalType": "uint256",
          "name": "",
          "type": "uint256"
        }
      ],
      "stateMutability": "view",
      "type": "function"
    },
    {
      "inputs": [
        {
          "internalType": "address[]",
          "name": "accounts",
          "type": "address[]"
        },
        {
          "internalType": "uint256[]",
          "name": "amounts",
          "type": "uint256[]"
        }
      ],
      "name": "bulkMint",
      "outputs": [],
      "stateMutability": "nonpayable",
      "type": "function"
    },
    {
      "inputs": [],
      "name": "decimals",
      "outputs": [
        {
          "internalType": "uint8",
          "name": "",
          "type": "uint8"
        }
      ],
      "stateMutability": "view",
      "type": "function"
    },
    {
      "inputs": [
        {
          "internalType": "address",
          "name": "spender",
          "type": "address"
        },
        {
          "internalType": "uint256",
          "name": "subtractedValue",
          "type": "uint256"
        }
      ],
      "name": "decreaseAllowance",
      "outputs": [
        {
          "internalType": "bool",
          "name": "",
          "type": "bool"
        }
      ],
      "stateMutability": "nonpayable",
      "type": "function"
    },
    {
      "inputs": [],
      "name": "getCurrentSnapshotId",
      "outputs": [
        {
          "internalType": "uint256",
          "name": "",
          "type": "uint256"
        }
      ],
      "stateMutability": "view",
      "type": "function"
    },
    {
      "inputs": [],
      "name": "getImplementation",
      "outputs": [
        {
          "internalType": "address",
          "name": "",
          "type": "address"
        }
      ],
      "stateMutability": "view",
      "type": "function"
    },
    {
      "inputs": [
        {
          "internalType": "bytes32",
          "name": "role",
          "type": "bytes32"
        }
      ],
      "name": "getRoleAdmin",
      "outputs": [
        {
          "internalType": "bytes32",
          "name": "",
          "type": "bytes32"
        }
      ],
      "stateMutability": "view",
      "type": "function"
    },
    {
      "inputs": [
        {
          "internalType": "bytes32",
          "name": "role",
          "type": "bytes32"
        },
        {
          "internalType": "address",
          "name": "account",
          "type": "address"
        }
      ],
      "name": "grantRole",
      "outputs": [],
      "stateMutability": "nonpayable",
      "type": "function"
    },
    {
      "inputs": [
        {
          "internalType": "bytes32",
          "name": "role",
          "type": "bytes32"
        },
        {
          "internalType": "address",
          "name": "account",
          "type": "address"
        }
      ],
      "name": "hasRole",
      "outputs": [
        {
          "internalType": "bool",
          "name": "",
          "type": "bool"
        }
      ],
      "stateMutability": "view",
      "type": "function"
    },
    {
      "inputs": [
        {
          "internalType": "address",
          "name": "spender",
          "type": "address"
        },
        {
          "internalType": "uint256",
          "name": "addedValue",
          "type": "uint256"
        }
      ],
      "name": "increaseAllowance",
      "outputs": [
        {
          "internalType": "bool",
          "name": "",
          "type": "bool"
        }
      ],
      "stateMutability": "nonpayable",
      "type": "function"
    },
    {
      "inputs": [
        {
          "internalType": "string",
          "name": "name_",
          "type": "string"
        },
        {
          "internalType": "string",
          "name": "symbol_",
          "type": "string"
        },
        {
          "internalType": "uint8",
          "name": "decimals_",
          "type": "uint8"
        },
        {
          "internalType": "uint256",
          "name": "amount_",
          "type": "uint256"
        }
      ],
      "name": "initialize",
      "outputs": [],
      "stateMutability": "nonpayable",
      "type": "function"
    },
    {
      "inputs": [
        {
          "internalType": "address",
          "name": "account",
          "type": "address"
        },
        {
          "internalType": "uint256",
          "name": "amount",
          "type": "uint256"
        }
      ],
      "name": "mint",
      "outputs": [],
      "stateMutability": "nonpayable",
      "type": "function"
    },
    {
      "inputs": [],
      "name": "name",
      "outputs": [
        {
          "internalType": "string",
          "name": "",
          "type": "string"
        }
      ],
      "stateMutability": "view",
      "type": "function"
    },
    {
      "inputs": [
        {
          "internalType": "address",
          "name": "implementationAddress",
          "type": "address"
        }
      ],
      "name": "proposeNewImplementation",
      "outputs": [],
      "stateMutability": "nonpayable",
      "type": "function"
    },
    {
      "inputs": [
        {
          "internalType": "bytes32",
          "name": "role",
          "type": "bytes32"
        },
        {
          "internalType": "address",
          "name": "account",
          "type": "address"
        }
      ],
      "name": "renounceRole",
      "outputs": [],
      "stateMutability": "nonpayable",
      "type": "function"
    },
    {
      "inputs": [
        {
          "internalType": "bytes32",
          "name": "role",
          "type": "bytes32"
        },
        {
          "internalType": "address",
          "name": "account",
          "type": "address"
        }
      ],
      "name": "revokeRole",
      "outputs": [],
      "stateMutability": "nonpayable",
      "type": "function"
    },
    {
      "inputs": [],
      "name": "snapshot",
      "outputs": [],
      "stateMutability": "nonpayable",
      "type": "function"
    },
    {
      "inputs": [
        {
          "internalType": "bytes4",
          "name": "interfaceId",
          "type": "bytes4"
        }
      ],
      "name": "supportsInterface",
      "outputs": [
        {
          "internalType": "bool",
          "name": "",
          "type": "bool"
        }
      ],
      "stateMutability": "view",
      "type": "function"
    },
    {
      "inputs": [],
      "name": "symbol",
      "outputs": [
        {
          "internalType": "string",
          "name": "",
          "type": "string"
        }
      ],
      "stateMutability": "view",
      "type": "function"
    },
    {
      "inputs": [],
      "name": "totalSupply",
      "outputs": [
        {
          "internalType": "uint256",
          "name": "",
          "type": "uint256"
        }
      ],
      "stateMutability": "view",
      "type": "function"
    },
    {
      "inputs": [
        {
          "internalType": "uint256",
          "name": "snapshotId",
          "type": "uint256"
        }
      ],
      "name": "totalSupplyAt",
      "outputs": [
        {
          "internalType": "uint256",
          "name": "",
          "type": "uint256"
        }
      ],
      "stateMutability": "view",
      "type": "function"
    },
    {
      "inputs": [
        {
          "internalType": "address",
          "name": "recipient",
          "type": "address"
        },
        {
          "internalType": "uint256",
          "name": "amount",
          "type": "uint256"
        }
      ],
      "name": "transfer",
      "outputs": [
        {
          "internalType": "bool",
          "name": "",
          "type": "bool"
        }
      ],
      "stateMutability": "nonpayable",
      "type": "function"
    },
    {
      "inputs": [
        {
          "internalType": "address",
          "name": "sender",
          "type": "address"
        },
        {
          "internalType": "address",
          "name": "recipient",
          "type": "address"
        },
        {
          "internalType": "uint256",
          "name": "amount",
          "type": "uint256"
        }
      ],
      "name": "transferFrom",
      "outputs": [
        {
          "internalType": "bool",
          "name": "",
          "type": "bool"
        }
      ],
      "stateMutability": "nonpayable",
      "type": "function"
    },
    {
      "inputs": [
        {
          "internalType": "address",
          "name": "newImplementation",
          "type": "address"
        }
      ],
      "name": "upgradeTo",
      "outputs": [],
      "stateMutability": "nonpayable",
      "type": "function"
    },
    {
      "inputs": [
        {
          "internalType": "address",
          "name": "newImplementation",
          "type": "address"
        },
        {
          "internalType": "bytes",
          "name": "data",
          "type": "bytes"
        }
      ],
      "name": "upgradeToAndCall",
      "outputs": [],
      "stateMutability": "payable",
      "type": "function"
    }
  ],
  "bytecode": "0x60a06040523060601b60805234801561001757600080fd5b5060805160601c6127b061004b600039600081816109500152818161099001528181610b6c0152610bac01526127b06000f3fe6080604052600436106101e35760003560e01c80634f1ef28611610102578063a217fddf11610095578063d539139311610064578063d53913931461057f578063d547741f146105b3578063dd62ed3e146105d3578063f36c8f5c1461061957600080fd5b8063a217fddf146104fd578063a457c2d714610512578063a9059cbb14610532578063aaf10f421461055257600080fd5b806391d14854116100d157806391d148541461049357806395d89b41146104b35780639711715a146104c8578063981b24d0146104dd57600080fd5b80634f1ef286146104155780635439ad86146104285780636ae459bd1461043d57806370a082311461045d57600080fd5b8063313ce5671161017a57806340c10f191161014957806340c10f191461039357806343ffa64e146103b357806347757fb6146103d55780634ee2cd7e146103f557600080fd5b8063313ce5671461031057806336568abe146103335780633659cfe614610353578063395093511461037357600080fd5b806323b872dd116101b657806323b872dd1461027e578063248a9ca31461029e578063253279ad146102ce5780632f2ff15d146102f057600080fd5b806301ffc9a7146101e857806306fdde031461021d578063095ea7b31461023f57806318160ddd1461025f575b600080fd5b3480156101f457600080fd5b50610208610203366004612359565b61063b565b60405190151581526020015b60405180910390f35b34801561022957600080fd5b50610232610672565b6040516102149190612498565b34801561024b57600080fd5b5061020861025a366004612287565b610704565b34801561026b57600080fd5b506067545b604051908152602001610214565b34801561028a57600080fd5b506102086102993660046121e9565b61071a565b3480156102aa57600080fd5b506102706102b936600461231d565b600090815260fb602052604090206001015490565b3480156102da57600080fd5b506102ee6102e9366004612383565b6107cb565b005b3480156102fc57600080fd5b506102ee61030b366004612336565b61089c565b34801561031c57600080fd5b506101605460405160ff9091168152602001610214565b34801561033f57600080fd5b506102ee61034e366004612336565b6108c7565b34801561035f57600080fd5b506102ee61036e36600461219b565b610945565b34801561037f57600080fd5b5061020861038e366004612287565b610a0e565b34801561039f57600080fd5b506102ee6103ae366004612287565b610a4a565b3480156103bf57600080fd5b506102706000805160206126f483398151915281565b3480156103e157600080fd5b506102ee6103f036600461219b565b610a7f565b34801561040157600080fd5b50610270610410366004612287565b610abc565b6102ee610423366004612225565b610b61565b34801561043457600080fd5b50610270610c17565b34801561044957600080fd5b506102ee6104583660046122b1565b610c34565b34801561046957600080fd5b5061027061047836600461219b565b6001600160a01b031660009081526065602052604090205490565b34801561049f57600080fd5b506102086104ae366004612336565b610d13565b3480156104bf57600080fd5b50610232610d3e565b3480156104d457600080fd5b506102ee610d4d565b3480156104e957600080fd5b506102706104f836600461231d565b610d55565b34801561050957600080fd5b50610270600081565b34801561051e57600080fd5b5061020861052d366004612287565b610dc0565b34801561053e57600080fd5b5061020861054d366004612287565b610e59565b34801561055e57600080fd5b50610567610e66565b6040516001600160a01b039091168152602001610214565b34801561058b57600080fd5b506102707ff9424f4303d7f03683a025eb8885734ad99b47df7749d9b0a02cbc985809700b81565b3480156105bf57600080fd5b506102ee6105ce366004612336565b610e70565b3480156105df57600080fd5b506102706105ee3660046121b6565b6001600160a01b03918216600090815260666020908152604080832093909416825291909152205490565b34801561062557600080fd5b5061027060008051602061271483398151915281565b60006001600160e01b03198216637965db0b60e01b148061066c57506301ffc9a760e01b6001600160e01b03198316145b92915050565b60606068805461068190612661565b80601f01602080910402602001604051908101604052809291908181526020018280546106ad90612661565b80156106fa5780601f106106cf576101008083540402835291602001916106fa565b820191906000526020600020905b8154815290600101906020018083116106dd57829003601f168201915b5050505050905090565b6000610711338484610e96565b50600192915050565b6000610727848484610fba565b6001600160a01b0384166000908152606660209081526040808320338452909152902054828110156107b15760405162461bcd60e51b815260206004820152602860248201527f45524332303a207472616e7366657220616d6f756e74206578636565647320616044820152676c6c6f77616e636560c01b60648201526084015b60405180910390fd5b6107be8533858403610e96565b60019150505b9392505050565b600054610100900460ff166107e65760005460ff16156107ea565b303b155b61084d5760405162461bcd60e51b815260206004820152602e60248201527f496e697469616c697a61626c653a20636f6e747261637420697320616c72656160448201526d191e481a5b9a5d1a585b1a5e995960921b60648201526084016107a8565b600054610100900460ff1615801561086f576000805461ffff19166101011790555b61087b85858585611195565b6108836111d8565b8015610895576000805461ff00191690555b5050505050565b600082815260fb60205260409020600101546108b88133611201565b6108c28383611265565b505050565b6001600160a01b03811633146109375760405162461bcd60e51b815260206004820152602f60248201527f416363657373436f6e74726f6c3a2063616e206f6e6c792072656e6f756e636560448201526e103937b632b9903337b91039b2b63360891b60648201526084016107a8565b61094182826112eb565b5050565b306001600160a01b037f000000000000000000000000000000000000000000000000000000000000000016141561098e5760405162461bcd60e51b81526004016107a8906124cb565b7f00000000000000000000000000000000000000000000000000000000000000006001600160a01b03166109c0611352565b6001600160a01b0316146109e65760405162461bcd60e51b81526004016107a890612517565b6109ef81611380565b60408051600080825260208201909252610a0b91839190611402565b50565b3360008181526066602090815260408083206001600160a01b03871684529091528120549091610711918590610a459086906125ae565b610e96565b7ff9424f4303d7f03683a025eb8885734ad99b47df7749d9b0a02cbc985809700b610a758133611201565b6108c28383611546565b600080516020612714833981519152610a988133611201565b5061012d80546001600160a01b0319166001600160a01b0392909216919091179055565b604080516001600160a01b0384166020808301919091527ffbf1c7065455eb4486649b8540f24ef2dd4ebedf2aa423f0039d17c2c75dea15828401528251808303840181526060909201909252805191012060009081610b1d8260016125ae565b9050600080610b2d868585611631565b9150915081610b54576001600160a01b038716600090815260656020526040902054610b56565b805b979650505050505050565b306001600160a01b037f0000000000000000000000000000000000000000000000000000000000000000161415610baa5760405162461bcd60e51b81526004016107a8906124cb565b7f00000000000000000000000000000000000000000000000000000000000000006001600160a01b0316610bdc611352565b6001600160a01b031614610c025760405162461bcd60e51b81526004016107a890612517565b610c0b82611380565b61094182826001611402565b6000610c2f60008051602061275b8339815191525490565b905090565b7ff9424f4303d7f03683a025eb8885734ad99b47df7749d9b0a02cbc985809700b610c5f8133611201565b838214610ca65760405162461bcd60e51b8152602060048201526015602482015274082e4e4c2f240d8cadccee8d040dad2e6dac2e8c6d605b1b60448201526064016107a8565b60005b84811015610d0b57610cf9868683818110610cc657610cc66126c7565b9050602002016020810190610cdb919061219b565b858584818110610ced57610ced6126c7565b90506020020135611546565b80610d0381612696565b915050610ca9565b505050505050565b600091825260fb602090815260408084206001600160a01b0393909316845291905290205460ff1690565b60606069805461068190612661565b610a0b61171c565b6000806000610da5847f286a9db37a0f8ddcbcee127c9f4f56031230f49cb46786f87e166d552e11f67e7ffcaa8bb100d3c5b627eac0369cc1d2778dbeffa2993d08f039fb27795729e9a5611631565b9150915081610db657606754610db8565b805b949350505050565b3360009081526066602090815260408083206001600160a01b038616845290915281205482811015610e425760405162461bcd60e51b815260206004820152602560248201527f45524332303a2064656372656173656420616c6c6f77616e63652062656c6f77604482015264207a65726f60d81b60648201526084016107a8565b610e4f3385858403610e96565b5060019392505050565b6000610711338484610fba565b6000610c2f611352565b600082815260fb6020526040902060010154610e8c8133611201565b6108c283836112eb565b6001600160a01b038316610ef85760405162461bcd60e51b8152602060048201526024808201527f45524332303a20617070726f76652066726f6d20746865207a65726f206164646044820152637265737360e01b60648201526084016107a8565b6001600160a01b038216610f595760405162461bcd60e51b815260206004820152602260248201527f45524332303a20617070726f766520746f20746865207a65726f206164647265604482015261737360f01b60648201526084016107a8565b6001600160a01b0383811660008181526066602090815260408083209487168084529482529182902085905590518481527f8c5be1e5ebec7d5bd14f71427d1e84f3dd0314c0f7b2291e5b200ac8c7c3b925910160405180910390a3505050565b6001600160a01b03831661101e5760405162461bcd60e51b815260206004820152602560248201527f45524332303a207472616e736665722066726f6d20746865207a65726f206164604482015264647265737360d81b60648201526084016107a8565b6001600160a01b0382166110805760405162461bcd60e51b815260206004820152602360248201527f45524332303a207472616e7366657220746f20746865207a65726f206164647260448201526265737360e81b60648201526084016107a8565b61108b83838361178c565b6001600160a01b038316600090815260656020526040902054818110156111035760405162461bcd60e51b815260206004820152602660248201527f45524332303a207472616e7366657220616d6f756e7420657863656564732062604482015265616c616e636560d01b60648201526084016107a8565b6001600160a01b0380851660009081526065602052604080822085850390559185168152908120805484929061113a9084906125ae565b92505081905550826001600160a01b0316846001600160a01b03167fddf252ad1be2c89b69c2b068fc378daa952ba7f163c4a11628f55a4df523b3ef8460405161118691815260200190565b60405180910390a35b50505050565b600054610100900460ff166111bc5760405162461bcd60e51b81526004016107a890612563565b6111c46117a2565b6111ce84846117f9565b61118f8282611847565b600054610100900460ff166111ff5760405162461bcd60e51b81526004016107a890612563565b565b61120b8282610d13565b61094157611223816001600160a01b03166014611888565b61122e836020611888565b60405160200161123f929190612423565b60408051601f198184030181529082905262461bcd60e51b82526107a891600401612498565b61126f8282610d13565b61094157600082815260fb602090815260408083206001600160a01b03851684529091529020805460ff191660011790556112a73390565b6001600160a01b0316816001600160a01b0316837f2f8788117e7eff1d82e926ec794901d17c78024a50270940304540a733656f0d60405160405180910390a45050565b6112f58282610d13565b1561094157600082815260fb602090815260408083206001600160a01b0385168085529252808320805460ff1916905551339285917ff6391f5c32d9c69d2a47ea670b442974b53935d1edc7fd64eb21e047a839171b9190a45050565b7f360894a13ba1a3210667c828492db98dca3e2076cc3735a920a3ca505d382bbc546001600160a01b031690565b61139860008051602061271483398151915233610d13565b806113b657506113b66000805160206126f483398151915233610d13565b610a0b5760405162461bcd60e51b815260206004820152601d60248201527f4552524f523a2041646472657373206e6f7420617574686f72697a656400000060448201526064016107a8565b600061140c611352565b905061141784611a24565b6000835111806114245750815b15611435576114338484611ac9565b505b7f4910fdfa16fed3260ed0e7147f7cc6da11a60208b5b9406d12a635614ffd9143805460ff1661089557805460ff191660011781556040516001600160a01b03831660248201526114b490869060440160408051601f198184030181529190526020810180516001600160e01b0316631b2ce7f360e11b179052611ac9565b50805460ff191681556114c5611352565b6001600160a01b0316826001600160a01b03161461153d5760405162461bcd60e51b815260206004820152602f60248201527f45524331393637557067726164653a207570677261646520627265616b73206660448201526e75727468657220757067726164657360881b60648201526084016107a8565b61089585611bb4565b6001600160a01b03821661159c5760405162461bcd60e51b815260206004820152601f60248201527f45524332303a206d696e7420746f20746865207a65726f20616464726573730060448201526064016107a8565b6115a86000838361178c565b80606760008282546115ba91906125ae565b90915550506001600160a01b038216600090815260656020526040812080548392906115e79084906125ae565b90915550506040518181526001600160a01b038316906000907fddf252ad1be2c89b69c2b068fc378daa952ba7f163c4a11628f55a4df523b3ef9060200160405180910390a35050565b6000806000851161167d5760405162461bcd60e51b815260206004820152601660248201527504552433230536e617073686f743a20696420697320360541b60448201526064016107a8565b60008051602061275b833981519152548511156116dc5760405162461bcd60e51b815260206004820152601d60248201527f4552433230536e617073686f743a206e6f6e6578697374656e7420696400000060448201526064016107a8565b60006116e88587611bf4565b90508454811415611700576000809250925050611714565b600161170c8583611c93565b549093509150505b935093915050565b6000600160008051602061275b833981519152805460009061173f9084906125ae565b909155505060008051602061275b833981519152546040518181527f8030e83b04d87bef53480e26263266d6ca66863aa8506aca6f2559d18aa1cb679060200160405180910390a1919050565b611797838383611d12565b6108c2838383611d1d565b600054610100900460ff166117c95760405162461bcd60e51b81526004016107a890612563565b6117d16111d8565b6117d96111d8565b6117e16111d8565b6117e96111d8565b6117f16111d8565b6111ff611d65565b600054610100900460ff166118205760405162461bcd60e51b81526004016107a890612563565b8151611833906068906020850190612004565b5080516108c2906069906020840190612004565b600054610100900460ff1661186e5760405162461bcd60e51b81526004016107a890612563565b610160805460ff191660ff84161790556109413382611546565b606060006118978360026125e8565b6118a29060026125ae565b67ffffffffffffffff8111156118ba576118ba6126dd565b6040519080825280601f01601f1916602001820160405280156118e4576020820181803683370190505b509050600360fc1b816000815181106118ff576118ff6126c7565b60200101906001600160f81b031916908160001a905350600f60fb1b8160018151811061192e5761192e6126c7565b60200101906001600160f81b031916908160001a90535060006119528460026125e8565b61195d9060016125ae565b90505b60018111156119d5576f181899199a1a9b1b9c1cb0b131b232b360811b85600f1660108110611991576119916126c7565b1a60f81b8282815181106119a7576119a76126c7565b60200101906001600160f81b031916908160001a90535060049490941c936119ce8161264a565b9050611960565b5083156107c45760405162461bcd60e51b815260206004820181905260248201527f537472696e67733a20686578206c656e67746820696e73756666696369656e7460448201526064016107a8565b803b611a885760405162461bcd60e51b815260206004820152602d60248201527f455243313936373a206e657720696d706c656d656e746174696f6e206973206e60448201526c1bdd08184818dbdb9d1c9858dd609a1b60648201526084016107a8565b7f360894a13ba1a3210667c828492db98dca3e2076cc3735a920a3ca505d382bbc80546001600160a01b0319166001600160a01b0392909216919091179055565b6060823b611b285760405162461bcd60e51b815260206004820152602660248201527f416464726573733a2064656c65676174652063616c6c20746f206e6f6e2d636f6044820152651b9d1c9858dd60d21b60648201526084016107a8565b600080846001600160a01b031684604051611b439190612407565b600060405180830381855af49150503d8060008114611b7e576040519150601f19603f3d011682016040523d82523d6000602084013e611b83565b606091505b5091509150611bab828260405180606001604052806027815260200161273460279139611ded565b95945050505050565b611bbd81611a24565b6040516001600160a01b038216907fbc7cd75a20ee27fd9adebab32041f755214dbc6bffa90cc0225b39da2e5c2d3b90600090a250565b8154600090819080611c0b5760009250505061066c565b80821015611c4f576000611c1f8383611e26565b905084611c2c8783611c93565b541115611c3b57809150611c49565b611c468160016125ae565b92505b50611c0b565b600082118015611c72575083611c6f86611c6a600186612607565b611c93565b54145b15611c8b57611c82600183612607565b9250505061066c565b50905061066c565b600082548210611cdb5760405162461bcd60e51b815260206004820152601360248201527211549493d48e8813dd5d081bd988189bdd5b99606a1b60448201526064016107a8565b8183604051602001611cef91815260200190565b6040516020818303038152906040528051906020012060001c6107c491906125ae565b6108c2838383611797565b6001600160a01b038316611d3c57611d3482611e41565b6108c2611ecb565b6001600160a01b038216611d5357611d3483611e41565b611d5c83611e41565b6108c282611e41565b600054610100900460ff16611d8c5760405162461bcd60e51b81526004016107a890612563565b611d97600033611f19565b611daf60008051602061271483398151915233611f19565b611dc76000805160206126f483398151915233611f19565b6111ff6000805160206126f4833981519152600080516020612714833981519152611f23565b60608315611dfc5750816107c4565b825115611e0c5782518084602001fd5b8160405162461bcd60e51b81526004016107a89190612498565b6000611e3560028484186125c6565b6107c4908484166125ae565b604080516001600160a01b0383166020808301919091527ffbf1c7065455eb4486649b8540f24ef2dd4ebedf2aa423f0039d17c2c75dea1582840152825180830384018152606090920190925280519101206000611ea08260016125ae565b90506108c28282611ec6866001600160a01b031660009081526065602052604090205490565b611f6e565b6111ff7f286a9db37a0f8ddcbcee127c9f4f56031230f49cb46786f87e166d552e11f67e7ffcaa8bb100d3c5b627eac0369cc1d2778dbeffa2993d08f039fb27795729e9a5611ec660675490565b6109418282611265565b600082815260fb6020526040808220600101805490849055905190918391839186917fbd79b86ffe0ab8e8776151514217cd7cacd52c909f66475c3af44e129f0b00ff9190a4505050565b6000611f8660008051602061275b8339815191525490565b905080611f9285611fac565b101561118f57611fa28482611fdc565b61118f8383611fdc565b805460009080611fbf5750600092915050565b611fce83611c6a600184612607565b549392505050565b50919050565b81546001836000611fed83856125ae565b90915550829050611ffe8483611c93565b55505050565b82805461201090612661565b90600052602060002090601f0160209004810192826120325760008555612078565b82601f1061204b57805160ff1916838001178555612078565b82800160010185558215612078579182015b8281111561207857825182559160200191906001019061205d565b50612084929150612088565b5090565b5b808211156120845760008155600101612089565b600067ffffffffffffffff808411156120b8576120b86126dd565b604051601f8501601f19908116603f011681019082821181831017156120e0576120e06126dd565b816040528093508581528686860111156120f957600080fd5b858560208301376000602087830101525050509392505050565b80356001600160a01b038116811461212a57600080fd5b919050565b60008083601f84011261214157600080fd5b50813567ffffffffffffffff81111561215957600080fd5b6020830191508360208260051b850101111561217457600080fd5b9250929050565b600082601f83011261218c57600080fd5b6107c48383356020850161209d565b6000602082840312156121ad57600080fd5b6107c482612113565b600080604083850312156121c957600080fd5b6121d283612113565b91506121e060208401612113565b90509250929050565b6000806000606084860312156121fe57600080fd5b61220784612113565b925061221560208501612113565b9150604084013590509250925092565b6000806040838503121561223857600080fd5b61224183612113565b9150602083013567ffffffffffffffff81111561225d57600080fd5b8301601f8101851361226e57600080fd5b61227d8582356020840161209d565b9150509250929050565b6000806040838503121561229a57600080fd5b6122a383612113565b946020939093013593505050565b600080600080604085870312156122c757600080fd5b843567ffffffffffffffff808211156122df57600080fd5b6122eb8883890161212f565b9096509450602087013591508082111561230457600080fd5b506123118782880161212f565b95989497509550505050565b60006020828403121561232f57600080fd5b5035919050565b6000806040838503121561234957600080fd5b823591506121e060208401612113565b60006020828403121561236b57600080fd5b81356001600160e01b0319811681146107c457600080fd5b6000806000806080858703121561239957600080fd5b843567ffffffffffffffff808211156123b157600080fd5b6123bd8883890161217b565b955060208701359150808211156123d357600080fd5b506123e08782880161217b565b935050604085013560ff811681146123f757600080fd5b9396929550929360600135925050565b6000825161241981846020870161261e565b9190910192915050565b7f416363657373436f6e74726f6c3a206163636f756e742000000000000000000081526000835161245b81601785016020880161261e565b7001034b99036b4b9b9b4b733903937b6329607d1b601791840191820152835161248c81602884016020880161261e565b01602801949350505050565b60208152600082518060208401526124b781604085016020870161261e565b601f01601f19169190910160400192915050565b6020808252602c908201527f46756e6374696f6e206d7573742062652063616c6c6564207468726f7567682060408201526b19195b1959d85d1958d85b1b60a21b606082015260800190565b6020808252602c908201527f46756e6374696f6e206d7573742062652063616c6c6564207468726f7567682060408201526b6163746976652070726f787960a01b606082015260800190565b6020808252602b908201527f496e697469616c697a61626c653a20636f6e7472616374206973206e6f74206960408201526a6e697469616c697a696e6760a81b606082015260800190565b600082198211156125c1576125c16126b1565b500190565b6000826125e357634e487b7160e01b600052601260045260246000fd5b500490565b6000816000190483118215151615612602576126026126b1565b500290565b600082821015612619576126196126b1565b500390565b60005b83811015612639578181015183820152602001612621565b8381111561118f5750506000910152565b600081612659576126596126b1565b506000190190565b600181811c9082168061267557607f821691505b60208210811415611fd657634e487b7160e01b600052602260045260246000fd5b60006000198214156126aa576126aa6126b1565b5060010190565b634e487b7160e01b600052601160045260246000fd5b634e487b7160e01b600052603260045260246000fd5b634e487b7160e01b600052604160045260246000fdfea76ace73a908083d89af9ff88e5b4f7cadb3591a80631063f68b695fda726db571840dc4906352362b0cdaf79870196c8e42acafade72d5d5a6d59291253ceb1416464726573733a206c6f772d6c6576656c2064656c65676174652063616c6c206661696c65640d0a0ed3351c10a57d74a44b40c06e0946288e4e3816ac07bb89db2a755562e7a2646970667358221220f6ac9d876f15111a94cbbbec3298a14e7906185711d03ebab4ec373ad72a53ec64736f6c63430008060033",
  "linkReferences": {},
  "deployedLinkReferences": {}
}