{
  "_format": "hh-sol-artifact-1",
  "name": "SnapshotTxFeeWhiteListTemplate",
  "initializer": "function initialize(string name_, string symbol_, uint8 decimals_, uint256 amount_, uint256 txFee, address txFeeBeneficiary)",
  "sourceName": "contracts/templates/SnapshotTxFeeWhiteListTemplate.sol",
  "abi": [
    {
      "anonymous": false,
      "inputs": [
        {
          "indexed": false,
          "internalType": "address",
          "name": "previousAdmin",
          "type": "address"
        },
        {
          "indexed": false,
          "internalType": "address",
          "name": "newAdmin",
          "type": "address"
        }
      ],
      "name": "AdminChanged",
      "type": "event"
    },
    {
      "anonymous": false,
      "inputs": [
        {
          "indexed": true,
          "internalType": "address",
          "name": "owner",
          "type": "address"
        },
        {
          "indexed": true,
          "internalType": "address",
          "name": "spender",
          "type": "address"
        },
        {
          "indexed": false,
          "internalType": "uint256",
          "name": "value",
          "type": "uint256"
        }
      ],
      "name": "Approval",
      "type": "event"
    },
    {
      "anonymous": false,
      "inputs": [
        {
          "indexed": true,
          "internalType": "address",
          "name": "beacon",
          "type": "address"
        }
      ],
      "name": "BeaconUpgraded",
      "type": "event"
    },
    {
      "anonymous": false,
      "inputs": [
        {
          "indexed": false,
          "internalType": "address",
          "name": "account",
          "type": "address"
        }
      ],
      "name": "Paused",
      "type": "event"
    },
    {
      "anonymous": false,
      "inputs": [
        {
          "indexed": true,
          "internalType": "bytes32",
          "name": "role",
          "type": "bytes32"
        },
        {
          "indexed": true,
          "internalType": "bytes32",
          "name": "previousAdminRole",
          "type": "bytes32"
        },
        {
          "indexed": true,
          "internalType": "bytes32",
          "name": "newAdminRole",
          "type": "bytes32"
        }
      ],
      "name": "RoleAdminChanged",
      "type": "event"
    },
    {
      "anonymous": false,
      "inputs": [
        {
          "indexed": true,
          "internalType": "bytes32",
          "name": "role",
          "type": "bytes32"
        },
        {
          "indexed": true,
          "internalType": "address",
          "name": "account",
          "type": "address"
        },
        {
          "indexed": true,
          "internalType": "address",
          "name": "sender",
          "type": "address"
        }
      ],
      "name": "RoleGranted",
      "type": "event"
    },
    {
      "anonymous": false,
      "inputs": [
        {
          "indexed": true,
          "internalType": "bytes32",
          "name": "role",
          "type": "bytes32"
        },
        {
          "indexed": true,
          "internalType": "address",
          "name": "account",
          "type": "address"
        },
        {
          "indexed": true,
          "internalType": "address",
          "name": "sender",
          "type": "address"
        }
      ],
      "name": "RoleRevoked",
      "type": "event"
    },
    {
      "anonymous": false,
      "inputs": [
        {
          "indexed": false,
          "internalType": "uint256",
          "name": "id",
          "type": "uint256"
        }
      ],
      "name": "Snapshot",
      "type": "event"
    },
    {
      "anonymous": false,
      "inputs": [
        {
          "indexed": true,
          "internalType": "address",
          "name": "from",
          "type": "address"
        },
        {
          "indexed": true,
          "internalType": "address",
          "name": "to",
          "type": "address"
        },
        {
          "indexed": false,
          "internalType": "uint256",
          "name": "value",
          "type": "uint256"
        }
      ],
      "name": "Transfer",
      "type": "event"
    },
    {
      "anonymous": false,
      "inputs": [
        {
          "indexed": false,
          "internalType": "address",
          "name": "account",
          "type": "address"
        }
      ],
      "name": "Unpaused",
      "type": "event"
    },
    {
      "anonymous": false,
      "inputs": [
        {
          "indexed": true,
          "internalType": "address",
          "name": "implementation",
          "type": "address"
        }
      ],
      "name": "Upgraded",
      "type": "event"
    },
    {
      "inputs": [],
      "name": "DEFAULT_ADMIN_ROLE",
      "outputs": [
        {
          "internalType": "bytes32",
          "name": "",
          "type": "bytes32"
        }
      ],
      "stateMutability": "view",
      "type": "function"
    },
    {
      "inputs": [],
      "name": "GOVERNANCE_ROLE",
      "outputs": [
        {
          "internalType": "bytes32",
          "name": "",
          "type": "bytes32"
        }
      ],
      "stateMutability": "view",
      "type": "function"
    },
    {
      "inputs": [],
      "name": "PAUSE_MANAGER_ROLE",
      "outputs": [
        {
          "internalType": "bytes32",
          "name": "",
          "type": "bytes32"
        }
      ],
      "stateMutability": "view",
      "type": "function"
    },
    {
      "inputs": [],
      "name": "UPGRADE_MANAGER_ROLE",
      "outputs": [
        {
          "internalType": "bytes32",
          "name": "",
          "type": "bytes32"
        }
      ],
      "stateMutability": "view",
      "type": "function"
    },
    {
      "inputs": [],
      "name": "WHITELISTED_FROM_ROLE",
      "outputs": [
        {
          "internalType": "bytes32",
          "name": "",
          "type": "bytes32"
        }
      ],
      "stateMutability": "view",
      "type": "function"
    },
    {
      "inputs": [],
      "name": "WHITELISTED_SENDER_ROLE",
      "outputs": [
        {
          "internalType": "bytes32",
          "name": "",
          "type": "bytes32"
        }
      ],
      "stateMutability": "view",
      "type": "function"
    },
    {
      "inputs": [
        {
          "internalType": "address[]",
          "name": "addresses",
          "type": "address[]"
        }
      ],
      "name": "addAddressesToWhitelistFrom",
      "outputs": [],
      "stateMutability": "nonpayable",
      "type": "function"
    },
    {
      "inputs": [
        {
          "internalType": "address[]",
          "name": "addresses",
          "type": "address[]"
        }
      ],
      "name": "addAddressesToWhitelistSender",
      "outputs": [],
      "stateMutability": "nonpayable",
      "type": "function"
    },
    {
      "inputs": [
        {
          "internalType": "address",
          "name": "owner",
          "type": "address"
        },
        {
          "internalType": "address",
          "name": "spender",
          "type": "address"
        }
      ],
      "name": "allowance",
      "outputs": [
        {
          "internalType": "uint256",
          "name": "",
          "type": "uint256"
        }
      ],
      "stateMutability": "view",
      "type": "function"
    },
    {
      "inputs": [
        {
          "internalType": "address",
          "name": "spender",
          "type": "address"
        },
        {
          "internalType": "uint256",
          "name": "amount",
          "type": "uint256"
        }
      ],
      "name": "approve",
      "outputs": [
        {
          "internalType": "bool",
          "name": "",
          "type": "bool"
        }
      ],
      "stateMutability": "nonpayable",
      "type": "function"
    },
    {
      "inputs": [
        {
          "internalType": "address",
          "name": "account",
          "type": "address"
        }
      ],
      "name": "balanceOf",
      "outputs": [
        {
          "internalType": "uint256",
          "name": "",
          "type": "uint256"
        }
      ],
      "stateMutability": "view",
      "type": "function"
    },
    {
      "inputs": [
        {
          "internalType": "address",
          "name": "account",
          "type": "address"
        },
        {
          "internalType": "uint256",
          "name": "snapshotId",
          "type": "uint256"
        }
      ],
      "name": "balanceOfAt",
      "outputs": [
        {
          "internalType": "uint256",
          "name": "",
          "type": "uint256"
        }
      ],
      "stateMutability": "view",
      "type": "function"
    },
    {
      "inputs": [
        {
          "internalType": "uint256",
          "name": "newTxFee",
          "type": "uint256"
        },
        {
          "internalType": "address",
          "name": "newTxBeneficiary",
          "type": "address"
        }
      ],
      "name": "changeTxFeeProperties",
      "outputs": [],
      "stateMutability": "nonpayable",
      "type": "function"
    },
    {
      "inputs": [],
      "name": "decimals",
      "outputs": [
        {
          "internalType": "uint8",
          "name": "",
          "type": "uint8"
        }
      ],
      "stateMutability": "view",
      "type": "function"
    },
    {
      "inputs": [
        {
          "internalType": "address",
          "name": "spender",
          "type": "address"
        },
        {
          "internalType": "uint256",
          "name": "subtractedValue",
          "type": "uint256"
        }
      ],
      "name": "decreaseAllowance",
      "outputs": [
        {
          "internalType": "bool",
          "name": "",
          "type": "bool"
        }
      ],
      "stateMutability": "nonpayable",
      "type": "function"
    },
    {
      "inputs": [],
      "name": "getCurrentSnapshotId",
      "outputs": [
        {
          "internalType": "uint256",
          "name": "",
          "type": "uint256"
        }
      ],
      "stateMutability": "view",
      "type": "function"
    },
    {
      "inputs": [],
      "name": "getImplementation",
      "outputs": [
        {
          "internalType": "address",
          "name": "",
          "type": "address"
        }
      ],
      "stateMutability": "view",
      "type": "function"
    },
    {
      "inputs": [
        {
          "internalType": "bytes32",
          "name": "role",
          "type": "bytes32"
        }
      ],
      "name": "getRoleAdmin",
      "outputs": [
        {
          "internalType": "bytes32",
          "name": "",
          "type": "bytes32"
        }
      ],
      "stateMutability": "view",
      "type": "function"
    },
    {
      "inputs": [
        {
          "internalType": "bytes32",
          "name": "role",
          "type": "bytes32"
        },
        {
          "internalType": "address",
          "name": "account",
          "type": "address"
        }
      ],
      "name": "grantRole",
      "outputs": [],
      "stateMutability": "nonpayable",
      "type": "function"
    },
    {
      "inputs": [
        {
          "internalType": "bytes32",
          "name": "role",
          "type": "bytes32"
        },
        {
          "internalType": "address",
          "name": "account",
          "type": "address"
        }
      ],
      "name": "hasRole",
      "outputs": [
        {
          "internalType": "bool",
          "name": "",
          "type": "bool"
        }
      ],
      "stateMutability": "view",
      "type": "function"
    },
    {
      "inputs": [
        {
          "internalType": "address",
          "name": "spender",
          "type": "address"
        },
        {
          "internalType": "uint256",
          "name": "addedValue",
          "type": "uint256"
        }
      ],
      "name": "increaseAllowance",
      "outputs": [
        {
          "internalType": "bool",
          "name": "",
          "type": "bool"
        }
      ],
      "stateMutability": "nonpayable",
      "type": "function"
    },
    {
      "inputs": [
        {
          "internalType": "string",
          "name": "name_",
          "type": "string"
        },
        {
          "internalType": "string",
          "name": "symbol_",
          "type": "string"
        },
        {
          "internalType": "uint8",
          "name": "decimals_",
          "type": "uint8"
        },
        {
          "internalType": "uint256",
          "name": "amount_",
          "type": "uint256"
        },
        {
          "internalType": "uint256",
          "name": "txFee",
          "type": "uint256"
        },
        {
          "internalType": "address",
          "name": "txFeeBeneficiary",
          "type": "address"
        }
      ],
      "name": "initialize",
      "outputs": [],
      "stateMutability": "nonpayable",
      "type": "function"
    },
    {
      "inputs": [],
      "name": "name",
      "outputs": [
        {
          "internalType": "string",
          "name": "",
          "type": "string"
        }
      ],
      "stateMutability": "view",
      "type": "function"
    },
    {
      "inputs": [],
      "name": "pause",
      "outputs": [],
      "stateMutability": "nonpayable",
      "type": "function"
    },
    {
      "inputs": [],
      "name": "paused",
      "outputs": [
        {
          "internalType": "bool",
          "name": "",
          "type": "bool"
        }
      ],
      "stateMutability": "view",
      "type": "function"
    },
    {
      "inputs": [
        {
          "internalType": "address",
          "name": "implementationAddress",
          "type": "address"
        }
      ],
      "name": "proposeNewImplementation",
      "outputs": [],
      "stateMutability": "nonpayable",
      "type": "function"
    },
    {
      "inputs": [
        {
          "internalType": "address[]",
          "name": "addresses",
          "type": "address[]"
        }
      ],
      "name": "removeAddressesFromWhitelistFrom",
      "outputs": [],
      "stateMutability": "nonpayable",
      "type": "function"
    },
    {
      "inputs": [
        {
          "internalType": "address[]",
          "name": "addresses",
          "type": "address[]"
        }
      ],
      "name": "removeAddressesFromWhitelistSender",
      "outputs": [],
      "stateMutability": "nonpayable",
      "type": "function"
    },
    {
      "inputs": [
        {
          "internalType": "bytes32",
          "name": "role",
          "type": "bytes32"
        },
        {
          "internalType": "address",
          "name": "account",
          "type": "address"
        }
      ],
      "name": "renounceRole",
      "outputs": [],
      "stateMutability": "nonpayable",
      "type": "function"
    },
    {
      "inputs": [
        {
          "internalType": "bytes32",
          "name": "role",
          "type": "bytes32"
        },
        {
          "internalType": "address",
          "name": "account",
          "type": "address"
        }
      ],
      "name": "revokeRole",
      "outputs": [],
      "stateMutability": "nonpayable",
      "type": "function"
    },
    {
      "inputs": [],
      "name": "snapshot",
      "outputs": [],
      "stateMutability": "nonpayable",
      "type": "function"
    },
    {
      "inputs": [
        {
          "internalType": "bytes4",
          "name": "interfaceId",
          "type": "bytes4"
        }
      ],
      "name": "supportsInterface",
      "outputs": [
        {
          "internalType": "bool",
          "name": "",
          "type": "bool"
        }
      ],
      "stateMutability": "view",
      "type": "function"
    },
    {
      "inputs": [],
      "name": "symbol",
      "outputs": [
        {
          "internalType": "string",
          "name": "",
          "type": "string"
        }
      ],
      "stateMutability": "view",
      "type": "function"
    },
    {
      "inputs": [],
      "name": "totalSupply",
      "outputs": [
        {
          "internalType": "uint256",
          "name": "",
          "type": "uint256"
        }
      ],
      "stateMutability": "view",
      "type": "function"
    },
    {
      "inputs": [
        {
          "internalType": "uint256",
          "name": "snapshotId",
          "type": "uint256"
        }
      ],
      "name": "totalSupplyAt",
      "outputs": [
        {
          "internalType": "uint256",
          "name": "",
          "type": "uint256"
        }
      ],
      "stateMutability": "view",
      "type": "function"
    },
    {
      "inputs": [
        {
          "internalType": "address",
          "name": "recipient",
          "type": "address"
        },
        {
          "internalType": "uint256",
          "name": "amount",
          "type": "uint256"
        }
      ],
      "name": "transfer",
      "outputs": [
        {
          "internalType": "bool",
          "name": "",
          "type": "bool"
        }
      ],
      "stateMutability": "nonpayable",
      "type": "function"
    },
    {
      "inputs": [
        {
          "internalType": "address",
          "name": "sender",
          "type": "address"
        },
        {
          "internalType": "address",
          "name": "recipient",
          "type": "address"
        },
        {
          "internalType": "uint256",
          "name": "amount",
          "type": "uint256"
        }
      ],
      "name": "transferFrom",
      "outputs": [
        {
          "internalType": "bool",
          "name": "",
          "type": "bool"
        }
      ],
      "stateMutability": "nonpayable",
      "type": "function"
    },
    {
      "inputs": [],
      "name": "unpause",
      "outputs": [],
      "stateMutability": "nonpayable",
      "type": "function"
    },
    {
      "inputs": [
        {
          "internalType": "address",
          "name": "newImplementation",
          "type": "address"
        }
      ],
      "name": "upgradeTo",
      "outputs": [],
      "stateMutability": "nonpayable",
      "type": "function"
    },
    {
      "inputs": [
        {
          "internalType": "address",
          "name": "newImplementation",
          "type": "address"
        },
        {
          "internalType": "bytes",
          "name": "data",
          "type": "bytes"
        }
      ],
      "name": "upgradeToAndCall",
      "outputs": [],
      "stateMutability": "payable",
      "type": "function"
    }
  ],
  "bytecode": "0x60a06040523060601b60805234801561001757600080fd5b5060805160601c612eaa61004b60003960008181610a9501528181610ad501528181610c9d0152610cdd0152612eaa6000f3fe60806040526004361061023b5760003560e01c8063685ed81a1161012e578063a457c2d7116100ab578063d547741f1161006f578063d547741f146106aa578063d84f91e8146106ca578063dd62ed3e146106ec578063f36c8f5c14610732578063f834c5021461075457600080fd5b8063a457c2d7146105fb578063a9059cbb1461061b578063aa74a34a1461063b578063aaf10f421461065d578063c233f3b71461068a57600080fd5b806391d14854116100f257806391d148541461057c57806395d89b411461059c5780639711715a146105b1578063981b24d0146105c6578063a217fddf146105e657600080fd5b8063685ed81a146104cf5780636e79a1c0146104ef57806370a082311461050f578063731ce8fc146105455780638456cb591461056757600080fd5b80633659cfe6116101bc5780634ee2cd7e116101805780634ee2cd7e146104425780634f1ef286146104625780635120561a146104755780635439ad86146104955780635c975abb146104aa57600080fd5b80633659cfe6146103ab57806339509351146103cb5780633f4ba83a146103eb57806343ffa64e1461040057806347757fb61461042257600080fd5b8063248a9ca311610203578063248a9ca3146102f65780632cd77a5a146103265780632f2ff15d14610348578063313ce5671461036857806336568abe1461038b57600080fd5b806301ffc9a71461024057806306fdde0314610275578063095ea7b31461029757806318160ddd146102b757806323b872dd146102d6575b600080fd5b34801561024c57600080fd5b5061026061025b366004612998565b610774565b60405190151581526020015b60405180910390f35b34801561028157600080fd5b5061028a6107ab565b60405161026c9190612af2565b3480156102a357600080fd5b506102606102b23660046128bd565b61083d565b3480156102c357600080fd5b506067545b60405190815260200161026c565b3480156102e257600080fd5b506102606102f136600461281f565b610853565b34801561030257600080fd5b506102c861031136600461295c565b600090815260fb602052604090206001015490565b34801561033257600080fd5b506103466103413660046129c2565b610904565b005b34801561035457600080fd5b50610346610363366004612975565b6109e1565b34801561037457600080fd5b506101605460405160ff909116815260200161026c565b34801561039757600080fd5b506103466103a6366004612975565b610a0c565b3480156103b757600080fd5b506103466103c63660046127d1565b610a8a565b3480156103d757600080fd5b506102606103e63660046128bd565b610b53565b3480156103f757600080fd5b50610346610b8f565b34801561040c57600080fd5b506102c8600080516020612d6e83398151915281565b34801561042e57600080fd5b5061034661043d3660046127d1565b610bb0565b34801561044e57600080fd5b506102c861045d3660046128bd565b610bed565b61034661047036600461285b565b610c92565b34801561048157600080fd5b50610346610490366004612975565b610d48565b3480156104a157600080fd5b506102c8610dbd565b3480156104b657600080fd5b50600080516020612e358339815191525460ff16610260565b3480156104db57600080fd5b506103466104ea3660046128e7565b610dda565b3480156104fb57600080fd5b5061034661050a3660046128e7565b610e4f565b34801561051b57600080fd5b506102c861052a3660046127d1565b6001600160a01b031660009081526065602052604090205490565b34801561055157600080fd5b506102c8600080516020612e5583398151915281565b34801561057357600080fd5b50610346610ebe565b34801561058857600080fd5b50610260610597366004612975565b610edf565b3480156105a857600080fd5b5061028a610f0a565b3480156105bd57600080fd5b50610346610f19565b3480156105d257600080fd5b506102c86105e136600461295c565b610f21565b3480156105f257600080fd5b506102c8600081565b34801561060757600080fd5b506102606106163660046128bd565b610f8c565b34801561062757600080fd5b506102606106363660046128bd565b611025565b34801561064757600080fd5b506102c8600080516020612d4e83398151915281565b34801561066957600080fd5b50610672611032565b6040516001600160a01b03909116815260200161026c565b34801561069657600080fd5b506103466106a53660046128e7565b61103c565b3480156106b657600080fd5b506103466106c5366004612975565b611096565b3480156106d657600080fd5b506102c8600080516020612df583398151915281565b3480156106f857600080fd5b506102c86107073660046127ec565b6001600160a01b03918216600090815260666020908152604080832093909416825291909152205490565b34801561073e57600080fd5b506102c8600080516020612d8e83398151915281565b34801561076057600080fd5b5061034661076f3660046128e7565b6110bc565b60006001600160e01b03198216637965db0b60e01b14806107a557506301ffc9a760e01b6001600160e01b03198316145b92915050565b6060606880546107ba90612cbb565b80601f01602080910402602001604051908101604052809291908181526020018280546107e690612cbb565b80156108335780601f1061080857610100808354040283529160200191610833565b820191906000526020600020905b81548152906001019060200180831161081657829003601f168201915b5050505050905090565b600061084a338484611116565b50600192915050565b600061086084848461123a565b6001600160a01b0384166000908152606660209081526040808320338452909152902054828110156108ea5760405162461bcd60e51b815260206004820152602860248201527f45524332303a207472616e7366657220616d6f756e74206578636565647320616044820152676c6c6f77616e636560c01b60648201526084015b60405180910390fd5b6108f78533858403611116565b60019150505b9392505050565b600054610100900460ff1661091f5760005460ff1615610923565b303b155b6109865760405162461bcd60e51b815260206004820152602e60248201527f496e697469616c697a61626c653a20636f6e747261637420697320616c72656160448201526d191e481a5b9a5d1a585b1a5e995960921b60648201526084016108e1565b600054610100900460ff161580156109a8576000805461ffff19166101011790555b6109b487878787611413565b6109be8383611456565b6109c66114e5565b80156109d8576000805461ff00191690555b50505050505050565b600082815260fb60205260409020600101546109fd813361155a565b610a0783836115be565b505050565b6001600160a01b0381163314610a7c5760405162461bcd60e51b815260206004820152602f60248201527f416363657373436f6e74726f6c3a2063616e206f6e6c792072656e6f756e636560448201526e103937b632b9903337b91039b2b63360891b60648201526084016108e1565b610a868282611644565b5050565b306001600160a01b037f0000000000000000000000000000000000000000000000000000000000000000161415610ad35760405162461bcd60e51b81526004016108e190612b25565b7f00000000000000000000000000000000000000000000000000000000000000006001600160a01b0316610b056116ab565b6001600160a01b031614610b2b5760405162461bcd60e51b81526004016108e190612b71565b610b34816116d9565b60408051600080825260208201909252610b509183919061175b565b50565b3360008181526066602090815260408083206001600160a01b0387168452909152812054909161084a918590610b8a908690612c08565b611116565b600080516020612df5833981519152610ba8813361155a565b610b506118a6565b600080516020612d8e833981519152610bc9813361155a565b5061012d80546001600160a01b0319166001600160a01b0392909216919091179055565b604080516001600160a01b0384166020808301919091527ffbf1c7065455eb4486649b8540f24ef2dd4ebedf2aa423f0039d17c2c75dea15828401528251808303840181526060909201909252805191012060009081610c4e826001612c08565b9050600080610c5e868585611953565b9150915081610c85576001600160a01b038716600090815260656020526040902054610c87565b805b979650505050505050565b306001600160a01b037f0000000000000000000000000000000000000000000000000000000000000000161415610cdb5760405162461bcd60e51b81526004016108e190612b25565b7f00000000000000000000000000000000000000000000000000000000000000006001600160a01b0316610d0d6116ab565b6001600160a01b031614610d335760405162461bcd60e51b81526004016108e190612b71565b610d3c826116d9565b610a868282600161175b565b6000610d54813361155a565b6001600160a01b038216610d6757600080fd5b82600080516020612dae83398151915255817fe38b16c806f019542b2d4bf356bb4ba2ea4b7eb450b8fbff2584f6084c4978f180546001600160a01b0319166001600160a01b0392909216919091179055505050565b6000610dd5600080516020612e158339815191525490565b905090565b600080516020612df5833981519152610df3813361155a565b60005b82811015610e4957610e37600080516020612d4e833981519152858584818110610e2257610e22612d21565b905060200201602081019061036391906127d1565b80610e4181612cf0565b915050610df6565b50505050565b600080516020612df5833981519152610e68813361155a565b60005b82811015610e4957610eac600080516020612e55833981519152858584818110610e9757610e97612d21565b90506020020160208101906106c591906127d1565b80610eb681612cf0565b915050610e6b565b600080516020612df5833981519152610ed7813361155a565b610b50611a3e565b600091825260fb602090815260408084206001600160a01b0393909316845291905290205460ff1690565b6060606980546107ba90612cbb565b610b50611ad2565b6000806000610f71847f286a9db37a0f8ddcbcee127c9f4f56031230f49cb46786f87e166d552e11f67e7ffcaa8bb100d3c5b627eac0369cc1d2778dbeffa2993d08f039fb27795729e9a5611953565b9150915081610f8257606754610f84565b805b949350505050565b3360009081526066602090815260408083206001600160a01b03861684529091528120548281101561100e5760405162461bcd60e51b815260206004820152602560248201527f45524332303a2064656372656173656420616c6c6f77616e63652062656c6f77604482015264207a65726f60d81b60648201526084016108e1565b61101b3385858403611116565b5060019392505050565b600061084a33848461123a565b6000610dd56116ab565b600080516020612df5833981519152611055813361155a565b60005b82811015610e4957611084600080516020612d4e833981519152858584818110610e9757610e97612d21565b8061108e81612cf0565b915050611058565b600082815260fb60205260409020600101546110b2813361155a565b610a078383611644565b600080516020612df58339815191526110d5813361155a565b60005b82811015610e4957611104600080516020612e55833981519152858584818110610e2257610e22612d21565b8061110e81612cf0565b9150506110d8565b6001600160a01b0383166111785760405162461bcd60e51b8152602060048201526024808201527f45524332303a20617070726f76652066726f6d20746865207a65726f206164646044820152637265737360e01b60648201526084016108e1565b6001600160a01b0382166111d95760405162461bcd60e51b815260206004820152602260248201527f45524332303a20617070726f766520746f20746865207a65726f206164647265604482015261737360f01b60648201526084016108e1565b6001600160a01b0383811660008181526066602090815260408083209487168084529482529182902085905590518481527f8c5be1e5ebec7d5bd14f71427d1e84f3dd0314c0f7b2291e5b200ac8c7c3b925910160405180910390a3505050565b6001600160a01b03831661129e5760405162461bcd60e51b815260206004820152602560248201527f45524332303a207472616e736665722066726f6d20746865207a65726f206164604482015264647265737360d81b60648201526084016108e1565b6001600160a01b0382166113005760405162461bcd60e51b815260206004820152602360248201527f45524332303a207472616e7366657220746f20746865207a65726f206164647260448201526265737360e81b60648201526084016108e1565b61130b838383611b42565b6001600160a01b038316600090815260656020526040902054818110156113835760405162461bcd60e51b815260206004820152602660248201527f45524332303a207472616e7366657220616d6f756e7420657863656564732062604482015265616c616e636560d01b60648201526084016108e1565b6001600160a01b038085166000908152606560205260408082208585039055918516815290812080548492906113ba908490612c08565b92505081905550826001600160a01b0316846001600160a01b03167fddf252ad1be2c89b69c2b068fc378daa952ba7f163c4a11628f55a4df523b3ef8460405161140691815260200190565b60405180910390a3610e49565b600054610100900460ff1661143a5760405162461bcd60e51b81526004016108e190612bbd565b611442611b58565b61144c8484611baf565b610e498282611bfd565b600054610100900460ff1661147d5760405162461bcd60e51b81526004016108e190612bbd565b6001600160a01b03811661149057600080fd5b81600080516020612dae83398151915255807fe38b16c806f019542b2d4bf356bb4ba2ea4b7eb450b8fbff2584f6084c4978f180546001600160a01b0319166001600160a01b03929092169190911790555050565b600054610100900460ff1661150c5760405162461bcd60e51b81526004016108e190612bbd565b611532600080516020612e55833981519152600080516020612df5833981519152611c3e565b611558600080516020612d4e833981519152600080516020612df5833981519152611c3e565b565b6115648282610edf565b610a865761157c816001600160a01b03166014611c89565b611587836020611c89565b604051602001611598929190612a7d565b60408051601f198184030181529082905262461bcd60e51b82526108e191600401612af2565b6115c88282610edf565b610a8657600082815260fb602090815260408083206001600160a01b03851684529091529020805460ff191660011790556116003390565b6001600160a01b0316816001600160a01b0316837f2f8788117e7eff1d82e926ec794901d17c78024a50270940304540a733656f0d60405160405180910390a45050565b61164e8282610edf565b15610a8657600082815260fb602090815260408083206001600160a01b0385168085529252808320805460ff1916905551339285917ff6391f5c32d9c69d2a47ea670b442974b53935d1edc7fd64eb21e047a839171b9190a45050565b7f360894a13ba1a3210667c828492db98dca3e2076cc3735a920a3ca505d382bbc546001600160a01b031690565b6116f1600080516020612d8e83398151915233610edf565b8061170f575061170f600080516020612d6e83398151915233610edf565b610b505760405162461bcd60e51b815260206004820152601d60248201527f4552524f523a2041646472657373206e6f7420617574686f72697a656400000060448201526064016108e1565b60006117656116ab565b905061177084611e25565b60008351118061177d5750815b1561178e5761178c8484611eca565b505b7f4910fdfa16fed3260ed0e7147f7cc6da11a60208b5b9406d12a635614ffd9143805460ff1661189f57805460ff191660011781556040516001600160a01b038316602482015261180d90869060440160408051601f198184030181529190526020810180516001600160e01b0316631b2ce7f360e11b179052611eca565b50805460ff1916815561181e6116ab565b6001600160a01b0316826001600160a01b0316146118965760405162461bcd60e51b815260206004820152602f60248201527f45524331393637557067726164653a207570677261646520627265616b73206660448201526e75727468657220757067726164657360881b60648201526084016108e1565b61189f85611fb5565b5050505050565b600080516020612e358339815191525460ff166118fc5760405162461bcd60e51b815260206004820152601460248201527314185d5cd8589b194e881b9bdd081c185d5cd95960621b60448201526064016108e1565b600080516020612e35833981519152805460ff191690557f5db9ee0a495bf2e6ff9c91a7834c1ba4fdd244a5e8aa4e537bd38aeae4b073aa335b6040516001600160a01b03909116815260200160405180910390a1565b6000806000851161199f5760405162461bcd60e51b815260206004820152601660248201527504552433230536e617073686f743a20696420697320360541b60448201526064016108e1565b600080516020612e15833981519152548511156119fe5760405162461bcd60e51b815260206004820152601d60248201527f4552433230536e617073686f743a206e6f6e6578697374656e7420696400000060448201526064016108e1565b6000611a0a8587611ff5565b90508454811415611a22576000809250925050611a36565b6001611a2e8583612094565b549093509150505b935093915050565b600080516020612e358339815191525460ff1615611a915760405162461bcd60e51b815260206004820152601060248201526f14185d5cd8589b194e881c185d5cd95960821b60448201526064016108e1565b600080516020612e35833981519152805460ff191660011790557f62e78cea01bee320cd4e420270b5ea74000d11b0c9f74754ebdbfc544b05a25833611936565b60006001600080516020612e158339815191528054600090611af5908490612c08565b9091555050600080516020612e15833981519152546040518181527f8030e83b04d87bef53480e26263266d6ca66863aa8506aca6f2559d18aa1cb679060200160405180910390a1919050565b611b4d838383612113565b610a07838383612134565b600054610100900460ff16611b7f5760405162461bcd60e51b81526004016108e190612bbd565b611b8761217c565b611b8f61217c565b611b9761217c565b611b9f61217c565b611ba761217c565b6115586121a3565b600054610100900460ff16611bd65760405162461bcd60e51b81526004016108e190612bbd565b8151611be9906068906020850190612686565b508051610a07906069906020840190612686565b600054610100900460ff16611c245760405162461bcd60e51b81526004016108e190612bbd565b610160805460ff191660ff8416179055610a86338261222b565b600082815260fb6020526040808220600101805490849055905190918391839186917fbd79b86ffe0ab8e8776151514217cd7cacd52c909f66475c3af44e129f0b00ff9190a4505050565b60606000611c98836002612c42565b611ca3906002612c08565b67ffffffffffffffff811115611cbb57611cbb612d37565b6040519080825280601f01601f191660200182016040528015611ce5576020820181803683370190505b509050600360fc1b81600081518110611d0057611d00612d21565b60200101906001600160f81b031916908160001a905350600f60fb1b81600181518110611d2f57611d2f612d21565b60200101906001600160f81b031916908160001a9053506000611d53846002612c42565b611d5e906001612c08565b90505b6001811115611dd6576f181899199a1a9b1b9c1cb0b131b232b360811b85600f1660108110611d9257611d92612d21565b1a60f81b828281518110611da857611da8612d21565b60200101906001600160f81b031916908160001a90535060049490941c93611dcf81612ca4565b9050611d61565b5083156108fd5760405162461bcd60e51b815260206004820181905260248201527f537472696e67733a20686578206c656e67746820696e73756666696369656e7460448201526064016108e1565b803b611e895760405162461bcd60e51b815260206004820152602d60248201527f455243313936373a206e657720696d706c656d656e746174696f6e206973206e60448201526c1bdd08184818dbdb9d1c9858dd609a1b60648201526084016108e1565b7f360894a13ba1a3210667c828492db98dca3e2076cc3735a920a3ca505d382bbc80546001600160a01b0319166001600160a01b0392909216919091179055565b6060823b611f295760405162461bcd60e51b815260206004820152602660248201527f416464726573733a2064656c65676174652063616c6c20746f206e6f6e2d636f6044820152651b9d1c9858dd60d21b60648201526084016108e1565b600080846001600160a01b031684604051611f449190612a61565b600060405180830381855af49150503d8060008114611f7f576040519150601f19603f3d011682016040523d82523d6000602084013e611f84565b606091505b5091509150611fac8282604051806060016040528060278152602001612dce60279139612316565b95945050505050565b611fbe81611e25565b6040516001600160a01b038216907fbc7cd75a20ee27fd9adebab32041f755214dbc6bffa90cc0225b39da2e5c2d3b90600090a250565b815460009081908061200c576000925050506107a5565b80821015612050576000612020838361234f565b90508461202d8783612094565b54111561203c5780915061204a565b612047816001612c08565b92505b5061200c565b6000821180156120735750836120708661206b600186612c61565b612094565b54145b1561208c57612083600183612c61565b925050506107a5565b5090506107a5565b6000825482106120dc5760405162461bcd60e51b815260206004820152601360248201527211549493d48e8813dd5d081bd988189bdd5b99606a1b60448201526064016108e1565b81836040516020016120f091815260200190565b6040516020818303038152906040528051906020012060001c6108fd9190612c08565b61211e838383611b4d565b61212983838361236a565b610a078383836123ed565b6001600160a01b0383166121535761214b826124d6565b610a07612560565b6001600160a01b03821661216a5761214b836124d6565b612173836124d6565b610a07826124d6565b600054610100900460ff166115585760405162461bcd60e51b81526004016108e190612bbd565b600054610100900460ff166121ca5760405162461bcd60e51b81526004016108e190612bbd565b6121d56000336125ae565b6121ed600080516020612d8e833981519152336125ae565b612205600080516020612d6e833981519152336125ae565b611558600080516020612d6e833981519152600080516020612d8e833981519152611c3e565b6001600160a01b0382166122815760405162461bcd60e51b815260206004820152601f60248201527f45524332303a206d696e7420746f20746865207a65726f20616464726573730060448201526064016108e1565b61228d60008383611b42565b806067600082825461229f9190612c08565b90915550506001600160a01b038216600090815260656020526040812080548392906122cc908490612c08565b90915550506040518181526001600160a01b038316906000907fddf252ad1be2c89b69c2b068fc378daa952ba7f163c4a11628f55a4df523b3ef9060200160405180910390a35050565b606083156123255750816108fd565b8251156123355782518084602001fd5b8160405162461bcd60e51b81526004016108e19190612af2565b600061235e6002848418612c20565b6108fd90848416612c08565b600080516020612e358339815191525460ff16158061238e575061238e83336125b8565b610a075760405162461bcd60e51b815260206004820152602a60248201527f45524332305061757361626c653a20746f6b656e207472616e736665722077686044820152691a5b19481c185d5cd95960b21b60648201526084016108e1565b600080516020612dae833981519152547fe38b16c806f019542b2d4bf356bb4ba2ea4b7eb450b8fbff2584f6084c4978f1546001600160a01b03168115806124465750836001600160a01b0316816001600160a01b0316145b806124625750846001600160a01b0316816001600160a01b0316145b8061247457506001600160a01b038516155b8061248657506001600160a01b038416155b15612492575050505050565b6000670de0b6b3a7640000600080516020612dae833981519152546124b79086612c42565b6124c19190612c20565b90506124ce86838361123a565b505050505050565b604080516001600160a01b0383166020808301919091527ffbf1c7065455eb4486649b8540f24ef2dd4ebedf2aa423f0039d17c2c75dea1582840152825180830384018152606090920190925280519101206000612535826001612c08565b9050610a07828261255b866001600160a01b031660009081526065602052604090205490565b6125f0565b6115587f286a9db37a0f8ddcbcee127c9f4f56031230f49cb46786f87e166d552e11f67e7ffcaa8bb100d3c5b627eac0369cc1d2778dbeffa2993d08f039fb27795729e9a561255b60675490565b610a8682826115be565b60006125d2600080516020612e5583398151915284610edf565b806108fd57506108fd600080516020612d4e83398151915283610edf565b6000612608600080516020612e158339815191525490565b9050806126148561262e565b1015610e4957612624848261265e565b610e49838361265e565b8054600090806126415750600092915050565b6126508361206b600184612c61565b549392505050565b50919050565b8154600183600061266f8385612c08565b909155508290506126808483612094565b55505050565b82805461269290612cbb565b90600052602060002090601f0160209004810192826126b457600085556126fa565b82601f106126cd57805160ff19168380011785556126fa565b828001600101855582156126fa579182015b828111156126fa5782518255916020019190600101906126df565b5061270692915061270a565b5090565b5b80821115612706576000815560010161270b565b600067ffffffffffffffff8084111561273a5761273a612d37565b604051601f8501601f19908116603f0116810190828211818310171561276257612762612d37565b8160405280935085815286868601111561277b57600080fd5b858560208301376000602087830101525050509392505050565b80356001600160a01b03811681146127ac57600080fd5b919050565b600082601f8301126127c257600080fd5b6108fd8383356020850161271f565b6000602082840312156127e357600080fd5b6108fd82612795565b600080604083850312156127ff57600080fd5b61280883612795565b915061281660208401612795565b90509250929050565b60008060006060848603121561283457600080fd5b61283d84612795565b925061284b60208501612795565b9150604084013590509250925092565b6000806040838503121561286e57600080fd5b61287783612795565b9150602083013567ffffffffffffffff81111561289357600080fd5b8301601f810185136128a457600080fd5b6128b38582356020840161271f565b9150509250929050565b600080604083850312156128d057600080fd5b6128d983612795565b946020939093013593505050565b600080602083850312156128fa57600080fd5b823567ffffffffffffffff8082111561291257600080fd5b818501915085601f83011261292657600080fd5b81358181111561293557600080fd5b8660208260051b850101111561294a57600080fd5b60209290920196919550909350505050565b60006020828403121561296e57600080fd5b5035919050565b6000806040838503121561298857600080fd5b8235915061281660208401612795565b6000602082840312156129aa57600080fd5b81356001600160e01b0319811681146108fd57600080fd5b60008060008060008060c087890312156129db57600080fd5b863567ffffffffffffffff808211156129f357600080fd5b6129ff8a838b016127b1565b97506020890135915080821115612a1557600080fd5b50612a2289828a016127b1565b955050604087013560ff81168114612a3957600080fd5b93506060870135925060808701359150612a5560a08801612795565b90509295509295509295565b60008251612a73818460208701612c78565b9190910192915050565b7f416363657373436f6e74726f6c3a206163636f756e7420000000000000000000815260008351612ab5816017850160208801612c78565b7001034b99036b4b9b9b4b733903937b6329607d1b6017918401918201528351612ae6816028840160208801612c78565b01602801949350505050565b6020815260008251806020840152612b11816040850160208701612c78565b601f01601f19169190910160400192915050565b6020808252602c908201527f46756e6374696f6e206d7573742062652063616c6c6564207468726f7567682060408201526b19195b1959d85d1958d85b1b60a21b606082015260800190565b6020808252602c908201527f46756e6374696f6e206d7573742062652063616c6c6564207468726f7567682060408201526b6163746976652070726f787960a01b606082015260800190565b6020808252602b908201527f496e697469616c697a61626c653a20636f6e7472616374206973206e6f74206960408201526a6e697469616c697a696e6760a81b606082015260800190565b60008219821115612c1b57612c1b612d0b565b500190565b600082612c3d57634e487b7160e01b600052601260045260246000fd5b500490565b6000816000190483118215151615612c5c57612c5c612d0b565b500290565b600082821015612c7357612c73612d0b565b500390565b60005b83811015612c93578181015183820152602001612c7b565b83811115610e495750506000910152565b600081612cb357612cb3612d0b565b506000190190565b600181811c90821680612ccf57607f821691505b6020821081141561265857634e487b7160e01b600052602260045260246000fd5b6000600019821415612d0457612d04612d0b565b5060010190565b634e487b7160e01b600052601160045260246000fd5b634e487b7160e01b600052603260045260246000fd5b634e487b7160e01b600052604160045260246000fdfee1ac655ab58995133a870d1fd307ddc1d624c8ad919a09e67867a7a1483e439aa76ace73a908083d89af9ff88e5b4f7cadb3591a80631063f68b695fda726db571840dc4906352362b0cdaf79870196c8e42acafade72d5d5a6d59291253ceb1253122b26cc2118faf5fcfc7761bd75fcfb5508f1f48d1a40db694aba32af5d0416464726573733a206c6f772d6c6576656c2064656c65676174652063616c6c206661696c6564356a809dfdea9198dd76fb76bf6d403ecf13ea675eb89e1eda2db2c4a4676a260d0a0ed3351c10a57d74a44b40c06e0946288e4e3816ac07bb89db2a755562e7ad6a6591fa308fe948065665239402780db8ed4a8c4e4e16c4d066bcaa05efc2ce108bcc5e0f50fe603649304cbbbd94de794a404db82d884c0afc9ba9328e61a26469706673582212202128b352e9423a015a83da2863d0ef549258a3a9c72cee5026364d4fb242d25b64736f6c63430008060033",
  "linkReferences": {},
  "deployedLinkReferences": {}
}