{
  "_format": "hh-sol-artifact-1",
  "name": "SnapshotTemplate",
  "initializer": "function initialize(string name_, string symbol_, uint8 decimals_, uint256 amount_)",
  "sourceName": "contracts/templates/SnapshotTemplate.sol",
  "abi": [
    {
      "anonymous": false,
      "inputs": [
        {
          "indexed": false,
          "internalType": "address",
          "name": "previousAdmin",
          "type": "address"
        },
        {
          "indexed": false,
          "internalType": "address",
          "name": "newAdmin",
          "type": "address"
        }
      ],
      "name": "AdminChanged",
      "type": "event"
    },
    {
      "anonymous": false,
      "inputs": [
        {
          "indexed": true,
          "internalType": "address",
          "name": "owner",
          "type": "address"
        },
        {
          "indexed": true,
          "internalType": "address",
          "name": "spender",
          "type": "address"
        },
        {
          "indexed": false,
          "internalType": "uint256",
          "name": "value",
          "type": "uint256"
        }
      ],
      "name": "Approval",
      "type": "event"
    },
    {
      "anonymous": false,
      "inputs": [
        {
          "indexed": true,
          "internalType": "address",
          "name": "beacon",
          "type": "address"
        }
      ],
      "name": "BeaconUpgraded",
      "type": "event"
    },
    {
      "anonymous": false,
      "inputs": [
        {
          "indexed": true,
          "internalType": "bytes32",
          "name": "role",
          "type": "bytes32"
        },
        {
          "indexed": true,
          "internalType": "bytes32",
          "name": "previousAdminRole",
          "type": "bytes32"
        },
        {
          "indexed": true,
          "internalType": "bytes32",
          "name": "newAdminRole",
          "type": "bytes32"
        }
      ],
      "name": "RoleAdminChanged",
      "type": "event"
    },
    {
      "anonymous": false,
      "inputs": [
        {
          "indexed": true,
          "internalType": "bytes32",
          "name": "role",
          "type": "bytes32"
        },
        {
          "indexed": true,
          "internalType": "address",
          "name": "account",
          "type": "address"
        },
        {
          "indexed": true,
          "internalType": "address",
          "name": "sender",
          "type": "address"
        }
      ],
      "name": "RoleGranted",
      "type": "event"
    },
    {
      "anonymous": false,
      "inputs": [
        {
          "indexed": true,
          "internalType": "bytes32",
          "name": "role",
          "type": "bytes32"
        },
        {
          "indexed": true,
          "internalType": "address",
          "name": "account",
          "type": "address"
        },
        {
          "indexed": true,
          "internalType": "address",
          "name": "sender",
          "type": "address"
        }
      ],
      "name": "RoleRevoked",
      "type": "event"
    },
    {
      "anonymous": false,
      "inputs": [
        {
          "indexed": false,
          "internalType": "uint256",
          "name": "id",
          "type": "uint256"
        }
      ],
      "name": "Snapshot",
      "type": "event"
    },
    {
      "anonymous": false,
      "inputs": [
        {
          "indexed": true,
          "internalType": "address",
          "name": "from",
          "type": "address"
        },
        {
          "indexed": true,
          "internalType": "address",
          "name": "to",
          "type": "address"
        },
        {
          "indexed": false,
          "internalType": "uint256",
          "name": "value",
          "type": "uint256"
        }
      ],
      "name": "Transfer",
      "type": "event"
    },
    {
      "anonymous": false,
      "inputs": [
        {
          "indexed": true,
          "internalType": "address",
          "name": "implementation",
          "type": "address"
        }
      ],
      "name": "Upgraded",
      "type": "event"
    },
    {
      "inputs": [],
      "name": "DEFAULT_ADMIN_ROLE",
      "outputs": [
        {
          "internalType": "bytes32",
          "name": "",
          "type": "bytes32"
        }
      ],
      "stateMutability": "view",
      "type": "function"
    },
    {
      "inputs": [],
      "name": "GOVERNANCE_ROLE",
      "outputs": [
        {
          "internalType": "bytes32",
          "name": "",
          "type": "bytes32"
        }
      ],
      "stateMutability": "view",
      "type": "function"
    },
    {
      "inputs": [],
      "name": "UPGRADE_MANAGER_ROLE",
      "outputs": [
        {
          "internalType": "bytes32",
          "name": "",
          "type": "bytes32"
        }
      ],
      "stateMutability": "view",
      "type": "function"
    },
    {
      "inputs": [
        {
          "internalType": "address",
          "name": "owner",
          "type": "address"
        },
        {
          "internalType": "address",
          "name": "spender",
          "type": "address"
        }
      ],
      "name": "allowance",
      "outputs": [
        {
          "internalType": "uint256",
          "name": "",
          "type": "uint256"
        }
      ],
      "stateMutability": "view",
      "type": "function"
    },
    {
      "inputs": [
        {
          "internalType": "address",
          "name": "spender",
          "type": "address"
        },
        {
          "internalType": "uint256",
          "name": "amount",
          "type": "uint256"
        }
      ],
      "name": "approve",
      "outputs": [
        {
          "internalType": "bool",
          "name": "",
          "type": "bool"
        }
      ],
      "stateMutability": "nonpayable",
      "type": "function"
    },
    {
      "inputs": [
        {
          "internalType": "address",
          "name": "account",
          "type": "address"
        }
      ],
      "name": "balanceOf",
      "outputs": [
        {
          "internalType": "uint256",
          "name": "",
          "type": "uint256"
        }
      ],
      "stateMutability": "view",
      "type": "function"
    },
    {
      "inputs": [
        {
          "internalType": "address",
          "name": "account",
          "type": "address"
        },
        {
          "internalType": "uint256",
          "name": "snapshotId",
          "type": "uint256"
        }
      ],
      "name": "balanceOfAt",
      "outputs": [
        {
          "internalType": "uint256",
          "name": "",
          "type": "uint256"
        }
      ],
      "stateMutability": "view",
      "type": "function"
    },
    {
      "inputs": [],
      "name": "decimals",
      "outputs": [
        {
          "internalType": "uint8",
          "name": "",
          "type": "uint8"
        }
      ],
      "stateMutability": "view",
      "type": "function"
    },
    {
      "inputs": [
        {
          "internalType": "address",
          "name": "spender",
          "type": "address"
        },
        {
          "internalType": "uint256",
          "name": "subtractedValue",
          "type": "uint256"
        }
      ],
      "name": "decreaseAllowance",
      "outputs": [
        {
          "internalType": "bool",
          "name": "",
          "type": "bool"
        }
      ],
      "stateMutability": "nonpayable",
      "type": "function"
    },
    {
      "inputs": [],
      "name": "getCurrentSnapshotId",
      "outputs": [
        {
          "internalType": "uint256",
          "name": "",
          "type": "uint256"
        }
      ],
      "stateMutability": "view",
      "type": "function"
    },
    {
      "inputs": [],
      "name": "getImplementation",
      "outputs": [
        {
          "internalType": "address",
          "name": "",
          "type": "address"
        }
      ],
      "stateMutability": "view",
      "type": "function"
    },
    {
      "inputs": [
        {
          "internalType": "bytes32",
          "name": "role",
          "type": "bytes32"
        }
      ],
      "name": "getRoleAdmin",
      "outputs": [
        {
          "internalType": "bytes32",
          "name": "",
          "type": "bytes32"
        }
      ],
      "stateMutability": "view",
      "type": "function"
    },
    {
      "inputs": [
        {
          "internalType": "bytes32",
          "name": "role",
          "type": "bytes32"
        },
        {
          "internalType": "address",
          "name": "account",
          "type": "address"
        }
      ],
      "name": "grantRole",
      "outputs": [],
      "stateMutability": "nonpayable",
      "type": "function"
    },
    {
      "inputs": [
        {
          "internalType": "bytes32",
          "name": "role",
          "type": "bytes32"
        },
        {
          "internalType": "address",
          "name": "account",
          "type": "address"
        }
      ],
      "name": "hasRole",
      "outputs": [
        {
          "internalType": "bool",
          "name": "",
          "type": "bool"
        }
      ],
      "stateMutability": "view",
      "type": "function"
    },
    {
      "inputs": [
        {
          "internalType": "address",
          "name": "spender",
          "type": "address"
        },
        {
          "internalType": "uint256",
          "name": "addedValue",
          "type": "uint256"
        }
      ],
      "name": "increaseAllowance",
      "outputs": [
        {
          "internalType": "bool",
          "name": "",
          "type": "bool"
        }
      ],
      "stateMutability": "nonpayable",
      "type": "function"
    },
    {
      "inputs": [
        {
          "internalType": "string",
          "name": "name_",
          "type": "string"
        },
        {
          "internalType": "string",
          "name": "symbol_",
          "type": "string"
        },
        {
          "internalType": "uint8",
          "name": "decimals_",
          "type": "uint8"
        },
        {
          "internalType": "uint256",
          "name": "amount_",
          "type": "uint256"
        }
      ],
      "name": "initialize",
      "outputs": [],
      "stateMutability": "nonpayable",
      "type": "function"
    },
    {
      "inputs": [],
      "name": "name",
      "outputs": [
        {
          "internalType": "string",
          "name": "",
          "type": "string"
        }
      ],
      "stateMutability": "view",
      "type": "function"
    },
    {
      "inputs": [
        {
          "internalType": "address",
          "name": "implementationAddress",
          "type": "address"
        }
      ],
      "name": "proposeNewImplementation",
      "outputs": [],
      "stateMutability": "nonpayable",
      "type": "function"
    },
    {
      "inputs": [
        {
          "internalType": "bytes32",
          "name": "role",
          "type": "bytes32"
        },
        {
          "internalType": "address",
          "name": "account",
          "type": "address"
        }
      ],
      "name": "renounceRole",
      "outputs": [],
      "stateMutability": "nonpayable",
      "type": "function"
    },
    {
      "inputs": [
        {
          "internalType": "bytes32",
          "name": "role",
          "type": "bytes32"
        },
        {
          "internalType": "address",
          "name": "account",
          "type": "address"
        }
      ],
      "name": "revokeRole",
      "outputs": [],
      "stateMutability": "nonpayable",
      "type": "function"
    },
    {
      "inputs": [],
      "name": "snapshot",
      "outputs": [],
      "stateMutability": "nonpayable",
      "type": "function"
    },
    {
      "inputs": [
        {
          "internalType": "bytes4",
          "name": "interfaceId",
          "type": "bytes4"
        }
      ],
      "name": "supportsInterface",
      "outputs": [
        {
          "internalType": "bool",
          "name": "",
          "type": "bool"
        }
      ],
      "stateMutability": "view",
      "type": "function"
    },
    {
      "inputs": [],
      "name": "symbol",
      "outputs": [
        {
          "internalType": "string",
          "name": "",
          "type": "string"
        }
      ],
      "stateMutability": "view",
      "type": "function"
    },
    {
      "inputs": [],
      "name": "totalSupply",
      "outputs": [
        {
          "internalType": "uint256",
          "name": "",
          "type": "uint256"
        }
      ],
      "stateMutability": "view",
      "type": "function"
    },
    {
      "inputs": [
        {
          "internalType": "uint256",
          "name": "snapshotId",
          "type": "uint256"
        }
      ],
      "name": "totalSupplyAt",
      "outputs": [
        {
          "internalType": "uint256",
          "name": "",
          "type": "uint256"
        }
      ],
      "stateMutability": "view",
      "type": "function"
    },
    {
      "inputs": [
        {
          "internalType": "address",
          "name": "recipient",
          "type": "address"
        },
        {
          "internalType": "uint256",
          "name": "amount",
          "type": "uint256"
        }
      ],
      "name": "transfer",
      "outputs": [
        {
          "internalType": "bool",
          "name": "",
          "type": "bool"
        }
      ],
      "stateMutability": "nonpayable",
      "type": "function"
    },
    {
      "inputs": [
        {
          "internalType": "address",
          "name": "sender",
          "type": "address"
        },
        {
          "internalType": "address",
          "name": "recipient",
          "type": "address"
        },
        {
          "internalType": "uint256",
          "name": "amount",
          "type": "uint256"
        }
      ],
      "name": "transferFrom",
      "outputs": [
        {
          "internalType": "bool",
          "name": "",
          "type": "bool"
        }
      ],
      "stateMutability": "nonpayable",
      "type": "function"
    },
    {
      "inputs": [
        {
          "internalType": "address",
          "name": "newImplementation",
          "type": "address"
        }
      ],
      "name": "upgradeTo",
      "outputs": [],
      "stateMutability": "nonpayable",
      "type": "function"
    },
    {
      "inputs": [
        {
          "internalType": "address",
          "name": "newImplementation",
          "type": "address"
        },
        {
          "internalType": "bytes",
          "name": "data",
          "type": "bytes"
        }
      ],
      "name": "upgradeToAndCall",
      "outputs": [],
      "stateMutability": "payable",
      "type": "function"
    }
  ],
  "bytecode": "0x60a06040523060601b60805234801561001757600080fd5b5060805160601c61252c61004b600039600081816108b3015281816108f301528181610a9a0152610ada015261252c6000f3fe6080604052600436106101c25760003560e01c80634ee2cd7e116100f7578063981b24d011610095578063aaf10f4211610064578063aaf10f42146104f1578063d547741f1461051e578063dd62ed3e1461053e578063f36c8f5c1461058457600080fd5b8063981b24d01461047c578063a217fddf1461049c578063a457c2d7146104b1578063a9059cbb146104d157600080fd5b806370a08231116100d157806370a08231146103fc57806391d148541461043257806395d89b41146104525780639711715a1461046757600080fd5b80634ee2cd7e146103b45780634f1ef286146103d45780635439ad86146103e757600080fd5b80632f2ff15d116101645780633659cfe61161013e5780633659cfe614610332578063395093511461035257806343ffa64e1461037257806347757fb61461039457600080fd5b80632f2ff15d146102cf578063313ce567146102ef57806336568abe1461031257600080fd5b806318160ddd116101a057806318160ddd1461023e57806323b872dd1461025d578063248a9ca31461027d578063253279ad146102ad57600080fd5b806301ffc9a7146101c757806306fdde03146101fc578063095ea7b31461021e575b600080fd5b3480156101d357600080fd5b506101e76101e23660046120f0565b6105a6565b60405190151581526020015b60405180910390f35b34801561020857600080fd5b506102116105dd565b6040516101f3919061222f565b34801561022a57600080fd5b506101e761023936600461208a565b61066f565b34801561024a57600080fd5b506067545b6040519081526020016101f3565b34801561026957600080fd5b506101e7610278366004611fec565b610685565b34801561028957600080fd5b5061024f6102983660046120b4565b600090815260fb602052604090206001015490565b3480156102b957600080fd5b506102cd6102c836600461211a565b610736565b005b3480156102db57600080fd5b506102cd6102ea3660046120cd565b6107ff565b3480156102fb57600080fd5b506101605460405160ff90911681526020016101f3565b34801561031e57600080fd5b506102cd61032d3660046120cd565b61082a565b34801561033e57600080fd5b506102cd61034d366004611f9e565b6108a8565b34801561035e57600080fd5b506101e761036d36600461208a565b610971565b34801561037e57600080fd5b5061024f60008051602061247083398151915281565b3480156103a057600080fd5b506102cd6103af366004611f9e565b6109ad565b3480156103c057600080fd5b5061024f6103cf36600461208a565b6109ea565b6102cd6103e2366004612028565b610a8f565b3480156103f357600080fd5b5061024f610b45565b34801561040857600080fd5b5061024f610417366004611f9e565b6001600160a01b031660009081526065602052604090205490565b34801561043e57600080fd5b506101e761044d3660046120cd565b610b62565b34801561045e57600080fd5b50610211610b8d565b34801561047357600080fd5b506102cd610b9c565b34801561048857600080fd5b5061024f6104973660046120b4565b610ba4565b3480156104a857600080fd5b5061024f600081565b3480156104bd57600080fd5b506101e76104cc36600461208a565b610c0f565b3480156104dd57600080fd5b506101e76104ec36600461208a565b610ca8565b3480156104fd57600080fd5b50610506610cb5565b6040516001600160a01b0390911681526020016101f3565b34801561052a57600080fd5b506102cd6105393660046120cd565b610cbf565b34801561054a57600080fd5b5061024f610559366004611fb9565b6001600160a01b03918216600090815260666020908152604080832093909416825291909152205490565b34801561059057600080fd5b5061024f60008051602061249083398151915281565b60006001600160e01b03198216637965db0b60e01b14806105d757506301ffc9a760e01b6001600160e01b03198316145b92915050565b6060606880546105ec906123f8565b80601f0160208091040260200160405190810160405280929190818152602001828054610618906123f8565b80156106655780601f1061063a57610100808354040283529160200191610665565b820191906000526020600020905b81548152906001019060200180831161064857829003601f168201915b5050505050905090565b600061067c338484610ce5565b50600192915050565b6000610692848484610e09565b6001600160a01b03841660009081526066602090815260408083203384529091529020548281101561071c5760405162461bcd60e51b815260206004820152602860248201527f45524332303a207472616e7366657220616d6f756e74206578636565647320616044820152676c6c6f77616e636560c01b60648201526084015b60405180910390fd5b6107298533858403610ce5565b60019150505b9392505050565b600054610100900460ff166107515760005460ff1615610755565b303b155b6107b85760405162461bcd60e51b815260206004820152602e60248201527f496e697469616c697a61626c653a20636f6e747261637420697320616c72656160448201526d191e481a5b9a5d1a585b1a5e995960921b6064820152608401610713565b600054610100900460ff161580156107da576000805461ffff19166101011790555b6107e685858585610fe4565b80156107f8576000805461ff00191690555b5050505050565b600082815260fb602052604090206001015461081b8133611027565b610825838361108b565b505050565b6001600160a01b038116331461089a5760405162461bcd60e51b815260206004820152602f60248201527f416363657373436f6e74726f6c3a2063616e206f6e6c792072656e6f756e636560448201526e103937b632b9903337b91039b2b63360891b6064820152608401610713565b6108a48282611111565b5050565b306001600160a01b037f00000000000000000000000000000000000000000000000000000000000000001614156108f15760405162461bcd60e51b815260040161071390612262565b7f00000000000000000000000000000000000000000000000000000000000000006001600160a01b0316610923611178565b6001600160a01b0316146109495760405162461bcd60e51b8152600401610713906122ae565b610952816111a6565b6040805160008082526020820190925261096e91839190611228565b50565b3360008181526066602090815260408083206001600160a01b0387168452909152812054909161067c9185906109a8908690612345565b610ce5565b6000805160206124908339815191526109c68133611027565b5061012d80546001600160a01b0319166001600160a01b0392909216919091179055565b604080516001600160a01b0384166020808301919091527ffbf1c7065455eb4486649b8540f24ef2dd4ebedf2aa423f0039d17c2c75dea15828401528251808303840181526060909201909252805191012060009081610a4b826001612345565b9050600080610a5b86858561136c565b9150915081610a82576001600160a01b038716600090815260656020526040902054610a84565b805b979650505050505050565b306001600160a01b037f0000000000000000000000000000000000000000000000000000000000000000161415610ad85760405162461bcd60e51b815260040161071390612262565b7f00000000000000000000000000000000000000000000000000000000000000006001600160a01b0316610b0a611178565b6001600160a01b031614610b305760405162461bcd60e51b8152600401610713906122ae565b610b39826111a6565b6108a482826001611228565b6000610b5d6000805160206124d78339815191525490565b905090565b600091825260fb602090815260408084206001600160a01b0393909316845291905290205460ff1690565b6060606980546105ec906123f8565b61096e611457565b6000806000610bf4847f286a9db37a0f8ddcbcee127c9f4f56031230f49cb46786f87e166d552e11f67e7ffcaa8bb100d3c5b627eac0369cc1d2778dbeffa2993d08f039fb27795729e9a561136c565b9150915081610c0557606754610c07565b805b949350505050565b3360009081526066602090815260408083206001600160a01b038616845290915281205482811015610c915760405162461bcd60e51b815260206004820152602560248201527f45524332303a2064656372656173656420616c6c6f77616e63652062656c6f77604482015264207a65726f60d81b6064820152608401610713565b610c9e3385858403610ce5565b5060019392505050565b600061067c338484610e09565b6000610b5d611178565b600082815260fb6020526040902060010154610cdb8133611027565b6108258383611111565b6001600160a01b038316610d475760405162461bcd60e51b8152602060048201526024808201527f45524332303a20617070726f76652066726f6d20746865207a65726f206164646044820152637265737360e01b6064820152608401610713565b6001600160a01b038216610da85760405162461bcd60e51b815260206004820152602260248201527f45524332303a20617070726f766520746f20746865207a65726f206164647265604482015261737360f01b6064820152608401610713565b6001600160a01b0383811660008181526066602090815260408083209487168084529482529182902085905590518481527f8c5be1e5ebec7d5bd14f71427d1e84f3dd0314c0f7b2291e5b200ac8c7c3b925910160405180910390a3505050565b6001600160a01b038316610e6d5760405162461bcd60e51b815260206004820152602560248201527f45524332303a207472616e736665722066726f6d20746865207a65726f206164604482015264647265737360d81b6064820152608401610713565b6001600160a01b038216610ecf5760405162461bcd60e51b815260206004820152602360248201527f45524332303a207472616e7366657220746f20746865207a65726f206164647260448201526265737360e81b6064820152608401610713565b610eda8383836114c7565b6001600160a01b03831660009081526065602052604090205481811015610f525760405162461bcd60e51b815260206004820152602660248201527f45524332303a207472616e7366657220616d6f756e7420657863656564732062604482015265616c616e636560d01b6064820152608401610713565b6001600160a01b03808516600090815260656020526040808220858503905591851681529081208054849290610f89908490612345565b92505081905550826001600160a01b0316846001600160a01b03167fddf252ad1be2c89b69c2b068fc378daa952ba7f163c4a11628f55a4df523b3ef84604051610fd591815260200190565b60405180910390a35b50505050565b600054610100900460ff1661100b5760405162461bcd60e51b8152600401610713906122fa565b6110136114dd565b61101d8484611536565b610fde8282611584565b6110318282610b62565b6108a457611049816001600160a01b031660146115c5565b6110548360206115c5565b6040516020016110659291906121ba565b60408051601f198184030181529082905262461bcd60e51b82526107139160040161222f565b6110958282610b62565b6108a457600082815260fb602090815260408083206001600160a01b03851684529091529020805460ff191660011790556110cd3390565b6001600160a01b0316816001600160a01b0316837f2f8788117e7eff1d82e926ec794901d17c78024a50270940304540a733656f0d60405160405180910390a45050565b61111b8282610b62565b156108a457600082815260fb602090815260408083206001600160a01b0385168085529252808320805460ff1916905551339285917ff6391f5c32d9c69d2a47ea670b442974b53935d1edc7fd64eb21e047a839171b9190a45050565b7f360894a13ba1a3210667c828492db98dca3e2076cc3735a920a3ca505d382bbc546001600160a01b031690565b6111be60008051602061249083398151915233610b62565b806111dc57506111dc60008051602061247083398151915233610b62565b61096e5760405162461bcd60e51b815260206004820152601d60248201527f4552524f523a2041646472657373206e6f7420617574686f72697a65640000006044820152606401610713565b6000611232611178565b905061123d84611761565b60008351118061124a5750815b1561125b576112598484611806565b505b7f4910fdfa16fed3260ed0e7147f7cc6da11a60208b5b9406d12a635614ffd9143805460ff166107f857805460ff191660011781556040516001600160a01b03831660248201526112da90869060440160408051601f198184030181529190526020810180516001600160e01b0316631b2ce7f360e11b179052611806565b50805460ff191681556112eb611178565b6001600160a01b0316826001600160a01b0316146113635760405162461bcd60e51b815260206004820152602f60248201527f45524331393637557067726164653a207570677261646520627265616b73206660448201526e75727468657220757067726164657360881b6064820152608401610713565b6107f8856118f1565b600080600085116113b85760405162461bcd60e51b815260206004820152601660248201527504552433230536e617073686f743a20696420697320360541b6044820152606401610713565b6000805160206124d7833981519152548511156114175760405162461bcd60e51b815260206004820152601d60248201527f4552433230536e617073686f743a206e6f6e6578697374656e742069640000006044820152606401610713565b60006114238587611931565b9050845481141561143b57600080925092505061144f565b600161144785836119d0565b549093509150505b935093915050565b600060016000805160206124d7833981519152805460009061147a908490612345565b90915550506000805160206124d7833981519152546040518181527f8030e83b04d87bef53480e26263266d6ca66863aa8506aca6f2559d18aa1cb679060200160405180910390a1919050565b6114d2838383611a4f565b610825838383611a5a565b600054610100900460ff166115045760405162461bcd60e51b8152600401610713906122fa565b61150c611aa2565b611514611aa2565b61151c611aa2565b611524611aa2565b61152c611aa2565b611534611ac9565b565b600054610100900460ff1661155d5760405162461bcd60e51b8152600401610713906122fa565b8151611570906068906020850190611e53565b508051610825906069906020840190611e53565b600054610100900460ff166115ab5760405162461bcd60e51b8152600401610713906122fa565b610160805460ff191660ff84161790556108a43382611b51565b606060006115d483600261237f565b6115df906002612345565b67ffffffffffffffff8111156115f7576115f7612459565b6040519080825280601f01601f191660200182016040528015611621576020820181803683370190505b509050600360fc1b8160008151811061163c5761163c612443565b60200101906001600160f81b031916908160001a905350600f60fb1b8160018151811061166b5761166b612443565b60200101906001600160f81b031916908160001a905350600061168f84600261237f565b61169a906001612345565b90505b6001811115611712576f181899199a1a9b1b9c1cb0b131b232b360811b85600f16601081106116ce576116ce612443565b1a60f81b8282815181106116e4576116e4612443565b60200101906001600160f81b031916908160001a90535060049490941c9361170b816123e1565b905061169d565b50831561072f5760405162461bcd60e51b815260206004820181905260248201527f537472696e67733a20686578206c656e67746820696e73756666696369656e746044820152606401610713565b803b6117c55760405162461bcd60e51b815260206004820152602d60248201527f455243313936373a206e657720696d706c656d656e746174696f6e206973206e60448201526c1bdd08184818dbdb9d1c9858dd609a1b6064820152608401610713565b7f360894a13ba1a3210667c828492db98dca3e2076cc3735a920a3ca505d382bbc80546001600160a01b0319166001600160a01b0392909216919091179055565b6060823b6118655760405162461bcd60e51b815260206004820152602660248201527f416464726573733a2064656c65676174652063616c6c20746f206e6f6e2d636f6044820152651b9d1c9858dd60d21b6064820152608401610713565b600080846001600160a01b031684604051611880919061219e565b600060405180830381855af49150503d80600081146118bb576040519150601f19603f3d011682016040523d82523d6000602084013e6118c0565b606091505b50915091506118e882826040518060600160405280602781526020016124b060279139611c3c565b95945050505050565b6118fa81611761565b6040516001600160a01b038216907fbc7cd75a20ee27fd9adebab32041f755214dbc6bffa90cc0225b39da2e5c2d3b90600090a250565b8154600090819080611948576000925050506105d7565b8082101561198c57600061195c8383611c75565b90508461196987836119d0565b54111561197857809150611986565b611983816001612345565b92505b50611948565b6000821180156119af5750836119ac866119a760018661239e565b6119d0565b54145b156119c8576119bf60018361239e565b925050506105d7565b5090506105d7565b600082548210611a185760405162461bcd60e51b815260206004820152601360248201527211549493d48e8813dd5d081bd988189bdd5b99606a1b6044820152606401610713565b8183604051602001611a2c91815260200190565b6040516020818303038152906040528051906020012060001c61072f9190612345565b6108258383836114d2565b6001600160a01b038316611a7957611a7182611c90565b610825611d1a565b6001600160a01b038216611a9057611a7183611c90565b611a9983611c90565b61082582611c90565b600054610100900460ff166115345760405162461bcd60e51b8152600401610713906122fa565b600054610100900460ff16611af05760405162461bcd60e51b8152600401610713906122fa565b611afb600033611d68565b611b1360008051602061249083398151915233611d68565b611b2b60008051602061247083398151915233611d68565b611534600080516020612470833981519152600080516020612490833981519152611d72565b6001600160a01b038216611ba75760405162461bcd60e51b815260206004820152601f60248201527f45524332303a206d696e7420746f20746865207a65726f2061646472657373006044820152606401610713565b611bb3600083836114c7565b8060676000828254611bc59190612345565b90915550506001600160a01b03821660009081526065602052604081208054839290611bf2908490612345565b90915550506040518181526001600160a01b038316906000907fddf252ad1be2c89b69c2b068fc378daa952ba7f163c4a11628f55a4df523b3ef9060200160405180910390a35050565b60608315611c4b57508161072f565b825115611c5b5782518084602001fd5b8160405162461bcd60e51b8152600401610713919061222f565b6000611c84600284841861235d565b61072f90848416612345565b604080516001600160a01b0383166020808301919091527ffbf1c7065455eb4486649b8540f24ef2dd4ebedf2aa423f0039d17c2c75dea1582840152825180830384018152606090920190925280519101206000611cef826001612345565b90506108258282611d15866001600160a01b031660009081526065602052604090205490565b611dbd565b6115347f286a9db37a0f8ddcbcee127c9f4f56031230f49cb46786f87e166d552e11f67e7ffcaa8bb100d3c5b627eac0369cc1d2778dbeffa2993d08f039fb27795729e9a5611d1560675490565b6108a4828261108b565b600082815260fb6020526040808220600101805490849055905190918391839186917fbd79b86ffe0ab8e8776151514217cd7cacd52c909f66475c3af44e129f0b00ff9190a4505050565b6000611dd56000805160206124d78339815191525490565b905080611de185611dfb565b1015610fde57611df18482611e2b565b610fde8383611e2b565b805460009080611e0e5750600092915050565b611e1d836119a760018461239e565b549392505050565b50919050565b81546001836000611e3c8385612345565b90915550829050611e4d84836119d0565b55505050565b828054611e5f906123f8565b90600052602060002090601f016020900481019282611e815760008555611ec7565b82601f10611e9a57805160ff1916838001178555611ec7565b82800160010185558215611ec7579182015b82811115611ec7578251825591602001919060010190611eac565b50611ed3929150611ed7565b5090565b5b80821115611ed35760008155600101611ed8565b600067ffffffffffffffff80841115611f0757611f07612459565b604051601f8501601f19908116603f01168101908282118183101715611f2f57611f2f612459565b81604052809350858152868686011115611f4857600080fd5b858560208301376000602087830101525050509392505050565b80356001600160a01b0381168114611f7957600080fd5b919050565b600082601f830112611f8f57600080fd5b61072f83833560208501611eec565b600060208284031215611fb057600080fd5b61072f82611f62565b60008060408385031215611fcc57600080fd5b611fd583611f62565b9150611fe360208401611f62565b90509250929050565b60008060006060848603121561200157600080fd5b61200a84611f62565b925061201860208501611f62565b9150604084013590509250925092565b6000806040838503121561203b57600080fd5b61204483611f62565b9150602083013567ffffffffffffffff81111561206057600080fd5b8301601f8101851361207157600080fd5b61208085823560208401611eec565b9150509250929050565b6000806040838503121561209d57600080fd5b6120a683611f62565b946020939093013593505050565b6000602082840312156120c657600080fd5b5035919050565b600080604083850312156120e057600080fd5b82359150611fe360208401611f62565b60006020828403121561210257600080fd5b81356001600160e01b03198116811461072f57600080fd5b6000806000806080858703121561213057600080fd5b843567ffffffffffffffff8082111561214857600080fd5b61215488838901611f7e565b9550602087013591508082111561216a57600080fd5b5061217787828801611f7e565b935050604085013560ff8116811461218e57600080fd5b9396929550929360600135925050565b600082516121b08184602087016123b5565b9190910192915050565b7f416363657373436f6e74726f6c3a206163636f756e74200000000000000000008152600083516121f28160178501602088016123b5565b7001034b99036b4b9b9b4b733903937b6329607d1b60179184019182015283516122238160288401602088016123b5565b01602801949350505050565b602081526000825180602084015261224e8160408501602087016123b5565b601f01601f19169190910160400192915050565b6020808252602c908201527f46756e6374696f6e206d7573742062652063616c6c6564207468726f7567682060408201526b19195b1959d85d1958d85b1b60a21b606082015260800190565b6020808252602c908201527f46756e6374696f6e206d7573742062652063616c6c6564207468726f7567682060408201526b6163746976652070726f787960a01b606082015260800190565b6020808252602b908201527f496e697469616c697a61626c653a20636f6e7472616374206973206e6f74206960408201526a6e697469616c697a696e6760a81b606082015260800190565b600082198211156123585761235861242d565b500190565b60008261237a57634e487b7160e01b600052601260045260246000fd5b500490565b60008160001904831182151516156123995761239961242d565b500290565b6000828210156123b0576123b061242d565b500390565b60005b838110156123d05781810151838201526020016123b8565b83811115610fde5750506000910152565b6000816123f0576123f061242d565b506000190190565b600181811c9082168061240c57607f821691505b60208210811415611e2557634e487b7160e01b600052602260045260246000fd5b634e487b7160e01b600052601160045260246000fd5b634e487b7160e01b600052603260045260246000fd5b634e487b7160e01b600052604160045260246000fdfea76ace73a908083d89af9ff88e5b4f7cadb3591a80631063f68b695fda726db571840dc4906352362b0cdaf79870196c8e42acafade72d5d5a6d59291253ceb1416464726573733a206c6f772d6c6576656c2064656c65676174652063616c6c206661696c65640d0a0ed3351c10a57d74a44b40c06e0946288e4e3816ac07bb89db2a755562e7a264697066735822122009b48851a2504152538962eff1ce1f065c805bc5edee9e39ce3e9b977dd78ecc64736f6c63430008060033",
  "linkReferences": {},
  "deployedLinkReferences": {}
}