{
  "_format": "hh-sol-artifact-1",
  "name": "SnapshotTxFeeTemplate",
  "initializer": "function initialize(string name_, string symbol_, uint8 decimals_, uint256 amount_, uint256 txFee, address txFeeBeneficiary)",
  "sourceName": "contracts/templates/SnapshotTxFeeTemplate.sol",
  "abi": [
    {
      "anonymous": false,
      "inputs": [
        {
          "indexed": false,
          "internalType": "address",
          "name": "previousAdmin",
          "type": "address"
        },
        {
          "indexed": false,
          "internalType": "address",
          "name": "newAdmin",
          "type": "address"
        }
      ],
      "name": "AdminChanged",
      "type": "event"
    },
    {
      "anonymous": false,
      "inputs": [
        {
          "indexed": true,
          "internalType": "address",
          "name": "owner",
          "type": "address"
        },
        {
          "indexed": true,
          "internalType": "address",
          "name": "spender",
          "type": "address"
        },
        {
          "indexed": false,
          "internalType": "uint256",
          "name": "value",
          "type": "uint256"
        }
      ],
      "name": "Approval",
      "type": "event"
    },
    {
      "anonymous": false,
      "inputs": [
        {
          "indexed": true,
          "internalType": "address",
          "name": "beacon",
          "type": "address"
        }
      ],
      "name": "BeaconUpgraded",
      "type": "event"
    },
    {
      "anonymous": false,
      "inputs": [
        {
          "indexed": true,
          "internalType": "bytes32",
          "name": "role",
          "type": "bytes32"
        },
        {
          "indexed": true,
          "internalType": "bytes32",
          "name": "previousAdminRole",
          "type": "bytes32"
        },
        {
          "indexed": true,
          "internalType": "bytes32",
          "name": "newAdminRole",
          "type": "bytes32"
        }
      ],
      "name": "RoleAdminChanged",
      "type": "event"
    },
    {
      "anonymous": false,
      "inputs": [
        {
          "indexed": true,
          "internalType": "bytes32",
          "name": "role",
          "type": "bytes32"
        },
        {
          "indexed": true,
          "internalType": "address",
          "name": "account",
          "type": "address"
        },
        {
          "indexed": true,
          "internalType": "address",
          "name": "sender",
          "type": "address"
        }
      ],
      "name": "RoleGranted",
      "type": "event"
    },
    {
      "anonymous": false,
      "inputs": [
        {
          "indexed": true,
          "internalType": "bytes32",
          "name": "role",
          "type": "bytes32"
        },
        {
          "indexed": true,
          "internalType": "address",
          "name": "account",
          "type": "address"
        },
        {
          "indexed": true,
          "internalType": "address",
          "name": "sender",
          "type": "address"
        }
      ],
      "name": "RoleRevoked",
      "type": "event"
    },
    {
      "anonymous": false,
      "inputs": [
        {
          "indexed": false,
          "internalType": "uint256",
          "name": "id",
          "type": "uint256"
        }
      ],
      "name": "Snapshot",
      "type": "event"
    },
    {
      "anonymous": false,
      "inputs": [
        {
          "indexed": true,
          "internalType": "address",
          "name": "from",
          "type": "address"
        },
        {
          "indexed": true,
          "internalType": "address",
          "name": "to",
          "type": "address"
        },
        {
          "indexed": false,
          "internalType": "uint256",
          "name": "value",
          "type": "uint256"
        }
      ],
      "name": "Transfer",
      "type": "event"
    },
    {
      "anonymous": false,
      "inputs": [
        {
          "indexed": true,
          "internalType": "address",
          "name": "implementation",
          "type": "address"
        }
      ],
      "name": "Upgraded",
      "type": "event"
    },
    {
      "inputs": [],
      "name": "DEFAULT_ADMIN_ROLE",
      "outputs": [
        {
          "internalType": "bytes32",
          "name": "",
          "type": "bytes32"
        }
      ],
      "stateMutability": "view",
      "type": "function"
    },
    {
      "inputs": [],
      "name": "GOVERNANCE_ROLE",
      "outputs": [
        {
          "internalType": "bytes32",
          "name": "",
          "type": "bytes32"
        }
      ],
      "stateMutability": "view",
      "type": "function"
    },
    {
      "inputs": [],
      "name": "UPGRADE_MANAGER_ROLE",
      "outputs": [
        {
          "internalType": "bytes32",
          "name": "",
          "type": "bytes32"
        }
      ],
      "stateMutability": "view",
      "type": "function"
    },
    {
      "inputs": [
        {
          "internalType": "address",
          "name": "owner",
          "type": "address"
        },
        {
          "internalType": "address",
          "name": "spender",
          "type": "address"
        }
      ],
      "name": "allowance",
      "outputs": [
        {
          "internalType": "uint256",
          "name": "",
          "type": "uint256"
        }
      ],
      "stateMutability": "view",
      "type": "function"
    },
    {
      "inputs": [
        {
          "internalType": "address",
          "name": "spender",
          "type": "address"
        },
        {
          "internalType": "uint256",
          "name": "amount",
          "type": "uint256"
        }
      ],
      "name": "approve",
      "outputs": [
        {
          "internalType": "bool",
          "name": "",
          "type": "bool"
        }
      ],
      "stateMutability": "nonpayable",
      "type": "function"
    },
    {
      "inputs": [
        {
          "internalType": "address",
          "name": "account",
          "type": "address"
        }
      ],
      "name": "balanceOf",
      "outputs": [
        {
          "internalType": "uint256",
          "name": "",
          "type": "uint256"
        }
      ],
      "stateMutability": "view",
      "type": "function"
    },
    {
      "inputs": [
        {
          "internalType": "address",
          "name": "account",
          "type": "address"
        },
        {
          "internalType": "uint256",
          "name": "snapshotId",
          "type": "uint256"
        }
      ],
      "name": "balanceOfAt",
      "outputs": [
        {
          "internalType": "uint256",
          "name": "",
          "type": "uint256"
        }
      ],
      "stateMutability": "view",
      "type": "function"
    },
    {
      "inputs": [
        {
          "internalType": "uint256",
          "name": "newTxFee",
          "type": "uint256"
        },
        {
          "internalType": "address",
          "name": "newTxBeneficiary",
          "type": "address"
        }
      ],
      "name": "changeTxFeeProperties",
      "outputs": [],
      "stateMutability": "nonpayable",
      "type": "function"
    },
    {
      "inputs": [],
      "name": "decimals",
      "outputs": [
        {
          "internalType": "uint8",
          "name": "",
          "type": "uint8"
        }
      ],
      "stateMutability": "view",
      "type": "function"
    },
    {
      "inputs": [
        {
          "internalType": "address",
          "name": "spender",
          "type": "address"
        },
        {
          "internalType": "uint256",
          "name": "subtractedValue",
          "type": "uint256"
        }
      ],
      "name": "decreaseAllowance",
      "outputs": [
        {
          "internalType": "bool",
          "name": "",
          "type": "bool"
        }
      ],
      "stateMutability": "nonpayable",
      "type": "function"
    },
    {
      "inputs": [],
      "name": "getCurrentSnapshotId",
      "outputs": [
        {
          "internalType": "uint256",
          "name": "",
          "type": "uint256"
        }
      ],
      "stateMutability": "view",
      "type": "function"
    },
    {
      "inputs": [],
      "name": "getImplementation",
      "outputs": [
        {
          "internalType": "address",
          "name": "",
          "type": "address"
        }
      ],
      "stateMutability": "view",
      "type": "function"
    },
    {
      "inputs": [
        {
          "internalType": "bytes32",
          "name": "role",
          "type": "bytes32"
        }
      ],
      "name": "getRoleAdmin",
      "outputs": [
        {
          "internalType": "bytes32",
          "name": "",
          "type": "bytes32"
        }
      ],
      "stateMutability": "view",
      "type": "function"
    },
    {
      "inputs": [
        {
          "internalType": "bytes32",
          "name": "role",
          "type": "bytes32"
        },
        {
          "internalType": "address",
          "name": "account",
          "type": "address"
        }
      ],
      "name": "grantRole",
      "outputs": [],
      "stateMutability": "nonpayable",
      "type": "function"
    },
    {
      "inputs": [
        {
          "internalType": "bytes32",
          "name": "role",
          "type": "bytes32"
        },
        {
          "internalType": "address",
          "name": "account",
          "type": "address"
        }
      ],
      "name": "hasRole",
      "outputs": [
        {
          "internalType": "bool",
          "name": "",
          "type": "bool"
        }
      ],
      "stateMutability": "view",
      "type": "function"
    },
    {
      "inputs": [
        {
          "internalType": "address",
          "name": "spender",
          "type": "address"
        },
        {
          "internalType": "uint256",
          "name": "addedValue",
          "type": "uint256"
        }
      ],
      "name": "increaseAllowance",
      "outputs": [
        {
          "internalType": "bool",
          "name": "",
          "type": "bool"
        }
      ],
      "stateMutability": "nonpayable",
      "type": "function"
    },
    {
      "inputs": [
        {
          "internalType": "string",
          "name": "name_",
          "type": "string"
        },
        {
          "internalType": "string",
          "name": "symbol_",
          "type": "string"
        },
        {
          "internalType": "uint8",
          "name": "decimals_",
          "type": "uint8"
        },
        {
          "internalType": "uint256",
          "name": "amount_",
          "type": "uint256"
        },
        {
          "internalType": "uint256",
          "name": "txFee",
          "type": "uint256"
        },
        {
          "internalType": "address",
          "name": "txFeeBeneficiary",
          "type": "address"
        }
      ],
      "name": "initialize",
      "outputs": [],
      "stateMutability": "nonpayable",
      "type": "function"
    },
    {
      "inputs": [],
      "name": "name",
      "outputs": [
        {
          "internalType": "string",
          "name": "",
          "type": "string"
        }
      ],
      "stateMutability": "view",
      "type": "function"
    },
    {
      "inputs": [
        {
          "internalType": "address",
          "name": "implementationAddress",
          "type": "address"
        }
      ],
      "name": "proposeNewImplementation",
      "outputs": [],
      "stateMutability": "nonpayable",
      "type": "function"
    },
    {
      "inputs": [
        {
          "internalType": "bytes32",
          "name": "role",
          "type": "bytes32"
        },
        {
          "internalType": "address",
          "name": "account",
          "type": "address"
        }
      ],
      "name": "renounceRole",
      "outputs": [],
      "stateMutability": "nonpayable",
      "type": "function"
    },
    {
      "inputs": [
        {
          "internalType": "bytes32",
          "name": "role",
          "type": "bytes32"
        },
        {
          "internalType": "address",
          "name": "account",
          "type": "address"
        }
      ],
      "name": "revokeRole",
      "outputs": [],
      "stateMutability": "nonpayable",
      "type": "function"
    },
    {
      "inputs": [],
      "name": "snapshot",
      "outputs": [],
      "stateMutability": "nonpayable",
      "type": "function"
    },
    {
      "inputs": [
        {
          "internalType": "bytes4",
          "name": "interfaceId",
          "type": "bytes4"
        }
      ],
      "name": "supportsInterface",
      "outputs": [
        {
          "internalType": "bool",
          "name": "",
          "type": "bool"
        }
      ],
      "stateMutability": "view",
      "type": "function"
    },
    {
      "inputs": [],
      "name": "symbol",
      "outputs": [
        {
          "internalType": "string",
          "name": "",
          "type": "string"
        }
      ],
      "stateMutability": "view",
      "type": "function"
    },
    {
      "inputs": [],
      "name": "totalSupply",
      "outputs": [
        {
          "internalType": "uint256",
          "name": "",
          "type": "uint256"
        }
      ],
      "stateMutability": "view",
      "type": "function"
    },
    {
      "inputs": [
        {
          "internalType": "uint256",
          "name": "snapshotId",
          "type": "uint256"
        }
      ],
      "name": "totalSupplyAt",
      "outputs": [
        {
          "internalType": "uint256",
          "name": "",
          "type": "uint256"
        }
      ],
      "stateMutability": "view",
      "type": "function"
    },
    {
      "inputs": [
        {
          "internalType": "address",
          "name": "recipient",
          "type": "address"
        },
        {
          "internalType": "uint256",
          "name": "amount",
          "type": "uint256"
        }
      ],
      "name": "transfer",
      "outputs": [
        {
          "internalType": "bool",
          "name": "",
          "type": "bool"
        }
      ],
      "stateMutability": "nonpayable",
      "type": "function"
    },
    {
      "inputs": [
        {
          "internalType": "address",
          "name": "sender",
          "type": "address"
        },
        {
          "internalType": "address",
          "name": "recipient",
          "type": "address"
        },
        {
          "internalType": "uint256",
          "name": "amount",
          "type": "uint256"
        }
      ],
      "name": "transferFrom",
      "outputs": [
        {
          "internalType": "bool",
          "name": "",
          "type": "bool"
        }
      ],
      "stateMutability": "nonpayable",
      "type": "function"
    },
    {
      "inputs": [
        {
          "internalType": "address",
          "name": "newImplementation",
          "type": "address"
        }
      ],
      "name": "upgradeTo",
      "outputs": [],
      "stateMutability": "nonpayable",
      "type": "function"
    },
    {
      "inputs": [
        {
          "internalType": "address",
          "name": "newImplementation",
          "type": "address"
        },
        {
          "internalType": "bytes",
          "name": "data",
          "type": "bytes"
        }
      ],
      "name": "upgradeToAndCall",
      "outputs": [],
      "stateMutability": "payable",
      "type": "function"
    }
  ],
  "bytecode": "0x60a06040523060601b60805234801561001757600080fd5b5060805160601c61279d61004b600039600081816108ea0152818161092a01528181610ad10152610b11015261279d6000f3fe6080604052600436106101cd5760003560e01c80634f1ef286116100f7578063981b24d011610095578063aaf10f4211610064578063aaf10f421461051c578063d547741f14610549578063dd62ed3e14610569578063f36c8f5c146105af57600080fd5b8063981b24d0146104a7578063a217fddf146104c7578063a457c2d7146104dc578063a9059cbb146104fc57600080fd5b806370a08231116100d157806370a082311461042757806391d148541461045d57806395d89b411461047d5780639711715a1461049257600080fd5b80634f1ef286146103df5780635120561a146103f25780635439ad861461041257600080fd5b80632f2ff15d1161016f578063395093511161013e578063395093511461035d57806343ffa64e1461037d57806347757fb61461039f5780634ee2cd7e146103bf57600080fd5b80632f2ff15d146102da578063313ce567146102fa57806336568abe1461031d5780633659cfe61461033d57600080fd5b806318160ddd116101ab57806318160ddd1461024957806323b872dd14610268578063248a9ca3146102885780632cd77a5a146102b857600080fd5b806301ffc9a7146101d257806306fdde0314610207578063095ea7b314610229575b600080fd5b3480156101de57600080fd5b506101f26101ed366004612326565b6105d1565b60405190151581526020015b60405180910390f35b34801561021357600080fd5b5061021c610608565b6040516101fe9190612480565b34801561023557600080fd5b506101f26102443660046122c0565b61069a565b34801561025557600080fd5b506067545b6040519081526020016101fe565b34801561027457600080fd5b506101f2610283366004612222565b6106b0565b34801561029457600080fd5b5061025a6102a33660046122ea565b600090815260fb602052604090206001015490565b3480156102c457600080fd5b506102d86102d3366004612350565b610761565b005b3480156102e657600080fd5b506102d86102f5366004612303565b610836565b34801561030657600080fd5b506101605460405160ff90911681526020016101fe565b34801561032957600080fd5b506102d8610338366004612303565b610861565b34801561034957600080fd5b506102d86103583660046121d4565b6108df565b34801561036957600080fd5b506101f26103783660046122c0565b6109a8565b34801561038957600080fd5b5061025a6000805160206126c183398151915281565b3480156103ab57600080fd5b506102d86103ba3660046121d4565b6109e4565b3480156103cb57600080fd5b5061025a6103da3660046122c0565b610a21565b6102d86103ed36600461225e565b610ac6565b3480156103fe57600080fd5b506102d861040d366004612303565b610b7c565b34801561041e57600080fd5b5061025a610bf1565b34801561043357600080fd5b5061025a6104423660046121d4565b6001600160a01b031660009081526065602052604090205490565b34801561046957600080fd5b506101f2610478366004612303565b610c0e565b34801561048957600080fd5b5061021c610c39565b34801561049e57600080fd5b506102d8610c48565b3480156104b357600080fd5b5061025a6104c23660046122ea565b610c50565b3480156104d357600080fd5b5061025a600081565b3480156104e857600080fd5b506101f26104f73660046122c0565b610cbb565b34801561050857600080fd5b506101f26105173660046122c0565b610d54565b34801561052857600080fd5b50610531610d61565b6040516001600160a01b0390911681526020016101fe565b34801561055557600080fd5b506102d8610564366004612303565b610d6b565b34801561057557600080fd5b5061025a6105843660046121ef565b6001600160a01b03918216600090815260666020908152604080832093909416825291909152205490565b3480156105bb57600080fd5b5061025a6000805160206126e183398151915281565b60006001600160e01b03198216637965db0b60e01b148061060257506301ffc9a760e01b6001600160e01b03198316145b92915050565b60606068805461061790612649565b80601f016020809104026020016040519081016040528092919081815260200182805461064390612649565b80156106905780601f1061066557610100808354040283529160200191610690565b820191906000526020600020905b81548152906001019060200180831161067357829003601f168201915b5050505050905090565b60006106a7338484610d91565b50600192915050565b60006106bd848484610eb5565b6001600160a01b0384166000908152606660209081526040808320338452909152902054828110156107475760405162461bcd60e51b815260206004820152602860248201527f45524332303a207472616e7366657220616d6f756e74206578636565647320616044820152676c6c6f77616e636560c01b60648201526084015b60405180910390fd5b6107548533858403610d91565b60019150505b9392505050565b600054610100900460ff1661077c5760005460ff1615610780565b303b155b6107e35760405162461bcd60e51b815260206004820152602e60248201527f496e697469616c697a61626c653a20636f6e747261637420697320616c72656160448201526d191e481a5b9a5d1a585b1a5e995960921b606482015260840161073e565b600054610100900460ff16158015610805576000805461ffff19166101011790555b61081187878787611090565b61081b83836110d3565b801561082d576000805461ff00191690555b50505050505050565b600082815260fb60205260409020600101546108528133611162565b61085c83836111c6565b505050565b6001600160a01b03811633146108d15760405162461bcd60e51b815260206004820152602f60248201527f416363657373436f6e74726f6c3a2063616e206f6e6c792072656e6f756e636560448201526e103937b632b9903337b91039b2b63360891b606482015260840161073e565b6108db828261124c565b5050565b306001600160a01b037f00000000000000000000000000000000000000000000000000000000000000001614156109285760405162461bcd60e51b815260040161073e906124b3565b7f00000000000000000000000000000000000000000000000000000000000000006001600160a01b031661095a6112b3565b6001600160a01b0316146109805760405162461bcd60e51b815260040161073e906124ff565b610989816112e1565b604080516000808252602082019092526109a591839190611363565b50565b3360008181526066602090815260408083206001600160a01b038716845290915281205490916106a79185906109df908690612596565b610d91565b6000805160206126e18339815191526109fd8133611162565b5061012d80546001600160a01b0319166001600160a01b0392909216919091179055565b604080516001600160a01b0384166020808301919091527ffbf1c7065455eb4486649b8540f24ef2dd4ebedf2aa423f0039d17c2c75dea15828401528251808303840181526060909201909252805191012060009081610a82826001612596565b9050600080610a928685856114ae565b9150915081610ab9576001600160a01b038716600090815260656020526040902054610abb565b805b979650505050505050565b306001600160a01b037f0000000000000000000000000000000000000000000000000000000000000000161415610b0f5760405162461bcd60e51b815260040161073e906124b3565b7f00000000000000000000000000000000000000000000000000000000000000006001600160a01b0316610b416112b3565b6001600160a01b031614610b675760405162461bcd60e51b815260040161073e906124ff565b610b70826112e1565b6108db82826001611363565b6000610b888133611162565b6001600160a01b038216610b9b57600080fd5b8260008051602061270183398151915255817fe38b16c806f019542b2d4bf356bb4ba2ea4b7eb450b8fbff2584f6084c4978f180546001600160a01b0319166001600160a01b0392909216919091179055505050565b6000610c096000805160206127488339815191525490565b905090565b600091825260fb602090815260408084206001600160a01b0393909316845291905290205460ff1690565b60606069805461061790612649565b6109a5611599565b6000806000610ca0847f286a9db37a0f8ddcbcee127c9f4f56031230f49cb46786f87e166d552e11f67e7ffcaa8bb100d3c5b627eac0369cc1d2778dbeffa2993d08f039fb27795729e9a56114ae565b9150915081610cb157606754610cb3565b805b949350505050565b3360009081526066602090815260408083206001600160a01b038616845290915281205482811015610d3d5760405162461bcd60e51b815260206004820152602560248201527f45524332303a2064656372656173656420616c6c6f77616e63652062656c6f77604482015264207a65726f60d81b606482015260840161073e565b610d4a3385858403610d91565b5060019392505050565b60006106a7338484610eb5565b6000610c096112b3565b600082815260fb6020526040902060010154610d878133611162565b61085c838361124c565b6001600160a01b038316610df35760405162461bcd60e51b8152602060048201526024808201527f45524332303a20617070726f76652066726f6d20746865207a65726f206164646044820152637265737360e01b606482015260840161073e565b6001600160a01b038216610e545760405162461bcd60e51b815260206004820152602260248201527f45524332303a20617070726f766520746f20746865207a65726f206164647265604482015261737360f01b606482015260840161073e565b6001600160a01b0383811660008181526066602090815260408083209487168084529482529182902085905590518481527f8c5be1e5ebec7d5bd14f71427d1e84f3dd0314c0f7b2291e5b200ac8c7c3b925910160405180910390a3505050565b6001600160a01b038316610f195760405162461bcd60e51b815260206004820152602560248201527f45524332303a207472616e736665722066726f6d20746865207a65726f206164604482015264647265737360d81b606482015260840161073e565b6001600160a01b038216610f7b5760405162461bcd60e51b815260206004820152602360248201527f45524332303a207472616e7366657220746f20746865207a65726f206164647260448201526265737360e81b606482015260840161073e565b610f86838383611609565b6001600160a01b03831660009081526065602052604090205481811015610ffe5760405162461bcd60e51b815260206004820152602660248201527f45524332303a207472616e7366657220616d6f756e7420657863656564732062604482015265616c616e636560d01b606482015260840161073e565b6001600160a01b03808516600090815260656020526040808220858503905591851681529081208054849290611035908490612596565b92505081905550826001600160a01b0316846001600160a01b03167fddf252ad1be2c89b69c2b068fc378daa952ba7f163c4a11628f55a4df523b3ef8460405161108191815260200190565b60405180910390a35b50505050565b600054610100900460ff166110b75760405162461bcd60e51b815260040161073e9061254b565b6110bf61161f565b6110c98484611678565b61108a82826116c6565b600054610100900460ff166110fa5760405162461bcd60e51b815260040161073e9061254b565b6001600160a01b03811661110d57600080fd5b8160008051602061270183398151915255807fe38b16c806f019542b2d4bf356bb4ba2ea4b7eb450b8fbff2584f6084c4978f180546001600160a01b0319166001600160a01b03929092169190911790555050565b61116c8282610c0e565b6108db57611184816001600160a01b03166014611707565b61118f836020611707565b6040516020016111a092919061240b565b60408051601f198184030181529082905262461bcd60e51b825261073e91600401612480565b6111d08282610c0e565b6108db57600082815260fb602090815260408083206001600160a01b03851684529091529020805460ff191660011790556112083390565b6001600160a01b0316816001600160a01b0316837f2f8788117e7eff1d82e926ec794901d17c78024a50270940304540a733656f0d60405160405180910390a45050565b6112568282610c0e565b156108db57600082815260fb602090815260408083206001600160a01b0385168085529252808320805460ff1916905551339285917ff6391f5c32d9c69d2a47ea670b442974b53935d1edc7fd64eb21e047a839171b9190a45050565b7f360894a13ba1a3210667c828492db98dca3e2076cc3735a920a3ca505d382bbc546001600160a01b031690565b6112f96000805160206126e183398151915233610c0e565b8061131757506113176000805160206126c183398151915233610c0e565b6109a55760405162461bcd60e51b815260206004820152601d60248201527f4552524f523a2041646472657373206e6f7420617574686f72697a6564000000604482015260640161073e565b600061136d6112b3565b9050611378846118a3565b6000835111806113855750815b15611396576113948484611948565b505b7f4910fdfa16fed3260ed0e7147f7cc6da11a60208b5b9406d12a635614ffd9143805460ff166114a757805460ff191660011781556040516001600160a01b038316602482015261141590869060440160408051601f198184030181529190526020810180516001600160e01b0316631b2ce7f360e11b179052611948565b50805460ff191681556114266112b3565b6001600160a01b0316826001600160a01b03161461149e5760405162461bcd60e51b815260206004820152602f60248201527f45524331393637557067726164653a207570677261646520627265616b73206660448201526e75727468657220757067726164657360881b606482015260840161073e565b6114a785611a33565b5050505050565b600080600085116114fa5760405162461bcd60e51b815260206004820152601660248201527504552433230536e617073686f743a20696420697320360541b604482015260640161073e565b600080516020612748833981519152548511156115595760405162461bcd60e51b815260206004820152601d60248201527f4552433230536e617073686f743a206e6f6e6578697374656e74206964000000604482015260640161073e565b60006115658587611a73565b9050845481141561157d576000809250925050611591565b60016115898583611b12565b549093509150505b935093915050565b6000600160008051602061274883398151915280546000906115bc908490612596565b9091555050600080516020612748833981519152546040518181527f8030e83b04d87bef53480e26263266d6ca66863aa8506aca6f2559d18aa1cb679060200160405180910390a1919050565b611614838383611b91565b61085c838383611ba7565b600054610100900460ff166116465760405162461bcd60e51b815260040161073e9061254b565b61164e611bef565b611656611bef565b61165e611bef565b611666611bef565b61166e611bef565b611676611c16565b565b600054610100900460ff1661169f5760405162461bcd60e51b815260040161073e9061254b565b81516116b2906068906020850190612089565b50805161085c906069906020840190612089565b600054610100900460ff166116ed5760405162461bcd60e51b815260040161073e9061254b565b610160805460ff191660ff84161790556108db3382611c9e565b606060006117168360026125d0565b611721906002612596565b67ffffffffffffffff811115611739576117396126aa565b6040519080825280601f01601f191660200182016040528015611763576020820181803683370190505b509050600360fc1b8160008151811061177e5761177e612694565b60200101906001600160f81b031916908160001a905350600f60fb1b816001815181106117ad576117ad612694565b60200101906001600160f81b031916908160001a90535060006117d18460026125d0565b6117dc906001612596565b90505b6001811115611854576f181899199a1a9b1b9c1cb0b131b232b360811b85600f166010811061181057611810612694565b1a60f81b82828151811061182657611826612694565b60200101906001600160f81b031916908160001a90535060049490941c9361184d81612632565b90506117df565b50831561075a5760405162461bcd60e51b815260206004820181905260248201527f537472696e67733a20686578206c656e67746820696e73756666696369656e74604482015260640161073e565b803b6119075760405162461bcd60e51b815260206004820152602d60248201527f455243313936373a206e657720696d706c656d656e746174696f6e206973206e60448201526c1bdd08184818dbdb9d1c9858dd609a1b606482015260840161073e565b7f360894a13ba1a3210667c828492db98dca3e2076cc3735a920a3ca505d382bbc80546001600160a01b0319166001600160a01b0392909216919091179055565b6060823b6119a75760405162461bcd60e51b815260206004820152602660248201527f416464726573733a2064656c65676174652063616c6c20746f206e6f6e2d636f6044820152651b9d1c9858dd60d21b606482015260840161073e565b600080846001600160a01b0316846040516119c291906123ef565b600060405180830381855af49150503d80600081146119fd576040519150601f19603f3d011682016040523d82523d6000602084013e611a02565b606091505b5091509150611a2a828260405180606001604052806027815260200161272160279139611d89565b95945050505050565b611a3c816118a3565b6040516001600160a01b038216907fbc7cd75a20ee27fd9adebab32041f755214dbc6bffa90cc0225b39da2e5c2d3b90600090a250565b8154600090819080611a8a57600092505050610602565b80821015611ace576000611a9e8383611dc2565b905084611aab8783611b12565b541115611aba57809150611ac8565b611ac5816001612596565b92505b50611a8a565b600082118015611af1575083611aee86611ae96001866125ef565b611b12565b54145b15611b0a57611b016001836125ef565b92505050610602565b509050610602565b600082548210611b5a5760405162461bcd60e51b815260206004820152601360248201527211549493d48e8813dd5d081bd988189bdd5b99606a1b604482015260640161073e565b8183604051602001611b6e91815260200190565b6040516020818303038152906040528051906020012060001c61075a9190612596565b611b9c838383611614565b61085c838383611ddd565b6001600160a01b038316611bc657611bbe82611ec6565b61085c611f50565b6001600160a01b038216611bdd57611bbe83611ec6565b611be683611ec6565b61085c82611ec6565b600054610100900460ff166116765760405162461bcd60e51b815260040161073e9061254b565b600054610100900460ff16611c3d5760405162461bcd60e51b815260040161073e9061254b565b611c48600033611f9e565b611c606000805160206126e183398151915233611f9e565b611c786000805160206126c183398151915233611f9e565b6116766000805160206126c18339815191526000805160206126e1833981519152611fa8565b6001600160a01b038216611cf45760405162461bcd60e51b815260206004820152601f60248201527f45524332303a206d696e7420746f20746865207a65726f206164647265737300604482015260640161073e565b611d0060008383611609565b8060676000828254611d129190612596565b90915550506001600160a01b03821660009081526065602052604081208054839290611d3f908490612596565b90915550506040518181526001600160a01b038316906000907fddf252ad1be2c89b69c2b068fc378daa952ba7f163c4a11628f55a4df523b3ef9060200160405180910390a35050565b60608315611d9857508161075a565b825115611da85782518084602001fd5b8160405162461bcd60e51b815260040161073e9190612480565b6000611dd160028484186125ae565b61075a90848416612596565b600080516020612701833981519152547fe38b16c806f019542b2d4bf356bb4ba2ea4b7eb450b8fbff2584f6084c4978f1546001600160a01b0316811580611e365750836001600160a01b0316816001600160a01b0316145b80611e525750846001600160a01b0316816001600160a01b0316145b80611e6457506001600160a01b038516155b80611e7657506001600160a01b038416155b15611e82575050505050565b6000670de0b6b3a764000060008051602061270183398151915254611ea790866125d0565b611eb191906125ae565b9050611ebe868383610eb5565b505050505050565b604080516001600160a01b0383166020808301919091527ffbf1c7065455eb4486649b8540f24ef2dd4ebedf2aa423f0039d17c2c75dea1582840152825180830384018152606090920190925280519101206000611f25826001612596565b905061085c8282611f4b866001600160a01b031660009081526065602052604090205490565b611ff3565b6116767f286a9db37a0f8ddcbcee127c9f4f56031230f49cb46786f87e166d552e11f67e7ffcaa8bb100d3c5b627eac0369cc1d2778dbeffa2993d08f039fb27795729e9a5611f4b60675490565b6108db82826111c6565b600082815260fb6020526040808220600101805490849055905190918391839186917fbd79b86ffe0ab8e8776151514217cd7cacd52c909f66475c3af44e129f0b00ff9190a4505050565b600061200b6000805160206127488339815191525490565b90508061201785612031565b101561108a576120278482612061565b61108a8383612061565b8054600090806120445750600092915050565b61205383611ae96001846125ef565b549392505050565b50919050565b815460018360006120728385612596565b909155508290506120838483611b12565b55505050565b82805461209590612649565b90600052602060002090601f0160209004810192826120b757600085556120fd565b82601f106120d057805160ff19168380011785556120fd565b828001600101855582156120fd579182015b828111156120fd5782518255916020019190600101906120e2565b5061210992915061210d565b5090565b5b80821115612109576000815560010161210e565b600067ffffffffffffffff8084111561213d5761213d6126aa565b604051601f8501601f19908116603f01168101908282118183101715612165576121656126aa565b8160405280935085815286868601111561217e57600080fd5b858560208301376000602087830101525050509392505050565b80356001600160a01b03811681146121af57600080fd5b919050565b600082601f8301126121c557600080fd5b61075a83833560208501612122565b6000602082840312156121e657600080fd5b61075a82612198565b6000806040838503121561220257600080fd5b61220b83612198565b915061221960208401612198565b90509250929050565b60008060006060848603121561223757600080fd5b61224084612198565b925061224e60208501612198565b9150604084013590509250925092565b6000806040838503121561227157600080fd5b61227a83612198565b9150602083013567ffffffffffffffff81111561229657600080fd5b8301601f810185136122a757600080fd5b6122b685823560208401612122565b9150509250929050565b600080604083850312156122d357600080fd5b6122dc83612198565b946020939093013593505050565b6000602082840312156122fc57600080fd5b5035919050565b6000806040838503121561231657600080fd5b8235915061221960208401612198565b60006020828403121561233857600080fd5b81356001600160e01b03198116811461075a57600080fd5b60008060008060008060c0878903121561236957600080fd5b863567ffffffffffffffff8082111561238157600080fd5b61238d8a838b016121b4565b975060208901359150808211156123a357600080fd5b506123b089828a016121b4565b955050604087013560ff811681146123c757600080fd5b935060608701359250608087013591506123e360a08801612198565b90509295509295509295565b60008251612401818460208701612606565b9190910192915050565b7f416363657373436f6e74726f6c3a206163636f756e7420000000000000000000815260008351612443816017850160208801612606565b7001034b99036b4b9b9b4b733903937b6329607d1b6017918401918201528351612474816028840160208801612606565b01602801949350505050565b602081526000825180602084015261249f816040850160208701612606565b601f01601f19169190910160400192915050565b6020808252602c908201527f46756e6374696f6e206d7573742062652063616c6c6564207468726f7567682060408201526b19195b1959d85d1958d85b1b60a21b606082015260800190565b6020808252602c908201527f46756e6374696f6e206d7573742062652063616c6c6564207468726f7567682060408201526b6163746976652070726f787960a01b606082015260800190565b6020808252602b908201527f496e697469616c697a61626c653a20636f6e7472616374206973206e6f74206960408201526a6e697469616c697a696e6760a81b606082015260800190565b600082198211156125a9576125a961267e565b500190565b6000826125cb57634e487b7160e01b600052601260045260246000fd5b500490565b60008160001904831182151516156125ea576125ea61267e565b500290565b6000828210156126015761260161267e565b500390565b60005b83811015612621578181015183820152602001612609565b8381111561108a5750506000910152565b6000816126415761264161267e565b506000190190565b600181811c9082168061265d57607f821691505b6020821081141561205b57634e487b7160e01b600052602260045260246000fd5b634e487b7160e01b600052601160045260246000fd5b634e487b7160e01b600052603260045260246000fd5b634e487b7160e01b600052604160045260246000fdfea76ace73a908083d89af9ff88e5b4f7cadb3591a80631063f68b695fda726db571840dc4906352362b0cdaf79870196c8e42acafade72d5d5a6d59291253ceb1253122b26cc2118faf5fcfc7761bd75fcfb5508f1f48d1a40db694aba32af5d0416464726573733a206c6f772d6c6576656c2064656c65676174652063616c6c206661696c65640d0a0ed3351c10a57d74a44b40c06e0946288e4e3816ac07bb89db2a755562e7a264697066735822122090b177fd1187b607dd53324b8e073586418694f437985bfbbaeddec85a5059e364736f6c63430008060033",
  "linkReferences": {},
  "deployedLinkReferences": {}
}