{
  "_format": "hh-sol-artifact-1",
  "name": "SnapshotWhiteListTemplate",
  "initializer": "function initialize(string name_, string symbol_, uint8 decimals_, uint256 amount_)",
  "sourceName": "contracts/templates/SnapshotWhiteListTemplate.sol",
  "abi": [
    {
      "anonymous": false,
      "inputs": [
        {
          "indexed": false,
          "internalType": "address",
          "name": "previousAdmin",
          "type": "address"
        },
        {
          "indexed": false,
          "internalType": "address",
          "name": "newAdmin",
          "type": "address"
        }
      ],
      "name": "AdminChanged",
      "type": "event"
    },
    {
      "anonymous": false,
      "inputs": [
        {
          "indexed": true,
          "internalType": "address",
          "name": "owner",
          "type": "address"
        },
        {
          "indexed": true,
          "internalType": "address",
          "name": "spender",
          "type": "address"
        },
        {
          "indexed": false,
          "internalType": "uint256",
          "name": "value",
          "type": "uint256"
        }
      ],
      "name": "Approval",
      "type": "event"
    },
    {
      "anonymous": false,
      "inputs": [
        {
          "indexed": true,
          "internalType": "address",
          "name": "beacon",
          "type": "address"
        }
      ],
      "name": "BeaconUpgraded",
      "type": "event"
    },
    {
      "anonymous": false,
      "inputs": [
        {
          "indexed": false,
          "internalType": "address",
          "name": "account",
          "type": "address"
        }
      ],
      "name": "Paused",
      "type": "event"
    },
    {
      "anonymous": false,
      "inputs": [
        {
          "indexed": true,
          "internalType": "bytes32",
          "name": "role",
          "type": "bytes32"
        },
        {
          "indexed": true,
          "internalType": "bytes32",
          "name": "previousAdminRole",
          "type": "bytes32"
        },
        {
          "indexed": true,
          "internalType": "bytes32",
          "name": "newAdminRole",
          "type": "bytes32"
        }
      ],
      "name": "RoleAdminChanged",
      "type": "event"
    },
    {
      "anonymous": false,
      "inputs": [
        {
          "indexed": true,
          "internalType": "bytes32",
          "name": "role",
          "type": "bytes32"
        },
        {
          "indexed": true,
          "internalType": "address",
          "name": "account",
          "type": "address"
        },
        {
          "indexed": true,
          "internalType": "address",
          "name": "sender",
          "type": "address"
        }
      ],
      "name": "RoleGranted",
      "type": "event"
    },
    {
      "anonymous": false,
      "inputs": [
        {
          "indexed": true,
          "internalType": "bytes32",
          "name": "role",
          "type": "bytes32"
        },
        {
          "indexed": true,
          "internalType": "address",
          "name": "account",
          "type": "address"
        },
        {
          "indexed": true,
          "internalType": "address",
          "name": "sender",
          "type": "address"
        }
      ],
      "name": "RoleRevoked",
      "type": "event"
    },
    {
      "anonymous": false,
      "inputs": [
        {
          "indexed": false,
          "internalType": "uint256",
          "name": "id",
          "type": "uint256"
        }
      ],
      "name": "Snapshot",
      "type": "event"
    },
    {
      "anonymous": false,
      "inputs": [
        {
          "indexed": true,
          "internalType": "address",
          "name": "from",
          "type": "address"
        },
        {
          "indexed": true,
          "internalType": "address",
          "name": "to",
          "type": "address"
        },
        {
          "indexed": false,
          "internalType": "uint256",
          "name": "value",
          "type": "uint256"
        }
      ],
      "name": "Transfer",
      "type": "event"
    },
    {
      "anonymous": false,
      "inputs": [
        {
          "indexed": false,
          "internalType": "address",
          "name": "account",
          "type": "address"
        }
      ],
      "name": "Unpaused",
      "type": "event"
    },
    {
      "anonymous": false,
      "inputs": [
        {
          "indexed": true,
          "internalType": "address",
          "name": "implementation",
          "type": "address"
        }
      ],
      "name": "Upgraded",
      "type": "event"
    },
    {
      "inputs": [],
      "name": "DEFAULT_ADMIN_ROLE",
      "outputs": [
        {
          "internalType": "bytes32",
          "name": "",
          "type": "bytes32"
        }
      ],
      "stateMutability": "view",
      "type": "function"
    },
    {
      "inputs": [],
      "name": "GOVERNANCE_ROLE",
      "outputs": [
        {
          "internalType": "bytes32",
          "name": "",
          "type": "bytes32"
        }
      ],
      "stateMutability": "view",
      "type": "function"
    },
    {
      "inputs": [],
      "name": "PAUSE_MANAGER_ROLE",
      "outputs": [
        {
          "internalType": "bytes32",
          "name": "",
          "type": "bytes32"
        }
      ],
      "stateMutability": "view",
      "type": "function"
    },
    {
      "inputs": [],
      "name": "UPGRADE_MANAGER_ROLE",
      "outputs": [
        {
          "internalType": "bytes32",
          "name": "",
          "type": "bytes32"
        }
      ],
      "stateMutability": "view",
      "type": "function"
    },
    {
      "inputs": [],
      "name": "WHITELISTED_FROM_ROLE",
      "outputs": [
        {
          "internalType": "bytes32",
          "name": "",
          "type": "bytes32"
        }
      ],
      "stateMutability": "view",
      "type": "function"
    },
    {
      "inputs": [],
      "name": "WHITELISTED_SENDER_ROLE",
      "outputs": [
        {
          "internalType": "bytes32",
          "name": "",
          "type": "bytes32"
        }
      ],
      "stateMutability": "view",
      "type": "function"
    },
    {
      "inputs": [
        {
          "internalType": "address[]",
          "name": "addresses",
          "type": "address[]"
        }
      ],
      "name": "addAddressesToWhitelistFrom",
      "outputs": [],
      "stateMutability": "nonpayable",
      "type": "function"
    },
    {
      "inputs": [
        {
          "internalType": "address[]",
          "name": "addresses",
          "type": "address[]"
        }
      ],
      "name": "addAddressesToWhitelistSender",
      "outputs": [],
      "stateMutability": "nonpayable",
      "type": "function"
    },
    {
      "inputs": [
        {
          "internalType": "address",
          "name": "owner",
          "type": "address"
        },
        {
          "internalType": "address",
          "name": "spender",
          "type": "address"
        }
      ],
      "name": "allowance",
      "outputs": [
        {
          "internalType": "uint256",
          "name": "",
          "type": "uint256"
        }
      ],
      "stateMutability": "view",
      "type": "function"
    },
    {
      "inputs": [
        {
          "internalType": "address",
          "name": "spender",
          "type": "address"
        },
        {
          "internalType": "uint256",
          "name": "amount",
          "type": "uint256"
        }
      ],
      "name": "approve",
      "outputs": [
        {
          "internalType": "bool",
          "name": "",
          "type": "bool"
        }
      ],
      "stateMutability": "nonpayable",
      "type": "function"
    },
    {
      "inputs": [
        {
          "internalType": "address",
          "name": "account",
          "type": "address"
        }
      ],
      "name": "balanceOf",
      "outputs": [
        {
          "internalType": "uint256",
          "name": "",
          "type": "uint256"
        }
      ],
      "stateMutability": "view",
      "type": "function"
    },
    {
      "inputs": [
        {
          "internalType": "address",
          "name": "account",
          "type": "address"
        },
        {
          "internalType": "uint256",
          "name": "snapshotId",
          "type": "uint256"
        }
      ],
      "name": "balanceOfAt",
      "outputs": [
        {
          "internalType": "uint256",
          "name": "",
          "type": "uint256"
        }
      ],
      "stateMutability": "view",
      "type": "function"
    },
    {
      "inputs": [],
      "name": "decimals",
      "outputs": [
        {
          "internalType": "uint8",
          "name": "",
          "type": "uint8"
        }
      ],
      "stateMutability": "view",
      "type": "function"
    },
    {
      "inputs": [
        {
          "internalType": "address",
          "name": "spender",
          "type": "address"
        },
        {
          "internalType": "uint256",
          "name": "subtractedValue",
          "type": "uint256"
        }
      ],
      "name": "decreaseAllowance",
      "outputs": [
        {
          "internalType": "bool",
          "name": "",
          "type": "bool"
        }
      ],
      "stateMutability": "nonpayable",
      "type": "function"
    },
    {
      "inputs": [],
      "name": "getCurrentSnapshotId",
      "outputs": [
        {
          "internalType": "uint256",
          "name": "",
          "type": "uint256"
        }
      ],
      "stateMutability": "view",
      "type": "function"
    },
    {
      "inputs": [],
      "name": "getImplementation",
      "outputs": [
        {
          "internalType": "address",
          "name": "",
          "type": "address"
        }
      ],
      "stateMutability": "view",
      "type": "function"
    },
    {
      "inputs": [
        {
          "internalType": "bytes32",
          "name": "role",
          "type": "bytes32"
        }
      ],
      "name": "getRoleAdmin",
      "outputs": [
        {
          "internalType": "bytes32",
          "name": "",
          "type": "bytes32"
        }
      ],
      "stateMutability": "view",
      "type": "function"
    },
    {
      "inputs": [
        {
          "internalType": "bytes32",
          "name": "role",
          "type": "bytes32"
        },
        {
          "internalType": "address",
          "name": "account",
          "type": "address"
        }
      ],
      "name": "grantRole",
      "outputs": [],
      "stateMutability": "nonpayable",
      "type": "function"
    },
    {
      "inputs": [
        {
          "internalType": "bytes32",
          "name": "role",
          "type": "bytes32"
        },
        {
          "internalType": "address",
          "name": "account",
          "type": "address"
        }
      ],
      "name": "hasRole",
      "outputs": [
        {
          "internalType": "bool",
          "name": "",
          "type": "bool"
        }
      ],
      "stateMutability": "view",
      "type": "function"
    },
    {
      "inputs": [
        {
          "internalType": "address",
          "name": "spender",
          "type": "address"
        },
        {
          "internalType": "uint256",
          "name": "addedValue",
          "type": "uint256"
        }
      ],
      "name": "increaseAllowance",
      "outputs": [
        {
          "internalType": "bool",
          "name": "",
          "type": "bool"
        }
      ],
      "stateMutability": "nonpayable",
      "type": "function"
    },
    {
      "inputs": [
        {
          "internalType": "string",
          "name": "name_",
          "type": "string"
        },
        {
          "internalType": "string",
          "name": "symbol_",
          "type": "string"
        },
        {
          "internalType": "uint8",
          "name": "decimals_",
          "type": "uint8"
        },
        {
          "internalType": "uint256",
          "name": "amount_",
          "type": "uint256"
        }
      ],
      "name": "initialize",
      "outputs": [],
      "stateMutability": "nonpayable",
      "type": "function"
    },
    {
      "inputs": [],
      "name": "name",
      "outputs": [
        {
          "internalType": "string",
          "name": "",
          "type": "string"
        }
      ],
      "stateMutability": "view",
      "type": "function"
    },
    {
      "inputs": [],
      "name": "pause",
      "outputs": [],
      "stateMutability": "nonpayable",
      "type": "function"
    },
    {
      "inputs": [],
      "name": "paused",
      "outputs": [
        {
          "internalType": "bool",
          "name": "",
          "type": "bool"
        }
      ],
      "stateMutability": "view",
      "type": "function"
    },
    {
      "inputs": [
        {
          "internalType": "address",
          "name": "implementationAddress",
          "type": "address"
        }
      ],
      "name": "proposeNewImplementation",
      "outputs": [],
      "stateMutability": "nonpayable",
      "type": "function"
    },
    {
      "inputs": [
        {
          "internalType": "address[]",
          "name": "addresses",
          "type": "address[]"
        }
      ],
      "name": "removeAddressesFromWhitelistFrom",
      "outputs": [],
      "stateMutability": "nonpayable",
      "type": "function"
    },
    {
      "inputs": [
        {
          "internalType": "address[]",
          "name": "addresses",
          "type": "address[]"
        }
      ],
      "name": "removeAddressesFromWhitelistSender",
      "outputs": [],
      "stateMutability": "nonpayable",
      "type": "function"
    },
    {
      "inputs": [
        {
          "internalType": "bytes32",
          "name": "role",
          "type": "bytes32"
        },
        {
          "internalType": "address",
          "name": "account",
          "type": "address"
        }
      ],
      "name": "renounceRole",
      "outputs": [],
      "stateMutability": "nonpayable",
      "type": "function"
    },
    {
      "inputs": [
        {
          "internalType": "bytes32",
          "name": "role",
          "type": "bytes32"
        },
        {
          "internalType": "address",
          "name": "account",
          "type": "address"
        }
      ],
      "name": "revokeRole",
      "outputs": [],
      "stateMutability": "nonpayable",
      "type": "function"
    },
    {
      "inputs": [],
      "name": "snapshot",
      "outputs": [],
      "stateMutability": "nonpayable",
      "type": "function"
    },
    {
      "inputs": [
        {
          "internalType": "bytes4",
          "name": "interfaceId",
          "type": "bytes4"
        }
      ],
      "name": "supportsInterface",
      "outputs": [
        {
          "internalType": "bool",
          "name": "",
          "type": "bool"
        }
      ],
      "stateMutability": "view",
      "type": "function"
    },
    {
      "inputs": [],
      "name": "symbol",
      "outputs": [
        {
          "internalType": "string",
          "name": "",
          "type": "string"
        }
      ],
      "stateMutability": "view",
      "type": "function"
    },
    {
      "inputs": [],
      "name": "totalSupply",
      "outputs": [
        {
          "internalType": "uint256",
          "name": "",
          "type": "uint256"
        }
      ],
      "stateMutability": "view",
      "type": "function"
    },
    {
      "inputs": [
        {
          "internalType": "uint256",
          "name": "snapshotId",
          "type": "uint256"
        }
      ],
      "name": "totalSupplyAt",
      "outputs": [
        {
          "internalType": "uint256",
          "name": "",
          "type": "uint256"
        }
      ],
      "stateMutability": "view",
      "type": "function"
    },
    {
      "inputs": [
        {
          "internalType": "address",
          "name": "recipient",
          "type": "address"
        },
        {
          "internalType": "uint256",
          "name": "amount",
          "type": "uint256"
        }
      ],
      "name": "transfer",
      "outputs": [
        {
          "internalType": "bool",
          "name": "",
          "type": "bool"
        }
      ],
      "stateMutability": "nonpayable",
      "type": "function"
    },
    {
      "inputs": [
        {
          "internalType": "address",
          "name": "sender",
          "type": "address"
        },
        {
          "internalType": "address",
          "name": "recipient",
          "type": "address"
        },
        {
          "internalType": "uint256",
          "name": "amount",
          "type": "uint256"
        }
      ],
      "name": "transferFrom",
      "outputs": [
        {
          "internalType": "bool",
          "name": "",
          "type": "bool"
        }
      ],
      "stateMutability": "nonpayable",
      "type": "function"
    },
    {
      "inputs": [],
      "name": "unpause",
      "outputs": [],
      "stateMutability": "nonpayable",
      "type": "function"
    },
    {
      "inputs": [
        {
          "internalType": "address",
          "name": "newImplementation",
          "type": "address"
        }
      ],
      "name": "upgradeTo",
      "outputs": [],
      "stateMutability": "nonpayable",
      "type": "function"
    },
    {
      "inputs": [
        {
          "internalType": "address",
          "name": "newImplementation",
          "type": "address"
        },
        {
          "internalType": "bytes",
          "name": "data",
          "type": "bytes"
        }
      ],
      "name": "upgradeToAndCall",
      "outputs": [],
      "stateMutability": "payable",
      "type": "function"
    }
  ],
  "bytecode": "0x60a06040523060601b60805234801561001757600080fd5b5060805160601c612bbe61004b60003960008181610a5601528181610a9601528181610c5e0152610c9e0152612bbe6000f3fe6080604052600436106102305760003560e01c8063685ed81a1161012e578063a457c2d7116100ab578063d547741f1161006f578063d547741f1461067f578063d84f91e81461069f578063dd62ed3e146106c1578063f36c8f5c14610707578063f834c5021461072957600080fd5b8063a457c2d7146105d0578063a9059cbb146105f0578063aa74a34a14610610578063aaf10f4214610632578063c233f3b71461065f57600080fd5b806391d14854116100f257806391d148541461055157806395d89b41146105715780639711715a14610586578063981b24d01461059b578063a217fddf146105bb57600080fd5b8063685ed81a146104a45780636e79a1c0146104c457806370a08231146104e4578063731ce8fc1461051a5780638456cb591461053c57600080fd5b806336568abe116101bc57806347757fb61161018057806347757fb6146104175780634ee2cd7e146104375780634f1ef286146104575780635439ad861461046a5780635c975abb1461047f57600080fd5b806336568abe146103805780633659cfe6146103a057806339509351146103c05780633f4ba83a146103e057806343ffa64e146103f557600080fd5b806323b872dd1161020357806323b872dd146102cb578063248a9ca3146102eb578063253279ad1461031b5780632f2ff15d1461033d578063313ce5671461035d57600080fd5b806301ffc9a71461023557806306fdde031461026a578063095ea7b31461028c57806318160ddd146102ac575b600080fd5b34801561024157600080fd5b506102556102503660046126e7565b610749565b60405190151581526020015b60405180910390f35b34801561027657600080fd5b5061027f610780565b6040516102619190612826565b34801561029857600080fd5b506102556102a736600461260c565b610812565b3480156102b857600080fd5b506067545b604051908152602001610261565b3480156102d757600080fd5b506102556102e636600461256e565b610828565b3480156102f757600080fd5b506102bd6103063660046126ab565b600090815260fb602052604090206001015490565b34801561032757600080fd5b5061033b610336366004612711565b6108d9565b005b34801561034957600080fd5b5061033b6103583660046126c4565b6109a2565b34801561036957600080fd5b506101605460405160ff9091168152602001610261565b34801561038c57600080fd5b5061033b61039b3660046126c4565b6109cd565b3480156103ac57600080fd5b5061033b6103bb366004612520565b610a4b565b3480156103cc57600080fd5b506102556103db36600461260c565b610b14565b3480156103ec57600080fd5b5061033b610b50565b34801561040157600080fd5b506102bd600080516020612aa283398151915281565b34801561042357600080fd5b5061033b610432366004612520565b610b71565b34801561044357600080fd5b506102bd61045236600461260c565b610bae565b61033b6104653660046125aa565b610c53565b34801561047657600080fd5b506102bd610d09565b34801561048b57600080fd5b50600080516020612b498339815191525460ff16610255565b3480156104b057600080fd5b5061033b6104bf366004612636565b610d26565b3480156104d057600080fd5b5061033b6104df366004612636565b610d9b565b3480156104f057600080fd5b506102bd6104ff366004612520565b6001600160a01b031660009081526065602052604090205490565b34801561052657600080fd5b506102bd600080516020612b6983398151915281565b34801561054857600080fd5b5061033b610e0a565b34801561055d57600080fd5b5061025561056c3660046126c4565b610e2b565b34801561057d57600080fd5b5061027f610e56565b34801561059257600080fd5b5061033b610e65565b3480156105a757600080fd5b506102bd6105b63660046126ab565b610e6d565b3480156105c757600080fd5b506102bd600081565b3480156105dc57600080fd5b506102556105eb36600461260c565b610ed8565b3480156105fc57600080fd5b5061025561060b36600461260c565b610f71565b34801561061c57600080fd5b506102bd600080516020612a8283398151915281565b34801561063e57600080fd5b50610647610f7e565b6040516001600160a01b039091168152602001610261565b34801561066b57600080fd5b5061033b61067a366004612636565b610f88565b34801561068b57600080fd5b5061033b61069a3660046126c4565b610fe2565b3480156106ab57600080fd5b506102bd600080516020612b0983398151915281565b3480156106cd57600080fd5b506102bd6106dc36600461253b565b6001600160a01b03918216600090815260666020908152604080832093909416825291909152205490565b34801561071357600080fd5b506102bd600080516020612ac283398151915281565b34801561073557600080fd5b5061033b610744366004612636565b611008565b60006001600160e01b03198216637965db0b60e01b148061077a57506301ffc9a760e01b6001600160e01b03198316145b92915050565b60606068805461078f906129ef565b80601f01602080910402602001604051908101604052809291908181526020018280546107bb906129ef565b80156108085780601f106107dd57610100808354040283529160200191610808565b820191906000526020600020905b8154815290600101906020018083116107eb57829003601f168201915b5050505050905090565b600061081f338484611062565b50600192915050565b6000610835848484611186565b6001600160a01b0384166000908152606660209081526040808320338452909152902054828110156108bf5760405162461bcd60e51b815260206004820152602860248201527f45524332303a207472616e7366657220616d6f756e74206578636565647320616044820152676c6c6f77616e636560c01b60648201526084015b60405180910390fd5b6108cc8533858403611062565b60019150505b9392505050565b600054610100900460ff166108f45760005460ff16156108f8565b303b155b61095b5760405162461bcd60e51b815260206004820152602e60248201527f496e697469616c697a61626c653a20636f6e747261637420697320616c72656160448201526d191e481a5b9a5d1a585b1a5e995960921b60648201526084016108b6565b600054610100900460ff1615801561097d576000805461ffff19166101011790555b6109898585858561135f565b801561099b576000805461ff00191690555b5050505050565b600082815260fb60205260409020600101546109be81336113a2565b6109c88383611406565b505050565b6001600160a01b0381163314610a3d5760405162461bcd60e51b815260206004820152602f60248201527f416363657373436f6e74726f6c3a2063616e206f6e6c792072656e6f756e636560448201526e103937b632b9903337b91039b2b63360891b60648201526084016108b6565b610a47828261148c565b5050565b306001600160a01b037f0000000000000000000000000000000000000000000000000000000000000000161415610a945760405162461bcd60e51b81526004016108b690612859565b7f00000000000000000000000000000000000000000000000000000000000000006001600160a01b0316610ac66114f3565b6001600160a01b031614610aec5760405162461bcd60e51b81526004016108b6906128a5565b610af581611521565b60408051600080825260208201909252610b11918391906115a3565b50565b3360008181526066602090815260408083206001600160a01b0387168452909152812054909161081f918590610b4b90869061293c565b611062565b600080516020612b09833981519152610b6981336113a2565b610b116116e7565b600080516020612ac2833981519152610b8a81336113a2565b5061012d80546001600160a01b0319166001600160a01b0392909216919091179055565b604080516001600160a01b0384166020808301919091527ffbf1c7065455eb4486649b8540f24ef2dd4ebedf2aa423f0039d17c2c75dea15828401528251808303840181526060909201909252805191012060009081610c0f82600161293c565b9050600080610c1f868585611794565b9150915081610c46576001600160a01b038716600090815260656020526040902054610c48565b805b979650505050505050565b306001600160a01b037f0000000000000000000000000000000000000000000000000000000000000000161415610c9c5760405162461bcd60e51b81526004016108b690612859565b7f00000000000000000000000000000000000000000000000000000000000000006001600160a01b0316610cce6114f3565b6001600160a01b031614610cf45760405162461bcd60e51b81526004016108b6906128a5565b610cfd82611521565b610a47828260016115a3565b6000610d21600080516020612b298339815191525490565b905090565b600080516020612b09833981519152610d3f81336113a2565b60005b82811015610d9557610d83600080516020612a82833981519152858584818110610d6e57610d6e612a55565b90506020020160208101906103589190612520565b80610d8d81612a24565b915050610d42565b50505050565b600080516020612b09833981519152610db481336113a2565b60005b82811015610d9557610df8600080516020612b69833981519152858584818110610de357610de3612a55565b905060200201602081019061069a9190612520565b80610e0281612a24565b915050610db7565b600080516020612b09833981519152610e2381336113a2565b610b1161187f565b600091825260fb602090815260408084206001600160a01b0393909316845291905290205460ff1690565b60606069805461078f906129ef565b610b11611913565b6000806000610ebd847f286a9db37a0f8ddcbcee127c9f4f56031230f49cb46786f87e166d552e11f67e7ffcaa8bb100d3c5b627eac0369cc1d2778dbeffa2993d08f039fb27795729e9a5611794565b9150915081610ece57606754610ed0565b805b949350505050565b3360009081526066602090815260408083206001600160a01b038616845290915281205482811015610f5a5760405162461bcd60e51b815260206004820152602560248201527f45524332303a2064656372656173656420616c6c6f77616e63652062656c6f77604482015264207a65726f60d81b60648201526084016108b6565b610f673385858403611062565b5060019392505050565b600061081f338484611186565b6000610d216114f3565b600080516020612b09833981519152610fa181336113a2565b60005b82811015610d9557610fd0600080516020612a82833981519152858584818110610de357610de3612a55565b80610fda81612a24565b915050610fa4565b600082815260fb6020526040902060010154610ffe81336113a2565b6109c8838361148c565b600080516020612b0983398151915261102181336113a2565b60005b82811015610d9557611050600080516020612b69833981519152858584818110610d6e57610d6e612a55565b8061105a81612a24565b915050611024565b6001600160a01b0383166110c45760405162461bcd60e51b8152602060048201526024808201527f45524332303a20617070726f76652066726f6d20746865207a65726f206164646044820152637265737360e01b60648201526084016108b6565b6001600160a01b0382166111255760405162461bcd60e51b815260206004820152602260248201527f45524332303a20617070726f766520746f20746865207a65726f206164647265604482015261737360f01b60648201526084016108b6565b6001600160a01b0383811660008181526066602090815260408083209487168084529482529182902085905590518481527f8c5be1e5ebec7d5bd14f71427d1e84f3dd0314c0f7b2291e5b200ac8c7c3b925910160405180910390a3505050565b6001600160a01b0383166111ea5760405162461bcd60e51b815260206004820152602560248201527f45524332303a207472616e736665722066726f6d20746865207a65726f206164604482015264647265737360d81b60648201526084016108b6565b6001600160a01b03821661124c5760405162461bcd60e51b815260206004820152602360248201527f45524332303a207472616e7366657220746f20746865207a65726f206164647260448201526265737360e81b60648201526084016108b6565b611257838383611983565b6001600160a01b038316600090815260656020526040902054818110156112cf5760405162461bcd60e51b815260206004820152602660248201527f45524332303a207472616e7366657220616d6f756e7420657863656564732062604482015265616c616e636560d01b60648201526084016108b6565b6001600160a01b0380851660009081526065602052604080822085850390559185168152908120805484929061130690849061293c565b92505081905550826001600160a01b0316846001600160a01b03167fddf252ad1be2c89b69c2b068fc378daa952ba7f163c4a11628f55a4df523b3ef8460405161135291815260200190565b60405180910390a3610d95565b600054610100900460ff166113865760405162461bcd60e51b81526004016108b6906128f1565b61138e611999565b61139884846119f2565b610d958282611a40565b6113ac8282610e2b565b610a47576113c4816001600160a01b03166014611a81565b6113cf836020611a81565b6040516020016113e09291906127b1565b60408051601f198184030181529082905262461bcd60e51b82526108b691600401612826565b6114108282610e2b565b610a4757600082815260fb602090815260408083206001600160a01b03851684529091529020805460ff191660011790556114483390565b6001600160a01b0316816001600160a01b0316837f2f8788117e7eff1d82e926ec794901d17c78024a50270940304540a733656f0d60405160405180910390a45050565b6114968282610e2b565b15610a4757600082815260fb602090815260408083206001600160a01b0385168085529252808320805460ff1916905551339285917ff6391f5c32d9c69d2a47ea670b442974b53935d1edc7fd64eb21e047a839171b9190a45050565b7f360894a13ba1a3210667c828492db98dca3e2076cc3735a920a3ca505d382bbc546001600160a01b031690565b611539600080516020612ac283398151915233610e2b565b806115575750611557600080516020612aa283398151915233610e2b565b610b115760405162461bcd60e51b815260206004820152601d60248201527f4552524f523a2041646472657373206e6f7420617574686f72697a656400000060448201526064016108b6565b60006115ad6114f3565b90506115b884611c1d565b6000835111806115c55750815b156115d6576115d48484611cc2565b505b7f4910fdfa16fed3260ed0e7147f7cc6da11a60208b5b9406d12a635614ffd9143805460ff1661099b57805460ff191660011781556040516001600160a01b038316602482015261165590869060440160408051601f198184030181529190526020810180516001600160e01b0316631b2ce7f360e11b179052611cc2565b50805460ff191681556116666114f3565b6001600160a01b0316826001600160a01b0316146116de5760405162461bcd60e51b815260206004820152602f60248201527f45524331393637557067726164653a207570677261646520627265616b73206660448201526e75727468657220757067726164657360881b60648201526084016108b6565b61099b85611dad565b600080516020612b498339815191525460ff1661173d5760405162461bcd60e51b815260206004820152601460248201527314185d5cd8589b194e881b9bdd081c185d5cd95960621b60448201526064016108b6565b600080516020612b49833981519152805460ff191690557f5db9ee0a495bf2e6ff9c91a7834c1ba4fdd244a5e8aa4e537bd38aeae4b073aa335b6040516001600160a01b03909116815260200160405180910390a1565b600080600085116117e05760405162461bcd60e51b815260206004820152601660248201527504552433230536e617073686f743a20696420697320360541b60448201526064016108b6565b600080516020612b298339815191525485111561183f5760405162461bcd60e51b815260206004820152601d60248201527f4552433230536e617073686f743a206e6f6e6578697374656e7420696400000060448201526064016108b6565b600061184b8587611ded565b90508454811415611863576000809250925050611877565b600161186f8583611e8c565b549093509150505b935093915050565b600080516020612b498339815191525460ff16156118d25760405162461bcd60e51b815260206004820152601060248201526f14185d5cd8589b194e881c185d5cd95960821b60448201526064016108b6565b600080516020612b49833981519152805460ff191660011790557f62e78cea01bee320cd4e420270b5ea74000d11b0c9f74754ebdbfc544b05a25833611777565b60006001600080516020612b29833981519152805460009061193690849061293c565b9091555050600080516020612b29833981519152546040518181527f8030e83b04d87bef53480e26263266d6ca66863aa8506aca6f2559d18aa1cb679060200160405180910390a1919050565b61198e838383611f0b565b6109c8838383611f21565b600054610100900460ff166119c05760405162461bcd60e51b81526004016108b6906128f1565b6119c8611f69565b6119d0611f69565b6119d8611f69565b6119e0611f69565b6119e8611f69565b6119f0611f90565b565b600054610100900460ff16611a195760405162461bcd60e51b81526004016108b6906128f1565b8151611a2c9060689060208501906123d5565b5080516109c89060699060208401906123d5565b600054610100900460ff16611a675760405162461bcd60e51b81526004016108b6906128f1565b610160805460ff191660ff8416179055610a473382612018565b60606000611a90836002612976565b611a9b90600261293c565b67ffffffffffffffff811115611ab357611ab3612a6b565b6040519080825280601f01601f191660200182016040528015611add576020820181803683370190505b509050600360fc1b81600081518110611af857611af8612a55565b60200101906001600160f81b031916908160001a905350600f60fb1b81600181518110611b2757611b27612a55565b60200101906001600160f81b031916908160001a9053506000611b4b846002612976565b611b5690600161293c565b90505b6001811115611bce576f181899199a1a9b1b9c1cb0b131b232b360811b85600f1660108110611b8a57611b8a612a55565b1a60f81b828281518110611ba057611ba0612a55565b60200101906001600160f81b031916908160001a90535060049490941c93611bc7816129d8565b9050611b59565b5083156108d25760405162461bcd60e51b815260206004820181905260248201527f537472696e67733a20686578206c656e67746820696e73756666696369656e7460448201526064016108b6565b803b611c815760405162461bcd60e51b815260206004820152602d60248201527f455243313936373a206e657720696d706c656d656e746174696f6e206973206e60448201526c1bdd08184818dbdb9d1c9858dd609a1b60648201526084016108b6565b7f360894a13ba1a3210667c828492db98dca3e2076cc3735a920a3ca505d382bbc80546001600160a01b0319166001600160a01b0392909216919091179055565b6060823b611d215760405162461bcd60e51b815260206004820152602660248201527f416464726573733a2064656c65676174652063616c6c20746f206e6f6e2d636f6044820152651b9d1c9858dd60d21b60648201526084016108b6565b600080846001600160a01b031684604051611d3c9190612795565b600060405180830381855af49150503d8060008114611d77576040519150601f19603f3d011682016040523d82523d6000602084013e611d7c565b606091505b5091509150611da48282604051806060016040528060278152602001612ae260279139612103565b95945050505050565b611db681611c1d565b6040516001600160a01b038216907fbc7cd75a20ee27fd9adebab32041f755214dbc6bffa90cc0225b39da2e5c2d3b90600090a250565b8154600090819080611e045760009250505061077a565b80821015611e48576000611e18838361213c565b905084611e258783611e8c565b541115611e3457809150611e42565b611e3f81600161293c565b92505b50611e04565b600082118015611e6b575083611e6886611e63600186612995565b611e8c565b54145b15611e8457611e7b600183612995565b9250505061077a565b50905061077a565b600082548210611ed45760405162461bcd60e51b815260206004820152601360248201527211549493d48e8813dd5d081bd988189bdd5b99606a1b60448201526064016108b6565b8183604051602001611ee891815260200190565b6040516020818303038152906040528051906020012060001c6108d2919061293c565b611f1683838361198e565b6109c8838383612157565b6001600160a01b038316611f4057611f38826121da565b6109c8612264565b6001600160a01b038216611f5757611f38836121da565b611f60836121da565b6109c8826121da565b600054610100900460ff166119f05760405162461bcd60e51b81526004016108b6906128f1565b600054610100900460ff16611fb75760405162461bcd60e51b81526004016108b6906128f1565b611fc26000336122b2565b611fda600080516020612ac2833981519152336122b2565b611ff2600080516020612aa2833981519152336122b2565b6119f0600080516020612aa2833981519152600080516020612ac28339815191526122bc565b6001600160a01b03821661206e5760405162461bcd60e51b815260206004820152601f60248201527f45524332303a206d696e7420746f20746865207a65726f20616464726573730060448201526064016108b6565b61207a60008383611983565b806067600082825461208c919061293c565b90915550506001600160a01b038216600090815260656020526040812080548392906120b990849061293c565b90915550506040518181526001600160a01b038316906000907fddf252ad1be2c89b69c2b068fc378daa952ba7f163c4a11628f55a4df523b3ef9060200160405180910390a35050565b606083156121125750816108d2565b8251156121225782518084602001fd5b8160405162461bcd60e51b81526004016108b69190612826565b600061214b6002848418612954565b6108d29084841661293c565b600080516020612b498339815191525460ff16158061217b575061217b8333612307565b6109c85760405162461bcd60e51b815260206004820152602a60248201527f45524332305061757361626c653a20746f6b656e207472616e736665722077686044820152691a5b19481c185d5cd95960b21b60648201526084016108b6565b604080516001600160a01b0383166020808301919091527ffbf1c7065455eb4486649b8540f24ef2dd4ebedf2aa423f0039d17c2c75dea158284015282518083038401815260609092019092528051910120600061223982600161293c565b90506109c8828261225f866001600160a01b031660009081526065602052604090205490565b61233f565b6119f07f286a9db37a0f8ddcbcee127c9f4f56031230f49cb46786f87e166d552e11f67e7ffcaa8bb100d3c5b627eac0369cc1d2778dbeffa2993d08f039fb27795729e9a561225f60675490565b610a478282611406565b600082815260fb6020526040808220600101805490849055905190918391839186917fbd79b86ffe0ab8e8776151514217cd7cacd52c909f66475c3af44e129f0b00ff9190a4505050565b6000612321600080516020612b6983398151915284610e2b565b806108d257506108d2600080516020612a8283398151915283610e2b565b6000612357600080516020612b298339815191525490565b9050806123638561237d565b1015610d955761237384826123ad565b610d9583836123ad565b8054600090806123905750600092915050565b61239f83611e63600184612995565b549392505050565b50919050565b815460018360006123be838561293c565b909155508290506123cf8483611e8c565b55505050565b8280546123e1906129ef565b90600052602060002090601f0160209004810192826124035760008555612449565b82601f1061241c57805160ff1916838001178555612449565b82800160010185558215612449579182015b8281111561244957825182559160200191906001019061242e565b50612455929150612459565b5090565b5b80821115612455576000815560010161245a565b600067ffffffffffffffff8084111561248957612489612a6b565b604051601f8501601f19908116603f011681019082821181831017156124b1576124b1612a6b565b816040528093508581528686860111156124ca57600080fd5b858560208301376000602087830101525050509392505050565b80356001600160a01b03811681146124fb57600080fd5b919050565b600082601f83011261251157600080fd5b6108d28383356020850161246e565b60006020828403121561253257600080fd5b6108d2826124e4565b6000806040838503121561254e57600080fd5b612557836124e4565b9150612565602084016124e4565b90509250929050565b60008060006060848603121561258357600080fd5b61258c846124e4565b925061259a602085016124e4565b9150604084013590509250925092565b600080604083850312156125bd57600080fd5b6125c6836124e4565b9150602083013567ffffffffffffffff8111156125e257600080fd5b8301601f810185136125f357600080fd5b6126028582356020840161246e565b9150509250929050565b6000806040838503121561261f57600080fd5b612628836124e4565b946020939093013593505050565b6000806020838503121561264957600080fd5b823567ffffffffffffffff8082111561266157600080fd5b818501915085601f83011261267557600080fd5b81358181111561268457600080fd5b8660208260051b850101111561269957600080fd5b60209290920196919550909350505050565b6000602082840312156126bd57600080fd5b5035919050565b600080604083850312156126d757600080fd5b82359150612565602084016124e4565b6000602082840312156126f957600080fd5b81356001600160e01b0319811681146108d257600080fd5b6000806000806080858703121561272757600080fd5b843567ffffffffffffffff8082111561273f57600080fd5b61274b88838901612500565b9550602087013591508082111561276157600080fd5b5061276e87828801612500565b935050604085013560ff8116811461278557600080fd5b9396929550929360600135925050565b600082516127a78184602087016129ac565b9190910192915050565b7f416363657373436f6e74726f6c3a206163636f756e74200000000000000000008152600083516127e98160178501602088016129ac565b7001034b99036b4b9b9b4b733903937b6329607d1b601791840191820152835161281a8160288401602088016129ac565b01602801949350505050565b60208152600082518060208401526128458160408501602087016129ac565b601f01601f19169190910160400192915050565b6020808252602c908201527f46756e6374696f6e206d7573742062652063616c6c6564207468726f7567682060408201526b19195b1959d85d1958d85b1b60a21b606082015260800190565b6020808252602c908201527f46756e6374696f6e206d7573742062652063616c6c6564207468726f7567682060408201526b6163746976652070726f787960a01b606082015260800190565b6020808252602b908201527f496e697469616c697a61626c653a20636f6e7472616374206973206e6f74206960408201526a6e697469616c697a696e6760a81b606082015260800190565b6000821982111561294f5761294f612a3f565b500190565b60008261297157634e487b7160e01b600052601260045260246000fd5b500490565b600081600019048311821515161561299057612990612a3f565b500290565b6000828210156129a7576129a7612a3f565b500390565b60005b838110156129c75781810151838201526020016129af565b83811115610d955750506000910152565b6000816129e7576129e7612a3f565b506000190190565b600181811c90821680612a0357607f821691505b602082108114156123a757634e487b7160e01b600052602260045260246000fd5b6000600019821415612a3857612a38612a3f565b5060010190565b634e487b7160e01b600052601160045260246000fd5b634e487b7160e01b600052603260045260246000fd5b634e487b7160e01b600052604160045260246000fdfee1ac655ab58995133a870d1fd307ddc1d624c8ad919a09e67867a7a1483e439aa76ace73a908083d89af9ff88e5b4f7cadb3591a80631063f68b695fda726db571840dc4906352362b0cdaf79870196c8e42acafade72d5d5a6d59291253ceb1416464726573733a206c6f772d6c6576656c2064656c65676174652063616c6c206661696c6564356a809dfdea9198dd76fb76bf6d403ecf13ea675eb89e1eda2db2c4a4676a260d0a0ed3351c10a57d74a44b40c06e0946288e4e3816ac07bb89db2a755562e7ad6a6591fa308fe948065665239402780db8ed4a8c4e4e16c4d066bcaa05efc2ce108bcc5e0f50fe603649304cbbbd94de794a404db82d884c0afc9ba9328e61a26469706673582212202de9730e338d36c51c70ed34edcab2c40a4c9166b435524701f38ffac98ff85564736f6c63430008060033",
  "linkReferences": {},
  "deployedLinkReferences": {}
}