{
  "_format": "hh-sol-artifact-1",
  "name": "TxFeeTemplate",
  "initializer": "function initialize(string name_, string symbol_, uint8 decimals_, uint256 amount_, uint256 txFee, address txFeeBeneficiary)",
  "sourceName": "contracts/templates/TxFeeTemplate.sol",
  "abi": [
    {
      "anonymous": false,
      "inputs": [
        {
          "indexed": false,
          "internalType": "address",
          "name": "previousAdmin",
          "type": "address"
        },
        {
          "indexed": false,
          "internalType": "address",
          "name": "newAdmin",
          "type": "address"
        }
      ],
      "name": "AdminChanged",
      "type": "event"
    },
    {
      "anonymous": false,
      "inputs": [
        {
          "indexed": true,
          "internalType": "address",
          "name": "owner",
          "type": "address"
        },
        {
          "indexed": true,
          "internalType": "address",
          "name": "spender",
          "type": "address"
        },
        {
          "indexed": false,
          "internalType": "uint256",
          "name": "value",
          "type": "uint256"
        }
      ],
      "name": "Approval",
      "type": "event"
    },
    {
      "anonymous": false,
      "inputs": [
        {
          "indexed": true,
          "internalType": "address",
          "name": "beacon",
          "type": "address"
        }
      ],
      "name": "BeaconUpgraded",
      "type": "event"
    },
    {
      "anonymous": false,
      "inputs": [
        {
          "indexed": true,
          "internalType": "bytes32",
          "name": "role",
          "type": "bytes32"
        },
        {
          "indexed": true,
          "internalType": "bytes32",
          "name": "previousAdminRole",
          "type": "bytes32"
        },
        {
          "indexed": true,
          "internalType": "bytes32",
          "name": "newAdminRole",
          "type": "bytes32"
        }
      ],
      "name": "RoleAdminChanged",
      "type": "event"
    },
    {
      "anonymous": false,
      "inputs": [
        {
          "indexed": true,
          "internalType": "bytes32",
          "name": "role",
          "type": "bytes32"
        },
        {
          "indexed": true,
          "internalType": "address",
          "name": "account",
          "type": "address"
        },
        {
          "indexed": true,
          "internalType": "address",
          "name": "sender",
          "type": "address"
        }
      ],
      "name": "RoleGranted",
      "type": "event"
    },
    {
      "anonymous": false,
      "inputs": [
        {
          "indexed": true,
          "internalType": "bytes32",
          "name": "role",
          "type": "bytes32"
        },
        {
          "indexed": true,
          "internalType": "address",
          "name": "account",
          "type": "address"
        },
        {
          "indexed": true,
          "internalType": "address",
          "name": "sender",
          "type": "address"
        }
      ],
      "name": "RoleRevoked",
      "type": "event"
    },
    {
      "anonymous": false,
      "inputs": [
        {
          "indexed": true,
          "internalType": "address",
          "name": "from",
          "type": "address"
        },
        {
          "indexed": true,
          "internalType": "address",
          "name": "to",
          "type": "address"
        },
        {
          "indexed": false,
          "internalType": "uint256",
          "name": "value",
          "type": "uint256"
        }
      ],
      "name": "Transfer",
      "type": "event"
    },
    {
      "anonymous": false,
      "inputs": [
        {
          "indexed": true,
          "internalType": "address",
          "name": "implementation",
          "type": "address"
        }
      ],
      "name": "Upgraded",
      "type": "event"
    },
    {
      "inputs": [],
      "name": "DEFAULT_ADMIN_ROLE",
      "outputs": [
        {
          "internalType": "bytes32",
          "name": "",
          "type": "bytes32"
        }
      ],
      "stateMutability": "view",
      "type": "function"
    },
    {
      "inputs": [],
      "name": "GOVERNANCE_ROLE",
      "outputs": [
        {
          "internalType": "bytes32",
          "name": "",
          "type": "bytes32"
        }
      ],
      "stateMutability": "view",
      "type": "function"
    },
    {
      "inputs": [],
      "name": "UPGRADE_MANAGER_ROLE",
      "outputs": [
        {
          "internalType": "bytes32",
          "name": "",
          "type": "bytes32"
        }
      ],
      "stateMutability": "view",
      "type": "function"
    },
    {
      "inputs": [
        {
          "internalType": "address",
          "name": "owner",
          "type": "address"
        },
        {
          "internalType": "address",
          "name": "spender",
          "type": "address"
        }
      ],
      "name": "allowance",
      "outputs": [
        {
          "internalType": "uint256",
          "name": "",
          "type": "uint256"
        }
      ],
      "stateMutability": "view",
      "type": "function"
    },
    {
      "inputs": [
        {
          "internalType": "address",
          "name": "spender",
          "type": "address"
        },
        {
          "internalType": "uint256",
          "name": "amount",
          "type": "uint256"
        }
      ],
      "name": "approve",
      "outputs": [
        {
          "internalType": "bool",
          "name": "",
          "type": "bool"
        }
      ],
      "stateMutability": "nonpayable",
      "type": "function"
    },
    {
      "inputs": [
        {
          "internalType": "address",
          "name": "account",
          "type": "address"
        }
      ],
      "name": "balanceOf",
      "outputs": [
        {
          "internalType": "uint256",
          "name": "",
          "type": "uint256"
        }
      ],
      "stateMutability": "view",
      "type": "function"
    },
    {
      "inputs": [
        {
          "internalType": "uint256",
          "name": "newTxFee",
          "type": "uint256"
        },
        {
          "internalType": "address",
          "name": "newTxBeneficiary",
          "type": "address"
        }
      ],
      "name": "changeTxFeeProperties",
      "outputs": [],
      "stateMutability": "nonpayable",
      "type": "function"
    },
    {
      "inputs": [],
      "name": "decimals",
      "outputs": [
        {
          "internalType": "uint8",
          "name": "",
          "type": "uint8"
        }
      ],
      "stateMutability": "view",
      "type": "function"
    },
    {
      "inputs": [
        {
          "internalType": "address",
          "name": "spender",
          "type": "address"
        },
        {
          "internalType": "uint256",
          "name": "subtractedValue",
          "type": "uint256"
        }
      ],
      "name": "decreaseAllowance",
      "outputs": [
        {
          "internalType": "bool",
          "name": "",
          "type": "bool"
        }
      ],
      "stateMutability": "nonpayable",
      "type": "function"
    },
    {
      "inputs": [],
      "name": "getImplementation",
      "outputs": [
        {
          "internalType": "address",
          "name": "",
          "type": "address"
        }
      ],
      "stateMutability": "view",
      "type": "function"
    },
    {
      "inputs": [
        {
          "internalType": "bytes32",
          "name": "role",
          "type": "bytes32"
        }
      ],
      "name": "getRoleAdmin",
      "outputs": [
        {
          "internalType": "bytes32",
          "name": "",
          "type": "bytes32"
        }
      ],
      "stateMutability": "view",
      "type": "function"
    },
    {
      "inputs": [
        {
          "internalType": "bytes32",
          "name": "role",
          "type": "bytes32"
        },
        {
          "internalType": "address",
          "name": "account",
          "type": "address"
        }
      ],
      "name": "grantRole",
      "outputs": [],
      "stateMutability": "nonpayable",
      "type": "function"
    },
    {
      "inputs": [
        {
          "internalType": "bytes32",
          "name": "role",
          "type": "bytes32"
        },
        {
          "internalType": "address",
          "name": "account",
          "type": "address"
        }
      ],
      "name": "hasRole",
      "outputs": [
        {
          "internalType": "bool",
          "name": "",
          "type": "bool"
        }
      ],
      "stateMutability": "view",
      "type": "function"
    },
    {
      "inputs": [
        {
          "internalType": "address",
          "name": "spender",
          "type": "address"
        },
        {
          "internalType": "uint256",
          "name": "addedValue",
          "type": "uint256"
        }
      ],
      "name": "increaseAllowance",
      "outputs": [
        {
          "internalType": "bool",
          "name": "",
          "type": "bool"
        }
      ],
      "stateMutability": "nonpayable",
      "type": "function"
    },
    {
      "inputs": [
        {
          "internalType": "string",
          "name": "name_",
          "type": "string"
        },
        {
          "internalType": "string",
          "name": "symbol_",
          "type": "string"
        },
        {
          "internalType": "uint8",
          "name": "decimals_",
          "type": "uint8"
        },
        {
          "internalType": "uint256",
          "name": "amount_",
          "type": "uint256"
        },
        {
          "internalType": "uint256",
          "name": "txFee",
          "type": "uint256"
        },
        {
          "internalType": "address",
          "name": "txFeeBeneficiary",
          "type": "address"
        }
      ],
      "name": "initialize",
      "outputs": [],
      "stateMutability": "nonpayable",
      "type": "function"
    },
    {
      "inputs": [],
      "name": "name",
      "outputs": [
        {
          "internalType": "string",
          "name": "",
          "type": "string"
        }
      ],
      "stateMutability": "view",
      "type": "function"
    },
    {
      "inputs": [
        {
          "internalType": "address",
          "name": "implementationAddress",
          "type": "address"
        }
      ],
      "name": "proposeNewImplementation",
      "outputs": [],
      "stateMutability": "nonpayable",
      "type": "function"
    },
    {
      "inputs": [
        {
          "internalType": "bytes32",
          "name": "role",
          "type": "bytes32"
        },
        {
          "internalType": "address",
          "name": "account",
          "type": "address"
        }
      ],
      "name": "renounceRole",
      "outputs": [],
      "stateMutability": "nonpayable",
      "type": "function"
    },
    {
      "inputs": [
        {
          "internalType": "bytes32",
          "name": "role",
          "type": "bytes32"
        },
        {
          "internalType": "address",
          "name": "account",
          "type": "address"
        }
      ],
      "name": "revokeRole",
      "outputs": [],
      "stateMutability": "nonpayable",
      "type": "function"
    },
    {
      "inputs": [
        {
          "internalType": "bytes4",
          "name": "interfaceId",
          "type": "bytes4"
        }
      ],
      "name": "supportsInterface",
      "outputs": [
        {
          "internalType": "bool",
          "name": "",
          "type": "bool"
        }
      ],
      "stateMutability": "view",
      "type": "function"
    },
    {
      "inputs": [],
      "name": "symbol",
      "outputs": [
        {
          "internalType": "string",
          "name": "",
          "type": "string"
        }
      ],
      "stateMutability": "view",
      "type": "function"
    },
    {
      "inputs": [],
      "name": "totalSupply",
      "outputs": [
        {
          "internalType": "uint256",
          "name": "",
          "type": "uint256"
        }
      ],
      "stateMutability": "view",
      "type": "function"
    },
    {
      "inputs": [
        {
          "internalType": "address",
          "name": "recipient",
          "type": "address"
        },
        {
          "internalType": "uint256",
          "name": "amount",
          "type": "uint256"
        }
      ],
      "name": "transfer",
      "outputs": [
        {
          "internalType": "bool",
          "name": "",
          "type": "bool"
        }
      ],
      "stateMutability": "nonpayable",
      "type": "function"
    },
    {
      "inputs": [
        {
          "internalType": "address",
          "name": "sender",
          "type": "address"
        },
        {
          "internalType": "address",
          "name": "recipient",
          "type": "address"
        },
        {
          "internalType": "uint256",
          "name": "amount",
          "type": "uint256"
        }
      ],
      "name": "transferFrom",
      "outputs": [
        {
          "internalType": "bool",
          "name": "",
          "type": "bool"
        }
      ],
      "stateMutability": "nonpayable",
      "type": "function"
    },
    {
      "inputs": [
        {
          "internalType": "address",
          "name": "newImplementation",
          "type": "address"
        }
      ],
      "name": "upgradeTo",
      "outputs": [],
      "stateMutability": "nonpayable",
      "type": "function"
    },
    {
      "inputs": [
        {
          "internalType": "address",
          "name": "newImplementation",
          "type": "address"
        },
        {
          "internalType": "bytes",
          "name": "data",
          "type": "bytes"
        }
      ],
      "name": "upgradeToAndCall",
      "outputs": [],
      "stateMutability": "payable",
      "type": "function"
    }
  ],
  "bytecode": "0x60a06040523060601b60805234801561001757600080fd5b5060805160601c61212661004b60003960008181610834015281816108740152818161097601526109b601526121266000f3fe6080604052600436106101815760003560e01c806347757fb6116100d1578063a217fddf1161008a578063aaf10f4211610064578063aaf10f4214610466578063d547741f14610493578063dd62ed3e146104b3578063f36c8f5c146104f957600080fd5b8063a217fddf14610411578063a457c2d714610426578063a9059cbb1461044657600080fd5b806347757fb6146103535780634f1ef286146103735780635120561a1461038657806370a08231146103a657806391d14854146103dc57806395d89b41146103fc57600080fd5b80632cd77a5a1161013e57806336568abe1161011857806336568abe146102d15780633659cfe6146102f1578063395093511461031157806343ffa64e1461033157600080fd5b80632cd77a5a1461026c5780632f2ff15d1461028e578063313ce567146102ae57600080fd5b806301ffc9a71461018657806306fdde03146101bb578063095ea7b3146101dd57806318160ddd146101fd57806323b872dd1461021c578063248a9ca31461023c575b600080fd5b34801561019257600080fd5b506101a66101a1366004611ce0565b61051b565b60405190151581526020015b60405180910390f35b3480156101c757600080fd5b506101d0610552565b6040516101b29190611e3a565b3480156101e957600080fd5b506101a66101f8366004611c7a565b6105e4565b34801561020957600080fd5b506067545b6040519081526020016101b2565b34801561022857600080fd5b506101a6610237366004611bdc565b6105fa565b34801561024857600080fd5b5061020e610257366004611ca4565b600090815260fb602052604090206001015490565b34801561027857600080fd5b5061028c610287366004611d0a565b6106ab565b005b34801561029a57600080fd5b5061028c6102a9366004611cbd565b610780565b3480156102ba57600080fd5b506101605460405160ff90911681526020016101b2565b3480156102dd57600080fd5b5061028c6102ec366004611cbd565b6107ab565b3480156102fd57600080fd5b5061028c61030c366004611b8e565b610829565b34801561031d57600080fd5b506101a661032c366004611c7a565b6108f2565b34801561033d57600080fd5b5061020e60008051602061206a83398151915281565b34801561035f57600080fd5b5061028c61036e366004611b8e565b61092e565b61028c610381366004611c18565b61096b565b34801561039257600080fd5b5061028c6103a1366004611cbd565b610a21565b3480156103b257600080fd5b5061020e6103c1366004611b8e565b6001600160a01b031660009081526065602052604090205490565b3480156103e857600080fd5b506101a66103f7366004611cbd565b610a96565b34801561040857600080fd5b506101d0610ac1565b34801561041d57600080fd5b5061020e600081565b34801561043257600080fd5b506101a6610441366004611c7a565b610ad0565b34801561045257600080fd5b506101a6610461366004611c7a565b610b69565b34801561047257600080fd5b5061047b610b76565b6040516001600160a01b0390911681526020016101b2565b34801561049f57600080fd5b5061028c6104ae366004611cbd565b610b85565b3480156104bf57600080fd5b5061020e6104ce366004611ba9565b6001600160a01b03918216600090815260666020908152604080832093909416825291909152205490565b34801561050557600080fd5b5061020e60008051602061208a83398151915281565b60006001600160e01b03198216637965db0b60e01b148061054c57506301ffc9a760e01b6001600160e01b03198316145b92915050565b60606068805461056190611fec565b80601f016020809104026020016040519081016040528092919081815260200182805461058d90611fec565b80156105da5780601f106105af576101008083540402835291602001916105da565b820191906000526020600020905b8154815290600101906020018083116105bd57829003601f168201915b5050505050905090565b60006105f1338484610bab565b50600192915050565b6000610607848484610ccf565b6001600160a01b0384166000908152606660209081526040808320338452909152902054828110156106915760405162461bcd60e51b815260206004820152602860248201527f45524332303a207472616e7366657220616d6f756e74206578636565647320616044820152676c6c6f77616e636560c01b60648201526084015b60405180910390fd5b61069e8533858403610bab565b60019150505b9392505050565b600054610100900460ff166106c65760005460ff16156106ca565b303b155b61072d5760405162461bcd60e51b815260206004820152602e60248201527f496e697469616c697a61626c653a20636f6e747261637420697320616c72656160448201526d191e481a5b9a5d1a585b1a5e995960921b6064820152608401610688565b600054610100900460ff1615801561074f576000805461ffff19166101011790555b61075b87878787610eaa565b6107658383610eed565b8015610777576000805461ff00191690555b50505050505050565b600082815260fb602052604090206001015461079c8133610f7c565b6107a68383610fe0565b505050565b6001600160a01b038116331461081b5760405162461bcd60e51b815260206004820152602f60248201527f416363657373436f6e74726f6c3a2063616e206f6e6c792072656e6f756e636560448201526e103937b632b9903337b91039b2b63360891b6064820152608401610688565b6108258282611066565b5050565b306001600160a01b037f00000000000000000000000000000000000000000000000000000000000000001614156108725760405162461bcd60e51b815260040161068890611e6d565b7f00000000000000000000000000000000000000000000000000000000000000006001600160a01b03166108a46110cd565b6001600160a01b0316146108ca5760405162461bcd60e51b815260040161068890611eb9565b6108d3816110fb565b604080516000808252602082019092526108ef9183919061117d565b50565b3360008181526066602090815260408083206001600160a01b038716845290915281205490916105f1918590610929908690611f50565b610bab565b60008051602061208a8339815191526109478133610f7c565b5061012d80546001600160a01b0319166001600160a01b0392909216919091179055565b306001600160a01b037f00000000000000000000000000000000000000000000000000000000000000001614156109b45760405162461bcd60e51b815260040161068890611e6d565b7f00000000000000000000000000000000000000000000000000000000000000006001600160a01b03166109e66110cd565b6001600160a01b031614610a0c5760405162461bcd60e51b815260040161068890611eb9565b610a15826110fb565b6108258282600161117d565b6000610a2d8133610f7c565b6001600160a01b038216610a4057600080fd5b826000805160206120aa83398151915255817fe38b16c806f019542b2d4bf356bb4ba2ea4b7eb450b8fbff2584f6084c4978f180546001600160a01b0319166001600160a01b0392909216919091179055505050565b600091825260fb602090815260408084206001600160a01b0393909316845291905290205460ff1690565b60606069805461056190611fec565b3360009081526066602090815260408083206001600160a01b038616845290915281205482811015610b525760405162461bcd60e51b815260206004820152602560248201527f45524332303a2064656372656173656420616c6c6f77616e63652062656c6f77604482015264207a65726f60d81b6064820152608401610688565b610b5f3385858403610bab565b5060019392505050565b60006105f1338484610ccf565b6000610b806110cd565b905090565b600082815260fb6020526040902060010154610ba18133610f7c565b6107a68383611066565b6001600160a01b038316610c0d5760405162461bcd60e51b8152602060048201526024808201527f45524332303a20617070726f76652066726f6d20746865207a65726f206164646044820152637265737360e01b6064820152608401610688565b6001600160a01b038216610c6e5760405162461bcd60e51b815260206004820152602260248201527f45524332303a20617070726f766520746f20746865207a65726f206164647265604482015261737360f01b6064820152608401610688565b6001600160a01b0383811660008181526066602090815260408083209487168084529482529182902085905590518481527f8c5be1e5ebec7d5bd14f71427d1e84f3dd0314c0f7b2291e5b200ac8c7c3b925910160405180910390a3505050565b6001600160a01b038316610d335760405162461bcd60e51b815260206004820152602560248201527f45524332303a207472616e736665722066726f6d20746865207a65726f206164604482015264647265737360d81b6064820152608401610688565b6001600160a01b038216610d955760405162461bcd60e51b815260206004820152602360248201527f45524332303a207472616e7366657220746f20746865207a65726f206164647260448201526265737360e81b6064820152608401610688565b610da08383836112c8565b6001600160a01b03831660009081526065602052604090205481811015610e185760405162461bcd60e51b815260206004820152602660248201527f45524332303a207472616e7366657220616d6f756e7420657863656564732062604482015265616c616e636560d01b6064820152608401610688565b6001600160a01b03808516600090815260656020526040808220858503905591851681529081208054849290610e4f908490611f50565b92505081905550826001600160a01b0316846001600160a01b03167fddf252ad1be2c89b69c2b068fc378daa952ba7f163c4a11628f55a4df523b3ef84604051610e9b91815260200190565b60405180910390a35b50505050565b600054610100900460ff16610ed15760405162461bcd60e51b815260040161068890611f05565b610ed96112d3565b610ee3848461132c565b610ea4828261137a565b600054610100900460ff16610f145760405162461bcd60e51b815260040161068890611f05565b6001600160a01b038116610f2757600080fd5b816000805160206120aa83398151915255807fe38b16c806f019542b2d4bf356bb4ba2ea4b7eb450b8fbff2584f6084c4978f180546001600160a01b0319166001600160a01b03929092169190911790555050565b610f868282610a96565b61082557610f9e816001600160a01b031660146113bb565b610fa98360206113bb565b604051602001610fba929190611dc5565b60408051601f198184030181529082905262461bcd60e51b825261068891600401611e3a565b610fea8282610a96565b61082557600082815260fb602090815260408083206001600160a01b03851684529091529020805460ff191660011790556110223390565b6001600160a01b0316816001600160a01b0316837f2f8788117e7eff1d82e926ec794901d17c78024a50270940304540a733656f0d60405160405180910390a45050565b6110708282610a96565b1561082557600082815260fb602090815260408083206001600160a01b0385168085529252808320805460ff1916905551339285917ff6391f5c32d9c69d2a47ea670b442974b53935d1edc7fd64eb21e047a839171b9190a45050565b7f360894a13ba1a3210667c828492db98dca3e2076cc3735a920a3ca505d382bbc546001600160a01b031690565b61111360008051602061208a83398151915233610a96565b80611131575061113160008051602061206a83398151915233610a96565b6108ef5760405162461bcd60e51b815260206004820152601d60248201527f4552524f523a2041646472657373206e6f7420617574686f72697a65640000006044820152606401610688565b60006111876110cd565b905061119284611557565b60008351118061119f5750815b156111b0576111ae84846115fc565b505b7f4910fdfa16fed3260ed0e7147f7cc6da11a60208b5b9406d12a635614ffd9143805460ff166112c157805460ff191660011781556040516001600160a01b038316602482015261122f90869060440160408051601f198184030181529190526020810180516001600160e01b0316631b2ce7f360e11b1790526115fc565b50805460ff191681556112406110cd565b6001600160a01b0316826001600160a01b0316146112b85760405162461bcd60e51b815260206004820152602f60248201527f45524331393637557067726164653a207570677261646520627265616b73206660448201526e75727468657220757067726164657360881b6064820152608401610688565b6112c1856116e7565b5050505050565b6107a6838383611727565b600054610100900460ff166112fa5760405162461bcd60e51b815260040161068890611f05565b611302611732565b61130a611732565b611312611732565b61131a611732565b611322611732565b61132a611759565b565b600054610100900460ff166113535760405162461bcd60e51b815260040161068890611f05565b8151611366906068906020850190611a43565b5080516107a6906069906020840190611a43565b600054610100900460ff166113a15760405162461bcd60e51b815260040161068890611f05565b610160805460ff191660ff841617905561082533826117e1565b606060006113ca836002611f8a565b6113d5906002611f50565b67ffffffffffffffff8111156113ed576113ed612053565b6040519080825280601f01601f191660200182016040528015611417576020820181803683370190505b509050600360fc1b816000815181106114325761143261203d565b60200101906001600160f81b031916908160001a905350600f60fb1b816001815181106114615761146161203d565b60200101906001600160f81b031916908160001a9053506000611485846002611f8a565b611490906001611f50565b90505b6001811115611508576f181899199a1a9b1b9c1cb0b131b232b360811b85600f16601081106114c4576114c461203d565b1a60f81b8282815181106114da576114da61203d565b60200101906001600160f81b031916908160001a90535060049490941c9361150181611fd5565b9050611493565b5083156106a45760405162461bcd60e51b815260206004820181905260248201527f537472696e67733a20686578206c656e67746820696e73756666696369656e746044820152606401610688565b803b6115bb5760405162461bcd60e51b815260206004820152602d60248201527f455243313936373a206e657720696d706c656d656e746174696f6e206973206e60448201526c1bdd08184818dbdb9d1c9858dd609a1b6064820152608401610688565b7f360894a13ba1a3210667c828492db98dca3e2076cc3735a920a3ca505d382bbc80546001600160a01b0319166001600160a01b0392909216919091179055565b6060823b61165b5760405162461bcd60e51b815260206004820152602660248201527f416464726573733a2064656c65676174652063616c6c20746f206e6f6e2d636f6044820152651b9d1c9858dd60d21b6064820152608401610688565b600080846001600160a01b0316846040516116769190611da9565b600060405180830381855af49150503d80600081146116b1576040519150601f19603f3d011682016040523d82523d6000602084013e6116b6565b606091505b50915091506116de82826040518060600160405280602781526020016120ca602791396118cc565b95945050505050565b6116f081611557565b6040516001600160a01b038216907fbc7cd75a20ee27fd9adebab32041f755214dbc6bffa90cc0225b39da2e5c2d3b90600090a250565b6107a6838383611905565b600054610100900460ff1661132a5760405162461bcd60e51b815260040161068890611f05565b600054610100900460ff166117805760405162461bcd60e51b815260040161068890611f05565b61178b6000336119ee565b6117a360008051602061208a833981519152336119ee565b6117bb60008051602061206a833981519152336119ee565b61132a60008051602061206a83398151915260008051602061208a8339815191526119f8565b6001600160a01b0382166118375760405162461bcd60e51b815260206004820152601f60248201527f45524332303a206d696e7420746f20746865207a65726f2061646472657373006044820152606401610688565b611843600083836112c8565b80606760008282546118559190611f50565b90915550506001600160a01b03821660009081526065602052604081208054839290611882908490611f50565b90915550506040518181526001600160a01b038316906000907fddf252ad1be2c89b69c2b068fc378daa952ba7f163c4a11628f55a4df523b3ef9060200160405180910390a35050565b606083156118db5750816106a4565b8251156118eb5782518084602001fd5b8160405162461bcd60e51b81526004016106889190611e3a565b6000805160206120aa833981519152547fe38b16c806f019542b2d4bf356bb4ba2ea4b7eb450b8fbff2584f6084c4978f1546001600160a01b031681158061195e5750836001600160a01b0316816001600160a01b0316145b8061197a5750846001600160a01b0316816001600160a01b0316145b8061198c57506001600160a01b038516155b8061199e57506001600160a01b038416155b156119aa575050505050565b6000670de0b6b3a76400006000805160206120aa833981519152546119cf9086611f8a565b6119d99190611f68565b90506119e6868383610ccf565b505050505050565b6108258282610fe0565b600082815260fb6020526040808220600101805490849055905190918391839186917fbd79b86ffe0ab8e8776151514217cd7cacd52c909f66475c3af44e129f0b00ff9190a4505050565b828054611a4f90611fec565b90600052602060002090601f016020900481019282611a715760008555611ab7565b82601f10611a8a57805160ff1916838001178555611ab7565b82800160010185558215611ab7579182015b82811115611ab7578251825591602001919060010190611a9c565b50611ac3929150611ac7565b5090565b5b80821115611ac35760008155600101611ac8565b600067ffffffffffffffff80841115611af757611af7612053565b604051601f8501601f19908116603f01168101908282118183101715611b1f57611b1f612053565b81604052809350858152868686011115611b3857600080fd5b858560208301376000602087830101525050509392505050565b80356001600160a01b0381168114611b6957600080fd5b919050565b600082601f830112611b7f57600080fd5b6106a483833560208501611adc565b600060208284031215611ba057600080fd5b6106a482611b52565b60008060408385031215611bbc57600080fd5b611bc583611b52565b9150611bd360208401611b52565b90509250929050565b600080600060608486031215611bf157600080fd5b611bfa84611b52565b9250611c0860208501611b52565b9150604084013590509250925092565b60008060408385031215611c2b57600080fd5b611c3483611b52565b9150602083013567ffffffffffffffff811115611c5057600080fd5b8301601f81018513611c6157600080fd5b611c7085823560208401611adc565b9150509250929050565b60008060408385031215611c8d57600080fd5b611c9683611b52565b946020939093013593505050565b600060208284031215611cb657600080fd5b5035919050565b60008060408385031215611cd057600080fd5b82359150611bd360208401611b52565b600060208284031215611cf257600080fd5b81356001600160e01b0319811681146106a457600080fd5b60008060008060008060c08789031215611d2357600080fd5b863567ffffffffffffffff80821115611d3b57600080fd5b611d478a838b01611b6e565b97506020890135915080821115611d5d57600080fd5b50611d6a89828a01611b6e565b955050604087013560ff81168114611d8157600080fd5b93506060870135925060808701359150611d9d60a08801611b52565b90509295509295509295565b60008251611dbb818460208701611fa9565b9190910192915050565b7f416363657373436f6e74726f6c3a206163636f756e7420000000000000000000815260008351611dfd816017850160208801611fa9565b7001034b99036b4b9b9b4b733903937b6329607d1b6017918401918201528351611e2e816028840160208801611fa9565b01602801949350505050565b6020815260008251806020840152611e59816040850160208701611fa9565b601f01601f19169190910160400192915050565b6020808252602c908201527f46756e6374696f6e206d7573742062652063616c6c6564207468726f7567682060408201526b19195b1959d85d1958d85b1b60a21b606082015260800190565b6020808252602c908201527f46756e6374696f6e206d7573742062652063616c6c6564207468726f7567682060408201526b6163746976652070726f787960a01b606082015260800190565b6020808252602b908201527f496e697469616c697a61626c653a20636f6e7472616374206973206e6f74206960408201526a6e697469616c697a696e6760a81b606082015260800190565b60008219821115611f6357611f63612027565b500190565b600082611f8557634e487b7160e01b600052601260045260246000fd5b500490565b6000816000190483118215151615611fa457611fa4612027565b500290565b60005b83811015611fc4578181015183820152602001611fac565b83811115610ea45750506000910152565b600081611fe457611fe4612027565b506000190190565b600181811c9082168061200057607f821691505b6020821081141561202157634e487b7160e01b600052602260045260246000fd5b50919050565b634e487b7160e01b600052601160045260246000fd5b634e487b7160e01b600052603260045260246000fd5b634e487b7160e01b600052604160045260246000fdfea76ace73a908083d89af9ff88e5b4f7cadb3591a80631063f68b695fda726db571840dc4906352362b0cdaf79870196c8e42acafade72d5d5a6d59291253ceb1253122b26cc2118faf5fcfc7761bd75fcfb5508f1f48d1a40db694aba32af5d0416464726573733a206c6f772d6c6576656c2064656c65676174652063616c6c206661696c6564a2646970667358221220f4bd17c424c77d824719807aa48f18d4e6f01c4f3f615f834d4902871753c2ab64736f6c63430008060033",
  "linkReferences": {},
  "deployedLinkReferences": {}
}