{
  "_format": "hh-sol-artifact-1",
  "name": "TxFeeWhiteListTemplate",
  "initializer": "function initialize(string name_, string symbol_, uint8 decimals_, uint256 amount_, uint256 txFee, address txFeeBeneficiary)",
  "sourceName": "contracts/templates/TxFeeWhiteListTemplate.sol",
  "abi": [
    {
      "anonymous": false,
      "inputs": [
        {
          "indexed": false,
          "internalType": "address",
          "name": "previousAdmin",
          "type": "address"
        },
        {
          "indexed": false,
          "internalType": "address",
          "name": "newAdmin",
          "type": "address"
        }
      ],
      "name": "AdminChanged",
      "type": "event"
    },
    {
      "anonymous": false,
      "inputs": [
        {
          "indexed": true,
          "internalType": "address",
          "name": "owner",
          "type": "address"
        },
        {
          "indexed": true,
          "internalType": "address",
          "name": "spender",
          "type": "address"
        },
        {
          "indexed": false,
          "internalType": "uint256",
          "name": "value",
          "type": "uint256"
        }
      ],
      "name": "Approval",
      "type": "event"
    },
    {
      "anonymous": false,
      "inputs": [
        {
          "indexed": true,
          "internalType": "address",
          "name": "beacon",
          "type": "address"
        }
      ],
      "name": "BeaconUpgraded",
      "type": "event"
    },
    {
      "anonymous": false,
      "inputs": [
        {
          "indexed": false,
          "internalType": "address",
          "name": "account",
          "type": "address"
        }
      ],
      "name": "Paused",
      "type": "event"
    },
    {
      "anonymous": false,
      "inputs": [
        {
          "indexed": true,
          "internalType": "bytes32",
          "name": "role",
          "type": "bytes32"
        },
        {
          "indexed": true,
          "internalType": "bytes32",
          "name": "previousAdminRole",
          "type": "bytes32"
        },
        {
          "indexed": true,
          "internalType": "bytes32",
          "name": "newAdminRole",
          "type": "bytes32"
        }
      ],
      "name": "RoleAdminChanged",
      "type": "event"
    },
    {
      "anonymous": false,
      "inputs": [
        {
          "indexed": true,
          "internalType": "bytes32",
          "name": "role",
          "type": "bytes32"
        },
        {
          "indexed": true,
          "internalType": "address",
          "name": "account",
          "type": "address"
        },
        {
          "indexed": true,
          "internalType": "address",
          "name": "sender",
          "type": "address"
        }
      ],
      "name": "RoleGranted",
      "type": "event"
    },
    {
      "anonymous": false,
      "inputs": [
        {
          "indexed": true,
          "internalType": "bytes32",
          "name": "role",
          "type": "bytes32"
        },
        {
          "indexed": true,
          "internalType": "address",
          "name": "account",
          "type": "address"
        },
        {
          "indexed": true,
          "internalType": "address",
          "name": "sender",
          "type": "address"
        }
      ],
      "name": "RoleRevoked",
      "type": "event"
    },
    {
      "anonymous": false,
      "inputs": [
        {
          "indexed": true,
          "internalType": "address",
          "name": "from",
          "type": "address"
        },
        {
          "indexed": true,
          "internalType": "address",
          "name": "to",
          "type": "address"
        },
        {
          "indexed": false,
          "internalType": "uint256",
          "name": "value",
          "type": "uint256"
        }
      ],
      "name": "Transfer",
      "type": "event"
    },
    {
      "anonymous": false,
      "inputs": [
        {
          "indexed": false,
          "internalType": "address",
          "name": "account",
          "type": "address"
        }
      ],
      "name": "Unpaused",
      "type": "event"
    },
    {
      "anonymous": false,
      "inputs": [
        {
          "indexed": true,
          "internalType": "address",
          "name": "implementation",
          "type": "address"
        }
      ],
      "name": "Upgraded",
      "type": "event"
    },
    {
      "inputs": [],
      "name": "DEFAULT_ADMIN_ROLE",
      "outputs": [
        {
          "internalType": "bytes32",
          "name": "",
          "type": "bytes32"
        }
      ],
      "stateMutability": "view",
      "type": "function"
    },
    {
      "inputs": [],
      "name": "GOVERNANCE_ROLE",
      "outputs": [
        {
          "internalType": "bytes32",
          "name": "",
          "type": "bytes32"
        }
      ],
      "stateMutability": "view",
      "type": "function"
    },
    {
      "inputs": [],
      "name": "PAUSE_MANAGER_ROLE",
      "outputs": [
        {
          "internalType": "bytes32",
          "name": "",
          "type": "bytes32"
        }
      ],
      "stateMutability": "view",
      "type": "function"
    },
    {
      "inputs": [],
      "name": "UPGRADE_MANAGER_ROLE",
      "outputs": [
        {
          "internalType": "bytes32",
          "name": "",
          "type": "bytes32"
        }
      ],
      "stateMutability": "view",
      "type": "function"
    },
    {
      "inputs": [],
      "name": "WHITELISTED_FROM_ROLE",
      "outputs": [
        {
          "internalType": "bytes32",
          "name": "",
          "type": "bytes32"
        }
      ],
      "stateMutability": "view",
      "type": "function"
    },
    {
      "inputs": [],
      "name": "WHITELISTED_SENDER_ROLE",
      "outputs": [
        {
          "internalType": "bytes32",
          "name": "",
          "type": "bytes32"
        }
      ],
      "stateMutability": "view",
      "type": "function"
    },
    {
      "inputs": [
        {
          "internalType": "address[]",
          "name": "addresses",
          "type": "address[]"
        }
      ],
      "name": "addAddressesToWhitelistFrom",
      "outputs": [],
      "stateMutability": "nonpayable",
      "type": "function"
    },
    {
      "inputs": [
        {
          "internalType": "address[]",
          "name": "addresses",
          "type": "address[]"
        }
      ],
      "name": "addAddressesToWhitelistSender",
      "outputs": [],
      "stateMutability": "nonpayable",
      "type": "function"
    },
    {
      "inputs": [
        {
          "internalType": "address",
          "name": "owner",
          "type": "address"
        },
        {
          "internalType": "address",
          "name": "spender",
          "type": "address"
        }
      ],
      "name": "allowance",
      "outputs": [
        {
          "internalType": "uint256",
          "name": "",
          "type": "uint256"
        }
      ],
      "stateMutability": "view",
      "type": "function"
    },
    {
      "inputs": [
        {
          "internalType": "address",
          "name": "spender",
          "type": "address"
        },
        {
          "internalType": "uint256",
          "name": "amount",
          "type": "uint256"
        }
      ],
      "name": "approve",
      "outputs": [
        {
          "internalType": "bool",
          "name": "",
          "type": "bool"
        }
      ],
      "stateMutability": "nonpayable",
      "type": "function"
    },
    {
      "inputs": [
        {
          "internalType": "address",
          "name": "account",
          "type": "address"
        }
      ],
      "name": "balanceOf",
      "outputs": [
        {
          "internalType": "uint256",
          "name": "",
          "type": "uint256"
        }
      ],
      "stateMutability": "view",
      "type": "function"
    },
    {
      "inputs": [
        {
          "internalType": "uint256",
          "name": "newTxFee",
          "type": "uint256"
        },
        {
          "internalType": "address",
          "name": "newTxBeneficiary",
          "type": "address"
        }
      ],
      "name": "changeTxFeeProperties",
      "outputs": [],
      "stateMutability": "nonpayable",
      "type": "function"
    },
    {
      "inputs": [],
      "name": "decimals",
      "outputs": [
        {
          "internalType": "uint8",
          "name": "",
          "type": "uint8"
        }
      ],
      "stateMutability": "view",
      "type": "function"
    },
    {
      "inputs": [
        {
          "internalType": "address",
          "name": "spender",
          "type": "address"
        },
        {
          "internalType": "uint256",
          "name": "subtractedValue",
          "type": "uint256"
        }
      ],
      "name": "decreaseAllowance",
      "outputs": [
        {
          "internalType": "bool",
          "name": "",
          "type": "bool"
        }
      ],
      "stateMutability": "nonpayable",
      "type": "function"
    },
    {
      "inputs": [],
      "name": "getImplementation",
      "outputs": [
        {
          "internalType": "address",
          "name": "",
          "type": "address"
        }
      ],
      "stateMutability": "view",
      "type": "function"
    },
    {
      "inputs": [
        {
          "internalType": "bytes32",
          "name": "role",
          "type": "bytes32"
        }
      ],
      "name": "getRoleAdmin",
      "outputs": [
        {
          "internalType": "bytes32",
          "name": "",
          "type": "bytes32"
        }
      ],
      "stateMutability": "view",
      "type": "function"
    },
    {
      "inputs": [
        {
          "internalType": "bytes32",
          "name": "role",
          "type": "bytes32"
        },
        {
          "internalType": "address",
          "name": "account",
          "type": "address"
        }
      ],
      "name": "grantRole",
      "outputs": [],
      "stateMutability": "nonpayable",
      "type": "function"
    },
    {
      "inputs": [
        {
          "internalType": "bytes32",
          "name": "role",
          "type": "bytes32"
        },
        {
          "internalType": "address",
          "name": "account",
          "type": "address"
        }
      ],
      "name": "hasRole",
      "outputs": [
        {
          "internalType": "bool",
          "name": "",
          "type": "bool"
        }
      ],
      "stateMutability": "view",
      "type": "function"
    },
    {
      "inputs": [
        {
          "internalType": "address",
          "name": "spender",
          "type": "address"
        },
        {
          "internalType": "uint256",
          "name": "addedValue",
          "type": "uint256"
        }
      ],
      "name": "increaseAllowance",
      "outputs": [
        {
          "internalType": "bool",
          "name": "",
          "type": "bool"
        }
      ],
      "stateMutability": "nonpayable",
      "type": "function"
    },
    {
      "inputs": [
        {
          "internalType": "string",
          "name": "name_",
          "type": "string"
        },
        {
          "internalType": "string",
          "name": "symbol_",
          "type": "string"
        },
        {
          "internalType": "uint8",
          "name": "decimals_",
          "type": "uint8"
        },
        {
          "internalType": "uint256",
          "name": "amount_",
          "type": "uint256"
        },
        {
          "internalType": "uint256",
          "name": "txFee",
          "type": "uint256"
        },
        {
          "internalType": "address",
          "name": "txFeeBeneficiary",
          "type": "address"
        }
      ],
      "name": "initialize",
      "outputs": [],
      "stateMutability": "nonpayable",
      "type": "function"
    },
    {
      "inputs": [],
      "name": "name",
      "outputs": [
        {
          "internalType": "string",
          "name": "",
          "type": "string"
        }
      ],
      "stateMutability": "view",
      "type": "function"
    },
    {
      "inputs": [],
      "name": "pause",
      "outputs": [],
      "stateMutability": "nonpayable",
      "type": "function"
    },
    {
      "inputs": [],
      "name": "paused",
      "outputs": [
        {
          "internalType": "bool",
          "name": "",
          "type": "bool"
        }
      ],
      "stateMutability": "view",
      "type": "function"
    },
    {
      "inputs": [
        {
          "internalType": "address",
          "name": "implementationAddress",
          "type": "address"
        }
      ],
      "name": "proposeNewImplementation",
      "outputs": [],
      "stateMutability": "nonpayable",
      "type": "function"
    },
    {
      "inputs": [
        {
          "internalType": "address[]",
          "name": "addresses",
          "type": "address[]"
        }
      ],
      "name": "removeAddressesFromWhitelistFrom",
      "outputs": [],
      "stateMutability": "nonpayable",
      "type": "function"
    },
    {
      "inputs": [
        {
          "internalType": "address[]",
          "name": "addresses",
          "type": "address[]"
        }
      ],
      "name": "removeAddressesFromWhitelistSender",
      "outputs": [],
      "stateMutability": "nonpayable",
      "type": "function"
    },
    {
      "inputs": [
        {
          "internalType": "bytes32",
          "name": "role",
          "type": "bytes32"
        },
        {
          "internalType": "address",
          "name": "account",
          "type": "address"
        }
      ],
      "name": "renounceRole",
      "outputs": [],
      "stateMutability": "nonpayable",
      "type": "function"
    },
    {
      "inputs": [
        {
          "internalType": "bytes32",
          "name": "role",
          "type": "bytes32"
        },
        {
          "internalType": "address",
          "name": "account",
          "type": "address"
        }
      ],
      "name": "revokeRole",
      "outputs": [],
      "stateMutability": "nonpayable",
      "type": "function"
    },
    {
      "inputs": [
        {
          "internalType": "bytes4",
          "name": "interfaceId",
          "type": "bytes4"
        }
      ],
      "name": "supportsInterface",
      "outputs": [
        {
          "internalType": "bool",
          "name": "",
          "type": "bool"
        }
      ],
      "stateMutability": "view",
      "type": "function"
    },
    {
      "inputs": [],
      "name": "symbol",
      "outputs": [
        {
          "internalType": "string",
          "name": "",
          "type": "string"
        }
      ],
      "stateMutability": "view",
      "type": "function"
    },
    {
      "inputs": [],
      "name": "totalSupply",
      "outputs": [
        {
          "internalType": "uint256",
          "name": "",
          "type": "uint256"
        }
      ],
      "stateMutability": "view",
      "type": "function"
    },
    {
      "inputs": [
        {
          "internalType": "address",
          "name": "recipient",
          "type": "address"
        },
        {
          "internalType": "uint256",
          "name": "amount",
          "type": "uint256"
        }
      ],
      "name": "transfer",
      "outputs": [
        {
          "internalType": "bool",
          "name": "",
          "type": "bool"
        }
      ],
      "stateMutability": "nonpayable",
      "type": "function"
    },
    {
      "inputs": [
        {
          "internalType": "address",
          "name": "sender",
          "type": "address"
        },
        {
          "internalType": "address",
          "name": "recipient",
          "type": "address"
        },
        {
          "internalType": "uint256",
          "name": "amount",
          "type": "uint256"
        }
      ],
      "name": "transferFrom",
      "outputs": [
        {
          "internalType": "bool",
          "name": "",
          "type": "bool"
        }
      ],
      "stateMutability": "nonpayable",
      "type": "function"
    },
    {
      "inputs": [],
      "name": "unpause",
      "outputs": [],
      "stateMutability": "nonpayable",
      "type": "function"
    },
    {
      "inputs": [
        {
          "internalType": "address",
          "name": "newImplementation",
          "type": "address"
        }
      ],
      "name": "upgradeTo",
      "outputs": [],
      "stateMutability": "nonpayable",
      "type": "function"
    },
    {
      "inputs": [
        {
          "internalType": "address",
          "name": "newImplementation",
          "type": "address"
        },
        {
          "internalType": "bytes",
          "name": "data",
          "type": "bytes"
        }
      ],
      "name": "upgradeToAndCall",
      "outputs": [],
      "stateMutability": "payable",
      "type": "function"
    }
  ],
  "bytecode": "0x60a06040523060601b60805234801561001757600080fd5b5060805160601c61285361004b600039600081816109ff01528181610a3f01528181610b620152610ba201526128536000f3fe60806040526004361061020f5760003560e01c8063685ed81a11610118578063a9059cbb116100a0578063d547741f1161006f578063d547741f14610614578063d84f91e814610634578063dd62ed3e14610656578063f36c8f5c1461069c578063f834c502146106be57600080fd5b8063a9059cbb14610585578063aa74a34a146105a5578063aaf10f42146105c7578063c233f3b7146105f457600080fd5b80638456cb59116100e75780638456cb591461050657806391d148541461051b57806395d89b411461053b578063a217fddf14610550578063a457c2d71461056557600080fd5b8063685ed81a1461046e5780636e79a1c01461048e57806370a08231146104ae578063731ce8fc146104e457600080fd5b806336568abe1161019b57806343ffa64e1161016a57806343ffa64e146103d457806347757fb6146103f65780634f1ef286146104165780635120561a146104295780635c975abb1461044957600080fd5b806336568abe1461035f5780633659cfe61461037f578063395093511461039f5780633f4ba83a146103bf57600080fd5b806323b872dd116101e257806323b872dd146102aa578063248a9ca3146102ca5780632cd77a5a146102fa5780632f2ff15d1461031c578063313ce5671461033c57600080fd5b806301ffc9a71461021457806306fdde0314610249578063095ea7b31461026b57806318160ddd1461028b575b600080fd5b34801561022057600080fd5b5061023461022f366004612372565b6106de565b60405190151581526020015b60405180910390f35b34801561025557600080fd5b5061025e610715565b60405161024091906124cc565b34801561027757600080fd5b50610234610286366004612297565b6107a7565b34801561029757600080fd5b506067545b604051908152602001610240565b3480156102b657600080fd5b506102346102c53660046121f9565b6107bd565b3480156102d657600080fd5b5061029c6102e5366004612336565b600090815260fb602052604090206001015490565b34801561030657600080fd5b5061031a61031536600461239c565b61086e565b005b34801561032857600080fd5b5061031a61033736600461234f565b61094b565b34801561034857600080fd5b506101605460405160ff9091168152602001610240565b34801561036b57600080fd5b5061031a61037a36600461234f565b610976565b34801561038b57600080fd5b5061031a61039a3660046121ab565b6109f4565b3480156103ab57600080fd5b506102346103ba366004612297565b610abd565b3480156103cb57600080fd5b5061031a610af9565b3480156103e057600080fd5b5061029c60008051602061273783398151915281565b34801561040257600080fd5b5061031a6104113660046121ab565b610b1a565b61031a610424366004612235565b610b57565b34801561043557600080fd5b5061031a61044436600461234f565b610c0d565b34801561045557600080fd5b506000805160206127de8339815191525460ff16610234565b34801561047a57600080fd5b5061031a6104893660046122c1565b610c82565b34801561049a57600080fd5b5061031a6104a93660046122c1565b610cf7565b3480156104ba57600080fd5b5061029c6104c93660046121ab565b6001600160a01b031660009081526065602052604090205490565b3480156104f057600080fd5b5061029c6000805160206127fe83398151915281565b34801561051257600080fd5b5061031a610d66565b34801561052757600080fd5b5061023461053636600461234f565b610d87565b34801561054757600080fd5b5061025e610db2565b34801561055c57600080fd5b5061029c600081565b34801561057157600080fd5b50610234610580366004612297565b610dc1565b34801561059157600080fd5b506102346105a0366004612297565b610e5a565b3480156105b157600080fd5b5061029c60008051602061271783398151915281565b3480156105d357600080fd5b506105dc610e67565b6040516001600160a01b039091168152602001610240565b34801561060057600080fd5b5061031a61060f3660046122c1565b610e76565b34801561062057600080fd5b5061031a61062f36600461234f565b610ed0565b34801561064057600080fd5b5061029c6000805160206127be83398151915281565b34801561066257600080fd5b5061029c6106713660046121c6565b6001600160a01b03918216600090815260666020908152604080832093909416825291909152205490565b3480156106a857600080fd5b5061029c60008051602061275783398151915281565b3480156106ca57600080fd5b5061031a6106d93660046122c1565b610ef6565b60006001600160e01b03198216637965db0b60e01b148061070f57506301ffc9a760e01b6001600160e01b03198316145b92915050565b6060606880546107249061267e565b80601f01602080910402602001604051908101604052809291908181526020018280546107509061267e565b801561079d5780601f106107725761010080835404028352916020019161079d565b820191906000526020600020905b81548152906001019060200180831161078057829003601f168201915b5050505050905090565b60006107b4338484610f50565b50600192915050565b60006107ca848484611074565b6001600160a01b0384166000908152606660209081526040808320338452909152902054828110156108545760405162461bcd60e51b815260206004820152602860248201527f45524332303a207472616e7366657220616d6f756e74206578636565647320616044820152676c6c6f77616e636560c01b60648201526084015b60405180910390fd5b6108618533858403610f50565b60019150505b9392505050565b600054610100900460ff166108895760005460ff161561088d565b303b155b6108f05760405162461bcd60e51b815260206004820152602e60248201527f496e697469616c697a61626c653a20636f6e747261637420697320616c72656160448201526d191e481a5b9a5d1a585b1a5e995960921b606482015260840161084b565b600054610100900460ff16158015610912576000805461ffff19166101011790555b61091e8787878761124d565b6109288383611290565b61093061131f565b8015610942576000805461ff00191690555b50505050505050565b600082815260fb60205260409020600101546109678133611394565b61097183836113f8565b505050565b6001600160a01b03811633146109e65760405162461bcd60e51b815260206004820152602f60248201527f416363657373436f6e74726f6c3a2063616e206f6e6c792072656e6f756e636560448201526e103937b632b9903337b91039b2b63360891b606482015260840161084b565b6109f0828261147e565b5050565b306001600160a01b037f0000000000000000000000000000000000000000000000000000000000000000161415610a3d5760405162461bcd60e51b815260040161084b906124ff565b7f00000000000000000000000000000000000000000000000000000000000000006001600160a01b0316610a6f6114e5565b6001600160a01b031614610a955760405162461bcd60e51b815260040161084b9061254b565b610a9e81611513565b60408051600080825260208201909252610aba91839190611595565b50565b3360008181526066602090815260408083206001600160a01b038716845290915281205490916107b4918590610af49086906125e2565b610f50565b6000805160206127be833981519152610b128133611394565b610aba6116e0565b600080516020612757833981519152610b338133611394565b5061012d80546001600160a01b0319166001600160a01b0392909216919091179055565b306001600160a01b037f0000000000000000000000000000000000000000000000000000000000000000161415610ba05760405162461bcd60e51b815260040161084b906124ff565b7f00000000000000000000000000000000000000000000000000000000000000006001600160a01b0316610bd26114e5565b6001600160a01b031614610bf85760405162461bcd60e51b815260040161084b9061254b565b610c0182611513565b6109f082826001611595565b6000610c198133611394565b6001600160a01b038216610c2c57600080fd5b8260008051602061277783398151915255817fe38b16c806f019542b2d4bf356bb4ba2ea4b7eb450b8fbff2584f6084c4978f180546001600160a01b0319166001600160a01b0392909216919091179055505050565b6000805160206127be833981519152610c9b8133611394565b60005b82811015610cf157610cdf600080516020612717833981519152858584818110610cca57610cca6126ea565b905060200201602081019061033791906121ab565b80610ce9816126b9565b915050610c9e565b50505050565b6000805160206127be833981519152610d108133611394565b60005b82811015610cf157610d546000805160206127fe833981519152858584818110610d3f57610d3f6126ea565b905060200201602081019061062f91906121ab565b80610d5e816126b9565b915050610d13565b6000805160206127be833981519152610d7f8133611394565b610aba61178d565b600091825260fb602090815260408084206001600160a01b0393909316845291905290205460ff1690565b6060606980546107249061267e565b3360009081526066602090815260408083206001600160a01b038616845290915281205482811015610e435760405162461bcd60e51b815260206004820152602560248201527f45524332303a2064656372656173656420616c6c6f77616e63652062656c6f77604482015264207a65726f60d81b606482015260840161084b565b610e503385858403610f50565b5060019392505050565b60006107b4338484611074565b6000610e716114e5565b905090565b6000805160206127be833981519152610e8f8133611394565b60005b82811015610cf157610ebe600080516020612717833981519152858584818110610d3f57610d3f6126ea565b80610ec8816126b9565b915050610e92565b600082815260fb6020526040902060010154610eec8133611394565b610971838361147e565b6000805160206127be833981519152610f0f8133611394565b60005b82811015610cf157610f3e6000805160206127fe833981519152858584818110610cca57610cca6126ea565b80610f48816126b9565b915050610f12565b6001600160a01b038316610fb25760405162461bcd60e51b8152602060048201526024808201527f45524332303a20617070726f76652066726f6d20746865207a65726f206164646044820152637265737360e01b606482015260840161084b565b6001600160a01b0382166110135760405162461bcd60e51b815260206004820152602260248201527f45524332303a20617070726f766520746f20746865207a65726f206164647265604482015261737360f01b606482015260840161084b565b6001600160a01b0383811660008181526066602090815260408083209487168084529482529182902085905590518481527f8c5be1e5ebec7d5bd14f71427d1e84f3dd0314c0f7b2291e5b200ac8c7c3b925910160405180910390a3505050565b6001600160a01b0383166110d85760405162461bcd60e51b815260206004820152602560248201527f45524332303a207472616e736665722066726f6d20746865207a65726f206164604482015264647265737360d81b606482015260840161084b565b6001600160a01b03821661113a5760405162461bcd60e51b815260206004820152602360248201527f45524332303a207472616e7366657220746f20746865207a65726f206164647260448201526265737360e81b606482015260840161084b565b611145838383611821565b6001600160a01b038316600090815260656020526040902054818110156111bd5760405162461bcd60e51b815260206004820152602660248201527f45524332303a207472616e7366657220616d6f756e7420657863656564732062604482015265616c616e636560d01b606482015260840161084b565b6001600160a01b038085166000908152606560205260408082208585039055918516815290812080548492906111f49084906125e2565b92505081905550826001600160a01b0316846001600160a01b03167fddf252ad1be2c89b69c2b068fc378daa952ba7f163c4a11628f55a4df523b3ef8460405161124091815260200190565b60405180910390a3610cf1565b600054610100900460ff166112745760405162461bcd60e51b815260040161084b90612597565b61127c61182c565b6112868484611883565b610cf182826118d1565b600054610100900460ff166112b75760405162461bcd60e51b815260040161084b90612597565b6001600160a01b0381166112ca57600080fd5b8160008051602061277783398151915255807fe38b16c806f019542b2d4bf356bb4ba2ea4b7eb450b8fbff2584f6084c4978f180546001600160a01b0319166001600160a01b03929092169190911790555050565b600054610100900460ff166113465760405162461bcd60e51b815260040161084b90612597565b61136c6000805160206127fe8339815191526000805160206127be833981519152611912565b6113926000805160206127178339815191526000805160206127be833981519152611912565b565b61139e8282610d87565b6109f0576113b6816001600160a01b0316601461195d565b6113c183602061195d565b6040516020016113d2929190612457565b60408051601f198184030181529082905262461bcd60e51b825261084b916004016124cc565b6114028282610d87565b6109f057600082815260fb602090815260408083206001600160a01b03851684529091529020805460ff1916600117905561143a3390565b6001600160a01b0316816001600160a01b0316837f2f8788117e7eff1d82e926ec794901d17c78024a50270940304540a733656f0d60405160405180910390a45050565b6114888282610d87565b156109f057600082815260fb602090815260408083206001600160a01b0385168085529252808320805460ff1916905551339285917ff6391f5c32d9c69d2a47ea670b442974b53935d1edc7fd64eb21e047a839171b9190a45050565b7f360894a13ba1a3210667c828492db98dca3e2076cc3735a920a3ca505d382bbc546001600160a01b031690565b61152b60008051602061275783398151915233610d87565b80611549575061154960008051602061273783398151915233610d87565b610aba5760405162461bcd60e51b815260206004820152601d60248201527f4552524f523a2041646472657373206e6f7420617574686f72697a6564000000604482015260640161084b565b600061159f6114e5565b90506115aa84611af9565b6000835111806115b75750815b156115c8576115c68484611b9e565b505b7f4910fdfa16fed3260ed0e7147f7cc6da11a60208b5b9406d12a635614ffd9143805460ff166116d957805460ff191660011781556040516001600160a01b038316602482015261164790869060440160408051601f198184030181529190526020810180516001600160e01b0316631b2ce7f360e11b179052611b9e565b50805460ff191681556116586114e5565b6001600160a01b0316826001600160a01b0316146116d05760405162461bcd60e51b815260206004820152602f60248201527f45524331393637557067726164653a207570677261646520627265616b73206660448201526e75727468657220757067726164657360881b606482015260840161084b565b6116d985611c89565b5050505050565b6000805160206127de8339815191525460ff166117365760405162461bcd60e51b815260206004820152601460248201527314185d5cd8589b194e881b9bdd081c185d5cd95960621b604482015260640161084b565b6000805160206127de833981519152805460ff191690557f5db9ee0a495bf2e6ff9c91a7834c1ba4fdd244a5e8aa4e537bd38aeae4b073aa335b6040516001600160a01b03909116815260200160405180910390a1565b6000805160206127de8339815191525460ff16156117e05760405162461bcd60e51b815260206004820152601060248201526f14185d5cd8589b194e881c185d5cd95960821b604482015260640161084b565b6000805160206127de833981519152805460ff191660011790557f62e78cea01bee320cd4e420270b5ea74000d11b0c9f74754ebdbfc544b05a25833611770565b610971838383611cc9565b600054610100900460ff166118535760405162461bcd60e51b815260040161084b90612597565b61185b611cdf565b611863611cdf565b61186b611cdf565b611873611cdf565b61187b611cdf565b611392611d06565b600054610100900460ff166118aa5760405162461bcd60e51b815260040161084b90612597565b81516118bd906068906020850190612060565b508051610971906069906020840190612060565b600054610100900460ff166118f85760405162461bcd60e51b815260040161084b90612597565b610160805460ff191660ff84161790556109f03382611d8e565b600082815260fb6020526040808220600101805490849055905190918391839186917fbd79b86ffe0ab8e8776151514217cd7cacd52c909f66475c3af44e129f0b00ff9190a4505050565b6060600061196c83600261261c565b6119779060026125e2565b67ffffffffffffffff81111561198f5761198f612700565b6040519080825280601f01601f1916602001820160405280156119b9576020820181803683370190505b509050600360fc1b816000815181106119d4576119d46126ea565b60200101906001600160f81b031916908160001a905350600f60fb1b81600181518110611a0357611a036126ea565b60200101906001600160f81b031916908160001a9053506000611a2784600261261c565b611a329060016125e2565b90505b6001811115611aaa576f181899199a1a9b1b9c1cb0b131b232b360811b85600f1660108110611a6657611a666126ea565b1a60f81b828281518110611a7c57611a7c6126ea565b60200101906001600160f81b031916908160001a90535060049490941c93611aa381612667565b9050611a35565b5083156108675760405162461bcd60e51b815260206004820181905260248201527f537472696e67733a20686578206c656e67746820696e73756666696369656e74604482015260640161084b565b803b611b5d5760405162461bcd60e51b815260206004820152602d60248201527f455243313936373a206e657720696d706c656d656e746174696f6e206973206e60448201526c1bdd08184818dbdb9d1c9858dd609a1b606482015260840161084b565b7f360894a13ba1a3210667c828492db98dca3e2076cc3735a920a3ca505d382bbc80546001600160a01b0319166001600160a01b0392909216919091179055565b6060823b611bfd5760405162461bcd60e51b815260206004820152602660248201527f416464726573733a2064656c65676174652063616c6c20746f206e6f6e2d636f6044820152651b9d1c9858dd60d21b606482015260840161084b565b600080846001600160a01b031684604051611c18919061243b565b600060405180830381855af49150503d8060008114611c53576040519150601f19603f3d011682016040523d82523d6000602084013e611c58565b606091505b5091509150611c80828260405180606001604052806027815260200161279760279139611e79565b95945050505050565b611c9281611af9565b6040516001600160a01b038216907fbc7cd75a20ee27fd9adebab32041f755214dbc6bffa90cc0225b39da2e5c2d3b90600090a250565b611cd4838383611eb2565b610971838383611f9b565b600054610100900460ff166113925760405162461bcd60e51b815260040161084b90612597565b600054610100900460ff16611d2d5760405162461bcd60e51b815260040161084b90612597565b611d3860003361201e565b611d506000805160206127578339815191523361201e565b611d686000805160206127378339815191523361201e565b611392600080516020612737833981519152600080516020612757833981519152611912565b6001600160a01b038216611de45760405162461bcd60e51b815260206004820152601f60248201527f45524332303a206d696e7420746f20746865207a65726f206164647265737300604482015260640161084b565b611df060008383611821565b8060676000828254611e0291906125e2565b90915550506001600160a01b03821660009081526065602052604081208054839290611e2f9084906125e2565b90915550506040518181526001600160a01b038316906000907fddf252ad1be2c89b69c2b068fc378daa952ba7f163c4a11628f55a4df523b3ef9060200160405180910390a35050565b60608315611e88575081610867565b825115611e985782518084602001fd5b8160405162461bcd60e51b815260040161084b91906124cc565b600080516020612777833981519152547fe38b16c806f019542b2d4bf356bb4ba2ea4b7eb450b8fbff2584f6084c4978f1546001600160a01b0316811580611f0b5750836001600160a01b0316816001600160a01b0316145b80611f275750846001600160a01b0316816001600160a01b0316145b80611f3957506001600160a01b038516155b80611f4b57506001600160a01b038416155b15611f57575050505050565b6000670de0b6b3a764000060008051602061277783398151915254611f7c908661261c565b611f8691906125fa565b9050611f93868383611074565b505050505050565b6000805160206127de8339815191525460ff161580611fbf5750611fbf8333612028565b6109715760405162461bcd60e51b815260206004820152602a60248201527f45524332305061757361626c653a20746f6b656e207472616e736665722077686044820152691a5b19481c185d5cd95960b21b606482015260840161084b565b6109f082826113f8565b60006120426000805160206127fe83398151915284610d87565b80610867575061086760008051602061271783398151915283610d87565b82805461206c9061267e565b90600052602060002090601f01602090048101928261208e57600085556120d4565b82601f106120a757805160ff19168380011785556120d4565b828001600101855582156120d4579182015b828111156120d45782518255916020019190600101906120b9565b506120e09291506120e4565b5090565b5b808211156120e057600081556001016120e5565b600067ffffffffffffffff8084111561211457612114612700565b604051601f8501601f19908116603f0116810190828211818310171561213c5761213c612700565b8160405280935085815286868601111561215557600080fd5b858560208301376000602087830101525050509392505050565b80356001600160a01b038116811461218657600080fd5b919050565b600082601f83011261219c57600080fd5b610867838335602085016120f9565b6000602082840312156121bd57600080fd5b6108678261216f565b600080604083850312156121d957600080fd5b6121e28361216f565b91506121f06020840161216f565b90509250929050565b60008060006060848603121561220e57600080fd5b6122178461216f565b92506122256020850161216f565b9150604084013590509250925092565b6000806040838503121561224857600080fd5b6122518361216f565b9150602083013567ffffffffffffffff81111561226d57600080fd5b8301601f8101851361227e57600080fd5b61228d858235602084016120f9565b9150509250929050565b600080604083850312156122aa57600080fd5b6122b38361216f565b946020939093013593505050565b600080602083850312156122d457600080fd5b823567ffffffffffffffff808211156122ec57600080fd5b818501915085601f83011261230057600080fd5b81358181111561230f57600080fd5b8660208260051b850101111561232457600080fd5b60209290920196919550909350505050565b60006020828403121561234857600080fd5b5035919050565b6000806040838503121561236257600080fd5b823591506121f06020840161216f565b60006020828403121561238457600080fd5b81356001600160e01b03198116811461086757600080fd5b60008060008060008060c087890312156123b557600080fd5b863567ffffffffffffffff808211156123cd57600080fd5b6123d98a838b0161218b565b975060208901359150808211156123ef57600080fd5b506123fc89828a0161218b565b955050604087013560ff8116811461241357600080fd5b9350606087013592506080870135915061242f60a0880161216f565b90509295509295509295565b6000825161244d81846020870161263b565b9190910192915050565b7f416363657373436f6e74726f6c3a206163636f756e742000000000000000000081526000835161248f81601785016020880161263b565b7001034b99036b4b9b9b4b733903937b6329607d1b60179184019182015283516124c081602884016020880161263b565b01602801949350505050565b60208152600082518060208401526124eb81604085016020870161263b565b601f01601f19169190910160400192915050565b6020808252602c908201527f46756e6374696f6e206d7573742062652063616c6c6564207468726f7567682060408201526b19195b1959d85d1958d85b1b60a21b606082015260800190565b6020808252602c908201527f46756e6374696f6e206d7573742062652063616c6c6564207468726f7567682060408201526b6163746976652070726f787960a01b606082015260800190565b6020808252602b908201527f496e697469616c697a61626c653a20636f6e7472616374206973206e6f74206960408201526a6e697469616c697a696e6760a81b606082015260800190565b600082198211156125f5576125f56126d4565b500190565b60008261261757634e487b7160e01b600052601260045260246000fd5b500490565b6000816000190483118215151615612636576126366126d4565b500290565b60005b8381101561265657818101518382015260200161263e565b83811115610cf15750506000910152565b600081612676576126766126d4565b506000190190565b600181811c9082168061269257607f821691505b602082108114156126b357634e487b7160e01b600052602260045260246000fd5b50919050565b60006000198214156126cd576126cd6126d4565b5060010190565b634e487b7160e01b600052601160045260246000fd5b634e487b7160e01b600052603260045260246000fd5b634e487b7160e01b600052604160045260246000fdfee1ac655ab58995133a870d1fd307ddc1d624c8ad919a09e67867a7a1483e439aa76ace73a908083d89af9ff88e5b4f7cadb3591a80631063f68b695fda726db571840dc4906352362b0cdaf79870196c8e42acafade72d5d5a6d59291253ceb1253122b26cc2118faf5fcfc7761bd75fcfb5508f1f48d1a40db694aba32af5d0416464726573733a206c6f772d6c6576656c2064656c65676174652063616c6c206661696c6564356a809dfdea9198dd76fb76bf6d403ecf13ea675eb89e1eda2db2c4a4676a26ad6a6591fa308fe948065665239402780db8ed4a8c4e4e16c4d066bcaa05efc2ce108bcc5e0f50fe603649304cbbbd94de794a404db82d884c0afc9ba9328e61a264697066735822122017c3cd6a00bfefa89836fb5ec70f1e8c276908b2269eae3312e6d714dc4c078a64736f6c63430008060033",
  "linkReferences": {},
  "deployedLinkReferences": {}
}