{
  "_format": "hh-sol-artifact-1",
  "name": "WhiteListTemplate",
  "initializer": "function initialize(string name_, string symbol_, uint8 decimals_, uint256 amount_)",
  "sourceName": "contracts/templates/WhiteListTemplate.sol",
  "abi": [
    {
      "anonymous": false,
      "inputs": [
        {
          "indexed": false,
          "internalType": "address",
          "name": "previousAdmin",
          "type": "address"
        },
        {
          "indexed": false,
          "internalType": "address",
          "name": "newAdmin",
          "type": "address"
        }
      ],
      "name": "AdminChanged",
      "type": "event"
    },
    {
      "anonymous": false,
      "inputs": [
        {
          "indexed": true,
          "internalType": "address",
          "name": "owner",
          "type": "address"
        },
        {
          "indexed": true,
          "internalType": "address",
          "name": "spender",
          "type": "address"
        },
        {
          "indexed": false,
          "internalType": "uint256",
          "name": "value",
          "type": "uint256"
        }
      ],
      "name": "Approval",
      "type": "event"
    },
    {
      "anonymous": false,
      "inputs": [
        {
          "indexed": true,
          "internalType": "address",
          "name": "beacon",
          "type": "address"
        }
      ],
      "name": "BeaconUpgraded",
      "type": "event"
    },
    {
      "anonymous": false,
      "inputs": [
        {
          "indexed": false,
          "internalType": "address",
          "name": "account",
          "type": "address"
        }
      ],
      "name": "Paused",
      "type": "event"
    },
    {
      "anonymous": false,
      "inputs": [
        {
          "indexed": true,
          "internalType": "bytes32",
          "name": "role",
          "type": "bytes32"
        },
        {
          "indexed": true,
          "internalType": "bytes32",
          "name": "previousAdminRole",
          "type": "bytes32"
        },
        {
          "indexed": true,
          "internalType": "bytes32",
          "name": "newAdminRole",
          "type": "bytes32"
        }
      ],
      "name": "RoleAdminChanged",
      "type": "event"
    },
    {
      "anonymous": false,
      "inputs": [
        {
          "indexed": true,
          "internalType": "bytes32",
          "name": "role",
          "type": "bytes32"
        },
        {
          "indexed": true,
          "internalType": "address",
          "name": "account",
          "type": "address"
        },
        {
          "indexed": true,
          "internalType": "address",
          "name": "sender",
          "type": "address"
        }
      ],
      "name": "RoleGranted",
      "type": "event"
    },
    {
      "anonymous": false,
      "inputs": [
        {
          "indexed": true,
          "internalType": "bytes32",
          "name": "role",
          "type": "bytes32"
        },
        {
          "indexed": true,
          "internalType": "address",
          "name": "account",
          "type": "address"
        },
        {
          "indexed": true,
          "internalType": "address",
          "name": "sender",
          "type": "address"
        }
      ],
      "name": "RoleRevoked",
      "type": "event"
    },
    {
      "anonymous": false,
      "inputs": [
        {
          "indexed": true,
          "internalType": "address",
          "name": "from",
          "type": "address"
        },
        {
          "indexed": true,
          "internalType": "address",
          "name": "to",
          "type": "address"
        },
        {
          "indexed": false,
          "internalType": "uint256",
          "name": "value",
          "type": "uint256"
        }
      ],
      "name": "Transfer",
      "type": "event"
    },
    {
      "anonymous": false,
      "inputs": [
        {
          "indexed": false,
          "internalType": "address",
          "name": "account",
          "type": "address"
        }
      ],
      "name": "Unpaused",
      "type": "event"
    },
    {
      "anonymous": false,
      "inputs": [
        {
          "indexed": true,
          "internalType": "address",
          "name": "implementation",
          "type": "address"
        }
      ],
      "name": "Upgraded",
      "type": "event"
    },
    {
      "inputs": [],
      "name": "DEFAULT_ADMIN_ROLE",
      "outputs": [
        {
          "internalType": "bytes32",
          "name": "",
          "type": "bytes32"
        }
      ],
      "stateMutability": "view",
      "type": "function"
    },
    {
      "inputs": [],
      "name": "GOVERNANCE_ROLE",
      "outputs": [
        {
          "internalType": "bytes32",
          "name": "",
          "type": "bytes32"
        }
      ],
      "stateMutability": "view",
      "type": "function"
    },
    {
      "inputs": [],
      "name": "PAUSE_MANAGER_ROLE",
      "outputs": [
        {
          "internalType": "bytes32",
          "name": "",
          "type": "bytes32"
        }
      ],
      "stateMutability": "view",
      "type": "function"
    },
    {
      "inputs": [],
      "name": "UPGRADE_MANAGER_ROLE",
      "outputs": [
        {
          "internalType": "bytes32",
          "name": "",
          "type": "bytes32"
        }
      ],
      "stateMutability": "view",
      "type": "function"
    },
    {
      "inputs": [],
      "name": "WHITELISTED_FROM_ROLE",
      "outputs": [
        {
          "internalType": "bytes32",
          "name": "",
          "type": "bytes32"
        }
      ],
      "stateMutability": "view",
      "type": "function"
    },
    {
      "inputs": [],
      "name": "WHITELISTED_SENDER_ROLE",
      "outputs": [
        {
          "internalType": "bytes32",
          "name": "",
          "type": "bytes32"
        }
      ],
      "stateMutability": "view",
      "type": "function"
    },
    {
      "inputs": [
        {
          "internalType": "address[]",
          "name": "addresses",
          "type": "address[]"
        }
      ],
      "name": "addAddressesToWhitelistFrom",
      "outputs": [],
      "stateMutability": "nonpayable",
      "type": "function"
    },
    {
      "inputs": [
        {
          "internalType": "address[]",
          "name": "addresses",
          "type": "address[]"
        }
      ],
      "name": "addAddressesToWhitelistSender",
      "outputs": [],
      "stateMutability": "nonpayable",
      "type": "function"
    },
    {
      "inputs": [
        {
          "internalType": "address",
          "name": "owner",
          "type": "address"
        },
        {
          "internalType": "address",
          "name": "spender",
          "type": "address"
        }
      ],
      "name": "allowance",
      "outputs": [
        {
          "internalType": "uint256",
          "name": "",
          "type": "uint256"
        }
      ],
      "stateMutability": "view",
      "type": "function"
    },
    {
      "inputs": [
        {
          "internalType": "address",
          "name": "spender",
          "type": "address"
        },
        {
          "internalType": "uint256",
          "name": "amount",
          "type": "uint256"
        }
      ],
      "name": "approve",
      "outputs": [
        {
          "internalType": "bool",
          "name": "",
          "type": "bool"
        }
      ],
      "stateMutability": "nonpayable",
      "type": "function"
    },
    {
      "inputs": [
        {
          "internalType": "address",
          "name": "account",
          "type": "address"
        }
      ],
      "name": "balanceOf",
      "outputs": [
        {
          "internalType": "uint256",
          "name": "",
          "type": "uint256"
        }
      ],
      "stateMutability": "view",
      "type": "function"
    },
    {
      "inputs": [],
      "name": "decimals",
      "outputs": [
        {
          "internalType": "uint8",
          "name": "",
          "type": "uint8"
        }
      ],
      "stateMutability": "view",
      "type": "function"
    },
    {
      "inputs": [
        {
          "internalType": "address",
          "name": "spender",
          "type": "address"
        },
        {
          "internalType": "uint256",
          "name": "subtractedValue",
          "type": "uint256"
        }
      ],
      "name": "decreaseAllowance",
      "outputs": [
        {
          "internalType": "bool",
          "name": "",
          "type": "bool"
        }
      ],
      "stateMutability": "nonpayable",
      "type": "function"
    },
    {
      "inputs": [],
      "name": "getImplementation",
      "outputs": [
        {
          "internalType": "address",
          "name": "",
          "type": "address"
        }
      ],
      "stateMutability": "view",
      "type": "function"
    },
    {
      "inputs": [
        {
          "internalType": "bytes32",
          "name": "role",
          "type": "bytes32"
        }
      ],
      "name": "getRoleAdmin",
      "outputs": [
        {
          "internalType": "bytes32",
          "name": "",
          "type": "bytes32"
        }
      ],
      "stateMutability": "view",
      "type": "function"
    },
    {
      "inputs": [
        {
          "internalType": "bytes32",
          "name": "role",
          "type": "bytes32"
        },
        {
          "internalType": "address",
          "name": "account",
          "type": "address"
        }
      ],
      "name": "grantRole",
      "outputs": [],
      "stateMutability": "nonpayable",
      "type": "function"
    },
    {
      "inputs": [
        {
          "internalType": "bytes32",
          "name": "role",
          "type": "bytes32"
        },
        {
          "internalType": "address",
          "name": "account",
          "type": "address"
        }
      ],
      "name": "hasRole",
      "outputs": [
        {
          "internalType": "bool",
          "name": "",
          "type": "bool"
        }
      ],
      "stateMutability": "view",
      "type": "function"
    },
    {
      "inputs": [
        {
          "internalType": "address",
          "name": "spender",
          "type": "address"
        },
        {
          "internalType": "uint256",
          "name": "addedValue",
          "type": "uint256"
        }
      ],
      "name": "increaseAllowance",
      "outputs": [
        {
          "internalType": "bool",
          "name": "",
          "type": "bool"
        }
      ],
      "stateMutability": "nonpayable",
      "type": "function"
    },
    {
      "inputs": [
        {
          "internalType": "string",
          "name": "name_",
          "type": "string"
        },
        {
          "internalType": "string",
          "name": "symbol_",
          "type": "string"
        },
        {
          "internalType": "uint8",
          "name": "decimals_",
          "type": "uint8"
        },
        {
          "internalType": "uint256",
          "name": "amount_",
          "type": "uint256"
        }
      ],
      "name": "initialize",
      "outputs": [],
      "stateMutability": "nonpayable",
      "type": "function"
    },
    {
      "inputs": [],
      "name": "name",
      "outputs": [
        {
          "internalType": "string",
          "name": "",
          "type": "string"
        }
      ],
      "stateMutability": "view",
      "type": "function"
    },
    {
      "inputs": [],
      "name": "pause",
      "outputs": [],
      "stateMutability": "nonpayable",
      "type": "function"
    },
    {
      "inputs": [],
      "name": "paused",
      "outputs": [
        {
          "internalType": "bool",
          "name": "",
          "type": "bool"
        }
      ],
      "stateMutability": "view",
      "type": "function"
    },
    {
      "inputs": [
        {
          "internalType": "address",
          "name": "implementationAddress",
          "type": "address"
        }
      ],
      "name": "proposeNewImplementation",
      "outputs": [],
      "stateMutability": "nonpayable",
      "type": "function"
    },
    {
      "inputs": [
        {
          "internalType": "address[]",
          "name": "addresses",
          "type": "address[]"
        }
      ],
      "name": "removeAddressesFromWhitelistFrom",
      "outputs": [],
      "stateMutability": "nonpayable",
      "type": "function"
    },
    {
      "inputs": [
        {
          "internalType": "address[]",
          "name": "addresses",
          "type": "address[]"
        }
      ],
      "name": "removeAddressesFromWhitelistSender",
      "outputs": [],
      "stateMutability": "nonpayable",
      "type": "function"
    },
    {
      "inputs": [
        {
          "internalType": "bytes32",
          "name": "role",
          "type": "bytes32"
        },
        {
          "internalType": "address",
          "name": "account",
          "type": "address"
        }
      ],
      "name": "renounceRole",
      "outputs": [],
      "stateMutability": "nonpayable",
      "type": "function"
    },
    {
      "inputs": [
        {
          "internalType": "bytes32",
          "name": "role",
          "type": "bytes32"
        },
        {
          "internalType": "address",
          "name": "account",
          "type": "address"
        }
      ],
      "name": "revokeRole",
      "outputs": [],
      "stateMutability": "nonpayable",
      "type": "function"
    },
    {
      "inputs": [
        {
          "internalType": "bytes4",
          "name": "interfaceId",
          "type": "bytes4"
        }
      ],
      "name": "supportsInterface",
      "outputs": [
        {
          "internalType": "bool",
          "name": "",
          "type": "bool"
        }
      ],
      "stateMutability": "view",
      "type": "function"
    },
    {
      "inputs": [],
      "name": "symbol",
      "outputs": [
        {
          "internalType": "string",
          "name": "",
          "type": "string"
        }
      ],
      "stateMutability": "view",
      "type": "function"
    },
    {
      "inputs": [],
      "name": "totalSupply",
      "outputs": [
        {
          "internalType": "uint256",
          "name": "",
          "type": "uint256"
        }
      ],
      "stateMutability": "view",
      "type": "function"
    },
    {
      "inputs": [
        {
          "internalType": "address",
          "name": "recipient",
          "type": "address"
        },
        {
          "internalType": "uint256",
          "name": "amount",
          "type": "uint256"
        }
      ],
      "name": "transfer",
      "outputs": [
        {
          "internalType": "bool",
          "name": "",
          "type": "bool"
        }
      ],
      "stateMutability": "nonpayable",
      "type": "function"
    },
    {
      "inputs": [
        {
          "internalType": "address",
          "name": "sender",
          "type": "address"
        },
        {
          "internalType": "address",
          "name": "recipient",
          "type": "address"
        },
        {
          "internalType": "uint256",
          "name": "amount",
          "type": "uint256"
        }
      ],
      "name": "transferFrom",
      "outputs": [
        {
          "internalType": "bool",
          "name": "",
          "type": "bool"
        }
      ],
      "stateMutability": "nonpayable",
      "type": "function"
    },
    {
      "inputs": [],
      "name": "unpause",
      "outputs": [],
      "stateMutability": "nonpayable",
      "type": "function"
    },
    {
      "inputs": [
        {
          "internalType": "address",
          "name": "newImplementation",
          "type": "address"
        }
      ],
      "name": "upgradeTo",
      "outputs": [],
      "stateMutability": "nonpayable",
      "type": "function"
    },
    {
      "inputs": [
        {
          "internalType": "address",
          "name": "newImplementation",
          "type": "address"
        },
        {
          "internalType": "bytes",
          "name": "data",
          "type": "bytes"
        }
      ],
      "name": "upgradeToAndCall",
      "outputs": [],
      "stateMutability": "payable",
      "type": "function"
    }
  ],
  "bytecode": "0x60a06040523060601b60805234801561001757600080fd5b5060805160601c6125c061004b600039600081816109c801528181610a0801528181610b2b0152610b6b01526125c06000f3fe6080604052600436106102045760003560e01c8063685ed81a11610118578063a9059cbb116100a0578063d547741f1161006f578063d547741f146105e9578063d84f91e814610609578063dd62ed3e1461062b578063f36c8f5c14610671578063f834c5021461069357600080fd5b8063a9059cbb1461055a578063aa74a34a1461057a578063aaf10f421461059c578063c233f3b7146105c957600080fd5b80638456cb59116100e75780638456cb59146104db57806391d14854146104f057806395d89b4114610510578063a217fddf14610525578063a457c2d71461053a57600080fd5b8063685ed81a146104435780636e79a1c01461046357806370a0823114610483578063731ce8fc146104b957600080fd5b8063313ce5671161019b5780633f4ba83a1161016a5780633f4ba83a146103b457806343ffa64e146103c957806347757fb6146103eb5780634f1ef2861461040b5780635c975abb1461041e57600080fd5b8063313ce5671461033157806336568abe146103545780633659cfe614610374578063395093511461039457600080fd5b806323b872dd116101d757806323b872dd1461029f578063248a9ca3146102bf578063253279ad146102ef5780632f2ff15d1461031157600080fd5b806301ffc9a71461020957806306fdde031461023e578063095ea7b31461026057806318160ddd14610280575b600080fd5b34801561021557600080fd5b5061022961022436600461213c565b6106b3565b60405190151581526020015b60405180910390f35b34801561024a57600080fd5b506102536106ea565b604051610235919061227b565b34801561026c57600080fd5b5061022961027b366004612061565b61077c565b34801561028c57600080fd5b506067545b604051908152602001610235565b3480156102ab57600080fd5b506102296102ba366004611fc3565b610792565b3480156102cb57600080fd5b506102916102da366004612100565b600090815260fb602052604090206001015490565b3480156102fb57600080fd5b5061030f61030a366004612166565b610843565b005b34801561031d57600080fd5b5061030f61032c366004612119565b610914565b34801561033d57600080fd5b506101605460405160ff9091168152602001610235565b34801561036057600080fd5b5061030f61036f366004612119565b61093f565b34801561038057600080fd5b5061030f61038f366004611f75565b6109bd565b3480156103a057600080fd5b506102296103af366004612061565b610a86565b3480156103c057600080fd5b5061030f610ac2565b3480156103d557600080fd5b506102916000805160206124c483398151915281565b3480156103f757600080fd5b5061030f610406366004611f75565b610ae3565b61030f610419366004611fff565b610b20565b34801561042a57600080fd5b5060008051602061254b8339815191525460ff16610229565b34801561044f57600080fd5b5061030f61045e36600461208b565b610bd6565b34801561046f57600080fd5b5061030f61047e36600461208b565b610c4b565b34801561048f57600080fd5b5061029161049e366004611f75565b6001600160a01b031660009081526065602052604090205490565b3480156104c557600080fd5b5061029160008051602061256b83398151915281565b3480156104e757600080fd5b5061030f610cba565b3480156104fc57600080fd5b5061022961050b366004612119565b610cdb565b34801561051c57600080fd5b50610253610d06565b34801561053157600080fd5b50610291600081565b34801561054657600080fd5b50610229610555366004612061565b610d15565b34801561056657600080fd5b50610229610575366004612061565b610dae565b34801561058657600080fd5b506102916000805160206124a483398151915281565b3480156105a857600080fd5b506105b1610dbb565b6040516001600160a01b039091168152602001610235565b3480156105d557600080fd5b5061030f6105e436600461208b565b610dca565b3480156105f557600080fd5b5061030f610604366004612119565b610e24565b34801561061557600080fd5b5061029160008051602061252b83398151915281565b34801561063757600080fd5b50610291610646366004611f90565b6001600160a01b03918216600090815260666020908152604080832093909416825291909152205490565b34801561067d57600080fd5b506102916000805160206124e483398151915281565b34801561069f57600080fd5b5061030f6106ae36600461208b565b610e4a565b60006001600160e01b03198216637965db0b60e01b14806106e457506301ffc9a760e01b6001600160e01b03198316145b92915050565b6060606880546106f99061240b565b80601f01602080910402602001604051908101604052809291908181526020018280546107259061240b565b80156107725780601f1061074757610100808354040283529160200191610772565b820191906000526020600020905b81548152906001019060200180831161075557829003601f168201915b5050505050905090565b6000610789338484610ea4565b50600192915050565b600061079f848484610fc8565b6001600160a01b0384166000908152606660209081526040808320338452909152902054828110156108295760405162461bcd60e51b815260206004820152602860248201527f45524332303a207472616e7366657220616d6f756e74206578636565647320616044820152676c6c6f77616e636560c01b60648201526084015b60405180910390fd5b6108368533858403610ea4565b60019150505b9392505050565b600054610100900460ff1661085e5760005460ff1615610862565b303b155b6108c55760405162461bcd60e51b815260206004820152602e60248201527f496e697469616c697a61626c653a20636f6e747261637420697320616c72656160448201526d191e481a5b9a5d1a585b1a5e995960921b6064820152608401610820565b600054610100900460ff161580156108e7576000805461ffff19166101011790555b6108f3858585856111a1565b6108fb6111e4565b801561090d576000805461ff00191690555b5050505050565b600082815260fb60205260409020600101546109308133611259565b61093a83836112bd565b505050565b6001600160a01b03811633146109af5760405162461bcd60e51b815260206004820152602f60248201527f416363657373436f6e74726f6c3a2063616e206f6e6c792072656e6f756e636560448201526e103937b632b9903337b91039b2b63360891b6064820152608401610820565b6109b98282611343565b5050565b306001600160a01b037f0000000000000000000000000000000000000000000000000000000000000000161415610a065760405162461bcd60e51b8152600401610820906122ae565b7f00000000000000000000000000000000000000000000000000000000000000006001600160a01b0316610a386113aa565b6001600160a01b031614610a5e5760405162461bcd60e51b8152600401610820906122fa565b610a67816113d8565b60408051600080825260208201909252610a839183919061145a565b50565b3360008181526066602090815260408083206001600160a01b03871684529091528120549091610789918590610abd908690612391565b610ea4565b60008051602061252b833981519152610adb8133611259565b610a8361159e565b6000805160206124e4833981519152610afc8133611259565b5061012d80546001600160a01b0319166001600160a01b0392909216919091179055565b306001600160a01b037f0000000000000000000000000000000000000000000000000000000000000000161415610b695760405162461bcd60e51b8152600401610820906122ae565b7f00000000000000000000000000000000000000000000000000000000000000006001600160a01b0316610b9b6113aa565b6001600160a01b031614610bc15760405162461bcd60e51b8152600401610820906122fa565b610bca826113d8565b6109b98282600161145a565b60008051602061252b833981519152610bef8133611259565b60005b82811015610c4557610c336000805160206124a4833981519152858584818110610c1e57610c1e612477565b905060200201602081019061032c9190611f75565b80610c3d81612446565b915050610bf2565b50505050565b60008051602061252b833981519152610c648133611259565b60005b82811015610c4557610ca860008051602061256b833981519152858584818110610c9357610c93612477565b90506020020160208101906106049190611f75565b80610cb281612446565b915050610c67565b60008051602061252b833981519152610cd38133611259565b610a8361164b565b600091825260fb602090815260408084206001600160a01b0393909316845291905290205460ff1690565b6060606980546106f99061240b565b3360009081526066602090815260408083206001600160a01b038616845290915281205482811015610d975760405162461bcd60e51b815260206004820152602560248201527f45524332303a2064656372656173656420616c6c6f77616e63652062656c6f77604482015264207a65726f60d81b6064820152608401610820565b610da43385858403610ea4565b5060019392505050565b6000610789338484610fc8565b6000610dc56113aa565b905090565b60008051602061252b833981519152610de38133611259565b60005b82811015610c4557610e126000805160206124a4833981519152858584818110610c9357610c93612477565b80610e1c81612446565b915050610de6565b600082815260fb6020526040902060010154610e408133611259565b61093a8383611343565b60008051602061252b833981519152610e638133611259565b60005b82811015610c4557610e9260008051602061256b833981519152858584818110610c1e57610c1e612477565b80610e9c81612446565b915050610e66565b6001600160a01b038316610f065760405162461bcd60e51b8152602060048201526024808201527f45524332303a20617070726f76652066726f6d20746865207a65726f206164646044820152637265737360e01b6064820152608401610820565b6001600160a01b038216610f675760405162461bcd60e51b815260206004820152602260248201527f45524332303a20617070726f766520746f20746865207a65726f206164647265604482015261737360f01b6064820152608401610820565b6001600160a01b0383811660008181526066602090815260408083209487168084529482529182902085905590518481527f8c5be1e5ebec7d5bd14f71427d1e84f3dd0314c0f7b2291e5b200ac8c7c3b925910160405180910390a3505050565b6001600160a01b03831661102c5760405162461bcd60e51b815260206004820152602560248201527f45524332303a207472616e736665722066726f6d20746865207a65726f206164604482015264647265737360d81b6064820152608401610820565b6001600160a01b03821661108e5760405162461bcd60e51b815260206004820152602360248201527f45524332303a207472616e7366657220746f20746865207a65726f206164647260448201526265737360e81b6064820152608401610820565b6110998383836116df565b6001600160a01b038316600090815260656020526040902054818110156111115760405162461bcd60e51b815260206004820152602660248201527f45524332303a207472616e7366657220616d6f756e7420657863656564732062604482015265616c616e636560d01b6064820152608401610820565b6001600160a01b03808516600090815260656020526040808220858503905591851681529081208054849290611148908490612391565b92505081905550826001600160a01b0316846001600160a01b03167fddf252ad1be2c89b69c2b068fc378daa952ba7f163c4a11628f55a4df523b3ef8460405161119491815260200190565b60405180910390a3610c45565b600054610100900460ff166111c85760405162461bcd60e51b815260040161082090612346565b6111d06116ea565b6111da8484611741565b610c45828261178f565b600054610100900460ff1661120b5760405162461bcd60e51b815260040161082090612346565b61123160008051602061256b83398151915260008051602061252b8339815191526117d0565b6112576000805160206124a483398151915260008051602061252b8339815191526117d0565b565b6112638282610cdb565b6109b95761127b816001600160a01b0316601461181b565b61128683602061181b565b604051602001611297929190612206565b60408051601f198184030181529082905262461bcd60e51b82526108209160040161227b565b6112c78282610cdb565b6109b957600082815260fb602090815260408083206001600160a01b03851684529091529020805460ff191660011790556112ff3390565b6001600160a01b0316816001600160a01b0316837f2f8788117e7eff1d82e926ec794901d17c78024a50270940304540a733656f0d60405160405180910390a45050565b61134d8282610cdb565b156109b957600082815260fb602090815260408083206001600160a01b0385168085529252808320805460ff1916905551339285917ff6391f5c32d9c69d2a47ea670b442974b53935d1edc7fd64eb21e047a839171b9190a45050565b7f360894a13ba1a3210667c828492db98dca3e2076cc3735a920a3ca505d382bbc546001600160a01b031690565b6113f06000805160206124e483398151915233610cdb565b8061140e575061140e6000805160206124c483398151915233610cdb565b610a835760405162461bcd60e51b815260206004820152601d60248201527f4552524f523a2041646472657373206e6f7420617574686f72697a65640000006044820152606401610820565b60006114646113aa565b905061146f846119b7565b60008351118061147c5750815b1561148d5761148b8484611a5c565b505b7f4910fdfa16fed3260ed0e7147f7cc6da11a60208b5b9406d12a635614ffd9143805460ff1661090d57805460ff191660011781556040516001600160a01b038316602482015261150c90869060440160408051601f198184030181529190526020810180516001600160e01b0316631b2ce7f360e11b179052611a5c565b50805460ff1916815561151d6113aa565b6001600160a01b0316826001600160a01b0316146115955760405162461bcd60e51b815260206004820152602f60248201527f45524331393637557067726164653a207570677261646520627265616b73206660448201526e75727468657220757067726164657360881b6064820152608401610820565b61090d85611b47565b60008051602061254b8339815191525460ff166115f45760405162461bcd60e51b815260206004820152601460248201527314185d5cd8589b194e881b9bdd081c185d5cd95960621b6044820152606401610820565b60008051602061254b833981519152805460ff191690557f5db9ee0a495bf2e6ff9c91a7834c1ba4fdd244a5e8aa4e537bd38aeae4b073aa335b6040516001600160a01b03909116815260200160405180910390a1565b60008051602061254b8339815191525460ff161561169e5760405162461bcd60e51b815260206004820152601060248201526f14185d5cd8589b194e881c185d5cd95960821b6044820152606401610820565b60008051602061254b833981519152805460ff191660011790557f62e78cea01bee320cd4e420270b5ea74000d11b0c9f74754ebdbfc544b05a2583361162e565b61093a838383611b87565b600054610100900460ff166117115760405162461bcd60e51b815260040161082090612346565b611719611b92565b611721611b92565b611729611b92565b611731611b92565b611739611b92565b611257611bb9565b600054610100900460ff166117685760405162461bcd60e51b815260040161082090612346565b815161177b906068906020850190611e2a565b50805161093a906069906020840190611e2a565b600054610100900460ff166117b65760405162461bcd60e51b815260040161082090612346565b610160805460ff191660ff84161790556109b93382611c41565b600082815260fb6020526040808220600101805490849055905190918391839186917fbd79b86ffe0ab8e8776151514217cd7cacd52c909f66475c3af44e129f0b00ff9190a4505050565b6060600061182a8360026123a9565b611835906002612391565b67ffffffffffffffff81111561184d5761184d61248d565b6040519080825280601f01601f191660200182016040528015611877576020820181803683370190505b509050600360fc1b8160008151811061189257611892612477565b60200101906001600160f81b031916908160001a905350600f60fb1b816001815181106118c1576118c1612477565b60200101906001600160f81b031916908160001a90535060006118e58460026123a9565b6118f0906001612391565b90505b6001811115611968576f181899199a1a9b1b9c1cb0b131b232b360811b85600f166010811061192457611924612477565b1a60f81b82828151811061193a5761193a612477565b60200101906001600160f81b031916908160001a90535060049490941c93611961816123f4565b90506118f3565b50831561083c5760405162461bcd60e51b815260206004820181905260248201527f537472696e67733a20686578206c656e67746820696e73756666696369656e746044820152606401610820565b803b611a1b5760405162461bcd60e51b815260206004820152602d60248201527f455243313936373a206e657720696d706c656d656e746174696f6e206973206e60448201526c1bdd08184818dbdb9d1c9858dd609a1b6064820152608401610820565b7f360894a13ba1a3210667c828492db98dca3e2076cc3735a920a3ca505d382bbc80546001600160a01b0319166001600160a01b0392909216919091179055565b6060823b611abb5760405162461bcd60e51b815260206004820152602660248201527f416464726573733a2064656c65676174652063616c6c20746f206e6f6e2d636f6044820152651b9d1c9858dd60d21b6064820152608401610820565b600080846001600160a01b031684604051611ad691906121ea565b600060405180830381855af49150503d8060008114611b11576040519150601f19603f3d011682016040523d82523d6000602084013e611b16565b606091505b5091509150611b3e828260405180606001604052806027815260200161250460279139611d2c565b95945050505050565b611b50816119b7565b6040516001600160a01b038216907fbc7cd75a20ee27fd9adebab32041f755214dbc6bffa90cc0225b39da2e5c2d3b90600090a250565b61093a838383611d65565b600054610100900460ff166112575760405162461bcd60e51b815260040161082090612346565b600054610100900460ff16611be05760405162461bcd60e51b815260040161082090612346565b611beb600033611de8565b611c036000805160206124e483398151915233611de8565b611c1b6000805160206124c483398151915233611de8565b6112576000805160206124c48339815191526000805160206124e48339815191526117d0565b6001600160a01b038216611c975760405162461bcd60e51b815260206004820152601f60248201527f45524332303a206d696e7420746f20746865207a65726f2061646472657373006044820152606401610820565b611ca3600083836116df565b8060676000828254611cb59190612391565b90915550506001600160a01b03821660009081526065602052604081208054839290611ce2908490612391565b90915550506040518181526001600160a01b038316906000907fddf252ad1be2c89b69c2b068fc378daa952ba7f163c4a11628f55a4df523b3ef9060200160405180910390a35050565b60608315611d3b57508161083c565b825115611d4b5782518084602001fd5b8160405162461bcd60e51b8152600401610820919061227b565b60008051602061254b8339815191525460ff161580611d895750611d898333611df2565b61093a5760405162461bcd60e51b815260206004820152602a60248201527f45524332305061757361626c653a20746f6b656e207472616e736665722077686044820152691a5b19481c185d5cd95960b21b6064820152608401610820565b6109b982826112bd565b6000611e0c60008051602061256b83398151915284610cdb565b8061083c575061083c6000805160206124a483398151915283610cdb565b828054611e369061240b565b90600052602060002090601f016020900481019282611e585760008555611e9e565b82601f10611e7157805160ff1916838001178555611e9e565b82800160010185558215611e9e579182015b82811115611e9e578251825591602001919060010190611e83565b50611eaa929150611eae565b5090565b5b80821115611eaa5760008155600101611eaf565b600067ffffffffffffffff80841115611ede57611ede61248d565b604051601f8501601f19908116603f01168101908282118183101715611f0657611f0661248d565b81604052809350858152868686011115611f1f57600080fd5b858560208301376000602087830101525050509392505050565b80356001600160a01b0381168114611f5057600080fd5b919050565b600082601f830112611f6657600080fd5b61083c83833560208501611ec3565b600060208284031215611f8757600080fd5b61083c82611f39565b60008060408385031215611fa357600080fd5b611fac83611f39565b9150611fba60208401611f39565b90509250929050565b600080600060608486031215611fd857600080fd5b611fe184611f39565b9250611fef60208501611f39565b9150604084013590509250925092565b6000806040838503121561201257600080fd5b61201b83611f39565b9150602083013567ffffffffffffffff81111561203757600080fd5b8301601f8101851361204857600080fd5b61205785823560208401611ec3565b9150509250929050565b6000806040838503121561207457600080fd5b61207d83611f39565b946020939093013593505050565b6000806020838503121561209e57600080fd5b823567ffffffffffffffff808211156120b657600080fd5b818501915085601f8301126120ca57600080fd5b8135818111156120d957600080fd5b8660208260051b85010111156120ee57600080fd5b60209290920196919550909350505050565b60006020828403121561211257600080fd5b5035919050565b6000806040838503121561212c57600080fd5b82359150611fba60208401611f39565b60006020828403121561214e57600080fd5b81356001600160e01b03198116811461083c57600080fd5b6000806000806080858703121561217c57600080fd5b843567ffffffffffffffff8082111561219457600080fd5b6121a088838901611f55565b955060208701359150808211156121b657600080fd5b506121c387828801611f55565b935050604085013560ff811681146121da57600080fd5b9396929550929360600135925050565b600082516121fc8184602087016123c8565b9190910192915050565b7f416363657373436f6e74726f6c3a206163636f756e742000000000000000000081526000835161223e8160178501602088016123c8565b7001034b99036b4b9b9b4b733903937b6329607d1b601791840191820152835161226f8160288401602088016123c8565b01602801949350505050565b602081526000825180602084015261229a8160408501602087016123c8565b601f01601f19169190910160400192915050565b6020808252602c908201527f46756e6374696f6e206d7573742062652063616c6c6564207468726f7567682060408201526b19195b1959d85d1958d85b1b60a21b606082015260800190565b6020808252602c908201527f46756e6374696f6e206d7573742062652063616c6c6564207468726f7567682060408201526b6163746976652070726f787960a01b606082015260800190565b6020808252602b908201527f496e697469616c697a61626c653a20636f6e7472616374206973206e6f74206960408201526a6e697469616c697a696e6760a81b606082015260800190565b600082198211156123a4576123a4612461565b500190565b60008160001904831182151516156123c3576123c3612461565b500290565b60005b838110156123e35781810151838201526020016123cb565b83811115610c455750506000910152565b60008161240357612403612461565b506000190190565b600181811c9082168061241f57607f821691505b6020821081141561244057634e487b7160e01b600052602260045260246000fd5b50919050565b600060001982141561245a5761245a612461565b5060010190565b634e487b7160e01b600052601160045260246000fd5b634e487b7160e01b600052603260045260246000fd5b634e487b7160e01b600052604160045260246000fdfee1ac655ab58995133a870d1fd307ddc1d624c8ad919a09e67867a7a1483e439aa76ace73a908083d89af9ff88e5b4f7cadb3591a80631063f68b695fda726db571840dc4906352362b0cdaf79870196c8e42acafade72d5d5a6d59291253ceb1416464726573733a206c6f772d6c6576656c2064656c65676174652063616c6c206661696c6564356a809dfdea9198dd76fb76bf6d403ecf13ea675eb89e1eda2db2c4a4676a26ad6a6591fa308fe948065665239402780db8ed4a8c4e4e16c4d066bcaa05efc2ce108bcc5e0f50fe603649304cbbbd94de794a404db82d884c0afc9ba9328e61a26469706673582212200ee03e7cc786e03a50866c456bd24df5eacab75df731b4aadb70825eb89eabcd64736f6c63430008060033",
  "linkReferences": {},
  "deployedLinkReferences": {}
}